:020000040800F2
:100000007025002099010008D5270008051D00086B
:10001000CD2700081F030008F12E00080000000093
:1000200000000000000000000000000001010008C6
:10003000210300080000000045010008392B0008DA
:10004000B3010008B3010008B3010008B3010008C0
:10005000B3010008B3010008B3010008B3010008B0
:10006000B3010008B3010008B3010008B3010008A0
:10007000B3010008B3010008B3010008B301000890
:10008000B3010008B3010008B3010008B301000880
:10009000B3010008B3010008B3010008B301000870
:1000A000B3010008B3010008B3010008B301000860
:1000B000B3010008B3010008E52B0008B3010008F4
:1000C000B3010008B3010008B3010008B301000840
:1000D000B3010008B3010008B3010008B301000830
:1000E00023030008B3010008B3010008DFF80CD0B7
:1000F00000F0D8F8004800473F2F00087025002086
:10010000224B19680868B0E8F00F80F30988BFF344
:100110006F8F4FF0000080F311884EF00D0E704786
:100120000000000006480068006880F3088862B696
:1001300061B6BFF34F8FBFF36F8F00DF00BF00BF0B
:1001400008ED00E0EFF30980BFF36F8F0F4B1A68E3
:1001500020E9F00F106008B54FF0500080F31188CF
:10016000BFF34F8FBFF36F8F03F0BEFD4FF0000062
:1001700080F31188BDE8084019680868B0E8F00FFE
:1001800080F30988BFF36F8F704700BF1400002011
:10019000EFF3058070470000064880470648004797
:1001A000FEE7FEE7FEE7FEE7FEE7FEE7FEE7FEE727
:1001B000FEE7FEE7E12B0008ED0000082DE9F05F07
:1001C0000546002092469B468846064681464024C6
:1001D0001BE0284641464746224600F020F8534699
:1001E0005A46C01A914110D311461846224600F0D3
:1001F0004AF82D1A67EB01084F46224601200021DC
:1002000000F041F817EB00094E41201EA4F1010453
:10021000DFDC484631462A464346BDE8F09F202AA7
:1002200004DB203A21FA02F00021704721FA02F3A0
:10023000D040C2F12002914008431946704740EA7D
:1002400001039B0703D009E008C9121F08C0042A54
:10025000FAD203E011F8013B00F8013B521EF9D23B
:100260007047D2B201E000F8012B491EFBD2704763
:100270000022F6E710B513460A4604461946FFF772
:10028000F0FF204610BD202A04DB203A00FA02F1DC
:10029000002070479140C2F1200320FA03F3194374
:1002A00090407047064C074D06E0E06840F00103BF
:1002B00094E8070098471034AC42F6D3FFF71AFFD2
:1002C000244F0008444F000870B504460068816858
:1002D000C943C90717D1816821F00101816000F08D
:1002E0007BFA05460AE000BF00F076FA401B0228C0
:1002F00004D920688068C043C00706D020688068A1
:10030000C043C007F0D0002070BDA06A40F01000CC
:10031000A062E06A40F00100E062012070BDFEE7EB
:10032000704710B54FF4806000F050F94FF4006052
:1003300000F04CF9BDE810404FF4805000F046B991
:1003400072B6FEE7F8B50024009490F82420254604
:10035000012A12D0012280F824204A681F23072A8C
:100360000DD20668776B521E02EB820293409F43C8
:100370000B6893401F43776319E00220F8BD0668BD
:100380000D2A0AD2376BD21F02EB820293409F43A1
:100390000B6893401F43376309E0F76A0D3A02EB9D
:1003A000820293409F430B6893401F43F7620A68A1
:1003B000072306680A2A0AD3F7680A3A02EB4202C0
:1003C00093409F438B6893401F43F76008E0376971
:1003D00002EB420293409F438B6893401F43376177
:1003E0000A68102A01D0112A20D1124B02689A42C1
:1003F00017D193681B0219D4936843F400039360E8
:100400000968102912D10C490C4A0968B1FBF2F1B4
:1004100001EB8101490000E0491E00910029FBD158
:1004200004E0816A41F020018162012480F82450B7
:100430002046F8BD002401401000002040420F007B
:100440002DE9F0414FF0000704003D467ED0A06A40
:10045000002628B9E66284F82460204600F07EF881
:100460002046FFF731FFA16AC90600D420B1A06A77
:1004700040F01000A06269E0A16A21F4885141F0C7
:100480000201A1626268E169237B0A4347EA4301F2
:100490000A43A1684FF48077B94209D0012907D0F7
:1004A0005FF0000194F814C0BCF1010F02D00AE023
:1004B0003946F7E7F3B1A36A43F02003A362E36A86
:1004C00043F00103E3622368D3F804C02CF4694CC1
:1004D0004CEA010CC3F804C021688B68DFF870C0D7
:1004E00003EA0C0313438B60A168B9420BD00129C6
:1004F00009D00CE0DFF85CC0A3690CEB43330B437D
:1005000043F40061DFE7218A0D05A5F58015216818
:10051000CB6A23F470032B43CB62216889680E4BAE
:100520001940914208D1E662A16A21F0020141F02E
:100530000101A162BDE8F081A06A20F0020040F054
:100540001000A062E06A40F00100E0620120F1E7E3
:10055000FDF7E1FF00E0FFFFFE0E1FFF00B585B0D5
:100560000021009101910291039100680E49884297
:1005700018D10E48816941F400718161816901F4EB
:1005800000710491816941F00401816180696946CB
:1005900000F004000490082000900320019004481B
:1005A00000F020F805B000BD00240140001002401A
:1005B00000080140B0F5806F04D0B0F5805F03D132
:1005C00002F07CBA01F0E6BD70470000044910B5A6
:1005D0000A68024202D00860FFF7ECFF10BD00007D
:1005E000140401402DE9F84FDFF8B8910024A9F177
:1005F000040B23460F2709F1040AABF1040EC9E0EE
:100600000125A5402A40AA427DD1674ED1F804C0F9
:10061000ACEB0608B44532D014DCBCF1030F3AD081
:1006200009DCBCF1000F2AD0BCF1010F1CD0BCF1D9
:10063000020F31D11DE0BCF1110F17D0BCF1120F28
:100640002AD119E0B8F5881F19D006DCB8F5803F2B
:1006500015D0B8F5801F1FD111E0B8F5001F0ED0DE
:10066000B8F5041F18D10AE0CB6815E0CB681B1D54
:1006700012E0CB6808330FE0CB680C330CE08B68DA
:100680002BB1012B4FF0080303D0456104E0042394
:1006900002E0056100E00023FF2A01D8064601E0E0
:1006A00000F104064FEA840501D9A5F12005D6F82A
:1006B000008007FA05FC28EA0C0803FA05F548EA69
:1006C0000508C6F800804D68ED0062D5374DAE696B
:1006D00046F00106AE61AD6924F0030605F00105A0
:1006E0000095334D06EB050CDCF80850A607360FD5
:1006F00007FA06F825EA0805DFF8B880404503D177
:100700004FF0000817E044E0DFF8AC80404502D12C
:100710004FF001080FE0DFF8A480404502D14FF010
:10072000020808E0DFF89880404502D14FF0030846
:1007300001E04FF0040808FA06F848EA0508CCF88A
:1007400008804D68D9F80060ED024D4601D516438A
:1007500000E096432E604D68DAF80060AD02554621
:1007600001D5164300E096432E604D68DBF800602B
:10077000AD035D4601D5164300E096432E604D68FB
:10078000DEF80060ED03754601D5164300E09643A0
:100790002E60641C0D682A46E5407FF431AFBDE849
:1007A000F88F000008040140000011100010024002
:1007B0000000014000080140000C01400010014011
:1007C000001401408068084000D0012070470AB141
:1007D000016170470904FBE7014880687047000029
:1007E0000400002070B5040025D094F83D000025D9
:1007F00020B984F83C50204600F0E6F9242084F823
:100800003D002068016821F0010101602068016855
:1008100041F4004101602068016821F40041016059
:1008200000F078FC4D4A6168914201D84C4900E0E3
:100830004C49884201D2012070BD4B492368B0FB6E
:10084000F1F15E6826F03F060E435E6063689342F6
:1008500006D94FF4967359434FF47A73B1FBF3F111
:100860002368491C1E6A26F03F06314319626168FD
:10087000914210D84900401EB0FBF1F2521CC2F365
:100880000B02042A01D2042022E0B0FBF1F0401C4C
:10089000C0F30B001CE0A268F2B301EBC10303EB51
:1008A0000116431EB3FBF6F35B1C43F480431B05A8
:1008B00049D092B301EBC10202EB0111401EB0FB23
:1008C000F1F0401CC0F30B0040F4804040F40040C5
:1008D0002168CA694CF6FF739A431043C861D4E992
:1008E000071001432068026822F0C0021143016032
:1008F000D4E9030101432068826848F2FF339A4338
:1009000011438160D4E9050108432168CA6822F0D7
:10091000FF021043C86001E00EE016E020680168A5
:1009200041F0010101602564202084F83D00256329
:1009300084F83E50002070BD01EB4106431EB3FB1E
:10094000F6F35B1CB3E70120C2E701EB4101401E57
:10095000B0FBF1F0401CC0F30B00B7E7A08601002C
:1009600080841E0000093D0040420F002DE9F84F31
:100970001F4690468A460446DDF82890FFF72CFF74
:10098000054694F83D0020287FD1192301224049D3
:100990002046009501F09CFA002876D194F83C009E
:1009A000012872D0012084F83C0020680168C90742
:1009B00003D1016841F0010101602068016821F460
:1009C00000610160212084F83D00102084F83E0081
:1009D00000262664C4F824806785608D20852D4814
:1009E000E0622B464A465146204601F0A3F990B9F1
:1009F000206841698069009036E02A4649462046D1
:100A000001F00CFB50B1206C042804D1206801686F
:100A100041F4007101600120BDE8F88F606A21682F
:100A200000780861606A401C6062618D491E6185C2
:100A3000218D491E89B2218522685369DB435B07FA
:100A40000BD451B100781061606A401C6062608D07
:100A5000401E6085208D401E20852A46494620463E
:100A600001F00AFA0028CED1208D0028C5D154F813
:100A70003D0B016841F400710160202004F81E095B
:100A8000E67766770020C7E7FFE70220C4E70000AB
:100A9000020010000000FFFF2DE9FF4F83B09A46CF
:100AA000DDE9119793460446DDF84080FFF794FE98
:100AB000054694F83D0020287FD1192301224049A2
:100AC0002046009501F004FA002876D194F83C0005
:100AD000012872D0012084F83C0020680168C90711
:100AE00003D1016841F0010101602068016821F42F
:100AF00000610160212084F83D00402084F83E0020
:100B000000262664C4F82480A4F82A90608D2085ED
:100B10002C48E062CDE9007553465A4620460499B8
:100B200001F056F970B930E02A463946204601F006
:100B300075FA58B1206C042804D12068016841F48A
:100B400000710160012007B0BDE8F08F606A216884
:100B500000780861606A401C6062218D491E89B27C
:100B60002185628D521E628522685369DB435B07D3
:100B70000BD469B100781061606A401C6062208DFE
:100B8000401E2085608D401E6085208D0028CBD1C1
:100B90002A463946204601F06FF90028CAD154F898
:100BA0003D0B016841F400710160202004F81E092A
:100BB000E67766770020C6E7FFE70220C3E700007C
:100BC000020010000000FFFF10B586B00021009168
:100BD00001910291039100680F4988421AD10F4C8C
:100BE000A06940F00800A061A069694600F0080013
:100BF0000490C02000901220019003200390084828
:100C0000FFF7F0FCE06940F40010E061E06900F4F7
:100C10000010049006B010BD0054004000100240C7
:100C2000000C0140024881680278114481607047DD
:100C300004000020074810B5016841F01001016070
:100C4000032000F0A7F80F2000F006F800F050F89D
:100C5000002010BD0020024030B505461F4887B077
:100C6000C16941F00401C161C06906A900F0040036
:100C7000009001A800F02EFA0498B0B100F04AFAF2
:100C800040001749174AB0FBF1F11748491E0260AE
:100C9000416040F2E7320021C0E9032181608161B7
:100CA00000F000FD040003D015E000F033FAE8E79F
:100CB0000D4800F043FD04000DD11E2000F03CF86B
:100CC000102D07D2002229461E2000F043F80748C5
:100CD000056000E0012407B0204630BD001002404E
:100CE00040420F0000080040B4050020080000202A
:100CF0000F4808B5816941F001018161816901F006
:100D000001010091C16941F08051C161C0690022B7
:100D100000F0805000900F21901E00F01BF8054855
:100D2000416821F0E06141F00071416008BD0000C0
:100D30000010024000000140002809DB00F01F0203
:100D4000012191404009800000F1E020C0F800112D
:100D500070470000F0B40E4B1B680C46C3F302232F
:100D6000C3F10705042D00D90425191D072901D257
:100D7000002300E0DB1E012606FA05F1491E214092
:100D800099409E40761E16403143F0BC02F0B1B847
:100D90000CED00E0064900F0070208684FF6FF037B
:100DA000184040EA0220034A1043086070470000E0
:100DB0000CED00E00000FA052DE9F04186B00400DA
:100DC00004D094F8A902002520B108E0012006B063
:100DD000BDE8F08184F8A852204600F05BF80320BB
:100DE00084F8A902206802F07AF804F110011422B4
:100DF00088466846FFF723FA94E80F0002F062F88D
:100E00000227D0BB0021206802F070F800200126E4
:100E10000EE000BF00EB800104EBC10181F8296006
:100E200001F8280F401CCD700D614D61C0B28D617D
:100E300061688142EED8002012E000BF00EB800123
:100E400004EBC10181F8695181F8680181F86B51A7
:100E5000C1F87851C1F87C51401CC0B2C1F8805132
:100E600061688142EAD8142241466846FFF7E7F9F3
:100E700094E80F0002F02AF810B184F8A972A5E7EF
:100E800084F8245084F8A962206802F01DF800203C
:100E90009DE7000008B500680649884208D1064869
:100EA000C16941F40001C161C06900F40000009013
:100EB00008BD0000005C0040001002402DE9F8432E
:100EC00005460078354CC00754D0E0690026C000C4
:100ED00008D4E06940F08050E061E069012600F04C
:100EE000805000902E480168C90512D401688046E0
:100EF00041F480710160FFF76FFC074605E000BF19
:100F0000FFF76AFCC01B642823D8D8F80000C0058E
:100F1000F6D5206A10F4407021D0A98801F4407100
:100F200081421CD0206A1F49012220F440700A60CF
:100F300000220A602062C00711D0FFF74DFC07466F
:100F400041F2883808E000BFFFF746FCC11B41456D
:100F500002D90320BDE8F883206A8007F4D5206A0F
:100F6000696820F44070084320621EB1E06920F0F7
:100F70008050E0612878800705D56068A96820F472
:100F80004040084360602878C00605D56068E9687D
:100F900020F48000084360600020DBE7001002407E
:100FA00000700040400442422DE9F0470F46050022
:100FB00061D0434E306800F00700B84209D2306873
:100FC00020F0070038433060306800F00700B84276
:100FD00051D128683B4C810712D5400703D5606882
:100FE00040F4E06060602878000703D5606840F452
:100FF000605060606068A96820F0F000084360609D
:101000002878C00728D06868012810D021680228F5
:1010100010D0890700292EDA616821F0030101430D
:101020006160FFF7D9FB804641F288390DE0216805
:101030008903EFE78901EDE7FFF7CEFBA0EB08019D
:10104000494502D90320BDE8F0876068696800F06F
:101050000C00B0EB810FEFD1306800F00700B84210
:101060000BD9306820F0070038433060306800F05A
:101070000700B84201D00120E5E72878400705D5F0
:101080006068E96820F4E060084360602878000741
:1010900006D56068296920F4605040EAC1006060AC
:1010A00000F058F86168084AC1F30311515CC84068
:1010B0000649086006480068FFF7CEFD0020C2E739
:1010C0000020024000100240FE46000810000020F0
:1010D000080000200F2202600C4A536803F003034B
:1010E0004360536803F0F0038360536803F4E063E4
:1010F000C36052684FF4E06303EAD202026104481D
:10110000006800F00700086070470000001002400F
:10111000002002400448054900684968044AC1F3B8
:101120000221515CC84070471000002000100240AE
:101130000E4700080448054900684968044AC1F39D
:10114000C221515CC84070471000002000100240CE
:101150000E4700080E4A51680E4801F00C03042B9C
:1011600011D0082B0FD10C48C1F38343C903C05CD5
:101170000AD55168084AC1F34041921E515C054AA4
:101180005043B0FBF1F070470449484370470000FA
:101190000010024000127A00EE46000800093D00EF
:1011A0002DE9F84F040070D02078C04DC00749D019
:1011B0006868C0F38100012807D06868C0F3810027
:1011C000022809D16868C00306D52868800339D58C
:1011D00060680028E7D035E06068B0F5803F0BD04C
:1011E00010B1B0F5A02F11D0286820F4803028600D
:1011F000286820F4802002E0286840F480302860CD
:10120000606890B1FFF7E8FA06460AE0286840F403
:1012100080202860F0E700BFFFF7DEFA801B64281B
:1012200073D828688003F7D50CE0FFF7D5FA064697
:1012300005E000BFFFF7D0FA801B6428F0D82868CB
:101240008003F7D420789A4E80074FF001094FF0C1
:10125000000839D5686810F00C0F07D06868C0F333
:101260008100022809D16868C00306D42868800775
:1012700014D52069012808D110E02069B0B1C6F862
:101280000090FFF7A9FA074605E00AE1FFF7A4FA84
:10129000C01B0228C4D828688007F7D52868616970
:1012A00020F0F80040EAC10028600DE0C6F8008098
:1012B000FFF792FA074604E0FFF78EFAC01B0228F8
:1012C00023D828688007F7D4207800072CD57948E0
:1012D000A169D9B1C0F80090FFF77EFA074604E093
:1012E000FFF77AFAC01B02280FD8686A8007F7D583
:1012F00071484FF4FA510068B0FBF1F0009000BF64
:101300000098411E0091FAD20EE080E0C0F8008003
:10131000FFF762FA074604E0FFF75EFAC01B0228F7
:1013200075D8686A8007F7D42078400760D5E869E7
:101330000027C00008D4E86940F08050E861E869FF
:10134000012700F0805000905C480168C90513D463
:101350000168834641F480710160FFF73DFA8246DF
:1013600006E000BFFFF738FAA0EB0A0064284ED869
:10137000DBF80000C005F5D5E06801280AD008B107
:10138000052813D0286A20F001002862286A20F07E
:10139000040002E0286A40F001002862E06841F29F
:1013A000883B98B1FFF718FA82460BE0286A40F0B4
:1013B00004002862EEE700BFFFF70EFAA0EB0A0177
:1013C00059455AD8286A8007F6D50CE0FFF704FA89
:1013D000824605E0FFF700FAA0EB0A0159454CD818
:1013E000286A8007F6D41FB1E86920F08050E861D0
:1013F000E06988B36968C1F38101022944D00228F9
:10140000C6F8608004D0FFF7E7F9044638E034E01E
:10141000FFF7E2F9074604E0FFF7DEF9C01B0228F8
:101420002BD828688001F7D4206AB0F5803F05D119
:101430006868A16820F4003008436860D4E90801B6
:101440000843696821F4741108436860C6F8609025
:10145000FFF7C2F9044606E025E000BFFFF7BCF93C
:10146000001B022809D828688001F7D51BE000BFBF
:10147000FFF7B2F9001B022802D90320BDE8F88F5C
:1014800028688001F4D40EE00128F7D06868226A49
:1014900000F48031914204D1616A00F470108842F6
:1014A00001D00120EAE70020E8E700000010024038
:1014B00000004242800442421000002000700040C0
:1014C00070B5040009D0606A002540B125616561EE
:1014D000A56294F8510040B10CE0012070BD606835
:1014E000B0F5827FF4D0E561F2E784F850502046F1
:1014F00000F040F8022084F851002068016821F0D3
:1015000040010160A088218900F4827001F4044147
:101510000843A18901F400610843217C01F0020124
:101520000843217D01F001010843218B01F4007182
:101530000843217F01F03801084394F8201001F09E
:1015400080010843218D01F400510843216808609F
:10155000A069042101EA1040216848602068C1693F
:1015600021F40061C1616565012084F8510000200B
:1015700070BD000030B585B0002400940194029441
:10158000039400681449884223D11448816941F4C6
:1015900080518161816901F480510491816941F038
:1015A0000401816180690E4D00F004000490A020C8
:1015B0000090022001900320039069462846FFF71F
:1015C00011F84020CDE90004694628460294FFF74F
:1015D00009F805B030BD00000030014000100240A5
:1015E000000801407047704710B590F83C20012A70
:1015F00022D0012280F83C20CA688C6822F4407214
:1016000022434C6822F4806222430C6822F4006278
:1016100022430C6922F4805222434C6922F4005286
:101620002243C969002322F480420A4301684A64C4
:1016300080F83C30002010BD022010BD70B590F83D
:101640003C20012A26D0012480F83C40022280F868
:101650003D2003685A689D6822F070060A6832438C
:101660005A600D4B02689A4208D0B2F1804F05D003
:101670000A4B9A4202D00A4B9A4204D1496825F09B
:1016800080031943916080F83D40002180F83C10B0
:10169000084670BD022070BD002C014000040040CF
:1016A0000008004010B5040003D094F83D0010B1CC
:1016B00007E0012010BD002084F83C00204600F027
:1016C0001FF8022084F83D00211D206801F090FAE7
:1016D000012084F8460084F83E0084F83F0084F836
:1016E000400084F8410084F8420084F8430084F804
:1016F000440084F8450084F83D00002010BD00003F
:1017000008B50C4A01680C48914207D1816941F43F
:1017100000618161806900F4006009E0B1F1804FEF
:1017200007D1C16941F00101C161C06900F0010048
:10173000009008BD002C01400010024090F83D10C0
:10174000012901D001207047022180F83D10016875
:10175000CA6842F00102CA6000680B49884208D09A
:10176000B0F1804F05D00949884202D0084988422B
:1017700004D1816801F00701062903D0016841F016
:101780000101016000207047002C0140000400406E
:101790000008004070B5044690F83C000025012880
:1017A00017D0012684F83C60022084F83D002068B0
:1017B000826822F0770222F47F4282600868502813
:1017C00038D00DDC20284FD005DC90B3102811D183
:1017D0004AE0022070BD302846D040280AD13BE0C4
:1017E00060282FD070280DD0B0F5805F03D0B0F501
:1017F000005F12D0012584F83D60002084F83C0091
:10180000284670BDCB68D1E90121206801F026FA95
:101810002068816841F0770109E0CB68D1E90121B6
:10182000206801F01BFA2068816841F480418160E2
:10183000E1E719E0CA684968206801F0C3FA50215D
:10184000206806E0CA684968206801F0CCFA602187
:10185000206801F00DFACEE7CA684968206801F0F7
:10186000B1FA40212068F4E7226801461046F0E70B
:10187000704770B50446006801694FF00005C94320
:10188000890715D4C168C943890711D4E91E0161CC
:1018900001202077206880698007204602D0FFF76A
:1018A000E7FF04E000F00EF9204600F0B3F92577D9
:1018B00020680169C943490717D4C168C94349076A
:1018C00013D46FF004010161022020772068806941
:1018D00010F4407F204602D0FFF7CAFF04E000F07A
:1018E000F1F8204600F096F9257720680169C94390
:1018F000090716D4C168C943090712D46FF008015B
:101900000161042020772068C0698007204602D04A
:10191000FFF7AEFF04E000F0D5F8204600F07AF9BA
:10192000257720680169C943C90617D4C168C9432E
:10193000C90613D46FF010010161082020772068D8
:10194000C06910F4407F204602D0FFF791FF04E009
:1019500000F0B8F8204600F05DF9257720680169AD
:10196000C943C90708D1C168C943C90704D1891E41
:101970000161204600F050F920680169C943090659
:1019800009D4C168C943090605D46FF0800101611B
:101990002046FFF727FE20680169C943490609D49C
:1019A000C168C943490605D46FF040010161204672
:1019B00000F03CF920680169C94389060BD4C1686D
:1019C000C943890607D46FF0200101612046BDE8B4
:1019D0007040FFF708BE70BD70B586B00021009161
:1019E0000191029103910068304B31490224314A40
:1019F000984211D1886940F0040088618869039495
:101A000000F0040004908815CDE9000469461046F2
:101A1000FEF7E8FD06B070BD274E284DB0F1804FAF
:101A20001BD0274A9042F5D1886940F008008861B0
:101A30008869694600F0080004901020CDE9000490
:101A400030460394FEF7CEFD686820F4406040F015
:101A5000E06040F400606860DCE7886940F0040002
:101A60008861886900F004000490886940F00800EB
:101A700088618869694600F00800049048F2040013
:101A8000CDE9000410460394FEF7ACFD0820CDE933
:101A90000004694630460394FEF7A4FD686820F40C
:101AA000407040F0E06040F48070D4E7002C0140CA
:101AB0000010024000080140000C014000000140FD
:101AC00000040040704770B5044690F83C000026C2
:101AD0000D4601280FD0012084F83C006AB1042A89
:101AE0001DD0082A2FD00C2A3FD00126002084F8D0
:101AF0003C00304670BD022070BD206801F0C0F887
:101B00002068816941F0080181612068816921F0C4
:101B100004018161206881692A69114311E020680C
:101B200001F0D6F82068816941F400618161206884
:101B3000816921F480618161206881692A6941EAB3
:101B400002218161D2E7206801F0EEF82068C169C6
:101B500041F00801C1612068C16921F00401C1613F
:101B60002068C1692A69114311E0206801F008F971
:101B70002068C16941F40061C1612068C16921F434
:101B80008061C1612068C1692A6941EA0221C1619D
:101B9000ACE710B5040003D094F83D0010B107E0A5
:101BA000012010BD002084F83C00204600F01EF803
:101BB000022084F83D00211D206801F019F8012061
:101BC00084F8460084F83E0084F83F0084F8400022
:101BD00084F8410084F8420084F8430084F844000B
:101BE00084F8450084F83D00002010BD08B5006869
:101BF0000649884208D10648C16941F00201C16125
:101C0000C06900F00200009008BD00000004004020
:101C1000001002407047000000680349884201D16B
:101C2000FFF700B87047000000080040704770B52B
:101C3000040004D094F84100002510B106E0012012
:101C400070BD84F84050204600F024F8242084F829
:101C500041002068C16821F40051C160204601F0B4
:101C6000D5F82068016921F490410161206841693B
:101C700021F02A0141612068C16841F40051C1602E
:101C80006564202084F8410084F8420065630020E8
:101C900070BD000030B585B000240094019402941A
:101CA000039400681449884224D11448816941F49E
:101CB00080418161816901F480410491816941F031
:101CC0000401816180690E4D00F0040004904FF41E
:101CD000007000900220019003200390694628467E
:101CE000FEF780FC2815CDE90004694628460294D9
:101CF000FEF778FC05B030BD00380140001002400E
:101D000000080140FEE701684A69D24352050FD43A
:101D10006FF480624A61002140F8301F2022427334
:101D20008173026942F0040202610173012070476D
:101D300000207047F8B50446C06A1E460D46174697
:101D4000082807D0012805D010F5803F02D0206B6D
:101D5000122804D12068016841F4807101601346A3
:101D600000224FF001112046009600F0B1F840B17A
:101D700020680068C00502D54FF40070206403207D
:101D8000F8BD2069B0F5804F0ED00620216800EA2A
:101D9000D51040F0F000086133463A460B49204622
:101DA00000F0DEF878B902E005F0FE0000E0E8B2ED
:101DB00021680861054933463A46891F204600F0EC
:101DC000CFF80028DCD00120F8BD00000800010099
:101DD0002DE9F843044600680D46DDE908970168DF
:101DE0009846164641F4807101604B4600224FF040
:101DF00001112046009700F06BF848B12068006898
:101E0000C00502D54FF4007020640320BDE8F883BC
:101E1000216805F0FE0008613B464A461549204608
:101E200000F09EF888B920684169806900903A46C0
:101E30004946204600F0F2F848B1206C042804D14D
:101E40002068016841F4007101600120DEE7F5B20D
:101E5000B8F1010F09D02168300A08613A464946B5
:101E6000204600F0DBF80028E7D12068056100205B
:101E7000CCE700000200010070B516460D4604468E
:101E80001EE02046FFF73FFF08B1012070BD681C2F
:101E900016D0FEF7A1FC801BA84200D885B92068A7
:101EA0004069C04340070BD5002044F8300F202183
:101EB0006173A073216941F0200121612073E4E77F
:101EC00020684069C0434007DBD4002070BD00009B
:101ED0002DE9F047984617460D460446C1F30746DC
:101EE000DDF820902AE000BFB8F1FF3F26D0FEF7D2
:101EF00073FCA0EB0901414502D8B8F1000F1DD1D8
:101F00002068012E16D0806925EA00000004000C2C
:101F100012D00020B84211D1002044F8300F202107
:101F20006173A073216941F02001216120730120B8
:101F3000BDE8F0874069E7E70120EBE72068012E64
:101F40000AD0806925EA00000004000C06D00020B9
:101F5000B842C9D00020EBE74069F3E70120F7E77A
:101F60002DE9F047984616460D4604464FF0000905
:101F70004FF0200AC1F3074723E020684069C043BF
:101F8000400515D42068016841F4007101602168A2
:101F90006FF480604861C4F8309084F83DA084F804
:101FA0003E90216C41F00401216484F83C9021E0D2
:101FB000701C06D0FEF710FCA0EB0800B04203D85E
:101FC00016B1012F1FD021E02068012F15D08069A4
:101FD00025EA00000004000C18D000BF44F8309F30
:101FE00084F80DA084F80E90216941F02001216150
:101FF00084F80C900120BDE8F087406925EA0000D4
:102000000004000CEAD12068406901E02068806982
:1020100025EA00000004000CAFD1ECE770B51646CD
:102020000D4604461EE02046FFF76DFE08B1012074
:1020300070BD681C16D0FEF7CFFB801BA84200D8ED
:1020400085B920684069C04300060BD5002044F8DC
:10205000300F20216173A073216941F020012161BB
:102060002073E4E720684069C0430006DBD4002009
:1020700070BD00002DE9F84FDFF8FC9000224846C3
:10208000DFF8F8C0D0E90261D9E900400B46341B03
:1020900061EB0001501EB4EB0C0C1546174671F1B4
:1020A000000C5ED3DFF8D8804FF0000CB8EB0404CE
:1020B0007CEB010C55D34C46D4E904C1BCEB0606BD
:1020C00061EB03012F4BF31A71F1000349D3DFF8E1
:1020D000B8C00023BCEB06068B4142D300234FF06F
:1020E0000309EA4609EB430808F1010C04EBCC01B3
:1020F00004EBC80CD1E90061DCE9008CB6EB080602
:1021000061EB0C015206DFF88480120E6D1C4FF05B
:10211000000CB8EB06067CEB010C01D242F0010288
:10212000082D04D10AF80720002215467F1C5B1CED
:10213000202BD7DB9DF80110C943CBB28DF80130BD
:102140009DF80310C943CAB28DF803209DF8001012
:10215000994203D19DF80230934204D00C4A0021E9
:102160001160BDE8F88F084600F092FC9DF802006F
:1021700000F08EFC0020F4E7501F002000127A00CF
:1021800080969800E0673500C03B470340420F004F
:10219000980000202DE9F04101F0AAFB254C264FC4
:1021A000D4E90423861A61EB030200231D46BE1BFB
:1021B000934100D22560C4E90401204A236802EB60
:1021C000C3065B1CC6E900012360042B06D0442B28
:1021D00002D1FFF74FFF2560BDE8F081D2E9026030
:1021E000D2E900370146F31A60EB0700144FDF1BFA
:1021F00070F10007F0D3DFF84CC00027BCEB0303FD
:102200008741E9D3D2E90402801B62EB01020E4947
:10221000411A72F10001DFD34FEAAC030021181A12
:102220009141D9D3002000F033FC002000F030FCB5
:10223000D1E700009800002000E1F505501F0020C4
:1022400000127A008096980080841E0000F0C3BAC5
:1022500000F0D6BA00F0D0BB10B506484FF40053DA
:1022600009B1002200E001221946FEF7B0FA002071
:1022700010BD00000010014070B586B00024114868
:102280000094019402940394816941F010018161EA
:1022900080690D4E00F010004FF400550490224666
:1022A00029463046FEF793FA01200095CDE9010456
:1022B0000220039069463046FEF794F906B00020EC
:1022C00070BD00000010024000100140FFF7D4FF75
:1022D0004FF4FA7401210846FFF7BEFF204600F0D4
:1022E0004BFE00210120FFF7B7FF204600F044FE1F
:1022F000F0E700003EB500241148009401940294D8
:102300000E498460016004730475012505614FF472
:1023100060214460C161FEF793F808B1FEF710F840
:102320000320CDE90005694602940548FEF70AF846
:10233000002801D0FEF704F83EBD00000024014053
:10234000C80000201CB5094A0021094800F05EFEC3
:1023500008498022086000211820CDE900010B46C1
:1023600005A1074801F0A2FF1CBD0000C8460008F7
:10237000292B0008000000204D795461736B000088
:10238000CF2700082DE9F04786B000244B48009481
:10239000019402940394816941F010018161816983
:1023A00001F010010491816941F02001816181698E
:1023B00001F020010491816941F00401816181698A
:1023C00001F004010491816941F008018161806993
:1023D0003B4F00F008004FF40055049000222946BE
:1023E0003846FEF7F4F9DFF8DC9000221321484666
:1023F000FEF7EDF9DFF8D0A04FF402480022414685
:102400005046FEF7E4F90095022601250396CDE932
:10241000015469463846FEF7E5F811270097039600
:10242000CDE9015469464846FEF7DCF8CDE902568D
:10243000CDE9006769464846FEF7D4F803208DE8E9
:10244000310069465046FEF7CDF8A80200901F48BB
:10245000CDE9010569465046FEF7C4F81C4F4FF41C
:102460000260CDE90007694602955046FEF7BAF8CA
:102470002803CDE90007694602945046FEF7B2F8FA
:102480004FF48240CDE90004694650460294FEF7BD
:10249000A9F8CDF800800396CDE90154694650466D
:1024A000FEF7A0F8002205212820FEF753FC282083
:1024B000FEF742FC06B0BDE8F087000000100240C5
:1024C0000010014000080140000C014000003110E4
:1024D000000011100D4810B50B4901600C49416016
:1024E00000214FF480428160C0E9031241618161A3
:1024F000C1610162FEF776F9002803D0BDE8104003
:10250000FDF71EBF10BD000000540040F800002081
:10251000A0860100104810B50E4901604FF4827189
:10252000416000218160C1604FF400720161C0E927
:1025300005120822C0E90721416281620A21C162B5
:10254000FEF7BEFF002803D0BDE81040FDF7F8BE3F
:1025500010BD0000003001404C01002010B596B0C5
:1025600000240F9410941194129413941C2108A821
:102570001494FDF77DFE20216846FDF779FE2A4878
:10258000284901604721C0E9011440F2E731C0E960
:1025900003148021C0E90541FFF784F808B1FDF775
:1025A000CFFE4FF480500F900FA91F48FFF7F2F8AD
:1025B00008B1FDF7C5FE1C48FFF7EBFA08B1FDF7BF
:1025C000BFFE139413A918481494FFF737F808B105
:1025D000FDF7B6FE6020089040F2F310CDE9090443
:1025E0000B940C940D94002208A90F480E94FFF749
:1025F0006AFA08B1FDF7A4FE00944FF40050CDE94B
:102600000440029401940394694607480794FEF736
:10261000EBFF08B1FDF794FE0348FFF7DDF916B0B4
:1026200010BD0000002C0140A401002010B58EB0A8
:1026300000240794089409940A940B941C2168467A
:102640000C94FDF715FE27484FF08041016040F2E1
:102650006711C0E9011440F2CF71C0E90314802171
:102660008161FFF71FF808B1FDF76AFE4FF4805053
:10267000079007A91B48FFF78DF808B1FDF760FE2A
:102680001848FFF786FA08B1FDF75AFE0B940BA91C
:1026900014480C94FEF7D2FF08B1FDF751FE6020FC
:1026A000CDE900040294002269460E480494FFF725
:1026B0000AFA08B1FDF744FE042269460948FFF70B
:1026C00002FA08B1FDF73CFE082269460548FFF70B
:1026D000FAF908B1FDF734FE0248FFF77DF90EB0B4
:1026E00010BD0000EC01002010B58AB00024079452
:1026F0001C2168460894FDF7BBFD18481649016087
:102700000721C0E9011440F2E731C0E90314802138
:102710008161FFF73EFA08B1FDF712FE079407A9A1
:102720000E480894FEF78AFF08B1FDF709FE602005
:1027300000904FF46170CDE901040022694607481A
:102740000494FFF7C0F908B1FDF7FAFD0348FFF75D
:1027500043F90AB010BD000000040040340200201C
:102760000C4810B50A4901604FF4E1314160002185
:1027700081600C22C160C0E904128161C161FFF770
:1027800056FA002803D0BDE81040FDF7D9BD10BDB2
:10279000003801407C0200200B4810B50949016057
:1027A000082141600221816000218161C1610162D3
:1027B000FEF702FB002803D0BDE81040FDF7C0BDC6
:1027C00010BD0000005C0040C4020020FEE7FFF7DF
:1027D0007DFDFCE7FEE710B5A0B00024802168462F
:1027E000FDF746FD0021204600F0E6F8802168460E
:1027F00000F03EF9641CE4B2082CF3D320B010BD05
:1028000010B50224202000F01FF9204600F01CF92A
:102810001F4804703F24A82000F016F9204600F05D
:1028200013F90024D32000F00FF9204600F00CF932
:10283000402000F009F9A12000F006F9C82000F0BE
:1028400003F90021084600F0A1F87F24812000F060
:10285000FBF8204600F0F8F8A42000F0F5F8A620D8
:1028600000F0F2F8D52000F0EFF8802000F0ECF84E
:102870008D2000F0E9F8142000F0E6F80021012096
:1028800000F084F8BDE81040AF2000F0DDB8000093
:102890008C000020F0B589B00024074620466D4624
:1028A00004AE002A08DA4FF02D038DF800304FF007
:1028B0000104C2F1000214E006D14FF030008DF89F
:1028C00000004FF001041AE04FF00A0C92FBFCF3F9
:1028D0000CFB132392FBFCF203F13003335400F1A1
:1028E0000100002AF0D108E006EB0002A0F101008F
:1028F00012F8012C2A5504F101040028F4D14FF0FC
:10290000000028552A46384600F003F809B0204652
:10291000F0BD2DE9F04117460E46044600250BE0B8
:102920003146204600F00EF8641CE4B20F2C02D9A8
:102930000024B61CF6B26D1C7A5D002AF0D1284640
:10294000BDE8F08170B51646C206150E0C46072983
:1029500018D80F2816D82946204600F02DF80A4826
:10296000082100EB0610064600F082F8641CE0B275
:10297000294600F021F806F10800BDE87040082162
:1029800000F076B870BD00001647000870B50C4620
:10299000050001D0012D0ED10CB1012C0BD1DA2094
:1029A00000F052F8280100EB4410BDE87040801C94
:1029B000C0B200F049B870BD70B50E4D0C46297814
:1029C000022905D1072803D8B030C0B200F03CF886
:1029D000287802280CD17F2C0AD804F00F0000F0D0
:1029E00033F8102000EB1410BDE8704000F02CB854
:1029F00070BD00008C0000200024FFF701FFFFF7EE
:102A0000EAFE002141220846FFF79CFF59220021DF
:102A10000120FFF797FF08A202210020FFF779FFAE
:102A2000224604210020FFF735FF0121204600F057
:102A30007FFA0446E5E7000048656C6C6F20576F2D
:102A4000726C6421000000001CB500218DF8041098
:102A50008DF805004FF4FA7000900448022301AA93
:102A600078214068FDF782FF1CBD00008C0000202B
:102A70000EB54FF4FA728DE8070004480123402296
:102A800078214068FEF708F80EBD00008C00002099
:102A9000084B10B599680A46491CCC1701EB5464E1
:102AA00024F07F04091B5C68A14202D0024CA054B0
:102AB000996010BD98000020D01E00202DE9F04143
:102AC00000F016FF06460D46022000F055FA134F9F
:102AD0004FF480513846FDF775FE002816D0104C93
:102AE000D4E90401321A65EB01030E480021FDF719
:102AF00065FB606001213846FDF764FE0028206810
:102B000006D0401CC4F80000C4E90465BDE8F081AB
:102B1000401E2060606840426060F5E7000C0140A4
:102B2000B000002000CA9A3BFFF792FBFFF78EFB34
:102B3000FFF790FBFCE7000010B5502080F31188F0
:102B4000BFF34F8FBFF36F8F01F01CFC18B1044926
:102B50004FF080500860002080F3118810BD000005
:102B600004ED00E030B593B028216846FDF780FB06
:102B700014210AA8FDF77CFB002401200F94109477
:102B80001194010412948DE8130004904FF4E010A6
:102B9000CDE90810022507956846FEF701FB08B14C
:102BA00072B6FEE70F20CDE90A054FF48060CDE94B
:102BB0000C4002210AA80E94FEF7F6F908B172B68D
:102BC000FEE712200F904FF40040CDE911040FA84A
:102BD000FEF774F9002801D072B6FEE713B030BDDD
:102BE000704700000148FEF744BE0000B405002015
:102BF000F0B50268164B174C174D4FF080479842BE
:102C000005D0B84203D0A04201D0A84203D122F09F
:102C100070064A683243984205D0B84203D0A042B9
:102C200001D0A84203D122F44074CA6822434C69FF
:102C300022F08002224302608A68C2620A688262CD
:102C4000984201D10969016301214161F0BD000091
:102C5000002C0140000400400008004010B58468CA
:102C600042EA032224F47F440A432243826010BDD7
:102C7000826822F070020A4342F0070181607047C7
:102C800030B5036A026A22F0010202624268846976
:102C900024F073050C682C4323F002058B682B434A
:102CA0000A4DA8420BD123F00805CB6822F44072EC
:102CB0002B434D6923F0040315438A692A4342607C
:102CC000846149684163036230BD0000002C01400B
:102CD00030B5026A036A23F0100303624368846913
:102CE0000D6824F4E64444EA05248D6822F02002AD
:102CF00042EA05120B4DA8420ED1CD6822F08002A7
:102D000042EA05124D6923F4406343EA85038D6965
:102D100022F0400243EA850343608461496881638D
:102D2000026230BD002C014030B5036A026A22F411
:102D3000807202624268C46923F4007324F0730550
:102D40000C682C438D6843EA05230C4DA8420ED134
:102D5000CD6823F4006343EA05234D6922F4405211
:102D600042EA05128D6923F4806342EA051242604B
:102D7000C4614968C163036230BD0000002C01409A
:102D800030B5046A026A22F4805202624268C36962
:102D90000D6823F4E64343EA05238D6824F40054C8
:102DA00044EA0534064DA84204D14D6922F480421C
:102DB00042EA85124260C36149680164046230BD21
:102DC000002C014010B5036A046A24F00104046277
:102DD000846924F0F00444EA021423F00A020A434E
:102DE0008461026210BD10B5036A046A24F0100405
:102DF0000462846923F0A00324F4704444EA02329C
:102E000043EA01118261016210BD000070B5044601
:102E100000680169E26821F44051114301612169B0
:102E2000A0680843616908432168CA6841F20C63DD
:102E30009A430243CA6020684169A26921F4407143
:102E4000114341611E492068884202D1FEF772F9A0
:102E500001E0FEF75FF900EBC00101EB00126068D2
:102E600064218000B2FBF0F3B3FBF1F36FF01806BE
:102E70007343B2FBF0F5B2FBF0F605EB83053223AA
:102E800003EB0515B5FBF1F5B6FBF1F605F0F00522
:102E900005EB0615B2FBF0F6B2FBF0F0B0FBF1F07B
:102EA0006FF01802504306EB800003EB0010B0FBFC
:102EB000F1F0216800F00F002844886070BD000028
:102EC000003801400020704700207047012120F8A1
:102ED000401F00210180818001820846704730F840
:102EE000401F21F43F4101800020704700207047BF
:102EF000FEE70907090E002804DB00F1E02080F856
:102F00000014704700F00F0000F1E02080F8141D5D
:102F1000704702E008C8121F08C1002AFAD17047A2
:102F20007047002001E001C1121F002AFBD1704749
:102F300003B581B0DDE90101084400900EBDFDF745
:102F400079FEFFF70FFEFFF71DFAFFF7C3FAFFF751
:102F5000D1F9FFF7DFFAFFF71FFCFFF7FFFAFFF7E2
:102F600065FBFFF7C1FBFFF7FBFB00F013F8FFF772
:102F7000E9F900F02BF8FEE770B5054600244FF4A0
:102F80007A7603E0304600F0D5FC641CAC42F9DBF5
:102F900070BD0000EFF3058058B9EFF3108040B921
:102FA00009490868022801D030B109E0EFF3118027
:102FB00030B16FF0050070470120086000207047B5
:102FC0004FF0FF30704700006400002010B5EFF3B1
:102FD000058060B9EFF3108048B90B4908680228F2
:102FE00002D0012806D00BE0EFF3118040B16FF062
:102FF000050010BD0220086000F02AFE002010BD70
:103000004FF0FF3010BD000064000020F0B585B027
:103010004FEA01034FF00004EFF305810394A1BBD5
:10302000EFF3108189BB21490968022902D1EFF32E
:10303000118151BB48B3802618218DF8104004AD92
:1030400042B3176807B13D4697691FB139467F1EE5
:10305000382F02D21779FF0702D0002005B0F0BD4B
:10306000576907B1BE08D2F808C0BCF1000F0DD0F7
:10307000D4685C2C18D312693AB137B18DE80610C8
:103080003246294601F03FF903900DE0D7685FB959
:1030900012694AB903AACDE90012B2B2294601F079
:1030A00005F9012800D003940398D7E764000020B5
:1030B0002DE9F041134C0F46054666692068001D56
:1030C00000F054FC681C07D137B12168BDE8F0411D
:1030D0000D48091D00F09ABC20683544B542456092
:1030E000216805D2A068BDE8F041091D00F076BC5A
:1030F0006068091D00F072FC206B854200D22563D8
:10310000BDE8F08114000020EC0A00202DE9F04118
:10311000054600F087FC2D4C2069401C206120688A
:103120002B4F10B1E06930B32BE0256020690128F6
:1031300027D1002606EB860007EB800000F040FC5C
:10314000761C382EF6D3234800F03AFC2148143080
:1031500000F036FC1F48283000F032FC1D483C309F
:1031600000F02EFC1B48503000F02AFC194860602B
:103170001430A06005E02068E96AC06A884200D87F
:103180002560E06A401CE0626864E86AA1698842E0
:1031900000D9A06100EB800007EB8000291D00F042
:1031A00035FC00F05FFCE06900280CD02068E96A7B
:1031B000C06A884207D208494FF080500860BFF3C8
:1031C0004F8FBFF36F8FBDE8F08100001400002027
:1031D0003C0600209C0A002004ED00E038B500F019
:1031E00021FC104CA068C8B90F4800F0E9FB0E485C
:1031F000143000F0E5FB0C482060143060600A4B8E
:1032000000202833009003F1500210210A2000F022
:10321000F1FDA06010B105A100F0A2FCBDE83840AE
:1032200000F020BC50000020000B0020546D7251B3
:103230000000000030B4026C0B46002A0BD0C168BD
:103240001144C1604468A14201D30168C16030BC2F
:103250001846FCF7F4BF30BC70472DE9F041856B90
:10326000174604460026026C82B1C7B1E068FCF73D
:10327000E6FFE168206C091AE1602268914202D2FF
:103280006168081AE060022F16D017E02068A8B91C
:10329000606801F0DBF80646002060600EE0A06880
:1032A000FCF7CDFF216CA0680844A06061688842EB
:1032B00004D32068A06001E005B16D1E6D1CA563FC
:1032C0003046BDE8F08110B5044690F8590058B179
:1032D00001280CD002280FD0502080F31188BFF3B2
:1032E0004F8FBFF36F8FFEE7206B00F0CFFB2046C0
:1032F000BDE8104000F0CABB10BD000010484FF4FC
:103300004061420706D0C01D0D4920F00700411A58
:10331000C1F540610B4A00230144C2E900030839AA
:10332000103A21F0070111604B600B600B1AC0E9E5
:10333000001393604FF000405360D060704700006E
:10334000D012002078000020144E154CA6F29C47A5
:103350004FF08058DFF84C9012E000BF00F062FBA5
:10336000F068C568281D00F001FB2069401E20613F
:10337000E068401EE06000F075FB2846FFF7A3FF01
:10338000E0680028EAD138680128F9D9C9F8008036
:10339000BFF34F8FBFF36F8FF2E70000D80A002012
:1033A0001400002004ED00E070B51D46049C51B1EE
:1033B000C4F80020C4E90F010121204600F04EFDB1
:1033C00084F84C5070BD2460F4E72DE9F0470E46B8
:1033D000DDE909841746824691009946089DA52299
:1033E000206BFCF73EFF6FF00301206B01EB8701C0
:1033F000084420F00707780707D0502080F3118891
:10340000BFF34F8FBFF36F8FFEE72218315C82F856
:103410003410315C11B1401C1028F6D3002684F81A
:103420004360382D00D33725E562C4E91356201DCB
:1034300000F0D1FA04F1180000F0CDFA2461C5F1D2
:1034400038006462A061666584F858604A46514657
:10345000384600F03BFA2060B8F1000F01D0C8F800
:103460000040BDE8F087000030B5114900E011468A
:103470000A688242FBD34B685C18844203D14068DF
:1034800018444860084643681C18944209D1084C07
:10349000103C2468A24209D052681A4442600A686B
:1034A00012680260814200D0086030BD0460F9E714
:1034B0007800002070B5002441600B4D00619142FE
:1034C00006D8D11A8269914206D2011D686807E0C8
:1034D0009A4203D2994201D3012403E0011D2868D6
:1034E00000F07CFA204670BD5000002010B5044664
:1034F00000F098FAA06B28B15FF0000400F0B2FA77
:10350000204610BD0124F9E730B589B0304D55E0B3
:103510000498002806DADDE90601059A9047049828
:1035200000284BDB069C606910B1201D00F01EFADC
:1035300002A800F0B9F8024604980A283ED2DFE853
:1035400000F00505053D263705053D260598A169CE
:10355000034601442046FFF7ADFF00B3616A2046F1
:103560008847E069012829D1002000900598A169C9
:10357000002342181946204601F072F878B950200D
:1035800080F31188BFF34F8FBFF36F8FFEE705986D
:10359000A06128B1811813462046FFF78BFF0DE08C
:1035A000502080F31188BFF34F8FBFF36F8FFEE77A
:1035B00094F82C0010B9204600F068FA002204A903
:1035C000A86800F09DFD0028A2D109B030BD000020
:1035D000500000202DE9FC410F46054600F07CFB21
:1035E00001A800F061F80446019818B100F0A6FFA8
:1035F000BDE8FC81224EAFB170680068A8B3002717
:10360000291B3A46B06800F0BFFA00F097FF002887
:10361000EED11C494FF080500860BFF34F8FBFF3CD
:103620006F8FE5E7A542EBD800F088FF30682746AA
:10363000C068C468201D00F099F9E069012810D124
:10364000A0692B4641193A462046FFF733FF40B1A7
:1036500000200346014600902A46204601F000F86B
:1036600020B1616A20468847C2E707E0502080F316
:103670001188BFF34F8FBFF36F8FFEE70127BFE7BE
:103680005000002004ED00E006484168096829B1B7
:103690004168C968C9684968016370474FF0FF31E4
:1036A000FAE700001400002070B5054600F064FE43
:1036B000064E04463069844203D200F009F8012026
:1036C00000E0002028602046346170BD50000020DA
:1036D000F8B5194D1FE0C068C4680668201D00F0E9
:1036E00045F9616A20468847E069012813D1A0693D
:1036F0003044B04206D924616060211D286800F082
:103700006DF908E00020034601460090324620464D
:1037100000F0A6FF38B1286801680029DBD169688C
:10372000C5E90010F8BD502080F31188BFF34F8F1A
:10373000BFF36F8FFEE7000050000020084840688C
:10374000401C4FF0500080F3118804D0BFF34F8F1E
:10375000BFF36F8FFEE7BFF34F8FBFF36F8FFEE7AF
:1037600080000020074C2068016841B1C06800213A
:10377000D0F80000FFF72EFFFFF7C6FEF3E70121A8
:103780000020F7E7500000202DE9F041044600F04A
:1037900049F994F9455004F1240609E0606A48B1FA
:1037A000304600F093FE08B100F018FA6D1E6DB2BD
:1037B000002DF3DC4FF0FF3684F8456000F052F93D
:1037C00000F030F994F9445004F1100709E0206941
:1037D00048B1384600F07AFE08B100F0FFF96D1EDE
:1037E0006DB2002DF3DC84F84460BDE8F04100F0D8
:1037F00039B900002DE9F0410546002700F06CFAC8
:10380000314E306808B9FFF779FDF06805424BD1B9
:10381000C5B3083568070ED005F00700C0F10800F1
:103820000544680707D0502080F31188BFF34F8FFD
:10383000BFF36F8FFEE72DB37068854234D82248FE
:10384000103001460C6801E020460C466168A94230
:1038500002D221680029F7D131688C4224D0076850
:103860002168016060680837411B10290FD9601971
:10387000420708D0502080F31188BFF34F8FBFF369
:103880006F8FFEE710E041606560FFF7EDFD616856
:103890007068401A7060B268904200D2B060F06800
:1038A00001430020C4E9000100F048FE780707D07A
:1038B000502080F31188BFF34F8FBFF36F8FFEE767
:1038C0003846BDE8F08100006800002010B5031FF5
:1038D0004FF080741C601B1F21F001011960191F3B
:1038E000024B0B60143940380A6010BD3D370008A8
:1038F0002DE9F0410D4CFCF76FFF22680023516A5F
:10390000D26A0B4DA0FB054703FB057500FB035571
:10391000074FA1FB070C03FB07C701FB0371FCF773
:103920004DFC00196941BDE8F0810000B40500209C
:1039300040420F0030B50C4A00211368DC6A4FF496
:103940007A726043B0FBF2F55A6A586A9042FCD032
:1039500002D9A0EB020202E0A4EB020202441144ED
:103960000246A942F1D330BDB4050020D0E90132AE
:1039700001699A60D0E901235A604A68824201D104
:1039800082684A60002202610868401E0860086878
:1039900070470000034B036003F15C000860802067
:1039A00010607047180C0020044B036003F15C00AA
:1039B00008604FF48070106070470000740E0020A3
:1039C00000F108014FF0FF32C0E90112C16001614E
:1039D00000210160704700210161704730B50B681C
:1039E0005A1C02D000F1080202E0026904E02246FB
:1039F000546825689D42FAD953684B6099608A6083
:103A0000516008610168491C016030BD42684A602C
:103A100093688B6093685960916008610168491CE4
:103A200001607047502080F31188BFF34F8FBFF3C0
:103A30006F8F0A494868401C486001280CD108482B
:103A4000006810F0FF0F07D0502080F31188BFF3FB
:103A50004F8FBFF36F8FFEE770470000800000209C
:103A600004ED00E00849486828B1401E486001D1D3
:103A700080F311887047502080F31188BFF34F8F77
:103A8000BFF36F8FFEE700008000002070B50028B4
:103A900027D0144DA0F108046168E868014207D1FD
:103AA000502080F31188BFF34F8FBFF36F8FFEE775
:103AB00022683AB1502080F31188BFF34F8FBFF3D3
:103AC0006F8FFEE78143616000F006F96068696806
:103AD000084468602046FFF7C7FCBDE8704000F06E
:103AE0002DBD70BD680000204FF0E0200021016175
:103AF000816105494FF47A720968B1FBF2F1491E00
:103B000041610721016170471000002010B5FCF7EA
:103B10003FFB114910280ED300F1E02090F8F0038C
:103B20000A78904207D2502080F31188BFF34F8F5C
:103B3000BFF36F8FFEE709480068896800F4E06012
:103B4000884207D9502080F31188BFF34F8FBFF30D
:103B50006F8FFEE710BD0000800000200CED00E03C
:103B600010B5084B002200BF53F832401CB1521C64
:103B7000082AF9D310BD43F8321003EBC2014860A4
:103B800010BD0000FC05002070B515460E46044629
:103B9000FFF748FF94F944100020491C01D184F834
:103BA000440094F94510491C01D184F84500FFF701
:103BB00059FFA06B28B92A46314604F1240000F0D1
:103BC0002BF82046BDE87040FFF7DEBD02498A6A47
:103BD00002604969416070471400002001490120DA
:103BE000486270471400002010B50C4650B10949D6
:103BF00009681831FFF7F2FE2046BDE810400121A8
:103C0000FFF756BA502080F31188BFF34F8FBFF3F0
:103C10006F8FFEE71400002070B514460D4668B1A2
:103C20000A4909681831FFF7F1FE0CB14FF0FF3572
:103C300021462846BDE87040FFF73ABA502080F38D
:103C40001188BFF34F8FBFF36F8FFEE71400002082
:103C500030B587B00024039405AA04A903A80494EE
:103C6000FFF798FEDDE903010094CDE90110002380
:103C700015A11748059A00F046FB164D0028686309
:103C80001FD000F0BDFC012809D0401C19D15020E4
:103C900080F31188BFF34F8FBFF36F8FFEE7502083
:103CA00080F31188BFF34F8FBFF36F8F4FF0FF305A
:103CB00028630120E8616C6107B0BDE8304000F086
:103CC00045B807B030BD000049444C450000000035
:103CD00049330008140000200248816B491C8163AD
:103CE0007047000014000020164810B5816B11B118
:103CF0000121416210BD002141628169124A01E047
:103D0000B9B1491E01EB810352F82330002BF7D0E3
:103D100001EB810302EB830202F1080453685B6844
:103D20005360A34201D15B685360DA68026081612D
:103D300010BD502080F31188BFF34F8FBFF36F8FFA
:103D4000FEE70000140000203C0600201CB52649B8
:103D500008780190FF20087008788DF800009DF821
:103D600000009DF8002000F0F000904207D05020A5
:103D700080F31188BFF34F8FBFF36F8FFEE79DF87D
:103D800000001A4B00F0500018700720986005E002
:103D90009DF8002052008DF80020401E9DF8002064
:103DA0001206F5D49860032807D0502080F31188BC
:103DB000BFF34F8FBFF36F8FFEE74FF440709860F3
:103DC000019808700A48016841F4700101600168B7
:103DD00041F070410160FFF787FE00205860FCF75A
:103DE000A1F900201CBD000000E400E080000020DC
:103DF00020ED00E038B5049D18B153B1CAB181B1CE
:103E000020E0502080F31188BFF34F8FBFF36F8FF6
:103E1000FEE7502080F31188BFF34F8FBFF36F8F01
:103E2000FEE7502080F31188BFF34F8FBFF36F8FF1
:103E3000FEE739B1502080F31188BFF34F8FBFF3F5
:103E40006F8FFEE750241C46012384F846302B4632
:103E50000094FFF7A9FA204638BD000070B50D4662
:103E6000040025D0FFF7DEFDD4E90F20216802FB16
:103E7000001161600021A1632168A1600A46D4E9B4
:103E80000F01401E00FB0121E16021464FF0FF3091
:103E900001F8440F487004F110008DB1FFF790FD58
:103EA00004F12400FFF78CFDFFF7DCFD012070BD5D
:103EB000502080F31188BFF34F8FBFF36F8FFEE761
:103EC00021690029F0D000F001FB0028ECD0044962
:103ED0004FF080500860BFF34F8FBFF36F8FE3E761
:103EE00004ED00E02DE9FF4782B01D468A464FF001
:103EF0000008040003D0BAF1000F08D011E05020F0
:103F000080F31188BFF34F8FBFF36F8FFEE7206CF4
:103F100038B1502080F31188BFF34F8FBFF36F8FFC
:103F2000FEE7022D0AD1E06B012807D0502080F374
:103F30001188BFF34F8FBFF36F8FFEE700F00EFACB
:103F40003F4F4FF000094FF0805648B9049838B100
:103F5000502080F31188BFF34F8FBFF36F8FFEE7C0
:103F6000FFF760FDA06BE16B884207D3022D05D0FF
:103F70000498D0B1B8F1000F1AD01EE02A4651467D
:103F80002046FFF76AF9616A19B104F1240000F0D4
:103F90009DFA20B13E60BFF34F8FBFF36F8FFFF7E5
:103FA00061FD012006B0BDE8F087FFF75BFD22E070
:103FB0006846FFF70BFE4FF00108FFF753FDFFF7D0
:103FC0008BFEFFF72FFD94F94400401C01D184F8CB
:103FD000449094F94500401C01D184F84590FFF7C6
:103FE00041FD04A9684600F027F930B12046FFF7EB
:103FF000CBFB00F0A3FA0020D4E7FFF713FDA06B82
:10400000E16B884213D1FFF72DFD04F110000499F4
:10401000FFF7EAFD2046FFF7B7FB00F08FFA002814
:104020009ED13E60BFF34F8FBFF36F8F98E7FFF7CE
:1040300019FD2046FFF7A8FB00F080FA90E700008A
:1040400004ED00E02DE9F0471F4690468946040044
:1040500003D0B9F1000F08D011E0502080F311888F
:10406000BFF34F8FBFF36F8FFEE7206C38B1502046
:1040700080F31188BFF34F8FBFF36F8FFEE7022FDE
:104080000AD1E06B012807D0502080F31188BFF3DC
:104090004F8FBFF36F8FFEE7FFF738FD5020EFF330
:1040A000118680F31188BFF34F8FBFF36F8FA06B22
:1040B000E16B884206D3022F04D0002086F31188DA
:1040C000BDE8F08794F945503A4649462046FFF747
:1040D000C4F8681C04D06D1C84F845500120EDE73D
:1040E000606A0028FAD004F1240000F0EFF90028FB
:1040F000F4D0B8F1000FF1D00121C8F80010EDE7BD
:104100002DE9F747002683B08A46040003D0BAF1B0
:10411000000F08D011E0502080F31188BFF34F8FBB
:10412000BFF36F8FFEE7206C38B1502080F3118809
:10413000BFF34F8FBFF36F8FFEE700F00FF9DFF88B
:10414000F4804FF000094FF0805748B9059838B116
:10415000502080F31188BFF34F8FBFF36F8FFEE7BE
:10416000FFF760FCA56BC5B151462046FFF762F82A
:104170006D1EA563206950B104F1100000F0A6F98E
:1041800028B1C8F80070BFF34F8FBFF36F8FFFF7F0
:1041900069FC012006B0BDE8F087059808B11EB1A2
:1041A00006E0FFF75FFC27E06846FFF70FFD0126FA
:1041B000FFF758FCFFF790FDFFF734FC94F944003B
:1041C000401C01D184F8449094F94500401C01D171
:1041D00084F84590FFF746FC05A9684600F02CF8E6
:1041E000002820460AD0FFF7CFFA00F0A7F92046B2
:1041F000FFF77CF90028B3D00020CBE7FFF776F972
:1042000090B104F124000599FFF7EEFC2046FFF77A
:10421000BBFA00F093F90028A2D1C8F80070BFF3F0
:104220004F8FBFF36F8F9BE72046FFF7ADFA00F08B
:1042300085F995E704ED00E02DE9F0410C46050015
:1042400011D0C4B1FFF7EEFB174B5A696E682068B6
:10425000911B471C17D02F689B6A9F4219D096422A
:1042600017D8012410E0502080F31188BFF34F8F3E
:10427000BFF36F8FFEE7502080F31188BFF34F8F9D
:10428000BFF36F8FFEE70024FFF7ECFB2046BDE88D
:10429000F081884205D9401A20602846FFF796FC35
:1042A000F1E700202060DCE7140000202DE9FF5F2B
:1042B0008346DDE90E87994616468A469000FFF749
:1042C00099FA05001CD05C20FFF794FA040014D082
:1042D0000020256384F85900CDE90240CDE900872C
:1042E0004B46324651465846FFF76FF82046FEF7D8
:1042F0000DFF012004B0BDE8F09F2846FFF7C6FB84
:104300004FF0FF30F6E7F0B585B0DDE90B640A9DAC
:10431000A6B1DCB15C2700972663022684F85960B9
:10432000002604AFCDE90246CDE90057FFF74DF86E
:104330002046FEF7EBFE049805B0F0BD502080F358
:104340001188BFF34F8FBFF36F8FFEE7502080F3CC
:104350001188BFF34F8FBFF36F8FFEE70548C16928
:1043600019B1806B18B100207047012070470220FE
:1043700070470000140000200148406970470000A9
:10438000140000202DE9F0412E4C0027A06B40B115
:10439000206A401C2062606A00B101273846BDE8EF
:1043A000F0816669761C666113D16068006838B177
:1043B000502080F31188BFF34F8FBFF36F8FFEE75C
:1043C0006068A1686160A060A06A401CA062FFF7FD
:1043D0005BF9206BDFF87080864209D36068006863
:1043E00080B16068C068C568686886420DD2206385
:1043F0002068C06A00EB800158F821000128CAD962
:104400000127C8E74FF0FF30F1E7281DFFF7AEFAAC
:10441000A86A18B105F11800FFF7A8FAE86AA169BF
:10442000884200D9A06100EB800108EB8100291DC2
:10443000FFF7ECFAE86A2168C96A8842CED30127FF
:10444000CCE70000140000203C06002070B50400FA
:104450004FF0000133D01B4D2868844207D0502014
:1044600080F31188BFF34F8FBFF36F8FFEE7206D8E
:1044700038B1401E2065E36CE26A9A421FD040B119
:104480001DE0502080F31188BFF34F8FBFF36F8F73
:10449000FEE7201DFFF76AFAE06CE062C0F1380029
:1044A000A061E06AA969884200D9A861064900EBC9
:1044B000800001EB8000211DFFF7A8FA01210846CA
:1044C00070BD0000140000203C06002070B5C068DC
:1044D000C46854B104F118000646FFF747FA144DBA
:1044E000A86B50B13146134815E0502080F3118875
:1044F000BFF34F8FBFF36F8FFEE7201DFFF736FA34
:10450000E06AA969884200D9A8610B4900EB8000E4
:1045100001EB8000211DFFF779FAE06A2968C96A7A
:10452000884202D90120686270BD002070BD000081
:1045300014000020C40A00203C0600202DE9F047AA
:104540002C4D00242746A86B38B1FFF76BFAA86BF7
:10455000401EA863A86B40B146E0502080F311884C
:10456000BFF34F8FBFF36F8FFEE72969224E012003
:10457000D1B3A6F5916980463068E0B1F068C468AF
:1045800004F11800FFF7F2F9201DFFF7EFF9E06AD8
:10459000A969884200D9A86100EB800109EB81007C
:1045A000211DFFF733FAE06A2968C96A8842E3D31C
:1045B000C5F82480E0E70CB1FFF766F82C6A4CB12F
:1045C0004FEA0806FFF7DEFE00B16E62641EF9D105
:1045D00000202862686A38B1084901273807086056
:1045E000BFF34F8FBFF36F8FFFF73CFA3846BDE83C
:1045F000F087000014000020C40A002004ED00E051
:1046000010B586B0FEF7EAFD114CA068B8B10020E5
:104610000390049005AA04A903A8FFF7C5F9DDE9F2
:10462000032102208DE8070000230AA10B48059A08
:10463000FFF769FEE06010B106B0012010BD502008
:1046400080F31188BFF34F8FBFF36F8FFEE7000039
:1046500050000020546D72205376630065370008C7
:104660002DE9FF411E46134602000A9D4FF000004F
:1046700016D0144CA768002F0FD0CDE9001302927A
:10468000062917DAFFF76AFE02284FF000030FD061
:1046900000226946A068FFF725FC04B0BDE8F08160
:1046A000502080F31188BFF34F8FBFF36F8FFEE769
:1046B0002A46EEE70023324669463846FFF7C2FC39
:1046C000EBE7000050000020184F00080000000039
:1046D00000000000000000000000000000020000D8
:1046E00018000000000000000000000001020203AA
:1046F0000405060708090A0B0C0D0E0F1010000028
:104700000000000000000102030406070809000081
:10471000000001020304000000000000000000008F
:1047200000000000000000FE020202020202003F40
:1047300020202020202000000000000000000000B9
:1047400000000000000000FE020202020202003F20
:1047500020202020202000FE020202020202003F50
:1047600020202020202000FE020202020202003F40
:1047700020202020202000FE020202020202003F30
:1047800020202020202000FE020202020202003F20
:1047900020202020202000FE020202020202003F10
:1047A0002020202020200000000000000000000049
:1047B00000000000000000000000000000000000F9
:1047C00000000000000000000000000000000000E9
:1047D00000000000000000FE020202020202003F90
:1047E00020202020202000FE020202020202003FC0
:1047F00020202020202000FE020202020202003FB0
:1048000020202020202000FE020202020202003F9F
:1048100020202020202000FE020202020202003F8F
:1048200020202020202000FE020202020202003F7F
:1048300020202020202000FE020202020202003F6F
:1048400020202020202000FE020202020202003F5F
:1048500020202020202000FE020202020202003F4F
:1048600020202020202000FE020202020202003F3F
:1048700020202020202000FE020202020202003F2F
:1048800020202020202000FE020202020202003F1F
:1048900020202020202000FE020202020202003F0F
:1048A00020202020202000FE020202020202003FFF
:1048B00020202020202000FE020202020202003FEF
:1048C00020202020202000FE020202020202003FDF
:1048D0002020202020200000000000000000000018
:1048E00000000000000000000000000000000000C8
:1048F00000000000000000000000000000000000B8
:1049000000000000000000000000000000000000A7
:104910000000000000000000000000000000000097
:10492000000000000000000000F80000000000008F
:1049300000330000000000100C02100C0200000008
:104940000000000000000040C07840C07800000473
:104950003F04043F040000708888FC083000001801
:104960002020FF211E00F008F080601800000031B8
:104970000C031E211E0000F00888700000001E219C
:10498000232C1927211000120E0000000000000047
:10499000000000000000000000E018040200000019
:1049A00000071820400000020418E000000000404A
:1049B000201807000000404080F0804040000202C4
:1049C000010F0102020000000000E00000000001F1
:1049D00001010F0101010000000000000000009033
:1049E0007000000000000000000000000000000156
:1049F0000101010101000000000000000000003082
:104A000030000000000000000000C038040000601A
:104A100018070000000000E010080810E000000F78
:104A2000102020100F0000001010F80000000000FF
:104A300020203F202000007008080808F000003007
:104A4000282422213000003008080888700000184F
:104A5000202121221C000000804030F800000006C8
:104A60000524243F242400F88888880808000019B9
:104A7000202020110E0000E0108888900000000F18
:104A8000112020201F000018080888681800000066
:104A9000003E010000000070880808887000001CBB
:104AA000222121221C0000F008080810E00000016B
:104AB000122222110F00000000C0C0000000000000
:104AC0000030300000000000008000000000000006
:104AD00000E00000000000008040201008000001FD
:104AE0000204081020000040404040404000000206
:104AF0000202020202000008102040800000002094
:104B000010080402010000704808088870000000C6
:104B1000003037000000C030C828E810E000071857
:104B200027282F2817000000C038E0000000203C94
:104B300023020227382008F8888888700000203F68
:104B4000202020110E00C03008080808380007187F
:104B500020202010080008F808080810E000203F76
:104B6000202020100F0008F88888E8081000203F57
:104B700020202320180008F88888E8081000203F2B
:104B8000200003000000C0300808083800000718A3
:104B90002020221E020008F808000008F808203F24
:104BA000210101213F20000808F80808000000202A
:104BB000203F2020000000000808F8080800C080FE
:104BC00080807F00000008F888C028180800203F77
:104BD00020012638200008F8080000000000203FCF
:104BE00020202020300008F8F800F8F80800203FC6
:104BF000013E013F200008F830C00008F808203FBF
:104C0000200007183F00E01008080810E0000F100F
:104C1000202020100F0008F808080808F000203FA6
:104C2000210101010000E01008080810E0000F1049
:104C3000282830504F0008F8888888887000203F66
:104C40002000030C30200070880808083800003865
:104C5000202121221C00180808F80808180000006C
:104C6000203F2000000008F808000008F808001F96
:104C7000202020201F000878880000C83808000085
:104C800007380E01000008F800F800F808000003DB
:104C90003E013E0300000818688080681808203034
:104CA0002C03032C30200838C800C8380800000046
:104CB000203F2000000010080808C83808002038ED
:104CC000262120201800000000FE02020200000041
:104CD000007F40404000000438C000000000000099
:104CE00000010638C00000020202FE000000004081
:104CF00040407F00000000000402020400000000A9
:104D000000000000000000000000000000008080A3
:104D1000808080808080000202040000000000008B
:104D200000000000000000008080800000000019EA
:104D30002424123F200010F0008080000000003F7B
:104D4000112020110E000000008080800000000E65
:104D5000112020201100000080808090F000001FB2
:104D6000202020103F200000808080800000001F55
:104D7000242424241700008080E09090200000204C
:104D8000203F202000000000808080808000006B99
:104D900094949493600010F0008080800000203F85
:104DA000210000203F200080989800000000002093
:104DB000203F20200000000000809898000000C0E4
:104DC0008080807F000010F0000080808000203F05
:104DD000240629302000001010F8000000000020F8
:104DE000203F202000008080808080808000203F45
:104DF00020003F20003F8080008080800000203F16
:104E0000210000203F200000808080800000001FE3
:104E1000202020201F00808000808000000080FF74
:104E2000912020110E000000008080008000000E04
:104E300011202091FF8080808000808080002020D1
:104E40003F2120000100000080808080800000332E
:104E5000242424241900008080E0808000000000C9
:104E6000001F202010008080000000808000001FB4
:104E7000202020103F208080800080808000000360
:104E80000C300C0300008080008080008080010EC8
:104E9000300C0738060100808080008080000020F0
:104EA000310E2E31200080808000008080800081C3
:104EB00086781806010000808080808080000021B4
:104EC000302C222130000000000000FC0202000013
:104ED0000000013E404000000000FF000000000014
:104EE0000000FF0000000202FC0000000000404043
:104EF0003E01000000000002010202040200000066
:104F000000000000000000000000000000000000A1
:104F1000000000000000000064656661756C745458
:104F200061736B00444F000800000020C8000000BF
:104F3000122F00080C500008C8000020A824000010
:104F4000222F0008000000000100000010000000F7
:104F5000000000000024F400000000000000000039
:104F60000000000000000000000000000000000041
:104F70000000000000000000000000000000000031
:104F80000000000000000000000000000000000021
:104F90000000000000000000000000000000000011
:104FA0000000000000000000000000000000000001
:104FB00000000000000000000000000000000000F1
:104FC0000000000000000000AAAAAAAA0000000039
:104FD00002000000F80000200000000000000000B7
:104FE00000000000000000000000000000000000C1
:104FF00000000000000000000000000000000000B1
:0C500000000000000000000000000000A4
:04000005080000ED02
:00000001FF
