Component: ARM Compiler 5.06 update 5 (build 528) Tool: armlink [4d35e2]

==============================================================================

Section Cross References

    startup_stm32f103xb.o(RESET) refers to startup_stm32f103xb.o(STACK) for __initial_sp
    startup_stm32f103xb.o(RESET) refers to startup_stm32f103xb.o(.text) for Reset_Handler
    startup_stm32f103xb.o(RESET) refers to stm32f1xx_it.o(i.NMI_Handler) for NMI_Handler
    startup_stm32f103xb.o(RESET) refers to stm32f1xx_it.o(i.HardFault_Handler) for HardFault_Handler
    startup_stm32f103xb.o(RESET) refers to stm32f1xx_it.o(i.MemManage_Handler) for MemManage_Handler
    startup_stm32f103xb.o(RESET) refers to stm32f1xx_it.o(i.BusFault_Handler) for BusFault_Handler
    startup_stm32f103xb.o(RESET) refers to stm32f1xx_it.o(i.UsageFault_Handler) for UsageFault_Handler
    startup_stm32f103xb.o(RESET) refers to port.o(.emb_text) for SVC_Handler
    startup_stm32f103xb.o(RESET) refers to stm32f1xx_it.o(i.DebugMon_Handler) for DebugMon_Handler
    startup_stm32f103xb.o(RESET) refers to port.o(i.SysTick_Handler) for SysTick_Handler
    startup_stm32f103xb.o(RESET) refers to stm32f1xx_it.o(i.TIM4_IRQHandler) for TIM4_IRQHandler
    startup_stm32f103xb.o(RESET) refers to stm32f1xx_it.o(i.EXTI15_10_IRQHandler) for EXTI15_10_IRQHandler
    startup_stm32f103xb.o(.text) refers to system_stm32f1xx.o(i.SystemInit) for SystemInit
    startup_stm32f103xb.o(.text) refers to entry.o(.ARM.Collect$$$$00000000) for __main
    main.o(i.HAL_TIM_PeriodElapsedCallback) refers to stm32f1xx_hal.o(i.HAL_IncTick) for HAL_IncTick
    main.o(i.SystemClock_Config) refers to memseta.o(.text) for __aeabi_memclr4
    main.o(i.SystemClock_Config) refers to stm32f1xx_hal_rcc.o(i.HAL_RCC_OscConfig) for HAL_RCC_OscConfig
    main.o(i.SystemClock_Config) refers to stm32f1xx_hal_rcc.o(i.HAL_RCC_ClockConfig) for HAL_RCC_ClockConfig
==============================================================================

Removing Unused input sections from the image.

    Removing startup_stm32f103xb.o(HEAP), (512 bytes).
    Removing main.o(.rev16_text), (4 bytes).
    Removing main.o(.revsh_text), (4 bytes).
    Removing main.o(.rrx_text), (6 bytes).
    Removing gpio.o(.rev16_text), (4 bytes).
    Removing gpio.o(.revsh_text), (4 bytes).
    Removing gpio.o(.rrx_text), (6 bytes).
    Removing freertos.o(.rev16_text), (4 bytes).
    Removing freertos.o(.revsh_text), (4 bytes).
    Removing freertos.o(.rrx_text), (6 bytes).
    Removing adc.o(.rev16_text), (4 bytes).
    Removing adc.o(.revsh_text), (4 bytes).
    Removing adc.o(.rrx_text), (6 bytes).
    Removing adc.o(i.HAL_ADC_MspDeInit), (40 bytes).
    Removing i2c.o(.rev16_text), (4 bytes).
    Removing i2c.o(.revsh_text), (4 bytes).
    Removing i2c.o(.rrx_text), (6 bytes).
    Removing i2c.o(i.HAL_I2C_MspDeInit), (56 bytes).
==============================================================================

Image Symbol Table

    Local Symbols

    Symbol Name                              Value     Ov Type        Size  Object(Section)

    ../Core/Src/adc.c                        0x00000000   Number         0  adc.o ABSOLUTE
    ../Core/Src/freertos.c                   0x00000000   Number         0  freertos.o ABSOLUTE
    ../Core/Src/gpio.c                       0x00000000   Number         0  gpio.o ABSOLUTE
    ../Core/Src/i2c.c                        0x00000000   Number         0  i2c.o ABSOLUTE
    ../Core/Src/main.c                       0x00000000   Number         0  main.o ABSOLUTE
    ../Core/Src/spi.c                        0x00000000   Number         0  spi.o ABSOLUTE
    ../Core/Src/stm32f1xx_hal_msp.c          0x00000000   Number         0  stm32f1xx_hal_msp.o ABSOLUTE
    ../Core/Src/stm32f1xx_hal_timebase_tim.c 0x00000000   Number         0  stm32f1xx_hal_timebase_tim.o ABSOLUTE
    ../Core/Src/stm32f1xx_it.c               0x00000000   Number         0  stm32f1xx_it.o ABSOLUTE
    ../Core/Src/system_stm32f1xx.c           0x00000000   Number         0  system_stm32f1xx.o ABSOLUTE
    ../Core/Src/tim.c                        0x00000000   Number         0  tim.o ABSOLUTE
    ../Core/Src/usart.c                      0x00000000   Number         0  usart.o ABSOLUTE
    ../Core/Src/usb.c                        0x00000000   Number         0  usb.o ABSOLUTE
    ../Drivers/STM32F1xx_HAL_Driver/Src/stm32f1xx_hal.c 0x00000000   Number         0  stm32f1xx_hal.o ABSOLUTE
    ../Drivers/STM32F1xx_HAL_Driver/Src/stm32f1xx_hal_adc.c 0x00000000   Number         0  stm32f1xx_hal_adc.o ABSOLUTE
    ../Drivers/STM32F1xx_HAL_Driver/Src/stm32f1xx_hal_adc_ex.c 0x00000000   Number         0  stm32f1xx_hal_adc_ex.o ABSOLUTE
    ../Drivers/STM32F1xx_HAL_Driver/Src/stm32f1xx_hal_cortex.c 0x00000000   Number         0  stm32f1xx_hal_cortex.o ABSOLUTE
    ../Drivers/STM32F1xx_HAL_Driver/Src/stm32f1xx_hal_dma.c 0x00000000   Number         0  stm32f1xx_hal_dma.o ABSOLUTE
    ../Drivers/STM32F1xx_HAL_Driver/Src/stm32f1xx_hal_exti.c 0x00000000   Number         0  stm32f1xx_hal_exti.o ABSOLUTE
    ../Drivers/STM32F1xx_HAL_Driver/Src/stm32f1xx_hal_flash.c 0x00000000   Number         0  stm32f1xx_hal_flash.o ABSOLUTE
    ../Drivers/STM32F1xx_HAL_Driver/Src/stm32f1xx_hal_flash_ex.c 0x00000000   Number         0  stm32f1xx_hal_flash_ex.o ABSOLUTE
    ../Drivers/STM32F1xx_HAL_Driver/Src/stm32f1xx_hal_gpio.c 0x00000000   Number         0  stm32f1xx_hal_gpio.o ABSOLUTE
    ../Drivers/STM32F1xx_HAL_Driver/Src/stm32f1xx_hal_gpio_ex.c 0x00000000   Number         0  stm32f1xx_hal_gpio_ex.o ABSOLUTE
    ../Drivers/STM32F1xx_HAL_Driver/Src/stm32f1xx_hal_i2c.c 0x00000000   Number         0  stm32f1xx_hal_i2c.o ABSOLUTE
    ../Drivers/STM32F1xx_HAL_Driver/Src/stm32f1xx_hal_pcd.c 0x00000000   Number         0  stm32f1xx_hal_pcd.o ABSOLUTE
    ../Drivers/STM32F1xx_HAL_Driver/Src/stm32f1xx_hal_pcd_ex.c 0x00000000   Number         0  stm32f1xx_hal_pcd_ex.o ABSOLUTE
    ../Drivers/STM32F1xx_HAL_Driver/Src/stm32f1xx_hal_pwr.c 0x00000000   Number         0  stm32f1xx_hal_pwr.o ABSOLUTE
    ../Drivers/STM32F1xx_HAL_Driver/Src/stm32f1xx_hal_rcc.c 0x00000000   Number         0  stm32f1xx_hal_rcc.o ABSOLUTE
    ../Drivers/STM32F1xx_HAL_Driver/Src/stm32f1xx_hal_rcc_ex.c 0x00000000   Number         0  stm32f1xx_hal_rcc_ex.o ABSOLUTE
    ../Drivers/STM32F1xx_HAL_Driver/Src/stm32f1xx_hal_spi.c 0x00000000   Number         0  stm32f1xx_hal_spi.o ABSOLUTE
    ../Drivers/STM32F1xx_HAL_Driver/Src/stm32f1xx_hal_tim.c 0x00000000   Number         0  stm32f1xx_hal_tim.o ABSOLUTE
    ../Drivers/STM32F1xx_HAL_Driver/Src/stm32f1xx_hal_tim_ex.c 0x00000000   Number         0  stm32f1xx_hal_tim_ex.o ABSOLUTE
    ../Drivers/STM32F1xx_HAL_Driver/Src/stm32f1xx_hal_uart.c 0x00000000   Number         0  stm32f1xx_hal_uart.o ABSOLUTE
    ../Drivers/STM32F1xx_HAL_Driver/Src/stm32f1xx_ll_usb.c 0x00000000   Number         0  stm32f1xx_ll_usb.o ABSOLUTE
    ../Middlewares/Third_Party/FreeRTOS/Source/CMSIS_RTOS_V2/cmsis_os2.c 0x00000000   Number         0  cmsis_os2.o ABSOLUTE
    ../Middlewares/Third_Party/FreeRTOS/Source/croutine.c 0x00000000   Number         0  croutine.o ABSOLUTE
    ../Middlewares/Third_Party/FreeRTOS/Source/event_groups.c 0x00000000   Number         0  event_groups.o ABSOLUTE
    ../Middlewares/Third_Party/FreeRTOS/Source/list.c 0x00000000   Number         0  list.o ABSOLUTE
    ../Middlewares/Third_Party/FreeRTOS/Source/portable/MemMang/heap_4.c 0x00000000   Number         0  heap_4.o ABSOLUTE
    ../Middlewares/Third_Party/FreeRTOS/Source/portable/RVDS/ARM_CM3/port.c 0x00000000   Number         0  port.o ABSOLUTE
    ../Middlewares/Third_Party/FreeRTOS/Source/queue.c 0x00000000   Number         0  queue.o ABSOLUTE
    ../Middlewares/Third_Party/FreeRTOS/Source/stream_buffer.c 0x00000000   Number         0  stream_buffer.o ABSOLUTE
    ../Middlewares/Third_Party/FreeRTOS/Source/tasks.c 0x00000000   Number         0  tasks.o ABSOLUTE
    ../Middlewares/Third_Party/FreeRTOS/Source/timers.c 0x00000000   Number         0  timers.o ABSOLUTE
    ../clib/../cmprslib/lz77c.c              0x00000000   Number         0  __dclz77c.o ABSOLUTE
    ../clib/microlib/division.c              0x00000000   Number         0  uldiv.o ABSOLUTE
    ../clib/microlib/division.c              0x00000000   Number         0  uidiv.o ABSOLUTE
    ../clib/microlib/init/entry.s            0x00000000   Number         0  entry10b.o ABSOLUTE
    ../clib/microlib/init/entry.s            0x00000000   Number         0  entry10a.o ABSOLUTE
    ../clib/microlib/init/entry.s            0x00000000   Number         0  entry9b.o ABSOLUTE
    ../clib/microlib/init/entry.s            0x00000000   Number         0  entry9a.o ABSOLUTE
    ../clib/microlib/init/entry.s            0x00000000   Number         0  entry8b.o ABSOLUTE
    ../clib/microlib/init/entry.s            0x00000000   Number         0  entry8a.o ABSOLUTE
    ../clib/microlib/init/entry.s            0x00000000   Number         0  entry7a.o ABSOLUTE
    ../clib/microlib/init/entry.s            0x00000000   Number         0  entry5.o ABSOLUTE
    ../clib/microlib/init/entry.s            0x00000000   Number         0  entry2.o ABSOLUTE
    ../clib/microlib/init/entry.s            0x00000000   Number         0  entry7b.o ABSOLUTE
    ../clib/microlib/init/entry.s            0x00000000   Number         0  entry.o ABSOLUTE
    ../clib/microlib/init/entry.s            0x00000000   Number         0  entry11b.o ABSOLUTE
    ../clib/microlib/init/entry.s            0x00000000   Number         0  entry11a.o ABSOLUTE
    ../clib/microlib/longlong.c              0x00000000   Number         0  llshl.o ABSOLUTE
    ../clib/microlib/longlong.c              0x00000000   Number         0  llsshr.o ABSOLUTE
    ../clib/microlib/longlong.c              0x00000000   Number         0  llushr.o ABSOLUTE
    ../clib/microlib/printf/printf.c         0x00000000   Number         0  printf0.o ABSOLUTE
    ../clib/microlib/printf/printf.c         0x00000000   Number         0  printfa.o ABSOLUTE
    ../clib/microlib/printf/printf.c         0x00000000   Number         0  printfb.o ABSOLUTE
    ../clib/microlib/printf/printf.c         0x00000000   Number         0  printf1.o ABSOLUTE
    ../clib/microlib/printf/printf.c         0x00000000   Number         0  printf2.o ABSOLUTE
    ../clib/microlib/printf/printf.c         0x00000000   Number         0  printf3.o ABSOLUTE
    ../clib/microlib/printf/printf.c         0x00000000   Number         0  printf4.o ABSOLUTE
    ../clib/microlib/printf/printf.c         0x00000000   Number         0  printf5.o ABSOLUTE
    ../clib/microlib/printf/printf.c         0x00000000   Number         0  printf6.o ABSOLUTE
    ../clib/microlib/printf/printf.c         0x00000000   Number         0  printf7.o ABSOLUTE
    ../clib/microlib/printf/printf.c         0x00000000   Number         0  printf8.o ABSOLUTE
    ../clib/microlib/printf/stubs.s          0x00000000   Number         0  stubs.o ABSOLUTE
    ../clib/microlib/stdio/streams.c         0x00000000   Number         0  stdout.o ABSOLUTE
    ../clib/microlib/string/memcpy.c         0x00000000   Number         0  memcpyb.o ABSOLUTE
    ../clib/microlib/string/memcpy.c         0x00000000   Number         0  memcpya.o ABSOLUTE
    ../clib/microlib/string/memset.c         0x00000000   Number         0  memseta.o ABSOLUTE
    ../clib/microlib/string/memset.c         0x00000000   Number         0  memset.o ABSOLUTE
    ../clib/microlib/stubs.s                 0x00000000   Number         0  iusefp.o ABSOLUTE
    ../fplib/microlib/fpadd.c                0x00000000   Number         0  dadd.o ABSOLUTE
    ../fplib/microlib/fpdiv.c                0x00000000   Number         0  ddiv.o ABSOLUTE
    ../fplib/microlib/fpepilogue.c           0x00000000   Number         0  depilogue.o ABSOLUTE
    ../fplib/microlib/fpfix.c                0x00000000   Number         0  dfixi.o ABSOLUTE
    ../fplib/microlib/fpfix.c                0x00000000   Number         0  dfixul.o ABSOLUTE
    ../fplib/microlib/fpflt.c                0x00000000   Number         0  dflti.o ABSOLUTE
    ../fplib/microlib/fpmul.c                0x00000000   Number         0  dmul.o ABSOLUTE
    ..\Core\Src\adc.c                        0x00000000   Number         0  adc.o ABSOLUTE
    ..\Core\Src\freertos.c                   0x00000000   Number         0  freertos.o ABSOLUTE
    ..\Core\Src\gpio.c                       0x00000000   Number         0  gpio.o ABSOLUTE
    ..\Core\Src\i2c.c                        0x00000000   Number         0  i2c.o ABSOLUTE
    ..\Core\Src\main.c                       0x00000000   Number         0  main.o ABSOLUTE
    ..\Core\Src\music.c                      0x00000000   Number         0  music.o ABSOLUTE
    ..\Core\Src\spi.c                        0x00000000   Number         0  spi.o ABSOLUTE
    ..\Core\Src\stm32f1xx_hal_msp.c          0x00000000   Number         0  stm32f1xx_hal_msp.o ABSOLUTE
    ..\Core\Src\stm32f1xx_hal_timebase_tim.c 0x00000000   Number         0  stm32f1xx_hal_timebase_tim.o ABSOLUTE
    ..\Core\Src\stm32f1xx_it.c               0x00000000   Number         0  stm32f1xx_it.o ABSOLUTE
    ..\Core\Src\system_stm32f1xx.c           0x00000000   Number         0  system_stm32f1xx.o ABSOLUTE
    ..\Core\Src\tim.c                        0x00000000   Number         0  tim.o ABSOLUTE
    ..\Core\Src\usart.c                      0x00000000   Number         0  usart.o ABSOLUTE
    ..\Core\Src\usb.c                        0x00000000   Number         0  usb.o ABSOLUTE
    ..\Drivers\DshanMCU-F103\driver_active_buzzer.c 0x00000000   Number         0  driver_active_buzzer.o ABSOLUTE
    ..\Drivers\DshanMCU-F103\driver_color_led.c 0x00000000   Number         0  driver_color_led.o ABSOLUTE
    ..\Drivers\DshanMCU-F103\driver_dht11.c  0x00000000   Number         0  driver_dht11.o ABSOLUTE
    ..\Drivers\DshanMCU-F103\driver_ds18b20.c 0x00000000   Number         0  driver_ds18b20.o ABSOLUTE
    ..\Drivers\DshanMCU-F103\driver_ir_obstacle.c 0x00000000   Number         0  driver_ir_obstacle.o ABSOLUTE
    ..\Drivers\DshanMCU-F103\driver_ir_receiver.c 0x00000000   Number         0  driver_ir_receiver.o ABSOLUTE
    ..\Drivers\DshanMCU-F103\driver_ir_sender.c 0x00000000   Number         0  driver_ir_sender.o ABSOLUTE
    ..\Drivers\DshanMCU-F103\driver_irq.c    0x00000000   Number         0  driver_irq.o ABSOLUTE
    ..\Drivers\DshanMCU-F103\driver_key.c    0x00000000   Number         0  driver_key.o ABSOLUTE
    ..\Drivers\DshanMCU-F103\driver_lcd.c    0x00000000   Number         0  driver_lcd.o ABSOLUTE
    ..\Drivers\DshanMCU-F103\driver_led.c    0x00000000   Number         0  driver_led.o ABSOLUTE
    ..\Drivers\DshanMCU-F103\driver_light_sensor.c 0x00000000   Number         0  driver_light_sensor.o ABSOLUTE
    ..\Drivers\DshanMCU-F103\driver_motor.c  0x00000000   Number         0  driver_motor.o ABSOLUTE
    ..\Drivers\DshanMCU-F103\driver_mpu6050.c 0x00000000   Number         0  driver_mpu6050.o ABSOLUTE
    ..\Drivers\DshanMCU-F103\driver_oled.c   0x00000000   Number         0  driver_oled.o ABSOLUTE
    ..\Drivers\DshanMCU-F103\driver_passive_buzzer.c 0x00000000   Number         0  driver_passive_buzzer.o ABSOLUTE
    ..\Drivers\DshanMCU-F103\driver_rotary_encoder.c 0x00000000   Number         0  driver_rotary_encoder.o ABSOLUTE
    ..\Drivers\DshanMCU-F103\driver_spiflash_w25q64.c 0x00000000   Number         0  driver_spiflash_w25q64.o ABSOLUTE
    ..\Drivers\DshanMCU-F103\driver_timer.c  0x00000000   Number         0  driver_timer.o ABSOLUTE
    ..\Drivers\DshanMCU-F103\driver_uart.c   0x00000000   Number         0  driver_uart.o ABSOLUTE
    ..\Drivers\DshanMCU-F103\driver_ultrasonic_sr04.c 0x00000000   Number         0  driver_ultrasonic_sr04.o ABSOLUTE
    ..\Drivers\STM32F1xx_HAL_Driver\Src\stm32f1xx_hal.c 0x00000000   Number         0  stm32f1xx_hal.o ABSOLUTE
    ..\Drivers\STM32F1xx_HAL_Driver\Src\stm32f1xx_hal_adc.c 0x00000000   Number         0  stm32f1xx_hal_adc.o ABSOLUTE
    ..\Drivers\STM32F1xx_HAL_Driver\Src\stm32f1xx_hal_adc_ex.c 0x00000000   Number         0  stm32f1xx_hal_adc_ex.o ABSOLUTE
    ..\Drivers\STM32F1xx_HAL_Driver\Src\stm32f1xx_hal_cortex.c 0x00000000   Number         0  stm32f1xx_hal_cortex.o ABSOLUTE
    ..\Drivers\STM32F1xx_HAL_Driver\Src\stm32f1xx_hal_dma.c 0x00000000   Number         0  stm32f1xx_hal_dma.o ABSOLUTE
    ..\Drivers\STM32F1xx_HAL_Driver\Src\stm32f1xx_hal_exti.c 0x00000000   Number         0  stm32f1xx_hal_exti.o ABSOLUTE
    ..\Drivers\STM32F1xx_HAL_Driver\Src\stm32f1xx_hal_flash.c 0x00000000   Number         0  stm32f1xx_hal_flash.o ABSOLUTE
    ..\Drivers\STM32F1xx_HAL_Driver\Src\stm32f1xx_hal_flash_ex.c 0x00000000   Number         0  stm32f1xx_hal_flash_ex.o ABSOLUTE
    ..\Drivers\STM32F1xx_HAL_Driver\Src\stm32f1xx_hal_gpio.c 0x00000000   Number         0  stm32f1xx_hal_gpio.o ABSOLUTE
    ..\Drivers\STM32F1xx_HAL_Driver\Src\stm32f1xx_hal_gpio_ex.c 0x00000000   Number         0  stm32f1xx_hal_gpio_ex.o ABSOLUTE
    ..\Drivers\STM32F1xx_HAL_Driver\Src\stm32f1xx_hal_i2c.c 0x00000000   Number         0  stm32f1xx_hal_i2c.o ABSOLUTE
    ..\Drivers\STM32F1xx_HAL_Driver\Src\stm32f1xx_hal_pcd.c 0x00000000   Number         0  stm32f1xx_hal_pcd.o ABSOLUTE
    ..\Drivers\STM32F1xx_HAL_Driver\Src\stm32f1xx_hal_pcd_ex.c 0x00000000   Number         0  stm32f1xx_hal_pcd_ex.o ABSOLUTE
    ..\Drivers\STM32F1xx_HAL_Driver\Src\stm32f1xx_hal_pwr.c 0x00000000   Number         0  stm32f1xx_hal_pwr.o ABSOLUTE
    ..\Drivers\STM32F1xx_HAL_Driver\Src\stm32f1xx_hal_rcc.c 0x00000000   Number         0  stm32f1xx_hal_rcc.o ABSOLUTE
    ..\Drivers\STM32F1xx_HAL_Driver\Src\stm32f1xx_hal_rcc_ex.c 0x00000000   Number         0  stm32f1xx_hal_rcc_ex.o ABSOLUTE
    ..\Drivers\STM32F1xx_HAL_Driver\Src\stm32f1xx_hal_spi.c 0x00000000   Number         0  stm32f1xx_hal_spi.o ABSOLUTE
    ..\Drivers\STM32F1xx_HAL_Driver\Src\stm32f1xx_hal_tim.c 0x00000000   Number         0  stm32f1xx_hal_tim.o ABSOLUTE
    ..\Drivers\STM32F1xx_HAL_Driver\Src\stm32f1xx_hal_tim_ex.c 0x00000000   Number         0  stm32f1xx_hal_tim_ex.o ABSOLUTE
    ..\Drivers\STM32F1xx_HAL_Driver\Src\stm32f1xx_hal_uart.c 0x00000000   Number         0  stm32f1xx_hal_uart.o ABSOLUTE
    ..\Drivers\STM32F1xx_HAL_Driver\Src\stm32f1xx_ll_usb.c 0x00000000   Number         0  stm32f1xx_ll_usb.o ABSOLUTE
    ..\Middlewares\Third_Party\FreeRTOS\Source\CMSIS_RTOS_V2\cmsis_os2.c 0x00000000   Number         0  cmsis_os2.o ABSOLUTE
    ..\Middlewares\Third_Party\FreeRTOS\Source\portable\RVDS\ARM_CM3\port.c 0x00000000   Number         0  port.o ABSOLUTE
    ..\\Drivers\\DshanMCU-F103\\driver_active_buzzer.c 0x00000000   Number         0  driver_active_buzzer.o ABSOLUTE
    ..\\Drivers\\DshanMCU-F103\\driver_color_led.c 0x00000000   Number         0  driver_color_led.o ABSOLUTE
    ..\\Drivers\\DshanMCU-F103\\driver_dht11.c 0x00000000   Number         0  driver_dht11.o ABSOLUTE
    ..\\Drivers\\DshanMCU-F103\\driver_ds18b20.c 0x00000000   Number         0  driver_ds18b20.o ABSOLUTE
    ..\\Drivers\\DshanMCU-F103\\driver_ir_obstacle.c 0x00000000   Number         0  driver_ir_obstacle.o ABSOLUTE
    ..\\Drivers\\DshanMCU-F103\\driver_ir_receiver.c 0x00000000   Number         0  driver_ir_receiver.o ABSOLUTE
    ..\\Drivers\\DshanMCU-F103\\driver_ir_sender.c 0x00000000   Number         0  driver_ir_sender.o ABSOLUTE
    ..\\Drivers\\DshanMCU-F103\\driver_irq.c 0x00000000   Number         0  driver_irq.o ABSOLUTE
    ..\\Drivers\\DshanMCU-F103\\driver_key.c 0x00000000   Number         0  driver_key.o ABSOLUTE
    ..\\Drivers\\DshanMCU-F103\\driver_led.c 0x00000000   Number         0  driver_led.o ABSOLUTE
    ..\\Drivers\\DshanMCU-F103\\driver_light_sensor.c 0x00000000   Number         0  driver_light_sensor.o ABSOLUTE
    ..\\Drivers\\DshanMCU-F103\\driver_motor.c 0x00000000   Number         0  driver_motor.o ABSOLUTE
    ..\\Drivers\\DshanMCU-F103\\driver_mpu6050.c 0x00000000   Number         0  driver_mpu6050.o ABSOLUTE
    ..\\Drivers\\DshanMCU-F103\\driver_oled.c 0x00000000   Number         0  driver_oled.o ABSOLUTE
    ..\\Drivers\\DshanMCU-F103\\driver_passive_buzzer.c 0x00000000   Number         0  driver_passive_buzzer.o ABSOLUTE
    ..\\Drivers\\DshanMCU-F103\\driver_rotary_encoder.c 0x00000000   Number         0  driver_rotary_encoder.o ABSOLUTE
    ..\\Drivers\\DshanMCU-F103\\driver_spiflash_w25q64.c 0x00000000   Number         0  driver_spiflash_w25q64.o ABSOLUTE
    ..\\Drivers\\DshanMCU-F103\\driver_timer.c 0x00000000   Number         0  driver_timer.o ABSOLUTE
    ..\\Drivers\\DshanMCU-F103\\driver_uart.c 0x00000000   Number         0  driver_uart.o ABSOLUTE
    ..\\Drivers\\DshanMCU-F103\\driver_ultrasonic_sr04.c 0x00000000   Number         0  driver_ultrasonic_sr04.o ABSOLUTE
    cdrcmple.s                               0x00000000   Number         0  cdrcmple.o ABSOLUTE
    dc.s                                     0x00000000   Number         0  dc.o ABSOLUTE
    handlers.s                               0x00000000   Number         0  handlers.o ABSOLUTE
    init.s                                   0x00000000   Number         0  init.o ABSOLUTE
    startup_stm32f103xb.s                    0x00000000   Number         0  startup_stm32f103xb.o ABSOLUTE
    RESET                                    0x08000000   Section      236  startup_stm32f103xb.o(RESET)
    .ARM.Collect$$$$00000000                 0x080000ec   Section        0  entry.o(.ARM.Collect$$$$00000000)
    .ARM.Collect$$$$00000001                 0x080000ec   Section        4  entry2.o(.ARM.Collect$$$$00000001)
    .ARM.Collect$$$$00000004                 0x080000f0   Section        4  entry5.o(.ARM.Collect$$$$00000004)
    .ARM.Collect$$$$00000008                 0x080000f4   Section        0  entry7b.o(.ARM.Collect$$$$00000008)
    .ARM.Collect$$$$0000000A                 0x080000f4   Section        0  entry8b.o(.ARM.Collect$$$$0000000A)
    .ARM.Collect$$$$0000000B                 0x080000f4   Section        8  entry9a.o(.ARM.Collect$$$$0000000B)
    .ARM.Collect$$$$0000000D                 0x080000fc   Section        0  entry10a.o(.ARM.Collect$$$$0000000D)
    .ARM.Collect$$$$0000000F                 0x080000fc   Section        0  entry11a.o(.ARM.Collect$$$$0000000F)
    .ARM.Collect$$$$00002712                 0x080000fc   Section        4  entry2.o(.ARM.Collect$$$$00002712)
    __lit__00000000                          0x080000fc   Data           4  entry2.o(.ARM.Collect$$$$00002712)
    .emb_text                                0x08000100   Section      150  port.o(.emb_text)
    .text                                    0x08000198   Section       36  startup_stm32f103xb.o(.text)
    .text                                    0x080001bc   Section        0  uldiv.o(.text)
    .text                                    0x0800021e   Section        0  llushr.o(.text)
    .text                                    0x0800023e   Section        0  memcpya.o(.text)
    .text                                    0x08000262   Section        0  memseta.o(.text)
    .text                                    0x08000286   Section        0  llshl.o(.text)
    .text                                    0x080002a4   Section       36  init.o(.text)
    .text                                    0x080002c8   Section        0  __dclz77c.o(.text)
    i.ADC_ConversionStop_Disable             0x08000328   Section        0  stm32f1xx_hal_adc.o(i.ADC_ConversionStop_Disable)
    i.BusFault_Handler                       0x0800037e   Section        0  stm32f1xx_it.o(i.BusFault_Handler)
    i.ColorLED_Set                           0x08000380   Section        0  driver_color_led.o(i.ColorLED_Set)
    i.ColorLED_Test                          0x08000424   Section        0  driver_color_led.o(i.ColorLED_Test)
    i.DebugMon_Handler                       0x08000448   Section        0  stm32f1xx_it.o(i.DebugMon_Handler)
    i.EXTI15_10_IRQHandler                   0x0800044a   Section        0  stm32f1xx_it.o(i.EXTI15_10_IRQHandler)
    i.Error_Handler                          0x08000468   Section        0  main.o(i.Error_Handler)
    i.GetKeyFromBuf                          0x0800046c   Section        0  driver_ir_receiver.o(i.GetKeyFromBuf)
    GetKeyFromBuf                            0x0800046d   Thumb Code    34  driver_ir_receiver.o(i.GetKeyFromBuf)
    i.HAL_ADC_ConfigChannel                  0x08000498   Section        0  stm32f1xx_hal_adc.o(i.HAL_ADC_ConfigChannel)
    i.HAL_ADC_Init                           0x08000594   Section        0  stm32f1xx_hal_adc.o(i.HAL_ADC_Init)
    i.HAL_ADC_MspInit                        0x080006b0   Section        0  adc.o(i.HAL_ADC_MspInit)
    i.HAL_GPIO_EXTI_Callback                 0x08000708   Section        0  driver_irq.o(i.HAL_GPIO_EXTI_Callback)
    i.HAL_GPIO_EXTI_IRQHandler               0x08000720   Section        0  stm32f1xx_hal_gpio.o(i.HAL_GPIO_EXTI_IRQHandler)
    i.HAL_GPIO_Init                          0x08000738   Section        0  stm32f1xx_hal_gpio.o(i.HAL_GPIO_Init)
    i.HAL_GPIO_ReadPin                       0x08000918   Section        0  stm32f1xx_hal_gpio.o(i.HAL_GPIO_ReadPin)
    i.HAL_GPIO_WritePin                      0x08000922   Section        0  stm32f1xx_hal_gpio.o(i.HAL_GPIO_WritePin)
    i.HAL_GetTick                            0x0800092c   Section        0  stm32f1xx_hal.o(i.HAL_GetTick)
    i.HAL_I2C_Init                           0x08000938   Section        0  stm32f1xx_hal_i2c.o(i.HAL_I2C_Init)
    i.HAL_I2C_Master_Transmit                0x08000ac0   Section        0  stm32f1xx_hal_i2c.o(i.HAL_I2C_Master_Transmit)
    i.HAL_I2C_Mem_Write                      0x08000bec   Section        0  stm32f1xx_hal_i2c.o(i.HAL_I2C_Mem_Write)
    i.HAL_I2C_MspInit                        0x08000d1c   Section        0  i2c.o(i.HAL_I2C_MspInit)
    i.HAL_IncTick                            0x08000d78   Section        0  stm32f1xx_hal.o(i.HAL_IncTick)
    i.HAL_Init                               0x08000d88   Section        0  stm32f1xx_hal.o(i.HAL_Init)
    i.HAL_InitTick                           0x08000dac   Section        0  stm32f1xx_hal_timebase_tim.o(i.HAL_InitTick)
    i.HAL_MspInit                            0x08000e44   Section        0  stm32f1xx_hal_msp.o(i.HAL_MspInit)
    i.HAL_NVIC_EnableIRQ                     0x08000e8c   Section        0  stm32f1xx_hal_cortex.o(i.HAL_NVIC_EnableIRQ)
    i.HAL_NVIC_SetPriority                   0x08000ea8   Section        0  stm32f1xx_hal_cortex.o(i.HAL_NVIC_SetPriority)
    i.HAL_NVIC_SetPriorityGrouping           0x08000ee8   Section        0  stm32f1xx_hal_cortex.o(i.HAL_NVIC_SetPriorityGrouping)
    i.HAL_PCD_Init                           0x08000f0c   Section        0  stm32f1xx_hal_pcd.o(i.HAL_PCD_Init)
    i.HAL_PCD_MspInit                        0x08000fe8   Section        0  usb.o(i.HAL_PCD_MspInit)
    i.HAL_RCCEx_PeriphCLKConfig              0x08001010   Section        0  stm32f1xx_hal_rcc_ex.o(i.HAL_RCCEx_PeriphCLKConfig)
    i.HAL_RCC_ClockConfig                    0x080010fc   Section        0  stm32f1xx_hal_rcc.o(i.HAL_RCC_ClockConfig)
    i.HAL_RCC_GetClockConfig                 0x08001228   Section        0  stm32f1xx_hal_rcc.o(i.HAL_RCC_GetClockConfig)
    i.HAL_RCC_GetPCLK1Freq                   0x08001268   Section        0  stm32f1xx_hal_rcc.o(i.HAL_RCC_GetPCLK1Freq)
    i.HAL_RCC_GetPCLK2Freq                   0x08001288   Section        0  stm32f1xx_hal_rcc.o(i.HAL_RCC_GetPCLK2Freq)
    i.HAL_RCC_GetSysClockFreq                0x080012a8   Section        0  stm32f1xx_hal_rcc.o(i.HAL_RCC_GetSysClockFreq)
    i.HAL_RCC_OscConfig                      0x080012f4   Section        0  stm32f1xx_hal_rcc.o(i.HAL_RCC_OscConfig)
    i.HAL_SPI_Init                           0x08001614   Section        0  stm32f1xx_hal_spi.o(i.HAL_SPI_Init)
    i.HAL_SPI_MspInit                        0x080016c8   Section        0  spi.o(i.HAL_SPI_MspInit)
    i.HAL_TIMEx_BreakCallback                0x08001738   Section        0  stm32f1xx_hal_tim_ex.o(i.HAL_TIMEx_BreakCallback)
    i.HAL_TIMEx_CommutCallback               0x0800173a   Section        0  stm32f1xx_hal_tim_ex.o(i.HAL_TIMEx_CommutCallback)
    i.HAL_TIMEx_ConfigBreakDeadTime          0x0800173c   Section        0  stm32f1xx_hal_tim_ex.o(i.HAL_TIMEx_ConfigBreakDeadTime)
    i.HAL_TIMEx_MasterConfigSynchronization  0x08001790   Section        0  stm32f1xx_hal_tim_ex.o(i.HAL_TIMEx_MasterConfigSynchronization)
    i.HAL_TIM_Base_DeInit                    0x080017f8   Section        0  stm32f1xx_hal_tim.o(i.HAL_TIM_Base_DeInit)
    i.HAL_TIM_Base_Init                      0x08001854   Section        0  stm32f1xx_hal_tim.o(i.HAL_TIM_Base_Init)
    i.HAL_TIM_Base_MspDeInit                 0x080018b0   Section        0  tim.o(i.HAL_TIM_Base_MspDeInit)
    i.HAL_TIM_Base_MspInit                   0x080018dc   Section        0  tim.o(i.HAL_TIM_Base_MspInit)
    i.HAL_TIM_Base_Start_IT                  0x08001918   Section        0  stm32f1xx_hal_tim.o(i.HAL_TIM_Base_Start_IT)
    i.HAL_TIM_ConfigClockSource              0x08001970   Section        0  stm32f1xx_hal_tim.o(i.HAL_TIM_ConfigClockSource)
    i.HAL_TIM_IC_CaptureCallback             0x08001a4c   Section        0  stm32f1xx_hal_tim.o(i.HAL_TIM_IC_CaptureCallback)
    i.HAL_TIM_IRQHandler                     0x08001a4e   Section        0  stm32f1xx_hal_tim.o(i.HAL_TIM_IRQHandler)
    i.HAL_TIM_MspPostInit                    0x08001bb4   Section        0  tim.o(i.HAL_TIM_MspPostInit)
    i.HAL_TIM_OC_DelayElapsedCallback        0x08001ca0   Section        0  stm32f1xx_hal_tim.o(i.HAL_TIM_OC_DelayElapsedCallback)
    i.HAL_TIM_PWM_ConfigChannel              0x08001ca2   Section        0  stm32f1xx_hal_tim.o(i.HAL_TIM_PWM_ConfigChannel)
    i.HAL_TIM_PWM_Init                       0x08001d6e   Section        0  stm32f1xx_hal_tim.o(i.HAL_TIM_PWM_Init)
    i.HAL_TIM_PWM_MspInit                    0x08001dc8   Section        0  tim.o(i.HAL_TIM_PWM_MspInit)
    i.HAL_TIM_PWM_PulseFinishedCallback      0x08001df0   Section        0  stm32f1xx_hal_tim.o(i.HAL_TIM_PWM_PulseFinishedCallback)
    i.HAL_TIM_PWM_Start                      0x08001df4   Section        0  stm32f1xx_hal_tim.o(i.HAL_TIM_PWM_Start)
    i.HAL_TIM_PWM_Stop                       0x08001e90   Section        0  stm32f1xx_hal_tim.o(i.HAL_TIM_PWM_Stop)
    i.HAL_TIM_PeriodElapsedCallback          0x08001f00   Section        0  main.o(i.HAL_TIM_PeriodElapsedCallback)
    i.HAL_TIM_TriggerCallback                0x08001f14   Section        0  stm32f1xx_hal_tim.o(i.HAL_TIM_TriggerCallback)
    i.HAL_UART_Init                          0x08001f16   Section        0  stm32f1xx_hal_uart.o(i.HAL_UART_Init)
    i.HAL_UART_MspInit                       0x08001f7c   Section        0  usart.o(i.HAL_UART_MspInit)
    i.HardFault_Handler                      0x08001fec   Section        0  stm32f1xx_it.o(i.HardFault_Handler)
    i.I2C_IsAcknowledgeFailed                0x08001fee   Section        0  stm32f1xx_hal_i2c.o(i.I2C_IsAcknowledgeFailed)
    I2C_IsAcknowledgeFailed                  0x08001fef   Thumb Code    46  stm32f1xx_hal_i2c.o(i.I2C_IsAcknowledgeFailed)
    i.I2C_MasterRequestWrite                 0x0800201c   Section        0  stm32f1xx_hal_i2c.o(i.I2C_MasterRequestWrite)
    I2C_MasterRequestWrite                   0x0800201d   Thumb Code   150  stm32f1xx_hal_i2c.o(i.I2C_MasterRequestWrite)
    i.I2C_RequestMemoryWrite                 0x080020b8   Section        0  stm32f1xx_hal_i2c.o(i.I2C_RequestMemoryWrite)
    I2C_RequestMemoryWrite                   0x080020b9   Thumb Code   162  stm32f1xx_hal_i2c.o(i.I2C_RequestMemoryWrite)
    i.I2C_WaitOnBTFFlagUntilTimeout          0x08002160   Section        0  stm32f1xx_hal_i2c.o(i.I2C_WaitOnBTFFlagUntilTimeout)
    I2C_WaitOnBTFFlagUntilTimeout            0x08002161   Thumb Code    86  stm32f1xx_hal_i2c.o(i.I2C_WaitOnBTFFlagUntilTimeout)
    i.I2C_WaitOnFlagUntilTimeout             0x080021b8   Section        0  stm32f1xx_hal_i2c.o(i.I2C_WaitOnFlagUntilTimeout)
    I2C_WaitOnFlagUntilTimeout               0x080021b9   Thumb Code   144  stm32f1xx_hal_i2c.o(i.I2C_WaitOnFlagUntilTimeout)
    i.I2C_WaitOnMasterAddressFlagUntilTimeout 0x08002248   Section        0  stm32f1xx_hal_i2c.o(i.I2C_WaitOnMasterAddressFlagUntilTimeout)
    I2C_WaitOnMasterAddressFlagUntilTimeout  0x08002249   Thumb Code   188  stm32f1xx_hal_i2c.o(i.I2C_WaitOnMasterAddressFlagUntilTimeout)
    i.I2C_WaitOnTXEFlagUntilTimeout          0x08002304   Section        0  stm32f1xx_hal_i2c.o(i.I2C_WaitOnTXEFlagUntilTimeout)
    I2C_WaitOnTXEFlagUntilTimeout            0x08002305   Thumb Code    86  stm32f1xx_hal_i2c.o(i.I2C_WaitOnTXEFlagUntilTimeout)
    i.IRReceiver_CodeToString                0x0800235c   Section        0  driver_ir_receiver.o(i.IRReceiver_CodeToString)
    i.IRReceiver_IRQTimes_Parse              0x080023b8   Section        0  driver_ir_receiver.o(i.IRReceiver_IRQTimes_Parse)
    IRReceiver_IRQTimes_Parse                0x080023b9   Thumb Code   260  driver_ir_receiver.o(i.IRReceiver_IRQTimes_Parse)
    i.IRReceiver_IRQ_Callback                0x080024d8   Section        0  driver_ir_receiver.o(i.IRReceiver_IRQ_Callback)
    i.IRReceiver_Read                        0x08002590   Section        0  driver_ir_receiver.o(i.IRReceiver_Read)
    i.IRReceiver_Test                        0x080025bc   Section        0  driver_ir_receiver.o(i.IRReceiver_Test)
    i.LCD_Clear                              0x0800266c   Section        0  driver_lcd.o(i.LCD_Clear)
    i.LCD_Init                               0x08002670   Section        0  driver_lcd.o(i.LCD_Init)
    i.LCD_PrintHex                           0x08002674   Section        0  driver_lcd.o(i.LCD_PrintHex)
    i.LCD_PrintString                        0x08002678   Section        0  driver_lcd.o(i.LCD_PrintString)
    i.Led_Control                            0x0800267c   Section        0  driver_led.o(i.Led_Control)
    i.Led_Init                               0x0800269c   Section        0  driver_led.o(i.Led_Init)
    i.Led_Test                               0x080026f0   Section        0  driver_led.o(i.Led_Test)
    i.MUSIC_Analysis                         0x08002718   Section        0  music.o(i.MUSIC_Analysis)
    i.MX_ADC1_Init                           0x08002768   Section        0  adc.o(i.MX_ADC1_Init)
    i.MX_FREERTOS_Init                       0x080027b8   Section        0  freertos.o(i.MX_FREERTOS_Init)
    i.MX_GPIO_Init                           0x08002858   Section        0  gpio.o(i.MX_GPIO_Init)
    i.MX_I2C1_Init                           0x080029a8   Section        0  i2c.o(i.MX_I2C1_Init)
    i.MX_SPI1_Init                           0x080029e8   Section        0  spi.o(i.MX_SPI1_Init)
    i.MX_TIM1_Init                           0x08002a30   Section        0  tim.o(i.MX_TIM1_Init)
    i.MX_TIM2_Init                           0x08002b00   Section        0  tim.o(i.MX_TIM2_Init)
    i.MX_TIM3_Init                           0x08002bbc   Section        0  tim.o(i.MX_TIM3_Init)
    i.MX_USART1_UART_Init                    0x08002c34   Section        0  usart.o(i.MX_USART1_UART_Init)
    i.MX_USB_PCD_Init                        0x08002c6c   Section        0  usb.o(i.MX_USB_PCD_Init)
    i.MemManage_Handler                      0x08002ca0   Section        0  stm32f1xx_it.o(i.MemManage_Handler)
    i.NMI_Handler                            0x08002ca2   Section        0  stm32f1xx_it.o(i.NMI_Handler)
    i.OLED_Clear                             0x08002ca4   Section        0  driver_oled.o(i.OLED_Clear)
    i.OLED_Init                              0x08002cd0   Section        0  driver_oled.o(i.OLED_Init)
    i.OLED_PrintHex                          0x08002d64   Section        0  driver_oled.o(i.OLED_PrintHex)
    i.OLED_PrintString                       0x08002de8   Section        0  driver_oled.o(i.OLED_PrintString)
    i.OLED_PutChar                           0x08002e1c   Section        0  driver_oled.o(i.OLED_PutChar)
    i.OLED_SetComConfig                      0x08002e64   Section        0  driver_oled.o(i.OLED_SetComConfig)
    OLED_SetComConfig                        0x08002e65   Thumb Code    44  driver_oled.o(i.OLED_SetComConfig)
    i.OLED_SetPosition                       0x08002e90   Section        0  driver_oled.o(i.OLED_SetPosition)
    i.OLED_WriteCmd                          0x08002ed0   Section        0  driver_oled.o(i.OLED_WriteCmd)
    OLED_WriteCmd                            0x08002ed1   Thumb Code    34  driver_oled.o(i.OLED_WriteCmd)
    i.OLED_WriteNBytes                       0x08002ef8   Section        0  driver_oled.o(i.OLED_WriteNBytes)
    OLED_WriteNBytes                         0x08002ef9   Thumb Code    26  driver_oled.o(i.OLED_WriteNBytes)
    i.PassiveBuzzer_Init                     0x08002f18   Section        0  driver_passive_buzzer.o(i.PassiveBuzzer_Init)
    i.PassiveBuzzer_Set_Freq_Duty            0x08002f80   Section        0  driver_passive_buzzer.o(i.PassiveBuzzer_Set_Freq_Duty)
    i.PlayMusic                              0x08003008   Section        0  music.o(i.PlayMusic)
    i.PutKeyToBuf                            0x08003014   Section        0  driver_ir_receiver.o(i.PutKeyToBuf)
    PutKeyToBuf                              0x08003015   Thumb Code    36  driver_ir_receiver.o(i.PutKeyToBuf)
    i.RotaryEncoder_IRQ_Callback             0x08003040   Section        0  driver_rotary_encoder.o(i.RotaryEncoder_IRQ_Callback)
    i.StartDefaultTask                       0x080030ac   Section        0  freertos.o(i.StartDefaultTask)
    i.SysTick_Handler                        0x080030bc   Section        0  port.o(i.SysTick_Handler)
    i.SystemClock_Config                     0x080030e8   Section        0  main.o(i.SystemClock_Config)
    i.SystemInit                             0x08003164   Section        0  system_stm32f1xx.o(i.SystemInit)
    i.TIM4_IRQHandler                        0x08003168   Section        0  stm32f1xx_it.o(i.TIM4_IRQHandler)
    i.TIM_Base_SetConfig                     0x08003174   Section        0  stm32f1xx_hal_tim.o(i.TIM_Base_SetConfig)
    i.TIM_CCxChannelCmd                      0x080031e0   Section        0  stm32f1xx_hal_tim.o(i.TIM_CCxChannelCmd)
    i.TIM_ETR_SetConfig                      0x080031fa   Section        0  stm32f1xx_hal_tim.o(i.TIM_ETR_SetConfig)
    i.TIM_ITRx_SetConfig                     0x0800320e   Section        0  stm32f1xx_hal_tim.o(i.TIM_ITRx_SetConfig)
    TIM_ITRx_SetConfig                       0x0800320f   Thumb Code    16  stm32f1xx_hal_tim.o(i.TIM_ITRx_SetConfig)
    i.TIM_OC1_SetConfig                      0x08003220   Section        0  stm32f1xx_hal_tim.o(i.TIM_OC1_SetConfig)
    TIM_OC1_SetConfig                        0x08003221   Thumb Code    74  stm32f1xx_hal_tim.o(i.TIM_OC1_SetConfig)
    i.TIM_OC2_SetConfig                      0x08003270   Section        0  stm32f1xx_hal_tim.o(i.TIM_OC2_SetConfig)
    i.TIM_OC3_SetConfig                      0x080032c8   Section        0  stm32f1xx_hal_tim.o(i.TIM_OC3_SetConfig)
    TIM_OC3_SetConfig                        0x080032c9   Thumb Code    82  stm32f1xx_hal_tim.o(i.TIM_OC3_SetConfig)
    i.TIM_OC4_SetConfig                      0x08003320   Section        0  stm32f1xx_hal_tim.o(i.TIM_OC4_SetConfig)
    TIM_OC4_SetConfig                        0x08003321   Thumb Code    64  stm32f1xx_hal_tim.o(i.TIM_OC4_SetConfig)
    i.TIM_TI1_ConfigInputStage               0x08003364   Section        0  stm32f1xx_hal_tim.o(i.TIM_TI1_ConfigInputStage)
    TIM_TI1_ConfigInputStage                 0x08003365   Thumb Code    34  stm32f1xx_hal_tim.o(i.TIM_TI1_ConfigInputStage)
    i.TIM_TI2_ConfigInputStage               0x08003386   Section        0  stm32f1xx_hal_tim.o(i.TIM_TI2_ConfigInputStage)
    TIM_TI2_ConfigInputStage                 0x08003387   Thumb Code    36  stm32f1xx_hal_tim.o(i.TIM_TI2_ConfigInputStage)
    i.UART_SetConfig                         0x080033ac   Section        0  stm32f1xx_hal_uart.o(i.UART_SetConfig)
    UART_SetConfig                           0x080033ad   Thumb Code   178  stm32f1xx_hal_uart.o(i.UART_SetConfig)
    i.USB_CoreInit                           0x08003464   Section        0  stm32f1xx_ll_usb.o(i.USB_CoreInit)
    i.USB_DevDisconnect                      0x08003468   Section        0  stm32f1xx_ll_usb.o(i.USB_DevDisconnect)
    i.USB_DevInit                            0x0800346c   Section        0  stm32f1xx_ll_usb.o(i.USB_DevInit)
    i.USB_DisableGlobalInt                   0x0800347e   Section        0  stm32f1xx_ll_usb.o(i.USB_DisableGlobalInt)
    i.USB_SetCurrentMode                     0x0800348c   Section        0  stm32f1xx_ll_usb.o(i.USB_SetCurrentMode)
    i.UsageFault_Handler                     0x08003490   Section        0  stm32f1xx_it.o(i.UsageFault_Handler)
    i.__NVIC_SetPriority                     0x08003492   Section        0  stm32f1xx_hal_cortex.o(i.__NVIC_SetPriority)
    __NVIC_SetPriority                       0x08003493   Thumb Code    32  stm32f1xx_hal_cortex.o(i.__NVIC_SetPriority)
    i.__scatterload_copy                     0x080034b2   Section       14  handlers.o(i.__scatterload_copy)
    i.__scatterload_null                     0x080034c0   Section        2  handlers.o(i.__scatterload_null)
    i.__scatterload_zeroinit                 0x080034c2   Section       14  handlers.o(i.__scatterload_zeroinit)
    i.main                                   0x080034d0   Section        0  main.o(i.main)
    i.mdelay                                 0x0800350a   Section        0  driver_timer.o(i.mdelay)
    i.osKernelInitialize                     0x08003524   Section        0  cmsis_os2.o(i.osKernelInitialize)
    i.osKernelStart                          0x0800355c   Section        0  cmsis_os2.o(i.osKernelStart)
    i.osThreadNew                            0x0800359c   Section        0  cmsis_os2.o(i.osThreadNew)
    i.prvAddCurrentTaskToDelayedList         0x08003640   Section        0  tasks.o(i.prvAddCurrentTaskToDelayedList)
    prvAddCurrentTaskToDelayedList           0x08003641   Thumb Code    84  tasks.o(i.prvAddCurrentTaskToDelayedList)
    i.prvAddNewTaskToReadyList               0x0800369c   Section        0  tasks.o(i.prvAddNewTaskToReadyList)
    prvAddNewTaskToReadyList                 0x0800369d   Thumb Code   190  tasks.o(i.prvAddNewTaskToReadyList)
    i.prvCheckForValidListAndQueue           0x0800376c   Section        0  timers.o(i.prvCheckForValidListAndQueue)
    prvCheckForValidListAndQueue             0x0800376d   Thumb Code    72  timers.o(i.prvCheckForValidListAndQueue)
    i.prvCopyDataFromQueue                   0x080037c4   Section        0  queue.o(i.prvCopyDataFromQueue)
    prvCopyDataFromQueue                     0x080037c5   Thumb Code    38  queue.o(i.prvCopyDataFromQueue)
    i.prvCopyDataToQueue                     0x080037ea   Section        0  queue.o(i.prvCopyDataToQueue)
    prvCopyDataToQueue                       0x080037eb   Thumb Code   108  queue.o(i.prvCopyDataToQueue)
    i.prvDeleteTCB                           0x08003856   Section        0  tasks.o(i.prvDeleteTCB)
    prvDeleteTCB                             0x08003857   Thumb Code    52  tasks.o(i.prvDeleteTCB)
    i.prvHeapInit                            0x0800388c   Section        0  heap_4.o(i.prvHeapInit)
    prvHeapInit                              0x0800388d   Thumb Code    66  heap_4.o(i.prvHeapInit)
    i.prvIdleTask                            0x080038d8   Section        0  tasks.o(i.prvIdleTask)
    prvIdleTask                              0x080038d9   Thumb Code    82  tasks.o(i.prvIdleTask)
    i.prvInitialiseNewQueue                  0x08003938   Section        0  queue.o(i.prvInitialiseNewQueue)
    prvInitialiseNewQueue                    0x08003939   Thumb Code    34  queue.o(i.prvInitialiseNewQueue)
    i.prvInitialiseNewTask                   0x0800395a   Section        0  tasks.o(i.prvInitialiseNewTask)
    prvInitialiseNewTask                     0x0800395b   Thumb Code   156  tasks.o(i.prvInitialiseNewTask)
    i.prvInsertBlockIntoFreeList             0x080039f8   Section        0  heap_4.o(i.prvInsertBlockIntoFreeList)
    prvInsertBlockIntoFreeList               0x080039f9   Thumb Code    72  heap_4.o(i.prvInsertBlockIntoFreeList)
    i.prvInsertTimerInActiveList             0x08003a44   Section        0  timers.o(i.prvInsertTimerInActiveList)
    prvInsertTimerInActiveList               0x08003a45   Thumb Code    52  timers.o(i.prvInsertTimerInActiveList)
    i.prvIsQueueEmpty                        0x08003a7c   Section        0  queue.o(i.prvIsQueueEmpty)
    prvIsQueueEmpty                          0x08003a7d   Thumb Code    28  queue.o(i.prvIsQueueEmpty)
    i.prvProcessReceivedCommands             0x08003a98   Section        0  timers.o(i.prvProcessReceivedCommands)
    prvProcessReceivedCommands               0x08003a99   Thumb Code   198  timers.o(i.prvProcessReceivedCommands)
    i.prvProcessTimerOrBlockTask             0x08003b64   Section        0  timers.o(i.prvProcessTimerOrBlockTask)
    prvProcessTimerOrBlockTask               0x08003b65   Thumb Code   172  timers.o(i.prvProcessTimerOrBlockTask)
    i.prvResetNextTaskUnblockTime            0x08003c18   Section        0  tasks.o(i.prvResetNextTaskUnblockTime)
    prvResetNextTaskUnblockTime              0x08003c19   Thumb Code    26  tasks.o(i.prvResetNextTaskUnblockTime)
    i.prvSampleTimeNow                       0x08003c38   Section        0  timers.o(i.prvSampleTimeNow)
    prvSampleTimeNow                         0x08003c39   Thumb Code    36  timers.o(i.prvSampleTimeNow)
    i.prvSwitchTimerLists                    0x08003c60   Section        0  timers.o(i.prvSwitchTimerLists)
    prvSwitchTimerLists                      0x08003c61   Thumb Code   102  timers.o(i.prvSwitchTimerLists)
    i.prvTaskExitError                       0x08003ccc   Section        0  port.o(i.prvTaskExitError)
    prvTaskExitError                         0x08003ccd   Thumb Code    36  port.o(i.prvTaskExitError)
    i.prvTimerTask                           0x08003cf4   Section        0  timers.o(i.prvTimerTask)
    prvTimerTask                             0x08003cf5   Thumb Code    32  timers.o(i.prvTimerTask)
    i.prvUnlockQueue                         0x08003d18   Section        0  queue.o(i.prvUnlockQueue)
    prvUnlockQueue                           0x08003d19   Thumb Code   106  queue.o(i.prvUnlockQueue)
    i.pvPortMalloc                           0x08003d84   Section        0  heap_4.o(i.pvPortMalloc)
    i.pxPortInitialiseStack                  0x08003e5c   Section        0  port.o(i.pxPortInitialiseStack)
    i.system_get_ns                          0x08003e80   Section        0  driver_timer.o(i.system_get_ns)
    i.udelay                                 0x08003ec4   Section        0  driver_timer.o(i.udelay)
    i.uxListRemove                           0x08003efc   Section        0  list.o(i.uxListRemove)
    i.vApplicationGetIdleTaskMemory          0x08003f24   Section        0  cmsis_os2.o(i.vApplicationGetIdleTaskMemory)
    i.vApplicationGetTimerTaskMemory         0x08003f38   Section        0  cmsis_os2.o(i.vApplicationGetTimerTaskMemory)
    i.vListInitialise                        0x08003f50   Section        0  list.o(i.vListInitialise)
    i.vListInitialiseItem                    0x08003f66   Section        0  list.o(i.vListInitialiseItem)
    i.vListInsert                            0x08003f6c   Section        0  list.o(i.vListInsert)
    i.vListInsertEnd                         0x08003f9c   Section        0  list.o(i.vListInsertEnd)
    i.vPortEnterCritical                     0x08003fb4   Section        0  port.o(i.vPortEnterCritical)
    i.vPortExitCritical                      0x08003ff4   Section        0  port.o(i.vPortExitCritical)
    i.vPortFree                              0x0800401c   Section        0  heap_4.o(i.vPortFree)
    i.vPortSetupTimerInterrupt               0x08004078   Section        0  port.o(i.vPortSetupTimerInterrupt)
    i.vPortValidateInterruptPriority         0x0800409c   Section        0  port.o(i.vPortValidateInterruptPriority)
    i.vQueueAddToRegistry                    0x080040f0   Section        0  queue.o(i.vQueueAddToRegistry)
    i.vQueueWaitForMessageRestricted         0x08004118   Section        0  queue.o(i.vQueueWaitForMessageRestricted)
    i.vTaskInternalSetTimeOutState           0x0800415c   Section        0  tasks.o(i.vTaskInternalSetTimeOutState)
    i.vTaskMissedYield                       0x0800416c   Section        0  tasks.o(i.vTaskMissedYield)
    i.vTaskPlaceOnEventList                  0x08004178   Section        0  tasks.o(i.vTaskPlaceOnEventList)
    i.vTaskPlaceOnEventListRestricted        0x080041a8   Section        0  tasks.o(i.vTaskPlaceOnEventListRestricted)
    i.vTaskStartScheduler                    0x080041e0   Section        0  tasks.o(i.vTaskStartScheduler)
    i.vTaskSuspendAll                        0x08004268   Section        0  tasks.o(i.vTaskSuspendAll)
    i.vTaskSwitchContext                     0x08004278   Section        0  tasks.o(i.vTaskSwitchContext)
    i.xPortStartScheduler                    0x080042dc   Section        0  port.o(i.xPortStartScheduler)
    i.xQueueGenericCreateStatic              0x08004384   Section        0  queue.o(i.xQueueGenericCreateStatic)
    i.xQueueGenericReset                     0x080043ec   Section        0  queue.o(i.xQueueGenericReset)
    i.xQueueGenericSend                      0x08004474   Section        0  queue.o(i.xQueueGenericSend)
    i.xQueueGenericSendFromISR               0x080045d4   Section        0  queue.o(i.xQueueGenericSendFromISR)
    i.xQueueReceive                          0x08004690   Section        0  queue.o(i.xQueueReceive)
    i.xTaskCheckForTimeOut                   0x080047c8   Section        0  tasks.o(i.xTaskCheckForTimeOut)
    i.xTaskCreate                            0x0800483c   Section        0  tasks.o(i.xTaskCreate)
    i.xTaskCreateStatic                      0x08004896   Section        0  tasks.o(i.xTaskCreateStatic)
    i.xTaskGetSchedulerState                 0x080048ec   Section        0  tasks.o(i.xTaskGetSchedulerState)
    i.xTaskGetTickCount                      0x08004908   Section        0  tasks.o(i.xTaskGetTickCount)
    i.xTaskIncrementTick                     0x08004914   Section        0  tasks.o(i.xTaskIncrementTick)
    i.xTaskPriorityDisinherit                0x080049dc   Section        0  tasks.o(i.xTaskPriorityDisinherit)
    i.xTaskRemoveFromEventList               0x08004a5c   Section        0  tasks.o(i.xTaskRemoveFromEventList)
    i.xTaskResumeAll                         0x08004acc   Section        0  tasks.o(i.xTaskResumeAll)
    i.xTimerCreateTimerTask                  0x08004b90   Section        0  timers.o(i.xTimerCreateTimerTask)
    i.xTimerGenericCommand                   0x08004bf0   Section        0  timers.o(i.xTimerGenericCommand)
    .constdata                               0x08004c58   Section       36  freertos.o(.constdata)
    .constdata                               0x08004c7c   Section       18  stm32f1xx_hal_rcc.o(.constdata)
    aPredivFactorTable                       0x08004c7c   Data           2  stm32f1xx_hal_rcc.o(.constdata)
    aPLLMULFactorTable                       0x08004c7e   Data          16  stm32f1xx_hal_rcc.o(.constdata)
    .constdata                               0x08004c8e   Section       16  system_stm32f1xx.o(.constdata)
    .constdata                               0x08004c9e   Section        8  system_stm32f1xx.o(.constdata)
    .constdata                               0x08004ca6   Section     2048  driver_oled.o(.constdata)
    .constdata                               0x080054a8   Section       84  driver_ir_receiver.o(.constdata)
    .conststring                             0x080054fc   Section       12  freertos.o(.conststring)
    .conststring                             0x08005508   Section      113  driver_ir_receiver.o(.conststring)
    .data                                    0x20000000   Section       12  freertos.o(.data)
    xLightTaskHandle                         0x20000000   Data           4  freertos.o(.data)
    xColorTaskHandle                         0x20000004   Data           4  freertos.o(.data)
    .data                                    0x2000000c   Section     3990  music.o(.data)
    .data                                    0x20000fa4   Section       12  stm32f1xx_hal.o(.data)
    .data                                    0x20000fb0   Section        4  system_stm32f1xx.o(.data)
    .data                                    0x20000fb4   Section       60  tasks.o(.data)
    pxDelayedTaskList                        0x20000fb8   Data           4  tasks.o(.data)
    pxOverflowDelayedTaskList                0x20000fbc   Data           4  tasks.o(.data)
    uxDeletedTasksWaitingCleanUp             0x20000fc0   Data           4  tasks.o(.data)
    uxCurrentNumberOfTasks                   0x20000fc4   Data           4  tasks.o(.data)
    xTickCount                               0x20000fc8   Data           4  tasks.o(.data)
    uxTopReadyPriority                       0x20000fcc   Data           4  tasks.o(.data)
    xSchedulerRunning                        0x20000fd0   Data           4  tasks.o(.data)
    uxPendedTicks                            0x20000fd4   Data           4  tasks.o(.data)
    xYieldPending                            0x20000fd8   Data           4  tasks.o(.data)
    xNumOfOverflows                          0x20000fdc   Data           4  tasks.o(.data)
    uxTaskNumber                             0x20000fe0   Data           4  tasks.o(.data)
    xNextTaskUnblockTime                     0x20000fe4   Data           4  tasks.o(.data)
    xIdleTaskHandle                          0x20000fe8   Data           4  tasks.o(.data)
    uxSchedulerSuspended                     0x20000fec   Data           4  tasks.o(.data)
    .data                                    0x20000ff0   Section       20  timers.o(.data)
    pxCurrentTimerList                       0x20000ff0   Data           4  timers.o(.data)
    pxOverflowTimerList                      0x20000ff4   Data           4  timers.o(.data)
    xTimerQueue                              0x20000ff8   Data           4  timers.o(.data)
    xTimerTaskHandle                         0x20000ffc   Data           4  timers.o(.data)
    xLastTime                                0x20001000   Data           4  timers.o(.data)
    .data                                    0x20001004   Section        4  cmsis_os2.o(.data)
    KernelState                              0x20001004   Data           4  cmsis_os2.o(.data)
    .data                                    0x20001008   Section       24  heap_4.o(.data)
    pxEnd                                    0x20001008   Data           4  heap_4.o(.data)
    xFreeBytesRemaining                      0x2000100c   Data           4  heap_4.o(.data)
    xMinimumEverFreeBytesRemaining           0x20001010   Data           4  heap_4.o(.data)
    xBlockAllocatedBit                       0x20001014   Data           4  heap_4.o(.data)
    xStart                                   0x20001018   Data           8  heap_4.o(.data)
    .data                                    0x20001020   Section       12  port.o(.data)
    ucMaxSysCallPriority                     0x20001020   Data           1  port.o(.data)
    uxCriticalNesting                        0x20001024   Data           4  port.o(.data)
    ulMaxPRIGROUPValue                       0x20001028   Data           4  port.o(.data)
    .data                                    0x2000102c   Section        8  driver_oled.o(.data)
    mem_mode                                 0x2000102c   Data           1  driver_oled.o(.data)
    g_pHI2COLED                              0x20001030   Data           4  driver_oled.o(.data)
    .data                                    0x20001034   Section        4  driver_passive_buzzer.o(.data)
    g_HPWM_PassiveBuzzer                     0x20001034   Data           4  driver_passive_buzzer.o(.data)
    .data                                    0x20001038   Section        4  driver_color_led.o(.data)
    g_HPWM_ColorLED                          0x20001038   Data           4  driver_color_led.o(.data)
    .data                                    0x20001040   Section       24  driver_ir_receiver.o(.data)
    g_IRReceiverIRQ_Cnt                      0x20001040   Data           4  driver_ir_receiver.o(.data)
    g_KeysBuf_R                              0x20001044   Data           4  driver_ir_receiver.o(.data)
    g_KeysBuf_W                              0x20001048   Data           4  driver_ir_receiver.o(.data)
    pre_time                                 0x20001050   Data           8  driver_ir_receiver.o(.data)
    .data                                    0x20001058   Section       24  driver_rotary_encoder.o(.data)
    g_count                                  0x20001058   Data           4  driver_rotary_encoder.o(.data)
    g_speed                                  0x2000105c   Data           4  driver_rotary_encoder.o(.data)
    pre_count                                0x20001060   Data           4  driver_rotary_encoder.o(.data)
    pre_time                                 0x20001068   Data           8  driver_rotary_encoder.o(.data)
    .bss                                     0x20001070   Section     1208  freertos.o(.bss)
    g_pucStackOfLightTask                    0x20001070   Data         512  freertos.o(.bss)
    g_TCBofLightTask                         0x20001270   Data          92  freertos.o(.bss)
    g_pucStackOfColorTask                    0x200012cc   Data         512  freertos.o(.bss)
    g_TCBofColorTask                         0x200014cc   Data          92  freertos.o(.bss)
    .bss                                     0x20001528   Section       48  adc.o(.bss)
    .bss                                     0x20001558   Section       84  i2c.o(.bss)
    .bss                                     0x200015ac   Section       88  spi.o(.bss)
    .bss                                     0x20001604   Section      216  tim.o(.bss)
    .bss                                     0x200016dc   Section       72  usart.o(.bss)
    .bss                                     0x20001724   Section      752  usb.o(.bss)
    .bss                                     0x20001a14   Section       72  stm32f1xx_hal_timebase_tim.o(.bss)
    .bss                                     0x20001a5c   Section       64  queue.o(.bss)
    .bss                                     0x20001a9c   Section     1220  tasks.o(.bss)
    pxReadyTasksLists                        0x20001a9c   Data        1120  tasks.o(.bss)
    xDelayedTaskList1                        0x20001efc   Data          20  tasks.o(.bss)
    xDelayedTaskList2                        0x20001f10   Data          20  tasks.o(.bss)
    xPendingReadyList                        0x20001f24   Data          20  tasks.o(.bss)
    xTasksWaitingTermination                 0x20001f38   Data          20  tasks.o(.bss)
    xSuspendedTaskList                       0x20001f4c   Data          20  tasks.o(.bss)
    .bss                                     0x20001f60   Section      280  timers.o(.bss)
    xActiveTimerList1                        0x20001f60   Data          20  timers.o(.bss)
    xActiveTimerList2                        0x20001f74   Data          20  timers.o(.bss)
    xStaticTimerQueue                        0x20001f88   Data          80  timers.o(.bss)
    ucStaticTimerQueueStorage                0x20001fd8   Data         160  timers.o(.bss)
    .bss                                     0x20002078   Section     1720  cmsis_os2.o(.bss)
    Idle_TCB                                 0x20002078   Data          92  cmsis_os2.o(.bss)
    Idle_Stack                               0x200020d4   Data         512  cmsis_os2.o(.bss)
    Timer_TCB                                0x200022d4   Data          92  cmsis_os2.o(.bss)
    Timer_Stack                              0x20002330   Data        1024  cmsis_os2.o(.bss)
    .bss                                     0x20002730   Section     3072  heap_4.o(.bss)
    ucHeap                                   0x20002730   Data        3072  heap_4.o(.bss)
    .bss                                     0x20003330   Section      672  driver_ir_receiver.o(.bss)
    g_KeysBuf                                0x20003330   Data         128  driver_ir_receiver.o(.bss)
    g_IRReceiverIRQ_Timers                   0x200033b0   Data         544  driver_ir_receiver.o(.bss)
    STACK                                    0x200035d0   Section     1024  startup_stm32f103xb.o(STACK)

    Global Symbols

    Symbol Name                              Value     Ov Type        Size  Object(Section)

    BuildAttributes$$THM_ISAv4$P$D$K$B$S$PE$A:L22UL41UL21$X:L11$S22US41US21$IEEE1$IW$USESV6$~STKCKD$USESV7$~SHL$OSPACE$ROPI$EBA8$MICROLIB$REQ8$PRES8$EABIv2 0x00000000   Number         0  anon$$obj.o ABSOLUTE
    __ARM_use_no_argv                        0x00000000   Number         0  main.o ABSOLUTE
    _printf_a                                0x00000000   Number         0  stubs.o ABSOLUTE
    _printf_c                                0x00000000   Number         0  stubs.o ABSOLUTE
    _printf_charcount                        0x00000000   Number         0  stubs.o ABSOLUTE
    _printf_d                                0x00000000   Number         0  stubs.o ABSOLUTE
    _printf_e                                0x00000000   Number         0  stubs.o ABSOLUTE
    _printf_f                                0x00000000   Number         0  stubs.o ABSOLUTE
    _printf_flags                            0x00000000   Number         0  stubs.o ABSOLUTE
    _printf_fp_dec                           0x00000000   Number         0  stubs.o ABSOLUTE
    _printf_fp_hex                           0x00000000   Number         0  stubs.o ABSOLUTE
    _printf_g                                0x00000000   Number         0  stubs.o ABSOLUTE
    _printf_i                                0x00000000   Number         0  stubs.o ABSOLUTE
    _printf_int_dec                          0x00000000   Number         0  stubs.o ABSOLUTE
    _printf_l                                0x00000000   Number         0  stubs.o ABSOLUTE
    _printf_lc                               0x00000000   Number         0  stubs.o ABSOLUTE
    _printf_ll                               0x00000000   Number         0  stubs.o ABSOLUTE
    _printf_lld                              0x00000000   Number         0  stubs.o ABSOLUTE
    _printf_lli                              0x00000000   Number         0  stubs.o ABSOLUTE
    _printf_llo                              0x00000000   Number         0  stubs.o ABSOLUTE
    _printf_llu                              0x00000000   Number         0  stubs.o ABSOLUTE
    _printf_llx                              0x00000000   Number         0  stubs.o ABSOLUTE
    _printf_longlong_dec                     0x00000000   Number         0  stubs.o ABSOLUTE
    _printf_longlong_hex                     0x00000000   Number         0  stubs.o ABSOLUTE
    _printf_longlong_oct                     0x00000000   Number         0  stubs.o ABSOLUTE
    _printf_ls                               0x00000000   Number         0  stubs.o ABSOLUTE
    _printf_mbtowc                           0x00000000   Number         0  stubs.o ABSOLUTE
    _printf_n                                0x00000000   Number         0  stubs.o ABSOLUTE
    _printf_o                                0x00000000   Number         0  stubs.o ABSOLUTE
    _printf_p                                0x00000000   Number         0  stubs.o ABSOLUTE
    _printf_percent                          0x00000000   Number         0  stubs.o ABSOLUTE
    _printf_pre_padding                      0x00000000   Number         0  stubs.o ABSOLUTE
    _printf_return_value                     0x00000000   Number         0  stubs.o ABSOLUTE
    _printf_s                                0x00000000   Number         0  stubs.o ABSOLUTE
    _printf_sizespec                         0x00000000   Number         0  stubs.o ABSOLUTE
    _printf_str                              0x00000000   Number         0  stubs.o ABSOLUTE
    _printf_truncate_signed                  0x00000000   Number         0  stubs.o ABSOLUTE
    _printf_truncate_unsigned                0x00000000   Number         0  stubs.o ABSOLUTE
    _printf_u                                0x00000000   Number         0  stubs.o ABSOLUTE
    _printf_wc                               0x00000000   Number         0  stubs.o ABSOLUTE
    _printf_wctomb                           0x00000000   Number         0  stubs.o ABSOLUTE
    _printf_widthprec                        0x00000000   Number         0  stubs.o ABSOLUTE
    _printf_x                                0x00000000   Number         0  stubs.o ABSOLUTE
    __cpp_initialize__aeabi_                  - Undefined Weak Reference
    __cxa_finalize                            - Undefined Weak Reference
    _clock_init                               - Undefined Weak Reference
    _microlib_exit                            - Undefined Weak Reference
    __Vectors_Size                           0x000000ec   Number         0  startup_stm32f103xb.o ABSOLUTE
    __Vectors                                0x08000000   Data           4  startup_stm32f103xb.o(RESET)
    __Vectors_End                            0x080000ec   Data           0  startup_stm32f103xb.o(RESET)
    __main                                   0x080000ed   Thumb Code     0  entry.o(.ARM.Collect$$$$00000000)
    _main_stk                                0x080000ed   Thumb Code     0  entry2.o(.ARM.Collect$$$$00000001)
    _main_scatterload                        0x080000f1   Thumb Code     0  entry5.o(.ARM.Collect$$$$00000004)
    __main_after_scatterload                 0x080000f5   Thumb Code     0  entry5.o(.ARM.Collect$$$$00000004)
    _main_clock                              0x080000f5   Thumb Code     0  entry7b.o(.ARM.Collect$$$$00000008)
    _main_cpp_init                           0x080000f5   Thumb Code     0  entry8b.o(.ARM.Collect$$$$0000000A)
    _main_init                               0x080000f5   Thumb Code     0  entry9a.o(.ARM.Collect$$$$0000000B)
    __rt_final_cpp                           0x080000fd   Thumb Code     0  entry10a.o(.ARM.Collect$$$$0000000D)
    __rt_final_exit                          0x080000fd   Thumb Code     0  entry11a.o(.ARM.Collect$$$$0000000F)
    SVC_Handler                              0x08000101   Thumb Code    32  port.o(.emb_text)
    __asm___6_port_c_39a90d8d__prvStartFirstTask 0x08000125   Thumb Code    28  port.o(.emb_text)
    PendSV_Handler                           0x08000145   Thumb Code    72  port.o(.emb_text)
    vPortGetIPSR                             0x08000191   Thumb Code     6  port.o(.emb_text)
    Reset_Handler                            0x08000199   Thumb Code     8  startup_stm32f103xb.o(.text)
    ADC1_2_IRQHandler                        0x080001b3   Thumb Code     0  startup_stm32f103xb.o(.text)
    CAN1_RX1_IRQHandler                      0x080001b3   Thumb Code     0  startup_stm32f103xb.o(.text)
    CAN1_SCE_IRQHandler                      0x080001b3   Thumb Code     0  startup_stm32f103xb.o(.text)
    DMA1_Channel1_IRQHandler                 0x080001b3   Thumb Code     0  startup_stm32f103xb.o(.text)
    DMA1_Channel2_IRQHandler                 0x080001b3   Thumb Code     0  startup_stm32f103xb.o(.text)
    DMA1_Channel3_IRQHandler                 0x080001b3   Thumb Code     0  startup_stm32f103xb.o(.text)
    DMA1_Channel4_IRQHandler                 0x080001b3   Thumb Code     0  startup_stm32f103xb.o(.text)
    DMA1_Channel5_IRQHandler                 0x080001b3   Thumb Code     0  startup_stm32f103xb.o(.text)
    DMA1_Channel6_IRQHandler                 0x080001b3   Thumb Code     0  startup_stm32f103xb.o(.text)
    DMA1_Channel7_IRQHandler                 0x080001b3   Thumb Code     0  startup_stm32f103xb.o(.text)
    EXTI0_IRQHandler                         0x080001b3   Thumb Code     0  startup_stm32f103xb.o(.text)
    EXTI1_IRQHandler                         0x080001b3   Thumb Code     0  startup_stm32f103xb.o(.text)
    EXTI2_IRQHandler                         0x080001b3   Thumb Code     0  startup_stm32f103xb.o(.text)
    EXTI3_IRQHandler                         0x080001b3   Thumb Code     0  startup_stm32f103xb.o(.text)
    EXTI4_IRQHandler                         0x080001b3   Thumb Code     0  startup_stm32f103xb.o(.text)
    EXTI9_5_IRQHandler                       0x080001b3   Thumb Code     0  startup_stm32f103xb.o(.text)
    FLASH_IRQHandler                         0x080001b3   Thumb Code     0  startup_stm32f103xb.o(.text)
    I2C1_ER_IRQHandler                       0x080001b3   Thumb Code     0  startup_stm32f103xb.o(.text)
    I2C1_EV_IRQHandler                       0x080001b3   Thumb Code     0  startup_stm32f103xb.o(.text)
    I2C2_ER_IRQHandler                       0x080001b3   Thumb Code     0  startup_stm32f103xb.o(.text)
    I2C2_EV_IRQHandler                       0x080001b3   Thumb Code     0  startup_stm32f103xb.o(.text)
    PVD_IRQHandler                           0x080001b3   Thumb Code     0  startup_stm32f103xb.o(.text)
    RCC_IRQHandler                           0x080001b3   Thumb Code     0  startup_stm32f103xb.o(.text)
    RTC_Alarm_IRQHandler                     0x080001b3   Thumb Code     0  startup_stm32f103xb.o(.text)
    RTC_IRQHandler                           0x080001b3   Thumb Code     0  startup_stm32f103xb.o(.text)
    SPI1_IRQHandler                          0x080001b3   Thumb Code     0  startup_stm32f103xb.o(.text)
    SPI2_IRQHandler                          0x080001b3   Thumb Code     0  startup_stm32f103xb.o(.text)
    TAMPER_IRQHandler                        0x080001b3   Thumb Code     0  startup_stm32f103xb.o(.text)
    TIM1_BRK_IRQHandler                      0x080001b3   Thumb Code     0  startup_stm32f103xb.o(.text)
    TIM1_CC_IRQHandler                       0x080001b3   Thumb Code     0  startup_stm32f103xb.o(.text)
    TIM1_TRG_COM_IRQHandler                  0x080001b3   Thumb Code     0  startup_stm32f103xb.o(.text)
    TIM1_UP_IRQHandler                       0x080001b3   Thumb Code     0  startup_stm32f103xb.o(.text)
    TIM2_IRQHandler                          0x080001b3   Thumb Code     0  startup_stm32f103xb.o(.text)
    TIM3_IRQHandler                          0x080001b3   Thumb Code     0  startup_stm32f103xb.o(.text)
    USART1_IRQHandler                        0x080001b3   Thumb Code     0  startup_stm32f103xb.o(.text)
    USART2_IRQHandler                        0x080001b3   Thumb Code     0  startup_stm32f103xb.o(.text)
    USART3_IRQHandler                        0x080001b3   Thumb Code     0  startup_stm32f103xb.o(.text)
    USBWakeUp_IRQHandler                     0x080001b3   Thumb Code     0  startup_stm32f103xb.o(.text)
    USB_HP_CAN1_TX_IRQHandler                0x080001b3   Thumb Code     0  startup_stm32f103xb.o(.text)
    USB_LP_CAN1_RX0_IRQHandler               0x080001b3   Thumb Code     0  startup_stm32f103xb.o(.text)
    WWDG_IRQHandler                          0x080001b3   Thumb Code     0  startup_stm32f103xb.o(.text)
    __aeabi_uldivmod                         0x080001bd   Thumb Code    98  uldiv.o(.text)
    __aeabi_llsr                             0x0800021f   Thumb Code    32  llushr.o(.text)
    _ll_ushift_r                             0x0800021f   Thumb Code     0  llushr.o(.text)
    __aeabi_memcpy                           0x0800023f   Thumb Code    36  memcpya.o(.text)
    __aeabi_memcpy4                          0x0800023f   Thumb Code     0  memcpya.o(.text)
    __aeabi_memcpy8                          0x0800023f   Thumb Code     0  memcpya.o(.text)
    __aeabi_memset                           0x08000263   Thumb Code    14  memseta.o(.text)
    __aeabi_memset4                          0x08000263   Thumb Code     0  memseta.o(.text)
    __aeabi_memset8                          0x08000263   Thumb Code     0  memseta.o(.text)
    __aeabi_memclr                           0x08000271   Thumb Code     4  memseta.o(.text)
    __aeabi_memclr4                          0x08000271   Thumb Code     0  memseta.o(.text)
    __aeabi_memclr8                          0x08000271   Thumb Code     0  memseta.o(.text)
    memset                                   0x08000275   Thumb Code    18  memseta.o(.text)
    __aeabi_llsl                             0x08000287   Thumb Code    30  llshl.o(.text)
    _ll_shift_l                              0x08000287   Thumb Code     0  llshl.o(.text)
    __scatterload                            0x080002a5   Thumb Code    28  init.o(.text)
    __scatterload_rt2                        0x080002a5   Thumb Code     0  init.o(.text)
    __decompress                             0x080002c9   Thumb Code     0  __dclz77c.o(.text)
    __decompress2                            0x080002c9   Thumb Code    94  __dclz77c.o(.text)
    ADC_ConversionStop_Disable               0x08000329   Thumb Code    86  stm32f1xx_hal_adc.o(i.ADC_ConversionStop_Disable)
    BusFault_Handler                         0x0800037f   Thumb Code     2  stm32f1xx_it.o(i.BusFault_Handler)
    ColorLED_Set                             0x08000381   Thumb Code   158  driver_color_led.o(i.ColorLED_Set)
    ColorLED_Test                            0x08000425   Thumb Code    32  driver_color_led.o(i.ColorLED_Test)
    DebugMon_Handler                         0x08000449   Thumb Code     2  stm32f1xx_it.o(i.DebugMon_Handler)
    EXTI15_10_IRQHandler                     0x0800044b   Thumb Code    30  stm32f1xx_it.o(i.EXTI15_10_IRQHandler)
    Error_Handler                            0x08000469   Thumb Code     4  main.o(i.Error_Handler)
    HAL_ADC_ConfigChannel                    0x08000499   Thumb Code   240  stm32f1xx_hal_adc.o(i.HAL_ADC_ConfigChannel)
    HAL_ADC_Init                             0x08000595   Thumb Code   272  stm32f1xx_hal_adc.o(i.HAL_ADC_Init)
    HAL_ADC_MspInit                          0x080006b1   Thumb Code    76  adc.o(i.HAL_ADC_MspInit)
    HAL_GPIO_EXTI_Callback                   0x08000709   Thumb Code    22  driver_irq.o(i.HAL_GPIO_EXTI_Callback)
    HAL_GPIO_EXTI_IRQHandler                 0x08000721   Thumb Code    18  stm32f1xx_hal_gpio.o(i.HAL_GPIO_EXTI_IRQHandler)
    HAL_GPIO_Init                            0x08000739   Thumb Code   446  stm32f1xx_hal_gpio.o(i.HAL_GPIO_Init)
    HAL_GPIO_ReadPin                         0x08000919   Thumb Code    10  stm32f1xx_hal_gpio.o(i.HAL_GPIO_ReadPin)
    HAL_GPIO_WritePin                        0x08000923   Thumb Code    10  stm32f1xx_hal_gpio.o(i.HAL_GPIO_WritePin)
    HAL_GetTick                              0x0800092d   Thumb Code     6  stm32f1xx_hal.o(i.HAL_GetTick)
    HAL_I2C_Init                             0x08000939   Thumb Code   376  stm32f1xx_hal_i2c.o(i.HAL_I2C_Init)
    HAL_I2C_Master_Transmit                  0x08000ac1   Thumb Code   290  stm32f1xx_hal_i2c.o(i.HAL_I2C_Master_Transmit)
    HAL_I2C_Mem_Write                        0x08000bed   Thumb Code   294  stm32f1xx_hal_i2c.o(i.HAL_I2C_Mem_Write)
    HAL_I2C_MspInit                          0x08000d1d   Thumb Code    80  i2c.o(i.HAL_I2C_MspInit)
    HAL_IncTick                              0x08000d79   Thumb Code    12  stm32f1xx_hal.o(i.HAL_IncTick)
    HAL_Init                                 0x08000d89   Thumb Code    32  stm32f1xx_hal.o(i.HAL_Init)
    HAL_InitTick                             0x08000dad   Thumb Code   132  stm32f1xx_hal_timebase_tim.o(i.HAL_InitTick)
    HAL_MspInit                              0x08000e45   Thumb Code    62  stm32f1xx_hal_msp.o(i.HAL_MspInit)
    HAL_NVIC_EnableIRQ                       0x08000e8d   Thumb Code    26  stm32f1xx_hal_cortex.o(i.HAL_NVIC_EnableIRQ)
    HAL_NVIC_SetPriority                     0x08000ea9   Thumb Code    60  stm32f1xx_hal_cortex.o(i.HAL_NVIC_SetPriority)
    HAL_NVIC_SetPriorityGrouping             0x08000ee9   Thumb Code    26  stm32f1xx_hal_cortex.o(i.HAL_NVIC_SetPriorityGrouping)
    HAL_PCD_Init                             0x08000f0d   Thumb Code   218  stm32f1xx_hal_pcd.o(i.HAL_PCD_Init)
    HAL_PCD_MspInit                          0x08000fe9   Thumb Code    30  usb.o(i.HAL_PCD_MspInit)
    HAL_RCCEx_PeriphCLKConfig                0x08001011   Thumb Code   224  stm32f1xx_hal_rcc_ex.o(i.HAL_RCCEx_PeriphCLKConfig)
    HAL_RCC_ClockConfig                      0x080010fd   Thumb Code   280  stm32f1xx_hal_rcc.o(i.HAL_RCC_ClockConfig)
    HAL_RCC_GetClockConfig                   0x08001229   Thumb Code    54  stm32f1xx_hal_rcc.o(i.HAL_RCC_GetClockConfig)
    HAL_RCC_GetPCLK1Freq                     0x08001269   Thumb Code    20  stm32f1xx_hal_rcc.o(i.HAL_RCC_GetPCLK1Freq)
    HAL_RCC_GetPCLK2Freq                     0x08001289   Thumb Code    20  stm32f1xx_hal_rcc.o(i.HAL_RCC_GetPCLK2Freq)
    HAL_RCC_GetSysClockFreq                  0x080012a9   Thumb Code    58  stm32f1xx_hal_rcc.o(i.HAL_RCC_GetSysClockFreq)
    HAL_RCC_OscConfig                        0x080012f5   Thumb Code   778  stm32f1xx_hal_rcc.o(i.HAL_RCC_OscConfig)
    HAL_SPI_Init                             0x08001615   Thumb Code   178  stm32f1xx_hal_spi.o(i.HAL_SPI_Init)
    HAL_SPI_MspInit                          0x080016c9   Thumb Code    98  spi.o(i.HAL_SPI_MspInit)
    HAL_TIMEx_BreakCallback                  0x08001739   Thumb Code     2  stm32f1xx_hal_tim_ex.o(i.HAL_TIMEx_BreakCallback)
    HAL_TIMEx_CommutCallback                 0x0800173b   Thumb Code     2  stm32f1xx_hal_tim_ex.o(i.HAL_TIMEx_CommutCallback)
    HAL_TIMEx_ConfigBreakDeadTime            0x0800173d   Thumb Code    84  stm32f1xx_hal_tim_ex.o(i.HAL_TIMEx_ConfigBreakDeadTime)
    HAL_TIMEx_MasterConfigSynchronization    0x08001791   Thumb Code    92  stm32f1xx_hal_tim_ex.o(i.HAL_TIMEx_MasterConfigSynchronization)
    HAL_TIM_Base_DeInit                      0x080017f9   Thumb Code    92  stm32f1xx_hal_tim.o(i.HAL_TIM_Base_DeInit)
    HAL_TIM_Base_Init                        0x08001855   Thumb Code    90  stm32f1xx_hal_tim.o(i.HAL_TIM_Base_Init)
    HAL_TIM_Base_MspDeInit                   0x080018b1   Thumb Code    36  tim.o(i.HAL_TIM_Base_MspDeInit)
    HAL_TIM_Base_MspInit                     0x080018dd   Thumb Code    52  tim.o(i.HAL_TIM_Base_MspInit)
    HAL_TIM_Base_Start_IT                    0x08001919   Thumb Code    76  stm32f1xx_hal_tim.o(i.HAL_TIM_Base_Start_IT)
    HAL_TIM_ConfigClockSource                0x08001971   Thumb Code   220  stm32f1xx_hal_tim.o(i.HAL_TIM_ConfigClockSource)
    HAL_TIM_IC_CaptureCallback               0x08001a4d   Thumb Code     2  stm32f1xx_hal_tim.o(i.HAL_TIM_IC_CaptureCallback)
    HAL_TIM_IRQHandler                       0x08001a4f   Thumb Code   358  stm32f1xx_hal_tim.o(i.HAL_TIM_IRQHandler)
    HAL_TIM_MspPostInit                      0x08001bb5   Thumb Code   212  tim.o(i.HAL_TIM_MspPostInit)
    HAL_TIM_OC_DelayElapsedCallback          0x08001ca1   Thumb Code     2  stm32f1xx_hal_tim.o(i.HAL_TIM_OC_DelayElapsedCallback)
    HAL_TIM_PWM_ConfigChannel                0x08001ca3   Thumb Code   204  stm32f1xx_hal_tim.o(i.HAL_TIM_PWM_ConfigChannel)
    HAL_TIM_PWM_Init                         0x08001d6f   Thumb Code    90  stm32f1xx_hal_tim.o(i.HAL_TIM_PWM_Init)
    HAL_TIM_PWM_MspInit                      0x08001dc9   Thumb Code    30  tim.o(i.HAL_TIM_PWM_MspInit)
    HAL_TIM_PWM_PulseFinishedCallback        0x08001df1   Thumb Code     2  stm32f1xx_hal_tim.o(i.HAL_TIM_PWM_PulseFinishedCallback)
    HAL_TIM_PWM_Start                        0x08001df5   Thumb Code   144  stm32f1xx_hal_tim.o(i.HAL_TIM_PWM_Start)
    HAL_TIM_PWM_Stop                         0x08001e91   Thumb Code   108  stm32f1xx_hal_tim.o(i.HAL_TIM_PWM_Stop)
    HAL_TIM_PeriodElapsedCallback            0x08001f01   Thumb Code    14  main.o(i.HAL_TIM_PeriodElapsedCallback)
    HAL_TIM_TriggerCallback                  0x08001f15   Thumb Code     2  stm32f1xx_hal_tim.o(i.HAL_TIM_TriggerCallback)
    HAL_UART_Init                            0x08001f17   Thumb Code   100  stm32f1xx_hal_uart.o(i.HAL_UART_Init)
    HAL_UART_MspInit                         0x08001f7d   Thumb Code   100  usart.o(i.HAL_UART_MspInit)
    HardFault_Handler                        0x08001fed   Thumb Code     2  stm32f1xx_it.o(i.HardFault_Handler)
    IRReceiver_CodeToString                  0x0800235d   Thumb Code    54  driver_ir_receiver.o(i.IRReceiver_CodeToString)
    IRReceiver_IRQ_Callback                  0x080024d9   Thumb Code   158  driver_ir_receiver.o(i.IRReceiver_IRQ_Callback)
    IRReceiver_Read                          0x08002591   Thumb Code    38  driver_ir_receiver.o(i.IRReceiver_Read)
    IRReceiver_Test                          0x080025bd   Thumb Code   112  driver_ir_receiver.o(i.IRReceiver_Test)
    LCD_Clear                                0x0800266d   Thumb Code     4  driver_lcd.o(i.LCD_Clear)
    LCD_Init                                 0x08002671   Thumb Code     4  driver_lcd.o(i.LCD_Init)
    LCD_PrintHex                             0x08002675   Thumb Code     4  driver_lcd.o(i.LCD_PrintHex)
    LCD_PrintString                          0x08002679   Thumb Code     4  driver_lcd.o(i.LCD_PrintString)
    Led_Control                              0x0800267d   Thumb Code    26  driver_led.o(i.Led_Control)
    Led_Init                                 0x0800269d   Thumb Code    74  driver_led.o(i.Led_Init)
    Led_Test                                 0x080026f1   Thumb Code    38  driver_led.o(i.Led_Test)
    MUSIC_Analysis                           0x08002719   Thumb Code    74  music.o(i.MUSIC_Analysis)
    MX_ADC1_Init                             0x08002769   Thumb Code    70  adc.o(i.MX_ADC1_Init)
    MX_FREERTOS_Init                         0x080027b9   Thumb Code    90  freertos.o(i.MX_FREERTOS_Init)
    MX_GPIO_Init                             0x08002859   Thumb Code   310  gpio.o(i.MX_GPIO_Init)
    MX_I2C1_Init                             0x080029a9   Thumb Code    50  i2c.o(i.MX_I2C1_Init)
    MX_SPI1_Init                             0x080029e9   Thumb Code    62  spi.o(i.MX_SPI1_Init)
    MX_TIM1_Init                             0x08002a31   Thumb Code   198  tim.o(i.MX_TIM1_Init)
    MX_TIM2_Init                             0x08002b01   Thumb Code   182  tim.o(i.MX_TIM2_Init)
    MX_TIM3_Init                             0x08002bbd   Thumb Code   110  tim.o(i.MX_TIM3_Init)
    MX_USART1_UART_Init                      0x08002c35   Thumb Code    48  usart.o(i.MX_USART1_UART_Init)
    MX_USB_PCD_Init                          0x08002c6d   Thumb Code    42  usb.o(i.MX_USB_PCD_Init)
    MemManage_Handler                        0x08002ca1   Thumb Code     2  stm32f1xx_it.o(i.MemManage_Handler)
    NMI_Handler                              0x08002ca3   Thumb Code     2  stm32f1xx_it.o(i.NMI_Handler)
    OLED_Clear                               0x08002ca5   Thumb Code    42  driver_oled.o(i.OLED_Clear)
    OLED_Init                                0x08002cd1   Thumb Code   142  driver_oled.o(i.OLED_Init)
    OLED_PrintHex                            0x08002d65   Thumb Code   116  driver_oled.o(i.OLED_PrintHex)
    OLED_PrintString                         0x08002de9   Thumb Code    50  driver_oled.o(i.OLED_PrintString)
    OLED_PutChar                             0x08002e1d   Thumb Code    66  driver_oled.o(i.OLED_PutChar)
    OLED_SetPosition                         0x08002e91   Thumb Code    58  driver_oled.o(i.OLED_SetPosition)
    PassiveBuzzer_Init                       0x08002f19   Thumb Code    92  driver_passive_buzzer.o(i.PassiveBuzzer_Init)
    PassiveBuzzer_Set_Freq_Duty              0x08002f81   Thumb Code   122  driver_passive_buzzer.o(i.PassiveBuzzer_Set_Freq_Duty)
    PlayMusic                                0x08003009   Thumb Code    10  music.o(i.PlayMusic)
    RotaryEncoder_IRQ_Callback               0x08003041   Thumb Code    96  driver_rotary_encoder.o(i.RotaryEncoder_IRQ_Callback)
    StartDefaultTask                         0x080030ad   Thumb Code    14  freertos.o(i.StartDefaultTask)
    SysTick_Handler                          0x080030bd   Thumb Code    38  port.o(i.SysTick_Handler)
    SystemClock_Config                       0x080030e9   Thumb Code   124  main.o(i.SystemClock_Config)
    SystemInit                               0x08003165   Thumb Code     2  system_stm32f1xx.o(i.SystemInit)
    TIM4_IRQHandler                          0x08003169   Thumb Code     6  stm32f1xx_it.o(i.TIM4_IRQHandler)
    TIM_Base_SetConfig                       0x08003175   Thumb Code    94  stm32f1xx_hal_tim.o(i.TIM_Base_SetConfig)
    TIM_CCxChannelCmd                        0x080031e1   Thumb Code    26  stm32f1xx_hal_tim.o(i.TIM_CCxChannelCmd)
    TIM_ETR_SetConfig                        0x080031fb   Thumb Code    20  stm32f1xx_hal_tim.o(i.TIM_ETR_SetConfig)
    TIM_OC2_SetConfig                        0x08003271   Thumb Code    84  stm32f1xx_hal_tim.o(i.TIM_OC2_SetConfig)
    USB_CoreInit                             0x08003465   Thumb Code     4  stm32f1xx_ll_usb.o(i.USB_CoreInit)
    USB_DevDisconnect                        0x08003469   Thumb Code     4  stm32f1xx_ll_usb.o(i.USB_DevDisconnect)
    USB_DevInit                              0x0800346d   Thumb Code    18  stm32f1xx_ll_usb.o(i.USB_DevInit)
    USB_DisableGlobalInt                     0x0800347f   Thumb Code    14  stm32f1xx_ll_usb.o(i.USB_DisableGlobalInt)
    USB_SetCurrentMode                       0x0800348d   Thumb Code     4  stm32f1xx_ll_usb.o(i.USB_SetCurrentMode)
    UsageFault_Handler                       0x08003491   Thumb Code     2  stm32f1xx_it.o(i.UsageFault_Handler)
    __scatterload_copy                       0x080034b3   Thumb Code    14  handlers.o(i.__scatterload_copy)
    __scatterload_null                       0x080034c1   Thumb Code     2  handlers.o(i.__scatterload_null)
    __scatterload_zeroinit                   0x080034c3   Thumb Code    14  handlers.o(i.__scatterload_zeroinit)
    main                                     0x080034d1   Thumb Code    58  main.o(i.main)
    mdelay                                   0x0800350b   Thumb Code    26  driver_timer.o(i.mdelay)
    osKernelInitialize                       0x08003525   Thumb Code    50  cmsis_os2.o(i.osKernelInitialize)
    osKernelStart                            0x0800355d   Thumb Code    58  cmsis_os2.o(i.osKernelStart)
    osThreadNew                              0x0800359d   Thumb Code   160  cmsis_os2.o(i.osThreadNew)
    pvPortMalloc                             0x08003d85   Thumb Code   210  heap_4.o(i.pvPortMalloc)
    pxPortInitialiseStack                    0x08003e5d   Thumb Code    32  port.o(i.pxPortInitialiseStack)
    system_get_ns                            0x08003e81   Thumb Code    58  driver_timer.o(i.system_get_ns)
    udelay                                   0x08003ec5   Thumb Code    52  driver_timer.o(i.udelay)
    uxListRemove                             0x08003efd   Thumb Code    38  list.o(i.uxListRemove)
    vApplicationGetIdleTaskMemory            0x08003f25   Thumb Code    16  cmsis_os2.o(i.vApplicationGetIdleTaskMemory)
    vApplicationGetTimerTaskMemory           0x08003f39   Thumb Code    18  cmsis_os2.o(i.vApplicationGetTimerTaskMemory)
    vListInitialise                          0x08003f51   Thumb Code    22  list.o(i.vListInitialise)
    vListInitialiseItem                      0x08003f67   Thumb Code     6  list.o(i.vListInitialiseItem)
    vListInsert                              0x08003f6d   Thumb Code    48  list.o(i.vListInsert)
    vListInsertEnd                           0x08003f9d   Thumb Code    24  list.o(i.vListInsertEnd)
    vPortEnterCritical                       0x08003fb5   Thumb Code    54  port.o(i.vPortEnterCritical)
    vPortExitCritical                        0x08003ff5   Thumb Code    34  port.o(i.vPortExitCritical)
    vPortFree                                0x0800401d   Thumb Code    88  heap_4.o(i.vPortFree)
    vPortSetupTimerInterrupt                 0x08004079   Thumb Code    32  port.o(i.vPortSetupTimerInterrupt)
    vPortValidateInterruptPriority           0x0800409d   Thumb Code    74  port.o(i.vPortValidateInterruptPriority)
    vQueueAddToRegistry                      0x080040f1   Thumb Code    34  queue.o(i.vQueueAddToRegistry)
    vQueueWaitForMessageRestricted           0x08004119   Thumb Code    68  queue.o(i.vQueueWaitForMessageRestricted)
    vTaskInternalSetTimeOutState             0x0800415d   Thumb Code    12  tasks.o(i.vTaskInternalSetTimeOutState)
    vTaskMissedYield                         0x0800416d   Thumb Code     8  tasks.o(i.vTaskMissedYield)
    vTaskPlaceOnEventList                    0x08004179   Thumb Code    44  tasks.o(i.vTaskPlaceOnEventList)
    vTaskPlaceOnEventListRestricted          0x080041a9   Thumb Code    52  tasks.o(i.vTaskPlaceOnEventListRestricted)
    vTaskStartScheduler                      0x080041e1   Thumb Code   118  tasks.o(i.vTaskStartScheduler)
    vTaskSuspendAll                          0x08004269   Thumb Code    10  tasks.o(i.vTaskSuspendAll)
    vTaskSwitchContext                       0x08004279   Thumb Code    90  tasks.o(i.vTaskSwitchContext)
    xPortStartScheduler                      0x080042dd   Thumb Code   154  port.o(i.xPortStartScheduler)
    xQueueGenericCreateStatic                0x08004385   Thumb Code   102  queue.o(i.xQueueGenericCreateStatic)
    xQueueGenericReset                       0x080043ed   Thumb Code   132  queue.o(i.xQueueGenericReset)
    xQueueGenericSend                        0x08004475   Thumb Code   346  queue.o(i.xQueueGenericSend)
    xQueueGenericSendFromISR                 0x080045d5   Thumb Code   188  queue.o(i.xQueueGenericSendFromISR)
    xQueueReceive                            0x08004691   Thumb Code   308  queue.o(i.xQueueReceive)
    xTaskCheckForTimeOut                     0x080047c9   Thumb Code   112  tasks.o(i.xTaskCheckForTimeOut)
    xTaskCreate                              0x0800483d   Thumb Code    90  tasks.o(i.xTaskCreate)
    xTaskCreateStatic                        0x08004897   Thumb Code    86  tasks.o(i.xTaskCreateStatic)
    xTaskGetSchedulerState                   0x080048ed   Thumb Code    22  tasks.o(i.xTaskGetSchedulerState)
    xTaskGetTickCount                        0x08004909   Thumb Code     6  tasks.o(i.xTaskGetTickCount)
    xTaskIncrementTick                       0x08004915   Thumb Code   190  tasks.o(i.xTaskIncrementTick)
    xTaskPriorityDisinherit                  0x080049dd   Thumb Code   118  tasks.o(i.xTaskPriorityDisinherit)
    xTaskRemoveFromEventList                 0x08004a5d   Thumb Code    98  tasks.o(i.xTaskRemoveFromEventList)
    xTaskResumeAll                           0x08004acd   Thumb Code   182  tasks.o(i.xTaskResumeAll)
    xTimerCreateTimerTask                    0x08004b91   Thumb Code    78  timers.o(i.xTimerCreateTimerTask)
    xTimerGenericCommand                     0x08004bf1   Thumb Code    98  timers.o(i.xTimerGenericCommand)
    defaultTask_attributes                   0x08004c58   Data          36  freertos.o(.constdata)
    AHBPrescTable                            0x08004c8e   Data          16  system_stm32f1xx.o(.constdata)
    APBPrescTable                            0x08004c9e   Data           8  system_stm32f1xx.o(.constdata)
    ascii_font                               0x08004ca6   Data        2048  driver_oled.o(.constdata)
    Region$$Table$$Base                      0x0800557c   Number         0  anon$$obj.o(Region$$Table)
    Region$$Table$$Limit                     0x0800559c   Number         0  anon$$obj.o(Region$$Table)
    defaultTaskHandle                        0x20000008   Data           4  freertos.o(.data)
    Tone_Index                               0x2000000c   Data          48  music.o(.data)
    Music_Lone_Brave                         0x2000003c   Data        3942  music.o(.data)
    uwTickFreq                               0x20000fa4   Data           1  stm32f1xx_hal.o(.data)
    uwTickPrio                               0x20000fa8   Data           4  stm32f1xx_hal.o(.data)
    uwTick                                   0x20000fac   Data           4  stm32f1xx_hal.o(.data)
    SystemCoreClock                          0x20000fb0   Data           4  system_stm32f1xx.o(.data)
    pxCurrentTCB                             0x20000fb4   Data           4  tasks.o(.data)
    hadc1                                    0x20001528   Data          48  adc.o(.bss)
    hi2c1                                    0x20001558   Data          84  i2c.o(.bss)
    hspi1                                    0x200015ac   Data          88  spi.o(.bss)
    htim1                                    0x20001604   Data          72  tim.o(.bss)
    htim2                                    0x2000164c   Data          72  tim.o(.bss)
    htim3                                    0x20001694   Data          72  tim.o(.bss)
    huart1                                   0x200016dc   Data          72  usart.o(.bss)
    hpcd_USB_FS                              0x20001724   Data         752  usb.o(.bss)
    htim4                                    0x20001a14   Data          72  stm32f1xx_hal_timebase_tim.o(.bss)
    xQueueRegistry                           0x20001a5c   Data          64  queue.o(.bss)
    __initial_sp                             0x200039d0   Data           0  startup_stm32f103xb.o(STACK)



==============================================================================

Memory Map of the image

  Image Entry point : 0x080000ed

  Load Region LR_IROM1 (Base: 0x08000000, Size: 0x0000660c, Max: 0x00010000, ABSOLUTE, COMPRESSED[0x00005770])

    Execution Region ER_IROM1 (Exec base: 0x08000000, Load base: 0x08000000, Size: 0x0000559c, Max: 0x00010000, ABSOLUTE)

    Exec Addr    Load Addr    Size         Type   Attr      Idx    E Section Name        Object

    0x08000000   0x08000000   0x000000ec   Data   RO            3    RESET               startup_stm32f103xb.o
    0x080000ec   0x080000ec   0x00000000   Code   RO         7362  * .ARM.Collect$$$$00000000  mc_w.l(entry.o)
    0x080000ec   0x080000ec   0x00000004   Code   RO         7646    .ARM.Collect$$$$00000001  mc_w.l(entry2.o)
    0x080000f0   0x080000f0   0x00000004   Code   RO         7649    .ARM.Collect$$$$00000004  mc_w.l(entry5.o)
    0x080000f4   0x080000f4   0x00000000   Code   RO         7651    .ARM.Collect$$$$00000008  mc_w.l(entry7b.o)
    0x080000f4   0x080000f4   0x00000000   Code   RO         7653    .ARM.Collect$$$$0000000A  mc_w.l(entry8b.o)
    0x080000f4   0x080000f4   0x00000008   Code   RO         7654    .ARM.Collect$$$$0000000B  mc_w.l(entry9a.o)
    0x080000fc   0x080000fc   0x00000000   Code   RO         7656    .ARM.Collect$$$$0000000D  mc_w.l(entry10a.o)
    0x080000fc   0x080000fc   0x00000000   Code   RO         7658    .ARM.Collect$$$$0000000F  mc_w.l(entry11a.o)
    0x080000fc   0x080000fc   0x00000004   Code   RO         7647    .ARM.Collect$$$$00002712  mc_w.l(entry2.o)
    0x08000100   0x08000100   0x00000096   Code   RO         6212    .emb_text           port.o
    0x08000196   0x08000196   0x00000002   PAD
    0x08000198   0x08000198   0x00000024   Code   RO            4    .text               startup_stm32f103xb.o
    0x080001bc   0x080001bc   0x00000062   Code   RO         7365    .text               mc_w.l(uldiv.o)
    0x0800021e   0x0800021e   0x00000020   Code   RO         7367    .text               mc_w.l(llushr.o)
    0x0800023e   0x0800023e   0x00000024   Code   RO         7369    .text               mc_w.l(memcpya.o)
    0x08000262   0x08000262   0x00000024   Code   RO         7373    .text               mc_w.l(memseta.o)
    0x08000286   0x08000286   0x0000001e   Code   RO         7663    .text               mc_w.l(llshl.o)
    0x080002a4   0x080002a4   0x00000024   Code   RO         7676    .text               mc_w.l(init.o)
    0x080002c8   0x080002c8   0x0000005e   Code   RO         7686    .text               mc_w.l(__dclz77c.o)
    0x08000326   0x08000326   0x00000002   PAD
    0x08000328   0x08000328   0x00000056   Code   RO          822    i.ADC_ConversionStop_Disable  stm32f1xx_hal_adc.o
    0x0800037e   0x0800037e   0x00000002   Code   RO          631    i.BusFault_Handler  stm32f1xx_it.o
    0x08000380   0x08000380   0x000000a4   Code   RO         6810    i.ColorLED_Set      driver_color_led.o
    0x08000424   0x08000424   0x00000024   Code   RO         6811    i.ColorLED_Test     driver_color_led.o
    0x08000448   0x08000448   0x00000002   Code   RO          632    i.DebugMon_Handler  stm32f1xx_it.o
    0x0800044a   0x0800044a   0x0000001e   Code   RO          633    i.EXTI15_10_IRQHandler  stm32f1xx_it.o
    0x08000468   0x08000468   0x00000004   Code   RO           13    i.Error_Handler     main.o
    0x0800046c   0x0800046c   0x0000002c   Code   RO         6850    i.GetKeyFromBuf     driver_ir_receiver.o
    0x08000498   0x08000498   0x000000fc   Code   RO          828    i.HAL_ADC_ConfigChannel  stm32f1xx_hal_adc.o
    0x08000594   0x08000594   0x0000011c   Code   RO          837    i.HAL_ADC_Init      stm32f1xx_hal_adc.o
    0x080006b0   0x080006b0   0x00000058   Code   RO          350    i.HAL_ADC_MspInit   adc.o
    0x08000708   0x08000708   0x00000016   Code   RO         7206    i.HAL_GPIO_EXTI_Callback  driver_irq.o
    0x0800071e   0x0800071e   0x00000002   PAD
    0x08000720   0x08000720   0x00000018   Code   RO         1414    i.HAL_GPIO_EXTI_IRQHandler  stm32f1xx_hal_gpio.o
    0x08000738   0x08000738   0x000001e0   Code   RO         1415    i.HAL_GPIO_Init     stm32f1xx_hal_gpio.o
    0x08000918   0x08000918   0x0000000a   Code   RO         1417    i.HAL_GPIO_ReadPin  stm32f1xx_hal_gpio.o
    0x08000922   0x08000922   0x0000000a   Code   RO         1419    i.HAL_GPIO_WritePin  stm32f1xx_hal_gpio.o
    0x0800092c   0x0800092c   0x0000000c   Code   RO         1109    i.HAL_GetTick       stm32f1xx_hal.o
    0x08000938   0x08000938   0x00000188   Code   RO         2086    i.HAL_I2C_Init      stm32f1xx_hal_i2c.o
    0x08000ac0   0x08000ac0   0x0000012c   Code   RO         2099    i.HAL_I2C_Master_Transmit  stm32f1xx_hal_i2c.o
    0x08000bec   0x08000bec   0x00000130   Code   RO         2107    i.HAL_I2C_Mem_Write  stm32f1xx_hal_i2c.o
    0x08000d1c   0x08000d1c   0x0000005c   Code   RO          392    i.HAL_I2C_MspInit   i2c.o
    0x08000d78   0x08000d78   0x00000010   Code   RO         1115    i.HAL_IncTick       stm32f1xx_hal.o
    0x08000d88   0x08000d88   0x00000024   Code   RO         1116    i.HAL_Init          stm32f1xx_hal.o
    0x08000dac   0x08000dac   0x00000098   Code   RO          725    i.HAL_InitTick      stm32f1xx_hal_timebase_tim.o
    0x08000e44   0x08000e44   0x00000048   Code   RO          701    i.HAL_MspInit       stm32f1xx_hal_msp.o
    0x08000e8c   0x08000e8c   0x0000001a   Code   RO         1575    i.HAL_NVIC_EnableIRQ  stm32f1xx_hal_cortex.o
    0x08000ea6   0x08000ea6   0x00000002   PAD
    0x08000ea8   0x08000ea8   0x00000040   Code   RO         1581    i.HAL_NVIC_SetPriority  stm32f1xx_hal_cortex.o
    0x08000ee8   0x08000ee8   0x00000024   Code   RO         1582    i.HAL_NVIC_SetPriorityGrouping  stm32f1xx_hal_cortex.o
    0x08000f0c   0x08000f0c   0x000000da   Code   RO         4194    i.HAL_PCD_Init      stm32f1xx_hal_pcd.o
    0x08000fe6   0x08000fe6   0x00000002   PAD
    0x08000fe8   0x08000fe8   0x00000028   Code   RO          590    i.HAL_PCD_MspInit   usb.o
    0x08001010   0x08001010   0x000000ec   Code   RO         1377    i.HAL_RCCEx_PeriphCLKConfig  stm32f1xx_hal_rcc_ex.o
    0x080010fc   0x080010fc   0x0000012c   Code   RO         1273    i.HAL_RCC_ClockConfig  stm32f1xx_hal_rcc.o
    0x08001228   0x08001228   0x00000040   Code   RO         1277    i.HAL_RCC_GetClockConfig  stm32f1xx_hal_rcc.o
    0x08001268   0x08001268   0x00000020   Code   RO         1280    i.HAL_RCC_GetPCLK1Freq  stm32f1xx_hal_rcc.o
    0x08001288   0x08001288   0x00000020   Code   RO         1281    i.HAL_RCC_GetPCLK2Freq  stm32f1xx_hal_rcc.o
    0x080012a8   0x080012a8   0x0000004c   Code   RO         1282    i.HAL_RCC_GetSysClockFreq  stm32f1xx_hal_rcc.o
    0x080012f4   0x080012f4   0x00000320   Code   RO         1285    i.HAL_RCC_OscConfig  stm32f1xx_hal_rcc.o
    0x08001614   0x08001614   0x000000b2   Code   RO         2523    i.HAL_SPI_Init      stm32f1xx_hal_spi.o
    0x080016c6   0x080016c6   0x00000002   PAD
    0x080016c8   0x080016c8   0x00000070   Code   RO          434    i.HAL_SPI_MspInit   spi.o
    0x08001738   0x08001738   0x00000002   Code   RO         3540    i.HAL_TIMEx_BreakCallback  stm32f1xx_hal_tim_ex.o
    0x0800173a   0x0800173a   0x00000002   Code   RO         3541    i.HAL_TIMEx_CommutCallback  stm32f1xx_hal_tim_ex.o
    0x0800173c   0x0800173c   0x00000054   Code   RO         3543    i.HAL_TIMEx_ConfigBreakDeadTime  stm32f1xx_hal_tim_ex.o
    0x08001790   0x08001790   0x00000068   Code   RO         3559    i.HAL_TIMEx_MasterConfigSynchronization  stm32f1xx_hal_tim_ex.o
    0x080017f8   0x080017f8   0x0000005c   Code   RO         2834    i.HAL_TIM_Base_DeInit  stm32f1xx_hal_tim.o
    0x08001854   0x08001854   0x0000005a   Code   RO         2836    i.HAL_TIM_Base_Init  stm32f1xx_hal_tim.o
    0x080018ae   0x080018ae   0x00000002   PAD
    0x080018b0   0x080018b0   0x0000002c   Code   RO          475    i.HAL_TIM_Base_MspDeInit  tim.o
    0x080018dc   0x080018dc   0x0000003c   Code   RO          476    i.HAL_TIM_Base_MspInit  tim.o
    0x08001918   0x08001918   0x00000058   Code   RO         2841    i.HAL_TIM_Base_Start_IT  stm32f1xx_hal_tim.o
    0x08001970   0x08001970   0x000000dc   Code   RO         2845    i.HAL_TIM_ConfigClockSource  stm32f1xx_hal_tim.o
    0x08001a4c   0x08001a4c   0x00000002   Code   RO         2870    i.HAL_TIM_IC_CaptureCallback  stm32f1xx_hal_tim.o
    0x08001a4e   0x08001a4e   0x00000166   Code   RO         2884    i.HAL_TIM_IRQHandler  stm32f1xx_hal_tim.o
    0x08001bb4   0x08001bb4   0x000000ec   Code   RO          477    i.HAL_TIM_MspPostInit  tim.o
    0x08001ca0   0x08001ca0   0x00000002   Code   RO         2887    i.HAL_TIM_OC_DelayElapsedCallback  stm32f1xx_hal_tim.o
    0x08001ca2   0x08001ca2   0x000000cc   Code   RO         2908    i.HAL_TIM_PWM_ConfigChannel  stm32f1xx_hal_tim.o
    0x08001d6e   0x08001d6e   0x0000005a   Code   RO         2911    i.HAL_TIM_PWM_Init  stm32f1xx_hal_tim.o
    0x08001dc8   0x08001dc8   0x00000028   Code   RO          479    i.HAL_TIM_PWM_MspInit  tim.o
    0x08001df0   0x08001df0   0x00000002   Code   RO         2914    i.HAL_TIM_PWM_PulseFinishedCallback  stm32f1xx_hal_tim.o
    0x08001df2   0x08001df2   0x00000002   PAD
    0x08001df4   0x08001df4   0x0000009c   Code   RO         2916    i.HAL_TIM_PWM_Start  stm32f1xx_hal_tim.o
    0x08001e90   0x08001e90   0x00000070   Code   RO         2919    i.HAL_TIM_PWM_Stop  stm32f1xx_hal_tim.o
    0x08001f00   0x08001f00   0x00000014   Code   RO           14    i.HAL_TIM_PeriodElapsedCallback  main.o
    0x08001f14   0x08001f14   0x00000002   Code   RO         2927    i.HAL_TIM_TriggerCallback  stm32f1xx_hal_tim.o
    0x08001f16   0x08001f16   0x00000064   Code   RO         3837    i.HAL_UART_Init     stm32f1xx_hal_uart.o
    0x08001f7a   0x08001f7a   0x00000002   PAD
    0x08001f7c   0x08001f7c   0x00000070   Code   RO          548    i.HAL_UART_MspInit  usart.o
    0x08001fec   0x08001fec   0x00000002   Code   RO          634    i.HardFault_Handler  stm32f1xx_it.o
    0x08001fee   0x08001fee   0x0000002e   Code   RO         2129    i.I2C_IsAcknowledgeFailed  stm32f1xx_hal_i2c.o
    0x0800201c   0x0800201c   0x0000009c   Code   RO         2133    i.I2C_MasterRequestWrite  stm32f1xx_hal_i2c.o
    0x080020b8   0x080020b8   0x000000a8   Code   RO         2140    i.I2C_RequestMemoryWrite  stm32f1xx_hal_i2c.o
    0x08002160   0x08002160   0x00000056   Code   RO         2144    i.I2C_WaitOnBTFFlagUntilTimeout  stm32f1xx_hal_i2c.o
    0x080021b6   0x080021b6   0x00000002   PAD
    0x080021b8   0x080021b8   0x00000090   Code   RO         2145    i.I2C_WaitOnFlagUntilTimeout  stm32f1xx_hal_i2c.o
    0x08002248   0x08002248   0x000000bc   Code   RO         2146    i.I2C_WaitOnMasterAddressFlagUntilTimeout  stm32f1xx_hal_i2c.o
    0x08002304   0x08002304   0x00000056   Code   RO         2148    i.I2C_WaitOnTXEFlagUntilTimeout  stm32f1xx_hal_i2c.o
    0x0800235a   0x0800235a   0x00000002   PAD
    0x0800235c   0x0800235c   0x0000005c   Code   RO         6851    i.IRReceiver_CodeToString  driver_ir_receiver.o
    0x080023b8   0x080023b8   0x00000120   Code   RO         6852    i.IRReceiver_IRQTimes_Parse  driver_ir_receiver.o
    0x080024d8   0x080024d8   0x000000b8   Code   RO         6853    i.IRReceiver_IRQ_Callback  driver_ir_receiver.o
    0x08002590   0x08002590   0x0000002c   Code   RO         6855    i.IRReceiver_Read   driver_ir_receiver.o
    0x080025bc   0x080025bc   0x000000b0   Code   RO         6856    i.IRReceiver_Test   driver_ir_receiver.o
    0x0800266c   0x0800266c   0x00000004   Code   RO         6605    i.LCD_Clear         driver_lcd.o
    0x08002670   0x08002670   0x00000004   Code   RO         6607    i.LCD_Init          driver_lcd.o
    0x08002674   0x08002674   0x00000004   Code   RO         6608    i.LCD_PrintHex      driver_lcd.o
    0x08002678   0x08002678   0x00000004   Code   RO         6610    i.LCD_PrintString   driver_lcd.o
    0x0800267c   0x0800267c   0x00000020   Code   RO         6292    i.Led_Control       driver_led.o
    0x0800269c   0x0800269c   0x00000054   Code   RO         6293    i.Led_Init          driver_led.o
    0x080026f0   0x080026f0   0x00000026   Code   RO         6294    i.Led_Test          driver_led.o
    0x08002716   0x08002716   0x00000002   PAD
    0x08002718   0x08002718   0x00000050   Code   RO          761    i.MUSIC_Analysis    music.o
    0x08002768   0x08002768   0x00000050   Code   RO          351    i.MX_ADC1_Init      adc.o
    0x080027b8   0x080027b8   0x000000a0   Code   RO          242    i.MX_FREERTOS_Init  freertos.o
    0x08002858   0x08002858   0x00000150   Code   RO          218    i.MX_GPIO_Init      gpio.o
    0x080029a8   0x080029a8   0x00000040   Code   RO          393    i.MX_I2C1_Init      i2c.o
    0x080029e8   0x080029e8   0x00000048   Code   RO          435    i.MX_SPI1_Init      spi.o
    0x08002a30   0x08002a30   0x000000d0   Code   RO          480    i.MX_TIM1_Init      tim.o
    0x08002b00   0x08002b00   0x000000bc   Code   RO          481    i.MX_TIM2_Init      tim.o
    0x08002bbc   0x08002bbc   0x00000078   Code   RO          482    i.MX_TIM3_Init      tim.o
    0x08002c34   0x08002c34   0x00000038   Code   RO          549    i.MX_USART1_UART_Init  usart.o
    0x08002c6c   0x08002c6c   0x00000034   Code   RO          591    i.MX_USB_PCD_Init   usb.o
    0x08002ca0   0x08002ca0   0x00000002   Code   RO          635    i.MemManage_Handler  stm32f1xx_it.o
    0x08002ca2   0x08002ca2   0x00000002   Code   RO          636    i.NMI_Handler       stm32f1xx_it.o
    0x08002ca4   0x08002ca4   0x0000002a   Code   RO         6334    i.OLED_Clear        driver_oled.o
    0x08002cce   0x08002cce   0x00000002   PAD
    0x08002cd0   0x08002cd0   0x00000094   Code   RO         6336    i.OLED_Init         driver_oled.o
    0x08002d64   0x08002d64   0x00000084   Code   RO         6337    i.OLED_PrintHex     driver_oled.o
    0x08002de8   0x08002de8   0x00000032   Code   RO         6339    i.OLED_PrintString  driver_oled.o
    0x08002e1a   0x08002e1a   0x00000002   PAD
    0x08002e1c   0x08002e1c   0x00000048   Code   RO         6340    i.OLED_PutChar      driver_oled.o
    0x08002e64   0x08002e64   0x0000002c   Code   RO         6341    i.OLED_SetComConfig  driver_oled.o
    0x08002e90   0x08002e90   0x00000040   Code   RO         6342    i.OLED_SetPosition  driver_oled.o
    0x08002ed0   0x08002ed0   0x00000028   Code   RO         6344    i.OLED_WriteCmd     driver_oled.o
    0x08002ef8   0x08002ef8   0x00000020   Code   RO         6345    i.OLED_WriteNBytes  driver_oled.o
    0x08002f18   0x08002f18   0x00000068   Code   RO         6763    i.PassiveBuzzer_Init  driver_passive_buzzer.o
    0x08002f80   0x08002f80   0x00000088   Code   RO         6764    i.PassiveBuzzer_Set_Freq_Duty  driver_passive_buzzer.o
    0x08003008   0x08003008   0x0000000a   Code   RO          762    i.PlayMusic         music.o
    0x08003012   0x08003012   0x00000002   PAD
    0x08003014   0x08003014   0x0000002c   Code   RO         6857    i.PutKeyToBuf       driver_ir_receiver.o
    0x08003040   0x08003040   0x0000006c   Code   RO         7159    i.RotaryEncoder_IRQ_Callback  driver_rotary_encoder.o
    0x080030ac   0x080030ac   0x0000000e   Code   RO          243    i.StartDefaultTask  freertos.o
    0x080030ba   0x080030ba   0x00000002   PAD
    0x080030bc   0x080030bc   0x0000002c   Code   RO         6213    i.SysTick_Handler   port.o
    0x080030e8   0x080030e8   0x0000007c   Code   RO           15    i.SystemClock_Config  main.o
    0x08003164   0x08003164   0x00000002   Code   RO         4636    i.SystemInit        system_stm32f1xx.o
    0x08003166   0x08003166   0x00000002   PAD
    0x08003168   0x08003168   0x0000000c   Code   RO          637    i.TIM4_IRQHandler   stm32f1xx_it.o
    0x08003174   0x08003174   0x0000006c   Code   RO         2929    i.TIM_Base_SetConfig  stm32f1xx_hal_tim.o
    0x080031e0   0x080031e0   0x0000001a   Code   RO         2930    i.TIM_CCxChannelCmd  stm32f1xx_hal_tim.o
    0x080031fa   0x080031fa   0x00000014   Code   RO         2940    i.TIM_ETR_SetConfig  stm32f1xx_hal_tim.o
    0x0800320e   0x0800320e   0x00000010   Code   RO         2941    i.TIM_ITRx_SetConfig  stm32f1xx_hal_tim.o
    0x0800321e   0x0800321e   0x00000002   PAD
    0x08003220   0x08003220   0x00000050   Code   RO         2942    i.TIM_OC1_SetConfig  stm32f1xx_hal_tim.o
    0x08003270   0x08003270   0x00000058   Code   RO         2943    i.TIM_OC2_SetConfig  stm32f1xx_hal_tim.o
    0x080032c8   0x080032c8   0x00000058   Code   RO         2944    i.TIM_OC3_SetConfig  stm32f1xx_hal_tim.o
    0x08003320   0x08003320   0x00000044   Code   RO         2945    i.TIM_OC4_SetConfig  stm32f1xx_hal_tim.o
    0x08003364   0x08003364   0x00000022   Code   RO         2947    i.TIM_TI1_ConfigInputStage  stm32f1xx_hal_tim.o
    0x08003386   0x08003386   0x00000024   Code   RO         2949    i.TIM_TI2_ConfigInputStage  stm32f1xx_hal_tim.o
    0x080033aa   0x080033aa   0x00000002   PAD
    0x080033ac   0x080033ac   0x000000b8   Code   RO         3863    i.UART_SetConfig    stm32f1xx_hal_uart.o
    0x08003464   0x08003464   0x00000004   Code   RO         4452    i.USB_CoreInit      stm32f1xx_ll_usb.o
    0x08003468   0x08003468   0x00000004   Code   RO         4456    i.USB_DevDisconnect  stm32f1xx_ll_usb.o
    0x0800346c   0x0800346c   0x00000012   Code   RO         4457    i.USB_DevInit       stm32f1xx_ll_usb.o
    0x0800347e   0x0800347e   0x0000000e   Code   RO         4458    i.USB_DisableGlobalInt  stm32f1xx_ll_usb.o
    0x0800348c   0x0800348c   0x00000004   Code   RO         4473    i.USB_SetCurrentMode  stm32f1xx_ll_usb.o
    0x08003490   0x08003490   0x00000002   Code   RO          638    i.UsageFault_Handler  stm32f1xx_it.o
    0x08003492   0x08003492   0x00000020   Code   RO         1588    i.__NVIC_SetPriority  stm32f1xx_hal_cortex.o
    0x080034b2   0x080034b2   0x0000000e   Code   RO         7680    i.__scatterload_copy  mc_w.l(handlers.o)
    0x080034c0   0x080034c0   0x00000002   Code   RO         7681    i.__scatterload_null  mc_w.l(handlers.o)
    0x080034c2   0x080034c2   0x0000000e   Code   RO         7682    i.__scatterload_zeroinit  mc_w.l(handlers.o)
    0x080034d0   0x080034d0   0x0000003a   Code   RO           16    i.main              main.o
    0x0800350a   0x0800350a   0x0000001a   Code   RO         6491    i.mdelay            driver_timer.o
    0x08003524   0x08003524   0x00000038   Code   RO         5756    i.osKernelInitialize  cmsis_os2.o
    0x0800355c   0x0800355c   0x00000040   Code   RO         5759    i.osKernelStart     cmsis_os2.o
    0x0800359c   0x0800359c   0x000000a4   Code   RO         5793    i.osThreadNew       cmsis_os2.o
    0x08003640   0x08003640   0x0000005c   Code   RO         5238    i.prvAddCurrentTaskToDelayedList  tasks.o
    0x0800369c   0x0800369c   0x000000d0   Code   RO         5239    i.prvAddNewTaskToReadyList  tasks.o
    0x0800376c   0x0800376c   0x00000058   Code   RO         5588    i.prvCheckForValidListAndQueue  timers.o
    0x080037c4   0x080037c4   0x00000026   Code   RO         4841    i.prvCopyDataFromQueue  queue.o
    0x080037ea   0x080037ea   0x0000006c   Code   RO         4842    i.prvCopyDataToQueue  queue.o
    0x08003856   0x08003856   0x00000034   Code   RO         5240    i.prvDeleteTCB      tasks.o
    0x0800388a   0x0800388a   0x00000002   PAD
    0x0800388c   0x0800388c   0x0000004c   Code   RO         6163    i.prvHeapInit       heap_4.o
    0x080038d8   0x080038d8   0x00000060   Code   RO         5241    i.prvIdleTask       tasks.o
    0x08003938   0x08003938   0x00000022   Code   RO         4844    i.prvInitialiseNewQueue  queue.o
    0x0800395a   0x0800395a   0x0000009c   Code   RO         5242    i.prvInitialiseNewTask  tasks.o
    0x080039f6   0x080039f6   0x00000002   PAD
    0x080039f8   0x080039f8   0x0000004c   Code   RO         6164    i.prvInsertBlockIntoFreeList  heap_4.o
    0x08003a44   0x08003a44   0x00000038   Code   RO         5590    i.prvInsertTimerInActiveList  timers.o
    0x08003a7c   0x08003a7c   0x0000001c   Code   RO         4845    i.prvIsQueueEmpty   queue.o
    0x08003a98   0x08003a98   0x000000cc   Code   RO         5591    i.prvProcessReceivedCommands  timers.o
    0x08003b64   0x08003b64   0x000000b4   Code   RO         5592    i.prvProcessTimerOrBlockTask  timers.o
    0x08003c18   0x08003c18   0x00000020   Code   RO         5244    i.prvResetNextTaskUnblockTime  tasks.o
    0x08003c38   0x08003c38   0x00000028   Code   RO         5593    i.prvSampleTimeNow  timers.o
    0x08003c60   0x08003c60   0x0000006c   Code   RO         5594    i.prvSwitchTimerLists  timers.o
    0x08003ccc   0x08003ccc   0x00000028   Code   RO         6214    i.prvTaskExitError  port.o
    0x08003cf4   0x08003cf4   0x00000024   Code   RO         5595    i.prvTimerTask      timers.o
    0x08003d18   0x08003d18   0x0000006a   Code   RO         4846    i.prvUnlockQueue    queue.o
    0x08003d82   0x08003d82   0x00000002   PAD
    0x08003d84   0x08003d84   0x000000d8   Code   RO         6165    i.pvPortMalloc      heap_4.o
    0x08003e5c   0x08003e5c   0x00000024   Code   RO         6215    i.pxPortInitialiseStack  port.o
    0x08003e80   0x08003e80   0x00000044   Code   RO         6492    i.system_get_ns     driver_timer.o
    0x08003ec4   0x08003ec4   0x00000038   Code   RO         6493    i.udelay            driver_timer.o
    0x08003efc   0x08003efc   0x00000026   Code   RO         4801    i.uxListRemove      list.o
    0x08003f22   0x08003f22   0x00000002   PAD
    0x08003f24   0x08003f24   0x00000014   Code   RO         5805    i.vApplicationGetIdleTaskMemory  cmsis_os2.o
    0x08003f38   0x08003f38   0x00000018   Code   RO         5806    i.vApplicationGetTimerTaskMemory  cmsis_os2.o
    0x08003f50   0x08003f50   0x00000016   Code   RO         4802    i.vListInitialise   list.o
    0x08003f66   0x08003f66   0x00000006   Code   RO         4803    i.vListInitialiseItem  list.o
    0x08003f6c   0x08003f6c   0x00000030   Code   RO         4804    i.vListInsert       list.o
    0x08003f9c   0x08003f9c   0x00000018   Code   RO         4805    i.vListInsertEnd    list.o
    0x08003fb4   0x08003fb4   0x00000040   Code   RO         6217    i.vPortEnterCritical  port.o
    0x08003ff4   0x08003ff4   0x00000028   Code   RO         6218    i.vPortExitCritical  port.o
    0x0800401c   0x0800401c   0x0000005c   Code   RO         6166    i.vPortFree         heap_4.o
    0x08004078   0x08004078   0x00000024   Code   RO         6219    i.vPortSetupTimerInterrupt  port.o
    0x0800409c   0x0800409c   0x00000054   Code   RO         6220    i.vPortValidateInterruptPriority  port.o
    0x080040f0   0x080040f0   0x00000028   Code   RO         4852    i.vQueueAddToRegistry  queue.o
    0x08004118   0x08004118   0x00000044   Code   RO         4856    i.vQueueWaitForMessageRestricted  queue.o
    0x0800415c   0x0800415c   0x00000010   Code   RO         5261    i.vTaskInternalSetTimeOutState  tasks.o
    0x0800416c   0x0800416c   0x0000000c   Code   RO         5262    i.vTaskMissedYield  tasks.o
    0x08004178   0x08004178   0x00000030   Code   RO         5264    i.vTaskPlaceOnEventList  tasks.o
    0x080041a8   0x080041a8   0x00000038   Code   RO         5265    i.vTaskPlaceOnEventListRestricted  tasks.o
    0x080041e0   0x080041e0   0x00000088   Code   RO         5273    i.vTaskStartScheduler  tasks.o
    0x08004268   0x08004268   0x00000010   Code   RO         5275    i.vTaskSuspendAll   tasks.o
    0x08004278   0x08004278   0x00000064   Code   RO         5276    i.vTaskSwitchContext  tasks.o
    0x080042dc   0x080042dc   0x000000a8   Code   RO         6221    i.xPortStartScheduler  port.o
    0x08004384   0x08004384   0x00000066   Code   RO         4862    i.xQueueGenericCreateStatic  queue.o
    0x080043ea   0x080043ea   0x00000002   PAD
    0x080043ec   0x080043ec   0x00000088   Code   RO         4863    i.xQueueGenericReset  queue.o
    0x08004474   0x08004474   0x00000160   Code   RO         4864    i.xQueueGenericSend  queue.o
    0x080045d4   0x080045d4   0x000000bc   Code   RO         4865    i.xQueueGenericSendFromISR  queue.o
    0x08004690   0x08004690   0x00000138   Code   RO         4874    i.xQueueReceive     queue.o
    0x080047c8   0x080047c8   0x00000074   Code   RO         5277    i.xTaskCheckForTimeOut  tasks.o
    0x0800483c   0x0800483c   0x0000005a   Code   RO         5278    i.xTaskCreate       tasks.o
    0x08004896   0x08004896   0x00000056   Code   RO         5279    i.xTaskCreateStatic  tasks.o
    0x080048ec   0x080048ec   0x0000001c   Code   RO         5283    i.xTaskGetSchedulerState  tasks.o
    0x08004908   0x08004908   0x0000000c   Code   RO         5284    i.xTaskGetTickCount  tasks.o
    0x08004914   0x08004914   0x000000c8   Code   RO         5286    i.xTaskIncrementTick  tasks.o
    0x080049dc   0x080049dc   0x00000080   Code   RO         5289    i.xTaskPriorityDisinherit  tasks.o
    0x08004a5c   0x08004a5c   0x00000070   Code   RO         5291    i.xTaskRemoveFromEventList  tasks.o
    0x08004acc   0x08004acc   0x000000c4   Code   RO         5292    i.xTaskResumeAll    tasks.o
    0x08004b90   0x08004b90   0x00000060   Code   RO         5602    i.xTimerCreateTimerTask  timers.o
    0x08004bf0   0x08004bf0   0x00000068   Code   RO         5603    i.xTimerGenericCommand  timers.o
    0x08004c58   0x08004c58   0x00000024   Data   RO          245    .constdata          freertos.o
    0x08004c7c   0x08004c7c   0x00000012   Data   RO         1286    .constdata          stm32f1xx_hal_rcc.o
    0x08004c8e   0x08004c8e   0x00000010   Data   RO         4637    .constdata          system_stm32f1xx.o
    0x08004c9e   0x08004c9e   0x00000008   Data   RO         4638    .constdata          system_stm32f1xx.o
    0x08004ca6   0x08004ca6   0x00000800   Data   RO         6346    .constdata          driver_oled.o
    0x080054a6   0x080054a6   0x00000002   PAD
    0x080054a8   0x080054a8   0x00000054   Data   RO         6859    .constdata          driver_ir_receiver.o
    0x080054fc   0x080054fc   0x0000000c   Data   RO          246    .conststring        freertos.o
    0x08005508   0x08005508   0x00000071   Data   RO         6860    .conststring        driver_ir_receiver.o
    0x08005579   0x08005579   0x00000003   PAD
    0x0800557c   0x0800557c   0x00000020   Data   RO         7678    Region$$Table       anon$$obj.o


    Execution Region RW_IRAM1 (Exec base: 0x20000000, Load base: 0x0800559c, Size: 0x000039d0, Max: 0x00005000, ABSOLUTE, COMPRESSED[0x000001d4])

    Exec Addr    Load Addr    Size         Type   Attr      Idx    E Section Name        Object

    0x20000000   COMPRESSED   0x0000000c   Data   RW          247    .data               freertos.o
    0x2000000c   COMPRESSED   0x00000f96   Data   RW          763    .data               music.o
    0x20000fa2   COMPRESSED   0x00000002   PAD
    0x20000fa4   COMPRESSED   0x0000000c   Data   RW         1123    .data               stm32f1xx_hal.o
    0x20000fb0   COMPRESSED   0x00000004   Data   RW         4639    .data               system_stm32f1xx.o
    0x20000fb4   COMPRESSED   0x0000003c   Data   RW         5295    .data               tasks.o
    0x20000ff0   COMPRESSED   0x00000014   Data   RW         5611    .data               timers.o
    0x20001004   COMPRESSED   0x00000004   Data   RW         5808    .data               cmsis_os2.o
    0x20001008   COMPRESSED   0x00000018   Data   RW         6171    .data               heap_4.o
    0x20001020   COMPRESSED   0x0000000c   Data   RW         6222    .data               port.o
    0x2000102c   COMPRESSED   0x00000008   Data   RW         6347    .data               driver_oled.o
    0x20001034   COMPRESSED   0x00000004   Data   RW         6766    .data               driver_passive_buzzer.o
    0x20001038   COMPRESSED   0x00000004   Data   RW         6812    .data               driver_color_led.o
    0x2000103c   COMPRESSED   0x00000004   PAD
    0x20001040   COMPRESSED   0x00000018   Data   RW         6861    .data               driver_ir_receiver.o
    0x20001058   COMPRESSED   0x00000018   Data   RW         7163    .data               driver_rotary_encoder.o
    0x20001070        -       0x000004b8   Zero   RW          244    .bss                freertos.o
    0x20001528        -       0x00000030   Zero   RW          352    .bss                adc.o
    0x20001558        -       0x00000054   Zero   RW          394    .bss                i2c.o
    0x200015ac        -       0x00000058   Zero   RW          436    .bss                spi.o
    0x20001604        -       0x000000d8   Zero   RW          483    .bss                tim.o
    0x200016dc        -       0x00000048   Zero   RW          550    .bss                usart.o
    0x20001724        -       0x000002f0   Zero   RW          592    .bss                usb.o
    0x20001a14        -       0x00000048   Zero   RW          728    .bss                stm32f1xx_hal_timebase_tim.o
    0x20001a5c        -       0x00000040   Zero   RW         4878    .bss                queue.o
    0x20001a9c        -       0x000004c4   Zero   RW         5294    .bss                tasks.o
    0x20001f60        -       0x00000118   Zero   RW         5610    .bss                timers.o
    0x20002078        -       0x000006b8   Zero   RW         5807    .bss                cmsis_os2.o
    0x20002730        -       0x00000c00   Zero   RW         6170    .bss                heap_4.o
    0x20003330        -       0x000002a0   Zero   RW         6858    .bss                driver_ir_receiver.o
    0x200035d0        -       0x00000400   Zero   RW            1    STACK               startup_stm32f103xb.o


==============================================================================

Image component sizes


      Code (inc. data)   RO Data    RW Data    ZI Data      Debug   Object Name

       168         22          0          0         48       1609   adc.o
       328         26          0          4       1720      13444   cmsis_os2.o
       200         10          0          4          0       2103   driver_color_led.o
       872        180        197         24        672       5948   driver_ir_receiver.o
        22          0          0          0          0        525   driver_irq.o
        16          0          0          0          0       2344   driver_lcd.o
       154         16          0          0          0       2048   driver_led.o
       624         46       2048          8          0       9193   driver_oled.o
       240         26          0          4          0       2183   driver_passive_buzzer.o
       108         12          0         24          0       2523   driver_rotary_encoder.o
       150         14          0          0          0       2366   driver_timer.o
         0          0          0          0          0      20120   event_groups.o
       174         70         48         12       1208       7913   freertos.o
       336         26          0          0          0       1027   gpio.o
       460         24          0         24       3072       4615   heap_4.o
       156         26          0          0         84       1597   i2c.o
       138          0          0          0          0       3338   list.o
       206          6          0          0          0     488316   main.o
        90          6          0       3990          0       1792   music.o
       662         70          0         12          0      10713   port.o
      1512         20          0          0         64      16772   queue.o
       184         24          0          0         88       1621   spi.o
        36          8        236          0       1024        852   startup_stm32f103xb.o
        64         14          0         12          0       4590   stm32f1xx_hal.o
       622         24          0          0          0       3268   stm32f1xx_hal_adc.o
       158         14          0          0          0      28138   stm32f1xx_hal_cortex.o
       524         40          0          0          0       4074   stm32f1xx_hal_gpio.o
      1870         48          0          0          0      11273   stm32f1xx_hal_i2c.o
        72         10          0          0          0        854   stm32f1xx_hal_msp.o
       218          0          0          0          0       1492   stm32f1xx_hal_pcd.o
      1304         94         18          0          0       5681   stm32f1xx_hal_rcc.o
       236         12          0          0          0       1364   stm32f1xx_hal_rcc_ex.o
       178          0          0          0          0       1215   stm32f1xx_hal_spi.o
      1982         62          0          0          0      16709   stm32f1xx_hal_tim.o
       192         12          0          0          0       3149   stm32f1xx_hal_tim_ex.o
       152         20          0          0         72       1451   stm32f1xx_hal_timebase_tim.o
       284          6          0          0          0       1904   stm32f1xx_hal_uart.o
        54          6          0          0          0       3438   stm32f1xx_it.o
        44          0          0          0          0       3280   stm32f1xx_ll_usb.o
         0          0          0          0          0       8876   stream_buffer.o
         2          0         24          4          0       1095   system_stm32f1xx.o
      1988        160          0         60       1220      22271   tasks.o
       896         76          0          0        216       4993   tim.o
       912         82          0         20        280      25863   timers.o
       168         20          0          0         72       1646   usart.o
        92         20          0          0        752       1498   usb.o

    ----------------------------------------------------------------------
     18894       1352       2608       4208      10592     761084   Object Totals
         0          0         32          0          0          0   (incl. Generated)
        46          0          5          6          0          0   (incl. Padding)

    ----------------------------------------------------------------------

      Code (inc. data)   RO Data    RW Data    ZI Data      Debug   Library Member Name

        94          0          0          0          0          0   __dclz77c.o
         0          0          0          0          0          0   entry.o
         0          0          0          0          0          0   entry10a.o
         0          0          0          0          0          0   entry11a.o
         8          4          0          0          0          0   entry2.o
         4          0          0          0          0          0   entry5.o
         0          0          0          0          0          0   entry7b.o
         0          0          0          0          0          0   entry8b.o
         8          4          0          0          0          0   entry9a.o
        30          0          0          0          0          0   handlers.o
        36          8          0          0          0         68   init.o
        30          0          0          0          0         68   llshl.o
        32          0          0          0          0         68   llushr.o
        36          0          0          0          0         68   memcpya.o
        36          0          0          0          0        108   memseta.o
        98          0          0          0          0         92   uldiv.o

    ----------------------------------------------------------------------
       414         16          0          0          0        472   Library Totals
         2          0          0          0          0          0   (incl. Padding)

    ----------------------------------------------------------------------

      Code (inc. data)   RO Data    RW Data    ZI Data      Debug   Library Name

       412         16          0          0          0        472   mc_w.l

    ----------------------------------------------------------------------
       414         16          0          0          0        472   Library Totals

    ----------------------------------------------------------------------

==============================================================================


      Code (inc. data)   RO Data    RW Data    ZI Data      Debug   

     19308       1368       2608       4208      10592     751388   Grand Totals
     19308       1368       2608        468      10592     751388   ELF Image Totals (compressed)
     19308       1368       2608        468          0          0   ROM Totals

==============================================================================

    Total RO  Size (Code + RO Data)                21916 (  21.40kB)
    Total RW  Size (RW Data + ZI Data)             14800 (  14.45kB)
    Total ROM Size (Code + RO Data + RW Data)      22384 (  21.86kB)

==============================================================================

