Component: ARM Compiler 5.06 update 5 (build 528) Tool: armlink [4d35e2]

==============================================================================

Section Cross References

    startup_stm32f103xb.o(RESET) refers to startup_stm32f103xb.o(STACK) for __initial_sp
    startup_stm32f103xb.o(RESET) refers to startup_stm32f103xb.o(.text) for Reset_Handler
    startup_stm32f103xb.o(RESET) refers to stm32f1xx_it.o(i.NMI_Handler) for NMI_Handler
    startup_stm32f103xb.o(RESET) refers to stm32f1xx_it.o(i.HardFault_Handler) for HardFault_Handler
    startup_stm32f103xb.o(RESET) refers to stm32f1xx_it.o(i.MemManage_Handler) for MemManage_Handler
    startup_stm32f103xb.o(RESET) refers to stm32f1xx_it.o(i.BusFault_Handler) for BusFault_Handler
    startup_stm32f103xb.o(RESET) refers to stm32f1xx_it.o(i.UsageFault_Handler) for UsageFault_Handler
    startup_stm32f103xb.o(RESET) refers to port.o(.emb_text) for SVC_Handler
    startup_stm32f103xb.o(RESET) refers to stm32f1xx_it.o(i.DebugMon_Handler) for DebugMon_Handler
    startup_stm32f103xb.o(RESET) refers to port.o(i.SysTick_Handler) for SysTick_Handler
    startup_stm32f103xb.o(RESET) refers to stm32f1xx_it.o(i.TIM4_IRQHandler) for TIM4_IRQHandler
    startup_stm32f103xb.o(RESET) refers to stm32f1xx_it.o(i.EXTI15_10_IRQHandler) for EXTI15_10_IRQHandler
    startup_stm32f103xb.o(.text) refers to system_stm32f1xx.o(i.SystemInit) for SystemInit
    startup_stm32f103xb.o(.text) refers to entry.o(.ARM.Collect$$$$00000000) for __main
    main.o(i.HAL_TIM_PeriodElapsedCallback) refers to stm32f1xx_hal.o(i.HAL_IncTick) for HAL_IncTick
    main.o(i.SystemClock_Config) refers to memseta.o(.text) for __aeabi_memclr4
    main.o(i.SystemClock_Config) refers to stm32f1xx_hal_rcc.o(i.HAL_RCC_OscConfig) for HAL_RCC_OscConfig
    main.o(i.SystemClock_Config) refers to stm32f1xx_hal_rcc.o(i.HAL_RCC_ClockConfig) for HAL_RCC_ClockConfig
==============================================================================

Removing Unused input sections from the image.

    Removing startup_stm32f103xb.o(HEAP), (512 bytes).
    Removing main.o(.rev16_text), (4 bytes).
    Removing main.o(.revsh_text), (4 bytes).
    Removing main.o(.rrx_text), (6 bytes).
    Removing gpio.o(.rev16_text), (4 bytes).
    Removing gpio.o(.revsh_text), (4 bytes).
    Removing gpio.o(.rrx_text), (6 bytes).
    Removing freertos.o(.rev16_text), (4 bytes).
    Removing freertos.o(.revsh_text), (4 bytes).
    Removing freertos.o(.rrx_text), (6 bytes).
    Removing freertos.o(i.StartDefaultTask), (10 bytes).
    Removing freertos.o(.constdata), (36 bytes).
    Removing freertos.o(.conststring), (12 bytes).
    Removing freertos.o(.data), (4 bytes).
    Removing adc.o(.rev16_text), (4 bytes).
    Removing adc.o(.revsh_text), (4 bytes).
    Removing adc.o(.rrx_text), (6 bytes).
    Removing adc.o(i.HAL_ADC_MspDeInit), (40 bytes).
==============================================================================

Image Symbol Table

    Local Symbols

    Symbol Name                              Value     Ov Type        Size  Object(Section)

    ../Core/Src/adc.c                        0x00000000   Number         0  adc.o ABSOLUTE
    ../Core/Src/freertos.c                   0x00000000   Number         0  freertos.o ABSOLUTE
    ../Core/Src/gpio.c                       0x00000000   Number         0  gpio.o ABSOLUTE
    ../Core/Src/i2c.c                        0x00000000   Number         0  i2c.o ABSOLUTE
    ../Core/Src/main.c                       0x00000000   Number         0  main.o ABSOLUTE
    ../Core/Src/spi.c                        0x00000000   Number         0  spi.o ABSOLUTE
    ../Core/Src/stm32f1xx_hal_msp.c          0x00000000   Number         0  stm32f1xx_hal_msp.o ABSOLUTE
    ../Core/Src/stm32f1xx_hal_timebase_tim.c 0x00000000   Number         0  stm32f1xx_hal_timebase_tim.o ABSOLUTE
    ../Core/Src/stm32f1xx_it.c               0x00000000   Number         0  stm32f1xx_it.o ABSOLUTE
    ../Core/Src/system_stm32f1xx.c           0x00000000   Number         0  system_stm32f1xx.o ABSOLUTE
    ../Core/Src/tim.c                        0x00000000   Number         0  tim.o ABSOLUTE
    ../Core/Src/usart.c                      0x00000000   Number         0  usart.o ABSOLUTE
    ../Core/Src/usb.c                        0x00000000   Number         0  usb.o ABSOLUTE
    ../Drivers/STM32F1xx_HAL_Driver/Src/stm32f1xx_hal.c 0x00000000   Number         0  stm32f1xx_hal.o ABSOLUTE
    ../Drivers/STM32F1xx_HAL_Driver/Src/stm32f1xx_hal_adc.c 0x00000000   Number         0  stm32f1xx_hal_adc.o ABSOLUTE
    ../Drivers/STM32F1xx_HAL_Driver/Src/stm32f1xx_hal_adc_ex.c 0x00000000   Number         0  stm32f1xx_hal_adc_ex.o ABSOLUTE
    ../Drivers/STM32F1xx_HAL_Driver/Src/stm32f1xx_hal_cortex.c 0x00000000   Number         0  stm32f1xx_hal_cortex.o ABSOLUTE
    ../Drivers/STM32F1xx_HAL_Driver/Src/stm32f1xx_hal_dma.c 0x00000000   Number         0  stm32f1xx_hal_dma.o ABSOLUTE
    ../Drivers/STM32F1xx_HAL_Driver/Src/stm32f1xx_hal_exti.c 0x00000000   Number         0  stm32f1xx_hal_exti.o ABSOLUTE
    ../Drivers/STM32F1xx_HAL_Driver/Src/stm32f1xx_hal_flash.c 0x00000000   Number         0  stm32f1xx_hal_flash.o ABSOLUTE
    ../Drivers/STM32F1xx_HAL_Driver/Src/stm32f1xx_hal_flash_ex.c 0x00000000   Number         0  stm32f1xx_hal_flash_ex.o ABSOLUTE
    ../Drivers/STM32F1xx_HAL_Driver/Src/stm32f1xx_hal_gpio.c 0x00000000   Number         0  stm32f1xx_hal_gpio.o ABSOLUTE
    ../Drivers/STM32F1xx_HAL_Driver/Src/stm32f1xx_hal_gpio_ex.c 0x00000000   Number         0  stm32f1xx_hal_gpio_ex.o ABSOLUTE
    ../Drivers/STM32F1xx_HAL_Driver/Src/stm32f1xx_hal_i2c.c 0x00000000   Number         0  stm32f1xx_hal_i2c.o ABSOLUTE
    ../Drivers/STM32F1xx_HAL_Driver/Src/stm32f1xx_hal_pcd.c 0x00000000   Number         0  stm32f1xx_hal_pcd.o ABSOLUTE
    ../Drivers/STM32F1xx_HAL_Driver/Src/stm32f1xx_hal_pcd_ex.c 0x00000000   Number         0  stm32f1xx_hal_pcd_ex.o ABSOLUTE
    ../Drivers/STM32F1xx_HAL_Driver/Src/stm32f1xx_hal_pwr.c 0x00000000   Number         0  stm32f1xx_hal_pwr.o ABSOLUTE
    ../Drivers/STM32F1xx_HAL_Driver/Src/stm32f1xx_hal_rcc.c 0x00000000   Number         0  stm32f1xx_hal_rcc.o ABSOLUTE
    ../Drivers/STM32F1xx_HAL_Driver/Src/stm32f1xx_hal_rcc_ex.c 0x00000000   Number         0  stm32f1xx_hal_rcc_ex.o ABSOLUTE
    ../Drivers/STM32F1xx_HAL_Driver/Src/stm32f1xx_hal_spi.c 0x00000000   Number         0  stm32f1xx_hal_spi.o ABSOLUTE
    ../Drivers/STM32F1xx_HAL_Driver/Src/stm32f1xx_hal_tim.c 0x00000000   Number         0  stm32f1xx_hal_tim.o ABSOLUTE
    ../Drivers/STM32F1xx_HAL_Driver/Src/stm32f1xx_hal_tim_ex.c 0x00000000   Number         0  stm32f1xx_hal_tim_ex.o ABSOLUTE
    ../Drivers/STM32F1xx_HAL_Driver/Src/stm32f1xx_hal_uart.c 0x00000000   Number         0  stm32f1xx_hal_uart.o ABSOLUTE
    ../Drivers/STM32F1xx_HAL_Driver/Src/stm32f1xx_ll_usb.c 0x00000000   Number         0  stm32f1xx_ll_usb.o ABSOLUTE
    ../Middlewares/Third_Party/FreeRTOS/Source/CMSIS_RTOS_V2/cmsis_os2.c 0x00000000   Number         0  cmsis_os2.o ABSOLUTE
    ../Middlewares/Third_Party/FreeRTOS/Source/croutine.c 0x00000000   Number         0  croutine.o ABSOLUTE
    ../Middlewares/Third_Party/FreeRTOS/Source/event_groups.c 0x00000000   Number         0  event_groups.o ABSOLUTE
    ../Middlewares/Third_Party/FreeRTOS/Source/list.c 0x00000000   Number         0  list.o ABSOLUTE
    ../Middlewares/Third_Party/FreeRTOS/Source/portable/MemMang/heap_4.c 0x00000000   Number         0  heap_4.o ABSOLUTE
    ../Middlewares/Third_Party/FreeRTOS/Source/portable/RVDS/ARM_CM3/port.c 0x00000000   Number         0  port.o ABSOLUTE
    ../Middlewares/Third_Party/FreeRTOS/Source/queue.c 0x00000000   Number         0  queue.o ABSOLUTE
    ../Middlewares/Third_Party/FreeRTOS/Source/stream_buffer.c 0x00000000   Number         0  stream_buffer.o ABSOLUTE
    ../Middlewares/Third_Party/FreeRTOS/Source/tasks.c 0x00000000   Number         0  tasks.o ABSOLUTE
    ../Middlewares/Third_Party/FreeRTOS/Source/timers.c 0x00000000   Number         0  timers.o ABSOLUTE
    ../clib/microlib/division.c              0x00000000   Number         0  uidiv.o ABSOLUTE
    ../clib/microlib/division.c              0x00000000   Number         0  uldiv.o ABSOLUTE
    ../clib/microlib/init/entry.s            0x00000000   Number         0  entry7a.o ABSOLUTE
    ../clib/microlib/init/entry.s            0x00000000   Number         0  entry5.o ABSOLUTE
    ../clib/microlib/init/entry.s            0x00000000   Number         0  entry2.o ABSOLUTE
    ../clib/microlib/init/entry.s            0x00000000   Number         0  entry.o ABSOLUTE
    ../clib/microlib/init/entry.s            0x00000000   Number         0  entry10b.o ABSOLUTE
    ../clib/microlib/init/entry.s            0x00000000   Number         0  entry11b.o ABSOLUTE
    ../clib/microlib/init/entry.s            0x00000000   Number         0  entry11a.o ABSOLUTE
    ../clib/microlib/init/entry.s            0x00000000   Number         0  entry10a.o ABSOLUTE
    ../clib/microlib/init/entry.s            0x00000000   Number         0  entry9b.o ABSOLUTE
    ../clib/microlib/init/entry.s            0x00000000   Number         0  entry9a.o ABSOLUTE
    ../clib/microlib/init/entry.s            0x00000000   Number         0  entry8b.o ABSOLUTE
    ../clib/microlib/init/entry.s            0x00000000   Number         0  entry8a.o ABSOLUTE
    ../clib/microlib/init/entry.s            0x00000000   Number         0  entry7b.o ABSOLUTE
    ../clib/microlib/longlong.c              0x00000000   Number         0  llshl.o ABSOLUTE
    ../clib/microlib/longlong.c              0x00000000   Number         0  llushr.o ABSOLUTE
    ../clib/microlib/longlong.c              0x00000000   Number         0  llsshr.o ABSOLUTE
    ../clib/microlib/printf/printf.c         0x00000000   Number         0  printfa.o ABSOLUTE
    ../clib/microlib/printf/printf.c         0x00000000   Number         0  printf1.o ABSOLUTE
    ../clib/microlib/printf/printf.c         0x00000000   Number         0  printfb.o ABSOLUTE
    ../clib/microlib/printf/printf.c         0x00000000   Number         0  printf8.o ABSOLUTE
    ../clib/microlib/printf/printf.c         0x00000000   Number         0  printf7.o ABSOLUTE
    ../clib/microlib/printf/printf.c         0x00000000   Number         0  printf0.o ABSOLUTE
    ../clib/microlib/printf/printf.c         0x00000000   Number         0  printf6.o ABSOLUTE
    ../clib/microlib/printf/printf.c         0x00000000   Number         0  printf2.o ABSOLUTE
    ../clib/microlib/printf/printf.c         0x00000000   Number         0  printf3.o ABSOLUTE
    ../clib/microlib/printf/printf.c         0x00000000   Number         0  printf4.o ABSOLUTE
    ../clib/microlib/printf/printf.c         0x00000000   Number         0  printf5.o ABSOLUTE
    ../clib/microlib/printf/stubs.s          0x00000000   Number         0  stubs.o ABSOLUTE
    ../clib/microlib/stdio/streams.c         0x00000000   Number         0  stdout.o ABSOLUTE
    ../clib/microlib/string/memcpy.c         0x00000000   Number         0  memcpya.o ABSOLUTE
    ../clib/microlib/string/memcpy.c         0x00000000   Number         0  memcpyb.o ABSOLUTE
    ../clib/microlib/string/memset.c         0x00000000   Number         0  memseta.o ABSOLUTE
    ../clib/microlib/string/memset.c         0x00000000   Number         0  memset.o ABSOLUTE
    ../clib/microlib/stubs.s                 0x00000000   Number         0  iusefp.o ABSOLUTE
    ../fplib/microlib/fpadd.c                0x00000000   Number         0  dadd.o ABSOLUTE
    ../fplib/microlib/fpdiv.c                0x00000000   Number         0  ddiv.o ABSOLUTE
    ../fplib/microlib/fpepilogue.c           0x00000000   Number         0  depilogue.o ABSOLUTE
    ../fplib/microlib/fpfix.c                0x00000000   Number         0  dfixul.o ABSOLUTE
    ../fplib/microlib/fpfix.c                0x00000000   Number         0  dfixi.o ABSOLUTE
    ../fplib/microlib/fpflt.c                0x00000000   Number         0  dflti.o ABSOLUTE
    ../fplib/microlib/fpmul.c                0x00000000   Number         0  dmul.o ABSOLUTE
    ..\Core\Src\adc.c                        0x00000000   Number         0  adc.o ABSOLUTE
    ..\Core\Src\freertos.c                   0x00000000   Number         0  freertos.o ABSOLUTE
    ..\Core\Src\gpio.c                       0x00000000   Number         0  gpio.o ABSOLUTE
    ..\Core\Src\i2c.c                        0x00000000   Number         0  i2c.o ABSOLUTE
    ..\Core\Src\main.c                       0x00000000   Number         0  main.o ABSOLUTE
    ..\Core\Src\music.c                      0x00000000   Number         0  music.o ABSOLUTE
    ..\Core\Src\spi.c                        0x00000000   Number         0  spi.o ABSOLUTE
    ..\Core\Src\stm32f1xx_hal_msp.c          0x00000000   Number         0  stm32f1xx_hal_msp.o ABSOLUTE
    ..\Core\Src\stm32f1xx_hal_timebase_tim.c 0x00000000   Number         0  stm32f1xx_hal_timebase_tim.o ABSOLUTE
    ..\Core\Src\stm32f1xx_it.c               0x00000000   Number         0  stm32f1xx_it.o ABSOLUTE
    ..\Core\Src\system_stm32f1xx.c           0x00000000   Number         0  system_stm32f1xx.o ABSOLUTE
    ..\Core\Src\tim.c                        0x00000000   Number         0  tim.o ABSOLUTE
    ..\Core\Src\usart.c                      0x00000000   Number         0  usart.o ABSOLUTE
    ..\Core\Src\usb.c                        0x00000000   Number         0  usb.o ABSOLUTE
    ..\Drivers\DshanMCU-F103\driver_active_buzzer.c 0x00000000   Number         0  driver_active_buzzer.o ABSOLUTE
    ..\Drivers\DshanMCU-F103\driver_color_led.c 0x00000000   Number         0  driver_color_led.o ABSOLUTE
    ..\Drivers\DshanMCU-F103\driver_dht11.c  0x00000000   Number         0  driver_dht11.o ABSOLUTE
    ..\Drivers\DshanMCU-F103\driver_ds18b20.c 0x00000000   Number         0  driver_ds18b20.o ABSOLUTE
    ..\Drivers\DshanMCU-F103\driver_ir_obstacle.c 0x00000000   Number         0  driver_ir_obstacle.o ABSOLUTE
    ..\Drivers\DshanMCU-F103\driver_ir_receiver.c 0x00000000   Number         0  driver_ir_receiver.o ABSOLUTE
    ..\Drivers\DshanMCU-F103\driver_ir_sender.c 0x00000000   Number         0  driver_ir_sender.o ABSOLUTE
    ..\Drivers\DshanMCU-F103\driver_irq.c    0x00000000   Number         0  driver_irq.o ABSOLUTE
    ..\Drivers\DshanMCU-F103\driver_key.c    0x00000000   Number         0  driver_key.o ABSOLUTE
    ..\Drivers\DshanMCU-F103\driver_lcd.c    0x00000000   Number         0  driver_lcd.o ABSOLUTE
    ..\Drivers\DshanMCU-F103\driver_led.c    0x00000000   Number         0  driver_led.o ABSOLUTE
    ..\Drivers\DshanMCU-F103\driver_light_sensor.c 0x00000000   Number         0  driver_light_sensor.o ABSOLUTE
    ..\Drivers\DshanMCU-F103\driver_motor.c  0x00000000   Number         0  driver_motor.o ABSOLUTE
    ..\Drivers\DshanMCU-F103\driver_mpu6050.c 0x00000000   Number         0  driver_mpu6050.o ABSOLUTE
    ..\Drivers\DshanMCU-F103\driver_oled.c   0x00000000   Number         0  driver_oled.o ABSOLUTE
    ..\Drivers\DshanMCU-F103\driver_passive_buzzer.c 0x00000000   Number         0  driver_passive_buzzer.o ABSOLUTE
    ..\Drivers\DshanMCU-F103\driver_rotary_encoder.c 0x00000000   Number         0  driver_rotary_encoder.o ABSOLUTE
    ..\Drivers\DshanMCU-F103\driver_spiflash_w25q64.c 0x00000000   Number         0  driver_spiflash_w25q64.o ABSOLUTE
    ..\Drivers\DshanMCU-F103\driver_timer.c  0x00000000   Number         0  driver_timer.o ABSOLUTE
    ..\Drivers\DshanMCU-F103\driver_uart.c   0x00000000   Number         0  driver_uart.o ABSOLUTE
    ..\Drivers\DshanMCU-F103\driver_ultrasonic_sr04.c 0x00000000   Number         0  driver_ultrasonic_sr04.o ABSOLUTE
    ..\Drivers\STM32F1xx_HAL_Driver\Src\stm32f1xx_hal.c 0x00000000   Number         0  stm32f1xx_hal.o ABSOLUTE
    ..\Drivers\STM32F1xx_HAL_Driver\Src\stm32f1xx_hal_adc.c 0x00000000   Number         0  stm32f1xx_hal_adc.o ABSOLUTE
    ..\Drivers\STM32F1xx_HAL_Driver\Src\stm32f1xx_hal_adc_ex.c 0x00000000   Number         0  stm32f1xx_hal_adc_ex.o ABSOLUTE
    ..\Drivers\STM32F1xx_HAL_Driver\Src\stm32f1xx_hal_cortex.c 0x00000000   Number         0  stm32f1xx_hal_cortex.o ABSOLUTE
    ..\Drivers\STM32F1xx_HAL_Driver\Src\stm32f1xx_hal_dma.c 0x00000000   Number         0  stm32f1xx_hal_dma.o ABSOLUTE
    ..\Drivers\STM32F1xx_HAL_Driver\Src\stm32f1xx_hal_exti.c 0x00000000   Number         0  stm32f1xx_hal_exti.o ABSOLUTE
    ..\Drivers\STM32F1xx_HAL_Driver\Src\stm32f1xx_hal_flash.c 0x00000000   Number         0  stm32f1xx_hal_flash.o ABSOLUTE
    ..\Drivers\STM32F1xx_HAL_Driver\Src\stm32f1xx_hal_flash_ex.c 0x00000000   Number         0  stm32f1xx_hal_flash_ex.o ABSOLUTE
    ..\Drivers\STM32F1xx_HAL_Driver\Src\stm32f1xx_hal_gpio.c 0x00000000   Number         0  stm32f1xx_hal_gpio.o ABSOLUTE
    ..\Drivers\STM32F1xx_HAL_Driver\Src\stm32f1xx_hal_gpio_ex.c 0x00000000   Number         0  stm32f1xx_hal_gpio_ex.o ABSOLUTE
    ..\Drivers\STM32F1xx_HAL_Driver\Src\stm32f1xx_hal_i2c.c 0x00000000   Number         0  stm32f1xx_hal_i2c.o ABSOLUTE
    ..\Drivers\STM32F1xx_HAL_Driver\Src\stm32f1xx_hal_pcd.c 0x00000000   Number         0  stm32f1xx_hal_pcd.o ABSOLUTE
    ..\Drivers\STM32F1xx_HAL_Driver\Src\stm32f1xx_hal_pcd_ex.c 0x00000000   Number         0  stm32f1xx_hal_pcd_ex.o ABSOLUTE
    ..\Drivers\STM32F1xx_HAL_Driver\Src\stm32f1xx_hal_pwr.c 0x00000000   Number         0  stm32f1xx_hal_pwr.o ABSOLUTE
    ..\Drivers\STM32F1xx_HAL_Driver\Src\stm32f1xx_hal_rcc.c 0x00000000   Number         0  stm32f1xx_hal_rcc.o ABSOLUTE
    ..\Drivers\STM32F1xx_HAL_Driver\Src\stm32f1xx_hal_rcc_ex.c 0x00000000   Number         0  stm32f1xx_hal_rcc_ex.o ABSOLUTE
    ..\Drivers\STM32F1xx_HAL_Driver\Src\stm32f1xx_hal_spi.c 0x00000000   Number         0  stm32f1xx_hal_spi.o ABSOLUTE
    ..\Drivers\STM32F1xx_HAL_Driver\Src\stm32f1xx_hal_tim.c 0x00000000   Number         0  stm32f1xx_hal_tim.o ABSOLUTE
    ..\Drivers\STM32F1xx_HAL_Driver\Src\stm32f1xx_hal_tim_ex.c 0x00000000   Number         0  stm32f1xx_hal_tim_ex.o ABSOLUTE
    ..\Drivers\STM32F1xx_HAL_Driver\Src\stm32f1xx_hal_uart.c 0x00000000   Number         0  stm32f1xx_hal_uart.o ABSOLUTE
    ..\Drivers\STM32F1xx_HAL_Driver\Src\stm32f1xx_ll_usb.c 0x00000000   Number         0  stm32f1xx_ll_usb.o ABSOLUTE
    ..\Middlewares\Third_Party\FreeRTOS\Source\CMSIS_RTOS_V2\cmsis_os2.c 0x00000000   Number         0  cmsis_os2.o ABSOLUTE
    ..\Middlewares\Third_Party\FreeRTOS\Source\portable\RVDS\ARM_CM3\port.c 0x00000000   Number         0  port.o ABSOLUTE
    ..\\Drivers\\DshanMCU-F103\\driver_active_buzzer.c 0x00000000   Number         0  driver_active_buzzer.o ABSOLUTE
    ..\\Drivers\\DshanMCU-F103\\driver_color_led.c 0x00000000   Number         0  driver_color_led.o ABSOLUTE
    ..\\Drivers\\DshanMCU-F103\\driver_dht11.c 0x00000000   Number         0  driver_dht11.o ABSOLUTE
    ..\\Drivers\\DshanMCU-F103\\driver_ds18b20.c 0x00000000   Number         0  driver_ds18b20.o ABSOLUTE
    ..\\Drivers\\DshanMCU-F103\\driver_ir_obstacle.c 0x00000000   Number         0  driver_ir_obstacle.o ABSOLUTE
    ..\\Drivers\\DshanMCU-F103\\driver_ir_receiver.c 0x00000000   Number         0  driver_ir_receiver.o ABSOLUTE
    ..\\Drivers\\DshanMCU-F103\\driver_ir_sender.c 0x00000000   Number         0  driver_ir_sender.o ABSOLUTE
    ..\\Drivers\\DshanMCU-F103\\driver_irq.c 0x00000000   Number         0  driver_irq.o ABSOLUTE
    ..\\Drivers\\DshanMCU-F103\\driver_key.c 0x00000000   Number         0  driver_key.o ABSOLUTE
    ..\\Drivers\\DshanMCU-F103\\driver_led.c 0x00000000   Number         0  driver_led.o ABSOLUTE
    ..\\Drivers\\DshanMCU-F103\\driver_light_sensor.c 0x00000000   Number         0  driver_light_sensor.o ABSOLUTE
    ..\\Drivers\\DshanMCU-F103\\driver_motor.c 0x00000000   Number         0  driver_motor.o ABSOLUTE
    ..\\Drivers\\DshanMCU-F103\\driver_mpu6050.c 0x00000000   Number         0  driver_mpu6050.o ABSOLUTE
    ..\\Drivers\\DshanMCU-F103\\driver_oled.c 0x00000000   Number         0  driver_oled.o ABSOLUTE
    ..\\Drivers\\DshanMCU-F103\\driver_passive_buzzer.c 0x00000000   Number         0  driver_passive_buzzer.o ABSOLUTE
    ..\\Drivers\\DshanMCU-F103\\driver_rotary_encoder.c 0x00000000   Number         0  driver_rotary_encoder.o ABSOLUTE
    ..\\Drivers\\DshanMCU-F103\\driver_spiflash_w25q64.c 0x00000000   Number         0  driver_spiflash_w25q64.o ABSOLUTE
    ..\\Drivers\\DshanMCU-F103\\driver_timer.c 0x00000000   Number         0  driver_timer.o ABSOLUTE
    ..\\Drivers\\DshanMCU-F103\\driver_uart.c 0x00000000   Number         0  driver_uart.o ABSOLUTE
    ..\\Drivers\\DshanMCU-F103\\driver_ultrasonic_sr04.c 0x00000000   Number         0  driver_ultrasonic_sr04.o ABSOLUTE
    cdrcmple.s                               0x00000000   Number         0  cdrcmple.o ABSOLUTE
    dc.s                                     0x00000000   Number         0  dc.o ABSOLUTE
    handlers.s                               0x00000000   Number         0  handlers.o ABSOLUTE
    init.s                                   0x00000000   Number         0  init.o ABSOLUTE
    startup_stm32f103xb.s                    0x00000000   Number         0  startup_stm32f103xb.o ABSOLUTE
    RESET                                    0x08000000   Section      236  startup_stm32f103xb.o(RESET)
    .ARM.Collect$$$$00000000                 0x080000ec   Section        0  entry.o(.ARM.Collect$$$$00000000)
    .ARM.Collect$$$$00000001                 0x080000ec   Section        4  entry2.o(.ARM.Collect$$$$00000001)
    .ARM.Collect$$$$00000004                 0x080000f0   Section        4  entry5.o(.ARM.Collect$$$$00000004)
    .ARM.Collect$$$$00000008                 0x080000f4   Section        0  entry7b.o(.ARM.Collect$$$$00000008)
    .ARM.Collect$$$$0000000A                 0x080000f4   Section        0  entry8b.o(.ARM.Collect$$$$0000000A)
    .ARM.Collect$$$$0000000B                 0x080000f4   Section        8  entry9a.o(.ARM.Collect$$$$0000000B)
    .ARM.Collect$$$$0000000D                 0x080000fc   Section        0  entry10a.o(.ARM.Collect$$$$0000000D)
    .ARM.Collect$$$$0000000F                 0x080000fc   Section        0  entry11a.o(.ARM.Collect$$$$0000000F)
    .ARM.Collect$$$$00002712                 0x080000fc   Section        4  entry2.o(.ARM.Collect$$$$00002712)
    __lit__00000000                          0x080000fc   Data           4  entry2.o(.ARM.Collect$$$$00002712)
    .emb_text                                0x08000100   Section      150  port.o(.emb_text)
    .text                                    0x08000198   Section       36  startup_stm32f103xb.o(.text)
    .text                                    0x080001bc   Section        0  uldiv.o(.text)
    .text                                    0x0800021e   Section        0  llushr.o(.text)
    .text                                    0x0800023e   Section        0  memcpya.o(.text)
    .text                                    0x08000262   Section        0  memseta.o(.text)
    .text                                    0x08000286   Section        0  llshl.o(.text)
    .text                                    0x080002a4   Section       36  init.o(.text)
    i.ADC_ConversionStop_Disable             0x080002c8   Section        0  stm32f1xx_hal_adc.o(i.ADC_ConversionStop_Disable)
    i.BusFault_Handler                       0x0800031e   Section        0  stm32f1xx_it.o(i.BusFault_Handler)
    i.CalcTask                               0x08000320   Section        0  freertos.o(i.CalcTask)
    i.DebugMon_Handler                       0x08000364   Section        0  stm32f1xx_it.o(i.DebugMon_Handler)
    i.EXTI15_10_IRQHandler                   0x08000366   Section        0  stm32f1xx_it.o(i.EXTI15_10_IRQHandler)
    i.Error_Handler                          0x08000384   Section        0  main.o(i.Error_Handler)
    i.HAL_ADC_ConfigChannel                  0x08000388   Section        0  stm32f1xx_hal_adc.o(i.HAL_ADC_ConfigChannel)
    i.HAL_ADC_Init                           0x08000484   Section        0  stm32f1xx_hal_adc.o(i.HAL_ADC_Init)
    i.HAL_ADC_MspInit                        0x080005a0   Section        0  adc.o(i.HAL_ADC_MspInit)
    i.HAL_GPIO_EXTI_Callback                 0x080005f8   Section        0  driver_irq.o(i.HAL_GPIO_EXTI_Callback)
    i.HAL_GPIO_EXTI_IRQHandler               0x08000610   Section        0  stm32f1xx_hal_gpio.o(i.HAL_GPIO_EXTI_IRQHandler)
    i.HAL_GPIO_Init                          0x08000628   Section        0  stm32f1xx_hal_gpio.o(i.HAL_GPIO_Init)
    i.HAL_GPIO_ReadPin                       0x08000808   Section        0  stm32f1xx_hal_gpio.o(i.HAL_GPIO_ReadPin)
    i.HAL_GPIO_WritePin                      0x08000812   Section        0  stm32f1xx_hal_gpio.o(i.HAL_GPIO_WritePin)
    i.HAL_GetTick                            0x0800081c   Section        0  stm32f1xx_hal.o(i.HAL_GetTick)
    i.HAL_I2C_Init                           0x08000828   Section        0  stm32f1xx_hal_i2c.o(i.HAL_I2C_Init)
    i.HAL_I2C_Master_Transmit                0x080009b0   Section        0  stm32f1xx_hal_i2c.o(i.HAL_I2C_Master_Transmit)
    i.HAL_I2C_Mem_Write                      0x08000adc   Section        0  stm32f1xx_hal_i2c.o(i.HAL_I2C_Mem_Write)
    i.HAL_I2C_MspInit                        0x08000c0c   Section        0  i2c.o(i.HAL_I2C_MspInit)
    i.HAL_IncTick                            0x08000c68   Section        0  stm32f1xx_hal.o(i.HAL_IncTick)
    i.HAL_Init                               0x08000c78   Section        0  stm32f1xx_hal.o(i.HAL_Init)
    i.HAL_InitTick                           0x08000c9c   Section        0  stm32f1xx_hal_timebase_tim.o(i.HAL_InitTick)
    i.HAL_MspInit                            0x08000d34   Section        0  stm32f1xx_hal_msp.o(i.HAL_MspInit)
    i.HAL_NVIC_EnableIRQ                     0x08000d7c   Section        0  stm32f1xx_hal_cortex.o(i.HAL_NVIC_EnableIRQ)
    i.HAL_NVIC_SetPriority                   0x08000d98   Section        0  stm32f1xx_hal_cortex.o(i.HAL_NVIC_SetPriority)
    i.HAL_NVIC_SetPriorityGrouping           0x08000dd8   Section        0  stm32f1xx_hal_cortex.o(i.HAL_NVIC_SetPriorityGrouping)
    i.HAL_PCD_Init                           0x08000dfc   Section        0  stm32f1xx_hal_pcd.o(i.HAL_PCD_Init)
    i.HAL_PCD_MspInit                        0x08000ed8   Section        0  usb.o(i.HAL_PCD_MspInit)
    i.HAL_RCCEx_PeriphCLKConfig              0x08000f00   Section        0  stm32f1xx_hal_rcc_ex.o(i.HAL_RCCEx_PeriphCLKConfig)
    i.HAL_RCC_ClockConfig                    0x08000fec   Section        0  stm32f1xx_hal_rcc.o(i.HAL_RCC_ClockConfig)
    i.HAL_RCC_GetClockConfig                 0x08001118   Section        0  stm32f1xx_hal_rcc.o(i.HAL_RCC_GetClockConfig)
    i.HAL_RCC_GetPCLK1Freq                   0x08001158   Section        0  stm32f1xx_hal_rcc.o(i.HAL_RCC_GetPCLK1Freq)
    i.HAL_RCC_GetPCLK2Freq                   0x08001178   Section        0  stm32f1xx_hal_rcc.o(i.HAL_RCC_GetPCLK2Freq)
    i.HAL_RCC_GetSysClockFreq                0x08001198   Section        0  stm32f1xx_hal_rcc.o(i.HAL_RCC_GetSysClockFreq)
    i.HAL_RCC_OscConfig                      0x080011e4   Section        0  stm32f1xx_hal_rcc.o(i.HAL_RCC_OscConfig)
    i.HAL_SPI_Init                           0x08001504   Section        0  stm32f1xx_hal_spi.o(i.HAL_SPI_Init)
    i.HAL_SPI_MspInit                        0x080015b8   Section        0  spi.o(i.HAL_SPI_MspInit)
    i.HAL_TIMEx_BreakCallback                0x08001628   Section        0  stm32f1xx_hal_tim_ex.o(i.HAL_TIMEx_BreakCallback)
    i.HAL_TIMEx_CommutCallback               0x0800162a   Section        0  stm32f1xx_hal_tim_ex.o(i.HAL_TIMEx_CommutCallback)
    i.HAL_TIMEx_ConfigBreakDeadTime          0x0800162c   Section        0  stm32f1xx_hal_tim_ex.o(i.HAL_TIMEx_ConfigBreakDeadTime)
    i.HAL_TIMEx_MasterConfigSynchronization  0x08001680   Section        0  stm32f1xx_hal_tim_ex.o(i.HAL_TIMEx_MasterConfigSynchronization)
    i.HAL_TIM_Base_Init                      0x080016e8   Section        0  stm32f1xx_hal_tim.o(i.HAL_TIM_Base_Init)
    i.HAL_TIM_Base_MspInit                   0x08001744   Section        0  tim.o(i.HAL_TIM_Base_MspInit)
    i.HAL_TIM_Base_Start_IT                  0x08001780   Section        0  stm32f1xx_hal_tim.o(i.HAL_TIM_Base_Start_IT)
    i.HAL_TIM_ConfigClockSource              0x080017d8   Section        0  stm32f1xx_hal_tim.o(i.HAL_TIM_ConfigClockSource)
    i.HAL_TIM_IC_CaptureCallback             0x080018b4   Section        0  stm32f1xx_hal_tim.o(i.HAL_TIM_IC_CaptureCallback)
    i.HAL_TIM_IRQHandler                     0x080018b6   Section        0  stm32f1xx_hal_tim.o(i.HAL_TIM_IRQHandler)
    i.HAL_TIM_MspPostInit                    0x08001a1c   Section        0  tim.o(i.HAL_TIM_MspPostInit)
    i.HAL_TIM_OC_DelayElapsedCallback        0x08001b08   Section        0  stm32f1xx_hal_tim.o(i.HAL_TIM_OC_DelayElapsedCallback)
    i.HAL_TIM_PWM_ConfigChannel              0x08001b0a   Section        0  stm32f1xx_hal_tim.o(i.HAL_TIM_PWM_ConfigChannel)
    i.HAL_TIM_PWM_Init                       0x08001bd6   Section        0  stm32f1xx_hal_tim.o(i.HAL_TIM_PWM_Init)
    i.HAL_TIM_PWM_MspInit                    0x08001c30   Section        0  tim.o(i.HAL_TIM_PWM_MspInit)
    i.HAL_TIM_PWM_PulseFinishedCallback      0x08001c58   Section        0  stm32f1xx_hal_tim.o(i.HAL_TIM_PWM_PulseFinishedCallback)
    i.HAL_TIM_PeriodElapsedCallback          0x08001c5c   Section        0  main.o(i.HAL_TIM_PeriodElapsedCallback)
    i.HAL_TIM_TriggerCallback                0x08001c70   Section        0  stm32f1xx_hal_tim.o(i.HAL_TIM_TriggerCallback)
    i.HAL_UART_Init                          0x08001c72   Section        0  stm32f1xx_hal_uart.o(i.HAL_UART_Init)
    i.HAL_UART_MspInit                       0x08001cd8   Section        0  usart.o(i.HAL_UART_MspInit)
    i.HardFault_Handler                      0x08001d48   Section        0  stm32f1xx_it.o(i.HardFault_Handler)
    i.I2C_IsAcknowledgeFailed                0x08001d4a   Section        0  stm32f1xx_hal_i2c.o(i.I2C_IsAcknowledgeFailed)
    I2C_IsAcknowledgeFailed                  0x08001d4b   Thumb Code    46  stm32f1xx_hal_i2c.o(i.I2C_IsAcknowledgeFailed)
    i.I2C_MasterRequestWrite                 0x08001d78   Section        0  stm32f1xx_hal_i2c.o(i.I2C_MasterRequestWrite)
    I2C_MasterRequestWrite                   0x08001d79   Thumb Code   150  stm32f1xx_hal_i2c.o(i.I2C_MasterRequestWrite)
    i.I2C_RequestMemoryWrite                 0x08001e14   Section        0  stm32f1xx_hal_i2c.o(i.I2C_RequestMemoryWrite)
    I2C_RequestMemoryWrite                   0x08001e15   Thumb Code   162  stm32f1xx_hal_i2c.o(i.I2C_RequestMemoryWrite)
    i.I2C_WaitOnBTFFlagUntilTimeout          0x08001ebc   Section        0  stm32f1xx_hal_i2c.o(i.I2C_WaitOnBTFFlagUntilTimeout)
    I2C_WaitOnBTFFlagUntilTimeout            0x08001ebd   Thumb Code    86  stm32f1xx_hal_i2c.o(i.I2C_WaitOnBTFFlagUntilTimeout)
    i.I2C_WaitOnFlagUntilTimeout             0x08001f14   Section        0  stm32f1xx_hal_i2c.o(i.I2C_WaitOnFlagUntilTimeout)
    I2C_WaitOnFlagUntilTimeout               0x08001f15   Thumb Code   144  stm32f1xx_hal_i2c.o(i.I2C_WaitOnFlagUntilTimeout)
    i.I2C_WaitOnMasterAddressFlagUntilTimeout 0x08001fa4   Section        0  stm32f1xx_hal_i2c.o(i.I2C_WaitOnMasterAddressFlagUntilTimeout)
    I2C_WaitOnMasterAddressFlagUntilTimeout  0x08001fa5   Thumb Code   188  stm32f1xx_hal_i2c.o(i.I2C_WaitOnMasterAddressFlagUntilTimeout)
    i.I2C_WaitOnTXEFlagUntilTimeout          0x08002060   Section        0  stm32f1xx_hal_i2c.o(i.I2C_WaitOnTXEFlagUntilTimeout)
    I2C_WaitOnTXEFlagUntilTimeout            0x08002061   Thumb Code    86  stm32f1xx_hal_i2c.o(i.I2C_WaitOnTXEFlagUntilTimeout)
    i.IRReceiver_IRQTimes_Parse              0x080020b8   Section        0  driver_ir_receiver.o(i.IRReceiver_IRQTimes_Parse)
    IRReceiver_IRQTimes_Parse                0x080020b9   Thumb Code   260  driver_ir_receiver.o(i.IRReceiver_IRQTimes_Parse)
    i.IRReceiver_IRQ_Callback                0x080021d8   Section        0  driver_ir_receiver.o(i.IRReceiver_IRQ_Callback)
    i.LCD_Clear                              0x08002290   Section        0  driver_lcd.o(i.LCD_Clear)
    i.LCD_ClearLine                          0x08002294   Section        0  driver_lcd.o(i.LCD_ClearLine)
    i.LCD_Init                               0x08002298   Section        0  driver_lcd.o(i.LCD_Init)
    i.LCD_PrintHex                           0x0800229c   Section        0  driver_lcd.o(i.LCD_PrintHex)
    i.LCD_PrintSignedVal                     0x080022a0   Section        0  driver_lcd.o(i.LCD_PrintSignedVal)
    i.LCD_PrintString                        0x080022a4   Section        0  driver_lcd.o(i.LCD_PrintString)
    i.LcdPrintTask                           0x080022a8   Section        0  freertos.o(i.LcdPrintTask)
    i.MX_ADC1_Init                           0x08002344   Section        0  adc.o(i.MX_ADC1_Init)
    i.MX_FREERTOS_Init                       0x08002394   Section        0  freertos.o(i.MX_FREERTOS_Init)
    i.MX_GPIO_Init                           0x080023dc   Section        0  gpio.o(i.MX_GPIO_Init)
    i.MX_I2C1_Init                           0x0800252c   Section        0  i2c.o(i.MX_I2C1_Init)
    i.MX_SPI1_Init                           0x0800256c   Section        0  spi.o(i.MX_SPI1_Init)
    i.MX_TIM1_Init                           0x080025b4   Section        0  tim.o(i.MX_TIM1_Init)
    i.MX_TIM2_Init                           0x08002684   Section        0  tim.o(i.MX_TIM2_Init)
    i.MX_TIM3_Init                           0x08002740   Section        0  tim.o(i.MX_TIM3_Init)
    i.MX_USART1_UART_Init                    0x080027b8   Section        0  usart.o(i.MX_USART1_UART_Init)
    i.MX_USB_PCD_Init                        0x080027f0   Section        0  usb.o(i.MX_USB_PCD_Init)
    i.MemManage_Handler                      0x08002824   Section        0  stm32f1xx_it.o(i.MemManage_Handler)
    i.NMI_Handler                            0x08002826   Section        0  stm32f1xx_it.o(i.NMI_Handler)
    i.OLED_Clear                             0x08002828   Section        0  driver_oled.o(i.OLED_Clear)
    i.OLED_ClearLine                         0x08002852   Section        0  driver_oled.o(i.OLED_ClearLine)
    i.OLED_Init                              0x08002870   Section        0  driver_oled.o(i.OLED_Init)
    i.OLED_PrintHex                          0x08002904   Section        0  driver_oled.o(i.OLED_PrintHex)
    i.OLED_PrintSignedVal                    0x08002988   Section        0  driver_oled.o(i.OLED_PrintSignedVal)
    i.OLED_PrintString                       0x08002a06   Section        0  driver_oled.o(i.OLED_PrintString)
    i.OLED_PutChar                           0x08002a38   Section        0  driver_oled.o(i.OLED_PutChar)
    i.OLED_SetComConfig                      0x08002a80   Section        0  driver_oled.o(i.OLED_SetComConfig)
    OLED_SetComConfig                        0x08002a81   Thumb Code    44  driver_oled.o(i.OLED_SetComConfig)
    i.OLED_SetPosition                       0x08002aac   Section        0  driver_oled.o(i.OLED_SetPosition)
    i.OLED_WriteCmd                          0x08002aec   Section        0  driver_oled.o(i.OLED_WriteCmd)
    OLED_WriteCmd                            0x08002aed   Thumb Code    34  driver_oled.o(i.OLED_WriteCmd)
    i.OLED_WriteNBytes                       0x08002b14   Section        0  driver_oled.o(i.OLED_WriteNBytes)
    OLED_WriteNBytes                         0x08002b15   Thumb Code    26  driver_oled.o(i.OLED_WriteNBytes)
    i.PutKeyToBuf                            0x08002b34   Section        0  driver_ir_receiver.o(i.PutKeyToBuf)
    PutKeyToBuf                              0x08002b35   Thumb Code    36  driver_ir_receiver.o(i.PutKeyToBuf)
    i.RotaryEncoder_IRQ_Callback             0x08002b60   Section        0  driver_rotary_encoder.o(i.RotaryEncoder_IRQ_Callback)
    i.SysTick_Handler                        0x08002bcc   Section        0  port.o(i.SysTick_Handler)
    i.SystemClock_Config                     0x08002bf8   Section        0  main.o(i.SystemClock_Config)
    i.SystemInit                             0x08002c74   Section        0  system_stm32f1xx.o(i.SystemInit)
    i.TIM4_IRQHandler                        0x08002c78   Section        0  stm32f1xx_it.o(i.TIM4_IRQHandler)
    i.TIM_Base_SetConfig                     0x08002c84   Section        0  stm32f1xx_hal_tim.o(i.TIM_Base_SetConfig)
    i.TIM_ETR_SetConfig                      0x08002cf0   Section        0  stm32f1xx_hal_tim.o(i.TIM_ETR_SetConfig)
    i.TIM_ITRx_SetConfig                     0x08002d04   Section        0  stm32f1xx_hal_tim.o(i.TIM_ITRx_SetConfig)
    TIM_ITRx_SetConfig                       0x08002d05   Thumb Code    16  stm32f1xx_hal_tim.o(i.TIM_ITRx_SetConfig)
    i.TIM_OC1_SetConfig                      0x08002d14   Section        0  stm32f1xx_hal_tim.o(i.TIM_OC1_SetConfig)
    TIM_OC1_SetConfig                        0x08002d15   Thumb Code    74  stm32f1xx_hal_tim.o(i.TIM_OC1_SetConfig)
    i.TIM_OC2_SetConfig                      0x08002d64   Section        0  stm32f1xx_hal_tim.o(i.TIM_OC2_SetConfig)
    i.TIM_OC3_SetConfig                      0x08002dbc   Section        0  stm32f1xx_hal_tim.o(i.TIM_OC3_SetConfig)
    TIM_OC3_SetConfig                        0x08002dbd   Thumb Code    82  stm32f1xx_hal_tim.o(i.TIM_OC3_SetConfig)
    i.TIM_OC4_SetConfig                      0x08002e14   Section        0  stm32f1xx_hal_tim.o(i.TIM_OC4_SetConfig)
    TIM_OC4_SetConfig                        0x08002e15   Thumb Code    64  stm32f1xx_hal_tim.o(i.TIM_OC4_SetConfig)
    i.TIM_TI1_ConfigInputStage               0x08002e58   Section        0  stm32f1xx_hal_tim.o(i.TIM_TI1_ConfigInputStage)
    TIM_TI1_ConfigInputStage                 0x08002e59   Thumb Code    34  stm32f1xx_hal_tim.o(i.TIM_TI1_ConfigInputStage)
    i.TIM_TI2_ConfigInputStage               0x08002e7a   Section        0  stm32f1xx_hal_tim.o(i.TIM_TI2_ConfigInputStage)
    TIM_TI2_ConfigInputStage                 0x08002e7b   Thumb Code    36  stm32f1xx_hal_tim.o(i.TIM_TI2_ConfigInputStage)
    i.UART_SetConfig                         0x08002ea0   Section        0  stm32f1xx_hal_uart.o(i.UART_SetConfig)
    UART_SetConfig                           0x08002ea1   Thumb Code   178  stm32f1xx_hal_uart.o(i.UART_SetConfig)
    i.USB_CoreInit                           0x08002f58   Section        0  stm32f1xx_ll_usb.o(i.USB_CoreInit)
    i.USB_DevDisconnect                      0x08002f5c   Section        0  stm32f1xx_ll_usb.o(i.USB_DevDisconnect)
    i.USB_DevInit                            0x08002f60   Section        0  stm32f1xx_ll_usb.o(i.USB_DevInit)
    i.USB_DisableGlobalInt                   0x08002f72   Section        0  stm32f1xx_ll_usb.o(i.USB_DisableGlobalInt)
    i.USB_SetCurrentMode                     0x08002f80   Section        0  stm32f1xx_ll_usb.o(i.USB_SetCurrentMode)
    i.UsageFault_Handler                     0x08002f84   Section        0  stm32f1xx_it.o(i.UsageFault_Handler)
    i.__NVIC_SetPriority                     0x08002f86   Section        0  stm32f1xx_hal_cortex.o(i.__NVIC_SetPriority)
    __NVIC_SetPriority                       0x08002f87   Thumb Code    32  stm32f1xx_hal_cortex.o(i.__NVIC_SetPriority)
    i.__scatterload_copy                     0x08002fa6   Section       14  handlers.o(i.__scatterload_copy)
    i.__scatterload_null                     0x08002fb4   Section        2  handlers.o(i.__scatterload_null)
    i.__scatterload_zeroinit                 0x08002fb6   Section       14  handlers.o(i.__scatterload_zeroinit)
    i.main                                   0x08002fc4   Section        0  main.o(i.main)
    i.mdelay                                 0x08002ffe   Section        0  driver_timer.o(i.mdelay)
    i.osKernelInitialize                     0x08003018   Section        0  cmsis_os2.o(i.osKernelInitialize)
    i.osKernelStart                          0x08003050   Section        0  cmsis_os2.o(i.osKernelStart)
    i.prvAddCurrentTaskToDelayedList         0x08003090   Section        0  tasks.o(i.prvAddCurrentTaskToDelayedList)
    prvAddCurrentTaskToDelayedList           0x08003091   Thumb Code    84  tasks.o(i.prvAddCurrentTaskToDelayedList)
    i.prvAddNewTaskToReadyList               0x080030ec   Section        0  tasks.o(i.prvAddNewTaskToReadyList)
    prvAddNewTaskToReadyList                 0x080030ed   Thumb Code   190  tasks.o(i.prvAddNewTaskToReadyList)
    i.prvCheckForValidListAndQueue           0x080031bc   Section        0  timers.o(i.prvCheckForValidListAndQueue)
    prvCheckForValidListAndQueue             0x080031bd   Thumb Code    72  timers.o(i.prvCheckForValidListAndQueue)
    i.prvCopyDataFromQueue                   0x08003214   Section        0  queue.o(i.prvCopyDataFromQueue)
    prvCopyDataFromQueue                     0x08003215   Thumb Code    38  queue.o(i.prvCopyDataFromQueue)
    i.prvCopyDataToQueue                     0x0800323a   Section        0  queue.o(i.prvCopyDataToQueue)
    prvCopyDataToQueue                       0x0800323b   Thumb Code   108  queue.o(i.prvCopyDataToQueue)
    i.prvDeleteTCB                           0x080032a6   Section        0  tasks.o(i.prvDeleteTCB)
    prvDeleteTCB                             0x080032a7   Thumb Code    52  tasks.o(i.prvDeleteTCB)
    i.prvHeapInit                            0x080032dc   Section        0  heap_4.o(i.prvHeapInit)
    prvHeapInit                              0x080032dd   Thumb Code    66  heap_4.o(i.prvHeapInit)
    i.prvIdleTask                            0x08003328   Section        0  tasks.o(i.prvIdleTask)
    prvIdleTask                              0x08003329   Thumb Code    82  tasks.o(i.prvIdleTask)
    i.prvInitialiseNewQueue                  0x08003388   Section        0  queue.o(i.prvInitialiseNewQueue)
    prvInitialiseNewQueue                    0x08003389   Thumb Code    34  queue.o(i.prvInitialiseNewQueue)
    i.prvInitialiseNewTask                   0x080033aa   Section        0  tasks.o(i.prvInitialiseNewTask)
    prvInitialiseNewTask                     0x080033ab   Thumb Code   156  tasks.o(i.prvInitialiseNewTask)
    i.prvInsertBlockIntoFreeList             0x08003448   Section        0  heap_4.o(i.prvInsertBlockIntoFreeList)
    prvInsertBlockIntoFreeList               0x08003449   Thumb Code    72  heap_4.o(i.prvInsertBlockIntoFreeList)
    i.prvInsertTimerInActiveList             0x08003494   Section        0  timers.o(i.prvInsertTimerInActiveList)
    prvInsertTimerInActiveList               0x08003495   Thumb Code    52  timers.o(i.prvInsertTimerInActiveList)
    i.prvIsQueueEmpty                        0x080034cc   Section        0  queue.o(i.prvIsQueueEmpty)
    prvIsQueueEmpty                          0x080034cd   Thumb Code    28  queue.o(i.prvIsQueueEmpty)
    i.prvProcessReceivedCommands             0x080034e8   Section        0  timers.o(i.prvProcessReceivedCommands)
    prvProcessReceivedCommands               0x080034e9   Thumb Code   198  timers.o(i.prvProcessReceivedCommands)
    i.prvProcessTimerOrBlockTask             0x080035b4   Section        0  timers.o(i.prvProcessTimerOrBlockTask)
    prvProcessTimerOrBlockTask               0x080035b5   Thumb Code   172  timers.o(i.prvProcessTimerOrBlockTask)
    i.prvResetNextTaskUnblockTime            0x08003668   Section        0  tasks.o(i.prvResetNextTaskUnblockTime)
    prvResetNextTaskUnblockTime              0x08003669   Thumb Code    26  tasks.o(i.prvResetNextTaskUnblockTime)
    i.prvSampleTimeNow                       0x08003688   Section        0  timers.o(i.prvSampleTimeNow)
    prvSampleTimeNow                         0x08003689   Thumb Code    36  timers.o(i.prvSampleTimeNow)
    i.prvSwitchTimerLists                    0x080036b0   Section        0  timers.o(i.prvSwitchTimerLists)
    prvSwitchTimerLists                      0x080036b1   Thumb Code   102  timers.o(i.prvSwitchTimerLists)
    i.prvTaskExitError                       0x0800371c   Section        0  port.o(i.prvTaskExitError)
    prvTaskExitError                         0x0800371d   Thumb Code    36  port.o(i.prvTaskExitError)
    i.prvTimerTask                           0x08003744   Section        0  timers.o(i.prvTimerTask)
    prvTimerTask                             0x08003745   Thumb Code    32  timers.o(i.prvTimerTask)
    i.prvUnlockQueue                         0x08003768   Section        0  queue.o(i.prvUnlockQueue)
    prvUnlockQueue                           0x08003769   Thumb Code   106  queue.o(i.prvUnlockQueue)
    i.pvPortMalloc                           0x080037d4   Section        0  heap_4.o(i.pvPortMalloc)
    i.pxPortInitialiseStack                  0x080038ac   Section        0  port.o(i.pxPortInitialiseStack)
    i.system_get_ns                          0x080038d0   Section        0  driver_timer.o(i.system_get_ns)
    i.udelay                                 0x08003914   Section        0  driver_timer.o(i.udelay)
    i.uxListRemove                           0x0800394c   Section        0  list.o(i.uxListRemove)
    i.vApplicationGetIdleTaskMemory          0x08003974   Section        0  cmsis_os2.o(i.vApplicationGetIdleTaskMemory)
    i.vApplicationGetTimerTaskMemory         0x08003988   Section        0  cmsis_os2.o(i.vApplicationGetTimerTaskMemory)
    i.vListInitialise                        0x080039a0   Section        0  list.o(i.vListInitialise)
    i.vListInitialiseItem                    0x080039b6   Section        0  list.o(i.vListInitialiseItem)
    i.vListInsert                            0x080039bc   Section        0  list.o(i.vListInsert)
    i.vListInsertEnd                         0x080039ec   Section        0  list.o(i.vListInsertEnd)
    i.vPortEnterCritical                     0x08003a04   Section        0  port.o(i.vPortEnterCritical)
    i.vPortExitCritical                      0x08003a44   Section        0  port.o(i.vPortExitCritical)
    i.vPortFree                              0x08003a6c   Section        0  heap_4.o(i.vPortFree)
    i.vPortSetupTimerInterrupt               0x08003ac8   Section        0  port.o(i.vPortSetupTimerInterrupt)
    i.vPortValidateInterruptPriority         0x08003aec   Section        0  port.o(i.vPortValidateInterruptPriority)
    i.vQueueAddToRegistry                    0x08003b40   Section        0  queue.o(i.vQueueAddToRegistry)
    i.vQueueWaitForMessageRestricted         0x08003b68   Section        0  queue.o(i.vQueueWaitForMessageRestricted)
    i.vTaskDelay                             0x08003bac   Section        0  tasks.o(i.vTaskDelay)
    i.vTaskDelete                            0x08003bf8   Section        0  tasks.o(i.vTaskDelete)
    i.vTaskInternalSetTimeOutState           0x08003c88   Section        0  tasks.o(i.vTaskInternalSetTimeOutState)
    i.vTaskMissedYield                       0x08003c98   Section        0  tasks.o(i.vTaskMissedYield)
    i.vTaskPlaceOnEventList                  0x08003ca4   Section        0  tasks.o(i.vTaskPlaceOnEventList)
    i.vTaskPlaceOnEventListRestricted        0x08003cd4   Section        0  tasks.o(i.vTaskPlaceOnEventListRestricted)
    i.vTaskStartScheduler                    0x08003d0c   Section        0  tasks.o(i.vTaskStartScheduler)
    i.vTaskSuspendAll                        0x08003d94   Section        0  tasks.o(i.vTaskSuspendAll)
    i.vTaskSwitchContext                     0x08003da4   Section        0  tasks.o(i.vTaskSwitchContext)
    i.xPortStartScheduler                    0x08003e08   Section        0  port.o(i.xPortStartScheduler)
    i.xQueueGenericCreateStatic              0x08003eb0   Section        0  queue.o(i.xQueueGenericCreateStatic)
    i.xQueueGenericReset                     0x08003f18   Section        0  queue.o(i.xQueueGenericReset)
    i.xQueueGenericSend                      0x08003fa0   Section        0  queue.o(i.xQueueGenericSend)
    i.xQueueGenericSendFromISR               0x08004100   Section        0  queue.o(i.xQueueGenericSendFromISR)
    i.xQueueReceive                          0x080041bc   Section        0  queue.o(i.xQueueReceive)
    i.xTaskCheckForTimeOut                   0x080042f4   Section        0  tasks.o(i.xTaskCheckForTimeOut)
    i.xTaskCreate                            0x08004368   Section        0  tasks.o(i.xTaskCreate)
    i.xTaskCreateStatic                      0x080043c2   Section        0  tasks.o(i.xTaskCreateStatic)
    i.xTaskGetSchedulerState                 0x08004418   Section        0  tasks.o(i.xTaskGetSchedulerState)
    i.xTaskGetTickCount                      0x08004434   Section        0  tasks.o(i.xTaskGetTickCount)
    i.xTaskIncrementTick                     0x08004440   Section        0  tasks.o(i.xTaskIncrementTick)
    i.xTaskPriorityDisinherit                0x08004508   Section        0  tasks.o(i.xTaskPriorityDisinherit)
    i.xTaskRemoveFromEventList               0x08004588   Section        0  tasks.o(i.xTaskRemoveFromEventList)
    i.xTaskResumeAll                         0x080045f8   Section        0  tasks.o(i.xTaskResumeAll)
    i.xTimerCreateTimerTask                  0x080046bc   Section        0  timers.o(i.xTimerCreateTimerTask)
    i.xTimerGenericCommand                   0x0800471c   Section        0  timers.o(i.xTimerGenericCommand)
    .constdata                               0x08004784   Section       18  stm32f1xx_hal_rcc.o(.constdata)
    aPredivFactorTable                       0x08004784   Data           2  stm32f1xx_hal_rcc.o(.constdata)
    aPLLMULFactorTable                       0x08004786   Data          16  stm32f1xx_hal_rcc.o(.constdata)
    .constdata                               0x08004796   Section       16  system_stm32f1xx.o(.constdata)
    .constdata                               0x080047a6   Section        8  system_stm32f1xx.o(.constdata)
    .constdata                               0x080047ae   Section     2048  driver_oled.o(.constdata)
    .data                                    0x20000000   Section       24  freertos.o(.data)
    g_LCDCanUse                              0x20000000   Data           4  freertos.o(.data)
    g_calc_end                               0x20000004   Data           4  freertos.o(.data)
    g_sum                                    0x20000008   Data           4  freertos.o(.data)
    g_time                                   0x20000010   Data           8  freertos.o(.data)
    .data                                    0x20000018   Section       12  stm32f1xx_hal.o(.data)
    .data                                    0x20000024   Section        4  system_stm32f1xx.o(.data)
    .data                                    0x20000028   Section       60  tasks.o(.data)
    pxDelayedTaskList                        0x2000002c   Data           4  tasks.o(.data)
    pxOverflowDelayedTaskList                0x20000030   Data           4  tasks.o(.data)
    uxDeletedTasksWaitingCleanUp             0x20000034   Data           4  tasks.o(.data)
    uxCurrentNumberOfTasks                   0x20000038   Data           4  tasks.o(.data)
    xTickCount                               0x2000003c   Data           4  tasks.o(.data)
    uxTopReadyPriority                       0x20000040   Data           4  tasks.o(.data)
    xSchedulerRunning                        0x20000044   Data           4  tasks.o(.data)
    uxPendedTicks                            0x20000048   Data           4  tasks.o(.data)
    xYieldPending                            0x2000004c   Data           4  tasks.o(.data)
    xNumOfOverflows                          0x20000050   Data           4  tasks.o(.data)
    uxTaskNumber                             0x20000054   Data           4  tasks.o(.data)
    xNextTaskUnblockTime                     0x20000058   Data           4  tasks.o(.data)
    xIdleTaskHandle                          0x2000005c   Data           4  tasks.o(.data)
    uxSchedulerSuspended                     0x20000060   Data           4  tasks.o(.data)
    .data                                    0x20000064   Section       20  timers.o(.data)
    pxCurrentTimerList                       0x20000064   Data           4  timers.o(.data)
    pxOverflowTimerList                      0x20000068   Data           4  timers.o(.data)
    xTimerQueue                              0x2000006c   Data           4  timers.o(.data)
    xTimerTaskHandle                         0x20000070   Data           4  timers.o(.data)
    xLastTime                                0x20000074   Data           4  timers.o(.data)
    .data                                    0x20000078   Section        4  cmsis_os2.o(.data)
    KernelState                              0x20000078   Data           4  cmsis_os2.o(.data)
    .data                                    0x2000007c   Section       24  heap_4.o(.data)
    pxEnd                                    0x2000007c   Data           4  heap_4.o(.data)
    xFreeBytesRemaining                      0x20000080   Data           4  heap_4.o(.data)
    xMinimumEverFreeBytesRemaining           0x20000084   Data           4  heap_4.o(.data)
    xBlockAllocatedBit                       0x20000088   Data           4  heap_4.o(.data)
    xStart                                   0x2000008c   Data           8  heap_4.o(.data)
    .data                                    0x20000094   Section       12  port.o(.data)
    ucMaxSysCallPriority                     0x20000094   Data           1  port.o(.data)
    uxCriticalNesting                        0x20000098   Data           4  port.o(.data)
    ulMaxPRIGROUPValue                       0x2000009c   Data           4  port.o(.data)
    .data                                    0x200000a0   Section        8  driver_oled.o(.data)
    mem_mode                                 0x200000a0   Data           1  driver_oled.o(.data)
    g_pHI2COLED                              0x200000a4   Data           4  driver_oled.o(.data)
    .data                                    0x200000a8   Section       24  driver_ir_receiver.o(.data)
    g_IRReceiverIRQ_Cnt                      0x200000a8   Data           4  driver_ir_receiver.o(.data)
    g_KeysBuf_R                              0x200000ac   Data           4  driver_ir_receiver.o(.data)
    g_KeysBuf_W                              0x200000b0   Data           4  driver_ir_receiver.o(.data)
    pre_time                                 0x200000b8   Data           8  driver_ir_receiver.o(.data)
    .data                                    0x200000c0   Section       24  driver_rotary_encoder.o(.data)
    g_count                                  0x200000c0   Data           4  driver_rotary_encoder.o(.data)
    g_speed                                  0x200000c4   Data           4  driver_rotary_encoder.o(.data)
    pre_count                                0x200000c8   Data           4  driver_rotary_encoder.o(.data)
    pre_time                                 0x200000d0   Data           8  driver_rotary_encoder.o(.data)
    .bss                                     0x200000d8   Section       48  adc.o(.bss)
    .bss                                     0x20000108   Section       84  i2c.o(.bss)
    .bss                                     0x2000015c   Section       88  spi.o(.bss)
    .bss                                     0x200001b4   Section      216  tim.o(.bss)
    .bss                                     0x2000028c   Section       72  usart.o(.bss)
    .bss                                     0x200002d4   Section      752  usb.o(.bss)
    .bss                                     0x200005c4   Section       72  stm32f1xx_hal_timebase_tim.o(.bss)
    .bss                                     0x2000060c   Section       64  queue.o(.bss)
    .bss                                     0x2000064c   Section     1220  tasks.o(.bss)
    pxReadyTasksLists                        0x2000064c   Data        1120  tasks.o(.bss)
    xDelayedTaskList1                        0x20000aac   Data          20  tasks.o(.bss)
    xDelayedTaskList2                        0x20000ac0   Data          20  tasks.o(.bss)
    xPendingReadyList                        0x20000ad4   Data          20  tasks.o(.bss)
    xTasksWaitingTermination                 0x20000ae8   Data          20  tasks.o(.bss)
    xSuspendedTaskList                       0x20000afc   Data          20  tasks.o(.bss)
    .bss                                     0x20000b10   Section      280  timers.o(.bss)
    xActiveTimerList1                        0x20000b10   Data          20  timers.o(.bss)
    xActiveTimerList2                        0x20000b24   Data          20  timers.o(.bss)
    xStaticTimerQueue                        0x20000b38   Data          80  timers.o(.bss)
    ucStaticTimerQueueStorage                0x20000b88   Data         160  timers.o(.bss)
    .bss                                     0x20000c28   Section     1720  cmsis_os2.o(.bss)
    Idle_TCB                                 0x20000c28   Data          92  cmsis_os2.o(.bss)
    Idle_Stack                               0x20000c84   Data         512  cmsis_os2.o(.bss)
    Timer_TCB                                0x20000e84   Data          92  cmsis_os2.o(.bss)
    Timer_Stack                              0x20000ee0   Data        1024  cmsis_os2.o(.bss)
    .bss                                     0x200012e0   Section     3072  heap_4.o(.bss)
    ucHeap                                   0x200012e0   Data        3072  heap_4.o(.bss)
    .bss                                     0x20001ee0   Section      672  driver_ir_receiver.o(.bss)
    g_KeysBuf                                0x20001ee0   Data         128  driver_ir_receiver.o(.bss)
    g_IRReceiverIRQ_Timers                   0x20001f60   Data         544  driver_ir_receiver.o(.bss)
    STACK                                    0x20002180   Section     1024  startup_stm32f103xb.o(STACK)

    Global Symbols

    Symbol Name                              Value     Ov Type        Size  Object(Section)

    BuildAttributes$$THM_ISAv4$P$D$K$B$S$PE$A:L22UL41UL21$X:L11$S22US41US21$IEEE1$IW$USESV6$~STKCKD$USESV7$~SHL$OSPACE$ROPI$EBA8$MICROLIB$REQ8$PRES8$EABIv2 0x00000000   Number         0  anon$$obj.o ABSOLUTE
    __ARM_use_no_argv                        0x00000000   Number         0  main.o ABSOLUTE
    _printf_a                                0x00000000   Number         0  stubs.o ABSOLUTE
    _printf_c                                0x00000000   Number         0  stubs.o ABSOLUTE
    _printf_charcount                        0x00000000   Number         0  stubs.o ABSOLUTE
    _printf_d                                0x00000000   Number         0  stubs.o ABSOLUTE
    _printf_e                                0x00000000   Number         0  stubs.o ABSOLUTE
    _printf_f                                0x00000000   Number         0  stubs.o ABSOLUTE
    _printf_flags                            0x00000000   Number         0  stubs.o ABSOLUTE
    _printf_fp_dec                           0x00000000   Number         0  stubs.o ABSOLUTE
    _printf_fp_hex                           0x00000000   Number         0  stubs.o ABSOLUTE
    _printf_g                                0x00000000   Number         0  stubs.o ABSOLUTE
    _printf_i                                0x00000000   Number         0  stubs.o ABSOLUTE
    _printf_int_dec                          0x00000000   Number         0  stubs.o ABSOLUTE
    _printf_l                                0x00000000   Number         0  stubs.o ABSOLUTE
    _printf_lc                               0x00000000   Number         0  stubs.o ABSOLUTE
    _printf_ll                               0x00000000   Number         0  stubs.o ABSOLUTE
    _printf_lld                              0x00000000   Number         0  stubs.o ABSOLUTE
    _printf_lli                              0x00000000   Number         0  stubs.o ABSOLUTE
    _printf_llo                              0x00000000   Number         0  stubs.o ABSOLUTE
    _printf_llu                              0x00000000   Number         0  stubs.o ABSOLUTE
    _printf_llx                              0x00000000   Number         0  stubs.o ABSOLUTE
    _printf_longlong_dec                     0x00000000   Number         0  stubs.o ABSOLUTE
    _printf_longlong_hex                     0x00000000   Number         0  stubs.o ABSOLUTE
    _printf_longlong_oct                     0x00000000   Number         0  stubs.o ABSOLUTE
    _printf_ls                               0x00000000   Number         0  stubs.o ABSOLUTE
    _printf_mbtowc                           0x00000000   Number         0  stubs.o ABSOLUTE
    _printf_n                                0x00000000   Number         0  stubs.o ABSOLUTE
    _printf_o                                0x00000000   Number         0  stubs.o ABSOLUTE
    _printf_p                                0x00000000   Number         0  stubs.o ABSOLUTE
    _printf_percent                          0x00000000   Number         0  stubs.o ABSOLUTE
    _printf_pre_padding                      0x00000000   Number         0  stubs.o ABSOLUTE
    _printf_return_value                     0x00000000   Number         0  stubs.o ABSOLUTE
    _printf_s                                0x00000000   Number         0  stubs.o ABSOLUTE
    _printf_sizespec                         0x00000000   Number         0  stubs.o ABSOLUTE
    _printf_str                              0x00000000   Number         0  stubs.o ABSOLUTE
    _printf_truncate_signed                  0x00000000   Number         0  stubs.o ABSOLUTE
    _printf_truncate_unsigned                0x00000000   Number         0  stubs.o ABSOLUTE
    _printf_u                                0x00000000   Number         0  stubs.o ABSOLUTE
    _printf_wc                               0x00000000   Number         0  stubs.o ABSOLUTE
    _printf_wctomb                           0x00000000   Number         0  stubs.o ABSOLUTE
    _printf_widthprec                        0x00000000   Number         0  stubs.o ABSOLUTE
    _printf_x                                0x00000000   Number         0  stubs.o ABSOLUTE
    __cpp_initialize__aeabi_                  - Undefined Weak Reference
    __cxa_finalize                            - Undefined Weak Reference
    __decompress                              - Undefined Weak Reference
    _clock_init                               - Undefined Weak Reference
    _microlib_exit                            - Undefined Weak Reference
    __Vectors_Size                           0x000000ec   Number         0  startup_stm32f103xb.o ABSOLUTE
    __Vectors                                0x08000000   Data           4  startup_stm32f103xb.o(RESET)
    __Vectors_End                            0x080000ec   Data           0  startup_stm32f103xb.o(RESET)
    __main                                   0x080000ed   Thumb Code     0  entry.o(.ARM.Collect$$$$00000000)
    _main_stk                                0x080000ed   Thumb Code     0  entry2.o(.ARM.Collect$$$$00000001)
    _main_scatterload                        0x080000f1   Thumb Code     0  entry5.o(.ARM.Collect$$$$00000004)
    __main_after_scatterload                 0x080000f5   Thumb Code     0  entry5.o(.ARM.Collect$$$$00000004)
    _main_clock                              0x080000f5   Thumb Code     0  entry7b.o(.ARM.Collect$$$$00000008)
    _main_cpp_init                           0x080000f5   Thumb Code     0  entry8b.o(.ARM.Collect$$$$0000000A)
    _main_init                               0x080000f5   Thumb Code     0  entry9a.o(.ARM.Collect$$$$0000000B)
    __rt_final_cpp                           0x080000fd   Thumb Code     0  entry10a.o(.ARM.Collect$$$$0000000D)
    __rt_final_exit                          0x080000fd   Thumb Code     0  entry11a.o(.ARM.Collect$$$$0000000F)
    SVC_Handler                              0x08000101   Thumb Code    32  port.o(.emb_text)
    __asm___6_port_c_39a90d8d__prvStartFirstTask 0x08000125   Thumb Code    28  port.o(.emb_text)
    PendSV_Handler                           0x08000145   Thumb Code    72  port.o(.emb_text)
    vPortGetIPSR                             0x08000191   Thumb Code     6  port.o(.emb_text)
    Reset_Handler                            0x08000199   Thumb Code     8  startup_stm32f103xb.o(.text)
    ADC1_2_IRQHandler                        0x080001b3   Thumb Code     0  startup_stm32f103xb.o(.text)
    CAN1_RX1_IRQHandler                      0x080001b3   Thumb Code     0  startup_stm32f103xb.o(.text)
    CAN1_SCE_IRQHandler                      0x080001b3   Thumb Code     0  startup_stm32f103xb.o(.text)
    DMA1_Channel1_IRQHandler                 0x080001b3   Thumb Code     0  startup_stm32f103xb.o(.text)
    DMA1_Channel2_IRQHandler                 0x080001b3   Thumb Code     0  startup_stm32f103xb.o(.text)
    DMA1_Channel3_IRQHandler                 0x080001b3   Thumb Code     0  startup_stm32f103xb.o(.text)
    DMA1_Channel4_IRQHandler                 0x080001b3   Thumb Code     0  startup_stm32f103xb.o(.text)
    DMA1_Channel5_IRQHandler                 0x080001b3   Thumb Code     0  startup_stm32f103xb.o(.text)
    DMA1_Channel6_IRQHandler                 0x080001b3   Thumb Code     0  startup_stm32f103xb.o(.text)
    DMA1_Channel7_IRQHandler                 0x080001b3   Thumb Code     0  startup_stm32f103xb.o(.text)
    EXTI0_IRQHandler                         0x080001b3   Thumb Code     0  startup_stm32f103xb.o(.text)
    EXTI1_IRQHandler                         0x080001b3   Thumb Code     0  startup_stm32f103xb.o(.text)
    EXTI2_IRQHandler                         0x080001b3   Thumb Code     0  startup_stm32f103xb.o(.text)
    EXTI3_IRQHandler                         0x080001b3   Thumb Code     0  startup_stm32f103xb.o(.text)
    EXTI4_IRQHandler                         0x080001b3   Thumb Code     0  startup_stm32f103xb.o(.text)
    EXTI9_5_IRQHandler                       0x080001b3   Thumb Code     0  startup_stm32f103xb.o(.text)
    FLASH_IRQHandler                         0x080001b3   Thumb Code     0  startup_stm32f103xb.o(.text)
    I2C1_ER_IRQHandler                       0x080001b3   Thumb Code     0  startup_stm32f103xb.o(.text)
    I2C1_EV_IRQHandler                       0x080001b3   Thumb Code     0  startup_stm32f103xb.o(.text)
    I2C2_ER_IRQHandler                       0x080001b3   Thumb Code     0  startup_stm32f103xb.o(.text)
    I2C2_EV_IRQHandler                       0x080001b3   Thumb Code     0  startup_stm32f103xb.o(.text)
    PVD_IRQHandler                           0x080001b3   Thumb Code     0  startup_stm32f103xb.o(.text)
    RCC_IRQHandler                           0x080001b3   Thumb Code     0  startup_stm32f103xb.o(.text)
    RTC_Alarm_IRQHandler                     0x080001b3   Thumb Code     0  startup_stm32f103xb.o(.text)
    RTC_IRQHandler                           0x080001b3   Thumb Code     0  startup_stm32f103xb.o(.text)
    SPI1_IRQHandler                          0x080001b3   Thumb Code     0  startup_stm32f103xb.o(.text)
    SPI2_IRQHandler                          0x080001b3   Thumb Code     0  startup_stm32f103xb.o(.text)
    TAMPER_IRQHandler                        0x080001b3   Thumb Code     0  startup_stm32f103xb.o(.text)
    TIM1_BRK_IRQHandler                      0x080001b3   Thumb Code     0  startup_stm32f103xb.o(.text)
    TIM1_CC_IRQHandler                       0x080001b3   Thumb Code     0  startup_stm32f103xb.o(.text)
    TIM1_TRG_COM_IRQHandler                  0x080001b3   Thumb Code     0  startup_stm32f103xb.o(.text)
    TIM1_UP_IRQHandler                       0x080001b3   Thumb Code     0  startup_stm32f103xb.o(.text)
    TIM2_IRQHandler                          0x080001b3   Thumb Code     0  startup_stm32f103xb.o(.text)
    TIM3_IRQHandler                          0x080001b3   Thumb Code     0  startup_stm32f103xb.o(.text)
    USART1_IRQHandler                        0x080001b3   Thumb Code     0  startup_stm32f103xb.o(.text)
    USART2_IRQHandler                        0x080001b3   Thumb Code     0  startup_stm32f103xb.o(.text)
    USART3_IRQHandler                        0x080001b3   Thumb Code     0  startup_stm32f103xb.o(.text)
    USBWakeUp_IRQHandler                     0x080001b3   Thumb Code     0  startup_stm32f103xb.o(.text)
    USB_HP_CAN1_TX_IRQHandler                0x080001b3   Thumb Code     0  startup_stm32f103xb.o(.text)
    USB_LP_CAN1_RX0_IRQHandler               0x080001b3   Thumb Code     0  startup_stm32f103xb.o(.text)
    WWDG_IRQHandler                          0x080001b3   Thumb Code     0  startup_stm32f103xb.o(.text)
    __aeabi_uldivmod                         0x080001bd   Thumb Code    98  uldiv.o(.text)
    __aeabi_llsr                             0x0800021f   Thumb Code    32  llushr.o(.text)
    _ll_ushift_r                             0x0800021f   Thumb Code     0  llushr.o(.text)
    __aeabi_memcpy                           0x0800023f   Thumb Code    36  memcpya.o(.text)
    __aeabi_memcpy4                          0x0800023f   Thumb Code     0  memcpya.o(.text)
    __aeabi_memcpy8                          0x0800023f   Thumb Code     0  memcpya.o(.text)
    __aeabi_memset                           0x08000263   Thumb Code    14  memseta.o(.text)
    __aeabi_memset4                          0x08000263   Thumb Code     0  memseta.o(.text)
    __aeabi_memset8                          0x08000263   Thumb Code     0  memseta.o(.text)
    __aeabi_memclr                           0x08000271   Thumb Code     4  memseta.o(.text)
    __aeabi_memclr4                          0x08000271   Thumb Code     0  memseta.o(.text)
    __aeabi_memclr8                          0x08000271   Thumb Code     0  memseta.o(.text)
    memset                                   0x08000275   Thumb Code    18  memseta.o(.text)
    __aeabi_llsl                             0x08000287   Thumb Code    30  llshl.o(.text)
    _ll_shift_l                              0x08000287   Thumb Code     0  llshl.o(.text)
    __scatterload                            0x080002a5   Thumb Code    28  init.o(.text)
    __scatterload_rt2                        0x080002a5   Thumb Code     0  init.o(.text)
    ADC_ConversionStop_Disable               0x080002c9   Thumb Code    86  stm32f1xx_hal_adc.o(i.ADC_ConversionStop_Disable)
    BusFault_Handler                         0x0800031f   Thumb Code     2  stm32f1xx_it.o(i.BusFault_Handler)
    CalcTask                                 0x08000321   Thumb Code    60  freertos.o(i.CalcTask)
    DebugMon_Handler                         0x08000365   Thumb Code     2  stm32f1xx_it.o(i.DebugMon_Handler)
    EXTI15_10_IRQHandler                     0x08000367   Thumb Code    30  stm32f1xx_it.o(i.EXTI15_10_IRQHandler)
    Error_Handler                            0x08000385   Thumb Code     4  main.o(i.Error_Handler)
    HAL_ADC_ConfigChannel                    0x08000389   Thumb Code   240  stm32f1xx_hal_adc.o(i.HAL_ADC_ConfigChannel)
    HAL_ADC_Init                             0x08000485   Thumb Code   272  stm32f1xx_hal_adc.o(i.HAL_ADC_Init)
    HAL_ADC_MspInit                          0x080005a1   Thumb Code    76  adc.o(i.HAL_ADC_MspInit)
    HAL_GPIO_EXTI_Callback                   0x080005f9   Thumb Code    22  driver_irq.o(i.HAL_GPIO_EXTI_Callback)
    HAL_GPIO_EXTI_IRQHandler                 0x08000611   Thumb Code    18  stm32f1xx_hal_gpio.o(i.HAL_GPIO_EXTI_IRQHandler)
    HAL_GPIO_Init                            0x08000629   Thumb Code   446  stm32f1xx_hal_gpio.o(i.HAL_GPIO_Init)
    HAL_GPIO_ReadPin                         0x08000809   Thumb Code    10  stm32f1xx_hal_gpio.o(i.HAL_GPIO_ReadPin)
    HAL_GPIO_WritePin                        0x08000813   Thumb Code    10  stm32f1xx_hal_gpio.o(i.HAL_GPIO_WritePin)
    HAL_GetTick                              0x0800081d   Thumb Code     6  stm32f1xx_hal.o(i.HAL_GetTick)
    HAL_I2C_Init                             0x08000829   Thumb Code   376  stm32f1xx_hal_i2c.o(i.HAL_I2C_Init)
    HAL_I2C_Master_Transmit                  0x080009b1   Thumb Code   290  stm32f1xx_hal_i2c.o(i.HAL_I2C_Master_Transmit)
    HAL_I2C_Mem_Write                        0x08000add   Thumb Code   294  stm32f1xx_hal_i2c.o(i.HAL_I2C_Mem_Write)
    HAL_I2C_MspInit                          0x08000c0d   Thumb Code    80  i2c.o(i.HAL_I2C_MspInit)
    HAL_IncTick                              0x08000c69   Thumb Code    12  stm32f1xx_hal.o(i.HAL_IncTick)
    HAL_Init                                 0x08000c79   Thumb Code    32  stm32f1xx_hal.o(i.HAL_Init)
    HAL_InitTick                             0x08000c9d   Thumb Code   132  stm32f1xx_hal_timebase_tim.o(i.HAL_InitTick)
    HAL_MspInit                              0x08000d35   Thumb Code    62  stm32f1xx_hal_msp.o(i.HAL_MspInit)
    HAL_NVIC_EnableIRQ                       0x08000d7d   Thumb Code    26  stm32f1xx_hal_cortex.o(i.HAL_NVIC_EnableIRQ)
    HAL_NVIC_SetPriority                     0x08000d99   Thumb Code    60  stm32f1xx_hal_cortex.o(i.HAL_NVIC_SetPriority)
    HAL_NVIC_SetPriorityGrouping             0x08000dd9   Thumb Code    26  stm32f1xx_hal_cortex.o(i.HAL_NVIC_SetPriorityGrouping)
    HAL_PCD_Init                             0x08000dfd   Thumb Code   218  stm32f1xx_hal_pcd.o(i.HAL_PCD_Init)
    HAL_PCD_MspInit                          0x08000ed9   Thumb Code    30  usb.o(i.HAL_PCD_MspInit)
    HAL_RCCEx_PeriphCLKConfig                0x08000f01   Thumb Code   224  stm32f1xx_hal_rcc_ex.o(i.HAL_RCCEx_PeriphCLKConfig)
    HAL_RCC_ClockConfig                      0x08000fed   Thumb Code   280  stm32f1xx_hal_rcc.o(i.HAL_RCC_ClockConfig)
    HAL_RCC_GetClockConfig                   0x08001119   Thumb Code    54  stm32f1xx_hal_rcc.o(i.HAL_RCC_GetClockConfig)
    HAL_RCC_GetPCLK1Freq                     0x08001159   Thumb Code    20  stm32f1xx_hal_rcc.o(i.HAL_RCC_GetPCLK1Freq)
    HAL_RCC_GetPCLK2Freq                     0x08001179   Thumb Code    20  stm32f1xx_hal_rcc.o(i.HAL_RCC_GetPCLK2Freq)
    HAL_RCC_GetSysClockFreq                  0x08001199   Thumb Code    58  stm32f1xx_hal_rcc.o(i.HAL_RCC_GetSysClockFreq)
    HAL_RCC_OscConfig                        0x080011e5   Thumb Code   778  stm32f1xx_hal_rcc.o(i.HAL_RCC_OscConfig)
    HAL_SPI_Init                             0x08001505   Thumb Code   178  stm32f1xx_hal_spi.o(i.HAL_SPI_Init)
    HAL_SPI_MspInit                          0x080015b9   Thumb Code    98  spi.o(i.HAL_SPI_MspInit)
    HAL_TIMEx_BreakCallback                  0x08001629   Thumb Code     2  stm32f1xx_hal_tim_ex.o(i.HAL_TIMEx_BreakCallback)
    HAL_TIMEx_CommutCallback                 0x0800162b   Thumb Code     2  stm32f1xx_hal_tim_ex.o(i.HAL_TIMEx_CommutCallback)
    HAL_TIMEx_ConfigBreakDeadTime            0x0800162d   Thumb Code    84  stm32f1xx_hal_tim_ex.o(i.HAL_TIMEx_ConfigBreakDeadTime)
    HAL_TIMEx_MasterConfigSynchronization    0x08001681   Thumb Code    92  stm32f1xx_hal_tim_ex.o(i.HAL_TIMEx_MasterConfigSynchronization)
    HAL_TIM_Base_Init                        0x080016e9   Thumb Code    90  stm32f1xx_hal_tim.o(i.HAL_TIM_Base_Init)
    HAL_TIM_Base_MspInit                     0x08001745   Thumb Code    52  tim.o(i.HAL_TIM_Base_MspInit)
    HAL_TIM_Base_Start_IT                    0x08001781   Thumb Code    76  stm32f1xx_hal_tim.o(i.HAL_TIM_Base_Start_IT)
    HAL_TIM_ConfigClockSource                0x080017d9   Thumb Code   220  stm32f1xx_hal_tim.o(i.HAL_TIM_ConfigClockSource)
    HAL_TIM_IC_CaptureCallback               0x080018b5   Thumb Code     2  stm32f1xx_hal_tim.o(i.HAL_TIM_IC_CaptureCallback)
    HAL_TIM_IRQHandler                       0x080018b7   Thumb Code   358  stm32f1xx_hal_tim.o(i.HAL_TIM_IRQHandler)
    HAL_TIM_MspPostInit                      0x08001a1d   Thumb Code   212  tim.o(i.HAL_TIM_MspPostInit)
    HAL_TIM_OC_DelayElapsedCallback          0x08001b09   Thumb Code     2  stm32f1xx_hal_tim.o(i.HAL_TIM_OC_DelayElapsedCallback)
    HAL_TIM_PWM_ConfigChannel                0x08001b0b   Thumb Code   204  stm32f1xx_hal_tim.o(i.HAL_TIM_PWM_ConfigChannel)
    HAL_TIM_PWM_Init                         0x08001bd7   Thumb Code    90  stm32f1xx_hal_tim.o(i.HAL_TIM_PWM_Init)
    HAL_TIM_PWM_MspInit                      0x08001c31   Thumb Code    30  tim.o(i.HAL_TIM_PWM_MspInit)
    HAL_TIM_PWM_PulseFinishedCallback        0x08001c59   Thumb Code     2  stm32f1xx_hal_tim.o(i.HAL_TIM_PWM_PulseFinishedCallback)
    HAL_TIM_PeriodElapsedCallback            0x08001c5d   Thumb Code    14  main.o(i.HAL_TIM_PeriodElapsedCallback)
    HAL_TIM_TriggerCallback                  0x08001c71   Thumb Code     2  stm32f1xx_hal_tim.o(i.HAL_TIM_TriggerCallback)
    HAL_UART_Init                            0x08001c73   Thumb Code   100  stm32f1xx_hal_uart.o(i.HAL_UART_Init)
    HAL_UART_MspInit                         0x08001cd9   Thumb Code   100  usart.o(i.HAL_UART_MspInit)
    HardFault_Handler                        0x08001d49   Thumb Code     2  stm32f1xx_it.o(i.HardFault_Handler)
    IRReceiver_IRQ_Callback                  0x080021d9   Thumb Code   158  driver_ir_receiver.o(i.IRReceiver_IRQ_Callback)
    LCD_Clear                                0x08002291   Thumb Code     4  driver_lcd.o(i.LCD_Clear)
    LCD_ClearLine                            0x08002295   Thumb Code     4  driver_lcd.o(i.LCD_ClearLine)
    LCD_Init                                 0x08002299   Thumb Code     4  driver_lcd.o(i.LCD_Init)
    LCD_PrintHex                             0x0800229d   Thumb Code     4  driver_lcd.o(i.LCD_PrintHex)
    LCD_PrintSignedVal                       0x080022a1   Thumb Code     4  driver_lcd.o(i.LCD_PrintSignedVal)
    LCD_PrintString                          0x080022a5   Thumb Code     4  driver_lcd.o(i.LCD_PrintString)
    LcdPrintTask                             0x080022a9   Thumb Code   118  freertos.o(i.LcdPrintTask)
    MX_ADC1_Init                             0x08002345   Thumb Code    70  adc.o(i.MX_ADC1_Init)
    MX_FREERTOS_Init                         0x08002395   Thumb Code    48  freertos.o(i.MX_FREERTOS_Init)
    MX_GPIO_Init                             0x080023dd   Thumb Code   310  gpio.o(i.MX_GPIO_Init)
    MX_I2C1_Init                             0x0800252d   Thumb Code    50  i2c.o(i.MX_I2C1_Init)
    MX_SPI1_Init                             0x0800256d   Thumb Code    62  spi.o(i.MX_SPI1_Init)
    MX_TIM1_Init                             0x080025b5   Thumb Code   198  tim.o(i.MX_TIM1_Init)
    MX_TIM2_Init                             0x08002685   Thumb Code   182  tim.o(i.MX_TIM2_Init)
    MX_TIM3_Init                             0x08002741   Thumb Code   110  tim.o(i.MX_TIM3_Init)
    MX_USART1_UART_Init                      0x080027b9   Thumb Code    48  usart.o(i.MX_USART1_UART_Init)
    MX_USB_PCD_Init                          0x080027f1   Thumb Code    42  usb.o(i.MX_USB_PCD_Init)
    MemManage_Handler                        0x08002825   Thumb Code     2  stm32f1xx_it.o(i.MemManage_Handler)
    NMI_Handler                              0x08002827   Thumb Code     2  stm32f1xx_it.o(i.NMI_Handler)
    OLED_Clear                               0x08002829   Thumb Code    42  driver_oled.o(i.OLED_Clear)
    OLED_ClearLine                           0x08002853   Thumb Code    28  driver_oled.o(i.OLED_ClearLine)
    OLED_Init                                0x08002871   Thumb Code   142  driver_oled.o(i.OLED_Init)
    OLED_PrintHex                            0x08002905   Thumb Code   116  driver_oled.o(i.OLED_PrintHex)
    OLED_PrintSignedVal                      0x08002989   Thumb Code   126  driver_oled.o(i.OLED_PrintSignedVal)
    OLED_PrintString                         0x08002a07   Thumb Code    50  driver_oled.o(i.OLED_PrintString)
    OLED_PutChar                             0x08002a39   Thumb Code    66  driver_oled.o(i.OLED_PutChar)
    OLED_SetPosition                         0x08002aad   Thumb Code    58  driver_oled.o(i.OLED_SetPosition)
    RotaryEncoder_IRQ_Callback               0x08002b61   Thumb Code    96  driver_rotary_encoder.o(i.RotaryEncoder_IRQ_Callback)
    SysTick_Handler                          0x08002bcd   Thumb Code    38  port.o(i.SysTick_Handler)
    SystemClock_Config                       0x08002bf9   Thumb Code   124  main.o(i.SystemClock_Config)
    SystemInit                               0x08002c75   Thumb Code     2  system_stm32f1xx.o(i.SystemInit)
    TIM4_IRQHandler                          0x08002c79   Thumb Code     6  stm32f1xx_it.o(i.TIM4_IRQHandler)
    TIM_Base_SetConfig                       0x08002c85   Thumb Code    94  stm32f1xx_hal_tim.o(i.TIM_Base_SetConfig)
    TIM_ETR_SetConfig                        0x08002cf1   Thumb Code    20  stm32f1xx_hal_tim.o(i.TIM_ETR_SetConfig)
    TIM_OC2_SetConfig                        0x08002d65   Thumb Code    84  stm32f1xx_hal_tim.o(i.TIM_OC2_SetConfig)
    USB_CoreInit                             0x08002f59   Thumb Code     4  stm32f1xx_ll_usb.o(i.USB_CoreInit)
    USB_DevDisconnect                        0x08002f5d   Thumb Code     4  stm32f1xx_ll_usb.o(i.USB_DevDisconnect)
    USB_DevInit                              0x08002f61   Thumb Code    18  stm32f1xx_ll_usb.o(i.USB_DevInit)
    USB_DisableGlobalInt                     0x08002f73   Thumb Code    14  stm32f1xx_ll_usb.o(i.USB_DisableGlobalInt)
    USB_SetCurrentMode                       0x08002f81   Thumb Code     4  stm32f1xx_ll_usb.o(i.USB_SetCurrentMode)
    UsageFault_Handler                       0x08002f85   Thumb Code     2  stm32f1xx_it.o(i.UsageFault_Handler)
    __scatterload_copy                       0x08002fa7   Thumb Code    14  handlers.o(i.__scatterload_copy)
    __scatterload_null                       0x08002fb5   Thumb Code     2  handlers.o(i.__scatterload_null)
    __scatterload_zeroinit                   0x08002fb7   Thumb Code    14  handlers.o(i.__scatterload_zeroinit)
    main                                     0x08002fc5   Thumb Code    58  main.o(i.main)
    mdelay                                   0x08002fff   Thumb Code    26  driver_timer.o(i.mdelay)
    osKernelInitialize                       0x08003019   Thumb Code    50  cmsis_os2.o(i.osKernelInitialize)
    osKernelStart                            0x08003051   Thumb Code    58  cmsis_os2.o(i.osKernelStart)
    pvPortMalloc                             0x080037d5   Thumb Code   210  heap_4.o(i.pvPortMalloc)
    pxPortInitialiseStack                    0x080038ad   Thumb Code    32  port.o(i.pxPortInitialiseStack)
    system_get_ns                            0x080038d1   Thumb Code    58  driver_timer.o(i.system_get_ns)
    udelay                                   0x08003915   Thumb Code    52  driver_timer.o(i.udelay)
    uxListRemove                             0x0800394d   Thumb Code    38  list.o(i.uxListRemove)
    vApplicationGetIdleTaskMemory            0x08003975   Thumb Code    16  cmsis_os2.o(i.vApplicationGetIdleTaskMemory)
    vApplicationGetTimerTaskMemory           0x08003989   Thumb Code    18  cmsis_os2.o(i.vApplicationGetTimerTaskMemory)
    vListInitialise                          0x080039a1   Thumb Code    22  list.o(i.vListInitialise)
    vListInitialiseItem                      0x080039b7   Thumb Code     6  list.o(i.vListInitialiseItem)
    vListInsert                              0x080039bd   Thumb Code    48  list.o(i.vListInsert)
    vListInsertEnd                           0x080039ed   Thumb Code    24  list.o(i.vListInsertEnd)
    vPortEnterCritical                       0x08003a05   Thumb Code    54  port.o(i.vPortEnterCritical)
    vPortExitCritical                        0x08003a45   Thumb Code    34  port.o(i.vPortExitCritical)
    vPortFree                                0x08003a6d   Thumb Code    88  heap_4.o(i.vPortFree)
    vPortSetupTimerInterrupt                 0x08003ac9   Thumb Code    32  port.o(i.vPortSetupTimerInterrupt)
    vPortValidateInterruptPriority           0x08003aed   Thumb Code    74  port.o(i.vPortValidateInterruptPriority)
    vQueueAddToRegistry                      0x08003b41   Thumb Code    34  queue.o(i.vQueueAddToRegistry)
    vQueueWaitForMessageRestricted           0x08003b69   Thumb Code    68  queue.o(i.vQueueWaitForMessageRestricted)
    vTaskDelay                               0x08003bad   Thumb Code    66  tasks.o(i.vTaskDelay)
    vTaskDelete                              0x08003bf9   Thumb Code   130  tasks.o(i.vTaskDelete)
    vTaskInternalSetTimeOutState             0x08003c89   Thumb Code    12  tasks.o(i.vTaskInternalSetTimeOutState)
    vTaskMissedYield                         0x08003c99   Thumb Code     8  tasks.o(i.vTaskMissedYield)
    vTaskPlaceOnEventList                    0x08003ca5   Thumb Code    44  tasks.o(i.vTaskPlaceOnEventList)
    vTaskPlaceOnEventListRestricted          0x08003cd5   Thumb Code    52  tasks.o(i.vTaskPlaceOnEventListRestricted)
    vTaskStartScheduler                      0x08003d0d   Thumb Code   118  tasks.o(i.vTaskStartScheduler)
    vTaskSuspendAll                          0x08003d95   Thumb Code    10  tasks.o(i.vTaskSuspendAll)
    vTaskSwitchContext                       0x08003da5   Thumb Code    90  tasks.o(i.vTaskSwitchContext)
    xPortStartScheduler                      0x08003e09   Thumb Code   154  port.o(i.xPortStartScheduler)
    xQueueGenericCreateStatic                0x08003eb1   Thumb Code   102  queue.o(i.xQueueGenericCreateStatic)
    xQueueGenericReset                       0x08003f19   Thumb Code   132  queue.o(i.xQueueGenericReset)
    xQueueGenericSend                        0x08003fa1   Thumb Code   346  queue.o(i.xQueueGenericSend)
    xQueueGenericSendFromISR                 0x08004101   Thumb Code   188  queue.o(i.xQueueGenericSendFromISR)
    xQueueReceive                            0x080041bd   Thumb Code   308  queue.o(i.xQueueReceive)
    xTaskCheckForTimeOut                     0x080042f5   Thumb Code   112  tasks.o(i.xTaskCheckForTimeOut)
    xTaskCreate                              0x08004369   Thumb Code    90  tasks.o(i.xTaskCreate)
    xTaskCreateStatic                        0x080043c3   Thumb Code    86  tasks.o(i.xTaskCreateStatic)
    xTaskGetSchedulerState                   0x08004419   Thumb Code    22  tasks.o(i.xTaskGetSchedulerState)
    xTaskGetTickCount                        0x08004435   Thumb Code     6  tasks.o(i.xTaskGetTickCount)
    xTaskIncrementTick                       0x08004441   Thumb Code   190  tasks.o(i.xTaskIncrementTick)
    xTaskPriorityDisinherit                  0x08004509   Thumb Code   118  tasks.o(i.xTaskPriorityDisinherit)
    xTaskRemoveFromEventList                 0x08004589   Thumb Code    98  tasks.o(i.xTaskRemoveFromEventList)
    xTaskResumeAll                           0x080045f9   Thumb Code   182  tasks.o(i.xTaskResumeAll)
    xTimerCreateTimerTask                    0x080046bd   Thumb Code    78  timers.o(i.xTimerCreateTimerTask)
    xTimerGenericCommand                     0x0800471d   Thumb Code    98  timers.o(i.xTimerGenericCommand)
    AHBPrescTable                            0x08004796   Data          16  system_stm32f1xx.o(.constdata)
    APBPrescTable                            0x080047a6   Data           8  system_stm32f1xx.o(.constdata)
    ascii_font                               0x080047ae   Data        2048  driver_oled.o(.constdata)
    Region$$Table$$Base                      0x08004fb0   Number         0  anon$$obj.o(Region$$Table)
    Region$$Table$$Limit                     0x08004fd0   Number         0  anon$$obj.o(Region$$Table)
    uwTickFreq                               0x20000018   Data           1  stm32f1xx_hal.o(.data)
    uwTickPrio                               0x2000001c   Data           4  stm32f1xx_hal.o(.data)
    uwTick                                   0x20000020   Data           4  stm32f1xx_hal.o(.data)
    SystemCoreClock                          0x20000024   Data           4  system_stm32f1xx.o(.data)
    pxCurrentTCB                             0x20000028   Data           4  tasks.o(.data)
    hadc1                                    0x200000d8   Data          48  adc.o(.bss)
    hi2c1                                    0x20000108   Data          84  i2c.o(.bss)
    hspi1                                    0x2000015c   Data          88  spi.o(.bss)
    htim1                                    0x200001b4   Data          72  tim.o(.bss)
    htim2                                    0x200001fc   Data          72  tim.o(.bss)
    htim3                                    0x20000244   Data          72  tim.o(.bss)
    huart1                                   0x2000028c   Data          72  usart.o(.bss)
    hpcd_USB_FS                              0x200002d4   Data         752  usb.o(.bss)
    htim4                                    0x200005c4   Data          72  stm32f1xx_hal_timebase_tim.o(.bss)
    xQueueRegistry                           0x2000060c   Data          64  queue.o(.bss)
    __initial_sp                             0x20002580   Data           0  startup_stm32f103xb.o(STACK)



==============================================================================

Memory Map of the image

  Image Entry point : 0x080000ed

  Load Region LR_IROM1 (Base: 0x08000000, Size: 0x000050a8, Max: 0x00010000, ABSOLUTE)

    Execution Region ER_IROM1 (Exec base: 0x08000000, Load base: 0x08000000, Size: 0x00004fd0, Max: 0x00010000, ABSOLUTE)

    Exec Addr    Load Addr    Size         Type   Attr      Idx    E Section Name        Object

    0x08000000   0x08000000   0x000000ec   Data   RO            3    RESET               startup_stm32f103xb.o
    0x080000ec   0x080000ec   0x00000000   Code   RO         7371  * .ARM.Collect$$$$00000000  mc_w.l(entry.o)
    0x080000ec   0x080000ec   0x00000004   Code   RO         7655    .ARM.Collect$$$$00000001  mc_w.l(entry2.o)
    0x080000f0   0x080000f0   0x00000004   Code   RO         7658    .ARM.Collect$$$$00000004  mc_w.l(entry5.o)
    0x080000f4   0x080000f4   0x00000000   Code   RO         7660    .ARM.Collect$$$$00000008  mc_w.l(entry7b.o)
    0x080000f4   0x080000f4   0x00000000   Code   RO         7662    .ARM.Collect$$$$0000000A  mc_w.l(entry8b.o)
    0x080000f4   0x080000f4   0x00000008   Code   RO         7663    .ARM.Collect$$$$0000000B  mc_w.l(entry9a.o)
    0x080000fc   0x080000fc   0x00000000   Code   RO         7665    .ARM.Collect$$$$0000000D  mc_w.l(entry10a.o)
    0x080000fc   0x080000fc   0x00000000   Code   RO         7667    .ARM.Collect$$$$0000000F  mc_w.l(entry11a.o)
    0x080000fc   0x080000fc   0x00000004   Code   RO         7656    .ARM.Collect$$$$00002712  mc_w.l(entry2.o)
    0x08000100   0x08000100   0x00000096   Code   RO         6224    .emb_text           port.o
    0x08000196   0x08000196   0x00000002   PAD
    0x08000198   0x08000198   0x00000024   Code   RO            4    .text               startup_stm32f103xb.o
    0x080001bc   0x080001bc   0x00000062   Code   RO         7374    .text               mc_w.l(uldiv.o)
    0x0800021e   0x0800021e   0x00000020   Code   RO         7376    .text               mc_w.l(llushr.o)
    0x0800023e   0x0800023e   0x00000024   Code   RO         7378    .text               mc_w.l(memcpya.o)
    0x08000262   0x08000262   0x00000024   Code   RO         7382    .text               mc_w.l(memseta.o)
    0x08000286   0x08000286   0x0000001e   Code   RO         7672    .text               mc_w.l(llshl.o)
    0x080002a4   0x080002a4   0x00000024   Code   RO         7685    .text               mc_w.l(init.o)
    0x080002c8   0x080002c8   0x00000056   Code   RO          834    i.ADC_ConversionStop_Disable  stm32f1xx_hal_adc.o
    0x0800031e   0x0800031e   0x00000002   Code   RO          643    i.BusFault_Handler  stm32f1xx_it.o
    0x08000320   0x08000320   0x00000044   Code   RO          242    i.CalcTask          freertos.o
    0x08000364   0x08000364   0x00000002   Code   RO          644    i.DebugMon_Handler  stm32f1xx_it.o
    0x08000366   0x08000366   0x0000001e   Code   RO          645    i.EXTI15_10_IRQHandler  stm32f1xx_it.o
    0x08000384   0x08000384   0x00000004   Code   RO           13    i.Error_Handler     main.o
    0x08000388   0x08000388   0x000000fc   Code   RO          840    i.HAL_ADC_ConfigChannel  stm32f1xx_hal_adc.o
    0x08000484   0x08000484   0x0000011c   Code   RO          849    i.HAL_ADC_Init      stm32f1xx_hal_adc.o
    0x080005a0   0x080005a0   0x00000058   Code   RO          362    i.HAL_ADC_MspInit   adc.o
    0x080005f8   0x080005f8   0x00000016   Code   RO         7215    i.HAL_GPIO_EXTI_Callback  driver_irq.o
    0x0800060e   0x0800060e   0x00000002   PAD
    0x08000610   0x08000610   0x00000018   Code   RO         1426    i.HAL_GPIO_EXTI_IRQHandler  stm32f1xx_hal_gpio.o
    0x08000628   0x08000628   0x000001e0   Code   RO         1427    i.HAL_GPIO_Init     stm32f1xx_hal_gpio.o
    0x08000808   0x08000808   0x0000000a   Code   RO         1429    i.HAL_GPIO_ReadPin  stm32f1xx_hal_gpio.o
    0x08000812   0x08000812   0x0000000a   Code   RO         1431    i.HAL_GPIO_WritePin  stm32f1xx_hal_gpio.o
    0x0800081c   0x0800081c   0x0000000c   Code   RO         1121    i.HAL_GetTick       stm32f1xx_hal.o
    0x08000828   0x08000828   0x00000188   Code   RO         2098    i.HAL_I2C_Init      stm32f1xx_hal_i2c.o
    0x080009b0   0x080009b0   0x0000012c   Code   RO         2111    i.HAL_I2C_Master_Transmit  stm32f1xx_hal_i2c.o
    0x08000adc   0x08000adc   0x00000130   Code   RO         2119    i.HAL_I2C_Mem_Write  stm32f1xx_hal_i2c.o
    0x08000c0c   0x08000c0c   0x0000005c   Code   RO          404    i.HAL_I2C_MspInit   i2c.o
    0x08000c68   0x08000c68   0x00000010   Code   RO         1127    i.HAL_IncTick       stm32f1xx_hal.o
    0x08000c78   0x08000c78   0x00000024   Code   RO         1128    i.HAL_Init          stm32f1xx_hal.o
    0x08000c9c   0x08000c9c   0x00000098   Code   RO          737    i.HAL_InitTick      stm32f1xx_hal_timebase_tim.o
    0x08000d34   0x08000d34   0x00000048   Code   RO          713    i.HAL_MspInit       stm32f1xx_hal_msp.o
    0x08000d7c   0x08000d7c   0x0000001a   Code   RO         1587    i.HAL_NVIC_EnableIRQ  stm32f1xx_hal_cortex.o
    0x08000d96   0x08000d96   0x00000002   PAD
    0x08000d98   0x08000d98   0x00000040   Code   RO         1593    i.HAL_NVIC_SetPriority  stm32f1xx_hal_cortex.o
    0x08000dd8   0x08000dd8   0x00000024   Code   RO         1594    i.HAL_NVIC_SetPriorityGrouping  stm32f1xx_hal_cortex.o
    0x08000dfc   0x08000dfc   0x000000da   Code   RO         4206    i.HAL_PCD_Init      stm32f1xx_hal_pcd.o
    0x08000ed6   0x08000ed6   0x00000002   PAD
    0x08000ed8   0x08000ed8   0x00000028   Code   RO          602    i.HAL_PCD_MspInit   usb.o
    0x08000f00   0x08000f00   0x000000ec   Code   RO         1389    i.HAL_RCCEx_PeriphCLKConfig  stm32f1xx_hal_rcc_ex.o
    0x08000fec   0x08000fec   0x0000012c   Code   RO         1285    i.HAL_RCC_ClockConfig  stm32f1xx_hal_rcc.o
    0x08001118   0x08001118   0x00000040   Code   RO         1289    i.HAL_RCC_GetClockConfig  stm32f1xx_hal_rcc.o
    0x08001158   0x08001158   0x00000020   Code   RO         1292    i.HAL_RCC_GetPCLK1Freq  stm32f1xx_hal_rcc.o
    0x08001178   0x08001178   0x00000020   Code   RO         1293    i.HAL_RCC_GetPCLK2Freq  stm32f1xx_hal_rcc.o
    0x08001198   0x08001198   0x0000004c   Code   RO         1294    i.HAL_RCC_GetSysClockFreq  stm32f1xx_hal_rcc.o
    0x080011e4   0x080011e4   0x00000320   Code   RO         1297    i.HAL_RCC_OscConfig  stm32f1xx_hal_rcc.o
    0x08001504   0x08001504   0x000000b2   Code   RO         2535    i.HAL_SPI_Init      stm32f1xx_hal_spi.o
    0x080015b6   0x080015b6   0x00000002   PAD
    0x080015b8   0x080015b8   0x00000070   Code   RO          446    i.HAL_SPI_MspInit   spi.o
    0x08001628   0x08001628   0x00000002   Code   RO         3552    i.HAL_TIMEx_BreakCallback  stm32f1xx_hal_tim_ex.o
    0x0800162a   0x0800162a   0x00000002   Code   RO         3553    i.HAL_TIMEx_CommutCallback  stm32f1xx_hal_tim_ex.o
    0x0800162c   0x0800162c   0x00000054   Code   RO         3555    i.HAL_TIMEx_ConfigBreakDeadTime  stm32f1xx_hal_tim_ex.o
    0x08001680   0x08001680   0x00000068   Code   RO         3571    i.HAL_TIMEx_MasterConfigSynchronization  stm32f1xx_hal_tim_ex.o
    0x080016e8   0x080016e8   0x0000005a   Code   RO         2848    i.HAL_TIM_Base_Init  stm32f1xx_hal_tim.o
    0x08001742   0x08001742   0x00000002   PAD
    0x08001744   0x08001744   0x0000003c   Code   RO          488    i.HAL_TIM_Base_MspInit  tim.o
    0x08001780   0x08001780   0x00000058   Code   RO         2853    i.HAL_TIM_Base_Start_IT  stm32f1xx_hal_tim.o
    0x080017d8   0x080017d8   0x000000dc   Code   RO         2857    i.HAL_TIM_ConfigClockSource  stm32f1xx_hal_tim.o
    0x080018b4   0x080018b4   0x00000002   Code   RO         2882    i.HAL_TIM_IC_CaptureCallback  stm32f1xx_hal_tim.o
    0x080018b6   0x080018b6   0x00000166   Code   RO         2896    i.HAL_TIM_IRQHandler  stm32f1xx_hal_tim.o
    0x08001a1c   0x08001a1c   0x000000ec   Code   RO          489    i.HAL_TIM_MspPostInit  tim.o
    0x08001b08   0x08001b08   0x00000002   Code   RO         2899    i.HAL_TIM_OC_DelayElapsedCallback  stm32f1xx_hal_tim.o
    0x08001b0a   0x08001b0a   0x000000cc   Code   RO         2920    i.HAL_TIM_PWM_ConfigChannel  stm32f1xx_hal_tim.o
    0x08001bd6   0x08001bd6   0x0000005a   Code   RO         2923    i.HAL_TIM_PWM_Init  stm32f1xx_hal_tim.o
    0x08001c30   0x08001c30   0x00000028   Code   RO          491    i.HAL_TIM_PWM_MspInit  tim.o
    0x08001c58   0x08001c58   0x00000002   Code   RO         2926    i.HAL_TIM_PWM_PulseFinishedCallback  stm32f1xx_hal_tim.o
    0x08001c5a   0x08001c5a   0x00000002   PAD
    0x08001c5c   0x08001c5c   0x00000014   Code   RO           14    i.HAL_TIM_PeriodElapsedCallback  main.o
    0x08001c70   0x08001c70   0x00000002   Code   RO         2939    i.HAL_TIM_TriggerCallback  stm32f1xx_hal_tim.o
    0x08001c72   0x08001c72   0x00000064   Code   RO         3849    i.HAL_UART_Init     stm32f1xx_hal_uart.o
    0x08001cd6   0x08001cd6   0x00000002   PAD
    0x08001cd8   0x08001cd8   0x00000070   Code   RO          560    i.HAL_UART_MspInit  usart.o
    0x08001d48   0x08001d48   0x00000002   Code   RO          646    i.HardFault_Handler  stm32f1xx_it.o
    0x08001d4a   0x08001d4a   0x0000002e   Code   RO         2141    i.I2C_IsAcknowledgeFailed  stm32f1xx_hal_i2c.o
    0x08001d78   0x08001d78   0x0000009c   Code   RO         2145    i.I2C_MasterRequestWrite  stm32f1xx_hal_i2c.o
    0x08001e14   0x08001e14   0x000000a8   Code   RO         2152    i.I2C_RequestMemoryWrite  stm32f1xx_hal_i2c.o
    0x08001ebc   0x08001ebc   0x00000056   Code   RO         2156    i.I2C_WaitOnBTFFlagUntilTimeout  stm32f1xx_hal_i2c.o
    0x08001f12   0x08001f12   0x00000002   PAD
    0x08001f14   0x08001f14   0x00000090   Code   RO         2157    i.I2C_WaitOnFlagUntilTimeout  stm32f1xx_hal_i2c.o
    0x08001fa4   0x08001fa4   0x000000bc   Code   RO         2158    i.I2C_WaitOnMasterAddressFlagUntilTimeout  stm32f1xx_hal_i2c.o
    0x08002060   0x08002060   0x00000056   Code   RO         2160    i.I2C_WaitOnTXEFlagUntilTimeout  stm32f1xx_hal_i2c.o
    0x080020b6   0x080020b6   0x00000002   PAD
    0x080020b8   0x080020b8   0x00000120   Code   RO         6861    i.IRReceiver_IRQTimes_Parse  driver_ir_receiver.o
    0x080021d8   0x080021d8   0x000000b8   Code   RO         6862    i.IRReceiver_IRQ_Callback  driver_ir_receiver.o
    0x08002290   0x08002290   0x00000004   Code   RO         6617    i.LCD_Clear         driver_lcd.o
    0x08002294   0x08002294   0x00000004   Code   RO         6618    i.LCD_ClearLine     driver_lcd.o
    0x08002298   0x08002298   0x00000004   Code   RO         6619    i.LCD_Init          driver_lcd.o
    0x0800229c   0x0800229c   0x00000004   Code   RO         6620    i.LCD_PrintHex      driver_lcd.o
    0x080022a0   0x080022a0   0x00000004   Code   RO         6621    i.LCD_PrintSignedVal  driver_lcd.o
    0x080022a4   0x080022a4   0x00000004   Code   RO         6622    i.LCD_PrintString   driver_lcd.o
    0x080022a8   0x080022a8   0x0000009c   Code   RO          243    i.LcdPrintTask      freertos.o
    0x08002344   0x08002344   0x00000050   Code   RO          363    i.MX_ADC1_Init      adc.o
    0x08002394   0x08002394   0x00000048   Code   RO          244    i.MX_FREERTOS_Init  freertos.o
    0x080023dc   0x080023dc   0x00000150   Code   RO          218    i.MX_GPIO_Init      gpio.o
    0x0800252c   0x0800252c   0x00000040   Code   RO          405    i.MX_I2C1_Init      i2c.o
    0x0800256c   0x0800256c   0x00000048   Code   RO          447    i.MX_SPI1_Init      spi.o
    0x080025b4   0x080025b4   0x000000d0   Code   RO          492    i.MX_TIM1_Init      tim.o
    0x08002684   0x08002684   0x000000bc   Code   RO          493    i.MX_TIM2_Init      tim.o
    0x08002740   0x08002740   0x00000078   Code   RO          494    i.MX_TIM3_Init      tim.o
    0x080027b8   0x080027b8   0x00000038   Code   RO          561    i.MX_USART1_UART_Init  usart.o
    0x080027f0   0x080027f0   0x00000034   Code   RO          603    i.MX_USB_PCD_Init   usb.o
    0x08002824   0x08002824   0x00000002   Code   RO          647    i.MemManage_Handler  stm32f1xx_it.o
    0x08002826   0x08002826   0x00000002   Code   RO          648    i.NMI_Handler       stm32f1xx_it.o
    0x08002828   0x08002828   0x0000002a   Code   RO         6346    i.OLED_Clear        driver_oled.o
    0x08002852   0x08002852   0x0000001c   Code   RO         6347    i.OLED_ClearLine    driver_oled.o
    0x0800286e   0x0800286e   0x00000002   PAD
    0x08002870   0x08002870   0x00000094   Code   RO         6348    i.OLED_Init         driver_oled.o
    0x08002904   0x08002904   0x00000084   Code   RO         6349    i.OLED_PrintHex     driver_oled.o
    0x08002988   0x08002988   0x0000007e   Code   RO         6350    i.OLED_PrintSignedVal  driver_oled.o
    0x08002a06   0x08002a06   0x00000032   Code   RO         6351    i.OLED_PrintString  driver_oled.o
    0x08002a38   0x08002a38   0x00000048   Code   RO         6352    i.OLED_PutChar      driver_oled.o
    0x08002a80   0x08002a80   0x0000002c   Code   RO         6353    i.OLED_SetComConfig  driver_oled.o
    0x08002aac   0x08002aac   0x00000040   Code   RO         6354    i.OLED_SetPosition  driver_oled.o
    0x08002aec   0x08002aec   0x00000028   Code   RO         6356    i.OLED_WriteCmd     driver_oled.o
    0x08002b14   0x08002b14   0x00000020   Code   RO         6357    i.OLED_WriteNBytes  driver_oled.o
    0x08002b34   0x08002b34   0x0000002c   Code   RO         6866    i.PutKeyToBuf       driver_ir_receiver.o
    0x08002b60   0x08002b60   0x0000006c   Code   RO         7168    i.RotaryEncoder_IRQ_Callback  driver_rotary_encoder.o
    0x08002bcc   0x08002bcc   0x0000002c   Code   RO         6225    i.SysTick_Handler   port.o
    0x08002bf8   0x08002bf8   0x0000007c   Code   RO           15    i.SystemClock_Config  main.o
    0x08002c74   0x08002c74   0x00000002   Code   RO         4648    i.SystemInit        system_stm32f1xx.o
    0x08002c76   0x08002c76   0x00000002   PAD
    0x08002c78   0x08002c78   0x0000000c   Code   RO          649    i.TIM4_IRQHandler   stm32f1xx_it.o
    0x08002c84   0x08002c84   0x0000006c   Code   RO         2941    i.TIM_Base_SetConfig  stm32f1xx_hal_tim.o
    0x08002cf0   0x08002cf0   0x00000014   Code   RO         2952    i.TIM_ETR_SetConfig  stm32f1xx_hal_tim.o
    0x08002d04   0x08002d04   0x00000010   Code   RO         2953    i.TIM_ITRx_SetConfig  stm32f1xx_hal_tim.o
    0x08002d14   0x08002d14   0x00000050   Code   RO         2954    i.TIM_OC1_SetConfig  stm32f1xx_hal_tim.o
    0x08002d64   0x08002d64   0x00000058   Code   RO         2955    i.TIM_OC2_SetConfig  stm32f1xx_hal_tim.o
    0x08002dbc   0x08002dbc   0x00000058   Code   RO         2956    i.TIM_OC3_SetConfig  stm32f1xx_hal_tim.o
    0x08002e14   0x08002e14   0x00000044   Code   RO         2957    i.TIM_OC4_SetConfig  stm32f1xx_hal_tim.o
    0x08002e58   0x08002e58   0x00000022   Code   RO         2959    i.TIM_TI1_ConfigInputStage  stm32f1xx_hal_tim.o
    0x08002e7a   0x08002e7a   0x00000024   Code   RO         2961    i.TIM_TI2_ConfigInputStage  stm32f1xx_hal_tim.o
    0x08002e9e   0x08002e9e   0x00000002   PAD
    0x08002ea0   0x08002ea0   0x000000b8   Code   RO         3875    i.UART_SetConfig    stm32f1xx_hal_uart.o
    0x08002f58   0x08002f58   0x00000004   Code   RO         4464    i.USB_CoreInit      stm32f1xx_ll_usb.o
    0x08002f5c   0x08002f5c   0x00000004   Code   RO         4468    i.USB_DevDisconnect  stm32f1xx_ll_usb.o
    0x08002f60   0x08002f60   0x00000012   Code   RO         4469    i.USB_DevInit       stm32f1xx_ll_usb.o
    0x08002f72   0x08002f72   0x0000000e   Code   RO         4470    i.USB_DisableGlobalInt  stm32f1xx_ll_usb.o
    0x08002f80   0x08002f80   0x00000004   Code   RO         4485    i.USB_SetCurrentMode  stm32f1xx_ll_usb.o
    0x08002f84   0x08002f84   0x00000002   Code   RO          650    i.UsageFault_Handler  stm32f1xx_it.o
    0x08002f86   0x08002f86   0x00000020   Code   RO         1600    i.__NVIC_SetPriority  stm32f1xx_hal_cortex.o
    0x08002fa6   0x08002fa6   0x0000000e   Code   RO         7689    i.__scatterload_copy  mc_w.l(handlers.o)
    0x08002fb4   0x08002fb4   0x00000002   Code   RO         7690    i.__scatterload_null  mc_w.l(handlers.o)
    0x08002fb6   0x08002fb6   0x0000000e   Code   RO         7691    i.__scatterload_zeroinit  mc_w.l(handlers.o)
    0x08002fc4   0x08002fc4   0x0000003a   Code   RO           16    i.main              main.o
    0x08002ffe   0x08002ffe   0x0000001a   Code   RO         6503    i.mdelay            driver_timer.o
    0x08003018   0x08003018   0x00000038   Code   RO         5768    i.osKernelInitialize  cmsis_os2.o
    0x08003050   0x08003050   0x00000040   Code   RO         5771    i.osKernelStart     cmsis_os2.o
    0x08003090   0x08003090   0x0000005c   Code   RO         5250    i.prvAddCurrentTaskToDelayedList  tasks.o
    0x080030ec   0x080030ec   0x000000d0   Code   RO         5251    i.prvAddNewTaskToReadyList  tasks.o
    0x080031bc   0x080031bc   0x00000058   Code   RO         5600    i.prvCheckForValidListAndQueue  timers.o
    0x08003214   0x08003214   0x00000026   Code   RO         4853    i.prvCopyDataFromQueue  queue.o
    0x0800323a   0x0800323a   0x0000006c   Code   RO         4854    i.prvCopyDataToQueue  queue.o
    0x080032a6   0x080032a6   0x00000034   Code   RO         5252    i.prvDeleteTCB      tasks.o
    0x080032da   0x080032da   0x00000002   PAD
    0x080032dc   0x080032dc   0x0000004c   Code   RO         6175    i.prvHeapInit       heap_4.o
    0x08003328   0x08003328   0x00000060   Code   RO         5253    i.prvIdleTask       tasks.o
    0x08003388   0x08003388   0x00000022   Code   RO         4856    i.prvInitialiseNewQueue  queue.o
    0x080033aa   0x080033aa   0x0000009c   Code   RO         5254    i.prvInitialiseNewTask  tasks.o
    0x08003446   0x08003446   0x00000002   PAD
    0x08003448   0x08003448   0x0000004c   Code   RO         6176    i.prvInsertBlockIntoFreeList  heap_4.o
    0x08003494   0x08003494   0x00000038   Code   RO         5602    i.prvInsertTimerInActiveList  timers.o
    0x080034cc   0x080034cc   0x0000001c   Code   RO         4857    i.prvIsQueueEmpty   queue.o
    0x080034e8   0x080034e8   0x000000cc   Code   RO         5603    i.prvProcessReceivedCommands  timers.o
    0x080035b4   0x080035b4   0x000000b4   Code   RO         5604    i.prvProcessTimerOrBlockTask  timers.o
    0x08003668   0x08003668   0x00000020   Code   RO         5256    i.prvResetNextTaskUnblockTime  tasks.o
    0x08003688   0x08003688   0x00000028   Code   RO         5605    i.prvSampleTimeNow  timers.o
    0x080036b0   0x080036b0   0x0000006c   Code   RO         5606    i.prvSwitchTimerLists  timers.o
    0x0800371c   0x0800371c   0x00000028   Code   RO         6226    i.prvTaskExitError  port.o
    0x08003744   0x08003744   0x00000024   Code   RO         5607    i.prvTimerTask      timers.o
    0x08003768   0x08003768   0x0000006a   Code   RO         4858    i.prvUnlockQueue    queue.o
    0x080037d2   0x080037d2   0x00000002   PAD
    0x080037d4   0x080037d4   0x000000d8   Code   RO         6177    i.pvPortMalloc      heap_4.o
    0x080038ac   0x080038ac   0x00000024   Code   RO         6227    i.pxPortInitialiseStack  port.o
    0x080038d0   0x080038d0   0x00000044   Code   RO         6504    i.system_get_ns     driver_timer.o
    0x08003914   0x08003914   0x00000038   Code   RO         6505    i.udelay            driver_timer.o
    0x0800394c   0x0800394c   0x00000026   Code   RO         4813    i.uxListRemove      list.o
    0x08003972   0x08003972   0x00000002   PAD
    0x08003974   0x08003974   0x00000014   Code   RO         5817    i.vApplicationGetIdleTaskMemory  cmsis_os2.o
    0x08003988   0x08003988   0x00000018   Code   RO         5818    i.vApplicationGetTimerTaskMemory  cmsis_os2.o
    0x080039a0   0x080039a0   0x00000016   Code   RO         4814    i.vListInitialise   list.o
    0x080039b6   0x080039b6   0x00000006   Code   RO         4815    i.vListInitialiseItem  list.o
    0x080039bc   0x080039bc   0x00000030   Code   RO         4816    i.vListInsert       list.o
    0x080039ec   0x080039ec   0x00000018   Code   RO         4817    i.vListInsertEnd    list.o
    0x08003a04   0x08003a04   0x00000040   Code   RO         6229    i.vPortEnterCritical  port.o
    0x08003a44   0x08003a44   0x00000028   Code   RO         6230    i.vPortExitCritical  port.o
    0x08003a6c   0x08003a6c   0x0000005c   Code   RO         6178    i.vPortFree         heap_4.o
    0x08003ac8   0x08003ac8   0x00000024   Code   RO         6231    i.vPortSetupTimerInterrupt  port.o
    0x08003aec   0x08003aec   0x00000054   Code   RO         6232    i.vPortValidateInterruptPriority  port.o
    0x08003b40   0x08003b40   0x00000028   Code   RO         4864    i.vQueueAddToRegistry  queue.o
    0x08003b68   0x08003b68   0x00000044   Code   RO         4868    i.vQueueWaitForMessageRestricted  queue.o
    0x08003bac   0x08003bac   0x0000004c   Code   RO         5268    i.vTaskDelay        tasks.o
    0x08003bf8   0x08003bf8   0x00000090   Code   RO         5270    i.vTaskDelete       tasks.o
    0x08003c88   0x08003c88   0x00000010   Code   RO         5273    i.vTaskInternalSetTimeOutState  tasks.o
    0x08003c98   0x08003c98   0x0000000c   Code   RO         5274    i.vTaskMissedYield  tasks.o
    0x08003ca4   0x08003ca4   0x00000030   Code   RO         5276    i.vTaskPlaceOnEventList  tasks.o
    0x08003cd4   0x08003cd4   0x00000038   Code   RO         5277    i.vTaskPlaceOnEventListRestricted  tasks.o
    0x08003d0c   0x08003d0c   0x00000088   Code   RO         5285    i.vTaskStartScheduler  tasks.o
    0x08003d94   0x08003d94   0x00000010   Code   RO         5287    i.vTaskSuspendAll   tasks.o
    0x08003da4   0x08003da4   0x00000064   Code   RO         5288    i.vTaskSwitchContext  tasks.o
    0x08003e08   0x08003e08   0x000000a8   Code   RO         6233    i.xPortStartScheduler  port.o
    0x08003eb0   0x08003eb0   0x00000066   Code   RO         4874    i.xQueueGenericCreateStatic  queue.o
    0x08003f16   0x08003f16   0x00000002   PAD
    0x08003f18   0x08003f18   0x00000088   Code   RO         4875    i.xQueueGenericReset  queue.o
    0x08003fa0   0x08003fa0   0x00000160   Code   RO         4876    i.xQueueGenericSend  queue.o
    0x08004100   0x08004100   0x000000bc   Code   RO         4877    i.xQueueGenericSendFromISR  queue.o
    0x080041bc   0x080041bc   0x00000138   Code   RO         4886    i.xQueueReceive     queue.o
    0x080042f4   0x080042f4   0x00000074   Code   RO         5289    i.xTaskCheckForTimeOut  tasks.o
    0x08004368   0x08004368   0x0000005a   Code   RO         5290    i.xTaskCreate       tasks.o
    0x080043c2   0x080043c2   0x00000056   Code   RO         5291    i.xTaskCreateStatic  tasks.o
    0x08004418   0x08004418   0x0000001c   Code   RO         5295    i.xTaskGetSchedulerState  tasks.o
    0x08004434   0x08004434   0x0000000c   Code   RO         5296    i.xTaskGetTickCount  tasks.o
    0x08004440   0x08004440   0x000000c8   Code   RO         5298    i.xTaskIncrementTick  tasks.o
    0x08004508   0x08004508   0x00000080   Code   RO         5301    i.xTaskPriorityDisinherit  tasks.o
    0x08004588   0x08004588   0x00000070   Code   RO         5303    i.xTaskRemoveFromEventList  tasks.o
    0x080045f8   0x080045f8   0x000000c4   Code   RO         5304    i.xTaskResumeAll    tasks.o
    0x080046bc   0x080046bc   0x00000060   Code   RO         5614    i.xTimerCreateTimerTask  timers.o
    0x0800471c   0x0800471c   0x00000068   Code   RO         5615    i.xTimerGenericCommand  timers.o
    0x08004784   0x08004784   0x00000012   Data   RO         1298    .constdata          stm32f1xx_hal_rcc.o
    0x08004796   0x08004796   0x00000010   Data   RO         4649    .constdata          system_stm32f1xx.o
    0x080047a6   0x080047a6   0x00000008   Data   RO         4650    .constdata          system_stm32f1xx.o
    0x080047ae   0x080047ae   0x00000800   Data   RO         6358    .constdata          driver_oled.o
    0x08004fae   0x08004fae   0x00000002   PAD
    0x08004fb0   0x08004fb0   0x00000020   Data   RO         7687    Region$$Table       anon$$obj.o


    Execution Region RW_IRAM1 (Exec base: 0x20000000, Load base: 0x08004fd0, Size: 0x00002580, Max: 0x00005000, ABSOLUTE)

    Exec Addr    Load Addr    Size         Type   Attr      Idx    E Section Name        Object

    0x20000000   0x08004fd0   0x00000018   Data   RW          248    .data               freertos.o
    0x20000018   0x08004fe8   0x0000000c   Data   RW         1135    .data               stm32f1xx_hal.o
    0x20000024   0x08004ff4   0x00000004   Data   RW         4651    .data               system_stm32f1xx.o
    0x20000028   0x08004ff8   0x0000003c   Data   RW         5307    .data               tasks.o
    0x20000064   0x08005034   0x00000014   Data   RW         5623    .data               timers.o
    0x20000078   0x08005048   0x00000004   Data   RW         5820    .data               cmsis_os2.o
    0x2000007c   0x0800504c   0x00000018   Data   RW         6183    .data               heap_4.o
    0x20000094   0x08005064   0x0000000c   Data   RW         6234    .data               port.o
    0x200000a0   0x08005070   0x00000008   Data   RW         6359    .data               driver_oled.o
    0x200000a8   0x08005078   0x00000018   Data   RW         6870    .data               driver_ir_receiver.o
    0x200000c0   0x08005090   0x00000018   Data   RW         7172    .data               driver_rotary_encoder.o
    0x200000d8        -       0x00000030   Zero   RW          364    .bss                adc.o
    0x20000108        -       0x00000054   Zero   RW          406    .bss                i2c.o
    0x2000015c        -       0x00000058   Zero   RW          448    .bss                spi.o
    0x200001b4        -       0x000000d8   Zero   RW          495    .bss                tim.o
    0x2000028c        -       0x00000048   Zero   RW          562    .bss                usart.o
    0x200002d4        -       0x000002f0   Zero   RW          604    .bss                usb.o
    0x200005c4        -       0x00000048   Zero   RW          740    .bss                stm32f1xx_hal_timebase_tim.o
    0x2000060c        -       0x00000040   Zero   RW         4890    .bss                queue.o
    0x2000064c        -       0x000004c4   Zero   RW         5306    .bss                tasks.o
    0x20000b10        -       0x00000118   Zero   RW         5622    .bss                timers.o
    0x20000c28        -       0x000006b8   Zero   RW         5819    .bss                cmsis_os2.o
    0x200012e0        -       0x00000c00   Zero   RW         6182    .bss                heap_4.o
    0x20001ee0        -       0x000002a0   Zero   RW         6867    .bss                driver_ir_receiver.o
    0x20002180        -       0x00000400   Zero   RW            1    STACK               startup_stm32f103xb.o


==============================================================================

Image component sizes


      Code (inc. data)   RO Data    RW Data    ZI Data      Debug   Object Name

       168         22          0          0         48       1645   adc.o
       164         22          0          4       1720      12254   cmsis_os2.o
       516         62          0         24        672       3488   driver_ir_receiver.o
        22          0          0          0          0        533   driver_irq.o
        24          0          0          0          0       3169   driver_lcd.o
       778         46       2048          8          0      10780   driver_oled.o
       108         12          0         24          0       2563   driver_rotary_encoder.o
       150         14          0          0          0       2402   driver_timer.o
         0          0          0          0          0      20172   event_groups.o
       296         70          0         24          0       8584   freertos.o
       336         26          0          0          0       1051   gpio.o
       460         24          0         24       3072       4671   heap_4.o
       156         26          0          0         84       1633   i2c.o
       138          0          0          0          0       3398   list.o
       206          6          0          0          0     479520   main.o
       662         70          0         12          0      10813   port.o
      1512         20          0          0         64      16892   queue.o
       184         24          0          0         88       1657   spi.o
        36          8        236          0       1024        804   startup_stm32f103xb.o
        64         14          0         12          0       4646   stm32f1xx_hal.o
       622         24          0          0          0       3300   stm32f1xx_hal_adc.o
       158         14          0          0          0      28190   stm32f1xx_hal_cortex.o
       524         40          0          0          0       4114   stm32f1xx_hal_gpio.o
      1870         48          0          0          0      11381   stm32f1xx_hal_i2c.o
        72         10          0          0          0        874   stm32f1xx_hal_msp.o
       218          0          0          0          0       1508   stm32f1xx_hal_pcd.o
      1304         94         18          0          0       5741   stm32f1xx_hal_rcc.o
       236         12          0          0          0       1388   stm32f1xx_hal_rcc_ex.o
       178          0          0          0          0       1235   stm32f1xx_hal_spi.o
      1596         46          0          0          0      14112   stm32f1xx_hal_tim.o
       192         12          0          0          0       3193   stm32f1xx_hal_tim_ex.o
       152         20          0          0         72       1479   stm32f1xx_hal_timebase_tim.o
       284          6          0          0          0       1936   stm32f1xx_hal_uart.o
        54          6          0          0          0       3518   stm32f1xx_it.o
        44          0          0          0          0       3348   stm32f1xx_ll_usb.o
         0          0          0          0          0       8888   stream_buffer.o
         2          0         24          4          0       1119   system_stm32f1xx.o
      2208        184          0         60       1220      24082   tasks.o
       852         68          0          0        216       4552   tim.o
       912         82          0         20        280      25991   timers.o
       168         20          0          0         72       1678   usart.o
        92         20          0          0        752       1530   usb.o

    ----------------------------------------------------------------------
     17754       1172       2360        216       9384     743832   Object Totals
         0          0         32          0          0          0   (incl. Generated)
        36          0          2          0          0          0   (incl. Padding)

    ----------------------------------------------------------------------

      Code (inc. data)   RO Data    RW Data    ZI Data      Debug   Library Member Name

         0          0          0          0          0          0   entry.o
         0          0          0          0          0          0   entry10a.o
         0          0          0          0          0          0   entry11a.o
         8          4          0          0          0          0   entry2.o
         4          0          0          0          0          0   entry5.o
         0          0          0          0          0          0   entry7b.o
         0          0          0          0          0          0   entry8b.o
         8          4          0          0          0          0   entry9a.o
        30          0          0          0          0          0   handlers.o
        36          8          0          0          0         68   init.o
        30          0          0          0          0         68   llshl.o
        32          0          0          0          0         68   llushr.o
        36          0          0          0          0         68   memcpya.o
        36          0          0          0          0        108   memseta.o
        98          0          0          0          0         92   uldiv.o

    ----------------------------------------------------------------------
       318         16          0          0          0        472   Library Totals
         0          0          0          0          0          0   (incl. Padding)

    ----------------------------------------------------------------------

      Code (inc. data)   RO Data    RW Data    ZI Data      Debug   Library Name

       318         16          0          0          0        472   mc_w.l

    ----------------------------------------------------------------------
       318         16          0          0          0        472   Library Totals

    ----------------------------------------------------------------------

==============================================================================


      Code (inc. data)   RO Data    RW Data    ZI Data      Debug   

     18072       1188       2360        216       9384     734680   Grand Totals
     18072       1188       2360        216       9384     734680   ELF Image Totals
     18072       1188       2360        216          0          0   ROM Totals

==============================================================================

    Total RO  Size (Code + RO Data)                20432 (  19.95kB)
    Total RW  Size (RW Data + ZI Data)              9600 (   9.38kB)
    Total ROM Size (Code + RO Data + RW Data)      20648 (  20.16kB)

==============================================================================

