:020000040800F2
:100000006820002021020008A71700085F130008DD
:10001000A51700086B040008DD1A000800000000A6
:10002000000000000000000000000000890100083E
:100030006D04000800000000CD010008D919000877
:100040003B0200083B0200083B0200083B0200089C
:100050003B0200083B0200083B0200083B0200088C
:100060003B0200083B0200083B0200083B0200087C
:100070003B0200083B0200083B0200083B0200086C
:100080003B0200083B0200083B0200083B0200085C
:100090003B0200083B0200083B0200083B0200084C
:1000A0003B0200083B0200083B0200083B0200083C
:1000B0003B0200083B020008651A00083B020008EA
:1000C0003B0200083B0200083B0200083B0200081C
:1000D0003B0200083B0200083B0200083B0200080C
:1000E0003B0200083B0200083B02000800F002F857
:1000F00000F03AF80AA090E8000C82448344AAF188
:100100000107DA4501D100F02FF8AFF2090EBAE885
:100110000F0013F0010F18BFFB1A43F0010318473B
:100120001039000030390000103A24BF78C878C177
:10013000FAD8520724BF30C830C144BF04680C60ED
:10014000704700000023002400250026103A28BF35
:1001500078C1FBD8520728BF30C148BF0B60704739
:100160001FB51FBD10B510BD00F045F91146FFF7D2
:10017000F7FF01F0C4FC00F063F903B4FFF7F2FFEE
:1001800003BC00F06BF90000224B19680868B0E866
:10019000F00F80F30988BFF36F8F4FF0000080F3FA
:1001A00011884EF00D0E70470000000006480068F0
:1001B000006880F3088862B661B6BFF34F8FBFF363
:1001C0006F8F00DF00BF00BF08ED00E0EFF3098094
:1001D000BFF36F8F0F4B1A6820E9F00F106008B55E
:1001E0004FF0500080F31188BFF34F8FBFF36F8F34
:1001F00002F000FB4FF0000080F31188BDE80840DA
:1002000019680868B0E8F00F80F30988BFF36F8FB2
:10021000704700BF14000020EFF305807047000016
:100220000948804709480047FEE7FEE7FEE7FEE78A
:10023000FEE7FEE7FEE7FEE7FEE7FEE704480549C6
:10024000054A064B70470000631A0008ED000008DD
:10025000681A002068200020681C0020681C00200C
:10026000032A40F2308010F0030C00F0158011F8E2
:10027000013BBCF1020F624498BF11F801CB00F8BA
:10028000013B38BF11F8013BA2F1040298BF00F80E
:1002900001CB38BF00F8013B11F0030300F0578099
:1002A000083AC0F0088051F8043B083A51F804CBF2
:1002B000A0E80810F5E7121D5CBF51F8043B40F8B8
:1002C000043BAFF30080D20724BF11F8013B11F8C3
:1002D00001CB48BF11F8012B24BF00F8013B00F807
:1002E00001CB48BF00F8012B704702F0FF0343EA3F
:1002F000032242EA024200F05EB84FF0000200B56D
:10030000134694469646203922BFA0E80C50A0E838
:100310000C50B1F12001BFF4F7AF090728BFA0E8E6
:100320000C5048BF0CC05DF804EB890028BF40F8B2
:10033000042B08BF704748BF20F8022B11F0804FF4
:1003400018BF00F8012B704770477047704710B511
:10035000203AC0F00B80B1E81850203AA0E81850BD
:10036000B1E81850A0E81850BFF4F5AF5FEA027C7E
:1003700024BFB1E81850A0E8185044BF18C918C0ED
:10038000BDE810405FEA827C24BF51F8043B40F88E
:10039000043B08BF7047D20728BF31F8023B48BF73
:1003A00011F8012B28BF20F8023B48BF00F8012BB1
:1003B00070474FF000020429C0F0128010F0030CC7
:1003C0003FF49DAFCCF1040CBCF1020F18BF00F854
:1003D000012BA8BF20F8022BA1EB0C01FFF78FBF68
:1003E0005FEAC17C24BF00F8012B00F8012B48BF55
:1003F00000F8012B7047754600F02CF8AE4605005A
:100400006946534620F00700854618B020B5FFF72F
:1004100015FFBDE820404FF000064FF000074FF0F9
:1004200000084FF0000B21F00701AC46ACE8C00912
:10043000ACE8C009ACE8C009ACE8C0098D4670471B
:1004400010B50446AFF300802046BDE81040FFF72A
:1004500094BE000000487047041A0020014918208B
:10046000ABBEFEE7260002007047FEE7704772B69B
:10047000FEE700002DE9F84FDFF8B8910024A9F15C
:10048000040B23460F2709F1040AABF1040EC9E05F
:100490000125A5402A40AA427DD1674ED1F804C06B
:1004A000ACEB0608B44532D014DCBCF1030F3AD0F3
:1004B00009DCBCF1000F2AD0BCF1010F1CD0BCF14B
:1004C000020F31D11DE0BCF1110F17D0BCF1120F9A
:1004D0002AD119E0B8F5881F19D006DCB8F5803F9D
:1004E00015D0B8F5801F1FD111E0B8F5001F0ED050
:1004F000B8F5041F18D10AE0CB6815E0CB681B1DC6
:1005000012E0CB6808330FE0CB680C330CE08B684B
:100510002BB1012B4FF0080303D0456104E0042305
:1005200002E0056100E00023FF2A01D8064601E051
:1005300000F104064FEA840501D9A5F12005D6F89B
:10054000008007FA05FC28EA0C0803FA05F548EADA
:100550000508C6F800804D68ED0062D5374DAE69DC
:1005600046F00106AE61AD6924F0030605F0010511
:100570000095334D06EB050CDCF80850A607360F46
:1005800007FA06F825EA0805DFF8B880404503D1E8
:100590004FF0000817E044E0DFF8AC80404502D19E
:1005A0004FF001080FE0DFF8A480404502D14FF082
:1005B000020808E0DFF89880404502D14FF00308B8
:1005C00001E04FF0040808FA06F848EA0508CCF8FC
:1005D00008804D68D9F80060ED024D4601D51643FC
:1005E00000E096432E604D68DAF80060AD02554693
:1005F00001D5164300E096432E604D68DBF800609D
:10060000AD035D4601D5164300E096432E604D686C
:10061000DEF80060ED03754601D5164300E0964311
:100620002E60641C0D682A46E5407FF431AFBDE8BA
:10063000F88F000008040140000011100010024073
:100640000000014000080140000C01400010014082
:10065000001401400AB1016170470904FBE7000082
:1006600001488068704700000400002070B5040055
:1006700025D094F83D00002520B984F83C50204650
:1006800000F0E6F9242084F83D002068016821F09C
:10069000010101602068016841F4004101602068A7
:1006A000016821F40041016000F076FB4D4A616869
:1006B000914201D84C4900E04C49884201D20120C6
:1006C00070BD4B492368B0FBF1F15E6826F03F0630
:1006D0000E435E606368934206D94FF496735943A4
:1006E0004FF47A73B1FBF3F12368491C1E6A26F0BC
:1006F0003F06314319626168914210D84900401E9B
:10070000B0FBF1F2521CC2F30B02042A01D2042006
:1007100022E0B0FBF1F0401CC0F30B001CE0A2682B
:10072000F2B301EBC10303EB0116431EB3FBF6F377
:100730005B1C43F480431B0549D092B301EBC1021B
:1007400002EB0111401EB0FBF1F0401CC0F30B00A6
:1007500040F4804040F400402168CA694CF6FF73C1
:100760009A431043C861D4E9071001432068026826
:1007700022F0C00211430160D4E903010143206863
:10078000826848F2FF339A4311438160D4E905013E
:1007900008432168CA6822F0FF021043C86001E0E4
:1007A0000EE016E02068016841F001010160256457
:1007B000202084F83D00256384F83E50002070BD61
:1007C00001EB4106431EB3FBF6F35B1CB3E70120CC
:1007D000C2E701EB4101401EB0FBF1F0401CC0F349
:1007E0000B00B7E7A086010080841E0000093D00D1
:1007F00040420F002DE9F84F1F4690468A460446B6
:10080000DDF82890FFF72CFF054694F83D002028DE
:100810007FD11923012240492046009500F086FE31
:10082000002876D194F83C00012872D0012084F889
:100830003C0020680168C90703D1016841F001014B
:1008400001602068016821F400610160212084F8C2
:100850003D00102084F83E0000262664C4F8248061
:100860006785608D20852D48E0622B464A465146BB
:10087000204600F08DFD90B92068416980690090A4
:1008800036E02A464946204600F0F6FE50B1206C7C
:10089000042804D12068016841F40071016001203E
:1008A000BDE8F88F606A216800780861606A401CC2
:1008B0006062618D491E6185218D491E89B2218545
:1008C00022685369DB435B070BD451B10078106198
:1008D000606A401C6062608D401E6085208D401EF5
:1008E00020852A464946204600F0F4FD0028CED156
:1008F000208D0028C5D154F83D0B016841F40071EA
:100900000160202004F81E09E67766770020C7E71B
:10091000FFE70220C4E70000020010000000FFFF14
:100920002DE9FF4F83B09A46DDE9119793460446BF
:10093000DDF84080FFF794FE054694F83D0020283E
:100940007FD11923012240492046009500F0EEFD99
:10095000002876D194F83C00012872D0012084F858
:100960003C0020680168C90703D1016841F001011A
:1009700001602068016821F400610160212084F891
:100980003D00402084F83E0000262664C4F8248000
:10099000A4F82A90608D20852C48E062CDE900758E
:1009A00053465A462046049900F040FD70B930E0A5
:1009B0002A463946204600F05FFE58B1206C0428D4
:1009C00004D12068016841F400710160012007B082
:1009D000BDE8F08F606A216800780861606A401C99
:1009E0006062218D491E89B22185628D521E628509
:1009F00022685369DB435B070BD469B1007810614F
:100A0000606A401C6062208D401E2085608D401E03
:100A10006085208D0028CBD12A463946204600F03B
:100A200059FD0028CAD154F83D0B016841F400710A
:100A30000160202004F81E09E67766770020C6E7EB
:100A4000FFE70220C3E70000020010000000FFFFE4
:100A500010B586B0002100910191029103910068C8
:100A60000F4988421AD10F4CA06940F00800A061DC
:100A7000A069694600F008000490C0200090122090
:100A80000190032003900848FFF7F4FCE06940F46C
:100A90000010E061E06900F40010049006B010BDA1
:100AA0000054004000100240000C014002488168E0
:100AB000027811448160704704000020074810B597
:100AC000016841F010010160032000F09DF80F2043
:100AD00000F006F800F050F8002010BD00200240A1
:100AE00030B505461F4887B0C16941F00401C161B6
:100AF000C06906A900F00400009001A800F02CF9DC
:100B00000498B0B100F048F940001749174AB0FB0B
:100B1000F1F11748491E0260416040F2E7320021BE
:100B2000C0E903218160816100F0FEFA040003D076
:100B300015E000F031F9E8E70D4800F023FB040070
:100B40000DD11E2000F032F8102D07D200222946C8
:100B50001E2000F039F80748056000E0012407B0C6
:100B6000204630BD0010024040420F000008004007
:100B7000E8000020080000200B4882B0816941F0A5
:100B800001018161816901F001010091C16941F0B8
:100B90008051C161C069002200F0805000900F2197
:100BA000901E02B000F010B800100240002809DBCF
:100BB00000F01F02012191404009800000F1E02077
:100BC000C0F8001170470000F0B40E4B1B680C46D3
:100BD000C3F30223C3F10705042D00D90425191D11
:100BE000072901D2002300E0DB1E012606FA05F1E9
:100BF000491E214099409E40761E16403143F0BC6C
:100C000000F06DBF0CED00E0064900F00702086837
:100C10004FF6FF03184040EA0220034A10430860E1
:100C2000704700000CED00E00000FA052DE9F047E8
:100C30000F46050061D0434E306800F00700B8420F
:100C400009D2306820F0070038433060306800F087
:100C50000700B84251D128683B4C810712D54007A4
:100C600003D5606840F4E06060602878000703D531
:100C7000606840F4605060606068A96820F0F0002F
:100C8000084360602878C00728D06868012810D021
:100C90002168022810D0890700292EDA616821F026
:100CA000030101436160FFF7DBFC804641F28839B4
:100CB0000DE021688903EFE78901EDE7FFF7D0FC3C
:100CC000A0EB0801494502D90320BDE8F087606820
:100CD000696800F00C00B0EB810FEFD1306800F0D4
:100CE0000700B8420BD9306820F007003843306065
:100CF000306800F00700B84201D00120E5E728780D
:100D0000400705D56068E96820F4E060084360604A
:100D10002878000706D56068296920F4605040EA09
:100D2000C100606000F048F86168084AC1F303112F
:100D3000515CC8400649086006480068FFF7D0FECD
:100D40000020C2E700200240001002400A320008E2
:100D500010000020080000200F2202600C4A536897
:100D600003F003034360536803F0F00383605368A8
:100D700003F4E063C36052684FF4E06303EAD20215
:100D800002610448006800F0070008607047000036
:100D900000100240002002400448054900684968EC
:100DA000044AC1F30221515CC84070471000002082
:100DB000001002401A3200080E4A51680E4801F035
:100DC0000C03042B11D0082B0FD10C48C1F3834323
:100DD000C903C05C0AD55168084AC1F34041921E5C
:100DE000515C054A5043B0FBF1F070470449484359
:100DF000704700000010024000127A00FA3100082B
:100E000000093D002DE9F84F040070D02078C04D56
:100E1000C00749D06868C0F38100012807D068681E
:100E2000C0F38100022809D16868C00306D528688C
:100E3000800339D560680028E7D035E06068B0F5F8
:100E4000803F0BD010B1B0F5A02F11D0286820F44E
:100E500080302860286820F4802002E0286840F470
:100E600080302860606890B1FFF7FAFB06460AE020
:100E7000286840F480202860F0E700BFFFF7F0FB0F
:100E8000801B642873D828688003F7D50CE0FFF72F
:100E9000E7FB064605E000BFFFF7E2FB801B642886
:100EA000F0D828688003F7D420789A4E80074FF056
:100EB00001094FF0000839D5686810F00C0F07D011
:100EC0006868C0F38100022809D16868C00306D4AD
:100ED0002868800714D52069012808D110E020690E
:100EE000B0B1C6F80090FFF7BBFB074605E00AE18A
:100EF000FFF7B6FBC01B0228C4D828688007F7D5C7
:100F00002868616920F0F80040EAC10028600DE01F
:100F1000C6F80080FFF7A4FB074604E0FFF7A0FB3C
:100F2000C01B022823D828688007F7D42078000740
:100F30002CD57948A169D9B1C0F80090FFF790FB92
:100F4000074604E0FFF78CFBC01B02280FD8686A35
:100F50008007F7D571484FF4FA510068B0FBF1F003
:100F6000009000BF0098411E0091FAD20EE080E090
:100F7000C0F80080FFF774FB074604E0FFF770FB42
:100F8000C01B022875D8686A8007F7D4207840070C
:100F900060D5E8690027C00008D4E86940F08050B7
:100FA000E861E869012700F0805000905C48016822
:100FB000C90513D40168834641F480710160FFF7CD
:100FC0004FFB824606E000BFFFF74AFBA0EB0A009A
:100FD00064284ED8DBF80000C005F5D5E06801288C
:100FE0000AD008B1052813D0286A20F00100286231
:100FF000286A20F0040002E0286A40F0010028621C
:10100000E06841F2883B98B1FFF72AFB82460BE08B
:10101000286A40F004002862EEE700BFFFF720FBDB
:10102000A0EB0A0159455AD8286A8007F6D50CE08A
:10103000FFF716FB824605E0FFF712FBA0EB0A0163
:1010400059454CD8286A8007F6D41FB1E86920F0CA
:101050008050E861E06988B36968C1F381010229C1
:1010600044D00228C6F8608004D0FFF7F9FA04469D
:1010700038E034E0FFF7F4FA074604E0FFF7F0FA4F
:10108000C01B02282BD828688001F7D4206AB0F54D
:10109000803F05D16868A16820F40030084368608B
:1010A000D4E908010843696821F4741108436860B1
:1010B000C6F86090FFF7D4FA044606E025E000BFCA
:1010C000FFF7CEFA001B022809D828688001F7D55F
:1010D0001BE000BFFFF7C4FA001B022802D903205F
:1010E000BDE8F88F28688001F4D40EE00128F7D01D
:1010F0006868226A00F48031914204D1616A00F488
:101100007010884201D00120EAE70020E8E70000E3
:1011100000100240000042428004424210000020C1
:10112000007000407047704710B5040003D094F879
:101130003D0010B107E0012010BD002084F83C0004
:10114000204600F01EF8022084F83D00211D206892
:1011500000F08EFC012084F8460084F83E0084F8FC
:101160003F0084F8400084F8410084F8420084F88D
:10117000430084F8440084F8450084F83D000020D2
:1011800010BD704790F83D10012901D00120704733
:10119000022180F83D100168CA6842F00102CA606D
:1011A00000680B49884208D0B0F1804F05D009494A
:1011B000884202D00849884204D1816801F00701C1
:1011C000062903D0016841F0010101600020704749
:1011D000002C01400004004000080040704770B53A
:1011E0000446006801694FF00005C943890715D41A
:1011F000C168C943890711D4E91E01610120207724
:10120000206880698007204602D0FFF7E7FF04E0EE
:1012100000F098F8204600F096F8257720680169DC
:10122000C943490717D4C168C943490713D46FF0AC
:1012300004010161022020772068806910F4407F5A
:10124000204602D0FFF7CAFF04E000F07BF82046FA
:1012500000F079F8257720680169C943090716D499
:10126000C168C943090712D46FF008010161042065
:1012700020772068C0698007204602D0FFF7AEFFC4
:1012800004E000F05FF8204600F05DF82577206864
:101290000169C943C90617D4C168C943C90613D433
:1012A0006FF010010161082020772068C06910F4F8
:1012B000407F204602D0FFF791FF04E000F042F8A3
:1012C000204600F040F8257720680169C943C90726
:1012D00008D1C168C943C90704D1891E01612046EC
:1012E00000F032F820680169C943090609D4C168D1
:1012F000C943090605D46FF0800101612046FFF75C
:1013000011FF20680169C943490609D4C168C9436E
:10131000490605D46FF040010161204600F01EF837
:1013200020680169C94389060BD4C168C94389068D
:1013300007D46FF0200101612046BDE87040FFF73F
:10134000F2BE70BD7047704700680349884201D102
:10135000FFF7ACBB70470000000800407047FEE795
:1013600001684A69D24352050FD46FF480624A6122
:10137000002140F8301F202242738173026942F03D
:1013800004020261017301207047002070470000D1
:10139000F8B50446C06A1E460D461746082807D011
:1013A000012805D010F5803F02D0206B122804D10F
:1013B0002068016841F480710160134600224FF0FB
:1013C00001112046009600F0B1F840B12068006895
:1013D000C00502D54FF4007020640320F8BD2069D9
:1013E000B0F5804F0ED00620216800EAD51040F0FD
:1013F000F000086133463A460B49204600F0DEF81B
:1014000078B902E005F0FE0000E0E8B2216808616A
:10141000054933463A46891F204600F0CFF8002898
:10142000DCD00120F8BD0000080001002DE9F843E0
:10143000044600680D46DDE908970168984616469F
:1014400041F4807101604B4600224FF001112046AB
:10145000009700F06BF848B120680068C00502D51D
:101460004FF4007020640320BDE8F883216805F084
:10147000FE0008613B464A461549204600F09EF8AA
:1014800088B920684169806900903A4649462046FB
:1014900000F0F2F848B1206C042804D120680168FB
:1014A00041F4007101600120DEE7F5B2B8F1010FEF
:1014B00009D02168300A08613A464946204600F0C2
:1014C000DBF80028E7D1206805610020CCE70000A8
:1014D0000200010070B516460D4604461EE0204687
:1014E000FFF73EFF08B1012070BD681C16D0FFF762
:1014F000B7F8801BA84200D885B920684069C0436E
:1015000040070BD5002044F8300F20216173A073F1
:10151000216941F0200121612073E4E720684069DE
:10152000C0434007DBD4002070BD00002DE9F04728
:10153000984617460D460446C1F30746DDF820904D
:101540002AE000BFB8F1FF3F26D0FFF789F8A0EBF3
:101550000901414502D8B8F1000F1DD12068012EC4
:1015600016D0806925EA00000004000C12D000208B
:10157000B84211D1002044F8300F20216173A073CC
:10158000216941F02001216120730120BDE8F0872D
:101590004069E7E70120EBE72068012E0AD0806967
:1015A00025EA00000004000C06D00020B842C9D093
:1015B0000020EBE74069F3E70120F7E72DE9F0476A
:1015C000984616460D4604464FF000094FF0200A93
:1015D000C1F3074723E020684069C043400515D4A4
:1015E0002068016841F40071016021686FF4806037
:1015F0004861C4F8309084F83DA084F83E90216C96
:1016000041F00401216484F83C9021E0701C06D074
:10161000FFF726F8A0EB0800B04203D816B1012F5F
:101620001FD021E02068012F15D0806925EA000035
:101630000004000C18D000BF44F8309F84F80DA0BF
:1016400084F80E90216941F02001216184F80C900A
:101650000120BDE8F087406925EA00000004000C85
:10166000EAD12068406901E02068806925EA00002D
:101670000004000CAFD1ECE770B516460D460446E9
:101680001EE02046FFF76CFE08B1012070BD681C0B
:1016900016D0FEF7E5FF801BA84200D885B9206868
:1016A0004069C04300060BD5002044F8300F2021CC
:1016B0006173A073216941F0200121612073E4E787
:1016C00020684069C0430006DBD4002070BD00F0F4
:1016D0003FB9000010B5044A0021044800F05AFA4E
:1016E0000349086010BD0000D4310008D11900087A
:1016F0000000002070B586B00024184800940194C2
:1017000002940394816941F010018161816901F0C3
:1017100010010491816941F020018161816901F02A
:1017200020010491816941F00801816180690C4EBA
:1017300000F008004FF4005504900022294630467E
:10174000FEF788FF01200095CDE9010402200390F7
:1017500069463046FEF78EFE06B070BD00100240AE
:10176000001001400D4810B50B4901600C49416063
:1017700000214FF480428160C0E903124161816120
:10178000C1610162FEF772FF002803D0BDE810407E
:10179000FEF76DBE10BD0000005400409400002014
:1017A000A0860100FEE7FEE710B5A0B0002480216E
:1017B0006846FEF7A2FD0021204600F0A9F880212E
:1017C000684600F0F5F8641CE4B2082CF3D320B0AE
:1017D00010BD000010B50224202000F0D5F82046EE
:1017E00000F0D2F81F4804703F24A82000F0CCF885
:1017F000204600F0C9F80024D32000F0C5F82046A8
:1018000000F0C2F8402000F0BFF8A12000F0BCF8C2
:10181000C82000F0B9F80021084600F063F87F24E2
:10182000812000F0B1F8204600F0AEF8A42000F0CE
:10183000ABF8A62000F0A8F8D52000F0A5F880208D
:1018400000F0A2F88D2000F09FF8142000F09CF822
:101850000021012000F046F8BDE81040AF2000F064
:1018600093B800008C0000202DE9F04117460E4689
:10187000044600250BE03146204600F00FF8641CBA
:10188000E4B20F2C02D90024B61CF6B26D1C7A5DAE
:10189000002AF0D12846BDE8F081000070B5164658
:1018A000C206150E0C46072918D80F2816D8294647
:1018B000204600F02DF80A48082100EB06100646E5
:1018C00000F076F8641CE0B2294600F021F806F139
:1018D0000800BDE87040082100F06AB870BD000043
:1018E0002232000870B50C46050001D0012D0ED142
:1018F0000CB1012C0BD1DA2000F046F8280100EBE6
:101900004410BDE87040801CC0B200F03DB870BD0E
:1019100070B50E4D0C462978022905D1072803D849
:10192000B030C0B200F030F8287802280CD17F2CFB
:101930000AD804F00F0000F027F8102000EB141074
:10194000BDE8704000F020B870BD00008C000020A1
:10195000FFF740FFFFF728FF002141220846FFF76D
:101960009DFF592200210120FFF798FF02A20221CA
:101970000020FFF779FFEFE748656C6C6F20576F29
:10198000726C6421000000001CB500218DF8041069
:101990008DF805004FF4FA7000900448022301AA64
:1019A00078214068FEF726FF1CBD00008C00002057
:1019B0000EB54FF4FA728DE8070004480123402267
:1019C00078214068FEF7ACFF0EBD00008C000020BF
:1019D000FFF77DFEFCE7000010B5502080F3118872
:1019E000BFF34F8FBFF36F8F01F052FA18B1044964
:1019F0004FF080500860002080F3118810BD000077
:101A000004ED00E030B58FB028216846FEF775FC84
:101A100014210AA8FEF771FC01210804CDE9001089
:101A20000024029402250491CDE907504FF4E01000
:101A300009906846FFF7E6F908B172B6FEE70F2095
:101A4000CDE90A054FF48060CDE90C4002210AA8D7
:101A50000E94FFF7EBF8002801D072B6FEE70FB046
:101A600030BD70470148FFF7BABB0000E800002016
:101A7000F0B50268164B174C174D4FF0804798424F
:101A800005D0B84203D0A04201D0A84203D122F031
:101A900070064A683243984205D0B84203D0A0424B
:101AA00001D0A84203D122F44074CA6822434C6991
:101AB00022F08002224302608A68C2620A6882625F
:101AC000984201D10969016301214161F0BD000023
:101AD000002C01400004004000080040FEE7090718
:101AE000090E002804DB00F1E02080F800147047A4
:101AF00000F00F0000F1E02080F8141D7047FEF7A1
:101B0000DDFFFFF77FFFFFF7F5FDFFF72BFE00F08E
:101B100005F8FFF7DFFD00F01DF8FEE7EFF30580A5
:101B200058B9EFF3108040B909490868022801D07C
:101B300030B109E0EFF3118030B16FF0050070476C
:101B400001200860002070474FF0FF307047000010
:101B50006400002010B5EFF3058060B9EFF310804A
:101B600048B90B490868022802D0012806D00BE0CA
:101B7000EFF3118040B16FF0050010BD0220086046
:101B800000F0ECFD002010BD4FF0FF3010BD000054
:101B900064000020F0B585B04FEA01034FF0000467
:101BA000EFF305810394A1BBEFF3108189BB2149B9
:101BB0000968022902D1EFF3118151BB48B3802695
:101BC00018218DF8104004AD42B3176807B13D46A7
:101BD00097691FB139467F1E382F02D21779FF0748
:101BE00002D0002005B0F0BD576907B1BE08D2F899
:101BF00008C0BCF1000F0DD0D4685C2C18D312695A
:101C00003AB137B18DE806103246294601F001F9A4
:101C100003900DE0D7685FB912694AB903AACDE90C
:101C20000012B2B2294601F0C7F8012800D003948F
:101C30000398D7E7640000202DE9F041134C0F46CC
:101C4000054666692068001D00F016FC681C07D177
:101C500037B12168BDE8F0410D48091D00F05CBCBA
:101C600020683544B5424560216805D2A068BDE8CA
:101C7000F041091D00F038BC6068091D00F034FC1B
:101C8000206B854200D22563BDE8F081140000205E
:101C9000200600202DE9F041054600F049FC2D4CBE
:101CA0002069401C206120682B4F10B1E06930B3DF
:101CB0002BE025602069012827D1002606EB86004D
:101CC00007EB800000F002FC761C382EF6D3234888
:101CD00000F0FCFB2148143000F0F8FB1F482830CE
:101CE00000F0F4FB1D483C3000F0F0FB1B48503086
:101CF00000F0ECFB194860601430A06005E020683B
:101D0000E96AC06A884200D82560E06A401CE06247
:101D10006864E86AA169884200D9A06100EB80008C
:101D200007EB8000291D00F0F7FB00F021FCE069C3
:101D300000280CD02068E96AC06A884207D20849A6
:101D40004FF080500860BFF34F8FBFF36F8FBDE837
:101D5000F08100001400002070010020D005002058
:101D600004ED00E038B500F0E3FB104CA068C8B902
:101D70000F4800F0ABFB0E48143000F0A7FB0C48F6
:101D80002060143060600A4B00202833009003F17B
:101D9000500210210A2000F0B3FDA06010B105A18F
:101DA00000F064FCBDE8384000F0E2BB50000020C9
:101DB00034060020546D72510000000030B4026CF3
:101DC0000B46002A0BD0C1681144C1604468A1428F
:101DD00001D30168C16030BC1846FEF741BA30BC7F
:101DE00070472DE9F041856B174604460026026CCA
:101DF00082B1C7B1E068FEF733FAE168206C091AD6
:101E0000E1602268914202D26168081AE060022F04
:101E100016D017E02068A8B9606801F09DF8064662
:101E2000002060600EE0A068FEF71AFA216CA0683E
:101E30000844A0606168884204D32068A06001E083
:101E400005B16D1E6D1CA5633046BDE8F08110B56F
:101E5000044690F8590058B101280CD002280FD040
:101E6000502080F31188BFF34F8FBFF36F8FFEE7D1
:101E7000206B00F091FB2046BDE8104000F08CBBC9
:101E800010BD000010484FF44061420706D0C01D4D
:101E90000D4920F00700411AC1F540610B4A0023AB
:101EA0000144C2E900030839103A21F0070111602A
:101EB0004B600B600B1AC0E9001393604FF00040B9
:101EC0005360D06070470000040E002078000020AE
:101ED000144E154CA6F29C474FF08058DFF84C90FA
:101EE00012E000BF00F024FBF068C568281D00F078
:101EF000C3FA2069401E2061E068401EE06000F0E7
:101F000037FB2846FFF7A3FFE0680028EAD13868CE
:101F10000128F9D9C9F80080BFF34F8FBFF36F8F45
:101F2000F2E700000C0600201400002004ED00E0A1
:101F300070B51D46049C51B1C4F80020C4E90F01DE
:101F40000121204600F010FD84F84C5070BD246043
:101F5000F4E72DE9F0470E46DDE90984174682468D
:101F600091009946089DA522206BFEF7BEF96FF0FF
:101F70000301206B01EB8701084420F00707780775
:101F800007D0502080F31188BFF34F8FBFF36F8FBE
:101F9000FEE72218315C82F83410315C11B1401C2C
:101FA0001028F6D3002684F84360382D00D3372557
:101FB000E562C4E91356201D00F093FA04F11800FD
:101FC00000F08FFA2461C5F138006462A061666593
:101FD00084F858604A465146384600F03BFA206083
:101FE000B8F1000F01D0C8F80040BDE8F08700004C
:101FF00030B5114900E011460A688242FBD34B68B4
:102000005C18844203D1406818444860084643681D
:102010001C18944209D1084C103C2468A24209D0F3
:1020200052681A4442600A6812680260814200D015
:10203000086030BD0460F9E77800002070B5002426
:1020400041600B4D0061914206D8D11A82699142DC
:1020500006D2011D686807E09A4203D2994201D373
:10206000012403E0011D286800F03EFA204670BDFF
:102070005000002010B5044600F05AFAA06B28B1B9
:102080005FF0000400F074FA204610BD0124F9E767
:1020900030B589B0304D55E00498002806DADDE906
:1020A0000601059A9047049800284BDB069C60695E
:1020B00010B1201D00F0E0F902A800F0B9F80246C6
:1020C00004980A283ED2DFE800F00505053D2637D2
:1020D00005053D260598A169034601442046FFF702
:1020E000ADFF00B3616A20468847E069012829D125
:1020F000002000900598A169002342181946204647
:1021000001F034F878B9502080F31188BFF34F8F75
:10211000BFF36F8FFEE70598A06128B181181346C1
:102120002046FFF78BFF0DE0502080F31188BFF3AE
:102130004F8FBFF36F8FFEE794F82C0010B9204645
:1021400000F02AFA002204A9A86800F05FFD002828
:10215000A2D109B030BD0000500000202DE9FC41A3
:102160000F46054600F03EFB01A800F061F804466A
:10217000019818B100F068FFBDE8FC81224EAFB1B4
:1021800070680068A8B30027291B3A46B06800F0C1
:1021900081FA00F059FF0028EED11C494FF0805021
:1021A0000860BFF34F8FBFF36F8FE5E7A542EBD811
:1021B00000F04AFF30682746C068C468201D00F060
:1021C0005BF9E069012810D1A0692B4641193A4614
:1021D0002046FFF733FF40B1002003460146009040
:1021E0002A46204600F0C2FF20B1616A2046884797
:1021F000C2E707E0502080F31188BFF34F8FBFF391
:102200006F8FFEE70127BFE75000002004ED00E0DC
:1022100006484168096829B14168C968C9684968C0
:10222000016370474FF0FF31FAE70000140000200F
:1022300070B5054600F026FE064E0446306984421D
:1022400003D200F009F8012000E0002028602046B9
:10225000346170BD50000020F8B5194D1FE0C06812
:10226000C4680668201D00F007F9616A20468847A7
:10227000E069012813D1A0693044B04206D9246135
:102280006060211D286800F02FF908E00020034657
:10229000014600903246204600F068FF38B12868B9
:1022A00001680029DBD16968C5E90010F8BD50203C
:1022B00080F31188BFF34F8FBFF36F8FFEE70000ED
:1022C0005000002008484068401C4FF0500080F348
:1022D000118804D0BFF34F8FBFF36F8FFEE7BFF3BA
:1022E0004F8FBFF36F8FFEE780000020074C206800
:1022F000016841B1C0680021D0F80000FFF72EFF4F
:10230000FFF7C6FEF3E701210020F7E750000020A9
:102310002DE9F041044600F00BF994F9455004F121
:10232000240609E0606A48B1304600F055FE08B165
:1023300000F0DAF96D1E6DB2002DF3DC4FF0FF36C0
:1023400084F8456000F014F900F0F2F894F9445074
:1023500004F1100709E0206948B1384600F03CFE5E
:1023600008B100F0C1F96D1E6DB2002DF3DC84F8E8
:102370004460BDE8F04100F0FBB800002DE9F041F9
:102380000546002700F02EFA314E306808B9FFF7F5
:1023900079FDF06805424BD1C5B3083568070ED00A
:1023A00005F00700C0F108000544680707D0502079
:1023B00080F31188BFF34F8FBFF36F8FFEE72DB30C
:1023C0007068854234D82248103001460C6801E01C
:1023D00020460C466168A94202D221680029F7D143
:1023E00031688C4224D00768216801606068083732
:1023F000411B10290FD96019420708D0502080F3E3
:102400001188BFF34F8FBFF36F8FFEE710E041607D
:102410006560FFF7EDFD61687068401A7060B26832
:10242000904200D2B060F06801430020C4E900018E
:1024300000F00AFE780707D0502080F31188BFF320
:102440004F8FBFF36F8FFEE73846BDE8F081000085
:102450006800002010B5031F4FF080741C601B1F24
:1024600021F001011960191F024B0B60143940382B
:102470000A6010BDC5220008D0E9013201699A60E6
:10248000D0E901235A604A68824201D182684A60D9
:10249000002202610868401E08600868704700005A
:1024A000034B036003F15C000860802010607047FC
:1024B0004C070020044B036003F15C0008604FF4FC
:1024C0008070106070470000A809002000F108012A
:1024D0004FF0FF32C0E90112C160016100210160CB
:1024E000704700210161704730B50B685A1C02D05B
:1024F00000F1080202E0026904E0224654682568FF
:102500009D42FAD953684B6099608A6051600861B6
:102510000168491C016030BD42684A6093688B6065
:1025200093685960916008610168491C01607047B7
:10253000502080F31188BFF34F8FBFF36F8F0A498C
:102540004868401C486001280CD10848006810F019
:10255000FF0F07D0502080F31188BFF34F8FBFF3D8
:102560006F8FFEE7704700008000002004ED00E060
:102570000849486828B1401E486001D180F311889D
:102580007047502080F31188BFF34F8FBFF36F8FD8
:10259000FEE700008000002070B5002827D0144D11
:1025A000A0F108046168E868014207D1502080F377
:1025B0001188BFF34F8FBFF36F8FFEE722683AB1E8
:1025C000502080F31188BFF34F8FBFF36F8FFEE76A
:1025D0008143616000F006F96068696808446860DA
:1025E0002046FFF705FDBDE8704000F02DBD70BD31
:1025F000680000204FF0E020002101618161054961
:102600004FF47A720968B1FBF2F1491E416107216A
:10261000016170471000002010B5FDF7FDFD114964
:1026200010280ED300F1E02090F8F0030A789042D1
:1026300007D2502080F31188BFF34F8FBFF36F8F05
:10264000FEE709480068896800F4E060884207D91D
:10265000502080F31188BFF34F8FBFF36F8FFEE7D9
:1026600010BD0000800000200CED00E010B5084B0C
:10267000002200BF53F832401CB1521C082AF9D383
:1026800010BD43F8321003EBC201486010BD0000DA
:102690003001002070B515460E460446FFF748FF8E
:1026A00094F944100020491C01D184F8440094F9A5
:1026B0004510491C01D184F84500FFF759FFA06B74
:1026C00028B92A46314604F1240000F02BF82046B0
:1026D000BDE87040FFF71CBE02498A6A0260496982
:1026E0004160704714000020014901204862704792
:1026F0001400002010B50C4650B109490968183182
:10270000FFF7F2FE2046BDE810400121FFF794BA22
:10271000502080F31188BFF34F8FBFF36F8FFEE718
:102720001400002070B514460D4668B10A490968C6
:102730001831FFF7F1FE0CB14FF0FF352146284666
:10274000BDE87040FFF778BA502080F31188BFF3DE
:102750004F8FBFF36F8FFEE71400002030B587B0B6
:102760000024039405AA04A903A80494FFF798FE83
:10277000DDE903010094CDE90110002315A11748FC
:10278000059A00F046FB164D002868631FD000F044
:10279000BDFC012809D0401C19D1502080F31188BC
:1027A000BFF34F8FBFF36F8FFEE7502080F3118888
:1027B000BFF34F8FBFF36F8F4FF0FF3028630120BF
:1027C000E8616C6107B0BDE8304000F045B807B083
:1027D00030BD000049444C4500000000D11E0008F7
:1027E000140000200248816B491C8163704700007F
:1027F00014000020164810B5816B11B1012141620F
:1028000010BD002141628169124A01E0B9B1491E3F
:1028100001EB810352F82330002BF7D001EB810349
:1028200002EB830202F1080453685B685360A34221
:1028300001D15B685360DA680260816110BD50208D
:1028400080F31188BFF34F8FBFF36F8FFEE7000057
:1028500014000020700100201CB526490878019062
:10286000FF20087008788DF800009DF800009DF8A2
:10287000002000F0F000904207D0502080F3118833
:10288000BFF34F8FBFF36F8FFEE79DF800001A4B29
:1028900000F0500018700720986005E09DF80020B7
:1028A00052008DF80020401E9DF800201206F5D43D
:1028B0009860032807D0502080F31188BFF34F8F12
:1028C000BFF36F8FFEE74FF4407098600198087077
:1028D0000A48016841F470010160016841F07041EB
:1028E0000160FFF787FE00205860FDF75FFC0020C5
:1028F0001CBD000000E400E08000002020ED00E0AE
:1029000038B5049D18B153B1CAB181B120E050204F
:1029100080F31188BFF34F8FBFF36F8FFEE7502016
:1029200080F31188BFF34F8FBFF36F8FFEE7502006
:1029300080F31188BFF34F8FBFF36F8FFEE739B17C
:10294000502080F31188BFF34F8FBFF36F8FFEE7E6
:1029500050241C46012384F846302B460094FFF790
:10296000E7FA204638BD000070B50D46040025D0BA
:10297000FFF7DEFDD4E90F20216802FB0011616042
:102980000021A1632168A1600A46D4E90F01401E1D
:1029900000FB0121E16021464FF0FF3001F8440FB8
:1029A000487004F110008DB1FFF790FD04F1240090
:1029B000FFF78CFDFFF7DCFD012070BD502080F398
:1029C0001188BFF34F8FBFF36F8FFEE72169002996
:1029D000F0D000F001FB0028ECD004494FF080500B
:1029E0000860BFF34F8FBFF36F8FE3E704ED00E0A4
:1029F0002DE9FF4782B01D468A464FF000080400CB
:102A000003D0BAF1000F08D011E0502080F31188F4
:102A1000BFF34F8FBFF36F8FFEE7206C38B15020AC
:102A200080F31188BFF34F8FBFF36F8FFEE7022D46
:102A30000AD1E06B012807D0502080F31188BFF342
:102A40004F8FBFF36F8FFEE700F00EFA3F4F4FF04E
:102A500000094FF0805648B9049838B1502080F3EF
:102A60001188BFF34F8FBFF36F8FFEE7FFF760FD55
:102A7000A06BE16B884207D3022D05D00498D0B13A
:102A8000B8F1000F1AD01EE02A4651462046FFF743
:102A9000A8F9616A19B104F1240000F09DFA20B18F
:102AA0003E60BFF34F8FBFF36F8FFFF761FD0120D3
:102AB00006B0BDE8F087FFF75BFD22E06846FFF750
:102AC0000BFE4FF00108FFF753FDFFF78BFEFFF7FA
:102AD0002FFD94F94400401C01D184F8449094F9EE
:102AE0004500401C01D184F84590FFF741FD04A941
:102AF000684600F027F930B12046FFF709FC00F0E6
:102B0000A3FA0020D4E7FFF713FDA06BE16B884226
:102B100013D1FFF72DFD04F110000499FFF7EAFD32
:102B20002046FFF7F5FB00F08FFA00289ED13E60AB
:102B3000BFF34F8FBFF36F8F98E7FFF719FD204664
:102B4000FFF7E6FB00F080FA90E7000004ED00E0FC
:102B50002DE9F0471F4690468946040003D0B9F19D
:102B6000000F08D011E0502080F31188BFF34F8F81
:102B7000BFF36F8FFEE7206C38B1502080F31188CF
:102B8000BFF34F8FBFF36F8FFEE7022F0AD1E06BC9
:102B9000012807D0502080F31188BFF34F8FBFF377
:102BA0006F8FFEE7FFF738FD5020EFF3118680F3BB
:102BB0001188BFF34F8FBFF36F8FA06BE16B88421B
:102BC00006D3022F04D0002086F31188BDE8F087D9
:102BD00094F945503A4649462046FFF702F9681CE9
:102BE00004D06D1C84F845500120EDE7606A002890
:102BF000FAD004F1240000F0EFF90028F4D0B8F185
:102C0000000FF1D00121C8F80010EDE72DE9F747DA
:102C1000002683B08A46040003D0BAF1000F08D022
:102C200011E0502080F31188BFF34F8FBFF36F8FF7
:102C3000FEE7206C38B1502080F31188BFF34F8F2E
:102C4000BFF36F8FFEE700F00FF9DFF8F4804FF06D
:102C500000094FF0805748B9059838B1502080F3EB
:102C60001188BFF34F8FBFF36F8FFEE7FFF760FC54
:102C7000A56BC5B151462046FFF7A0F86D1EA563B0
:102C8000206950B104F1100000F0A6F928B1C8F88D
:102C90000070BFF34F8FBFF36F8FFFF769FC012008
:102CA00006B0BDE8F087059808B11EB106E0FFF751
:102CB0005FFC27E06846FFF70FFD0126FFF758FC91
:102CC000FFF790FDFFF734FC94F94400401C01D15C
:102CD00084F8449094F94500401C01D184F8459053
:102CE000FFF746FC05A9684600F02CF800282046AE
:102CF0000AD0FFF70DFB00F0A7F92046FFF7BAF95D
:102D00000028B3D00020CBE7FFF7B4F990B104F16D
:102D100024000599FFF7EEFC2046FFF7F9FA00F0D2
:102D200093F90028A2D1C8F80070BFF34F8FBFF30A
:102D30006F8F9BE72046FFF7EBFA00F085F995E7E8
:102D400004ED00E02DE9F0410C46050011D0C4B1BE
:102D5000FFF7EEFB174B5A696E682068911B471C02
:102D600017D02F689B6A9F4219D0964217D801242A
:102D700010E0502080F31188BFF34F8FBFF36F8FA7
:102D8000FEE7502080F31188BFF34F8FBFF36F8FA2
:102D9000FEE70024FFF7ECFB2046BDE8F081884207
:102DA00005D9401A20602846FFF796FCF1E700207D
:102DB0002060DCE7140000202DE9FF5F8346DDE999
:102DC0000E87994616468A469000FFF7D7FA050007
:102DD0001CD05C20FFF7D2FA040014D00020256339
:102DE00084F85900CDE90240CDE900874B463246D0
:102DF00051465846FFF7ADF82046FEF74BFF01203D
:102E000004B0BDE8F09F2846FFF7C6FB4FF0FF3047
:102E1000F6E7F0B585B0DDE90B640A9DA6B1DCB13B
:102E20005C2700972663022684F85960002604AFC9
:102E3000CDE90246CDE90057FFF78BF82046FEF7B3
:102E400029FF049805B0F0BD502080F31188BFF32E
:102E50004F8FBFF36F8FFEE7502080F31188BFF3D1
:102E60004F8FBFF36F8FFEE70548C16919B1806BC3
:102E700018B1002070470120704702207047000001
:102E80001400002001484069704700001400002031
:102E90002DE9F0412E4C0027A06B40B1206A401C68
:102EA0002062606A00B101273846BDE8F08166699A
:102EB000761C666113D16068006838B1502080F3D9
:102EC0001188BFF34F8FBFF36F8FFEE76068A16873
:102ED0006160A060A06A401CA062FFF799F9206BB6
:102EE000DFF87080864209D36068006880B160684E
:102EF000C068C568686886420DD220632068C06AD1
:102F000000EB800158F821000128CAD90127C8E741
:102F10004FF0FF30F1E7281DFFF7AEFAA86A18B1AD
:102F200005F11800FFF7A8FAE86AA169884200D9FC
:102F3000A06100EB800108EB8100291DFFF7ECFA8E
:102F4000E86A2168C96A8842CED30127CCE700002D
:102F5000140000207001002070B504004FF0000143
:102F600033D01B4D2868844207D0502080F311884D
:102F7000BFF34F8FBFF36F8FFEE7206D38B1401E58
:102F80002065E36CE26A9A421FD040B11DE05020F8
:102F900080F31188BFF34F8FBFF36F8FFEE7201DC3
:102FA000FFF76AFAE06CE062C0F13800A061E06A05
:102FB000A969884200D9A861064900EB800001EBAD
:102FC0008000211DFFF7A8FA0121084670BD00000E
:102FD000140000207001002070B5C068C46854B1AE
:102FE00004F118000646FFF747FA144DA86B50B1DC
:102FF0003146134815E0502080F31188BFF34F8FFE
:10300000BFF36F8FFEE7201DFFF736FAE06AA9696C
:10301000884200D9A8610B4900EB800001EB8000D9
:10302000211DFFF779FAE06A2968C96A884202D946
:103030000120686270BD002070BD000014000020F7
:10304000F8050020700100202DE9F0472C4D0024E8
:103050002746A86B38B1FFF76BFAA86B401EA86330
:10306000A86B40B146E0502080F31188BFF34F8F2A
:10307000BFF36F8FFEE72969224E0120D1B3A6F579
:10308000916980463068E0B1F068C46804F11800C6
:10309000FFF7F2F9201DFFF7EFF9E06AA96988420E
:1030A00000D9A86100EB800109EB8100211DFFF729
:1030B00033FAE06A2968C96A8842E3D3C5F82480F4
:1030C000E0E70CB1FFF7A4F82C6A4CB14FEA080610
:1030D000FFF7DEFE00B16E62641EF9D100202862A7
:1030E000686A38B10849012738070860BFF34F8F75
:1030F000BFF36F8FFFF73CFA3846BDE8F08700005A
:1031000014000020F805002004ED00E010B586B0A2
:10311000FEF728FE114CA068B8B10020039004907F
:1031200005AA04A903A8FFF7C5F9DDE903210220D8
:103130008DE8070000230AA10B48059AFFF769FEF6
:10314000E06010B106B0012010BD502080F311885E
:10315000BFF34F8FBFF36F8FFEE7000050000020DA
:10316000546D722053766300ED2200082DE9FF4173
:103170001E46134602000A9D4FF0000016D0144C64
:10318000A768002F0FD0CDE900130292062917DAA5
:10319000FFF76AFE02284FF000030FD000226946B5
:1031A000A068FFF725FC04B0BDE8F081502080F353
:1031B0001188BFF34F8FBFF36F8FFEE72A46EEE70C
:1031C0000023324669463846FFF7C2FCEBE70000B1
:1031D00050000020243A0008000000000000000019
:1031E00000000000000000000002000018000000C5
:1031F00000000000000000000102020304050607B1
:1032000008090A0B0C0D0E0F101000000000000042
:103210000000010203040607080900000000010283
:103220000304000000000000000000000000000097
:10323000000000FE020202020202003F20202020C5
:10324000202000000000000000000000000000003E
:10325000000000FE020202020202003F20202020A5
:10326000202000FE020202020202003F2020202055
:10327000202000FE020202020202003F2020202045
:10328000202000FE020202020202003F2020202035
:10329000202000FE020202020202003F2020202025
:1032A000202000FE020202020202003F2020202015
:1032B00020200000000000000000000000000000CE
:1032C00000000000000000000000000000000000FE
:1032D00000000000000000000000000000000000EE
:1032E000000000FE020202020202003F2020202015
:1032F000202000FE020202020202003F20202020C5
:10330000202000FE020202020202003F20202020B4
:10331000202000FE020202020202003F20202020A4
:10332000202000FE020202020202003F2020202094
:10333000202000FE020202020202003F2020202084
:10334000202000FE020202020202003F2020202074
:10335000202000FE020202020202003F2020202064
:10336000202000FE020202020202003F2020202054
:10337000202000FE020202020202003F2020202044
:10338000202000FE020202020202003F2020202034
:10339000202000FE020202020202003F2020202024
:1033A000202000FE020202020202003F2020202014
:1033B000202000FE020202020202003F2020202004
:1033C000202000FE020202020202003F20202020F4
:1033D000202000FE020202020202003F20202020E4
:1033E000202000000000000000000000000000009D
:1033F00000000000000000000000000000000000CD
:1034000000000000000000000000000000000000BC
:1034100000000000000000000000000000000000AC
:10342000000000000000000000000000000000009C
:103430000000000000F80000000000000033000061
:10344000000000100C02100C020000000000000040
:1034500000000040C07840C0780000043F04043FF2
:10346000040000708888FC08300000182020FF212C
:103470001E00F008F0806018000000310C031E21CF
:103480001E0000F00888700000001E21232C192760
:10349000211000120E0000000000000000000000DB
:1034A0000000000000E018040200000000071820DF
:1034B000400000020418E00000000040201807004F
:1034C0000000404080F0804040000202010F0102F5
:1034D000020000000000E0000000000101010F01F7
:1034E00001010000000000000000009070000000DA
:1034F00000000000000000000000000101010101C7
:10350000010000000000000000000030300000005A
:10351000000000000000C038040000601807000030
:10352000000000E010080810E000000F102020103C
:103530000F0000001010F8000000000020203F20C5
:103540002000007008080808F0000030282422211C
:10355000300000300808088870000018202121225F
:103560001C000000804030F8000000060524243FC5
:10357000242400F8888888080800001920202011D9
:103580000E0000E0108888900000000F112020201D
:103590001F0000180808886818000000003E01009D
:1035A00000000070880808887000001C2221212279
:1035B0001C0000F008080810E0000001122222118F
:1035C0000F00000000C0C00000000000003030000C
:1035D00000000000008000000000000000E000008B
:1035E00000000000804020100800000102040810C4
:1035F0002000004040404040400000020202020221
:103600000200000810204080000000201008040282
:103610000100007048080888700000000030370082
:103620000000C030C828E810E000071827282F281D
:1036300017000000C038E0000000203C23020227F1
:10364000382008F8888888700000203F202020114A
:103650000E00C03008080808380007182020201085
:10366000080008F808080810E000203F202020107B
:103670000F0008F88888E8081000203F2020232049
:10368000180008F88888E8081000203F2000030090
:103690000000C03008080838000007182020221E4B
:1036A000020008F808000008F808203F2101012165
:1036B0003F20000808F8080800000020203F2020D4
:1036C000000000000808F8080800C08080807F0023
:1036D000000008F888C028180800203F200126387C
:1036E000200008F8080000000000203F20202020D3
:1036F000300008F8F800F8F80800203F013E013FCC
:10370000200008F830C00008F808203F2000071803
:103710003F00E01008080810E0000F1020202010E3
:103720000F0008F808080808F000203F21010101F7
:103730000000E01008080810E0000F1028283050A2
:103740004F0008F8888888887000203F2000030C0C
:103750003020007088080808380000382021212215
:103760001C00180808F8080818000000203F200076
:10377000000008F808000008F808001F202020209A
:103780001F000878880000C83808000007380E01BC
:10379000000008F800F800F8080000033E013E03AE
:1037A0000000081868808068180820302C03032C5B
:1037B00030200838C800C83808000000203F20002A
:1037C000000010080808C8380800203826212020EA
:1037D0001800000000FE020202000000007F4040CE
:1037E0004000000438C0000000000000000106385E
:1037F000C00000020202FE000000004040407F00C6
:1038000000000000040202040000000000000000AC
:1038100000000000000000000000808080808080A8
:103820008080000202040000000000000000000090
:103830000000000080808000000000192424123F56
:10384000200010F0008080000000003F11202011B7
:103850000E000000008080800000000E112020205B
:103860001100000080808090F000001F20202010B8
:103870003F200000808080800000001F242424243A
:103880001700008080E0909020000020203F202042
:1038900000000000808080808000006B94949493EE
:1038A000600010F0008080800000203F2100002098
:1038B0003F2000809898000000000020203F20203A
:1038C0000000000000809898000000C08080807F89
:1038D000000010F0000080808000203F2406293086
:1038E0002000001010F8000000000020203F2020E1
:1038F00000008080808080808000203F20003F206A
:10390000003F8080008080800000203F2100002058
:103910003F200000808080800000001F20202020A9
:103920001F00808000808000000080FF9120201117
:103930000E000000008080008000000E1120209109
:10394000FF80808080008080800020203F21200038
:103950000100000080808080800000332424242423
:103960001900008080E0808000000000001F2020FF
:1039700010008080000000808000001F20202010A8
:103980003F20808080008080800000030C300C038A
:1039900000008080008080008080010E300C07389D
:1039A000060100808080008080000020310E2E31D2
:1039B000200080808000008080800081867818064A
:1039C000010000808080808080000021302C222136
:1039D00030000000000000FC020200000000013E78
:1039E000404000000000FF00000000000000FF0059
:1039F00000000202FC000000000040403E01000008
:103A000000000002010202040200000000000000A9
:103A100000000000000000000000000000000000A6
:103A20000000000064656661756C745461736B001E
:103A3000503A00080000002094000000280100080F
:103A4000E43A000894000020D41F0000440100085C
:103A50000000000001000000100000000000000055
:103A60000024F4000000000000000000000000003E
:103A70000000000000000000000000000000000046
:103A80000000000000000000000000000000000036
:103A90000000000000000000000000000000000026
:103AA0000000000000000000000000000000000016
:103AB0000000000000000000000000000000000006
:103AC00000000000000000000000000000000000F6
:103AD00000000000AAAAAAAA00000000020000003C
:043AE000940000202E
:04000005080000ED02
:00000001FF
