:020000040800F2
:10000000D83F002099010008F72F0008C9210008F7
:10001000F52F00086F050008A53700080000000054
:1000200000000000000000000000000001010008C6
:10003000710500080000000045010008ED330008CC
:10004000B3010008B3010008B3010008B3010008C0
:10005000B3010008B3010008B3010008B3010008B0
:10006000B3010008B3010008B3010008B3010008A0
:10007000B3010008B3010008B3010008B301000890
:10008000B3010008B3010008B3010008B301000880
:10009000B3010008B3010008B3010008B301000870
:1000A000B3010008B3010008B3010008B301000860
:1000B000B3010008B301000899340008B301000837
:1000C000B3010008B3010008B3010008B301000840
:1000D000B3010008B3010008B3010008B301000830
:1000E00073050008B3010008B3010008DFF80CD065
:1000F00000F0E2F900480047BD410008D83F002069
:10010000224B19680868B0E8F00F80F30988BFF344
:100110006F8F4FF0000080F311884EF00D0E704786
:100120000000000006480068006880F3088862B696
:1001300061B6BFF34F8FBFF36F8F00DF00BF00BF0B
:1001400008ED00E0EFF30980BFF36F8F0F4B1A68E3
:1001500020E9F00F106008B54FF0500080F31188CF
:10016000BFF34F8FBFF36F8F04F0C8FF4FF0000055
:1001700080F31188BDE8084019680868B0E8F00FFE
:1001800080F30988BFF36F8F704700BF1000002015
:10019000EFF3058070470000064880470648004797
:1001A000FEE7FEE7FEE7FEE7FEE7FEE7FEE7FEE727
:1001B000FEE7FEE795340008ED0000082DE9F05F4A
:1001C0000546002092469B468846064681464024C6
:1001D0001BE0284641464746224600F020F8534699
:1001E0005A46C01A914110D311461846224600F0D3
:1001F0001DF92D1A67EB01084F4622460120002108
:1002000000F014F917EB00094E41201EA4F101047F
:10021000DFDC484631462A464346BDE8F09F202AA7
:1002200004DB203A21FA02F00021704721FA02F3A0
:10023000D040C2F1200291400843194670470000A7
:100240000649074A0868504343F2390210440860DF
:1002500040087047014908607047000024010020F1
:100260006D4EC64140EA01039B0703D009E008C96F
:10027000121F08C0042AFAD203E011F8013B00F86B
:10028000013B521EF9D27047D2B201E000F8012BB7
:10029000491EFBD270470022F6E710B513460A4606
:1002A00004461946FFF7F0FF204610BD421C10F827
:1002B000011B0029FBD1801A7047034611F8012B5E
:1002C00000F8012B002AF9D118467047F0B480EAF3
:1002D0000102D40F4200B2EB410F02D2024608469F
:1002E00011464A0042D0C30DDDB2C1F3C752AD1A68
:1002F000202D35DAC1F3160141F4000204B1524257
:10030000C5F1200602FA06F12A411044B3EBD05F92
:1003100023D0C4B1012DA0EBC35009DCF0BC4FF0D9
:10032000004202EAC352DBB200F5000000F096B8CA
:10033000400000F1807000EBC350A0F1807040EAF3
:10034000D170490009E0490841EAC071A0EBC350EF
:1003500000F50000400800EBC350F0BC00F075B899
:100360006142012202EB4101001BF6E7F0BC70473D
:1003700081F00041AAE780F00040A7E7420005D0E5
:10038000C0F3C7525242914201DC0020704700EB9B
:10039000C1507047C10F80EAE0700844CA07962335
:1003A000002100F05BB896230022114600F056B8F9
:1003B00020F00040C10DC0F3160040F400007F297A
:1003C00001DA00207047962903DCC1F19601C8408C
:1003D0007047963988407047002801DBC0F1004023
:1003E000002901DBC1F1004181427047002801DB97
:1003F000C0F10040002901DBC1F100418842704793
:1004000030B50B46014600202022012409E021FAE4
:1004100002F59D4205D303FA02F5491B04FA02F5E1
:100420002844151EA2F10102F1DC30BD202A04DBB4
:10043000203A00FA02F1002070479140C2F12003F7
:1004400020FA03F31943904070470029A8BF704772
:10045000401C490008BF20F00100704710B4B0FAFA
:1004600080FC00FA0CF050EA010404BF10BC704795
:1004700049B1CCF1200421FA04F411FA0CF118BFAF
:10048000012121430843A3EB0C01CB1D4FEA00617E
:100490004FEA102042BF002010BC704700EBC35051
:1004A00010440029A4BF10BC7047401C490008BF7D
:1004B00020F0010010BC7047064C074D06E0E068D4
:1004C00040F0010394E8070098471034AC42F6D39B
:1004D000FFF710FEB0650008D065000830B58C1835
:1004E00010F8012B12F00F0301D110F8013B120993
:1004F00006D110F8012B03E010F8015B01F8015B55
:100500005B1EF9D101E001F8013B521EFBD1A14273
:10051000E6D3002030BD000070B504460068816855
:10052000C943C90717D1816821F00101816000F03A
:100530008DFA05460AE000BF00F088FA401B022849
:1005400004D920688068C043C00706D0206880684E
:10055000C043C007F0D0002070BDA06A40F010007A
:10056000A062E06A40F00100E062012070BDFEE799
:10057000704710B54FF4806000F062F94FF40060EE
:1005800000F05EF9BDE810404FF4805000F058B91B
:1005900072B6FEE70148C06870470000980000206E
:1005A0000148406870470000900000200148C06882
:1005B00070470000B0000020F8B50024009490F8C7
:1005C00024202546012A12D0012280F824204A68DE
:1005D0001F23072A0DD20668776B521E02EB820298
:1005E00093409F430B6893401F43776319E00220B9
:1005F000F8BD06680D2A0AD2376BD21F02EB8202C1
:1006000093409F430B6893401F43376309E0F76AA9
:100610000D3A02EB820293409F430B6893401F43C5
:10062000F7620A68072306680A2A0AD3F7680A3AB3
:1006300002EB420293409F438B6893401F43F76055
:1006400008E0376902EB420293409F438B68934076
:100650001F4337610A68102A01D0112A20D1124B9A
:1006600002689A4217D193681B0219D4936843F425
:10067000000393600968102912D10C490C4A0968DB
:10068000B1FBF2F101EB8101490000E0491E00914C
:100690000029FBD104E0816A41F02001816201243C
:1006A00080F824502046F8BD002401400C000020B2
:1006B00040420F002DE9F0414FF0000704003D4695
:1006C0007ED0A06A002628B9E66284F8246020461D
:1006D00000F07EF82046FFF71FFFA16AC90600D48C
:1006E00020B1A06A40F01000A06269E0A16A21F484
:1006F000885141F00201A1626268E169237B0A43EB
:1007000047EA43010A43A1684FF48077B94209D010
:10071000012907D05FF0000194F814C0BCF1010F6B
:1007200002D00AE03946F7E7F3B1A36A43F02003A9
:10073000A362E36A43F00103E3622368D3F804C0D1
:100740002CF4694C4CEA010CC3F804C021688B6896
:10075000DFF870C003EA0C0313438B60A168B94251
:100760000BD0012909D00CE0DFF85CC0A3690CEBC9
:1007700043330B4343F40061DFE7218A0D05A5F500
:1007800080152168CB6A23F470032B43CB62216868
:1007900089680E4B1940914208D1E662A16A21F0A6
:1007A000020141F00101A162BDE8F081A06A20F0E0
:1007B000020040F01000A062E06A40F00100E06238
:1007C0000120F1E7FDF7E1FF00E0FFFFFE0E1FFF54
:1007D00000B585B00021009101910291039100685C
:1007E0000E49884218D10E48816941F40071816137
:1007F000816901F400710491816941F00401816112
:100800008069694600F004000490082000900320ED
:100810000190044800F020F805B000BD002401401C
:100820000010024000080140B0F5806F04D0B0F520
:10083000805F03D102F088BD01F0C6BF70470000A1
:10084000044910B50A68024202D00860FFF7ECFFC5
:1008500010BD0000140401402DE9F84FDFF8B891F5
:100860000024A9F1040B23460F2709F1040AABF178
:10087000040EC9E00125A5402A40AA427DD1674E59
:10088000D1F804C0ACEB0608B44532D014DCBCF19E
:10089000030F3AD009DCBCF1000F2AD0BCF1010FE4
:1008A0001CD0BCF1020F31D11DE0BCF1110F17D0EB
:1008B000BCF1120F2AD119E0B8F5881F19D006DC57
:1008C000B8F5803F15D0B8F5801F1FD111E0B8F5FD
:1008D000001F0ED0B8F5041F18D10AE0CB6815E050
:1008E000CB681B1D12E0CB6808330FE0CB680C33DC
:1008F0000CE08B682BB1012B4FF0080303D045614E
:1009000004E0042302E0056100E00023FF2A01D88F
:10091000064601E000F104064FEA840501D9A5F17D
:100920002005D6F8008007FA05FC28EA0C0803FA2F
:1009300005F548EA0508C6F800804D68ED0062D567
:10094000374DAE6946F00106AE61AD6924F003068D
:1009500005F001050095334D06EB050CDCF8085059
:10096000A607360F07FA06F825EA0805DFF8B8806B
:10097000404503D14FF0000817E044E0DFF8AC80B9
:10098000404502D14FF001080FE0DFF8A480404558
:1009900002D14FF0020808E0DFF89880404502D10C
:1009A0004FF0030801E04FF0040808FA06F848EA9F
:1009B0000508CCF808804D68D9F80060ED024D4676
:1009C00001D5164300E096432E604D68DAF80060CA
:1009D000AD02554601D5164300E096432E604D68A2
:1009E000DBF80060AD035D4601D5164300E0964399
:1009F0002E604D68DEF80060ED03754601D51643A4
:100A000000E096432E60641C0D682A46E5407FF4A2
:100A100031AFBDE8F88F000008040140000011105C
:100A2000001002400000014000080140000C01409D
:100A300000100140001401408068084000D00120EF
:100A400070470AB1016170470904FBE701488068FB
:100A5000704700000000002070B5040025D094F815
:100A60003D00002520B984F83C50204600F00EFBE4
:100A7000242084F83D002068016821F00101016014
:100A80002068016841F4004101602068016821F498
:100A90000041016000F0A0FD4D4A6168914201D81B
:100AA0004C4900E04C49884201D2012070BD4B49BD
:100AB0002368B0FBF1F15E6826F03F060E435E60EE
:100AC0006368934206D94FF4967359434FF47A738F
:100AD000B1FBF3F12368491C1E6A26F03F0631433F
:100AE00019626168914210D84900401EB0FBF1F2D2
:100AF000521CC2F30B02042A01D2042022E0B0FBF4
:100B0000F1F0401CC0F30B001CE0A268F2B301EB53
:100B1000C10303EB0116431EB3FBF6F35B1C43F466
:100B200080431B0549D092B301EBC10202EB0111D6
:100B3000401EB0FBF1F0401CC0F30B0040F48040BD
:100B400040F400402168CA694CF6FF739A43104391
:100B5000C861D4E9071001432068026822F0C0028E
:100B600011430160D4E9030101432068826848F21F
:100B7000FF339A4311438160D4E90501084321689A
:100B8000CA6822F0FF021043C86001E00EE016E0E0
:100B90002068016841F0010101602564202084F88B
:100BA0003D00256384F83E50002070BD01EB4106F6
:100BB000431EB3FBF6F35B1CB3E70120C2E701EB76
:100BC0004101401EB0FBF1F0401CC0F30B00B7E741
:100BD000A086010080841E0000093D0040420F00F5
:100BE0002DE9F84F1F4690468A460446DDF82890C6
:100BF000FFF72CFF054694F83D0020287FD11923EC
:100C0000012240492046009501F042FC002876D19F
:100C100094F83C00012872D0012084F83C00206840
:100C20000168C90703D1016841F001010160206832
:100C3000016821F400610160212084F83D0010204A
:100C400084F83E0000262664C4F824806785608D01
:100C500020852D48E0622B464A465146204601F049
:100C6000CBFA90B9206841698069009036E02A4645
:100C70004946204601F0EAFC50B1206C042804D11A
:100C80002068016841F4007101600120BDE8F88F1F
:100C9000606A216800780861606A401C6062618D4A
:100CA000491E6185218D491E89B2218522685369BB
:100CB000DB435B070BD451B100781061606A401CC4
:100CC0006062608D401E6085208D401E20852A4612
:100CD0004946204601F0B0FB0028CED1208D0028E7
:100CE000C5D154F83D0B016841F40071016020202A
:100CF00004F81E09E67766770020C7E7FFE70220C1
:100D0000C4E70000020010000000FFFF2DE9FF4FC4
:100D100083B00025DDE910799A4693460446DDF854
:100D200048800095FFF792FE064694F83D00202883
:100D30007CD11923012285492046009601F0A8FBA9
:100D40000028F5D194F83C0001286FD0012084F8E8
:100D50003C0020680168C90703D1016841F0010126
:100D600001602068016821F400610160222084F89C
:100D70003D00402084F83E0025646762A4F82A9074
:100D8000608D20857248E062CDE9008653465A4660
:100D90002046049901F07EFA00287DD1208DDFF8ED
:100DA000B491202768B1012814D002282068016876
:100DB0001ED041F480610160206841698069009023
:100DC000B6E02068416981690091016841F40071D1
:100DD0000160ADE02068016821F48061016072B6B5
:100DE0002068416981690091016841F400710AE05D
:100DF00041F40061016072B6206841698169009127
:100E0000016821F48061016062B691E0032868D82E
:100E100001280CD0022843464FF0000249462046E4
:100E200000960FD001F034FBB0BB10E08BE03246EF
:100E30004146204601F0D2FB70BB20680069616A20
:100E400008706CE001F024FB30BB72B634E020681F
:100E5000016821F48061016072B620680069616AEE
:100E60000870606A401C6062208D401E2085608D85
:100E7000401E6085384846F2A8110068B0FBF1F0CA
:100E8000C0EBC00000EB80000090401E009008D036
:100E900020684069C04300E029E040070CD5009875
:100EA000F3E744F8305F6773A573206940F02000D2
:100EB000206162B625731AE02068016841F4007170
:100EC000016020680069616A0870606A401C6062A5
:100ED000218D491E2185618D491E618562B621687B
:100EE0001BE032464146204601F078FB18B1012054
:100EF00007B0BDE8F08F20680069616A0870606A19
:100F0000401C6062218D491E2185618D491E6185CD
:100F100021684A69D24352070AD409690170606A9C
:100F2000401C6062208D401E2085608D401E6085C3
:100F3000208D00287FF46AAF84F83D7084F83E501D
:100F400084F83C50D4E70220D2E7000002001000F1
:100F50000000FFFF040001000C0000202DE9FF4FFE
:100F600083B09A46DDE9119793460446DDF8408048
:100F7000FFF76CFD054694F83D0020287FD119232A
:100F8000012240492046009501F082FA002876D1DE
:100F900094F83C00012872D0012084F83C002068BD
:100FA0000168C90703D1016841F0010101602068AF
:100FB000016821F400610160212084F83D00402097
:100FC00084F83E0000262664C4F82480A4F82A9001
:100FD000608D20852C48E062CDE9007553465A4665
:100FE0002046049901F0D4F970B930E02A46394618
:100FF000204601F02BFB58B1206C042804D1206856
:10100000016841F400710160012007B0BDE8F08F74
:10101000606A216800780861606A401C6062218D06
:10102000491E89B22185628D521E628522685369EC
:10103000DB435B070BD469B100781061606A401C28
:101040006062208D401E2085608D401E6085208D51
:101050000028CBD12A463946204601F0EDF9002878
:10106000CAD154F83D0B016841F4007101602020A1
:1010700004F81E09E67766770020C6E7FFE702203E
:10108000C3E70000020010000000FFFF10B586B0AB
:101090000021009101910291039100680F4988425B
:1010A0001AD10F4CA06940F00800A061A069694600
:1010B00000F008000490C02000901220019003204E
:1010C00003900848FFF7C8FBE06940F40010E061B6
:1010D000E06900F40010049006B010BD0054004018
:1010E00000100240000C014002488168027811445F
:1010F0008160704700000020074810B5016841F08A
:1011000010010160032000F0A7F80F2000F006F89E
:1011100000F050F8002010BD0020024030B5054618
:101120001F4887B0C16941F00401C161C06906A9C7
:1011300000F00400009001A800F02EFA0498B0B16D
:1011400000F04AFA40001749174AB0FBF1F117487E
:10115000491E0260416040F2E7320021C0E90321EC
:101160008160816100F000FD040003D015E000F013
:1011700033FAE8E70D4800F043FD04000DD11E20CE
:1011800000F03CF8102D07D2002229461E2000F066
:1011900043F80748056000E0012407B0204630BD51
:1011A0000010024040420F00000800401C060020D2
:1011B000040000200F4808B5816941F001018161F8
:1011C000816901F001010091C16941F08051C16163
:1011D000C069002200F0805000900F21901E00F0A6
:1011E0001BF80548416821F0E06141F00071416061
:1011F00008BD00000010024000000140002809DB8B
:1012000000F01F02012191404009800000F1E02020
:10121000C0F8001170470000F0B40E4B1B680C467C
:10122000C3F30223C3F10705042D00D90425191DBA
:10123000072901D2002300E0DB1E012606FA05F192
:10124000491E214099409E40761E16403143F0BC15
:1012500002F0BEBA0CED00E0064900F00702086893
:101260004FF6FF03184040EA0220034A104308608B
:10127000704700000CED00E00000FA052DE9F04198
:1012800086B0040004D094F8A902002520B108E03B
:10129000012006B0BDE8F08184F8A852204600F095
:1012A0005BF8032084F8A902206802F072FA04F1C6
:1012B0001001142288466846FEF7D4FF94E80F0018
:1012C00002F05AFA0227D0BB0021206802F068FA27
:1012D000002001260EE000BF00EB800104EBC101FD
:1012E00081F8296001F8280F401CCD700D614D6117
:1012F000C0B28D6161688142EED8002012E000BF6B
:1013000000EB800104EBC10181F8695181F86801AB
:1013100081F86B51C1F87851C1F87C51401CC0B2C2
:10132000C1F8805161688142EAD81422414668467A
:10133000FEF798FF94E80F0002F022FA10B184F84B
:10134000A972A5E784F8245084F8A962206802F005
:1013500015FA00209DE7000008B50068064988429C
:1013600008D10648C16941F40001C161C06900F4B7
:101370000000009008BD0000005C0040001002402A
:101380002DE9F84305460078354CC00754D0E06994
:101390000026C00008D4E06940F08050E061E069B8
:1013A000012600F0805000902E480168C90512D433
:1013B0000168804641F480710160FFF747FB0746F2
:1013C00005E000BFFFF742FBC01B642823D8D8F814
:1013D0000000C005F6D5206A10F4407021D0A9881D
:1013E00001F4407181421CD0206A1F49012220F47F
:1013F00040700A6000220A602062C00711D0FFF727
:1014000025FB074641F2883808E000BFFFF71EFBC6
:10141000C11B414502D90320BDE8F883206A80073B
:10142000F4D5206A696820F44070084320621EB138
:10143000E06920F08050E0612878800705D5606879
:10144000A96820F44040084360602878C00605D5AC
:101450006068E96820F48000084360600020DBE7F2
:101460000010024000700040400442422DE9F04765
:101470000F46050061D0434E306800F00700B842C7
:1014800009D2306820F0070038433060306800F03F
:101490000700B84251D128683B4C810712D540075C
:1014A00003D5606840F4E06060602878000703D5E9
:1014B000606840F4605060606068A96820F0F000E7
:1014C000084360602878C00728D06868012810D0D9
:1014D0002168022810D0890700292EDA616821F0DE
:1014E000030101436160FFF7B1FA804641F2883998
:1014F0000DE021688903EFE78901EDE7FFF7A6FA20
:10150000A0EB0801494502D90320BDE8F0876068D7
:10151000696800F00C00B0EB810FEFD1306800F08B
:101520000700B8420BD9306820F00700384330601C
:10153000306800F00700B84201D00120E5E72878C4
:10154000400705D56068E96820F4E0600843606002
:101550002878000706D56068296920F4605040EAC1
:10156000C100606000F058F86168084AC1F30311D7
:10157000515CC8400649086006480068FFF7CEFD88
:101580000020C2E700200240001002408E5B0008ED
:101590000C000020040000200F2202600C4A536857
:1015A00003F003034360536803F0F0038360536860
:1015B00003F4E063C36052684FF4E06303EAD202CD
:1015C00002610448006800F00700086070470000EE
:1015D00000100240002002400448054900684968A4
:1015E000044AC1F30221515CC84070470C0000203E
:1015F000001002409E5B00080448054900684968E5
:10160000044AC1F3C221515CC84070470C0000205D
:10161000001002409E5B00080E4A51680E4801F01F
:101620000C03042B11D0082B0FD10C48C1F38343BA
:10163000C903C05C0AD55168084AC1F34041921EF3
:10164000515C054A5043B0FBF1F0704704494843F0
:10165000704700000010024000127A007E5B000814
:1016600000093D002DE9F84F040070D02078C04DEE
:10167000C00749D06868C0F38100012807D06868B6
:10168000C0F38100022809D16868C00306D5286824
:10169000800339D560680028E7D035E06068B0F590
:1016A000803F0BD010B1B0F5A02F11D0286820F4E6
:1016B00080302860286820F4802002E0286840F408
:1016C00080302860606890B1FFF7C0F906460AE0F4
:1016D000286840F480202860F0E700BFFFF7B6F9E3
:1016E000801B642873D828688003F7D50CE0FFF7C7
:1016F000ADF9064605E000BFFFF7A8F9801B642896
:10170000F0D828688003F7D420789A4E80074FF0ED
:1017100001094FF0000839D5686810F00C0F07D0A8
:101720006868C0F38100022809D16868C00306D444
:101730002868800714D52069012808D110E02069A5
:10174000B0B1C6F80090FFF781F9074605E00AE15D
:10175000FFF77CF9C01B0228C4D828688007F7D59A
:101760002868616920F0F80040EAC10028600DE0B7
:10177000C6F80080FFF76AF9074604E0FFF766F94C
:10178000C01B022823D828688007F7D420780007D8
:101790002CD57948A169D9B1C0F80090FFF756F966
:1017A000074604E0FFF752F9C01B02280FD8686A09
:1017B0008007F7D571484FF4FA510068B0FBF1F09B
:1017C000009000BF0098411E0091FAD20EE080E028
:1017D000C0F80080FFF73AF9074604E0FFF736F952
:1017E000C01B022875D8686A8007F7D420784007A4
:1017F00060D5E8690027C00008D4E86940F080504F
:10180000E861E869012700F0805000905C480168B9
:10181000C90513D40168834641F480710160FFF764
:1018200015F9824606E000BFFFF710F9A0EB0A00A9
:1018300064284ED8DBF80000C005F5D5E068012823
:101840000AD008B1052813D0286A20F001002862C8
:10185000286A20F0040002E0286A40F001002862B3
:10186000E06841F2883B98B1FFF7F0F882460BE060
:10187000286A40F004002862EEE700BFFFF7E6F8B0
:10188000A0EB0A0159455AD8286A8007F6D50CE022
:10189000FFF7DCF8824605E0FFF7D8F8A0EB0A0175
:1018A00059454CD8286A8007F6D41FB1E86920F062
:1018B0008050E861E06988B36968C1F38101022959
:1018C00044D00228C6F8608004D0FFF7BFF8044671
:1018D00038E034E0FFF7BAF8074604E0FFF7B6F85F
:1018E000C01B02282BD828688001F7D4206AB0F5E5
:1018F000803F05D16868A16820F400300843686023
:10190000D4E908010843696821F474110843686048
:10191000C6F86090FFF79AF8044606E025E000BF9D
:10192000FFF794F8001B022809D828688001F7D532
:101930001BE000BFFFF78AF8001B022802D9032032
:10194000BDE8F88F28688001F4D40EE00128F7D0B4
:101950006868226A00F48031914204D1616A00F41F
:101960007010884201D00120EAE70020E8E700007B
:101970000010024000004242800442420C0000205D
:101980000070004070B5040009D0606A002540B1C5
:1019900025616561A56294F8510040B10CE0012019
:1019A00070BD6068B0F5827FF4D0E561F2E784F83D
:1019B0005050204600F040F8022084F85100206882
:1019C000016821F040010160A088218900F4827043
:1019D00001F404410843A18901F400610843217C1A
:1019E00001F002010843217D01F001010843218B30
:1019F00001F400710843217F01F03801084394F895
:101A0000201001F080010843218D01F400510843AA
:101A100021680860A069042101EA1040216848603B
:101A20002068C16921F40061C1616565012084F805
:101A30005100002070BD000030B585B00024009436
:101A400001940294039400681449884223D11448F5
:101A5000816941F480518161816901F4805104916F
:101A6000816941F00401816180690E4D00F004003C
:101A70000490A0200090022001900320039069466A
:101A80002846FEF7E9FE4020CDE9000469462846D5
:101A90000294FEF7E1FE05B030BD000000300140C9
:101AA00000100240000801407047704710B590F8E0
:101AB0003C20012A22D0012280F83C20CA688C6890
:101AC00022F4407222434C6822F4806222430C6864
:101AD00022F4006222430C6922F4805222434C69B2
:101AE00022F400522243C969002322F480420A43AF
:101AF00001684A6480F83C30002010BD022010BD0F
:101B000070B590F83C20012A26D0012480F83C4092
:101B1000022280F83D2003685A689D6822F0700612
:101B20000A6832435A600D4B02689A4208D0B2F1FB
:101B3000804F05D00A4B9A4202D00A4B9A4204D1F8
:101B4000496825F080031943916080F83D400021E9
:101B500080F83C10084670BD022070BD002C01408A
:101B6000000400400008004010B5040003D094F8C1
:101B70003D0010B107E0012010BD002084F83C00BA
:101B8000204600F01FF8022084F83D00211D206847
:101B900001F088FC012084F8460084F83E0084F8B7
:101BA0003F0084F8400084F8410084F8420084F843
:101BB000430084F8440084F8450084F83D00002088
:101BC00010BD000008B50C4A01680C48914207D1CD
:101BD000816941F400618161806900F4006009E07D
:101BE000B1F1804F07D1C16941F00101C161C06904
:101BF00000F00100009008BD002C014000100240E0
:101C000090F83D10012901D001207047022180F891
:101C10003D100168CA6842F00102CA6000680B49C1
:101C2000884208D0B0F1804F05D00949884202D0DF
:101C30000849884204D1816801F00701062903D0D0
:101C4000016841F00101016000207047002C014053
:101C5000000400400008004070B5044690F83C00C5
:101C60000025012817D0012684F83C60022084F862
:101C70003D002068826822F0770222F47F42826071
:101C80000868502838D00DDC20284FD005DC90B3F0
:101C9000102811D14AE0022070BD302846D04028DB
:101CA0000AD13BE060282FD070280DD0B0F5805FBE
:101CB00003D0B0F5005F12D0012584F83D6000200C
:101CC00084F83C00284670BDCB68D1E9012120682A
:101CD00001F01EFC2068816841F0770109E0CB68C3
:101CE000D1E90121206801F013FC2068816841F4EA
:101CF00080418160E1E719E0CA684968206801F025
:101D0000BBFC5021206806E0CA684968206801F0E1
:101D1000C4FC6021206801F005FCCEE7CA68496870
:101D2000206801F0A9FC40212068F4E72268014600
:101D30001046F0E7704770B50446006801694FF03F
:101D40000005C943890715D4C168C943890711D45F
:101D5000E91E016101202077206880698007204604
:101D600002D0FFF7E7FF04E000F00EF9204600F094
:101D7000B3F9257720680169C943490717D4C168B9
:101D8000C943490713D46FF0040101610220207791
:101D90002068806910F4407F204602D0FFF7CAFF18
:101DA00004E000F0F1F8204600F096F9257720686D
:101DB0000169C943090716D4C168C943090712D488
:101DC0006FF008010161042020772068C069800756
:101DD000204602D0FFF7AEFF04E000F0D5F8204621
:101DE00000F07AF9257720680169C943C90617D43C
:101DF000C168C943C90613D46FF0100101610820FE
:101E000020772068C06910F4407F204602D0FFF799
:101E100091FF04E000F0B8F8204600F05DF9257766
:101E200020680169C943C90708D1C168C943C90706
:101E300004D1891E0161204600F050F92068016933
:101E4000C943090609D4C168C943090605D46FF01E
:101E5000800101612046FFF727FE20680169C94320
:101E6000490609D4C168C943490605D46FF0400149
:101E70000161204600F03CF920680169C9438906E8
:101E80000BD4C168C943890607D46FF020010161F2
:101E90002046BDE87040FFF708BE70BD70B586B043
:101EA000002100910191029103910068304B31496A
:101EB0000224314A984211D1886940F004008861B7
:101EC0008869039400F0040004908815CDE90004AB
:101ED00069461046FEF7C0FC06B070BD274E284D7F
:101EE000B0F1804F1BD0274A9042F5D1886940F06D
:101EF000080088618869694600F008000490102095
:101F0000CDE9000430460394FEF7A6FC686820F48F
:101F1000406040F0E06040F400606860DCE78869A1
:101F200040F004008861886900F00400049088692A
:101F300040F0080088618869694600F00800049054
:101F400048F20400CDE9000410460394FEF784FC37
:101F50000820CDE90004694630460394FEF77CFC76
:101F6000686820F4407040F0E06040F48070D4E78E
:101F7000002C01400010024000080140000C01400C
:101F80000000014000040040704770B5044690F81E
:101F90003C0000260D4601280FD0012084F83C00AB
:101FA0006AB1042A1DD0082A2FD00C2A3FD001265E
:101FB000002084F83C00304670BD022070BD2068CF
:101FC00001F0B8FA2068816941F008018161206858
:101FD000816921F004018161206881692A691143C6
:101FE00011E0206801F0CEFA2068816941F40061B7
:101FF00081612068816921F4806181612068816943
:102000002A6941EA02218161D2E7206801F0E6FAFB
:102010002068C16941F00801C1612068C16921F0EF
:102020000401C1612068C1692A69114311E0206877
:1020300001F000FB2068C16941F40061C1612068C2
:10204000C16921F48061C1612068C1692A6941EADE
:102050000221C161ACE710B5040003D094F83D0043
:1020600010B107E0012010BD002084F83C0020469C
:1020700000F01EF8022084F83D00211D206801F0C8
:1020800011FA012084F8460084F83E0084F83F00ED
:1020900084F8400084F8410084F8420084F843004A
:1020A00084F8440084F8450084F83D00002010BD09
:1020B00008B500680649884208D10648C16941F060
:1020C0000201C161C06900F00200009008BD00007B
:1020D00000040040001002407047000000680349FF
:1020E000884201D1FFF700B87047000000080040A7
:1020F000704770B5040004D094F84100002510B179
:1021000006E0012070BD84F84050204600F024F81D
:10211000242084F841002068C16821F40051C16086
:10212000204601F0CDFA2068016921F49041016157
:102130002068416921F02A0141612068C16841F4A9
:102140000051C1606564202084F8410084F8420099
:102150006563002070BD000030B585B00024009498
:1021600001940294039400681449884224D11448CD
:10217000816941F480418161816901F48041049168
:10218000816941F00401816180690E4D00F0040015
:1021900004904FF4007000900220019003200390FF
:1021A00069462846FEF758FB2815CDE90004694624
:1021B00028460294FEF750FB05B030BD00380140C0
:1021C0000010024000080140FEE701684A69D2435E
:1021D00052050FD46FF480624A61002140F8301F2D
:1021E000202242738173026942F00402026101738A
:1021F0000120704700207047F8B50446C06A1E46AB
:102200000D461746082807D0012805D010F5803F55
:1022100002D0206B122804D12068016841F480713B
:102220000160134600224FF001112046009600F095
:102230002FF940B120680068C00502D54FF4007046
:1022400020640320F8BD2069B0F5804F0ED0062031
:10225000216800EAD51040F0F000086133463A46A4
:102260000B49204600F05CF978B902E005F0FE0069
:1022700000E0E8B221680861054933463A46891F03
:10228000204600F04DF90028DCD00120F8BD000008
:10229000080001002DE9F84F0446006889460B9DAF
:1022A00001689846174641F4806101602068016822
:1022B00041F48071016000954FF0011B00225946E6
:1022C00020460A9B00F0E4F84FF4007A40B1206801
:1022D0000068C00501D5C4F840A00320BDE8F88F10
:1022E000216809F0FE0008612B46284920460A9A19
:1022F00000F016F9F0BB20684169806900902A4619
:1023000020460A9900F0A2F940B1206C04283AD185
:102310002068016841F40071016034E0FEB2B8F158
:10232000010F09D02168380A08612A4620460A9917
:1023300000F08CF90028E8D1206806612A46204682
:102340000A9900F083F90028DFD12068016841F480
:102350008071016000950022594620460A9B00F0DA
:1023600097F80028B3D1216809F0FF0040F0010080
:10237000086100E007E02B46044920460A9A00F075
:10238000CFF80028AAD00120A8E700000200010031
:102390002DE9F843044600680D46DDE90897016819
:1023A0009846164641F4807101604B4600224FF07A
:1023B00001112046009700F06BF848B120680068D2
:1023C000C00502D54FF4007020640320BDE8F883F7
:1023D000216805F0FE0008613B464A461549204643
:1023E00000F09EF888B920684169806900903A46FB
:1023F0004946204600F02AF948B1206C042804D14F
:102400002068016841F4007101600120DEE7F5B247
:10241000B8F1010F09D02168300A08613A464946EF
:10242000204600F013F90028E7D12068056100205C
:10243000CCE700000200010070B516460D460446C8
:102440001EE02046FFF7C1FE08B1012070BD681CE8
:1024500016D0FEF7FBFA801BA84200D885B9206889
:102460004069C04340070BD5002044F8300F2021BD
:102470006173A073216941F0200121612073E4E7B9
:1024800020684069C0434007DBD4002070BD0000D5
:102490002DE9F047984617460D460446C1F3074616
:1024A000DDF820902AE000BFB8F1FF3F26D0FEF70C
:1024B000CDFAA0EB0901414502D8B8F1000F1DD1BA
:1024C0002068012E16D0806925EA00000004000C67
:1024D00012D00020B84211D1002044F8300F202142
:1024E0006173A073216941F02001216120730120F3
:1024F000BDE8F0874069E7E70120EBE72068012E9F
:102500000AD0806925EA00000004000C06D00020F3
:10251000B842C9D00020EBE74069F3E70120F7E7B4
:102520002DE9F047984616460D4604464FF000093F
:102530004FF0200AC1F3074723E020684069C043F9
:10254000400515D42068016841F4007101602168DC
:102550006FF480604861C4F8309084F83DA084F83E
:102560003E90216C41F00401216484F83C9021E00C
:10257000701C06D0FEF76AFAA0EB0800B04203D840
:1025800016B1012F1FD021E02068012F15D08069DE
:1025900025EA00000004000C18D000BF44F8309F6A
:1025A00084F80DA084F80E90216941F0200121618A
:1025B00084F80C900120BDE8F087406925EA00000E
:1025C0000004000CEAD12068406901E020688069BD
:1025D00025EA00000004000CAFD1ECE72DE9F04142
:1025E000002590460E460446202728E04069C04357
:1025F000C0060CD454F8301B6FF01000486144F84A
:1026000010596777A577206A2062257714E0FEF7D6
:102610001DFAA0EB0800B04200D886B920684069D6
:10262000C04340060BD544F8305F6773A57320693B
:1026300040F02000206125730120BDE8F081206872
:102640004169C9434906D1D40020F6E770B5164662
:102650000D4604461EE02046FFF7B7FD08B10120F5
:1026600070BD681C16D0FEF7F1F9801BA84200D897
:1026700085B920684069C04300060BD5002044F8A6
:10268000300F20216173A073216941F02001216185
:102690002073E4E720684069C0430006DBD40020D3
:1026A00070BD00002DE9FE4FDFF800910022484682
:1026B000DFF8FCC0D0E90261D9E900400B46341BC9
:1026C00061EB0001501EB4EB0C0C1546174671F17E
:1026D000000C5ED3DFF8DC804FF0000CB8EB040494
:1026E0007CEB010C55D34C46D4E904C1BCEB060687
:1026F00061EB0301304BF31A71F1000349D3DFF8AA
:10270000BCC00023BCEB06068B4142D300234FF034
:102710000309EA4609EB430C0CF1010104EBC1018A
:1027200004EBCC0CD1E90061DCE9008CB6EB0806C7
:1027300061EB0C015206DFF88880120E6D1C4FF021
:10274000000CB8EB06067CEB010C01D242F0010252
:10275000082D04D10AF80720002215467F1C5B1CB7
:10276000202BD7DB9DF80110164CC943CBB28DF856
:1027700001309DF80310C943C9B28DF803109DF8CC
:1027800000209A4203D19DF802308B4203D00021F1
:102790002160BDE8FE8FCDE9012300231A4601A97F
:1027A000E06802F097FE0020F3E700000037002009
:1027B00000127A0080969800E0673500C03B47031E
:1027C00040420F00980000202DE9FC4102F074FA0D
:1027D000264C274FD4E90423861A61EB0302002319
:1027E0001D46BE1B934100D22560C4E90401214A65
:1027F000236802EBC3065B1CC6E900012360042BBF
:1028000006D0442B02D1FFF74DFF2560BDE8FC81C7
:10281000D2E90260D2E900370146F31A60EB070003
:10282000154FDF1B70F10007F0D3DFF850C0002711
:10283000BCEB03038741E9D3D2E90402801B62EBBE
:1028400001020F49411A72F10001DFD34FEAAC03D4
:102850000021181A9141D9D30095002301951A46F9
:102860006946E06802F036FECFE7000098000020DD
:1028700000E1F5050037002000127A0080969800EC
:1028800080841E0010B5002208210A2002F0D1FC2D
:102890000149C86010BD0000980000201C4C08B51C
:1028A0004FF0FF37022604F140053946E06902F097
:1028B00013FF0028F9D0616A884202D100F0EAFCD7
:1028C000F3E7A16A884202D100F00AFDEDE7E36A6E
:1028D0009842EAD100226946184602F061FEBDF92D
:1028E0000000002801DA6E6008E0A0F2E930B0F5DF
:1028F000F97F01D8012000E000206860044900232E
:102900002E601A464031206A02F02EFDCDE700000D
:10291000DC00002000F070BB00F084BB00F09EBB28
:1029200000F0CCBB00F0D4BB00F01CBC10B5002103
:102930006B2000F0B5F800216C2000F0B1F80921FF
:10294000192000F0ADF806211A2000F0A9F818218E
:102950001B2000F0A5F818211C2000F0A1F800228F
:1029600002210A2002F065FC01494860002010BDE8
:10297000900000202DE9FC5F0E46DDE90CAB074618
:102980001D46914601A93B2000F07AF88046694631
:102990003C2000F075F840EA080437B19DF80000CB
:1029A0009DF8041040EA0120388001A93D2000F084
:1029B00067F840EA040769463E2000F061F840EA03
:1029C000070436B19DF800009DF8041040EA01208C
:1029D000308001A93F2000F053F8044369464020AD
:1029E00000F04EF80443B9F1000F07D09DF8000045
:1029F0009DF8041040EA0120A9F8000001A9432035
:102A000000F03EF840EA04066946442000F038F839
:102A100040EA060435B19DF800009DF8041040EA34
:102A20000120288001A9452000F02AF804436946C6
:102A3000462000F025F80443BAF1000F07D09DF8B6
:102A400000009DF8041040EA0120AAF8000001A946
:102A5000472000F015F840EA04056946482000F0D8
:102A60000FF82843BBF1000F07D09DF800109DF828
:102A7000042041EA0221ABF80010BDE8FC9F0000F1
:102A80000EB54FF4FA7201230292CDE9001302460B
:102A90000248D0210068FEF739F90EBD90000020F1
:102AA0001CB502238DF804004FF4FA70009004481E
:102AB0008DF8051001AAD0210068FEF791F81CBD21
:102AC000900000200EB500250D4C0E4F0126206809
:102AD0000028FCD12660002300951A46194602A85A
:102AE0000195FFF747FF256028B900231A4602A980
:102AF000786802F039FC322002F04CFAE7E7000077
:102B0000C8000020900000203EB500241148009429
:102B1000019402940E4984600160047304750125D8
:102B200005614FF460214460C161FDF7C3FD08B148
:102B3000FDF72EFD0320CDE9000569460294054806
:102B4000FDF73AFD002801D0FDF722FD3EBD000053
:102B500000240140300100201CB5FFF7E3FEFFF721
:102B6000D9FEFFF78FFE00F02FFCFFF7DFFE0021FC
:102B700007A20846FFF7D8FE00211820CDE9000182
:102B80000B46802205A1084802F0EAFD1CBD0000AA
:102B90005374617274696E670000000047616D656F
:102BA0005461736B00000000A14000082DE9F0475C
:102BB00086B000244B4800940194029403948169E8
:102BC00041F010018161816901F010010491816976
:102BD00041F020018161816901F020010491816946
:102BE00041F004018161816901F00401049181696E
:102BF00041F00801816180693B4F00F008004FF40B
:102C000000550490002229463846FDF71AFFDFF8E8
:102C1000DC90002213214846FDF713FFDFF8D0A017
:102C20004FF40248002241465046FDF70AFF009546
:102C3000022601250396CDE9015469463846FDF781
:102C40000BFE112700970396CDE9015469464846CB
:102C5000FDF702FECDE90256CDE900676946484618
:102C6000FDF7FAFD03208DE8310069465046FDF777
:102C7000F3FDA80200901F48CDE9010569465046C2
:102C8000FDF7EAFD1C4F4FF40260CDE900076946ED
:102C900002955046FDF7E0FD2803CDE9000769469F
:102CA00002945046FDF7D8FD4FF48240CDE9000470
:102CB000694650460294FDF7CFFDCDF8008003969B
:102CC000CDE9015469465046FDF7C6FD00220521B5
:102CD0002820FEF7A1FA2820FEF790FA06B0BDE8FA
:102CE000F087000000100240001001400008014081
:102CF000000C014000003110000011100D4810B50B
:102D00000B4901600C49416000214FF48042816011
:102D1000C0E9031241618161C1610162FDF79CFE5E
:102D2000002803D0BDE81040FDF732BC10BD000004
:102D30000054004060010020A0860100104810B53A
:102D40000E4901604FF48271416000218160C160D1
:102D50004FF400720161C0E905120822C0E90721A1
:102D6000416281620A21C162FEF70CFE002803D095
:102D7000BDE81040FDF70CBC10BD00000030014064
:102D8000B401002010B596B000240F941094119453
:102D9000129413941C2108A81494FDF77CFA2021A6
:102DA0006846FDF778FA2A48284901604721C0E9BA
:102DB000011440F2E731C0E903148021C0E9054164
:102DC000FEF7D2FE08B1FDF7E3FB4FF480500F9001
:102DD0000FA91F48FEF740FF08B1FDF7D9FB1C48BB
:102DE000FFF739F908B1FDF7D3FB139413A918487D
:102DF0001494FEF785FE08B1FDF7CAFB6020089029
:102E000040F2F310CDE909040B940C940D940022C8
:102E100008A90F480E94FFF7B8F808B1FDF7B8FB02
:102E200000944FF40050CDE90440029401940394BF
:102E3000694607480794FEF739FE08B1FDF7A8FB7D
:102E40000348FFF72BF816B010BD0000002C01401E
:102E50000C02002010B58EB0002407940894099449
:102E60000A940B941C2168460C94FDF714FA274829
:102E70004FF08041016040F26711C0E9011440F257
:102E8000CF71C0E9031480218161FEF76DFE08B1A6
:102E9000FDF77EFB4FF48050079007A91B48FEF713
:102EA000DBFE08B1FDF774FB1848FFF7D4F808B152
:102EB000FDF76EFB0B940BA914480C94FEF720FE53
:102EC00008B1FDF765FB6020CDE900040294002203
:102ED00069460E480494FFF758F808B1FDF758FB0F
:102EE000042269460948FFF750F808B1FDF750FB86
:102EF000082269460548FFF748F808B1FDF748FB86
:102F00000248FEF7CBFF0EB010BD000054020020B7
:102F100010B58AB0002407941C2168460894FDF778
:102F2000BAF91848164901600721C0E9011440F2B6
:102F3000E731C0E9031480218161FFF78CF808B103
:102F4000FDF726FB079407A90E480894FEF7D8FD65
:102F500008B1FDF71DFB602000904FF46170CDE9D2
:102F600001040022694607480494FFF70EF808B1EF
:102F7000FDF70EFB0348FEF791FF0AB010BD0000FD
:102F8000000400409C0200200C4810B50A49016072
:102F90004FF4E1314160002181600C22C160C0E941
:102FA00004128161C161FFF7A4F8002803D0BDE8D5
:102FB0001040FDF7EDBA10BD00380140E4020020DA
:102FC0000B4810B509490160082141600221816068
:102FD00000218161C1610162FEF750F9002803D030
:102FE000BDE81040FDF7D4BA10BD0000005C004001
:102FF0002C030020FEE7FEE710B5A0B000248021DE
:103000006846FDF748F90021204600F0FFF88021CE
:10301000684600F02FF9641CE4B2082CF3D320B00A
:1030200010BD000070B50C4D002400BF04F1B000CD
:10303000C0B200F00BF9002000F008F9102000F0F9
:1030400005F905EBC410802100F014F9641CE4B20A
:10305000082CEBD370BD00007C3200202DE9F04736
:103060008146C81701EB5070C0F3C70520F0070078
:10307000081A1844C01DC11700EB51709246C0F3E6
:10308000C7070024DFF8308011E02E19082E0CD27B
:1030900009F0FF01F0B200F0B9F809EBC6121FFA0F
:1030A0008AF102EB080000F0E5F8641CE4B2BC42CF
:1030B000EBD3BDE8F08700007C3200208023036062
:1030C0004020086001201060004870477C320020DA
:1030D00010B50224202000F0B9F8204600F0B6F820
:1030E0001F4804703F24A82000F0B0F8204600F0EC
:1030F000ADF80024D32000F0A9F8204600F0A6F88F
:10310000402000F0A3F8A12000F0A0F8C82000F0B3
:103110009DF80021084600F063F87F24812000F02C
:1031200095F8204600F092F8A42000F08FF8A62031
:1031300000F08CF8D52000F089F8802000F086F8A7
:103140008D2000F083F8142000F080F80021012089
:1031500000F046F8BDE81040AF2000F077B800005E
:10316000880000202DE9F04117460E460446002550
:103170000BE03146204600F00FF8641CE4B20F2C3F
:1031800002D90024B61CF6B26D1C7A5D002AF0D17B
:103190002846BDE8F081000070B51646C206150E3F
:1031A0000C46072918D80F2816D82946204600F0C3
:1031B0002DF80A48082100EB0610064600F05AF8E0
:1031C000641CE0B2294600F021F806F10800BDE8D1
:1031D0007040082100F04EB870BD0000A65B0008EA
:1031E00070B50C46050001D0012D0ED10CB1012C9B
:1031F0000BD1DA2000F02AF8280100EB4410BDE8DA
:103200007040801CC0B200F021B870BD70B50E4D8A
:103210000C462978022905D1072803D8B030C0B25E
:1032200000F014F8287802280CD17F2C0AD804F07A
:103230000F0000F00BF8102000EB1410BDE87040F8
:1032400000F004B870BD0000880000201CB500210B
:103250008DF804108DF805004FF4FA7000900448C2
:10326000022301AA78214068FDF7BAFC1CBD0000CA
:10327000880000200EB54FF4FA728DE8070004486C
:103280000123402278214068FDF768FE0EBD000052
:10329000880000201CB5114C00226946606A02F0CB
:1032A0007FF9019904F13000E0290ED0902910D067
:1032B00019B10099016000214160084900231A46B4
:1032C0003031206A02F050F81CBD009901600221E3
:1032D000F2E7009901600121EEE70000DC00002028
:1032E0007CB5184E00226946B06A02F059F9019A7D
:1032F000012106F13800002A05DAC2F1000201922C
:103300004FF0020204E001DD416002E04FF00002F4
:103310004260019A642A01DD042404E0322A01DDBE
:10332000022400E001240025016007E00549002394
:103330001A463831306A02F017F86D1CA542F5DBE9
:103340007CBD0000DC0000202DE9FC4101F0B4FC54
:1033500006460D46022000F085FF184F4FF48051BD
:103360003846FDF769FB002820D0154CD4E904014C
:10337000321A65EB010313480021FCF71FFF606060
:1033800001213846FDF758FB0028206810D0401C6A
:10339000C4F80000C4E90465206800906068002358
:1033A00001901A466946E06802F094F8BDE8FC8195
:1033B000401E2060606840426060EBE7000C014006
:1033C000B000002000CA9A3B08B50020054B0090D1
:1033D000A3F1500208210A2001F04FFF0249C86002
:1033E00008BD000070390020B000002010B550204A
:1033F00080F31188BFF34F8FBFF36F8F02F01CFA79
:1034000018B104494FF080500860002080F3118803
:1034100010BD000004ED00E030B593B028216846EF
:10342000FCF739FF14210AA8FCF735FF002401201E
:103430000F9410941194010412948DE813000490D9
:103440004FF4E010CDE90810022507956846FEF715
:1034500009F908B172B6FEE70F20CDE90A054FF46D
:103460008060CDE90C4002210AA80E94FDF7FEFF12
:1034700008B172B6FEE712200F904FF40040CDE97C
:1034800011040FA8FDF77CFF002801D072B6FEE7FB
:1034900013B030BD704700000148FEF74CBC00007F
:1034A0001C060020F0B50268164B174C174D4FF064
:1034B0008047984205D0B84203D0A04201D0A8422C
:1034C00003D122F070064A683243984205D0B842D0
:1034D00003D0A04201D0A84203D122F44074CA68AC
:1034E00022434C6922F08002224302608A68C26251
:1034F0000A688262984201D1096901630121416130
:10350000F0BD0000002C0140000400400008004015
:1035100010B5846842EA032224F47F440A4322431C
:10352000826010BD826822F070020A4342F00701F7
:103530008160704730B5036A026A22F001020262BC
:103540004268846924F073050C682C4323F002055B
:103550008B682B430A4DA8420BD123F00805CB689A
:1035600022F440722B434D6923F0040315438A690A
:103570002A434260846149684163036230BD0000B0
:10358000002C014030B5026A036A23F01003036285
:10359000436884690D6824F4E64444EA05248D6890
:1035A00022F0200242EA05120B4DA8420ED1CD684E
:1035B00022F0800242EA05124D6923F4406343EA97
:1035C00085038D6922F0400243EA850343608461EC
:1035D00049688163026230BD002C014030B5036A46
:1035E000026A22F4807202624268C46923F40073A2
:1035F00024F073050C682C438D6843EA05230C4DB9
:10360000A8420ED1CD6823F4006343EA05234D6937
:1036100022F4405242EA05128D6923F4806342EAA3
:1036200005124260C4614968C163036230BD000095
:10363000002C014030B5046A026A22F48052026212
:103640004268C3690D6823F4E64343EA05238D68A5
:1036500024F4005444EA0534064DA84204D14D69CF
:1036600022F4804242EA85124260C36149680164E3
:10367000046230BD002C014010B5036A046A24F0D6
:1036800001040462846924F0F00444EA021423F083
:103690000A020A438461026210BD10B5036A046A1B
:1036A00024F010040462846923F0A00324F470441D
:1036B00044EA023243EA01118261016210BD000056
:1036C00070B5044600680169E26821F44051114375
:1036D00001612169A0680843616908432168CA68DB
:1036E00041F20C639A430243CA6020684169A269AF
:1036F00021F44071114341611E492068884202D182
:10370000FDF77AFF01E0FDF767FF00EBC00101EB79
:103710000012606864218000B2FBF0F3B3FBF1F3A8
:103720006FF018067343B2FBF0F5B2FBF0F605EB51
:103730008305322303EB0515B5FBF1F5B6FBF1F676
:1037400005F0F00505EB0615B2FBF0F6B2FBF0F064
:10375000B0FBF1F06FF01802504306EB800003EB72
:103760000010B0FBF1F0216800F00F0028448860E1
:1037700070BD0000003801400020704700207047F5
:10378000012120F8401F002101808180018208462C
:10379000704730F8401F21F43F41018000207047FE
:1037A00000207047FEE700000FB4084B10B504A9D5
:1037B00002AA039800F02CF8044602A9002000F0A9
:1037C00003F9204610BC5DF814FB0000C93900085D
:1037D0000907090E002804DB00F1E02080F800143E
:1037E000704700F00F0000F1E02080F8141D7047D2
:1037F00002E008C8121F08C1002AFAD170477047BA
:10380000002001E001C1121F002AFBD17047000017
:103810002DE9FF4F8BB09A460F460546002606E07D
:1038200025280BD052460D9990476D1C761C2878A0
:103830000028F5D10FB03046BDE8F08F0024A04637
:103840000122604900E0044315F8013F203B02FAE1
:1038500003F00842F7D128782E2817D115F8010F68
:1038600044F004042A280ED06FF02F022878A0F12B
:10387000300109290AD808EB880102EB410100EB6D
:1038800001086D1CF2E757F8048B6D1C2878692835
:103890003ED006DC0028CDD063280BD0642804D1AC
:1038A00036E0732810D075284BD052460D999047BA
:1038B000761C85E017F8040B8DF8000000208DF8C9
:1038C0000100E946012003E057F8049B4FF0FF3068
:1038D00061074FF0000401D40AE0641C44450DDA8E
:1038E0008442FADB19F804100029F6D106E0641CC2
:1038F0008442FCDB19F804100029F8D1264404E0C6
:1039000019F8010B52460D999047641EF8D257E002
:1039100001CF4FF00A0B002802DA40422D2102E0CD
:10392000210504D52B218DF82410012103E0E107A6
:1039300005D02021F7E70DF1200908910CE00021C6
:10394000F9E701CF4FF00A0BF9E75946FCF758FDAC
:1039500001F1300209F8012D0028F6D1ADEB090084
:1039600000F1200B600701D44FF00108D84502DDBB
:10397000A8EB0B0000E000208046002406E009A828
:103980005246005D0D999047641C761C089884424D
:10399000F5DB04E0302052460D999047761CB8F1D3
:1039A0000001A8F10108F5DC05E019F8010B524609
:1039B0000D999047761CBBF10001ABF1010BF4DCD3
:1039C0006D1C34E7092801000A68531C0B60107055
:1039D000704700002DE9FF4F93B01F4622991498BD
:1039E000DDF88080401AC0B20C9008F10700C008D2
:1039F00009900C98002600F007000B9014984044A2
:103A0000C0B20590C4E00C9800EBC60000F0FF0ABD
:103A10000AF10800C0B20A902298A8B114990A9835
:103A2000884256D35E49C968884252D805998A456A
:103A3000FBD8FF2011901498824508D2A0EB0A0110
:103A4000FF208840C0B200E0FF20119007E00599F8
:103A50000A98884203D9411AFF20C840F5E7504828
:103A60004FEADA0281684A430792159A06FB072259
:103A700006920B9A72BBC36881469A452AD24FF0D0
:103A8000080AB8F1080F00D2C24600241BE01398C0
:103A90002044C5B2D9F80800854212D2069821996F
:103AA000204401F0EBF81199534601400798002299
:103AB0000544D9F80400405D01F0F2F8D9F804108B
:103AC0004855641CE4B2BC42E1D3A8EB0A0000F004
:103AD000FF085BE00A9A4446D2084A430025109248
:103AE00051E00B984446C0F1080081460F90A04277
:103AF00000D9C1461398284400F0FF0B284880687D
:103B000083453ED206982199284401F0B7F81199CF
:103B1000084023490390C9688A4511D20799204873
:103B20005944129140684B460B9A405C039901F04E
:103B3000B7F81B4A129952685054A4EB0900C4B25A
:103B4000FCB117480A99C26891421AD2C9F108011A
:103B500001F0FF09A14500D9A1460F9A0399104829
:103B6000D140109A406893444B4610F80B00002255
:103B700001F096F80A49496801F80B00A4EB090026
:103B8000C4B26D1CEDB2BD42ABD3A046761CF6B2FA
:103B900009988642FFF437AF17B0BDE8F08F0000F8
:103BA000C8000020FEF7B8BE70B5054C2568002D92
:103BB000FCD101252560FEF7B1FE0020206070BD1C
:103BC000C8000020044A10B5111F081FFEF7A8FE08
:103BD00001491039486010BDD80000202DE9FE4F82
:103BE0009B4691460F4606460025DFF8988043E045
:103BF000C5EBC50202EB0901CCB2082200210092FC
:103C0000CDE901712038C0B21F4900EB8000421895
:103C1000052359462046FFF7DDFE082305225946B5
:103C20002046FFF7C1FF27B384B1A4F1010A0AF0CF
:103C3000FF01FF235A46D8F8040001F025F80AF0E6
:103C4000FF00082301225946FFF7AEFFD8F80810FD
:103C5000491F8C420DD2641DE1B2FF235A46D8F8A9
:103C6000040001F011F8E0B2082301225946FFF7E1
:103C70009BFF6D1CEDB2761C30780028B8D1BDE8F2
:103C8000FE8F0000C8000020CA6300082DE9F04143
:103C90001D46164688460446FCF708FBC0B2401C89
:103CA00000F0AAFA07462146FCF707FB2B463246EE
:103CB00041463846FFF792FF3846BDE8F04100F034
:103CC00001B8000010B5002821D0114B0022001FC0
:103CD000196803E0814203D80A4649680029F9D1EE
:103CE00052B11368841A9C4204D1006818441060D1
:103CF000104602E0506000E0186039B102680B1A0B
:103D0000934203D10B681A4402604968416010BDB8
:103D1000280100202DE9F04FD6488FB0C188A02996
:103D20002BD28178FF2928D00021D34C81468A46A6
:103D30006068FCF73DFBC5B22068FCF739FB4FF02B
:103D4000000B0221CDE9001B0B46C0B2CB4A29462D
:103D5000CDF808B0FFF73EFE6068FCF729FBC5B25E
:103D60002068FCF725FBC0B2082302222946FFF792
:103D70001BFFBAF1000F02D00BE00121D5E7A168CB
:103D80002068FCF7A3FA2060E1686068FCF79EFAFF
:103D900060600020029021680391A0466068FCF7F3
:103DA00007FB0027C5B23E465FF00004D9F80800C3
:103DB000C05DD0BBB0000590FCF7F5FA0399FCF7A5
:103DC0000BFB32D8042000EB8600FCF7ECFA0399D9
:103DD000FCF70CFB29D2082000EB84010E91A942CC
:103DE00023D80C2101EB8401A9421ED9D9F808106F
:103DF00001220323CA55CDE9000B0E98CDF808B077
:103E0000C1B205989D4AC0B2FFF7E4FD0E980823A1
:103E1000C1B205980322C0B2FFF7C6FE012002908E
:103E2000B9F80600401CA9F806007F1C641CE4B227
:103E3000FFB2052CBAD3761CF6B2202EB4D3D9F833
:103E40000C004C46801EFCF7AEFA0399FCF7C4FA4E
:103E500013D28B490398884203DD4146C8F800B06D
:103E600006E0E068801EFCF79EFA4146C8F80000B4
:103E7000896881F00041C8F80810039810F1FF4FDD
:103E800007D3C8F800B0D8F8081081F00041C8F88E
:103E900008100027BAF1000F32D12069801F854237
:103EA0002ED3F02D2CD226462079FCF77CFA0399EC
:103EB000FCF792FA24D830790C30FCF774FA0399A5
:103EC000FCF794FA1CD830690127801FFCF76BFAC5
:103ED000C8F80400D8F80C004646B0F5000F02DB25
:103EE00080F00040F060FCF7ABF9FCF753FA6FF09C
:103EF0001D01FCF743FA4FF07E51FCF739FAB06030
:103F00005AEA07001AD12069811E8D4201D8029910
:103F1000A1B1F02D02D9C8F804B009E0029939B96D
:103F2000401EFCF740FAC8F80400A078401EA070BC
:103F3000D8F80C1081F00041C8F80C104546D8F8AC
:103F40000400FCF735FAC6B22868FCF731FA022102
:103F5000CDE9001B494A0B46C0B2113A3146CDF8B3
:103F600008B0FFF737FD6868FCF722FAC6B2286888
:103F7000FCF71EFAC0B2082302223146FFF714FEF6
:103F8000207858B3002784F800B03E460025A0688A
:103F9000C05DC8B90820CDE9000B00EB8509374AA0
:103FA0004FEA860809F0FF0108F0FF0003230F3AEB
:103FB000CDF808B0FFF70EFD09F0FF0108F0FF0093
:103FC00008230322FFF7F0FD7F1C6D1CEDB2FFB24A
:103FD000052DDCD3761CF6B2202ED7D3E28829A19A
:103FE00009A8FFF7E1FB00231A46194609A8FFF7C5
:103FF000F5FDA078FF2827D0002522E0A0784FF01B
:104000000801CDE9001B8542CDF808B0207B4FF0B8
:10401000070300EBC500A0F11800C0B201D21A4A94
:1040200000E0164A0121FFF7D5FC207B082300EBB6
:10403000C5001838C0B207220121FFF7B5FD6D1C7D
:10404000EDB2E0788542D9D3E088A02805D32023BB
:10405000322200210DA0FFF719FEA078FF2805D11C
:104060002023222200210BA0FFF710FE0FB0BDE895
:10407000F08F0000DC000020C4390020B763000886
:104080000000704325750000C363000857494E21A6
:104090000000000047414D454F56455221000000A9
:1040A0001CB5364A111F081FFEF73AFC334C143C6E
:1040B000A061FFF787FDFFF775FD002208210A20A8
:1040C00001F0B7F820621E2001F0AFF8E061FCF7C4
:1040D00061FA6062FCF76AFAA062FCF761FAE062DA
:1040E000E169606A01F090F8E169A06A01F08CF87A
:1040F000E169E06A01F088F800251827CDE900752C
:104100002B4680221EA1214801F02AFBCDE9007533
:10411000002380221EA1214801F022FB6570E06887
:104120004008FCF740F91E4E306020690A38FCF761
:104130003AF970604FF03F40B0601A48F060A0203C
:1041400000F01EFDA021A060FCF7A5F80320E070A0
:10415000A070E580A089FA2101EB50002071CDE923
:1041600000750023802210A1134801F0F9FA00BF66
:10417000FFF7D0FD322000F00DFFF9E7F00000203E
:10418000496E7075745461736B0000009D280008BF
:104190004D5055363035305461736B00C52A0008D8
:1041A000C43900209A9919BF706C6174666F726D82
:1041B0005F7461736B000000F9420008FCF79CFF1C
:1041C000FFF72AF9FEF7F2FCFEF798FDFEF79CFCDC
:1041D000FEF7B4FDFEF7F4FEFEF7D4FDFEF73AFE5F
:1041E000FEF796FEFEF7D0FE00F04AF8FEF7B4FCAC
:1041F00000F062F8FEE70000F0B50B30154D20F03E
:1042000007010024144A0FE003688B420BD38B4252
:1042100005D95E1A43184768C3E9006700E04368A0
:10422000136002C004E0021D10680028ECD1204693
:10423000002802D1286808B10020F0BD064A0748CE
:104240001060074A121A22F00702C0E90024012078
:104250002860D7E72C01002028010020DC3900204D
:10426000D83B002070B5054600244FF47A7603E071
:10427000304600F043FD641CAC42F9DB70BD000029
:10428000EFF3058058B9EFF3108040B90949086889
:10429000022801D030B109E0EFF3118030B16FF0A6
:1042A0000500704701200860002070474FF0FF3084
:1042B000704700006000002010B5EFF3058060B982
:1042C000EFF3108048B90B490868022802D0012892
:1042D00006D00BE0EFF3118040B16FF0050010BD88
:1042E0000220086000F0BEFE002010BD4FF0FF303D
:1042F00010BD0000600000202F4C86B000262579FC
:104300000827CDE900760296207C0C230838C1B23C
:104310002A4A2846FFF75EFB207C08230838C1B2F2
:104320000C222846FFF740FC4FF0FF38424603A915
:10433000206A01F035F90128F8D104986070CDE9C0
:1043400000760296207C1D4A0838C1B20C230C323C
:104350002846FFF73FFB207C08230838C1B20C2217
:104360002846FFF721FC6078012802D0022802D0FD
:1043700003E0ED1C00E0ED1EEDB26670FA2D01D9F0
:10438000002504E0E0680C38854200D9C5B2CDE9CB
:1043900000760296207C0C230838C1B2074A2846D2
:1043A000FFF718FB207C08230838C1B20C222846EE
:1043B000FFF7FAFB2571B9E7DC000020AB630008CA
:1043C0002DE9F041134C0F46054666692068001D33
:1043D00000F0B0FC681C07D137B12168BDE8F0419E
:1043E0000D48091D00F0F6BC20683544B542456013
:1043F000216805D2A068BDE8F041091D00F0D2BCDB
:104400006068091D00F0CEFC206B854200D2256358
:10441000BDE8F08110000020540B00202DE9F04190
:10442000054600F0E3FC2D4C2069401C206120680B
:104430002B4F10B1E06930B32BE0256020690128D3
:1044400027D1002606EB860007EB800000F09CFCDD
:10445000761C382EF6D3234800F096FC2148143001
:1044600000F092FC1F48283000F08EFC1D483C30C4
:1044700000F08AFC1B48503000F086FC1948606050
:104480001430A06005E02068E96AC06A884200D85C
:104490002560E06A401CE0626864E86AA1698842BD
:1044A00000D9A06100EB800007EB8000291D00F01F
:1044B00091FC00F0BBFCE06900280CD02068E96AA0
:1044C000C06A884207D208494FF080500860BFF3A5
:1044D0004F8FBFF36F8FBDE8F08100001000002008
:1044E000A4060020040B002004ED00E038B500F025
:1044F0007DFC104CA068C8B90F4800F045FC0E4880
:10450000143000F041FC0C482060143060600A4B0D
:1045100000202833009003F1540210210A2000F0FB
:10452000ACFEA06010B105A100F0FEFCBDE8384073
:1045300000F07CBC4C000020680B0020546D7251D0
:104540000000000030B4026C0B46002A0BD0C1689A
:104550001144C1604468A14201D30168C16030BC0C
:104560001846FBF77FBE30BC70472DE9F041856BE4
:10457000174604460026026C82B1C7B1E068FBF71B
:1045800071FEE168206C091AE1602268914202D252
:104590006168081AE060022F16D017E02068A8B9F9
:1045A000606801F0ADF90646002060600EE0A0688A
:1045B000FBF758FE216CA0680844A060616888423F
:1045C00004D32068A06001E005B16D1E6D1CA563D9
:1045D0003046BDE8F08110B5044690F8590058B156
:1045E00001280CD002280FD0502080F31188BFF38F
:1045F0004F8FBFF36F8FFEE7206B00F02BFC204640
:10460000BDE8104000F026BC10BD000010484FF47B
:10461000FA51420706D0C01D0D4920F00700411A8B
:10462000C1F5FA510B4A00230144C2E900030839DD
:10463000103A21F0070111604B600B600B1AC0E9C2
:10464000001393604FF000405360D060704700004B
:104650003C13002074000020144E154CA6F29C4719
:104660004FF08058DFF84C9012E000BF00F0BEFB26
:10467000F068C568281D00F05DFB2069401E2061C0
:10468000E068401EE06000F0D1FB2846FFF7A3FF82
:10469000E0680028EAD138680128F9D9C9F8008013
:1046A000BFF34F8FBFF36F8FF2E70000400B002086
:1046B0001000002004ED00E070B51D46049C61B1BF
:1046C000C4F80020C4E90F010121204600F008FED3
:1046D00084F850500020A06470BD2460F2E72DE9FA
:1046E000F0470E46DDE90984174682469100994657
:1046F000089DA522206BFBF7C7FD6FF00301206B1F
:1047000001EB8701084420F00707780707D0502005
:1047100080F31188BFF34F8FBFF36F8FFEE722182E
:10472000315C82F83410315C11B1401C1028F6D392
:10473000002684F84360382D00D33725E562C4E9AC
:104740001356201D00F02BFB04F1180000F027FB8E
:104750002461C5F138006462A061666584F8586020
:104760004A465146384600F077FA2060B8F1000F0B
:1047700001D0C8F80040BDE8F087000030B511490D
:1047800000E011460A688242FBD34B685C18844201
:1047900003D1406818444860084643681C18944296
:1047A00009D1084C103C2468A24209D052681A442E
:1047B00042600A6812680260814200D0086030BD21
:1047C0000460F9E77400002070B5002441600B4DCF
:1047D0000061914206D8D11A8269914206D2011D28
:1047E000686807E09A4203D2994201D3012403E0AA
:1047F000011D286800F0D6FA204670BD4C0000204C
:1048000010B5044600F0F2FAA06B28B15FF0000486
:1048100000F00CFB204610BD0124F9E773B500261B
:104820000098846C5CB1A26BE06B82420FD3502085
:1048300080F31188BFF34F8FBFF36F8FFEE75020D7
:1048400080F31188BFF34F8FBFF36F8FFEE7A26B2A
:1048500082420CD294F945500A4669462046FFF739
:1048600084FE0646681C04D06D1C84F84550304612
:104870007CBD606A0028FAD004F1240001F080F8C1
:104880000028F4D00126F2E730B589B0304D55E06C
:104890000498002806DADDE90601059A9047049895
:1048A00000284BDB069C606910B1201D00F042FA25
:1048B00002A800F0B9F8024604980A283ED2DFE8C0
:1048C00000F00505053D263705053D260598A1693B
:1048D000034601442046FFF777FF00B3616A204694
:1048E0008847E069012829D1002000900598A16936
:1048F000002342181946204601F00CF978B95020DF
:1049000080F31188BFF34F8FBFF36F8FFEE70598D9
:10491000A06128B1811813462046FFF755FF0DE02E
:10492000502080F31188BFF34F8FBFF36F8FFEE7E6
:1049300094F82C0010B9204600F08CFA002204A94B
:10494000A86800F02DFE0028A2D109B030BD0000FB
:104950004C0000202DE9FC410F46054600F0C6FB47
:1049600001A800F061F80446019818B101F040F880
:10497000BDE8FC81224EAFB170680068A8B3002783
:10498000291B3A46B06800F0E3FA01F031F800283C
:10499000EED11C494FF080500860BFF34F8FBFF33A
:1049A0006F8FE5E7A542EBD801F022F83068274683
:1049B000C068C468201D00F0BDF9E069012810D16D
:1049C000A0692B4641193A462046FFF7FDFE40B14B
:1049D00000200346014600902A46204601F09AF83E
:1049E00020B1616A20468847C2E707E0502080F383
:1049F0001188BFF34F8FBFF36F8FFEE70127BFE72B
:104A00004C00002004ED00E006484168096829B127
:104A10004168C968C9684968016370474FF0FF3150
:104A2000FAE700001000002070B5054600F0FEFE19
:104A3000064E04463069844203D200F009F8012092
:104A400000E0002028602046346170BD4C0000204A
:104A5000F8B5194D1FE0C068C4680668201D00F055
:104A600069F9616A20468847E069012813D1A06985
:104A70003044B04206D924616060211D286800F0EE
:104A800091F908E000200346014600903246204696
:104A900001F040F838B1286801680029DBD1696865
:104AA000C5E90010F8BD502080F31188BFF34F8F87
:104AB000BFF36F8FFEE700004C00002008484068FD
:104AC000401C4FF0500080F3118804D0BFF34F8F8B
:104AD000BFF36F8FFEE7BFF34F8FBFF36F8FFEE71C
:104AE0007C000020074C2068016841B1C0680021AB
:104AF000D0F80000FFF72EFFFFF7C6FEF3E7012115
:104B00000020F7E74C0000202DE9F041044600F0BA
:104B10006DF994F9455004F1240610E0A06C20B121
:104B200000212046FFF77AFE04E0606A48B1304673
:104B300000F026FF08B100F05BFA6D1E6DB2002D8B
:104B4000ECDC4FF0FF3684F8456000F06FF900F0C0
:104B50004DF994F9445004F1100709E0206948B177
:104B6000384600F00DFF08B100F042FA6D1E6DB23C
:104B7000002DF3DC84F84460BDE8F04100F056B944
:104B80002DE9F0410546002700F0B0FA314E3068BB
:104B900008B9FFF73BFDF06805424BD1C5B30835B6
:104BA00068070ED005F00700C0F10800054468074B
:104BB00007D0502080F31188BFF34F8FBFF36F8F62
:104BC000FEE72DB37068854234D822481030014684
:104BD0000C6801E020460C466168A94202D22168B7
:104BE0000029F7D131688C4224D007682168016020
:104BF00060680837411B10290FD96019420708D097
:104C0000502080F31188BFF34F8FBFF36F8FFEE703
:104C100010E041606560FFF7B1FD61687068401A9F
:104C20007060B268904200D2B060F068014300202A
:104C3000C4E9000100F0DCFE780707D0502080F3C3
:104C40001188BFF34F8FBFF36F8FFEE73846BDE883
:104C5000F08100006400002010B5031F4FF0807445
:104C60001C601B1F21F001011960191F024B0B6012
:104C7000143940380A6010BDBD4A00080078002988
:104C800001D0C043C0B2704710B5044CD208A4682C
:104C900002FB0411425C1A43425410BDC8000020BC
:104CA00010B501249C40641E21409440A0439140D3
:104CB0000143C8B210BD00002DE9F0410D4CFBF7D7
:104CC000C5FE22680023516AD26A0B4DA0FB05473E
:104CD00003FB057500FB0355074FA1FB070C03FB06
:104CE00007C701FB0371FBF769FA00196941BDE8C9
:104CF000F08100001C06002040420F0030B50C4A35
:104D000000211368DC6A4FF47A726043B0FBF2F55D
:104D10005A6A586A9042FCD002D9A0EB020202E023
:104D2000A4EB0202024411440246A942F1D330BD71
:104D30001C060020D0E9013201699A60D0E9012304
:104D40005A604A68824201D182684A600022026148
:104D50000868401E0860086870470000034B036045
:104D600003F15C000860802010607047840C002014
:104D7000044B036003F15C0008604FF48070106026
:104D800070470000E00E002000F108014FF0FF32F4
:104D9000C0E90112C160016100210160704700217A
:104DA0000161704730B50B685A1C02D000F108024F
:104DB00002E0026904E02246546825689D42FAD95F
:104DC00053684B6099608A60516008610168491CB2
:104DD000016030BD42684A6093688B609368596097
:104DE000916008610168491C01607047502080F3A0
:104DF0001188BFF34F8FBFF36F8F0A494868401C7B
:104E0000486001280CD10848006810F0FF0F07D057
:104E1000502080F31188BFF34F8FBFF36F8FFEE7F1
:104E2000704700007C00002004ED00E0084948685D
:104E300028B1401E486001D180F31188704750208E
:104E400080F31188BFF34F8FBFF36F8FFEE7000031
:104E50007C00002070B5002827D0144DA0F1080474
:104E60006168E868014207D1502080F31188BFF3E0
:104E70004F8FBFF36F8FFEE722683AB1502080F367
:104E80001188BFF34F8FBFF36F8FFEE781436160DF
:104E900000F02CF960686968084468602046FFF7F4
:104EA0006DFCBDE8704000F0A3BD70BD6400002043
:104EB0004FF0E02000210161816105494FF47A72D1
:104EC0000968B1FBF2F1491E416107210161704798
:104ED0000C00002010B5FBF75BF9114910280ED328
:104EE00000F1E02090F8F0030A78904207D25020B9
:104EF00080F31188BFF34F8FBFF36F8FFEE7094830
:104F00000068896800F4E060884207D9502080F387
:104F10001188BFF34F8FBFF36F8FFEE710BD000006
:104F20007C0000200CED00E010B5084B002200BF13
:104F300053F832401CB1521C082AF9D310BD43F873
:104F4000321003EBC201486010BD0000640600206F
:104F500070B515460E460446FFF748FF94F9441015
:104F60000020491C01D184F8440094F94510491CE3
:104F700001D184F84500FFF759FFA06B28B92A46F4
:104F8000314604F1240000F051F82046BDE870409D
:104F9000FFF7BABD10B5020014D00F48806B38B1CE
:104FA000502080F31188BFF34F8FBFF36F8FFEE760
:104FB00000F09CF800211046FFF702FA00F018FDFF
:104FC000002807D105494FF080500860BFF34F8F8C
:104FD000BFF36F8F10BD00001000002004ED00E053
:104FE00002498A6A026049694160704710000020E6
:104FF00001490120486270471000002010B50C469E
:1050000050B1094909681831FFF7CCFE2046BDE8C8
:1050100010400121FFF7D4B9502080F31188BFF36D
:105020004F8FBFF36F8FFEE71000002070B514465E
:105030000D4668B10A4909681831FFF7CBFE0CB17B
:105040004FF0FF3521462846BDE87040FFF7B8B95C
:10505000502080F31188BFF34F8FBFF36F8FFEE7AF
:105060001000002030B587B00024039405AA04A9DD
:1050700003A80494FFF772FEDDE903010094CDE973
:105080000110002315A11748059A00F096FB164D54
:10509000002868631FD000F00DFD012809D0401CD6
:1050A00019D1502080F31188BFF34F8FBFF36F8F5A
:1050B000FEE7502080F31188BFF34F8FBFF36F8F4F
:1050C0004FF0FF3028630120E8616C6107B0BDE854
:1050D000304000F045B807B030BD000049444C45B1
:1050E0000000000059460008100000200248816BB3
:1050F000491C81637047000010000020164810B55D
:10510000816B11B10121416210BD002141628169B1
:10511000124A01E0B9B1491E01EB810352F8233074
:10512000002BF7D001EB810302EB830202F10804AC
:1051300053685B685360A34201D15B685360DA68CF
:105140000260816110BD502080F31188BFF34F8F42
:10515000BFF36F8FFEE7000010000020A4060020C0
:105160001CB5264908780190FF20087008788DF852
:1051700000009DF800009DF8002000F0F000904233
:1051800007D0502080F31188BFF34F8FBFF36F8F8C
:10519000FEE79DF800001A4B00F050001870072041
:1051A000986005E09DF8002052008DF80020401E18
:1051B0009DF800201206F5D49860032807D05020EF
:1051C00080F31188BFF34F8FBFF36F8FFEE74FF46B
:1051D00040709860019808700A48016841F47001B5
:1051E0000160016841F070410160FFF761FE00203D
:1051F0005860FAF797FF00201CBD000000E400E0B3
:105200007C00002020ED00E070B50D460446FFF75D
:10521000EDFDA06C08B9A06B08B1002401E0A56405
:105220000124FFF703FE204670BD00220421AFF3E6
:105230000080F8B517460E46050014D0DEB105FB18
:1052400006F05430FFF79CFC04000AD0002084F8DC
:10525000460004F154023B46314628460094FFF7CD
:105260002BFA2046F8BD502080F31188BFF34F8FF2
:10527000BFF36F8FFEE70020E3E738B5049D18B158
:1052800053B1CAB181B120E0502080F31188BFF33F
:105290004F8FBFF36F8FFEE7502080F31188BFF36D
:1052A0004F8FBFF36F8FFEE7502080F31188BFF35D
:1052B0004F8FBFF36F8FFEE739B1502080F3118815
:1052C000BFF34F8FBFF36F8FFEE754241C460123BB
:1052D00084F846302B460094FFF7EEF9204638BD9F
:1052E00070B50D46040025D0FFF780FDD4E90F20EE
:1052F000216802FB001161600021A1632168A160A7
:105300000A46D4E90F01401E00FB0121E16021465D
:105310004FF0FF3001F8440F487004F110008DB1D8
:10532000FFF732FD04F12400FFF72EFDFFF77EFDAD
:10533000012070BD502080F31188BFF34F8FBFF361
:105340006F8FFEE721690029F0D000F019FB0028DB
:10535000ECD004494FF080500860BFF34F8FBFF38B
:105360006F8FE3E704ED00E02DE9FF4782B01D46B3
:105370008A464FF00008040003D0BAF1000F08D0AD
:1053800011E0502080F31188BFF34F8FBFF36F8F70
:10539000FEE7206C38B1502080F31188BFF34F8FA7
:1053A000BFF36F8FFEE7022D0AD1E06B012807D013
:1053B000502080F31188BFF34F8FBFF36F8FFEE74C
:1053C00000F026FA424F4FF000094FF0805648B9DE
:1053D000049838B1502080F31188BFF34F8FBFF38A
:1053E0006F8FFEE7FFF702FDA06BE16B884207D3EA
:1053F000022D05D0049808B3B8F1000F21D025E0A4
:105400002A4651462046FFF7B0F8A16C21B1294643
:105410002046FFF703FA05E0616A19B104F12400A0
:1054200000F0AEFA20B13E60BFF34F8FBFF36F8F35
:10543000FFF7FCFC012006B0BDE8F087FFF7F6FCA3
:1054400022E06846FFF7CCFD4FF00108FFF7EEFCC5
:10545000FFF74CFEFFF7CAFC94F94400401C01D151
:1054600084F8449094F94500401C01D184F845909B
:10547000FFF7DCFC04A9684600F038F930B120469B
:10548000FFF742FB00F0B4FA0020D4E7FFF7AEFCD0
:10549000A06BE16B884213D1FFF7C8FC04F1100048
:1054A0000499FFF7ABFD2046FFF72EFB00F0A0FAB2
:1054B000002897D13E60BFF34F8FBFF36F8F91E706
:1054C000FFF7B4FC2046FFF71FFB00F091FA89E7D5
:1054D00004ED00E02DE9F0479846174689460400A0
:1054E00003D0B9F1000F08D011E0502080F31188EB
:1054F000BFF34F8FBFF36F8FFEE7206C38B15020A2
:1055000080F31188BFF34F8FBFF36F8FFEE7B8F1C1
:10551000020F0AD1E06B012807D0502080F31188D8
:10552000BFF34F8FBFF36F8FFEE7FFF7D3FC502021
:10553000EFF3118680F31188BFF34F8FBFF36F8FA6
:10554000A06BE16B884207D3B8F1020F04D00020B2
:1055500086F31188BDE8F08794F9455042464946E4
:105560002046FFF702F8681C04D06D1C84F84550F3
:105570000120EDE7A06C012520B141462046FFF750
:105580004DF906E0606A0028F2D004F1240000F032
:10559000F7F90028ECD0002FEAD03D60E8E70000E2
:1055A0002DE9F747002683B08A46040003D0BAF1FC
:1055B000000F08D011E0502080F31188BFF34F8F07
:1055C000BFF36F8FFEE7206C38B1502080F3118855
:1055D000BFF34F8FBFF36F8FFEE700F019F9DFF8CD
:1055E000F4804FF000094FF0805748B9059838B162
:1055F000502080F31188BFF34F8FBFF36F8FFEE70A
:10560000FFF7F4FBA56BC5B151462046FEF79AFFA4
:105610006D1EA563206950B104F1100000F0B0F9CF
:1056200028B1C8F80070BFF34F8FBFF36F8FFFF73B
:10563000FDFB012006B0BDE8F087059808B11EB15A
:1056400006E0FFF7F3FB27E06846FFF7C9FC0126F9
:10565000FFF7ECFBFFF74AFDFFF7C8FB94F94400A6
:10566000401C01D184F8449094F94500401C01D1BC
:1056700084F84590FFF7DAFB05A9684600F036F894
:10568000002820460AD0FFF73FFA00F0B1F9204683
:10569000FFF7B6F80028B3D00020CBE7FFF7B0F84B
:1056A00090B104F124000599FFF7A8FC2046FFF70C
:1056B0002BFA00F09DF90028A2D1C8F80070BFF3C2
:1056C0004F8FBFF36F8F9BE72046FFF71DFA00F067
:1056D0008FF995E704ED00E008B5002200920A4634
:1056E0006946FFF75DFF009808BD00002DE9F04115
:1056F0000C46050011D0C4B1FFF778FB174B5A696F
:105700006E682068911B471C17D02F689B6A9F42C8
:1057100019D0964217D8012410E0502080F3118848
:10572000BFF34F8FBFF36F8FFEE7502080F31188D8
:10573000BFF34F8FBFF36F8FFEE70024FFF776FBB9
:105740002046BDE8F081884205D9401A20602846ED
:10575000FFF746FCF1E700202060DCE710000020A6
:105760002DE9FF5F8346DDE90E87994616468A4696
:105770009000FFF705FA05001CD05C20FFF700FA47
:10578000040014D00020256384F85900CDE90240BC
:10579000CDE900874B46324651465846FEF79FFFFB
:1057A0002046FEF73BFE012004B0BDE8F09F2846EE
:1057B000FFF750FB4FF0FF30F6E7F0B585B0DDE9BD
:1057C0000B640A9DA6B1DCB15C2700972663022614
:1057D00084F85960002604AFCDE90246CDE90057B0
:1057E000FEF77DFF2046FEF719FE049805B0F0BDD8
:1057F000502080F31188BFF34F8FBFF36F8FFEE708
:10580000502080F31188BFF34F8FBFF36F8FFEE7F7
:105810000548C16919B1806B18B10020704701209B
:1058200070470220704700001000002001484069C6
:1058300070470000100000202DE9F0412E4C002799
:10584000A06B40B1206A401C2062606A00B1012751
:105850003846BDE8F0816669761C666113D16068E0
:10586000006838B1502080F31188BFF34F8FBFF329
:105870006F8FFEE76068A1686160A060A06A401C4D
:10588000A062FFF7C1F8206BDFF87080864209D371
:105890006068006880B16068C068C56868688642F2
:1058A0000DD220632068C06A00EB800158F8210007
:1058B0000128CAD90127C8E74FF0FF30F1E7281DBA
:1058C000FFF738FAA86A18B105F11800FFF732FAA5
:1058D000E86AA169884200D9A06100EB800108EB69
:1058E0008100291DFFF776FAE86A2168C96A8842B3
:1058F000CED30127CCE7000010000020A406002032
:1059000070B504004FF0000133D01B4D286884426D
:1059100007D0502080F31188BFF34F8FBFF36F8FF4
:10592000FEE7206D38B1401E2065E36CE26A9A42C2
:105930001FD040B11DE0502080F31188BFF34F8F7E
:10594000BFF36F8FFEE7201DFFF7F4F9E06CE06214
:10595000C0F13800A061E06AA969884200D9A86155
:10596000064900EB800001EB8000211DFFF732FAB1
:105970000121084670BD000010000020A406002090
:1059800070B5C068C46854B104F118000646FFF74A
:10599000D1F9144DA86B50B13146134815E0502091
:1059A00080F31188BFF34F8FBFF36F8FFEE7201D89
:1059B000FFF7C0F9E06AA969884200D9A8610B49DC
:1059C00000EB800001EB8000211DFFF703FAE06A85
:1059D0002968C96A884202D90120686270BD002026
:1059E00070BD0000100000202C0B0020A406002039
:1059F0002DE9F0472C4D00242746A86B38B1FFF75E
:105A0000F5F9A86B401EA863A86B40B146E0502092
:105A100080F31188BFF34F8FBFF36F8FFEE72969C3
:105A2000224E0120D1B3A6F5916980463068E0B1DD
:105A3000F068C46804F11800FFF77CF9201DFFF737
:105A400079F9E06AA969884200D9A86100EB800170
:105A500009EB8100211DFFF7BDF9E06A2968C96AD9
:105A60008842E3D3C5F82480E0E70CB1FEF7CCFF11
:105A70002C6A4CB14FEA0806FFF7DEFE00B16E62F9
:105A8000641EF9D100202862686A38B108490127EC
:105A900038070860BFF34F8FBFF36F8FFFF7C6F96A
:105AA0003846BDE8F0870000100000202C0B0020D5
:105AB00004ED00E010B586B0FEF718FD114CA068AB
:105AC000B8B100200390049005AA04A903A8FFF729
:105AD0004FF9DDE9032102208DE8070000230AA128
:105AE0000B48059AFFF769FEE06010B106B001208F
:105AF00010BD502080F31188BFF34F8FBFF36F8F1D
:105B0000FEE700004C000020546D722053766300C5
:105B1000E54A00082DE9FF411E46134602000A9D92
:105B20004FF0000016D0144CA768002F0FD0CDE91D
:105B300000130292062917DAFFF76AFE02284FF0D7
:105B400000030FD000226946A068FFF70DFC04B0E7
:105B5000BDE8F081502080F31188BFF34F8FBFF371
:105B60006F8FFEE72A46EEE7002332466946384645
:105B7000FFF7B0FCEBE700004C000020010202033D
:105B80000405060708090A0B0C0D0E0F1010000083
:105B900000000000000001020304060708090000DD
:105BA00000000102030400000000000000000000EB
:105BB00000000000000000FE020202020202003F9C
:105BC0002020202020200000000000000000000015
:105BD00000000000000000FE020202020202003F7C
:105BE00020202020202000FE020202020202003FAC
:105BF00020202020202000FE020202020202003F9C
:105C000020202020202000FE020202020202003F8B
:105C100020202020202000FE020202020202003F7B
:105C200020202020202000FE020202020202003F6B
:105C300020202020202000000000000000000000A4
:105C40000000000000000000000000000000000054
:105C50000000000000000000000000000000000044
:105C600000000000000000FE020202020202003FEB
:105C700020202020202000FE020202020202003F1B
:105C800020202020202000FE020202020202003F0B
:105C900020202020202000FE020202020202003FFB
:105CA00020202020202000FE020202020202003FEB
:105CB00020202020202000FE020202020202003FDB
:105CC00020202020202000FE020202020202003FCB
:105CD00020202020202000FE020202020202003FBB
:105CE00020202020202000FE020202020202003FAB
:105CF00020202020202000FE020202020202003F9B
:105D000020202020202000FE020202020202003F8A
:105D100020202020202000FE020202020202003F7A
:105D200020202020202000FE020202020202003F6A
:105D300020202020202000FE020202020202003F5A
:105D400020202020202000FE020202020202003F4A
:105D500020202020202000FE020202020202003F3A
:105D60002020202020200000000000000000000073
:105D70000000000000000000000000000000000023
:105D80000000000000000000000000000000000013
:105D90000000000000000000000000000000000003
:105DA00000000000000000000000000000000000F3
:105DB000000000000000000000F8000000000000EB
:105DC00000330000000000100C02100C0200000064
:105DD0000000000000000040C07840C078000004CF
:105DE0003F04043F040000708888FC08300000185D
:105DF0002020FF211E00F008F08060180000003114
:105E00000C031E211E0000F00888700000001E21F7
:105E1000232C1927211000120E00000000000000A2
:105E2000000000000000000000E018040200000074
:105E300000071820400000020418E00000000040A5
:105E4000201807000000404080F08040400002021F
:105E5000010F0102020000000000E000000000014C
:105E600001010F010101000000000000000000908E
:105E700070000000000000000000000000000001B1
:105E800001010101010000000000000000000030DD
:105E900030000000000000000000C0380400006076
:105EA00018070000000000E010080810E000000FD4
:105EB000102020100F0000001010F800000000005B
:105EC00020203F202000007008080808F000003063
:105ED00028242221300000300808088870000018AB
:105EE000202121221C000000804030F80000000624
:105EF0000524243F242400F8888888080800001915
:105F0000202020110E0000E0108888900000000F73
:105F1000112020201F0000180808886818000000C1
:105F2000003E010000000070880808887000001C16
:105F3000222121221C0000F008080810E0000001C6
:105F4000122222110F00000000C0C000000000005B
:105F50000030300000000000008000000000000061
:105F600000E0000000000000804020100800000158
:105F70000204081020000040404040404000000261
:105F800002020202020000081020408000000020EF
:105F90001008040201000070480808887000000022
:105FA000003037000000C030C828E810E0000718B3
:105FB00027282F2817000000C038E0000000203CF0
:105FC00023020227382008F8888888700000203FC4
:105FD000202020110E00C0300808080838000718DB
:105FE00020202010080008F808080810E000203FD2
:105FF000202020100F0008F88888E8081000203FB3
:1060000020202320180008F88888E8081000203F86
:10601000200003000000C0300808083800000718FE
:106020002020221E020008F808000008F808203F7F
:10603000210101213F20000808F808080000002085
:10604000203F2020000000000808F8080800C08059
:1060500080807F00000008F888C028180800203FD2
:1060600020012638200008F8080000000000203F2A
:1060700020202020300008F8F800F8F80800203F21
:10608000013E013F200008F830C00008F808203F1A
:10609000200007183F00E01008080810E0000F106B
:1060A000202020100F0008F808080808F000203F02
:1060B000210101010000E01008080810E0000F10A5
:1060C000282830504F0008F8888888887000203FC2
:1060D0002000030C302000708808080838000038C1
:1060E000202121221C00180808F8080818000000C8
:1060F000203F2000000008F808000008F808001FF2
:10610000202020201F000878880000C838080000E0
:1061100007380E01000008F800F800F80800000336
:106120003E013E030000081868808068180820308F
:106130002C03032C30200838C800C83808000000A1
:10614000203F2000000010080808C8380800203848
:10615000262120201800000000FE0202020000009C
:10616000007F40404000000438C0000000000000F4
:1061700000010638C00000020202FE0000000040DC
:1061800040407F0000000000040202040000000004
:1061900000000000000000000000000000008080FF
:1061A00080808080808000020204000000000000E7
:1061B0000000000000000000808080000000001946
:1061C0002424123F200010F0008080000000003FD7
:1061D000112020110E000000008080800000000EC1
:1061E000112020201100000080808090F000001F0E
:1061F000202020103F200000808080800000001FB1
:10620000242424241700008080E0909020000020A7
:10621000203F202000000000808080808000006BF4
:1062200094949493600010F0008080800000203FE0
:10623000210000203F2000809898000000000020EE
:10624000203F20200000000000809898000000C03F
:106250008080807F000010F0000080808000203F60
:10626000240629302000001010F800000000002053
:10627000203F202000008080808080808000203FA0
:1062800020003F20003F8080008080800000203F71
:10629000210000203F200000808080800000001F3F
:1062A000202020201F00808000808000000080FFD0
:1062B000912020110E000000008080008000000E60
:1062C00011202091FF80808080008080800020202D
:1062D0003F2120000100000080808080800000338A
:1062E000242424241900008080E080800000000025
:1062F000001F202010008080000000808000001F10
:10630000202020103F2080808000808080000003BB
:106310000C300C0300008080008080008080010E23
:10632000300C07380601008080800080800000204B
:10633000310E2E312000808080000080808000811E
:10634000867818060100008080808080800000210F
:10635000302C222130000000000000FC020200006E
:106360000000013E404000000000FF00000000006F
:106370000000FF0000000202FC000000000040409E
:106380003E010000000000020102020402000000C1
:1063900000000000000000000000000000000000FD
:1063A0000000000000000303070707607050103072
:1063B000F0F030105070600000000000000000009D
:1063C000000000060F1F3E1F0F0600000000000027
:1063D0005F0000000007000700147F147F14242AC8
:1063E0007F2A1223130864623649552250000503A0
:1063F00000001C2241000041221C0000082A1C2A27
:106400000808083E0808A0600000000808080808FE
:10641000606000000020100804023E5149453E0023
:10642000427F400062514949462241494936181489
:10643000127F1027454545393C4A494930017109C9
:1064400005033649494936064949291E00363600B2
:106450000000AC6C00000814224100141414141441
:1064600041221408000201510906324979413E7E59
:106470000909097E7F494949363E414141227F4110
:1064800041221C7F494949417F090909013E414197
:1064900051727F0808087F417F4100002040413F42
:1064A000017F081422417F404040407F020C027F60
:1064B0007F0408107F3E4141413E7F090909063EA5
:1064C0004151215E7F091929462649494932010176
:1064D0007F01013F4040403F1F2040201F3F403888
:1064E000403F631408146303047804036151494571
:1064F000437F41410000020408102041417F000019
:1065000004020102048080808080010204000020D7
:10651000545454787F48444438384444280038441C
:1065200044487F3854545418087E09020018A4A423
:10653000A47C7F08040478007D00000080847D0036
:10654000007F10284400417F4000007C041804783C
:106550007C08047C003844443800FC2424180018CB
:106560002424FC00007C0804004854542400047FC8
:106570004400003C40407C001C2040201C3C40303B
:10658000403C44281028441CA0A07C004464544C87
:10659000440836410000007F00000041360800003A
:1065A0000201010201020505020060C0F0381C0072
:1065B000D06500080000002030010000DC04000865
:1065C000EC65000830010020A83E000000380008FB
:1065D00042019210037224F455AAAAAAAA420209FF
:0C65E0004960010020600100200254010D
:04000005080000ED02
:00000001FF
