Component: ARM Compiler 5.06 update 5 (build 528) Tool: armlink [4d35e2]

==============================================================================

Section Cross References

    startup_stm32f103xb.o(RESET) refers to startup_stm32f103xb.o(STACK) for __initial_sp
    startup_stm32f103xb.o(RESET) refers to startup_stm32f103xb.o(.text) for Reset_Handler
    startup_stm32f103xb.o(RESET) refers to stm32f1xx_it.o(i.NMI_Handler) for NMI_Handler
    startup_stm32f103xb.o(RESET) refers to stm32f1xx_it.o(i.HardFault_Handler) for HardFault_Handler
    startup_stm32f103xb.o(RESET) refers to stm32f1xx_it.o(i.MemManage_Handler) for MemManage_Handler
    startup_stm32f103xb.o(RESET) refers to stm32f1xx_it.o(i.BusFault_Handler) for BusFault_Handler
    startup_stm32f103xb.o(RESET) refers to stm32f1xx_it.o(i.UsageFault_Handler) for UsageFault_Handler
    startup_stm32f103xb.o(RESET) refers to port.o(.emb_text) for SVC_Handler
    startup_stm32f103xb.o(RESET) refers to stm32f1xx_it.o(i.DebugMon_Handler) for DebugMon_Handler
    startup_stm32f103xb.o(RESET) refers to port.o(i.SysTick_Handler) for SysTick_Handler
    startup_stm32f103xb.o(RESET) refers to stm32f1xx_it.o(i.TIM4_IRQHandler) for TIM4_IRQHandler
    startup_stm32f103xb.o(RESET) refers to stm32f1xx_it.o(i.EXTI15_10_IRQHandler) for EXTI15_10_IRQHandler
    startup_stm32f103xb.o(.text) refers to system_stm32f1xx.o(i.SystemInit) for SystemInit
    startup_stm32f103xb.o(.text) refers to entry.o(.ARM.Collect$$$$00000000) for __main
    music.o(i.MUSIC_Analysis) refers to driver_passive_buzzer.o(i.PassiveBuzzer_Set_Freq_Duty) for PassiveBuzzer_Set_Freq_Duty
    music.o(i.MUSIC_Analysis) refers to tasks.o(i.vTaskDelay) for vTaskDelay
    music.o(i.MUSIC_Analysis) refers to music.o(.data) for .data
    music.o(i.PlayMusic) refers to driver_passive_buzzer.o(i.PassiveBuzzer_Init) for PassiveBuzzer_Init
==============================================================================

Removing Unused input sections from the image.

    Removing music.o(i.MUSIC_Analysis), (80 bytes).
    Removing music.o(i.PlayMusic), (10 bytes).
    Removing music.o(.data), (3990 bytes).
    Removing main.o(.rev16_text), (4 bytes).
    Removing main.o(.revsh_text), (4 bytes).
    Removing main.o(.rrx_text), (6 bytes).
    Removing gpio.o(.rev16_text), (4 bytes).
    Removing gpio.o(.revsh_text), (4 bytes).
    Removing gpio.o(.rrx_text), (6 bytes).
    Removing freertos.o(.rev16_text), (4 bytes).
    Removing freertos.o(.revsh_text), (4 bytes).
    Removing freertos.o(.rrx_text), (6 bytes).
    Removing freertos.o(i.StartDefaultTask), (14 bytes).
    Removing freertos.o(.constdata), (36 bytes).
    Removing freertos.o(.conststring), (12 bytes).
    Removing freertos.o(.data), (4 bytes).
    Removing adc.o(.rev16_text), (4 bytes).
    Removing adc.o(.revsh_text), (4 bytes).
==============================================================================

Image Symbol Table

    Local Symbols

    Symbol Name                              Value     Ov Type        Size  Object(Section)

    ../Core/Src/adc.c                        0x00000000   Number         0  adc.o ABSOLUTE
    ../Core/Src/freertos.c                   0x00000000   Number         0  freertos.o ABSOLUTE
    ../Core/Src/gpio.c                       0x00000000   Number         0  gpio.o ABSOLUTE
    ../Core/Src/i2c.c                        0x00000000   Number         0  i2c.o ABSOLUTE
    ../Core/Src/main.c                       0x00000000   Number         0  main.o ABSOLUTE
    ../Core/Src/spi.c                        0x00000000   Number         0  spi.o ABSOLUTE
    ../Core/Src/stm32f1xx_hal_msp.c          0x00000000   Number         0  stm32f1xx_hal_msp.o ABSOLUTE
    ../Core/Src/stm32f1xx_hal_timebase_tim.c 0x00000000   Number         0  stm32f1xx_hal_timebase_tim.o ABSOLUTE
    ../Core/Src/stm32f1xx_it.c               0x00000000   Number         0  stm32f1xx_it.o ABSOLUTE
    ../Core/Src/system_stm32f1xx.c           0x00000000   Number         0  system_stm32f1xx.o ABSOLUTE
    ../Core/Src/tim.c                        0x00000000   Number         0  tim.o ABSOLUTE
    ../Core/Src/usart.c                      0x00000000   Number         0  usart.o ABSOLUTE
    ../Core/Src/usb.c                        0x00000000   Number         0  usb.o ABSOLUTE
    ../Drivers/STM32F1xx_HAL_Driver/Src/stm32f1xx_hal.c 0x00000000   Number         0  stm32f1xx_hal.o ABSOLUTE
    ../Drivers/STM32F1xx_HAL_Driver/Src/stm32f1xx_hal_adc.c 0x00000000   Number         0  stm32f1xx_hal_adc.o ABSOLUTE
    ../Drivers/STM32F1xx_HAL_Driver/Src/stm32f1xx_hal_adc_ex.c 0x00000000   Number         0  stm32f1xx_hal_adc_ex.o ABSOLUTE
    ../Drivers/STM32F1xx_HAL_Driver/Src/stm32f1xx_hal_cortex.c 0x00000000   Number         0  stm32f1xx_hal_cortex.o ABSOLUTE
    ../Drivers/STM32F1xx_HAL_Driver/Src/stm32f1xx_hal_dma.c 0x00000000   Number         0  stm32f1xx_hal_dma.o ABSOLUTE
    ../Drivers/STM32F1xx_HAL_Driver/Src/stm32f1xx_hal_exti.c 0x00000000   Number         0  stm32f1xx_hal_exti.o ABSOLUTE
    ../Drivers/STM32F1xx_HAL_Driver/Src/stm32f1xx_hal_flash.c 0x00000000   Number         0  stm32f1xx_hal_flash.o ABSOLUTE
    ../Drivers/STM32F1xx_HAL_Driver/Src/stm32f1xx_hal_flash_ex.c 0x00000000   Number         0  stm32f1xx_hal_flash_ex.o ABSOLUTE
    ../Drivers/STM32F1xx_HAL_Driver/Src/stm32f1xx_hal_gpio.c 0x00000000   Number         0  stm32f1xx_hal_gpio.o ABSOLUTE
    ../Drivers/STM32F1xx_HAL_Driver/Src/stm32f1xx_hal_gpio_ex.c 0x00000000   Number         0  stm32f1xx_hal_gpio_ex.o ABSOLUTE
    ../Drivers/STM32F1xx_HAL_Driver/Src/stm32f1xx_hal_i2c.c 0x00000000   Number         0  stm32f1xx_hal_i2c.o ABSOLUTE
    ../Drivers/STM32F1xx_HAL_Driver/Src/stm32f1xx_hal_pcd.c 0x00000000   Number         0  stm32f1xx_hal_pcd.o ABSOLUTE
    ../Drivers/STM32F1xx_HAL_Driver/Src/stm32f1xx_hal_pcd_ex.c 0x00000000   Number         0  stm32f1xx_hal_pcd_ex.o ABSOLUTE
    ../Drivers/STM32F1xx_HAL_Driver/Src/stm32f1xx_hal_pwr.c 0x00000000   Number         0  stm32f1xx_hal_pwr.o ABSOLUTE
    ../Drivers/STM32F1xx_HAL_Driver/Src/stm32f1xx_hal_rcc.c 0x00000000   Number         0  stm32f1xx_hal_rcc.o ABSOLUTE
    ../Drivers/STM32F1xx_HAL_Driver/Src/stm32f1xx_hal_rcc_ex.c 0x00000000   Number         0  stm32f1xx_hal_rcc_ex.o ABSOLUTE
    ../Drivers/STM32F1xx_HAL_Driver/Src/stm32f1xx_hal_spi.c 0x00000000   Number         0  stm32f1xx_hal_spi.o ABSOLUTE
    ../Drivers/STM32F1xx_HAL_Driver/Src/stm32f1xx_hal_tim.c 0x00000000   Number         0  stm32f1xx_hal_tim.o ABSOLUTE
    ../Drivers/STM32F1xx_HAL_Driver/Src/stm32f1xx_hal_tim_ex.c 0x00000000   Number         0  stm32f1xx_hal_tim_ex.o ABSOLUTE
    ../Drivers/STM32F1xx_HAL_Driver/Src/stm32f1xx_hal_uart.c 0x00000000   Number         0  stm32f1xx_hal_uart.o ABSOLUTE
    ../Drivers/STM32F1xx_HAL_Driver/Src/stm32f1xx_ll_usb.c 0x00000000   Number         0  stm32f1xx_ll_usb.o ABSOLUTE
    ../Middlewares/Third_Party/FreeRTOS/Source/CMSIS_RTOS_V2/cmsis_os2.c 0x00000000   Number         0  cmsis_os2.o ABSOLUTE
    ../Middlewares/Third_Party/FreeRTOS/Source/croutine.c 0x00000000   Number         0  croutine.o ABSOLUTE
    ../Middlewares/Third_Party/FreeRTOS/Source/event_groups.c 0x00000000   Number         0  event_groups.o ABSOLUTE
    ../Middlewares/Third_Party/FreeRTOS/Source/list.c 0x00000000   Number         0  list.o ABSOLUTE
    ../Middlewares/Third_Party/FreeRTOS/Source/portable/MemMang/heap_4.c 0x00000000   Number         0  heap_4.o ABSOLUTE
    ../Middlewares/Third_Party/FreeRTOS/Source/portable/RVDS/ARM_CM3/port.c 0x00000000   Number         0  port.o ABSOLUTE
    ../Middlewares/Third_Party/FreeRTOS/Source/queue.c 0x00000000   Number         0  queue.o ABSOLUTE
    ../Middlewares/Third_Party/FreeRTOS/Source/stream_buffer.c 0x00000000   Number         0  stream_buffer.o ABSOLUTE
    ../Middlewares/Third_Party/FreeRTOS/Source/tasks.c 0x00000000   Number         0  tasks.o ABSOLUTE
    ../Middlewares/Third_Party/FreeRTOS/Source/timers.c 0x00000000   Number         0  timers.o ABSOLUTE
    ../clib/../cmprslib/zerorunl.c           0x00000000   Number         0  __dczerorl.o ABSOLUTE
    ../clib/microlib/division.c              0x00000000   Number         0  uldiv.o ABSOLUTE
    ../clib/microlib/division.c              0x00000000   Number         0  uidiv.o ABSOLUTE
    ../clib/microlib/init/entry.s            0x00000000   Number         0  entry7a.o ABSOLUTE
    ../clib/microlib/init/entry.s            0x00000000   Number         0  entry7b.o ABSOLUTE
    ../clib/microlib/init/entry.s            0x00000000   Number         0  entry9a.o ABSOLUTE
    ../clib/microlib/init/entry.s            0x00000000   Number         0  entry11b.o ABSOLUTE
    ../clib/microlib/init/entry.s            0x00000000   Number         0  entry11a.o ABSOLUTE
    ../clib/microlib/init/entry.s            0x00000000   Number         0  entry10b.o ABSOLUTE
    ../clib/microlib/init/entry.s            0x00000000   Number         0  entry8a.o ABSOLUTE
    ../clib/microlib/init/entry.s            0x00000000   Number         0  entry5.o ABSOLUTE
    ../clib/microlib/init/entry.s            0x00000000   Number         0  entry9b.o ABSOLUTE
    ../clib/microlib/init/entry.s            0x00000000   Number         0  entry.o ABSOLUTE
    ../clib/microlib/init/entry.s            0x00000000   Number         0  entry10a.o ABSOLUTE
    ../clib/microlib/init/entry.s            0x00000000   Number         0  entry2.o ABSOLUTE
    ../clib/microlib/init/entry.s            0x00000000   Number         0  entry8b.o ABSOLUTE
    ../clib/microlib/longlong.c              0x00000000   Number         0  llsshr.o ABSOLUTE
    ../clib/microlib/longlong.c              0x00000000   Number         0  llshl.o ABSOLUTE
    ../clib/microlib/longlong.c              0x00000000   Number         0  llushr.o ABSOLUTE
    ../clib/microlib/malloc/malloc.c         0x00000000   Number         0  mallocra.o ABSOLUTE
    ../clib/microlib/malloc/malloc.c         0x00000000   Number         0  malloc.o ABSOLUTE
    ../clib/microlib/malloc/malloc.c         0x00000000   Number         0  mallocr.o ABSOLUTE
    ../clib/microlib/malloc/malloc.c         0x00000000   Number         0  malloca.o ABSOLUTE
    ../clib/microlib/malloc/mvars.c          0x00000000   Number         0  mvars.o ABSOLUTE
    ../clib/microlib/printf/printf.c         0x00000000   Number         0  printf7.o ABSOLUTE
    ../clib/microlib/printf/printf.c         0x00000000   Number         0  printf6.o ABSOLUTE
    ../clib/microlib/printf/printf.c         0x00000000   Number         0  printf3.o ABSOLUTE
    ../clib/microlib/printf/printf.c         0x00000000   Number         0  printf2.o ABSOLUTE
    ../clib/microlib/printf/printf.c         0x00000000   Number         0  printf1.o ABSOLUTE
    ../clib/microlib/printf/printf.c         0x00000000   Number         0  printf0.o ABSOLUTE
    ../clib/microlib/printf/printf.c         0x00000000   Number         0  printf5.o ABSOLUTE
    ../clib/microlib/printf/printf.c         0x00000000   Number         0  printfb.o ABSOLUTE
    ../clib/microlib/printf/printf.c         0x00000000   Number         0  printfa.o ABSOLUTE
    ../clib/microlib/printf/printf.c         0x00000000   Number         0  printf8.o ABSOLUTE
    ../clib/microlib/printf/printf.c         0x00000000   Number         0  printf4.o ABSOLUTE
    ../clib/microlib/printf/stubs.s          0x00000000   Number         0  stubs.o ABSOLUTE
    ../clib/microlib/stdio/streams.c         0x00000000   Number         0  stdout.o ABSOLUTE
    ../clib/microlib/stdlib/rand.c           0x00000000   Number         0  rand.o ABSOLUTE
    ../clib/microlib/string/memcpy.c         0x00000000   Number         0  memcpya.o ABSOLUTE
    ../clib/microlib/string/memcpy.c         0x00000000   Number         0  memcpyb.o ABSOLUTE
    ../clib/microlib/string/memset.c         0x00000000   Number         0  memset.o ABSOLUTE
    ../clib/microlib/string/memset.c         0x00000000   Number         0  memseta.o ABSOLUTE
    ../clib/microlib/string/strcpy.c         0x00000000   Number         0  strcpy.o ABSOLUTE
    ../clib/microlib/string/strlen.c         0x00000000   Number         0  strlen.o ABSOLUTE
    ../clib/microlib/stubs.s                 0x00000000   Number         0  iusefp.o ABSOLUTE
    ../fplib/microlib/fpadd.c                0x00000000   Number         0  dadd.o ABSOLUTE
    ../fplib/microlib/fpadd.c                0x00000000   Number         0  fadd.o ABSOLUTE
    ../fplib/microlib/fpdiv.c                0x00000000   Number         0  ddiv.o ABSOLUTE
    ../fplib/microlib/fpepilogue.c           0x00000000   Number         0  fepilogue.o ABSOLUTE
    ../fplib/microlib/fpepilogue.c           0x00000000   Number         0  depilogue.o ABSOLUTE
    ../fplib/microlib/fpfix.c                0x00000000   Number         0  dfixul.o ABSOLUTE
    ../fplib/microlib/fpfix.c                0x00000000   Number         0  dfixi.o ABSOLUTE
    ../fplib/microlib/fpfix.c                0x00000000   Number         0  ffixui.o ABSOLUTE
    ../fplib/microlib/fpflt.c                0x00000000   Number         0  fflti.o ABSOLUTE
    ../fplib/microlib/fpflt.c                0x00000000   Number         0  dflti.o ABSOLUTE
    ../fplib/microlib/fpflt.c                0x00000000   Number         0  ffltui.o ABSOLUTE
    ../fplib/microlib/fpmul.c                0x00000000   Number         0  dmul.o ABSOLUTE
    ../fplib/microlib/fpscalb.c              0x00000000   Number         0  fscalb.o ABSOLUTE
    ..\Core\Src\adc.c                        0x00000000   Number         0  adc.o ABSOLUTE
    ..\Core\Src\freertos.c                   0x00000000   Number         0  freertos.o ABSOLUTE
    ..\Core\Src\gpio.c                       0x00000000   Number         0  gpio.o ABSOLUTE
    ..\Core\Src\i2c.c                        0x00000000   Number         0  i2c.o ABSOLUTE
    ..\Core\Src\main.c                       0x00000000   Number         0  main.o ABSOLUTE
    ..\Core\Src\music.c                      0x00000000   Number         0  music.o ABSOLUTE
    ..\Core\Src\spi.c                        0x00000000   Number         0  spi.o ABSOLUTE
    ..\Core\Src\stm32f1xx_hal_msp.c          0x00000000   Number         0  stm32f1xx_hal_msp.o ABSOLUTE
    ..\Core\Src\stm32f1xx_hal_timebase_tim.c 0x00000000   Number         0  stm32f1xx_hal_timebase_tim.o ABSOLUTE
    ..\Core\Src\stm32f1xx_it.c               0x00000000   Number         0  stm32f1xx_it.o ABSOLUTE
    ..\Core\Src\system_stm32f1xx.c           0x00000000   Number         0  system_stm32f1xx.o ABSOLUTE
    ..\Core\Src\tim.c                        0x00000000   Number         0  tim.o ABSOLUTE
    ..\Core\Src\usart.c                      0x00000000   Number         0  usart.o ABSOLUTE
    ..\Core\Src\usb.c                        0x00000000   Number         0  usb.o ABSOLUTE
    ..\Drivers\DshanMCU-F103\driver_active_buzzer.c 0x00000000   Number         0  driver_active_buzzer.o ABSOLUTE
    ..\Drivers\DshanMCU-F103\driver_color_led.c 0x00000000   Number         0  driver_color_led.o ABSOLUTE
    ..\Drivers\DshanMCU-F103\driver_dht11.c  0x00000000   Number         0  driver_dht11.o ABSOLUTE
    ..\Drivers\DshanMCU-F103\driver_ds18b20.c 0x00000000   Number         0  driver_ds18b20.o ABSOLUTE
    ..\Drivers\DshanMCU-F103\driver_ir_obstacle.c 0x00000000   Number         0  driver_ir_obstacle.o ABSOLUTE
    ..\Drivers\DshanMCU-F103\driver_ir_receiver.c 0x00000000   Number         0  driver_ir_receiver.o ABSOLUTE
    ..\Drivers\DshanMCU-F103\driver_ir_sender.c 0x00000000   Number         0  driver_ir_sender.o ABSOLUTE
    ..\Drivers\DshanMCU-F103\driver_irq.c    0x00000000   Number         0  driver_irq.o ABSOLUTE
    ..\Drivers\DshanMCU-F103\driver_key.c    0x00000000   Number         0  driver_key.o ABSOLUTE
    ..\Drivers\DshanMCU-F103\driver_lcd.c    0x00000000   Number         0  driver_lcd.o ABSOLUTE
    ..\Drivers\DshanMCU-F103\driver_led.c    0x00000000   Number         0  driver_led.o ABSOLUTE
    ..\Drivers\DshanMCU-F103\driver_light_sensor.c 0x00000000   Number         0  driver_light_sensor.o ABSOLUTE
    ..\Drivers\DshanMCU-F103\driver_motor.c  0x00000000   Number         0  driver_motor.o ABSOLUTE
    ..\Drivers\DshanMCU-F103\driver_mpu6050.c 0x00000000   Number         0  driver_mpu6050.o ABSOLUTE
    ..\Drivers\DshanMCU-F103\driver_oled.c   0x00000000   Number         0  driver_oled.o ABSOLUTE
    ..\Drivers\DshanMCU-F103\driver_passive_buzzer.c 0x00000000   Number         0  driver_passive_buzzer.o ABSOLUTE
    ..\Drivers\DshanMCU-F103\driver_rotary_encoder.c 0x00000000   Number         0  driver_rotary_encoder.o ABSOLUTE
    ..\Drivers\DshanMCU-F103\driver_spiflash_w25q64.c 0x00000000   Number         0  driver_spiflash_w25q64.o ABSOLUTE
    ..\Drivers\DshanMCU-F103\driver_timer.c  0x00000000   Number         0  driver_timer.o ABSOLUTE
    ..\Drivers\DshanMCU-F103\driver_uart.c   0x00000000   Number         0  driver_uart.o ABSOLUTE
    ..\Drivers\DshanMCU-F103\driver_ultrasonic_sr04.c 0x00000000   Number         0  driver_ultrasonic_sr04.o ABSOLUTE
    ..\Drivers\STM32F1xx_HAL_Driver\Src\stm32f1xx_hal.c 0x00000000   Number         0  stm32f1xx_hal.o ABSOLUTE
    ..\Drivers\STM32F1xx_HAL_Driver\Src\stm32f1xx_hal_adc.c 0x00000000   Number         0  stm32f1xx_hal_adc.o ABSOLUTE
    ..\Drivers\STM32F1xx_HAL_Driver\Src\stm32f1xx_hal_adc_ex.c 0x00000000   Number         0  stm32f1xx_hal_adc_ex.o ABSOLUTE
    ..\Drivers\STM32F1xx_HAL_Driver\Src\stm32f1xx_hal_cortex.c 0x00000000   Number         0  stm32f1xx_hal_cortex.o ABSOLUTE
    ..\Drivers\STM32F1xx_HAL_Driver\Src\stm32f1xx_hal_dma.c 0x00000000   Number         0  stm32f1xx_hal_dma.o ABSOLUTE
    ..\Drivers\STM32F1xx_HAL_Driver\Src\stm32f1xx_hal_exti.c 0x00000000   Number         0  stm32f1xx_hal_exti.o ABSOLUTE
    ..\Drivers\STM32F1xx_HAL_Driver\Src\stm32f1xx_hal_flash.c 0x00000000   Number         0  stm32f1xx_hal_flash.o ABSOLUTE
    ..\Drivers\STM32F1xx_HAL_Driver\Src\stm32f1xx_hal_flash_ex.c 0x00000000   Number         0  stm32f1xx_hal_flash_ex.o ABSOLUTE
    ..\Drivers\STM32F1xx_HAL_Driver\Src\stm32f1xx_hal_gpio.c 0x00000000   Number         0  stm32f1xx_hal_gpio.o ABSOLUTE
    ..\Drivers\STM32F1xx_HAL_Driver\Src\stm32f1xx_hal_gpio_ex.c 0x00000000   Number         0  stm32f1xx_hal_gpio_ex.o ABSOLUTE
    ..\Drivers\STM32F1xx_HAL_Driver\Src\stm32f1xx_hal_i2c.c 0x00000000   Number         0  stm32f1xx_hal_i2c.o ABSOLUTE
    ..\Drivers\STM32F1xx_HAL_Driver\Src\stm32f1xx_hal_pcd.c 0x00000000   Number         0  stm32f1xx_hal_pcd.o ABSOLUTE
    ..\Drivers\STM32F1xx_HAL_Driver\Src\stm32f1xx_hal_pcd_ex.c 0x00000000   Number         0  stm32f1xx_hal_pcd_ex.o ABSOLUTE
    ..\Drivers\STM32F1xx_HAL_Driver\Src\stm32f1xx_hal_pwr.c 0x00000000   Number         0  stm32f1xx_hal_pwr.o ABSOLUTE
    ..\Drivers\STM32F1xx_HAL_Driver\Src\stm32f1xx_hal_rcc.c 0x00000000   Number         0  stm32f1xx_hal_rcc.o ABSOLUTE
    ..\Drivers\STM32F1xx_HAL_Driver\Src\stm32f1xx_hal_rcc_ex.c 0x00000000   Number         0  stm32f1xx_hal_rcc_ex.o ABSOLUTE
    ..\Drivers\STM32F1xx_HAL_Driver\Src\stm32f1xx_hal_spi.c 0x00000000   Number         0  stm32f1xx_hal_spi.o ABSOLUTE
    ..\Drivers\STM32F1xx_HAL_Driver\Src\stm32f1xx_hal_tim.c 0x00000000   Number         0  stm32f1xx_hal_tim.o ABSOLUTE
    ..\Drivers\STM32F1xx_HAL_Driver\Src\stm32f1xx_hal_tim_ex.c 0x00000000   Number         0  stm32f1xx_hal_tim_ex.o ABSOLUTE
    ..\Drivers\STM32F1xx_HAL_Driver\Src\stm32f1xx_hal_uart.c 0x00000000   Number         0  stm32f1xx_hal_uart.o ABSOLUTE
    ..\Drivers\STM32F1xx_HAL_Driver\Src\stm32f1xx_ll_usb.c 0x00000000   Number         0  stm32f1xx_ll_usb.o ABSOLUTE
    ..\Middlewares\Third_Party\FreeRTOS\Source\CMSIS_RTOS_V2\cmsis_os2.c 0x00000000   Number         0  cmsis_os2.o ABSOLUTE
    ..\Middlewares\Third_Party\FreeRTOS\Source\portable\RVDS\ARM_CM3\port.c 0x00000000   Number         0  port.o ABSOLUTE
    ..\\Drivers\\DshanMCU-F103\\driver_active_buzzer.c 0x00000000   Number         0  driver_active_buzzer.o ABSOLUTE
    ..\\Drivers\\DshanMCU-F103\\driver_color_led.c 0x00000000   Number         0  driver_color_led.o ABSOLUTE
    ..\\Drivers\\DshanMCU-F103\\driver_dht11.c 0x00000000   Number         0  driver_dht11.o ABSOLUTE
    ..\\Drivers\\DshanMCU-F103\\driver_ds18b20.c 0x00000000   Number         0  driver_ds18b20.o ABSOLUTE
    ..\\Drivers\\DshanMCU-F103\\driver_ir_obstacle.c 0x00000000   Number         0  driver_ir_obstacle.o ABSOLUTE
    ..\\Drivers\\DshanMCU-F103\\driver_ir_receiver.c 0x00000000   Number         0  driver_ir_receiver.o ABSOLUTE
    ..\\Drivers\\DshanMCU-F103\\driver_ir_sender.c 0x00000000   Number         0  driver_ir_sender.o ABSOLUTE
    ..\\Drivers\\DshanMCU-F103\\driver_irq.c 0x00000000   Number         0  driver_irq.o ABSOLUTE
    ..\\Drivers\\DshanMCU-F103\\driver_key.c 0x00000000   Number         0  driver_key.o ABSOLUTE
    ..\\Drivers\\DshanMCU-F103\\driver_led.c 0x00000000   Number         0  driver_led.o ABSOLUTE
    ..\\Drivers\\DshanMCU-F103\\driver_light_sensor.c 0x00000000   Number         0  driver_light_sensor.o ABSOLUTE
    ..\\Drivers\\DshanMCU-F103\\driver_motor.c 0x00000000   Number         0  driver_motor.o ABSOLUTE
    ..\\Drivers\\DshanMCU-F103\\driver_mpu6050.c 0x00000000   Number         0  driver_mpu6050.o ABSOLUTE
    ..\\Drivers\\DshanMCU-F103\\driver_oled.c 0x00000000   Number         0  driver_oled.o ABSOLUTE
    ..\\Drivers\\DshanMCU-F103\\driver_passive_buzzer.c 0x00000000   Number         0  driver_passive_buzzer.o ABSOLUTE
    ..\\Drivers\\DshanMCU-F103\\driver_rotary_encoder.c 0x00000000   Number         0  driver_rotary_encoder.o ABSOLUTE
    ..\\Drivers\\DshanMCU-F103\\driver_spiflash_w25q64.c 0x00000000   Number         0  driver_spiflash_w25q64.o ABSOLUTE
    ..\\Drivers\\DshanMCU-F103\\driver_timer.c 0x00000000   Number         0  driver_timer.o ABSOLUTE
    ..\\Drivers\\DshanMCU-F103\\driver_uart.c 0x00000000   Number         0  driver_uart.o ABSOLUTE
    ..\\Drivers\\DshanMCU-F103\\driver_ultrasonic_sr04.c 0x00000000   Number         0  driver_ultrasonic_sr04.o ABSOLUTE
    ..\nwatch\draw.c                         0x00000000   Number         0  draw.o ABSOLUTE
    ..\nwatch\game1.c                        0x00000000   Number         0  game1.o ABSOLUTE
    ..\nwatch\resources.c                    0x00000000   Number         0  resources.o ABSOLUTE
    cdrcmple.s                               0x00000000   Number         0  cdrcmple.o ABSOLUTE
    cfcmple.s                                0x00000000   Number         0  cfcmple.o ABSOLUTE
    cfrcmple.s                               0x00000000   Number         0  cfrcmple.o ABSOLUTE
    dc.s                                     0x00000000   Number         0  dc.o ABSOLUTE
    handlers.s                               0x00000000   Number         0  handlers.o ABSOLUTE
    init.s                                   0x00000000   Number         0  init.o ABSOLUTE
    startup_stm32f103xb.s                    0x00000000   Number         0  startup_stm32f103xb.o ABSOLUTE
    RESET                                    0x08000000   Section      236  startup_stm32f103xb.o(RESET)
    .ARM.Collect$$$$00000000                 0x080000ec   Section        0  entry.o(.ARM.Collect$$$$00000000)
    .ARM.Collect$$$$00000001                 0x080000ec   Section        4  entry2.o(.ARM.Collect$$$$00000001)
    .ARM.Collect$$$$00000004                 0x080000f0   Section        4  entry5.o(.ARM.Collect$$$$00000004)
    .ARM.Collect$$$$00000008                 0x080000f4   Section        0  entry7b.o(.ARM.Collect$$$$00000008)
    .ARM.Collect$$$$0000000A                 0x080000f4   Section        0  entry8b.o(.ARM.Collect$$$$0000000A)
    .ARM.Collect$$$$0000000B                 0x080000f4   Section        8  entry9a.o(.ARM.Collect$$$$0000000B)
    .ARM.Collect$$$$0000000D                 0x080000fc   Section        0  entry10a.o(.ARM.Collect$$$$0000000D)
    .ARM.Collect$$$$0000000F                 0x080000fc   Section        0  entry11a.o(.ARM.Collect$$$$0000000F)
    .ARM.Collect$$$$00002712                 0x080000fc   Section        4  entry2.o(.ARM.Collect$$$$00002712)
    __lit__00000000                          0x080000fc   Data           4  entry2.o(.ARM.Collect$$$$00002712)
    .emb_text                                0x08000100   Section      150  port.o(.emb_text)
    .text                                    0x08000198   Section       36  startup_stm32f103xb.o(.text)
    .text                                    0x080001bc   Section        0  uldiv.o(.text)
    .text                                    0x0800021e   Section        0  llushr.o(.text)
    .text                                    0x08000240   Section        0  rand.o(.text)
    .text                                    0x08000264   Section        0  memcpya.o(.text)
    .text                                    0x08000288   Section        0  memseta.o(.text)
    .text                                    0x080002ac   Section        0  strlen.o(.text)
    .text                                    0x080002ba   Section        0  strcpy.o(.text)
    .text                                    0x080002cc   Section        0  fadd.o(.text)
    .text                                    0x0800037c   Section        0  fscalb.o(.text)
    .text                                    0x08000394   Section        0  fflti.o(.text)
    .text                                    0x080003a6   Section        0  ffltui.o(.text)
    .text                                    0x080003b0   Section        0  ffixui.o(.text)
    .text                                    0x080003d8   Section       20  cfcmple.o(.text)
    .text                                    0x080003ec   Section       20  cfrcmple.o(.text)
    .text                                    0x08000400   Section        0  uidiv.o(.text)
    .text                                    0x0800042c   Section        0  llshl.o(.text)
    .text                                    0x0800044a   Section        0  iusefp.o(.text)
    .text                                    0x0800044a   Section        0  fepilogue.o(.text)
    .text                                    0x080004b8   Section       36  init.o(.text)
    .text                                    0x080004dc   Section        0  __dczerorl.o(.text)
    i.ADC_ConversionStop_Disable             0x08000518   Section        0  stm32f1xx_hal_adc.o(i.ADC_ConversionStop_Disable)
    i.BusFault_Handler                       0x0800056e   Section        0  stm32f1xx_it.o(i.BusFault_Handler)
    i.DebugMon_Handler                       0x08000570   Section        0  stm32f1xx_it.o(i.DebugMon_Handler)
    i.EXTI15_10_IRQHandler                   0x08000572   Section        0  stm32f1xx_it.o(i.EXTI15_10_IRQHandler)
    i.Error_Handler                          0x08000590   Section        0  main.o(i.Error_Handler)
    i.GetQueueIR                             0x08000594   Section        0  driver_ir_receiver.o(i.GetQueueIR)
    i.GetQueueMPU6050                        0x080005a0   Section        0  driver_mpu6050.o(i.GetQueueMPU6050)
    i.GetQueueRotary                         0x080005ac   Section        0  driver_rotary_encoder.o(i.GetQueueRotary)
    i.HAL_ADC_ConfigChannel                  0x080005b8   Section        0  stm32f1xx_hal_adc.o(i.HAL_ADC_ConfigChannel)
    i.HAL_ADC_Init                           0x080006b4   Section        0  stm32f1xx_hal_adc.o(i.HAL_ADC_Init)
    i.HAL_ADC_MspInit                        0x080007d0   Section        0  adc.o(i.HAL_ADC_MspInit)
    i.HAL_GPIO_EXTI_Callback                 0x08000828   Section        0  driver_irq.o(i.HAL_GPIO_EXTI_Callback)
    i.HAL_GPIO_EXTI_IRQHandler               0x08000840   Section        0  stm32f1xx_hal_gpio.o(i.HAL_GPIO_EXTI_IRQHandler)
    i.HAL_GPIO_Init                          0x08000858   Section        0  stm32f1xx_hal_gpio.o(i.HAL_GPIO_Init)
    i.HAL_GPIO_ReadPin                       0x08000a38   Section        0  stm32f1xx_hal_gpio.o(i.HAL_GPIO_ReadPin)
    i.HAL_GPIO_WritePin                      0x08000a42   Section        0  stm32f1xx_hal_gpio.o(i.HAL_GPIO_WritePin)
    i.HAL_GetTick                            0x08000a4c   Section        0  stm32f1xx_hal.o(i.HAL_GetTick)
    i.HAL_I2C_Init                           0x08000a58   Section        0  stm32f1xx_hal_i2c.o(i.HAL_I2C_Init)
    i.HAL_I2C_Master_Transmit                0x08000be0   Section        0  stm32f1xx_hal_i2c.o(i.HAL_I2C_Master_Transmit)
    i.HAL_I2C_Mem_Read                       0x08000d0c   Section        0  stm32f1xx_hal_i2c.o(i.HAL_I2C_Mem_Read)
    i.HAL_I2C_Mem_Write                      0x08000f5c   Section        0  stm32f1xx_hal_i2c.o(i.HAL_I2C_Mem_Write)
    i.HAL_I2C_MspInit                        0x0800108c   Section        0  i2c.o(i.HAL_I2C_MspInit)
    i.HAL_IncTick                            0x080010e8   Section        0  stm32f1xx_hal.o(i.HAL_IncTick)
    i.HAL_Init                               0x080010f8   Section        0  stm32f1xx_hal.o(i.HAL_Init)
    i.HAL_InitTick                           0x0800111c   Section        0  stm32f1xx_hal_timebase_tim.o(i.HAL_InitTick)
    i.HAL_MspInit                            0x080011b4   Section        0  stm32f1xx_hal_msp.o(i.HAL_MspInit)
    i.HAL_NVIC_EnableIRQ                     0x080011fc   Section        0  stm32f1xx_hal_cortex.o(i.HAL_NVIC_EnableIRQ)
    i.HAL_NVIC_SetPriority                   0x08001218   Section        0  stm32f1xx_hal_cortex.o(i.HAL_NVIC_SetPriority)
    i.HAL_NVIC_SetPriorityGrouping           0x08001258   Section        0  stm32f1xx_hal_cortex.o(i.HAL_NVIC_SetPriorityGrouping)
    i.HAL_PCD_Init                           0x0800127c   Section        0  stm32f1xx_hal_pcd.o(i.HAL_PCD_Init)
    i.HAL_PCD_MspInit                        0x08001358   Section        0  usb.o(i.HAL_PCD_MspInit)
    i.HAL_RCCEx_PeriphCLKConfig              0x08001380   Section        0  stm32f1xx_hal_rcc_ex.o(i.HAL_RCCEx_PeriphCLKConfig)
    i.HAL_RCC_ClockConfig                    0x0800146c   Section        0  stm32f1xx_hal_rcc.o(i.HAL_RCC_ClockConfig)
    i.HAL_RCC_GetClockConfig                 0x08001598   Section        0  stm32f1xx_hal_rcc.o(i.HAL_RCC_GetClockConfig)
    i.HAL_RCC_GetPCLK1Freq                   0x080015d8   Section        0  stm32f1xx_hal_rcc.o(i.HAL_RCC_GetPCLK1Freq)
    i.HAL_RCC_GetPCLK2Freq                   0x080015f8   Section        0  stm32f1xx_hal_rcc.o(i.HAL_RCC_GetPCLK2Freq)
    i.HAL_RCC_GetSysClockFreq                0x08001618   Section        0  stm32f1xx_hal_rcc.o(i.HAL_RCC_GetSysClockFreq)
    i.HAL_RCC_OscConfig                      0x08001664   Section        0  stm32f1xx_hal_rcc.o(i.HAL_RCC_OscConfig)
    i.HAL_SPI_Init                           0x08001984   Section        0  stm32f1xx_hal_spi.o(i.HAL_SPI_Init)
    i.HAL_SPI_MspInit                        0x08001a38   Section        0  spi.o(i.HAL_SPI_MspInit)
    i.HAL_TIMEx_BreakCallback                0x08001aa8   Section        0  stm32f1xx_hal_tim_ex.o(i.HAL_TIMEx_BreakCallback)
    i.HAL_TIMEx_CommutCallback               0x08001aaa   Section        0  stm32f1xx_hal_tim_ex.o(i.HAL_TIMEx_CommutCallback)
    i.HAL_TIMEx_ConfigBreakDeadTime          0x08001aac   Section        0  stm32f1xx_hal_tim_ex.o(i.HAL_TIMEx_ConfigBreakDeadTime)
    i.HAL_TIMEx_MasterConfigSynchronization  0x08001b00   Section        0  stm32f1xx_hal_tim_ex.o(i.HAL_TIMEx_MasterConfigSynchronization)
    i.HAL_TIM_Base_Init                      0x08001b68   Section        0  stm32f1xx_hal_tim.o(i.HAL_TIM_Base_Init)
    i.HAL_TIM_Base_MspInit                   0x08001bc4   Section        0  tim.o(i.HAL_TIM_Base_MspInit)
    i.HAL_TIM_Base_Start_IT                  0x08001c00   Section        0  stm32f1xx_hal_tim.o(i.HAL_TIM_Base_Start_IT)
    i.HAL_TIM_ConfigClockSource              0x08001c58   Section        0  stm32f1xx_hal_tim.o(i.HAL_TIM_ConfigClockSource)
    i.HAL_TIM_IC_CaptureCallback             0x08001d34   Section        0  stm32f1xx_hal_tim.o(i.HAL_TIM_IC_CaptureCallback)
    i.HAL_TIM_IRQHandler                     0x08001d36   Section        0  stm32f1xx_hal_tim.o(i.HAL_TIM_IRQHandler)
    i.HAL_TIM_MspPostInit                    0x08001e9c   Section        0  tim.o(i.HAL_TIM_MspPostInit)
    i.HAL_TIM_OC_DelayElapsedCallback        0x08001f88   Section        0  stm32f1xx_hal_tim.o(i.HAL_TIM_OC_DelayElapsedCallback)
    i.HAL_TIM_PWM_ConfigChannel              0x08001f8a   Section        0  stm32f1xx_hal_tim.o(i.HAL_TIM_PWM_ConfigChannel)
    i.HAL_TIM_PWM_Init                       0x08002056   Section        0  stm32f1xx_hal_tim.o(i.HAL_TIM_PWM_Init)
    i.HAL_TIM_PWM_MspInit                    0x080020b0   Section        0  tim.o(i.HAL_TIM_PWM_MspInit)
    i.HAL_TIM_PWM_PulseFinishedCallback      0x080020d8   Section        0  stm32f1xx_hal_tim.o(i.HAL_TIM_PWM_PulseFinishedCallback)
    i.HAL_TIM_PeriodElapsedCallback          0x080020dc   Section        0  main.o(i.HAL_TIM_PeriodElapsedCallback)
    i.HAL_TIM_TriggerCallback                0x080020f0   Section        0  stm32f1xx_hal_tim.o(i.HAL_TIM_TriggerCallback)
    i.HAL_UART_Init                          0x080020f2   Section        0  stm32f1xx_hal_uart.o(i.HAL_UART_Init)
    i.HAL_UART_MspInit                       0x08002158   Section        0  usart.o(i.HAL_UART_MspInit)
    i.HardFault_Handler                      0x080021c8   Section        0  stm32f1xx_it.o(i.HardFault_Handler)
    i.I2C_IsAcknowledgeFailed                0x080021ca   Section        0  stm32f1xx_hal_i2c.o(i.I2C_IsAcknowledgeFailed)
    I2C_IsAcknowledgeFailed                  0x080021cb   Thumb Code    46  stm32f1xx_hal_i2c.o(i.I2C_IsAcknowledgeFailed)
    i.I2C_MasterRequestWrite                 0x080021f8   Section        0  stm32f1xx_hal_i2c.o(i.I2C_MasterRequestWrite)
    I2C_MasterRequestWrite                   0x080021f9   Thumb Code   150  stm32f1xx_hal_i2c.o(i.I2C_MasterRequestWrite)
    i.I2C_RequestMemoryRead                  0x08002294   Section        0  stm32f1xx_hal_i2c.o(i.I2C_RequestMemoryRead)
    I2C_RequestMemoryRead                    0x08002295   Thumb Code   246  stm32f1xx_hal_i2c.o(i.I2C_RequestMemoryRead)
    i.I2C_RequestMemoryWrite                 0x08002390   Section        0  stm32f1xx_hal_i2c.o(i.I2C_RequestMemoryWrite)
    I2C_RequestMemoryWrite                   0x08002391   Thumb Code   162  stm32f1xx_hal_i2c.o(i.I2C_RequestMemoryWrite)
    i.I2C_WaitOnBTFFlagUntilTimeout          0x08002438   Section        0  stm32f1xx_hal_i2c.o(i.I2C_WaitOnBTFFlagUntilTimeout)
    I2C_WaitOnBTFFlagUntilTimeout            0x08002439   Thumb Code    86  stm32f1xx_hal_i2c.o(i.I2C_WaitOnBTFFlagUntilTimeout)
    i.I2C_WaitOnFlagUntilTimeout             0x08002490   Section        0  stm32f1xx_hal_i2c.o(i.I2C_WaitOnFlagUntilTimeout)
    I2C_WaitOnFlagUntilTimeout               0x08002491   Thumb Code   144  stm32f1xx_hal_i2c.o(i.I2C_WaitOnFlagUntilTimeout)
    i.I2C_WaitOnMasterAddressFlagUntilTimeout 0x08002520   Section        0  stm32f1xx_hal_i2c.o(i.I2C_WaitOnMasterAddressFlagUntilTimeout)
    I2C_WaitOnMasterAddressFlagUntilTimeout  0x08002521   Thumb Code   188  stm32f1xx_hal_i2c.o(i.I2C_WaitOnMasterAddressFlagUntilTimeout)
    i.I2C_WaitOnRXNEFlagUntilTimeout         0x080025dc   Section        0  stm32f1xx_hal_i2c.o(i.I2C_WaitOnRXNEFlagUntilTimeout)
    I2C_WaitOnRXNEFlagUntilTimeout           0x080025dd   Thumb Code   112  stm32f1xx_hal_i2c.o(i.I2C_WaitOnRXNEFlagUntilTimeout)
    i.I2C_WaitOnTXEFlagUntilTimeout          0x0800264c   Section        0  stm32f1xx_hal_i2c.o(i.I2C_WaitOnTXEFlagUntilTimeout)
    I2C_WaitOnTXEFlagUntilTimeout            0x0800264d   Thumb Code    86  stm32f1xx_hal_i2c.o(i.I2C_WaitOnTXEFlagUntilTimeout)
    i.IRReceiver_IRQTimes_Parse              0x080026a4   Section        0  driver_ir_receiver.o(i.IRReceiver_IRQTimes_Parse)
    IRReceiver_IRQTimes_Parse                0x080026a5   Thumb Code   262  driver_ir_receiver.o(i.IRReceiver_IRQTimes_Parse)
    i.IRReceiver_IRQ_Callback                0x080027c8   Section        0  driver_ir_receiver.o(i.IRReceiver_IRQ_Callback)
    i.IRReceiver_Init                        0x08002884   Section        0  driver_ir_receiver.o(i.IRReceiver_Init)
    i.InputTask                              0x0800289c   Section        0  game1.o(i.InputTask)
    i.LCD_Clear                              0x08002914   Section        0  driver_lcd.o(i.LCD_Clear)
    i.LCD_Flush                              0x08002918   Section        0  driver_lcd.o(i.LCD_Flush)
    i.LCD_FlushRegion                        0x0800291c   Section        0  driver_lcd.o(i.LCD_FlushRegion)
    i.LCD_GetFrameBuffer                     0x08002920   Section        0  driver_lcd.o(i.LCD_GetFrameBuffer)
    i.LCD_Init                               0x08002924   Section        0  driver_lcd.o(i.LCD_Init)
    i.LCD_PrintString                        0x08002928   Section        0  driver_lcd.o(i.LCD_PrintString)
    i.MPU6050_Init                           0x0800292c   Section        0  driver_mpu6050.o(i.MPU6050_Init)
    i.MPU6050_ReadData                       0x08002974   Section        0  driver_mpu6050.o(i.MPU6050_ReadData)
    i.MPU6050_ReadRegister                   0x08002a80   Section        0  driver_mpu6050.o(i.MPU6050_ReadRegister)
    i.MPU6050_WriteRegister                  0x08002aa0   Section        0  driver_mpu6050.o(i.MPU6050_WriteRegister)
    MPU6050_WriteRegister                    0x08002aa1   Thumb Code    32  driver_mpu6050.o(i.MPU6050_WriteRegister)
    i.MPU_6050_Task                          0x08002ac4   Section        0  driver_mpu6050.o(i.MPU_6050_Task)
    i.MX_ADC1_Init                           0x08002b08   Section        0  adc.o(i.MX_ADC1_Init)
    i.MX_FREERTOS_Init                       0x08002b58   Section        0  freertos.o(i.MX_FREERTOS_Init)
    i.MX_GPIO_Init                           0x08002bac   Section        0  gpio.o(i.MX_GPIO_Init)
    i.MX_I2C1_Init                           0x08002cfc   Section        0  i2c.o(i.MX_I2C1_Init)
    i.MX_SPI1_Init                           0x08002d3c   Section        0  spi.o(i.MX_SPI1_Init)
    i.MX_TIM1_Init                           0x08002d84   Section        0  tim.o(i.MX_TIM1_Init)
    i.MX_TIM2_Init                           0x08002e54   Section        0  tim.o(i.MX_TIM2_Init)
    i.MX_TIM3_Init                           0x08002f10   Section        0  tim.o(i.MX_TIM3_Init)
    i.MX_USART1_UART_Init                    0x08002f88   Section        0  usart.o(i.MX_USART1_UART_Init)
    i.MX_USB_PCD_Init                        0x08002fc0   Section        0  usb.o(i.MX_USB_PCD_Init)
    i.MemManage_Handler                      0x08002ff4   Section        0  stm32f1xx_it.o(i.MemManage_Handler)
    i.NMI_Handler                            0x08002ff6   Section        0  stm32f1xx_it.o(i.NMI_Handler)
    i.OLED_Clear                             0x08002ff8   Section        0  driver_oled.o(i.OLED_Clear)
    i.OLED_Flush                             0x08003024   Section        0  driver_oled.o(i.OLED_Flush)
    i.OLED_FlushRegion                       0x0800305c   Section        0  driver_oled.o(i.OLED_FlushRegion)
    i.OLED_GetFrameBuffer                    0x080030bc   Section        0  driver_oled.o(i.OLED_GetFrameBuffer)
    i.OLED_Init                              0x080030d0   Section        0  driver_oled.o(i.OLED_Init)
    i.OLED_PrintString                       0x08003164   Section        0  driver_oled.o(i.OLED_PrintString)
    i.OLED_PutChar                           0x08003198   Section        0  driver_oled.o(i.OLED_PutChar)
    i.OLED_SetComConfig                      0x080031e0   Section        0  driver_oled.o(i.OLED_SetComConfig)
    OLED_SetComConfig                        0x080031e1   Thumb Code    44  driver_oled.o(i.OLED_SetComConfig)
    i.OLED_SetPosition                       0x0800320c   Section        0  driver_oled.o(i.OLED_SetPosition)
    i.OLED_WriteCmd                          0x0800324c   Section        0  driver_oled.o(i.OLED_WriteCmd)
    OLED_WriteCmd                            0x0800324d   Thumb Code    34  driver_oled.o(i.OLED_WriteCmd)
    i.OLED_WriteNBytes                       0x08003274   Section        0  driver_oled.o(i.OLED_WriteNBytes)
    OLED_WriteNBytes                         0x08003275   Thumb Code    26  driver_oled.o(i.OLED_WriteNBytes)
    i.ProcessIRData                          0x08003294   Section        0  game1.o(i.ProcessIRData)
    ProcessIRData                            0x08003295   Thumb Code    70  game1.o(i.ProcessIRData)
    i.ProcessRotaryData                      0x080032e0   Section        0  game1.o(i.ProcessRotaryData)
    ProcessRotaryData                        0x080032e1   Thumb Code    98  game1.o(i.ProcessRotaryData)
    i.RotaryEncoder_IRQ_Callback             0x08003348   Section        0  driver_rotary_encoder.o(i.RotaryEncoder_IRQ_Callback)
    i.RotaryEncoder_Init                     0x080033c8   Section        0  driver_rotary_encoder.o(i.RotaryEncoder_Init)
    i.SysTick_Handler                        0x080033ec   Section        0  port.o(i.SysTick_Handler)
    i.SystemClock_Config                     0x08003418   Section        0  main.o(i.SystemClock_Config)
    i.SystemInit                             0x08003494   Section        0  system_stm32f1xx.o(i.SystemInit)
    i.TIM4_IRQHandler                        0x08003498   Section        0  stm32f1xx_it.o(i.TIM4_IRQHandler)
    i.TIM_Base_SetConfig                     0x080034a4   Section        0  stm32f1xx_hal_tim.o(i.TIM_Base_SetConfig)
    i.TIM_ETR_SetConfig                      0x08003510   Section        0  stm32f1xx_hal_tim.o(i.TIM_ETR_SetConfig)
    i.TIM_ITRx_SetConfig                     0x08003524   Section        0  stm32f1xx_hal_tim.o(i.TIM_ITRx_SetConfig)
    TIM_ITRx_SetConfig                       0x08003525   Thumb Code    16  stm32f1xx_hal_tim.o(i.TIM_ITRx_SetConfig)
    i.TIM_OC1_SetConfig                      0x08003534   Section        0  stm32f1xx_hal_tim.o(i.TIM_OC1_SetConfig)
    TIM_OC1_SetConfig                        0x08003535   Thumb Code    74  stm32f1xx_hal_tim.o(i.TIM_OC1_SetConfig)
    i.TIM_OC2_SetConfig                      0x08003584   Section        0  stm32f1xx_hal_tim.o(i.TIM_OC2_SetConfig)
    i.TIM_OC3_SetConfig                      0x080035dc   Section        0  stm32f1xx_hal_tim.o(i.TIM_OC3_SetConfig)
    TIM_OC3_SetConfig                        0x080035dd   Thumb Code    82  stm32f1xx_hal_tim.o(i.TIM_OC3_SetConfig)
    i.TIM_OC4_SetConfig                      0x08003634   Section        0  stm32f1xx_hal_tim.o(i.TIM_OC4_SetConfig)
    TIM_OC4_SetConfig                        0x08003635   Thumb Code    64  stm32f1xx_hal_tim.o(i.TIM_OC4_SetConfig)
    i.TIM_TI1_ConfigInputStage               0x08003678   Section        0  stm32f1xx_hal_tim.o(i.TIM_TI1_ConfigInputStage)
    TIM_TI1_ConfigInputStage                 0x08003679   Thumb Code    34  stm32f1xx_hal_tim.o(i.TIM_TI1_ConfigInputStage)
    i.TIM_TI2_ConfigInputStage               0x0800369a   Section        0  stm32f1xx_hal_tim.o(i.TIM_TI2_ConfigInputStage)
    TIM_TI2_ConfigInputStage                 0x0800369b   Thumb Code    36  stm32f1xx_hal_tim.o(i.TIM_TI2_ConfigInputStage)
    i.UART_SetConfig                         0x080036c0   Section        0  stm32f1xx_hal_uart.o(i.UART_SetConfig)
    UART_SetConfig                           0x080036c1   Thumb Code   178  stm32f1xx_hal_uart.o(i.UART_SetConfig)
    i.USB_CoreInit                           0x08003778   Section        0  stm32f1xx_ll_usb.o(i.USB_CoreInit)
    i.USB_DevDisconnect                      0x0800377c   Section        0  stm32f1xx_ll_usb.o(i.USB_DevDisconnect)
    i.USB_DevInit                            0x08003780   Section        0  stm32f1xx_ll_usb.o(i.USB_DevInit)
    i.USB_DisableGlobalInt                   0x08003792   Section        0  stm32f1xx_ll_usb.o(i.USB_DisableGlobalInt)
    i.USB_SetCurrentMode                     0x080037a0   Section        0  stm32f1xx_ll_usb.o(i.USB_SetCurrentMode)
    i.UsageFault_Handler                     0x080037a4   Section        0  stm32f1xx_it.o(i.UsageFault_Handler)
    i.__0sprintf$3                           0x080037a8   Section        0  printf3.o(i.__0sprintf$3)
    i.__NVIC_SetPriority                     0x080037d0   Section        0  stm32f1xx_hal_cortex.o(i.__NVIC_SetPriority)
    __NVIC_SetPriority                       0x080037d1   Thumb Code    32  stm32f1xx_hal_cortex.o(i.__NVIC_SetPriority)
    i.__scatterload_copy                     0x080037f0   Section       14  handlers.o(i.__scatterload_copy)
    i.__scatterload_null                     0x080037fe   Section        2  handlers.o(i.__scatterload_null)
    i.__scatterload_zeroinit                 0x08003800   Section       14  handlers.o(i.__scatterload_zeroinit)
    i._printf_core                           0x08003810   Section        0  printf3.o(i._printf_core)
    _printf_core                             0x08003811   Thumb Code   436  printf3.o(i._printf_core)
    i._sputc                                 0x080039c8   Section        0  printf3.o(i._sputc)
    _sputc                                   0x080039c9   Thumb Code    10  printf3.o(i._sputc)
    i.draw_bitmap                            0x080039d4   Section        0  draw.o(i.draw_bitmap)
    i.draw_end                               0x08003ba4   Section        0  draw.o(i.draw_end)
    i.draw_flushArea                         0x08003ba8   Section        0  draw.o(i.draw_flushArea)
    i.draw_init                              0x08003bc4   Section        0  draw.o(i.draw_init)
    i.draw_string                            0x08003bdc   Section        0  draw.o(i.draw_string)
    i.draw_string_P                          0x08003c8c   Section        0  draw.o(i.draw_string_P)
    i.free                                   0x08003cc4   Section        0  malloc.o(i.free)
    i.game1_draw                             0x08003d14   Section        0  game1.o(i.game1_draw)
    i.game1_task                             0x080040a0   Section        0  game1.o(i.game1_task)
    i.main                                   0x080041bc   Section        0  main.o(i.main)
    i.malloc                                 0x080041f8   Section        0  malloc.o(i.malloc)
    i.mdelay                                 0x08004264   Section        0  driver_timer.o(i.mdelay)
    i.osKernelInitialize                     0x08004280   Section        0  cmsis_os2.o(i.osKernelInitialize)
    i.osKernelStart                          0x080042b8   Section        0  cmsis_os2.o(i.osKernelStart)
    i.platform_task                          0x080042f8   Section        0  game1.o(i.platform_task)
    platform_task                            0x080042f9   Thumb Code   192  game1.o(i.platform_task)
    i.prvAddCurrentTaskToDelayedList         0x080043c0   Section        0  tasks.o(i.prvAddCurrentTaskToDelayedList)
    prvAddCurrentTaskToDelayedList           0x080043c1   Thumb Code    84  tasks.o(i.prvAddCurrentTaskToDelayedList)
    i.prvAddNewTaskToReadyList               0x0800441c   Section        0  tasks.o(i.prvAddNewTaskToReadyList)
    prvAddNewTaskToReadyList                 0x0800441d   Thumb Code   190  tasks.o(i.prvAddNewTaskToReadyList)
    i.prvCheckForValidListAndQueue           0x080044ec   Section        0  timers.o(i.prvCheckForValidListAndQueue)
    prvCheckForValidListAndQueue             0x080044ed   Thumb Code    72  timers.o(i.prvCheckForValidListAndQueue)
    i.prvCopyDataFromQueue                   0x08004544   Section        0  queue.o(i.prvCopyDataFromQueue)
    prvCopyDataFromQueue                     0x08004545   Thumb Code    38  queue.o(i.prvCopyDataFromQueue)
    i.prvCopyDataToQueue                     0x0800456a   Section        0  queue.o(i.prvCopyDataToQueue)
    prvCopyDataToQueue                       0x0800456b   Thumb Code   108  queue.o(i.prvCopyDataToQueue)
    i.prvDeleteTCB                           0x080045d6   Section        0  tasks.o(i.prvDeleteTCB)
    prvDeleteTCB                             0x080045d7   Thumb Code    52  tasks.o(i.prvDeleteTCB)
    i.prvHeapInit                            0x0800460c   Section        0  heap_4.o(i.prvHeapInit)
    prvHeapInit                              0x0800460d   Thumb Code    66  heap_4.o(i.prvHeapInit)
    i.prvIdleTask                            0x08004658   Section        0  tasks.o(i.prvIdleTask)
    prvIdleTask                              0x08004659   Thumb Code    82  tasks.o(i.prvIdleTask)
    i.prvInitialiseNewQueue                  0x080046b8   Section        0  queue.o(i.prvInitialiseNewQueue)
    prvInitialiseNewQueue                    0x080046b9   Thumb Code    38  queue.o(i.prvInitialiseNewQueue)
    i.prvInitialiseNewTask                   0x080046de   Section        0  tasks.o(i.prvInitialiseNewTask)
    prvInitialiseNewTask                     0x080046df   Thumb Code   156  tasks.o(i.prvInitialiseNewTask)
    i.prvInsertBlockIntoFreeList             0x0800477c   Section        0  heap_4.o(i.prvInsertBlockIntoFreeList)
    prvInsertBlockIntoFreeList               0x0800477d   Thumb Code    72  heap_4.o(i.prvInsertBlockIntoFreeList)
    i.prvInsertTimerInActiveList             0x080047c8   Section        0  timers.o(i.prvInsertTimerInActiveList)
    prvInsertTimerInActiveList               0x080047c9   Thumb Code    52  timers.o(i.prvInsertTimerInActiveList)
    i.prvIsQueueEmpty                        0x08004800   Section        0  queue.o(i.prvIsQueueEmpty)
    prvIsQueueEmpty                          0x08004801   Thumb Code    28  queue.o(i.prvIsQueueEmpty)
    i.prvNotifyQueueSetContainer             0x0800481c   Section        0  queue.o(i.prvNotifyQueueSetContainer)
    prvNotifyQueueSetContainer               0x0800481d   Thumb Code   108  queue.o(i.prvNotifyQueueSetContainer)
    i.prvProcessReceivedCommands             0x08004888   Section        0  timers.o(i.prvProcessReceivedCommands)
    prvProcessReceivedCommands               0x08004889   Thumb Code   198  timers.o(i.prvProcessReceivedCommands)
    i.prvProcessTimerOrBlockTask             0x08004954   Section        0  timers.o(i.prvProcessTimerOrBlockTask)
    prvProcessTimerOrBlockTask               0x08004955   Thumb Code   172  timers.o(i.prvProcessTimerOrBlockTask)
    i.prvResetNextTaskUnblockTime            0x08004a08   Section        0  tasks.o(i.prvResetNextTaskUnblockTime)
    prvResetNextTaskUnblockTime              0x08004a09   Thumb Code    26  tasks.o(i.prvResetNextTaskUnblockTime)
    i.prvSampleTimeNow                       0x08004a28   Section        0  timers.o(i.prvSampleTimeNow)
    prvSampleTimeNow                         0x08004a29   Thumb Code    36  timers.o(i.prvSampleTimeNow)
    i.prvSwitchTimerLists                    0x08004a50   Section        0  timers.o(i.prvSwitchTimerLists)
    prvSwitchTimerLists                      0x08004a51   Thumb Code   102  timers.o(i.prvSwitchTimerLists)
    i.prvTaskExitError                       0x08004abc   Section        0  port.o(i.prvTaskExitError)
    prvTaskExitError                         0x08004abd   Thumb Code    36  port.o(i.prvTaskExitError)
    i.prvTimerTask                           0x08004ae4   Section        0  timers.o(i.prvTimerTask)
    prvTimerTask                             0x08004ae5   Thumb Code    32  timers.o(i.prvTimerTask)
    i.prvUnlockQueue                         0x08004b08   Section        0  queue.o(i.prvUnlockQueue)
    prvUnlockQueue                           0x08004b09   Thumb Code   120  queue.o(i.prvUnlockQueue)
    i.pvPortMalloc                           0x08004b80   Section        0  heap_4.o(i.pvPortMalloc)
    i.pxPortInitialiseStack                  0x08004c58   Section        0  port.o(i.pxPortInitialiseStack)
    i.readPixels                             0x08004c7c   Section        0  draw.o(i.readPixels)
    readPixels                               0x08004c7d   Thumb Code    12  draw.o(i.readPixels)
    i.setBuffByte                            0x08004c88   Section        0  draw.o(i.setBuffByte)
    setBuffByte                              0x08004c89   Thumb Code    20  draw.o(i.setBuffByte)
    i.set_bits                               0x08004ca0   Section        0  draw.o(i.set_bits)
    set_bits                                 0x08004ca1   Thumb Code    22  draw.o(i.set_bits)
    i.system_get_ns                          0x08004cb8   Section        0  driver_timer.o(i.system_get_ns)
    i.udelay                                 0x08004cfc   Section        0  driver_timer.o(i.udelay)
    i.uxListRemove                           0x08004d34   Section        0  list.o(i.uxListRemove)
    i.vApplicationGetIdleTaskMemory          0x08004d5c   Section        0  cmsis_os2.o(i.vApplicationGetIdleTaskMemory)
    i.vApplicationGetTimerTaskMemory         0x08004d70   Section        0  cmsis_os2.o(i.vApplicationGetTimerTaskMemory)
    i.vListInitialise                        0x08004d88   Section        0  list.o(i.vListInitialise)
    i.vListInitialiseItem                    0x08004d9e   Section        0  list.o(i.vListInitialiseItem)
    i.vListInsert                            0x08004da4   Section        0  list.o(i.vListInsert)
    i.vListInsertEnd                         0x08004dd4   Section        0  list.o(i.vListInsertEnd)
    i.vPortEnterCritical                     0x08004dec   Section        0  port.o(i.vPortEnterCritical)
    i.vPortExitCritical                      0x08004e2c   Section        0  port.o(i.vPortExitCritical)
    i.vPortFree                              0x08004e54   Section        0  heap_4.o(i.vPortFree)
    i.vPortSetupTimerInterrupt               0x08004eb0   Section        0  port.o(i.vPortSetupTimerInterrupt)
    i.vPortValidateInterruptPriority         0x08004ed4   Section        0  port.o(i.vPortValidateInterruptPriority)
    i.vQueueAddToRegistry                    0x08004f28   Section        0  queue.o(i.vQueueAddToRegistry)
    i.vQueueWaitForMessageRestricted         0x08004f50   Section        0  queue.o(i.vQueueWaitForMessageRestricted)
    i.vTaskDelay                             0x08004f94   Section        0  tasks.o(i.vTaskDelay)
    i.vTaskInternalSetTimeOutState           0x08004fe0   Section        0  tasks.o(i.vTaskInternalSetTimeOutState)
    i.vTaskMissedYield                       0x08004ff0   Section        0  tasks.o(i.vTaskMissedYield)
    i.vTaskPlaceOnEventList                  0x08004ffc   Section        0  tasks.o(i.vTaskPlaceOnEventList)
    i.vTaskPlaceOnEventListRestricted        0x0800502c   Section        0  tasks.o(i.vTaskPlaceOnEventListRestricted)
    i.vTaskStartScheduler                    0x08005064   Section        0  tasks.o(i.vTaskStartScheduler)
    i.vTaskSuspendAll                        0x080050ec   Section        0  tasks.o(i.vTaskSuspendAll)
    i.vTaskSwitchContext                     0x080050fc   Section        0  tasks.o(i.vTaskSwitchContext)
    i.xPortStartScheduler                    0x08005160   Section        0  port.o(i.xPortStartScheduler)
    i.xQueueAddToSet                         0x08005208   Section        0  queue.o(i.xQueueAddToSet)
    i.xQueueCreateSet                        0x0800522a   Section        0  queue.o(i.xQueueCreateSet)
    i.xQueueGenericCreate                    0x08005232   Section        0  queue.o(i.xQueueGenericCreate)
    i.xQueueGenericCreateStatic              0x0800527a   Section        0  queue.o(i.xQueueGenericCreateStatic)
    i.xQueueGenericReset                     0x080052e0   Section        0  queue.o(i.xQueueGenericReset)
    i.xQueueGenericSend                      0x08005368   Section        0  queue.o(i.xQueueGenericSend)
    i.xQueueGenericSendFromISR               0x080054d4   Section        0  queue.o(i.xQueueGenericSendFromISR)
    i.xQueueReceive                          0x080055a0   Section        0  queue.o(i.xQueueReceive)
    i.xQueueSelectFromSet                    0x080056d8   Section        0  queue.o(i.xQueueSelectFromSet)
    i.xTaskCheckForTimeOut                   0x080056ec   Section        0  tasks.o(i.xTaskCheckForTimeOut)
    i.xTaskCreate                            0x08005760   Section        0  tasks.o(i.xTaskCreate)
    i.xTaskCreateStatic                      0x080057ba   Section        0  tasks.o(i.xTaskCreateStatic)
    i.xTaskGetSchedulerState                 0x08005810   Section        0  tasks.o(i.xTaskGetSchedulerState)
    i.xTaskGetTickCount                      0x0800582c   Section        0  tasks.o(i.xTaskGetTickCount)
    i.xTaskIncrementTick                     0x08005838   Section        0  tasks.o(i.xTaskIncrementTick)
    i.xTaskPriorityDisinherit                0x08005900   Section        0  tasks.o(i.xTaskPriorityDisinherit)
    i.xTaskRemoveFromEventList               0x08005980   Section        0  tasks.o(i.xTaskRemoveFromEventList)
    i.xTaskResumeAll                         0x080059f0   Section        0  tasks.o(i.xTaskResumeAll)
    i.xTimerCreateTimerTask                  0x08005ab4   Section        0  timers.o(i.xTimerCreateTimerTask)
    i.xTimerGenericCommand                   0x08005b14   Section        0  timers.o(i.xTimerGenericCommand)
    .constdata                               0x08005b7c   Section       18  stm32f1xx_hal_rcc.o(.constdata)
    aPredivFactorTable                       0x08005b7c   Data           2  stm32f1xx_hal_rcc.o(.constdata)
    aPLLMULFactorTable                       0x08005b7e   Data          16  stm32f1xx_hal_rcc.o(.constdata)
    .constdata                               0x08005b8e   Section       16  system_stm32f1xx.o(.constdata)
    .constdata                               0x08005b9e   Section        8  system_stm32f1xx.o(.constdata)
    .constdata                               0x08005ba6   Section     2048  driver_oled.o(.constdata)
    .constdata                               0x080063a6   Section       29  game1.o(.constdata)
    ballImg                                  0x080063a6   Data           2  game1.o(.constdata)
    block                                    0x080063a8   Data           3  game1.o(.constdata)
    platform                                 0x080063ab   Data          12  game1.o(.constdata)
    clearImg                                 0x080063b7   Data          12  game1.o(.constdata)
    .constdata                               0x080063c3   Section        7  resources.o(.constdata)
    .constdata                               0x080063ca   Section      485  resources.o(.constdata)
    .data                                    0x20000000   Section       12  stm32f1xx_hal.o(.data)
    .data                                    0x2000000c   Section        4  system_stm32f1xx.o(.data)
    .data                                    0x20000010   Section       60  tasks.o(.data)
    pxDelayedTaskList                        0x20000014   Data           4  tasks.o(.data)
    pxOverflowDelayedTaskList                0x20000018   Data           4  tasks.o(.data)
    uxDeletedTasksWaitingCleanUp             0x2000001c   Data           4  tasks.o(.data)
    uxCurrentNumberOfTasks                   0x20000020   Data           4  tasks.o(.data)
    xTickCount                               0x20000024   Data           4  tasks.o(.data)
    uxTopReadyPriority                       0x20000028   Data           4  tasks.o(.data)
    xSchedulerRunning                        0x2000002c   Data           4  tasks.o(.data)
    uxPendedTicks                            0x20000030   Data           4  tasks.o(.data)
    xYieldPending                            0x20000034   Data           4  tasks.o(.data)
    xNumOfOverflows                          0x20000038   Data           4  tasks.o(.data)
    uxTaskNumber                             0x2000003c   Data           4  tasks.o(.data)
    xNextTaskUnblockTime                     0x20000040   Data           4  tasks.o(.data)
    xIdleTaskHandle                          0x20000044   Data           4  tasks.o(.data)
    uxSchedulerSuspended                     0x20000048   Data           4  tasks.o(.data)
    .data                                    0x2000004c   Section       20  timers.o(.data)
    pxCurrentTimerList                       0x2000004c   Data           4  timers.o(.data)
    pxOverflowTimerList                      0x20000050   Data           4  timers.o(.data)
    xTimerQueue                              0x20000054   Data           4  timers.o(.data)
    xTimerTaskHandle                         0x20000058   Data           4  timers.o(.data)
    xLastTime                                0x2000005c   Data           4  timers.o(.data)
    .data                                    0x20000060   Section        4  cmsis_os2.o(.data)
    KernelState                              0x20000060   Data           4  cmsis_os2.o(.data)
    .data                                    0x20000064   Section       24  heap_4.o(.data)
    pxEnd                                    0x20000064   Data           4  heap_4.o(.data)
    xFreeBytesRemaining                      0x20000068   Data           4  heap_4.o(.data)
    xMinimumEverFreeBytesRemaining           0x2000006c   Data           4  heap_4.o(.data)
    xBlockAllocatedBit                       0x20000070   Data           4  heap_4.o(.data)
    xStart                                   0x20000074   Data           8  heap_4.o(.data)
    .data                                    0x2000007c   Section       12  port.o(.data)
    ucMaxSysCallPriority                     0x2000007c   Data           1  port.o(.data)
    uxCriticalNesting                        0x20000080   Data           4  port.o(.data)
    ulMaxPRIGROUPValue                       0x20000084   Data           4  port.o(.data)
    .data                                    0x20000088   Section        8  driver_oled.o(.data)
    mem_mode                                 0x20000088   Data           1  driver_oled.o(.data)
    g_pHI2COLED                              0x2000008c   Data           4  driver_oled.o(.data)
    .data                                    0x20000090   Section        8  driver_mpu6050.o(.data)
    g_pHI2C_MPU6050                          0x20000090   Data           4  driver_mpu6050.o(.data)
    g_xQueueMPU6050                          0x20000094   Data           4  driver_mpu6050.o(.data)
    .data                                    0x20000098   Section       24  driver_ir_receiver.o(.data)
    g_IRReceiverIRQ_Cnt                      0x20000098   Data           4  driver_ir_receiver.o(.data)
    g_KeysBuf_R                              0x2000009c   Data           4  driver_ir_receiver.o(.data)
    g_KeysBuf_W                              0x200000a0   Data           4  driver_ir_receiver.o(.data)
    g_xQueueIR                               0x200000a4   Data           4  driver_ir_receiver.o(.data)
    pre_time                                 0x200000a8   Data           8  driver_ir_receiver.o(.data)
    .data                                    0x200000b0   Section       24  driver_rotary_encoder.o(.data)
    g_count                                  0x200000b0   Data           4  driver_rotary_encoder.o(.data)
    g_speed                                  0x200000b4   Data           4  driver_rotary_encoder.o(.data)
    pre_count                                0x200000b8   Data           4  driver_rotary_encoder.o(.data)
    g_xQueueRotary                           0x200000bc   Data           4  driver_rotary_encoder.o(.data)
    pre_time                                 0x200000c0   Data           8  driver_rotary_encoder.o(.data)
    .data                                    0x200000c8   Section       20  draw.o(.data)
    oledBuffer                               0x200000cc   Data           4  draw.o(.data)
    g_xres                                   0x200000d0   Data           4  draw.o(.data)
    g_yres                                   0x200000d4   Data           4  draw.o(.data)
    g_bpp                                    0x200000d8   Data           4  draw.o(.data)
    .data                                    0x200000dc   Section       72  game1.o(.data)
    first                                    0x200000dc   Data           1  game1.o(.data)
    uptMove                                  0x200000dd   Data           1  game1.o(.data)
    lives                                    0x200000de   Data           1  game1.o(.data)
    lives_origin                             0x200000df   Data           1  game1.o(.data)
    platformX                                0x200000e0   Data           1  game1.o(.data)
    score                                    0x200000e2   Data           2  game1.o(.data)
    blocks                                   0x200000e4   Data           4  game1.o(.data)
    g_xres                                   0x200000e8   Data           4  game1.o(.data)
    g_yres                                   0x200000ec   Data           4  game1.o(.data)
    g_bpp                                    0x200000f0   Data           4  game1.o(.data)
    g_framebuffer                            0x200000f4   Data           4  game1.o(.data)
    g_xQueueSetInput                         0x200000f8   Data           4  game1.o(.data)
    g_xQueuePlatform                         0x200000fc   Data           4  game1.o(.data)
    g_xQueueIR                               0x20000100   Data           4  game1.o(.data)
    g_xQueueRotary                           0x20000104   Data           4  game1.o(.data)
    g_xQueueMPU6050                          0x20000108   Data           4  game1.o(.data)
    inputdata                                0x2000010c   Data           8  game1.o(.data)
    idata                                    0x20000114   Data           8  game1.o(.data)
    idata                                    0x2000011c   Data           8  game1.o(.data)
    .data                                    0x20000124   Section        4  rand.o(.data)
    _rand_state                              0x20000124   Data           4  rand.o(.data)
    .data                                    0x20000128   Section        4  mvars.o(.data)
    .data                                    0x2000012c   Section        4  mvars.o(.data)
    .bss                                     0x20000130   Section       48  adc.o(.bss)
    .bss                                     0x20000160   Section       84  i2c.o(.bss)
    .bss                                     0x200001b4   Section       88  spi.o(.bss)
    .bss                                     0x2000020c   Section      216  tim.o(.bss)
    .bss                                     0x200002e4   Section       72  usart.o(.bss)
    .bss                                     0x2000032c   Section      752  usb.o(.bss)
    .bss                                     0x2000061c   Section       72  stm32f1xx_hal_timebase_tim.o(.bss)
    .bss                                     0x20000664   Section       64  queue.o(.bss)
    .bss                                     0x200006a4   Section     1220  tasks.o(.bss)
    pxReadyTasksLists                        0x200006a4   Data        1120  tasks.o(.bss)
    xDelayedTaskList1                        0x20000b04   Data          20  tasks.o(.bss)
    xDelayedTaskList2                        0x20000b18   Data          20  tasks.o(.bss)
    xPendingReadyList                        0x20000b2c   Data          20  tasks.o(.bss)
    xTasksWaitingTermination                 0x20000b40   Data          20  tasks.o(.bss)
    xSuspendedTaskList                       0x20000b54   Data          20  tasks.o(.bss)
    .bss                                     0x20000b68   Section      284  timers.o(.bss)
    xActiveTimerList1                        0x20000b68   Data          20  timers.o(.bss)
    xActiveTimerList2                        0x20000b7c   Data          20  timers.o(.bss)
    xStaticTimerQueue                        0x20000b90   Data          84  timers.o(.bss)
    ucStaticTimerQueueStorage                0x20000be4   Data         160  timers.o(.bss)
    .bss                                     0x20000c84   Section     1720  cmsis_os2.o(.bss)
    Idle_TCB                                 0x20000c84   Data          92  cmsis_os2.o(.bss)
    Idle_Stack                               0x20000ce0   Data         512  cmsis_os2.o(.bss)
    Timer_TCB                                0x20000ee0   Data          92  cmsis_os2.o(.bss)
    Timer_Stack                              0x20000f3c   Data        1024  cmsis_os2.o(.bss)
    .bss                                     0x2000133c   Section     8000  heap_4.o(.bss)
    ucHeap                                   0x2000133c   Data        8000  heap_4.o(.bss)
    .bss                                     0x2000327c   Section     1024  driver_oled.o(.bss)
    oledBuffer                               0x2000327c   Data        1024  driver_oled.o(.bss)
    .bss                                     0x20003680   Section      672  driver_ir_receiver.o(.bss)
    g_KeysBuf                                0x20003680   Data         128  driver_ir_receiver.o(.bss)
    g_IRReceiverIRQ_Timers                   0x20003700   Data         544  driver_ir_receiver.o(.bss)
    .bss                                     0x20003920   Section      164  driver_rotary_encoder.o(.bss)
    g_ucQueueRotaryBuf                       0x20003920   Data          80  driver_rotary_encoder.o(.bss)
    g_xQueueRotaryStaticStruct               0x20003970   Data          84  driver_rotary_encoder.o(.bss)
    .bss                                     0x200039c4   Section       16  game1.o(.bss)
    ball                                     0x200039c4   Data          16  game1.o(.bss)
    HEAP                                     0x200039d8   Section      512  startup_stm32f103xb.o(HEAP)
    STACK                                    0x20003bd8   Section     1024  startup_stm32f103xb.o(STACK)

    Global Symbols

    Symbol Name                              Value     Ov Type        Size  Object(Section)

    BuildAttributes$$THM_ISAv4$P$D$K$B$S$PE$A:L22UL41UL21$X:L11$S22US41US21$IEEE1$IW$USESV6$~STKCKD$USESV7$~SHL$OTIME$ROPI$EBA8$MICROLIB$REQ8$PRES8$EABIv2 0x00000000   Number         0  anon$$obj.o ABSOLUTE
    __ARM_use_no_argv                        0x00000000   Number         0  main.o ABSOLUTE
    _printf_a                                0x00000000   Number         0  stubs.o ABSOLUTE
    _printf_c                                0x00000000   Number         0  stubs.o ABSOLUTE
    _printf_charcount                        0x00000000   Number         0  stubs.o ABSOLUTE
    _printf_d                                0x00000000   Number         0  stubs.o ABSOLUTE
    _printf_e                                0x00000000   Number         0  stubs.o ABSOLUTE
    _printf_f                                0x00000000   Number         0  stubs.o ABSOLUTE
    _printf_flags                            0x00000000   Number         0  stubs.o ABSOLUTE
    _printf_fp_dec                           0x00000000   Number         0  stubs.o ABSOLUTE
    _printf_fp_hex                           0x00000000   Number         0  stubs.o ABSOLUTE
    _printf_g                                0x00000000   Number         0  stubs.o ABSOLUTE
    _printf_i                                0x00000000   Number         0  stubs.o ABSOLUTE
    _printf_int_dec                          0x00000000   Number         0  stubs.o ABSOLUTE
    _printf_l                                0x00000000   Number         0  stubs.o ABSOLUTE
    _printf_lc                               0x00000000   Number         0  stubs.o ABSOLUTE
    _printf_ll                               0x00000000   Number         0  stubs.o ABSOLUTE
    _printf_lld                              0x00000000   Number         0  stubs.o ABSOLUTE
    _printf_lli                              0x00000000   Number         0  stubs.o ABSOLUTE
    _printf_llo                              0x00000000   Number         0  stubs.o ABSOLUTE
    _printf_llu                              0x00000000   Number         0  stubs.o ABSOLUTE
    _printf_llx                              0x00000000   Number         0  stubs.o ABSOLUTE
    _printf_longlong_dec                     0x00000000   Number         0  stubs.o ABSOLUTE
    _printf_longlong_hex                     0x00000000   Number         0  stubs.o ABSOLUTE
    _printf_longlong_oct                     0x00000000   Number         0  stubs.o ABSOLUTE
    _printf_ls                               0x00000000   Number         0  stubs.o ABSOLUTE
    _printf_mbtowc                           0x00000000   Number         0  stubs.o ABSOLUTE
    _printf_n                                0x00000000   Number         0  stubs.o ABSOLUTE
    _printf_o                                0x00000000   Number         0  stubs.o ABSOLUTE
    _printf_p                                0x00000000   Number         0  stubs.o ABSOLUTE
    _printf_percent                          0x00000000   Number         0  stubs.o ABSOLUTE
    _printf_pre_padding                      0x00000000   Number         0  stubs.o ABSOLUTE
    _printf_return_value                     0x00000000   Number         0  stubs.o ABSOLUTE
    _printf_s                                0x00000000   Number         0  stubs.o ABSOLUTE
    _printf_sizespec                         0x00000000   Number         0  stubs.o ABSOLUTE
    _printf_str                              0x00000000   Number         0  stubs.o ABSOLUTE
    _printf_truncate_signed                  0x00000000   Number         0  stubs.o ABSOLUTE
    _printf_truncate_unsigned                0x00000000   Number         0  stubs.o ABSOLUTE
    _printf_u                                0x00000000   Number         0  stubs.o ABSOLUTE
    _printf_wc                               0x00000000   Number         0  stubs.o ABSOLUTE
    _printf_wctomb                           0x00000000   Number         0  stubs.o ABSOLUTE
    _printf_widthprec                        0x00000000   Number         0  stubs.o ABSOLUTE
    _printf_x                                0x00000000   Number         0  stubs.o ABSOLUTE
    __cpp_initialize__aeabi_                  - Undefined Weak Reference
    __cxa_finalize                            - Undefined Weak Reference
    _clock_init                               - Undefined Weak Reference
    _microlib_exit                            - Undefined Weak Reference
    __Vectors_Size                           0x000000ec   Number         0  startup_stm32f103xb.o ABSOLUTE
    __Vectors                                0x08000000   Data           4  startup_stm32f103xb.o(RESET)
    __Vectors_End                            0x080000ec   Data           0  startup_stm32f103xb.o(RESET)
    __main                                   0x080000ed   Thumb Code     0  entry.o(.ARM.Collect$$$$00000000)
    _main_stk                                0x080000ed   Thumb Code     0  entry2.o(.ARM.Collect$$$$00000001)
    _main_scatterload                        0x080000f1   Thumb Code     0  entry5.o(.ARM.Collect$$$$00000004)
    __main_after_scatterload                 0x080000f5   Thumb Code     0  entry5.o(.ARM.Collect$$$$00000004)
    _main_clock                              0x080000f5   Thumb Code     0  entry7b.o(.ARM.Collect$$$$00000008)
    _main_cpp_init                           0x080000f5   Thumb Code     0  entry8b.o(.ARM.Collect$$$$0000000A)
    _main_init                               0x080000f5   Thumb Code     0  entry9a.o(.ARM.Collect$$$$0000000B)
    __rt_final_cpp                           0x080000fd   Thumb Code     0  entry10a.o(.ARM.Collect$$$$0000000D)
    __rt_final_exit                          0x080000fd   Thumb Code     0  entry11a.o(.ARM.Collect$$$$0000000F)
    SVC_Handler                              0x08000101   Thumb Code    32  port.o(.emb_text)
    __asm___6_port_c_39a90d8d__prvStartFirstTask 0x08000125   Thumb Code    28  port.o(.emb_text)
    PendSV_Handler                           0x08000145   Thumb Code    72  port.o(.emb_text)
    vPortGetIPSR                             0x08000191   Thumb Code     6  port.o(.emb_text)
    Reset_Handler                            0x08000199   Thumb Code     8  startup_stm32f103xb.o(.text)
    ADC1_2_IRQHandler                        0x080001b3   Thumb Code     0  startup_stm32f103xb.o(.text)
    CAN1_RX1_IRQHandler                      0x080001b3   Thumb Code     0  startup_stm32f103xb.o(.text)
    CAN1_SCE_IRQHandler                      0x080001b3   Thumb Code     0  startup_stm32f103xb.o(.text)
    DMA1_Channel1_IRQHandler                 0x080001b3   Thumb Code     0  startup_stm32f103xb.o(.text)
    DMA1_Channel2_IRQHandler                 0x080001b3   Thumb Code     0  startup_stm32f103xb.o(.text)
    DMA1_Channel3_IRQHandler                 0x080001b3   Thumb Code     0  startup_stm32f103xb.o(.text)
    DMA1_Channel4_IRQHandler                 0x080001b3   Thumb Code     0  startup_stm32f103xb.o(.text)
    DMA1_Channel5_IRQHandler                 0x080001b3   Thumb Code     0  startup_stm32f103xb.o(.text)
    DMA1_Channel6_IRQHandler                 0x080001b3   Thumb Code     0  startup_stm32f103xb.o(.text)
    DMA1_Channel7_IRQHandler                 0x080001b3   Thumb Code     0  startup_stm32f103xb.o(.text)
    EXTI0_IRQHandler                         0x080001b3   Thumb Code     0  startup_stm32f103xb.o(.text)
    EXTI1_IRQHandler                         0x080001b3   Thumb Code     0  startup_stm32f103xb.o(.text)
    EXTI2_IRQHandler                         0x080001b3   Thumb Code     0  startup_stm32f103xb.o(.text)
    EXTI3_IRQHandler                         0x080001b3   Thumb Code     0  startup_stm32f103xb.o(.text)
    EXTI4_IRQHandler                         0x080001b3   Thumb Code     0  startup_stm32f103xb.o(.text)
    EXTI9_5_IRQHandler                       0x080001b3   Thumb Code     0  startup_stm32f103xb.o(.text)
    FLASH_IRQHandler                         0x080001b3   Thumb Code     0  startup_stm32f103xb.o(.text)
    I2C1_ER_IRQHandler                       0x080001b3   Thumb Code     0  startup_stm32f103xb.o(.text)
    I2C1_EV_IRQHandler                       0x080001b3   Thumb Code     0  startup_stm32f103xb.o(.text)
    I2C2_ER_IRQHandler                       0x080001b3   Thumb Code     0  startup_stm32f103xb.o(.text)
    I2C2_EV_IRQHandler                       0x080001b3   Thumb Code     0  startup_stm32f103xb.o(.text)
    PVD_IRQHandler                           0x080001b3   Thumb Code     0  startup_stm32f103xb.o(.text)
    RCC_IRQHandler                           0x080001b3   Thumb Code     0  startup_stm32f103xb.o(.text)
    RTC_Alarm_IRQHandler                     0x080001b3   Thumb Code     0  startup_stm32f103xb.o(.text)
    RTC_IRQHandler                           0x080001b3   Thumb Code     0  startup_stm32f103xb.o(.text)
    SPI1_IRQHandler                          0x080001b3   Thumb Code     0  startup_stm32f103xb.o(.text)
    SPI2_IRQHandler                          0x080001b3   Thumb Code     0  startup_stm32f103xb.o(.text)
    TAMPER_IRQHandler                        0x080001b3   Thumb Code     0  startup_stm32f103xb.o(.text)
    TIM1_BRK_IRQHandler                      0x080001b3   Thumb Code     0  startup_stm32f103xb.o(.text)
    TIM1_CC_IRQHandler                       0x080001b3   Thumb Code     0  startup_stm32f103xb.o(.text)
    TIM1_TRG_COM_IRQHandler                  0x080001b3   Thumb Code     0  startup_stm32f103xb.o(.text)
    TIM1_UP_IRQHandler                       0x080001b3   Thumb Code     0  startup_stm32f103xb.o(.text)
    TIM2_IRQHandler                          0x080001b3   Thumb Code     0  startup_stm32f103xb.o(.text)
    TIM3_IRQHandler                          0x080001b3   Thumb Code     0  startup_stm32f103xb.o(.text)
    USART1_IRQHandler                        0x080001b3   Thumb Code     0  startup_stm32f103xb.o(.text)
    USART2_IRQHandler                        0x080001b3   Thumb Code     0  startup_stm32f103xb.o(.text)
    USART3_IRQHandler                        0x080001b3   Thumb Code     0  startup_stm32f103xb.o(.text)
    USBWakeUp_IRQHandler                     0x080001b3   Thumb Code     0  startup_stm32f103xb.o(.text)
    USB_HP_CAN1_TX_IRQHandler                0x080001b3   Thumb Code     0  startup_stm32f103xb.o(.text)
    USB_LP_CAN1_RX0_IRQHandler               0x080001b3   Thumb Code     0  startup_stm32f103xb.o(.text)
    WWDG_IRQHandler                          0x080001b3   Thumb Code     0  startup_stm32f103xb.o(.text)
    __aeabi_uldivmod                         0x080001bd   Thumb Code    98  uldiv.o(.text)
    __aeabi_llsr                             0x0800021f   Thumb Code    32  llushr.o(.text)
    _ll_ushift_r                             0x0800021f   Thumb Code     0  llushr.o(.text)
    rand                                     0x08000241   Thumb Code    20  rand.o(.text)
    srand                                    0x08000255   Thumb Code     6  rand.o(.text)
    __aeabi_memcpy                           0x08000265   Thumb Code    36  memcpya.o(.text)
    __aeabi_memcpy4                          0x08000265   Thumb Code     0  memcpya.o(.text)
    __aeabi_memcpy8                          0x08000265   Thumb Code     0  memcpya.o(.text)
    __aeabi_memset                           0x08000289   Thumb Code    14  memseta.o(.text)
    __aeabi_memset4                          0x08000289   Thumb Code     0  memseta.o(.text)
    __aeabi_memset8                          0x08000289   Thumb Code     0  memseta.o(.text)
    __aeabi_memclr                           0x08000297   Thumb Code     4  memseta.o(.text)
    __aeabi_memclr4                          0x08000297   Thumb Code     0  memseta.o(.text)
    __aeabi_memclr8                          0x08000297   Thumb Code     0  memseta.o(.text)
    memset                                   0x0800029b   Thumb Code    18  memseta.o(.text)
    strlen                                   0x080002ad   Thumb Code    14  strlen.o(.text)
    strcpy                                   0x080002bb   Thumb Code    18  strcpy.o(.text)
    __aeabi_fadd                             0x080002cd   Thumb Code   164  fadd.o(.text)
    __aeabi_fsub                             0x08000371   Thumb Code     6  fadd.o(.text)
    __aeabi_frsub                            0x08000377   Thumb Code     6  fadd.o(.text)
    __ARM_scalbnf                            0x0800037d   Thumb Code    24  fscalb.o(.text)
    scalbnf                                  0x0800037d   Thumb Code     0  fscalb.o(.text)
    __aeabi_i2f                              0x08000395   Thumb Code    18  fflti.o(.text)
    __aeabi_ui2f                             0x080003a7   Thumb Code    10  ffltui.o(.text)
    __aeabi_f2uiz                            0x080003b1   Thumb Code    40  ffixui.o(.text)
    __aeabi_cfcmpeq                          0x080003d9   Thumb Code     0  cfcmple.o(.text)
    __aeabi_cfcmple                          0x080003d9   Thumb Code    20  cfcmple.o(.text)
    __aeabi_cfrcmple                         0x080003ed   Thumb Code    20  cfrcmple.o(.text)
    __aeabi_uidiv                            0x08000401   Thumb Code     0  uidiv.o(.text)
    __aeabi_uidivmod                         0x08000401   Thumb Code    44  uidiv.o(.text)
    __aeabi_llsl                             0x0800042d   Thumb Code    30  llshl.o(.text)
    _ll_shift_l                              0x0800042d   Thumb Code     0  llshl.o(.text)
    __I$use$fp                               0x0800044b   Thumb Code     0  iusefp.o(.text)
    _float_round                             0x0800044b   Thumb Code    18  fepilogue.o(.text)
    _float_epilogue                          0x0800045d   Thumb Code    92  fepilogue.o(.text)
    __scatterload                            0x080004b9   Thumb Code    28  init.o(.text)
    __scatterload_rt2                        0x080004b9   Thumb Code     0  init.o(.text)
    __decompress                             0x080004dd   Thumb Code     0  __dczerorl.o(.text)
    __decompress0                            0x080004dd   Thumb Code    58  __dczerorl.o(.text)
    ADC_ConversionStop_Disable               0x08000519   Thumb Code    86  stm32f1xx_hal_adc.o(i.ADC_ConversionStop_Disable)
    BusFault_Handler                         0x0800056f   Thumb Code     2  stm32f1xx_it.o(i.BusFault_Handler)
    DebugMon_Handler                         0x08000571   Thumb Code     2  stm32f1xx_it.o(i.DebugMon_Handler)
    EXTI15_10_IRQHandler                     0x08000573   Thumb Code    30  stm32f1xx_it.o(i.EXTI15_10_IRQHandler)
    Error_Handler                            0x08000591   Thumb Code     4  main.o(i.Error_Handler)
    GetQueueIR                               0x08000595   Thumb Code     6  driver_ir_receiver.o(i.GetQueueIR)
    GetQueueMPU6050                          0x080005a1   Thumb Code     6  driver_mpu6050.o(i.GetQueueMPU6050)
    GetQueueRotary                           0x080005ad   Thumb Code     6  driver_rotary_encoder.o(i.GetQueueRotary)
    HAL_ADC_ConfigChannel                    0x080005b9   Thumb Code   240  stm32f1xx_hal_adc.o(i.HAL_ADC_ConfigChannel)
    HAL_ADC_Init                             0x080006b5   Thumb Code   272  stm32f1xx_hal_adc.o(i.HAL_ADC_Init)
    HAL_ADC_MspInit                          0x080007d1   Thumb Code    76  adc.o(i.HAL_ADC_MspInit)
    HAL_GPIO_EXTI_Callback                   0x08000829   Thumb Code    22  driver_irq.o(i.HAL_GPIO_EXTI_Callback)
    HAL_GPIO_EXTI_IRQHandler                 0x08000841   Thumb Code    18  stm32f1xx_hal_gpio.o(i.HAL_GPIO_EXTI_IRQHandler)
    HAL_GPIO_Init                            0x08000859   Thumb Code   446  stm32f1xx_hal_gpio.o(i.HAL_GPIO_Init)
    HAL_GPIO_ReadPin                         0x08000a39   Thumb Code    10  stm32f1xx_hal_gpio.o(i.HAL_GPIO_ReadPin)
    HAL_GPIO_WritePin                        0x08000a43   Thumb Code    10  stm32f1xx_hal_gpio.o(i.HAL_GPIO_WritePin)
    HAL_GetTick                              0x08000a4d   Thumb Code     6  stm32f1xx_hal.o(i.HAL_GetTick)
    HAL_I2C_Init                             0x08000a59   Thumb Code   376  stm32f1xx_hal_i2c.o(i.HAL_I2C_Init)
    HAL_I2C_Master_Transmit                  0x08000be1   Thumb Code   290  stm32f1xx_hal_i2c.o(i.HAL_I2C_Master_Transmit)
    HAL_I2C_Mem_Read                         0x08000d0d   Thumb Code   574  stm32f1xx_hal_i2c.o(i.HAL_I2C_Mem_Read)
    HAL_I2C_Mem_Write                        0x08000f5d   Thumb Code   294  stm32f1xx_hal_i2c.o(i.HAL_I2C_Mem_Write)
    HAL_I2C_MspInit                          0x0800108d   Thumb Code    80  i2c.o(i.HAL_I2C_MspInit)
    HAL_IncTick                              0x080010e9   Thumb Code    12  stm32f1xx_hal.o(i.HAL_IncTick)
    HAL_Init                                 0x080010f9   Thumb Code    32  stm32f1xx_hal.o(i.HAL_Init)
    HAL_InitTick                             0x0800111d   Thumb Code   132  stm32f1xx_hal_timebase_tim.o(i.HAL_InitTick)
    HAL_MspInit                              0x080011b5   Thumb Code    62  stm32f1xx_hal_msp.o(i.HAL_MspInit)
    HAL_NVIC_EnableIRQ                       0x080011fd   Thumb Code    26  stm32f1xx_hal_cortex.o(i.HAL_NVIC_EnableIRQ)
    HAL_NVIC_SetPriority                     0x08001219   Thumb Code    60  stm32f1xx_hal_cortex.o(i.HAL_NVIC_SetPriority)
    HAL_NVIC_SetPriorityGrouping             0x08001259   Thumb Code    26  stm32f1xx_hal_cortex.o(i.HAL_NVIC_SetPriorityGrouping)
    HAL_PCD_Init                             0x0800127d   Thumb Code   218  stm32f1xx_hal_pcd.o(i.HAL_PCD_Init)
    HAL_PCD_MspInit                          0x08001359   Thumb Code    30  usb.o(i.HAL_PCD_MspInit)
    HAL_RCCEx_PeriphCLKConfig                0x08001381   Thumb Code   224  stm32f1xx_hal_rcc_ex.o(i.HAL_RCCEx_PeriphCLKConfig)
    HAL_RCC_ClockConfig                      0x0800146d   Thumb Code   280  stm32f1xx_hal_rcc.o(i.HAL_RCC_ClockConfig)
    HAL_RCC_GetClockConfig                   0x08001599   Thumb Code    54  stm32f1xx_hal_rcc.o(i.HAL_RCC_GetClockConfig)
    HAL_RCC_GetPCLK1Freq                     0x080015d9   Thumb Code    20  stm32f1xx_hal_rcc.o(i.HAL_RCC_GetPCLK1Freq)
    HAL_RCC_GetPCLK2Freq                     0x080015f9   Thumb Code    20  stm32f1xx_hal_rcc.o(i.HAL_RCC_GetPCLK2Freq)
    HAL_RCC_GetSysClockFreq                  0x08001619   Thumb Code    58  stm32f1xx_hal_rcc.o(i.HAL_RCC_GetSysClockFreq)
    HAL_RCC_OscConfig                        0x08001665   Thumb Code   778  stm32f1xx_hal_rcc.o(i.HAL_RCC_OscConfig)
    HAL_SPI_Init                             0x08001985   Thumb Code   178  stm32f1xx_hal_spi.o(i.HAL_SPI_Init)
    HAL_SPI_MspInit                          0x08001a39   Thumb Code    98  spi.o(i.HAL_SPI_MspInit)
    HAL_TIMEx_BreakCallback                  0x08001aa9   Thumb Code     2  stm32f1xx_hal_tim_ex.o(i.HAL_TIMEx_BreakCallback)
    HAL_TIMEx_CommutCallback                 0x08001aab   Thumb Code     2  stm32f1xx_hal_tim_ex.o(i.HAL_TIMEx_CommutCallback)
    HAL_TIMEx_ConfigBreakDeadTime            0x08001aad   Thumb Code    84  stm32f1xx_hal_tim_ex.o(i.HAL_TIMEx_ConfigBreakDeadTime)
    HAL_TIMEx_MasterConfigSynchronization    0x08001b01   Thumb Code    92  stm32f1xx_hal_tim_ex.o(i.HAL_TIMEx_MasterConfigSynchronization)
    HAL_TIM_Base_Init                        0x08001b69   Thumb Code    90  stm32f1xx_hal_tim.o(i.HAL_TIM_Base_Init)
    HAL_TIM_Base_MspInit                     0x08001bc5   Thumb Code    52  tim.o(i.HAL_TIM_Base_MspInit)
    HAL_TIM_Base_Start_IT                    0x08001c01   Thumb Code    76  stm32f1xx_hal_tim.o(i.HAL_TIM_Base_Start_IT)
    HAL_TIM_ConfigClockSource                0x08001c59   Thumb Code   220  stm32f1xx_hal_tim.o(i.HAL_TIM_ConfigClockSource)
    HAL_TIM_IC_CaptureCallback               0x08001d35   Thumb Code     2  stm32f1xx_hal_tim.o(i.HAL_TIM_IC_CaptureCallback)
    HAL_TIM_IRQHandler                       0x08001d37   Thumb Code   358  stm32f1xx_hal_tim.o(i.HAL_TIM_IRQHandler)
    HAL_TIM_MspPostInit                      0x08001e9d   Thumb Code   212  tim.o(i.HAL_TIM_MspPostInit)
    HAL_TIM_OC_DelayElapsedCallback          0x08001f89   Thumb Code     2  stm32f1xx_hal_tim.o(i.HAL_TIM_OC_DelayElapsedCallback)
    HAL_TIM_PWM_ConfigChannel                0x08001f8b   Thumb Code   204  stm32f1xx_hal_tim.o(i.HAL_TIM_PWM_ConfigChannel)
    HAL_TIM_PWM_Init                         0x08002057   Thumb Code    90  stm32f1xx_hal_tim.o(i.HAL_TIM_PWM_Init)
    HAL_TIM_PWM_MspInit                      0x080020b1   Thumb Code    30  tim.o(i.HAL_TIM_PWM_MspInit)
    HAL_TIM_PWM_PulseFinishedCallback        0x080020d9   Thumb Code     2  stm32f1xx_hal_tim.o(i.HAL_TIM_PWM_PulseFinishedCallback)
    HAL_TIM_PeriodElapsedCallback            0x080020dd   Thumb Code    14  main.o(i.HAL_TIM_PeriodElapsedCallback)
    HAL_TIM_TriggerCallback                  0x080020f1   Thumb Code     2  stm32f1xx_hal_tim.o(i.HAL_TIM_TriggerCallback)
    HAL_UART_Init                            0x080020f3   Thumb Code   100  stm32f1xx_hal_uart.o(i.HAL_UART_Init)
    HAL_UART_MspInit                         0x08002159   Thumb Code   100  usart.o(i.HAL_UART_MspInit)
    HardFault_Handler                        0x080021c9   Thumb Code     2  stm32f1xx_it.o(i.HardFault_Handler)
    IRReceiver_IRQ_Callback                  0x080027c9   Thumb Code   162  driver_ir_receiver.o(i.IRReceiver_IRQ_Callback)
    IRReceiver_Init                          0x08002885   Thumb Code    18  driver_ir_receiver.o(i.IRReceiver_Init)
    InputTask                                0x0800289d   Thumb Code   114  game1.o(i.InputTask)
    LCD_Clear                                0x08002915   Thumb Code     4  driver_lcd.o(i.LCD_Clear)
    LCD_Flush                                0x08002919   Thumb Code     4  driver_lcd.o(i.LCD_Flush)
    LCD_FlushRegion                          0x0800291d   Thumb Code     4  driver_lcd.o(i.LCD_FlushRegion)
    LCD_GetFrameBuffer                       0x08002921   Thumb Code     4  driver_lcd.o(i.LCD_GetFrameBuffer)
    LCD_Init                                 0x08002925   Thumb Code     4  driver_lcd.o(i.LCD_Init)
    LCD_PrintString                          0x08002929   Thumb Code     4  driver_lcd.o(i.LCD_PrintString)
    MPU6050_Init                             0x0800292d   Thumb Code    68  driver_mpu6050.o(i.MPU6050_Init)
    MPU6050_ReadData                         0x08002975   Thumb Code   266  driver_mpu6050.o(i.MPU6050_ReadData)
    MPU6050_ReadRegister                     0x08002a81   Thumb Code    28  driver_mpu6050.o(i.MPU6050_ReadRegister)
    MPU_6050_Task                            0x08002ac5   Thumb Code    58  driver_mpu6050.o(i.MPU_6050_Task)
    MX_ADC1_Init                             0x08002b09   Thumb Code    70  adc.o(i.MX_ADC1_Init)
    MX_FREERTOS_Init                         0x08002b59   Thumb Code    54  freertos.o(i.MX_FREERTOS_Init)
    MX_GPIO_Init                             0x08002bad   Thumb Code   310  gpio.o(i.MX_GPIO_Init)
    MX_I2C1_Init                             0x08002cfd   Thumb Code    50  i2c.o(i.MX_I2C1_Init)
    MX_SPI1_Init                             0x08002d3d   Thumb Code    62  spi.o(i.MX_SPI1_Init)
    MX_TIM1_Init                             0x08002d85   Thumb Code   198  tim.o(i.MX_TIM1_Init)
    MX_TIM2_Init                             0x08002e55   Thumb Code   182  tim.o(i.MX_TIM2_Init)
    MX_TIM3_Init                             0x08002f11   Thumb Code   110  tim.o(i.MX_TIM3_Init)
    MX_USART1_UART_Init                      0x08002f89   Thumb Code    48  usart.o(i.MX_USART1_UART_Init)
    MX_USB_PCD_Init                          0x08002fc1   Thumb Code    42  usb.o(i.MX_USB_PCD_Init)
    MemManage_Handler                        0x08002ff5   Thumb Code     2  stm32f1xx_it.o(i.MemManage_Handler)
    NMI_Handler                              0x08002ff7   Thumb Code     2  stm32f1xx_it.o(i.NMI_Handler)
    OLED_Clear                               0x08002ff9   Thumb Code    42  driver_oled.o(i.OLED_Clear)
    OLED_Flush                               0x08003025   Thumb Code    50  driver_oled.o(i.OLED_Flush)
    OLED_FlushRegion                         0x0800305d   Thumb Code    90  driver_oled.o(i.OLED_FlushRegion)
    OLED_GetFrameBuffer                      0x080030bd   Thumb Code    16  driver_oled.o(i.OLED_GetFrameBuffer)
    OLED_Init                                0x080030d1   Thumb Code   142  driver_oled.o(i.OLED_Init)
    OLED_PrintString                         0x08003165   Thumb Code    50  driver_oled.o(i.OLED_PrintString)
    OLED_PutChar                             0x08003199   Thumb Code    66  driver_oled.o(i.OLED_PutChar)
    OLED_SetPosition                         0x0800320d   Thumb Code    58  driver_oled.o(i.OLED_SetPosition)
    RotaryEncoder_IRQ_Callback               0x08003349   Thumb Code   116  driver_rotary_encoder.o(i.RotaryEncoder_IRQ_Callback)
    RotaryEncoder_Init                       0x080033c9   Thumb Code    26  driver_rotary_encoder.o(i.RotaryEncoder_Init)
    SysTick_Handler                          0x080033ed   Thumb Code    38  port.o(i.SysTick_Handler)
    SystemClock_Config                       0x08003419   Thumb Code   124  main.o(i.SystemClock_Config)
    SystemInit                               0x08003495   Thumb Code     2  system_stm32f1xx.o(i.SystemInit)
    TIM4_IRQHandler                          0x08003499   Thumb Code     6  stm32f1xx_it.o(i.TIM4_IRQHandler)
    TIM_Base_SetConfig                       0x080034a5   Thumb Code    94  stm32f1xx_hal_tim.o(i.TIM_Base_SetConfig)
    TIM_ETR_SetConfig                        0x08003511   Thumb Code    20  stm32f1xx_hal_tim.o(i.TIM_ETR_SetConfig)
    TIM_OC2_SetConfig                        0x08003585   Thumb Code    84  stm32f1xx_hal_tim.o(i.TIM_OC2_SetConfig)
    USB_CoreInit                             0x08003779   Thumb Code     4  stm32f1xx_ll_usb.o(i.USB_CoreInit)
    USB_DevDisconnect                        0x0800377d   Thumb Code     4  stm32f1xx_ll_usb.o(i.USB_DevDisconnect)
    USB_DevInit                              0x08003781   Thumb Code    18  stm32f1xx_ll_usb.o(i.USB_DevInit)
    USB_DisableGlobalInt                     0x08003793   Thumb Code    14  stm32f1xx_ll_usb.o(i.USB_DisableGlobalInt)
    USB_SetCurrentMode                       0x080037a1   Thumb Code     4  stm32f1xx_ll_usb.o(i.USB_SetCurrentMode)
    UsageFault_Handler                       0x080037a5   Thumb Code     2  stm32f1xx_it.o(i.UsageFault_Handler)
    __0sprintf$3                             0x080037a9   Thumb Code    34  printf3.o(i.__0sprintf$3)
    __1sprintf$3                             0x080037a9   Thumb Code     0  printf3.o(i.__0sprintf$3)
    __2sprintf                               0x080037a9   Thumb Code     0  printf3.o(i.__0sprintf$3)
    __scatterload_copy                       0x080037f1   Thumb Code    14  handlers.o(i.__scatterload_copy)
    __scatterload_null                       0x080037ff   Thumb Code     2  handlers.o(i.__scatterload_null)
    __scatterload_zeroinit                   0x08003801   Thumb Code    14  handlers.o(i.__scatterload_zeroinit)
    draw_bitmap                              0x080039d5   Thumb Code   458  draw.o(i.draw_bitmap)
    draw_end                                 0x08003ba5   Thumb Code     4  draw.o(i.draw_end)
    draw_flushArea                           0x08003ba9   Thumb Code    24  draw.o(i.draw_flushArea)
    draw_init                                0x08003bc5   Thumb Code    20  draw.o(i.draw_init)
    draw_string                              0x08003bdd   Thumb Code   166  draw.o(i.draw_string)
    draw_string_P                            0x08003c8d   Thumb Code    54  draw.o(i.draw_string_P)
    free                                     0x08003cc5   Thumb Code    76  malloc.o(i.free)
    game1_draw                               0x08003d15   Thumb Code   862  game1.o(i.game1_draw)
    game1_task                               0x080040a1   Thumb Code   220  game1.o(i.game1_task)
    main                                     0x080041bd   Thumb Code    58  main.o(i.main)
    malloc                                   0x080041f9   Thumb Code    92  malloc.o(i.malloc)
    mdelay                                   0x08004265   Thumb Code    26  driver_timer.o(i.mdelay)
    osKernelInitialize                       0x08004281   Thumb Code    50  cmsis_os2.o(i.osKernelInitialize)
    osKernelStart                            0x080042b9   Thumb Code    58  cmsis_os2.o(i.osKernelStart)
    pvPortMalloc                             0x08004b81   Thumb Code   210  heap_4.o(i.pvPortMalloc)
    pxPortInitialiseStack                    0x08004c59   Thumb Code    32  port.o(i.pxPortInitialiseStack)
    system_get_ns                            0x08004cb9   Thumb Code    58  driver_timer.o(i.system_get_ns)
    udelay                                   0x08004cfd   Thumb Code    52  driver_timer.o(i.udelay)
    uxListRemove                             0x08004d35   Thumb Code    38  list.o(i.uxListRemove)
    vApplicationGetIdleTaskMemory            0x08004d5d   Thumb Code    16  cmsis_os2.o(i.vApplicationGetIdleTaskMemory)
    vApplicationGetTimerTaskMemory           0x08004d71   Thumb Code    18  cmsis_os2.o(i.vApplicationGetTimerTaskMemory)
    vListInitialise                          0x08004d89   Thumb Code    22  list.o(i.vListInitialise)
    vListInitialiseItem                      0x08004d9f   Thumb Code     6  list.o(i.vListInitialiseItem)
    vListInsert                              0x08004da5   Thumb Code    48  list.o(i.vListInsert)
    vListInsertEnd                           0x08004dd5   Thumb Code    24  list.o(i.vListInsertEnd)
    vPortEnterCritical                       0x08004ded   Thumb Code    54  port.o(i.vPortEnterCritical)
    vPortExitCritical                        0x08004e2d   Thumb Code    34  port.o(i.vPortExitCritical)
    vPortFree                                0x08004e55   Thumb Code    88  heap_4.o(i.vPortFree)
    vPortSetupTimerInterrupt                 0x08004eb1   Thumb Code    32  port.o(i.vPortSetupTimerInterrupt)
    vPortValidateInterruptPriority           0x08004ed5   Thumb Code    74  port.o(i.vPortValidateInterruptPriority)
    vQueueAddToRegistry                      0x08004f29   Thumb Code    34  queue.o(i.vQueueAddToRegistry)
    vQueueWaitForMessageRestricted           0x08004f51   Thumb Code    68  queue.o(i.vQueueWaitForMessageRestricted)
    vTaskDelay                               0x08004f95   Thumb Code    66  tasks.o(i.vTaskDelay)
    vTaskInternalSetTimeOutState             0x08004fe1   Thumb Code    12  tasks.o(i.vTaskInternalSetTimeOutState)
    vTaskMissedYield                         0x08004ff1   Thumb Code     8  tasks.o(i.vTaskMissedYield)
    vTaskPlaceOnEventList                    0x08004ffd   Thumb Code    44  tasks.o(i.vTaskPlaceOnEventList)
    vTaskPlaceOnEventListRestricted          0x0800502d   Thumb Code    52  tasks.o(i.vTaskPlaceOnEventListRestricted)
    vTaskStartScheduler                      0x08005065   Thumb Code   118  tasks.o(i.vTaskStartScheduler)
    vTaskSuspendAll                          0x080050ed   Thumb Code    10  tasks.o(i.vTaskSuspendAll)
    vTaskSwitchContext                       0x080050fd   Thumb Code    90  tasks.o(i.vTaskSwitchContext)
    xPortStartScheduler                      0x08005161   Thumb Code   154  port.o(i.xPortStartScheduler)
    xQueueAddToSet                           0x08005209   Thumb Code    34  queue.o(i.xQueueAddToSet)
    xQueueCreateSet                          0x0800522b   Thumb Code     8  queue.o(i.xQueueCreateSet)
    xQueueGenericCreate                      0x08005233   Thumb Code    72  queue.o(i.xQueueGenericCreate)
    xQueueGenericCreateStatic                0x0800527b   Thumb Code   102  queue.o(i.xQueueGenericCreateStatic)
    xQueueGenericReset                       0x080052e1   Thumb Code   132  queue.o(i.xQueueGenericReset)
    xQueueGenericSend                        0x08005369   Thumb Code   360  queue.o(i.xQueueGenericSend)
    xQueueGenericSendFromISR                 0x080054d5   Thumb Code   202  queue.o(i.xQueueGenericSendFromISR)
    xQueueReceive                            0x080055a1   Thumb Code   308  queue.o(i.xQueueReceive)
    xQueueSelectFromSet                      0x080056d9   Thumb Code    18  queue.o(i.xQueueSelectFromSet)
    xTaskCheckForTimeOut                     0x080056ed   Thumb Code   112  tasks.o(i.xTaskCheckForTimeOut)
    xTaskCreate                              0x08005761   Thumb Code    90  tasks.o(i.xTaskCreate)
    xTaskCreateStatic                        0x080057bb   Thumb Code    86  tasks.o(i.xTaskCreateStatic)
    xTaskGetSchedulerState                   0x08005811   Thumb Code    22  tasks.o(i.xTaskGetSchedulerState)
    xTaskGetTickCount                        0x0800582d   Thumb Code     6  tasks.o(i.xTaskGetTickCount)
    xTaskIncrementTick                       0x08005839   Thumb Code   190  tasks.o(i.xTaskIncrementTick)
    xTaskPriorityDisinherit                  0x08005901   Thumb Code   118  tasks.o(i.xTaskPriorityDisinherit)
    xTaskRemoveFromEventList                 0x08005981   Thumb Code    98  tasks.o(i.xTaskRemoveFromEventList)
    xTaskResumeAll                           0x080059f1   Thumb Code   182  tasks.o(i.xTaskResumeAll)
    xTimerCreateTimerTask                    0x08005ab5   Thumb Code    78  timers.o(i.xTimerCreateTimerTask)
    xTimerGenericCommand                     0x08005b15   Thumb Code    98  timers.o(i.xTimerGenericCommand)
    AHBPrescTable                            0x08005b8e   Data          16  system_stm32f1xx.o(.constdata)
    APBPrescTable                            0x08005b9e   Data           8  system_stm32f1xx.o(.constdata)
    ascii_font                               0x08005ba6   Data        2048  driver_oled.o(.constdata)
    livesImg                                 0x080063c3   Data           7  resources.o(.constdata)
    smallFont                                0x080063ca   Data         485  resources.o(.constdata)
    Region$$Table$$Base                      0x080065b0   Number         0  anon$$obj.o(Region$$Table)
    Region$$Table$$Limit                     0x080065d0   Number         0  anon$$obj.o(Region$$Table)
    uwTickFreq                               0x20000000   Data           1  stm32f1xx_hal.o(.data)
    uwTickPrio                               0x20000004   Data           4  stm32f1xx_hal.o(.data)
    uwTick                                   0x20000008   Data           4  stm32f1xx_hal.o(.data)
    SystemCoreClock                          0x2000000c   Data           4  system_stm32f1xx.o(.data)
    pxCurrentTCB                             0x20000010   Data           4  tasks.o(.data)
    bInUsed                                  0x200000c8   Data           4  draw.o(.data)
    __microlib_freelist                      0x20000128   Data           4  mvars.o(.data)
    __microlib_freelist_initialised          0x2000012c   Data           4  mvars.o(.data)
    hadc1                                    0x20000130   Data          48  adc.o(.bss)
    hi2c1                                    0x20000160   Data          84  i2c.o(.bss)
    hspi1                                    0x200001b4   Data          88  spi.o(.bss)
    htim1                                    0x2000020c   Data          72  tim.o(.bss)
    htim2                                    0x20000254   Data          72  tim.o(.bss)
    htim3                                    0x2000029c   Data          72  tim.o(.bss)
    huart1                                   0x200002e4   Data          72  usart.o(.bss)
    hpcd_USB_FS                              0x2000032c   Data         752  usb.o(.bss)
    htim4                                    0x2000061c   Data          72  stm32f1xx_hal_timebase_tim.o(.bss)
    xQueueRegistry                           0x20000664   Data          64  queue.o(.bss)
    __heap_base                              0x200039d8   Data           0  startup_stm32f103xb.o(HEAP)
    __heap_limit                             0x20003bd8   Data           0  startup_stm32f103xb.o(HEAP)
    __initial_sp                             0x20003fd8   Data           0  startup_stm32f103xb.o(STACK)



==============================================================================

Memory Map of the image

  Image Entry point : 0x080000ed

  Load Region LR_IROM1 (Base: 0x08000000, Size: 0x00006700, Max: 0x00010000, ABSOLUTE, COMPRESSED[0x000065ec])

    Execution Region ER_IROM1 (Exec base: 0x08000000, Load base: 0x08000000, Size: 0x000065d0, Max: 0x00010000, ABSOLUTE)

    Exec Addr    Load Addr    Size         Type   Attr      Idx    E Section Name        Object

    0x08000000   0x08000000   0x000000ec   Data   RO            3    RESET               startup_stm32f103xb.o
    0x080000ec   0x080000ec   0x00000000   Code   RO         7778  * .ARM.Collect$$$$00000000  mc_w.l(entry.o)
    0x080000ec   0x080000ec   0x00000004   Code   RO         8111    .ARM.Collect$$$$00000001  mc_w.l(entry2.o)
    0x080000f0   0x080000f0   0x00000004   Code   RO         8114    .ARM.Collect$$$$00000004  mc_w.l(entry5.o)
    0x080000f4   0x080000f4   0x00000000   Code   RO         8116    .ARM.Collect$$$$00000008  mc_w.l(entry7b.o)
    0x080000f4   0x080000f4   0x00000000   Code   RO         8118    .ARM.Collect$$$$0000000A  mc_w.l(entry8b.o)
    0x080000f4   0x080000f4   0x00000008   Code   RO         8119    .ARM.Collect$$$$0000000B  mc_w.l(entry9a.o)
    0x080000fc   0x080000fc   0x00000000   Code   RO         8121    .ARM.Collect$$$$0000000D  mc_w.l(entry10a.o)
    0x080000fc   0x080000fc   0x00000000   Code   RO         8123    .ARM.Collect$$$$0000000F  mc_w.l(entry11a.o)
    0x080000fc   0x080000fc   0x00000004   Code   RO         8112    .ARM.Collect$$$$00002712  mc_w.l(entry2.o)
    0x08000100   0x08000100   0x00000096   Code   RO         6350    .emb_text           port.o
    0x08000196   0x08000196   0x00000002   PAD
    0x08000198   0x08000198   0x00000024   Code   RO            4    .text               startup_stm32f103xb.o
    0x080001bc   0x080001bc   0x00000062   Code   RO         7781    .text               mc_w.l(uldiv.o)
    0x0800021e   0x0800021e   0x00000020   Code   RO         7783    .text               mc_w.l(llushr.o)
    0x0800023e   0x0800023e   0x00000002   PAD
    0x08000240   0x08000240   0x00000024   Code   RO         7785    .text               mc_w.l(rand.o)
    0x08000264   0x08000264   0x00000024   Code   RO         7788    .text               mc_w.l(memcpya.o)
    0x08000288   0x08000288   0x00000024   Code   RO         7792    .text               mc_w.l(memseta.o)
    0x080002ac   0x080002ac   0x0000000e   Code   RO         7794    .text               mc_w.l(strlen.o)
    0x080002ba   0x080002ba   0x00000012   Code   RO         7796    .text               mc_w.l(strcpy.o)
    0x080002cc   0x080002cc   0x000000b0   Code   RO         8089    .text               mf_w.l(fadd.o)
    0x0800037c   0x0800037c   0x00000018   Code   RO         8091    .text               mf_w.l(fscalb.o)
    0x08000394   0x08000394   0x00000012   Code   RO         8097    .text               mf_w.l(fflti.o)
    0x080003a6   0x080003a6   0x0000000a   Code   RO         8099    .text               mf_w.l(ffltui.o)
    0x080003b0   0x080003b0   0x00000028   Code   RO         8103    .text               mf_w.l(ffixui.o)
    0x080003d8   0x080003d8   0x00000014   Code   RO         8107    .text               mf_w.l(cfcmple.o)
    0x080003ec   0x080003ec   0x00000014   Code   RO         8109    .text               mf_w.l(cfrcmple.o)
    0x08000400   0x08000400   0x0000002c   Code   RO         8126    .text               mc_w.l(uidiv.o)
    0x0800042c   0x0800042c   0x0000001e   Code   RO         8128    .text               mc_w.l(llshl.o)
    0x0800044a   0x0800044a   0x00000000   Code   RO         8134    .text               mc_w.l(iusefp.o)
    0x0800044a   0x0800044a   0x0000006e   Code   RO         8135    .text               mf_w.l(fepilogue.o)
    0x080004b8   0x080004b8   0x00000024   Code   RO         8145    .text               mc_w.l(init.o)
    0x080004dc   0x080004dc   0x0000003a   Code   RO         8155    .text               mc_w.l(__dczerorl.o)
    0x08000516   0x08000516   0x00000002   PAD
    0x08000518   0x08000518   0x00000056   Code   RO          928    i.ADC_ConversionStop_Disable  stm32f1xx_hal_adc.o
    0x0800056e   0x0800056e   0x00000002   Code   RO          759    i.BusFault_Handler  stm32f1xx_it.o
    0x08000570   0x08000570   0x00000002   Code   RO          760    i.DebugMon_Handler  stm32f1xx_it.o
    0x08000572   0x08000572   0x0000001e   Code   RO          761    i.EXTI15_10_IRQHandler  stm32f1xx_it.o
    0x08000590   0x08000590   0x00000004   Code   RO           75    i.Error_Handler     main.o
    0x08000594   0x08000594   0x0000000c   Code   RO         7057    i.GetQueueIR        driver_ir_receiver.o
    0x080005a0   0x080005a0   0x0000000c   Code   RO         6594    i.GetQueueMPU6050   driver_mpu6050.o
    0x080005ac   0x080005ac   0x0000000c   Code   RO         7370    i.GetQueueRotary    driver_rotary_encoder.o
    0x080005b8   0x080005b8   0x000000fc   Code   RO          934    i.HAL_ADC_ConfigChannel  stm32f1xx_hal_adc.o
    0x080006b4   0x080006b4   0x0000011c   Code   RO          943    i.HAL_ADC_Init      stm32f1xx_hal_adc.o
    0x080007d0   0x080007d0   0x00000058   Code   RO          478    i.HAL_ADC_MspInit   adc.o
    0x08000828   0x08000828   0x00000016   Code   RO         7424    i.HAL_GPIO_EXTI_Callback  driver_irq.o
    0x0800083e   0x0800083e   0x00000002   PAD
    0x08000840   0x08000840   0x00000018   Code   RO         1520    i.HAL_GPIO_EXTI_IRQHandler  stm32f1xx_hal_gpio.o
    0x08000858   0x08000858   0x000001e0   Code   RO         1521    i.HAL_GPIO_Init     stm32f1xx_hal_gpio.o
    0x08000a38   0x08000a38   0x0000000a   Code   RO         1523    i.HAL_GPIO_ReadPin  stm32f1xx_hal_gpio.o
    0x08000a42   0x08000a42   0x0000000a   Code   RO         1525    i.HAL_GPIO_WritePin  stm32f1xx_hal_gpio.o
    0x08000a4c   0x08000a4c   0x0000000c   Code   RO         1215    i.HAL_GetTick       stm32f1xx_hal.o
    0x08000a58   0x08000a58   0x00000188   Code   RO         2192    i.HAL_I2C_Init      stm32f1xx_hal_i2c.o
    0x08000be0   0x08000be0   0x0000012c   Code   RO         2205    i.HAL_I2C_Master_Transmit  stm32f1xx_hal_i2c.o
    0x08000d0c   0x08000d0c   0x00000250   Code   RO         2210    i.HAL_I2C_Mem_Read  stm32f1xx_hal_i2c.o
    0x08000f5c   0x08000f5c   0x00000130   Code   RO         2213    i.HAL_I2C_Mem_Write  stm32f1xx_hal_i2c.o
    0x0800108c   0x0800108c   0x0000005c   Code   RO          520    i.HAL_I2C_MspInit   i2c.o
    0x080010e8   0x080010e8   0x00000010   Code   RO         1221    i.HAL_IncTick       stm32f1xx_hal.o
    0x080010f8   0x080010f8   0x00000024   Code   RO         1222    i.HAL_Init          stm32f1xx_hal.o
    0x0800111c   0x0800111c   0x00000098   Code   RO          853    i.HAL_InitTick      stm32f1xx_hal_timebase_tim.o
    0x080011b4   0x080011b4   0x00000048   Code   RO          829    i.HAL_MspInit       stm32f1xx_hal_msp.o
    0x080011fc   0x080011fc   0x0000001a   Code   RO         1681    i.HAL_NVIC_EnableIRQ  stm32f1xx_hal_cortex.o
    0x08001216   0x08001216   0x00000002   PAD
    0x08001218   0x08001218   0x00000040   Code   RO         1687    i.HAL_NVIC_SetPriority  stm32f1xx_hal_cortex.o
    0x08001258   0x08001258   0x00000024   Code   RO         1688    i.HAL_NVIC_SetPriorityGrouping  stm32f1xx_hal_cortex.o
    0x0800127c   0x0800127c   0x000000da   Code   RO         4300    i.HAL_PCD_Init      stm32f1xx_hal_pcd.o
    0x08001356   0x08001356   0x00000002   PAD
    0x08001358   0x08001358   0x00000028   Code   RO          718    i.HAL_PCD_MspInit   usb.o
    0x08001380   0x08001380   0x000000ec   Code   RO         1483    i.HAL_RCCEx_PeriphCLKConfig  stm32f1xx_hal_rcc_ex.o
    0x0800146c   0x0800146c   0x0000012c   Code   RO         1379    i.HAL_RCC_ClockConfig  stm32f1xx_hal_rcc.o
    0x08001598   0x08001598   0x00000040   Code   RO         1383    i.HAL_RCC_GetClockConfig  stm32f1xx_hal_rcc.o
    0x080015d8   0x080015d8   0x00000020   Code   RO         1386    i.HAL_RCC_GetPCLK1Freq  stm32f1xx_hal_rcc.o
    0x080015f8   0x080015f8   0x00000020   Code   RO         1387    i.HAL_RCC_GetPCLK2Freq  stm32f1xx_hal_rcc.o
    0x08001618   0x08001618   0x0000004c   Code   RO         1388    i.HAL_RCC_GetSysClockFreq  stm32f1xx_hal_rcc.o
    0x08001664   0x08001664   0x00000320   Code   RO         1391    i.HAL_RCC_OscConfig  stm32f1xx_hal_rcc.o
    0x08001984   0x08001984   0x000000b2   Code   RO         2629    i.HAL_SPI_Init      stm32f1xx_hal_spi.o
    0x08001a36   0x08001a36   0x00000002   PAD
    0x08001a38   0x08001a38   0x00000070   Code   RO          562    i.HAL_SPI_MspInit   spi.o
    0x08001aa8   0x08001aa8   0x00000002   Code   RO         3646    i.HAL_TIMEx_BreakCallback  stm32f1xx_hal_tim_ex.o
    0x08001aaa   0x08001aaa   0x00000002   Code   RO         3647    i.HAL_TIMEx_CommutCallback  stm32f1xx_hal_tim_ex.o
    0x08001aac   0x08001aac   0x00000054   Code   RO         3649    i.HAL_TIMEx_ConfigBreakDeadTime  stm32f1xx_hal_tim_ex.o
    0x08001b00   0x08001b00   0x00000068   Code   RO         3665    i.HAL_TIMEx_MasterConfigSynchronization  stm32f1xx_hal_tim_ex.o
    0x08001b68   0x08001b68   0x0000005a   Code   RO         2942    i.HAL_TIM_Base_Init  stm32f1xx_hal_tim.o
    0x08001bc2   0x08001bc2   0x00000002   PAD
    0x08001bc4   0x08001bc4   0x0000003c   Code   RO          604    i.HAL_TIM_Base_MspInit  tim.o
    0x08001c00   0x08001c00   0x00000058   Code   RO         2947    i.HAL_TIM_Base_Start_IT  stm32f1xx_hal_tim.o
    0x08001c58   0x08001c58   0x000000dc   Code   RO         2951    i.HAL_TIM_ConfigClockSource  stm32f1xx_hal_tim.o
    0x08001d34   0x08001d34   0x00000002   Code   RO         2976    i.HAL_TIM_IC_CaptureCallback  stm32f1xx_hal_tim.o
    0x08001d36   0x08001d36   0x00000166   Code   RO         2990    i.HAL_TIM_IRQHandler  stm32f1xx_hal_tim.o
    0x08001e9c   0x08001e9c   0x000000ec   Code   RO          605    i.HAL_TIM_MspPostInit  tim.o
    0x08001f88   0x08001f88   0x00000002   Code   RO         2993    i.HAL_TIM_OC_DelayElapsedCallback  stm32f1xx_hal_tim.o
    0x08001f8a   0x08001f8a   0x000000cc   Code   RO         3014    i.HAL_TIM_PWM_ConfigChannel  stm32f1xx_hal_tim.o
    0x08002056   0x08002056   0x0000005a   Code   RO         3017    i.HAL_TIM_PWM_Init  stm32f1xx_hal_tim.o
    0x080020b0   0x080020b0   0x00000028   Code   RO          607    i.HAL_TIM_PWM_MspInit  tim.o
    0x080020d8   0x080020d8   0x00000002   Code   RO         3020    i.HAL_TIM_PWM_PulseFinishedCallback  stm32f1xx_hal_tim.o
    0x080020da   0x080020da   0x00000002   PAD
    0x080020dc   0x080020dc   0x00000014   Code   RO           76    i.HAL_TIM_PeriodElapsedCallback  main.o
    0x080020f0   0x080020f0   0x00000002   Code   RO         3033    i.HAL_TIM_TriggerCallback  stm32f1xx_hal_tim.o
    0x080020f2   0x080020f2   0x00000064   Code   RO         3943    i.HAL_UART_Init     stm32f1xx_hal_uart.o
    0x08002156   0x08002156   0x00000002   PAD
    0x08002158   0x08002158   0x00000070   Code   RO          676    i.HAL_UART_MspInit  usart.o
    0x080021c8   0x080021c8   0x00000002   Code   RO          762    i.HardFault_Handler  stm32f1xx_it.o
    0x080021ca   0x080021ca   0x0000002e   Code   RO         2235    i.I2C_IsAcknowledgeFailed  stm32f1xx_hal_i2c.o
    0x080021f8   0x080021f8   0x0000009c   Code   RO         2239    i.I2C_MasterRequestWrite  stm32f1xx_hal_i2c.o
    0x08002294   0x08002294   0x000000fc   Code   RO         2245    i.I2C_RequestMemoryRead  stm32f1xx_hal_i2c.o
    0x08002390   0x08002390   0x000000a8   Code   RO         2246    i.I2C_RequestMemoryWrite  stm32f1xx_hal_i2c.o
    0x08002438   0x08002438   0x00000056   Code   RO         2250    i.I2C_WaitOnBTFFlagUntilTimeout  stm32f1xx_hal_i2c.o
    0x0800248e   0x0800248e   0x00000002   PAD
    0x08002490   0x08002490   0x00000090   Code   RO         2251    i.I2C_WaitOnFlagUntilTimeout  stm32f1xx_hal_i2c.o
    0x08002520   0x08002520   0x000000bc   Code   RO         2252    i.I2C_WaitOnMasterAddressFlagUntilTimeout  stm32f1xx_hal_i2c.o
    0x080025dc   0x080025dc   0x00000070   Code   RO         2253    i.I2C_WaitOnRXNEFlagUntilTimeout  stm32f1xx_hal_i2c.o
    0x0800264c   0x0800264c   0x00000056   Code   RO         2254    i.I2C_WaitOnTXEFlagUntilTimeout  stm32f1xx_hal_i2c.o
    0x080026a2   0x080026a2   0x00000002   PAD
    0x080026a4   0x080026a4   0x00000124   Code   RO         7059    i.IRReceiver_IRQTimes_Parse  driver_ir_receiver.o
    0x080027c8   0x080027c8   0x000000bc   Code   RO         7060    i.IRReceiver_IRQ_Callback  driver_ir_receiver.o
    0x08002884   0x08002884   0x00000018   Code   RO         7061    i.IRReceiver_Init   driver_ir_receiver.o
    0x0800289c   0x0800289c   0x00000078   Code   RO         7669    i.InputTask         game1.o
    0x08002914   0x08002914   0x00000004   Code   RO         6786    i.LCD_Clear         driver_lcd.o
    0x08002918   0x08002918   0x00000004   Code   RO         6789    i.LCD_Flush         driver_lcd.o
    0x0800291c   0x0800291c   0x00000004   Code   RO         6790    i.LCD_FlushRegion   driver_lcd.o
    0x08002920   0x08002920   0x00000004   Code   RO         6791    i.LCD_GetFrameBuffer  driver_lcd.o
    0x08002924   0x08002924   0x00000004   Code   RO         6792    i.LCD_Init          driver_lcd.o
    0x08002928   0x08002928   0x00000004   Code   RO         6795    i.LCD_PrintString   driver_lcd.o
    0x0800292c   0x0800292c   0x00000048   Code   RO         6596    i.MPU6050_Init      driver_mpu6050.o
    0x08002974   0x08002974   0x0000010a   Code   RO         6597    i.MPU6050_ReadData  driver_mpu6050.o
    0x08002a7e   0x08002a7e   0x00000002   PAD
    0x08002a80   0x08002a80   0x00000020   Code   RO         6598    i.MPU6050_ReadRegister  driver_mpu6050.o
    0x08002aa0   0x08002aa0   0x00000024   Code   RO         6600    i.MPU6050_WriteRegister  driver_mpu6050.o
    0x08002ac4   0x08002ac4   0x00000044   Code   RO         6601    i.MPU_6050_Task     driver_mpu6050.o
    0x08002b08   0x08002b08   0x00000050   Code   RO          479    i.MX_ADC1_Init      adc.o
    0x08002b58   0x08002b58   0x00000054   Code   RO          384    i.MX_FREERTOS_Init  freertos.o
    0x08002bac   0x08002bac   0x00000150   Code   RO          255    i.MX_GPIO_Init      gpio.o
    0x08002cfc   0x08002cfc   0x00000040   Code   RO          521    i.MX_I2C1_Init      i2c.o
    0x08002d3c   0x08002d3c   0x00000048   Code   RO          563    i.MX_SPI1_Init      spi.o
    0x08002d84   0x08002d84   0x000000d0   Code   RO          608    i.MX_TIM1_Init      tim.o
    0x08002e54   0x08002e54   0x000000bc   Code   RO          609    i.MX_TIM2_Init      tim.o
    0x08002f10   0x08002f10   0x00000078   Code   RO          610    i.MX_TIM3_Init      tim.o
    0x08002f88   0x08002f88   0x00000038   Code   RO          677    i.MX_USART1_UART_Init  usart.o
    0x08002fc0   0x08002fc0   0x00000034   Code   RO          719    i.MX_USB_PCD_Init   usb.o
    0x08002ff4   0x08002ff4   0x00000002   Code   RO          763    i.MemManage_Handler  stm32f1xx_it.o
    0x08002ff6   0x08002ff6   0x00000002   Code   RO          764    i.NMI_Handler       stm32f1xx_it.o
    0x08002ff8   0x08002ff8   0x0000002a   Code   RO         6472    i.OLED_Clear        driver_oled.o
    0x08003022   0x08003022   0x00000002   PAD
    0x08003024   0x08003024   0x00000038   Code   RO         6475    i.OLED_Flush        driver_oled.o
    0x0800305c   0x0800305c   0x00000060   Code   RO         6476    i.OLED_FlushRegion  driver_oled.o
    0x080030bc   0x080030bc   0x00000014   Code   RO         6477    i.OLED_GetFrameBuffer  driver_oled.o
    0x080030d0   0x080030d0   0x00000094   Code   RO         6478    i.OLED_Init         driver_oled.o
    0x08003164   0x08003164   0x00000032   Code   RO         6481    i.OLED_PrintString  driver_oled.o
    0x08003196   0x08003196   0x00000002   PAD
    0x08003198   0x08003198   0x00000048   Code   RO         6482    i.OLED_PutChar      driver_oled.o
    0x080031e0   0x080031e0   0x0000002c   Code   RO         6483    i.OLED_SetComConfig  driver_oled.o
    0x0800320c   0x0800320c   0x00000040   Code   RO         6484    i.OLED_SetPosition  driver_oled.o
    0x0800324c   0x0800324c   0x00000028   Code   RO         6486    i.OLED_WriteCmd     driver_oled.o
    0x08003274   0x08003274   0x00000020   Code   RO         6487    i.OLED_WriteNBytes  driver_oled.o
    0x08003294   0x08003294   0x0000004c   Code   RO         7670    i.ProcessIRData     game1.o
    0x080032e0   0x080032e0   0x00000068   Code   RO         7671    i.ProcessRotaryData  game1.o
    0x08003348   0x08003348   0x00000080   Code   RO         7371    i.RotaryEncoder_IRQ_Callback  driver_rotary_encoder.o
    0x080033c8   0x080033c8   0x00000024   Code   RO         7372    i.RotaryEncoder_Init  driver_rotary_encoder.o
    0x080033ec   0x080033ec   0x0000002c   Code   RO         6351    i.SysTick_Handler   port.o
    0x08003418   0x08003418   0x0000007c   Code   RO           77    i.SystemClock_Config  main.o
    0x08003494   0x08003494   0x00000002   Code   RO         4742    i.SystemInit        system_stm32f1xx.o
    0x08003496   0x08003496   0x00000002   PAD
    0x08003498   0x08003498   0x0000000c   Code   RO          765    i.TIM4_IRQHandler   stm32f1xx_it.o
    0x080034a4   0x080034a4   0x0000006c   Code   RO         3035    i.TIM_Base_SetConfig  stm32f1xx_hal_tim.o
    0x08003510   0x08003510   0x00000014   Code   RO         3046    i.TIM_ETR_SetConfig  stm32f1xx_hal_tim.o
    0x08003524   0x08003524   0x00000010   Code   RO         3047    i.TIM_ITRx_SetConfig  stm32f1xx_hal_tim.o
    0x08003534   0x08003534   0x00000050   Code   RO         3048    i.TIM_OC1_SetConfig  stm32f1xx_hal_tim.o
    0x08003584   0x08003584   0x00000058   Code   RO         3049    i.TIM_OC2_SetConfig  stm32f1xx_hal_tim.o
    0x080035dc   0x080035dc   0x00000058   Code   RO         3050    i.TIM_OC3_SetConfig  stm32f1xx_hal_tim.o
    0x08003634   0x08003634   0x00000044   Code   RO         3051    i.TIM_OC4_SetConfig  stm32f1xx_hal_tim.o
    0x08003678   0x08003678   0x00000022   Code   RO         3053    i.TIM_TI1_ConfigInputStage  stm32f1xx_hal_tim.o
    0x0800369a   0x0800369a   0x00000024   Code   RO         3055    i.TIM_TI2_ConfigInputStage  stm32f1xx_hal_tim.o
    0x080036be   0x080036be   0x00000002   PAD
    0x080036c0   0x080036c0   0x000000b8   Code   RO         3969    i.UART_SetConfig    stm32f1xx_hal_uart.o
    0x08003778   0x08003778   0x00000004   Code   RO         4558    i.USB_CoreInit      stm32f1xx_ll_usb.o
    0x0800377c   0x0800377c   0x00000004   Code   RO         4562    i.USB_DevDisconnect  stm32f1xx_ll_usb.o
    0x08003780   0x08003780   0x00000012   Code   RO         4563    i.USB_DevInit       stm32f1xx_ll_usb.o
    0x08003792   0x08003792   0x0000000e   Code   RO         4564    i.USB_DisableGlobalInt  stm32f1xx_ll_usb.o
    0x080037a0   0x080037a0   0x00000004   Code   RO         4579    i.USB_SetCurrentMode  stm32f1xx_ll_usb.o
    0x080037a4   0x080037a4   0x00000002   Code   RO          766    i.UsageFault_Handler  stm32f1xx_it.o
    0x080037a6   0x080037a6   0x00000002   PAD
    0x080037a8   0x080037a8   0x00000028   Code   RO         7891    i.__0sprintf$3      mc_w.l(printf3.o)
    0x080037d0   0x080037d0   0x00000020   Code   RO         1694    i.__NVIC_SetPriority  stm32f1xx_hal_cortex.o
    0x080037f0   0x080037f0   0x0000000e   Code   RO         8149    i.__scatterload_copy  mc_w.l(handlers.o)
    0x080037fe   0x080037fe   0x00000002   Code   RO         8150    i.__scatterload_null  mc_w.l(handlers.o)
    0x08003800   0x08003800   0x0000000e   Code   RO         8151    i.__scatterload_zeroinit  mc_w.l(handlers.o)
    0x0800380e   0x0800380e   0x00000002   PAD
    0x08003810   0x08003810   0x000001b8   Code   RO         7896    i._printf_core      mc_w.l(printf3.o)
    0x080039c8   0x080039c8   0x0000000a   Code   RO         7898    i._sputc            mc_w.l(printf3.o)
    0x080039d2   0x080039d2   0x00000002   PAD
    0x080039d4   0x080039d4   0x000001d0   Code   RO         7584    i.draw_bitmap       draw.o
    0x08003ba4   0x08003ba4   0x00000004   Code   RO         7586    i.draw_end          draw.o
    0x08003ba8   0x08003ba8   0x0000001c   Code   RO         7587    i.draw_flushArea    draw.o
    0x08003bc4   0x08003bc4   0x00000018   Code   RO         7588    i.draw_init         draw.o
    0x08003bdc   0x08003bdc   0x000000b0   Code   RO         7589    i.draw_string       draw.o
    0x08003c8c   0x08003c8c   0x00000036   Code   RO         7590    i.draw_string_P     draw.o
    0x08003cc2   0x08003cc2   0x00000002   PAD
    0x08003cc4   0x08003cc4   0x00000050   Code   RO         8061    i.free              mc_w.l(malloc.o)
    0x08003d14   0x08003d14   0x0000038c   Code   RO         7672    i.game1_draw        game1.o
    0x080040a0   0x080040a0   0x0000011c   Code   RO         7673    i.game1_task        game1.o
    0x080041bc   0x080041bc   0x0000003a   Code   RO           78    i.main              main.o
    0x080041f6   0x080041f6   0x00000002   PAD
    0x080041f8   0x080041f8   0x0000006c   Code   RO         8062    i.malloc            mc_w.l(malloc.o)
    0x08004264   0x08004264   0x0000001a   Code   RO         6669    i.mdelay            driver_timer.o
    0x0800427e   0x0800427e   0x00000002   PAD
    0x08004280   0x08004280   0x00000038   Code   RO         5894    i.osKernelInitialize  cmsis_os2.o
    0x080042b8   0x080042b8   0x00000040   Code   RO         5897    i.osKernelStart     cmsis_os2.o
    0x080042f8   0x080042f8   0x000000c8   Code   RO         7674    i.platform_task     game1.o
    0x080043c0   0x080043c0   0x0000005c   Code   RO         5376    i.prvAddCurrentTaskToDelayedList  tasks.o
    0x0800441c   0x0800441c   0x000000d0   Code   RO         5377    i.prvAddNewTaskToReadyList  tasks.o
    0x080044ec   0x080044ec   0x00000058   Code   RO         5726    i.prvCheckForValidListAndQueue  timers.o
    0x08004544   0x08004544   0x00000026   Code   RO         4947    i.prvCopyDataFromQueue  queue.o
    0x0800456a   0x0800456a   0x0000006c   Code   RO         4948    i.prvCopyDataToQueue  queue.o
    0x080045d6   0x080045d6   0x00000034   Code   RO         5378    i.prvDeleteTCB      tasks.o
    0x0800460a   0x0800460a   0x00000002   PAD
    0x0800460c   0x0800460c   0x0000004c   Code   RO         6301    i.prvHeapInit       heap_4.o
    0x08004658   0x08004658   0x00000060   Code   RO         5379    i.prvIdleTask       tasks.o
    0x080046b8   0x080046b8   0x00000026   Code   RO         4950    i.prvInitialiseNewQueue  queue.o
    0x080046de   0x080046de   0x0000009c   Code   RO         5380    i.prvInitialiseNewTask  tasks.o
    0x0800477a   0x0800477a   0x00000002   PAD
    0x0800477c   0x0800477c   0x0000004c   Code   RO         6302    i.prvInsertBlockIntoFreeList  heap_4.o
    0x080047c8   0x080047c8   0x00000038   Code   RO         5728    i.prvInsertTimerInActiveList  timers.o
    0x08004800   0x08004800   0x0000001c   Code   RO         4951    i.prvIsQueueEmpty   queue.o
    0x0800481c   0x0800481c   0x0000006c   Code   RO         4952    i.prvNotifyQueueSetContainer  queue.o
    0x08004888   0x08004888   0x000000cc   Code   RO         5729    i.prvProcessReceivedCommands  timers.o
    0x08004954   0x08004954   0x000000b4   Code   RO         5730    i.prvProcessTimerOrBlockTask  timers.o
    0x08004a08   0x08004a08   0x00000020   Code   RO         5382    i.prvResetNextTaskUnblockTime  tasks.o
    0x08004a28   0x08004a28   0x00000028   Code   RO         5731    i.prvSampleTimeNow  timers.o
    0x08004a50   0x08004a50   0x0000006c   Code   RO         5732    i.prvSwitchTimerLists  timers.o
    0x08004abc   0x08004abc   0x00000028   Code   RO         6352    i.prvTaskExitError  port.o
    0x08004ae4   0x08004ae4   0x00000024   Code   RO         5733    i.prvTimerTask      timers.o
    0x08004b08   0x08004b08   0x00000078   Code   RO         4953    i.prvUnlockQueue    queue.o
    0x08004b80   0x08004b80   0x000000d8   Code   RO         6303    i.pvPortMalloc      heap_4.o
    0x08004c58   0x08004c58   0x00000024   Code   RO         6353    i.pxPortInitialiseStack  port.o
    0x08004c7c   0x08004c7c   0x0000000c   Code   RO         7591    i.readPixels        draw.o
    0x08004c88   0x08004c88   0x00000018   Code   RO         7592    i.setBuffByte       draw.o
    0x08004ca0   0x08004ca0   0x00000016   Code   RO         7593    i.set_bits          draw.o
    0x08004cb6   0x08004cb6   0x00000002   PAD
    0x08004cb8   0x08004cb8   0x00000044   Code   RO         6670    i.system_get_ns     driver_timer.o
    0x08004cfc   0x08004cfc   0x00000038   Code   RO         6671    i.udelay            driver_timer.o
    0x08004d34   0x08004d34   0x00000026   Code   RO         4907    i.uxListRemove      list.o
    0x08004d5a   0x08004d5a   0x00000002   PAD
    0x08004d5c   0x08004d5c   0x00000014   Code   RO         5943    i.vApplicationGetIdleTaskMemory  cmsis_os2.o
    0x08004d70   0x08004d70   0x00000018   Code   RO         5944    i.vApplicationGetTimerTaskMemory  cmsis_os2.o
    0x08004d88   0x08004d88   0x00000016   Code   RO         4908    i.vListInitialise   list.o
    0x08004d9e   0x08004d9e   0x00000006   Code   RO         4909    i.vListInitialiseItem  list.o
    0x08004da4   0x08004da4   0x00000030   Code   RO         4910    i.vListInsert       list.o
    0x08004dd4   0x08004dd4   0x00000018   Code   RO         4911    i.vListInsertEnd    list.o
    0x08004dec   0x08004dec   0x00000040   Code   RO         6355    i.vPortEnterCritical  port.o
    0x08004e2c   0x08004e2c   0x00000028   Code   RO         6356    i.vPortExitCritical  port.o
    0x08004e54   0x08004e54   0x0000005c   Code   RO         6304    i.vPortFree         heap_4.o
    0x08004eb0   0x08004eb0   0x00000024   Code   RO         6357    i.vPortSetupTimerInterrupt  port.o
    0x08004ed4   0x08004ed4   0x00000054   Code   RO         6358    i.vPortValidateInterruptPriority  port.o
    0x08004f28   0x08004f28   0x00000028   Code   RO         4959    i.vQueueAddToRegistry  queue.o
    0x08004f50   0x08004f50   0x00000044   Code   RO         4963    i.vQueueWaitForMessageRestricted  queue.o
    0x08004f94   0x08004f94   0x0000004c   Code   RO         5394    i.vTaskDelay        tasks.o
    0x08004fe0   0x08004fe0   0x00000010   Code   RO         5399    i.vTaskInternalSetTimeOutState  tasks.o
    0x08004ff0   0x08004ff0   0x0000000c   Code   RO         5400    i.vTaskMissedYield  tasks.o
    0x08004ffc   0x08004ffc   0x00000030   Code   RO         5402    i.vTaskPlaceOnEventList  tasks.o
    0x0800502c   0x0800502c   0x00000038   Code   RO         5403    i.vTaskPlaceOnEventListRestricted  tasks.o
    0x08005064   0x08005064   0x00000088   Code   RO         5411    i.vTaskStartScheduler  tasks.o
    0x080050ec   0x080050ec   0x00000010   Code   RO         5413    i.vTaskSuspendAll   tasks.o
    0x080050fc   0x080050fc   0x00000064   Code   RO         5414    i.vTaskSwitchContext  tasks.o
    0x08005160   0x08005160   0x000000a8   Code   RO         6359    i.xPortStartScheduler  port.o
    0x08005208   0x08005208   0x00000022   Code   RO         4964    i.xQueueAddToSet    queue.o
    0x0800522a   0x0800522a   0x00000008   Code   RO         4969    i.xQueueCreateSet   queue.o
    0x08005232   0x08005232   0x00000048   Code   RO         4970    i.xQueueGenericCreate  queue.o
    0x0800527a   0x0800527a   0x00000066   Code   RO         4971    i.xQueueGenericCreateStatic  queue.o
    0x080052e0   0x080052e0   0x00000088   Code   RO         4972    i.xQueueGenericReset  queue.o
    0x08005368   0x08005368   0x0000016c   Code   RO         4973    i.xQueueGenericSend  queue.o
    0x080054d4   0x080054d4   0x000000ca   Code   RO         4974    i.xQueueGenericSendFromISR  queue.o
    0x0800559e   0x0800559e   0x00000002   PAD
    0x080055a0   0x080055a0   0x00000138   Code   RO         4983    i.xQueueReceive     queue.o
    0x080056d8   0x080056d8   0x00000012   Code   RO         4986    i.xQueueSelectFromSet  queue.o
    0x080056ea   0x080056ea   0x00000002   PAD
    0x080056ec   0x080056ec   0x00000074   Code   RO         5415    i.xTaskCheckForTimeOut  tasks.o
    0x08005760   0x08005760   0x0000005a   Code   RO         5416    i.xTaskCreate       tasks.o
    0x080057ba   0x080057ba   0x00000056   Code   RO         5417    i.xTaskCreateStatic  tasks.o
    0x08005810   0x08005810   0x0000001c   Code   RO         5421    i.xTaskGetSchedulerState  tasks.o
    0x0800582c   0x0800582c   0x0000000c   Code   RO         5422    i.xTaskGetTickCount  tasks.o
    0x08005838   0x08005838   0x000000c8   Code   RO         5424    i.xTaskIncrementTick  tasks.o
    0x08005900   0x08005900   0x00000080   Code   RO         5427    i.xTaskPriorityDisinherit  tasks.o
    0x08005980   0x08005980   0x00000070   Code   RO         5429    i.xTaskRemoveFromEventList  tasks.o
    0x080059f0   0x080059f0   0x000000c4   Code   RO         5430    i.xTaskResumeAll    tasks.o
    0x08005ab4   0x08005ab4   0x00000060   Code   RO         5740    i.xTimerCreateTimerTask  timers.o
    0x08005b14   0x08005b14   0x00000068   Code   RO         5741    i.xTimerGenericCommand  timers.o
    0x08005b7c   0x08005b7c   0x00000012   Data   RO         1392    .constdata          stm32f1xx_hal_rcc.o
    0x08005b8e   0x08005b8e   0x00000010   Data   RO         4743    .constdata          system_stm32f1xx.o
    0x08005b9e   0x08005b9e   0x00000008   Data   RO         4744    .constdata          system_stm32f1xx.o
    0x08005ba6   0x08005ba6   0x00000800   Data   RO         6489    .constdata          driver_oled.o
    0x080063a6   0x080063a6   0x0000001d   Data   RO         7676    .constdata          game1.o
    0x080063c3   0x080063c3   0x00000007   Data   RO         7725    .constdata          resources.o
    0x080063ca   0x080063ca   0x000001e5   Data   RO         7747    .constdata          resources.o
    0x080065af   0x080065af   0x00000001   PAD
    0x080065b0   0x080065b0   0x00000020   Data   RO         8147    Region$$Table       anon$$obj.o


    Execution Region RW_IRAM1 (Exec base: 0x20000000, Load base: 0x080065d0, Size: 0x00003fd8, Max: 0x00005000, ABSOLUTE, COMPRESSED[0x0000001c])

    Exec Addr    Load Addr    Size         Type   Attr      Idx    E Section Name        Object

    0x20000000   COMPRESSED   0x0000000c   Data   RW         1229    .data               stm32f1xx_hal.o
    0x2000000c   COMPRESSED   0x00000004   Data   RW         4745    .data               system_stm32f1xx.o
    0x20000010   COMPRESSED   0x0000003c   Data   RW         5433    .data               tasks.o
    0x2000004c   COMPRESSED   0x00000014   Data   RW         5749    .data               timers.o
    0x20000060   COMPRESSED   0x00000004   Data   RW         5946    .data               cmsis_os2.o
    0x20000064   COMPRESSED   0x00000018   Data   RW         6309    .data               heap_4.o
    0x2000007c   COMPRESSED   0x0000000c   Data   RW         6360    .data               port.o
    0x20000088   COMPRESSED   0x00000008   Data   RW         6490    .data               driver_oled.o
    0x20000090   COMPRESSED   0x00000008   Data   RW         6602    .data               driver_mpu6050.o
    0x20000098   COMPRESSED   0x00000018   Data   RW         7067    .data               driver_ir_receiver.o
    0x200000b0   COMPRESSED   0x00000018   Data   RW         7376    .data               driver_rotary_encoder.o
    0x200000c8   COMPRESSED   0x00000014   Data   RW         7594    .data               draw.o
    0x200000dc   COMPRESSED   0x00000048   Data   RW         7677    .data               game1.o
    0x20000124   COMPRESSED   0x00000004   Data   RW         7786    .data               mc_w.l(rand.o)
    0x20000128   COMPRESSED   0x00000004   Data   RW         8132    .data               mc_w.l(mvars.o)
    0x2000012c   COMPRESSED   0x00000004   Data   RW         8133    .data               mc_w.l(mvars.o)
    0x20000130        -       0x00000030   Zero   RW          480    .bss                adc.o
    0x20000160        -       0x00000054   Zero   RW          522    .bss                i2c.o
    0x200001b4        -       0x00000058   Zero   RW          564    .bss                spi.o
    0x2000020c        -       0x000000d8   Zero   RW          611    .bss                tim.o
    0x200002e4        -       0x00000048   Zero   RW          678    .bss                usart.o
    0x2000032c        -       0x000002f0   Zero   RW          720    .bss                usb.o
    0x2000061c        -       0x00000048   Zero   RW          856    .bss                stm32f1xx_hal_timebase_tim.o
    0x20000664        -       0x00000040   Zero   RW         4990    .bss                queue.o
    0x200006a4        -       0x000004c4   Zero   RW         5432    .bss                tasks.o
    0x20000b68        -       0x0000011c   Zero   RW         5748    .bss                timers.o
    0x20000c84        -       0x000006b8   Zero   RW         5945    .bss                cmsis_os2.o
    0x2000133c        -       0x00001f40   Zero   RW         6308    .bss                heap_4.o
    0x2000327c        -       0x00000400   Zero   RW         6488    .bss                driver_oled.o
    0x2000367c   COMPRESSED   0x00000004   PAD
    0x20003680        -       0x000002a0   Zero   RW         7064    .bss                driver_ir_receiver.o
    0x20003920        -       0x000000a4   Zero   RW         7375    .bss                driver_rotary_encoder.o
    0x200039c4        -       0x00000010   Zero   RW         7675    .bss                game1.o
    0x200039d4   COMPRESSED   0x00000004   PAD
    0x200039d8        -       0x00000200   Zero   RW            2    HEAP                startup_stm32f103xb.o
    0x20003bd8        -       0x00000400   Zero   RW            1    STACK               startup_stm32f103xb.o


==============================================================================

Image component sizes


      Code (inc. data)   RO Data    RW Data    ZI Data      Debug   Object Name

       168         22          0          0         48       1621   adc.o
       164         22          0          4       1720      12274   cmsis_os2.o
       808         28          0         20          0       9300   draw.o
       516         68          0         24        672       4857   driver_ir_receiver.o
        22          0          0          0          0        529   driver_irq.o
        24          0          0          0          0       3420   driver_lcd.o
       486         28          0          8          0       5243   driver_mpu6050.o
       664         46       2048          8       1024      10163   driver_oled.o
       176         28          0         24        164       4196   driver_rotary_encoder.o
       150         14          0          0          0       2378   driver_timer.o
         0          0          0          0          0      20172   event_groups.o
        84         30          0          0          0       4383   freertos.o
      1692        136         29         72         16       6474   game1.o
       336         26          0          0          0     465243   gpio.o
       460         24          0         24       8000       4683   heap_4.o
       156         26          0          0         84       1609   i2c.o
       138          0          0          0          0       3410   list.o
       206          6          0          0          0     417008   main.o
         0          0          0          0          0      20604   music.o
       662         70          0         12          0      10845   port.o
      1796         18          0          0         64      18507   queue.o
         0          0        492          0          0       2965   resources.o
       184         24          0          0         88       1633   spi.o
        36          8        236          0       1536        796   startup_stm32f103xb.o
        64         14          0         12          0       4606   stm32f1xx_hal.o
       622         24          0          0          0       3280   stm32f1xx_hal_adc.o
       158         14          0          0          0      28158   stm32f1xx_hal_cortex.o
       524         40          0          0          0       4082   stm32f1xx_hal_gpio.o
      2826         72          0          0          0      14876   stm32f1xx_hal_i2c.o
        72         10          0          0          0        858   stm32f1xx_hal_msp.o
       218          0          0          0          0       1496   stm32f1xx_hal_pcd.o
      1304         94         18          0          0       5709   stm32f1xx_hal_rcc.o
       236         12          0          0          0       1372   stm32f1xx_hal_rcc_ex.o
       178          0          0          0          0       1219   stm32f1xx_hal_spi.o
      1596         46          0          0          0      14016   stm32f1xx_hal_tim.o
       192         12          0          0          0       3169   stm32f1xx_hal_tim_ex.o
       152         20          0          0         72       1463   stm32f1xx_hal_timebase_tim.o
       284          6          0          0          0       1916   stm32f1xx_hal_uart.o
        54          6          0          0          0       3470   stm32f1xx_it.o
        44          0          0          0          0       3304   stm32f1xx_ll_usb.o
         0          0          0          0          0       8880   stream_buffer.o
         2          0         24          4          0       1103   system_stm32f1xx.o
      2064        170          0         60       1220      23292   tasks.o
       852         68          0          0        216       4500   tim.o
       912         82          0         20        284      26023   timers.o
       168         20          0          0         72       1662   usart.o
        92         20          0          0        752       1502   usb.o

    ----------------------------------------------------------------------
     21592       1354       2880        292      16040    1192269   Object Totals
         0          0         32          0          0          0   (incl. Generated)
        50          0          1          0          8          0   (incl. Padding)

    ----------------------------------------------------------------------

      Code (inc. data)   RO Data    RW Data    ZI Data      Debug   Library Member Name

        58          0          0          0          0          0   __dczerorl.o
         0          0          0          0          0          0   entry.o
         0          0          0          0          0          0   entry10a.o
         0          0          0          0          0          0   entry11a.o
         8          4          0          0          0          0   entry2.o
         4          0          0          0          0          0   entry5.o
         0          0          0          0          0          0   entry7b.o
         0          0          0          0          0          0   entry8b.o
         8          4          0          0          0          0   entry9a.o
        30          0          0          0          0          0   handlers.o
        36          8          0          0          0         68   init.o
         0          0          0          0          0          0   iusefp.o
        30          0          0          0          0         68   llshl.o
        32          0          0          0          0         68   llushr.o
       188         20          0          0          0        160   malloc.o
        36          0          0          0          0         68   memcpya.o
        36          0          0          0          0        108   memseta.o
         0          0          0          8          0          0   mvars.o
       490         10          0          0          0        252   printf3.o
        36         10          0          4          0        136   rand.o
        18          0          0          0          0         68   strcpy.o
        14          0          0          0          0         68   strlen.o
        44          0          0          0          0         80   uidiv.o
        98          0          0          0          0         92   uldiv.o
        20          0          0          0          0         68   cfcmple.o
        20          0          0          0          0         68   cfrcmple.o
       176          0          0          0          0        140   fadd.o
       110          0          0          0          0        168   fepilogue.o
        40          0          0          0          0         68   ffixui.o
        18          0          0          0          0         68   fflti.o
        10          0          0          0          0         68   ffltui.o
        24          0          0          0          0         68   fscalb.o

    ----------------------------------------------------------------------
      1592         56          0         12          0       1952   Library Totals
         8          0          0          0          0          0   (incl. Padding)

    ----------------------------------------------------------------------

      Code (inc. data)   RO Data    RW Data    ZI Data      Debug   Library Name

      1166         56          0         12          0       1236   mc_w.l
       418          0          0          0          0        716   mf_w.l

    ----------------------------------------------------------------------
      1592         56          0         12          0       1952   Library Totals

    ----------------------------------------------------------------------

==============================================================================


      Code (inc. data)   RO Data    RW Data    ZI Data      Debug   

     23184       1410       2880        304      16040    1182181   Grand Totals
     23184       1410       2880         28      16040    1182181   ELF Image Totals (compressed)
     23184       1410       2880         28          0          0   ROM Totals

==============================================================================

    Total RO  Size (Code + RO Data)                26064 (  25.45kB)
    Total RW  Size (RW Data + ZI Data)             16344 (  15.96kB)
    Total ROM Size (Code + RO Data + RW Data)      26092 (  25.48kB)

==============================================================================

