Component: ARM Compiler 5.06 update 5 (build 528) Tool: armlink [4d35e2]

==============================================================================

Section Cross References

    startup_stm32f103xb.o(RESET) refers to startup_stm32f103xb.o(STACK) for __initial_sp
    startup_stm32f103xb.o(RESET) refers to startup_stm32f103xb.o(.text) for Reset_Handler
    startup_stm32f103xb.o(RESET) refers to stm32f1xx_it.o(i.NMI_Handler) for NMI_Handler
    startup_stm32f103xb.o(RESET) refers to stm32f1xx_it.o(i.HardFault_Handler) for HardFault_Handler
    startup_stm32f103xb.o(RESET) refers to stm32f1xx_it.o(i.MemManage_Handler) for MemManage_Handler
    startup_stm32f103xb.o(RESET) refers to stm32f1xx_it.o(i.BusFault_Handler) for BusFault_Handler
    startup_stm32f103xb.o(RESET) refers to stm32f1xx_it.o(i.UsageFault_Handler) for UsageFault_Handler
    startup_stm32f103xb.o(RESET) refers to port.o(.emb_text) for SVC_Handler
    startup_stm32f103xb.o(RESET) refers to stm32f1xx_it.o(i.DebugMon_Handler) for DebugMon_Handler
    startup_stm32f103xb.o(RESET) refers to port.o(i.SysTick_Handler) for SysTick_Handler
    startup_stm32f103xb.o(RESET) refers to stm32f1xx_it.o(i.TIM4_IRQHandler) for TIM4_IRQHandler
    startup_stm32f103xb.o(RESET) refers to stm32f1xx_it.o(i.EXTI15_10_IRQHandler) for EXTI15_10_IRQHandler
    startup_stm32f103xb.o(.text) refers to system_stm32f1xx.o(i.SystemInit) for SystemInit
    startup_stm32f103xb.o(.text) refers to entry.o(.ARM.Collect$$$$00000000) for __main
    music.o(i.MUSIC_Analysis) refers to driver_passive_buzzer.o(i.PassiveBuzzer_Set_Freq_Duty) for PassiveBuzzer_Set_Freq_Duty
    music.o(i.MUSIC_Analysis) refers to tasks.o(i.vTaskDelay) for vTaskDelay
    music.o(i.MUSIC_Analysis) refers to music.o(.data) for .data
    music.o(i.PlayMusic) refers to driver_passive_buzzer.o(i.PassiveBuzzer_Init) for PassiveBuzzer_Init
==============================================================================

Removing Unused input sections from the image.

    Removing music.o(i.MUSIC_Analysis), (80 bytes).
    Removing music.o(i.PlayMusic), (10 bytes).
    Removing music.o(.data), (3990 bytes).
    Removing main.o(.rev16_text), (4 bytes).
    Removing main.o(.revsh_text), (4 bytes).
    Removing main.o(.rrx_text), (6 bytes).
    Removing gpio.o(.rev16_text), (4 bytes).
    Removing gpio.o(.revsh_text), (4 bytes).
    Removing gpio.o(.rrx_text), (6 bytes).
    Removing freertos.o(.rev16_text), (4 bytes).
    Removing freertos.o(.revsh_text), (4 bytes).
    Removing freertos.o(.rrx_text), (6 bytes).
    Removing freertos.o(i.StartDefaultTask), (288 bytes).
    Removing freertos.o(.constdata), (36 bytes).
    Removing freertos.o(.conststring), (12 bytes).
    Removing freertos.o(.data), (4 bytes).
    Removing adc.o(.rev16_text), (4 bytes).
    Removing adc.o(.revsh_text), (4 bytes).
==============================================================================

Image Symbol Table

    Local Symbols

    Symbol Name                              Value     Ov Type        Size  Object(Section)

    ../Core/Src/adc.c                        0x00000000   Number         0  adc.o ABSOLUTE
    ../Core/Src/freertos.c                   0x00000000   Number         0  freertos.o ABSOLUTE
    ../Core/Src/gpio.c                       0x00000000   Number         0  gpio.o ABSOLUTE
    ../Core/Src/i2c.c                        0x00000000   Number         0  i2c.o ABSOLUTE
    ../Core/Src/main.c                       0x00000000   Number         0  main.o ABSOLUTE
    ../Core/Src/spi.c                        0x00000000   Number         0  spi.o ABSOLUTE
    ../Core/Src/stm32f1xx_hal_msp.c          0x00000000   Number         0  stm32f1xx_hal_msp.o ABSOLUTE
    ../Core/Src/stm32f1xx_hal_timebase_tim.c 0x00000000   Number         0  stm32f1xx_hal_timebase_tim.o ABSOLUTE
    ../Core/Src/stm32f1xx_it.c               0x00000000   Number         0  stm32f1xx_it.o ABSOLUTE
    ../Core/Src/system_stm32f1xx.c           0x00000000   Number         0  system_stm32f1xx.o ABSOLUTE
    ../Core/Src/tim.c                        0x00000000   Number         0  tim.o ABSOLUTE
    ../Core/Src/usart.c                      0x00000000   Number         0  usart.o ABSOLUTE
    ../Core/Src/usb.c                        0x00000000   Number         0  usb.o ABSOLUTE
    ../Drivers/STM32F1xx_HAL_Driver/Src/stm32f1xx_hal.c 0x00000000   Number         0  stm32f1xx_hal.o ABSOLUTE
    ../Drivers/STM32F1xx_HAL_Driver/Src/stm32f1xx_hal_adc.c 0x00000000   Number         0  stm32f1xx_hal_adc.o ABSOLUTE
    ../Drivers/STM32F1xx_HAL_Driver/Src/stm32f1xx_hal_adc_ex.c 0x00000000   Number         0  stm32f1xx_hal_adc_ex.o ABSOLUTE
    ../Drivers/STM32F1xx_HAL_Driver/Src/stm32f1xx_hal_cortex.c 0x00000000   Number         0  stm32f1xx_hal_cortex.o ABSOLUTE
    ../Drivers/STM32F1xx_HAL_Driver/Src/stm32f1xx_hal_dma.c 0x00000000   Number         0  stm32f1xx_hal_dma.o ABSOLUTE
    ../Drivers/STM32F1xx_HAL_Driver/Src/stm32f1xx_hal_exti.c 0x00000000   Number         0  stm32f1xx_hal_exti.o ABSOLUTE
    ../Drivers/STM32F1xx_HAL_Driver/Src/stm32f1xx_hal_flash.c 0x00000000   Number         0  stm32f1xx_hal_flash.o ABSOLUTE
    ../Drivers/STM32F1xx_HAL_Driver/Src/stm32f1xx_hal_flash_ex.c 0x00000000   Number         0  stm32f1xx_hal_flash_ex.o ABSOLUTE
    ../Drivers/STM32F1xx_HAL_Driver/Src/stm32f1xx_hal_gpio.c 0x00000000   Number         0  stm32f1xx_hal_gpio.o ABSOLUTE
    ../Drivers/STM32F1xx_HAL_Driver/Src/stm32f1xx_hal_gpio_ex.c 0x00000000   Number         0  stm32f1xx_hal_gpio_ex.o ABSOLUTE
    ../Drivers/STM32F1xx_HAL_Driver/Src/stm32f1xx_hal_i2c.c 0x00000000   Number         0  stm32f1xx_hal_i2c.o ABSOLUTE
    ../Drivers/STM32F1xx_HAL_Driver/Src/stm32f1xx_hal_pcd.c 0x00000000   Number         0  stm32f1xx_hal_pcd.o ABSOLUTE
    ../Drivers/STM32F1xx_HAL_Driver/Src/stm32f1xx_hal_pcd_ex.c 0x00000000   Number         0  stm32f1xx_hal_pcd_ex.o ABSOLUTE
    ../Drivers/STM32F1xx_HAL_Driver/Src/stm32f1xx_hal_pwr.c 0x00000000   Number         0  stm32f1xx_hal_pwr.o ABSOLUTE
    ../Drivers/STM32F1xx_HAL_Driver/Src/stm32f1xx_hal_rcc.c 0x00000000   Number         0  stm32f1xx_hal_rcc.o ABSOLUTE
    ../Drivers/STM32F1xx_HAL_Driver/Src/stm32f1xx_hal_rcc_ex.c 0x00000000   Number         0  stm32f1xx_hal_rcc_ex.o ABSOLUTE
    ../Drivers/STM32F1xx_HAL_Driver/Src/stm32f1xx_hal_spi.c 0x00000000   Number         0  stm32f1xx_hal_spi.o ABSOLUTE
    ../Drivers/STM32F1xx_HAL_Driver/Src/stm32f1xx_hal_tim.c 0x00000000   Number         0  stm32f1xx_hal_tim.o ABSOLUTE
    ../Drivers/STM32F1xx_HAL_Driver/Src/stm32f1xx_hal_tim_ex.c 0x00000000   Number         0  stm32f1xx_hal_tim_ex.o ABSOLUTE
    ../Drivers/STM32F1xx_HAL_Driver/Src/stm32f1xx_hal_uart.c 0x00000000   Number         0  stm32f1xx_hal_uart.o ABSOLUTE
    ../Drivers/STM32F1xx_HAL_Driver/Src/stm32f1xx_ll_usb.c 0x00000000   Number         0  stm32f1xx_ll_usb.o ABSOLUTE
    ../Middlewares/Third_Party/FreeRTOS/Source/CMSIS_RTOS_V2/cmsis_os2.c 0x00000000   Number         0  cmsis_os2.o ABSOLUTE
    ../Middlewares/Third_Party/FreeRTOS/Source/croutine.c 0x00000000   Number         0  croutine.o ABSOLUTE
    ../Middlewares/Third_Party/FreeRTOS/Source/event_groups.c 0x00000000   Number         0  event_groups.o ABSOLUTE
    ../Middlewares/Third_Party/FreeRTOS/Source/list.c 0x00000000   Number         0  list.o ABSOLUTE
    ../Middlewares/Third_Party/FreeRTOS/Source/portable/MemMang/heap_4.c 0x00000000   Number         0  heap_4.o ABSOLUTE
    ../Middlewares/Third_Party/FreeRTOS/Source/portable/RVDS/ARM_CM3/port.c 0x00000000   Number         0  port.o ABSOLUTE
    ../Middlewares/Third_Party/FreeRTOS/Source/queue.c 0x00000000   Number         0  queue.o ABSOLUTE
    ../Middlewares/Third_Party/FreeRTOS/Source/stream_buffer.c 0x00000000   Number         0  stream_buffer.o ABSOLUTE
    ../Middlewares/Third_Party/FreeRTOS/Source/tasks.c 0x00000000   Number         0  tasks.o ABSOLUTE
    ../Middlewares/Third_Party/FreeRTOS/Source/timers.c 0x00000000   Number         0  timers.o ABSOLUTE
    ../clib/microlib/division.c              0x00000000   Number         0  uidiv.o ABSOLUTE
    ../clib/microlib/division.c              0x00000000   Number         0  uldiv.o ABSOLUTE
    ../clib/microlib/init/entry.s            0x00000000   Number         0  entry10a.o ABSOLUTE
    ../clib/microlib/init/entry.s            0x00000000   Number         0  entry9a.o ABSOLUTE
    ../clib/microlib/init/entry.s            0x00000000   Number         0  entry.o ABSOLUTE
    ../clib/microlib/init/entry.s            0x00000000   Number         0  entry9b.o ABSOLUTE
    ../clib/microlib/init/entry.s            0x00000000   Number         0  entry11b.o ABSOLUTE
    ../clib/microlib/init/entry.s            0x00000000   Number         0  entry8b.o ABSOLUTE
    ../clib/microlib/init/entry.s            0x00000000   Number         0  entry7b.o ABSOLUTE
    ../clib/microlib/init/entry.s            0x00000000   Number         0  entry7a.o ABSOLUTE
    ../clib/microlib/init/entry.s            0x00000000   Number         0  entry11a.o ABSOLUTE
    ../clib/microlib/init/entry.s            0x00000000   Number         0  entry5.o ABSOLUTE
    ../clib/microlib/init/entry.s            0x00000000   Number         0  entry2.o ABSOLUTE
    ../clib/microlib/init/entry.s            0x00000000   Number         0  entry10b.o ABSOLUTE
    ../clib/microlib/init/entry.s            0x00000000   Number         0  entry8a.o ABSOLUTE
    ../clib/microlib/longlong.c              0x00000000   Number         0  llsshr.o ABSOLUTE
    ../clib/microlib/longlong.c              0x00000000   Number         0  llshl.o ABSOLUTE
    ../clib/microlib/longlong.c              0x00000000   Number         0  llushr.o ABSOLUTE
    ../clib/microlib/malloc/malloc.c         0x00000000   Number         0  malloca.o ABSOLUTE
    ../clib/microlib/malloc/malloc.c         0x00000000   Number         0  mallocra.o ABSOLUTE
    ../clib/microlib/malloc/malloc.c         0x00000000   Number         0  malloc.o ABSOLUTE
    ../clib/microlib/malloc/malloc.c         0x00000000   Number         0  mallocr.o ABSOLUTE
    ../clib/microlib/malloc/mvars.c          0x00000000   Number         0  mvars.o ABSOLUTE
    ../clib/microlib/printf/printf.c         0x00000000   Number         0  printf6.o ABSOLUTE
    ../clib/microlib/printf/printf.c         0x00000000   Number         0  printf1.o ABSOLUTE
    ../clib/microlib/printf/printf.c         0x00000000   Number         0  printfa.o ABSOLUTE
    ../clib/microlib/printf/printf.c         0x00000000   Number         0  printf7.o ABSOLUTE
    ../clib/microlib/printf/printf.c         0x00000000   Number         0  printf3.o ABSOLUTE
    ../clib/microlib/printf/printf.c         0x00000000   Number         0  printf2.o ABSOLUTE
    ../clib/microlib/printf/printf.c         0x00000000   Number         0  printf5.o ABSOLUTE
    ../clib/microlib/printf/printf.c         0x00000000   Number         0  printfb.o ABSOLUTE
    ../clib/microlib/printf/printf.c         0x00000000   Number         0  printf8.o ABSOLUTE
    ../clib/microlib/printf/printf.c         0x00000000   Number         0  printf0.o ABSOLUTE
    ../clib/microlib/printf/printf.c         0x00000000   Number         0  printf4.o ABSOLUTE
    ../clib/microlib/printf/stubs.s          0x00000000   Number         0  stubs.o ABSOLUTE
    ../clib/microlib/stdio/streams.c         0x00000000   Number         0  stdout.o ABSOLUTE
    ../clib/microlib/stdlib/rand.c           0x00000000   Number         0  rand.o ABSOLUTE
    ../clib/microlib/string/memcpy.c         0x00000000   Number         0  memcpyb.o ABSOLUTE
    ../clib/microlib/string/memcpy.c         0x00000000   Number         0  memcpya.o ABSOLUTE
    ../clib/microlib/string/memset.c         0x00000000   Number         0  memset.o ABSOLUTE
    ../clib/microlib/string/memset.c         0x00000000   Number         0  memseta.o ABSOLUTE
    ../clib/microlib/string/strcpy.c         0x00000000   Number         0  strcpy.o ABSOLUTE
    ../clib/microlib/string/strlen.c         0x00000000   Number         0  strlen.o ABSOLUTE
    ../clib/microlib/stubs.s                 0x00000000   Number         0  iusefp.o ABSOLUTE
    ../fplib/microlib/fpadd.c                0x00000000   Number         0  dadd.o ABSOLUTE
    ../fplib/microlib/fpadd.c                0x00000000   Number         0  fadd.o ABSOLUTE
    ../fplib/microlib/fpdiv.c                0x00000000   Number         0  ddiv.o ABSOLUTE
    ../fplib/microlib/fpepilogue.c           0x00000000   Number         0  fepilogue.o ABSOLUTE
    ../fplib/microlib/fpepilogue.c           0x00000000   Number         0  depilogue.o ABSOLUTE
    ../fplib/microlib/fpfix.c                0x00000000   Number         0  ffixui.o ABSOLUTE
    ../fplib/microlib/fpfix.c                0x00000000   Number         0  dfixul.o ABSOLUTE
    ../fplib/microlib/fpfix.c                0x00000000   Number         0  dfixi.o ABSOLUTE
    ../fplib/microlib/fpflt.c                0x00000000   Number         0  dflti.o ABSOLUTE
    ../fplib/microlib/fpflt.c                0x00000000   Number         0  ffltui.o ABSOLUTE
    ../fplib/microlib/fpflt.c                0x00000000   Number         0  fflti.o ABSOLUTE
    ../fplib/microlib/fpmul.c                0x00000000   Number         0  dmul.o ABSOLUTE
    ../fplib/microlib/fpscalb.c              0x00000000   Number         0  fscalb.o ABSOLUTE
    ..\Core\Src\adc.c                        0x00000000   Number         0  adc.o ABSOLUTE
    ..\Core\Src\freertos.c                   0x00000000   Number         0  freertos.o ABSOLUTE
    ..\Core\Src\gpio.c                       0x00000000   Number         0  gpio.o ABSOLUTE
    ..\Core\Src\i2c.c                        0x00000000   Number         0  i2c.o ABSOLUTE
    ..\Core\Src\main.c                       0x00000000   Number         0  main.o ABSOLUTE
    ..\Core\Src\music.c                      0x00000000   Number         0  music.o ABSOLUTE
    ..\Core\Src\spi.c                        0x00000000   Number         0  spi.o ABSOLUTE
    ..\Core\Src\stm32f1xx_hal_msp.c          0x00000000   Number         0  stm32f1xx_hal_msp.o ABSOLUTE
    ..\Core\Src\stm32f1xx_hal_timebase_tim.c 0x00000000   Number         0  stm32f1xx_hal_timebase_tim.o ABSOLUTE
    ..\Core\Src\stm32f1xx_it.c               0x00000000   Number         0  stm32f1xx_it.o ABSOLUTE
    ..\Core\Src\system_stm32f1xx.c           0x00000000   Number         0  system_stm32f1xx.o ABSOLUTE
    ..\Core\Src\tim.c                        0x00000000   Number         0  tim.o ABSOLUTE
    ..\Core\Src\usart.c                      0x00000000   Number         0  usart.o ABSOLUTE
    ..\Core\Src\usb.c                        0x00000000   Number         0  usb.o ABSOLUTE
    ..\Drivers\DshanMCU-F103\driver_active_buzzer.c 0x00000000   Number         0  driver_active_buzzer.o ABSOLUTE
    ..\Drivers\DshanMCU-F103\driver_color_led.c 0x00000000   Number         0  driver_color_led.o ABSOLUTE
    ..\Drivers\DshanMCU-F103\driver_dht11.c  0x00000000   Number         0  driver_dht11.o ABSOLUTE
    ..\Drivers\DshanMCU-F103\driver_ds18b20.c 0x00000000   Number         0  driver_ds18b20.o ABSOLUTE
    ..\Drivers\DshanMCU-F103\driver_ir_obstacle.c 0x00000000   Number         0  driver_ir_obstacle.o ABSOLUTE
    ..\Drivers\DshanMCU-F103\driver_ir_receiver.c 0x00000000   Number         0  driver_ir_receiver.o ABSOLUTE
    ..\Drivers\DshanMCU-F103\driver_ir_sender.c 0x00000000   Number         0  driver_ir_sender.o ABSOLUTE
    ..\Drivers\DshanMCU-F103\driver_irq.c    0x00000000   Number         0  driver_irq.o ABSOLUTE
    ..\Drivers\DshanMCU-F103\driver_key.c    0x00000000   Number         0  driver_key.o ABSOLUTE
    ..\Drivers\DshanMCU-F103\driver_lcd.c    0x00000000   Number         0  driver_lcd.o ABSOLUTE
    ..\Drivers\DshanMCU-F103\driver_led.c    0x00000000   Number         0  driver_led.o ABSOLUTE
    ..\Drivers\DshanMCU-F103\driver_light_sensor.c 0x00000000   Number         0  driver_light_sensor.o ABSOLUTE
    ..\Drivers\DshanMCU-F103\driver_motor.c  0x00000000   Number         0  driver_motor.o ABSOLUTE
    ..\Drivers\DshanMCU-F103\driver_mpu6050.c 0x00000000   Number         0  driver_mpu6050.o ABSOLUTE
    ..\Drivers\DshanMCU-F103\driver_oled.c   0x00000000   Number         0  driver_oled.o ABSOLUTE
    ..\Drivers\DshanMCU-F103\driver_passive_buzzer.c 0x00000000   Number         0  driver_passive_buzzer.o ABSOLUTE
    ..\Drivers\DshanMCU-F103\driver_rotary_encoder.c 0x00000000   Number         0  driver_rotary_encoder.o ABSOLUTE
    ..\Drivers\DshanMCU-F103\driver_spiflash_w25q64.c 0x00000000   Number         0  driver_spiflash_w25q64.o ABSOLUTE
    ..\Drivers\DshanMCU-F103\driver_timer.c  0x00000000   Number         0  driver_timer.o ABSOLUTE
    ..\Drivers\DshanMCU-F103\driver_uart.c   0x00000000   Number         0  driver_uart.o ABSOLUTE
    ..\Drivers\DshanMCU-F103\driver_ultrasonic_sr04.c 0x00000000   Number         0  driver_ultrasonic_sr04.o ABSOLUTE
    ..\Drivers\STM32F1xx_HAL_Driver\Src\stm32f1xx_hal.c 0x00000000   Number         0  stm32f1xx_hal.o ABSOLUTE
    ..\Drivers\STM32F1xx_HAL_Driver\Src\stm32f1xx_hal_adc.c 0x00000000   Number         0  stm32f1xx_hal_adc.o ABSOLUTE
    ..\Drivers\STM32F1xx_HAL_Driver\Src\stm32f1xx_hal_adc_ex.c 0x00000000   Number         0  stm32f1xx_hal_adc_ex.o ABSOLUTE
    ..\Drivers\STM32F1xx_HAL_Driver\Src\stm32f1xx_hal_cortex.c 0x00000000   Number         0  stm32f1xx_hal_cortex.o ABSOLUTE
    ..\Drivers\STM32F1xx_HAL_Driver\Src\stm32f1xx_hal_dma.c 0x00000000   Number         0  stm32f1xx_hal_dma.o ABSOLUTE
    ..\Drivers\STM32F1xx_HAL_Driver\Src\stm32f1xx_hal_exti.c 0x00000000   Number         0  stm32f1xx_hal_exti.o ABSOLUTE
    ..\Drivers\STM32F1xx_HAL_Driver\Src\stm32f1xx_hal_flash.c 0x00000000   Number         0  stm32f1xx_hal_flash.o ABSOLUTE
    ..\Drivers\STM32F1xx_HAL_Driver\Src\stm32f1xx_hal_flash_ex.c 0x00000000   Number         0  stm32f1xx_hal_flash_ex.o ABSOLUTE
    ..\Drivers\STM32F1xx_HAL_Driver\Src\stm32f1xx_hal_gpio.c 0x00000000   Number         0  stm32f1xx_hal_gpio.o ABSOLUTE
    ..\Drivers\STM32F1xx_HAL_Driver\Src\stm32f1xx_hal_gpio_ex.c 0x00000000   Number         0  stm32f1xx_hal_gpio_ex.o ABSOLUTE
    ..\Drivers\STM32F1xx_HAL_Driver\Src\stm32f1xx_hal_i2c.c 0x00000000   Number         0  stm32f1xx_hal_i2c.o ABSOLUTE
    ..\Drivers\STM32F1xx_HAL_Driver\Src\stm32f1xx_hal_pcd.c 0x00000000   Number         0  stm32f1xx_hal_pcd.o ABSOLUTE
    ..\Drivers\STM32F1xx_HAL_Driver\Src\stm32f1xx_hal_pcd_ex.c 0x00000000   Number         0  stm32f1xx_hal_pcd_ex.o ABSOLUTE
    ..\Drivers\STM32F1xx_HAL_Driver\Src\stm32f1xx_hal_pwr.c 0x00000000   Number         0  stm32f1xx_hal_pwr.o ABSOLUTE
    ..\Drivers\STM32F1xx_HAL_Driver\Src\stm32f1xx_hal_rcc.c 0x00000000   Number         0  stm32f1xx_hal_rcc.o ABSOLUTE
    ..\Drivers\STM32F1xx_HAL_Driver\Src\stm32f1xx_hal_rcc_ex.c 0x00000000   Number         0  stm32f1xx_hal_rcc_ex.o ABSOLUTE
    ..\Drivers\STM32F1xx_HAL_Driver\Src\stm32f1xx_hal_spi.c 0x00000000   Number         0  stm32f1xx_hal_spi.o ABSOLUTE
    ..\Drivers\STM32F1xx_HAL_Driver\Src\stm32f1xx_hal_tim.c 0x00000000   Number         0  stm32f1xx_hal_tim.o ABSOLUTE
    ..\Drivers\STM32F1xx_HAL_Driver\Src\stm32f1xx_hal_tim_ex.c 0x00000000   Number         0  stm32f1xx_hal_tim_ex.o ABSOLUTE
    ..\Drivers\STM32F1xx_HAL_Driver\Src\stm32f1xx_hal_uart.c 0x00000000   Number         0  stm32f1xx_hal_uart.o ABSOLUTE
    ..\Drivers\STM32F1xx_HAL_Driver\Src\stm32f1xx_ll_usb.c 0x00000000   Number         0  stm32f1xx_ll_usb.o ABSOLUTE
    ..\Middlewares\Third_Party\FreeRTOS\Source\CMSIS_RTOS_V2\cmsis_os2.c 0x00000000   Number         0  cmsis_os2.o ABSOLUTE
    ..\Middlewares\Third_Party\FreeRTOS\Source\portable\RVDS\ARM_CM3\port.c 0x00000000   Number         0  port.o ABSOLUTE
    ..\\Drivers\\DshanMCU-F103\\driver_active_buzzer.c 0x00000000   Number         0  driver_active_buzzer.o ABSOLUTE
    ..\\Drivers\\DshanMCU-F103\\driver_color_led.c 0x00000000   Number         0  driver_color_led.o ABSOLUTE
    ..\\Drivers\\DshanMCU-F103\\driver_dht11.c 0x00000000   Number         0  driver_dht11.o ABSOLUTE
    ..\\Drivers\\DshanMCU-F103\\driver_ds18b20.c 0x00000000   Number         0  driver_ds18b20.o ABSOLUTE
    ..\\Drivers\\DshanMCU-F103\\driver_ir_obstacle.c 0x00000000   Number         0  driver_ir_obstacle.o ABSOLUTE
    ..\\Drivers\\DshanMCU-F103\\driver_ir_receiver.c 0x00000000   Number         0  driver_ir_receiver.o ABSOLUTE
    ..\\Drivers\\DshanMCU-F103\\driver_ir_sender.c 0x00000000   Number         0  driver_ir_sender.o ABSOLUTE
    ..\\Drivers\\DshanMCU-F103\\driver_irq.c 0x00000000   Number         0  driver_irq.o ABSOLUTE
    ..\\Drivers\\DshanMCU-F103\\driver_key.c 0x00000000   Number         0  driver_key.o ABSOLUTE
    ..\\Drivers\\DshanMCU-F103\\driver_led.c 0x00000000   Number         0  driver_led.o ABSOLUTE
    ..\\Drivers\\DshanMCU-F103\\driver_light_sensor.c 0x00000000   Number         0  driver_light_sensor.o ABSOLUTE
    ..\\Drivers\\DshanMCU-F103\\driver_motor.c 0x00000000   Number         0  driver_motor.o ABSOLUTE
    ..\\Drivers\\DshanMCU-F103\\driver_mpu6050.c 0x00000000   Number         0  driver_mpu6050.o ABSOLUTE
    ..\\Drivers\\DshanMCU-F103\\driver_oled.c 0x00000000   Number         0  driver_oled.o ABSOLUTE
    ..\\Drivers\\DshanMCU-F103\\driver_passive_buzzer.c 0x00000000   Number         0  driver_passive_buzzer.o ABSOLUTE
    ..\\Drivers\\DshanMCU-F103\\driver_rotary_encoder.c 0x00000000   Number         0  driver_rotary_encoder.o ABSOLUTE
    ..\\Drivers\\DshanMCU-F103\\driver_spiflash_w25q64.c 0x00000000   Number         0  driver_spiflash_w25q64.o ABSOLUTE
    ..\\Drivers\\DshanMCU-F103\\driver_timer.c 0x00000000   Number         0  driver_timer.o ABSOLUTE
    ..\\Drivers\\DshanMCU-F103\\driver_uart.c 0x00000000   Number         0  driver_uart.o ABSOLUTE
    ..\\Drivers\\DshanMCU-F103\\driver_ultrasonic_sr04.c 0x00000000   Number         0  driver_ultrasonic_sr04.o ABSOLUTE
    ..\nwatch\draw.c                         0x00000000   Number         0  draw.o ABSOLUTE
    ..\nwatch\game1.c                        0x00000000   Number         0  game1.o ABSOLUTE
    ..\nwatch\resources.c                    0x00000000   Number         0  resources.o ABSOLUTE
    cdrcmple.s                               0x00000000   Number         0  cdrcmple.o ABSOLUTE
    cfcmple.s                                0x00000000   Number         0  cfcmple.o ABSOLUTE
    cfrcmple.s                               0x00000000   Number         0  cfrcmple.o ABSOLUTE
    dc.s                                     0x00000000   Number         0  dc.o ABSOLUTE
    handlers.s                               0x00000000   Number         0  handlers.o ABSOLUTE
    init.s                                   0x00000000   Number         0  init.o ABSOLUTE
    startup_stm32f103xb.s                    0x00000000   Number         0  startup_stm32f103xb.o ABSOLUTE
    RESET                                    0x08000000   Section      236  startup_stm32f103xb.o(RESET)
    .ARM.Collect$$$$00000000                 0x080000ec   Section        0  entry.o(.ARM.Collect$$$$00000000)
    .ARM.Collect$$$$00000001                 0x080000ec   Section        4  entry2.o(.ARM.Collect$$$$00000001)
    .ARM.Collect$$$$00000004                 0x080000f0   Section        4  entry5.o(.ARM.Collect$$$$00000004)
    .ARM.Collect$$$$00000008                 0x080000f4   Section        0  entry7b.o(.ARM.Collect$$$$00000008)
    .ARM.Collect$$$$0000000A                 0x080000f4   Section        0  entry8b.o(.ARM.Collect$$$$0000000A)
    .ARM.Collect$$$$0000000B                 0x080000f4   Section        8  entry9a.o(.ARM.Collect$$$$0000000B)
    .ARM.Collect$$$$0000000D                 0x080000fc   Section        0  entry10a.o(.ARM.Collect$$$$0000000D)
    .ARM.Collect$$$$0000000F                 0x080000fc   Section        0  entry11a.o(.ARM.Collect$$$$0000000F)
    .ARM.Collect$$$$00002712                 0x080000fc   Section        4  entry2.o(.ARM.Collect$$$$00002712)
    __lit__00000000                          0x080000fc   Data           4  entry2.o(.ARM.Collect$$$$00002712)
    .emb_text                                0x08000100   Section      150  port.o(.emb_text)
    .text                                    0x08000198   Section       36  startup_stm32f103xb.o(.text)
    .text                                    0x080001bc   Section        0  uldiv.o(.text)
    .text                                    0x0800021e   Section        0  llushr.o(.text)
    .text                                    0x08000240   Section        0  rand.o(.text)
    .text                                    0x08000264   Section        0  memcpya.o(.text)
    .text                                    0x08000288   Section        0  memseta.o(.text)
    .text                                    0x080002ac   Section        0  strlen.o(.text)
    .text                                    0x080002ba   Section        0  strcpy.o(.text)
    .text                                    0x080002cc   Section        0  fadd.o(.text)
    .text                                    0x0800037c   Section        0  fscalb.o(.text)
    .text                                    0x08000394   Section        0  fflti.o(.text)
    .text                                    0x080003a6   Section        0  ffltui.o(.text)
    .text                                    0x080003b0   Section        0  ffixui.o(.text)
    .text                                    0x080003d8   Section       20  cfcmple.o(.text)
    .text                                    0x080003ec   Section       20  cfrcmple.o(.text)
    .text                                    0x08000400   Section        0  uidiv.o(.text)
    .text                                    0x0800042c   Section        0  llshl.o(.text)
    .text                                    0x0800044a   Section        0  iusefp.o(.text)
    .text                                    0x0800044a   Section        0  fepilogue.o(.text)
    .text                                    0x080004b8   Section       36  init.o(.text)
    i.ADC_ConversionStop_Disable             0x080004dc   Section        0  stm32f1xx_hal_adc.o(i.ADC_ConversionStop_Disable)
    i.BusFault_Handler                       0x08000532   Section        0  stm32f1xx_it.o(i.BusFault_Handler)
    i.DebugMon_Handler                       0x08000534   Section        0  stm32f1xx_it.o(i.DebugMon_Handler)
    i.EXTI15_10_IRQHandler                   0x08000536   Section        0  stm32f1xx_it.o(i.EXTI15_10_IRQHandler)
    i.Error_Handler                          0x08000554   Section        0  main.o(i.Error_Handler)
    i.GetQueueIR                             0x08000558   Section        0  driver_ir_receiver.o(i.GetQueueIR)
    i.GetQueueRotary                         0x08000564   Section        0  driver_rotary_encoder.o(i.GetQueueRotary)
    i.HAL_ADC_ConfigChannel                  0x08000570   Section        0  stm32f1xx_hal_adc.o(i.HAL_ADC_ConfigChannel)
    i.HAL_ADC_Init                           0x0800066c   Section        0  stm32f1xx_hal_adc.o(i.HAL_ADC_Init)
    i.HAL_ADC_MspInit                        0x08000788   Section        0  adc.o(i.HAL_ADC_MspInit)
    i.HAL_GPIO_EXTI_Callback                 0x080007e0   Section        0  driver_irq.o(i.HAL_GPIO_EXTI_Callback)
    i.HAL_GPIO_EXTI_IRQHandler               0x080007f8   Section        0  stm32f1xx_hal_gpio.o(i.HAL_GPIO_EXTI_IRQHandler)
    i.HAL_GPIO_Init                          0x08000810   Section        0  stm32f1xx_hal_gpio.o(i.HAL_GPIO_Init)
    i.HAL_GPIO_ReadPin                       0x080009f0   Section        0  stm32f1xx_hal_gpio.o(i.HAL_GPIO_ReadPin)
    i.HAL_GPIO_WritePin                      0x080009fa   Section        0  stm32f1xx_hal_gpio.o(i.HAL_GPIO_WritePin)
    i.HAL_GetTick                            0x08000a04   Section        0  stm32f1xx_hal.o(i.HAL_GetTick)
    i.HAL_I2C_Init                           0x08000a10   Section        0  stm32f1xx_hal_i2c.o(i.HAL_I2C_Init)
    i.HAL_I2C_Master_Transmit                0x08000b98   Section        0  stm32f1xx_hal_i2c.o(i.HAL_I2C_Master_Transmit)
    i.HAL_I2C_Mem_Write                      0x08000cc4   Section        0  stm32f1xx_hal_i2c.o(i.HAL_I2C_Mem_Write)
    i.HAL_I2C_MspInit                        0x08000df4   Section        0  i2c.o(i.HAL_I2C_MspInit)
    i.HAL_IncTick                            0x08000e50   Section        0  stm32f1xx_hal.o(i.HAL_IncTick)
    i.HAL_Init                               0x08000e60   Section        0  stm32f1xx_hal.o(i.HAL_Init)
    i.HAL_InitTick                           0x08000e84   Section        0  stm32f1xx_hal_timebase_tim.o(i.HAL_InitTick)
    i.HAL_MspInit                            0x08000f1c   Section        0  stm32f1xx_hal_msp.o(i.HAL_MspInit)
    i.HAL_NVIC_EnableIRQ                     0x08000f64   Section        0  stm32f1xx_hal_cortex.o(i.HAL_NVIC_EnableIRQ)
    i.HAL_NVIC_SetPriority                   0x08000f80   Section        0  stm32f1xx_hal_cortex.o(i.HAL_NVIC_SetPriority)
    i.HAL_NVIC_SetPriorityGrouping           0x08000fc0   Section        0  stm32f1xx_hal_cortex.o(i.HAL_NVIC_SetPriorityGrouping)
    i.HAL_PCD_Init                           0x08000fe4   Section        0  stm32f1xx_hal_pcd.o(i.HAL_PCD_Init)
    i.HAL_PCD_MspInit                        0x080010c0   Section        0  usb.o(i.HAL_PCD_MspInit)
    i.HAL_RCCEx_PeriphCLKConfig              0x080010e8   Section        0  stm32f1xx_hal_rcc_ex.o(i.HAL_RCCEx_PeriphCLKConfig)
    i.HAL_RCC_ClockConfig                    0x080011d4   Section        0  stm32f1xx_hal_rcc.o(i.HAL_RCC_ClockConfig)
    i.HAL_RCC_GetClockConfig                 0x08001300   Section        0  stm32f1xx_hal_rcc.o(i.HAL_RCC_GetClockConfig)
    i.HAL_RCC_GetPCLK1Freq                   0x08001340   Section        0  stm32f1xx_hal_rcc.o(i.HAL_RCC_GetPCLK1Freq)
    i.HAL_RCC_GetPCLK2Freq                   0x08001360   Section        0  stm32f1xx_hal_rcc.o(i.HAL_RCC_GetPCLK2Freq)
    i.HAL_RCC_GetSysClockFreq                0x08001380   Section        0  stm32f1xx_hal_rcc.o(i.HAL_RCC_GetSysClockFreq)
    i.HAL_RCC_OscConfig                      0x080013cc   Section        0  stm32f1xx_hal_rcc.o(i.HAL_RCC_OscConfig)
    i.HAL_SPI_Init                           0x080016ec   Section        0  stm32f1xx_hal_spi.o(i.HAL_SPI_Init)
    i.HAL_SPI_MspInit                        0x080017a0   Section        0  spi.o(i.HAL_SPI_MspInit)
    i.HAL_TIMEx_BreakCallback                0x08001810   Section        0  stm32f1xx_hal_tim_ex.o(i.HAL_TIMEx_BreakCallback)
    i.HAL_TIMEx_CommutCallback               0x08001812   Section        0  stm32f1xx_hal_tim_ex.o(i.HAL_TIMEx_CommutCallback)
    i.HAL_TIMEx_ConfigBreakDeadTime          0x08001814   Section        0  stm32f1xx_hal_tim_ex.o(i.HAL_TIMEx_ConfigBreakDeadTime)
    i.HAL_TIMEx_MasterConfigSynchronization  0x08001868   Section        0  stm32f1xx_hal_tim_ex.o(i.HAL_TIMEx_MasterConfigSynchronization)
    i.HAL_TIM_Base_Init                      0x080018d0   Section        0  stm32f1xx_hal_tim.o(i.HAL_TIM_Base_Init)
    i.HAL_TIM_Base_MspInit                   0x0800192c   Section        0  tim.o(i.HAL_TIM_Base_MspInit)
    i.HAL_TIM_Base_Start_IT                  0x08001968   Section        0  stm32f1xx_hal_tim.o(i.HAL_TIM_Base_Start_IT)
    i.HAL_TIM_ConfigClockSource              0x080019c0   Section        0  stm32f1xx_hal_tim.o(i.HAL_TIM_ConfigClockSource)
    i.HAL_TIM_IC_CaptureCallback             0x08001a9c   Section        0  stm32f1xx_hal_tim.o(i.HAL_TIM_IC_CaptureCallback)
    i.HAL_TIM_IRQHandler                     0x08001a9e   Section        0  stm32f1xx_hal_tim.o(i.HAL_TIM_IRQHandler)
    i.HAL_TIM_MspPostInit                    0x08001c04   Section        0  tim.o(i.HAL_TIM_MspPostInit)
    i.HAL_TIM_OC_DelayElapsedCallback        0x08001cf0   Section        0  stm32f1xx_hal_tim.o(i.HAL_TIM_OC_DelayElapsedCallback)
    i.HAL_TIM_PWM_ConfigChannel              0x08001cf2   Section        0  stm32f1xx_hal_tim.o(i.HAL_TIM_PWM_ConfigChannel)
    i.HAL_TIM_PWM_Init                       0x08001dbe   Section        0  stm32f1xx_hal_tim.o(i.HAL_TIM_PWM_Init)
    i.HAL_TIM_PWM_MspInit                    0x08001e18   Section        0  tim.o(i.HAL_TIM_PWM_MspInit)
    i.HAL_TIM_PWM_PulseFinishedCallback      0x08001e40   Section        0  stm32f1xx_hal_tim.o(i.HAL_TIM_PWM_PulseFinishedCallback)
    i.HAL_TIM_PeriodElapsedCallback          0x08001e44   Section        0  main.o(i.HAL_TIM_PeriodElapsedCallback)
    i.HAL_TIM_TriggerCallback                0x08001e58   Section        0  stm32f1xx_hal_tim.o(i.HAL_TIM_TriggerCallback)
    i.HAL_UART_Init                          0x08001e5a   Section        0  stm32f1xx_hal_uart.o(i.HAL_UART_Init)
    i.HAL_UART_MspInit                       0x08001ec0   Section        0  usart.o(i.HAL_UART_MspInit)
    i.HardFault_Handler                      0x08001f30   Section        0  stm32f1xx_it.o(i.HardFault_Handler)
    i.I2C_IsAcknowledgeFailed                0x08001f32   Section        0  stm32f1xx_hal_i2c.o(i.I2C_IsAcknowledgeFailed)
    I2C_IsAcknowledgeFailed                  0x08001f33   Thumb Code    46  stm32f1xx_hal_i2c.o(i.I2C_IsAcknowledgeFailed)
    i.I2C_MasterRequestWrite                 0x08001f60   Section        0  stm32f1xx_hal_i2c.o(i.I2C_MasterRequestWrite)
    I2C_MasterRequestWrite                   0x08001f61   Thumb Code   150  stm32f1xx_hal_i2c.o(i.I2C_MasterRequestWrite)
    i.I2C_RequestMemoryWrite                 0x08001ffc   Section        0  stm32f1xx_hal_i2c.o(i.I2C_RequestMemoryWrite)
    I2C_RequestMemoryWrite                   0x08001ffd   Thumb Code   162  stm32f1xx_hal_i2c.o(i.I2C_RequestMemoryWrite)
    i.I2C_WaitOnBTFFlagUntilTimeout          0x080020a4   Section        0  stm32f1xx_hal_i2c.o(i.I2C_WaitOnBTFFlagUntilTimeout)
    I2C_WaitOnBTFFlagUntilTimeout            0x080020a5   Thumb Code    86  stm32f1xx_hal_i2c.o(i.I2C_WaitOnBTFFlagUntilTimeout)
    i.I2C_WaitOnFlagUntilTimeout             0x080020fc   Section        0  stm32f1xx_hal_i2c.o(i.I2C_WaitOnFlagUntilTimeout)
    I2C_WaitOnFlagUntilTimeout               0x080020fd   Thumb Code   144  stm32f1xx_hal_i2c.o(i.I2C_WaitOnFlagUntilTimeout)
    i.I2C_WaitOnMasterAddressFlagUntilTimeout 0x0800218c   Section        0  stm32f1xx_hal_i2c.o(i.I2C_WaitOnMasterAddressFlagUntilTimeout)
    I2C_WaitOnMasterAddressFlagUntilTimeout  0x0800218d   Thumb Code   188  stm32f1xx_hal_i2c.o(i.I2C_WaitOnMasterAddressFlagUntilTimeout)
    i.I2C_WaitOnTXEFlagUntilTimeout          0x08002248   Section        0  stm32f1xx_hal_i2c.o(i.I2C_WaitOnTXEFlagUntilTimeout)
    I2C_WaitOnTXEFlagUntilTimeout            0x08002249   Thumb Code    86  stm32f1xx_hal_i2c.o(i.I2C_WaitOnTXEFlagUntilTimeout)
    i.IRReceiver_IRQTimes_Parse              0x080022a0   Section        0  driver_ir_receiver.o(i.IRReceiver_IRQTimes_Parse)
    IRReceiver_IRQTimes_Parse                0x080022a1   Thumb Code   262  driver_ir_receiver.o(i.IRReceiver_IRQTimes_Parse)
    i.IRReceiver_IRQ_Callback                0x080023c4   Section        0  driver_ir_receiver.o(i.IRReceiver_IRQ_Callback)
    i.IRReceiver_Init                        0x08002480   Section        0  driver_ir_receiver.o(i.IRReceiver_Init)
    i.InputTask                              0x08002498   Section        0  game1.o(i.InputTask)
    i.LCD_Clear                              0x080024c8   Section        0  driver_lcd.o(i.LCD_Clear)
    i.LCD_Flush                              0x080024cc   Section        0  driver_lcd.o(i.LCD_Flush)
    i.LCD_FlushRegion                        0x080024d0   Section        0  driver_lcd.o(i.LCD_FlushRegion)
    i.LCD_GetFrameBuffer                     0x080024d4   Section        0  driver_lcd.o(i.LCD_GetFrameBuffer)
    i.LCD_Init                               0x080024d8   Section        0  driver_lcd.o(i.LCD_Init)
    i.LCD_PrintString                        0x080024dc   Section        0  driver_lcd.o(i.LCD_PrintString)
    i.MX_ADC1_Init                           0x080024e0   Section        0  adc.o(i.MX_ADC1_Init)
    i.MX_FREERTOS_Init                       0x08002530   Section        0  freertos.o(i.MX_FREERTOS_Init)
    i.MX_GPIO_Init                           0x08002580   Section        0  gpio.o(i.MX_GPIO_Init)
    i.MX_I2C1_Init                           0x080026d0   Section        0  i2c.o(i.MX_I2C1_Init)
    i.MX_SPI1_Init                           0x08002710   Section        0  spi.o(i.MX_SPI1_Init)
    i.MX_TIM1_Init                           0x08002758   Section        0  tim.o(i.MX_TIM1_Init)
    i.MX_TIM2_Init                           0x08002828   Section        0  tim.o(i.MX_TIM2_Init)
    i.MX_TIM3_Init                           0x080028e4   Section        0  tim.o(i.MX_TIM3_Init)
    i.MX_USART1_UART_Init                    0x0800295c   Section        0  usart.o(i.MX_USART1_UART_Init)
    i.MX_USB_PCD_Init                        0x08002994   Section        0  usb.o(i.MX_USB_PCD_Init)
    i.MemManage_Handler                      0x080029c8   Section        0  stm32f1xx_it.o(i.MemManage_Handler)
    i.NMI_Handler                            0x080029ca   Section        0  stm32f1xx_it.o(i.NMI_Handler)
    i.OLED_Clear                             0x080029cc   Section        0  driver_oled.o(i.OLED_Clear)
    i.OLED_Flush                             0x080029f8   Section        0  driver_oled.o(i.OLED_Flush)
    i.OLED_FlushRegion                       0x08002a30   Section        0  driver_oled.o(i.OLED_FlushRegion)
    i.OLED_GetFrameBuffer                    0x08002a90   Section        0  driver_oled.o(i.OLED_GetFrameBuffer)
    i.OLED_Init                              0x08002aa4   Section        0  driver_oled.o(i.OLED_Init)
    i.OLED_PrintString                       0x08002b38   Section        0  driver_oled.o(i.OLED_PrintString)
    i.OLED_PutChar                           0x08002b6c   Section        0  driver_oled.o(i.OLED_PutChar)
    i.OLED_SetComConfig                      0x08002bb4   Section        0  driver_oled.o(i.OLED_SetComConfig)
    OLED_SetComConfig                        0x08002bb5   Thumb Code    44  driver_oled.o(i.OLED_SetComConfig)
    i.OLED_SetPosition                       0x08002be0   Section        0  driver_oled.o(i.OLED_SetPosition)
    i.OLED_WriteCmd                          0x08002c20   Section        0  driver_oled.o(i.OLED_WriteCmd)
    OLED_WriteCmd                            0x08002c21   Thumb Code    34  driver_oled.o(i.OLED_WriteCmd)
    i.OLED_WriteNBytes                       0x08002c48   Section        0  driver_oled.o(i.OLED_WriteNBytes)
    OLED_WriteNBytes                         0x08002c49   Thumb Code    26  driver_oled.o(i.OLED_WriteNBytes)
    i.ProcessIRData                          0x08002c68   Section        0  game1.o(i.ProcessIRData)
    ProcessIRData                            0x08002c69   Thumb Code    70  game1.o(i.ProcessIRData)
    i.ProcessRotaryData                      0x08002cb4   Section        0  game1.o(i.ProcessRotaryData)
    ProcessRotaryData                        0x08002cb5   Thumb Code    98  game1.o(i.ProcessRotaryData)
    i.RotaryEncoder_IRQ_Callback             0x08002d1c   Section        0  driver_rotary_encoder.o(i.RotaryEncoder_IRQ_Callback)
    i.RotaryEncoder_Init                     0x08002d9c   Section        0  driver_rotary_encoder.o(i.RotaryEncoder_Init)
    i.SysTick_Handler                        0x08002dc0   Section        0  port.o(i.SysTick_Handler)
    i.SystemClock_Config                     0x08002dec   Section        0  main.o(i.SystemClock_Config)
    i.SystemInit                             0x08002e68   Section        0  system_stm32f1xx.o(i.SystemInit)
    i.TIM4_IRQHandler                        0x08002e6c   Section        0  stm32f1xx_it.o(i.TIM4_IRQHandler)
    i.TIM_Base_SetConfig                     0x08002e78   Section        0  stm32f1xx_hal_tim.o(i.TIM_Base_SetConfig)
    i.TIM_ETR_SetConfig                      0x08002ee4   Section        0  stm32f1xx_hal_tim.o(i.TIM_ETR_SetConfig)
    i.TIM_ITRx_SetConfig                     0x08002ef8   Section        0  stm32f1xx_hal_tim.o(i.TIM_ITRx_SetConfig)
    TIM_ITRx_SetConfig                       0x08002ef9   Thumb Code    16  stm32f1xx_hal_tim.o(i.TIM_ITRx_SetConfig)
    i.TIM_OC1_SetConfig                      0x08002f08   Section        0  stm32f1xx_hal_tim.o(i.TIM_OC1_SetConfig)
    TIM_OC1_SetConfig                        0x08002f09   Thumb Code    74  stm32f1xx_hal_tim.o(i.TIM_OC1_SetConfig)
    i.TIM_OC2_SetConfig                      0x08002f58   Section        0  stm32f1xx_hal_tim.o(i.TIM_OC2_SetConfig)
    i.TIM_OC3_SetConfig                      0x08002fb0   Section        0  stm32f1xx_hal_tim.o(i.TIM_OC3_SetConfig)
    TIM_OC3_SetConfig                        0x08002fb1   Thumb Code    82  stm32f1xx_hal_tim.o(i.TIM_OC3_SetConfig)
    i.TIM_OC4_SetConfig                      0x08003008   Section        0  stm32f1xx_hal_tim.o(i.TIM_OC4_SetConfig)
    TIM_OC4_SetConfig                        0x08003009   Thumb Code    64  stm32f1xx_hal_tim.o(i.TIM_OC4_SetConfig)
    i.TIM_TI1_ConfigInputStage               0x0800304c   Section        0  stm32f1xx_hal_tim.o(i.TIM_TI1_ConfigInputStage)
    TIM_TI1_ConfigInputStage                 0x0800304d   Thumb Code    34  stm32f1xx_hal_tim.o(i.TIM_TI1_ConfigInputStage)
    i.TIM_TI2_ConfigInputStage               0x0800306e   Section        0  stm32f1xx_hal_tim.o(i.TIM_TI2_ConfigInputStage)
    TIM_TI2_ConfigInputStage                 0x0800306f   Thumb Code    36  stm32f1xx_hal_tim.o(i.TIM_TI2_ConfigInputStage)
    i.UART_SetConfig                         0x08003094   Section        0  stm32f1xx_hal_uart.o(i.UART_SetConfig)
    UART_SetConfig                           0x08003095   Thumb Code   178  stm32f1xx_hal_uart.o(i.UART_SetConfig)
    i.USB_CoreInit                           0x0800314c   Section        0  stm32f1xx_ll_usb.o(i.USB_CoreInit)
    i.USB_DevDisconnect                      0x08003150   Section        0  stm32f1xx_ll_usb.o(i.USB_DevDisconnect)
    i.USB_DevInit                            0x08003154   Section        0  stm32f1xx_ll_usb.o(i.USB_DevInit)
    i.USB_DisableGlobalInt                   0x08003166   Section        0  stm32f1xx_ll_usb.o(i.USB_DisableGlobalInt)
    i.USB_SetCurrentMode                     0x08003174   Section        0  stm32f1xx_ll_usb.o(i.USB_SetCurrentMode)
    i.UsageFault_Handler                     0x08003178   Section        0  stm32f1xx_it.o(i.UsageFault_Handler)
    i.__0sprintf$3                           0x0800317c   Section        0  printf3.o(i.__0sprintf$3)
    i.__NVIC_SetPriority                     0x080031a4   Section        0  stm32f1xx_hal_cortex.o(i.__NVIC_SetPriority)
    __NVIC_SetPriority                       0x080031a5   Thumb Code    32  stm32f1xx_hal_cortex.o(i.__NVIC_SetPriority)
    i.__scatterload_copy                     0x080031c4   Section       14  handlers.o(i.__scatterload_copy)
    i.__scatterload_null                     0x080031d2   Section        2  handlers.o(i.__scatterload_null)
    i.__scatterload_zeroinit                 0x080031d4   Section       14  handlers.o(i.__scatterload_zeroinit)
    i._printf_core                           0x080031e4   Section        0  printf3.o(i._printf_core)
    _printf_core                             0x080031e5   Thumb Code   436  printf3.o(i._printf_core)
    i._sputc                                 0x0800339c   Section        0  printf3.o(i._sputc)
    _sputc                                   0x0800339d   Thumb Code    10  printf3.o(i._sputc)
    i.draw_bitmap                            0x080033a8   Section        0  draw.o(i.draw_bitmap)
    i.draw_end                               0x08003578   Section        0  draw.o(i.draw_end)
    i.draw_flushArea                         0x0800357c   Section        0  draw.o(i.draw_flushArea)
    i.draw_init                              0x08003598   Section        0  draw.o(i.draw_init)
    i.draw_string                            0x080035b0   Section        0  draw.o(i.draw_string)
    i.draw_string_P                          0x08003660   Section        0  draw.o(i.draw_string_P)
    i.free                                   0x08003698   Section        0  malloc.o(i.free)
    i.game1_draw                             0x080036e8   Section        0  game1.o(i.game1_draw)
    i.game1_task                             0x08003a74   Section        0  game1.o(i.game1_task)
    i.main                                   0x08003b60   Section        0  main.o(i.main)
    i.malloc                                 0x08003b9c   Section        0  malloc.o(i.malloc)
    i.mdelay                                 0x08003c08   Section        0  driver_timer.o(i.mdelay)
    i.osKernelInitialize                     0x08003c24   Section        0  cmsis_os2.o(i.osKernelInitialize)
    i.osKernelStart                          0x08003c5c   Section        0  cmsis_os2.o(i.osKernelStart)
    i.platform_task                          0x08003c9c   Section        0  game1.o(i.platform_task)
    platform_task                            0x08003c9d   Thumb Code   192  game1.o(i.platform_task)
    i.prvAddCurrentTaskToDelayedList         0x08003d64   Section        0  tasks.o(i.prvAddCurrentTaskToDelayedList)
    prvAddCurrentTaskToDelayedList           0x08003d65   Thumb Code    84  tasks.o(i.prvAddCurrentTaskToDelayedList)
    i.prvAddNewTaskToReadyList               0x08003dc0   Section        0  tasks.o(i.prvAddNewTaskToReadyList)
    prvAddNewTaskToReadyList                 0x08003dc1   Thumb Code   190  tasks.o(i.prvAddNewTaskToReadyList)
    i.prvCheckForValidListAndQueue           0x08003e90   Section        0  timers.o(i.prvCheckForValidListAndQueue)
    prvCheckForValidListAndQueue             0x08003e91   Thumb Code    72  timers.o(i.prvCheckForValidListAndQueue)
    i.prvCopyDataFromQueue                   0x08003ee8   Section        0  queue.o(i.prvCopyDataFromQueue)
    prvCopyDataFromQueue                     0x08003ee9   Thumb Code    38  queue.o(i.prvCopyDataFromQueue)
    i.prvCopyDataToQueue                     0x08003f0e   Section        0  queue.o(i.prvCopyDataToQueue)
    prvCopyDataToQueue                       0x08003f0f   Thumb Code   108  queue.o(i.prvCopyDataToQueue)
    i.prvDeleteTCB                           0x08003f7a   Section        0  tasks.o(i.prvDeleteTCB)
    prvDeleteTCB                             0x08003f7b   Thumb Code    52  tasks.o(i.prvDeleteTCB)
    i.prvHeapInit                            0x08003fb0   Section        0  heap_4.o(i.prvHeapInit)
    prvHeapInit                              0x08003fb1   Thumb Code    66  heap_4.o(i.prvHeapInit)
    i.prvIdleTask                            0x08003ffc   Section        0  tasks.o(i.prvIdleTask)
    prvIdleTask                              0x08003ffd   Thumb Code    82  tasks.o(i.prvIdleTask)
    i.prvInitialiseNewQueue                  0x0800405c   Section        0  queue.o(i.prvInitialiseNewQueue)
    prvInitialiseNewQueue                    0x0800405d   Thumb Code    38  queue.o(i.prvInitialiseNewQueue)
    i.prvInitialiseNewTask                   0x08004082   Section        0  tasks.o(i.prvInitialiseNewTask)
    prvInitialiseNewTask                     0x08004083   Thumb Code   156  tasks.o(i.prvInitialiseNewTask)
    i.prvInsertBlockIntoFreeList             0x08004120   Section        0  heap_4.o(i.prvInsertBlockIntoFreeList)
    prvInsertBlockIntoFreeList               0x08004121   Thumb Code    72  heap_4.o(i.prvInsertBlockIntoFreeList)
    i.prvInsertTimerInActiveList             0x0800416c   Section        0  timers.o(i.prvInsertTimerInActiveList)
    prvInsertTimerInActiveList               0x0800416d   Thumb Code    52  timers.o(i.prvInsertTimerInActiveList)
    i.prvIsQueueEmpty                        0x080041a4   Section        0  queue.o(i.prvIsQueueEmpty)
    prvIsQueueEmpty                          0x080041a5   Thumb Code    28  queue.o(i.prvIsQueueEmpty)
    i.prvNotifyQueueSetContainer             0x080041c0   Section        0  queue.o(i.prvNotifyQueueSetContainer)
    prvNotifyQueueSetContainer               0x080041c1   Thumb Code   108  queue.o(i.prvNotifyQueueSetContainer)
    i.prvProcessReceivedCommands             0x0800422c   Section        0  timers.o(i.prvProcessReceivedCommands)
    prvProcessReceivedCommands               0x0800422d   Thumb Code   198  timers.o(i.prvProcessReceivedCommands)
    i.prvProcessTimerOrBlockTask             0x080042f8   Section        0  timers.o(i.prvProcessTimerOrBlockTask)
    prvProcessTimerOrBlockTask               0x080042f9   Thumb Code   172  timers.o(i.prvProcessTimerOrBlockTask)
    i.prvResetNextTaskUnblockTime            0x080043ac   Section        0  tasks.o(i.prvResetNextTaskUnblockTime)
    prvResetNextTaskUnblockTime              0x080043ad   Thumb Code    26  tasks.o(i.prvResetNextTaskUnblockTime)
    i.prvSampleTimeNow                       0x080043cc   Section        0  timers.o(i.prvSampleTimeNow)
    prvSampleTimeNow                         0x080043cd   Thumb Code    36  timers.o(i.prvSampleTimeNow)
    i.prvSwitchTimerLists                    0x080043f4   Section        0  timers.o(i.prvSwitchTimerLists)
    prvSwitchTimerLists                      0x080043f5   Thumb Code   102  timers.o(i.prvSwitchTimerLists)
    i.prvTaskExitError                       0x08004460   Section        0  port.o(i.prvTaskExitError)
    prvTaskExitError                         0x08004461   Thumb Code    36  port.o(i.prvTaskExitError)
    i.prvTimerTask                           0x08004488   Section        0  timers.o(i.prvTimerTask)
    prvTimerTask                             0x08004489   Thumb Code    32  timers.o(i.prvTimerTask)
    i.prvUnlockQueue                         0x080044ac   Section        0  queue.o(i.prvUnlockQueue)
    prvUnlockQueue                           0x080044ad   Thumb Code   120  queue.o(i.prvUnlockQueue)
    i.pvPortMalloc                           0x08004524   Section        0  heap_4.o(i.pvPortMalloc)
    i.pxPortInitialiseStack                  0x080045fc   Section        0  port.o(i.pxPortInitialiseStack)
    i.readPixels                             0x08004620   Section        0  draw.o(i.readPixels)
    readPixels                               0x08004621   Thumb Code    12  draw.o(i.readPixels)
    i.setBuffByte                            0x0800462c   Section        0  draw.o(i.setBuffByte)
    setBuffByte                              0x0800462d   Thumb Code    20  draw.o(i.setBuffByte)
    i.set_bits                               0x08004644   Section        0  draw.o(i.set_bits)
    set_bits                                 0x08004645   Thumb Code    22  draw.o(i.set_bits)
    i.system_get_ns                          0x0800465c   Section        0  driver_timer.o(i.system_get_ns)
    i.udelay                                 0x080046a0   Section        0  driver_timer.o(i.udelay)
    i.uxListRemove                           0x080046d8   Section        0  list.o(i.uxListRemove)
    i.vApplicationGetIdleTaskMemory          0x08004700   Section        0  cmsis_os2.o(i.vApplicationGetIdleTaskMemory)
    i.vApplicationGetTimerTaskMemory         0x08004714   Section        0  cmsis_os2.o(i.vApplicationGetTimerTaskMemory)
    i.vListInitialise                        0x0800472c   Section        0  list.o(i.vListInitialise)
    i.vListInitialiseItem                    0x08004742   Section        0  list.o(i.vListInitialiseItem)
    i.vListInsert                            0x08004748   Section        0  list.o(i.vListInsert)
    i.vListInsertEnd                         0x08004778   Section        0  list.o(i.vListInsertEnd)
    i.vPortEnterCritical                     0x08004790   Section        0  port.o(i.vPortEnterCritical)
    i.vPortExitCritical                      0x080047d0   Section        0  port.o(i.vPortExitCritical)
    i.vPortFree                              0x080047f8   Section        0  heap_4.o(i.vPortFree)
    i.vPortSetupTimerInterrupt               0x08004854   Section        0  port.o(i.vPortSetupTimerInterrupt)
    i.vPortValidateInterruptPriority         0x08004878   Section        0  port.o(i.vPortValidateInterruptPriority)
    i.vQueueAddToRegistry                    0x080048cc   Section        0  queue.o(i.vQueueAddToRegistry)
    i.vQueueWaitForMessageRestricted         0x080048f4   Section        0  queue.o(i.vQueueWaitForMessageRestricted)
    i.vTaskDelay                             0x08004938   Section        0  tasks.o(i.vTaskDelay)
    i.vTaskInternalSetTimeOutState           0x08004984   Section        0  tasks.o(i.vTaskInternalSetTimeOutState)
    i.vTaskMissedYield                       0x08004994   Section        0  tasks.o(i.vTaskMissedYield)
    i.vTaskPlaceOnEventList                  0x080049a0   Section        0  tasks.o(i.vTaskPlaceOnEventList)
    i.vTaskPlaceOnEventListRestricted        0x080049d0   Section        0  tasks.o(i.vTaskPlaceOnEventListRestricted)
    i.vTaskStartScheduler                    0x08004a08   Section        0  tasks.o(i.vTaskStartScheduler)
    i.vTaskSuspendAll                        0x08004a90   Section        0  tasks.o(i.vTaskSuspendAll)
    i.vTaskSwitchContext                     0x08004aa0   Section        0  tasks.o(i.vTaskSwitchContext)
    i.xPortStartScheduler                    0x08004b04   Section        0  port.o(i.xPortStartScheduler)
    i.xQueueAddToSet                         0x08004bac   Section        0  queue.o(i.xQueueAddToSet)
    i.xQueueCreateSet                        0x08004bce   Section        0  queue.o(i.xQueueCreateSet)
    i.xQueueGenericCreate                    0x08004bd6   Section        0  queue.o(i.xQueueGenericCreate)
    i.xQueueGenericCreateStatic              0x08004c1e   Section        0  queue.o(i.xQueueGenericCreateStatic)
    i.xQueueGenericReset                     0x08004c84   Section        0  queue.o(i.xQueueGenericReset)
    i.xQueueGenericSend                      0x08004d0c   Section        0  queue.o(i.xQueueGenericSend)
    i.xQueueGenericSendFromISR               0x08004e78   Section        0  queue.o(i.xQueueGenericSendFromISR)
    i.xQueueReceive                          0x08004f44   Section        0  queue.o(i.xQueueReceive)
    i.xQueueSelectFromSet                    0x0800507c   Section        0  queue.o(i.xQueueSelectFromSet)
    i.xTaskCheckForTimeOut                   0x08005090   Section        0  tasks.o(i.xTaskCheckForTimeOut)
    i.xTaskCreate                            0x08005104   Section        0  tasks.o(i.xTaskCreate)
    i.xTaskCreateStatic                      0x0800515e   Section        0  tasks.o(i.xTaskCreateStatic)
    i.xTaskGetSchedulerState                 0x080051b4   Section        0  tasks.o(i.xTaskGetSchedulerState)
    i.xTaskGetTickCount                      0x080051d0   Section        0  tasks.o(i.xTaskGetTickCount)
    i.xTaskIncrementTick                     0x080051dc   Section        0  tasks.o(i.xTaskIncrementTick)
    i.xTaskPriorityDisinherit                0x080052a4   Section        0  tasks.o(i.xTaskPriorityDisinherit)
    i.xTaskRemoveFromEventList               0x08005324   Section        0  tasks.o(i.xTaskRemoveFromEventList)
    i.xTaskResumeAll                         0x08005394   Section        0  tasks.o(i.xTaskResumeAll)
    i.xTimerCreateTimerTask                  0x08005458   Section        0  timers.o(i.xTimerCreateTimerTask)
    i.xTimerGenericCommand                   0x080054b8   Section        0  timers.o(i.xTimerGenericCommand)
    .constdata                               0x08005520   Section       18  stm32f1xx_hal_rcc.o(.constdata)
    aPredivFactorTable                       0x08005520   Data           2  stm32f1xx_hal_rcc.o(.constdata)
    aPLLMULFactorTable                       0x08005522   Data          16  stm32f1xx_hal_rcc.o(.constdata)
    .constdata                               0x08005532   Section       16  system_stm32f1xx.o(.constdata)
    .constdata                               0x08005542   Section        8  system_stm32f1xx.o(.constdata)
    .constdata                               0x0800554a   Section     2048  driver_oled.o(.constdata)
    .constdata                               0x08005d4a   Section       29  game1.o(.constdata)
    ballImg                                  0x08005d4a   Data           2  game1.o(.constdata)
    block                                    0x08005d4c   Data           3  game1.o(.constdata)
    platform                                 0x08005d4f   Data          12  game1.o(.constdata)
    clearImg                                 0x08005d5b   Data          12  game1.o(.constdata)
    .constdata                               0x08005d67   Section        7  resources.o(.constdata)
    .constdata                               0x08005d6e   Section      485  resources.o(.constdata)
    .data                                    0x20000000   Section       12  stm32f1xx_hal.o(.data)
    .data                                    0x2000000c   Section        4  system_stm32f1xx.o(.data)
    .data                                    0x20000010   Section       60  tasks.o(.data)
    pxDelayedTaskList                        0x20000014   Data           4  tasks.o(.data)
    pxOverflowDelayedTaskList                0x20000018   Data           4  tasks.o(.data)
    uxDeletedTasksWaitingCleanUp             0x2000001c   Data           4  tasks.o(.data)
    uxCurrentNumberOfTasks                   0x20000020   Data           4  tasks.o(.data)
    xTickCount                               0x20000024   Data           4  tasks.o(.data)
    uxTopReadyPriority                       0x20000028   Data           4  tasks.o(.data)
    xSchedulerRunning                        0x2000002c   Data           4  tasks.o(.data)
    uxPendedTicks                            0x20000030   Data           4  tasks.o(.data)
    xYieldPending                            0x20000034   Data           4  tasks.o(.data)
    xNumOfOverflows                          0x20000038   Data           4  tasks.o(.data)
    uxTaskNumber                             0x2000003c   Data           4  tasks.o(.data)
    xNextTaskUnblockTime                     0x20000040   Data           4  tasks.o(.data)
    xIdleTaskHandle                          0x20000044   Data           4  tasks.o(.data)
    uxSchedulerSuspended                     0x20000048   Data           4  tasks.o(.data)
    .data                                    0x2000004c   Section       20  timers.o(.data)
    pxCurrentTimerList                       0x2000004c   Data           4  timers.o(.data)
    pxOverflowTimerList                      0x20000050   Data           4  timers.o(.data)
    xTimerQueue                              0x20000054   Data           4  timers.o(.data)
    xTimerTaskHandle                         0x20000058   Data           4  timers.o(.data)
    xLastTime                                0x2000005c   Data           4  timers.o(.data)
    .data                                    0x20000060   Section        4  cmsis_os2.o(.data)
    KernelState                              0x20000060   Data           4  cmsis_os2.o(.data)
    .data                                    0x20000064   Section       24  heap_4.o(.data)
    pxEnd                                    0x20000064   Data           4  heap_4.o(.data)
    xFreeBytesRemaining                      0x20000068   Data           4  heap_4.o(.data)
    xMinimumEverFreeBytesRemaining           0x2000006c   Data           4  heap_4.o(.data)
    xBlockAllocatedBit                       0x20000070   Data           4  heap_4.o(.data)
    xStart                                   0x20000074   Data           8  heap_4.o(.data)
    .data                                    0x2000007c   Section       12  port.o(.data)
    ucMaxSysCallPriority                     0x2000007c   Data           1  port.o(.data)
    uxCriticalNesting                        0x20000080   Data           4  port.o(.data)
    ulMaxPRIGROUPValue                       0x20000084   Data           4  port.o(.data)
    .data                                    0x20000088   Section        8  driver_oled.o(.data)
    mem_mode                                 0x20000088   Data           1  driver_oled.o(.data)
    g_pHI2COLED                              0x2000008c   Data           4  driver_oled.o(.data)
    .data                                    0x20000090   Section       24  driver_ir_receiver.o(.data)
    g_IRReceiverIRQ_Cnt                      0x20000090   Data           4  driver_ir_receiver.o(.data)
    g_KeysBuf_R                              0x20000094   Data           4  driver_ir_receiver.o(.data)
    g_KeysBuf_W                              0x20000098   Data           4  driver_ir_receiver.o(.data)
    g_xQueueIR                               0x2000009c   Data           4  driver_ir_receiver.o(.data)
    pre_time                                 0x200000a0   Data           8  driver_ir_receiver.o(.data)
    .data                                    0x200000a8   Section       24  driver_rotary_encoder.o(.data)
    g_count                                  0x200000a8   Data           4  driver_rotary_encoder.o(.data)
    g_speed                                  0x200000ac   Data           4  driver_rotary_encoder.o(.data)
    pre_count                                0x200000b0   Data           4  driver_rotary_encoder.o(.data)
    g_xQueueRotary                           0x200000b4   Data           4  driver_rotary_encoder.o(.data)
    pre_time                                 0x200000b8   Data           8  driver_rotary_encoder.o(.data)
    .data                                    0x200000c0   Section       20  draw.o(.data)
    bInUsed                                  0x200000c0   Data           4  draw.o(.data)
    oledBuffer                               0x200000c4   Data           4  draw.o(.data)
    g_xres                                   0x200000c8   Data           4  draw.o(.data)
    g_yres                                   0x200000cc   Data           4  draw.o(.data)
    g_bpp                                    0x200000d0   Data           4  draw.o(.data)
    .data                                    0x200000d4   Section       60  game1.o(.data)
    first                                    0x200000d4   Data           1  game1.o(.data)
    uptMove                                  0x200000d5   Data           1  game1.o(.data)
    lives                                    0x200000d6   Data           1  game1.o(.data)
    lives_origin                             0x200000d7   Data           1  game1.o(.data)
    platformX                                0x200000d8   Data           1  game1.o(.data)
    score                                    0x200000da   Data           2  game1.o(.data)
    blocks                                   0x200000dc   Data           4  game1.o(.data)
    g_xres                                   0x200000e0   Data           4  game1.o(.data)
    g_yres                                   0x200000e4   Data           4  game1.o(.data)
    g_bpp                                    0x200000e8   Data           4  game1.o(.data)
    g_framebuffer                            0x200000ec   Data           4  game1.o(.data)
    g_xQueueSetInput                         0x200000f0   Data           4  game1.o(.data)
    g_xQueuePlatform                         0x200000f4   Data           4  game1.o(.data)
    g_xQueueIR                               0x200000f8   Data           4  game1.o(.data)
    g_xQueueRotary                           0x200000fc   Data           4  game1.o(.data)
    inputdata                                0x20000100   Data           8  game1.o(.data)
    idata                                    0x20000108   Data           8  game1.o(.data)
    .data                                    0x20000110   Section        4  rand.o(.data)
    _rand_state                              0x20000110   Data           4  rand.o(.data)
    .data                                    0x20000114   Section        4  mvars.o(.data)
    .data                                    0x20000118   Section        4  mvars.o(.data)
    .bss                                     0x2000011c   Section       48  adc.o(.bss)
    .bss                                     0x2000014c   Section       84  i2c.o(.bss)
    .bss                                     0x200001a0   Section       88  spi.o(.bss)
    .bss                                     0x200001f8   Section      216  tim.o(.bss)
    .bss                                     0x200002d0   Section       72  usart.o(.bss)
    .bss                                     0x20000318   Section      752  usb.o(.bss)
    .bss                                     0x20000608   Section       72  stm32f1xx_hal_timebase_tim.o(.bss)
    .bss                                     0x20000650   Section       64  queue.o(.bss)
    .bss                                     0x20000690   Section     1220  tasks.o(.bss)
    pxReadyTasksLists                        0x20000690   Data        1120  tasks.o(.bss)
    xDelayedTaskList1                        0x20000af0   Data          20  tasks.o(.bss)
    xDelayedTaskList2                        0x20000b04   Data          20  tasks.o(.bss)
    xPendingReadyList                        0x20000b18   Data          20  tasks.o(.bss)
    xTasksWaitingTermination                 0x20000b2c   Data          20  tasks.o(.bss)
    xSuspendedTaskList                       0x20000b40   Data          20  tasks.o(.bss)
    .bss                                     0x20000b54   Section      284  timers.o(.bss)
    xActiveTimerList1                        0x20000b54   Data          20  timers.o(.bss)
    xActiveTimerList2                        0x20000b68   Data          20  timers.o(.bss)
    xStaticTimerQueue                        0x20000b7c   Data          84  timers.o(.bss)
    ucStaticTimerQueueStorage                0x20000bd0   Data         160  timers.o(.bss)
    .bss                                     0x20000c70   Section     1720  cmsis_os2.o(.bss)
    Idle_TCB                                 0x20000c70   Data          92  cmsis_os2.o(.bss)
    Idle_Stack                               0x20000ccc   Data         512  cmsis_os2.o(.bss)
    Timer_TCB                                0x20000ecc   Data          92  cmsis_os2.o(.bss)
    Timer_Stack                              0x20000f28   Data        1024  cmsis_os2.o(.bss)
    .bss                                     0x20001328   Section     8000  heap_4.o(.bss)
    ucHeap                                   0x20001328   Data        8000  heap_4.o(.bss)
    .bss                                     0x20003268   Section     1024  driver_oled.o(.bss)
    oledBuffer                               0x20003268   Data        1024  driver_oled.o(.bss)
    .bss                                     0x20003668   Section      672  driver_ir_receiver.o(.bss)
    g_KeysBuf                                0x20003668   Data         128  driver_ir_receiver.o(.bss)
    g_IRReceiverIRQ_Timers                   0x200036e8   Data         544  driver_ir_receiver.o(.bss)
    .bss                                     0x20003908   Section      164  driver_rotary_encoder.o(.bss)
    g_ucQueueRotaryBuf                       0x20003908   Data          80  driver_rotary_encoder.o(.bss)
    g_xQueueRotaryStaticStruct               0x20003958   Data          84  driver_rotary_encoder.o(.bss)
    .bss                                     0x200039ac   Section       16  game1.o(.bss)
    ball                                     0x200039ac   Data          16  game1.o(.bss)
    HEAP                                     0x200039c0   Section      512  startup_stm32f103xb.o(HEAP)
    STACK                                    0x20003bc0   Section     1024  startup_stm32f103xb.o(STACK)

    Global Symbols

    Symbol Name                              Value     Ov Type        Size  Object(Section)

    BuildAttributes$$THM_ISAv4$P$D$K$B$S$PE$A:L22UL41UL21$X:L11$S22US41US21$IEEE1$IW$USESV6$~STKCKD$USESV7$~SHL$OTIME$ROPI$EBA8$MICROLIB$REQ8$PRES8$EABIv2 0x00000000   Number         0  anon$$obj.o ABSOLUTE
    __ARM_use_no_argv                        0x00000000   Number         0  main.o ABSOLUTE
    _printf_a                                0x00000000   Number         0  stubs.o ABSOLUTE
    _printf_c                                0x00000000   Number         0  stubs.o ABSOLUTE
    _printf_charcount                        0x00000000   Number         0  stubs.o ABSOLUTE
    _printf_d                                0x00000000   Number         0  stubs.o ABSOLUTE
    _printf_e                                0x00000000   Number         0  stubs.o ABSOLUTE
    _printf_f                                0x00000000   Number         0  stubs.o ABSOLUTE
    _printf_flags                            0x00000000   Number         0  stubs.o ABSOLUTE
    _printf_fp_dec                           0x00000000   Number         0  stubs.o ABSOLUTE
    _printf_fp_hex                           0x00000000   Number         0  stubs.o ABSOLUTE
    _printf_g                                0x00000000   Number         0  stubs.o ABSOLUTE
    _printf_i                                0x00000000   Number         0  stubs.o ABSOLUTE
    _printf_int_dec                          0x00000000   Number         0  stubs.o ABSOLUTE
    _printf_l                                0x00000000   Number         0  stubs.o ABSOLUTE
    _printf_lc                               0x00000000   Number         0  stubs.o ABSOLUTE
    _printf_ll                               0x00000000   Number         0  stubs.o ABSOLUTE
    _printf_lld                              0x00000000   Number         0  stubs.o ABSOLUTE
    _printf_lli                              0x00000000   Number         0  stubs.o ABSOLUTE
    _printf_llo                              0x00000000   Number         0  stubs.o ABSOLUTE
    _printf_llu                              0x00000000   Number         0  stubs.o ABSOLUTE
    _printf_llx                              0x00000000   Number         0  stubs.o ABSOLUTE
    _printf_longlong_dec                     0x00000000   Number         0  stubs.o ABSOLUTE
    _printf_longlong_hex                     0x00000000   Number         0  stubs.o ABSOLUTE
    _printf_longlong_oct                     0x00000000   Number         0  stubs.o ABSOLUTE
    _printf_ls                               0x00000000   Number         0  stubs.o ABSOLUTE
    _printf_mbtowc                           0x00000000   Number         0  stubs.o ABSOLUTE
    _printf_n                                0x00000000   Number         0  stubs.o ABSOLUTE
    _printf_o                                0x00000000   Number         0  stubs.o ABSOLUTE
    _printf_p                                0x00000000   Number         0  stubs.o ABSOLUTE
    _printf_percent                          0x00000000   Number         0  stubs.o ABSOLUTE
    _printf_pre_padding                      0x00000000   Number         0  stubs.o ABSOLUTE
    _printf_return_value                     0x00000000   Number         0  stubs.o ABSOLUTE
    _printf_s                                0x00000000   Number         0  stubs.o ABSOLUTE
    _printf_sizespec                         0x00000000   Number         0  stubs.o ABSOLUTE
    _printf_str                              0x00000000   Number         0  stubs.o ABSOLUTE
    _printf_truncate_signed                  0x00000000   Number         0  stubs.o ABSOLUTE
    _printf_truncate_unsigned                0x00000000   Number         0  stubs.o ABSOLUTE
    _printf_u                                0x00000000   Number         0  stubs.o ABSOLUTE
    _printf_wc                               0x00000000   Number         0  stubs.o ABSOLUTE
    _printf_wctomb                           0x00000000   Number         0  stubs.o ABSOLUTE
    _printf_widthprec                        0x00000000   Number         0  stubs.o ABSOLUTE
    _printf_x                                0x00000000   Number         0  stubs.o ABSOLUTE
    __cpp_initialize__aeabi_                  - Undefined Weak Reference
    __cxa_finalize                            - Undefined Weak Reference
    __decompress                              - Undefined Weak Reference
    _clock_init                               - Undefined Weak Reference
    _microlib_exit                            - Undefined Weak Reference
    __Vectors_Size                           0x000000ec   Number         0  startup_stm32f103xb.o ABSOLUTE
    __Vectors                                0x08000000   Data           4  startup_stm32f103xb.o(RESET)
    __Vectors_End                            0x080000ec   Data           0  startup_stm32f103xb.o(RESET)
    __main                                   0x080000ed   Thumb Code     0  entry.o(.ARM.Collect$$$$00000000)
    _main_stk                                0x080000ed   Thumb Code     0  entry2.o(.ARM.Collect$$$$00000001)
    _main_scatterload                        0x080000f1   Thumb Code     0  entry5.o(.ARM.Collect$$$$00000004)
    __main_after_scatterload                 0x080000f5   Thumb Code     0  entry5.o(.ARM.Collect$$$$00000004)
    _main_clock                              0x080000f5   Thumb Code     0  entry7b.o(.ARM.Collect$$$$00000008)
    _main_cpp_init                           0x080000f5   Thumb Code     0  entry8b.o(.ARM.Collect$$$$0000000A)
    _main_init                               0x080000f5   Thumb Code     0  entry9a.o(.ARM.Collect$$$$0000000B)
    __rt_final_cpp                           0x080000fd   Thumb Code     0  entry10a.o(.ARM.Collect$$$$0000000D)
    __rt_final_exit                          0x080000fd   Thumb Code     0  entry11a.o(.ARM.Collect$$$$0000000F)
    SVC_Handler                              0x08000101   Thumb Code    32  port.o(.emb_text)
    __asm___6_port_c_39a90d8d__prvStartFirstTask 0x08000125   Thumb Code    28  port.o(.emb_text)
    PendSV_Handler                           0x08000145   Thumb Code    72  port.o(.emb_text)
    vPortGetIPSR                             0x08000191   Thumb Code     6  port.o(.emb_text)
    Reset_Handler                            0x08000199   Thumb Code     8  startup_stm32f103xb.o(.text)
    ADC1_2_IRQHandler                        0x080001b3   Thumb Code     0  startup_stm32f103xb.o(.text)
    CAN1_RX1_IRQHandler                      0x080001b3   Thumb Code     0  startup_stm32f103xb.o(.text)
    CAN1_SCE_IRQHandler                      0x080001b3   Thumb Code     0  startup_stm32f103xb.o(.text)
    DMA1_Channel1_IRQHandler                 0x080001b3   Thumb Code     0  startup_stm32f103xb.o(.text)
    DMA1_Channel2_IRQHandler                 0x080001b3   Thumb Code     0  startup_stm32f103xb.o(.text)
    DMA1_Channel3_IRQHandler                 0x080001b3   Thumb Code     0  startup_stm32f103xb.o(.text)
    DMA1_Channel4_IRQHandler                 0x080001b3   Thumb Code     0  startup_stm32f103xb.o(.text)
    DMA1_Channel5_IRQHandler                 0x080001b3   Thumb Code     0  startup_stm32f103xb.o(.text)
    DMA1_Channel6_IRQHandler                 0x080001b3   Thumb Code     0  startup_stm32f103xb.o(.text)
    DMA1_Channel7_IRQHandler                 0x080001b3   Thumb Code     0  startup_stm32f103xb.o(.text)
    EXTI0_IRQHandler                         0x080001b3   Thumb Code     0  startup_stm32f103xb.o(.text)
    EXTI1_IRQHandler                         0x080001b3   Thumb Code     0  startup_stm32f103xb.o(.text)
    EXTI2_IRQHandler                         0x080001b3   Thumb Code     0  startup_stm32f103xb.o(.text)
    EXTI3_IRQHandler                         0x080001b3   Thumb Code     0  startup_stm32f103xb.o(.text)
    EXTI4_IRQHandler                         0x080001b3   Thumb Code     0  startup_stm32f103xb.o(.text)
    EXTI9_5_IRQHandler                       0x080001b3   Thumb Code     0  startup_stm32f103xb.o(.text)
    FLASH_IRQHandler                         0x080001b3   Thumb Code     0  startup_stm32f103xb.o(.text)
    I2C1_ER_IRQHandler                       0x080001b3   Thumb Code     0  startup_stm32f103xb.o(.text)
    I2C1_EV_IRQHandler                       0x080001b3   Thumb Code     0  startup_stm32f103xb.o(.text)
    I2C2_ER_IRQHandler                       0x080001b3   Thumb Code     0  startup_stm32f103xb.o(.text)
    I2C2_EV_IRQHandler                       0x080001b3   Thumb Code     0  startup_stm32f103xb.o(.text)
    PVD_IRQHandler                           0x080001b3   Thumb Code     0  startup_stm32f103xb.o(.text)
    RCC_IRQHandler                           0x080001b3   Thumb Code     0  startup_stm32f103xb.o(.text)
    RTC_Alarm_IRQHandler                     0x080001b3   Thumb Code     0  startup_stm32f103xb.o(.text)
    RTC_IRQHandler                           0x080001b3   Thumb Code     0  startup_stm32f103xb.o(.text)
    SPI1_IRQHandler                          0x080001b3   Thumb Code     0  startup_stm32f103xb.o(.text)
    SPI2_IRQHandler                          0x080001b3   Thumb Code     0  startup_stm32f103xb.o(.text)
    TAMPER_IRQHandler                        0x080001b3   Thumb Code     0  startup_stm32f103xb.o(.text)
    TIM1_BRK_IRQHandler                      0x080001b3   Thumb Code     0  startup_stm32f103xb.o(.text)
    TIM1_CC_IRQHandler                       0x080001b3   Thumb Code     0  startup_stm32f103xb.o(.text)
    TIM1_TRG_COM_IRQHandler                  0x080001b3   Thumb Code     0  startup_stm32f103xb.o(.text)
    TIM1_UP_IRQHandler                       0x080001b3   Thumb Code     0  startup_stm32f103xb.o(.text)
    TIM2_IRQHandler                          0x080001b3   Thumb Code     0  startup_stm32f103xb.o(.text)
    TIM3_IRQHandler                          0x080001b3   Thumb Code     0  startup_stm32f103xb.o(.text)
    USART1_IRQHandler                        0x080001b3   Thumb Code     0  startup_stm32f103xb.o(.text)
    USART2_IRQHandler                        0x080001b3   Thumb Code     0  startup_stm32f103xb.o(.text)
    USART3_IRQHandler                        0x080001b3   Thumb Code     0  startup_stm32f103xb.o(.text)
    USBWakeUp_IRQHandler                     0x080001b3   Thumb Code     0  startup_stm32f103xb.o(.text)
    USB_HP_CAN1_TX_IRQHandler                0x080001b3   Thumb Code     0  startup_stm32f103xb.o(.text)
    USB_LP_CAN1_RX0_IRQHandler               0x080001b3   Thumb Code     0  startup_stm32f103xb.o(.text)
    WWDG_IRQHandler                          0x080001b3   Thumb Code     0  startup_stm32f103xb.o(.text)
    __aeabi_uldivmod                         0x080001bd   Thumb Code    98  uldiv.o(.text)
    __aeabi_llsr                             0x0800021f   Thumb Code    32  llushr.o(.text)
    _ll_ushift_r                             0x0800021f   Thumb Code     0  llushr.o(.text)
    rand                                     0x08000241   Thumb Code    20  rand.o(.text)
    srand                                    0x08000255   Thumb Code     6  rand.o(.text)
    __aeabi_memcpy                           0x08000265   Thumb Code    36  memcpya.o(.text)
    __aeabi_memcpy4                          0x08000265   Thumb Code     0  memcpya.o(.text)
    __aeabi_memcpy8                          0x08000265   Thumb Code     0  memcpya.o(.text)
    __aeabi_memset                           0x08000289   Thumb Code    14  memseta.o(.text)
    __aeabi_memset4                          0x08000289   Thumb Code     0  memseta.o(.text)
    __aeabi_memset8                          0x08000289   Thumb Code     0  memseta.o(.text)
    __aeabi_memclr                           0x08000297   Thumb Code     4  memseta.o(.text)
    __aeabi_memclr4                          0x08000297   Thumb Code     0  memseta.o(.text)
    __aeabi_memclr8                          0x08000297   Thumb Code     0  memseta.o(.text)
    memset                                   0x0800029b   Thumb Code    18  memseta.o(.text)
    strlen                                   0x080002ad   Thumb Code    14  strlen.o(.text)
    strcpy                                   0x080002bb   Thumb Code    18  strcpy.o(.text)
    __aeabi_fadd                             0x080002cd   Thumb Code   164  fadd.o(.text)
    __aeabi_fsub                             0x08000371   Thumb Code     6  fadd.o(.text)
    __aeabi_frsub                            0x08000377   Thumb Code     6  fadd.o(.text)
    __ARM_scalbnf                            0x0800037d   Thumb Code    24  fscalb.o(.text)
    scalbnf                                  0x0800037d   Thumb Code     0  fscalb.o(.text)
    __aeabi_i2f                              0x08000395   Thumb Code    18  fflti.o(.text)
    __aeabi_ui2f                             0x080003a7   Thumb Code    10  ffltui.o(.text)
    __aeabi_f2uiz                            0x080003b1   Thumb Code    40  ffixui.o(.text)
    __aeabi_cfcmpeq                          0x080003d9   Thumb Code     0  cfcmple.o(.text)
    __aeabi_cfcmple                          0x080003d9   Thumb Code    20  cfcmple.o(.text)
    __aeabi_cfrcmple                         0x080003ed   Thumb Code    20  cfrcmple.o(.text)
    __aeabi_uidiv                            0x08000401   Thumb Code     0  uidiv.o(.text)
    __aeabi_uidivmod                         0x08000401   Thumb Code    44  uidiv.o(.text)
    __aeabi_llsl                             0x0800042d   Thumb Code    30  llshl.o(.text)
    _ll_shift_l                              0x0800042d   Thumb Code     0  llshl.o(.text)
    __I$use$fp                               0x0800044b   Thumb Code     0  iusefp.o(.text)
    _float_round                             0x0800044b   Thumb Code    18  fepilogue.o(.text)
    _float_epilogue                          0x0800045d   Thumb Code    92  fepilogue.o(.text)
    __scatterload                            0x080004b9   Thumb Code    28  init.o(.text)
    __scatterload_rt2                        0x080004b9   Thumb Code     0  init.o(.text)
    ADC_ConversionStop_Disable               0x080004dd   Thumb Code    86  stm32f1xx_hal_adc.o(i.ADC_ConversionStop_Disable)
    BusFault_Handler                         0x08000533   Thumb Code     2  stm32f1xx_it.o(i.BusFault_Handler)
    DebugMon_Handler                         0x08000535   Thumb Code     2  stm32f1xx_it.o(i.DebugMon_Handler)
    EXTI15_10_IRQHandler                     0x08000537   Thumb Code    30  stm32f1xx_it.o(i.EXTI15_10_IRQHandler)
    Error_Handler                            0x08000555   Thumb Code     4  main.o(i.Error_Handler)
    GetQueueIR                               0x08000559   Thumb Code     6  driver_ir_receiver.o(i.GetQueueIR)
    GetQueueRotary                           0x08000565   Thumb Code     6  driver_rotary_encoder.o(i.GetQueueRotary)
    HAL_ADC_ConfigChannel                    0x08000571   Thumb Code   240  stm32f1xx_hal_adc.o(i.HAL_ADC_ConfigChannel)
    HAL_ADC_Init                             0x0800066d   Thumb Code   272  stm32f1xx_hal_adc.o(i.HAL_ADC_Init)
    HAL_ADC_MspInit                          0x08000789   Thumb Code    76  adc.o(i.HAL_ADC_MspInit)
    HAL_GPIO_EXTI_Callback                   0x080007e1   Thumb Code    22  driver_irq.o(i.HAL_GPIO_EXTI_Callback)
    HAL_GPIO_EXTI_IRQHandler                 0x080007f9   Thumb Code    18  stm32f1xx_hal_gpio.o(i.HAL_GPIO_EXTI_IRQHandler)
    HAL_GPIO_Init                            0x08000811   Thumb Code   446  stm32f1xx_hal_gpio.o(i.HAL_GPIO_Init)
    HAL_GPIO_ReadPin                         0x080009f1   Thumb Code    10  stm32f1xx_hal_gpio.o(i.HAL_GPIO_ReadPin)
    HAL_GPIO_WritePin                        0x080009fb   Thumb Code    10  stm32f1xx_hal_gpio.o(i.HAL_GPIO_WritePin)
    HAL_GetTick                              0x08000a05   Thumb Code     6  stm32f1xx_hal.o(i.HAL_GetTick)
    HAL_I2C_Init                             0x08000a11   Thumb Code   376  stm32f1xx_hal_i2c.o(i.HAL_I2C_Init)
    HAL_I2C_Master_Transmit                  0x08000b99   Thumb Code   290  stm32f1xx_hal_i2c.o(i.HAL_I2C_Master_Transmit)
    HAL_I2C_Mem_Write                        0x08000cc5   Thumb Code   294  stm32f1xx_hal_i2c.o(i.HAL_I2C_Mem_Write)
    HAL_I2C_MspInit                          0x08000df5   Thumb Code    80  i2c.o(i.HAL_I2C_MspInit)
    HAL_IncTick                              0x08000e51   Thumb Code    12  stm32f1xx_hal.o(i.HAL_IncTick)
    HAL_Init                                 0x08000e61   Thumb Code    32  stm32f1xx_hal.o(i.HAL_Init)
    HAL_InitTick                             0x08000e85   Thumb Code   132  stm32f1xx_hal_timebase_tim.o(i.HAL_InitTick)
    HAL_MspInit                              0x08000f1d   Thumb Code    62  stm32f1xx_hal_msp.o(i.HAL_MspInit)
    HAL_NVIC_EnableIRQ                       0x08000f65   Thumb Code    26  stm32f1xx_hal_cortex.o(i.HAL_NVIC_EnableIRQ)
    HAL_NVIC_SetPriority                     0x08000f81   Thumb Code    60  stm32f1xx_hal_cortex.o(i.HAL_NVIC_SetPriority)
    HAL_NVIC_SetPriorityGrouping             0x08000fc1   Thumb Code    26  stm32f1xx_hal_cortex.o(i.HAL_NVIC_SetPriorityGrouping)
    HAL_PCD_Init                             0x08000fe5   Thumb Code   218  stm32f1xx_hal_pcd.o(i.HAL_PCD_Init)
    HAL_PCD_MspInit                          0x080010c1   Thumb Code    30  usb.o(i.HAL_PCD_MspInit)
    HAL_RCCEx_PeriphCLKConfig                0x080010e9   Thumb Code   224  stm32f1xx_hal_rcc_ex.o(i.HAL_RCCEx_PeriphCLKConfig)
    HAL_RCC_ClockConfig                      0x080011d5   Thumb Code   280  stm32f1xx_hal_rcc.o(i.HAL_RCC_ClockConfig)
    HAL_RCC_GetClockConfig                   0x08001301   Thumb Code    54  stm32f1xx_hal_rcc.o(i.HAL_RCC_GetClockConfig)
    HAL_RCC_GetPCLK1Freq                     0x08001341   Thumb Code    20  stm32f1xx_hal_rcc.o(i.HAL_RCC_GetPCLK1Freq)
    HAL_RCC_GetPCLK2Freq                     0x08001361   Thumb Code    20  stm32f1xx_hal_rcc.o(i.HAL_RCC_GetPCLK2Freq)
    HAL_RCC_GetSysClockFreq                  0x08001381   Thumb Code    58  stm32f1xx_hal_rcc.o(i.HAL_RCC_GetSysClockFreq)
    HAL_RCC_OscConfig                        0x080013cd   Thumb Code   778  stm32f1xx_hal_rcc.o(i.HAL_RCC_OscConfig)
    HAL_SPI_Init                             0x080016ed   Thumb Code   178  stm32f1xx_hal_spi.o(i.HAL_SPI_Init)
    HAL_SPI_MspInit                          0x080017a1   Thumb Code    98  spi.o(i.HAL_SPI_MspInit)
    HAL_TIMEx_BreakCallback                  0x08001811   Thumb Code     2  stm32f1xx_hal_tim_ex.o(i.HAL_TIMEx_BreakCallback)
    HAL_TIMEx_CommutCallback                 0x08001813   Thumb Code     2  stm32f1xx_hal_tim_ex.o(i.HAL_TIMEx_CommutCallback)
    HAL_TIMEx_ConfigBreakDeadTime            0x08001815   Thumb Code    84  stm32f1xx_hal_tim_ex.o(i.HAL_TIMEx_ConfigBreakDeadTime)
    HAL_TIMEx_MasterConfigSynchronization    0x08001869   Thumb Code    92  stm32f1xx_hal_tim_ex.o(i.HAL_TIMEx_MasterConfigSynchronization)
    HAL_TIM_Base_Init                        0x080018d1   Thumb Code    90  stm32f1xx_hal_tim.o(i.HAL_TIM_Base_Init)
    HAL_TIM_Base_MspInit                     0x0800192d   Thumb Code    52  tim.o(i.HAL_TIM_Base_MspInit)
    HAL_TIM_Base_Start_IT                    0x08001969   Thumb Code    76  stm32f1xx_hal_tim.o(i.HAL_TIM_Base_Start_IT)
    HAL_TIM_ConfigClockSource                0x080019c1   Thumb Code   220  stm32f1xx_hal_tim.o(i.HAL_TIM_ConfigClockSource)
    HAL_TIM_IC_CaptureCallback               0x08001a9d   Thumb Code     2  stm32f1xx_hal_tim.o(i.HAL_TIM_IC_CaptureCallback)
    HAL_TIM_IRQHandler                       0x08001a9f   Thumb Code   358  stm32f1xx_hal_tim.o(i.HAL_TIM_IRQHandler)
    HAL_TIM_MspPostInit                      0x08001c05   Thumb Code   212  tim.o(i.HAL_TIM_MspPostInit)
    HAL_TIM_OC_DelayElapsedCallback          0x08001cf1   Thumb Code     2  stm32f1xx_hal_tim.o(i.HAL_TIM_OC_DelayElapsedCallback)
    HAL_TIM_PWM_ConfigChannel                0x08001cf3   Thumb Code   204  stm32f1xx_hal_tim.o(i.HAL_TIM_PWM_ConfigChannel)
    HAL_TIM_PWM_Init                         0x08001dbf   Thumb Code    90  stm32f1xx_hal_tim.o(i.HAL_TIM_PWM_Init)
    HAL_TIM_PWM_MspInit                      0x08001e19   Thumb Code    30  tim.o(i.HAL_TIM_PWM_MspInit)
    HAL_TIM_PWM_PulseFinishedCallback        0x08001e41   Thumb Code     2  stm32f1xx_hal_tim.o(i.HAL_TIM_PWM_PulseFinishedCallback)
    HAL_TIM_PeriodElapsedCallback            0x08001e45   Thumb Code    14  main.o(i.HAL_TIM_PeriodElapsedCallback)
    HAL_TIM_TriggerCallback                  0x08001e59   Thumb Code     2  stm32f1xx_hal_tim.o(i.HAL_TIM_TriggerCallback)
    HAL_UART_Init                            0x08001e5b   Thumb Code   100  stm32f1xx_hal_uart.o(i.HAL_UART_Init)
    HAL_UART_MspInit                         0x08001ec1   Thumb Code   100  usart.o(i.HAL_UART_MspInit)
    HardFault_Handler                        0x08001f31   Thumb Code     2  stm32f1xx_it.o(i.HardFault_Handler)
    IRReceiver_IRQ_Callback                  0x080023c5   Thumb Code   162  driver_ir_receiver.o(i.IRReceiver_IRQ_Callback)
    IRReceiver_Init                          0x08002481   Thumb Code    18  driver_ir_receiver.o(i.IRReceiver_Init)
    InputTask                                0x08002499   Thumb Code    42  game1.o(i.InputTask)
    LCD_Clear                                0x080024c9   Thumb Code     4  driver_lcd.o(i.LCD_Clear)
    LCD_Flush                                0x080024cd   Thumb Code     4  driver_lcd.o(i.LCD_Flush)
    LCD_FlushRegion                          0x080024d1   Thumb Code     4  driver_lcd.o(i.LCD_FlushRegion)
    LCD_GetFrameBuffer                       0x080024d5   Thumb Code     4  driver_lcd.o(i.LCD_GetFrameBuffer)
    LCD_Init                                 0x080024d9   Thumb Code     4  driver_lcd.o(i.LCD_Init)
    LCD_PrintString                          0x080024dd   Thumb Code     4  driver_lcd.o(i.LCD_PrintString)
    MX_ADC1_Init                             0x080024e1   Thumb Code    70  adc.o(i.MX_ADC1_Init)
    MX_FREERTOS_Init                         0x08002531   Thumb Code    50  freertos.o(i.MX_FREERTOS_Init)
    MX_GPIO_Init                             0x08002581   Thumb Code   310  gpio.o(i.MX_GPIO_Init)
    MX_I2C1_Init                             0x080026d1   Thumb Code    50  i2c.o(i.MX_I2C1_Init)
    MX_SPI1_Init                             0x08002711   Thumb Code    62  spi.o(i.MX_SPI1_Init)
    MX_TIM1_Init                             0x08002759   Thumb Code   198  tim.o(i.MX_TIM1_Init)
    MX_TIM2_Init                             0x08002829   Thumb Code   182  tim.o(i.MX_TIM2_Init)
    MX_TIM3_Init                             0x080028e5   Thumb Code   110  tim.o(i.MX_TIM3_Init)
    MX_USART1_UART_Init                      0x0800295d   Thumb Code    48  usart.o(i.MX_USART1_UART_Init)
    MX_USB_PCD_Init                          0x08002995   Thumb Code    42  usb.o(i.MX_USB_PCD_Init)
    MemManage_Handler                        0x080029c9   Thumb Code     2  stm32f1xx_it.o(i.MemManage_Handler)
    NMI_Handler                              0x080029cb   Thumb Code     2  stm32f1xx_it.o(i.NMI_Handler)
    OLED_Clear                               0x080029cd   Thumb Code    42  driver_oled.o(i.OLED_Clear)
    OLED_Flush                               0x080029f9   Thumb Code    50  driver_oled.o(i.OLED_Flush)
    OLED_FlushRegion                         0x08002a31   Thumb Code    90  driver_oled.o(i.OLED_FlushRegion)
    OLED_GetFrameBuffer                      0x08002a91   Thumb Code    16  driver_oled.o(i.OLED_GetFrameBuffer)
    OLED_Init                                0x08002aa5   Thumb Code   142  driver_oled.o(i.OLED_Init)
    OLED_PrintString                         0x08002b39   Thumb Code    50  driver_oled.o(i.OLED_PrintString)
    OLED_PutChar                             0x08002b6d   Thumb Code    66  driver_oled.o(i.OLED_PutChar)
    OLED_SetPosition                         0x08002be1   Thumb Code    58  driver_oled.o(i.OLED_SetPosition)
    RotaryEncoder_IRQ_Callback               0x08002d1d   Thumb Code   116  driver_rotary_encoder.o(i.RotaryEncoder_IRQ_Callback)
    RotaryEncoder_Init                       0x08002d9d   Thumb Code    26  driver_rotary_encoder.o(i.RotaryEncoder_Init)
    SysTick_Handler                          0x08002dc1   Thumb Code    38  port.o(i.SysTick_Handler)
    SystemClock_Config                       0x08002ded   Thumb Code   124  main.o(i.SystemClock_Config)
    SystemInit                               0x08002e69   Thumb Code     2  system_stm32f1xx.o(i.SystemInit)
    TIM4_IRQHandler                          0x08002e6d   Thumb Code     6  stm32f1xx_it.o(i.TIM4_IRQHandler)
    TIM_Base_SetConfig                       0x08002e79   Thumb Code    94  stm32f1xx_hal_tim.o(i.TIM_Base_SetConfig)
    TIM_ETR_SetConfig                        0x08002ee5   Thumb Code    20  stm32f1xx_hal_tim.o(i.TIM_ETR_SetConfig)
    TIM_OC2_SetConfig                        0x08002f59   Thumb Code    84  stm32f1xx_hal_tim.o(i.TIM_OC2_SetConfig)
    USB_CoreInit                             0x0800314d   Thumb Code     4  stm32f1xx_ll_usb.o(i.USB_CoreInit)
    USB_DevDisconnect                        0x08003151   Thumb Code     4  stm32f1xx_ll_usb.o(i.USB_DevDisconnect)
    USB_DevInit                              0x08003155   Thumb Code    18  stm32f1xx_ll_usb.o(i.USB_DevInit)
    USB_DisableGlobalInt                     0x08003167   Thumb Code    14  stm32f1xx_ll_usb.o(i.USB_DisableGlobalInt)
    USB_SetCurrentMode                       0x08003175   Thumb Code     4  stm32f1xx_ll_usb.o(i.USB_SetCurrentMode)
    UsageFault_Handler                       0x08003179   Thumb Code     2  stm32f1xx_it.o(i.UsageFault_Handler)
    __0sprintf$3                             0x0800317d   Thumb Code    34  printf3.o(i.__0sprintf$3)
    __1sprintf$3                             0x0800317d   Thumb Code     0  printf3.o(i.__0sprintf$3)
    __2sprintf                               0x0800317d   Thumb Code     0  printf3.o(i.__0sprintf$3)
    __scatterload_copy                       0x080031c5   Thumb Code    14  handlers.o(i.__scatterload_copy)
    __scatterload_null                       0x080031d3   Thumb Code     2  handlers.o(i.__scatterload_null)
    __scatterload_zeroinit                   0x080031d5   Thumb Code    14  handlers.o(i.__scatterload_zeroinit)
    draw_bitmap                              0x080033a9   Thumb Code   458  draw.o(i.draw_bitmap)
    draw_end                                 0x08003579   Thumb Code     4  draw.o(i.draw_end)
    draw_flushArea                           0x0800357d   Thumb Code    24  draw.o(i.draw_flushArea)
    draw_init                                0x08003599   Thumb Code    20  draw.o(i.draw_init)
    draw_string                              0x080035b1   Thumb Code   166  draw.o(i.draw_string)
    draw_string_P                            0x08003661   Thumb Code    54  draw.o(i.draw_string_P)
    free                                     0x08003699   Thumb Code    76  malloc.o(i.free)
    game1_draw                               0x080036e9   Thumb Code   862  game1.o(i.game1_draw)
    game1_task                               0x08003a75   Thumb Code   188  game1.o(i.game1_task)
    main                                     0x08003b61   Thumb Code    58  main.o(i.main)
    malloc                                   0x08003b9d   Thumb Code    92  malloc.o(i.malloc)
    mdelay                                   0x08003c09   Thumb Code    26  driver_timer.o(i.mdelay)
    osKernelInitialize                       0x08003c25   Thumb Code    50  cmsis_os2.o(i.osKernelInitialize)
    osKernelStart                            0x08003c5d   Thumb Code    58  cmsis_os2.o(i.osKernelStart)
    pvPortMalloc                             0x08004525   Thumb Code   210  heap_4.o(i.pvPortMalloc)
    pxPortInitialiseStack                    0x080045fd   Thumb Code    32  port.o(i.pxPortInitialiseStack)
    system_get_ns                            0x0800465d   Thumb Code    58  driver_timer.o(i.system_get_ns)
    udelay                                   0x080046a1   Thumb Code    52  driver_timer.o(i.udelay)
    uxListRemove                             0x080046d9   Thumb Code    38  list.o(i.uxListRemove)
    vApplicationGetIdleTaskMemory            0x08004701   Thumb Code    16  cmsis_os2.o(i.vApplicationGetIdleTaskMemory)
    vApplicationGetTimerTaskMemory           0x08004715   Thumb Code    18  cmsis_os2.o(i.vApplicationGetTimerTaskMemory)
    vListInitialise                          0x0800472d   Thumb Code    22  list.o(i.vListInitialise)
    vListInitialiseItem                      0x08004743   Thumb Code     6  list.o(i.vListInitialiseItem)
    vListInsert                              0x08004749   Thumb Code    48  list.o(i.vListInsert)
    vListInsertEnd                           0x08004779   Thumb Code    24  list.o(i.vListInsertEnd)
    vPortEnterCritical                       0x08004791   Thumb Code    54  port.o(i.vPortEnterCritical)
    vPortExitCritical                        0x080047d1   Thumb Code    34  port.o(i.vPortExitCritical)
    vPortFree                                0x080047f9   Thumb Code    88  heap_4.o(i.vPortFree)
    vPortSetupTimerInterrupt                 0x08004855   Thumb Code    32  port.o(i.vPortSetupTimerInterrupt)
    vPortValidateInterruptPriority           0x08004879   Thumb Code    74  port.o(i.vPortValidateInterruptPriority)
    vQueueAddToRegistry                      0x080048cd   Thumb Code    34  queue.o(i.vQueueAddToRegistry)
    vQueueWaitForMessageRestricted           0x080048f5   Thumb Code    68  queue.o(i.vQueueWaitForMessageRestricted)
    vTaskDelay                               0x08004939   Thumb Code    66  tasks.o(i.vTaskDelay)
    vTaskInternalSetTimeOutState             0x08004985   Thumb Code    12  tasks.o(i.vTaskInternalSetTimeOutState)
    vTaskMissedYield                         0x08004995   Thumb Code     8  tasks.o(i.vTaskMissedYield)
    vTaskPlaceOnEventList                    0x080049a1   Thumb Code    44  tasks.o(i.vTaskPlaceOnEventList)
    vTaskPlaceOnEventListRestricted          0x080049d1   Thumb Code    52  tasks.o(i.vTaskPlaceOnEventListRestricted)
    vTaskStartScheduler                      0x08004a09   Thumb Code   118  tasks.o(i.vTaskStartScheduler)
    vTaskSuspendAll                          0x08004a91   Thumb Code    10  tasks.o(i.vTaskSuspendAll)
    vTaskSwitchContext                       0x08004aa1   Thumb Code    90  tasks.o(i.vTaskSwitchContext)
    xPortStartScheduler                      0x08004b05   Thumb Code   154  port.o(i.xPortStartScheduler)
    xQueueAddToSet                           0x08004bad   Thumb Code    34  queue.o(i.xQueueAddToSet)
    xQueueCreateSet                          0x08004bcf   Thumb Code     8  queue.o(i.xQueueCreateSet)
    xQueueGenericCreate                      0x08004bd7   Thumb Code    72  queue.o(i.xQueueGenericCreate)
    xQueueGenericCreateStatic                0x08004c1f   Thumb Code   102  queue.o(i.xQueueGenericCreateStatic)
    xQueueGenericReset                       0x08004c85   Thumb Code   132  queue.o(i.xQueueGenericReset)
    xQueueGenericSend                        0x08004d0d   Thumb Code   360  queue.o(i.xQueueGenericSend)
    xQueueGenericSendFromISR                 0x08004e79   Thumb Code   202  queue.o(i.xQueueGenericSendFromISR)
    xQueueReceive                            0x08004f45   Thumb Code   308  queue.o(i.xQueueReceive)
    xQueueSelectFromSet                      0x0800507d   Thumb Code    18  queue.o(i.xQueueSelectFromSet)
    xTaskCheckForTimeOut                     0x08005091   Thumb Code   112  tasks.o(i.xTaskCheckForTimeOut)
    xTaskCreate                              0x08005105   Thumb Code    90  tasks.o(i.xTaskCreate)
    xTaskCreateStatic                        0x0800515f   Thumb Code    86  tasks.o(i.xTaskCreateStatic)
    xTaskGetSchedulerState                   0x080051b5   Thumb Code    22  tasks.o(i.xTaskGetSchedulerState)
    xTaskGetTickCount                        0x080051d1   Thumb Code     6  tasks.o(i.xTaskGetTickCount)
    xTaskIncrementTick                       0x080051dd   Thumb Code   190  tasks.o(i.xTaskIncrementTick)
    xTaskPriorityDisinherit                  0x080052a5   Thumb Code   118  tasks.o(i.xTaskPriorityDisinherit)
    xTaskRemoveFromEventList                 0x08005325   Thumb Code    98  tasks.o(i.xTaskRemoveFromEventList)
    xTaskResumeAll                           0x08005395   Thumb Code   182  tasks.o(i.xTaskResumeAll)
    xTimerCreateTimerTask                    0x08005459   Thumb Code    78  timers.o(i.xTimerCreateTimerTask)
    xTimerGenericCommand                     0x080054b9   Thumb Code    98  timers.o(i.xTimerGenericCommand)
    AHBPrescTable                            0x08005532   Data          16  system_stm32f1xx.o(.constdata)
    APBPrescTable                            0x08005542   Data           8  system_stm32f1xx.o(.constdata)
    ascii_font                               0x0800554a   Data        2048  driver_oled.o(.constdata)
    livesImg                                 0x08005d67   Data           7  resources.o(.constdata)
    smallFont                                0x08005d6e   Data         485  resources.o(.constdata)
    Region$$Table$$Base                      0x08005f54   Number         0  anon$$obj.o(Region$$Table)
    Region$$Table$$Limit                     0x08005f74   Number         0  anon$$obj.o(Region$$Table)
    uwTickFreq                               0x20000000   Data           1  stm32f1xx_hal.o(.data)
    uwTickPrio                               0x20000004   Data           4  stm32f1xx_hal.o(.data)
    uwTick                                   0x20000008   Data           4  stm32f1xx_hal.o(.data)
    SystemCoreClock                          0x2000000c   Data           4  system_stm32f1xx.o(.data)
    pxCurrentTCB                             0x20000010   Data           4  tasks.o(.data)
    __microlib_freelist                      0x20000114   Data           4  mvars.o(.data)
    __microlib_freelist_initialised          0x20000118   Data           4  mvars.o(.data)
    hadc1                                    0x2000011c   Data          48  adc.o(.bss)
    hi2c1                                    0x2000014c   Data          84  i2c.o(.bss)
    hspi1                                    0x200001a0   Data          88  spi.o(.bss)
    htim1                                    0x200001f8   Data          72  tim.o(.bss)
    htim2                                    0x20000240   Data          72  tim.o(.bss)
    htim3                                    0x20000288   Data          72  tim.o(.bss)
    huart1                                   0x200002d0   Data          72  usart.o(.bss)
    hpcd_USB_FS                              0x20000318   Data         752  usb.o(.bss)
    htim4                                    0x20000608   Data          72  stm32f1xx_hal_timebase_tim.o(.bss)
    xQueueRegistry                           0x20000650   Data          64  queue.o(.bss)
    __heap_base                              0x200039c0   Data           0  startup_stm32f103xb.o(HEAP)
    __heap_limit                             0x20003bc0   Data           0  startup_stm32f103xb.o(HEAP)
    __initial_sp                             0x20003fc0   Data           0  startup_stm32f103xb.o(STACK)



==============================================================================

Memory Map of the image

  Image Entry point : 0x080000ed

  Load Region LR_IROM1 (Base: 0x08000000, Size: 0x00006090, Max: 0x00010000, ABSOLUTE)

    Execution Region ER_IROM1 (Exec base: 0x08000000, Load base: 0x08000000, Size: 0x00005f74, Max: 0x00010000, ABSOLUTE)

    Exec Addr    Load Addr    Size         Type   Attr      Idx    E Section Name        Object

    0x08000000   0x08000000   0x000000ec   Data   RO            3    RESET               startup_stm32f103xb.o
    0x080000ec   0x080000ec   0x00000000   Code   RO         7636  * .ARM.Collect$$$$00000000  mc_w.l(entry.o)
    0x080000ec   0x080000ec   0x00000004   Code   RO         7969    .ARM.Collect$$$$00000001  mc_w.l(entry2.o)
    0x080000f0   0x080000f0   0x00000004   Code   RO         7972    .ARM.Collect$$$$00000004  mc_w.l(entry5.o)
    0x080000f4   0x080000f4   0x00000000   Code   RO         7974    .ARM.Collect$$$$00000008  mc_w.l(entry7b.o)
    0x080000f4   0x080000f4   0x00000000   Code   RO         7976    .ARM.Collect$$$$0000000A  mc_w.l(entry8b.o)
    0x080000f4   0x080000f4   0x00000008   Code   RO         7977    .ARM.Collect$$$$0000000B  mc_w.l(entry9a.o)
    0x080000fc   0x080000fc   0x00000000   Code   RO         7979    .ARM.Collect$$$$0000000D  mc_w.l(entry10a.o)
    0x080000fc   0x080000fc   0x00000000   Code   RO         7981    .ARM.Collect$$$$0000000F  mc_w.l(entry11a.o)
    0x080000fc   0x080000fc   0x00000004   Code   RO         7970    .ARM.Collect$$$$00002712  mc_w.l(entry2.o)
    0x08000100   0x08000100   0x00000096   Code   RO         6245    .emb_text           port.o
    0x08000196   0x08000196   0x00000002   PAD
    0x08000198   0x08000198   0x00000024   Code   RO            4    .text               startup_stm32f103xb.o
    0x080001bc   0x080001bc   0x00000062   Code   RO         7639    .text               mc_w.l(uldiv.o)
    0x0800021e   0x0800021e   0x00000020   Code   RO         7641    .text               mc_w.l(llushr.o)
    0x0800023e   0x0800023e   0x00000002   PAD
    0x08000240   0x08000240   0x00000024   Code   RO         7643    .text               mc_w.l(rand.o)
    0x08000264   0x08000264   0x00000024   Code   RO         7646    .text               mc_w.l(memcpya.o)
    0x08000288   0x08000288   0x00000024   Code   RO         7650    .text               mc_w.l(memseta.o)
    0x080002ac   0x080002ac   0x0000000e   Code   RO         7652    .text               mc_w.l(strlen.o)
    0x080002ba   0x080002ba   0x00000012   Code   RO         7654    .text               mc_w.l(strcpy.o)
    0x080002cc   0x080002cc   0x000000b0   Code   RO         7947    .text               mf_w.l(fadd.o)
    0x0800037c   0x0800037c   0x00000018   Code   RO         7949    .text               mf_w.l(fscalb.o)
    0x08000394   0x08000394   0x00000012   Code   RO         7955    .text               mf_w.l(fflti.o)
    0x080003a6   0x080003a6   0x0000000a   Code   RO         7957    .text               mf_w.l(ffltui.o)
    0x080003b0   0x080003b0   0x00000028   Code   RO         7961    .text               mf_w.l(ffixui.o)
    0x080003d8   0x080003d8   0x00000014   Code   RO         7965    .text               mf_w.l(cfcmple.o)
    0x080003ec   0x080003ec   0x00000014   Code   RO         7967    .text               mf_w.l(cfrcmple.o)
    0x08000400   0x08000400   0x0000002c   Code   RO         7984    .text               mc_w.l(uidiv.o)
    0x0800042c   0x0800042c   0x0000001e   Code   RO         7986    .text               mc_w.l(llshl.o)
    0x0800044a   0x0800044a   0x00000000   Code   RO         7992    .text               mc_w.l(iusefp.o)
    0x0800044a   0x0800044a   0x0000006e   Code   RO         7993    .text               mf_w.l(fepilogue.o)
    0x080004b8   0x080004b8   0x00000024   Code   RO         8003    .text               mc_w.l(init.o)
    0x080004dc   0x080004dc   0x00000056   Code   RO          823    i.ADC_ConversionStop_Disable  stm32f1xx_hal_adc.o
    0x08000532   0x08000532   0x00000002   Code   RO          654    i.BusFault_Handler  stm32f1xx_it.o
    0x08000534   0x08000534   0x00000002   Code   RO          655    i.DebugMon_Handler  stm32f1xx_it.o
    0x08000536   0x08000536   0x0000001e   Code   RO          656    i.EXTI15_10_IRQHandler  stm32f1xx_it.o
    0x08000554   0x08000554   0x00000004   Code   RO           75    i.Error_Handler     main.o
    0x08000558   0x08000558   0x0000000c   Code   RO         6930    i.GetQueueIR        driver_ir_receiver.o
    0x08000564   0x08000564   0x0000000c   Code   RO         7239    i.GetQueueRotary    driver_rotary_encoder.o
    0x08000570   0x08000570   0x000000fc   Code   RO          829    i.HAL_ADC_ConfigChannel  stm32f1xx_hal_adc.o
    0x0800066c   0x0800066c   0x0000011c   Code   RO          838    i.HAL_ADC_Init      stm32f1xx_hal_adc.o
    0x08000788   0x08000788   0x00000058   Code   RO          373    i.HAL_ADC_MspInit   adc.o
    0x080007e0   0x080007e0   0x00000016   Code   RO         7293    i.HAL_GPIO_EXTI_Callback  driver_irq.o
    0x080007f6   0x080007f6   0x00000002   PAD
    0x080007f8   0x080007f8   0x00000018   Code   RO         1415    i.HAL_GPIO_EXTI_IRQHandler  stm32f1xx_hal_gpio.o
    0x08000810   0x08000810   0x000001e0   Code   RO         1416    i.HAL_GPIO_Init     stm32f1xx_hal_gpio.o
    0x080009f0   0x080009f0   0x0000000a   Code   RO         1418    i.HAL_GPIO_ReadPin  stm32f1xx_hal_gpio.o
    0x080009fa   0x080009fa   0x0000000a   Code   RO         1420    i.HAL_GPIO_WritePin  stm32f1xx_hal_gpio.o
    0x08000a04   0x08000a04   0x0000000c   Code   RO         1110    i.HAL_GetTick       stm32f1xx_hal.o
    0x08000a10   0x08000a10   0x00000188   Code   RO         2087    i.HAL_I2C_Init      stm32f1xx_hal_i2c.o
    0x08000b98   0x08000b98   0x0000012c   Code   RO         2100    i.HAL_I2C_Master_Transmit  stm32f1xx_hal_i2c.o
    0x08000cc4   0x08000cc4   0x00000130   Code   RO         2108    i.HAL_I2C_Mem_Write  stm32f1xx_hal_i2c.o
    0x08000df4   0x08000df4   0x0000005c   Code   RO          415    i.HAL_I2C_MspInit   i2c.o
    0x08000e50   0x08000e50   0x00000010   Code   RO         1116    i.HAL_IncTick       stm32f1xx_hal.o
    0x08000e60   0x08000e60   0x00000024   Code   RO         1117    i.HAL_Init          stm32f1xx_hal.o
    0x08000e84   0x08000e84   0x00000098   Code   RO          748    i.HAL_InitTick      stm32f1xx_hal_timebase_tim.o
    0x08000f1c   0x08000f1c   0x00000048   Code   RO          724    i.HAL_MspInit       stm32f1xx_hal_msp.o
    0x08000f64   0x08000f64   0x0000001a   Code   RO         1576    i.HAL_NVIC_EnableIRQ  stm32f1xx_hal_cortex.o
    0x08000f7e   0x08000f7e   0x00000002   PAD
    0x08000f80   0x08000f80   0x00000040   Code   RO         1582    i.HAL_NVIC_SetPriority  stm32f1xx_hal_cortex.o
    0x08000fc0   0x08000fc0   0x00000024   Code   RO         1583    i.HAL_NVIC_SetPriorityGrouping  stm32f1xx_hal_cortex.o
    0x08000fe4   0x08000fe4   0x000000da   Code   RO         4195    i.HAL_PCD_Init      stm32f1xx_hal_pcd.o
    0x080010be   0x080010be   0x00000002   PAD
    0x080010c0   0x080010c0   0x00000028   Code   RO          613    i.HAL_PCD_MspInit   usb.o
    0x080010e8   0x080010e8   0x000000ec   Code   RO         1378    i.HAL_RCCEx_PeriphCLKConfig  stm32f1xx_hal_rcc_ex.o
    0x080011d4   0x080011d4   0x0000012c   Code   RO         1274    i.HAL_RCC_ClockConfig  stm32f1xx_hal_rcc.o
    0x08001300   0x08001300   0x00000040   Code   RO         1278    i.HAL_RCC_GetClockConfig  stm32f1xx_hal_rcc.o
    0x08001340   0x08001340   0x00000020   Code   RO         1281    i.HAL_RCC_GetPCLK1Freq  stm32f1xx_hal_rcc.o
    0x08001360   0x08001360   0x00000020   Code   RO         1282    i.HAL_RCC_GetPCLK2Freq  stm32f1xx_hal_rcc.o
    0x08001380   0x08001380   0x0000004c   Code   RO         1283    i.HAL_RCC_GetSysClockFreq  stm32f1xx_hal_rcc.o
    0x080013cc   0x080013cc   0x00000320   Code   RO         1286    i.HAL_RCC_OscConfig  stm32f1xx_hal_rcc.o
    0x080016ec   0x080016ec   0x000000b2   Code   RO         2524    i.HAL_SPI_Init      stm32f1xx_hal_spi.o
    0x0800179e   0x0800179e   0x00000002   PAD
    0x080017a0   0x080017a0   0x00000070   Code   RO          457    i.HAL_SPI_MspInit   spi.o
    0x08001810   0x08001810   0x00000002   Code   RO         3541    i.HAL_TIMEx_BreakCallback  stm32f1xx_hal_tim_ex.o
    0x08001812   0x08001812   0x00000002   Code   RO         3542    i.HAL_TIMEx_CommutCallback  stm32f1xx_hal_tim_ex.o
    0x08001814   0x08001814   0x00000054   Code   RO         3544    i.HAL_TIMEx_ConfigBreakDeadTime  stm32f1xx_hal_tim_ex.o
    0x08001868   0x08001868   0x00000068   Code   RO         3560    i.HAL_TIMEx_MasterConfigSynchronization  stm32f1xx_hal_tim_ex.o
    0x080018d0   0x080018d0   0x0000005a   Code   RO         2837    i.HAL_TIM_Base_Init  stm32f1xx_hal_tim.o
    0x0800192a   0x0800192a   0x00000002   PAD
    0x0800192c   0x0800192c   0x0000003c   Code   RO          499    i.HAL_TIM_Base_MspInit  tim.o
    0x08001968   0x08001968   0x00000058   Code   RO         2842    i.HAL_TIM_Base_Start_IT  stm32f1xx_hal_tim.o
    0x080019c0   0x080019c0   0x000000dc   Code   RO         2846    i.HAL_TIM_ConfigClockSource  stm32f1xx_hal_tim.o
    0x08001a9c   0x08001a9c   0x00000002   Code   RO         2871    i.HAL_TIM_IC_CaptureCallback  stm32f1xx_hal_tim.o
    0x08001a9e   0x08001a9e   0x00000166   Code   RO         2885    i.HAL_TIM_IRQHandler  stm32f1xx_hal_tim.o
    0x08001c04   0x08001c04   0x000000ec   Code   RO          500    i.HAL_TIM_MspPostInit  tim.o
    0x08001cf0   0x08001cf0   0x00000002   Code   RO         2888    i.HAL_TIM_OC_DelayElapsedCallback  stm32f1xx_hal_tim.o
    0x08001cf2   0x08001cf2   0x000000cc   Code   RO         2909    i.HAL_TIM_PWM_ConfigChannel  stm32f1xx_hal_tim.o
    0x08001dbe   0x08001dbe   0x0000005a   Code   RO         2912    i.HAL_TIM_PWM_Init  stm32f1xx_hal_tim.o
    0x08001e18   0x08001e18   0x00000028   Code   RO          502    i.HAL_TIM_PWM_MspInit  tim.o
    0x08001e40   0x08001e40   0x00000002   Code   RO         2915    i.HAL_TIM_PWM_PulseFinishedCallback  stm32f1xx_hal_tim.o
    0x08001e42   0x08001e42   0x00000002   PAD
    0x08001e44   0x08001e44   0x00000014   Code   RO           76    i.HAL_TIM_PeriodElapsedCallback  main.o
    0x08001e58   0x08001e58   0x00000002   Code   RO         2928    i.HAL_TIM_TriggerCallback  stm32f1xx_hal_tim.o
    0x08001e5a   0x08001e5a   0x00000064   Code   RO         3838    i.HAL_UART_Init     stm32f1xx_hal_uart.o
    0x08001ebe   0x08001ebe   0x00000002   PAD
    0x08001ec0   0x08001ec0   0x00000070   Code   RO          571    i.HAL_UART_MspInit  usart.o
    0x08001f30   0x08001f30   0x00000002   Code   RO          657    i.HardFault_Handler  stm32f1xx_it.o
    0x08001f32   0x08001f32   0x0000002e   Code   RO         2130    i.I2C_IsAcknowledgeFailed  stm32f1xx_hal_i2c.o
    0x08001f60   0x08001f60   0x0000009c   Code   RO         2134    i.I2C_MasterRequestWrite  stm32f1xx_hal_i2c.o
    0x08001ffc   0x08001ffc   0x000000a8   Code   RO         2141    i.I2C_RequestMemoryWrite  stm32f1xx_hal_i2c.o
    0x080020a4   0x080020a4   0x00000056   Code   RO         2145    i.I2C_WaitOnBTFFlagUntilTimeout  stm32f1xx_hal_i2c.o
    0x080020fa   0x080020fa   0x00000002   PAD
    0x080020fc   0x080020fc   0x00000090   Code   RO         2146    i.I2C_WaitOnFlagUntilTimeout  stm32f1xx_hal_i2c.o
    0x0800218c   0x0800218c   0x000000bc   Code   RO         2147    i.I2C_WaitOnMasterAddressFlagUntilTimeout  stm32f1xx_hal_i2c.o
    0x08002248   0x08002248   0x00000056   Code   RO         2149    i.I2C_WaitOnTXEFlagUntilTimeout  stm32f1xx_hal_i2c.o
    0x0800229e   0x0800229e   0x00000002   PAD
    0x080022a0   0x080022a0   0x00000124   Code   RO         6932    i.IRReceiver_IRQTimes_Parse  driver_ir_receiver.o
    0x080023c4   0x080023c4   0x000000bc   Code   RO         6933    i.IRReceiver_IRQ_Callback  driver_ir_receiver.o
    0x08002480   0x08002480   0x00000018   Code   RO         6934    i.IRReceiver_Init   driver_ir_receiver.o
    0x08002498   0x08002498   0x00000030   Code   RO         7533    i.InputTask         game1.o
    0x080024c8   0x080024c8   0x00000004   Code   RO         6663    i.LCD_Clear         driver_lcd.o
    0x080024cc   0x080024cc   0x00000004   Code   RO         6666    i.LCD_Flush         driver_lcd.o
    0x080024d0   0x080024d0   0x00000004   Code   RO         6667    i.LCD_FlushRegion   driver_lcd.o
    0x080024d4   0x080024d4   0x00000004   Code   RO         6668    i.LCD_GetFrameBuffer  driver_lcd.o
    0x080024d8   0x080024d8   0x00000004   Code   RO         6669    i.LCD_Init          driver_lcd.o
    0x080024dc   0x080024dc   0x00000004   Code   RO         6672    i.LCD_PrintString   driver_lcd.o
    0x080024e0   0x080024e0   0x00000050   Code   RO          374    i.MX_ADC1_Init      adc.o
    0x08002530   0x08002530   0x00000050   Code   RO          279    i.MX_FREERTOS_Init  freertos.o
    0x08002580   0x08002580   0x00000150   Code   RO          255    i.MX_GPIO_Init      gpio.o
    0x080026d0   0x080026d0   0x00000040   Code   RO          416    i.MX_I2C1_Init      i2c.o
    0x08002710   0x08002710   0x00000048   Code   RO          458    i.MX_SPI1_Init      spi.o
    0x08002758   0x08002758   0x000000d0   Code   RO          503    i.MX_TIM1_Init      tim.o
    0x08002828   0x08002828   0x000000bc   Code   RO          504    i.MX_TIM2_Init      tim.o
    0x080028e4   0x080028e4   0x00000078   Code   RO          505    i.MX_TIM3_Init      tim.o
    0x0800295c   0x0800295c   0x00000038   Code   RO          572    i.MX_USART1_UART_Init  usart.o
    0x08002994   0x08002994   0x00000034   Code   RO          614    i.MX_USB_PCD_Init   usb.o
    0x080029c8   0x080029c8   0x00000002   Code   RO          658    i.MemManage_Handler  stm32f1xx_it.o
    0x080029ca   0x080029ca   0x00000002   Code   RO          659    i.NMI_Handler       stm32f1xx_it.o
    0x080029cc   0x080029cc   0x0000002a   Code   RO         6367    i.OLED_Clear        driver_oled.o
    0x080029f6   0x080029f6   0x00000002   PAD
    0x080029f8   0x080029f8   0x00000038   Code   RO         6370    i.OLED_Flush        driver_oled.o
    0x08002a30   0x08002a30   0x00000060   Code   RO         6371    i.OLED_FlushRegion  driver_oled.o
    0x08002a90   0x08002a90   0x00000014   Code   RO         6372    i.OLED_GetFrameBuffer  driver_oled.o
    0x08002aa4   0x08002aa4   0x00000094   Code   RO         6373    i.OLED_Init         driver_oled.o
    0x08002b38   0x08002b38   0x00000032   Code   RO         6376    i.OLED_PrintString  driver_oled.o
    0x08002b6a   0x08002b6a   0x00000002   PAD
    0x08002b6c   0x08002b6c   0x00000048   Code   RO         6377    i.OLED_PutChar      driver_oled.o
    0x08002bb4   0x08002bb4   0x0000002c   Code   RO         6378    i.OLED_SetComConfig  driver_oled.o
    0x08002be0   0x08002be0   0x00000040   Code   RO         6379    i.OLED_SetPosition  driver_oled.o
    0x08002c20   0x08002c20   0x00000028   Code   RO         6381    i.OLED_WriteCmd     driver_oled.o
    0x08002c48   0x08002c48   0x00000020   Code   RO         6382    i.OLED_WriteNBytes  driver_oled.o
    0x08002c68   0x08002c68   0x0000004c   Code   RO         7534    i.ProcessIRData     game1.o
    0x08002cb4   0x08002cb4   0x00000068   Code   RO         7535    i.ProcessRotaryData  game1.o
    0x08002d1c   0x08002d1c   0x00000080   Code   RO         7240    i.RotaryEncoder_IRQ_Callback  driver_rotary_encoder.o
    0x08002d9c   0x08002d9c   0x00000024   Code   RO         7241    i.RotaryEncoder_Init  driver_rotary_encoder.o
    0x08002dc0   0x08002dc0   0x0000002c   Code   RO         6246    i.SysTick_Handler   port.o
    0x08002dec   0x08002dec   0x0000007c   Code   RO           77    i.SystemClock_Config  main.o
    0x08002e68   0x08002e68   0x00000002   Code   RO         4637    i.SystemInit        system_stm32f1xx.o
    0x08002e6a   0x08002e6a   0x00000002   PAD
    0x08002e6c   0x08002e6c   0x0000000c   Code   RO          660    i.TIM4_IRQHandler   stm32f1xx_it.o
    0x08002e78   0x08002e78   0x0000006c   Code   RO         2930    i.TIM_Base_SetConfig  stm32f1xx_hal_tim.o
    0x08002ee4   0x08002ee4   0x00000014   Code   RO         2941    i.TIM_ETR_SetConfig  stm32f1xx_hal_tim.o
    0x08002ef8   0x08002ef8   0x00000010   Code   RO         2942    i.TIM_ITRx_SetConfig  stm32f1xx_hal_tim.o
    0x08002f08   0x08002f08   0x00000050   Code   RO         2943    i.TIM_OC1_SetConfig  stm32f1xx_hal_tim.o
    0x08002f58   0x08002f58   0x00000058   Code   RO         2944    i.TIM_OC2_SetConfig  stm32f1xx_hal_tim.o
    0x08002fb0   0x08002fb0   0x00000058   Code   RO         2945    i.TIM_OC3_SetConfig  stm32f1xx_hal_tim.o
    0x08003008   0x08003008   0x00000044   Code   RO         2946    i.TIM_OC4_SetConfig  stm32f1xx_hal_tim.o
    0x0800304c   0x0800304c   0x00000022   Code   RO         2948    i.TIM_TI1_ConfigInputStage  stm32f1xx_hal_tim.o
    0x0800306e   0x0800306e   0x00000024   Code   RO         2950    i.TIM_TI2_ConfigInputStage  stm32f1xx_hal_tim.o
    0x08003092   0x08003092   0x00000002   PAD
    0x08003094   0x08003094   0x000000b8   Code   RO         3864    i.UART_SetConfig    stm32f1xx_hal_uart.o
    0x0800314c   0x0800314c   0x00000004   Code   RO         4453    i.USB_CoreInit      stm32f1xx_ll_usb.o
    0x08003150   0x08003150   0x00000004   Code   RO         4457    i.USB_DevDisconnect  stm32f1xx_ll_usb.o
    0x08003154   0x08003154   0x00000012   Code   RO         4458    i.USB_DevInit       stm32f1xx_ll_usb.o
    0x08003166   0x08003166   0x0000000e   Code   RO         4459    i.USB_DisableGlobalInt  stm32f1xx_ll_usb.o
    0x08003174   0x08003174   0x00000004   Code   RO         4474    i.USB_SetCurrentMode  stm32f1xx_ll_usb.o
    0x08003178   0x08003178   0x00000002   Code   RO          661    i.UsageFault_Handler  stm32f1xx_it.o
    0x0800317a   0x0800317a   0x00000002   PAD
    0x0800317c   0x0800317c   0x00000028   Code   RO         7749    i.__0sprintf$3      mc_w.l(printf3.o)
    0x080031a4   0x080031a4   0x00000020   Code   RO         1589    i.__NVIC_SetPriority  stm32f1xx_hal_cortex.o
    0x080031c4   0x080031c4   0x0000000e   Code   RO         8007    i.__scatterload_copy  mc_w.l(handlers.o)
    0x080031d2   0x080031d2   0x00000002   Code   RO         8008    i.__scatterload_null  mc_w.l(handlers.o)
    0x080031d4   0x080031d4   0x0000000e   Code   RO         8009    i.__scatterload_zeroinit  mc_w.l(handlers.o)
    0x080031e2   0x080031e2   0x00000002   PAD
    0x080031e4   0x080031e4   0x000001b8   Code   RO         7754    i._printf_core      mc_w.l(printf3.o)
    0x0800339c   0x0800339c   0x0000000a   Code   RO         7756    i._sputc            mc_w.l(printf3.o)
    0x080033a6   0x080033a6   0x00000002   PAD
    0x080033a8   0x080033a8   0x000001d0   Code   RO         7449    i.draw_bitmap       draw.o
    0x08003578   0x08003578   0x00000004   Code   RO         7451    i.draw_end          draw.o
    0x0800357c   0x0800357c   0x0000001c   Code   RO         7452    i.draw_flushArea    draw.o
    0x08003598   0x08003598   0x00000018   Code   RO         7453    i.draw_init         draw.o
    0x080035b0   0x080035b0   0x000000b0   Code   RO         7454    i.draw_string       draw.o
    0x08003660   0x08003660   0x00000036   Code   RO         7455    i.draw_string_P     draw.o
    0x08003696   0x08003696   0x00000002   PAD
    0x08003698   0x08003698   0x00000050   Code   RO         7919    i.free              mc_w.l(malloc.o)
    0x080036e8   0x080036e8   0x0000038c   Code   RO         7536    i.game1_draw        game1.o
    0x08003a74   0x08003a74   0x000000ec   Code   RO         7537    i.game1_task        game1.o
    0x08003b60   0x08003b60   0x0000003a   Code   RO           78    i.main              main.o
    0x08003b9a   0x08003b9a   0x00000002   PAD
    0x08003b9c   0x08003b9c   0x0000006c   Code   RO         7920    i.malloc            mc_w.l(malloc.o)
    0x08003c08   0x08003c08   0x0000001a   Code   RO         6549    i.mdelay            driver_timer.o
    0x08003c22   0x08003c22   0x00000002   PAD
    0x08003c24   0x08003c24   0x00000038   Code   RO         5789    i.osKernelInitialize  cmsis_os2.o
    0x08003c5c   0x08003c5c   0x00000040   Code   RO         5792    i.osKernelStart     cmsis_os2.o
    0x08003c9c   0x08003c9c   0x000000c8   Code   RO         7538    i.platform_task     game1.o
    0x08003d64   0x08003d64   0x0000005c   Code   RO         5271    i.prvAddCurrentTaskToDelayedList  tasks.o
    0x08003dc0   0x08003dc0   0x000000d0   Code   RO         5272    i.prvAddNewTaskToReadyList  tasks.o
    0x08003e90   0x08003e90   0x00000058   Code   RO         5621    i.prvCheckForValidListAndQueue  timers.o
    0x08003ee8   0x08003ee8   0x00000026   Code   RO         4842    i.prvCopyDataFromQueue  queue.o
    0x08003f0e   0x08003f0e   0x0000006c   Code   RO         4843    i.prvCopyDataToQueue  queue.o
    0x08003f7a   0x08003f7a   0x00000034   Code   RO         5273    i.prvDeleteTCB      tasks.o
    0x08003fae   0x08003fae   0x00000002   PAD
    0x08003fb0   0x08003fb0   0x0000004c   Code   RO         6196    i.prvHeapInit       heap_4.o
    0x08003ffc   0x08003ffc   0x00000060   Code   RO         5274    i.prvIdleTask       tasks.o
    0x0800405c   0x0800405c   0x00000026   Code   RO         4845    i.prvInitialiseNewQueue  queue.o
    0x08004082   0x08004082   0x0000009c   Code   RO         5275    i.prvInitialiseNewTask  tasks.o
    0x0800411e   0x0800411e   0x00000002   PAD
    0x08004120   0x08004120   0x0000004c   Code   RO         6197    i.prvInsertBlockIntoFreeList  heap_4.o
    0x0800416c   0x0800416c   0x00000038   Code   RO         5623    i.prvInsertTimerInActiveList  timers.o
    0x080041a4   0x080041a4   0x0000001c   Code   RO         4846    i.prvIsQueueEmpty   queue.o
    0x080041c0   0x080041c0   0x0000006c   Code   RO         4847    i.prvNotifyQueueSetContainer  queue.o
    0x0800422c   0x0800422c   0x000000cc   Code   RO         5624    i.prvProcessReceivedCommands  timers.o
    0x080042f8   0x080042f8   0x000000b4   Code   RO         5625    i.prvProcessTimerOrBlockTask  timers.o
    0x080043ac   0x080043ac   0x00000020   Code   RO         5277    i.prvResetNextTaskUnblockTime  tasks.o
    0x080043cc   0x080043cc   0x00000028   Code   RO         5626    i.prvSampleTimeNow  timers.o
    0x080043f4   0x080043f4   0x0000006c   Code   RO         5627    i.prvSwitchTimerLists  timers.o
    0x08004460   0x08004460   0x00000028   Code   RO         6247    i.prvTaskExitError  port.o
    0x08004488   0x08004488   0x00000024   Code   RO         5628    i.prvTimerTask      timers.o
    0x080044ac   0x080044ac   0x00000078   Code   RO         4848    i.prvUnlockQueue    queue.o
    0x08004524   0x08004524   0x000000d8   Code   RO         6198    i.pvPortMalloc      heap_4.o
    0x080045fc   0x080045fc   0x00000024   Code   RO         6248    i.pxPortInitialiseStack  port.o
    0x08004620   0x08004620   0x0000000c   Code   RO         7456    i.readPixels        draw.o
    0x0800462c   0x0800462c   0x00000018   Code   RO         7457    i.setBuffByte       draw.o
    0x08004644   0x08004644   0x00000016   Code   RO         7458    i.set_bits          draw.o
    0x0800465a   0x0800465a   0x00000002   PAD
    0x0800465c   0x0800465c   0x00000044   Code   RO         6550    i.system_get_ns     driver_timer.o
    0x080046a0   0x080046a0   0x00000038   Code   RO         6551    i.udelay            driver_timer.o
    0x080046d8   0x080046d8   0x00000026   Code   RO         4802    i.uxListRemove      list.o
    0x080046fe   0x080046fe   0x00000002   PAD
    0x08004700   0x08004700   0x00000014   Code   RO         5838    i.vApplicationGetIdleTaskMemory  cmsis_os2.o
    0x08004714   0x08004714   0x00000018   Code   RO         5839    i.vApplicationGetTimerTaskMemory  cmsis_os2.o
    0x0800472c   0x0800472c   0x00000016   Code   RO         4803    i.vListInitialise   list.o
    0x08004742   0x08004742   0x00000006   Code   RO         4804    i.vListInitialiseItem  list.o
    0x08004748   0x08004748   0x00000030   Code   RO         4805    i.vListInsert       list.o
    0x08004778   0x08004778   0x00000018   Code   RO         4806    i.vListInsertEnd    list.o
    0x08004790   0x08004790   0x00000040   Code   RO         6250    i.vPortEnterCritical  port.o
    0x080047d0   0x080047d0   0x00000028   Code   RO         6251    i.vPortExitCritical  port.o
    0x080047f8   0x080047f8   0x0000005c   Code   RO         6199    i.vPortFree         heap_4.o
    0x08004854   0x08004854   0x00000024   Code   RO         6252    i.vPortSetupTimerInterrupt  port.o
    0x08004878   0x08004878   0x00000054   Code   RO         6253    i.vPortValidateInterruptPriority  port.o
    0x080048cc   0x080048cc   0x00000028   Code   RO         4854    i.vQueueAddToRegistry  queue.o
    0x080048f4   0x080048f4   0x00000044   Code   RO         4858    i.vQueueWaitForMessageRestricted  queue.o
    0x08004938   0x08004938   0x0000004c   Code   RO         5289    i.vTaskDelay        tasks.o
    0x08004984   0x08004984   0x00000010   Code   RO         5294    i.vTaskInternalSetTimeOutState  tasks.o
    0x08004994   0x08004994   0x0000000c   Code   RO         5295    i.vTaskMissedYield  tasks.o
    0x080049a0   0x080049a0   0x00000030   Code   RO         5297    i.vTaskPlaceOnEventList  tasks.o
    0x080049d0   0x080049d0   0x00000038   Code   RO         5298    i.vTaskPlaceOnEventListRestricted  tasks.o
    0x08004a08   0x08004a08   0x00000088   Code   RO         5306    i.vTaskStartScheduler  tasks.o
    0x08004a90   0x08004a90   0x00000010   Code   RO         5308    i.vTaskSuspendAll   tasks.o
    0x08004aa0   0x08004aa0   0x00000064   Code   RO         5309    i.vTaskSwitchContext  tasks.o
    0x08004b04   0x08004b04   0x000000a8   Code   RO         6254    i.xPortStartScheduler  port.o
    0x08004bac   0x08004bac   0x00000022   Code   RO         4859    i.xQueueAddToSet    queue.o
    0x08004bce   0x08004bce   0x00000008   Code   RO         4864    i.xQueueCreateSet   queue.o
    0x08004bd6   0x08004bd6   0x00000048   Code   RO         4865    i.xQueueGenericCreate  queue.o
    0x08004c1e   0x08004c1e   0x00000066   Code   RO         4866    i.xQueueGenericCreateStatic  queue.o
    0x08004c84   0x08004c84   0x00000088   Code   RO         4867    i.xQueueGenericReset  queue.o
    0x08004d0c   0x08004d0c   0x0000016c   Code   RO         4868    i.xQueueGenericSend  queue.o
    0x08004e78   0x08004e78   0x000000ca   Code   RO         4869    i.xQueueGenericSendFromISR  queue.o
    0x08004f42   0x08004f42   0x00000002   PAD
    0x08004f44   0x08004f44   0x00000138   Code   RO         4878    i.xQueueReceive     queue.o
    0x0800507c   0x0800507c   0x00000012   Code   RO         4881    i.xQueueSelectFromSet  queue.o
    0x0800508e   0x0800508e   0x00000002   PAD
    0x08005090   0x08005090   0x00000074   Code   RO         5310    i.xTaskCheckForTimeOut  tasks.o
    0x08005104   0x08005104   0x0000005a   Code   RO         5311    i.xTaskCreate       tasks.o
    0x0800515e   0x0800515e   0x00000056   Code   RO         5312    i.xTaskCreateStatic  tasks.o
    0x080051b4   0x080051b4   0x0000001c   Code   RO         5316    i.xTaskGetSchedulerState  tasks.o
    0x080051d0   0x080051d0   0x0000000c   Code   RO         5317    i.xTaskGetTickCount  tasks.o
    0x080051dc   0x080051dc   0x000000c8   Code   RO         5319    i.xTaskIncrementTick  tasks.o
    0x080052a4   0x080052a4   0x00000080   Code   RO         5322    i.xTaskPriorityDisinherit  tasks.o
    0x08005324   0x08005324   0x00000070   Code   RO         5324    i.xTaskRemoveFromEventList  tasks.o
    0x08005394   0x08005394   0x000000c4   Code   RO         5325    i.xTaskResumeAll    tasks.o
    0x08005458   0x08005458   0x00000060   Code   RO         5635    i.xTimerCreateTimerTask  timers.o
    0x080054b8   0x080054b8   0x00000068   Code   RO         5636    i.xTimerGenericCommand  timers.o
    0x08005520   0x08005520   0x00000012   Data   RO         1287    .constdata          stm32f1xx_hal_rcc.o
    0x08005532   0x08005532   0x00000010   Data   RO         4638    .constdata          system_stm32f1xx.o
    0x08005542   0x08005542   0x00000008   Data   RO         4639    .constdata          system_stm32f1xx.o
    0x0800554a   0x0800554a   0x00000800   Data   RO         6384    .constdata          driver_oled.o
    0x08005d4a   0x08005d4a   0x0000001d   Data   RO         7540    .constdata          game1.o
    0x08005d67   0x08005d67   0x00000007   Data   RO         7589    .constdata          resources.o
    0x08005d6e   0x08005d6e   0x000001e5   Data   RO         7611    .constdata          resources.o
    0x08005f53   0x08005f53   0x00000001   PAD
    0x08005f54   0x08005f54   0x00000020   Data   RO         8005    Region$$Table       anon$$obj.o


    Execution Region RW_IRAM1 (Exec base: 0x20000000, Load base: 0x08005f74, Size: 0x00003fc0, Max: 0x00005000, ABSOLUTE)

    Exec Addr    Load Addr    Size         Type   Attr      Idx    E Section Name        Object

    0x20000000   0x08005f74   0x0000000c   Data   RW         1124    .data               stm32f1xx_hal.o
    0x2000000c   0x08005f80   0x00000004   Data   RW         4640    .data               system_stm32f1xx.o
    0x20000010   0x08005f84   0x0000003c   Data   RW         5328    .data               tasks.o
    0x2000004c   0x08005fc0   0x00000014   Data   RW         5644    .data               timers.o
    0x20000060   0x08005fd4   0x00000004   Data   RW         5841    .data               cmsis_os2.o
    0x20000064   0x08005fd8   0x00000018   Data   RW         6204    .data               heap_4.o
    0x2000007c   0x08005ff0   0x0000000c   Data   RW         6255    .data               port.o
    0x20000088   0x08005ffc   0x00000008   Data   RW         6385    .data               driver_oled.o
    0x20000090   0x08006004   0x00000018   Data   RW         6940    .data               driver_ir_receiver.o
    0x200000a8   0x0800601c   0x00000018   Data   RW         7245    .data               driver_rotary_encoder.o
    0x200000c0   0x08006034   0x00000014   Data   RW         7459    .data               draw.o
    0x200000d4   0x08006048   0x0000003c   Data   RW         7541    .data               game1.o
    0x20000110   0x08006084   0x00000004   Data   RW         7644    .data               mc_w.l(rand.o)
    0x20000114   0x08006088   0x00000004   Data   RW         7990    .data               mc_w.l(mvars.o)
    0x20000118   0x0800608c   0x00000004   Data   RW         7991    .data               mc_w.l(mvars.o)
    0x2000011c        -       0x00000030   Zero   RW          375    .bss                adc.o
    0x2000014c        -       0x00000054   Zero   RW          417    .bss                i2c.o
    0x200001a0        -       0x00000058   Zero   RW          459    .bss                spi.o
    0x200001f8        -       0x000000d8   Zero   RW          506    .bss                tim.o
    0x200002d0        -       0x00000048   Zero   RW          573    .bss                usart.o
    0x20000318        -       0x000002f0   Zero   RW          615    .bss                usb.o
    0x20000608        -       0x00000048   Zero   RW          751    .bss                stm32f1xx_hal_timebase_tim.o
    0x20000650        -       0x00000040   Zero   RW         4885    .bss                queue.o
    0x20000690        -       0x000004c4   Zero   RW         5327    .bss                tasks.o
    0x20000b54        -       0x0000011c   Zero   RW         5643    .bss                timers.o
    0x20000c70        -       0x000006b8   Zero   RW         5840    .bss                cmsis_os2.o
    0x20001328        -       0x00001f40   Zero   RW         6203    .bss                heap_4.o
    0x20003268        -       0x00000400   Zero   RW         6383    .bss                driver_oled.o
    0x20003668        -       0x000002a0   Zero   RW         6937    .bss                driver_ir_receiver.o
    0x20003908        -       0x000000a4   Zero   RW         7244    .bss                driver_rotary_encoder.o
    0x200039ac        -       0x00000010   Zero   RW         7539    .bss                game1.o
    0x200039bc   0x08006090   0x00000004   PAD
    0x200039c0        -       0x00000200   Zero   RW            2    HEAP                startup_stm32f103xb.o
    0x20003bc0        -       0x00000400   Zero   RW            1    STACK               startup_stm32f103xb.o


==============================================================================

Image component sizes


      Code (inc. data)   RO Data    RW Data    ZI Data      Debug   Object Name

       168         22          0          0         48       1621   adc.o
       164         22          0          4       1720      12210   cmsis_os2.o
       808         28          0         20          0       9166   draw.o
       516         68          0         24        672       4801   driver_ir_receiver.o
        22          0          0          0          0        529   driver_irq.o
        24          0          0          0          0       3420   driver_lcd.o
       664         46       2048          8       1024      10163   driver_oled.o
       176         28          0         24        164       4140   driver_rotary_encoder.o
       150         14          0          0          0       2378   driver_timer.o
         0          0          0          0          0      20132   event_groups.o
        80         30          0          0          0       4343   freertos.o
      1572        120         29         60         16       6166   game1.o
       336         26          0          0          0       1035   gpio.o
       460         24          0         24       8000       4635   heap_4.o
       156         26          0          0         84       1609   i2c.o
       138          0          0          0          0       3362   list.o
       206          6          0          0          0     466748   main.o
         0          0          0          0          0      20572   music.o
       662         70          0         12          0      10749   port.o
      1796         18          0          0         64      18355   queue.o
         0          0        492          0          0       2445   resources.o
       184         24          0          0         88       1633   spi.o
        36          8        236          0       1536        796   startup_stm32f103xb.o
        64         14          0         12          0       4606   stm32f1xx_hal.o
       622         24          0          0          0       3280   stm32f1xx_hal_adc.o
       158         14          0          0          0      28158   stm32f1xx_hal_cortex.o
       524         40          0          0          0       4082   stm32f1xx_hal_gpio.o
      1870         48          0          0          0      11301   stm32f1xx_hal_i2c.o
        72         10          0          0          0        858   stm32f1xx_hal_msp.o
       218          0          0          0          0       1496   stm32f1xx_hal_pcd.o
      1304         94         18          0          0       5709   stm32f1xx_hal_rcc.o
       236         12          0          0          0       1372   stm32f1xx_hal_rcc_ex.o
       178          0          0          0          0       1219   stm32f1xx_hal_spi.o
      1596         46          0          0          0      14016   stm32f1xx_hal_tim.o
       192         12          0          0          0       3169   stm32f1xx_hal_tim_ex.o
       152         20          0          0         72       1463   stm32f1xx_hal_timebase_tim.o
       284          6          0          0          0       1916   stm32f1xx_hal_uart.o
        54          6          0          0          0       3470   stm32f1xx_it.o
        44          0          0          0          0       3304   stm32f1xx_ll_usb.o
         0          0          0          0          0       8872   stream_buffer.o
         2          0         24          4          0       1103   system_stm32f1xx.o
      2064        170          0         60       1220      23092   tasks.o
       852         68          0          0        216       4500   tim.o
       912         82          0         20        284      25903   timers.o
       168         20          0          0         72       1662   usart.o
        92         20          0          0        752       1502   usb.o

    ----------------------------------------------------------------------
     20024       1286       2880        272      16036     767061   Object Totals
         0          0         32          0          0          0   (incl. Generated)
        48          0          1          0          4          0   (incl. Padding)

    ----------------------------------------------------------------------

      Code (inc. data)   RO Data    RW Data    ZI Data      Debug   Library Member Name

         0          0          0          0          0          0   entry.o
         0          0          0          0          0          0   entry10a.o
         0          0          0          0          0          0   entry11a.o
         8          4          0          0          0          0   entry2.o
         4          0          0          0          0          0   entry5.o
         0          0          0          0          0          0   entry7b.o
         0          0          0          0          0          0   entry8b.o
         8          4          0          0          0          0   entry9a.o
        30          0          0          0          0          0   handlers.o
        36          8          0          0          0         68   init.o
         0          0          0          0          0          0   iusefp.o
        30          0          0          0          0         68   llshl.o
        32          0          0          0          0         68   llushr.o
       188         20          0          0          0        160   malloc.o
        36          0          0          0          0         68   memcpya.o
        36          0          0          0          0        108   memseta.o
         0          0          0          8          0          0   mvars.o
       490         10          0          0          0        252   printf3.o
        36         10          0          4          0        136   rand.o
        18          0          0          0          0         68   strcpy.o
        14          0          0          0          0         68   strlen.o
        44          0          0          0          0         80   uidiv.o
        98          0          0          0          0         92   uldiv.o
        20          0          0          0          0         68   cfcmple.o
        20          0          0          0          0         68   cfrcmple.o
       176          0          0          0          0        140   fadd.o
       110          0          0          0          0        168   fepilogue.o
        40          0          0          0          0         68   ffixui.o
        18          0          0          0          0         68   fflti.o
        10          0          0          0          0         68   ffltui.o
        24          0          0          0          0         68   fscalb.o

    ----------------------------------------------------------------------
      1532         56          0         12          0       1952   Library Totals
         6          0          0          0          0          0   (incl. Padding)

    ----------------------------------------------------------------------

      Code (inc. data)   RO Data    RW Data    ZI Data      Debug   Library Name

      1108         56          0         12          0       1236   mc_w.l
       418          0          0          0          0        716   mf_w.l

    ----------------------------------------------------------------------
      1532         56          0         12          0       1952   Library Totals

    ----------------------------------------------------------------------

==============================================================================


      Code (inc. data)   RO Data    RW Data    ZI Data      Debug   

     21556       1342       2880        284      16036     757361   Grand Totals
     21556       1342       2880        284      16036     757361   ELF Image Totals
     21556       1342       2880        284          0          0   ROM Totals

==============================================================================

    Total RO  Size (Code + RO Data)                24436 (  23.86kB)
    Total RW  Size (RW Data + ZI Data)             16320 (  15.94kB)
    Total ROM Size (Code + RO Data + RW Data)      24720 (  24.14kB)

==============================================================================

