:020000040800F2
:1000000000000000A500000800F002F800F03AF837
:100010000AA090E8000C82448344AAF10107DA4563
:1000200001D100F02FF8AFF2090EBAE80F0013F07B
:10003000010F18BFFB1A43F001031847AC01000081
:10004000CC010000103A24BF78C878C1FAD8520712
:1000500024BF30C830C144BF04680C607047000042
:100060000023002400250026103A28BF78C1FBD8C1
:10007000520728BF30C148BF0B6070471FB51FBD76
:1000800010B510BD00F014F81146FFF7F7FF00F0AF
:100090007DF800F032F803B4FFF7F2FF03BC00F084
:1000A00053F80000DFF804D000F070F800010020E1
:1000B000754600F02BF8AE4605006946534620F021
:1000C0000700854618B020B500F024F8BDE82040B0
:1000D0004FF000064FF000074FF000084FF0000B04
:1000E00021F00701AC46ACE8C009ACE8C009ACE8B7
:1000F000C009ACE8C0098D46704710B50446AFF39F
:1001000000802046BDE81040FFF7C5BF004870479B
:100110000804002000B54FF0160085B0694601AA1A
:100120000A60ABBE0198002802BF0548C01D20F040
:1001300007000399029A049B05B000BD0900000066
:10014000000000007047000001491820ABBEFEE728
:100150002600020001B5009800F00CF80449086080
:100160000846006800F00CF80149086008BD00006E
:100170000400002001B50098801C0090009808BD84
:1001800001B50098C01C0090009808BD7CB54120C6
:10019000019063200090642000F016F80446C82601
:1001A00055250020009006E00098413000996054E9
:1001B0000098401C009000980628F5DB2846FFF7C1
:1001C000C9FF00207CBD00000146054802680068A8
:1001D0000844034B186003481B681844704700002C
:1001E0000000002008000020080200080000002095
:1001F0000800000044000008100200080800002069
:100200006004000060000008000000000000000022
:0400000508000009E6
:00000001FF
