:020000040800F2
:10000000E84400209901000863360008D72600085C
:10001000613600088B050008F53F0008000000006D
:1000200000000000000000000000000001010008C6
:10003000DF0700080000000045010008A93B000898
:10004000B3010008B3010008B3010008B3010008C0
:10005000B3010008B3010008B3010008B3010008B0
:10006000B3010008B3010008B3010008B3010008A0
:10007000B3010008B3010008B3010008B301000890
:10008000B3010008B3010008B3010008B301000880
:10009000B3010008B3010008B30100084B080008D1
:1000A000B3010008B3010008B3010008B301000860
:1000B000B3010008B3010008553C0008B301000873
:1000C000B3010008B3010008B3010008B301000840
:1000D000B3010008B3010008B3010008B301000830
:1000E0002D080008B3010008B3010008DFF80CD0A8
:1000F00000F0E2F9004800477D4B0008E84400208A
:10010000224B19680868B0E8F00F80F30988BFF344
:100110006F8F4FF0000080F311884EF00D0E704786
:100120000000000006480068006880F3088862B696
:1001300061B6BFF34F8FBFF36F8F00DF00BF00BF0B
:1001400008ED00E0EFF30980BFF36F8F0F4B1A68E3
:1001500020E9F00F106008B54FF0500080F31188CF
:10016000BFF34F8FBFF36F8F05F0E4FE4FF0000039
:1001700080F31188BDE8084019680868B0E8F00FFE
:1001800080F30988BFF36F8F704700BF1C00002009
:10019000EFF3058070470000064880470648004797
:1001A000FEE7FEE7FEE7FEE7FEE7FEE7FEE7FEE727
:1001B000FEE7FEE7513C0008ED0000082DE9F05F86
:1001C0000546002092469B468846064681464024C6
:1001D0001BE0284641464746224600F020F8534699
:1001E0005A46C01A914110D311461846224600F0D3
:1001F0001DF92D1A67EB01084F4622460120002108
:1002000000F014F917EB00094E41201EA4F101047F
:10021000DFDC484631462A464346BDE8F09F202AA7
:1002200004DB203A21FA02F00021704721FA02F3A0
:10023000D040C2F1200291400843194670470000A7
:100240000649074A0868504343F2390210440860DF
:100250004008704701490860704700004C010020C9
:100260006D4EC64140EA01039B0703D009E008C96F
:10027000121F08C0042AFAD203E011F8013B00F86B
:10028000013B521EF9D27047D2B201E000F8012BB7
:10029000491EFBD270470022F6E710B513460A4606
:1002A00004461946FFF7F0FF204610BD421C10F827
:1002B000011B0029FBD1801A7047034611F8012B5E
:1002C00000F8012B002AF9D118467047F0B480EAF3
:1002D0000102D40F4200B2EB410F02D2024608469F
:1002E00011464A0042D0C30DDDB2C1F3C752AD1A68
:1002F000202D35DAC1F3160141F4000204B1524257
:10030000C5F1200602FA06F12A411044B3EBD05F92
:1003100023D0C4B1012DA0EBC35009DCF0BC4FF0D9
:10032000004202EAC352DBB200F5000000F096B8CA
:10033000400000F1807000EBC350A0F1807040EAF3
:10034000D170490009E0490841EAC071A0EBC350EF
:1003500000F50000400800EBC350F0BC00F075B899
:100360006142012202EB4101001BF6E7F0BC70473D
:1003700081F00041AAE780F00040A7E7420005D0E5
:10038000C0F3C7525242914201DC0020704700EB9B
:10039000C1507047C10F80EAE0700844CA07962335
:1003A000002100F05BB896230022114600F056B8F9
:1003B00020F00040C10DC0F3160040F400007F297A
:1003C00001DA00207047962903DCC1F19601C8408C
:1003D0007047963988407047002801DBC0F1004023
:1003E000002901DBC1F1004181427047002801DB97
:1003F000C0F10040002901DBC1F100418842704793
:1004000030B50B46014600202022012409E021FAE4
:1004100002F59D4205D303FA02F5491B04FA02F5E1
:100420002844151EA2F10102F1DC30BD202A04DBB4
:10043000203A00FA02F1002070479140C2F12003F7
:1004400020FA03F31943904070470029A8BF704772
:10045000401C490008BF20F00100704710B4B0FAFA
:1004600080FC00FA0CF050EA010404BF10BC704795
:1004700049B1CCF1200421FA04F411FA0CF118BFAF
:10048000012121430843A3EB0C01CB1D4FEA00617E
:100490004FEA102042BF002010BC704700EBC35051
:1004A00010440029A4BF10BC7047401C490008BF7D
:1004B00020F0010010BC7047064C074D06E0E068D4
:1004C00040F0010394E8070098471034AC42F6D39B
:1004D000FFF710FE0C7800082C78000870B58C1817
:1004E00010F8015B15F0070301D110F8013B2A1148
:1004F00006D110F8012B03E010F8016B01F8016B35
:100500005B1EF9D12B0705D40023521E0DD401F830
:10051000013BFAE710F8013BCB1A921C03E013F8F9
:10052000015B01F8015B521EF9D5A142D8D300202E
:1005300070BD000070B5044600688168C943C907F2
:1005400017D1816821F00101816000F0EFFB0546C1
:100550000AE000BF00F0EAFB401B022804D9206833
:100560008068C043C00706D020688068C043C007C9
:10057000F0D0002070BDA06A40F01000A062E06AD8
:1005800040F00100E062012070BDFEE770B5C0F3ED
:1005900007414FF4FA656943FF2591FBF5F198B0E7
:1005A000C0F30722C6B26020CDE902014FF4FA6120
:1005B0004A4392FBF5F1022300240AAA049306940D
:1005C0000BC211904FF4FA60464396FBF5F00E947F
:1005D0001594164C139312900821206801F080FFA7
:1005E0000021206801F07CFF0421206801F078FFE1
:1005F000082202A9206801F07CFE00220AA92068D6
:1006000001F077FE042211A9206801F072FE082192
:10061000206801F017FF0021206801F013FF04217A
:10062000206801F00FFF18B070BD0000AC00002082
:10063000002402F045FF064D4FF47A762046FFF77E
:10064000A5FF601920F07F44304605F073FAF5E706
:10065000400D030010B586B005F064FC01A96846A2
:1006600000F040F8044606F0C3FA3CB1002328220B
:10067000194608A003F018FF06B010BDDDE90032EE
:1006800007A102A803F0C8FC00232822194602A8EB
:10069000F0E700006572722020202020202000005A
:1006A0002564432C2564252500000000012000F06E
:1006B0000DB8000010B50221034800F02DFB012801
:1006C00000D0002010BD000000080140044B08B11C
:1006D000012200E000220221184600F022BB0000A7
:1006E000000801402DE9F05F82468B460020FFF7AD
:1006F000EDFF142004F096FA012202211C4800F0BC
:1007000010FB3C2005F056F8FFF7D4FF4FF0FF39FF
:1007100058BB4FF47A742146012000F04EF820BBFC
:100720002146002000F049F8F8B900F023F8C5B2DE
:1007300000F020F800F0FF0800F01CF8C4B200F050
:1007400019F8C7B200F016F8C6B20120FFF7BEFFD5
:1007500005EB080020443844B04206D1CAF80050E6
:100760000020CBF80040BDE8F09F4846FBE70000C2
:10077000000801402DE9F04100242546671E4FF492
:100780007A763146012000F018F870B9282005F07B
:1007900011F86400FFF78EFF012801D144F0010435
:1007A0003146002000F009F810B13846BDE8F0816C
:1007B0006D1C082DE5DB2046F8E770B50C460546B4
:1007C00008E0FFF777FFA84201D1002070BD0120AB
:1007D00004F0F0FF641EF4D24FF0FF3070BD70479C
:1007E000F8B50746002004460D4E0E4D009007E078
:1007F00056F8240000236A46394605F073FE641C4F
:1008000068688442F4DB0098002807D006494FF05E
:1008100080500860BFF34F8FBFF36F8FF8BD0000AB
:10082000083E0020B000002004ED00E010B54FF4B9
:10083000806000F075F94FF4006000F071F9BDE8D8
:1008400010404FF4805000F06BB9202000F068B9E0
:1008500072B6FEE7002003F053B8000002484FF0E4
:10086000FF31806805F04ABF0000002001480069A0
:1008700070470000B0000020014880687047000009
:100880009C0000200148C06870470000D000002094
:10089000F8B50024009490F824202546012A12D0AF
:1008A000012280F824204A681F23072A0DD20668F7
:1008B000776B521E02EB820293409F430B6893407A
:1008C0001F43776319E00220F8BD06680D2A0AD29B
:1008D000376BD21F02EB820293409F430B68934019
:1008E0001F43376309E0F76A0D3A02EB8202934037
:1008F0009F430B6893401F43F7620A68072306680B
:100900000A2A0AD3F7680A3A02EB420293409F434D
:100910008B6893401F43F76008E0376902EB42029F
:1009200093409F438B6893401F4337610A68102AA6
:1009300001D0112A20D1124B02689A4217D1936834
:100940001B0219D4936843F40003936009681029CB
:1009500012D10C490C4A0968B1FBF2F101EB81019B
:10096000490000E0491E00910029FBD104E0816AA2
:1009700041F020018162012480F824502046F8BD16
:10098000002401401800002040420F002DE9F041F2
:100990004FF0000704003D467ED0A06A002628B92B
:1009A000E66284F82460204600F07EF82046FFF7D7
:1009B000C1FDA16AC90600D420B1A06A40F01000B0
:1009C000A06269E0A16A21F4885141F00201A162AC
:1009D0006268E169237B0A4347EA43010A43A1684D
:1009E0004FF48077B94209D0012907D05FF00001A8
:1009F00094F814C0BCF1010F02D00AE03946F7E7C1
:100A0000F3B1A36A43F02003A362E36A43F0010356
:100A1000E3622368D3F804C02CF4694C4CEA010C5F
:100A2000C3F804C021688B68DFF870C003EA0C03C8
:100A300013438B60A168B9420BD0012909D00CE0A7
:100A4000DFF85CC0A3690CEB43330B4343F4006154
:100A5000DFE7218A0D05A5F580152168CB6A23F40F
:100A600070032B43CB62216889680E4B1940914279
:100A700008D1E662A16A21F0020141F00101A16200
:100A8000BDE8F081A06A20F0020040F01000A062F2
:100A9000E06A40F00100E0620120F1E7FDF7E1FFCC
:100AA00000E0FFFFFE0E1FFF00B585B000210091A2
:100AB00001910291039100680E49884218D10E48B5
:100AC000816941F400718161816901F400710491CF
:100AD000816941F0040181618069694600F0040088
:100AE00004900820009003200190044800F024F8AE
:100AF00005B000BD00240140001002400008014084
:100B0000202807D0B0F5806F06D0B0F5805F05D102
:100B100002F0ECBF02F0DAB902F0DAB87047000078
:100B2000044910B50A68024202D00860FFF7E8FFE6
:100B300010BD0000140401402DE9F84FDFF8B89112
:100B40000024A9F1040B23460F2709F1040AABF195
:100B5000040EC9E00125A5402A40AA427DD1674E76
:100B6000D1F804C0ACEB0608B44532D014DCBCF1BB
:100B7000030F3AD009DCBCF1000F2AD0BCF1010F01
:100B80001CD0BCF1020F31D11DE0BCF1110F17D008
:100B9000BCF1120F2AD119E0B8F5881F19D006DC74
:100BA000B8F5803F15D0B8F5801F1FD111E0B8F51A
:100BB000001F0ED0B8F5041F18D10AE0CB6815E06D
:100BC000CB681B1D12E0CB6808330FE0CB680C33F9
:100BD0000CE08B682BB1012B4FF0080303D045616B
:100BE00004E0042302E0056100E00023FF2A01D8AD
:100BF000064601E000F104064FEA840501D9A5F19B
:100C00002005D6F8008007FA05FC28EA0C0803FA4C
:100C100005F548EA0508C6F800804D68ED0062D584
:100C2000374DAE6946F00106AE61AD6924F00306AA
:100C300005F001050095334D06EB050CDCF8085076
:100C4000A607360F07FA06F825EA0805DFF8B88088
:100C5000404503D14FF0000817E044E0DFF8AC80D6
:100C6000404502D14FF001080FE0DFF8A480404575
:100C700002D14FF0020808E0DFF89880404502D129
:100C80004FF0030801E04FF0040808FA06F848EABC
:100C90000508CCF808804D68D9F80060ED024D4693
:100CA00001D5164300E096432E604D68DAF80060E7
:100CB000AD02554601D5164300E096432E604D68BF
:100CC000DBF80060AD035D4601D5164300E09643B6
:100CD0002E604D68DEF80060ED03754601D51643C1
:100CE00000E096432E60641C0D682A46E5407FF4C0
:100CF00031AFBDE8F88F000008040140000011107A
:100D0000001002400000014000080140000C0140BA
:100D100000100140001401408068084000D001200C
:100D200070470AB1016170470904FBE70148806818
:100D3000704700000C00002070B5040025D094F826
:100D40003D00002520B984F83C50204600F00EFB01
:100D5000242084F83D002068016821F00101016031
:100D60002068016841F4004101602068016821F4B5
:100D70000041016000F0A0FD4D4A6168914201D838
:100D80004C4900E04C49884201D2012070BD4B49DA
:100D90002368B0FBF1F15E6826F03F060E435E600B
:100DA0006368934206D94FF4967359434FF47A73AC
:100DB000B1FBF3F12368491C1E6A26F03F0631435C
:100DC00019626168914210D84900401EB0FBF1F2EF
:100DD000521CC2F30B02042A01D2042022E0B0FB11
:100DE000F1F0401CC0F30B001CE0A268F2B301EB71
:100DF000C10303EB0116431EB3FBF6F35B1C43F484
:100E000080431B0549D092B301EBC10202EB0111F3
:100E1000401EB0FBF1F0401CC0F30B0040F48040DA
:100E200040F400402168CA694CF6FF739A431043AE
:100E3000C861D4E9071001432068026822F0C002AB
:100E400011430160D4E9030101432068826848F23C
:100E5000FF339A4311438160D4E9050108432168B7
:100E6000CA6822F0FF021043C86001E00EE016E0FD
:100E70002068016841F0010101602564202084F8A8
:100E80003D00256384F83E50002070BD01EB410613
:100E9000431EB3FBF6F35B1CB3E70120C2E701EB93
:100EA0004101401EB0FBF1F0401CC0F30B00B7E75E
:100EB000A086010080841E0000093D0040420F0012
:100EC0002DE9F84F1F4690468A460446DDF82890E3
:100ED000FFF72CFF054694F83D0020287FD1192309
:100EE000012240492046009501F05AFD002876D1A4
:100EF00094F83C00012872D0012084F83C0020685E
:100F00000168C90703D1016841F00101016020684F
:100F1000016821F400610160212084F83D00102067
:100F200084F83E0000262664C4F824806785608D1E
:100F300020852D48E0622B464A465146204601F066
:100F4000E3FB90B9206841698069009036E02A4649
:100F50004946204601F002FE50B1206C042804D11D
:100F60002068016841F4007101600120BDE8F88F3C
:100F7000606A216800780861606A401C6062618D67
:100F8000491E6185218D491E89B2218522685369D8
:100F9000DB435B070BD451B100781061606A401CE1
:100FA0006062608D401E6085208D401E20852A462F
:100FB0004946204601F0C8FC0028CED1208D0028EB
:100FC000C5D154F83D0B016841F400710160202047
:100FD00004F81E09E67766770020C7E7FFE70220DE
:100FE000C4E70000020010000000FFFF2DE9FF4FE2
:100FF00083B00025DDE910799A4693460446DDF872
:1010000048800095FFF792FE064694F83D002028A0
:101010007CD11923012285492046009601F0C0FCAD
:101020000028F5D194F83C0001286FD0012084F805
:101030003C0020680168C90703D1016841F0010143
:1010400001602068016821F400610160222084F8B9
:101050003D00402084F83E0025646762A4F82A9091
:10106000608D20857248E062CDE9008653465A467D
:101070002046049901F096FB00287DD1208DDFF8F1
:10108000B491202768B1012814D002282068016893
:101090001ED041F480610160206841698069009040
:1010A000B6E02068416981690091016841F40071EE
:1010B0000160ADE02068016821F48061016072B6D2
:1010C0002068416981690091016841F400710AE07A
:1010D00041F40061016072B6206841698169009144
:1010E000016821F48061016062B691E0032868D84C
:1010F00001280CD0022843464FF000024946204602
:1011000000960FD001F04CFCB0BB10E08BE03246F3
:101110004146204601F0EAFC70BB20680069616A24
:1011200008706CE001F03CFC30BB72B634E0206823
:10113000016821F48061016072B620680069616A0B
:101140000870606A401C6062208D401E2085608DA2
:10115000401E6085384846F2A8110068B0FBF1F0E7
:10116000C0EBC00000EB80000090401E009008D053
:1011700020684069C04300E029E040070CD5009892
:10118000F3E744F8305F6773A573206940F02000EF
:10119000206162B625731AE02068016841F400718D
:1011A000016020680069616A0870606A401C6062C2
:1011B000218D491E2185618D491E618562B6216898
:1011C0001BE032464146204601F090FC18B1012058
:1011D00007B0BDE8F08F20680069616A0870606A36
:1011E000401C6062218D491E2185618D491E6185EB
:1011F00021684A69D24352070AD409690170606ABA
:10120000401C6062208D401E2085608D401E6085E0
:10121000208D00287FF46AAF84F83D7084F83E503A
:1012200084F83C50D4E70220D2E70000020010000E
:101230000000FFFF04000100180000202DE9FF4F0F
:1012400083B09A46DDE9119793460446DDF8408065
:10125000FFF76CFD054694F83D0020287FD1192347
:10126000012240492046009501F09AFB002876D1E2
:1012700094F83C00012872D0012084F83C002068DA
:101280000168C90703D1016841F0010101602068CC
:10129000016821F400610160212084F83D004020B4
:1012A00084F83E0000262664C4F82480A4F82A901E
:1012B000608D20852C48E062CDE9007553465A4682
:1012C0002046049901F0ECFA70B930E02A4639461C
:1012D000204601F043FC58B1206C042804D120685A
:1012E000016841F400710160012007B0BDE8F08F92
:1012F000606A216800780861606A401C6062218D24
:10130000491E89B22185628D521E62852268536909
:10131000DB435B070BD469B100781061606A401C45
:101320006062208D401E2085608D401E6085208D6E
:101330000028CBD12A463946204601F005FB00287B
:10134000CAD154F83D0B016841F4007101602020BE
:1013500004F81E09E67766770020C6E7FFE702205B
:10136000C3E70000020010000000FFFF10B586B0C8
:101370000021009101910291039100680F49884278
:101380001AD10F4CA06940F00800A061A06969461D
:1013900000F008000490C02000901220019003206B
:1013A00003900848FFF7C8FBE06940F40010E061D3
:1013B000E06900F40010049006B010BD0054004035
:1013C00000100240000C014002488168027811447C
:1013D000816070470C000020074810B5016841F09B
:1013E00010010160032000F0A7F80F2000F006F8BC
:1013F00000F050F8002010BD0020024030B5054636
:101400001F4887B0C16941F00401C161C06906A9E4
:1014100000F00400009001A800F02EFA0498B0B18A
:1014200000F04AFA40001749174AB0FBF1F117489B
:10143000491E0260416040F2E7320021C0E9032109
:101440008160816100F02EFD040003D015E000F002
:1014500033FAE8E70D4800F087FD04000DD11E20A7
:1014600000F03CF8102D07D2002229461E2000F083
:1014700043F80748056000E0012407B0204630BD6E
:101480000010024040420F0000080040080B0020FE
:10149000100000200F4808B5816941F00101816109
:1014A000816901F001010091C16941F08051C16180
:1014B000C069002200F0805000900F21901E00F0C3
:1014C0001BF80548416821F0E06141F0007141607E
:1014D00008BD00000010024000000140002809DBA8
:1014E00000F01F02012191404009800000F1E0203E
:1014F000C0F8001170470000F0B40E4B1B680C469A
:10150000C3F30223C3F10705042D00D90425191DD7
:10151000072901D2002300E0DB1E012606FA05F1AF
:10152000491E214099409E40761E16403143F0BC32
:1015300002F086BD0CED00E0064900F007020868E5
:101540004FF6FF03184040EA0220034A10430860A8
:10155000704700000CED00E00000FA052DE9F041B5
:1015600086B0040004D094F8A902002520B108E058
:10157000012006B0BDE8F08184F8A852204600F0B2
:101580005BF8032084F8A902206802F02AFD04F128
:101590001001142288466846FEF764FE94E80F00A6
:1015A00002F012FD0227D0BB0021206802F020FDCE
:1015B000002001260EE000BF00EB800104EBC1011A
:1015C00081F8296001F8280F401CCD700D614D6134
:1015D000C0B28D6161688142EED8002012E000BF88
:1015E00000EB800104EBC10181F8695181F86801C9
:1015F00081F86B51C1F87851C1F87C51401CC0B2E0
:10160000C1F8805161688142EAD814224146684697
:10161000FEF728FE94E80F0002F0DAFC10B184F81F
:10162000A972A5E784F8245084F8A962206802F022
:10163000CDFC00209DE7000008B5006806498842FF
:1016400008D10648C16941F40001C161C06900F4D4
:101650000000009008BD0000005C00400010024047
:101660002DE9F84305460078354CC00754D0E069B1
:101670000026C00008D4E06940F08050E061E069D5
:10168000012600F0805000902E480168C90512D450
:101690000168804641F480710160FFF747FB07460F
:1016A00005E000BFFFF742FBC01B642823D8D8F831
:1016B0000000C005F6D5206A10F4407021D0A9883A
:1016C00001F4407181421CD0206A1F49012220F49C
:1016D00040700A6000220A602062C00711D0FFF744
:1016E00025FB074641F2883808E000BFFFF71EFBE4
:1016F000C11B414502D90320BDE8F883206A800759
:10170000F4D5206A696820F44070084320621EB155
:10171000E06920F08050E0612878800705D5606896
:10172000A96820F44040084360602878C00605D5C9
:101730006068E96820F48000084360600020DBE70F
:101740000010024000700040400442422DE9F04782
:101750000F46050061D0434E306800F00700B842E4
:1017600009D2306820F0070038433060306800F05C
:101770000700B84251D128683B4C810712D5400779
:1017800003D5606840F4E06060602878000703D506
:10179000606840F4605060606068A96820F0F00004
:1017A000084360602878C00728D06868012810D0F6
:1017B0002168022810D0890700292EDA616821F0FB
:1017C000030101436160FFF7B1FA804641F28839B5
:1017D0000DE021688903EFE78901EDE7FFF7A6FA3D
:1017E000A0EB0801494502D90320BDE8F0876068F5
:1017F000696800F00C00B0EB810FEFD1306800F0A9
:101800000700B8420BD9306820F007003843306039
:10181000306800F00700B84201D00120E5E72878E1
:10182000400705D56068E96820F4E060084360601F
:101830002878000706D56068296920F4605040EADE
:10184000C100606000F058F86168084AC1F30311F4
:10185000515CC8400649086006480068FFF7CEFDA5
:101860000020C2E70020024000100240EA6D00089C
:1018700018000020100000200F2202600C4A53685C
:1018800003F003034360536803F0F003836053687D
:1018900003F4E063C36052684FF4E06303EAD202EA
:1018A00002610448006800F007000860704700000B
:1018B00000100240002002400448054900684968C1
:1018C000044AC1F30221515CC8407047180000204F
:1018D00000100240FA6D0008044805490068496894
:1018E000044AC1F3C221515CC8407047180000206F
:1018F00000100240FA6D00080E4A51680E4801F0CF
:101900000C03042B11D0082B0FD10C48C1F38343D7
:10191000C903C05C0AD55168084AC1F34041921E10
:10192000515C054A5043B0FBF1F07047044948430D
:10193000704700000010024000127A00DA6D0008C3
:1019400000093D002DE9F84F040070D02078C04D0B
:10195000C00749D06868C0F38100012807D06868D3
:10196000C0F38100022809D16868C00306D5286841
:10197000800339D560680028E7D035E06068B0F5AD
:10198000803F0BD010B1B0F5A02F11D0286820F403
:1019900080302860286820F4802002E0286840F425
:1019A00080302860606890B1FFF7C0F906460AE011
:1019B000286840F480202860F0E700BFFFF7B6F900
:1019C000801B642873D828688003F7D50CE0FFF7E4
:1019D000ADF9064605E000BFFFF7A8F9801B6428B3
:1019E000F0D828688003F7D420789A4E80074FF00B
:1019F00001094FF0000839D5686810F00C0F07D0C6
:101A00006868C0F38100022809D16868C00306D461
:101A10002868800714D52069012808D110E02069C2
:101A2000B0B1C6F80090FFF781F9074605E00AE17A
:101A3000FFF77CF9C01B0228C4D828688007F7D5B7
:101A40002868616920F0F80040EAC10028600DE0D4
:101A5000C6F80080FFF76AF9074604E0FFF766F969
:101A6000C01B022823D828688007F7D420780007F5
:101A70002CD57948A169D9B1C0F80090FFF756F983
:101A8000074604E0FFF752F9C01B02280FD8686A26
:101A90008007F7D571484FF4FA510068B0FBF1F0B8
:101AA000009000BF0098411E0091FAD20EE080E045
:101AB000C0F80080FFF73AF9074604E0FFF736F96F
:101AC000C01B022875D8686A8007F7D420784007C1
:101AD00060D5E8690027C00008D4E86940F080506C
:101AE000E861E869012700F0805000905C480168D7
:101AF000C90513D40168834641F480710160FFF782
:101B000015F9824606E000BFFFF710F9A0EB0A00C6
:101B100064284ED8DBF80000C005F5D5E068012840
:101B20000AD008B1052813D0286A20F001002862E5
:101B3000286A20F0040002E0286A40F001002862D0
:101B4000E06841F2883B98B1FFF7F0F882460BE07D
:101B5000286A40F004002862EEE700BFFFF7E6F8CD
:101B6000A0EB0A0159455AD8286A8007F6D50CE03F
:101B7000FFF7DCF8824605E0FFF7D8F8A0EB0A0192
:101B800059454CD8286A8007F6D41FB1E86920F07F
:101B90008050E861E06988B36968C1F38101022976
:101BA00044D00228C6F8608004D0FFF7BFF804468E
:101BB00038E034E0FFF7BAF8074604E0FFF7B6F87C
:101BC000C01B02282BD828688001F7D4206AB0F502
:101BD000803F05D16868A16820F400300843686040
:101BE000D4E908010843696821F474110843686066
:101BF000C6F86090FFF79AF8044606E025E000BFBB
:101C0000FFF794F8001B022809D828688001F7D54F
:101C10001BE000BFFFF78AF8001B022802D903204F
:101C2000BDE8F88F28688001F4D40EE00128F7D0D1
:101C30006868226A00F48031914204D1616A00F43C
:101C40007010884201D00120EAE70020E8E7000098
:101C5000001002400000424280044242180000206E
:101C60000070004070B5040009D0606A002540B1E2
:101C700025616561A56294F8510040B10CE0012036
:101C800070BD6068B0F5827FF4D0E561F2E784F85A
:101C90005050204600F040F8022084F8510020689F
:101CA000016821F040010160A088218900F4827060
:101CB00001F404410843A18901F400610843217C37
:101CC00001F002010843217D01F001010843218B4D
:101CD00001F400710843217F01F03801084394F8B2
:101CE000201001F080010843218D01F400510843C8
:101CF00021680860A069042101EA10402168486059
:101D00002068C16921F40061C1616565012084F822
:101D10005100002070BD000030B585B00024009453
:101D200001940294039400681449884223D1144812
:101D3000816941F480518161816901F4805104918C
:101D4000816941F00401816180690E4D00F0040059
:101D50000490A02000900220019003200390694687
:101D60002846FEF7E9FE4020CDE9000469462846F2
:101D70000294FEF7E1FE05B030BD000000300140E6
:101D800000100240000801407047704710B590F8FD
:101D90003C20012A22D0012280F83C20CA688C68AD
:101DA00022F4407222434C6822F4806222430C6881
:101DB00022F4006222430C6922F4805222434C69CF
:101DC00022F400522243C969002322F480420A43CC
:101DD00001684A6480F83C30002010BD022010BD2C
:101DE00070B590F83C20012A26D0012480F83C40B0
:101DF000022280F83D2003685A689D6822F0700630
:101E00000A6832435A600D4B02689A4208D0B2F118
:101E1000804F05D00A4B9A4202D00A4B9A4204D115
:101E2000496825F080031943916080F83D40002106
:101E300080F83C10084670BD022070BD002C0140A7
:101E4000000400400008004010B50446022084F859
:101E50003D002068016A41F21112114207D1016A66
:101E60009210114203D1016821F001010160204666
:101E700000F046F8002084F8460084F83E0084F81C
:101E80003F0084F8400084F8410084F8420084F860
:101E9000430084F8440084F8450084F83D0084F849
:101EA0003C0010BD10B5040003D094F83D0010B103
:101EB00007E0012010BD002084F83C00204600F01F
:101EC00035F8022084F83D00211D206801F0C8FE8D
:101ED000012084F8460084F83E0084F83F0084F82E
:101EE000400084F8410084F8420084F8430084F8FC
:101EF000440084F8450084F83D00002010BD000037
:101F0000084A01680848914204D1816921F40061BE
:101F100081617047B1F1804FFBD1C16921F00101AE
:101F2000C1617047002C01400010024008B50C4A06
:101F300001680C48914207D1816941F400618161D7
:101F4000806900F4006009E0B1F1804F07D1C169F8
:101F500041F00101C161C06900F00100009008BDBD
:101F6000002C01400010024090F83D10012901D0E2
:101F700001207047022180F83D100168CA6842F0D4
:101F80000102CA6000680B49884208D0B0F1804F56
:101F900005D00949884202D00849884204D18168A5
:101FA00001F00701062903D0016841F00101016039
:101FB00000207047002C0140000400400008004051
:101FC00070B5044690F83C000025012817D0012682
:101FD00084F83C60022084F83D002068826822F08A
:101FE000770222F47F4282600868502838D00DDCE6
:101FF00020284FD005DC90B3102811D14AE00220F0
:1020000070BD302846D040280AD13BE060282FD050
:1020100070280DD0B0F5805F03D0B0F5005F12D00E
:10202000012584F83D60002084F83C00284670BDFE
:10203000CB68D1E90121206801F055FE2068816854
:1020400041F0770109E0CB68D1E90121206801F076
:102050004AFE2068816841F480418160E1E719E02F
:10206000CA684968206801F0F3FE5021206806E044
:10207000CA684968206801F0FCFE6021206801F010
:102080003CFECEE7CA684968206801F0E1FE4021C5
:102090002068F4E7226801461046F0E7704770B503
:1020A0000446006801694FF00005C943890715D44B
:1020B000C168C943890711D4E91E01610120207755
:1020C000206880698007204602D0FFF7E7FF04E020
:1020D00000F00EF9204600F0B3F925772068016979
:1020E000C943490717D4C168C943490713D46FF0DE
:1020F00004010161022020772068806910F4407F8C
:10210000204602D0FFF7CAFF04E000F0F1F82046B5
:1021100000F096F9257720680169C943090716D4AC
:10212000C168C943090712D46FF008010161042096
:1021300020772068C0698007204602D0FFF7AEFFF5
:1021400004E000F0D5F8204600F07AF92577206801
:102150000169C943C90617D4C168C943C90613D464
:102160006FF010010161082020772068C06910F429
:10217000407F204602D0FFF791FF04E000F0B8F85E
:10218000204600F05DF9257720680169C943C90739
:1021900008D1C168C943C90704D1891E016120461D
:1021A00000F0D6F920680169C943090609D4C1685D
:1021B000C943090605D46FF0800101612046FFF78D
:1021C000E3FD20680169C943490609D4C168C943D0
:1021D000490605D46FF040010161204600F0C2F9C4
:1021E00020680169C94389060BD4C168C9438906BF
:1021F00007D46FF0200101612046BDE87040FFF771
:10220000C4BD70BD70B586B00021009101910291EE
:1022100003910068304B31490224314A984211D170
:10222000886940F0040088618869039400F0040024
:1022300004908815CDE9000469461046FEF77CFC41
:1022400006B070BD274E284DB0F1804F1BD0274AF5
:102250009042F5D1886940F0080088618869694634
:1022600000F0080004901020CDE9000430460394EB
:10227000FEF762FC686820F4406040F0E06040F4E3
:1022800000606860DCE7886940F004008861886964
:1022900000F004000490886940F0080088618869B3
:1022A000694600F00800049048F20400CDE90004FB
:1022B00010460394FEF740FC0820CDE9000469466F
:1022C00030460394FEF738FC686820F4407040F014
:1022D000E06040F48070D4E7002C01400010024020
:1022E00000080140000C01400000014000040040D3
:1022F000704770B5044690F83C0000260D46012852
:102300000FD0012084F83C006AB1042A1DD0082AAD
:102310002FD00C2A3FD00126002084F83C00304604
:1023200070BD022070BD206801F0F0FC206881695A
:1023300041F0080181612068816921F00401816117
:10234000206881692A69114311E0206801F006FDC7
:102350002068816941F4006181612068816921F40C
:1023600080618161206881692A6941EA0221816175
:10237000D2E7206801F01EFD2068C16941F0080124
:10238000C1612068C16921F00401C1612068C1698F
:102390002A69114311E0206801F038FD2068C16905
:1023A00041F40061C1612068C16921F48061C161AB
:1023B0002068C1692A6941EA0221C161ACE710B510
:1023C000040003D094F83D0010B107E0012010BDD7
:1023D000002084F83C00204600F01EF8022084F81B
:1023E0003D00211D206801F03BFC012084F84600DF
:1023F00084F83E0084F83F0084F8400084F84100EF
:1024000084F8420084F8430084F8440084F84500CE
:1024100084F83D00002010BD08B5006806498842D8
:1024200008D10648C16941F00201C161C06900F0EC
:102430000200009008BD00000004004000100240AF
:102440007047000010B50446022249B104290ED09D
:10245000082913D094F84100012816D0012010BD9E
:1024600094F83E000128F9D184F83E200FE094F85A
:102470003F000128F2D184F83F2008E094F84000A2
:102480000128EBD184F8402001E084F841200122AA
:10249000206801F01BFC0F492068884203D1426C80
:1024A00042F4004242642068884208D0B0F1804F74
:1024B00005D00949884202D00849884204D1816880
:1024C00001F00701062903D0016841F00101016014
:1024D000002010BD002C0140000400400008004016
:1024E00030B504460D460068002201F0EFFB174BA3
:1024F00041F2111120688A10984209D1036A0B42F7
:1025000006D1036A134203D1436C23F400434364AE
:102510002068036A0B4206D1016A114203D10168A7
:1025200021F00101016001203DB1042D08D0082DEA
:1025300009D084F84100002030BD84F83E00FAE75D
:1025400084F83F00F7E784F84000F4E7002C0140EE
:1025500000680349884201D1FEF736BF704700008A
:1025600000080040704770B5040004D094F84100A2
:10257000002510B106E0012070BD84F840502046CF
:1025800000F024F8242084F841002068C16821F478
:102590000051C160204601F07FFC2068016921F4F0
:1025A000904101612068416921F02A014161206860
:1025B000C16841F40051C1606564202084F8410085
:1025C00084F842006563002070BD000030B585B01E
:1025D00000240094019402940394006814498842F2
:1025E00024D11448816941F480418161816901F4F9
:1025F00080410491816941F00401816180690E4D3F
:1026000000F0040004904FF400700090022001904C
:102610000320039069462846FEF78EFA2815CDE977
:102620000004694628460294FEF786FA05B030BDDC
:102630000038014000100240000801402DE9F84335
:10264000044690F841001F4616460D46202802D049
:102650000220BDE8F8837DB176B1002060642120BE
:1026600084F84100FEF762FBA6848046E684A068F9
:10267000B0F5805F02D003E00120EAE7206910B1E5
:102680002E4600250EE000260CE08021204601F0B9
:102690005FFCA0B9AEB116F8010B21684860E08C70
:1026A000401EE084E08C43464FF000020097002873
:1026B000EBD14FF04001204601F04AFC30B103203D
:1026C000C7E735F8020BC0F30800E6E7202084F8DE
:1026D00041000020BDE7FEE701684A69D243520588
:1026E0000FD46FF480624A61002140F8301F20222D
:1026F00042738173026942F0040202610173012096
:102700007047002070470000F8B50446C06A1E46B6
:102710000D461746082807D0012805D010F5803F40
:1027200002D0206B122804D12068016841F4807126
:102730000160134600224FF001112046009600F080
:102740002FF940B120680068C00502D54FF4007031
:1027500020640320F8BD2069B0F5804F0ED006201C
:10276000216800EAD51040F0F000086133463A468F
:102770000B49204600F05CF978B902E005F0FE0054
:1027800000E0E8B221680861054933463A46891FEE
:10279000204600F04DF90028DCD00120F8BD0000F3
:1027A000080001002DE9F84F0446006889460B9D9A
:1027B00001689846174641F480610160206801680D
:1027C00041F48071016000954FF0011B00225946D1
:1027D00020460A9B00F0E4F84FF4007A40B12068EC
:1027E0000068C00501D5C4F840A00320BDE8F88FFB
:1027F000216809F0FE0008612B46284920460A9A04
:1028000000F016F9F0BB20684169806900902A4603
:1028100020460A9900F0A2F940B1206C04283AD170
:102820002068016841F40071016034E0FEB2B8F143
:10283000010F09D02168380A08612A4620460A9902
:1028400000F08CF90028E8D1206806612A4620466D
:102850000A9900F083F90028DFD12068016841F46B
:102860008071016000950022594620460A9B00F0C5
:1028700097F80028B3D1216809F0FF0040F001006B
:10288000086100E007E02B46044920460A9A00F060
:10289000CFF80028AAD00120A8E70000020001001C
:1028A0002DE9F843044600680D46DDE90897016804
:1028B0009846164641F4807101604B4600224FF065
:1028C00001112046009700F06BF848B120680068BD
:1028D000C00502D54FF4007020640320BDE8F883E2
:1028E000216805F0FE0008613B464A46154920462E
:1028F00000F09EF888B920684169806900903A46E6
:102900004946204600F02AF948B1206C042804D139
:102910002068016841F4007101600120DEE7F5B232
:10292000B8F1010F09D02168300A08613A464946DA
:10293000204600F013F90028E7D120680561002047
:10294000CCE700000200010070B516460D460446B3
:102950001EE02046FFF7C0FE08B1012070BD681CD4
:1029600016D0FEF7E3F9801BA84200D885B920688D
:102970004069C04340070BD5002044F8300F2021A8
:102980006173A073216941F0200121612073E4E7A4
:1029900020684069C0434007DBD4002070BD0000C0
:1029A0002DE9F047984617460D460446C1F3074601
:1029B000DDF820902AE000BFB8F1FF3F26D0FEF7F7
:1029C000B5F9A0EB0901414502D8B8F1000F1DD1BE
:1029D0002068012E16D0806925EA00000004000C52
:1029E00012D00020B84211D1002044F8300F20212D
:1029F0006173A073216941F02001216120730120DE
:102A0000BDE8F0874069E7E70120EBE72068012E89
:102A10000AD0806925EA00000004000C06D00020DE
:102A2000B842C9D00020EBE74069F3E70120F7E79F
:102A30002DE9F047984616460D4604464FF000092A
:102A40004FF0200AC1F3074723E020684069C043E4
:102A5000400515D42068016841F4007101602168C7
:102A60006FF480604861C4F8309084F83DA084F829
:102A70003E90216C41F00401216484F83C9021E0F7
:102A8000701C06D0FEF752F9A0EB0800B04203D844
:102A900016B1012F1FD021E02068012F15D08069C9
:102AA00025EA00000004000C18D000BF44F8309F55
:102AB00084F80DA084F80E90216941F02001216175
:102AC00084F80C900120BDE8F087406925EA0000F9
:102AD0000004000CEAD12068406901E020688069A8
:102AE00025EA00000004000CAFD1ECE72DE9F0412D
:102AF000002590460E460446202728E04069C04342
:102B0000C0060CD454F8301B6FF01000486144F834
:102B100010596777A577206A2062257714E0FEF7C1
:102B200005F9A0EB0800B04200D886B920684069DA
:102B3000C04340060BD544F8305F6773A573206926
:102B400040F02000206125730120BDE8F08120685D
:102B50004169C9434906D1D40020F6E770B516464D
:102B60000D4604461EE02046FFF7B6FD08B10120E1
:102B700070BD681C16D0FEF7D9F8801BA84200D89B
:102B800085B920684069C04300060BD5002044F891
:102B9000300F20216173A073216941F02001216170
:102BA0002073E4E720684069C0430006DBD40020BE
:102BB00070BD00002DE9FE4FDFF8F8900022484676
:102BC000DFF8F4C0D0E90261D9E900400B46341BBC
:102BD00061EB0001501EB4EB0C0C1546174671F169
:102BE000000C5ED3DFF8D4804FF0000CB8EB040487
:102BF0007CEB010C55D34C46D4E904C1BCEB060672
:102C000061EB03012E4BF31A71F1000349D3DFF896
:102C1000B4C00023BCEB06068B4142D300234FF027
:102C20000309EA4609EB430808F1010C04EBCC0167
:102C300004EBC80CD1E90061DCE9008CB6EB0806B6
:102C400061EB0C015206DFF88080120E6D1C4FF014
:102C5000000CB8EB06067CEB010C01D242F001023D
:102C6000082D04D10AF80720002215467F1C5B1CA2
:102C7000202BD7DB9DF80110C943CBB28DF8013072
:102C80009DF80310C943CAB28DF803209DF80010C7
:102C9000994203D19DF80230934204D00B4A00219F
:102CA0001160BDE8FE8FCDE9011301A8FDF798FD85
:102CB0000020F6E7E83B002000127A00809698009A
:102CC000E0673500C03B470340420F00B0000020E2
:102CD0002DE9FC4102F04CFD244C254ED4E906239D
:102CE000871A61EB030200231D46F61B934100D2B5
:102CF0002560C4E906011F4A236802EBC3065B1C7A
:102D0000C6E900012360042B06D0442B02D1FFF753
:102D100051FF2560BDE8FC81D2E90260D2E90037AD
:102D20000146F31A60EB0700134FDF1B70F1000739
:102D3000F0D3DFF848C00027BCEB03038741E9D399
:102D4000D2E90402801B62EB01020D49411A72F1C3
:102D50000001DFD34FEAAC030021181A9141D9D307
:102D6000009568460195FDF73BFDD2E7B0000020D5
:102D700000E1F505E83B002000127A0080969800FB
:102D800080841E0010B5002208210A2003F058FAA2
:102D900002490861BDE8104000F09ABEB000002072
:102DA0001C4C08B54FF0FF37022604F144053946A4
:102DB000E06903F099FC0028F9D0616A884202D1E9
:102DC00000F022FEF3E7A16A884202D100F042FE41
:102DD000EDE7E36A9842EAD100226946184603F01B
:102DE000E7FBBDF90000002801DA6E6008E0A0F200
:102DF000E930B0F5F97F01D8012000E000206860DB
:102E0000044900232E601A464431206A03F0B4FAC4
:102E1000CDE70000FC00002000F024BC00F038BC2E
:102E200000F052BC00F080BC00F088BC00F0D0BCC8
:102E300010B506484FF4005309B1002200E001220A
:102E40001946FDF76EFF002010BD00000010014084
:102E500070B586B000241148009401940294039444
:102E6000816941F01001816180690D4E00F0100010
:102E70004FF400550490224629463046FDF751FF95
:102E800001200095CDE901040220039069463046F7
:102E9000FDF752FE06B0002070BD00000010024099
:102EA00000100140FFF7D4FF4FF4FA7401210846E7
:102EB000FFF7BEFF204602F03DFE00210120FFF794
:102EC000B7FF204602F036FEF0E7000008B500200C
:102ED000009009486A460121406803F0B1F8009863
:102EE000002807D005494FF080500860BFF34F8F8E
:102EF000BFF36F8F08BD00009C00002004ED00E0D0
:102F000010B500216B2000F0C1F800216C2000F00A
:102F1000BDF80921192000F0B9F806211A2000F0A7
:102F2000B5F818211B2000F0B1F818211C2000F082
:102F3000ADF8002202210A2003F082F9074CA060BC
:102F400003F02AF860600021372000F09FF8FF218D
:102F5000382000F09BF8002010BD00009C000020ED
:102F60002DE9FC5F0E46DDE90CAB07461D46914698
:102F700001A93B2000F07AF8804669463C2000F029
:102F800075F840EA080437B19DF800009DF8041078
:102F900040EA0120388001A93D2000F067F840EAAE
:102FA000040769463E2000F061F840EA070436B1A4
:102FB0009DF800009DF8041040EA0120308001A92E
:102FC0003F2000F053F804436946402000F04EF8DB
:102FD0000443B9F1000F07D09DF800009DF80410DC
:102FE00040EA0120A9F8000001A9432000F03EF8C2
:102FF00040EA04066946442000F038F840EA060436
:1030000035B19DF800009DF8041040EA01202880A9
:1030100001A9452000F02AF804436946462000F043
:1030200025F80443BAF1000F07D09DF800009DF881
:10303000041040EA0120AAF8000001A9472000F08E
:1030400015F840EA04056946482000F00FF82843C7
:10305000BBF1000F07D09DF800109DF8042041EA55
:103060000221ABF80010BDE8FC9F00000EB54FF444
:10307000FA7201230292CDE9001302460248D021E0
:103080000068FDF7B3FF0EBD9C0000201CB50223B5
:103090008DF804004FF4FA70009004488DF8051084
:1030A00001AAD0210068FDF70BFF1CBD9C00002089
:1030B0000EB50026104D771E012300971A461946BB
:1030C000686802F0C5FFFDF7C9FB002300961A46A9
:1030D000194602A80196FFF743FF044600F0EEFCF4
:1030E0002CB900231A4602A9A86803F045F9142058
:1030F00002F020FDE0E700009C0000203EB5002427
:1031000011480094019402940E4984600160047394
:103110000475012505614FF460214460C161FDF72C
:1031200035FC08B1FDF794FB0320CDE900056946A5
:1031300002940548FDF7ACFB002801D0FDF788FBA1
:103140003EBD0000002401401C0600203EB5FFF7F4
:103150006BFEFFF761FEFFF715FE00F013FDFFF7B2
:10316000CFFE012003F05DF8154C002115A2A060F0
:103170000846FFF75BFE00201825CDE90050034606
:10318000802213A1154803F0AFFB15480095A0F568
:10319000A071CDE901100023502212A1144803F0C0
:1031A000D0FB206013480095A0F50071CDE9011017
:1031B0000023802210A1134803F0C3FB60603EBDD2
:1031C000000000205374617274696E670000000093
:1031D00047616D655461736B00000000214A00086F
:1031E0009C0200204C696768745461736B00000096
:1031F000A52E0008F8040020436F6C6F72546173B1
:103200006B000000310600082DE9F04786B000246D
:103210004F480094019402940394816941F0100195
:103220008161816901F010010491816941F02001FF
:103230008161816901F020010491816941F00401FB
:103240008161816901F004010491816941F0080103
:10325000816180693F4F00F008004FF400550490F1
:10326000002229463846FDF75CFDDFF8EC9000228D
:1032700013214846FDF755FDDFF8E0A04FF4024862
:10328000002241465046FDF74CFD009502260125DF
:103290000396CDE9015469463846FDF74DFC1127E8
:1032A00000970396CDE9015469464846FDF744FC72
:1032B000CDE90256CDE9006769464846FDF73CFC7A
:1032C00003208DE8310069465046FDF735FCA80221
:1032D00000902348CDE9010569465046FDF72CFCD6
:1032E000204FE802CDE90007694602955046FDF7F8
:1032F00023FC4FF48150CDE9000769460294504603
:10330000FDF71AFC4FF48240CDE9000469465046AF
:103310000294FDF711FCCDF800800396CDE901542D
:1033200069465046FDF708FC002205211720FEF7EC
:10333000E3F81720FEF7D2F8002205212820FEF737
:10334000DBF82820FEF7CAF806B0BDE8F0870000D9
:10335000001002400010014000080140000C014034
:1033600000003110000011100D4810B50B4901602C
:103370000C49416000214FF480428160C0E9031292
:1033800041618161C1610162FDF7D6FC002803D073
:10339000BDE81040FDF75CBA10BD000000540040CD
:1033A0004C060020A0860100104810B50E490160AF
:1033B0004FF48271416000218160C1604FF400725E
:1033C0000161C0E905120822C0E90721416281625A
:1033D0000A21C162FEF746FC002803D0BDE8104078
:1033E000FDF736BA10BD000000300140A0060020F5
:1033F00010B596B000240F94109411941294139465
:103400001C2108A81494FCF746FF20216846FCF70D
:1034100042FF2A48284901604721C0E9011440F2CF
:10342000E731C0E903148021C0E90541FEF73AFD08
:1034300008B1FDF70DFA4FF480500F900FA91F4807
:10344000FEF7BEFD08B1FDF703FA1C48FEF7B7FF13
:1034500008B1FDF7FDF9139413A918481494FEF769
:10346000BFFC08B1FDF7F4F96020089040F2F310BA
:10347000CDE909040B940C940D94002208A90F487F
:103480000E94FEF736FF08B1FDF7E2F900944FF411
:103490000050CDE904400294019403946946074822
:1034A0000794FEF773FC08B1FDF7D2F90348FEF765
:1034B000A9FE16B010BD0000002C0140F806002047
:1034C00010B58EB000240794089409940A940B94C4
:1034D0001C2168460C94FCF7DEFE27484FF0804123
:1034E000016040F26711C0E9011440F2CF71C0E9F8
:1034F000031480218161FEF7D5FC08B1FDF7A8F91E
:103500004FF48050079007A91B48FEF759FD08B1FA
:10351000FDF79EF91848FEF752FF08B1FDF798F93C
:103520000B940BA914480C94FEF75AFC08B1FDF754
:103530008FF96020CDE900040294002269460E480C
:103540000494FEF7D6FE08B1FDF782F9042269461D
:103550000948FEF7CEFE08B1FDF77AF90822694660
:103560000548FEF7C6FE08B1FDF772F90248FEF7FE
:1035700049FE0EB010BD00004007002010B58AB013
:10358000002407941C2168460894FCF784FE184820
:10359000164901600721C0E9011440F2E731C0E992
:1035A000031480218161FEF70AFF08B1FDF750F98D
:1035B000079407A90E480894FEF712FC08B1FDF71E
:1035C00047F9602000904FF46170CDE901040022BA
:1035D000694607480494FEF78CFE08B1FDF738F9F8
:1035E0000348FEF70FFE0AB010BD000000040040C3
:1035F000880700200C4810B50A4901604FF4E131FA
:103600004160002181600C22C160C0E90412816127
:10361000C161FEF7A8FF002803D0BDE81040FDF708
:1036200017B910BD00380140D00700200B4810B575
:103630000949016008214160022181600021816106
:10364000C1610162FDF78AFF002803D0BDE8104088
:10365000FDF7FEB810BD0000005C00401808002017
:10366000FEE7FEE710B5A0B0002480216846FCF715
:1036700012FE0021204600F0FFF88021684600F08D
:103680002FF9641CE4B2082CF3D320B010BD000065
:1036900070B50C4D002400BF04F1B000C0B200F0C2
:1036A0000BF9002000F008F9102000F005F905EBF7
:1036B000C410802100F014F9641CE4B2082CEBD390
:1036C00070BD0000683700202DE9F0478146C8171B
:1036D00001EB5070C0F3C70520F00700081A18442A
:1036E000C01DC11700EB51709246C0F3C7070024FC
:1036F000DFF8308011E02E19082E0CD209F0FF01FE
:10370000F0B200F0B9F809EBC6121FFA8AF102EB29
:10371000080000F0E5F8641CE4B2BC42EBD3BDE85D
:10372000F087000068370020802303604020086095
:1037300001201060004870476837002010B502244F
:10374000202000F0B9F8204600F0B6F81F480470B9
:103750003F24A82000F0B0F8204600F0ADF8002487
:10376000D32000F0A9F8204600F0A6F8402000F091
:10377000A3F8A12000F0A0F8C82000F09DF80021D7
:10378000084600F063F87F24812000F095F8204679
:1037900000F092F8A42000F08FF8A62000F08CF83A
:1037A000D52000F089F8802000F086F88D2000F008
:1037B00083F8142000F080F80021012000F046F882
:1037C000BDE81040AF2000F077B800009400002062
:1037D0002DE9F04117460E46044600250BE0314620
:1037E000204600F00FF8641CE4B20F2C02D900242C
:1037F000B61CF6B26D1C7A5D002AF0D12846BDE8F1
:10380000F081000070B51646C206150E0C46072959
:1038100018D80F2816D82946204600F02DF80A4857
:10382000082100EB0610064600F05AF8641CE0B2CE
:10383000294600F021F806F10800BDE87040082193
:1038400000F04EB870BD0000026E000870B50C4666
:10385000050001D0012D0ED10CB1012C0BD1DA20C5
:1038600000F02AF8280100EB4410BDE87040801CED
:10387000C0B200F021B870BD70B50E4D0C4629786D
:10388000022905D1072803D8B030C0B200F014F8DF
:10389000287802280CD17F2C0AD804F00F0000F001
:1038A0000BF8102000EB1410BDE8704000F004B8D5
:1038B00070BD0000940000201CB500218DF804109C
:1038C0008DF805004FF4FA7000900448022301AA15
:1038D00078214068FDF7F4FA1CBD00009400002038
:1038E0000EB54FF4FA728DE8070004480123402218
:1038F00078214068FDF7A2FC0EBD00009400002076
:10390000010004484FF00001006801D0FEF79ABDA5
:10391000FEF7E6BDA800002070B58CB01C216846FB
:10392000FCF7B9FC4FF480700225CDE907050024AF
:1039300007A91048CDE90945FDF7FEF80F4E0E48DE
:103940004722316815C140F2E732E1E802248022C3
:1039500061E8044200F084F960200090049440F291
:10396000F310CDE90105002269463068FEF7C1FC7D
:103970000CB070BD00080140002C0140A8000020E0
:103980002DE9F04188B0884606461C216846FCF7C0
:1039900082FC1A4C00212068FEF7A2FD2068FEF789
:1039A00053FA20681649002501604721C0E9011536
:1039B000144F97FBF6F1491EC0E903158021C0E9B9
:1039C0000551FEF76FFA602000900220029097FBED
:1039D000F6F0401E00FB08F0642190FBF1F0049526
:1039E0000190002269462068FEF783FC00212068D0
:1039F000FEF728FD08B0BDE8F0810000A800002017
:103A0000002C014040420F001CB5114C00226946B9
:103A1000606A02F0CDFD019904F13400E0290ED076
:103A2000902910D019B10099016000214160084926
:103A300000231A463431206A02F09EFC1CBD009916
:103A400001600221F2E7009901600121EEE7000028
:103A5000FC0000207CB5184E00226946B06A02F0D6
:103A6000A7FD019A012106F13C00002A05DAC2F106
:103A7000000201924FF0020204E001DD416002E029
:103A80004FF000024260019A642A01DD042404E040
:103A9000322A01DD022400E001240025016007E054
:103AA000054900231A463C31306A02F065FC6D1C62
:103AB000A542F5DB7CBD0000FC000020034800238C
:103AC0001A461946806802F057BC0000000000202A
:103AD000044A51680A2904DA034B43F82100491CBF
:103AE00051607047B0000020083E0020FEB5002065
:103AF000009001F03DFE06460D46022001F092F8CE
:103B00001C4F4FF480513846FDF706F900282AD0A3
:103B1000194CD4E90401321A65EB0103174800215E
:103B2000FCF74CFB606001213846FDF7F5F80028F2
:103B3000206819D0401C2060C4E904652068019009
:103B40006068029000236A4601A9E06802F0CAFC9E
:103B50000098002807D00A494FF080500860BFF352
:103B60004F8FBFF36F8FFEBD401E206060684042E4
:103B70006060E1E7000C0140D000002000CA9A3BE1
:103B800004ED00E008B50020054B0090A3F15002C1
:103B900008210A2002F078FB0249C86008BD000035
:103BA000803E0020D000002010B5502080F3118806
:103BB000BFF34F8FBFF36F8F02F002FF18B10449BC
:103BC0004FF080500860002080F3118810BD000085
:103BD00004ED00E030B593B028216846FCF75BFBAC
:103BE00014210AA8FCF757FB002401200F9410941D
:103BF0001194010412948DE8130004904FF4E01026
:103C0000CDE90810022507956846FDF79BFE08B12F
:103C100072B6FEE70F20CDE90A054FF48060CDE9CA
:103C20000C4002210AA80E94FDF790FD08B172B66F
:103C3000FEE712200F904FF40040CDE911040FA8C9
:103C4000FDF70EFD002801D072B6FEE713B030BDBF
:103C5000704700000148FEF722BA0000080B002060
:103C6000F0B50268164B174C174D4FF0804798423D
:103C700005D0B84203D0A04201D0A84203D122F01F
:103C800070064A683243984205D0B84203D0A04239
:103C900001D0A84203D122F44074CA6822434C697F
:103CA00022F08002224302608A68C2620A6882624D
:103CB000984201D10969016301214161F0BD000011
:103CC000002C0140000400400008004010B501F045
:103CD0001F030121046A99408C430462016A9A40DF
:103CE0001143016210BD10B5846842EA032224F436
:103CF0007F440A432243826010BD826822F0700232
:103D00000A4342F0070181607047000030B5036A42
:103D1000026A22F0010202624268846924F073059B
:103D20000C682C4323F002058B682B430A4DA842F4
:103D30000BD123F00805CB6822F440722B434D6968
:103D400023F0040315438A692A4342608461496869
:103D50004163036230BD0000002C014030B5026AAF
:103D6000036A23F010030362436884690D6824F436
:103D7000E64444EA05248D6822F0200242EA051256
:103D80000B4DA8420ED1CD6822F0800242EA051206
:103D90004D6923F4406343EA85038D6922F04002B4
:103DA00043EA85034360846149688163026230BDF0
:103DB000002C014030B5036A026A22F4807202626C
:103DC0004268C46923F4007324F073050C682C4323
:103DD0008D6843EA05230C4DA8420ED1CD6823F42B
:103DE000006343EA05234D6922F4405242EA05127A
:103DF0008D6923F4806342EA05124260C461496818
:103E0000C163036230BD0000002C014030B5046A7C
:103E1000026A22F4805202624268C3690D6823F488
:103E2000E64343EA05238D6824F4005444EA05344C
:103E3000064DA84204D14D6922F4804242EA85121F
:103E40004260C36149680164046230BD002C0140D6
:103E500010B5036A046A24F001040462846924F042
:103E6000F00444EA021423F00A020A438461026265
:103E700010BD10B5036A046A24F01004046284695A
:103E800023F0A00324F4704444EA023243EA01110F
:103E90008261016210BD000070B5044600680169CE
:103EA000E26821F44051114301612169A06808438F
:103EB000616908432168CA6841F20C639A4302436E
:103EC000CA6020684169A26921F4407111434161CF
:103ED0001E492068884202D1FDF7FEFC01E0FDF793
:103EE000EBFC00EBC00101EB001260686421800074
:103EF000B2FBF0F3B3FBF1F36FF018067343B2FBC0
:103F0000F0F5B2FBF0F605EB8305322303EB051564
:103F1000B5FBF1F5B6FBF1F605F0F00505EB06157E
:103F2000B2FBF0F6B2FBF0F0B0FBF1F06FF018026C
:103F3000504306EB800003EB0010B0FBF1F021686A
:103F400000F00F002844886070BD00000038014078
:103F50002DE9F041984617460E460446069D27E097
:103F6000681C25D02DB1FCF7E1FEA0EB0800A842AB
:103F70001ED920680C3050E8001F21F4D07140E8B1
:103F80000012002AF5D12068143050E8001F21F0FB
:103F9000010140E80012002AF5D1202084F84100F8
:103FA00084F84200002084F840000320BDE8F0813E
:103FB0002068006836EA000004D00020B842CFD064
:103FC0000020F3E70120F9E7002070470020704748
:103FD000012120F8401F00210180818001820846D4
:103FE000704730F8401F21F43F41018000207047A6
:103FF00000207047FEE700000FB4054B10B503A981
:10400000044A029800F03CF810BC5DF814FB000074
:10401000F9450008500100200FB4084B10B504A961
:1040200002AA039800F02CF8044602A9002000F030
:1040300003F9204610BC5DF814FB0000394200086B
:104040000907090E002804DB00F1E02080F80014C5
:10405000704700F00F0000F1E02080F8141D704759
:1040600002E008C8121F08C1002AFAD17047704741
:10407000002001E001C1121F002AFBD1704700009F
:104080002DE9FF4F8BB09A460F460546002606E005
:1040900025280BD052460D9990476D1C761C287828
:1040A0000028F5D10FB03046BDE8F08F0024A046BF
:1040B0000122604900E0044315F8013F203B02FA69
:1040C00003F00842F7D128782E2817D115F8010FF0
:1040D00044F004042A280ED06FF02F022878A0F1B3
:1040E000300109290AD808EB880102EB410100EBF5
:1040F00001086D1CF2E757F8048B6D1C28786928BD
:104100003ED006DC0028CDD063280BD0642804D133
:1041100036E0732810D075284BD052460D99904741
:10412000761C85E017F8040B8DF8000000208DF850
:104130000100E946012003E057F8049B4FF0FF30EF
:1041400061074FF0000401D40AE0641C44450DDA15
:104150008442FADB19F804100029F6D106E0641C49
:104160008442FCDB19F804100029F8D1264404E04D
:1041700019F8010B52460D999047641EF8D257E08A
:1041800001CF4FF00A0B002802DA40422D2102E055
:10419000210504D52B218DF82410012103E0E1072E
:1041A00005D02021F7E70DF1200908910CE000214E
:1041B000F9E701CF4FF00A0BF9E75946FCF720F970
:1041C00001F1300209F8012D0028F6D1ADEB09000C
:1041D00000F1200B600701D44FF00108D84502DD43
:1041E000A8EB0B0000E000208046002406E009A8B0
:1041F0005246005D0D999047641C761C08988442D5
:10420000F5DB04E0302052460D999047761CB8F15A
:104210000001A8F10108F5DC05E019F8010B524690
:104220000D999047761CBBF10001ABF1010BF4DC5A
:104230006D1C34E7092801000A68531C0B601070DC
:104240007047000038B50C463221FFF799FB00207B
:1042500003460090034822460421006802F074FDE2
:1042600038BD00004801002008B5FFF755FB0548A0
:10427000002300901A46C82103A002F01BFD054947
:10428000086008BD5508000847616D65536F756E7D
:1042900064000000480100202DE9FF4F93B01F4645
:1042A00022991498DDF88080401AC0B20C9008F171
:1042B0000700C00809900C98002600F007000B903A
:1042C00014984044C0B20590C4E00C9800EBC600BE
:1042D00000F0FF0A0AF10800C0B20A902298A8B1C3
:1042E00014990A98884256D35E498968884252D800
:1042F00005998A45FBD8FF2011901498824508D271
:10430000A0EB0A01FF208840C0B200E0FF2011901E
:1043100007E005990A98884203D9411AFF20C8404E
:10432000F5E750484FEADA0241684A430792159A86
:1043300006FB072206920B9A72BB836881469A4558
:104340002AD24FF0080AB8F1080F00D2C246002462
:104350001BE013982044C5B2D9F80400854212D25C
:1043600006982199204401F0E5F91199534601403E
:10437000079800220544D9F80000405D01F0ECF9EF
:10438000D9F800104855641CE4B2BC42E1D3A8EB54
:104390000A0000F0FF085BE00A9A4446D2084A434C
:1043A0000025109251E00B984446C0F10800814668
:1043B0000F90A04200D9C1461398284400F0FF0B8B
:1043C0002848406883453ED206982199284401F048
:1043D000B1F9119908402349039089688A4511D29F
:1043E000079920485944129100684B460B9A405C4B
:1043F000039901F0B1F91B4A129912685054A4EBC9
:104400000900C4B2FCB117480A99826891421AD2D5
:10441000C9F1080101F0FF09A14500D9A1460F9A91
:1044200003991048D140109A006893444B4610F805
:104430000B00002201F090F90A49096801F80B000D
:10444000A4EB0900C4B26D1CEDB2BD42ABD3A046D3
:10445000761CF6B209988642FFF437AF17B0BDE874
:10446000F08F0000EC000020FEF7D8BC2DE9F041F1
:104470001C4615460E460746FCF7F0F923462A4629
:1044800031463846FEF7CCFCBDE8F041FFF716BBDD
:10449000044A10B5111F081FFEF7C4FC01490C396E
:1044A000086010BDF80000202DE9FE4F9B469146A4
:1044B0000F4606460025DFF8988043E0C5EBC502AD
:1044C00002EB0901CCB2082200210092CDE9017172
:1044D0002038C0B21F4900EB80004218052359461E
:1044E0002046FFF7D9FE0823052259462046FFF74C
:1044F000BDFF27B384B1A4F1010A0AF0FF01FF2335
:104500005A46D8F8000001F01BF90AF0FF00082312
:1045100001225946FFF7AAFFD8F80410491F8C4220
:104520000DD2641DE1B2FF235A46D8F8000001F015
:1045300007F9E0B2082301225946FFF797FF6D1CE7
:10454000EDB2761C30780028B8D1BDE8FE8F0000AF
:10455000EC000020267600082DE9F0411D461646A5
:1045600088460446FBF7A2FEC0B2401C00F024FBC4
:1045700007462146FBF7A1FE2B4632464146384608
:10458000FFF792FF3846BDE8F04100F043B8000065
:1045900070B5040005D0164E3068844209D1002061
:1045A00070BD502080F31188BFF34F8FBFF36F8F22
:1045B000FEE701F0EBF9656901F008FA70688542E1
:1045C00002D0B068854201D1022070BD0948854201
:1045D00004D1A06A0028F7D1032070BD0548143823
:1045E000854202D00DB1012070BD042070BD0000D5
:1045F0001C0000204010002013B505484FF4FA734A
:10460000012269460068FEF719F800981CBD0000F9
:10461000E800002010B5002821D0114B0022001F17
:10462000196803E0814203D80A4649680029F9D194
:1046300052B11368841A9C4204D100681844106077
:10464000104602E0506000E0186039B102680B1AB1
:10465000934203D10B681A4402604968416010BD5F
:10466000540100202DE9F04FE2488FB0C188A02905
:104670002BD28178FF2928D00021DF4C81468A4641
:104680006068FBF795FEC5B22068FBF791FE4FF01E
:10469000000B0221CDE9001B0B46C0B2D74A2946C8
:1046A000CDF808B0FFF7F8FD6068FBF781FEC5B2F2
:1046B0002068FBF77DFEC0B2082302222946FFF7DF
:1046C000D5FEBAF1000F02D00BE00121D5E7A168B9
:1046D0002068FBF7FBFD2060E1686068FBF7F6FDF2
:1046E00060600020029021680391A0466068FBF79B
:1046F0005FFE0027C5B23E465FF00004D9F808000F
:10470000C05DE0BBB0000590FBF74DFE0399FBF7E1
:1047100063FE3AD8042000EB8600FBF744FE0399C1
:10472000FBF764FE31D2082000EB84000E90A84213
:104730002BD80C2000EB8400A84226D964214FF42A
:10474000FA60FFF77FFDD9F8080001210323C15566
:104750000821CDE9001B0E98CDF808B0C1B205982C
:10476000A64AC0B2FFF798FD0E980823C1B205987B
:104770000322C0B2FFF77AFE0120029000E004E0BD
:10478000B9F80600401CA9F806007F1C641CE4B2BE
:10479000FFB2052CB2D3761CF6B2202EACD3D9F8DA
:1047A0000C004C46801EFBF7FEFD0399FBF714FE40
:1047B00012D293490398884202DDC8F800B005E0A0
:1047C000E068801EFBF7EFFDC8F80000D8F808107D
:1047D00081F00041C8F80810039810F1FF4F07D38B
:1047E000C8F800B0D8F8081081F00041C8F80810E7
:1047F0000027BAF1000F37D12069801F854233D3DB
:10480000F02D31D226462079FBF7CDFD0399FBF739
:10481000E3FD29D830790C30FBF7C5FD0399FBF790
:10482000E5FD21D80127C82141F28830FFF70AFDB4
:104830003069801FFBF7B7FDC8F80400D8F80C00FA
:104840004646B0F5000F02DB80F00040F060FBF759
:10485000F7FCFBF79FFD6FF01D01FBF78FFD4FF09D
:104860007E51FBF785FDB0605AEA070026D120692A
:10487000801E854201D8029800B3F02D07D9C821C7
:1048800040F6C410FFF7DEFCC8F804B010E0029850
:1048900070B9C8214FF4FA60FFF7D4FC20692646AE
:1048A000401EFBF780FDC8F80400B078401EB070D1
:1048B000D8F80C1081F00041C8F80C104546D8F823
:1048C0000400FBF775FDC6B22868FBF771FD0221F5
:1048D000CDE9001B494A0B46C0B2113A3146CDF82A
:1048E00008B0FFF7D9FC6868FBF762FDC6B228681C
:1048F000FBF75EFDC0B2082302223146FFF7B6FD8A
:10490000207858B3002784F800B03E460025A06800
:10491000C05DC8B90821CDE9001B384A01EB850804
:104920004FEA860908F0FF0109F0FF0003230F3A60
:10493000CDF808B0FFF7B0FC08F0FF0109F0FF0068
:1049400008230322FFF792FD7F1C6D1CEDB2FFB21E
:10495000052DDCD3761CF6B2202ED7D3E28829A110
:1049600009A8FFF759FB00231A46194609A8FFF7C3
:104970009BFDA078FF2827D0002522E0A0784FF0EB
:104980000801CDE9001B8542CDF808B0207B4FF02F
:10499000070300EBC500A0F11800C0B201D21A4A0B
:1049A00000E0164A0121FFF777FC207B082300EB8B
:1049B000C5001838C0B207220121FFF757FD6D1C52
:1049C000EDB2E0788542D9D3E088A02805D3202332
:1049D000322200210DA0FFF7BFFDA078FF2805D1EE
:1049E0002023222200210BA0FFF7B6FD0FB0BDE867
:1049F000F08F0000FC000020D43E00201376000859
:104A000000007043257500001F76000857494E21AD
:104A10000000000047414D454F564552210000001F
:104A20001CB5424A111F081FFEF7FCF93F4C143C0D
:104A3000A061FFF72DFDFFF717FDFBF737FE3C48A0
:104A40000090002301224FF4FA613AA002F032F9FB
:104A5000206301F0AFFF02464FF0FF3000900023CB
:104A60000121206B02F070F9FFF7FEFB0022082104
:104A70000A2001F0E5FB20621E2001F0DDFBE06171
:104A8000FBF7F4FE6062FBF7FDFEA062FBF7F4FEAD
:104A9000E062E169606A01F0B3FBE169A06A01F0DC
:104AA000AFFBE169E06A01F0ABFB00251827CDE917
:104AB00000752B46802222A1244801F015FFCDE984
:104AC00000750023802222A1244801F00DFF6570AB
:104AD000E0684008FBF767FC214E306020690A3827
:104AE000FBF761FC70604FF03F40B0601D48F06024
:104AF000A02000F095FDA021A060FBF7CCFB0320D7
:104B0000E070A070E580A089FA2101EB50002071CF
:104B1000CDE900750023802213A1174801F0E4FEBF
:104B2000FFF7A0FD322001F005F8F9E710010020A1
:104B30005506000844485431315F74696D65720050
:104B4000496E7075745461736B000000A12D0008EC
:104B50004D5055363035305461736B00B13000081C
:104B6000D43E00209A9919BF706C6174666F726DA3
:104B70005F7461736B000000B94C0008FCF72CFCFB
:104B8000FFF728F8FEF740FBFEF7EEFBFEF7B6FA5C
:104B9000FEF70AFCFEF74AFDFEF72AFCFEF790FC42
:104BA000FEF7ECFCFEF726FD00F04AF8FEF7CEFA21
:104BB00000F062F8FEE70000F0B50B30154D20F074
:104BC00007010024144A0FE003688B420BD38B4289
:104BD00005D95E1A43184768C3E9006700E04368D7
:104BE000136002C004E0021D10680028ECD12046CA
:104BF000002802D1286808B10020F0BD064A074805
:104C00001060074A121A22F00702C0E900240120AE
:104C10002860D7E75801002054010020EC3E002016
:104C2000E840002070B5054600244FF47A7603E092
:104C3000304600F0BFFD641CAC42F9DB70BD0000E3
:104C4000EFF3058058B9EFF3108040B909490868BF
:104C5000022801D030B109E0EFF3118030B16FF0DC
:104C60000500704701200860002070474FF0FF30BA
:104C7000704700006C00002010B5EFF3058060B9AC
:104C8000EFF3108048B90B490868022802D00128C8
:104C900006D00BE0EFF3118040B16FF0050010BDBE
:104CA0000220086001F0FAF8002010BD4FF0FF303C
:104CB00010BD00006C0000202F4C86B00026257926
:104CC0000827CDE900760296207C0C230838C1B273
:104CD0002A4A2846FFF7E0FA207C08230838C1B2A8
:104CE0000C222846FFF7C2FB4FF0FF38424603A9CB
:104CF000206A01F05DFC0128F8D104986070CDE9CC
:104D000000760296207C1D4A0838C1B20C230C3272
:104D10002846FFF7C1FA207C08230838C1B20C22CC
:104D20002846FFF7A3FB6078012802D0022802D0B2
:104D300003E0ED1C00E0ED1EEDB26670FA2D01D926
:104D4000002504E0E0680C38854200D9C5B2CDE901
:104D500000760296207C0C230838C1B2074A284608
:104D6000FFF79AFA207C08230838C1B20C222846A3
:104D7000FFF77CFB2571B9E7FC00002007760008EF
:104D80002DE9F041134C0F46054666692068001D69
:104D900000F02CFD681C07D137B12168BDE8F04157
:104DA0000D48091D00F0E6BD20683544B542456058
:104DB000216805D2A068BDE8F041091D00F0C2BD20
:104DC0006068091D00F0BEFD206B854200D225639E
:104DD000BDE8F0811C000020401000202DE9F041CA
:104DE000054600F0D3FD2D4C2069401C2061206851
:104DF0002B4F10B1E06930B32BE02560206901280A
:104E000027D1002606EB860007EB800000F08CFD22
:104E1000761C382EF6D3234800F086FD2148143046
:104E200000F082FD1F48283000F07EFD1D483C3018
:104E300000F07AFD1B48503000F076FD19486060A4
:104E40001430A06005E02068E96AC06A884200D892
:104E50002560E06A401CE0626864E86AA1698842F3
:104E600000D9A06100EB800007EB8000291D00F055
:104E700081FD00F0ABFDE06900280CD02068E96AF4
:104E8000C06A884207D208494FF080500860BFF3DB
:104E90004F8FBFF36F8FBDE8F08100001C00002032
:104EA000900B0020F00F002004ED00E038B500F07A
:104EB0006DFD104CA068C8B90F4800F035FD0E48D4
:104EC000143000F031FD0C482060143060600A4B53
:104ED00000202833009003F1540210210A2001F031
:104EE000D3F9A06010B105A100F0EEFDBDE8384097
:104EF00000F06CBD5800002054100020546D725119
:104F00000000000030B4026C0B46002A0BD0C168D0
:104F10001144C1604468A14201D30168C16030BC42
:104F20001846FBF79FB930BC70472DE9F041856BFF
:104F3000174604460026026C82B1C7B1E068FBF751
:104F400091F9E168206C091AE1602268914202D26D
:104F50006168081AE060022F16D017E02068A8B92F
:104F6000606801F091FD0646002060600EE0A068D8
:104F7000FBF778F9216CA0680844A060616888425A
:104F800004D32068A06001E005B16D1E6D1CA5630F
:104F90003046BDE8F08110B5044690F8590058B18C
:104FA00001280CD002280FD0502080F31188BFF3C5
:104FB0004F8FBFF36F8FFEE7206B00F01BFD204685
:104FC000BDE8104000F016BD10BD000010484FF4C1
:104FD000FA51420706D0C01D0D4920F00700411AC2
:104FE000C1F5FA510B4A00230144C2E90003083914
:104FF000103A21F0070111604B600B600B1AC0E9F9
:10500000001393604FF000405360D0607047000081
:105010002818002080000020154E164CA6F29C4750
:105020004FF08058DFF8509012E000BF00F0AEFC67
:10503000F068C568281D00F0D9FB2069401E20617A
:10504000E068401EE06000F0C1FC2846FFF7A3FFC7
:10505000E0680028EAD13868012805D9C9F800803D
:10506000BFF34F8FBFF36F8F00F04CFCF0E70000F1
:105070002C1000201C00002004ED00E0002807D0C8
:105080000021416001600B460A46C16001F074B91D
:105090007047000070B51D46049C61B1C4F8002043
:1050A000C4E90F010121204601F022F984F8505093
:1050B0000020A06470BD2460F2E72DE9F0470E46A1
:1050C000DDE909841746824691009946089DA5228C
:1050D000206BFBF7D9F86FF00301206B01EB870120
:1050E000084420F00707780707D0502080F3118884
:1050F000BFF34F8FBFF36F8FFEE72218315C82F84A
:105100003410315C11B1401C1028F6D3002684F80D
:105110004360382D00D33725E562C4E91356201DBE
:1051200000F00DFC04F1180000F009FC2461C5F149
:1051300038006462A061666584F858604A4651464A
:10514000384600F0E5FA2060B8F1000F01D0C8F849
:105150000040BDE8F0872DE9F0471E46DDE90894E0
:1051600017460D0080460ED0002C14D0FFF79EFE8F
:10517000C4F80080C4E90657C4E90869201DBDE8E9
:10518000F04700F0DCBB502080F31188BFF34F8F55
:10519000BFF36F8FFEE7BDE8F087000030B511491F
:1051A00000E011460A688242FBD34B685C188442D7
:1051B00003D1406818444860084643681C1894426C
:1051C00009D1084C103C2468A24209D052681A4404
:1051D00042600A6812680260814200D0086030BDF7
:1051E0000460F9E78000002070B5002441600B4D99
:1051F0000061914206D8D11A8269914206D2011DFE
:10520000686807E09A4203D2994201D3012403E07F
:10521000011D286800F096FB204670BD5800002054
:1052200010B5044600F0B2FBA06B28B15FF000049B
:1052300000F0CCFB204610BD0124F9E72DE9F04732
:105240008146086892460C46002600B3606804F167
:10525000080540686060A84201D1416861606068EB
:10526000D0F80C80606840686060A84201D1416855
:105270006160606806EBC60109EB8101C7685346AF
:105280000122384600F07CFC761C4745EAD13046C6
:10529000BDE8F08773B500260098846C5CB1A26B02
:1052A000E06B82420FD3502080F31188BFF34F8F01
:1052B000BFF36F8FFEE7502080F31188BFF34F8F4D
:1052C000BFF36F8FFEE7A26B82420CD294F9455078
:1052D0000A4669462046FFF728FE0646681C04D0A9
:1052E0006D1C84F8455030467CBD606A0028FAD0B9
:1052F00004F1240001F044FC0028F4D00126F2E778
:1053000030B589B0304D55E00498002806DADDE963
:105310000601059A9047049800284BDB069C6069BB
:1053200010B1201D00F062FA02A800F0B9F80246A0
:1053300004980A283ED2DFE800F00505053D26372F
:1053400005053D260598A169034601442046FFF75F
:105350004BFF00B3616A20468847E069012829D1E4
:10536000002000900598A1690023421819462046A4
:1053700001F0EAFC78B9502080F31188BFF34F8F19
:10538000BFF36F8FFEE70598A06128B1811813461F
:105390002046FFF729FF0DE0502080F31188BFF36E
:1053A0004F8FBFF36F8FFEE794F82C0010B92046A3
:1053B00000F020FB002204A9A86801F0F9F80028F9
:1053C000A2D109B030BD0000580000202DE9FC41F9
:1053D0000F46054600F0A6FD01A800F061F804465E
:1053E000019818B101F004FCBDE8FC81224EAFB178
:1053F00070680068A8B30027291B3A46B06800F01F
:1054000077FB01F0F5FB0028EED11C494FF08050EE
:105410000860BFF34F8FBFF36F8FE5E7A542EBD86E
:1054200001F0E6FB30682746C068C468201D00F024
:10543000DDF9E069012810D1A0692B4641193A46EF
:105440002046FFF7D1FE40B1002003460146009000
:105450002A46204601F078FC20B1616A2046884740
:10546000C2E707E0502080F31188BFF34F8FBFF3EE
:105470006F8FFEE70127BFE75800002004ED00E032
:1054800006484168096829B14168C968C96849681E
:10549000016370474FF0FF31FAE700001C00002065
:1054A00070B5054601F086FA064E0446306984421E
:1054B00003D200F009F8012000E000202860204617
:1054C000346170BD58000020F8B5194D1FE0C06868
:1054D000C4680668201D00F089F9616A2046884783
:1054E000E069012813D1A0693044B04206D9246193
:1054F0006060211D286800F025FA08E000200346BE
:10550000014600903246204601F01EFC38B1286862
:1055100001680029DBD16968C5E90010F8BD502099
:1055200080F31188BFF34F8FBFF36F8FFEE700004A
:1055300058000020002101E0401C491C0278A52AE7
:10554000FAD0C1F38F00704708484068401C4FF004
:10555000500080F3118804D0BFF34F8FBFF36F8FDB
:10556000FEE7BFF34F8FBFF36F8FFEE78800002089
:105570000346002012B1994302D070470B42FCD081
:1055800001207047074C2068016841B1C0680021C4
:10559000D0F80000FFF71AFFFFF7B2FEF3E7012192
:1055A0000020F7E7580000202DE9F041044600F004
:1055B000EDF994F9455004F1240610E0A06C20B1F7
:1055C00000212046FFF766FE04E0606A48B13046DD
:1055D00001F0D6FA08B100F07FFB6D1E6DB2002D10
:1055E000ECDC4FF0FF3684F8456000F0EFF900F096
:1055F000CDF994F9445004F1100709E0206948B14D
:10560000384601F0BDFA08B100F066FB6D1E6DB2C0
:10561000002DF3DC84F84460BDE8F04100F0D6B919
:105620002DE9F0410546002700F07CFC314E306842
:1056300008B9FFF7CBFCF06805424BD1C5B308357C
:1056400068070ED005F00700C0F1080005446807A0
:1056500007D0502080F31188BFF34F8FBFF36F8FB7
:10566000FEE72DB37068854234D8224810300146D9
:105670000C6801E020460C466168A94202D221680C
:105680000029F7D131688C4224D007682168016075
:1056900060680837411B10290FD96019420708D0EC
:1056A000502080F31188BFF34F8FBFF36F8FFEE759
:1056B00010E041606560FFF771FD61687068401A35
:1056C0007060B268904200D2B060F0680143002080
:1056D000C4E9000101F08CFA780707D0502080F36C
:1056E0001188BFF34F8FBFF36F8FFEE73846BDE8D9
:1056F000F0810000700000200449086818B10868B3
:10570000026D521C02650868704700001C000020F2
:1057100010B5031F4FF080741C601B1F21F00101A6
:105720001960191F024B0B60143940380A6010BD14
:10573000495500080078002901D0C043C0B2704725
:1057400010B5044CD208646802FB0411425C1A4391
:10575000425410BDEC00002010B501249C40641E92
:1057600021409440A04391400143C8B210BD0000C5
:105770002DE9F0410D4CFBF7D9FA22680023516A5C
:10578000D26A0B4DA0FB054703FB057500FB0355D3
:10579000074FA1FB070C03FB07C701FB0371FAF7D7
:1057A0000DFD00196941BDE8F0810000080B0020E3
:1057B00040420F0030B50C4A00211368DC6A4FF4F8
:1057C0007A726043B0FBF2F55A6A586A9042FCD094
:1057D00002D9A0EB020202E0A4EB0202024411444F
:1057E0000246A942F1D330BD080B0020D0E90132B6
:1057F00001699A60D0E901235A604A68824201D166
:1058000082684A60002202610868401E08600868D9
:10581000704700002DE9F04717460A460546002468
:10582000382600F07FFBDFF88C80D8F81000824229
:105830003AD3DFF88490761E06EB860104EBC400B1
:1058400009EB810105EB80000122FFF7F7FC04441E
:10585000002EF0D104EBC40005EB80000222464686
:10586000D8F80410FFF7EAFC044404EBC40005EB8D
:1058700080000222B168FFF7E1FC044404EBC4009D
:1058800005EB800004220D49FFF7D8FC04440B49C6
:1058900004EBC40005EB800003221431FFF7CEFCBB
:1058A00004440FB10020386001F0A2F92046BDE8A1
:1058B000F08700001C000020900B00202C1000201E
:1058C000044908680A688069D26A0968C2F1380226
:1058D0008A6170471C000020034B036003F15C00E9
:1058E000086080201060704770110020044B036036
:1058F00003F15C0008604FF4807010607047000096
:10590000CC13002010B5044800F07CF9BDE810402D
:10591000014902A0FEF770BB5405002025730A0D53
:105920000000000000F046BB00F108014FF0FF321C
:10593000C0E90112C16001610021016070470021CE
:105940000161704730B50B685A1C02D000F10802A3
:1059500002E0026904E02246546825689D42FAD9B3
:1059600053684B6099608A60516008610168491C06
:10597000016030BD42684A6093688B6093685960EB
:10598000916008610168491C01607047502080F3F4
:105990001188BFF34F8FBFF36F8F0A494868401CCF
:1059A000486001280CD10848006810F0FF0F07D0AC
:1059B000502080F31188BFF34F8FBFF36F8FFEE746
:1059C000704700008800002004ED00E008494868A6
:1059D00028B1401E486001D180F3118870475020E3
:1059E00080F31188BFF34F8FBFF36F8FFEE7000086
:1059F0008800002070B5002827D0144DA0F10804BD
:105A00006168E868014207D1502080F31188BFF334
:105A10004F8FBFF36F8FFEE722683AB1502080F3BB
:105A20001188BFF34F8FBFF36F8FFEE78143616033
:105A300000F078FA60686968084468602046FFF7FB
:105A4000ADFBBDE8704001F0D3B870BD7000002020
:105A50004FF0E02000210161816105494FF47A7225
:105A60000968B1FBF2F1491E4161072101617047EC
:105A70001800002010B5FAF78BFB114910280ED33F
:105A800000F1E02090F8F0030A78904207D250200D
:105A900080F31188BFF34F8FBFF36F8FFEE7094884
:105AA0000068896800F4E060884207D9502080F3DC
:105AB0001188BFF34F8FBFF36F8FFEE710BD00005B
:105AC000880000200CED00E010B5084B002200BF5C
:105AD00053F832401CB1521C082AF9D310BD43F8C8
:105AE000321003EBC201486010BD0000500B0020D3
:105AF00070B515460E460446FFF748FF94F944106A
:105B00000020491C01D184F8440094F94510491C37
:105B100001D184F84500FFF759FFA06B28B92A4648
:105B2000314604F1240000F0F5F82046BDE870404D
:105B3000FFF73ABD10B5020014D00F48806B38B1A2
:105B4000502080F31188BFF34F8FBFF36F8FFEE7B4
:105B500000F0E8F900211046FFF712F901F048F8CB
:105B6000002807D105494FF080500860BFF34F8FE0
:105B7000BFF36F8F10BD00001C00002004ED00E09B
:105B80002DE9F0410C461A491646B0B14FEA00051E
:105B900005F13400C4E90050E86A2061286BE06137
:105BA000686CA0600027E86CC4E90507052B12D0DB
:105BB0000868854203D1277311E00D68E8E7237375
:105BC000032B0CD100F0AEF9A86A08B102202073B3
:105BD00001F00EF803E02846FEF7DAFC20732EB140
:105BE000286BFFF7A7FC2084BDE8F0812784FBE742
:105BF0001C00002002498A6A0260496941607047BE
:105C00001C000020F0B587B00027044607702D481F
:105C100001690291006900EBC0008000FFF700FD00
:105C200006004CD000220299FFF7F4FD0290049781
:105C300038463BE000EBC00006EB8000017B052905
:105C40000ED2DFE801F0030507090B00582508E034
:105C5000522506E0422504E0532502E0442500E0F9
:105C6000002541682046FAF728FB2046FAF71EFB7C
:105C7000202101E02154401C0F28FBD32754044469
:105C8000049800EBC00006EB80008268018CCDE92F
:105C9000001203692A460CA12046FEF7BDF92046F2
:105CA000FAF704FB04440498401C049002998842CB
:105CB000C0D307B03046BDE8F040FFF79BBE07B049
:105CC000F0BD00001C000020092563092575092589
:105CD000750925750D0A00000149012048627047C9
:105CE0001C00002010B50C4650B109490968183154
:105CF000FFF728FE2046BDE810400121FFF740B81D
:105D0000502080F31188BFF34F8FBFF36F8FFEE7F2
:105D10001C00002070B514460D4668B10A49096898
:105D20001831FFF727FE0CB14FF0FF35214628460A
:105D3000BDE87040FFF724B8502080F31188BFF30E
:105D40004F8FBFF36F8FFEE71C00002010B5144685
:105D5000030011D01048826BB2B1026841F00041DB
:105D60009161016818461831FFF704FE2046BDE82E
:105D700010400121FFF704B8502080F31188BFF3D1
:105D80004F8FBFF36F8FFEE7502080F31188BFF372
:105D90004F8FBFF36F8FFEE71C00002070B504002B
:105DA0003ED0226DA2B1E06C884200D30146E06A89
:105DB000884235D0012A33D11A4D2A6894420FD136
:105DC000502080F31188BFF34F8FBFF36F8FFEE732
:105DD000502080F31188BFF34F8FBFF36F8FFEE722
:105DE000E162A269002A02DBC1F13801A1610E4E15
:105DF00000EB8000616906EB8000814210D1201D1C
:105E0000FFF7F4FCE06AA969884200D9A86100EBB9
:105E1000800006EB8000211DBDE87040FFF7AABDA1
:105E200070BD00001C000020900B002070B5194DC3
:105E3000AA6BF2B141F000410160C4680CB3FFF7F6
:105E4000D5FC201DFFF7D2FCE06AA969884200D981
:105E5000A861114900EB800001EB8000211DFFF7D4
:105E600089FDE06A2968C96A884201D9012068620F
:105E700070BD502080F31188BFF34F8FBFF36F8F39
:105E8000FEE7502080F31188BFF34F8FBFF36F8F71
:105E9000FEE700001C000020900B002030B587B00A
:105EA0000024039405AA04A903A80494FFF714FD91
:105EB000DDE903010094CDE90110002315A1174885
:105EC000059A00F03EFD164D002868631FD000F0D3
:105ED0000BFF012809D0401C19D1502080F31188F4
:105EE000BFF34F8FBFF36F8FFEE7502080F3118811
:105EF000BFF34F8FBFF36F8F4FF0FF302863012048
:105F0000E8616C6107B0BDE8304000F025B907B02A
:105F100030BD000049444C45000000001950000805
:105F20001C0000200248816B491C816370470000FF
:105F30001C000020164810B5816B11B1012141628F
:105F400010BD002141628169124A01E0B9B1491EC8
:105F500001EB810352F82330002BF7D001EB8103D2
:105F600002EB830202F1080453685B685360A342AA
:105F700001D15B685360DA680260816110BD502016
:105F800080F31188BFF34F8FBFF36F8FFEE70000E0
:105F90001C000020900B002070B52020FFF740FB74
:105FA000040005D00025201D2560FFF7BDFC2577E6
:105FB000204670BD2DE9F0410027884604000AD034
:105FC0005FEA18600FD0502080F31188BFF34F8F25
:105FD000BFF36F8FFEE7502080F31188BFF34F8F20
:105FE000BFF36F8FFEE7261D04F10C05FFF79AFF44
:105FF0002168F06841EA0801216017E0D0E9001645
:1060000001F07F425301236821F07F4102D40B420B
:1060100003D10AE031EA030307D1D20100D50F43CF
:10602000216841F00071FFF701FF3046A842E5D139
:106030002068B843206000F0DBFD2068BDE8F081F7
:1060400013460A460146014800F0B2BE2559000831
:106050002DE9F0479A46DDF8209090460D46040061
:106060004FF0000709D0280E0FD0502080F3118880
:10607000BFF34F8FBFF36F8FFEE7502080F311887F
:10608000BFF34F8FBFF36F8FFEE71DB100F084FCAD
:1060900040B112E0502080F31188BFF34F8FBFF35F
:1060A0006F8FFEE7B9F1000F07D0502080F3118801
:1060B000BFF34F8FBFF36F8FFEE7FFF733FF266805
:1060C000524629463046FFF753FA30B1B8F1000F77
:1060D0001AD02068A843206016E0B9F1000F13D051
:1060E000B8F1000F01D04FF08077BAF1000F01D066
:1060F00047F0806745EA07014A46201DFFF726FE64
:1061000000F076FD18B10AE000F072FD1FE01149C1
:106110004FF080500860BFF34F8FBFF36F8FFFF7D2
:10612000CFFB0646800110D4FFF730FC26685246AC
:1061300029463046FFF71CFA28B1B8F1000F02D00B
:106140002068A8432060FFF741FC26F07F463046D8
:10615000BDE8F08704ED00E01CB526490878019001
:10616000FF20087008788DF800009DF800009DF869
:10617000002000F0F000904207D0502080F31188FA
:10618000BFF34F8FBFF36F8FFEE79DF800001A4BF0
:1061900000F0500018700720986005E09DF800207E
:1061A00052008DF80020401E9DF800201206F5D404
:1061B0009860032807D0502080F31188BFF34F8FD9
:1061C000BFF36F8FFEE74FF440709860019808703E
:1061D0000A48016841F470010160016841F07041B2
:1061E0000160FFF735FC00205860F9F79BFF0020A5
:1061F0001CBD000000E400E08800002020ED00E06D
:1062000070B50D460446FFF7C1FBA06C08B9A06B42
:1062100008B1002401E0A5640124FFF7D7FB204664
:1062200070BD10B502460021012000F009F80446B7
:10623000FEF724FF204610BD00220421AFF30080AA
:10624000F8B517460E46050014D0DEB105FB06F082
:106250005430FFF7E5F904000AD0002084F8460026
:1062600004F154023B46314628460094FEF712FFE3
:106270002046F8BD502080F31188BFF34F8FBFF345
:106280006F8FFEE70020E3E738B5049D18B153B1E6
:10629000CAB181B120E0502080F31188BFF34F8F45
:1062A000BFF36F8FFEE7502080F31188BFF34F8F4D
:1062B000BFF36F8FFEE7502080F31188BFF34F8F3D
:1062C000BFF36F8FFEE739B1502080F31188BFF321
:1062D0004F8FBFF36F8FFEE754241C46012384F8D1
:1062E00046302B460094FEF7D5FE204638BD000010
:1062F00070B50D46040025D0FFF748FBD4E90F2008
:10630000216802FB001161600021A1632168A16086
:106310000A46D4E90F01401E00FB0121E16021463D
:106320004FF0FF3001F8440F487004F110008DB1B8
:10633000FFF7FAFA04F12400FFF7F6FAFFF746FB3D
:10634000012070BD502080F31188BFF34F8FBFF341
:106350006F8FFEE721690029F0D000F011FC0028C2
:10636000ECD004494FF080500860BFF34F8FBFF36B
:106370006F8FE3E704ED00E02DE9FF4782B01D4693
:106380008A464FF00008040003D0BAF1000F08D08D
:1063900011E0502080F31188BFF34F8FBFF36F8F50
:1063A000FEE7206C38B1502080F31188BFF34F8F87
:1063B000BFF36F8FFEE7022D0AD1E06B012807D0F3
:1063C000502080F31188BFF34F8FBFF36F8FFEE72C
:1063D00000F0E2FA424F4FF000094FF0805648B902
:1063E000049838B1502080F31188BFF34F8FBFF36A
:1063F0006F8FFEE7FFF7CAFAA06BE16B884207D305
:10640000022D05D0049808B3B8F1000F21D025E083
:106410002A4651462046FEF788FDA16C21B1294647
:106420002046FEF737FF05E0616A19B104F1240048
:1064300000F0A6FB20B13E60BFF34F8FBFF36F8F1C
:10644000FFF7C4FA012006B0BDE8F087FFF7BEFAF7
:1064500022E06846FFF7CEFB4FF00108FFF7B6FADF
:10646000FFF760FDFFF792FA94F94400401C01D158
:1064700084F8449094F94500401C01D184F845907B
:10648000FFF7A4FA04A9684600F0F4F930B12046F9
:10649000FFF78AF800F0ACFB0020D4E7FFF776FAAC
:1064A000A06BE16B884213D1FFF790FA04F1100062
:1064B0000499FFF717FC2046FFF776F800F098FBE9
:1064C000002897D13E60BFF34F8FBFF36F8F91E7E6
:1064D000FFF77CFA2046FFF767F800F089FB89E7B1
:1064E00004ED00E02DE9F047984617468946040080
:1064F00003D0B9F1000F08D011E0502080F31188CB
:10650000BFF34F8FBFF36F8FFEE7206C38B1502081
:1065100080F31188BFF34F8FBFF36F8FFEE7B8F1A1
:10652000020F0AD1E06B012807D0502080F31188B8
:10653000BFF34F8FBFF36F8FFEE7FFF79BFA50203B
:10654000EFF3118680F31188BFF34F8FBFF36F8F86
:10655000A06BE16B884207D3B8F1020F04D0002092
:1065600086F31188BDE8F08794F9455042464946C4
:106570002046FEF7DAFC681C04D06D1C84F84550F8
:106580000120EDE7A06C012520B141462046FEF731
:1065900081FE06E0606A0028F2D004F1240000F0D9
:1065A000EFFA0028ECD0002FEAD03D60E8E70000C9
:1065B0002DE9F747002683B08A46040003D0BAF1DC
:1065C000000F08D011E0502080F31188BFF34F8FE7
:1065D000BFF36F8FFEE7206C38B1502080F3118835
:1065E000BFF34F8FBFF36F8FFEE700F0D5F9DFF8F1
:1065F000F4804FF000094FF0805748B9059838B142
:10660000502080F31188BFF34F8FBFF36F8FFEE7E9
:10661000FFF7BCF9A56BC5B151462046FEF772FCE9
:106620006D1EA563206950B104F1100000F0A8FAB6
:1066300028B1C8F80070BFF34F8FBFF36F8FFFF71B
:10664000C5F9012006B0BDE8F087059808B11EB174
:1066500006E0FFF7BBF927E06846FFF7CBFA012613
:10666000FFF7B4F9FFF75EFCFFF790F994F94400E7
:10667000401C01D184F8449094F94500401C01D19C
:1066800084F84590FFF7A2F905A9684600F0F2F8F2
:10669000002820460AD0FEF787FF00F0A9FA20461E
:1066A000FEF7BEFD0028B3D00020CBE7FEF7B8FD13
:1066B00090B104F124000599FFF714FB2046FEF782
:1066C00073FF00F095FA0028A2D1C8F80070BFF35C
:1066D0004F8FBFF36F8F9BE72046FEF765FF00F0FB
:1066E00087FA95E704ED00E008B5002200920A461B
:1066F0006946FFF75DFF009808BD00002DE9F343F0
:10670000002683B00400354609D0206C78B15020B3
:1067100080F31188BFF34F8FBFF36F8FFEE75020D8
:1067200080F31188BFF34F8FBFF36F8FFEE700F048
:1067300033F9DFF83C814FF000094FF0805748B93A
:10674000049838B1502080F31188BFF34F8FBFF306
:106750006F8FFEE7FFF71AF9A06BC8B1401EA06368
:10676000206810B9FEF7C8FF6060206950B104F1DD
:10677000100000F005FA28B1C8F80070BFF34F8F81
:10678000BFF36F8FFFF722F9012005B0BDE8F0835A
:10679000049808B166B10FE03DB1502080F3118834
:1067A000BFF34F8FBFF36F8FFEE7FFF70FF95DE089
:1067B0006846FFF71FFA0126FFF708F9FFF7B2FB5B
:1067C000FFF7E4F894F94400401C01D184F84490A8
:1067D00094F94500401C01D184F84590FFF7F6F884
:1067E00004A9684600F046F80028204612D0FEF7BB
:1067F000DBFE00F0FDF92046FEF712FD0028A9D0CF
:106800009DB3FFF7C3F8606A50B3206B0068C0F116
:10681000380126E0FEF704FDE0B1206838B9FFF743
:10682000B5F8606800F070F90546FFF7CFF804F19D
:1068300024000499FFF756FA2046FEF7B5FE00F053
:10684000D7F9002886D1C8F80070BFF34F8FBFF387
:106850006F8F7FE72046FEF7A7FE00F0C9F979E7C2
:1068600000216068FFF79AFA9FE7FFE700208CE7B6
:1068700004ED00E02DE9F0410C46050011D0C4B153
:10688000FFF784F8174B5A696E682068911B471C04
:1068900017D02F689B6A9F4219D0964217D80124BF
:1068A00010E0502080F31188BFF34F8FBFF36F8F3C
:1068B000FEE7502080F31188BFF34F8FBFF36F8F37
:1068C000FEE70024FFF782F82046BDE8F081884209
:1068D00005D9401A20602846FFF78CF9F1E700201F
:1068E0002060DCE71C0000202DE9FF5F8346DDE926
:1068F0000E87994616468A469000FEF791FE0500DF
:106900001CD05C20FEF78CFE040014D00020256310
:1069100084F85900CDE90240CDE900874B46324664
:1069200051465846FEF7C9FB2046FEF757FA0120AC
:1069300004B0BDE8F09F2846FFF75CF84FF0FF3049
:10694000F6E7F0B585B0DDE90B640A9DA6B1DCB1D0
:106950005C2700972663022684F85960002604AF5E
:10696000CDE90246CDE90057FEF7A7FB2046FEF72A
:1069700035FA049805B0F0BD502080F31188BFF3BC
:106980004F8FBFF36F8FFEE7502080F31188BFF366
:106990004F8FBFF36F8FFEE70548C16919B1806B58
:1069A00018B1002070470120704702207047000096
:1069B0001C00002001484069704700001C000020B6
:1069C0002DE9F0412E4C0027A06B40B1206A401CFD
:1069D0002062606A00B101273846BDE8F08166692F
:1069E000761C666113D16068006838B1502080F36E
:1069F0001188BFF34F8FBFF36F8FFEE76068A16808
:106A00006160A060A06A401CA062FEF739FD206BA7
:106A1000DFF87080864209D36068006880B16068E2
:106A2000C068C568686886420DD220632068C06A65
:106A300000EB800158F821000128CAD90127C8E7D6
:106A40004FF0FF30F1E7281DFEF7D0FEA86A18B11D
:106A500005F11800FEF7CAFEE86AA169884200D96C
:106A6000A06100EB800108EB8100291DFEF782FF89
:106A7000E86A2168C96A8842CED30127CCE70000C2
:106A80001C000020900B002070B504004FF00001A6
:106A900033D01B4D2868844207D0502080F31188E2
:106AA000BFF34F8FBFF36F8FFEE7206D38B1401EED
:106AB0002065E36CE26A9A421FD040B11DE050208D
:106AC00080F31188BFF34F8FBFF36F8FFEE7201D58
:106AD000FEF78CFEE06CE062C0F13800A061E06A75
:106AE000A969884200D9A861064900EB800001EB42
:106AF0008000211DFEF73EFF0121084670BD000009
:106B00001C000020900B002070B504004FF0000026
:106B10002BD0194DE16A2A68D26A914226D2A06927
:106B2000002804DB2868C06AC0F13800A061134E59
:106B300001EB8101606906EB8101884211D1201DC2
:106B4000FEF754FE2868C06AE062A969884200D94D
:106B5000A86100EB800006EB8000211DFEF70AFF14
:106B600002E02868C06AE062012070BDE16C2A681A
:106B7000D26A9142F8D370BD1C000020900B002017
:106B800070B5C068C46854B104F118000646FEF739
:106B90002DFE144DA86B50B13146134815E050201E
:106BA00080F31188BFF34F8FBFF36F8FFEE7201D77
:106BB000FEF71CFEE06AA969884200D9A8610B496A
:106BC00000EB800001EB8000211DFEF7D3FEE06AA0
:106BD0002968C96A884202D90120686270BD002014
:106BE00070BD00001C00002018100020900B002039
:106BF0002DE9F0472C4D00242746A86B38B1FEF74D
:106C0000C5FEA86B401EA863A86B40B146E05020AB
:106C100080F31188BFF34F8FBFF36F8FFEE72969B1
:106C2000224E0120D1B3A6F5916980463068E0B1CB
:106C3000F068C46804F11800FEF7D8FD201DFEF7C7
:106C4000D5FDE06AA969884200D9A86100EB8001FE
:106C500009EB8100211DFEF78DFEE06A2968C96AF3
:106C60008842E3D3C5F82480E0E70CB1FEF708FCC6
:106C70002C6A4CB14FEA0806FFF7A2FE00B16E6223
:106C8000641EF9D100202862686A38B108490127DA
:106C900038070860BFF34F8FBFF36F8FFEF796FE84
:106CA0003846BDE8F08700001C00002018100020C6
:106CB00004ED00E02DE9FC4781461E461746884654
:106CC00030200A9DFEF7ACFC04000AD0CDE9005448
:106CD00033463A4641464846FEF73DFA002084F8DE
:106CE0002C002046BDE8FC8710B586B0FEF7DEF824
:106CF000114CA068B8B100200390049005AA04A923
:106D000003A8FEF7F3FDDDE9032102208DE807006B
:106D100000230AA10B48059AFFF713FEE06010B1AB
:106D200006B0012010BD502080F31188BFF34F8FB3
:106D3000BFF36F8FFEE7000058000020546D7220F3
:106D400053766300855500082DE9FF411E46134622
:106D500002000A9D4FF0000016D0144CA768002FC7
:106D60000FD0CDE900130292062917DAFFF714FEBF
:106D700002284FF000030FD000226946A068FFF7F9
:106D8000FBFA04B0BDE8F081502080F31188BFF316
:106D90004F8FBFF36F8FFEE72A46EEE700233246A0
:106DA00069463846FFF79EFBEBE7000058000020DD
:106DB0001FB51C466FF00103CDE90030CDE902128A
:106DC00004480023224669468068FFF78BFB04B025
:106DD00010BD000058000020010202030405060750
:106DE00008090A0B0C0D0E0F101000000000000027
:106DF0000000010203040607080900000000010268
:106E0000030400000000000000000000000000007B
:106E1000000000FE020202020202003F20202020A9
:106E20002020000000000000000000000000000022
:106E3000000000FE020202020202003F2020202089
:106E4000202000FE020202020202003F2020202039
:106E5000202000FE020202020202003F2020202029
:106E6000202000FE020202020202003F2020202019
:106E7000202000FE020202020202003F2020202009
:106E8000202000FE020202020202003F20202020F9
:106E900020200000000000000000000000000000B2
:106EA00000000000000000000000000000000000E2
:106EB00000000000000000000000000000000000D2
:106EC000000000FE020202020202003F20202020F9
:106ED000202000FE020202020202003F20202020A9
:106EE000202000FE020202020202003F2020202099
:106EF000202000FE020202020202003F2020202089
:106F0000202000FE020202020202003F2020202078
:106F1000202000FE020202020202003F2020202068
:106F2000202000FE020202020202003F2020202058
:106F3000202000FE020202020202003F2020202048
:106F4000202000FE020202020202003F2020202038
:106F5000202000FE020202020202003F2020202028
:106F6000202000FE020202020202003F2020202018
:106F7000202000FE020202020202003F2020202008
:106F8000202000FE020202020202003F20202020F8
:106F9000202000FE020202020202003F20202020E8
:106FA000202000FE020202020202003F20202020D8
:106FB000202000FE020202020202003F20202020C8
:106FC0002020000000000000000000000000000081
:106FD00000000000000000000000000000000000B1
:106FE00000000000000000000000000000000000A1
:106FF0000000000000000000000000000000000091
:107000000000000000000000000000000000000080
:107010000000000000F80000000000000033000045
:10702000000000100C02100C020000000000000024
:1070300000000040C07840C0780000043F04043FD6
:10704000040000708888FC08300000182020FF2110
:107050001E00F008F0806018000000310C031E21B3
:107060001E0000F00888700000001E21232C192744
:10707000211000120E0000000000000000000000BF
:107080000000000000E018040200000000071820C3
:10709000400000020418E000000000402018070033
:1070A0000000404080F0804040000202010F0102D9
:1070B000020000000000E0000000000101010F01DB
:1070C00001010000000000000000009070000000BE
:1070D00000000000000000000000000101010101AB
:1070E000010000000000000000000030300000003F
:1070F000000000000000C038040000601807000015
:10710000000000E010080810E000000F1020201020
:107110000F0000001010F8000000000020203F20A9
:107120002000007008080808F00000302824222100
:107130003000003008080888700000182021212243
:107140001C000000804030F8000000060524243FA9
:10715000242400F8888888080800001920202011BD
:107160000E0000E0108888900000000F1120202001
:107170001F0000180808886818000000003E010081
:1071800000000070880808887000001C222121225D
:107190001C0000F008080810E00000011222221173
:1071A0000F00000000C0C0000000000000303000F0
:1071B00000000000008000000000000000E000006F
:1071C00000000000804020100800000102040810A8
:1071D0002000004040404040400000020202020205
:1071E0000200000810204080000000201008040267
:1071F0000100007048080888700000000030370067
:107200000000C030C828E810E000071827282F2801
:1072100017000000C038E0000000203C23020227D5
:10722000382008F8888888700000203F202020112E
:107230000E00C03008080808380007182020201069
:10724000080008F808080810E000203F202020105F
:107250000F0008F88888E8081000203F202023202D
:10726000180008F88888E8081000203F2000030074
:107270000000C03008080838000007182020221E2F
:10728000020008F808000008F808203F2101012149
:107290003F20000808F8080800000020203F2020B8
:1072A000000000000808F8080800C08080807F0007
:1072B000000008F888C028180800203F2001263860
:1072C000200008F8080000000000203F20202020B7
:1072D000300008F8F800F8F80800203F013E013FB0
:1072E000200008F830C00008F808203F20000718E8
:1072F0003F00E01008080810E0000F1020202010C8
:107300000F0008F808080808F000203F21010101DB
:107310000000E01008080810E0000F102828305086
:107320004F0008F8888888887000203F2000030CF0
:1073300030200070880808083800003820212122F9
:107340001C00180808F8080818000000203F20005A
:10735000000008F808000008F808001F202020207E
:107360001F000878880000C83808000007380E01A0
:10737000000008F800F800F8080000033E013E0392
:107380000000081868808068180820302C03032C3F
:1073900030200838C800C83808000000203F20000E
:1073A000000010080808C8380800203826212020CE
:1073B0001800000000FE020202000000007F4040B2
:1073C0004000000438C00000000000000001063842
:1073D000C00000020202FE000000004040407F00AA
:1073E0000000000004020204000000000000000091
:1073F000000000000000000000008080808080808D
:107400008080000202040000000000000000000074
:107410000000000080808000000000192424123F3A
:10742000200010F0008080000000003F112020119B
:107430000E000000008080800000000E112020203F
:107440001100000080808090F000001F202020109C
:107450003F200000808080800000001F242424241E
:107460001700008080E0909020000020203F202026
:1074700000000000808080808000006B94949493D2
:10748000600010F0008080800000203F210000207C
:107490003F2000809898000000000020203F20201E
:1074A0000000000000809898000000C08080807F6D
:1074B000000010F0000080808000203F240629306A
:1074C0002000001010F8000000000020203F2020C5
:1074D00000008080808080808000203F20003F204E
:1074E000003F8080008080800000203F210000203D
:1074F0003F200000808080800000001F202020208E
:107500001F00808000808000000080FF91202011FB
:107510000E000000008080008000000E11202091ED
:10752000FF80808080008080800020203F2120001C
:107530000100000080808080800000332424242407
:107540001900008080E0808000000000001F2020E3
:1075500010008080000000808000001F202020108C
:107560003F20808080008080800000030C300C036E
:1075700000008080008080008080010E300C073881
:10758000060100808080008080000020310E2E31B6
:10759000200080808000008080800081867818062E
:1075A000010000808080808080000021302C22211A
:1075B00030000000000000FC020200000000013E5C
:1075C000404000000000FF00000000000000FF003D
:1075D00000000202FC000000000040403E010000EC
:1075E000000000020102020402000000000000008E
:1075F000000000000000000000000000000000008B
:10760000000003030707076070501030F0F03010DF
:107610005070600000000000000000000000000644
:107620000F1F3E1F0F060000000000005F0000005B
:107630000007000700147F147F14242A7F2A1223D6
:1076400013086462364955225000050300001C22CD
:1076500041000041221C0000082A1C2A0808083E9C
:107660000808A06000000008080808086060000022
:107670000020100804023E5149453E00427F400070
:10768000625149494622414949361814127F102750
:10769000454545393C4A4949300171090503364998
:1076A000494936064949291E003636000000AC6CAF
:1076B0000000081422410014141414144122140868
:1076C000000201510906324979413E7E0909097ECD
:1076D0007F494949363E414141227F4141221C7F39
:1076E000494949417F090909013E414151727F08D9
:1076F00008087F417F4100002040413F017F08147E
:1077000022417F404040407F020C027F7F040810EE
:107710007F3E4141413E7F090909063E4151215EBC
:107720007F09192946264949493201017F01013F54
:107730004040403F1F2040201F3F4038403F6314DF
:10774000081463030478040361514945437F4141B0
:107750000000020408102041417F000004020102E1
:1077600004808080808001020400002054545478FA
:107770007F484444383844442800384444487F38DB
:1077800054545418087E09020018A4A4A47C7F084D
:10779000040478007D00000080847D00007F1028B4
:1077A0004400417F4000007C041804787C08047C7D
:1077B000003844443800FC24241800182424FC0019
:1077C000007C0804004854542400047F4400003C1A
:1077D00040407C001C2040201C3C4030403C442861
:1077E0001028441CA0A07C004464544C440836413A
:1077F0000000007F00000041360800000201010285
:1078000001020505020060C0F0381C002C78000859
:10781000000000205C010000DC040008547800082F
:107820005C0100208C43000070400008C1320182DE
:1078300010037124F41AAA01413202134C062A20C3
:1078400004811AF80C8B40071001300A11D03C2932
:04785000F0015C00E7
:04000005080000ED02
:00000001FF
