Component: ARM Compiler 5.06 update 5 (build 528) Tool: armlink [4d35e2]

==============================================================================

Section Cross References

    startup_stm32f103xb.o(RESET) refers to startup_stm32f103xb.o(STACK) for __initial_sp
    startup_stm32f103xb.o(RESET) refers to startup_stm32f103xb.o(.text) for Reset_Handler
    startup_stm32f103xb.o(RESET) refers to stm32f1xx_it.o(i.NMI_Handler) for NMI_Handler
    startup_stm32f103xb.o(RESET) refers to stm32f1xx_it.o(i.HardFault_Handler) for HardFault_Handler
    startup_stm32f103xb.o(RESET) refers to stm32f1xx_it.o(i.MemManage_Handler) for MemManage_Handler
    startup_stm32f103xb.o(RESET) refers to stm32f1xx_it.o(i.BusFault_Handler) for BusFault_Handler
    startup_stm32f103xb.o(RESET) refers to stm32f1xx_it.o(i.UsageFault_Handler) for UsageFault_Handler
    startup_stm32f103xb.o(RESET) refers to port.o(.emb_text) for SVC_Handler
    startup_stm32f103xb.o(RESET) refers to stm32f1xx_it.o(i.DebugMon_Handler) for DebugMon_Handler
    startup_stm32f103xb.o(RESET) refers to port.o(i.SysTick_Handler) for SysTick_Handler
    startup_stm32f103xb.o(RESET) refers to stm32f1xx_it.o(i.EXTI9_5_IRQHandler) for EXTI9_5_IRQHandler
    startup_stm32f103xb.o(RESET) refers to stm32f1xx_it.o(i.TIM4_IRQHandler) for TIM4_IRQHandler
    startup_stm32f103xb.o(RESET) refers to stm32f1xx_it.o(i.EXTI15_10_IRQHandler) for EXTI15_10_IRQHandler
    startup_stm32f103xb.o(RESET) refers to stm32f1xx_it.o(i.RTC_Alarm_IRQHandler) for RTC_Alarm_IRQHandler
    startup_stm32f103xb.o(.text) refers to system_stm32f1xx.o(i.SystemInit) for SystemInit
    startup_stm32f103xb.o(.text) refers to entry.o(.ARM.Collect$$$$00000000) for __main
    main.o(i.HAL_TIM_PeriodElapsedCallback) refers to stm32f1xx_hal.o(i.HAL_IncTick) for HAL_IncTick
    main.o(i.SystemClock_Config) refers to memseta.o(.text) for __aeabi_memclr4
==============================================================================

Removing Unused input sections from the image.

    Removing main.o(.rev16_text), (4 bytes).
    Removing main.o(.revsh_text), (4 bytes).
    Removing main.o(.rrx_text), (6 bytes).
    Removing gpio.o(.rev16_text), (4 bytes).
    Removing gpio.o(.revsh_text), (4 bytes).
    Removing gpio.o(.rrx_text), (6 bytes).
    Removing freertos.o(.rev16_text), (4 bytes).
    Removing freertos.o(.revsh_text), (4 bytes).
    Removing freertos.o(.rrx_text), (6 bytes).
    Removing freertos.o(i.StartDefaultTask), (48 bytes).
    Removing freertos.o(.constdata), (36 bytes).
    Removing freertos.o(.conststring), (12 bytes).
    Removing freertos.o(.data), (4 bytes).
    Removing adc.o(.rev16_text), (4 bytes).
    Removing adc.o(.revsh_text), (4 bytes).
    Removing adc.o(.rrx_text), (6 bytes).
    Removing adc.o(i.HAL_ADC_MspDeInit), (40 bytes).
    Removing i2c.o(.rev16_text), (4 bytes).
==============================================================================

Image Symbol Table

    Local Symbols

    Symbol Name                              Value     Ov Type        Size  Object(Section)

    ../Core/Src/adc.c                        0x00000000   Number         0  adc.o ABSOLUTE
    ../Core/Src/freertos.c                   0x00000000   Number         0  freertos.o ABSOLUTE
    ../Core/Src/gpio.c                       0x00000000   Number         0  gpio.o ABSOLUTE
    ../Core/Src/i2c.c                        0x00000000   Number         0  i2c.o ABSOLUTE
    ../Core/Src/main.c                       0x00000000   Number         0  main.o ABSOLUTE
    ../Core/Src/rtc.c                        0x00000000   Number         0  rtc.o ABSOLUTE
    ../Core/Src/spi.c                        0x00000000   Number         0  spi.o ABSOLUTE
    ../Core/Src/stm32f1xx_hal_msp.c          0x00000000   Number         0  stm32f1xx_hal_msp.o ABSOLUTE
    ../Core/Src/stm32f1xx_hal_timebase_tim.c 0x00000000   Number         0  stm32f1xx_hal_timebase_tim.o ABSOLUTE
    ../Core/Src/stm32f1xx_it.c               0x00000000   Number         0  stm32f1xx_it.o ABSOLUTE
    ../Core/Src/system_stm32f1xx.c           0x00000000   Number         0  system_stm32f1xx.o ABSOLUTE
    ../Core/Src/tim.c                        0x00000000   Number         0  tim.o ABSOLUTE
    ../Core/Src/usart.c                      0x00000000   Number         0  usart.o ABSOLUTE
    ../Core/Src/usb.c                        0x00000000   Number         0  usb.o ABSOLUTE
    ../Drivers/STM32F1xx_HAL_Driver/Src/stm32f1xx_hal.c 0x00000000   Number         0  stm32f1xx_hal.o ABSOLUTE
    ../Drivers/STM32F1xx_HAL_Driver/Src/stm32f1xx_hal_adc.c 0x00000000   Number         0  stm32f1xx_hal_adc.o ABSOLUTE
    ../Drivers/STM32F1xx_HAL_Driver/Src/stm32f1xx_hal_adc_ex.c 0x00000000   Number         0  stm32f1xx_hal_adc_ex.o ABSOLUTE
    ../Drivers/STM32F1xx_HAL_Driver/Src/stm32f1xx_hal_cortex.c 0x00000000   Number         0  stm32f1xx_hal_cortex.o ABSOLUTE
    ../Drivers/STM32F1xx_HAL_Driver/Src/stm32f1xx_hal_dma.c 0x00000000   Number         0  stm32f1xx_hal_dma.o ABSOLUTE
    ../Drivers/STM32F1xx_HAL_Driver/Src/stm32f1xx_hal_exti.c 0x00000000   Number         0  stm32f1xx_hal_exti.o ABSOLUTE
    ../Drivers/STM32F1xx_HAL_Driver/Src/stm32f1xx_hal_flash.c 0x00000000   Number         0  stm32f1xx_hal_flash.o ABSOLUTE
    ../Drivers/STM32F1xx_HAL_Driver/Src/stm32f1xx_hal_flash_ex.c 0x00000000   Number         0  stm32f1xx_hal_flash_ex.o ABSOLUTE
    ../Drivers/STM32F1xx_HAL_Driver/Src/stm32f1xx_hal_gpio.c 0x00000000   Number         0  stm32f1xx_hal_gpio.o ABSOLUTE
    ../Drivers/STM32F1xx_HAL_Driver/Src/stm32f1xx_hal_gpio_ex.c 0x00000000   Number         0  stm32f1xx_hal_gpio_ex.o ABSOLUTE
    ../Drivers/STM32F1xx_HAL_Driver/Src/stm32f1xx_hal_i2c.c 0x00000000   Number         0  stm32f1xx_hal_i2c.o ABSOLUTE
    ../Drivers/STM32F1xx_HAL_Driver/Src/stm32f1xx_hal_pcd.c 0x00000000   Number         0  stm32f1xx_hal_pcd.o ABSOLUTE
    ../Drivers/STM32F1xx_HAL_Driver/Src/stm32f1xx_hal_pcd_ex.c 0x00000000   Number         0  stm32f1xx_hal_pcd_ex.o ABSOLUTE
    ../Drivers/STM32F1xx_HAL_Driver/Src/stm32f1xx_hal_pwr.c 0x00000000   Number         0  stm32f1xx_hal_pwr.o ABSOLUTE
    ../Drivers/STM32F1xx_HAL_Driver/Src/stm32f1xx_hal_rcc.c 0x00000000   Number         0  stm32f1xx_hal_rcc.o ABSOLUTE
    ../Drivers/STM32F1xx_HAL_Driver/Src/stm32f1xx_hal_rcc_ex.c 0x00000000   Number         0  stm32f1xx_hal_rcc_ex.o ABSOLUTE
    ../Drivers/STM32F1xx_HAL_Driver/Src/stm32f1xx_hal_rtc.c 0x00000000   Number         0  stm32f1xx_hal_rtc.o ABSOLUTE
    ../Drivers/STM32F1xx_HAL_Driver/Src/stm32f1xx_hal_rtc_ex.c 0x00000000   Number         0  stm32f1xx_hal_rtc_ex.o ABSOLUTE
    ../Drivers/STM32F1xx_HAL_Driver/Src/stm32f1xx_hal_spi.c 0x00000000   Number         0  stm32f1xx_hal_spi.o ABSOLUTE
    ../Drivers/STM32F1xx_HAL_Driver/Src/stm32f1xx_hal_tim.c 0x00000000   Number         0  stm32f1xx_hal_tim.o ABSOLUTE
    ../Drivers/STM32F1xx_HAL_Driver/Src/stm32f1xx_hal_tim_ex.c 0x00000000   Number         0  stm32f1xx_hal_tim_ex.o ABSOLUTE
    ../Drivers/STM32F1xx_HAL_Driver/Src/stm32f1xx_hal_uart.c 0x00000000   Number         0  stm32f1xx_hal_uart.o ABSOLUTE
    ../Drivers/STM32F1xx_HAL_Driver/Src/stm32f1xx_ll_usb.c 0x00000000   Number         0  stm32f1xx_ll_usb.o ABSOLUTE
    ../Middlewares/Third_Party/FreeRTOS/Source/CMSIS_RTOS_V2/cmsis_os2.c 0x00000000   Number         0  cmsis_os2.o ABSOLUTE
    ../Middlewares/Third_Party/FreeRTOS/Source/croutine.c 0x00000000   Number         0  croutine.o ABSOLUTE
    ../Middlewares/Third_Party/FreeRTOS/Source/event_groups.c 0x00000000   Number         0  event_groups.o ABSOLUTE
    ../Middlewares/Third_Party/FreeRTOS/Source/list.c 0x00000000   Number         0  list.o ABSOLUTE
    ../Middlewares/Third_Party/FreeRTOS/Source/portable/MemMang/heap_4.c 0x00000000   Number         0  heap_4.o ABSOLUTE
    ../Middlewares/Third_Party/FreeRTOS/Source/portable/RVDS/ARM_CM3/port.c 0x00000000   Number         0  port.o ABSOLUTE
    ../Middlewares/Third_Party/FreeRTOS/Source/queue.c 0x00000000   Number         0  queue.o ABSOLUTE
    ../Middlewares/Third_Party/FreeRTOS/Source/stream_buffer.c 0x00000000   Number         0  stream_buffer.o ABSOLUTE
    ../Middlewares/Third_Party/FreeRTOS/Source/tasks.c 0x00000000   Number         0  tasks.o ABSOLUTE
    ../Middlewares/Third_Party/FreeRTOS/Source/timers.c 0x00000000   Number         0  timers.o ABSOLUTE
    ../clib/../cmprslib/zerorunl.c           0x00000000   Number         0  __dczerorl.o ABSOLUTE
    ../clib/microlib/division.c              0x00000000   Number         0  uidiv.o ABSOLUTE
    ../clib/microlib/division.c              0x00000000   Number         0  uldiv.o ABSOLUTE
    ../clib/microlib/errno.c                 0x00000000   Number         0  errno.o ABSOLUTE
    ../clib/microlib/init/entry.s            0x00000000   Number         0  entry9b.o ABSOLUTE
    ../clib/microlib/init/entry.s            0x00000000   Number         0  entry11b.o ABSOLUTE
    ../clib/microlib/init/entry.s            0x00000000   Number         0  entry11a.o ABSOLUTE
    ../clib/microlib/init/entry.s            0x00000000   Number         0  entry10b.o ABSOLUTE
    ../clib/microlib/init/entry.s            0x00000000   Number         0  entry10a.o ABSOLUTE
    ../clib/microlib/init/entry.s            0x00000000   Number         0  entry2.o ABSOLUTE
    ../clib/microlib/init/entry.s            0x00000000   Number         0  entry9a.o ABSOLUTE
    ../clib/microlib/init/entry.s            0x00000000   Number         0  entry8b.o ABSOLUTE
    ../clib/microlib/init/entry.s            0x00000000   Number         0  entry.o ABSOLUTE
    ../clib/microlib/init/entry.s            0x00000000   Number         0  entry8a.o ABSOLUTE
    ../clib/microlib/init/entry.s            0x00000000   Number         0  entry7b.o ABSOLUTE
    ../clib/microlib/init/entry.s            0x00000000   Number         0  entry7a.o ABSOLUTE
    ../clib/microlib/init/entry.s            0x00000000   Number         0  entry5.o ABSOLUTE
    ../clib/microlib/longlong.c              0x00000000   Number         0  llshl.o ABSOLUTE
    ../clib/microlib/longlong.c              0x00000000   Number         0  llushr.o ABSOLUTE
    ../clib/microlib/longlong.c              0x00000000   Number         0  llsshr.o ABSOLUTE
    ../clib/microlib/malloc/malloc.c         0x00000000   Number         0  malloca.o ABSOLUTE
    ../clib/microlib/malloc/malloc.c         0x00000000   Number         0  mallocra.o ABSOLUTE
    ../clib/microlib/malloc/malloc.c         0x00000000   Number         0  mallocr.o ABSOLUTE
    ../clib/microlib/malloc/malloc.c         0x00000000   Number         0  malloc.o ABSOLUTE
    ../clib/microlib/malloc/mvars.c          0x00000000   Number         0  mvars.o ABSOLUTE
    ../clib/microlib/printf/printf.c         0x00000000   Number         0  printf7.o ABSOLUTE
    ../clib/microlib/printf/printf.c         0x00000000   Number         0  printfa.o ABSOLUTE
    ../clib/microlib/printf/printf.c         0x00000000   Number         0  printf4.o ABSOLUTE
    ../clib/microlib/printf/printf.c         0x00000000   Number         0  printf3.o ABSOLUTE
    ../clib/microlib/printf/printf.c         0x00000000   Number         0  printf2.o ABSOLUTE
    ../clib/microlib/printf/printf.c         0x00000000   Number         0  printf1.o ABSOLUTE
    ../clib/microlib/printf/printf.c         0x00000000   Number         0  printf5.o ABSOLUTE
    ../clib/microlib/printf/printf.c         0x00000000   Number         0  printf6.o ABSOLUTE
    ../clib/microlib/printf/printf.c         0x00000000   Number         0  printf0.o ABSOLUTE
    ../clib/microlib/printf/printf.c         0x00000000   Number         0  printfb.o ABSOLUTE
    ../clib/microlib/printf/printf.c         0x00000000   Number         0  printf8.o ABSOLUTE
    ../clib/microlib/printf/stubs.s          0x00000000   Number         0  stubs.o ABSOLUTE
    ../clib/microlib/stdio/streams.c         0x00000000   Number         0  stdout.o ABSOLUTE
    ../clib/microlib/stdlib/rand.c           0x00000000   Number         0  rand.o ABSOLUTE
    ../clib/microlib/string/memcpy.c         0x00000000   Number         0  memcpya.o ABSOLUTE
    ../clib/microlib/string/memcpy.c         0x00000000   Number         0  memcpyb.o ABSOLUTE
    ../clib/microlib/string/memset.c         0x00000000   Number         0  memseta.o ABSOLUTE
    ../clib/microlib/string/memset.c         0x00000000   Number         0  memset.o ABSOLUTE
    ../clib/microlib/string/strcpy.c         0x00000000   Number         0  strcpy.o ABSOLUTE
    ../clib/microlib/string/strlen.c         0x00000000   Number         0  strlen.o ABSOLUTE
    ../clib/microlib/stubs.s                 0x00000000   Number         0  iusefp.o ABSOLUTE
    ../fplib/microlib/fpadd.c                0x00000000   Number         0  fadd.o ABSOLUTE
    ../fplib/microlib/fpadd.c                0x00000000   Number         0  dadd.o ABSOLUTE
    ../fplib/microlib/fpdiv.c                0x00000000   Number         0  ddiv.o ABSOLUTE
    ../fplib/microlib/fpepilogue.c           0x00000000   Number         0  depilogue.o ABSOLUTE
    ../fplib/microlib/fpepilogue.c           0x00000000   Number         0  fepilogue.o ABSOLUTE
    ../fplib/microlib/fpfix.c                0x00000000   Number         0  dfixul.o ABSOLUTE
    ../fplib/microlib/fpfix.c                0x00000000   Number         0  ffixui.o ABSOLUTE
    ../fplib/microlib/fpfix.c                0x00000000   Number         0  dfixi.o ABSOLUTE
    ../fplib/microlib/fpflt.c                0x00000000   Number         0  fflti.o ABSOLUTE
    ../fplib/microlib/fpflt.c                0x00000000   Number         0  dflti.o ABSOLUTE
    ../fplib/microlib/fpflt.c                0x00000000   Number         0  ffltui.o ABSOLUTE
    ../fplib/microlib/fpmul.c                0x00000000   Number         0  dmul.o ABSOLUTE
    ../fplib/microlib/fpscalb.c              0x00000000   Number         0  dscalb.o ABSOLUTE
    ../fplib/microlib/fpscalb.c              0x00000000   Number         0  fscalb.o ABSOLUTE
    ../fplib/microlib/fpsqrt.c               0x00000000   Number         0  dsqrt.o ABSOLUTE
    ../mathlib/acos.c                        0x00000000   Number         0  acos.o ABSOLUTE
    ../mathlib/acos.c                        0x00000000   Number         0  acos_x.o ABSOLUTE
    ../mathlib/dunder.c                      0x00000000   Number         0  dunder.o ABSOLUTE
    ../mathlib/poly.c                        0x00000000   Number         0  poly.o ABSOLUTE
    ../mathlib/sqrt.c                        0x00000000   Number         0  sqrt.o ABSOLUTE
    ../mathlib/sqrt.c                        0x00000000   Number         0  sqrt_x.o ABSOLUTE
    ..\Core\Src\adc.c                        0x00000000   Number         0  adc.o ABSOLUTE
    ..\Core\Src\freertos.c                   0x00000000   Number         0  freertos.o ABSOLUTE
    ..\Core\Src\gpio.c                       0x00000000   Number         0  gpio.o ABSOLUTE
    ..\Core\Src\i2c.c                        0x00000000   Number         0  i2c.o ABSOLUTE
    ..\Core\Src\main.c                       0x00000000   Number         0  main.o ABSOLUTE
    ..\Core\Src\rtc.c                        0x00000000   Number         0  rtc.o ABSOLUTE
    ..\Core\Src\spi.c                        0x00000000   Number         0  spi.o ABSOLUTE
    ..\Core\Src\stm32f1xx_hal_msp.c          0x00000000   Number         0  stm32f1xx_hal_msp.o ABSOLUTE
    ..\Core\Src\stm32f1xx_hal_timebase_tim.c 0x00000000   Number         0  stm32f1xx_hal_timebase_tim.o ABSOLUTE
    ..\Core\Src\stm32f1xx_it.c               0x00000000   Number         0  stm32f1xx_it.o ABSOLUTE
    ..\Core\Src\system_stm32f1xx.c           0x00000000   Number         0  system_stm32f1xx.o ABSOLUTE
    ..\Core\Src\tim.c                        0x00000000   Number         0  tim.o ABSOLUTE
    ..\Core\Src\usart.c                      0x00000000   Number         0  usart.o ABSOLUTE
    ..\Core\Src\usb.c                        0x00000000   Number         0  usb.o ABSOLUTE
    ..\Drivers\DshanMCU-F103\driver_active_buzzer.c 0x00000000   Number         0  driver_active_buzzer.o ABSOLUTE
    ..\Drivers\DshanMCU-F103\driver_color_led.c 0x00000000   Number         0  driver_color_led.o ABSOLUTE
    ..\Drivers\DshanMCU-F103\driver_dht11.c  0x00000000   Number         0  driver_dht11.o ABSOLUTE
    ..\Drivers\DshanMCU-F103\driver_ds18b20.c 0x00000000   Number         0  driver_ds18b20.o ABSOLUTE
    ..\Drivers\DshanMCU-F103\driver_ir_obstacle.c 0x00000000   Number         0  driver_ir_obstacle.o ABSOLUTE
    ..\Drivers\DshanMCU-F103\driver_ir_receiver.c 0x00000000   Number         0  driver_ir_receiver.o ABSOLUTE
    ..\Drivers\DshanMCU-F103\driver_ir_sender.c 0x00000000   Number         0  driver_ir_sender.o ABSOLUTE
    ..\Drivers\DshanMCU-F103\driver_irq.c    0x00000000   Number         0  driver_irq.o ABSOLUTE
    ..\Drivers\DshanMCU-F103\driver_key.c    0x00000000   Number         0  driver_key.o ABSOLUTE
    ..\Drivers\DshanMCU-F103\driver_lcd.c    0x00000000   Number         0  driver_lcd.o ABSOLUTE
    ..\Drivers\DshanMCU-F103\driver_led.c    0x00000000   Number         0  driver_led.o ABSOLUTE
    ..\Drivers\DshanMCU-F103\driver_light_sensor.c 0x00000000   Number         0  driver_light_sensor.o ABSOLUTE
    ..\Drivers\DshanMCU-F103\driver_motor.c  0x00000000   Number         0  driver_motor.o ABSOLUTE
    ..\Drivers\DshanMCU-F103\driver_mpu6050.c 0x00000000   Number         0  driver_mpu6050.o ABSOLUTE
    ..\Drivers\DshanMCU-F103\driver_oled.c   0x00000000   Number         0  driver_oled.o ABSOLUTE
    ..\Drivers\DshanMCU-F103\driver_passive_buzzer.c 0x00000000   Number         0  driver_passive_buzzer.o ABSOLUTE
    ..\Drivers\DshanMCU-F103\driver_rotary_encoder.c 0x00000000   Number         0  driver_rotary_encoder.o ABSOLUTE
    ..\Drivers\DshanMCU-F103\driver_spiflash_w25q64.c 0x00000000   Number         0  driver_spiflash_w25q64.o ABSOLUTE
    ..\Drivers\DshanMCU-F103\driver_timer.c  0x00000000   Number         0  driver_timer.o ABSOLUTE
    ..\Drivers\DshanMCU-F103\driver_uart.c   0x00000000   Number         0  driver_uart.o ABSOLUTE
    ..\Drivers\DshanMCU-F103\driver_ultrasonic_sr04.c 0x00000000   Number         0  driver_ultrasonic_sr04.o ABSOLUTE
    ..\Drivers\STM32F1xx_HAL_Driver\Src\stm32f1xx_hal.c 0x00000000   Number         0  stm32f1xx_hal.o ABSOLUTE
    ..\Drivers\STM32F1xx_HAL_Driver\Src\stm32f1xx_hal_adc.c 0x00000000   Number         0  stm32f1xx_hal_adc.o ABSOLUTE
    ..\Drivers\STM32F1xx_HAL_Driver\Src\stm32f1xx_hal_adc_ex.c 0x00000000   Number         0  stm32f1xx_hal_adc_ex.o ABSOLUTE
    ..\Drivers\STM32F1xx_HAL_Driver\Src\stm32f1xx_hal_cortex.c 0x00000000   Number         0  stm32f1xx_hal_cortex.o ABSOLUTE
    ..\Drivers\STM32F1xx_HAL_Driver\Src\stm32f1xx_hal_dma.c 0x00000000   Number         0  stm32f1xx_hal_dma.o ABSOLUTE
    ..\Drivers\STM32F1xx_HAL_Driver\Src\stm32f1xx_hal_exti.c 0x00000000   Number         0  stm32f1xx_hal_exti.o ABSOLUTE
    ..\Drivers\STM32F1xx_HAL_Driver\Src\stm32f1xx_hal_flash.c 0x00000000   Number         0  stm32f1xx_hal_flash.o ABSOLUTE
    ..\Drivers\STM32F1xx_HAL_Driver\Src\stm32f1xx_hal_flash_ex.c 0x00000000   Number         0  stm32f1xx_hal_flash_ex.o ABSOLUTE
    ..\Drivers\STM32F1xx_HAL_Driver\Src\stm32f1xx_hal_gpio.c 0x00000000   Number         0  stm32f1xx_hal_gpio.o ABSOLUTE
    ..\Drivers\STM32F1xx_HAL_Driver\Src\stm32f1xx_hal_gpio_ex.c 0x00000000   Number         0  stm32f1xx_hal_gpio_ex.o ABSOLUTE
    ..\Drivers\STM32F1xx_HAL_Driver\Src\stm32f1xx_hal_i2c.c 0x00000000   Number         0  stm32f1xx_hal_i2c.o ABSOLUTE
    ..\Drivers\STM32F1xx_HAL_Driver\Src\stm32f1xx_hal_pcd.c 0x00000000   Number         0  stm32f1xx_hal_pcd.o ABSOLUTE
    ..\Drivers\STM32F1xx_HAL_Driver\Src\stm32f1xx_hal_pcd_ex.c 0x00000000   Number         0  stm32f1xx_hal_pcd_ex.o ABSOLUTE
    ..\Drivers\STM32F1xx_HAL_Driver\Src\stm32f1xx_hal_pwr.c 0x00000000   Number         0  stm32f1xx_hal_pwr.o ABSOLUTE
    ..\Drivers\STM32F1xx_HAL_Driver\Src\stm32f1xx_hal_rcc.c 0x00000000   Number         0  stm32f1xx_hal_rcc.o ABSOLUTE
    ..\Drivers\STM32F1xx_HAL_Driver\Src\stm32f1xx_hal_rcc_ex.c 0x00000000   Number         0  stm32f1xx_hal_rcc_ex.o ABSOLUTE
    ..\Drivers\STM32F1xx_HAL_Driver\Src\stm32f1xx_hal_rtc.c 0x00000000   Number         0  stm32f1xx_hal_rtc.o ABSOLUTE
    ..\Drivers\STM32F1xx_HAL_Driver\Src\stm32f1xx_hal_rtc_ex.c 0x00000000   Number         0  stm32f1xx_hal_rtc_ex.o ABSOLUTE
    ..\Drivers\STM32F1xx_HAL_Driver\Src\stm32f1xx_hal_spi.c 0x00000000   Number         0  stm32f1xx_hal_spi.o ABSOLUTE
    ..\Drivers\STM32F1xx_HAL_Driver\Src\stm32f1xx_hal_tim.c 0x00000000   Number         0  stm32f1xx_hal_tim.o ABSOLUTE
    ..\Drivers\STM32F1xx_HAL_Driver\Src\stm32f1xx_hal_tim_ex.c 0x00000000   Number         0  stm32f1xx_hal_tim_ex.o ABSOLUTE
    ..\Drivers\STM32F1xx_HAL_Driver\Src\stm32f1xx_hal_uart.c 0x00000000   Number         0  stm32f1xx_hal_uart.o ABSOLUTE
    ..\Drivers\STM32F1xx_HAL_Driver\Src\stm32f1xx_ll_usb.c 0x00000000   Number         0  stm32f1xx_ll_usb.o ABSOLUTE
    ..\Middlewares\Third_Party\FreeRTOS\Source\CMSIS_RTOS_V2\cmsis_os2.c 0x00000000   Number         0  cmsis_os2.o ABSOLUTE
    ..\Middlewares\Third_Party\FreeRTOS\Source\portable\RVDS\ARM_CM3\port.c 0x00000000   Number         0  port.o ABSOLUTE
    ..\MyWatch\Menu.c                        0x00000000   Number         0  menu.o ABSOLUTE
    ..\MyWatch\MenuImg.c                     0x00000000   Number         0  menuimg.o ABSOLUTE
    ..\MyWatch\ReadData.c                    0x00000000   Number         0  readdata.o ABSOLUTE
    ..\MyWatch\SelectTask.c                  0x00000000   Number         0  selecttask.o ABSOLUTE
    ..\MyWatch\SetTime.c                     0x00000000   Number         0  settime.o ABSOLUTE
    ..\MyWatch\beep.c                        0x00000000   Number         0  beep.o ABSOLUTE
    ..\MyWatch\draw.c                        0x00000000   Number         0  draw.o ABSOLUTE
    ..\MyWatch\game1.c                       0x00000000   Number         0  game1.o ABSOLUTE
    ..\MyWatch\game2.c                       0x00000000   Number         0  game2.o ABSOLUTE
    ..\MyWatch\resources.c                   0x00000000   Number         0  resources.o ABSOLUTE
    ..\\Drivers\\DshanMCU-F103\\driver_active_buzzer.c 0x00000000   Number         0  driver_active_buzzer.o ABSOLUTE
    ..\\Drivers\\DshanMCU-F103\\driver_color_led.c 0x00000000   Number         0  driver_color_led.o ABSOLUTE
    ..\\Drivers\\DshanMCU-F103\\driver_dht11.c 0x00000000   Number         0  driver_dht11.o ABSOLUTE
    ..\\Drivers\\DshanMCU-F103\\driver_ds18b20.c 0x00000000   Number         0  driver_ds18b20.o ABSOLUTE
    ..\\Drivers\\DshanMCU-F103\\driver_ir_obstacle.c 0x00000000   Number         0  driver_ir_obstacle.o ABSOLUTE
    ..\\Drivers\\DshanMCU-F103\\driver_ir_receiver.c 0x00000000   Number         0  driver_ir_receiver.o ABSOLUTE
    ..\\Drivers\\DshanMCU-F103\\driver_ir_sender.c 0x00000000   Number         0  driver_ir_sender.o ABSOLUTE
    ..\\Drivers\\DshanMCU-F103\\driver_irq.c 0x00000000   Number         0  driver_irq.o ABSOLUTE
    ..\\Drivers\\DshanMCU-F103\\driver_key.c 0x00000000   Number         0  driver_key.o ABSOLUTE
    ..\\Drivers\\DshanMCU-F103\\driver_led.c 0x00000000   Number         0  driver_led.o ABSOLUTE
    ..\\Drivers\\DshanMCU-F103\\driver_light_sensor.c 0x00000000   Number         0  driver_light_sensor.o ABSOLUTE
    ..\\Drivers\\DshanMCU-F103\\driver_motor.c 0x00000000   Number         0  driver_motor.o ABSOLUTE
    ..\\Drivers\\DshanMCU-F103\\driver_mpu6050.c 0x00000000   Number         0  driver_mpu6050.o ABSOLUTE
    ..\\Drivers\\DshanMCU-F103\\driver_oled.c 0x00000000   Number         0  driver_oled.o ABSOLUTE
    ..\\Drivers\\DshanMCU-F103\\driver_passive_buzzer.c 0x00000000   Number         0  driver_passive_buzzer.o ABSOLUTE
    ..\\Drivers\\DshanMCU-F103\\driver_rotary_encoder.c 0x00000000   Number         0  driver_rotary_encoder.o ABSOLUTE
    ..\\Drivers\\DshanMCU-F103\\driver_spiflash_w25q64.c 0x00000000   Number         0  driver_spiflash_w25q64.o ABSOLUTE
    ..\\Drivers\\DshanMCU-F103\\driver_timer.c 0x00000000   Number         0  driver_timer.o ABSOLUTE
    ..\\Drivers\\DshanMCU-F103\\driver_uart.c 0x00000000   Number         0  driver_uart.o ABSOLUTE
    ..\\Drivers\\DshanMCU-F103\\driver_ultrasonic_sr04.c 0x00000000   Number         0  driver_ultrasonic_sr04.o ABSOLUTE
    ..\\MyWatch\\Menu.c                      0x00000000   Number         0  menu.o ABSOLUTE
    ..\\MyWatch\\SelectTask.c                0x00000000   Number         0  selecttask.o ABSOLUTE
    ..\\MyWatch\\SetTime.c                   0x00000000   Number         0  settime.o ABSOLUTE
    cdcmple.s                                0x00000000   Number         0  cdcmple.o ABSOLUTE
    cdrcmple.s                               0x00000000   Number         0  cdrcmple.o ABSOLUTE
    cfcmple.s                                0x00000000   Number         0  cfcmple.o ABSOLUTE
    cfrcmple.s                               0x00000000   Number         0  cfrcmple.o ABSOLUTE
    dc.s                                     0x00000000   Number         0  dc.o ABSOLUTE
    handlers.s                               0x00000000   Number         0  handlers.o ABSOLUTE
    init.s                                   0x00000000   Number         0  init.o ABSOLUTE
    startup_stm32f103xb.s                    0x00000000   Number         0  startup_stm32f103xb.o ABSOLUTE
    RESET                                    0x08000000   Section      236  startup_stm32f103xb.o(RESET)
    .ARM.Collect$$$$00000000                 0x080000ec   Section        0  entry.o(.ARM.Collect$$$$00000000)
    .ARM.Collect$$$$00000001                 0x080000ec   Section        4  entry2.o(.ARM.Collect$$$$00000001)
    .ARM.Collect$$$$00000004                 0x080000f0   Section        4  entry5.o(.ARM.Collect$$$$00000004)
    .ARM.Collect$$$$00000008                 0x080000f4   Section        0  entry7b.o(.ARM.Collect$$$$00000008)
    .ARM.Collect$$$$0000000A                 0x080000f4   Section        0  entry8b.o(.ARM.Collect$$$$0000000A)
    .ARM.Collect$$$$0000000B                 0x080000f4   Section        8  entry9a.o(.ARM.Collect$$$$0000000B)
    .ARM.Collect$$$$0000000D                 0x080000fc   Section        0  entry10a.o(.ARM.Collect$$$$0000000D)
    .ARM.Collect$$$$0000000F                 0x080000fc   Section        0  entry11a.o(.ARM.Collect$$$$0000000F)
    .ARM.Collect$$$$00002712                 0x080000fc   Section        4  entry2.o(.ARM.Collect$$$$00002712)
    __lit__00000000                          0x080000fc   Data           4  entry2.o(.ARM.Collect$$$$00002712)
    .emb_text                                0x08000100   Section      150  port.o(.emb_text)
    .text                                    0x08000198   Section       36  startup_stm32f103xb.o(.text)
    .text                                    0x080001bc   Section        0  uldiv.o(.text)
    .text                                    0x0800021e   Section        0  llushr.o(.text)
    .text                                    0x08000240   Section        0  rand.o(.text)
    .text                                    0x08000264   Section        0  memcpya.o(.text)
    .text                                    0x08000288   Section        0  memseta.o(.text)
    .text                                    0x080002ac   Section        0  strlen.o(.text)
    .text                                    0x080002ba   Section        0  strcpy.o(.text)
    .text                                    0x080002cc   Section        0  fadd.o(.text)
    .text                                    0x0800037c   Section        0  fscalb.o(.text)
    .text                                    0x08000394   Section        0  dadd.o(.text)
    .text                                    0x080004e2   Section        0  dmul.o(.text)
    .text                                    0x080005c6   Section        0  dscalb.o(.text)
    .text                                    0x080005f4   Section        0  fflti.o(.text)
    .text                                    0x08000606   Section        0  ffltui.o(.text)
    .text                                    0x08000610   Section        0  dflti.o(.text)
    .text                                    0x08000632   Section        0  ffixui.o(.text)
    .text                                    0x0800065a   Section        0  dfixi.o(.text)
    .text                                    0x08000698   Section       20  cfcmple.o(.text)
    .text                                    0x080006ac   Section       20  cfrcmple.o(.text)
    .text                                    0x080006c0   Section        0  uidiv.o(.text)
    .text                                    0x080006ec   Section        0  llshl.o(.text)
    .text                                    0x0800070a   Section        0  llsshr.o(.text)
    .text                                    0x0800072e   Section        0  iusefp.o(.text)
    .text                                    0x0800072e   Section        0  fepilogue.o(.text)
    .text                                    0x0800079c   Section        0  depilogue.o(.text)
    .text                                    0x08000856   Section        0  ddiv.o(.text)
    .text                                    0x08000934   Section       36  init.o(.text)
    .text                                    0x08000958   Section        0  dsqrt.o(.text)
    .text                                    0x080009fa   Section        0  __dczerorl.o(.text)
    i.ADC_ConversionStop_Disable             0x08000a34   Section        0  stm32f1xx_hal_adc.o(i.ADC_ConversionStop_Disable)
    i.AlarmGoTask                            0x08000a8c   Section        0  menu.o(i.AlarmGoTask)
    i.AlarmMenuTask                          0x08000b08   Section        0  menu.o(i.AlarmMenuTask)
    i.BusFault_Handler                       0x08001244   Section        0  stm32f1xx_it.o(i.BusFault_Handler)
    i.DebugMon_Handler                       0x08001246   Section        0  stm32f1xx_it.o(i.DebugMon_Handler)
    i.DispatchKey                            0x08001248   Section        0  readdata.o(i.DispatchKey)
    i.EXTI15_10_IRQHandler                   0x08001274   Section        0  stm32f1xx_it.o(i.EXTI15_10_IRQHandler)
    i.EXTI9_5_IRQHandler                     0x08001292   Section        0  stm32f1xx_it.o(i.EXTI9_5_IRQHandler)
    i.Error_Handler                          0x08001298   Section        0  main.o(i.Error_Handler)
    i.GameMenuTask                           0x0800129c   Section        0  menu.o(i.GameMenuTask)
    i.Game_InitSet                           0x08001394   Section        0  game1.o(i.Game_InitSet)
    i.GetI2C                                 0x080013f8   Section        0  freertos.o(i.GetI2C)
    i.GetQueueIR                             0x08001408   Section        0  driver_ir_receiver.o(i.GetQueueIR)
    i.GetQueueMPU6050                        0x08001414   Section        0  driver_mpu6050.o(i.GetQueueMPU6050)
    i.GetQueueRotary                         0x08001420   Section        0  driver_rotary_encoder.o(i.GetQueueRotary)
    i.HAL_ADC_ConfigChannel                  0x0800142c   Section        0  stm32f1xx_hal_adc.o(i.HAL_ADC_ConfigChannel)
    i.HAL_ADC_Init                           0x08001528   Section        0  stm32f1xx_hal_adc.o(i.HAL_ADC_Init)
    i.HAL_ADC_MspInit                        0x08001644   Section        0  adc.o(i.HAL_ADC_MspInit)
    i.HAL_GPIO_EXTI_Callback                 0x0800169c   Section        0  driver_irq.o(i.HAL_GPIO_EXTI_Callback)
    i.HAL_GPIO_EXTI_IRQHandler               0x080016bc   Section        0  stm32f1xx_hal_gpio.o(i.HAL_GPIO_EXTI_IRQHandler)
    i.HAL_GPIO_Init                          0x080016d4   Section        0  stm32f1xx_hal_gpio.o(i.HAL_GPIO_Init)
    i.HAL_GPIO_ReadPin                       0x080018b4   Section        0  stm32f1xx_hal_gpio.o(i.HAL_GPIO_ReadPin)
    i.HAL_GPIO_WritePin                      0x080018be   Section        0  stm32f1xx_hal_gpio.o(i.HAL_GPIO_WritePin)
    i.HAL_GetTick                            0x080018c8   Section        0  stm32f1xx_hal.o(i.HAL_GetTick)
    i.HAL_I2C_Init                           0x080018d4   Section        0  stm32f1xx_hal_i2c.o(i.HAL_I2C_Init)
    i.HAL_I2C_Master_Transmit                0x08001a5c   Section        0  stm32f1xx_hal_i2c.o(i.HAL_I2C_Master_Transmit)
    i.HAL_I2C_Mem_Read                       0x08001b88   Section        0  stm32f1xx_hal_i2c.o(i.HAL_I2C_Mem_Read)
    i.HAL_I2C_Mem_Write                      0x08001dd8   Section        0  stm32f1xx_hal_i2c.o(i.HAL_I2C_Mem_Write)
    i.HAL_I2C_MspInit                        0x08001f08   Section        0  i2c.o(i.HAL_I2C_MspInit)
    i.HAL_IncTick                            0x08001f64   Section        0  stm32f1xx_hal.o(i.HAL_IncTick)
    i.HAL_Init                               0x08001f74   Section        0  stm32f1xx_hal.o(i.HAL_Init)
    i.HAL_InitTick                           0x08001f98   Section        0  stm32f1xx_hal_timebase_tim.o(i.HAL_InitTick)
    i.HAL_MspInit                            0x08002030   Section        0  stm32f1xx_hal_msp.o(i.HAL_MspInit)
    i.HAL_NVIC_EnableIRQ                     0x08002078   Section        0  stm32f1xx_hal_cortex.o(i.HAL_NVIC_EnableIRQ)
    i.HAL_NVIC_SetPriority                   0x08002094   Section        0  stm32f1xx_hal_cortex.o(i.HAL_NVIC_SetPriority)
    i.HAL_NVIC_SetPriorityGrouping           0x080020d4   Section        0  stm32f1xx_hal_cortex.o(i.HAL_NVIC_SetPriorityGrouping)
    i.HAL_PCD_Init                           0x080020f8   Section        0  stm32f1xx_hal_pcd.o(i.HAL_PCD_Init)
    i.HAL_PCD_MspInit                        0x080021d4   Section        0  usb.o(i.HAL_PCD_MspInit)
    i.HAL_PWR_EnableBkUpAccess               0x080021fc   Section        0  stm32f1xx_hal_pwr.o(i.HAL_PWR_EnableBkUpAccess)
    i.HAL_RCCEx_GetPeriphCLKFreq             0x08002208   Section        0  stm32f1xx_hal_rcc_ex.o(i.HAL_RCCEx_GetPeriphCLKFreq)
    i.HAL_RCCEx_PeriphCLKConfig              0x080022ac   Section        0  stm32f1xx_hal_rcc_ex.o(i.HAL_RCCEx_PeriphCLKConfig)
    i.HAL_RCC_ClockConfig                    0x08002398   Section        0  stm32f1xx_hal_rcc.o(i.HAL_RCC_ClockConfig)
    i.HAL_RCC_GetClockConfig                 0x080024c4   Section        0  stm32f1xx_hal_rcc.o(i.HAL_RCC_GetClockConfig)
    i.HAL_RCC_GetPCLK1Freq                   0x08002504   Section        0  stm32f1xx_hal_rcc.o(i.HAL_RCC_GetPCLK1Freq)
    i.HAL_RCC_GetPCLK2Freq                   0x08002524   Section        0  stm32f1xx_hal_rcc.o(i.HAL_RCC_GetPCLK2Freq)
    i.HAL_RCC_GetSysClockFreq                0x08002544   Section        0  stm32f1xx_hal_rcc.o(i.HAL_RCC_GetSysClockFreq)
    i.HAL_RCC_OscConfig                      0x08002590   Section        0  stm32f1xx_hal_rcc.o(i.HAL_RCC_OscConfig)
    i.HAL_RTCEx_BKUPRead                     0x080028b0   Section        0  stm32f1xx_hal_rtc_ex.o(i.HAL_RTCEx_BKUPRead)
    i.HAL_RTCEx_BKUPWrite                    0x080028c0   Section        0  stm32f1xx_hal_rtc_ex.o(i.HAL_RTCEx_BKUPWrite)
    i.HAL_RTC_AlarmAEventCallback            0x080028d0   Section        0  selecttask.o(i.HAL_RTC_AlarmAEventCallback)
    i.HAL_RTC_AlarmIRQHandler                0x080028e8   Section        0  stm32f1xx_hal_rtc.o(i.HAL_RTC_AlarmIRQHandler)
    i.HAL_RTC_GetDate                        0x0800291c   Section        0  stm32f1xx_hal_rtc.o(i.HAL_RTC_GetDate)
    i.HAL_RTC_GetTime                        0x0800296a   Section        0  stm32f1xx_hal_rtc.o(i.HAL_RTC_GetTime)
    i.HAL_RTC_Init                           0x08002a44   Section        0  stm32f1xx_hal_rtc.o(i.HAL_RTC_Init)
    i.HAL_RTC_MspInit                        0x08002ad8   Section        0  rtc.o(i.HAL_RTC_MspInit)
    i.HAL_RTC_SetAlarm_IT                    0x08002b20   Section        0  stm32f1xx_hal_rtc.o(i.HAL_RTC_SetAlarm_IT)
    i.HAL_RTC_SetDate                        0x08002c0c   Section        0  stm32f1xx_hal_rtc.o(i.HAL_RTC_SetDate)
    i.HAL_RTC_SetTime                        0x08002cd0   Section        0  stm32f1xx_hal_rtc.o(i.HAL_RTC_SetTime)
    i.HAL_RTC_WaitForSynchro                 0x08002d7c   Section        0  stm32f1xx_hal_rtc.o(i.HAL_RTC_WaitForSynchro)
    i.HAL_SPI_Init                           0x08002db6   Section        0  stm32f1xx_hal_spi.o(i.HAL_SPI_Init)
    i.HAL_SPI_MspInit                        0x08002e68   Section        0  spi.o(i.HAL_SPI_MspInit)
    i.HAL_TIMEx_BreakCallback                0x08002ed8   Section        0  stm32f1xx_hal_tim_ex.o(i.HAL_TIMEx_BreakCallback)
    i.HAL_TIMEx_CommutCallback               0x08002eda   Section        0  stm32f1xx_hal_tim_ex.o(i.HAL_TIMEx_CommutCallback)
    i.HAL_TIMEx_ConfigBreakDeadTime          0x08002edc   Section        0  stm32f1xx_hal_tim_ex.o(i.HAL_TIMEx_ConfigBreakDeadTime)
    i.HAL_TIMEx_MasterConfigSynchronization  0x08002f30   Section        0  stm32f1xx_hal_tim_ex.o(i.HAL_TIMEx_MasterConfigSynchronization)
    i.HAL_TIM_Base_Init                      0x08002f98   Section        0  stm32f1xx_hal_tim.o(i.HAL_TIM_Base_Init)
    i.HAL_TIM_Base_MspInit                   0x08002ff4   Section        0  tim.o(i.HAL_TIM_Base_MspInit)
    i.HAL_TIM_Base_Start_IT                  0x08003030   Section        0  stm32f1xx_hal_tim.o(i.HAL_TIM_Base_Start_IT)
    i.HAL_TIM_ConfigClockSource              0x08003088   Section        0  stm32f1xx_hal_tim.o(i.HAL_TIM_ConfigClockSource)
    i.HAL_TIM_IC_CaptureCallback             0x08003164   Section        0  stm32f1xx_hal_tim.o(i.HAL_TIM_IC_CaptureCallback)
    i.HAL_TIM_IRQHandler                     0x08003166   Section        0  stm32f1xx_hal_tim.o(i.HAL_TIM_IRQHandler)
    i.HAL_TIM_MspPostInit                    0x080032cc   Section        0  tim.o(i.HAL_TIM_MspPostInit)
    i.HAL_TIM_OC_DelayElapsedCallback        0x080033b8   Section        0  stm32f1xx_hal_tim.o(i.HAL_TIM_OC_DelayElapsedCallback)
    i.HAL_TIM_PWM_ConfigChannel              0x080033ba   Section        0  stm32f1xx_hal_tim.o(i.HAL_TIM_PWM_ConfigChannel)
    i.HAL_TIM_PWM_Init                       0x08003486   Section        0  stm32f1xx_hal_tim.o(i.HAL_TIM_PWM_Init)
    i.HAL_TIM_PWM_MspInit                    0x080034e0   Section        0  tim.o(i.HAL_TIM_PWM_MspInit)
    i.HAL_TIM_PWM_PulseFinishedCallback      0x08003508   Section        0  stm32f1xx_hal_tim.o(i.HAL_TIM_PWM_PulseFinishedCallback)
    i.HAL_TIM_PeriodElapsedCallback          0x0800350c   Section        0  main.o(i.HAL_TIM_PeriodElapsedCallback)
    i.HAL_TIM_TriggerCallback                0x08003520   Section        0  stm32f1xx_hal_tim.o(i.HAL_TIM_TriggerCallback)
    i.HAL_UART_Init                          0x08003522   Section        0  stm32f1xx_hal_uart.o(i.HAL_UART_Init)
    i.HAL_UART_MspInit                       0x08003588   Section        0  usart.o(i.HAL_UART_MspInit)
    i.HardFault_Handler                      0x080035f8   Section        0  stm32f1xx_it.o(i.HardFault_Handler)
    i.I2C_IsAcknowledgeFailed                0x080035fa   Section        0  stm32f1xx_hal_i2c.o(i.I2C_IsAcknowledgeFailed)
    I2C_IsAcknowledgeFailed                  0x080035fb   Thumb Code    46  stm32f1xx_hal_i2c.o(i.I2C_IsAcknowledgeFailed)
    i.I2C_MasterRequestWrite                 0x08003628   Section        0  stm32f1xx_hal_i2c.o(i.I2C_MasterRequestWrite)
    I2C_MasterRequestWrite                   0x08003629   Thumb Code   150  stm32f1xx_hal_i2c.o(i.I2C_MasterRequestWrite)
    i.I2C_RequestMemoryRead                  0x080036c4   Section        0  stm32f1xx_hal_i2c.o(i.I2C_RequestMemoryRead)
    I2C_RequestMemoryRead                    0x080036c5   Thumb Code   246  stm32f1xx_hal_i2c.o(i.I2C_RequestMemoryRead)
    i.I2C_RequestMemoryWrite                 0x080037c0   Section        0  stm32f1xx_hal_i2c.o(i.I2C_RequestMemoryWrite)
    I2C_RequestMemoryWrite                   0x080037c1   Thumb Code   162  stm32f1xx_hal_i2c.o(i.I2C_RequestMemoryWrite)
    i.I2C_WaitOnBTFFlagUntilTimeout          0x08003868   Section        0  stm32f1xx_hal_i2c.o(i.I2C_WaitOnBTFFlagUntilTimeout)
    I2C_WaitOnBTFFlagUntilTimeout            0x08003869   Thumb Code    86  stm32f1xx_hal_i2c.o(i.I2C_WaitOnBTFFlagUntilTimeout)
    i.I2C_WaitOnFlagUntilTimeout             0x080038c0   Section        0  stm32f1xx_hal_i2c.o(i.I2C_WaitOnFlagUntilTimeout)
    I2C_WaitOnFlagUntilTimeout               0x080038c1   Thumb Code   144  stm32f1xx_hal_i2c.o(i.I2C_WaitOnFlagUntilTimeout)
    i.I2C_WaitOnMasterAddressFlagUntilTimeout 0x08003950   Section        0  stm32f1xx_hal_i2c.o(i.I2C_WaitOnMasterAddressFlagUntilTimeout)
    I2C_WaitOnMasterAddressFlagUntilTimeout  0x08003951   Thumb Code   188  stm32f1xx_hal_i2c.o(i.I2C_WaitOnMasterAddressFlagUntilTimeout)
    i.I2C_WaitOnRXNEFlagUntilTimeout         0x08003a0c   Section        0  stm32f1xx_hal_i2c.o(i.I2C_WaitOnRXNEFlagUntilTimeout)
    I2C_WaitOnRXNEFlagUntilTimeout           0x08003a0d   Thumb Code   112  stm32f1xx_hal_i2c.o(i.I2C_WaitOnRXNEFlagUntilTimeout)
    i.I2C_WaitOnTXEFlagUntilTimeout          0x08003a7c   Section        0  stm32f1xx_hal_i2c.o(i.I2C_WaitOnTXEFlagUntilTimeout)
    I2C_WaitOnTXEFlagUntilTimeout            0x08003a7d   Thumb Code    86  stm32f1xx_hal_i2c.o(i.I2C_WaitOnTXEFlagUntilTimeout)
    i.IRReceiver_IRQTimes_Parse              0x08003ad4   Section        0  driver_ir_receiver.o(i.IRReceiver_IRQTimes_Parse)
    IRReceiver_IRQTimes_Parse                0x08003ad5   Thumb Code   292  driver_ir_receiver.o(i.IRReceiver_IRQTimes_Parse)
    i.IRReceiver_IRQ_Callback                0x08003c18   Section        0  driver_ir_receiver.o(i.IRReceiver_IRQ_Callback)
    i.IRReceiver_Init                        0x08003ce8   Section        0  driver_ir_receiver.o(i.IRReceiver_Init)
    i.LCD_Clear                              0x08003d00   Section        0  driver_lcd.o(i.LCD_Clear)
    i.LCD_Flush                              0x08003d04   Section        0  driver_lcd.o(i.LCD_Flush)
    i.LCD_FlushRegion                        0x08003d08   Section        0  driver_lcd.o(i.LCD_FlushRegion)
    i.LCD_GetFrameBuffer                     0x08003d0c   Section        0  driver_lcd.o(i.LCD_GetFrameBuffer)
    i.LCD_Init                               0x08003d10   Section        0  driver_lcd.o(i.LCD_Init)
    i.MPU6050_Callback                       0x08003d14   Section        0  driver_mpu6050.o(i.MPU6050_Callback)
    i.MPU6050_Init                           0x08003d48   Section        0  driver_mpu6050.o(i.MPU6050_Init)
    i.MPU6050_ParseData                      0x08003dcc   Section        0  driver_mpu6050.o(i.MPU6050_ParseData)
    i.MPU6050_ReadData                       0x08003e2c   Section        0  driver_mpu6050.o(i.MPU6050_ReadData)
    i.MPU6050_ReadRegister                   0x08003f48   Section        0  driver_mpu6050.o(i.MPU6050_ReadRegister)
    i.MPU6050_WriteRegister                  0x08003f68   Section        0  driver_mpu6050.o(i.MPU6050_WriteRegister)
    MPU6050_WriteRegister                    0x08003f69   Thumb Code    32  driver_mpu6050.o(i.MPU6050_WriteRegister)
    i.MPU_6050_Task                          0x08003f8c   Section        0  driver_mpu6050.o(i.MPU_6050_Task)
    i.MX_ADC1_Init                           0x08004004   Section        0  adc.o(i.MX_ADC1_Init)
    i.MX_FREERTOS_Init                       0x08004054   Section        0  freertos.o(i.MX_FREERTOS_Init)
    i.MX_GPIO_Init                           0x08004230   Section        0  gpio.o(i.MX_GPIO_Init)
    i.MX_I2C1_Init                           0x08004390   Section        0  i2c.o(i.MX_I2C1_Init)
    i.MX_RTC_Init                            0x080043d0   Section        0  rtc.o(i.MX_RTC_Init)
    i.MX_SPI1_Init                           0x0800450c   Section        0  spi.o(i.MX_SPI1_Init)
    i.MX_TIM1_Init                           0x08004554   Section        0  tim.o(i.MX_TIM1_Init)
    i.MX_TIM2_Init                           0x08004624   Section        0  tim.o(i.MX_TIM2_Init)
    i.MX_TIM3_Init                           0x080046e0   Section        0  tim.o(i.MX_TIM3_Init)
    i.MX_USART1_UART_Init                    0x08004758   Section        0  usart.o(i.MX_USART1_UART_Init)
    i.MX_USB_PCD_Init                        0x08004790   Section        0  usb.o(i.MX_USB_PCD_Init)
    i.MainTimeTask                           0x080047c4   Section        0  menu.o(i.MainTimeTask)
    i.MemManage_Handler                      0x08004ba4   Section        0  stm32f1xx_it.o(i.MemManage_Handler)
    i.MenuTask                               0x08004ba8   Section        0  menu.o(i.MenuTask)
    i.Menu_Init                              0x08004d38   Section        0  menu.o(i.Menu_Init)
    i.NMI_Handler                            0x08004d6c   Section        0  stm32f1xx_it.o(i.NMI_Handler)
    i.OLED_Clear                             0x08004d6e   Section        0  driver_oled.o(i.OLED_Clear)
    i.OLED_Flush                             0x08004d98   Section        0  driver_oled.o(i.OLED_Flush)
    i.OLED_FlushRegion                       0x08004dd0   Section        0  driver_oled.o(i.OLED_FlushRegion)
    i.OLED_GetFrameBuffer                    0x08004e30   Section        0  driver_oled.o(i.OLED_GetFrameBuffer)
    i.OLED_Init                              0x08004e44   Section        0  driver_oled.o(i.OLED_Init)
    i.OLED_SetComConfig                      0x08004ed8   Section        0  driver_oled.o(i.OLED_SetComConfig)
    OLED_SetComConfig                        0x08004ed9   Thumb Code    44  driver_oled.o(i.OLED_SetComConfig)
    i.OLED_SetPosition                       0x08004f04   Section        0  driver_oled.o(i.OLED_SetPosition)
    i.OLED_WriteCmd                          0x08004f44   Section        0  driver_oled.o(i.OLED_WriteCmd)
    OLED_WriteCmd                            0x08004f45   Thumb Code    34  driver_oled.o(i.OLED_WriteCmd)
    i.OLED_WriteNBytes                       0x08004f6c   Section        0  driver_oled.o(i.OLED_WriteNBytes)
    OLED_WriteNBytes                         0x08004f6d   Thumb Code    26  driver_oled.o(i.OLED_WriteNBytes)
    i.ProcessIRData                          0x08004f8c   Section        0  readdata.o(i.ProcessIRData)
    i.ProcessRotaryData                      0x08004fe8   Section        0  readdata.o(i.ProcessRotaryData)
    i.PutI2C                                 0x08005040   Section        0  freertos.o(i.PutI2C)
    i.RTC_Alarm_IRQHandler                   0x08005054   Section        0  stm32f1xx_it.o(i.RTC_Alarm_IRQHandler)
    i.RTC_Bcd2ToByte                         0x08005060   Section        0  stm32f1xx_hal_rtc.o(i.RTC_Bcd2ToByte)
    RTC_Bcd2ToByte                           0x08005061   Thumb Code    18  stm32f1xx_hal_rtc.o(i.RTC_Bcd2ToByte)
    i.RTC_ByteToBcd2                         0x08005072   Section        0  stm32f1xx_hal_rtc.o(i.RTC_ByteToBcd2)
    RTC_ByteToBcd2                           0x08005073   Thumb Code    22  stm32f1xx_hal_rtc.o(i.RTC_ByteToBcd2)
    i.RTC_DateUpdate                         0x08005088   Section        0  stm32f1xx_hal_rtc.o(i.RTC_DateUpdate)
    RTC_DateUpdate                           0x08005089   Thumb Code   174  stm32f1xx_hal_rtc.o(i.RTC_DateUpdate)
    i.RTC_EnterInitMode                      0x08005136   Section        0  stm32f1xx_hal_rtc.o(i.RTC_EnterInitMode)
    RTC_EnterInitMode                        0x08005137   Thumb Code    52  stm32f1xx_hal_rtc.o(i.RTC_EnterInitMode)
    i.RTC_ExitInitMode                       0x0800516c   Section        0  stm32f1xx_hal_rtc.o(i.RTC_ExitInitMode)
    RTC_ExitInitMode                         0x0800516d   Thumb Code    54  stm32f1xx_hal_rtc.o(i.RTC_ExitInitMode)
    i.RTC_ReadAlarmCounter                   0x080051a2   Section        0  stm32f1xx_hal_rtc.o(i.RTC_ReadAlarmCounter)
    RTC_ReadAlarmCounter                     0x080051a3   Thumb Code    14  stm32f1xx_hal_rtc.o(i.RTC_ReadAlarmCounter)
    i.RTC_ReadTimeCounter                    0x080051b0   Section        0  stm32f1xx_hal_rtc.o(i.RTC_ReadTimeCounter)
    RTC_ReadTimeCounter                      0x080051b1   Thumb Code    32  stm32f1xx_hal_rtc.o(i.RTC_ReadTimeCounter)
    i.RTC_WeekDayNum                         0x080051d0   Section        0  stm32f1xx_hal_rtc.o(i.RTC_WeekDayNum)
    RTC_WeekDayNum                           0x080051d1   Thumb Code    86  stm32f1xx_hal_rtc.o(i.RTC_WeekDayNum)
    i.RTC_WriteAlarmCounter                  0x08005226   Section        0  stm32f1xx_hal_rtc.o(i.RTC_WriteAlarmCounter)
    RTC_WriteAlarmCounter                    0x08005227   Thumb Code    40  stm32f1xx_hal_rtc.o(i.RTC_WriteAlarmCounter)
    i.RTC_WriteTimeCounter                   0x0800524e   Section        0  stm32f1xx_hal_rtc.o(i.RTC_WriteTimeCounter)
    RTC_WriteTimeCounter                     0x0800524f   Thumb Code    40  stm32f1xx_hal_rtc.o(i.RTC_WriteTimeCounter)
    i.ReadDataTask                           0x08005278   Section        0  readdata.o(i.ReadDataTask)
    i.RegisterQueueHandle                    0x08005308   Section        0  readdata.o(i.RegisterQueueHandle)
    i.RotaryEncoder_IRQ_Callback             0x08005324   Section        0  driver_rotary_encoder.o(i.RotaryEncoder_IRQ_Callback)
    i.RotaryEncoder_Init                     0x080053bc   Section        0  driver_rotary_encoder.o(i.RotaryEncoder_Init)
    i.SelectTask                             0x080053d4   Section        0  selecttask.o(i.SelectTask)
    i.SelectTask_Init                        0x08005674   Section        0  selecttask.o(i.SelectTask_Init)
    i.SetCary                                0x08005690   Section        0  game2.o(i.SetCary)
    i.SetTimeTask                            0x0800569c   Section        0  settime.o(i.SetTimeTask)
    i.SysTick_Handler                        0x08005858   Section        0  port.o(i.SysTick_Handler)
    i.SystemClock_Config                     0x08005884   Section        0  main.o(i.SystemClock_Config)
    i.SystemInit                             0x0800590c   Section        0  system_stm32f1xx.o(i.SystemInit)
    i.TIM4_IRQHandler                        0x08005910   Section        0  stm32f1xx_it.o(i.TIM4_IRQHandler)
    i.TIM_Base_SetConfig                     0x0800591c   Section        0  stm32f1xx_hal_tim.o(i.TIM_Base_SetConfig)
    i.TIM_ETR_SetConfig                      0x08005988   Section        0  stm32f1xx_hal_tim.o(i.TIM_ETR_SetConfig)
    i.TIM_ITRx_SetConfig                     0x0800599c   Section        0  stm32f1xx_hal_tim.o(i.TIM_ITRx_SetConfig)
    TIM_ITRx_SetConfig                       0x0800599d   Thumb Code    16  stm32f1xx_hal_tim.o(i.TIM_ITRx_SetConfig)
    i.TIM_OC1_SetConfig                      0x080059ac   Section        0  stm32f1xx_hal_tim.o(i.TIM_OC1_SetConfig)
    TIM_OC1_SetConfig                        0x080059ad   Thumb Code    74  stm32f1xx_hal_tim.o(i.TIM_OC1_SetConfig)
    i.TIM_OC2_SetConfig                      0x080059fc   Section        0  stm32f1xx_hal_tim.o(i.TIM_OC2_SetConfig)
    i.TIM_OC3_SetConfig                      0x08005a54   Section        0  stm32f1xx_hal_tim.o(i.TIM_OC3_SetConfig)
    TIM_OC3_SetConfig                        0x08005a55   Thumb Code    82  stm32f1xx_hal_tim.o(i.TIM_OC3_SetConfig)
    i.TIM_OC4_SetConfig                      0x08005aac   Section        0  stm32f1xx_hal_tim.o(i.TIM_OC4_SetConfig)
    TIM_OC4_SetConfig                        0x08005aad   Thumb Code    64  stm32f1xx_hal_tim.o(i.TIM_OC4_SetConfig)
    i.TIM_TI1_ConfigInputStage               0x08005af0   Section        0  stm32f1xx_hal_tim.o(i.TIM_TI1_ConfigInputStage)
    TIM_TI1_ConfigInputStage                 0x08005af1   Thumb Code    34  stm32f1xx_hal_tim.o(i.TIM_TI1_ConfigInputStage)
    i.TIM_TI2_ConfigInputStage               0x08005b12   Section        0  stm32f1xx_hal_tim.o(i.TIM_TI2_ConfigInputStage)
    TIM_TI2_ConfigInputStage                 0x08005b13   Thumb Code    36  stm32f1xx_hal_tim.o(i.TIM_TI2_ConfigInputStage)
    i.UART_SetConfig                         0x08005b38   Section        0  stm32f1xx_hal_uart.o(i.UART_SetConfig)
    UART_SetConfig                           0x08005b39   Thumb Code   178  stm32f1xx_hal_uart.o(i.UART_SetConfig)
    i.USB_CoreInit                           0x08005bf0   Section        0  stm32f1xx_ll_usb.o(i.USB_CoreInit)
    i.USB_DevDisconnect                      0x08005bf4   Section        0  stm32f1xx_ll_usb.o(i.USB_DevDisconnect)
    i.USB_DevInit                            0x08005bf8   Section        0  stm32f1xx_ll_usb.o(i.USB_DevInit)
    i.USB_DisableGlobalInt                   0x08005c0a   Section        0  stm32f1xx_ll_usb.o(i.USB_DisableGlobalInt)
    i.USB_SetCurrentMode                     0x08005c18   Section        0  stm32f1xx_ll_usb.o(i.USB_SetCurrentMode)
    i.UsageFault_Handler                     0x08005c1c   Section        0  stm32f1xx_it.o(i.UsageFault_Handler)
    i.__0sprintf$3                           0x08005c20   Section        0  printf3.o(i.__0sprintf$3)
    i.__NVIC_SetPriority                     0x08005c48   Section        0  stm32f1xx_hal_cortex.o(i.__NVIC_SetPriority)
    __NVIC_SetPriority                       0x08005c49   Thumb Code    32  stm32f1xx_hal_cortex.o(i.__NVIC_SetPriority)
    i.__kernel_poly                          0x08005c68   Section        0  poly.o(i.__kernel_poly)
    i.__mathlib_dbl_infnan                   0x08005d12   Section        0  dunder.o(i.__mathlib_dbl_infnan)
    i.__mathlib_dbl_invalid                  0x08005d18   Section        0  dunder.o(i.__mathlib_dbl_invalid)
    i.__scatterload_copy                     0x08005d24   Section       14  handlers.o(i.__scatterload_copy)
    i.__scatterload_null                     0x08005d32   Section        2  handlers.o(i.__scatterload_null)
    i.__scatterload_zeroinit                 0x08005d34   Section       14  handlers.o(i.__scatterload_zeroinit)
    i.__set_errno                            0x08005d44   Section        0  errno.o(i.__set_errno)
    i._printf_core                           0x08005d50   Section        0  printf3.o(i._printf_core)
    _printf_core                             0x08005d51   Thumb Code   436  printf3.o(i._printf_core)
    i._sputc                                 0x08005f08   Section        0  printf3.o(i._sputc)
    _sputc                                   0x08005f09   Thumb Code    10  printf3.o(i._sputc)
    i.acos                                   0x08005f14   Section        0  acos.o(i.acos)
    i.draw_bitmap                            0x08006190   Section        0  draw.o(i.draw_bitmap)
    i.draw_end                               0x08006360   Section        0  draw.o(i.draw_end)
    i.draw_flushArea                         0x08006364   Section        0  draw.o(i.draw_flushArea)
    i.draw_init                              0x08006388   Section        0  draw.o(i.draw_init)
    i.draw_string                            0x080063a0   Section        0  draw.o(i.draw_string)
    i.draw_string_P                          0x08006450   Section        0  draw.o(i.draw_string_P)
    i.free                                   0x08006488   Section        0  malloc.o(i.free)
    i.game1_draw                             0x080064d8   Section        0  game1.o(i.game1_draw)
    i.game1_task                             0x0800685c   Section        0  game1.o(i.game1_task)
    i.game2Task                              0x08006894   Section        0  game2.o(i.game2Task)
    i.main                                   0x0800698c   Section        0  main.o(i.main)
    i.malloc                                 0x080069cc   Section        0  malloc.o(i.malloc)
    i.mdelay                                 0x08006a38   Section        0  driver_timer.o(i.mdelay)
    i.osKernelInitialize                     0x08006a54   Section        0  cmsis_os2.o(i.osKernelInitialize)
    i.osKernelStart                          0x08006a8c   Section        0  cmsis_os2.o(i.osKernelStart)
    i.platform_task                          0x08006acc   Section        0  game1.o(i.platform_task)
    i.prvAddCurrentTaskToDelayedList         0x08006bc8   Section        0  tasks.o(i.prvAddCurrentTaskToDelayedList)
    prvAddCurrentTaskToDelayedList           0x08006bc9   Thumb Code    84  tasks.o(i.prvAddCurrentTaskToDelayedList)
    i.prvAddNewTaskToReadyList               0x08006c24   Section        0  tasks.o(i.prvAddNewTaskToReadyList)
    prvAddNewTaskToReadyList                 0x08006c25   Thumb Code   190  tasks.o(i.prvAddNewTaskToReadyList)
    i.prvCheckForValidListAndQueue           0x08006cf4   Section        0  timers.o(i.prvCheckForValidListAndQueue)
    prvCheckForValidListAndQueue             0x08006cf5   Thumb Code    72  timers.o(i.prvCheckForValidListAndQueue)
    i.prvCopyDataFromQueue                   0x08006d4c   Section        0  queue.o(i.prvCopyDataFromQueue)
    prvCopyDataFromQueue                     0x08006d4d   Thumb Code    38  queue.o(i.prvCopyDataFromQueue)
    i.prvCopyDataToQueue                     0x08006d72   Section        0  queue.o(i.prvCopyDataToQueue)
    prvCopyDataToQueue                       0x08006d73   Thumb Code   108  queue.o(i.prvCopyDataToQueue)
    i.prvDeleteTCB                           0x08006dde   Section        0  tasks.o(i.prvDeleteTCB)
    prvDeleteTCB                             0x08006ddf   Thumb Code    52  tasks.o(i.prvDeleteTCB)
    i.prvHeapInit                            0x08006e14   Section        0  heap_4.o(i.prvHeapInit)
    prvHeapInit                              0x08006e15   Thumb Code    66  heap_4.o(i.prvHeapInit)
    i.prvIdleTask                            0x08006e60   Section        0  tasks.o(i.prvIdleTask)
    prvIdleTask                              0x08006e61   Thumb Code    82  tasks.o(i.prvIdleTask)
    i.prvInitialiseMutex                     0x08006ec0   Section        0  queue.o(i.prvInitialiseMutex)
    prvInitialiseMutex                       0x08006ec1   Thumb Code    22  queue.o(i.prvInitialiseMutex)
    i.prvInitialiseNewQueue                  0x08006ed8   Section        0  queue.o(i.prvInitialiseNewQueue)
    prvInitialiseNewQueue                    0x08006ed9   Thumb Code    38  queue.o(i.prvInitialiseNewQueue)
    i.prvInitialiseNewTask                   0x08006efe   Section        0  tasks.o(i.prvInitialiseNewTask)
    prvInitialiseNewTask                     0x08006eff   Thumb Code   156  tasks.o(i.prvInitialiseNewTask)
    i.prvInsertBlockIntoFreeList             0x08006f9c   Section        0  heap_4.o(i.prvInsertBlockIntoFreeList)
    prvInsertBlockIntoFreeList               0x08006f9d   Thumb Code    72  heap_4.o(i.prvInsertBlockIntoFreeList)
    i.prvInsertTimerInActiveList             0x08006fe8   Section        0  timers.o(i.prvInsertTimerInActiveList)
    prvInsertTimerInActiveList               0x08006fe9   Thumb Code    52  timers.o(i.prvInsertTimerInActiveList)
    i.prvIsQueueEmpty                        0x08007020   Section        0  queue.o(i.prvIsQueueEmpty)
    prvIsQueueEmpty                          0x08007021   Thumb Code    28  queue.o(i.prvIsQueueEmpty)
    i.prvNotifyQueueSetContainer             0x0800703c   Section        0  queue.o(i.prvNotifyQueueSetContainer)
    prvNotifyQueueSetContainer               0x0800703d   Thumb Code   108  queue.o(i.prvNotifyQueueSetContainer)
    i.prvProcessReceivedCommands             0x080070a8   Section        0  timers.o(i.prvProcessReceivedCommands)
    prvProcessReceivedCommands               0x080070a9   Thumb Code   198  timers.o(i.prvProcessReceivedCommands)
    i.prvProcessTimerOrBlockTask             0x08007174   Section        0  timers.o(i.prvProcessTimerOrBlockTask)
    prvProcessTimerOrBlockTask               0x08007175   Thumb Code   172  timers.o(i.prvProcessTimerOrBlockTask)
    i.prvResetNextTaskUnblockTime            0x08007228   Section        0  tasks.o(i.prvResetNextTaskUnblockTime)
    prvResetNextTaskUnblockTime              0x08007229   Thumb Code    26  tasks.o(i.prvResetNextTaskUnblockTime)
    i.prvSampleTimeNow                       0x08007248   Section        0  timers.o(i.prvSampleTimeNow)
    prvSampleTimeNow                         0x08007249   Thumb Code    36  timers.o(i.prvSampleTimeNow)
    i.prvSwitchTimerLists                    0x08007270   Section        0  timers.o(i.prvSwitchTimerLists)
    prvSwitchTimerLists                      0x08007271   Thumb Code   102  timers.o(i.prvSwitchTimerLists)
    i.prvTaskExitError                       0x080072dc   Section        0  port.o(i.prvTaskExitError)
    prvTaskExitError                         0x080072dd   Thumb Code    36  port.o(i.prvTaskExitError)
    i.prvTaskIsTaskSuspended                 0x08007304   Section        0  tasks.o(i.prvTaskIsTaskSuspended)
    prvTaskIsTaskSuspended                   0x08007305   Thumb Code    48  tasks.o(i.prvTaskIsTaskSuspended)
    i.prvTestWaitCondition                   0x08007338   Section        0  event_groups.o(i.prvTestWaitCondition)
    prvTestWaitCondition                     0x08007339   Thumb Code    20  event_groups.o(i.prvTestWaitCondition)
    i.prvTimerTask                           0x0800734c   Section        0  timers.o(i.prvTimerTask)
    prvTimerTask                             0x0800734d   Thumb Code    32  timers.o(i.prvTimerTask)
    i.prvUnlockQueue                         0x08007370   Section        0  queue.o(i.prvUnlockQueue)
    prvUnlockQueue                           0x08007371   Thumb Code   120  queue.o(i.prvUnlockQueue)
    i.pvPortMalloc                           0x080073e8   Section        0  heap_4.o(i.pvPortMalloc)
    i.pvTaskIncrementMutexHeldCount          0x080074c0   Section        0  tasks.o(i.pvTaskIncrementMutexHeldCount)
    i.pxPortInitialiseStack                  0x080074d8   Section        0  port.o(i.pxPortInitialiseStack)
    i.readPixels                             0x080074fc   Section        0  draw.o(i.readPixels)
    readPixels                               0x080074fd   Thumb Code    12  draw.o(i.readPixels)
    i.setBuffByte                            0x08007508   Section        0  draw.o(i.setBuffByte)
    setBuffByte                              0x08007509   Thumb Code    20  draw.o(i.setBuffByte)
    i.set_bits                               0x08007520   Section        0  draw.o(i.set_bits)
    set_bits                                 0x08007521   Thumb Code    22  draw.o(i.set_bits)
    i.sqrt                                   0x08007536   Section        0  sqrt.o(i.sqrt)
    i.system_get_ns                          0x08007584   Section        0  driver_timer.o(i.system_get_ns)
    i.udelay                                 0x080075c8   Section        0  driver_timer.o(i.udelay)
    i.uxListRemove                           0x08007600   Section        0  list.o(i.uxListRemove)
    i.uxTaskResetEventItemValue              0x08007628   Section        0  tasks.o(i.uxTaskResetEventItemValue)
    i.vApplicationGetIdleTaskMemory          0x08007640   Section        0  cmsis_os2.o(i.vApplicationGetIdleTaskMemory)
    i.vApplicationGetTimerTaskMemory         0x08007654   Section        0  cmsis_os2.o(i.vApplicationGetTimerTaskMemory)
    i.vEventGroupSetBitsCallback             0x0800766c   Section        0  event_groups.o(i.vEventGroupSetBitsCallback)
    i.vListInitialise                        0x08007670   Section        0  list.o(i.vListInitialise)
    i.vListInitialiseItem                    0x08007686   Section        0  list.o(i.vListInitialiseItem)
    i.vListInsert                            0x0800768c   Section        0  list.o(i.vListInsert)
    i.vListInsertEnd                         0x080076bc   Section        0  list.o(i.vListInsertEnd)
    i.vPortEnterCritical                     0x080076d4   Section        0  port.o(i.vPortEnterCritical)
    i.vPortExitCritical                      0x08007714   Section        0  port.o(i.vPortExitCritical)
    i.vPortFree                              0x0800773c   Section        0  heap_4.o(i.vPortFree)
    i.vPortSetupTimerInterrupt               0x08007798   Section        0  port.o(i.vPortSetupTimerInterrupt)
    i.vPortValidateInterruptPriority         0x080077bc   Section        0  port.o(i.vPortValidateInterruptPriority)
    i.vQueueAddToRegistry                    0x08007810   Section        0  queue.o(i.vQueueAddToRegistry)
    i.vQueueWaitForMessageRestricted         0x08007838   Section        0  queue.o(i.vQueueWaitForMessageRestricted)
    i.vTaskDelay                             0x0800787c   Section        0  tasks.o(i.vTaskDelay)
    i.vTaskInternalSetTimeOutState           0x080078c8   Section        0  tasks.o(i.vTaskInternalSetTimeOutState)
    i.vTaskMissedYield                       0x080078d8   Section        0  tasks.o(i.vTaskMissedYield)
    i.vTaskPlaceOnEventList                  0x080078e4   Section        0  tasks.o(i.vTaskPlaceOnEventList)
    i.vTaskPlaceOnEventListRestricted        0x08007914   Section        0  tasks.o(i.vTaskPlaceOnEventListRestricted)
    i.vTaskPlaceOnUnorderedEventList         0x0800794c   Section        0  tasks.o(i.vTaskPlaceOnUnorderedEventList)
    i.vTaskPriorityDisinheritAfterTimeout    0x0800799c   Section        0  tasks.o(i.vTaskPriorityDisinheritAfterTimeout)
    i.vTaskRemoveFromUnorderedEventList      0x08007a2c   Section        0  tasks.o(i.vTaskRemoveFromUnorderedEventList)
    i.vTaskResume                            0x08007a9c   Section        0  tasks.o(i.vTaskResume)
    i.vTaskStartScheduler                    0x08007b18   Section        0  tasks.o(i.vTaskStartScheduler)
    i.vTaskSuspend                           0x08007ba0   Section        0  tasks.o(i.vTaskSuspend)
    i.vTaskSuspendAll                        0x08007c3c   Section        0  tasks.o(i.vTaskSuspendAll)
    i.vTaskSwitchContext                     0x08007c4c   Section        0  tasks.o(i.vTaskSwitchContext)
    i.xEventGroupCreate                      0x08007cb0   Section        0  event_groups.o(i.xEventGroupCreate)
    i.xEventGroupSetBits                     0x08007ccc   Section        0  event_groups.o(i.xEventGroupSetBits)
    i.xEventGroupSetBitsFromISR              0x08007d58   Section        0  event_groups.o(i.xEventGroupSetBitsFromISR)
    i.xEventGroupWaitBits                    0x08007d68   Section        0  event_groups.o(i.xEventGroupWaitBits)
    i.xPortStartScheduler                    0x08007e70   Section        0  port.o(i.xPortStartScheduler)
    i.xQueueAddToSet                         0x08007f18   Section        0  queue.o(i.xQueueAddToSet)
    i.xQueueCreateMutex                      0x08007f3a   Section        0  queue.o(i.xQueueCreateMutex)
    i.xQueueCreateSet                        0x08007f50   Section        0  queue.o(i.xQueueCreateSet)
    i.xQueueGenericCreate                    0x08007f58   Section        0  queue.o(i.xQueueGenericCreate)
    i.xQueueGenericCreateStatic              0x08007fa0   Section        0  queue.o(i.xQueueGenericCreateStatic)
    i.xQueueGenericReset                     0x08008008   Section        0  queue.o(i.xQueueGenericReset)
    i.xQueueGenericSend                      0x08008090   Section        0  queue.o(i.xQueueGenericSend)
    i.xQueueGenericSendFromISR               0x080081fc   Section        0  queue.o(i.xQueueGenericSendFromISR)
    i.xQueueReceive                          0x080082c8   Section        0  queue.o(i.xQueueReceive)
    i.xQueueSelectFromSet                    0x08008400   Section        0  queue.o(i.xQueueSelectFromSet)
    i.xQueueSemaphoreTake                    0x08008414   Section        0  queue.o(i.xQueueSemaphoreTake)
    i.xTaskCheckForTimeOut                   0x0800858c   Section        0  tasks.o(i.xTaskCheckForTimeOut)
    i.xTaskCreate                            0x08008600   Section        0  tasks.o(i.xTaskCreate)
    i.xTaskCreateStatic                      0x0800865a   Section        0  tasks.o(i.xTaskCreateStatic)
    i.xTaskGetSchedulerState                 0x080086b0   Section        0  tasks.o(i.xTaskGetSchedulerState)
    i.xTaskGetTickCount                      0x080086cc   Section        0  tasks.o(i.xTaskGetTickCount)
    i.xTaskIncrementTick                     0x080086d8   Section        0  tasks.o(i.xTaskIncrementTick)
    i.xTaskPriorityDisinherit                0x080087a0   Section        0  tasks.o(i.xTaskPriorityDisinherit)
    i.xTaskPriorityInherit                   0x08008820   Section        0  tasks.o(i.xTaskPriorityInherit)
    i.xTaskRemoveFromEventList               0x08008898   Section        0  tasks.o(i.xTaskRemoveFromEventList)
    i.xTaskResumeAll                         0x08008908   Section        0  tasks.o(i.xTaskResumeAll)
    i.xTaskResumeFromISR                     0x080089cc   Section        0  tasks.o(i.xTaskResumeFromISR)
    i.xTimerCreateTimerTask                  0x08008a54   Section        0  timers.o(i.xTimerCreateTimerTask)
    i.xTimerGenericCommand                   0x08008ab4   Section        0  timers.o(i.xTimerGenericCommand)
    i.xTimerPendFunctionCallFromISR          0x08008b1c   Section        0  timers.o(i.xTimerPendFunctionCallFromISR)
    i.xiugai                                 0x08008b44   Section        0  selecttask.o(i.xiugai)
    .constdata                               0x08008b88   Section       18  stm32f1xx_hal_rcc.o(.constdata)
    aPredivFactorTable                       0x08008b88   Data           2  stm32f1xx_hal_rcc.o(.constdata)
    aPLLMULFactorTable                       0x08008b8a   Data          16  stm32f1xx_hal_rcc.o(.constdata)
    .constdata                               0x08008b9a   Section       18  stm32f1xx_hal_rcc_ex.o(.constdata)
    aPredivFactorTable                       0x08008b9a   Data           2  stm32f1xx_hal_rcc_ex.o(.constdata)
    aPLLMULFactorTable                       0x08008b9c   Data          16  stm32f1xx_hal_rcc_ex.o(.constdata)
    .constdata                               0x08008bac   Section       16  system_stm32f1xx.o(.constdata)
    .constdata                               0x08008bbc   Section        8  system_stm32f1xx.o(.constdata)
    .constdata                               0x08008bc4   Section        7  resources.o(.constdata)
    .constdata                               0x08008bcb   Section      485  resources.o(.constdata)
    .constdata                               0x08008db0   Section     8192  menuimg.o(.constdata)
    .constdata                               0x0800adb0   Section      208  menuimg.o(.constdata)
    .constdata                               0x0800ae80   Section       36  menuimg.o(.constdata)
    .constdata                               0x0800aea4   Section       36  menuimg.o(.constdata)
    .constdata                               0x0800aec8   Section       64  menuimg.o(.constdata)
    .constdata                               0x0800af08   Section      768  menuimg.o(.constdata)
    .constdata                               0x0800b208   Section      384  menuimg.o(.constdata)
    .constdata                               0x0800b388   Section      154  menuimg.o(.constdata)
    .constdata                               0x0800b422   Section      336  menuimg.o(.constdata)
    .constdata                               0x0800b572   Section      990  menuimg.o(.constdata)
    .constdata                               0x0800b950   Section      297  menuimg.o(.constdata)
    .constdata                               0x0800ba79   Section       64  menuimg.o(.constdata)
    .constdata                               0x0800bab9   Section       48  menuimg.o(.constdata)
    .constdata                               0x0800bae9   Section      240  menuimg.o(.constdata)
    .constdata                               0x0800bbd9   Section      192  menuimg.o(.constdata)
    .constdata                               0x0800bc99   Section       48  menuimg.o(.constdata)
    .constdata                               0x0800bcc9   Section       29  game1.o(.constdata)
    ballImg                                  0x0800bcc9   Data           2  game1.o(.constdata)
    block                                    0x0800bccb   Data           3  game1.o(.constdata)
    platform                                 0x0800bcce   Data          12  game1.o(.constdata)
    clearImg                                 0x0800bcda   Data          12  game1.o(.constdata)
    .constdata                               0x0800bce6   Section       68  game2.o(.constdata)
    roadMarking                              0x0800bce6   Data           8  game2.o(.constdata)
    carImg                                   0x0800bcee   Data          30  game2.o(.constdata)
    clearImg                                 0x0800bd0c   Data          30  game2.o(.constdata)
    .constdata                               0x0800bd30   Section       80  acos.o(.constdata)
    pS                                       0x0800bd30   Data          48  acos.o(.constdata)
    qS                                       0x0800bd60   Data          32  acos.o(.constdata)
    .data                                    0x20000000   Section       52  freertos.o(.data)
    g_xI2CMutex                              0x20000030   Data           4  freertos.o(.data)
    .data                                    0x20000034   Section       12  stm32f1xx_hal.o(.data)
    .data                                    0x20000040   Section        4  system_stm32f1xx.o(.data)
    .data                                    0x20000044   Section       60  tasks.o(.data)
    pxDelayedTaskList                        0x20000048   Data           4  tasks.o(.data)
    pxOverflowDelayedTaskList                0x2000004c   Data           4  tasks.o(.data)
    uxDeletedTasksWaitingCleanUp             0x20000050   Data           4  tasks.o(.data)
    uxCurrentNumberOfTasks                   0x20000054   Data           4  tasks.o(.data)
    xTickCount                               0x20000058   Data           4  tasks.o(.data)
    uxTopReadyPriority                       0x2000005c   Data           4  tasks.o(.data)
    xSchedulerRunning                        0x20000060   Data           4  tasks.o(.data)
    uxPendedTicks                            0x20000064   Data           4  tasks.o(.data)
    xYieldPending                            0x20000068   Data           4  tasks.o(.data)
    xNumOfOverflows                          0x2000006c   Data           4  tasks.o(.data)
    uxTaskNumber                             0x20000070   Data           4  tasks.o(.data)
    xNextTaskUnblockTime                     0x20000074   Data           4  tasks.o(.data)
    xIdleTaskHandle                          0x20000078   Data           4  tasks.o(.data)
    uxSchedulerSuspended                     0x2000007c   Data           4  tasks.o(.data)
    .data                                    0x20000080   Section       20  timers.o(.data)
    pxCurrentTimerList                       0x20000080   Data           4  timers.o(.data)
    pxOverflowTimerList                      0x20000084   Data           4  timers.o(.data)
    xTimerQueue                              0x20000088   Data           4  timers.o(.data)
    xTimerTaskHandle                         0x2000008c   Data           4  timers.o(.data)
    xLastTime                                0x20000090   Data           4  timers.o(.data)
    .data                                    0x20000094   Section        4  cmsis_os2.o(.data)
    KernelState                              0x20000094   Data           4  cmsis_os2.o(.data)
    .data                                    0x20000098   Section       24  heap_4.o(.data)
    pxEnd                                    0x20000098   Data           4  heap_4.o(.data)
    xFreeBytesRemaining                      0x2000009c   Data           4  heap_4.o(.data)
    xMinimumEverFreeBytesRemaining           0x200000a0   Data           4  heap_4.o(.data)
    xBlockAllocatedBit                       0x200000a4   Data           4  heap_4.o(.data)
    xStart                                   0x200000a8   Data           8  heap_4.o(.data)
    .data                                    0x200000b0   Section       12  port.o(.data)
    ucMaxSysCallPriority                     0x200000b0   Data           1  port.o(.data)
    uxCriticalNesting                        0x200000b4   Data           4  port.o(.data)
    ulMaxPRIGROUPValue                       0x200000b8   Data           4  port.o(.data)
    .data                                    0x200000bc   Section        8  driver_oled.o(.data)
    mem_mode                                 0x200000bc   Data           1  driver_oled.o(.data)
    g_pHI2COLED                              0x200000c0   Data           4  driver_oled.o(.data)
    .data                                    0x200000c4   Section       12  driver_mpu6050.o(.data)
    g_pHI2C_MPU6050                          0x200000c4   Data           4  driver_mpu6050.o(.data)
    g_xQueueMPU6050                          0x200000c8   Data           4  driver_mpu6050.o(.data)
    g_xEventMPU6050                          0x200000cc   Data           4  driver_mpu6050.o(.data)
    .data                                    0x200000d0   Section       24  driver_ir_receiver.o(.data)
    g_IRReceiverIRQ_Cnt                      0x200000d0   Data           4  driver_ir_receiver.o(.data)
    g_KeysBuf_R                              0x200000d4   Data           4  driver_ir_receiver.o(.data)
    g_KeysBuf_W                              0x200000d8   Data           4  driver_ir_receiver.o(.data)
    g_xQueueIR                               0x200000dc   Data           4  driver_ir_receiver.o(.data)
    pre_time                                 0x200000e0   Data           8  driver_ir_receiver.o(.data)
    .data                                    0x200000e8   Section       24  driver_rotary_encoder.o(.data)
    g_count                                  0x200000e8   Data           4  driver_rotary_encoder.o(.data)
    g_speed                                  0x200000ec   Data           4  driver_rotary_encoder.o(.data)
    pre_count                                0x200000f0   Data           4  driver_rotary_encoder.o(.data)
    g_xQueueRotary                           0x200000f4   Data           4  driver_rotary_encoder.o(.data)
    pre_time                                 0x200000f8   Data           8  driver_rotary_encoder.o(.data)
    .data                                    0x20000100   Section       16  draw.o(.data)
    oledBuffer                               0x20000100   Data           4  draw.o(.data)
    g_xres                                   0x20000104   Data           4  draw.o(.data)
    g_yres                                   0x20000108   Data           4  draw.o(.data)
    g_bpp                                    0x2000010c   Data           4  draw.o(.data)
    .data                                    0x20000110   Section       36  menu.o(.data)
    TimeFlag                                 0x20000110   Data           1  menu.o(.data)
    MenuFlag                                 0x20000111   Data           1  menu.o(.data)
    AlarmFlag                                0x20000112   Data           1  menu.o(.data)
    GameFlag                                 0x20000113   Data           1  menu.o(.data)
    AlarmFlag                                0x20000114   Data           1  menu.o(.data)
    g_Select                                 0x20000115   Data           1  menu.o(.data)
    g_xres                                   0x2000011c   Data           4  menu.o(.data)
    g_yres                                   0x20000120   Data           4  menu.o(.data)
    g_bpp                                    0x20000124   Data           4  menu.o(.data)
    g_framebuffer                            0x20000128   Data           4  menu.o(.data)
    .data                                    0x20000134   Section       28  readdata.o(.data)
    g_Select                                 0x20000134   Data           1  readdata.o(.data)
    g_Select                                 0x20000135   Data           1  readdata.o(.data)
    g_Select                                 0x20000136   Data           1  readdata.o(.data)
    g_queue_cnt                              0x20000138   Data           4  readdata.o(.data)
    g_xQueueSetSelect                        0x2000013c   Data           4  readdata.o(.data)
    g_xQueueIR                               0x20000140   Data           4  readdata.o(.data)
    g_xQueueRotary                           0x20000144   Data           4  readdata.o(.data)
    g_xQueueMPU6050                          0x20000148   Data           4  readdata.o(.data)
    g_xQueueHandle                           0x2000014c   Data           4  readdata.o(.data)
    .data                                    0x20000150   Section       16  selecttask.o(.data)
    g_Select                                 0x20000150   Data           1  selecttask.o(.data)
    ShowState                                0x20000154   Data           4  selecttask.o(.data)
    g_xQueueSelect                           0x20000158   Data           4  selecttask.o(.data)
    AlarmFlag                                0x2000015c   Data           4  selecttask.o(.data)
    .data                                    0x20000160   Section       10  settime.o(.data)
    SetTimeFlag                              0x20000160   Data           1  settime.o(.data)
    g_Select                                 0x20000161   Data           1  settime.o(.data)
    .data                                    0x2000016c   Section        8  settime.o(.data)
    .data                                    0x20000174   Section       32  game1.o(.data)
    platformFlag                             0x20000174   Data           1  game1.o(.data)
    Game1Flag                                0x20000175   Data           1  game1.o(.data)
    uptMove                                  0x20000176   Data           1  game1.o(.data)
    lives                                    0x20000177   Data           1  game1.o(.data)
    lives_origin                             0x20000178   Data           1  game1.o(.data)
    platformX                                0x20000179   Data           1  game1.o(.data)
    g_Select                                 0x2000017a   Data           1  game1.o(.data)
    first                                    0x2000017c   Data           1  game1.o(.data)
    score                                    0x2000017e   Data           2  game1.o(.data)
    blocks                                   0x20000180   Data           4  game1.o(.data)
    g_xres                                   0x20000184   Data           4  game1.o(.data)
    g_yres                                   0x20000188   Data           4  game1.o(.data)
    g_bpp                                    0x2000018c   Data           4  game1.o(.data)
    g_framebuffer                            0x20000190   Data           4  game1.o(.data)
    .data                                    0x20000194   Section       28  game2.o(.data)
    g_Select                                 0x20000194   Data           1  game2.o(.data)
    carx                                     0x20000198   Data           4  game2.o(.data)
    cary                                     0x2000019c   Data           4  game2.o(.data)
    g_xres                                   0x200001a0   Data           4  game2.o(.data)
    g_yres                                   0x200001a4   Data           4  game2.o(.data)
    g_bpp                                    0x200001a8   Data           4  game2.o(.data)
    g_framebuffer                            0x200001ac   Data           4  game2.o(.data)
    .data                                    0x200001b0   Section        4  rand.o(.data)
    _rand_state                              0x200001b0   Data           4  rand.o(.data)
    .data                                    0x200001b4   Section        4  mvars.o(.data)
    .data                                    0x200001b8   Section        4  mvars.o(.data)
    .data                                    0x200001bc   Section        4  errno.o(.data)
    _errno                                   0x200001bc   Data           4  errno.o(.data)
    .bss                                     0x200001c0   Section       48  adc.o(.bss)
    .bss                                     0x200001f0   Section       84  i2c.o(.bss)
    .bss                                     0x20000244   Section       20  rtc.o(.bss)
    .bss                                     0x20000258   Section       88  spi.o(.bss)
    .bss                                     0x200002b0   Section      216  tim.o(.bss)
    .bss                                     0x20000388   Section       72  usart.o(.bss)
    .bss                                     0x200003d0   Section      752  usb.o(.bss)
    .bss                                     0x200006c0   Section       72  stm32f1xx_hal_timebase_tim.o(.bss)
    .bss                                     0x20000708   Section       64  queue.o(.bss)
    .bss                                     0x20000748   Section     1220  tasks.o(.bss)
    pxReadyTasksLists                        0x20000748   Data        1120  tasks.o(.bss)
    xDelayedTaskList1                        0x20000ba8   Data          20  tasks.o(.bss)
    xDelayedTaskList2                        0x20000bbc   Data          20  tasks.o(.bss)
    xPendingReadyList                        0x20000bd0   Data          20  tasks.o(.bss)
    xTasksWaitingTermination                 0x20000be4   Data          20  tasks.o(.bss)
    xSuspendedTaskList                       0x20000bf8   Data          20  tasks.o(.bss)
    .bss                                     0x20000c0c   Section      284  timers.o(.bss)
    xActiveTimerList1                        0x20000c0c   Data          20  timers.o(.bss)
    xActiveTimerList2                        0x20000c20   Data          20  timers.o(.bss)
    xStaticTimerQueue                        0x20000c34   Data          84  timers.o(.bss)
    ucStaticTimerQueueStorage                0x20000c88   Data         160  timers.o(.bss)
    .bss                                     0x20000d28   Section     1720  cmsis_os2.o(.bss)
    Idle_TCB                                 0x20000d28   Data          92  cmsis_os2.o(.bss)
    Idle_Stack                               0x20000d84   Data         512  cmsis_os2.o(.bss)
    Timer_TCB                                0x20000f84   Data          92  cmsis_os2.o(.bss)
    Timer_Stack                              0x20000fe0   Data        1024  cmsis_os2.o(.bss)
    .bss                                     0x200013e0   Section    10240  heap_4.o(.bss)
    ucHeap                                   0x200013e0   Data       10240  heap_4.o(.bss)
    .bss                                     0x20003be0   Section     1024  driver_oled.o(.bss)
    oledBuffer                               0x20003be0   Data        1024  driver_oled.o(.bss)
    .bss                                     0x20003fe0   Section      672  driver_ir_receiver.o(.bss)
    g_KeysBuf                                0x20003fe0   Data         128  driver_ir_receiver.o(.bss)
    g_IRReceiverIRQ_Timers                   0x20004060   Data         544  driver_ir_receiver.o(.bss)
    .bss                                     0x20004280   Section       20  menu.o(.bss)
    .bss                                     0x20004294   Section       40  readdata.o(.bss)
    g_xQueue                                 0x20004294   Data          40  readdata.o(.bss)
    .bss                                     0x200042bc   Section       16  game1.o(.bss)
    ball                                     0x200042bc   Data          16  game1.o(.bss)
    HEAP                                     0x200042d0   Section      512  startup_stm32f103xb.o(HEAP)
    STACK                                    0x200044d0   Section     1024  startup_stm32f103xb.o(STACK)

    Global Symbols

    Symbol Name                              Value     Ov Type        Size  Object(Section)

    BuildAttributes$$THM_ISAv4$P$D$K$B$S$PE$A:L22UL41UL21$X:L11$S22US41US21$IEEE1$IW$USESV6$~STKCKD$USESV7$~SHL$OTIME$ROPI$IEEEX$EBA8$MICROLIB$REQ8$PRES8$EABIv2 0x00000000   Number         0  anon$$obj.o ABSOLUTE
    __ARM_use_no_argv                        0x00000000   Number         0  main.o ABSOLUTE
    _printf_a                                0x00000000   Number         0  stubs.o ABSOLUTE
    _printf_c                                0x00000000   Number         0  stubs.o ABSOLUTE
    _printf_charcount                        0x00000000   Number         0  stubs.o ABSOLUTE
    _printf_d                                0x00000000   Number         0  stubs.o ABSOLUTE
    _printf_e                                0x00000000   Number         0  stubs.o ABSOLUTE
    _printf_f                                0x00000000   Number         0  stubs.o ABSOLUTE
    _printf_flags                            0x00000000   Number         0  stubs.o ABSOLUTE
    _printf_fp_dec                           0x00000000   Number         0  stubs.o ABSOLUTE
    _printf_fp_hex                           0x00000000   Number         0  stubs.o ABSOLUTE
    _printf_g                                0x00000000   Number         0  stubs.o ABSOLUTE
    _printf_i                                0x00000000   Number         0  stubs.o ABSOLUTE
    _printf_int_dec                          0x00000000   Number         0  stubs.o ABSOLUTE
    _printf_l                                0x00000000   Number         0  stubs.o ABSOLUTE
    _printf_lc                               0x00000000   Number         0  stubs.o ABSOLUTE
    _printf_ll                               0x00000000   Number         0  stubs.o ABSOLUTE
    _printf_lld                              0x00000000   Number         0  stubs.o ABSOLUTE
    _printf_lli                              0x00000000   Number         0  stubs.o ABSOLUTE
    _printf_llo                              0x00000000   Number         0  stubs.o ABSOLUTE
    _printf_llu                              0x00000000   Number         0  stubs.o ABSOLUTE
    _printf_llx                              0x00000000   Number         0  stubs.o ABSOLUTE
    _printf_longlong_dec                     0x00000000   Number         0  stubs.o ABSOLUTE
    _printf_longlong_hex                     0x00000000   Number         0  stubs.o ABSOLUTE
    _printf_longlong_oct                     0x00000000   Number         0  stubs.o ABSOLUTE
    _printf_ls                               0x00000000   Number         0  stubs.o ABSOLUTE
    _printf_mbtowc                           0x00000000   Number         0  stubs.o ABSOLUTE
    _printf_n                                0x00000000   Number         0  stubs.o ABSOLUTE
    _printf_o                                0x00000000   Number         0  stubs.o ABSOLUTE
    _printf_p                                0x00000000   Number         0  stubs.o ABSOLUTE
    _printf_percent                          0x00000000   Number         0  stubs.o ABSOLUTE
    _printf_pre_padding                      0x00000000   Number         0  stubs.o ABSOLUTE
    _printf_return_value                     0x00000000   Number         0  stubs.o ABSOLUTE
    _printf_s                                0x00000000   Number         0  stubs.o ABSOLUTE
    _printf_sizespec                         0x00000000   Number         0  stubs.o ABSOLUTE
    _printf_str                              0x00000000   Number         0  stubs.o ABSOLUTE
    _printf_truncate_signed                  0x00000000   Number         0  stubs.o ABSOLUTE
    _printf_truncate_unsigned                0x00000000   Number         0  stubs.o ABSOLUTE
    _printf_u                                0x00000000   Number         0  stubs.o ABSOLUTE
    _printf_wc                               0x00000000   Number         0  stubs.o ABSOLUTE
    _printf_wctomb                           0x00000000   Number         0  stubs.o ABSOLUTE
    _printf_widthprec                        0x00000000   Number         0  stubs.o ABSOLUTE
    _printf_x                                0x00000000   Number         0  stubs.o ABSOLUTE
    __cpp_initialize__aeabi_                  - Undefined Weak Reference
    __cxa_finalize                            - Undefined Weak Reference
    _clock_init                               - Undefined Weak Reference
    _microlib_exit                            - Undefined Weak Reference
    __Vectors_Size                           0x000000ec   Number         0  startup_stm32f103xb.o ABSOLUTE
    __Vectors                                0x08000000   Data           4  startup_stm32f103xb.o(RESET)
    __Vectors_End                            0x080000ec   Data           0  startup_stm32f103xb.o(RESET)
    __main                                   0x080000ed   Thumb Code     0  entry.o(.ARM.Collect$$$$00000000)
    _main_stk                                0x080000ed   Thumb Code     0  entry2.o(.ARM.Collect$$$$00000001)
    _main_scatterload                        0x080000f1   Thumb Code     0  entry5.o(.ARM.Collect$$$$00000004)
    __main_after_scatterload                 0x080000f5   Thumb Code     0  entry5.o(.ARM.Collect$$$$00000004)
    _main_clock                              0x080000f5   Thumb Code     0  entry7b.o(.ARM.Collect$$$$00000008)
    _main_cpp_init                           0x080000f5   Thumb Code     0  entry8b.o(.ARM.Collect$$$$0000000A)
    _main_init                               0x080000f5   Thumb Code     0  entry9a.o(.ARM.Collect$$$$0000000B)
    __rt_final_cpp                           0x080000fd   Thumb Code     0  entry10a.o(.ARM.Collect$$$$0000000D)
    __rt_final_exit                          0x080000fd   Thumb Code     0  entry11a.o(.ARM.Collect$$$$0000000F)
    SVC_Handler                              0x08000101   Thumb Code    32  port.o(.emb_text)
    __asm___6_port_c_39a90d8d__prvStartFirstTask 0x08000125   Thumb Code    28  port.o(.emb_text)
    PendSV_Handler                           0x08000145   Thumb Code    72  port.o(.emb_text)
    vPortGetIPSR                             0x08000191   Thumb Code     6  port.o(.emb_text)
    Reset_Handler                            0x08000199   Thumb Code     8  startup_stm32f103xb.o(.text)
    ADC1_2_IRQHandler                        0x080001b3   Thumb Code     0  startup_stm32f103xb.o(.text)
    CAN1_RX1_IRQHandler                      0x080001b3   Thumb Code     0  startup_stm32f103xb.o(.text)
    CAN1_SCE_IRQHandler                      0x080001b3   Thumb Code     0  startup_stm32f103xb.o(.text)
    DMA1_Channel1_IRQHandler                 0x080001b3   Thumb Code     0  startup_stm32f103xb.o(.text)
    DMA1_Channel2_IRQHandler                 0x080001b3   Thumb Code     0  startup_stm32f103xb.o(.text)
    DMA1_Channel3_IRQHandler                 0x080001b3   Thumb Code     0  startup_stm32f103xb.o(.text)
    DMA1_Channel4_IRQHandler                 0x080001b3   Thumb Code     0  startup_stm32f103xb.o(.text)
    DMA1_Channel5_IRQHandler                 0x080001b3   Thumb Code     0  startup_stm32f103xb.o(.text)
    DMA1_Channel6_IRQHandler                 0x080001b3   Thumb Code     0  startup_stm32f103xb.o(.text)
    DMA1_Channel7_IRQHandler                 0x080001b3   Thumb Code     0  startup_stm32f103xb.o(.text)
    EXTI0_IRQHandler                         0x080001b3   Thumb Code     0  startup_stm32f103xb.o(.text)
    EXTI1_IRQHandler                         0x080001b3   Thumb Code     0  startup_stm32f103xb.o(.text)
    EXTI2_IRQHandler                         0x080001b3   Thumb Code     0  startup_stm32f103xb.o(.text)
    EXTI3_IRQHandler                         0x080001b3   Thumb Code     0  startup_stm32f103xb.o(.text)
    EXTI4_IRQHandler                         0x080001b3   Thumb Code     0  startup_stm32f103xb.o(.text)
    FLASH_IRQHandler                         0x080001b3   Thumb Code     0  startup_stm32f103xb.o(.text)
    I2C1_ER_IRQHandler                       0x080001b3   Thumb Code     0  startup_stm32f103xb.o(.text)
    I2C1_EV_IRQHandler                       0x080001b3   Thumb Code     0  startup_stm32f103xb.o(.text)
    I2C2_ER_IRQHandler                       0x080001b3   Thumb Code     0  startup_stm32f103xb.o(.text)
    I2C2_EV_IRQHandler                       0x080001b3   Thumb Code     0  startup_stm32f103xb.o(.text)
    PVD_IRQHandler                           0x080001b3   Thumb Code     0  startup_stm32f103xb.o(.text)
    RCC_IRQHandler                           0x080001b3   Thumb Code     0  startup_stm32f103xb.o(.text)
    RTC_IRQHandler                           0x080001b3   Thumb Code     0  startup_stm32f103xb.o(.text)
    SPI1_IRQHandler                          0x080001b3   Thumb Code     0  startup_stm32f103xb.o(.text)
    SPI2_IRQHandler                          0x080001b3   Thumb Code     0  startup_stm32f103xb.o(.text)
    TAMPER_IRQHandler                        0x080001b3   Thumb Code     0  startup_stm32f103xb.o(.text)
    TIM1_BRK_IRQHandler                      0x080001b3   Thumb Code     0  startup_stm32f103xb.o(.text)
    TIM1_CC_IRQHandler                       0x080001b3   Thumb Code     0  startup_stm32f103xb.o(.text)
    TIM1_TRG_COM_IRQHandler                  0x080001b3   Thumb Code     0  startup_stm32f103xb.o(.text)
    TIM1_UP_IRQHandler                       0x080001b3   Thumb Code     0  startup_stm32f103xb.o(.text)
    TIM2_IRQHandler                          0x080001b3   Thumb Code     0  startup_stm32f103xb.o(.text)
    TIM3_IRQHandler                          0x080001b3   Thumb Code     0  startup_stm32f103xb.o(.text)
    USART1_IRQHandler                        0x080001b3   Thumb Code     0  startup_stm32f103xb.o(.text)
    USART2_IRQHandler                        0x080001b3   Thumb Code     0  startup_stm32f103xb.o(.text)
    USART3_IRQHandler                        0x080001b3   Thumb Code     0  startup_stm32f103xb.o(.text)
    USBWakeUp_IRQHandler                     0x080001b3   Thumb Code     0  startup_stm32f103xb.o(.text)
    USB_HP_CAN1_TX_IRQHandler                0x080001b3   Thumb Code     0  startup_stm32f103xb.o(.text)
    USB_LP_CAN1_RX0_IRQHandler               0x080001b3   Thumb Code     0  startup_stm32f103xb.o(.text)
    WWDG_IRQHandler                          0x080001b3   Thumb Code     0  startup_stm32f103xb.o(.text)
    __aeabi_uldivmod                         0x080001bd   Thumb Code    98  uldiv.o(.text)
    __aeabi_llsr                             0x0800021f   Thumb Code    32  llushr.o(.text)
    _ll_ushift_r                             0x0800021f   Thumb Code     0  llushr.o(.text)
    rand                                     0x08000241   Thumb Code    20  rand.o(.text)
    srand                                    0x08000255   Thumb Code     6  rand.o(.text)
    __aeabi_memcpy                           0x08000265   Thumb Code    36  memcpya.o(.text)
    __aeabi_memcpy4                          0x08000265   Thumb Code     0  memcpya.o(.text)
    __aeabi_memcpy8                          0x08000265   Thumb Code     0  memcpya.o(.text)
    __aeabi_memset                           0x08000289   Thumb Code    14  memseta.o(.text)
    __aeabi_memset4                          0x08000289   Thumb Code     0  memseta.o(.text)
    __aeabi_memset8                          0x08000289   Thumb Code     0  memseta.o(.text)
    __aeabi_memclr                           0x08000297   Thumb Code     4  memseta.o(.text)
    __aeabi_memclr4                          0x08000297   Thumb Code     0  memseta.o(.text)
    __aeabi_memclr8                          0x08000297   Thumb Code     0  memseta.o(.text)
    memset                                   0x0800029b   Thumb Code    18  memseta.o(.text)
    strlen                                   0x080002ad   Thumb Code    14  strlen.o(.text)
    strcpy                                   0x080002bb   Thumb Code    18  strcpy.o(.text)
    __aeabi_fadd                             0x080002cd   Thumb Code   164  fadd.o(.text)
    __aeabi_fsub                             0x08000371   Thumb Code     6  fadd.o(.text)
    __aeabi_frsub                            0x08000377   Thumb Code     6  fadd.o(.text)
    __ARM_scalbnf                            0x0800037d   Thumb Code    24  fscalb.o(.text)
    scalbnf                                  0x0800037d   Thumb Code     0  fscalb.o(.text)
    __aeabi_dadd                             0x08000395   Thumb Code   322  dadd.o(.text)
    __aeabi_dsub                             0x080004d7   Thumb Code     6  dadd.o(.text)
    __aeabi_drsub                            0x080004dd   Thumb Code     6  dadd.o(.text)
    __aeabi_dmul                             0x080004e3   Thumb Code   228  dmul.o(.text)
    __ARM_scalbn                             0x080005c7   Thumb Code    46  dscalb.o(.text)
    scalbn                                   0x080005c7   Thumb Code     0  dscalb.o(.text)
    __aeabi_i2f                              0x080005f5   Thumb Code    18  fflti.o(.text)
    __aeabi_ui2f                             0x08000607   Thumb Code    10  ffltui.o(.text)
    __aeabi_i2d                              0x08000611   Thumb Code    34  dflti.o(.text)
    __aeabi_f2uiz                            0x08000633   Thumb Code    40  ffixui.o(.text)
    __aeabi_d2iz                             0x0800065b   Thumb Code    62  dfixi.o(.text)
    __aeabi_cfcmpeq                          0x08000699   Thumb Code     0  cfcmple.o(.text)
    __aeabi_cfcmple                          0x08000699   Thumb Code    20  cfcmple.o(.text)
    __aeabi_cfrcmple                         0x080006ad   Thumb Code    20  cfrcmple.o(.text)
    __aeabi_uidiv                            0x080006c1   Thumb Code     0  uidiv.o(.text)
    __aeabi_uidivmod                         0x080006c1   Thumb Code    44  uidiv.o(.text)
    __aeabi_llsl                             0x080006ed   Thumb Code    30  llshl.o(.text)
    _ll_shift_l                              0x080006ed   Thumb Code     0  llshl.o(.text)
    __aeabi_lasr                             0x0800070b   Thumb Code    36  llsshr.o(.text)
    _ll_sshift_r                             0x0800070b   Thumb Code     0  llsshr.o(.text)
    __I$use$fp                               0x0800072f   Thumb Code     0  iusefp.o(.text)
    _float_round                             0x0800072f   Thumb Code    18  fepilogue.o(.text)
    _float_epilogue                          0x08000741   Thumb Code    92  fepilogue.o(.text)
    _double_round                            0x0800079d   Thumb Code    30  depilogue.o(.text)
    _double_epilogue                         0x080007bb   Thumb Code   156  depilogue.o(.text)
    __aeabi_ddiv                             0x08000857   Thumb Code   222  ddiv.o(.text)
    __scatterload                            0x08000935   Thumb Code    28  init.o(.text)
    __scatterload_rt2                        0x08000935   Thumb Code     0  init.o(.text)
    _dsqrt                                   0x08000959   Thumb Code   162  dsqrt.o(.text)
    __decompress                             0x080009fb   Thumb Code     0  __dczerorl.o(.text)
    __decompress0                            0x080009fb   Thumb Code    58  __dczerorl.o(.text)
    ADC_ConversionStop_Disable               0x08000a35   Thumb Code    86  stm32f1xx_hal_adc.o(i.ADC_ConversionStop_Disable)
    AlarmGoTask                              0x08000a8d   Thumb Code   114  menu.o(i.AlarmGoTask)
    AlarmMenuTask                            0x08000b09   Thumb Code  1840  menu.o(i.AlarmMenuTask)
    BusFault_Handler                         0x08001245   Thumb Code     2  stm32f1xx_it.o(i.BusFault_Handler)
    DebugMon_Handler                         0x08001247   Thumb Code     2  stm32f1xx_it.o(i.DebugMon_Handler)
    DispatchKey                              0x08001249   Thumb Code    36  readdata.o(i.DispatchKey)
    EXTI15_10_IRQHandler                     0x08001275   Thumb Code    30  stm32f1xx_it.o(i.EXTI15_10_IRQHandler)
    EXTI9_5_IRQHandler                       0x08001293   Thumb Code     6  stm32f1xx_it.o(i.EXTI9_5_IRQHandler)
    Error_Handler                            0x08001299   Thumb Code     4  main.o(i.Error_Handler)
    GameMenuTask                             0x0800129d   Thumb Code   234  menu.o(i.GameMenuTask)
    Game_InitSet                             0x08001395   Thumb Code    88  game1.o(i.Game_InitSet)
    GetI2C                                   0x080013f9   Thumb Code    12  freertos.o(i.GetI2C)
    GetQueueIR                               0x08001409   Thumb Code     6  driver_ir_receiver.o(i.GetQueueIR)
    GetQueueMPU6050                          0x08001415   Thumb Code     6  driver_mpu6050.o(i.GetQueueMPU6050)
    GetQueueRotary                           0x08001421   Thumb Code     6  driver_rotary_encoder.o(i.GetQueueRotary)
    HAL_ADC_ConfigChannel                    0x0800142d   Thumb Code   240  stm32f1xx_hal_adc.o(i.HAL_ADC_ConfigChannel)
    HAL_ADC_Init                             0x08001529   Thumb Code   272  stm32f1xx_hal_adc.o(i.HAL_ADC_Init)
    HAL_ADC_MspInit                          0x08001645   Thumb Code    76  adc.o(i.HAL_ADC_MspInit)
    HAL_GPIO_EXTI_Callback                   0x0800169d   Thumb Code    30  driver_irq.o(i.HAL_GPIO_EXTI_Callback)
    HAL_GPIO_EXTI_IRQHandler                 0x080016bd   Thumb Code    18  stm32f1xx_hal_gpio.o(i.HAL_GPIO_EXTI_IRQHandler)
    HAL_GPIO_Init                            0x080016d5   Thumb Code   446  stm32f1xx_hal_gpio.o(i.HAL_GPIO_Init)
    HAL_GPIO_ReadPin                         0x080018b5   Thumb Code    10  stm32f1xx_hal_gpio.o(i.HAL_GPIO_ReadPin)
    HAL_GPIO_WritePin                        0x080018bf   Thumb Code    10  stm32f1xx_hal_gpio.o(i.HAL_GPIO_WritePin)
    HAL_GetTick                              0x080018c9   Thumb Code     6  stm32f1xx_hal.o(i.HAL_GetTick)
    HAL_I2C_Init                             0x080018d5   Thumb Code   376  stm32f1xx_hal_i2c.o(i.HAL_I2C_Init)
    HAL_I2C_Master_Transmit                  0x08001a5d   Thumb Code   290  stm32f1xx_hal_i2c.o(i.HAL_I2C_Master_Transmit)
    HAL_I2C_Mem_Read                         0x08001b89   Thumb Code   574  stm32f1xx_hal_i2c.o(i.HAL_I2C_Mem_Read)
    HAL_I2C_Mem_Write                        0x08001dd9   Thumb Code   294  stm32f1xx_hal_i2c.o(i.HAL_I2C_Mem_Write)
    HAL_I2C_MspInit                          0x08001f09   Thumb Code    80  i2c.o(i.HAL_I2C_MspInit)
    HAL_IncTick                              0x08001f65   Thumb Code    12  stm32f1xx_hal.o(i.HAL_IncTick)
    HAL_Init                                 0x08001f75   Thumb Code    32  stm32f1xx_hal.o(i.HAL_Init)
    HAL_InitTick                             0x08001f99   Thumb Code   132  stm32f1xx_hal_timebase_tim.o(i.HAL_InitTick)
    HAL_MspInit                              0x08002031   Thumb Code    62  stm32f1xx_hal_msp.o(i.HAL_MspInit)
    HAL_NVIC_EnableIRQ                       0x08002079   Thumb Code    26  stm32f1xx_hal_cortex.o(i.HAL_NVIC_EnableIRQ)
    HAL_NVIC_SetPriority                     0x08002095   Thumb Code    60  stm32f1xx_hal_cortex.o(i.HAL_NVIC_SetPriority)
    HAL_NVIC_SetPriorityGrouping             0x080020d5   Thumb Code    26  stm32f1xx_hal_cortex.o(i.HAL_NVIC_SetPriorityGrouping)
    HAL_PCD_Init                             0x080020f9   Thumb Code   218  stm32f1xx_hal_pcd.o(i.HAL_PCD_Init)
    HAL_PCD_MspInit                          0x080021d5   Thumb Code    30  usb.o(i.HAL_PCD_MspInit)
    HAL_PWR_EnableBkUpAccess                 0x080021fd   Thumb Code     8  stm32f1xx_hal_pwr.o(i.HAL_PWR_EnableBkUpAccess)
    HAL_RCCEx_GetPeriphCLKFreq               0x08002209   Thumb Code   148  stm32f1xx_hal_rcc_ex.o(i.HAL_RCCEx_GetPeriphCLKFreq)
    HAL_RCCEx_PeriphCLKConfig                0x080022ad   Thumb Code   224  stm32f1xx_hal_rcc_ex.o(i.HAL_RCCEx_PeriphCLKConfig)
    HAL_RCC_ClockConfig                      0x08002399   Thumb Code   280  stm32f1xx_hal_rcc.o(i.HAL_RCC_ClockConfig)
    HAL_RCC_GetClockConfig                   0x080024c5   Thumb Code    54  stm32f1xx_hal_rcc.o(i.HAL_RCC_GetClockConfig)
    HAL_RCC_GetPCLK1Freq                     0x08002505   Thumb Code    20  stm32f1xx_hal_rcc.o(i.HAL_RCC_GetPCLK1Freq)
    HAL_RCC_GetPCLK2Freq                     0x08002525   Thumb Code    20  stm32f1xx_hal_rcc.o(i.HAL_RCC_GetPCLK2Freq)
    HAL_RCC_GetSysClockFreq                  0x08002545   Thumb Code    58  stm32f1xx_hal_rcc.o(i.HAL_RCC_GetSysClockFreq)
    HAL_RCC_OscConfig                        0x08002591   Thumb Code   778  stm32f1xx_hal_rcc.o(i.HAL_RCC_OscConfig)
    HAL_RTCEx_BKUPRead                       0x080028b1   Thumb Code    10  stm32f1xx_hal_rtc_ex.o(i.HAL_RTCEx_BKUPRead)
    HAL_RTCEx_BKUPWrite                      0x080028c1   Thumb Code    12  stm32f1xx_hal_rtc_ex.o(i.HAL_RTCEx_BKUPWrite)
    HAL_RTC_AlarmAEventCallback              0x080028d1   Thumb Code    14  selecttask.o(i.HAL_RTC_AlarmAEventCallback)
    HAL_RTC_AlarmIRQHandler                  0x080028e9   Thumb Code    48  stm32f1xx_hal_rtc.o(i.HAL_RTC_AlarmIRQHandler)
    HAL_RTC_GetDate                          0x0800291d   Thumb Code    78  stm32f1xx_hal_rtc.o(i.HAL_RTC_GetDate)
    HAL_RTC_GetTime                          0x0800296b   Thumb Code   216  stm32f1xx_hal_rtc.o(i.HAL_RTC_GetTime)
    HAL_RTC_Init                             0x08002a45   Thumb Code   144  stm32f1xx_hal_rtc.o(i.HAL_RTC_Init)
    HAL_RTC_MspInit                          0x08002ad9   Thumb Code    60  rtc.o(i.HAL_RTC_MspInit)
    HAL_RTC_SetAlarm_IT                      0x08002b21   Thumb Code   226  stm32f1xx_hal_rtc.o(i.HAL_RTC_SetAlarm_IT)
    HAL_RTC_SetDate                          0x08002c0d   Thumb Code   192  stm32f1xx_hal_rtc.o(i.HAL_RTC_SetDate)
    HAL_RTC_SetTime                          0x08002cd1   Thumb Code   168  stm32f1xx_hal_rtc.o(i.HAL_RTC_SetTime)
    HAL_RTC_WaitForSynchro                   0x08002d7d   Thumb Code    58  stm32f1xx_hal_rtc.o(i.HAL_RTC_WaitForSynchro)
    HAL_SPI_Init                             0x08002db7   Thumb Code   178  stm32f1xx_hal_spi.o(i.HAL_SPI_Init)
    HAL_SPI_MspInit                          0x08002e69   Thumb Code    98  spi.o(i.HAL_SPI_MspInit)
    HAL_TIMEx_BreakCallback                  0x08002ed9   Thumb Code     2  stm32f1xx_hal_tim_ex.o(i.HAL_TIMEx_BreakCallback)
    HAL_TIMEx_CommutCallback                 0x08002edb   Thumb Code     2  stm32f1xx_hal_tim_ex.o(i.HAL_TIMEx_CommutCallback)
    HAL_TIMEx_ConfigBreakDeadTime            0x08002edd   Thumb Code    84  stm32f1xx_hal_tim_ex.o(i.HAL_TIMEx_ConfigBreakDeadTime)
    HAL_TIMEx_MasterConfigSynchronization    0x08002f31   Thumb Code    92  stm32f1xx_hal_tim_ex.o(i.HAL_TIMEx_MasterConfigSynchronization)
    HAL_TIM_Base_Init                        0x08002f99   Thumb Code    90  stm32f1xx_hal_tim.o(i.HAL_TIM_Base_Init)
    HAL_TIM_Base_MspInit                     0x08002ff5   Thumb Code    52  tim.o(i.HAL_TIM_Base_MspInit)
    HAL_TIM_Base_Start_IT                    0x08003031   Thumb Code    76  stm32f1xx_hal_tim.o(i.HAL_TIM_Base_Start_IT)
    HAL_TIM_ConfigClockSource                0x08003089   Thumb Code   220  stm32f1xx_hal_tim.o(i.HAL_TIM_ConfigClockSource)
    HAL_TIM_IC_CaptureCallback               0x08003165   Thumb Code     2  stm32f1xx_hal_tim.o(i.HAL_TIM_IC_CaptureCallback)
    HAL_TIM_IRQHandler                       0x08003167   Thumb Code   358  stm32f1xx_hal_tim.o(i.HAL_TIM_IRQHandler)
    HAL_TIM_MspPostInit                      0x080032cd   Thumb Code   212  tim.o(i.HAL_TIM_MspPostInit)
    HAL_TIM_OC_DelayElapsedCallback          0x080033b9   Thumb Code     2  stm32f1xx_hal_tim.o(i.HAL_TIM_OC_DelayElapsedCallback)
    HAL_TIM_PWM_ConfigChannel                0x080033bb   Thumb Code   204  stm32f1xx_hal_tim.o(i.HAL_TIM_PWM_ConfigChannel)
    HAL_TIM_PWM_Init                         0x08003487   Thumb Code    90  stm32f1xx_hal_tim.o(i.HAL_TIM_PWM_Init)
    HAL_TIM_PWM_MspInit                      0x080034e1   Thumb Code    30  tim.o(i.HAL_TIM_PWM_MspInit)
    HAL_TIM_PWM_PulseFinishedCallback        0x08003509   Thumb Code     2  stm32f1xx_hal_tim.o(i.HAL_TIM_PWM_PulseFinishedCallback)
    HAL_TIM_PeriodElapsedCallback            0x0800350d   Thumb Code    14  main.o(i.HAL_TIM_PeriodElapsedCallback)
    HAL_TIM_TriggerCallback                  0x08003521   Thumb Code     2  stm32f1xx_hal_tim.o(i.HAL_TIM_TriggerCallback)
    HAL_UART_Init                            0x08003523   Thumb Code   100  stm32f1xx_hal_uart.o(i.HAL_UART_Init)
    HAL_UART_MspInit                         0x08003589   Thumb Code   100  usart.o(i.HAL_UART_MspInit)
    HardFault_Handler                        0x080035f9   Thumb Code     2  stm32f1xx_it.o(i.HardFault_Handler)
    IRReceiver_IRQ_Callback                  0x08003c19   Thumb Code   180  driver_ir_receiver.o(i.IRReceiver_IRQ_Callback)
    IRReceiver_Init                          0x08003ce9   Thumb Code    18  driver_ir_receiver.o(i.IRReceiver_Init)
    LCD_Clear                                0x08003d01   Thumb Code     4  driver_lcd.o(i.LCD_Clear)
    LCD_Flush                                0x08003d05   Thumb Code     4  driver_lcd.o(i.LCD_Flush)
    LCD_FlushRegion                          0x08003d09   Thumb Code     4  driver_lcd.o(i.LCD_FlushRegion)
    LCD_GetFrameBuffer                       0x08003d0d   Thumb Code     4  driver_lcd.o(i.LCD_GetFrameBuffer)
    LCD_Init                                 0x08003d11   Thumb Code     4  driver_lcd.o(i.LCD_Init)
    MPU6050_Callback                         0x08003d15   Thumb Code    42  driver_mpu6050.o(i.MPU6050_Callback)
    MPU6050_Init                             0x08003d49   Thumb Code   128  driver_mpu6050.o(i.MPU6050_Init)
    MPU6050_ParseData                        0x08003dcd   Thumb Code    86  driver_mpu6050.o(i.MPU6050_ParseData)
    MPU6050_ReadData                         0x08003e2d   Thumb Code   282  driver_mpu6050.o(i.MPU6050_ReadData)
    MPU6050_ReadRegister                     0x08003f49   Thumb Code    28  driver_mpu6050.o(i.MPU6050_ReadRegister)
    MPU_6050_Task                            0x08003f8d   Thumb Code   116  driver_mpu6050.o(i.MPU_6050_Task)
    MX_ADC1_Init                             0x08004005   Thumb Code    70  adc.o(i.MX_ADC1_Init)
    MX_FREERTOS_Init                         0x08004055   Thumb Code   282  freertos.o(i.MX_FREERTOS_Init)
    MX_GPIO_Init                             0x08004231   Thumb Code   326  gpio.o(i.MX_GPIO_Init)
    MX_I2C1_Init                             0x08004391   Thumb Code    50  i2c.o(i.MX_I2C1_Init)
    MX_RTC_Init                              0x080043d1   Thumb Code   304  rtc.o(i.MX_RTC_Init)
    MX_SPI1_Init                             0x0800450d   Thumb Code    62  spi.o(i.MX_SPI1_Init)
    MX_TIM1_Init                             0x08004555   Thumb Code   198  tim.o(i.MX_TIM1_Init)
    MX_TIM2_Init                             0x08004625   Thumb Code   182  tim.o(i.MX_TIM2_Init)
    MX_TIM3_Init                             0x080046e1   Thumb Code   110  tim.o(i.MX_TIM3_Init)
    MX_USART1_UART_Init                      0x08004759   Thumb Code    48  usart.o(i.MX_USART1_UART_Init)
    MX_USB_PCD_Init                          0x08004791   Thumb Code    42  usb.o(i.MX_USB_PCD_Init)
    MainTimeTask                             0x080047c5   Thumb Code   954  menu.o(i.MainTimeTask)
    MemManage_Handler                        0x08004ba5   Thumb Code     2  stm32f1xx_it.o(i.MemManage_Handler)
    MenuTask                                 0x08004ba9   Thumb Code   372  menu.o(i.MenuTask)
    Menu_Init                                0x08004d39   Thumb Code    46  menu.o(i.Menu_Init)
    NMI_Handler                              0x08004d6d   Thumb Code     2  stm32f1xx_it.o(i.NMI_Handler)
    OLED_Clear                               0x08004d6f   Thumb Code    42  driver_oled.o(i.OLED_Clear)
    OLED_Flush                               0x08004d99   Thumb Code    50  driver_oled.o(i.OLED_Flush)
    OLED_FlushRegion                         0x08004dd1   Thumb Code    90  driver_oled.o(i.OLED_FlushRegion)
    OLED_GetFrameBuffer                      0x08004e31   Thumb Code    16  driver_oled.o(i.OLED_GetFrameBuffer)
    OLED_Init                                0x08004e45   Thumb Code   142  driver_oled.o(i.OLED_Init)
    OLED_SetPosition                         0x08004f05   Thumb Code    58  driver_oled.o(i.OLED_SetPosition)
    ProcessIRData                            0x08004f8d   Thumb Code    86  readdata.o(i.ProcessIRData)
    ProcessRotaryData                        0x08004fe9   Thumb Code    82  readdata.o(i.ProcessRotaryData)
    PutI2C                                   0x08005041   Thumb Code    14  freertos.o(i.PutI2C)
    RTC_Alarm_IRQHandler                     0x08005055   Thumb Code     6  stm32f1xx_it.o(i.RTC_Alarm_IRQHandler)
    ReadDataTask                             0x08005279   Thumb Code   140  readdata.o(i.ReadDataTask)
    RegisterQueueHandle                      0x08005309   Thumb Code    20  readdata.o(i.RegisterQueueHandle)
    RotaryEncoder_IRQ_Callback               0x08005325   Thumb Code   136  driver_rotary_encoder.o(i.RotaryEncoder_IRQ_Callback)
    RotaryEncoder_Init                       0x080053bd   Thumb Code    18  driver_rotary_encoder.o(i.RotaryEncoder_Init)
    SelectTask                               0x080053d5   Thumb Code   590  selecttask.o(i.SelectTask)
    SelectTask_Init                          0x08005675   Thumb Code    24  selecttask.o(i.SelectTask_Init)
    SetCary                                  0x08005691   Thumb Code     6  game2.o(i.SetCary)
    SetTimeTask                              0x0800569d   Thumb Code   428  settime.o(i.SetTimeTask)
    SysTick_Handler                          0x08005859   Thumb Code    38  port.o(i.SysTick_Handler)
    SystemClock_Config                       0x08005885   Thumb Code   136  main.o(i.SystemClock_Config)
    SystemInit                               0x0800590d   Thumb Code     2  system_stm32f1xx.o(i.SystemInit)
    TIM4_IRQHandler                          0x08005911   Thumb Code     6  stm32f1xx_it.o(i.TIM4_IRQHandler)
    TIM_Base_SetConfig                       0x0800591d   Thumb Code    94  stm32f1xx_hal_tim.o(i.TIM_Base_SetConfig)
    TIM_ETR_SetConfig                        0x08005989   Thumb Code    20  stm32f1xx_hal_tim.o(i.TIM_ETR_SetConfig)
    TIM_OC2_SetConfig                        0x080059fd   Thumb Code    84  stm32f1xx_hal_tim.o(i.TIM_OC2_SetConfig)
    USB_CoreInit                             0x08005bf1   Thumb Code     4  stm32f1xx_ll_usb.o(i.USB_CoreInit)
    USB_DevDisconnect                        0x08005bf5   Thumb Code     4  stm32f1xx_ll_usb.o(i.USB_DevDisconnect)
    USB_DevInit                              0x08005bf9   Thumb Code    18  stm32f1xx_ll_usb.o(i.USB_DevInit)
    USB_DisableGlobalInt                     0x08005c0b   Thumb Code    14  stm32f1xx_ll_usb.o(i.USB_DisableGlobalInt)
    USB_SetCurrentMode                       0x08005c19   Thumb Code     4  stm32f1xx_ll_usb.o(i.USB_SetCurrentMode)
    UsageFault_Handler                       0x08005c1d   Thumb Code     2  stm32f1xx_it.o(i.UsageFault_Handler)
    __0sprintf$3                             0x08005c21   Thumb Code    34  printf3.o(i.__0sprintf$3)
    __1sprintf$3                             0x08005c21   Thumb Code     0  printf3.o(i.__0sprintf$3)
    __2sprintf                               0x08005c21   Thumb Code     0  printf3.o(i.__0sprintf$3)
    __kernel_poly                            0x08005c69   Thumb Code   170  poly.o(i.__kernel_poly)
    __mathlib_dbl_infnan                     0x08005d13   Thumb Code     6  dunder.o(i.__mathlib_dbl_infnan)
    __mathlib_dbl_invalid                    0x08005d19   Thumb Code    12  dunder.o(i.__mathlib_dbl_invalid)
    __scatterload_copy                       0x08005d25   Thumb Code    14  handlers.o(i.__scatterload_copy)
    __scatterload_null                       0x08005d33   Thumb Code     2  handlers.o(i.__scatterload_null)
    __scatterload_zeroinit                   0x08005d35   Thumb Code    14  handlers.o(i.__scatterload_zeroinit)
    __set_errno                              0x08005d45   Thumb Code     6  errno.o(i.__set_errno)
    acos                                     0x08005f15   Thumb Code   574  acos.o(i.acos)
    draw_bitmap                              0x08006191   Thumb Code   458  draw.o(i.draw_bitmap)
    draw_end                                 0x08006361   Thumb Code     4  draw.o(i.draw_end)
    draw_flushArea                           0x08006365   Thumb Code    36  draw.o(i.draw_flushArea)
    draw_init                                0x08006389   Thumb Code    20  draw.o(i.draw_init)
    draw_string                              0x080063a1   Thumb Code   166  draw.o(i.draw_string)
    draw_string_P                            0x08006451   Thumb Code    54  draw.o(i.draw_string_P)
    free                                     0x08006489   Thumb Code    76  malloc.o(i.free)
    game1_draw                               0x080064d9   Thumb Code   856  game1.o(i.game1_draw)
    game1_task                               0x0800685d   Thumb Code    52  game1.o(i.game1_task)
    game2Task                                0x08006895   Thumb Code   236  game2.o(i.game2Task)
    main                                     0x0800698d   Thumb Code    62  main.o(i.main)
    malloc                                   0x080069cd   Thumb Code    92  malloc.o(i.malloc)
    mdelay                                   0x08006a39   Thumb Code    26  driver_timer.o(i.mdelay)
    osKernelInitialize                       0x08006a55   Thumb Code    50  cmsis_os2.o(i.osKernelInitialize)
    osKernelStart                            0x08006a8d   Thumb Code    58  cmsis_os2.o(i.osKernelStart)
    platform_task                            0x08006acd   Thumb Code   238  game1.o(i.platform_task)
    pvPortMalloc                             0x080073e9   Thumb Code   210  heap_4.o(i.pvPortMalloc)
    pvTaskIncrementMutexHeldCount            0x080074c1   Thumb Code    18  tasks.o(i.pvTaskIncrementMutexHeldCount)
    pxPortInitialiseStack                    0x080074d9   Thumb Code    32  port.o(i.pxPortInitialiseStack)
    sqrt                                     0x08007537   Thumb Code    76  sqrt.o(i.sqrt)
    system_get_ns                            0x08007585   Thumb Code    58  driver_timer.o(i.system_get_ns)
    udelay                                   0x080075c9   Thumb Code    52  driver_timer.o(i.udelay)
    uxListRemove                             0x08007601   Thumb Code    38  list.o(i.uxListRemove)
    uxTaskResetEventItemValue                0x08007629   Thumb Code    20  tasks.o(i.uxTaskResetEventItemValue)
    vApplicationGetIdleTaskMemory            0x08007641   Thumb Code    16  cmsis_os2.o(i.vApplicationGetIdleTaskMemory)
    vApplicationGetTimerTaskMemory           0x08007655   Thumb Code    18  cmsis_os2.o(i.vApplicationGetTimerTaskMemory)
    vEventGroupSetBitsCallback               0x0800766d   Thumb Code     4  event_groups.o(i.vEventGroupSetBitsCallback)
    vListInitialise                          0x08007671   Thumb Code    22  list.o(i.vListInitialise)
    vListInitialiseItem                      0x08007687   Thumb Code     6  list.o(i.vListInitialiseItem)
    vListInsert                              0x0800768d   Thumb Code    48  list.o(i.vListInsert)
    vListInsertEnd                           0x080076bd   Thumb Code    24  list.o(i.vListInsertEnd)
    vPortEnterCritical                       0x080076d5   Thumb Code    54  port.o(i.vPortEnterCritical)
    vPortExitCritical                        0x08007715   Thumb Code    34  port.o(i.vPortExitCritical)
    vPortFree                                0x0800773d   Thumb Code    88  heap_4.o(i.vPortFree)
    vPortSetupTimerInterrupt                 0x08007799   Thumb Code    32  port.o(i.vPortSetupTimerInterrupt)
    vPortValidateInterruptPriority           0x080077bd   Thumb Code    74  port.o(i.vPortValidateInterruptPriority)
    vQueueAddToRegistry                      0x08007811   Thumb Code    34  queue.o(i.vQueueAddToRegistry)
    vQueueWaitForMessageRestricted           0x08007839   Thumb Code    68  queue.o(i.vQueueWaitForMessageRestricted)
    vTaskDelay                               0x0800787d   Thumb Code    66  tasks.o(i.vTaskDelay)
    vTaskInternalSetTimeOutState             0x080078c9   Thumb Code    12  tasks.o(i.vTaskInternalSetTimeOutState)
    vTaskMissedYield                         0x080078d9   Thumb Code     8  tasks.o(i.vTaskMissedYield)
    vTaskPlaceOnEventList                    0x080078e5   Thumb Code    44  tasks.o(i.vTaskPlaceOnEventList)
    vTaskPlaceOnEventListRestricted          0x08007915   Thumb Code    52  tasks.o(i.vTaskPlaceOnEventListRestricted)
    vTaskPlaceOnUnorderedEventList           0x0800794d   Thumb Code    76  tasks.o(i.vTaskPlaceOnUnorderedEventList)
    vTaskPriorityDisinheritAfterTimeout      0x0800799d   Thumb Code   134  tasks.o(i.vTaskPriorityDisinheritAfterTimeout)
    vTaskRemoveFromUnorderedEventList        0x08007a2d   Thumb Code   102  tasks.o(i.vTaskRemoveFromUnorderedEventList)
    vTaskResume                              0x08007a9d   Thumb Code   110  tasks.o(i.vTaskResume)
    vTaskStartScheduler                      0x08007b19   Thumb Code   118  tasks.o(i.vTaskStartScheduler)
    vTaskSuspend                             0x08007ba1   Thumb Code   144  tasks.o(i.vTaskSuspend)
    vTaskSuspendAll                          0x08007c3d   Thumb Code    10  tasks.o(i.vTaskSuspendAll)
    vTaskSwitchContext                       0x08007c4d   Thumb Code    90  tasks.o(i.vTaskSwitchContext)
    xEventGroupCreate                        0x08007cb1   Thumb Code    28  event_groups.o(i.xEventGroupCreate)
    xEventGroupSetBits                       0x08007ccd   Thumb Code   140  event_groups.o(i.xEventGroupSetBits)
    xEventGroupSetBitsFromISR                0x08007d59   Thumb Code    12  event_groups.o(i.xEventGroupSetBitsFromISR)
    xEventGroupWaitBits                      0x08007d69   Thumb Code   260  event_groups.o(i.xEventGroupWaitBits)
    xPortStartScheduler                      0x08007e71   Thumb Code   154  port.o(i.xPortStartScheduler)
    xQueueAddToSet                           0x08007f19   Thumb Code    34  queue.o(i.xQueueAddToSet)
    xQueueCreateMutex                        0x08007f3b   Thumb Code    22  queue.o(i.xQueueCreateMutex)
    xQueueCreateSet                          0x08007f51   Thumb Code     8  queue.o(i.xQueueCreateSet)
    xQueueGenericCreate                      0x08007f59   Thumb Code    72  queue.o(i.xQueueGenericCreate)
    xQueueGenericCreateStatic                0x08007fa1   Thumb Code   102  queue.o(i.xQueueGenericCreateStatic)
    xQueueGenericReset                       0x08008009   Thumb Code   132  queue.o(i.xQueueGenericReset)
    xQueueGenericSend                        0x08008091   Thumb Code   360  queue.o(i.xQueueGenericSend)
    xQueueGenericSendFromISR                 0x080081fd   Thumb Code   202  queue.o(i.xQueueGenericSendFromISR)
    xQueueReceive                            0x080082c9   Thumb Code   308  queue.o(i.xQueueReceive)
    xQueueSelectFromSet                      0x08008401   Thumb Code    18  queue.o(i.xQueueSelectFromSet)
    xQueueSemaphoreTake                      0x08008415   Thumb Code   372  queue.o(i.xQueueSemaphoreTake)
    xTaskCheckForTimeOut                     0x0800858d   Thumb Code   112  tasks.o(i.xTaskCheckForTimeOut)
    xTaskCreate                              0x08008601   Thumb Code    90  tasks.o(i.xTaskCreate)
    xTaskCreateStatic                        0x0800865b   Thumb Code    86  tasks.o(i.xTaskCreateStatic)
    xTaskGetSchedulerState                   0x080086b1   Thumb Code    22  tasks.o(i.xTaskGetSchedulerState)
    xTaskGetTickCount                        0x080086cd   Thumb Code     6  tasks.o(i.xTaskGetTickCount)
    xTaskIncrementTick                       0x080086d9   Thumb Code   190  tasks.o(i.xTaskIncrementTick)
    xTaskPriorityDisinherit                  0x080087a1   Thumb Code   118  tasks.o(i.xTaskPriorityDisinherit)
    xTaskPriorityInherit                     0x08008821   Thumb Code   112  tasks.o(i.xTaskPriorityInherit)
    xTaskRemoveFromEventList                 0x08008899   Thumb Code    98  tasks.o(i.xTaskRemoveFromEventList)
    xTaskResumeAll                           0x08008909   Thumb Code   182  tasks.o(i.xTaskResumeAll)
    xTaskResumeFromISR                       0x080089cd   Thumb Code   124  tasks.o(i.xTaskResumeFromISR)
    xTimerCreateTimerTask                    0x08008a55   Thumb Code    78  timers.o(i.xTimerCreateTimerTask)
    xTimerGenericCommand                     0x08008ab5   Thumb Code    98  timers.o(i.xTimerGenericCommand)
    xTimerPendFunctionCallFromISR            0x08008b1d   Thumb Code    34  timers.o(i.xTimerPendFunctionCallFromISR)
    xiugai                                   0x08008b45   Thumb Code    58  selecttask.o(i.xiugai)
    AHBPrescTable                            0x08008bac   Data          16  system_stm32f1xx.o(.constdata)
    APBPrescTable                            0x08008bbc   Data           8  system_stm32f1xx.o(.constdata)
    livesImg                                 0x08008bc4   Data           7  resources.o(.constdata)
    smallFont                                0x08008bcb   Data         485  resources.o(.constdata)
    ClearImg                                 0x08008db0   Data        8192  menuimg.o(.constdata)
    TopImg                                   0x0800adb0   Data         208  menuimg.o(.constdata)
    TopSelectImg                             0x0800ae80   Data          36  menuimg.o(.constdata)
    BottomSelectImg                          0x0800aea4   Data          36  menuimg.o(.constdata)
    ExitImg                                  0x0800aec8   Data          64  menuimg.o(.constdata)
    ClockImg                                 0x0800af08   Data         768  menuimg.o(.constdata)
    ClockBottomImg                           0x0800b208   Data         384  menuimg.o(.constdata)
    ShowMINNumber                            0x0800b388   Data         154  menuimg.o(.constdata)
    ShowWeekDay                              0x0800b422   Data         336  menuimg.o(.constdata)
    ShowMAXNumber                            0x0800b572   Data         990  menuimg.o(.constdata)
    ShowMIDNumber                            0x0800b950   Data         297  menuimg.o(.constdata)
    MainMenuImg                              0x0800ba79   Data          64  menuimg.o(.constdata)
    Battery                                  0x0800bab9   Data          48  menuimg.o(.constdata)
    AlarmTime                                0x0800bae9   Data         240  menuimg.o(.constdata)
    GameMenuImg                              0x0800bbd9   Data         192  menuimg.o(.constdata)
    GameSelectImg                            0x0800bc99   Data          48  menuimg.o(.constdata)
    Region$$Table$$Base                      0x0800bd80   Number         0  anon$$obj.o(Region$$Table)
    Region$$Table$$Limit                     0x0800bda0   Number         0  anon$$obj.o(Region$$Table)
    xReadDataTaskHandle                      0x20000000   Data           4  freertos.o(.data)
    xSelectTaskHandle                        0x20000004   Data           4  freertos.o(.data)
    xMPU6050TaskHandle                       0x20000008   Data           4  freertos.o(.data)
    xMenuTaskHandle                          0x2000000c   Data           4  freertos.o(.data)
    xMainTimeTaskHandle                      0x20000010   Data           4  freertos.o(.data)
    xAlarmMenuTaskHandle                     0x20000014   Data           4  freertos.o(.data)
    xSetTimeTaskHandle                       0x20000018   Data           4  freertos.o(.data)
    xGameMenuTaskHandle                      0x2000001c   Data           4  freertos.o(.data)
    xgame1taskHandle                         0x20000020   Data           4  freertos.o(.data)
    xplatformtaskHandle                      0x20000024   Data           4  freertos.o(.data)
    xgame2TaskHandle                         0x20000028   Data           4  freertos.o(.data)
    xAlarmGoTaskHandle                       0x2000002c   Data           4  freertos.o(.data)
    uwTickFreq                               0x20000034   Data           1  stm32f1xx_hal.o(.data)
    uwTickPrio                               0x20000038   Data           4  stm32f1xx_hal.o(.data)
    uwTick                                   0x2000003c   Data           4  stm32f1xx_hal.o(.data)
    SystemCoreClock                          0x20000040   Data           4  system_stm32f1xx.o(.data)
    pxCurrentTCB                             0x20000044   Data           4  tasks.o(.data)
    SelectState                              0x20000116   Data           1  menu.o(.data)
    GamesSelectState                         0x20000117   Data           1  menu.o(.data)
    RTC_Time                                 0x20000118   Data           3  menu.o(.data)
    g_xMenuQueueSelect                       0x2000012c   Data           4  menu.o(.data)
    RTC_Date                                 0x20000130   Data           4  menu.o(.data)
    TimeSelectState                          0x20000162   Data           1  settime.o(.data)
    Buffer_Time                              0x20000163   Data           3  settime.o(.data)
    Buffer_Date                              0x20000166   Data           4  settime.o(.data)
    sAlarm                                   0x2000016c   Data           8  settime.o(.data)
    gameEnded                                0x2000017b   Data           1  game1.o(.data)
    blockCollide                             0x2000017d   Data           1  game1.o(.data)
    __microlib_freelist                      0x200001b4   Data           4  mvars.o(.data)
    __microlib_freelist_initialised          0x200001b8   Data           4  mvars.o(.data)
    hadc1                                    0x200001c0   Data          48  adc.o(.bss)
    hi2c1                                    0x200001f0   Data          84  i2c.o(.bss)
    hrtc                                     0x20000244   Data          20  rtc.o(.bss)
    hspi1                                    0x20000258   Data          88  spi.o(.bss)
    htim1                                    0x200002b0   Data          72  tim.o(.bss)
    htim2                                    0x200002f8   Data          72  tim.o(.bss)
    htim3                                    0x20000340   Data          72  tim.o(.bss)
    huart1                                   0x20000388   Data          72  usart.o(.bss)
    hpcd_USB_FS                              0x200003d0   Data         752  usb.o(.bss)
    htim4                                    0x200006c0   Data          72  stm32f1xx_hal_timebase_tim.o(.bss)
    xQueueRegistry                           0x20000708   Data          64  queue.o(.bss)
    Myhrtc                                   0x20004280   Data          20  menu.o(.bss)
    __heap_base                              0x200042d0   Data           0  startup_stm32f103xb.o(HEAP)
    __heap_limit                             0x200044d0   Data           0  startup_stm32f103xb.o(HEAP)
    __initial_sp                             0x200048d0   Data           0  startup_stm32f103xb.o(STACK)



==============================================================================

Memory Map of the image

  Image Entry point : 0x080000ed

  Load Region LR_IROM1 (Base: 0x08000000, Size: 0x0000bf60, Max: 0x00010000, ABSOLUTE, COMPRESSED[0x0000bdc0])

    Execution Region ER_IROM1 (Exec base: 0x08000000, Load base: 0x08000000, Size: 0x0000bda0, Max: 0x00010000, ABSOLUTE)

    Exec Addr    Load Addr    Size         Type   Attr      Idx    E Section Name        Object

    0x08000000   0x08000000   0x000000ec   Data   RO            3    RESET               startup_stm32f103xb.o
    0x080000ec   0x080000ec   0x00000000   Code   RO         8262  * .ARM.Collect$$$$00000000  mc_w.l(entry.o)
    0x080000ec   0x080000ec   0x00000004   Code   RO         8621    .ARM.Collect$$$$00000001  mc_w.l(entry2.o)
    0x080000f0   0x080000f0   0x00000004   Code   RO         8624    .ARM.Collect$$$$00000004  mc_w.l(entry5.o)
    0x080000f4   0x080000f4   0x00000000   Code   RO         8626    .ARM.Collect$$$$00000008  mc_w.l(entry7b.o)
    0x080000f4   0x080000f4   0x00000000   Code   RO         8628    .ARM.Collect$$$$0000000A  mc_w.l(entry8b.o)
    0x080000f4   0x080000f4   0x00000008   Code   RO         8629    .ARM.Collect$$$$0000000B  mc_w.l(entry9a.o)
    0x080000fc   0x080000fc   0x00000000   Code   RO         8631    .ARM.Collect$$$$0000000D  mc_w.l(entry10a.o)
    0x080000fc   0x080000fc   0x00000000   Code   RO         8633    .ARM.Collect$$$$0000000F  mc_w.l(entry11a.o)
    0x080000fc   0x080000fc   0x00000004   Code   RO         8622    .ARM.Collect$$$$00002712  mc_w.l(entry2.o)
    0x08000100   0x08000100   0x00000096   Code   RO         6594    .emb_text           port.o
    0x08000196   0x08000196   0x00000002   PAD
    0x08000198   0x08000198   0x00000024   Code   RO            4    .text               startup_stm32f103xb.o
    0x080001bc   0x080001bc   0x00000062   Code   RO         8265    .text               mc_w.l(uldiv.o)
    0x0800021e   0x0800021e   0x00000020   Code   RO         8267    .text               mc_w.l(llushr.o)
    0x0800023e   0x0800023e   0x00000002   PAD
    0x08000240   0x08000240   0x00000024   Code   RO         8269    .text               mc_w.l(rand.o)
    0x08000264   0x08000264   0x00000024   Code   RO         8272    .text               mc_w.l(memcpya.o)
    0x08000288   0x08000288   0x00000024   Code   RO         8276    .text               mc_w.l(memseta.o)
    0x080002ac   0x080002ac   0x0000000e   Code   RO         8278    .text               mc_w.l(strlen.o)
    0x080002ba   0x080002ba   0x00000012   Code   RO         8280    .text               mc_w.l(strcpy.o)
    0x080002cc   0x080002cc   0x000000b0   Code   RO         8573    .text               mf_w.l(fadd.o)
    0x0800037c   0x0800037c   0x00000018   Code   RO         8575    .text               mf_w.l(fscalb.o)
    0x08000394   0x08000394   0x0000014e   Code   RO         8577    .text               mf_w.l(dadd.o)
    0x080004e2   0x080004e2   0x000000e4   Code   RO         8579    .text               mf_w.l(dmul.o)
    0x080005c6   0x080005c6   0x0000002e   Code   RO         8581    .text               mf_w.l(dscalb.o)
    0x080005f4   0x080005f4   0x00000012   Code   RO         8583    .text               mf_w.l(fflti.o)
    0x08000606   0x08000606   0x0000000a   Code   RO         8585    .text               mf_w.l(ffltui.o)
    0x08000610   0x08000610   0x00000022   Code   RO         8587    .text               mf_w.l(dflti.o)
    0x08000632   0x08000632   0x00000028   Code   RO         8589    .text               mf_w.l(ffixui.o)
    0x0800065a   0x0800065a   0x0000003e   Code   RO         8591    .text               mf_w.l(dfixi.o)
    0x08000698   0x08000698   0x00000014   Code   RO         8593    .text               mf_w.l(cfcmple.o)
    0x080006ac   0x080006ac   0x00000014   Code   RO         8595    .text               mf_w.l(cfrcmple.o)
    0x080006c0   0x080006c0   0x0000002c   Code   RO         8636    .text               mc_w.l(uidiv.o)
    0x080006ec   0x080006ec   0x0000001e   Code   RO         8638    .text               mc_w.l(llshl.o)
    0x0800070a   0x0800070a   0x00000024   Code   RO         8640    .text               mc_w.l(llsshr.o)
    0x0800072e   0x0800072e   0x00000000   Code   RO         8651    .text               mc_w.l(iusefp.o)
    0x0800072e   0x0800072e   0x0000006e   Code   RO         8652    .text               mf_w.l(fepilogue.o)
    0x0800079c   0x0800079c   0x000000ba   Code   RO         8654    .text               mf_w.l(depilogue.o)
    0x08000856   0x08000856   0x000000de   Code   RO         8656    .text               mf_w.l(ddiv.o)
    0x08000934   0x08000934   0x00000024   Code   RO         8662    .text               mc_w.l(init.o)
    0x08000958   0x08000958   0x000000a2   Code   RO         8664    .text               mf_w.l(dsqrt.o)
    0x080009fa   0x080009fa   0x0000003a   Code   RO         8676    .text               mc_w.l(__dczerorl.o)
    0x08000a34   0x08000a34   0x00000056   Code   RO          906    i.ADC_ConversionStop_Disable  stm32f1xx_hal_adc.o
    0x08000a8a   0x08000a8a   0x00000002   PAD
    0x08000a8c   0x08000a8c   0x0000007c   Code   RO         7893    i.AlarmGoTask       menu.o
    0x08000b08   0x08000b08   0x0000073c   Code   RO         7894    i.AlarmMenuTask     menu.o
    0x08001244   0x08001244   0x00000002   Code   RO          725    i.BusFault_Handler  stm32f1xx_it.o
    0x08001246   0x08001246   0x00000002   Code   RO          726    i.DebugMon_Handler  stm32f1xx_it.o
    0x08001248   0x08001248   0x0000002c   Code   RO         8049    i.DispatchKey       readdata.o
    0x08001274   0x08001274   0x0000001e   Code   RO          727    i.EXTI15_10_IRQHandler  stm32f1xx_it.o
    0x08001292   0x08001292   0x00000006   Code   RO          728    i.EXTI9_5_IRQHandler  stm32f1xx_it.o
    0x08001298   0x08001298   0x00000004   Code   RO           13    i.Error_Handler     main.o
    0x0800129c   0x0800129c   0x000000f8   Code   RO         7895    i.GameMenuTask      menu.o
    0x08001394   0x08001394   0x00000064   Code   RO         8165    i.Game_InitSet      game1.o
    0x080013f8   0x080013f8   0x00000010   Code   RO          252    i.GetI2C            freertos.o
    0x08001408   0x08001408   0x0000000c   Code   RO         7296    i.GetQueueIR        driver_ir_receiver.o
    0x08001414   0x08001414   0x0000000c   Code   RO         6833    i.GetQueueMPU6050   driver_mpu6050.o
    0x08001420   0x08001420   0x0000000c   Code   RO         7600    i.GetQueueRotary    driver_rotary_encoder.o
    0x0800142c   0x0800142c   0x000000fc   Code   RO          912    i.HAL_ADC_ConfigChannel  stm32f1xx_hal_adc.o
    0x08001528   0x08001528   0x0000011c   Code   RO          921    i.HAL_ADC_Init      stm32f1xx_hal_adc.o
    0x08001644   0x08001644   0x00000058   Code   RO          402    i.HAL_ADC_MspInit   adc.o
    0x0800169c   0x0800169c   0x0000001e   Code   RO         7653    i.HAL_GPIO_EXTI_Callback  driver_irq.o
    0x080016ba   0x080016ba   0x00000002   PAD
    0x080016bc   0x080016bc   0x00000018   Code   RO         1498    i.HAL_GPIO_EXTI_IRQHandler  stm32f1xx_hal_gpio.o
    0x080016d4   0x080016d4   0x000001e0   Code   RO         1499    i.HAL_GPIO_Init     stm32f1xx_hal_gpio.o
    0x080018b4   0x080018b4   0x0000000a   Code   RO         1501    i.HAL_GPIO_ReadPin  stm32f1xx_hal_gpio.o
    0x080018be   0x080018be   0x0000000a   Code   RO         1503    i.HAL_GPIO_WritePin  stm32f1xx_hal_gpio.o
    0x080018c8   0x080018c8   0x0000000c   Code   RO         1193    i.HAL_GetTick       stm32f1xx_hal.o
    0x080018d4   0x080018d4   0x00000188   Code   RO         2170    i.HAL_I2C_Init      stm32f1xx_hal_i2c.o
    0x08001a5c   0x08001a5c   0x0000012c   Code   RO         2183    i.HAL_I2C_Master_Transmit  stm32f1xx_hal_i2c.o
    0x08001b88   0x08001b88   0x00000250   Code   RO         2188    i.HAL_I2C_Mem_Read  stm32f1xx_hal_i2c.o
    0x08001dd8   0x08001dd8   0x00000130   Code   RO         2191    i.HAL_I2C_Mem_Write  stm32f1xx_hal_i2c.o
    0x08001f08   0x08001f08   0x0000005c   Code   RO          444    i.HAL_I2C_MspInit   i2c.o
    0x08001f64   0x08001f64   0x00000010   Code   RO         1199    i.HAL_IncTick       stm32f1xx_hal.o
    0x08001f74   0x08001f74   0x00000024   Code   RO         1200    i.HAL_Init          stm32f1xx_hal.o
    0x08001f98   0x08001f98   0x00000098   Code   RO          831    i.HAL_InitTick      stm32f1xx_hal_timebase_tim.o
    0x08002030   0x08002030   0x00000048   Code   RO          807    i.HAL_MspInit       stm32f1xx_hal_msp.o
    0x08002078   0x08002078   0x0000001a   Code   RO         1659    i.HAL_NVIC_EnableIRQ  stm32f1xx_hal_cortex.o
    0x08002092   0x08002092   0x00000002   PAD
    0x08002094   0x08002094   0x00000040   Code   RO         1665    i.HAL_NVIC_SetPriority  stm32f1xx_hal_cortex.o
    0x080020d4   0x080020d4   0x00000024   Code   RO         1666    i.HAL_NVIC_SetPriorityGrouping  stm32f1xx_hal_cortex.o
    0x080020f8   0x080020f8   0x000000da   Code   RO         4550    i.HAL_PCD_Init      stm32f1xx_hal_pcd.o
    0x080021d2   0x080021d2   0x00000002   PAD
    0x080021d4   0x080021d4   0x00000028   Code   RO          684    i.HAL_PCD_MspInit   usb.o
    0x080021fc   0x080021fc   0x0000000c   Code   RO         1781    i.HAL_PWR_EnableBkUpAccess  stm32f1xx_hal_pwr.o
    0x08002208   0x08002208   0x000000a4   Code   RO         1460    i.HAL_RCCEx_GetPeriphCLKFreq  stm32f1xx_hal_rcc_ex.o
    0x080022ac   0x080022ac   0x000000ec   Code   RO         1461    i.HAL_RCCEx_PeriphCLKConfig  stm32f1xx_hal_rcc_ex.o
    0x08002398   0x08002398   0x0000012c   Code   RO         1357    i.HAL_RCC_ClockConfig  stm32f1xx_hal_rcc.o
    0x080024c4   0x080024c4   0x00000040   Code   RO         1361    i.HAL_RCC_GetClockConfig  stm32f1xx_hal_rcc.o
    0x08002504   0x08002504   0x00000020   Code   RO         1364    i.HAL_RCC_GetPCLK1Freq  stm32f1xx_hal_rcc.o
    0x08002524   0x08002524   0x00000020   Code   RO         1365    i.HAL_RCC_GetPCLK2Freq  stm32f1xx_hal_rcc.o
    0x08002544   0x08002544   0x0000004c   Code   RO         1366    i.HAL_RCC_GetSysClockFreq  stm32f1xx_hal_rcc.o
    0x08002590   0x08002590   0x00000320   Code   RO         1369    i.HAL_RCC_OscConfig  stm32f1xx_hal_rcc.o
    0x080028b0   0x080028b0   0x00000010   Code   RO         2766    i.HAL_RTCEx_BKUPRead  stm32f1xx_hal_rtc_ex.o
    0x080028c0   0x080028c0   0x00000010   Code   RO         2767    i.HAL_RTCEx_BKUPWrite  stm32f1xx_hal_rtc_ex.o
    0x080028d0   0x080028d0   0x00000018   Code   RO         8091    i.HAL_RTC_AlarmAEventCallback  selecttask.o
    0x080028e8   0x080028e8   0x00000034   Code   RO         2597    i.HAL_RTC_AlarmIRQHandler  stm32f1xx_hal_rtc.o
    0x0800291c   0x0800291c   0x0000004e   Code   RO         2601    i.HAL_RTC_GetDate   stm32f1xx_hal_rtc.o
    0x0800296a   0x0800296a   0x000000d8   Code   RO         2603    i.HAL_RTC_GetTime   stm32f1xx_hal_rtc.o
    0x08002a42   0x08002a42   0x00000002   PAD
    0x08002a44   0x08002a44   0x00000094   Code   RO         2604    i.HAL_RTC_Init      stm32f1xx_hal_rtc.o
    0x08002ad8   0x08002ad8   0x00000048   Code   RO          486    i.HAL_RTC_MspInit   rtc.o
    0x08002b20   0x08002b20   0x000000ec   Code   RO         2609    i.HAL_RTC_SetAlarm_IT  stm32f1xx_hal_rtc.o
    0x08002c0c   0x08002c0c   0x000000c4   Code   RO         2610    i.HAL_RTC_SetDate   stm32f1xx_hal_rtc.o
    0x08002cd0   0x08002cd0   0x000000ac   Code   RO         2611    i.HAL_RTC_SetTime   stm32f1xx_hal_rtc.o
    0x08002d7c   0x08002d7c   0x0000003a   Code   RO         2612    i.HAL_RTC_WaitForSynchro  stm32f1xx_hal_rtc.o
    0x08002db6   0x08002db6   0x000000b2   Code   RO         2879    i.HAL_SPI_Init      stm32f1xx_hal_spi.o
    0x08002e68   0x08002e68   0x00000070   Code   RO          528    i.HAL_SPI_MspInit   spi.o
    0x08002ed8   0x08002ed8   0x00000002   Code   RO         3896    i.HAL_TIMEx_BreakCallback  stm32f1xx_hal_tim_ex.o
    0x08002eda   0x08002eda   0x00000002   Code   RO         3897    i.HAL_TIMEx_CommutCallback  stm32f1xx_hal_tim_ex.o
    0x08002edc   0x08002edc   0x00000054   Code   RO         3899    i.HAL_TIMEx_ConfigBreakDeadTime  stm32f1xx_hal_tim_ex.o
    0x08002f30   0x08002f30   0x00000068   Code   RO         3915    i.HAL_TIMEx_MasterConfigSynchronization  stm32f1xx_hal_tim_ex.o
    0x08002f98   0x08002f98   0x0000005a   Code   RO         3192    i.HAL_TIM_Base_Init  stm32f1xx_hal_tim.o
    0x08002ff2   0x08002ff2   0x00000002   PAD
    0x08002ff4   0x08002ff4   0x0000003c   Code   RO          570    i.HAL_TIM_Base_MspInit  tim.o
    0x08003030   0x08003030   0x00000058   Code   RO         3197    i.HAL_TIM_Base_Start_IT  stm32f1xx_hal_tim.o
    0x08003088   0x08003088   0x000000dc   Code   RO         3201    i.HAL_TIM_ConfigClockSource  stm32f1xx_hal_tim.o
    0x08003164   0x08003164   0x00000002   Code   RO         3226    i.HAL_TIM_IC_CaptureCallback  stm32f1xx_hal_tim.o
    0x08003166   0x08003166   0x00000166   Code   RO         3240    i.HAL_TIM_IRQHandler  stm32f1xx_hal_tim.o
    0x080032cc   0x080032cc   0x000000ec   Code   RO          571    i.HAL_TIM_MspPostInit  tim.o
    0x080033b8   0x080033b8   0x00000002   Code   RO         3243    i.HAL_TIM_OC_DelayElapsedCallback  stm32f1xx_hal_tim.o
    0x080033ba   0x080033ba   0x000000cc   Code   RO         3264    i.HAL_TIM_PWM_ConfigChannel  stm32f1xx_hal_tim.o
    0x08003486   0x08003486   0x0000005a   Code   RO         3267    i.HAL_TIM_PWM_Init  stm32f1xx_hal_tim.o
    0x080034e0   0x080034e0   0x00000028   Code   RO          573    i.HAL_TIM_PWM_MspInit  tim.o
    0x08003508   0x08003508   0x00000002   Code   RO         3270    i.HAL_TIM_PWM_PulseFinishedCallback  stm32f1xx_hal_tim.o
    0x0800350a   0x0800350a   0x00000002   PAD
    0x0800350c   0x0800350c   0x00000014   Code   RO           14    i.HAL_TIM_PeriodElapsedCallback  main.o
    0x08003520   0x08003520   0x00000002   Code   RO         3283    i.HAL_TIM_TriggerCallback  stm32f1xx_hal_tim.o
    0x08003522   0x08003522   0x00000064   Code   RO         4193    i.HAL_UART_Init     stm32f1xx_hal_uart.o
    0x08003586   0x08003586   0x00000002   PAD
    0x08003588   0x08003588   0x00000070   Code   RO          642    i.HAL_UART_MspInit  usart.o
    0x080035f8   0x080035f8   0x00000002   Code   RO          729    i.HardFault_Handler  stm32f1xx_it.o
    0x080035fa   0x080035fa   0x0000002e   Code   RO         2213    i.I2C_IsAcknowledgeFailed  stm32f1xx_hal_i2c.o
    0x08003628   0x08003628   0x0000009c   Code   RO         2217    i.I2C_MasterRequestWrite  stm32f1xx_hal_i2c.o
    0x080036c4   0x080036c4   0x000000fc   Code   RO         2223    i.I2C_RequestMemoryRead  stm32f1xx_hal_i2c.o
    0x080037c0   0x080037c0   0x000000a8   Code   RO         2224    i.I2C_RequestMemoryWrite  stm32f1xx_hal_i2c.o
    0x08003868   0x08003868   0x00000056   Code   RO         2228    i.I2C_WaitOnBTFFlagUntilTimeout  stm32f1xx_hal_i2c.o
    0x080038be   0x080038be   0x00000002   PAD
    0x080038c0   0x080038c0   0x00000090   Code   RO         2229    i.I2C_WaitOnFlagUntilTimeout  stm32f1xx_hal_i2c.o
    0x08003950   0x08003950   0x000000bc   Code   RO         2230    i.I2C_WaitOnMasterAddressFlagUntilTimeout  stm32f1xx_hal_i2c.o
    0x08003a0c   0x08003a0c   0x00000070   Code   RO         2231    i.I2C_WaitOnRXNEFlagUntilTimeout  stm32f1xx_hal_i2c.o
    0x08003a7c   0x08003a7c   0x00000056   Code   RO         2232    i.I2C_WaitOnTXEFlagUntilTimeout  stm32f1xx_hal_i2c.o
    0x08003ad2   0x08003ad2   0x00000002   PAD
    0x08003ad4   0x08003ad4   0x00000144   Code   RO         7298    i.IRReceiver_IRQTimes_Parse  driver_ir_receiver.o
    0x08003c18   0x08003c18   0x000000d0   Code   RO         7299    i.IRReceiver_IRQ_Callback  driver_ir_receiver.o
    0x08003ce8   0x08003ce8   0x00000018   Code   RO         7300    i.IRReceiver_Init   driver_ir_receiver.o
    0x08003d00   0x08003d00   0x00000004   Code   RO         7035    i.LCD_Clear         driver_lcd.o
    0x08003d04   0x08003d04   0x00000004   Code   RO         7038    i.LCD_Flush         driver_lcd.o
    0x08003d08   0x08003d08   0x00000004   Code   RO         7039    i.LCD_FlushRegion   driver_lcd.o
    0x08003d0c   0x08003d0c   0x00000004   Code   RO         7040    i.LCD_GetFrameBuffer  driver_lcd.o
    0x08003d10   0x08003d10   0x00000004   Code   RO         7041    i.LCD_Init          driver_lcd.o
    0x08003d14   0x08003d14   0x00000034   Code   RO         6834    i.MPU6050_Callback  driver_mpu6050.o
    0x08003d48   0x08003d48   0x00000084   Code   RO         6836    i.MPU6050_Init      driver_mpu6050.o
    0x08003dcc   0x08003dcc   0x00000060   Code   RO         6837    i.MPU6050_ParseData  driver_mpu6050.o
    0x08003e2c   0x08003e2c   0x0000011a   Code   RO         6838    i.MPU6050_ReadData  driver_mpu6050.o
    0x08003f46   0x08003f46   0x00000002   PAD
    0x08003f48   0x08003f48   0x00000020   Code   RO         6839    i.MPU6050_ReadRegister  driver_mpu6050.o
    0x08003f68   0x08003f68   0x00000024   Code   RO         6841    i.MPU6050_WriteRegister  driver_mpu6050.o
    0x08003f8c   0x08003f8c   0x00000078   Code   RO         6842    i.MPU_6050_Task     driver_mpu6050.o
    0x08004004   0x08004004   0x00000050   Code   RO          403    i.MX_ADC1_Init      adc.o
    0x08004054   0x08004054   0x000001dc   Code   RO          253    i.MX_FREERTOS_Init  freertos.o
    0x08004230   0x08004230   0x00000160   Code   RO          228    i.MX_GPIO_Init      gpio.o
    0x08004390   0x08004390   0x00000040   Code   RO          445    i.MX_I2C1_Init      i2c.o
    0x080043d0   0x080043d0   0x0000013c   Code   RO          487    i.MX_RTC_Init       rtc.o
    0x0800450c   0x0800450c   0x00000048   Code   RO          529    i.MX_SPI1_Init      spi.o
    0x08004554   0x08004554   0x000000d0   Code   RO          574    i.MX_TIM1_Init      tim.o
    0x08004624   0x08004624   0x000000bc   Code   RO          575    i.MX_TIM2_Init      tim.o
    0x080046e0   0x080046e0   0x00000078   Code   RO          576    i.MX_TIM3_Init      tim.o
    0x08004758   0x08004758   0x00000038   Code   RO          643    i.MX_USART1_UART_Init  usart.o
    0x08004790   0x08004790   0x00000034   Code   RO          685    i.MX_USB_PCD_Init   usb.o
    0x080047c4   0x080047c4   0x000003e0   Code   RO         7896    i.MainTimeTask      menu.o
    0x08004ba4   0x08004ba4   0x00000002   Code   RO          730    i.MemManage_Handler  stm32f1xx_it.o
    0x08004ba6   0x08004ba6   0x00000002   PAD
    0x08004ba8   0x08004ba8   0x00000190   Code   RO         7897    i.MenuTask          menu.o
    0x08004d38   0x08004d38   0x00000034   Code   RO         7898    i.Menu_Init         menu.o
    0x08004d6c   0x08004d6c   0x00000002   Code   RO          731    i.NMI_Handler       stm32f1xx_it.o
    0x08004d6e   0x08004d6e   0x0000002a   Code   RO         6716    i.OLED_Clear        driver_oled.o
    0x08004d98   0x08004d98   0x00000038   Code   RO         6719    i.OLED_Flush        driver_oled.o
    0x08004dd0   0x08004dd0   0x00000060   Code   RO         6720    i.OLED_FlushRegion  driver_oled.o
    0x08004e30   0x08004e30   0x00000014   Code   RO         6721    i.OLED_GetFrameBuffer  driver_oled.o
    0x08004e44   0x08004e44   0x00000094   Code   RO         6722    i.OLED_Init         driver_oled.o
    0x08004ed8   0x08004ed8   0x0000002c   Code   RO         6727    i.OLED_SetComConfig  driver_oled.o
    0x08004f04   0x08004f04   0x00000040   Code   RO         6728    i.OLED_SetPosition  driver_oled.o
    0x08004f44   0x08004f44   0x00000028   Code   RO         6729    i.OLED_WriteCmd     driver_oled.o
    0x08004f6c   0x08004f6c   0x00000020   Code   RO         6730    i.OLED_WriteNBytes  driver_oled.o
    0x08004f8c   0x08004f8c   0x0000005c   Code   RO         8050    i.ProcessIRData     readdata.o
    0x08004fe8   0x08004fe8   0x00000058   Code   RO         8051    i.ProcessRotaryData  readdata.o
    0x08005040   0x08005040   0x00000014   Code   RO          254    i.PutI2C            freertos.o
    0x08005054   0x08005054   0x0000000c   Code   RO          732    i.RTC_Alarm_IRQHandler  stm32f1xx_it.o
    0x08005060   0x08005060   0x00000012   Code   RO         2613    i.RTC_Bcd2ToByte    stm32f1xx_hal_rtc.o
    0x08005072   0x08005072   0x00000016   Code   RO         2614    i.RTC_ByteToBcd2    stm32f1xx_hal_rtc.o
    0x08005088   0x08005088   0x000000ae   Code   RO         2615    i.RTC_DateUpdate    stm32f1xx_hal_rtc.o
    0x08005136   0x08005136   0x00000034   Code   RO         2616    i.RTC_EnterInitMode  stm32f1xx_hal_rtc.o
    0x0800516a   0x0800516a   0x00000002   PAD
    0x0800516c   0x0800516c   0x00000036   Code   RO         2617    i.RTC_ExitInitMode  stm32f1xx_hal_rtc.o
    0x080051a2   0x080051a2   0x0000000e   Code   RO         2618    i.RTC_ReadAlarmCounter  stm32f1xx_hal_rtc.o
    0x080051b0   0x080051b0   0x00000020   Code   RO         2619    i.RTC_ReadTimeCounter  stm32f1xx_hal_rtc.o
    0x080051d0   0x080051d0   0x00000056   Code   RO         2620    i.RTC_WeekDayNum    stm32f1xx_hal_rtc.o
    0x08005226   0x08005226   0x00000028   Code   RO         2621    i.RTC_WriteAlarmCounter  stm32f1xx_hal_rtc.o
    0x0800524e   0x0800524e   0x00000028   Code   RO         2622    i.RTC_WriteTimeCounter  stm32f1xx_hal_rtc.o
    0x08005276   0x08005276   0x00000002   PAD
    0x08005278   0x08005278   0x00000090   Code   RO         8052    i.ReadDataTask      readdata.o
    0x08005308   0x08005308   0x0000001c   Code   RO         8053    i.RegisterQueueHandle  readdata.o
    0x08005324   0x08005324   0x00000098   Code   RO         7601    i.RotaryEncoder_IRQ_Callback  driver_rotary_encoder.o
    0x080053bc   0x080053bc   0x00000018   Code   RO         7602    i.RotaryEncoder_Init  driver_rotary_encoder.o
    0x080053d4   0x080053d4   0x000002a0   Code   RO         8092    i.SelectTask        selecttask.o
    0x08005674   0x08005674   0x0000001c   Code   RO         8093    i.SelectTask_Init   selecttask.o
    0x08005690   0x08005690   0x0000000c   Code   RO         8230    i.SetCary           game2.o
    0x0800569c   0x0800569c   0x000001bc   Code   RO         8139    i.SetTimeTask       settime.o
    0x08005858   0x08005858   0x0000002c   Code   RO         6595    i.SysTick_Handler   port.o
    0x08005884   0x08005884   0x00000088   Code   RO           15    i.SystemClock_Config  main.o
    0x0800590c   0x0800590c   0x00000002   Code   RO         4992    i.SystemInit        system_stm32f1xx.o
    0x0800590e   0x0800590e   0x00000002   PAD
    0x08005910   0x08005910   0x0000000c   Code   RO          733    i.TIM4_IRQHandler   stm32f1xx_it.o
    0x0800591c   0x0800591c   0x0000006c   Code   RO         3285    i.TIM_Base_SetConfig  stm32f1xx_hal_tim.o
    0x08005988   0x08005988   0x00000014   Code   RO         3296    i.TIM_ETR_SetConfig  stm32f1xx_hal_tim.o
    0x0800599c   0x0800599c   0x00000010   Code   RO         3297    i.TIM_ITRx_SetConfig  stm32f1xx_hal_tim.o
    0x080059ac   0x080059ac   0x00000050   Code   RO         3298    i.TIM_OC1_SetConfig  stm32f1xx_hal_tim.o
    0x080059fc   0x080059fc   0x00000058   Code   RO         3299    i.TIM_OC2_SetConfig  stm32f1xx_hal_tim.o
    0x08005a54   0x08005a54   0x00000058   Code   RO         3300    i.TIM_OC3_SetConfig  stm32f1xx_hal_tim.o
    0x08005aac   0x08005aac   0x00000044   Code   RO         3301    i.TIM_OC4_SetConfig  stm32f1xx_hal_tim.o
    0x08005af0   0x08005af0   0x00000022   Code   RO         3303    i.TIM_TI1_ConfigInputStage  stm32f1xx_hal_tim.o
    0x08005b12   0x08005b12   0x00000024   Code   RO         3305    i.TIM_TI2_ConfigInputStage  stm32f1xx_hal_tim.o
    0x08005b36   0x08005b36   0x00000002   PAD
    0x08005b38   0x08005b38   0x000000b8   Code   RO         4219    i.UART_SetConfig    stm32f1xx_hal_uart.o
    0x08005bf0   0x08005bf0   0x00000004   Code   RO         4808    i.USB_CoreInit      stm32f1xx_ll_usb.o
    0x08005bf4   0x08005bf4   0x00000004   Code   RO         4812    i.USB_DevDisconnect  stm32f1xx_ll_usb.o
    0x08005bf8   0x08005bf8   0x00000012   Code   RO         4813    i.USB_DevInit       stm32f1xx_ll_usb.o
    0x08005c0a   0x08005c0a   0x0000000e   Code   RO         4814    i.USB_DisableGlobalInt  stm32f1xx_ll_usb.o
    0x08005c18   0x08005c18   0x00000004   Code   RO         4829    i.USB_SetCurrentMode  stm32f1xx_ll_usb.o
    0x08005c1c   0x08005c1c   0x00000002   Code   RO          734    i.UsageFault_Handler  stm32f1xx_it.o
    0x08005c1e   0x08005c1e   0x00000002   PAD
    0x08005c20   0x08005c20   0x00000028   Code   RO         8375    i.__0sprintf$3      mc_w.l(printf3.o)
    0x08005c48   0x08005c48   0x00000020   Code   RO         1672    i.__NVIC_SetPriority  stm32f1xx_hal_cortex.o
    0x08005c68   0x08005c68   0x000000aa   Code   RO         8611    i.__kernel_poly     m_ws.l(poly.o)
    0x08005d12   0x08005d12   0x00000006   Code   RO         8598    i.__mathlib_dbl_infnan  m_ws.l(dunder.o)
    0x08005d18   0x08005d18   0x0000000c   Code   RO         8600    i.__mathlib_dbl_invalid  m_ws.l(dunder.o)
    0x08005d24   0x08005d24   0x0000000e   Code   RO         8670    i.__scatterload_copy  mc_w.l(handlers.o)
    0x08005d32   0x08005d32   0x00000002   Code   RO         8671    i.__scatterload_null  mc_w.l(handlers.o)
    0x08005d34   0x08005d34   0x0000000e   Code   RO         8672    i.__scatterload_zeroinit  mc_w.l(handlers.o)
    0x08005d42   0x08005d42   0x00000002   PAD
    0x08005d44   0x08005d44   0x0000000c   Code   RO         8646    i.__set_errno       mc_w.l(errno.o)
    0x08005d50   0x08005d50   0x000001b8   Code   RO         8380    i._printf_core      mc_w.l(printf3.o)
    0x08005f08   0x08005f08   0x0000000a   Code   RO         8382    i._sputc            mc_w.l(printf3.o)
    0x08005f12   0x08005f12   0x00000002   PAD
    0x08005f14   0x08005f14   0x0000027c   Code   RO         8253    i.acos              m_ws.l(acos.o)
    0x08006190   0x08006190   0x000001d0   Code   RO         7809    i.draw_bitmap       draw.o
    0x08006360   0x08006360   0x00000004   Code   RO         7811    i.draw_end          draw.o
    0x08006364   0x08006364   0x00000024   Code   RO         7812    i.draw_flushArea    draw.o
    0x08006388   0x08006388   0x00000018   Code   RO         7813    i.draw_init         draw.o
    0x080063a0   0x080063a0   0x000000b0   Code   RO         7814    i.draw_string       draw.o
    0x08006450   0x08006450   0x00000036   Code   RO         7815    i.draw_string_P     draw.o
    0x08006486   0x08006486   0x00000002   PAD
    0x08006488   0x08006488   0x00000050   Code   RO         8545    i.free              mc_w.l(malloc.o)
    0x080064d8   0x080064d8   0x00000384   Code   RO         8166    i.game1_draw        game1.o
    0x0800685c   0x0800685c   0x00000038   Code   RO         8167    i.game1_task        game1.o
    0x08006894   0x08006894   0x000000f8   Code   RO         8231    i.game2Task         game2.o
    0x0800698c   0x0800698c   0x0000003e   Code   RO           16    i.main              main.o
    0x080069ca   0x080069ca   0x00000002   PAD
    0x080069cc   0x080069cc   0x0000006c   Code   RO         8546    i.malloc            mc_w.l(malloc.o)
    0x08006a38   0x08006a38   0x0000001a   Code   RO         6921    i.mdelay            driver_timer.o
    0x08006a52   0x08006a52   0x00000002   PAD
    0x08006a54   0x08006a54   0x00000038   Code   RO         6141    i.osKernelInitialize  cmsis_os2.o
    0x08006a8c   0x08006a8c   0x00000040   Code   RO         6144    i.osKernelStart     cmsis_os2.o
    0x08006acc   0x08006acc   0x000000fc   Code   RO         8168    i.platform_task     game1.o
    0x08006bc8   0x08006bc8   0x0000005c   Code   RO         5623    i.prvAddCurrentTaskToDelayedList  tasks.o
    0x08006c24   0x08006c24   0x000000d0   Code   RO         5624    i.prvAddNewTaskToReadyList  tasks.o
    0x08006cf4   0x08006cf4   0x00000058   Code   RO         5973    i.prvCheckForValidListAndQueue  timers.o
    0x08006d4c   0x08006d4c   0x00000026   Code   RO         5194    i.prvCopyDataFromQueue  queue.o
    0x08006d72   0x08006d72   0x0000006c   Code   RO         5195    i.prvCopyDataToQueue  queue.o
    0x08006dde   0x08006dde   0x00000034   Code   RO         5625    i.prvDeleteTCB      tasks.o
    0x08006e12   0x08006e12   0x00000002   PAD
    0x08006e14   0x08006e14   0x0000004c   Code   RO         6545    i.prvHeapInit       heap_4.o
    0x08006e60   0x08006e60   0x00000060   Code   RO         5626    i.prvIdleTask       tasks.o
    0x08006ec0   0x08006ec0   0x00000016   Code   RO         5196    i.prvInitialiseMutex  queue.o
    0x08006ed6   0x08006ed6   0x00000002   PAD
    0x08006ed8   0x08006ed8   0x00000026   Code   RO         5197    i.prvInitialiseNewQueue  queue.o
    0x08006efe   0x08006efe   0x0000009c   Code   RO         5627    i.prvInitialiseNewTask  tasks.o
    0x08006f9a   0x08006f9a   0x00000002   PAD
    0x08006f9c   0x08006f9c   0x0000004c   Code   RO         6546    i.prvInsertBlockIntoFreeList  heap_4.o
    0x08006fe8   0x08006fe8   0x00000038   Code   RO         5975    i.prvInsertTimerInActiveList  timers.o
    0x08007020   0x08007020   0x0000001c   Code   RO         5198    i.prvIsQueueEmpty   queue.o
    0x0800703c   0x0800703c   0x0000006c   Code   RO         5199    i.prvNotifyQueueSetContainer  queue.o
    0x080070a8   0x080070a8   0x000000cc   Code   RO         5976    i.prvProcessReceivedCommands  timers.o
    0x08007174   0x08007174   0x000000b4   Code   RO         5977    i.prvProcessTimerOrBlockTask  timers.o
    0x08007228   0x08007228   0x00000020   Code   RO         5629    i.prvResetNextTaskUnblockTime  tasks.o
    0x08007248   0x08007248   0x00000028   Code   RO         5978    i.prvSampleTimeNow  timers.o
    0x08007270   0x08007270   0x0000006c   Code   RO         5979    i.prvSwitchTimerLists  timers.o
    0x080072dc   0x080072dc   0x00000028   Code   RO         6596    i.prvTaskExitError  port.o
    0x08007304   0x08007304   0x00000034   Code   RO         5631    i.prvTaskIsTaskSuspended  tasks.o
    0x08007338   0x08007338   0x00000014   Code   RO         5035    i.prvTestWaitCondition  event_groups.o
    0x0800734c   0x0800734c   0x00000024   Code   RO         5980    i.prvTimerTask      timers.o
    0x08007370   0x08007370   0x00000078   Code   RO         5200    i.prvUnlockQueue    queue.o
    0x080073e8   0x080073e8   0x000000d8   Code   RO         6547    i.pvPortMalloc      heap_4.o
    0x080074c0   0x080074c0   0x00000018   Code   RO         5632    i.pvTaskIncrementMutexHeldCount  tasks.o
    0x080074d8   0x080074d8   0x00000024   Code   RO         6597    i.pxPortInitialiseStack  port.o
    0x080074fc   0x080074fc   0x0000000c   Code   RO         7816    i.readPixels        draw.o
    0x08007508   0x08007508   0x00000018   Code   RO         7817    i.setBuffByte       draw.o
    0x08007520   0x08007520   0x00000016   Code   RO         7818    i.set_bits          draw.o
    0x08007536   0x08007536   0x0000004c   Code   RO         8614    i.sqrt              m_ws.l(sqrt.o)
    0x08007582   0x08007582   0x00000002   PAD
    0x08007584   0x08007584   0x00000044   Code   RO         6922    i.system_get_ns     driver_timer.o
    0x080075c8   0x080075c8   0x00000038   Code   RO         6923    i.udelay            driver_timer.o
    0x08007600   0x08007600   0x00000026   Code   RO         5154    i.uxListRemove      list.o
    0x08007626   0x08007626   0x00000002   PAD
    0x08007628   0x08007628   0x00000018   Code   RO         5640    i.uxTaskResetEventItemValue  tasks.o
    0x08007640   0x08007640   0x00000014   Code   RO         6190    i.vApplicationGetIdleTaskMemory  cmsis_os2.o
    0x08007654   0x08007654   0x00000018   Code   RO         6191    i.vApplicationGetTimerTaskMemory  cmsis_os2.o
    0x0800766c   0x0800766c   0x00000004   Code   RO         5039    i.vEventGroupSetBitsCallback  event_groups.o
    0x08007670   0x08007670   0x00000016   Code   RO         5155    i.vListInitialise   list.o
    0x08007686   0x08007686   0x00000006   Code   RO         5156    i.vListInitialiseItem  list.o
    0x0800768c   0x0800768c   0x00000030   Code   RO         5157    i.vListInsert       list.o
    0x080076bc   0x080076bc   0x00000018   Code   RO         5158    i.vListInsertEnd    list.o
    0x080076d4   0x080076d4   0x00000040   Code   RO         6599    i.vPortEnterCritical  port.o
    0x08007714   0x08007714   0x00000028   Code   RO         6600    i.vPortExitCritical  port.o
    0x0800773c   0x0800773c   0x0000005c   Code   RO         6548    i.vPortFree         heap_4.o
    0x08007798   0x08007798   0x00000024   Code   RO         6601    i.vPortSetupTimerInterrupt  port.o
    0x080077bc   0x080077bc   0x00000054   Code   RO         6602    i.vPortValidateInterruptPriority  port.o
    0x08007810   0x08007810   0x00000028   Code   RO         5206    i.vQueueAddToRegistry  queue.o
    0x08007838   0x08007838   0x00000044   Code   RO         5210    i.vQueueWaitForMessageRestricted  queue.o
    0x0800787c   0x0800787c   0x0000004c   Code   RO         5641    i.vTaskDelay        tasks.o
    0x080078c8   0x080078c8   0x00000010   Code   RO         5646    i.vTaskInternalSetTimeOutState  tasks.o
    0x080078d8   0x080078d8   0x0000000c   Code   RO         5647    i.vTaskMissedYield  tasks.o
    0x080078e4   0x080078e4   0x00000030   Code   RO         5649    i.vTaskPlaceOnEventList  tasks.o
    0x08007914   0x08007914   0x00000038   Code   RO         5650    i.vTaskPlaceOnEventListRestricted  tasks.o
    0x0800794c   0x0800794c   0x00000050   Code   RO         5651    i.vTaskPlaceOnUnorderedEventList  tasks.o
    0x0800799c   0x0800799c   0x00000090   Code   RO         5652    i.vTaskPriorityDisinheritAfterTimeout  tasks.o
    0x08007a2c   0x08007a2c   0x00000070   Code   RO         5654    i.vTaskRemoveFromUnorderedEventList  tasks.o
    0x08007a9c   0x08007a9c   0x0000007c   Code   RO         5655    i.vTaskResume       tasks.o
    0x08007b18   0x08007b18   0x00000088   Code   RO         5658    i.vTaskStartScheduler  tasks.o
    0x08007ba0   0x08007ba0   0x0000009c   Code   RO         5659    i.vTaskSuspend      tasks.o
    0x08007c3c   0x08007c3c   0x00000010   Code   RO         5660    i.vTaskSuspendAll   tasks.o
    0x08007c4c   0x08007c4c   0x00000064   Code   RO         5661    i.vTaskSwitchContext  tasks.o
    0x08007cb0   0x08007cb0   0x0000001c   Code   RO         5043    i.xEventGroupCreate  event_groups.o
    0x08007ccc   0x08007ccc   0x0000008c   Code   RO         5046    i.xEventGroupSetBits  event_groups.o
    0x08007d58   0x08007d58   0x00000010   Code   RO         5047    i.xEventGroupSetBitsFromISR  event_groups.o
    0x08007d68   0x08007d68   0x00000108   Code   RO         5049    i.xEventGroupWaitBits  event_groups.o
    0x08007e70   0x08007e70   0x000000a8   Code   RO         6603    i.xPortStartScheduler  port.o
    0x08007f18   0x08007f18   0x00000022   Code   RO         5211    i.xQueueAddToSet    queue.o
    0x08007f3a   0x08007f3a   0x00000016   Code   RO         5214    i.xQueueCreateMutex  queue.o
    0x08007f50   0x08007f50   0x00000008   Code   RO         5216    i.xQueueCreateSet   queue.o
    0x08007f58   0x08007f58   0x00000048   Code   RO         5217    i.xQueueGenericCreate  queue.o
    0x08007fa0   0x08007fa0   0x00000066   Code   RO         5218    i.xQueueGenericCreateStatic  queue.o
    0x08008006   0x08008006   0x00000002   PAD
    0x08008008   0x08008008   0x00000088   Code   RO         5219    i.xQueueGenericReset  queue.o
    0x08008090   0x08008090   0x0000016c   Code   RO         5220    i.xQueueGenericSend  queue.o
    0x080081fc   0x080081fc   0x000000ca   Code   RO         5221    i.xQueueGenericSendFromISR  queue.o
    0x080082c6   0x080082c6   0x00000002   PAD
    0x080082c8   0x080082c8   0x00000138   Code   RO         5230    i.xQueueReceive     queue.o
    0x08008400   0x08008400   0x00000012   Code   RO         5233    i.xQueueSelectFromSet  queue.o
    0x08008412   0x08008412   0x00000002   PAD
    0x08008414   0x08008414   0x00000178   Code   RO         5235    i.xQueueSemaphoreTake  queue.o
    0x0800858c   0x0800858c   0x00000074   Code   RO         5662    i.xTaskCheckForTimeOut  tasks.o
    0x08008600   0x08008600   0x0000005a   Code   RO         5663    i.xTaskCreate       tasks.o
    0x0800865a   0x0800865a   0x00000056   Code   RO         5664    i.xTaskCreateStatic  tasks.o
    0x080086b0   0x080086b0   0x0000001c   Code   RO         5668    i.xTaskGetSchedulerState  tasks.o
    0x080086cc   0x080086cc   0x0000000c   Code   RO         5669    i.xTaskGetTickCount  tasks.o
    0x080086d8   0x080086d8   0x000000c8   Code   RO         5671    i.xTaskIncrementTick  tasks.o
    0x080087a0   0x080087a0   0x00000080   Code   RO         5674    i.xTaskPriorityDisinherit  tasks.o
    0x08008820   0x08008820   0x00000078   Code   RO         5675    i.xTaskPriorityInherit  tasks.o
    0x08008898   0x08008898   0x00000070   Code   RO         5676    i.xTaskRemoveFromEventList  tasks.o
    0x08008908   0x08008908   0x000000c4   Code   RO         5677    i.xTaskResumeAll    tasks.o
    0x080089cc   0x080089cc   0x00000088   Code   RO         5678    i.xTaskResumeFromISR  tasks.o
    0x08008a54   0x08008a54   0x00000060   Code   RO         5987    i.xTimerCreateTimerTask  timers.o
    0x08008ab4   0x08008ab4   0x00000068   Code   RO         5988    i.xTimerGenericCommand  timers.o
    0x08008b1c   0x08008b1c   0x00000028   Code   RO         5994    i.xTimerPendFunctionCallFromISR  timers.o
    0x08008b44   0x08008b44   0x00000044   Code   RO         8094    i.xiugai            selecttask.o
    0x08008b88   0x08008b88   0x00000012   Data   RO         1370    .constdata          stm32f1xx_hal_rcc.o
    0x08008b9a   0x08008b9a   0x00000012   Data   RO         1462    .constdata          stm32f1xx_hal_rcc_ex.o
    0x08008bac   0x08008bac   0x00000010   Data   RO         4993    .constdata          system_stm32f1xx.o
    0x08008bbc   0x08008bbc   0x00000008   Data   RO         4994    .constdata          system_stm32f1xx.o
    0x08008bc4   0x08008bc4   0x00000007   Data   RO         7978    .constdata          resources.o
    0x08008bcb   0x08008bcb   0x000001e5   Data   RO         8000    .constdata          resources.o
    0x08008db0   0x08008db0   0x00002000   Data   RO         8025    .constdata          menuimg.o
    0x0800adb0   0x0800adb0   0x000000d0   Data   RO         8026    .constdata          menuimg.o
    0x0800ae80   0x0800ae80   0x00000024   Data   RO         8027    .constdata          menuimg.o
    0x0800aea4   0x0800aea4   0x00000024   Data   RO         8028    .constdata          menuimg.o
    0x0800aec8   0x0800aec8   0x00000040   Data   RO         8029    .constdata          menuimg.o
    0x0800af08   0x0800af08   0x00000300   Data   RO         8030    .constdata          menuimg.o
    0x0800b208   0x0800b208   0x00000180   Data   RO         8031    .constdata          menuimg.o
    0x0800b388   0x0800b388   0x0000009a   Data   RO         8032    .constdata          menuimg.o
    0x0800b422   0x0800b422   0x00000150   Data   RO         8033    .constdata          menuimg.o
    0x0800b572   0x0800b572   0x000003de   Data   RO         8034    .constdata          menuimg.o
    0x0800b950   0x0800b950   0x00000129   Data   RO         8035    .constdata          menuimg.o
    0x0800ba79   0x0800ba79   0x00000040   Data   RO         8036    .constdata          menuimg.o
    0x0800bab9   0x0800bab9   0x00000030   Data   RO         8037    .constdata          menuimg.o
    0x0800bae9   0x0800bae9   0x000000f0   Data   RO         8038    .constdata          menuimg.o
    0x0800bbd9   0x0800bbd9   0x000000c0   Data   RO         8039    .constdata          menuimg.o
    0x0800bc99   0x0800bc99   0x00000030   Data   RO         8040    .constdata          menuimg.o
    0x0800bcc9   0x0800bcc9   0x0000001d   Data   RO         8170    .constdata          game1.o
    0x0800bce6   0x0800bce6   0x00000044   Data   RO         8232    .constdata          game2.o
    0x0800bd2a   0x0800bd2a   0x00000006   PAD
    0x0800bd30   0x0800bd30   0x00000050   Data   RO         8254    .constdata          m_ws.l(acos.o)
    0x0800bd80   0x0800bd80   0x00000020   Data   RO         8668    Region$$Table       anon$$obj.o


    Execution Region RW_IRAM1 (Exec base: 0x20000000, Load base: 0x0800bda0, Size: 0x000048d0, Max: 0x00005000, ABSOLUTE, COMPRESSED[0x00000020])

    Exec Addr    Load Addr    Size         Type   Attr      Idx    E Section Name        Object

    0x20000000   COMPRESSED   0x00000034   Data   RW          258    .data               freertos.o
    0x20000034   COMPRESSED   0x0000000c   Data   RW         1207    .data               stm32f1xx_hal.o
    0x20000040   COMPRESSED   0x00000004   Data   RW         4995    .data               system_stm32f1xx.o
    0x20000044   COMPRESSED   0x0000003c   Data   RW         5680    .data               tasks.o
    0x20000080   COMPRESSED   0x00000014   Data   RW         5996    .data               timers.o
    0x20000094   COMPRESSED   0x00000004   Data   RW         6193    .data               cmsis_os2.o
    0x20000098   COMPRESSED   0x00000018   Data   RW         6553    .data               heap_4.o
    0x200000b0   COMPRESSED   0x0000000c   Data   RW         6604    .data               port.o
    0x200000bc   COMPRESSED   0x00000008   Data   RW         6733    .data               driver_oled.o
    0x200000c4   COMPRESSED   0x0000000c   Data   RW         6843    .data               driver_mpu6050.o
    0x200000d0   COMPRESSED   0x00000018   Data   RW         7305    .data               driver_ir_receiver.o
    0x200000e8   COMPRESSED   0x00000018   Data   RW         7605    .data               driver_rotary_encoder.o
    0x20000100   COMPRESSED   0x00000010   Data   RW         7819    .data               draw.o
    0x20000110   COMPRESSED   0x00000024   Data   RW         7900    .data               menu.o
    0x20000134   COMPRESSED   0x0000001c   Data   RW         8055    .data               readdata.o
    0x20000150   COMPRESSED   0x00000010   Data   RW         8095    .data               selecttask.o
    0x20000160   COMPRESSED   0x0000000a   Data   RW         8140    .data               settime.o
    0x2000016a   COMPRESSED   0x00000002   PAD
    0x2000016c   COMPRESSED   0x00000008   Data   RW         8141    .data               settime.o
    0x20000174   COMPRESSED   0x00000020   Data   RW         8171    .data               game1.o
    0x20000194   COMPRESSED   0x0000001c   Data   RW         8233    .data               game2.o
    0x200001b0   COMPRESSED   0x00000004   Data   RW         8270    .data               mc_w.l(rand.o)
    0x200001b4   COMPRESSED   0x00000004   Data   RW         8642    .data               mc_w.l(mvars.o)
    0x200001b8   COMPRESSED   0x00000004   Data   RW         8643    .data               mc_w.l(mvars.o)
    0x200001bc   COMPRESSED   0x00000004   Data   RW         8647    .data               mc_w.l(errno.o)
    0x200001c0        -       0x00000030   Zero   RW          404    .bss                adc.o
    0x200001f0        -       0x00000054   Zero   RW          446    .bss                i2c.o
    0x20000244        -       0x00000014   Zero   RW          488    .bss                rtc.o
    0x20000258        -       0x00000058   Zero   RW          530    .bss                spi.o
    0x200002b0        -       0x000000d8   Zero   RW          577    .bss                tim.o
    0x20000388        -       0x00000048   Zero   RW          644    .bss                usart.o
    0x200003d0        -       0x000002f0   Zero   RW          686    .bss                usb.o
    0x200006c0        -       0x00000048   Zero   RW          834    .bss                stm32f1xx_hal_timebase_tim.o
    0x20000708        -       0x00000040   Zero   RW         5237    .bss                queue.o
    0x20000748        -       0x000004c4   Zero   RW         5679    .bss                tasks.o
    0x20000c0c        -       0x0000011c   Zero   RW         5995    .bss                timers.o
    0x20000d28        -       0x000006b8   Zero   RW         6192    .bss                cmsis_os2.o
    0x200013e0        -       0x00002800   Zero   RW         6552    .bss                heap_4.o
    0x20003be0        -       0x00000400   Zero   RW         6731    .bss                driver_oled.o
    0x20003fe0        -       0x000002a0   Zero   RW         7302    .bss                driver_ir_receiver.o
    0x20004280        -       0x00000014   Zero   RW         7899    .bss                menu.o
    0x20004294        -       0x00000028   Zero   RW         8054    .bss                readdata.o
    0x200042bc        -       0x00000010   Zero   RW         8169    .bss                game1.o
    0x200042cc   COMPRESSED   0x00000004   PAD
    0x200042d0        -       0x00000200   Zero   RW            2    HEAP                startup_stm32f103xb.o
    0x200044d0        -       0x00000400   Zero   RW            1    STACK               startup_stm32f103xb.o


==============================================================================

Image component sizes


      Code (inc. data)   RO Data    RW Data    ZI Data      Debug   Object Name

       168         22          0          0         48       1677   adc.o
       164         22          0          4       1720      12318   cmsis_os2.o
       816         24          0         16          0       9402   draw.o
       568         72          0         24        672       4985   driver_ir_receiver.o
        30          0          0          0          0        545   driver_irq.o
        20          0          0          0          0       2922   driver_lcd.o
       762         42          0         12          0       7618   driver_mpu6050.o
       542         40          0          8       1024       8891   driver_oled.o
       188         28          0         24          0       4208   driver_rotary_encoder.o
       150         14          0          0          0       2434   driver_timer.o
       472          8          0          0          0      24852   event_groups.o
       512        204          0         52          0      19306   freertos.o
      1308         74         29         32         16       5155   game1.o
       260         18         68         28          0       2447   game2.o
       352         26          0          0          0       1075   gpio.o
       460         24          0         24      10240       4719   heap_4.o
       156         26          0          0         84       1665   i2c.o
       138          0          0          0          0       3446   list.o
       222          6          0          0          0     488044   main.o
      3668        162          0         36         20       5788   menu.o
         0          0      12057          0          0       1353   menuimg.o
       662         70          0         12          0      10909   port.o
      2216         22          0          0         64      21489   queue.o
       396         32          0         28         40       3963   readdata.o
         0          0        492          0          0       2477   resources.o
       388         24          0          0         20       1843   rtc.o
       792        106          0         16          0       4376   selecttask.o
       444         32          0         18          0       1227   settime.o
       184         24          0          0         88       1689   spi.o
        36          8        236          0       1536        812   startup_stm32f103xb.o
        64         14          0         12          0       4694   stm32f1xx_hal.o
       622         24          0          0          0       3332   stm32f1xx_hal_adc.o
       158         14          0          0          0      28230   stm32f1xx_hal_cortex.o
       524         40          0          0          0       4154   stm32f1xx_hal_gpio.o
      2826         72          0          0          0      15088   stm32f1xx_hal_i2c.o
        72         10          0          0          0        890   stm32f1xx_hal_msp.o
       218          0          0          0          0       1524   stm32f1xx_hal_pcd.o
        12          4          0          0          0        523   stm32f1xx_hal_pwr.o
      1304         94         18          0          0       5797   stm32f1xx_hal_rcc.o
       400         28         18          0          0       2497   stm32f1xx_hal_rcc_ex.o
      1688         26          0          0          0      14524   stm32f1xx_hal_rtc.o
        32         10          0          0          0       1659   stm32f1xx_hal_rtc_ex.o
       178          0          0          0          0       1251   stm32f1xx_hal_spi.o
      1596         46          0          0          0      14272   stm32f1xx_hal_tim.o
       192         12          0          0          0       3233   stm32f1xx_hal_tim_ex.o
       152         20          0          0         72       1503   stm32f1xx_hal_timebase_tim.o
       284          6          0          0          0       1960   stm32f1xx_hal_uart.o
        72         12          0          0          0       4478   stm32f1xx_it.o
        44          0          0          0          0       3396   stm32f1xx_ll_usb.o
         0          0          0          0          0       8888   stream_buffer.o
         2          0         24          4          0       1143   system_stm32f1xx.o
      3036        254          0         60       1220      32052   tasks.o
       852         68          0          0        216       4616   tim.o
       952         88          0         20        284      26923   timers.o
       168         20          0          0         72       1710   usart.o
        92         20          0          0        752       1562   usb.o

    ----------------------------------------------------------------------
     31670       2012      12980        432      18192     851534   Object Totals
         0          0         32          0          0          0   (incl. Generated)
        56          0          6          2          4          0   (incl. Padding)

    ----------------------------------------------------------------------

      Code (inc. data)   RO Data    RW Data    ZI Data      Debug   Library Member Name

       636         62         80          0          0        188   acos.o
        18          0          0          0          0        136   dunder.o
       170          0          0          0          0         96   poly.o
        76          0          0          0          0         84   sqrt.o
        58          0          0          0          0          0   __dczerorl.o
         0          0          0          0          0          0   entry.o
         0          0          0          0          0          0   entry10a.o
         0          0          0          0          0          0   entry11a.o
         8          4          0          0          0          0   entry2.o
         4          0          0          0          0          0   entry5.o
         0          0          0          0          0          0   entry7b.o
         0          0          0          0          0          0   entry8b.o
         8          4          0          0          0          0   entry9a.o
        12          6          0          4          0         68   errno.o
        30          0          0          0          0          0   handlers.o
        36          8          0          0          0         68   init.o
         0          0          0          0          0          0   iusefp.o
        30          0          0          0          0         68   llshl.o
        36          0          0          0          0         68   llsshr.o
        32          0          0          0          0         68   llushr.o
       188         20          0          0          0        160   malloc.o
        36          0          0          0          0         68   memcpya.o
        36          0          0          0          0        108   memseta.o
         0          0          0          8          0          0   mvars.o
       490         10          0          0          0        252   printf3.o
        36         10          0          4          0        136   rand.o
        18          0          0          0          0         68   strcpy.o
        14          0          0          0          0         68   strlen.o
        44          0          0          0          0         80   uidiv.o
        98          0          0          0          0         92   uldiv.o
        20          0          0          0          0         68   cfcmple.o
        20          0          0          0          0         68   cfrcmple.o
       334          0          0          0          0        148   dadd.o
       222          0          0          0          0        100   ddiv.o
       186          0          0          0          0        176   depilogue.o
        62          0          0          0          0         80   dfixi.o
        34          0          0          0          0         76   dflti.o
       228          0          0          0          0         96   dmul.o
        46          0          0          0          0         80   dscalb.o
       162          0          0          0          0        100   dsqrt.o
       176          0          0          0          0        140   fadd.o
       110          0          0          0          0        168   fepilogue.o
        40          0          0          0          0         68   ffixui.o
        18          0          0          0          0         68   fflti.o
        10          0          0          0          0         68   ffltui.o
        24          0          0          0          0         68   fscalb.o

    ----------------------------------------------------------------------
      3814        124         80         16          0       3448   Library Totals
         8          0          0          0          0          0   (incl. Padding)

    ----------------------------------------------------------------------

      Code (inc. data)   RO Data    RW Data    ZI Data      Debug   Library Name

       900         62         80          0          0        504   m_ws.l
      1214         62          0         16          0       1372   mc_w.l
      1692          0          0          0          0       1572   mf_w.l

    ----------------------------------------------------------------------
      3814        124         80         16          0       3448   Library Totals

    ----------------------------------------------------------------------

==============================================================================


      Code (inc. data)   RO Data    RW Data    ZI Data      Debug   

     35484       2136      13060        448      18192     838834   Grand Totals
     35484       2136      13060         32      18192     838834   ELF Image Totals (compressed)
     35484       2136      13060         32          0          0   ROM Totals

==============================================================================

    Total RO  Size (Code + RO Data)                48544 (  47.41kB)
    Total RW  Size (RW Data + ZI Data)             18640 (  18.20kB)
    Total ROM Size (Code + RO Data + RW Data)      48576 (  47.44kB)

==============================================================================

