:020000040800F2
:10000000D0480020990100086D4D0008F93500081E
:10001000A54B0008451200081D5C00080000000008
:1000200000000000000000000000000001010008C6
:100030004712000800000000450100085958000858
:10004000B3010008B3010008B3010008B3010008C0
:10005000B3010008B3010008B3010008B3010008B0
:10006000B3010008B3010008B3010008B3010008A0
:10007000B3010008B3010008B3010008B301000890
:10008000B3010008B3010008B3010008B301000880
:10009000B3010008B3010008B3010008931200087F
:1000A000B3010008B3010008B3010008B301000860
:1000B000B3010008B301000811590008B30100089A
:1000C000B3010008B3010008B3010008B301000840
:1000D000B3010008B3010008B3010008B301000830
:1000E0007512000855500008B3010008DFF80CD065
:1000F00000F020FC004800478D690008D04800202F
:10010000224B19680868B0E8F00F80F30988BFF344
:100110006F8F4FF0000080F311884EF00D0E704786
:100120000000000006480068006880F3088862B696
:1001300061B6BFF34F8FBFF36F8F00DF00BF00BF0B
:1001400008ED00E0EFF30980BFF36F8F0F4B1A68E3
:1001500020E9F00F106008B54FF0500080F31188CF
:10016000BFF34F8FBFF36F8F07F070FD4FF00000AC
:1001700080F31188BDE8084019680868B0E8F00FFE
:1001800080F30988BFF36F8F704700BF44000020E1
:10019000EFF3058070470000064880470648004797
:1001A000FEE7FEE7FEE7FEE7FEE7FEE7FEE7FEE727
:1001B000FEE7FEE70D590008ED0000082DE9F05FAD
:1001C0000546002092469B468846064681464024C6
:1001D0001BE0284641464746224600F020F8534699
:1001E0005A46C01A914110D311461846224600F0D3
:1001F0007DFA2D1A67EB01084F46224601200021A7
:1002000000F074FA17EB00094E41201EA4F101041E
:10021000DFDC484631462A464346BDE8F09F202AA7
:1002200004DB203A21FA02F00021704721FA02F3A0
:10023000D040C2F1200291400843194670470000A7
:100240000649074A0868504343F2390210440860DF
:10025000400870470149086070470000B001002065
:100260006D4EC64140EA01039B0703D009E008C96F
:10027000121F08C0042AFAD203E011F8013B00F86B
:10028000013B521EF9D27047D2B201E000F8012BB7
:10029000491EFBD270470022F6E710B513460A4606
:1002A00004461946FFF7F0FF204610BD421C10F827
:1002B000011B0029FBD1801A7047034611F8012B5E
:1002C00000F8012B002AF9D118467047F0B480EAF3
:1002D0000102D40F4200B2EB410F02D2024608469F
:1002E00011464A0042D0C30DDDB2C1F3C752AD1A68
:1002F000202D35DAC1F3160141F4000204B1524257
:10030000C5F1200602FA06F12A411044B3EBD05F92
:1003100023D0C4B1012DA0EBC35009DCF0BC4FF0D9
:10032000004202EAC352DBB200F5000000F008BA56
:10033000400000F1807000EBC350A0F1807040EAF3
:10034000D170490009E0490841EAC071A0EBC350EF
:1003500000F50000400800EBC350F0BC00F0E7B926
:100360006142012202EB4101001BF6E7F0BC70473D
:1003700081F00041AAE780F00040A7E7420005D0E5
:10038000C0F3C7525242914201DC0020704700EB9B
:10039000C15070472DE9FE4F804681EA0300C00F2F
:1003A0000C46009021F0004123F00045B8EB02001C
:1003B000A94105D24046214690461C460B460246BE
:1003C00023F00040104347D0270DC7F30A00C3F3C2
:1003D0000A510290401A019040286BDAC3F31300CF
:1003E00040F4801B0098924620B10023D2EB030A10
:1003F00063EB0B0B01985946C0F14002504600F0E8
:1004000075F906460D4650465946019A00F07DF9A9
:1004100010EB08006141002487EA115284EAE77377
:100420001A4340D0009A62B3019A012A4FEA075258
:1004300015DC001B61EB02014FF0004202EA07529B
:10044000CDE90042001C41F5801132462B4600F0F8
:10045000B4F903B0BDE8F08F40462146F9E7001B30
:1004600061EB0201001C41F5801300185B4120186C
:10047000A2F5001747EB030140EAD570B6196D41AC
:1004800011E06D084FEA360645EAC0754FEA07529B
:10049000001B61EB0201001C41F5801149084FEA85
:1004A00030000019514132462B4603B0BDE8F04FF1
:1004B00000F074B90098012240000023D0EB020242
:1004C00063EBE073009821464FEAE074B8EB00005C
:1004D00061EB0401E9E783F000435BE781F0004151
:1004E00058E72DE9FE4F81EA030404F0004421F0AF
:1004F000004100944FF0000B23F0004350EA010448
:100500005ED052EA03045BD0C3F30A54C1F30A5528
:100510002C44A4F2F3340194A0FB0254C1F3130160
:1005200041F48011C3F3130343F4801301FB02442D
:1005300000FB034E840A970A44EA815447EA835732
:10054000A4FB076802958D0A05FB07854FEA932CEB
:1005500004FB0C542705029D4FEA065847EA16375C
:10056000B5EB08056EEB070C870E920E47EA811774
:1005700042EA8312A7FB0201B6EB0B0164EB000415
:100580002B0D43EA0C335E1844EB1C50DA465146FF
:10059000E7FB0201C5F313044FEA0B3343EA14539C
:1005A0004FEA0432019C43EA0603A4F10C040294CE
:1005B000009CCDE900B400F000F903B0BDE8F08F75
:1005C00000200146F9E770B521F0004303430CD049
:1005D000C1F30A550024D5EB040564EB0403D617D8
:1005E000AD1AB34102DB0020014670BD201841EB7B
:1005F000025170BDC10F80EAE0700844CA0796231B
:10060000002100F09DB896230022114600F098B812
:100610000EB5C10F80EAE0700844CA07002140F21D
:1006200033438DE80E000A460B4600F0C6F803B0CF
:1006300000BD20F00040C10DC0F3160040F40000E2
:100640007F2901DA00207047962903DCC1F1960169
:10065000C840704796398840704770B5C1F30A5258
:1006600001F000450024C1F3130140F2FF3341F4CF
:1006700080119A4201DA002070BD40F233439A4261
:10068000A2F2334203DC5242FFF7C9FD00E0904082
:100690002C43F1D0404270BD002801DBC0F1004086
:1006A000002901DBC1F1004181427047002801DBD4
:1006B000C0F10040002901DBC1F1004188427047D0
:1006C00030B50B46014600202022012409E021FA22
:1006D00002F59D4205D303FA02F5491B04FA02F51F
:1006E0002844151EA2F10102F1DC30BD202A04DBF2
:1006F000203A00FA02F1002070479140C2F1200335
:1007000020FA03F3194390407047202A06DBCB17E9
:10071000203A41FA02F043EAE07306E041FA02F3BC
:10072000D040C2F120029140084319467047002989
:10073000A8BF7047401C490008BF20F00100704767
:1007400010B4B0FA80FC00FA0CF050EA010404BFC7
:1007500010BC704749B1CCF1200421FA04F411FA1D
:100760000CF118BF012121430843A3EB0C01CB1D61
:100770004FEA00614FEA102042BF002010BC7047D2
:1007800000EBC35010440029A4BF10BC7047401CAC
:10079000490008BF20F0010010BC704710B5141EBE
:1007A00073F1000408DA401C41F1000192185B412A
:1007B0001A4301D120F0010010BD2DE9F04D924601
:1007C0009B4611B1B1FA81F202E0B0FA80F2203218
:1007D0009046FFF78BFF04460F4640EA0A0041EAC5
:1007E0000B0153465A46084313D0114653EA010001
:1007F00019D0C8F140025046FFF711FD05460E46DC
:10080000504659464246FFF771FF084305D0012084
:1008100004E020463946BDE8F08D0020054346EA55
:10082000E0762C4337430A986305E40AA0EB0800FE
:100830000022FD0A44EA47540A3002D5002001464E
:10084000E9E7010510196941DDE908450019694129
:10085000BDE8F04DA2E72DE9F04D81EA030404F074
:10086000004B21F0004514464FF0000A23F00041F0
:1008700050EA050220D054EA01021DD0C5F30A5700
:100880000246C5F31303C1F31300C1F30A5640F443
:10089000801543F48013A7EB0608101BD64608F218
:1008A000FD3873EB050002D308F1010801E092184E
:1008B0005B41B8F1000F03DA00200146BDE8F08D7E
:1008C00000204FF48011064684460EE0171B73EBA0
:1008D000050705D3121B63EB050306434CEA010C25
:1008E00049084FEA300092185B4150EA0107EDD108
:1008F00052EA030012D082EA040083EA05010843A9
:1009000005D0101BAB4106D20122002306E00022D5
:100910004FF0004302E06FF0010253101AEB0600A3
:100920004CEB085110EB0A0041EB0B01BDE8F04D18
:10093000FFF734BF064C074D06E0E06840F00103C6
:1009400094E8070098471034AC42F6D3FFF7D2FB87
:1009500080BD0008A0BD00082DE9F04D00231A4617
:100960001B1A8A4103DB00200146BDE8F08DC1F36C
:100970000A52C1F3130141F480154FF0000BD10767
:1009800002D100186D41521E0027044640F2FF11AB
:10099000384601EB620A3E468046024600204FF48C
:1009A0008011FFF73CFCC2197141BB1846EB0100F6
:1009B000B4EB030C75EB000C04D3E41A65EB0005F3
:1009C00017460E46241908F101006D41804634286F
:1009D000E3DDF91946EB0600091BA84103D24FF0ED
:1009E000FF32134601E0002213461BEB070046EBE3
:1009F0000A51BDE8F04DFFF7D1BE30B58C1810F8A4
:100A0000012B12F00F0301D110F8013B120906D19E
:100A100010F8012B03E010F8015B01F8015B5B1E8D
:100A2000F9D101E001F8013B521EFBD1A142E6D30E
:100A3000002030BD70B5044600688168C943C9070D
:100A400017D1816821F00101816000F03DFF05466A
:100A50000AE000BF00F038FF401B022804D92068DC
:100A60008068C043C00706D020688068C043C007C4
:100A7000F0D0002070BDA06A40F01000A062E06AD3
:100A800040F00100E062012070BD00001C4E002417
:100A9000CCB04FF490780C254FF4FA77307928B920
:100AA00003F036F903F02CF901203071414603A818
:100AB000FFF7F1FBCDE900541823124A34216820D6
:100AC000029405F065FB0C2318223421682005F000
:100AD00049FC384606F0D2FECDE90054182303AA9B
:100AE00034216820029405F053FB0C231822342192
:100AF000682005F037FC384606F0C0FECEE700005F
:100B000010010020B9BA0008DFF800A48AB00AF189
:100B10001C000890FE480790FE48DFF8FC93DFF8C1
:100B2000FCB34FF00E080690FD48002400F1500180
:100B3000A030CDE904010AF18C000390F94DA878AA
:100B400028B903F0E5F803F0DBF80120A870CDE93F
:100B5000008446460723029400210820089A05F0E5
:100B600017FB0E2307220021082005F0FBFBCDE92F
:100B700000640723E54A00210F20029405F008FBDA
:100B80000E23072200210F2005F0ECFB99F803004B
:100B90000A25B0FBF5F0C0EBC001CDE900640AEB1B
:100BA00041024F46072300211620029405F0F0FA77
:100BB0000E2307220021162005F0D4FBF878CDE99A
:100BC0000064B0FBF5F105FB1100D049C0EBC0009B
:100BD00001EB4002072300211D20029405F0D8FA02
:100BE0000E23072200211D2005F0BCFBCDE9006487
:100BF0000723029400212420039A05F0C9FA0E234A
:100C000007220021242005F0ADFB7878BF49B0FB16
:100C1000F5F0C0EBC00001EB4002CDE90064072312
:100C200000212C20029405F0B3FA0E2307220021A4
:100C30002C2005F097FB7878CDE90064B0FBF5F146
:100C400005FB1100B149C0EBC00001EB40020723D6
:100C500000213320029405F09BFA0E230722002185
:100C6000332005F07FFBCDE90064072302940021C7
:100C70003A20039A05F08CFA0E23072200213A202D
:100C800005F070FBB878A149B0FBF5F0C0EBC000EF
:100C900001EB4002CDE900640723002142200294C9
:100CA00005F076FA0E2307220021422005F05AFBB8
:100CB000B878CDE90064B0FBF5F105FB110093496C
:100CC000C0EBC00001EB4002072300214920029441
:100CD00005F05EFA0E2307220021492005F042FBB1
:100CE000CDE9006402943878182300EB40018E4867
:100CF00000EB01120021602005F04AFA0E231822B1
:100D00000021602005F02EFB9BF800002426B0FB9C
:100D1000F5F0C0EB001000EB40018448CDE9006421
:100D200000EB410212230E210520029405F030FA57
:100D3000242312220E21052005F014FB77481223EC
:100D40000078CDE90064B0FBF5F105FB1100C0EBC4
:100D50000010764900EB400001EB40020E21172005
:100D6000029405F015FA242312220E21172005F013
:100D7000F9FACDE90064029412230E212920079A82
:100D800005F006FA242312220E21292005F0EAFAA2
:100D90006248664912234078CDE90064B0FBF5F063
:100DA000C0EB001000EB400001EB40020E213B20A5
:100DB000029405F0EDF9242312220E213B2005F0C8
:100DC000D1FA564812234078CDE90064B0FBF5F122
:100DD00005FB1100C0EB0010544900EB400001EB93
:100DE00040020E214D20029405F0D2F92423122254
:100DF0000E214D2005F0B6FA1427CDE90074092321
:100E000002941E215F20069A05F0C2F914230922DC
:100E10001E215F2005F0A6FA4048454E0923807840
:100E2000CDE90074B0FBF5F000EBC00000EB400032
:100E300082191E216820029405F0AAF914230922C0
:100E40001E21682005F08EFA344809238078CDE908
:100E50000074B0FBF5F105FB110000EBC00000EBE6
:100E6000400082191E217120029405F091F914238B
:100E700009221E21712005F075FA0C25CDE90054D8
:100E80002823274A34210020029405F081F90C23FD
:100E900028223421002005F065FACDE900542823EA
:100EA000029434212C20059A05F072F90C23282293
:100EB00034212C2005F056FACDE900542823029461
:100EC00034215820049A05F063F90C232822342198
:100ED000582005F047FA4FF4FA7006F0CFFC154899
:100EE00000780A287DD2DFE800F0054F8ABCD2FDE9
:100EF000FCFBFAF999F803000A26B0FBF6F0C0EB08
:100F0000C0004D4657460AEB400215E088B3000882
:100F1000F6B800085EBA00086601002063010020F0
:100F2000E9BA00081001002022B4000872B50008D8
:100F300050B90008620100200120CDF80080CDE901
:100F4000010407230021162005F022F90E230722B1
:100F50000021162005F006FAE878CDF80080B0FBF5
:100F6000F6F106FB11000121CDE90114C0EBC00030
:100F700007EB4002072300211D2005F009F90E238D
:100F8000072200211D2033E099F801000A27B0FB59
:100F9000F7F0C0EBC0000AEB40020120CDF8008062
:100FA000CDE901044D465646072300212C2005F0CB
:100FB000EFF80E23072200212C2005F0D3F96878E2
:100FC000CDF80080B0FBF7F107FB1100C0EBC000CB
:100FD00006EB40020120CDE9010407230021332064
:100FE00000E007E005F0D4F80E23072200213320AB
:100FF00005F0B8F94FF4FA7006F040FC9EE599F858
:1010000002100A20B1FBF0F0C0EBC0010126CDF8C0
:101010000080CDE901640AEB41024D4647460723B3
:101020000021422005F0B4F80E23072200214220BF
:1010300005F098F9A9780A20B1FBF0F200FB121034
:10104000C0EBC0010097CDE901640AEB4102072320
:101050000021492005F09CF80E2307220021492099
:10106000C6E70120CDF80080CDE9010499F8000021
:10107000182300EB4001704800EB011200216020B2
:1010800005F086F80E23182200216020B0E79BF8B7
:1010900000000A26B0FBF6F0C0EB001000EB4001A8
:1010A0006648012700EB41022420CDE900075D4698
:1010B00012230E210294052005F06AF8242312223F
:1010C0000E21052005F04EF92878B0FBF6F106FB5D
:1010D0001100C0EB001000EB400104E09DE08DE04A
:1010E0007DE048E010E05548122300EB4102242047
:1010F000CDE900070E210294172005F049F82423BA
:1011000012220E21172073E79BF801000A26B0FB7C
:10111000F6F0C0EB001000EB40014848012700EB5F
:1011200041022420CDE900075D4612230E210294DE
:101130003B2005F02DF8242312220E213B2005F040
:1011400011F968781223B0FBF6F106FB1100C0EB31
:10115000001000EB40013948029400EB41022420CA
:10116000CDE900070E214D2005F012F824231222AC
:101170000E214D203CE79BF802000A25B0FBF5F05C
:1011800000EBC00000EB4000821901201421CDE9E2
:1011900000105F46092302941E21682004F0F8FF26
:1011A000142309221E21682005F0DCF8B8780923F1
:1011B000B0FBF5F105FB110000EBC00000EB4000B7
:1011C000821901201421CDE9001002941E21712002
:1011D00004F0DEFF142309221E21712008E70120FC
:1011E0000095CDE901042823154A3421002004F09C
:1011F000CFFF0C23282234210020F9E6012000959E
:10120000CDE90104282334212C20059A04F0C0FFE5
:101210000C23282234212C20EAE601200095CDE978
:101220000104282334215820049A04F0B1FF0C2330
:10123000282234215820DBE622B4000872B50008C9
:10124000E9BA0008FEE77047F1B50024074E084DE3
:1012500008E000BF002356F824001A46694606F04D
:1012600017FF641C68688442F4DBF8BD94420020D8
:101270003401002010B54FF4806000F01FFA4FF4E5
:10128000006000F01BFABDE810404FF4805000F001
:1012900015BA202000F012BA72B6FEE7E4B04FF49F
:1012A000C07103A8FEF7F7FFDFF8DC8010260127E6
:1012B000364C4FF0FF390025E07820B902F028FDC8
:1012C00002F01EFDE770CDE900652F4A00213023B2
:1012D000603A0846029504F05BFF0021102330229B
:1012E000084605F03FF8CDE900653023424610215D
:1012F0000020029504F04CFF1023302219460020F4
:1013000005F030F8CDE900650295E0791823000773
:10131000010E1F4A302004F03BFFE0791023000744
:10132000010E1822302005F01DF818494A46491DC3
:10133000E06906F0C9FF0128BED1CDE9006502953C
:10134000E07918230007010E03AA302004F020FFE3
:10135000E07910230007010E1822302005F002F872
:101360006079062807D00728A6D1E079012808D09F
:10137000401CE071A0E7E07908B1401EF9E7E77191
:101380009AE7E57198E7000039BC000810010020D9
:1013900099BC000870B5154A111F081F02F0B6FC71
:1013A000124C0026183CE061A67020694008FFF747
:1013B0002AF90F4D286060690A38FFF724F9686040
:1013C0004FF03F40A8600B48E860A02006F00CF802
:1013D000A021E060FEF75FFF03202071E0706681CE
:1013E000208AFA2101EB5000607170BD8C01002051
:1013F000BC4200209A9919BF02484FF0FF31006BA0
:1014000007F008B8000000200148C06870470000DD
:10141000D00000200148406870470000C400002050
:101420000148C06870470000E8000020F8B50024BB
:10143000009490F824202546012A12D0012280F839
:1014400024204A681F23072A0DD20668776B521E94
:1014500002EB820293409F430B6893401F437763E4
:1014600019E00220F8BD06680D2A0AD2376BD21F98
:1014700002EB820293409F430B6893401F43376304
:1014800009E0F76A0D3A02EB820293409F430B6832
:1014900093401F43F7620A68072306680A2A0AD3A3
:1014A000F7680A3A02EB420293409F438B689340ED
:1014B0001F43F76008E0376902EB420293409F4305
:1014C0008B6893401F4337610A68102A01D0112AA4
:1014D00020D1124B02689A4217D193681B0219D48B
:1014E000936843F4000393600968102912D10C49F2
:1014F0000C4A0968B1FBF2F101EB8101490000E0FF
:10150000491E00910029FBD104E0816A41F02001CD
:101510008162012480F824502046F8BD0024014057
:101520004000002040420F002DE9F0414FF000073D
:1015300004003D467ED0A06A002628B9E66284F801
:101540002460204600F07EF82046FFF773FAA16A77
:10155000C90600D420B1A06A40F01000A06269E082
:10156000A16A21F4885141F00201A1626268E16937
:10157000237B0A4347EA43010A43A1684FF480777B
:10158000B94209D0012907D05FF0000194F814C0D6
:10159000BCF1010F02D00AE03946F7E7F3B1A36AC4
:1015A00043F02003A362E36A43F00103E36223688C
:1015B000D3F804C02CF4694C4CEA010CC3F804C005
:1015C00021688B68DFF870C003EA0C0313438B605B
:1015D000A168B9420BD0012909D00CE0DFF85CC04A
:1015E000A3690CEB43330B4343F40061DFE7218A2B
:1015F0000D05A5F580152168CB6A23F470032B43F4
:10160000CB62216889680E4B1940914208D1E6628D
:10161000A16A21F0020141F00101A162BDE8F0815F
:10162000A06A20F0020040F01000A062E06A40F0E2
:101630000100E0620120F1E7FDF7E1FF00E0FFFFBC
:10164000FE0E1FFF00B585B00021009101910291AF
:10165000039100680E49884218D10E48816941F40F
:1016600000718161816901F400710491816941F027
:10167000040181618069694600F00400049008203B
:10168000009003200190044800F024F805B000BD4C
:10169000002401400010024000080140202807D02B
:1016A000B0F5806F06D0B0F5805F05D103F03ABE8B
:1016B00002F030BB02F0B0BA70470000044910B528
:1016C0000A68024202D00860FFF7E8FF10BD000080
:1016D000140401402DE9F84FDFF8B8910024A9F176
:1016E000040B23460F2709F1040AABF1040EC9E0ED
:1016F0000125A5402A40AA427DD1674ED1F804C0F9
:10170000ACEB0608B44532D014DCBCF1030F3AD080
:1017100009DCBCF1000F2AD0BCF1010F1CD0BCF1D8
:10172000020F31D11DE0BCF1110F17D0BCF1120F27
:101730002AD119E0B8F5881F19D006DCB8F5803F2A
:1017400015D0B8F5801F1FD111E0B8F5001F0ED0DD
:10175000B8F5041F18D10AE0CB6815E0CB681B1D53
:1017600012E0CB6808330FE0CB680C330CE08B68D9
:101770002BB1012B4FF0080303D0456104E0042393
:1017800002E0056100E00023FF2A01D8064601E0DF
:1017900000F104064FEA840501D9A5F12005D6F829
:1017A000008007FA05FC28EA0C0803FA05F548EA68
:1017B0000508C6F800804D68ED0062D5374DAE696A
:1017C00046F00106AE61AD6924F0030605F001059F
:1017D0000095334D06EB050CDCF80850A607360FD4
:1017E00007FA06F825EA0805DFF8B880404503D176
:1017F0004FF0000817E044E0DFF8AC80404502D12C
:101800004FF001080FE0DFF8A480404502D14FF00F
:10181000020808E0DFF89880404502D14FF0030845
:1018200001E04FF0040808FA06F848EA0508CCF889
:1018300008804D68D9F80060ED024D4601D5164389
:1018400000E096432E604D68DAF80060AD02554620
:1018500001D5164300E096432E604D68DBF800602A
:10186000AD035D4601D5164300E096432E604D68FA
:10187000DEF80060ED03754601D5164300E096439F
:101880002E60641C0D682A46E5407FF431AFBDE848
:10189000F88F000008040140000011100010024001
:1018A0000000014000080140000C01400010014010
:1018B000001401408068084000D0012070470AB140
:1018C000016170470904FBE7014880687047000028
:1018D0003400002070B5040025D094F83D000025A8
:1018E00020B984F83C50204600F00EFB242084F8F8
:1018F0003D002068016821F0010101602068016855
:1019000041F4004101602068016821F40041016058
:1019100000F0F8FD4D4A6168914201D84C4900E061
:101920004C49884201D2012070BD4B492368B0FB6D
:10193000F1F15E6826F03F060E435E6063689342F5
:1019400006D94FF4967359434FF47A73B1FBF3F110
:101950002368491C1E6A26F03F06314319626168FC
:10196000914210D84900401EB0FBF1F2521CC2F364
:101970000B02042A01D2042022E0B0FBF1F0401C4B
:10198000C0F30B001CE0A268F2B301EBC10303EB50
:101990000116431EB3FBF6F35B1C43F480431B05A7
:1019A00049D092B301EBC10202EB0111401EB0FB22
:1019B000F1F0401CC0F30B0040F4804040F40040C4
:1019C0002168CA694CF6FF739A431043C861D4E991
:1019D000071001432068026822F0C0021143016031
:1019E000D4E9030101432068826848F2FF339A4337
:1019F00011438160D4E9050108432168CA6822F0D7
:101A0000FF021043C86001E00EE016E020680168A4
:101A100041F0010101602564202084F83D00256328
:101A200084F83E50002070BD01EB4106431EB3FB1D
:101A3000F6F35B1CB3E70120C2E701EB4101401E56
:101A4000B0FBF1F0401CC0F30B00B7E7A08601002B
:101A500080841E0000093D0040420F002DE9F84F30
:101A60001F4690468A460446DDF82890FFF72CFF73
:101A7000054694F83D0020287FD1192301224049D2
:101A80002046009501F01CFF002876D194F83C0018
:101A9000012872D0012084F83C0020680168C90741
:101AA00003D1016841F0010101602068016821F45F
:101AB00000610160212084F83D00102084F83E0080
:101AC00000262664C4F824806785608D20852D4813
:101AD000E0622B464A465146204601F0A5FD90B9EA
:101AE000206841698069009036E02A4649462046D0
:101AF00001F0C4FF50B1206C042804D120680168B3
:101B000041F4007101600120BDE8F88F606A21682E
:101B100000780861606A401C6062618D491E6185C1
:101B2000218D491E89B2218522685369DB435B07F9
:101B30000BD451B100781061606A401C6062608D06
:101B4000401E6085208D401E20852A46494620463D
:101B500001F08AFE0028CED1208D0028C5D154F88E
:101B60003D0B016841F400710160202004F81E095A
:101B7000E67766770020C7E7FFE70220C4E70000AA
:101B8000020010000000FFFF2DE9FF4F83B0002589
:101B9000DDE910799A4693460446DDF848800095C1
:101BA000FFF792FE064694F83D0020287CD11923C9
:101BB000012285492046009601F082FE0028F5D1D9
:101BC00094F83C0001286FD0012084F83C00206884
:101BD0000168C90703D1016841F001010160206873
:101BE000016821F400610160222084F83D0040205A
:101BF00084F83E0025646762A4F82A90608D2085F1
:101C00007248E062CDE9008653465A462046049960
:101C100001F058FD00287DD1208DDFF8B4912027F8
:101C200068B1012814D00228206801681ED041F450
:101C3000806101602068416980690090B6E0206899
:101C4000416981690091016841F400710160ADE072
:101C50002068016821F48061016072B620684169E2
:101C600081690091016841F400710AE041F400616A
:101C7000016072B62068416981690091016821F4B0
:101C80008061016062B691E0032868D801280CD019
:101C9000022843464FF000024946204600960FD0E6
:101CA00001F00EFEB0BB10E08BE03246414620460C
:101CB00001F0ACFE70BB20680069616A08706CE0DE
:101CC00001F0FEFD30BB72B634E02068016821F4FB
:101CD0008061016072B620680069616A0870606A9C
:101CE000401C6062208D401E2085608D401E6085F6
:101CF000384846F2A8110068B0FBF1F0C0EBC00014
:101D000000EB80000090401E009008D020684069E1
:101D1000C04300E029E040070CD50098F3E744F801
:101D2000305F6773A573206940F02000206162B6C0
:101D300025731AE02068016841F400710160206891
:101D40000069616A0870606A401C6062218D491EEA
:101D50002185618D491E618562B621681BE032468E
:101D60004146204601F052FE18B1012007B0BDE8FF
:101D7000F08F20680069616A0870606A401C6062C8
:101D8000218D491E2185618D491E618521684A6921
:101D9000D24352070AD409690170606A401C60622C
:101DA000208D401E2085608D401E6085208D00287E
:101DB0007FF46AAF84F83D7084F83E5084F83C505C
:101DC000D4E70220D2E70000020010000000FFFF6D
:101DD00004000100400000202DE9FF4F83B09A4627
:101DE000DDE9119793460446DDF84080FFF76CFD6E
:101DF000054694F83D0020287FD11923012240494F
:101E00002046009501F05CFD002876D194F83C0056
:101E1000012872D0012084F83C0020680168C907BD
:101E200003D1016841F0010101602068016821F4DB
:101E300000610160212084F83D00402084F83E00CC
:101E400000262664C4F82480A4F82A90608D20859A
:101E50002C48E062CDE9007553465A462046049965
:101E600001F0AEFC70B930E02A463946204601F058
:101E700005FE58B1206C042804D12068016841F4A3
:101E800000710160012007B0BDE8F08F606A216831
:101E900000780861606A401C6062218D491E89B229
:101EA0002185628D521E628522685369DB435B0780
:101EB0000BD469B100781061606A401C6062208DAB
:101EC000401E2085608D401E6085208D0028CBD16E
:101ED0002A463946204601F0C7FC0028CAD154F8EA
:101EE0003D0B016841F400710160202004F81E09D7
:101EF000E67766770020C6E7FFE70220C3E7000029
:101F0000020010000000FFFF10B586B00021009114
:101F100001910291039100680F4988421AD10F4C38
:101F2000A06940F00800A061A069694600F00800BF
:101F30000490C020009012200190032003900848D4
:101F4000FFF7C8FBE06940F40010E061E06900F4CD
:101F50000010049006B010BD005400400010024074
:101F6000000C01400248816802781144816070478A
:101F700034000020074810B5016841F010010160ED
:101F8000032000F0A7F80F2000F006F800F050F84A
:101F9000002010BD0020024030B505461F4887B024
:101FA000C16941F00401C161C06906A900F00400E3
:101FB000009001A800F086FA0498B0B100F0A2FAEF
:101FC00040001749174AB0FBF1F11748491E02605B
:101FD000416040F2E7320021C0E903218160816164
:101FE00000F0DAFF040003D015E000F08BFAE8E718
:101FF0000D4801F01DF804000DD11E2000F03CF842
:10200000102D07D2002229461E2000F043F8074871
:10201000056000E0012407B0204630BD00100240FA
:1020200040420F0000080040C00600203800002099
:102030000F4808B5816941F001018161816901F0B2
:1020400001010091C16941F08051C161C069002264
:1020500000F0805000900F21901E00F01BF8054802
:10206000416821F0E06141F00071416008BD00006D
:102070000010024000000140002809DB00F01F02B0
:10208000012191404009800000F1E020C0F80011DA
:1020900070470000F0B40E4B1B680C46C3F30223DC
:1020A000C3F10705042D00D90425191D072901D204
:1020B000002300E0DB1E012606FA05F1491E21403F
:1020C00099409E40761E16403143F0BC03F0BCBDE3
:1020D0000CED00E0064900F0070208684FF6FF0328
:1020E000184040EA0220034A10430860704700008D
:1020F0000CED00E00000FA052DE9F04186B0040087
:1021000004D094F8A902002520B108E0012006B00F
:10211000BDE8F08184F8A852204600F05BF8032067
:1021200084F8A902206803F070FD04F11001142264
:1021300088466846FEF796F894E80F0003F058FDCD
:102140000227D0BB0021206803F066FD0020012695
:102150000EE000BF00EB800104EBC10181F82960B3
:1021600001F8280F401CCD700D614D61C0B28D612A
:1021700061688142EED8002012E000BF00EB8001D0
:1021800004EBC10181F8695181F8680181F86B5154
:10219000C1F87851C1F87C51401CC0B2C1F88051DF
:1021A00061688142EAD8142241466846FEF75AF82F
:1021B00094E80F0003F020FD10B184F8A972A5E7A0
:1021C00084F8245084F8A962206803F013FD0020ED
:1021D0009DE7000008B500680649884208D1064816
:1021E000C16941F40001C161C06900F400000090C0
:1021F00008BD0000005C00400010024001490120C1
:102200000862704700000E4210B501460020234CC2
:10221000012922D0022939D010291DD161682268F4
:10222000D20119D51E48C1F38342C903805C0AD587
:1022300061681B4AC1F34041921E515C194AB2FBCE
:10224000F1F1484301E0184948436168490203D469
:1022500040000321B0FBF1F010BD226AC2F301215E
:10226000012903D1920701D5C80310BD022905D168
:10227000626A920702D549F6404010BD0329FCD19D
:1022800021688903F9D54FF2244010BD00F04AF9C6
:102290006168C1F38131491C4900DBE7001002404D
:1022A0009C8B000800127A0000093D002DE9F843DC
:1022B00005460078354CC00754D0E0690026C000C0
:1022C00008D4E06940F08050E061E069012600F048
:1022D000805000902E480168C90512D401688046DC
:1022E00041F480710160FFF7EFFA074605E000BF97
:1022F000FFF7EAFAC01B642823D8D8F80000C0050D
:10230000F6D5206A10F4407021D0A98801F44071FC
:1023100081421CD0206A1F49012220F440700A60CB
:1023200000220A602062C00711D0FFF7CDFA0746ED
:1023300041F2883808E000BFFFF7C6FAC11B4145EB
:1023400002D90320BDE8F883206A8007F4D5206A0B
:10235000696820F44070084320621EB1E06920F0F3
:102360008050E0612878800705D56068A96820F46E
:102370004040084360602878C00605D56068E96879
:1023800020F48000084360600020DBE7001002407A
:1023900000700040400442422DE9F0470F4605001E
:1023A00061D0434E306800F00700B84209D230686F
:1023B00020F0070038433060306800F00700B84272
:1023C00051D128683B4C810712D5400703D560687E
:1023D00040F4E06060602878000703D5606840F44E
:1023E000605060606068A96820F0F0000843606099
:1023F0002878C00728D06868012810D021680228F2
:1024000010D0890700292EDA616821F00301014309
:102410006160FFF759FA804641F288390DE0216882
:102420008903EFE78901EDE7FFF74EFAA0EB08011A
:10243000494502D90320BDE8F0876068696800F06B
:102440000C00B0EB810FEFD1306800F00700B8420C
:102450000BD9306820F0070038433060306800F056
:102460000700B84201D00120E5E72878400705D5EC
:102470006068E96820F4E06008436060287800073D
:1024800006D56068296920F4605040EAC1006060A8
:1024900000F058F86168084AC1F30311515CC84064
:1024A0000649086006480068FFF776FD0020C2E78D
:1024B0000020024000100240AC8B000840000020C9
:1024C000380000200F2202600C4A536803F0030317
:1024D0004360536803F0F0038360536803F4E063E0
:1024E000C36052684FF4E06303EAD2020261044819
:1024F000006800F00700086070470000001002400C
:10250000002002400448054900684968044AC1F3B4
:102510000221515CC840704740000020001002407A
:10252000BC8B00080448054900684968044AC1F3A7
:10253000C221515CC840704740000020001002409A
:10254000BC8B00080E4A51680E4801F00C03042BA6
:1025500011D0082B0FD10C48C1F38343C903C05CD1
:102560000AD55168084AC1F34041921E515C054AA0
:102570005043B0FBF1F070470449484370470000F6
:102580000010024000127A008A8B000800093D000A
:102590002DE9F84F040070D02078C04DC00749D015
:1025A0006868C0F38100012807D06868C0F3810023
:1025B000022809D16868C00306D52868800339D588
:1025C00060680028E7D035E06068B0F5803F0BD048
:1025D00010B1B0F5A02F11D0286820F48030286009
:1025E000286820F4802002E0286840F480302860C9
:1025F000606890B1FFF768F906460AE0286840F481
:1026000080202860F0E700BFFFF75EF9801B642898
:1026100073D828688003F7D50CE0FFF755F9064614
:1026200005E000BFFFF750F9801B6428F0D8286848
:102630008003F7D420789A4E80074FF001094FF0BD
:10264000000839D5686810F00C0F07D06868C0F32F
:102650008100022809D16868C00306D42868800771
:1026600014D52069012808D110E02069B0B1C6F85E
:102670000090FFF729F9074605E00AE1FFF724F982
:10268000C01B0228C4D828688007F7D5286861696C
:1026900020F0F80040EAC10028600DE0C6F8008094
:1026A000FFF712F9074604E0FFF70EF9C01B0228F6
:1026B00023D828688007F7D4207800072CD57948DC
:1026C000A169D9B1C0F80090FFF7FEF8074604E011
:1026D000FFF7FAF8C01B02280FD8686A8007F7D501
:1026E00071484FF4FA510068B0FBF1F0009000BF60
:1026F0000098411E0091FAD20EE080E0C0F8008000
:10270000FFF7E2F8074604E0FFF7DEF8C01B0228F7
:1027100075D8686A8007F7D42078400760D5E869E3
:102720000027C00008D4E86940F08050E861E869FB
:10273000012700F0805000905C480168C90513D45F
:102740000168834641F480710160FFF7BDF882465D
:1027500006E000BFFFF7B8F8A0EB0A0064284ED8E7
:10276000DBF80000C005F5D5E06801280AD008B103
:10277000052813D0286A20F001002862286A20F07A
:10278000040002E0286A40F001002862E06841F29B
:10279000883B98B1FFF798F882460BE0286A40F032
:1027A00004002862EEE700BFFFF78EF8A0EB0A01F5
:1027B00059455AD8286A8007F6D50CE0FFF784F807
:1027C000824605E0FFF780F8A0EB0A0159454CD896
:1027D000286A8007F6D41FB1E86920F08050E861CC
:1027E000E06988B36968C1F38101022944D00228F5
:1027F000C6F8608004D0FFF767F8044638E034E09C
:10280000FFF762F8074604E0FFF75EF8C01B0228F6
:102810002BD828688001F7D4206AB0F5803F05D115
:102820006868A16820F4003008436860D4E90801B2
:102830000843696821F4741108436860C6F8609021
:10284000FFF742F8044606E025E000BFFFF73CF83A
:10285000001B022809D828688001F7D51BE000BFBB
:10286000FFF732F8001B022802D90320BDE8F88FD9
:1028700028688001F4D40EE00128F7D06868226A45
:1028800000F48031914204D1616A00F470108842F2
:1028900001D00120EAE70020E8E700000010024034
:1028A000000042428004424240000020007000408C
:1028B000024850F8210080B270470000006C0040D0
:1028C000024800EB810091B201607047006C00404B
:1028D00003490120C8600348006806F077B800008B
:1028E000500100202C00002010B50446006801684B
:1028F00089070AD54068800707D52046FFF7E8FF1B
:102900002068416821F00201416003494FF4003022
:1029100008600120607410BD14040140F8B5050082
:102920004FF0000016460C46009006D02CB1002255
:102930006946284600F019F808B10120F8BD287B47
:102940002070E87BE070697B6170A97BA17056B153
:1029500002F08FFBE070607802F08BFB6070A07873
:1029600002F087FBA0700020F8BD2DE9F0479146EA
:102970000C465FEA00084AD084B3D8F800004068EB
:10298000400744D4404602F013FC4FF46162054610
:10299000B0FBF2F1B0FBF2F302FB13503C23B0FBAF
:1029A000F3F0B5FBF2F6607002FB1650B0FBF3F2E9
:1029B00003FB1200A070182931D31820B1FBF0F7E7
:1029C000B1FBF0F200FB12102070404602F0E9FB70
:1029D000411C04D0A84202D9461B02E017E04FF088
:1029E000FF36A7EB071000EB4000C0EB001005EB33
:1029F000C0152946404602F02AFC40B9701C01D09F
:102A0000711900E03146404602F00DFC10B1012082
:102A1000BDE8F0873946404602F036FB00E0217001
:102A2000B9F1000F0BD0207802F023FB2070607802
:102A300002F01FFB6070A07802F01BFBA07000206A
:102A4000E6E7000070B5040003D0607C002610B1FA
:102A500005E0012070BD2674204600F03DF80220FC
:102A60006074204600F08AF9042550BB204602F02D
:102A700062FB30BB2068416821F007014160A0681B
:102A800020B11448016821F0010101601148001FC4
:102A90000168A26821F46071114301606068411C03
:102AA00004D10120FFF7B0FB58B1401E2268C0F3EB
:102AB00003419160216880B2C860204602F056FB55
:102AC00008B16574C5E7E67301206073A073607494
:102AD000002070BD306C004008B500680D49884288
:102AE00017D1FFF78BFB0C48C16941F00061C16150
:102AF000C0690A4900F000600090012008600022CF
:102B000005212920FFF7C6FABDE808402920FFF774
:102B1000B3BA08BD00280040001002403C04424205
:102B20002DE9F8434FF0000617460D4604000096C5
:102B30000FD075B1207C01280ED04FF0010984F828
:102B4000109002206074002269462046FFF70DFFB6
:102B500020B10120BDE8F8830220FBE79DF80000CA
:102B60004FF4616148439DF80110C1EB011100EB86
:102B700081009DF8021000EB01082878E7B102F00F
:102B80006FFA4FF4616100FB01F7687802F068FAB0
:102B9000C0EB001007EB8007A87802F061FA391843
:102BA000414501D217480144204602F03CFB70B178
:102BB000042060742674CCE74FF46161484369785F
:102BC000C1EB011100EB8100A9780144E8E720681E
:102BD000416821F0020141602068016841F0020172
:102BE00001600948016841F400310160064808307D
:102BF000016841F40031016084F8119026740020CE
:102C0000A8E7000080510100000401402DE9F041D7
:102C10000D4604003BD0C5B3207C01283AD04FF0CC
:102C2000010884F8108002206074E87872B302F022
:102C300017FAE073687802F013FA6073A87802F06C
:102C40000FFAA073C2B2617BE07B02F0C1FA20737D
:102C50002870204602F0ACFA4FF46161B0FBF1F14C
:102C6000002518292DD91822B1FBF2F1A1EB011191
:102C700001EB4101C1EB011100EBC11631462046C9
:102C800002F0E5FA0427C8B90BE000E004E00120F7
:102C9000BDE8F0810220FBE7E07368786073A878F4
:102CA000CFE7204602F07DFA411C0AD0B04208D29C
:102CB00006490144204602F0B6FA10B16774257443
:102CC000E5E784F8118025740020E1E780510100D8
:102CD0002DE9F0410D46040024D01DB3207C0128CD
:102CE00023D04FF0010884F8108002206074287807
:102CF000EAB102F0B5F94FF4616100FB01F66878C2
:102D000002F0AEF9C0EB001006EB8006A87802F0E6
:102D1000A7F935182946204602F099FA002604271B
:102D200010BB0FE00120BDE8F0810220FBE74FF46B
:102D3000616148436978C1EB011100EB8100A9781A
:102D40004518E7E72068416821F005014160204609
:102D500002F027FA411C0AD0A84208D206490144D1
:102D6000204602F060FA10B167742674DAE784F83E
:102D7000118026740020D6E78051010070B5040050
:102D80000AD02068416821F008014160FEF79CFDEF
:102D900005464FF47A7608E0012070BDFEF794FDF9
:102DA000401BB04201D9032070BD20684068000775
:102DB000F4D5002070BD70B5040009D0606A00250C
:102DC00040B125616561A56294F8510040B10CE005
:102DD000012070BD6068B0F5827FF4D0E561F2E754
:102DE00084F85050204600F03FF8022084F851004B
:102DF0002068016821F040010160A088218900F469
:102E0000827001F404410843A18901F40061084380
:102E1000217C01F002010843217D01F001010843FA
:102E2000218B01F400710843217F01F03801084330
:102E300094F8201001F080010843218D01F4005125
:102E4000084321680860A069042101EA1040216854
:102E500048602068C16921F40061C1616565012095
:102E600084F85100002070BD30B585B00024009476
:102E700001940294039400681449884223D11448B1
:102E8000816941F480518161816901F4805104912B
:102E9000816941F00401816180690E4D00F00400F8
:102EA0000490A02000900220019003200390694626
:102EB0002846FEF70FFC4020CDE90004694628466D
:102EC0000294FEF707FC05B030BD00000030014061
:102ED00000100240000801407047704710B590F89C
:102EE0003C20012A22D0012280F83C20CA688C684C
:102EF00022F4407222434C6822F4806222430C6820
:102F000022F4006222430C6922F4805222434C696D
:102F100022F400522243C969002322F480420A436A
:102F200001684A6480F83C30002010BD022010BDCA
:102F300070B590F83C20012A26D0012480F83C404E
:102F4000022280F83D2003685A689D6822F07006CE
:102F50000A6832435A600D4B02689A4208D0B2F1B7
:102F6000804F05D00A4B9A4202D00A4B9A4204D1B4
:102F7000496825F080031943916080F83D400021A5
:102F800080F83C10084670BD022070BD002C014046
:102F9000000400400008004010B5040003D094F87D
:102FA0003D0010B107E0012010BD002084F83C0076
:102FB000204600F01FF8022084F83D00211D206803
:102FC00002F0ACFC012084F8460084F83E0084F84E
:102FD0003F0084F8400084F8410084F8420084F8FF
:102FE000430084F8440084F8450084F83D00002044
:102FF00010BD000008B50C4A01680C48914207D189
:10300000816941F400618161806900F4006009E038
:10301000B1F1804F07D1C16941F00101C161C069BF
:1030200000F00100009008BD002C0140001002409B
:1030300090F83D10012901D001207047022180F84D
:103040003D100168CA6842F00102CA6000680B497D
:10305000884208D0B0F1804F05D00949884202D09B
:103060000849884204D1816801F00701062903D08C
:10307000016841F00101016000207047002C01400F
:10308000000400400008004070B5044690F83C0081
:103090000025012817D0012684F83C60022084F81E
:1030A0003D002068826822F0770222F47F4282602D
:1030B0000868502838D00DDC20284FD005DC90B3AC
:1030C000102811D14AE0022070BD302846D0402897
:1030D0000AD13BE060282FD070280DD0B0F5805F7A
:1030E00003D0B0F5005F12D0012584F83D600020C8
:1030F00084F83C00284670BDCB68D1E901212068E6
:1031000002F042FC2068816841F0770109E0CB6859
:10311000D1E90121206802F037FC2068816841F480
:1031200080418160E1E719E0CA684968206802F0DF
:10313000DFFC5021206806E0CA684968206802F078
:10314000E8FC6021206802F029FCCEE7CA684968E3
:10315000206802F0CDFC40212068F4E72268014697
:103160001046F0E7704770B50446006801694FF0FB
:103170000005C943890715D4C168C943890711D41B
:10318000E91E0161012020772068806980072046C0
:1031900002D0FFF7E7FF04E000F00EF9204600F050
:1031A000B3F9257720680169C943490717D4C16875
:1031B000C943490713D46FF004010161022020774D
:1031C0002068806910F4407F204602D0FFF7CAFFD4
:1031D00004E000F0F1F8204600F096F92577206829
:1031E0000169C943090716D4C168C943090712D444
:1031F0006FF008010161042020772068C069800712
:10320000204602D0FFF7AEFF04E000F0D5F82046DC
:1032100000F07AF9257720680169C943C90617D4F7
:10322000C168C943C90613D46FF0100101610820B9
:1032300020772068C06910F4407F204602D0FFF755
:1032400091FF04E000F0B8F8204600F05DF9257722
:1032500020680169C943C90708D1C168C943C907C2
:1032600004D1891E0161204600F050F920680169EF
:10327000C943090609D4C168C943090605D46FF0DA
:10328000800101612046FFF727FE20680169C943DC
:10329000490609D4C168C943490605D46FF0400105
:1032A0000161204600F03CF920680169C9438906A4
:1032B0000BD4C168C943890607D46FF020010161AE
:1032C0002046BDE87040FFF708BE70BD70B586B0FF
:1032D000002100910191029103910068304B314926
:1032E0000224314A984211D1886940F00400886173
:1032F0008869039400F0040004908815CDE9000467
:1033000069461046FEF7E6F906B070BD274E284D17
:10331000B0F1804F1BD0274A9042F5D1886940F028
:10332000080088618869694600F008000490102050
:10333000CDE9000430460394FEF7CCF9686820F428
:10334000406040F0E06040F400606860DCE788695D
:1033500040F004008861886900F0040004908869E6
:1033600040F0080088618869694600F00800049010
:1033700048F20400CDE9000410460394FEF7AAF9D0
:103380000820CDE90004694630460394FEF7A2F90F
:10339000686820F4407040F0E06040F48070D4E74A
:1033A000002C01400010024000080140000C0140C8
:1033B0000000014000040040704770B5044690F8DA
:1033C0003C0000260D4601280FD0012084F83C0067
:1033D0006AB1042A1DD0082A2FD00C2A3FD001261A
:1033E000002084F83C00304670BD022070BD20688B
:1033F00002F0DCFA2068816941F0080181612068EF
:10340000816921F004018161206881692A69114381
:1034100011E0206802F0F2FA2068816941F400614D
:1034200081612068816921F48061816120688169FE
:103430002A6941EA02218161D2E7206802F00AFB91
:103440002068C16941F00801C1612068C16921F0AB
:103450000401C1612068C1692A69114311E0206833
:1034600002F024FB2068C16941F40061C161206859
:10347000C16921F48061C1612068C1692A6941EA9A
:103480000221C161ACE710B5040003D094F83D00FF
:1034900010B107E0012010BD002084F83C00204658
:1034A00000F01EF8022084F83D00211D206802F083
:1034B00035FA012084F8460084F83E0084F83F0085
:1034C00084F8400084F8410084F8420084F8430006
:1034D00084F8440084F8450084F83D00002010BDC5
:1034E00008B500680649884208D10648C16941F01C
:1034F0000201C161C06900F00200009008BD000037
:1035000000040040001002407047000000680349BA
:10351000884201D1FEF726BD704700000008004038
:10352000704770B5040004D094F84100002510B134
:1035300006E0012070BD84F84050204600F024F8D9
:10354000242084F841002068C16821F40051C16042
:10355000204602F0F1FA2068016921F490410161EE
:103560002068416921F02A0141612068C16841F465
:103570000051C1606564202084F8410084F8420055
:103580006563002070BD000030B585B00024009454
:1035900001940294039400681449884224D1144889
:1035A000816941F480418161816901F48041049124
:1035B000816941F00401816180690E4D00F00400D1
:1035C00004904FF4007000900220019003200390BB
:1035D00069462846FEF77EF82815CDE900046946BD
:1035E00028460294FEF776F805B030BD0038014059
:1035F0000010024000080140FEE701684A69D2431A
:1036000052050FD46FF480624A61002140F8301FE8
:10361000202242738173026942F004020261017345
:103620000120704700207047F8B50446C06A1E4666
:103630000D461746082807D0012805D010F5803F11
:1036400002D0206B122804D12068016841F48071F7
:103650000160134600224FF001112046009600F051
:103660002FF940B120680068C00502D54FF4007002
:1036700020640320F8BD2069B0F5804F0ED00620ED
:10368000216800EAD51040F0F000086133463A4660
:103690000B49204600F05CF978B902E005F0FE0025
:1036A00000E0E8B221680861054933463A46891FBF
:1036B000204600F04DF90028DCD00120F8BD0000C4
:1036C000080001002DE9F84F0446006889460B9D6B
:1036D00001689846174641F48061016020680168DE
:1036E00041F48071016000954FF0011B00225946A2
:1036F00020460A9B00F0E4F84FF4007A40B12068BD
:103700000068C00501D5C4F840A00320BDE8F88FCB
:10371000216809F0FE0008612B46284920460A9AD4
:1037200000F016F9F0BB20684169806900902A46D4
:1037300020460A9900F0A2F940B1206C04283AD141
:103740002068016841F40071016034E0FEB2B8F114
:10375000010F09D02168380A08612A4620460A99D3
:1037600000F08CF90028E8D1206806612A4620463E
:103770000A9900F083F90028DFD12068016841F43C
:103780008071016000950022594620460A9B00F096
:1037900097F80028B3D1216809F0FF0040F001003C
:1037A000086100E007E02B46044920460A9A00F031
:1037B000CFF80028AAD00120A8E7000002000100ED
:1037C0002DE9F843044600680D46DDE908970168D5
:1037D0009846164641F4807101604B4600224FF036
:1037E00001112046009700F06BF848B1206800688E
:1037F000C00502D54FF4007020640320BDE8F883B3
:10380000216805F0FE0008613B464A4615492046FE
:1038100000F09EF888B920684169806900903A46B6
:103820004946204600F02AF948B1206C042804D10A
:103830002068016841F4007101600120DEE7F5B203
:10384000B8F1010F09D02168300A08613A464946AB
:10385000204600F013F90028E7D120680561002018
:10386000CCE700000200010070B516460D46044684
:103870001EE02046FFF7C1FE08B1012070BD681CA4
:1038800016D0FEF721F8801BA84200D885B9206821
:103890004069C04340070BD5002044F8300F202179
:1038A0006173A073216941F0200121612073E4E775
:1038B00020684069C0434007DBD4002070BD000091
:1038C0002DE9F047984617460D460446C1F30746D2
:1038D000DDF820902AE000BFB8F1FF3F26D0FDF7C9
:1038E000F3FFA0EB0901414502D8B8F1000F1DD14B
:1038F0002068012E16D0806925EA00000004000C23
:1039000012D00020B84211D1002044F8300F2021FD
:103910006173A073216941F02001216120730120AE
:10392000BDE8F0874069E7E70120EBE72068012E5A
:103930000AD0806925EA00000004000C06D00020AF
:10394000B842C9D00020EBE74069F3E70120F7E770
:103950002DE9F047984616460D4604464FF00009FB
:103960004FF0200AC1F3074723E020684069C043B5
:10397000400515D42068016841F400710160216898
:103980006FF480604861C4F8309084F83DA084F8FA
:103990003E90216C41F00401216484F83C9021E0C8
:1039A000701C06D0FDF790FFA0EB0800B04203D8D2
:1039B00016B1012F1FD021E02068012F15D080699A
:1039C00025EA00000004000C18D000BF44F8309F26
:1039D00084F80DA084F80E90216941F02001216146
:1039E00084F80C900120BDE8F087406925EA0000CA
:1039F0000004000CEAD12068406901E02068806979
:103A000025EA00000004000CAFD1ECE72DE9F041FD
:103A1000002590460E460446202728E04069C04312
:103A2000C0060CD454F8301B6FF01000486144F805
:103A300010596777A577206A2062257714E0FDF793
:103A400043FFA0EB0800B04200D886B92068406967
:103A5000C04340060BD544F8305F6773A5732069F7
:103A600040F02000206125730120BDE8F08120682E
:103A70004169C9434906D1D40020F6E770B516461E
:103A80000D4604461EE02046FFF7B7FD08B10120B1
:103A900070BD681C16D0FDF717FF801BA84200D828
:103AA00085B920684069C04300060BD5002044F862
:103AB000300F20216173A073216941F02001216141
:103AC0002073E4E720684069C0430006DBD400208F
:103AD00070BD00002DE9F04F0022DFF81C918BB083
:103AE00048460592D0E90261D9E900400B46341BF3
:103AF00061EB0001DFF804C1501EB4EB0C0C15465D
:103B00001746924671F1000C5FD3DFF8F4804FF056
:103B1000000CB8EB04047CEB010C56D34C46D4E902
:103B200004C1BCEB060661EB0301364BF31A71F1DD
:103B300000034AD3DFF8D0C00023BCEB06068B415C
:103B400043D300234FF003094FEA0D0B09EB430861
:103B500008F1010C04EBCC0104EBC80CD1E90061C5
:103B6000DCE9008CB6EB080661EB0C015206DFF8CD
:103B70009C80120E6D1C4FF0000CB8EB06067CEB1F
:103B8000010C01D242F00102082D04D10BF80720EC
:103B9000002215467F1C5B1C202BD7DB9DF80110F3
:103BA0001B4CC943CBB28DF801309DF80310C943BB
:103BB000C9B28DF803109DF800209A4203D19DF8F8
:103BC00002308B4204D0C4F800A00BB0BDE8F08FE7
:103BD000CDE90623002305AA06A9E06804F00EFB40
:103BE000059838B10B494FF080500860BFF34F8FF4
:103BF000BFF36F8F0020E8E76040002000127A00DA
:103C000080969800E0673500C03B470340420F00B4
:103C1000D000002004ED00E0FEB50025009503F083
:103C2000B1FC2A4C2A4FD4E90423861A61EB030322
:103C30000022BE1B9A4100D22560C4E90401254A36
:103C4000236802EBC3065B1CC6E900012360042B5A
:103C500004D0442B39D1FFF73DFF35E0D2E90260B3
:103C6000D2E900170346711A60EB07001A4FCF1B09
:103C700070F1000729D3DFF864C00027BCEB010115
:103C8000874122D3D2E90402811B154862EB03026B
:103C9000081A72F1000018D34FEAAC030020591A39
:103CA000904112D30195029500236A4601A9E0686C
:103CB00004F0A4FA009838B10A494FF08050086027
:103CC000BFF34F8FBFF36F8F2560FEBDD000002084
:103CD00000E1F5056040002000127A00809698000F
:103CE00080841E0004ED00E010B5002208210A20A7
:103CF00004F032F90149C86010BD0000D000002076
:103D000001F035B801F048B801F062B801F090B8A0
:103D100001F098B808B50020009009486A460121D2
:103D2000806804F019F80098002807D005494FF082
:103D300080500860BFF34F8FBFF36F8F08BD000046
:103D4000C400002004ED00E010B580216B2000F0DD
:103D50000BF9642002F070FE00216B2000F004F9E2
:103D600000211B2000F000F918211C2000F0FCF8B5
:103D70000921192000F0F8F806211A2000F0F4F8C3
:103D800003211F2000F0F0F81421202000F0ECF8AF
:103D900004211A2000F0E8F804211C2000F0E4F8C7
:103DA0001021372000F0E0F84021382000F0DCF846
:103DB000002208210A2004F0CFF8034C606003F0D1
:103DC00077FFA060002010BDC40000202DE9F04165
:103DD0008846089C002C22D04038FCF719FC6FF074
:103DE0000D052A46FCF7EFFB02F094F80D4E0E4F3E
:103DF00032463B46FCF775FBFCF72FFC2060A8F130
:103E00001E00FCF705FC2A46FCF7DDFB02F082F8F9
:103E100032463B46FCF765FBFCF71FFC6060BDE8E3
:103E2000F0810000A79196CADBA54C402DE9FC5F0C
:103E30001D46DDE90CAB1646894607004FF000042D
:103E400011D001A93B2000F07FF8804669463C2054
:103E500000F07AF840EA08049DF800009DF804108C
:103E600040EA01203880B9F1000F13D001A93D20AC
:103E700000F06AF840EA040769463E2000F064F862
:103E800040EA07049DF800009DF8041040EA012074
:103E9000A9F8000096B101A93F2000F055F840EACA
:103EA00004076946402000F04FF840EA07049DF8F7
:103EB00000009DF8041040EA0120308095B101A96E
:103EC000432000F041F840EA04066946442000F02F
:103ED0003BF840EA06049DF800009DF8041040EA13
:103EE00001202880BAF1000F13D001A9452000F06D
:103EF0002BF840EA04056946462000F025F840EA20
:103F000005049DF800009DF8041040EA0120AAF87D
:103F10000000BBF1000F13D001A9472000F014F8F6
:103F200040EA04056946482000F00EF840EA05041E
:103F30009DF800009DF8041040EA0120ABF8000055
:103F40002046BDE8FC9F00000EB54FF4FA72012335
:103F50000292CDE9001302460248D0210068FDF725
:103F600013FE0EBDC40000201CB502238DF8040012
:103F70004FF4FA70009004488DF8051001AAD02182
:103F80000068FDF76BFD1CBDC40000201C4D88B00F
:103F90004FF0FF3800240122CDF8008000231146A5
:103FA000A86803F0E1FE05AFFDF726FA00230094B0
:103FB0001A4604A903A80194FFF738FF064601F04A
:103FC0003FF8CEB90094CDE9014700231A46BDF968
:103FD0001010BDF90C00FFF7F9FE00231A4605A9E1
:103FE000686804F055F806985A2802D0322003F089
:103FF00045FC06985A28D7D1142003F03FFCCAE7A5
:10400000C40000203EB5002411480094019402949D
:104010000E498460016004730475012505614FF445
:1040200060214460C161FDF77FFA08B1FDF734F902
:104030000320CDE90005694602940548FDF7F6F92D
:10404000002801D0FDF728F93EBD00000024014002
:10405000C00100201CB5FFF75BFEFFF751FEFFF724
:1040600043FE01F0ABF901F005FB00F065FEFFF740
:104070006BFE012003F061FF3D4918240023086313
:104080000846CDE9004080223AA13D4804F0B8FA44
:10409000374800230830CDE90040802239A13C4850
:1040A00004F0AEFA324800231030CDE900408022FF
:1040B00038A13B4804F0A4FA2D4800230C30CDE988
:1040C0000040802237A13A4804F09AFA2848002399
:1040D0001430CDE90040802236A1394804F090FA2E
:1040E000234800231830CDE90040802235A137480D
:1040F00004F086FA1E4800232C30CDE900408022CF
:1041000033A1354804F07CFA194800231C30CDE96E
:104110000040802231A1344804F072FA1448002390
:104120002030CDE90040802230A1334804F068FA05
:104130000F4800232430CDE9004080222FA13348CE
:1041400004F05EFA0A4800232830CDE900408022BE
:104150002FA1324804F054FA05480023001DCDE990
:10416000004080222EA1314804F04AFA1CBD000014
:104170000000002052656164446174610000000029
:10418000795200084D50555F363035300000000040
:104190008D3F00084D61696E54696D650000000037
:1041A000C54700084D656E755461736B00000000D3
:1041B000A94B0008416C61726D4D656E7500000081
:1041C000090B000853657454696D65009D5600081D
:1041D000416C61726D476F008D0A000847616D6523
:1041E0004D656E75000000009D12000847616D6509
:1041F0005461736B000000005D680008706C6174AE
:10420000666F726D5F7461736B000000CD6A0008A9
:1042100067616D65325461736B000000956800083A
:1042200053656C6563745461736B0000D55300086B
:104230002DE9F04786B000244F4800940194029481
:104240000394816941F010018161816901F01001DD
:104250000491816941F020018161816901F02001AF
:104260000491816941F004018161816901F00401D7
:104270000491816941F00801816180693F4F00F03C
:1042800008004FF400550490002229463846FDF7F7
:1042900016FBDFF8EC90002213214846FDF70FFBD8
:1042A000DFF8E0A04FF40248002241465046FDF7F7
:1042B00006FB0095022601250396CDE901546946C7
:1042C0003846FDF707FA112700970396CDE9015408
:1042D00069464846FDF7FEF9CDE90256CDE900678B
:1042E00069464846FDF7F6F903208DE83100694636
:1042F0005046FDF7EFF9A80200902348CDE90105EB
:1043000069465046FDF7E6F9204FE802CDE900077F
:10431000694602955046FDF7DDF94FF48150CDE92D
:104320000007694602945046FDF7D4F94FF48240E5
:10433000CDE90004694650460294FDF7CBF9CDF86B
:1043400000800396CDE9015469465046FDF7C2F955
:10435000002205211720FDF79DFE1720FDF78CFE9A
:10436000002205212820FDF795FE2820FDF784FE78
:1043700006B0BDE8F08700000010024000100140C8
:1043800000080140000C0140000031100000111035
:104390000D4810B50B4901600C49416000214FF4F4
:1043A00080428160C0E9031241618161C1610162A3
:1043B000FDF790FA002803D0BDE81040FCF76CBF71
:1043C00010BD000000540040F0010020A086010054
:1043D000FEB500254A4801950095C16941F000618C
:1043E000C161C16901F000610291C16941F0805170
:1043F000C161C069444C00F0805002904148206087
:10440000681E60604FF48070A0602046FEF71AFBC3
:1044100008B1FCF741FF01213B48FEF749FA45F29C
:104420005106B04246D012208DF8040017208DF8B6
:1044300005008DF80650002201A93348FEF748FC1C
:1044400008B1FCF729FF01208DF8000005208DF848
:10445000010006208DF8020018208DF803000022CC
:1044600069462948FEF7D2FB08B1FCF715FF206822
:10447000016841F001010160324601212248FEF746
:104480001FFA9DF8032002211F48FEF719FA9DF834
:10449000012003211C48FEF713FA9DF80220042195
:1044A0001948FEF70DFA9DF8002005211648FEF781
:1044B00007FAFEBD02211448FEF7FAF98DF8030051
:1044C00003211148FEF7F4F98DF8010004210E488C
:1044D000FEF7EEF98DF8020005210B48FEF7E8F92A
:1044E0008DF80000002269460748FEF78FFB08B1EF
:1044F000FCF7D2FE2068016841F001010160FEBDB9
:10450000001002400028004044020020104810B56E
:104510000E4901604FF48271416000218160C160E9
:104520004FF400720161C0E905120822C0E90721B9
:10453000416281620A21C162FEF73DFC002803D07E
:10454000BDE81040FCF7A8BE10BD000000300140DF
:104550005802002010B596B000240F9410941194C6
:10456000129413941C2108A81494FBF794FE2021A4
:104570006846FBF790FE2A48284901604721C0E9B8
:10458000011440F2E731C0E903148021C0E905417C
:10459000FEF702FD08B1FCF77FFE4FF480500F904C
:1045A0000FA91F48FEF770FD08B1FCF775FE1C4807
:1045B000FEF769FF08B1FCF76FFE139413A91848C2
:1045C0001494FEF7B5FC08B1FCF766FE6020089075
:1045D00040F2F310CDE909040B940C940D940022E1
:1045E00008A90F480E94FEF7E8FE08B1FCF754FE48
:1045F00000944FF40050CDE90440029401940394D8
:10460000694607480794FEF769FC08B1FCF744FEC9
:104610000348FEF75BFE16B010BD0000002C014001
:10462000B002002010B58EB00024079408940994BD
:104630000A940B941C2168460C94FBF72CFE274827
:104640004FF08041016040F26711C0E9011440F26F
:10465000CF71C0E9031480218161FEF79DFC08B190
:10466000FCF71AFE4FF48050079007A91B48FEF78D
:104670000BFD08B1FCF710FE1848FEF704FF08B167
:10468000FCF70AFE0B940BA914480C94FEF750FC9F
:1046900008B1FCF701FE6020CDE90004029400227D
:1046A00069460E480494FEF788FE08B1FCF7F4FD55
:1046B000042269460948FEF780FE08B1FCF7ECFDCC
:1046C000082269460548FEF778FE08B1FCF7E4FDCC
:1046D0000248FEF7FBFD0EB010BD0000F8020020FE
:1046E00010B58AB0002407941C2168460894FBF793
:1046F000D2FD1848164901600721C0E9011440F2B3
:10470000E731C0E9031480218161FEF7BCFE08B1E6
:10471000FCF7C2FD079407A90E480894FEF708FCB1
:1047200008B1FCF7B9FD602000904FF46170CDE94D
:1047300001040022694607480494FEF73EFE08B1D2
:10474000FCF7AAFD0348FEF7C1FD0AB010BD00004A
:1047500000040040400300200C4810B50A490160E5
:104760004FF4E1314160002181600C22C160C0E959
:1047700004128161C161FEF7D4FE002803D0BDE8B8
:104780001040FCF789BD10BD0038014088030020AF
:104790000B4810B509490160082141600221816080
:1047A00000218161C1610162FDF7A6FC002803D0F0
:1047B000BDE81040FCF770BD10BD0000005C00407B
:1047C000D0030020DFF8B89388B009F11C00DFF8AF
:1047D000B4A306900AF56170DFF8ACB305900BF551
:1047E0008770049009F18C000390E84C207840B960
:1047F000FFF78EFAFFF784FA01202070E448FEF7F5
:1048000021F9E24900220831E248FEF7AEF8DF491B
:1048100000222031DF48FEF781F800240E26CDE982
:1048200000640723029421460820069A01F0B0FC98
:104830000E2307220021082001F094FDCDE9006439
:104840000723CF4A00210F20029401F0A1FC0E2380
:10485000072200210F2001F085FDCC4F0A252037CB
:10486000C846F878CDE90064B0FBF5F0C0EBC001B4
:1048700009EB4102072300211620029401F088FC75
:104880000E2307220021162001F06CFDF878CDE9F7
:104890000064B0FBF5F105FB1100C0EBC00108EBB3
:1048A0004102072300211D20029401F071FC0E2318
:1048B000072200211D2001F055FDCDE900640723EA
:1048C000029400212420039A01F062FC0E230722A7
:1048D0000021242001F046FD7878CDE90064B0FB8A
:1048E000F5F0C0EBC00108EB4102072300212C20AA
:1048F000029401F04DFC0E23072200212C2001F030
:1049000031FD7878CDE90064B0FBF5F105FB1100CD
:10491000C0EBC00108EB41020723002133200294C1
:1049200001F036FC0E2307220021332001F01AFD8E
:10493000CDE900640723029400213A20039A01F094
:1049400027FC0E23072200213A2001F00BFDB87846
:10495000CDE90064B0FBF5F0C0EBC00108EB41020B
:10496000072300214220029401F012FC0E230722AB
:104970000021422001F0F6FCB878CDE90064B0FBDC
:10498000F5F105FB1100C0EBC00108EB4102072364
:1049900000214920029401F0FBFB0E230722002195
:1049A000492001F0DFFCCDE9006402943878182337
:1049B00000EB4001784800EB01120021602001F07B
:1049C000E7FB0E2318220021602001F0CBFCA7F1A9
:1049D000180624273078CDE90074B0FBF5F0C0EB61
:1049E000001000EB40010AEB4102D04612230E21D9
:1049F0000520029401F0CCFB242312220E21052075
:104A000001F0B0FC3078CDE90074B0FBF5F105FBA6
:104A10001100C0EB001000EB400108EB4102122333
:104A20000E211720029401F0B3FB242312220E2141
:104A3000172001F097FCCDE90074122302940E2197
:104A40002920059A01F0A4FB242312220E212920FB
:104A500001F088FC7078CDE90074B0FBF5F0C0EB94
:104A6000001000EB400108EB410212230E213B2015
:104A7000029401F08DFB242312220E213B2001F031
:104A800071FC7078CDE90074B0FBF5F105FB110005
:104A9000C0EB001000EB400108EB410212230E2195
:104AA0004D20029401F074FB242312220E214D208C
:104AB00001F058FC1427CDE90074092302941E214B
:104AC0005F20049A01F064FB142309221E215F2059
:104AD00001F048FCB078D846B0FBF5F000EBC00020
:104AE00000EB4001CDE9007401EB080209231E210F
:104AF0006820029401F04CFB142309221E21682037
:104B000001F030FCB078CDE90074B0FBF5F105FBA5
:104B1000110000EBC00000EB400101EB080209238B
:104B20001E217120029401F033FB142309221E215F
:104B3000712001F017FC0C25CDE900542023174A01
:104B400034210020029401F023FB0C232022342185
:104B5000002001F007FCCDE9005434211823104A4D
:104B60000846029401F014FB34210C231822084655
:104B700001F0F8FB4FF47A7002F080FE35E6000099
:104B800088B3000872B5000850B900081001002071
:104B9000804200204402002022B4000879BA0008B4
:104BA000B9BA0008FEE700000EB50025DFF86C81F9
:104BB000DFF86CB15B4C0C264FF0080A4FF020096F
:104BC000607830B9FFF7A4F8FFF79AF80120607019
:104BD000A071CDE900656823534A00210C2002959D
:104BE00001F0D6FA0C2368220021184601F0BAFB26
:104BF000CDE900A5574624234C4A0D212E200295CD
:104C000001F0C6FA082324220D212E2001F0AAFB70
:104C1000CDE900752423464A2D212E20029501F06E
:104C2000B7FA082324222D212E2001F09BFBCDE989
:104C3000006520233F4A34216020029501F0A8FA44
:104C40000C2320223421602001F08CFBCDE900955B
:104C50000295A1794F4608EBC112202310210020B4
:104C6000803A01F095FA20231A461021002001F025
:104C700079FBCDE900750295A179202308EBC112DB
:104C80001021302001F084FA20231A461021302010
:104C900001F068FBCDE900750295A179202308EBAE
:104CA000C11210216020803201F072FA20231A46CE
:104CB0001021602001F056FBCDE900650295A07936
:104CC000302300EB40010BEB411234210020603A0D
:104CD00001F05EFA0C2330223421002001F042FB67
:104CE00010494FF0FF32491DE06903F0EDFA012849
:104CF0007FF466AF6079012807D00228F8D1A07947
:104D0000042809D0401CA0715AE7A079012801D0DD
:104D1000401EF8E70420F6E70120F4E708AF00089A
:104D200008B2000810010020B0AD000880AE0008F5
:104D3000A4AE0008C8AE00080B4A10B5111F081F2A
:104D4000FEF7E4FF084C143CA06101F01DFB01F0EC
:104D500007FB002201210A2003F0FEF8E061BDE814
:104D6000104000F0D1BA000024010020FEE710B589
:104D7000A0B0002480216846FBF78DFA0021204670
:104D800000F0C0F88021684600F0F0F8641CE4B23E
:104D9000082CF3D320B010BD70B50C4D002400BF1B
:104DA00004F1B000C0B200F0CDF8002000F0CAF865
:104DB000102000F0C7F805EBC410802100F0D6F8F1
:104DC000641CE4B2082CEBD370BD0000E03B002073
:104DD0002DE9F0478146C81701EB5070C0F3C705B5
:104DE00020F00700081A1844C01DC11700EB5170CD
:104DF0009246C0F3C7070024DFF8308011E02E1977
:104E0000082E0CD209F0FF01F0B200F07BF809EB9C
:104E1000C6121FFA8AF102EB080000F0A7F8641C22
:104E2000E4B2BC42EBD3BDE8F0870000E03B0020D9
:104E30008023036040200860012010600048704714
:104E4000E03B002010B50224202000F07BF8204633
:104E500000F078F81F4804703F24A82000F072F892
:104E6000204600F06FF80024D32000F06BF82046B5
:104E700000F068F8402000F065F8A12000F062F82A
:104E8000C82000F05FF80021084600F025F87F24D4
:104E9000812000F057F8204600F054F8A42000F0DC
:104EA00051F8A62000F04EF8D52000F04BF88020F5
:104EB00000F048F88D2000F045F8142000F042F88A
:104EC0000021012000F008F8BDE81040AF2000F0FC
:104ED00039B80000BC00002070B50C46050001D0B8
:104EE000012D0ED10CB1012C0BD1DA2000F02AF8E3
:104EF000280100EB4410BDE87040801CC0B200F0F7
:104F000021B870BD70B50E4D0C462978022905D127
:104F1000072803D8B030C0B200F014F8287802286F
:104F20000CD17F2C0AD804F00F0000F00BF81020F1
:104F300000EB1410BDE8704000F004B870BD000034
:104F4000BC0000201CB500218DF804108DF8050070
:104F50004FF4FA7000900448022301AA78214068B7
:104F6000FCF77CFD1CBD0000BC0000200EB54FF41A
:104F7000FA728DE807000448012340227821406836
:104F8000FCF72AFF0EBD0000BC0000201CB5154C2C
:104F900000226946E06803F097F90198E02812D0F2
:104FA000902812D0A82812D0C22812D0E22812D0FD
:104FB000022812D0982812D008B100202070207842
:104FC000FCF742F91CBD0120F8E70220F6E70320B8
:104FD000F4E70420F2E70520F0E70620EEE70720DB
:104FE000ECE70000340100207CB5144C0022694637
:104FF000206903F069F90198002805DAC0F1000082
:1050000001904FF0010005E002DD4FF0020001E0E9
:105010004FF0000060700198642801DD042604E070
:10502000322801DD022600E0012600256078FCF729
:105030000BF96D1CB542F9DB7CBD0000340100208A
:10504000034800231A461946006B03F021B80000FC
:10505000000000200148FDF747BC0000440200208A
:10506000010901EB810100F00F0000EB4100C0B22B
:105070007047002102E00A38C0B2491C0A28FAD25F
:10508000090740EA116070472DE9F0410446002508
:10509000C07B627BA37B42E0012A16D0032A14D096
:1050A000052A12D0072A10D0082A0ED00A2A0CD0BE
:1050B0000C2A0AD0042A10D0062A0ED0092A0CD0B5
:1050C0000B2A0AD0022A0DD028E01F2B0CD30C2A61
:1050D00005D101221346401C20E01E2B04D30123DE
:1050E000521C1BE01C2B02D203F1010316E011D16C
:1050F00083B29E0710D16426B3FBF6F706FB173682
:1051000036B94FF4C876B3FBF6F706FB17331BB975
:105110001D2303E01D2B01D1032201236D1C8D42B1
:10512000BAD3D1B2E0736173DAB2A27300F050F86F
:105130002073BDE8F08170B50446FCF7C5FB054659
:105140004FF47A7606E0FCF7BFFB401BB04201D972
:10515000032070BD206840688006F4D5206841684F
:1051600041F010014160002070BD000070B50446A0
:105170000068416821F010014160FCF7A5FB05467D
:105180004FF47A7607E000BFFCF79EFB401BB0426D
:1051900001D9032070BD206840688006F4D5002046
:1051A00070BD0168086A496A89B241EA00407047E7
:1051B000006881698AB2C1698BB2816989B28A4209
:1051C00003D0C06961F31F40704743EA0240704753
:1051D000F0B56424C1EBC1030927A500072603EB42
:1051E00001130329B3FBF7F100F5FA601144014400
:1051F0000AD2401EB0FBF4F201EB9001B0FBF5F0D7
:10520000891A0844001D08E0B0FBF4F201EB90019C
:10521000B0FBF5F0891A0844801CB0FBF6F106FBE0
:105220001100C0B2F0BD70B50D4606460024FFF770
:1052300082FF48B93168280C08623168A8B2486218
:105240003046FFF793FF00B10124204670BD70B5D2
:105250000D4606460024FFF76EFF48B93168280C5A
:1052600088613168A8B2C8613046FFF77FFF00B19E
:105270000124204670BD00001CB51E2002F068FE0F
:10528000204CA060FCF7C0F8E060A16802F044FE8A
:10529000FCF7C6F82061A16802F03EFEFCF7BAF800
:1052A0006061A16802F038FE4FF0FF352946A06822
:1052B00003F0A6F8A06108B3E168884202D1FFF7C5
:1052C00065FE1BE02169884202D1FFF78DFE15E0E3
:1052D0006369984212D100226946184602F0F4FF31
:1052E0000198502801DA012004E0642801DD022041
:1052F00000E00020A070C0B2FBF7A6FF052002F07E
:10530000BDFAD3E734010020044A51680A2904DABF
:10531000034B43F82100491C5160704734010020C1
:1053200094420020FEB50020009002F02BF90646C2
:105330000D46022001F080FB1C4F4FF4805138468F
:10534000FCF7B8FA00282AD0194CD4E90401321A23
:1053500065EB010317480021FAF730FF6060012177
:105360003846FCF7A7FA0028206819D0401C2060B6
:10537000C4E90465206801906068029000236A46D1
:1053800001A9E06802F03AFF0098002807D00A4916
:105390004FF080500860BFF34F8FBFF36F8FFEBD9B
:1053A000401E2060606840426060E1E7000C014000
:1053B000E800002000CA9A3B04ED00E010B500228E
:1053C00008210A2002F0C8FD0149C86010BD000094
:1053D000E8000020934D286802F0E2FB924F386805
:1053E00002F0DEFBDFF84482D8F8000002F0D8FBC0
:1053F0008F48006802F0D4FB8E4E306802F0D0FB7C
:10540000DFF83492D9F8000002F0CAFBDFF82CA2D2
:10541000DAF8000002F0C4FBDFF824B2DBF8000089
:1054200002F0BEFB8748006802F0BAFB864C00BF62
:105430004FF0FF328449A06802F046FF01280DD1E9
:10544000606860B10A2821D00B2854D00C2870D095
:105450000D286FD083286ED084286DD0DDE02078B1
:10546000052803D0E168012907D0D6E0774801215B
:10547000017077482A68016883E00328EED1002094
:10548000E0606B48006802F08BFBC6E020780328E0
:1054900004D004282BD0032808D0BEE06B48007845
:1054A000012808D002281BD003281DD067480078A7
:1054B00004281CD0B1E0684966480A8802808978CF
:1054C0008170674965480968016066490020087075
:1054D000D8F800200B20296803F034FB38686EE010
:1054E00032680C20296896E03268296892E05848B2
:1054F0002968026839E02078032804D0042836D0CF
:10550000032806D089E057480078072806D00828E5
:1055100013D054480078092829D07EE000224D4954
:105520005148FDF7D5FB00224C494F48FDF76EFB73
:1055300010E028E029E050E066E046494B480A8840
:1055400002808978817000210A4641600146464800
:10555000FDF7E6FAFBF750FF386802F021FBFFF792
:105560006FFD3B48D8F800100268002053E0FBF7BD
:1055700043FF386802F014FBFFF762FD2A68D8F891
:1055800000100A2047E0207802E02078032802D0AB
:1055900004281FD041E03648007810B1012811D00E
:1055A0003BE0FBF7F7FEDAF800208320316803F0D8
:1055B000C9FAD9F8000002F071FA2248006802F036
:1055C0006DFA2AE0112000F063F8DBF80020842057
:1055D000316820E02A683168D3E7207804281CD19C
:1055E000FBF70AFFDAF8000002F0DAFAFFF728FD0D
:1055F000FBF702FF1348006802F0D2FAFFF720FD24
:105600003268D9F8001005E02078042805D1326806
:10561000DBF800100D2003F095FA322002F02EF98D
:1056200006E700000C0000201800002014000020F5
:105630002C0000201C00002020000020240000205E
:105640002800002008000020500100201601002042
:1056500010000020630100201801002066010020D6
:105660003001002062010020440200206C01002073
:105670001701002010B5002201210A2002F06CFC65
:1056800002498860BDE81040FFF73EBE500100208F
:105690000149886070470000940100206B4C6A4FFC
:1056A000002601254FF03C0A04F106084FF03B0BA1
:1056B00004F10309207858B965482570A67001885F
:1056C000A4F803108078607162480068C4F806008E
:1056D0005E494FF0FF32491C386802F0F5FD0128A1
:1056E000E8D1607801280ED0022812D0062818D000
:1056F0000728DFD1A0780728DCD2DFE800F0606A55
:10570000747E88919B00A07808B1401E05E00920B6
:1057100003E0A078092802D0401CA070CAE7A67058
:10572000C8E7A0780728C5D2DFE800F0040F1A23E5
:105730002E373F0098F803006422401CB0FBF2F3C0
:1057400002FB130088F80300B4E798F801000C2866
:1057500002D388F80150ADE7401C88F80100A9E7A2
:1057600098F802101F2902D388F80250A2E7491CBA
:1057700040E098F800000722401CB0FBF2F302FB67
:10578000130088F8000095E799F800101822491CCA
:10579000B1FBF2F302FB13113DE099F80100401C4C
:1057A000B0FBFAF30AFB13003EE099F80200401C3C
:1057B000B0FBFAF30AFB130089F802007AE798F8C5
:1057C000031021B1B1F1010188F8031072E76321E0
:1057D000FAE798F80110012901D80C2100E0491ED0
:1057E00088F8011066E798F80210012901D81F21F6
:1057F00000E0491E88F802105CE798F8001021B11B
:10580000B1F1010188F8001054E70621FAE799F890
:10581000001019B1491E89F800104BE71721FAE76B
:1058200099F8010018B1401E89F8010042E789F893
:1058300001B03FE799F8021019B1491E89F802102A
:1058400038E789F802B035E72C010020600100201C
:10585000180100203001002010B5502080F311887D
:10586000BFF34F8FBFF36F8F02F036FF18B10449BB
:105870004FF080500860002080F3118810BD0000B8
:1058800004ED00E030B593B028216846FAF703FD37
:1058900014210AA8FAF7FFFC002401210F941194A7
:1058A000052012940090CDE9024110944FF480300D
:1058B000019002250491CDE907504FF4E0100990C2
:1058C0006846FCF765FE08B172B6FEE70F20CDE929
:1058D0000A054FF48060CDE90C4002210AA80E941D
:1058E000FCF75AFD08B172B6FEE713200F904FF493
:1058F00080701090C001CDE911040FA8FCF7D6FC10
:10590000002801D072B6FEE713B030BD704700002A
:105910000148FDF728BC0000C0060020F0B5026871
:10592000164B174C174D4FF08047984205D0B842A0
:1059300003D0A04201D0A84203D122F070064A68E9
:105940003243984205D0B84203D0A04201D0A842C9
:1059500003D122F44074CA6822434C6922F08002C9
:10596000224302608A68C2620A688262984201D158
:105970000969016301214161F0BD0000002C014073
:10598000000400400008004010B5846842EA032289
:1059900024F47F440A432243826010BD826822F0CF
:1059A00070020A4342F007018160704730B5036A14
:1059B000026A22F0010202624268846924F07305DF
:1059C0000C682C4323F002058B682B430A4DA84238
:1059D0000BD123F00805CB6822F440722B434D69AC
:1059E00023F0040315438A692A43426084614968AD
:1059F0004163036230BD0000002C014030B5026AF3
:105A0000036A23F010030362436884690D6824F479
:105A1000E64444EA05248D6822F0200242EA051299
:105A20000B4DA8420ED1CD6822F0800242EA051249
:105A30004D6923F4406343EA85038D6922F04002F7
:105A400043EA85034360846149688163026230BD33
:105A5000002C014030B5036A026A22F480720262AF
:105A60004268C46923F4007324F073050C682C4366
:105A70008D6843EA05230C4DA8420ED1CD6823F46E
:105A8000006343EA05234D6922F4405242EA0512BD
:105A90008D6923F4806342EA05124260C46149685B
:105AA000C163036230BD0000002C014030B5046AC0
:105AB000026A22F4805202624268C3690D6823F4CC
:105AC000E64343EA05238D6824F4005444EA053490
:105AD000064DA84204D14D6922F4804242EA851263
:105AE0004260C36149680164046230BD002C01401A
:105AF00010B5036A046A24F001040462846924F086
:105B0000F00444EA021423F00A020A4384610262A8
:105B100010BD10B5036A046A24F01004046284699D
:105B200023F0A00324F4704444EA023243EA011152
:105B30008261016210BD000070B504460068016911
:105B4000E26821F44051114301612169A0680843D2
:105B5000616908432168CA6841F20C639A430243B1
:105B6000CA6020684169A26921F440711143416112
:105B70001E492068884202D1FCF7D4FC01E0FCF702
:105B8000C1FC00EBC00101EB0012606864218000E1
:105B9000B2FBF0F3B3FBF1F36FF018067343B2FB03
:105BA000F0F5B2FBF0F605EB8305322303EB0515A8
:105BB000B5FBF1F5B6FBF1F605F0F00505EB0615C2
:105BC000B2FBF0F6B2FBF0F0B0FBF1F06FF01802B0
:105BD000504306EB800003EB0010B0FBF1F02168AE
:105BE00000F00F002844886070BD000000380140BC
:105BF0000020704700207047012120F8401F00213D
:105C00000180818001820846704730F8401F21F4EE
:105C10003F4101800020704700207047FEE70000F0
:105C20000FB4084B10B504A902AA039800F090F82D
:105C3000044602A9002000F067F9204610BC5DF878
:105C400014FB0000095F00080907090E002804DBA7
:105C500000F1E02080F80014704700F00F0000F120
:105C6000E02080F8141D70472DE9F0414F1E00EB35
:105C7000C7010446D1E9000115461E4637F0060269
:105C80000DD02A463346FAF72CFC7F1E04EBC703DF
:105C9000D3E90023FAF77EFB37F00602F1D1022F99
:105CA00025D0042F13D0062F18BFBDE8F0812A4657
:105CB0003346FAF716FCD4E90A23FAF76BFB2A46B7
:105CC0003346FAF70EFCD4E90823FAF763FB2A46B9
:105CD0003346FAF706FCD4E90623FAF75BFB2A46BB
:105CE0003346FAF7FEFBD4E90423FAF753FB2A46BE
:105CF0003346FAF7F6FBD4E90223FAF74BFB2A46C0
:105D00003346FAF7EEFBD4E90023BDE8F041FAF799
:105D100041BB0122FAF757BC002213461046114638
:105D2000FAF799BD02E008C8121F08C1002AFAD18B
:105D300070477047002001E001C1121F002AFBD10B
:105D4000704700000149086070470000BC01002056
:105D50002DE9FF4F8BB09A460F460546002606E018
:105D600025280BD052460D9990476D1C761C28783B
:105D70000028F5D10FB03046BDE8F08F0024A046D2
:105D80000122604900E0044315F8013F203B02FA7C
:105D900003F00842F7D128782E2817D115F8010F03
:105DA00044F004042A280ED06FF02F022878A0F1C6
:105DB000300109290AD808EB880102EB410100EB08
:105DC00001086D1CF2E757F8048B6D1C28786928D0
:105DD0003ED006DC0028CDD063280BD0642804D147
:105DE00036E0732810D075284BD052460D99904755
:105DF000761C85E017F8040B8DF8000000208DF864
:105E00000100E946012003E057F8049B4FF0FF3002
:105E100061074FF0000401D40AE0641C44450DDA28
:105E20008442FADB19F804100029F6D106E0641C5C
:105E30008442FCDB19F804100029F8D1264404E060
:105E400019F8010B52460D999047641EF8D257E09D
:105E500001CF4FF00A0B002802DA40422D2102E068
:105E6000210504D52B218DF82410012103E0E10741
:105E700005D02021F7E70DF1200908910CE0002161
:105E8000F9E701CF4FF00A0BF9E75946FAF718FC8A
:105E900001F1300209F8012D0028F6D1ADEB09001F
:105EA00000F1200B600701D44FF00108D84502DD56
:105EB000A8EB0B0000E000208046002406E009A8C3
:105EC0005246005D0D999047641C761C08988442E8
:105ED000F5DB04E0302052460D999047761CB8F16E
:105EE0000001A8F10108F5DC05E019F8010B5246A4
:105EF0000D999047761CBBF10001ABF1010BF4DC6E
:105F00006D1C34E7092801000A68531C0B601070EF
:105F1000704700002DE9F04D0546DFF8388221F08A
:105F200000408D4F82B00C46404520DBA0EB0801BD
:105F300029430BD08949884201DC10D17DB102B0E0
:105F400028462146BDE8F04DFFF7E3BE002CC7BF51
:105F5000002001468248394602B0BDE8F08D01209C
:105F6000FFF7F0FE02B0BDE8F04DFFF7D5BE7D496A
:105F7000884244DA7C498142A1BF79487B4902B01A
:105F8000BDE8F08D2A46234610461946FAF7A9FACD
:105F90008346024676480E460B4606217844FFF7B4
:105FA00063FE5A463346FAF79CFA074671488A461A
:105FB0005A46334604217844FFF756FE5A46334684
:105FC000FAF78FFA00224346FAF7E4F902460B4645
:105FD00038465146FAF73FFC2A462346FAF781FA3B
:105FE000654A664BFAF77AFA2A462346FAF776FAB2
:105FF00002B05B4ABDE8F04D5C4BFAF76FBA002C7B
:106000004FF000024BDA4646434628462146FAF74F
:10601000C1F94FF0FF32FAF7D6FA04460246584863
:106020000D460B4606217844FFF71EFE22462B46FE
:10603000FAF757FA804653488A4622462B460421EF
:106040007844FFF711FE22462B46FAF74AFA00225F
:106050003346FAF79FF906468B462046294601F05B
:106060006AFA04460D4632465B4640465146FAF708
:10607000F2FB22462B46FAF734FA3F4A3F4BFAF737
:106080002AFA22462B46FAF785F90122FAF79BFAFB
:1060900002B03B46BDE8F04D314AFAF71FBA2D4B2E
:1060A00028462146FAF71AFA4FF0FF32FAF78BFA30
:1060B00005460E4601F03FFA00270C4680463A4658
:1060C0000B46FAF767F982468B463A462346104656
:1060D0001946FAF706FA2A463346FAF7FFF9524606
:1060E0005B46FAF7B8FB824627488B462A4633467A
:1060F00006217844FFF7B8FD2A463346FAF7F1F94E
:10610000CDE9000121482A46334604217844FFF7AF
:10611000ABFD2A463346FAF7E4F900220D4BFAF7B5
:1061200039F902460B46DDE90001FAF794FB4246D5
:106130002346FAF7D6F952465B46FAF72BF93A4668
:106140002346FAF727F902B00122BDE8F04DFAF72D
:106150003ABA00000000F03FFB2109400000F07F48
:10616000182D44540000E03F0000603CFB21F93F43
:10617000905D0000A65D0000075C143326A6913CEC
:10618000065D00001C5D00003A5C0000505C0000F1
:106190002DE9FF4F93B01F4622991498DDF88080B7
:1061A000401AC0B20C9008F10700C00809900C9882
:1061B000002600F007000B9014984044C0B20590F0
:1061C000C4E00C9800EBC60000F0FF0A0AF10800DA
:1061D000C0B20A902298A8B114990A98884256D35E
:1061E0005E498968884252D805998A45FBD8FF20C4
:1061F00011901498824508D2A0EB0A01FF20884034
:10620000C0B200E0FF20119007E005990A9888428B
:1062100003D9411AFF20C840F5E750484FEADA0297
:1062200041684A430792159A06FB072206920B9A89
:1062300072BB836881469A452AD24FF0080AB8F1AA
:10624000080F00D2C24600241BE013982044C5B2B8
:10625000D9F80400854212D206982199204401F011
:106260004DF9119953460140079800220544D9F889
:106270000000405D01F054F9D9F800104855641C45
:10628000E4B2BC42E1D3A8EB0A0000F0FF085BE0F7
:106290000A9A4446D2084A430025109251E00B98CE
:1062A0004446C0F1080081460F90A04200D9C14683
:1062B0001398284400F0FF0B2848406883453ED2DD
:1062C00006982199284401F019F9119908402349A9
:1062D000039089688A4511D2079920485944129140
:1062E00000684B460B9A405C039901F019F91B4A70
:1062F000129912685054A4EB0900C4B2FCB11748BB
:106300000A99826891421AD2C9F1080101F0FF0985
:10631000A14500D9A1460F9A03991048D140109A7F
:10632000006893444B4610F80B00002201F0F8F887
:106330000A49096801F80B00A4EB0900C4B26D1CFE
:10634000EDB2BD42ABD3A046761CF6B209988642A8
:10635000FFF437AF17B0BDE8F08F00000001002058
:10636000FDF7D0BC2DE9F0411C4615460E46074608
:10637000FBF742F823462A4631463846FDF7C4FC6F
:10638000BDE8F041FEF75CBE044A10B5111F081FBE
:10639000FDF7BCFC01490C39086010BD0C01002060
:1063A0002DE9FE4F9B4691460F4606460025DFF835
:1063B000988043E0C5EBC50202EB0901CCB208228C
:1063C00000210092CDE901712038C0B21F4900EBD5
:1063D00080004218052359462046FFF7D9FE0823BE
:1063E000052259462046FFF7BDFF27B384B1A4F12B
:1063F000010A0AF0FF01FF235A46D8F8000001F015
:1064000083F80AF0FF00082301225946FFF7AAFF8C
:10641000D8F80410491F8C420DD2641DE1B2FF234D
:106420005A46D8F8000001F06FF8E0B208230122C4
:106430005946FFF797FF6D1CEDB2761C30780028A7
:10644000B8D1BDE8FE8F000000010020CB8B000812
:106450002DE9F0411D46164688460446F9F726FF09
:10646000C0B2401C00F0B2FA07462146F9F725FFFA
:106470002B46324641463846FFF792FF3846BDE884
:10648000F04100F001B8000010B5002821D0114BF8
:106490000022001F196803E0814203D80A464968B8
:1064A0000029F9D152B11368841A9C4204D10068C2
:1064B00018441060104602E0506000E0186039B1E6
:1064C00002680B1A934203D10B681A4402604968B0
:1064D000416010BDB40100202DE9F04FD44C8FB0C5
:1064E0006089A02829D2E078FF2826D00020E0711A
:1064F000D04D012020726868FAF79BF8C6B2286870
:10650000FAF797F800270221CDE900170B46C0B231
:10651000C94A31460297FFF73BFE6868FAF789F8E7
:10652000C6B22868FAF785F8C0B2082302223146BD
:10653000FFF718FFE07910B10BE00120D7E7A96859
:106540002868F9F7C3FE2860E9686868F9F7BEFEB5
:1065500068606772D5E900B0BA46A846FAF769F8EC
:106560000027C6B23D46A1465FF00004D9F80C00F2
:10657000C05DD8BBA8000490FAF745F85946FAF771
:106580008BF833D8042000EB8500FAF73CF8594625
:10659000FAF78CF82AD2082000EB84010D91B14261
:1065A00024D80C2101EB8401B1421FD9D9F80C2069
:1065B00001210323D155CDE9000A0D98CDF808A09B
:1065C000C1B204989C4AC0B2FFF7E2FD0D980823BF
:1065D000C1B204980322C0B2FFF7C4FE012089F8BB
:1065E0000900B9F80A00401CA9F80A007F1C641CC5
:1065F000E4B2FFB2052CB9D36D1CEDB2202DB3D39C
:10660000D9F810004C46801EF9F7FDFF5946FAF7FD
:1066100043F812D289498B4503DD4146C8F800A0F2
:1066200006E02069801EF9F7EEFF4146C8F8000039
:10663000896881F00041C8F808101BF1FF4F07D3AB
:10664000C8F800A0D8F8081081F00041C8F8081078
:10665000E079002590BB6069801F86422ED3F02E22
:106660002CD227466079F9F7CEFF5946FAF714F88D
:1066700024D878790C30F9F7C6FF5946FAF716F89E
:106680001CD878690125801FF9F7BDFFC8F8040000
:10669000D8F80C004746B0F5000F02DB80F0004050
:1066A000F860F9F7CDFDF9F7A5FF6FF01D01F9F7D7
:1066B00065FE4FF07E51F9F75BFEB860E079284344
:1066C0001BD16069811E8E4201D8617AA9B1F02E7A
:1066D00002D9C8F804A00AE0617A254639B9401EFB
:1066E000F9F791FFC8F80400E878401EE870D8F880
:1066F0000C1081F00041C8F80C104546D8F8040091
:10670000F9F797FFC6B22868F9F793FF0222CDE99F
:10671000002A1346484AC0B2113A3146CDF808A0C3
:10672000FFF736FD6868F9F784FFC6B22868F9F705
:1067300080FFC0B2082302223146FFF713FE207A01
:1067400058B3002684F808A037460025E068805D2D
:10675000C8B90821CDE9001A374A01EB85084FEA8C
:10676000870908F0FF0109F0FF0003230F3ACDF875
:1067700008A0FFF70DFD08F0FF0109F0FF00082356
:106780000322FFF7EFFD761C6D1CEDB2F6B2052D6E
:10679000DCD37F1CFFB2202FD7D3628928A108A8A1
:1067A000FFF73EFA00231A46194608A8FFF7F8FD3E
:1067B000E078FF2827D0002522E0E0784FF008019C
:1067C000CDE9001A8542CDF808A0207C4FF00703E0
:1067D00000EBC500A0F11800C0B201D2194A00E0D8
:1067E000154A0121FFF7D4FC207C082300EBC500EB
:1067F0001838C0B207220121FFF7B4FD6D1CEDB2BD
:1068000020798542D9D36089A02805D3202332225C
:1068100000210DA0FFF71CFEE078FF2805D1202302
:10682000222200210AA0FFF713FE0FB0BDE8F08F6F
:1068300074010020BC420020DABC00080000704354
:1068400025750000C48B000857494E210000000048
:1068500047414D454F564552210000000C4A111F3B
:10686000081FFDF753FA0A4C183CE061FFF78CFD56
:10687000FFF776FD0125607820B9FDF749FAFDF7AD
:106880003FFA6570FFF728FE052000F0F7FFF2E7FA
:106890008C0100200EB53A4A111F081FFDF736FA89
:1068A000DFF8DCA0AAF1140ACAF81800FFF76CFDA3
:1068B000FFF756FD4FF001094FF0100B4FF00008A5
:1068C0000025002405EB051616F11006CDE9009809
:1068D0002701F1B2F8B208232A4ACDF80880FFF761
:1068E00057FCF1B2F8B210230F22FFF73BFD641CF6
:1068F000082CEBDB6D1C032DE3DBCDE900B8CDF8F4
:106900000880204A46465C4655469AF808109AF890
:1069100004000F230832FFF73BFC297A2879102363
:106920000F22FFF71FFD184815494FF0FF321439A9
:10693000006801F0C9FC01281ED1CDE9004602968D
:10694000104A297A28790F232632FFF721FC297A69
:10695000287910230F22FFF705FD2878062802D09A
:10696000072804D008E0A86830B1113803E0A8680F
:10697000332801D01130A8601E2000F07FFF9FE770
:10698000A8010020E6BC00082C010020FBF7F2FA69
:10699000FEF778FFFDF74CFCFDF7FAFCFDF732FB44
:1069A000FDF7B4FDFDF7F4FEFDF7D4FDFDF73AFE6B
:1069B000FDF796FEFDF7D0FEFDF70AFD00F04AF860
:1069C000FDF748FB00F062F8FEE70000F0B50B3081
:1069D000154D20F007010024144A0FE003688B4294
:1069E0000BD38B4205D95E1A43184768C3E9006789
:1069F00000E04368136002C004E0021D1068002834
:106A0000ECD12046002802D1286808B10020F0BD52
:106A1000064A07481060074A121A22F00702C0E926
:106A2000002401202860D7E7B8010020B40100202D
:106A3000D4420020D044002070B5054600244FF415
:106A40007A7603E0304600F0BFFD641CAC42F9DB0F
:106A500070BD0000EFF3058058B9EFF3108040B926
:106A600009490868022801D030B109E0EFF311802C
:106A700030B16FF0050070470120086000207047BA
:106A80004FF0FF30704700009400002010B5EFF386
:106A9000058060B9EFF3108048B90B4908680228F7
:106AA00002D0012806D00BE0EFF3118040B16FF067
:106AB000050010BD0220086001F02EF8002010BD76
:106AC0004FF0FF3010BD0000940000200EB53B4C8D
:106AD00004F11802111F6579081FFDF717F9E0612D
:106AE000FFF752FCFFF73CFCDFF8D48000264FF0A4
:106AF000FF390827207828B9FDF70AF9FDF700F9D2
:106B000001202070CDE900760296207D0C23083804
:106B1000C1B22C4A2846FFF73BFB207D08230838EA
:106B2000C1B20C222846FFF71DFC24494A46891DA4
:106B3000D8F8000001F0C8FB0128DBD1A079A070D3
:106B4000CDE900760296207D1E4A0838C1B20C239A
:106B50000C322846FFF71CFB207D08230838C1B201
:106B60000C222846FFF7FEFBA078022802D001285D
:106B700002D003E0ED1C00E0ED1EEDB2A670FA2D90
:106B800001D9002504E020690C38854200D9C5B23E
:106B9000CDE900760296207D0C230838C1B2094A5F
:106BA0002846FFF7F5FA207D08230838C1B20C22E9
:106BB0002846FFF7D7FB65719CE7000074010020B1
:106BC0002C010020CEBC00082DE9F041134C0F46EB
:106BD000054666692068001D00F012FD681C07D19B
:106BE00037B12168BDE8F0410D48091D00F066BDD0
:106BF00020683544B5424560216805D2A068BDE8EB
:106C0000F041091D00F042BD6068091D00F03EFD25
:106C1000206B854200D22563BDE8F081440000204E
:106C2000F80B00202DE9F041054600F053FD2D4CF6
:106C30002069401C206120682B4F10B1E06930B3FF
:106C40002BE025602069012827D1002606EB86006D
:106C500007EB800000F00CFD761C382EF6D323489D
:106C600000F006FD2148143000F002FD1F482830D6
:106C700000F0FEFC1D483C3000F0FAFC1B48503090
:106C800000F0F6FC194860601430A06005E0206850
:106C9000E96AC06A884200D82560E06A401CE06268
:106CA0006864E86AA169884200D9A06100EB8000AD
:106CB00007EB8000291D00F001FD00F02BFDE069CD
:106CC00000280CD02068E96AC06A884207D20849C7
:106CD0004FF080500860BFF34F8FBFF36F8FBDE858
:106CE000F08100004400002048070020A80B00208D
:106CF00004ED00E038B500F0EDFC104CA068C8B918
:106D00000F4800F0B5FC0E48143000F0B1FC0C4800
:106D10002060143060600A4B00202833009003F19B
:106D2000540210210A2001F03BF9A06010B105A126
:106D300000F06EFDBDE8384000F0ECBC80000020A3
:106D40000C0C0020546D72510000000030B4026C35
:106D50000B46002A0BD0C1681144C1604468A142AF
:106D600001D30168C16030BC1846F9F77BBA30BC6A
:106D700070472DE9F041856B174604460026026CEA
:106D800082B1C7B1E068F9F76DFAE168206C091AC1
:106D9000E1602268914202D26168081AE060022F25
:106DA00016D017E02068A8B9606801F0F9FC064623
:106DB000002060600EE0A068F9F754FA216CA0682A
:106DC0000844A0606168884204D32068A06001E0A4
:106DD00005B16D1E6D1CA5633046BDE8F08110B590
:106DE000044690F8590058B101280CD002280FD061
:106DF000502080F31188BFF34F8FBFF36F8FFEE7F2
:106E0000206B00F09BFC2046BDE8104000F096BCD3
:106E100010BD000010484FF42051420706D0C01D9D
:106E20000D4920F00700411AC1F520510B4A0023FB
:106E30000144C2E900030839103A21F0070111604A
:106E40004B600B600B1AC0E9001393604FF00040D9
:106E50005360D06070470000E0130020A8000020BD
:106E6000144E154CA6F29C474FF08058DFF84C901A
:106E700012E000BF00F02EFCF068C568281D00F08D
:106E8000BFFB2069401E2061E068401EE06000F00A
:106E900041FC2846FFF7A3FFE0680028EAD13868E4
:106EA0000128F9D9C9F80080BFF34F8FBFF36F8F66
:106EB000F2E70000E40B00204400002004ED00E0B5
:106EC000002807D00021416001600B460A46C160DE
:106ED00001F0DEB87047000070B51D46049C61B13A
:106EE000C4F80020C4E90F010121204601F08CF80C
:106EF00084F850500020A06470BD2460F2E72DE9B2
:106F0000F0470E46DDE9098417468246910099460E
:106F1000089DA522206BF9F7B7F96FF00301206BEC
:106F200001EB8701084420F00707780707D05020BD
:106F300080F31188BFF34F8FBFF36F8FFEE72218E6
:106F4000315C82F83410315C11B1401C1028F6D34A
:106F5000002684F84360382D00D33725E562C4E964
:106F60001356201D00F08FFB04F1180000F08BFB7E
:106F70002461C5F138006462A061666584F85860D8
:106F80004A465146384600F0A7FA2060B8F1000F93
:106F900001D0C8F80040BDE8F087000030B51149C5
:106FA00000E011460A688242FBD34B685C188442B9
:106FB00003D1406818444860084643681C1894424E
:106FC00009D1084C103C2468A24209D052681A44E6
:106FD00042600A6812680260814200D0086030BDD9
:106FE0000460F9E7A800002070B5002441600B4D53
:106FF0000061914206D8D11A8269914206D2011DE0
:10700000686807E09A4203D2994201D3012403E061
:10701000011D286800F03AFB204670BD800000206A
:1070200010B5044600F056FBA06B28B15FF00004D9
:1070300000F070FB204610BD0124F9E773B500266F
:107040000098846C5CB1A26BE06B82420FD350203D
:1070500080F31188BFF34F8FBFF36F8FFEE750208F
:1070600080F31188BFF34F8FBFF36F8FFEE7A26BE2
:1070700082420CD294F945500A4669462046FFF7F1
:1070800078FE0646681C04D06D1C84F845503046D6
:107090007CBD606A0028FAD004F1240001F0FCFBFA
:1070A0000028F4D00126F2E730B589B0304D55E024
:1070B0000498002806DADDE90601059A904704984D
:1070C00000284BDB069C606910B1201D00F098FA87
:1070D00002A800F0B9F8024604980A283ED2DFE878
:1070E00000F00505053D263705053D260598A169F3
:1070F000034601442046FFF777FF00B3616A20464C
:107100008847E069012829D1002000900598A169ED
:10711000002342181946204601F0CCFC78B95020D3
:1071200080F31188BFF34F8FBFF36F8FFEE7059891
:10713000A06128B1811813462046FFF755FF0DE0E6
:10714000502080F31188BFF34F8FBFF36F8FFEE79E
:1071500094F82C0010B9204600F0F0FA002204A99F
:10716000A86801F0B1F80028A2D109B030BD000034
:10717000800000202DE9FC410F46054600F05EFD31
:1071800001A800F061F80446019818B101F0BCFBB9
:10719000BDE8FC81224EAFB170680068A8B300273B
:1071A000291B3A46B06800F047FB01F0ADFB002810
:1071B000EED11C494FF080500860BFF34F8FBFF3F2
:1071C0006F8FE5E7A542EBD801F09EFB30682746BC
:1071D000C068C468201D00F013FAE069012810D1CE
:1071E000A0692B4641193A462046FFF7FDFE40B103
:1071F00000200346014600902A46204601F05AFC32
:1072000020B1616A20468847C2E707E0502080F33A
:107210001188BFF34F8FBFF36F8FFEE70127BFE7E2
:107220008000002004ED00E006484168096829B1AB
:107230004168C968C9684968016370474FF0FF3108
:10724000FAE700004400002070B5054601F03EFA60
:10725000064E04463069844203D200F009F801204A
:1072600000E0002028602046346170BD80000020CE
:10727000F8B5194D1FE0C068C4680668201D00F00D
:10728000BFF9616A20468847E069012813D1A069E7
:107290003044B04206D924616060211D286800F0A6
:1072A000F5F908E0002003460146009032462046EA
:1072B00001F000FC38B1286801680029DBD1696859
:1072C000C5E90010F8BD502080F31188BFF34F8F3F
:1072D000BFF36F8FFEE70000800000200848406881
:1072E000401C4FF0500080F3118804D0BFF34F8F43
:1072F000BFF36F8FFEE7BFF34F8FBFF36F8FFEE7D4
:10730000B0000020002150B10A4B42699A420FD1CF
:10731000806AA3F1280290420AD040B108E05020D0
:1073200080F31188BFF34F8FBFF36F8FFEE701210A
:1073300008467047F80B00200346002012B199431D
:1073400002D070470B42FCD001207047074C2068E8
:10735000016841B1C0680021D0F80000FFF70AFFC2
:10736000FFF7A2FEF3E701210020F7E780000020ED
:107370002DE9F041044600F0ADF994F9455004F1CF
:10738000240610E0A06C20B100212046FFF756FE35
:1073900004E0606A48B1304601F07EFA08B100F0BE
:1073A0009BFA6D1E6DB2002DECDC4FF0FF3684F8B9
:1073B000456000F0AFF900F08DF994F9445004F104
:1073C000100709E0206948B1384601F065FA08B1B4
:1073D00000F082FA6D1E6DB2002DF3DC84F844607B
:1073E000BDE8F04100F096B92DE9F04105460027CF
:1073F00000F024FC314E306808B9FFF70BFDF0684F
:1074000005424BD1C5B3083568070ED005F007001B
:10741000C0F108000544680707D0502080F31188A8
:10742000BFF34F8FBFF36F8FFEE72DB370688542B8
:1074300034D82248103001460C6801E020460C4642
:107440006168A94202D221680029F7D131688C42D3
:1074500024D007682168016060680837411B102943
:107460000FD96019420708D0502080F31188BFF36C
:107470004F8FBFF36F8FFEE710E041606560FFF74D
:107480008DFD61687068401A7060B268904200D2E9
:10749000B060F06801430020C4E9000101F034FA53
:1074A000780707D0502080F31188BFF34F8FBFF3C8
:1074B0006F8FFEE73846BDE8F0810000980000209D
:1074C0000449086818B10868026D521C0265086812
:1074D000704700004400002010B5031F4FF0807477
:1074E0001C601B1F21F001011960191F024B0B606A
:1074F000143940380A6010BDDD7200080078002998
:1075000001D0C043C0B2704710B5044CD2086468C3
:1075100002FB0411425C1A43425410BD00010020DA
:1075200010B501249C40641E21409440A04391402A
:107530000143C8B210BD2DE9F04106460F46F9F7E8
:107540000BFA041E0D4618BF0120284320F000400E
:10755000C0F17F6000F1E040C00F0ED0301C18BFBA
:107560000120384320F00040C0F17F6000F1E0408E
:10757000C00F04BF0120FEF7E5FB20462946BDE809
:10758000F08100002DE9F0410D4CFAF79DF92268D9
:107590000023516AD26A0B4DA0FB054703FB05751A
:1075A00000FB0355074FA1FB070C03FB07C701FBBB
:1075B0000371F8F703FE00196941BDE8F08100008E
:1075C000C006002040420F0030B50C4A002113686D
:1075D000DC6A4FF47A726043B0FBF2F55A6A586A7B
:1075E0009042FCD002D9A0EB020202E0A4EB02021E
:1075F000024411440246A942F1D330BDC006002026
:10760000D0E9013201699A60D0E901235A604A68E1
:10761000824201D182684A60002202610868401EED
:107620000860086870470000044908680A688069B3
:10763000D26A0968C2F138028A61704744000020AA
:10764000034B036003F15C0008608020106070470A
:10765000280D0020044B036003F15C0008604FF428
:107660008070106070470000840F002000F02EBB77
:1076700000F108014FF0FF32C0E90112C160016161
:1076800000210160704700210161704730B50B682F
:107690005A1C02D000F1080202E0026904E022460E
:1076A000546825689D42FAD953684B6099608A6096
:1076B000516008610168491C016030BD42684A6040
:1076C00093688B6093685960916008610168491CF8
:1076D00001607047502080F31188BFF34F8FBFF3D4
:1076E0006F8F0A494868401C486001280CD108483F
:1076F000006810F0FF0F07D0502080F31188BFF30F
:107700004F8FBFF36F8FFEE770470000B00000207F
:1077100004ED00E00849486828B1401E486001D1E6
:1077200080F311887047502080F31188BFF34F8F8A
:10773000BFF36F8FFEE70000B000002070B5002897
:1077400027D0144DA0F108046168E868014207D110
:10775000502080F31188BFF34F8FBFF36F8FFEE788
:1077600022683AB1502080F31188BFF34F8FBFF3E6
:107770006F8FFEE78143616000F060FA60686968BE
:10778000084468602046FFF709FCBDE8704001F03E
:10779000BBB870BD980000204FF0E02000210161CF
:1077A000816105494FF47A720968B1FBF2F1491E13
:1077B00041610721016170474000002010B5F8F7D2
:1077C000E7FC114910280ED300F1E02090F8F003F7
:1077D0000A78904207D2502080F31188BFF34F8F70
:1077E000BFF36F8FFEE709480068896800F4E06026
:1077F000884207D9502080F31188BFF34F8FBFF321
:107800006F8FFEE710BD0000B00000200CED00E01F
:1078100010B5084B002200BF53F832401CB1521C77
:10782000082AF9D310BD43F8321003EBC2014860B7
:1078300010BD00000807002070B515460E4604462E
:10784000FFF748FF94F944100020491C01D184F847
:10785000440094F94510491C01D184F84500FFF714
:1078600059FFA06B28B92A46314604F1240000F0E4
:1078700051F82046BDE87040FFF77ABD10B5020010
:1078800014D00F48806B38B1502080F31188BFF3BB
:107890004F8FBFF36F8FFEE700F0D0F90021104645
:1078A000FFF792F901F030F8002807D105494FF0B1
:1078B00080500860BFF34F8FBFF36F8F10BD000083
:1078C0004400002004ED00E002498A6A0260496930
:1078D0004160704744000020014901204862704720
:1078E0004400002010B50C4650B109490968183110
:1078F000FFF7CCFE2046BDE810400121FFF764B938
:10790000502080F31188BFF34F8FBFF36F8FFEE7D6
:107910004400002070B514460D4668B10A49096854
:107920001831FFF7CBFE0CB14FF0FF35214628464A
:10793000BDE87040FFF748B9502080F31188BFF3CD
:107940004F8FBFF36F8FFEE74400002010B5144641
:10795000030011D01048826BB2B1026841F00041BF
:107960009161016818461831FFF7A8FE2046BDE86E
:1079700010400121FFF728B9502080F31188BFF390
:107980004F8FBFF36F8FFEE7502080F31188BFF356
:107990004F8FBFF36F8FFEE74400002070B50400E7
:1079A0003ED0226DA2B1E06C884200D30146E06A6D
:1079B000884235D0012A33D11A4D2A6894420FD11A
:1079C000502080F31188BFF34F8FBFF36F8FFEE716
:1079D000502080F31188BFF34F8FBFF36F8FFEE706
:1079E000E162A269002A02DBC1F13801A1610E4EF9
:1079F00000EB8000616906EB8000814210D1201D00
:107A0000FFF7FEFDE06AA969884200D9A86100EB92
:107A1000800006EB8000211DBDE87040FFF74EBEE0
:107A200070BD0000440000204807002070B5194DCB
:107A3000AA6BF2B141F000410160C4680CB3FFF7DA
:107A4000DFFD201DFFF7DCFDE06AA969884200D94F
:107A5000A861114900EB800001EB8000211DFFF7B8
:107A60002DFEE06A2968C96A884201D9012068624E
:107A700070BD502080F31188BFF34F8FBFF36F8F1D
:107A8000FEE7502080F31188BFF34F8FBFF36F8F55
:107A9000FEE70000440000204807002070B5040005
:107AA0002AD01A4D286884422ED0FFF713FE2046B4
:107AB000FFF728FCE0B1201DFFF7A2FDE06AA969ED
:107AC000884200D9A861124900EB800001EB8000D8
:107AD000211DFFF7F3FDE06A2968C96A884207D3D0
:107AE0000C494FF080500860BFF34F8FBFF36F8F8A
:107AF000BDE87040FFF70EBE502080F31188BFF341
:107B00004F8FBFF36F8FFEE770BD00004400002071
:107B10004807002004ED00E030B587B0002403944E
:107B200005AA04A903A80494FFF78AFDDDE903016F
:107B30000094CDE90110002315A11748059A00F023
:107B40008CFD164D002868631FD000F083FF0128CC
:107B500009D0401C19D1502080F31188BFF34F8FFA
:107B6000BFF36F8FFEE7502080F31188BFF34F8F74
:107B7000BFF36F8F4FF0FF3028630120E8616C6125
:107B800007B0BDE8304000F073B907B030BD000069
:107B900049444C4500000000616E0008440000208C
:107BA00070B50446FFF796FD214D04B92C68201DE1
:107BB000FFF726FDA06A18B104F11800FFF720FDB9
:107BC000211D1C48FFF77AFD94F858000026012873
:107BD00001D184F85860FFF79DFDE86928B1FFF7EF
:107BE00079FDFFF721FBFFF795FD2868844213D14B
:107BF000E86990B1A86B38B1502080F31188BFF3C9
:107C00004F8FBFF36F8FFEE70B494FF08050086036
:107C1000BFF34F8FBFF36F8F70BD064800682969AF
:107C2000884201D12E6070BDBDE8704000F00EB8F2
:107C300044000020F80B002004ED00E00248816BB6
:107C4000491C81637047000044000020164810B5AD
:107C5000816B11B10121416210BD00214162816936
:107C6000124A01E0B9B1491E01EB810352F82330F9
:107C7000002BF7D001EB810302EB830202F1080431
:107C800053685B685360A34201D15B685360DA6854
:107C90000260816110BD502080F31188BFF34F8FC7
:107CA000BFF36F8FFEE7000044000020480700206C
:107CB00070B52020FFF798FB040005D00025201D9B
:107CC0002560FFF7D5FC2577204670BD2DE9F041F2
:107CD0000027884604000AD05FEA18600FD05020C1
:107CE00080F31188BFF34F8FBFF36F8FFEE75020F3
:107CF00080F31188BFF34F8FBFF36F8FFEE7261D10
:107D000004F10C05FFF79AFF2168F06841EA0801C9
:107D1000216017E0D0E9001601F07F42530123688B
:107D200021F07F4102D40B4203D10AE031EA030380
:107D300007D1D20100D50F43216841F00071FFF750
:107D400075FE3046A842E5D12068B843206000F0B7
:107D5000DBFD2068BDE8F08113460A460146014874
:107D600000F0DCBE6D7600082DE9F0479A46DDF89C
:107D7000209090460D4604004FF0000709D0280ED1
:107D80000FD0502080F31188BFF34F8FBFF36F8F58
:107D9000FEE7502080F31188BFF34F8FBFF36F8F42
:107DA000FEE71DB100F084FC40B112E0502080F3EA
:107DB0001188BFF34F8FBFF36F8FFEE7B9F1000F4C
:107DC00007D0502080F31188BFF34F8FBFF36F8F20
:107DD000FEE7FFF733FF2668524629463046FFF795
:107DE000ABFA30B1B8F1000F1AD02068A843206078
:107DF00016E0B9F1000F13D0B8F1000F01D04FF029
:107E00008077BAF1000F01D047F0806745EA07019B
:107E10004A46201DFFF79AFD00F076FD18B10AE0F2
:107E200000F072FD1FE011494FF080500860BFF371
:107E30004F8FBFF36F8FFFF7F7FB0646800110D41B
:107E4000FFF748FC2668524629463046FFF774FA89
:107E500028B1B8F1000F02D02068A8432060FFF7D6
:107E600059FC26F07F463046BDE8F08704ED00E07F
:107E70001CB5264908780190FF20087008788DF815
:107E800000009DF800009DF8002000F0F0009042F6
:107E900007D0502080F31188BFF34F8FBFF36F8F4F
:107EA000FEE79DF800001A4B00F050001870072004
:107EB000986005E09DF8002052008DF80020401EDB
:107EC0009DF800201206F5D49860032807D05020B2
:107ED00080F31188BFF34F8FBFF36F8FFEE74FF42E
:107EE00040709860019808700A48016841F4700178
:107EF0000160016841F070410160FFF74DFC002016
:107F00005860F8F70FF900201CBD000000E400E005
:107F1000B000002020ED00E070B50D460446FFF7EC
:107F2000D9FBA06C08B9A06B08B1002401E0A564DE
:107F30000124FFF7EFFB204670BD10B5024600217B
:107F4000012000F009F80446FEF7BAFF204610BDF4
:107F500000220421AFF30080F8B517460E46050055
:107F600014D0DEB105FB06F05430FFF73DFA0400F3
:107F70000AD0002084F8460004F154023B46314602
:107F800028460094FEF7A8FF2046F8BD502080F355
:107F90001188BFF34F8FBFF36F8FFEE70020E3E739
:107FA00038B5049D18B153B1CAB181B120E0502059
:107FB00080F31188BFF34F8FBFF36F8FFEE7502020
:107FC00080F31188BFF34F8FBFF36F8FFEE7502010
:107FD00080F31188BFF34F8FBFF36F8FFEE739B186
:107FE000502080F31188BFF34F8FBFF36F8FFEE7F0
:107FF00054241C46012384F846302B460094FEF797
:108000006BFF204638BD000070B50D46040025D03A
:10801000FFF760FBD4E90F20216802FB00116160CB
:108020000021A1632168A1600A46D4E90F01401E26
:1080300000FB0121E16021464FF0FF3001F8440FC1
:10804000487004F110008DB1FFF712FB04F1240019
:10805000FFF70EFBFFF75EFB012070BD502080F3A1
:108060001188BFF34F8FBFF36F8FFEE7216900299F
:10807000F0D000F011FC0028ECD004494FF0805003
:108080000860BFF34F8FBFF36F8FE3E704ED00E0AD
:108090002DE9FF4782B01D468A464FF000080400D4
:1080A00003D0BAF1000F08D011E0502080F31188FE
:1080B000BFF34F8FBFF36F8FFEE7206C38B15020B6
:1080C00080F31188BFF34F8FBFF36F8FFEE7022D50
:1080D0000AD1E06B012807D0502080F31188BFF34C
:1080E0004F8FBFF36F8FFEE700F0E2FA424F4FF081
:1080F00000094FF0805648B9049838B1502080F3F9
:108100001188BFF34F8FBFF36F8FFEE7FFF7E2FADF
:10811000A06BE16B884207D3022D05D0049808B309
:10812000B8F1000F21D025E02A4651462046FEF73F
:1081300020FEA16C21B129462046FEF77FFF05E015
:10814000616A19B104F1240000F0A6FB20B13E6081
:10815000BFF34F8FBFF36F8FFFF7DCFA012006B03C
:10816000BDE8F087FFF7D6FA22E06846FFF7ACFBE0
:108170004FF00108FFF7CEFAFFF760FDFFF7AAFA0C
:1081800094F94400401C01D184F8449094F94500CE
:10819000401C01D184F84590FFF7BCFA04A9684659
:1081A00000F0F4F930B12046FFF7E2F800F0ACFB44
:1081B0000020D4E7FFF78EFAA06BE16B884213D161
:1081C000FFF7A8FA04F110000499FFF78BFB204693
:1081D000FFF7CEF800F098FB002897D13E60BFF380
:1081E0004F8FBFF36F8F91E7FFF794FA2046FFF7A9
:1081F000BFF800F089FB89E704ED00E02DE9F047C6
:10820000984617468946040003D0B9F1000F08D0FC
:1082100011E0502080F31188BFF34F8FBFF36F8FB1
:10822000FEE7206C38B1502080F31188BFF34F8FE8
:10823000BFF36F8FFEE7B8F1020F0AD1E06B0128A0
:1082400007D0502080F31188BFF34F8FBFF36F8F9B
:10825000FEE7FFF7B3FA5020EFF3118680F31188A1
:10826000BFF34F8FBFF36F8FA06BE16B884207D3D3
:10827000B8F1020F04D0002086F31188BDE8F08722
:1082800094F94550424649462046FEF772FD681C67
:1082900004D06D1C84F845500120EDE7A06C012549
:1082A00020B141462046FEF7C9FE06E0606A00287C
:1082B000F2D004F1240000F0EFFA0028ECD0002FF7
:1082C000EAD03D60E8E700002DE9F747002683B0DB
:1082D0008A46040003D0BAF1000F08D011E0502004
:1082E00080F31188BFF34F8FBFF36F8FFEE7206CD1
:1082F00038B1502080F31188BFF34F8FBFF36F8FD9
:10830000FEE700F0D5F9DFF8F4804FF000094FF0F8
:10831000805748B9059838B1502080F31188BFF3D1
:108320004F8FBFF36F8FFEE7FFF7D4F9A56BC5B191
:1083300051462046FEF70AFD6D1EA563206950B127
:1083400004F1100000F0A8FA28B1C8F80070BFF3DB
:108350004F8FBFF36F8FFFF7DDF9012006B0BDE847
:10836000F087059808B11EB106E0FFF7D3F927E0C2
:108370006846FFF7A9FA0126FFF7CCF9FFF75EFC84
:10838000FFF7A8F994F94400401C01D184F8449007
:1083900094F94500401C01D184F84590FFF7BAF9E3
:1083A00005A9684600F0F2F8002820460AD0FEF73A
:1083B000DFFF00F0A9FA2046FEF732FE0028B3D016
:1083C0000020CBE7FEF72CFE90B104F124000599C4
:1083D000FFF788FA2046FEF7CBFF00F095FA002859
:1083E000A2D1C8F80070BFF34F8FBFF36F8F9BE728
:1083F0002046FEF7BDFF00F087FA95E704ED00E0A8
:1084000008B5002200920A466946FFF75DFF009812
:1084100008BD00002DE9F343002683B00400354673
:1084200009D0206C78B1502080F31188BFF34F8FB2
:10843000BFF36F8FFEE7502080F31188BFF34F8F9B
:10844000BFF36F8FFEE700F033F9DFF83C814FF0A8
:1084500000094FF0805748B9049838B1502080F394
:108460001188BFF34F8FBFF36F8FFEE7FFF732F92D
:10847000A06BC8B1401EA063206810B9FFF720F8B8
:108480006060206950B104F1100000F005FA28B1D5
:10849000C8F80070BFF34F8FBFF36F8FFFF73AF943
:1084A000012005B0BDE8F083049808B166B10FE083
:1084B0003DB1502080F31188BFF34F8FBFF36F8F12
:1084C000FEE7FFF727F95DE06846FFF7FDF90126B3
:1084D000FFF720F9FFF7B2FBFFF7FCF894F944002F
:1084E000401C01D184F8449094F94500401C01D10E
:1084F00084F84590FFF70EF904A9684600F046F8A5
:108500000028204612D0FEF733FF00F0FDF9204688
:10851000FEF786FD0028A9D09DB3FFF7DBF8606A5F
:1085200050B3206B0068C0F1380126E0FEF778FDFB
:10853000E0B1206838B9FFF7CDF8606800F070F955
:108540000546FFF7E7F804F124000499FFF7CAF99C
:108550002046FEF70DFF00F0D7F9002886D1C8F8B5
:108560000070BFF34F8FBFF36F8F7FE72046FEF79A
:10857000FFFE00F0C9F979E700216068FFF70EFA05
:108580009FE7FFE700208CE704ED00E02DE9F041D4
:108590000C46050011D0C4B1FFF79CF8174B5A697F
:1085A0006E682068911B471C17D02F689B6A9F42FA
:1085B00019D0964217D8012410E0502080F311887A
:1085C000BFF34F8FBFF36F8FFEE7502080F311880A
:1085D000BFF34F8FBFF36F8FFEE70024FFF79AF8CA
:1085E0002046BDE8F081884205D9401A206028461F
:1085F000FFF76AF9F1E700202060DCE74400002083
:108600002DE9FF5F8346DDE90E87994616468A46C7
:108610009000FEF7E9FE05001CD05C20FEF7E4FEAA
:10862000040014D00020256384F85900CDE90240ED
:10863000CDE900874B46324651465846FEF75FFC6F
:108640002046FEF7EFFA012004B0BDE8F09F28466F
:10865000FFF774F84FF0FF30F6E7F0B585B0DDE9CD
:108660000B640A9DA6B1DCB15C2700972663022645
:1086700084F85960002604AFCDE90246CDE90057E1
:10868000FEF73DFC2046FEF7CDFA049805B0F0BD9C
:10869000502080F31188BFF34F8FBFF36F8FFEE739
:1086A000502080F31188BFF34F8FBFF36F8FFEE729
:1086B0000548C16919B1806B18B1002070470120CD
:1086C00070470220704700004400002001484069C4
:1086D00070470000440000202DE9F0412E4C002797
:1086E000A06B40B1206A401C2062606A00B1012783
:1086F0003846BDE8F0816669761C666113D1606812
:10870000006838B1502080F31188BFF34F8FBFF35A
:108710006F8FFEE76068A1686160A060A06A401C7E
:10872000A062FEF781FD206BDFF87080864209D3DE
:108730006068006880B16068C068C5686868864223
:108740000DD220632068C06A00EB800158F8210038
:108750000128CAD90127C8E74FF0FF30F1E7281DEB
:10876000FEF74EFFA86A18B105F11800FEF748FFA2
:10877000E86AA169884200D9A06100EB800108EB9A
:108780008100291DFEF79AFFE86A2168C96A8842BC
:10879000CED30127CCE7000044000020480700208A
:1087A00070B504004FF0000133D01B4D286884429F
:1087B00007D0502080F31188BFF34F8FBFF36F8F26
:1087C000FEE7206D38B1401E2065E36CE26A9A42F4
:1087D0001FD040B11DE0502080F31188BFF34F8FB0
:1087E000BFF36F8FFEE7201DFEF70AFFE06CE0622B
:1087F000C0F13800A061E06AA969884200D9A86187
:10880000064900EB800001EB8000211DFEF756FFBA
:108810000121084670BD00004400002048070020E8
:1088200070B504004FF000002BD0194DE16A2A68A2
:10883000D26A914226D2A069002804DB2868C06A67
:10884000C0F13800A061134E01EB8101606906EBB5
:108850008101884211D1201DFEF7D2FE2868C06A2E
:10886000E062A969884200D9A86100EB800006EBAC
:108870008000211DFEF722FF02E02868C06AE06246
:10888000012070BDE16C2A68D26A9142F8D370BDB4
:10889000440000204807002070B5C068C46854B187
:1088A00004F118000646FEF7ABFE144DA86B50B15C
:1088B0003146134815E0502080F31188BFF34F8FE5
:1088C000BFF36F8FFEE7201DFEF79AFEE06AA969ED
:1088D000884200D9A8610B4900EB800001EB8000C1
:1088E000211DFEF7EBFEE06A2968C96A884202D9B9
:1088F0000120686270BD002070BD000044000020AF
:10890000D00B0020480700202DE9F0472C4D002413
:108910002746A86B38B1FEF7DDFEA86B401EA863A2
:10892000A86B40B146E0502080F31188BFF34F8F11
:10893000BFF36F8FFEE72969224E0120D1B3A6F560
:10894000916980463068E0B1F068C46804F11800AD
:10895000FEF756FE201DFEF753FEE06AA969884225
:1089600000D9A86100EB800109EB8100211DFEF711
:10897000A5FEE06A2968C96A8842E3D3C5F8248065
:10898000E0E70CB1FEF750FC2C6A4CB14FEA080648
:10899000FFF7A2FE00B16E62641EF9D100202862CA
:1089A000686A38B10849012738070860BFF34F8F5C
:1089B000BFF36F8FFEF7AEFE3846BDE8F0870000CC
:1089C00044000020D00B002004ED00E02DE9F04130
:1089D0000027040015D0FEF7F1FE5020EFF31185BB
:1089E00080F31188BFF34F8FBFF36F8F2046FEF7E0
:1089F00089FC20B3144EB06B58B104F11801134830
:108A00001BE0502080F31188BFF34F8FBFF36F8FAF
:108A1000FEE7E06A3168C96A884200D30127201D59
:108A2000FEF7EEFDE06AB169884200D9B0610849FD
:108A300000EB800001EB8000211DFEF73FFE85F377
:108A400011883846BDE8F08144000020D00B00209A
:108A50004807002010B586B0FEF74CF9114CA0680D
:108A6000B8B100200390049005AA04A903A8FEF75A
:108A7000F1FDDDE9032102208DE8070000230AA1B2
:108A80000B48059AFFF7E9FDE06010B106B0012040
:108A900010BD502080F31188BFF34F8FBFF36F8F4D
:108AA000FEE7000080000020546D722053766300C2
:108AB0004D7300082DE9FF411E46134602000A9D32
:108AC0004FF0000016D0144CA768002F0FD0CDE94E
:108AD00000130292062917DAFFF7EAFD02284FF089
:108AE00000030FD000226946A068FFF7D1FA04B056
:108AF000BDE8F081502080F31188BFF34F8FBFF3A2
:108B00006F8FFEE72A46EEE7002332466946384675
:108B1000FFF774FBEBE70000800000201FB51C4648
:108B20006FF00103CDE90030CDE9021204480023C3
:108B3000224669468068FFF761FB04B010BD000063
:108B4000800000203EB50D460D4914464860F8F7F8
:108B500053FC2846FFF724F800204021CDE90010FF
:108B60008023084A01460290FDF712FBFBF7C8F884
:108B70002046FEF793FFBDE83E40FCF761BA0000D7
:108B800050010020B08D0008010202030405060711
:108B900008090A0B0C0D0E0F101001020203040548
:108BA000060708090A0B0C0D0E0F1010000000003C
:108BB000000000000102030406070809000000008D
:108BC00001020304060F1F3E1F0F060000000000F5
:108BD000005F0000000007000700147F147F1424CA
:108BE0002A7F2A1223130864623649552250000551
:108BF0000300001C2241000041221C0000082A1C26
:108C00002A0808083E0808A06000000008080808B4
:108C100008606000000020100804023E5149453EF3
:108C200000427F4000625149494622414949361875
:108C300014127F1027454545393C4A494930017196
:108C40000905033649494936064949291E00363681
:108C5000000000AC6C00000814224100141414142D
:108C60001441221408000201510906324979413E9B
:108C70007E0909097E7F494949363E414141227FAB
:108C80004141221C7F494949417F090909013E416F
:108C90004151727F0808087F417F41000020404118
:108CA0003F017F081422417F404040407F020C0278
:108CB0007F7F0408107F3E4141413E7F090909063C
:108CC0003E4151215E7F0919294626494949320111
:108CD000017F01013F4040403F1F2040201F3F4097
:108CE00038403F6314081463030478040361514956
:108CF00045437F41410000020408102041417F00AC
:108D000000040201020480808080800102040000CF
:108D100020545454787F4844443838444428003818
:108D20004444487F3854545418087E09020018A45B
:108D3000A4A47C7F08040478007D00000080847D6A
:108D400000007F10284400417F4000007C0418048C
:108D5000787C08047C003844443800FC2424180043
:108D6000182424FC00007C08040048545424000407
:108D70007F4400003C40407C001C2040201C3C40C4
:108D800030403C44281028441CA0A07C004464547B
:108D90004C440836410000007F00000041360800C6
:108DA000000201010201020505020060C0F0381C4A
:108DB00000000000000000000000000000000000B3
:108DC00000000000000000000000000000000000A3
:108DD0000000000000000000000000000000000093
:108DE0000000000000000000000000000000000083
:10ADB0000020509008040000000000000000000087
:10ADC00000FC70806018FC000080704C5CE00000AB
:10ADD000000004FCFC04000000FC0C106080FC007F
:10ADE000000000000000000000FC70806018FC0003
:10ADF00000FC24242474040000FC0C106080FC007F
:10AE000000FC00000000FC0000000000000000004A
:10AE10000000040890502000000000000101020022
:10AE20000000000000000000000300030000030019
:10AE30000003000000000300000002030302000002
:10AE400000030000000003000000000000000000FC
:10AE500000030003000003000003020202020201DB
:10AE600000030000000003000001020202020100D2
:10AE700000000000000000000002010100000000CE
:10AE80001C06030101010101010101010101010190
:10AE900001010101010101010101010101010101A2
:10AEA0000103061C3860C0808080808080808080A4
:10AEB0008080808080808080808080808080808092
:10AEC0008080808080C0603800FC24242424DC0042
:10AED00000A0905050E0000000C020101020200082
:10AEE00000FC8040A01000000003020202020100EA
:10AEF000000302020201020000010202020201003C
:10AF00000003020000030200000000000000000037
:10AF10000000000000000000000000000000000031
:10AF20000000000000000000000000000000000021
:10AF30000000000000000000000000000000000011
:10AF40000000000000000000000000000000000001
:10AF500000000000000000000000000000000000F1
:10AF600000000000000000000000000000000000E1
:10AF700000000000000000000000000000000000D1
:10AF800000000000000000000080C0C00000F8F8D1
:10AF9000C00000F8F8C0C00000F8F8C0C0C08000D1
:10AFA0000000000000000000FFFFFF3F3E3F3F3F6A
:10AFB000BFBFBE3FBFBFBFBEBEFFFFFF7F7F3FB86B
:10AFC000307070F0E0C08000FFFFFF806C6C6C00A0
:10AFD0006D6D6D006D6D6DFFFFF7890002061C78C9
:10AFE00000000008C3FFFF3E000103030303030347
:10AFF00003030303030303030303070F0E0E0E0FE4
:10B000000E0E0E0707030100000000000000000004
:10B01000000000000000000000FFFF7C70E0C08026
:10B020000000000000000000000000000000000020
:10B03000000000000000000000FFFF00000001070A
:10B040001FFC2000000000000000000000000000C5
:10B050008080C0C0C0C0C080C0FFFF0000000000F2
:10B0600000010000000000000000000000187E7FCA
:10B07000FFFFFFFFFF7F7F3F1F1F03000000000057
:10B0800000000000000000000000000080808080C0
:10B0900080000000000000000000000000000080B0
:10B0A000808080800000000000E0F89C9F07079FE0
:10B0B0009FFCFCFCFCFCFCFCFCFCFCFCFCFCFC9F8A
:10B0C0009F67679F9CF8E000F8FFFFFFFFFE7E3F51
:10B0D0001F312424311F0F0F0F0F1F312424311F64
:10B0E0003F7EFEFFFFFFFFF80001010101000000AD
:10B0F0000000000000000000000000000000000050
:10B1000000000001010101000080C0C0C0C0C0C03B
:10B11000C0C0C0C0C0C0C0C0C0C0C0C0C0800000EF
:10B12000000000000000000000FFFF010000000020
:10B130000000000000000000808080818F8F8080F0
:10B140008C9CB8F0E0C0800000FFFF800000000091
:10B15000000000000000000001010181F1F1010187
:10B1600031391D0F0703010000010303030303032B
:10B1700003030303030303030303030303010000A7
:10B1800000000000000000000000000000000000BF
:10B1900000000000000000000000000000000000AF
:10B1A000000000000000000000000000000000009F
:10B1B000000000000000000000000000000000008F
:10B1C000000000000000000000000000000000007F
:10B1D000000000000000000000000000000000006F
:10B1E000000000000000000000000000000000005F
:10B1F000000000000000000000000000000000004F
:10B2000000000000000000000080704C5CE00000C6
:10B21000000000FC0000000000A0905050E0000082
:10B220000000F0202010200000F01010E010E000DE
:10B230000020505090902000000300000000030008
:10B2400000000003020000000003020202010200ED
:10B2500000020302000000000003000203000302DA
:10B26000000302020202010000FC70806018FC0072
:10B2700000E000000000F0000020505090902000FE
:10B28000000000F40400000000C020101020200086
:10B2900000000000000000000003000300000300A5
:10B2A0000001020202010302000302020202010085
:10B2B000000000030200000000010202020201007F
:10B2C000000000000000000060F804040444C840CE
:10B2D00000A0905050E0000000F01010E010E000DE
:10B2E00000C0A09090A060000020505090902000DE
:10B2F0000000000000000000000102020202010044
:10B300000003020202010200000300020300030224
:10B310000001020202020100000302020202010017
:10B32000000000000000000000FC2424247404003D
:10B33000000020C0C0200000000000F40400000055
:10B34000000010F8100000000000000000000000E5
:10B3500000000000000000000003020202020201DF
:10B3600000020300000302000000000302000000CE
:10B3700000000003020201000000000000000000C5
:10B380000000000000000000C0F80C040CF80000F1
:10B39000070C080C0700001018FC0000000000005B
:10B3A0000F00000010180C04CC3800000C0A09082B
:10B3B000080000180444CCB800000608080C070078
:10B3C00000806030FC0000030202020F02020078DD
:10B3D000442444C400020408080C070000C070584C
:10B3E00044C00000070C0808070300040484641C20
:10B3F0000000000E0300000000B8C444CCB80003F5
:10B400000708080C070070D884848C7800000008B6
:10B410000601000040404040404040000000000065
:10B420000000007048888808180008F80800000824
:10B43000F80808F830C00008F808000E08080809E5
:10B44000070000070808080C0700080F080003049D
:10B450000F0008F8788078F80800E0100808081055
:10B46000E00008F830C00008F808080F000F000FCF
:10B4700008000304080808040300080F0800030478
:10B480000F00180808F80808180008F80800000855
:10B49000F80808F88888C80810000000080F08009D
:10B4A000000000070808080C0700080F0808090832
:10B4B0000400F80800F88008F80008F88888C80830
:10B4C000100008F808080810E000010E0701030E3C
:10B4D0000100080F080809080400080F08080804FC
:10B4E0000300180808F80808180008F88880808801
:10B4F000F80808F808000008F8080000080F08001D
:10B500000000080F080000080F0800070808080CD2
:10B51000070008F88888C808100008F84848C84894
:10B520003000000808F808080000080F08000100B3
:10B530000000080F080001030C080008080F0808A5
:10B54000000000704888880818000000E01870802B
:10B550000000180808F808081800000E0808080974
:10B560000700080E0901010B0C080000080F080075
:10B570000000000000000080C0C0C0C0C0C080004B
:10B580000000000000C0FCFE3F07030100000103B3
:10B590000FFFFEF00000003FFFFF800000000000F2
:10B5A000000000FFFFFF00000000030F1F1E3838DF
:10B5B0007070383C1E0F0700000000000000000003
:10B5C000000000000000000000000000000000007B
:10B5D0000000000080C0C00000000000000000006B
:10B5E0000038181C0E07FFFFFF00000000000000DD
:10B5F0000000000000000000FFFFFF00000000004E
:10B60000000000000000000000003F3F3F0000007D
:10B61000000000000000000000000000000000002A
:10B620000000000000000000000080C0C0C0C0C0DA
:10B63000C0C080800000000000080E1F0703010149
:10B6400001010101E7FFFF180000000000000000F9
:10B6500080C0F0783C1F0703000000000000383C69
:10B660003E3F373330303030303030300000000073
:10B6700000000000000000000000000000000000CA
:10B68000000000008080C0C0C0C0C0C0808000003A
:10B69000000000000C0E0F03010100000181E7FF14
:10B6A0007F18000000000000000000060707070FD9
:10B6B0001DFCF8E000000001070F1E3C3830303060
:10B6C00038381E1F0F0300000000000000000000BB
:10B6D000000000000000000000000000000000006A
:10B6E0000000000000C0C0C000000000000000001A
:10B6F0000080C0F0783E0FFFFFFF00000000C0E0B8
:10B70000F8FCDEC7C3C1C0C0C0FFFFFFC0C0C0009F
:10B7100001010101010101010101013F3F3F01015F
:10B720000100000000000000000000000000000018
:10B730000000000000000000C0C0C0C0C0C0C0C009
:10B74000C0C0C00000000000E0FFFF8FC1C1C1C148
:10B75000C18181010100000000040707030101010C
:10B760000101010307FFFEF8000000070F1E383833
:10B7700070707030383C1E1F070100000000000090
:10B7800000000000000000000000000000000000B9
:10B790000000000000000080C0C040000000000069
:10B7A00000000000C0E0F8FC9F8F83808000000054
:10B7B000000000E0FCFF1F07030101010103030774
:10B7C000FFFEF8000000070F1F3C3830707070302B
:10B7D000383E1F0F030000000000000000000000C2
:10B7E00000000000000000000000C0C0C0C0C0C0D9
:10B7F000C0C0C0C0C0C0C0C0C00000000101010185
:10B800000101010181E1F93F0F0701000000000083
:10B81000000000E0F8FE1F0700000000000000002C
:10B82000000000383F3F070000000000000000005B
:10B830000000000000000000000000000000000008
:10B8400000000000000080C0C0C0C0C0C0C08000B8
:10B850000000000000007EFFE7810101000101817E
:10B86000E7FF7E00000000E0F8FD1F0F0707070755
:10B87000070F1DFCF8F0000000070F1F3C38307068
:10B88000707030383C1F0F070000000000000000FF
:10B8900000000000000000000000000000000000A8
:10B8A00080C0C0C0C0C0C0C080000000000000FC5C
:10B8B000FEFF070301010101010387FFFEFC0000F9
:10B8C0000003070F1E1C181898F8FCFE3F0F03001A
:10B8D0000000000000000060787E1F0703000000E9
:10B8E0000000000000000000000000000000000058
:10B8F0000000000000000000000000000000000048
:10B90000000000000000000000000000000030788F
:10B910007878000000000000000000000000000037
:10B9200080C0C0C000000000000000000000000057
:10B9300000000103030100000000000000000000FF
:10B9400000000000000000000000000000000000F7
:10B9500000E07018081870C000007FE0808080E070
:10B960003F0000000001010100000000006030F80D
:10B970000000000000000000FF00000000000000C8
:10B98000000100000000006030180818F0E000001E
:10B9900080E0B0988E838000000101010101010167
:10B9A00000006030180818F0E0000060C080828756
:10B9B000FD7800000000010101000000000000808F
:10B9C000E030F80000303C36313030FF30300000DD
:10B9D0000000000001000000C078181818181800B6
:10B9E00020E381818181FF7C0000000001010000D3
:10B9F0000000000080C07018000000007EC7838136
:10BA000081C37E1800000001010100000000181829
:10BA1000181898F83800000000F03C0700000000FB
:10BA2000000101000000000000F018180818F0E004
:10BA30000000FD87828287CD7800000000010101AF
:10BA4000000000C0F018181818F0E000010704CC3E
:10BA50007C3C0F010000000101000000000000001C
:10BA60000000000000000000002070200000000026
:10BA700000000000000000000000FC70806018FC66
:10BA80000000C0A09090A0600000E020101010E026
:10BA90000000E000000000F00000030003000003CD
:10BAA0000000010202020201000003020000020382
:10BAB0000000010202020103020000FCFC04F4F495
:10BAC00004F4F404F4F404F4F404FCFCF0F00000D6
:10BAD000000000030302020202020202020202024A
:10BAE000020203030000000000001C24242444CCB4
:10BAF0000000C0A09090A06000000010F8100000AE
:10BB00000000000000000000000000000000000035
:10BB1000000003020202020100000102020202010F
:10BB2000000000000302020100000000000000000D
:10BB30000000000000000000000080704C5CE0008D
:10BB400000000000FC0000000000A0905050E00049
:10BB5000000000F0202010200000F01010E010E0A5
:10BB600000000300000000030000000003020000CA
:10BB700000000302020201020000020302000000B2
:10BB800000000300020300030200000000000000A8
:10BB90000000FC24242424DC0000A0905050E0008D
:10BBA0000000C020101020200000FC8040A01000E9
:10BBB0000000000000000000000003020202020179
:10BBC000000003020202010200000102020202015F
:10BBD000000003020000030200C03008080838001B
:10BBE0000000008080800000008080808080808055
:10BBF0000000008080808000000000000000000045
:10BC00000000001010F800000007182020221E027B
:10BC10000000192424123F2000203F20003F200074
:10BC20003F001F242424241700000000000000000F
:10BC300000000020203F202000C030080808380005
:10BC400000000080808000000080808080808080F4
:10BC500000000080808080000000000000000000E4
:10BC600000007008080808F00007182020221E02B3
:10BC70000000192424123F2000203F20003F200014
:10BC80003F001F24242424170000000000000000AF
:10BC900000003028242221300000000000000000B5
:10BCA000000000804020100800000000000000009C
:10BCB0000000000000000000000001020408102045
:10BCC0000000010101010101000303070707607083
:10BCD000501030F0F0301050706000000000000094
:10BCE000000000000000010101010101010140F814
:10BCF000EC2C2C38F010D030E84C4C9CF0021F3764
:10BD000034341C0F080B0C173232390F00000000BE
:10BD10000000000000000000000000000000000023
:10BD20000000000000000000000000000000000013
:10BD3000555555555555C53F7D6FEB0312D6D4BFAC
:10BD40005544880E55C1C93F3B8F68B52882A4BFB2
:10BD500088B20175E0EF493F09F7FD0DE13D023F73
:10BD60004B2D8A1C273A03C0C88A599CE52A0040FB
:10BD700059018D1B6C06E6BF82922EB1C5B8B33F48
:10BD8000A0BD000800000020C0010000FA09000862
:10BD9000C0BD0008C001002010470000345D00084D
:10BDA000013542019210037224F455AAAAAAAA42AC
:10BDB0000209D1F0010020F0010020420A02241102
:04000005080000ED02
:00000001FF
