Component: ARM Compiler 5.06 update 5 (build 528) Tool: armlink [4d35e2]

==============================================================================

Section Cross References

    startup_stm32f103xb.o(RESET) refers to startup_stm32f103xb.o(STACK) for __initial_sp
    startup_stm32f103xb.o(RESET) refers to startup_stm32f103xb.o(.text) for Reset_Handler
    startup_stm32f103xb.o(RESET) refers to stm32f1xx_it.o(i.NMI_Handler) for NMI_Handler
    startup_stm32f103xb.o(RESET) refers to stm32f1xx_it.o(i.HardFault_Handler) for HardFault_Handler
    startup_stm32f103xb.o(RESET) refers to stm32f1xx_it.o(i.MemManage_Handler) for MemManage_Handler
    startup_stm32f103xb.o(RESET) refers to stm32f1xx_it.o(i.BusFault_Handler) for BusFault_Handler
    startup_stm32f103xb.o(RESET) refers to stm32f1xx_it.o(i.UsageFault_Handler) for UsageFault_Handler
    startup_stm32f103xb.o(RESET) refers to port.o(.emb_text) for SVC_Handler
    startup_stm32f103xb.o(RESET) refers to stm32f1xx_it.o(i.DebugMon_Handler) for DebugMon_Handler
    startup_stm32f103xb.o(RESET) refers to port.o(i.SysTick_Handler) for SysTick_Handler
    startup_stm32f103xb.o(RESET) refers to stm32f1xx_it.o(i.TIM4_IRQHandler) for TIM4_IRQHandler
    startup_stm32f103xb.o(RESET) refers to stm32f1xx_it.o(i.EXTI15_10_IRQHandler) for EXTI15_10_IRQHandler
    startup_stm32f103xb.o(.text) refers to system_stm32f1xx.o(i.SystemInit) for SystemInit
    startup_stm32f103xb.o(.text) refers to entry.o(.ARM.Collect$$$$00000000) for __main
    music.o(i.MUSIC_Analysis) refers to driver_passive_buzzer.o(i.PassiveBuzzer_Set_Freq_Duty) for PassiveBuzzer_Set_Freq_Duty
    music.o(i.MUSIC_Analysis) refers to tasks.o(i.vTaskDelay) for vTaskDelay
    music.o(i.MUSIC_Analysis) refers to music.o(.data) for .data
    music.o(i.PlayMusic) refers to driver_passive_buzzer.o(i.PassiveBuzzer_Init) for PassiveBuzzer_Init
==============================================================================

Removing Unused input sections from the image.

    Removing startup_stm32f103xb.o(HEAP), (512 bytes).
    Removing music.o(i.MUSIC_Analysis), (80 bytes).
    Removing music.o(i.PlayMusic), (10 bytes).
    Removing music.o(.data), (3990 bytes).
    Removing main.o(.rev16_text), (4 bytes).
    Removing main.o(.revsh_text), (4 bytes).
    Removing main.o(.rrx_text), (6 bytes).
    Removing gpio.o(.rev16_text), (4 bytes).
    Removing gpio.o(.revsh_text), (4 bytes).
    Removing gpio.o(.rrx_text), (6 bytes).
    Removing freertos.o(.rev16_text), (4 bytes).
    Removing freertos.o(.revsh_text), (4 bytes).
    Removing freertos.o(.rrx_text), (6 bytes).
    Removing freertos.o(i.StartDefaultTask), (14 bytes).
    Removing freertos.o(.constdata), (36 bytes).
    Removing freertos.o(.conststring), (12 bytes).
    Removing freertos.o(.data), (4 bytes).
    Removing adc.o(.rev16_text), (4 bytes).
==============================================================================

Image Symbol Table

    Local Symbols

    Symbol Name                              Value     Ov Type        Size  Object(Section)

    ../Core/Src/adc.c                        0x00000000   Number         0  adc.o ABSOLUTE
    ../Core/Src/freertos.c                   0x00000000   Number         0  freertos.o ABSOLUTE
    ../Core/Src/gpio.c                       0x00000000   Number         0  gpio.o ABSOLUTE
    ../Core/Src/i2c.c                        0x00000000   Number         0  i2c.o ABSOLUTE
    ../Core/Src/main.c                       0x00000000   Number         0  main.o ABSOLUTE
    ../Core/Src/spi.c                        0x00000000   Number         0  spi.o ABSOLUTE
    ../Core/Src/stm32f1xx_hal_msp.c          0x00000000   Number         0  stm32f1xx_hal_msp.o ABSOLUTE
    ../Core/Src/stm32f1xx_hal_timebase_tim.c 0x00000000   Number         0  stm32f1xx_hal_timebase_tim.o ABSOLUTE
    ../Core/Src/stm32f1xx_it.c               0x00000000   Number         0  stm32f1xx_it.o ABSOLUTE
    ../Core/Src/system_stm32f1xx.c           0x00000000   Number         0  system_stm32f1xx.o ABSOLUTE
    ../Core/Src/tim.c                        0x00000000   Number         0  tim.o ABSOLUTE
    ../Core/Src/usart.c                      0x00000000   Number         0  usart.o ABSOLUTE
    ../Core/Src/usb.c                        0x00000000   Number         0  usb.o ABSOLUTE
    ../Drivers/STM32F1xx_HAL_Driver/Src/stm32f1xx_hal.c 0x00000000   Number         0  stm32f1xx_hal.o ABSOLUTE
    ../Drivers/STM32F1xx_HAL_Driver/Src/stm32f1xx_hal_adc.c 0x00000000   Number         0  stm32f1xx_hal_adc.o ABSOLUTE
    ../Drivers/STM32F1xx_HAL_Driver/Src/stm32f1xx_hal_adc_ex.c 0x00000000   Number         0  stm32f1xx_hal_adc_ex.o ABSOLUTE
    ../Drivers/STM32F1xx_HAL_Driver/Src/stm32f1xx_hal_cortex.c 0x00000000   Number         0  stm32f1xx_hal_cortex.o ABSOLUTE
    ../Drivers/STM32F1xx_HAL_Driver/Src/stm32f1xx_hal_dma.c 0x00000000   Number         0  stm32f1xx_hal_dma.o ABSOLUTE
    ../Drivers/STM32F1xx_HAL_Driver/Src/stm32f1xx_hal_exti.c 0x00000000   Number         0  stm32f1xx_hal_exti.o ABSOLUTE
    ../Drivers/STM32F1xx_HAL_Driver/Src/stm32f1xx_hal_flash.c 0x00000000   Number         0  stm32f1xx_hal_flash.o ABSOLUTE
    ../Drivers/STM32F1xx_HAL_Driver/Src/stm32f1xx_hal_flash_ex.c 0x00000000   Number         0  stm32f1xx_hal_flash_ex.o ABSOLUTE
    ../Drivers/STM32F1xx_HAL_Driver/Src/stm32f1xx_hal_gpio.c 0x00000000   Number         0  stm32f1xx_hal_gpio.o ABSOLUTE
    ../Drivers/STM32F1xx_HAL_Driver/Src/stm32f1xx_hal_gpio_ex.c 0x00000000   Number         0  stm32f1xx_hal_gpio_ex.o ABSOLUTE
    ../Drivers/STM32F1xx_HAL_Driver/Src/stm32f1xx_hal_i2c.c 0x00000000   Number         0  stm32f1xx_hal_i2c.o ABSOLUTE
    ../Drivers/STM32F1xx_HAL_Driver/Src/stm32f1xx_hal_pcd.c 0x00000000   Number         0  stm32f1xx_hal_pcd.o ABSOLUTE
    ../Drivers/STM32F1xx_HAL_Driver/Src/stm32f1xx_hal_pcd_ex.c 0x00000000   Number         0  stm32f1xx_hal_pcd_ex.o ABSOLUTE
    ../Drivers/STM32F1xx_HAL_Driver/Src/stm32f1xx_hal_pwr.c 0x00000000   Number         0  stm32f1xx_hal_pwr.o ABSOLUTE
    ../Drivers/STM32F1xx_HAL_Driver/Src/stm32f1xx_hal_rcc.c 0x00000000   Number         0  stm32f1xx_hal_rcc.o ABSOLUTE
    ../Drivers/STM32F1xx_HAL_Driver/Src/stm32f1xx_hal_rcc_ex.c 0x00000000   Number         0  stm32f1xx_hal_rcc_ex.o ABSOLUTE
    ../Drivers/STM32F1xx_HAL_Driver/Src/stm32f1xx_hal_spi.c 0x00000000   Number         0  stm32f1xx_hal_spi.o ABSOLUTE
    ../Drivers/STM32F1xx_HAL_Driver/Src/stm32f1xx_hal_tim.c 0x00000000   Number         0  stm32f1xx_hal_tim.o ABSOLUTE
    ../Drivers/STM32F1xx_HAL_Driver/Src/stm32f1xx_hal_tim_ex.c 0x00000000   Number         0  stm32f1xx_hal_tim_ex.o ABSOLUTE
    ../Drivers/STM32F1xx_HAL_Driver/Src/stm32f1xx_hal_uart.c 0x00000000   Number         0  stm32f1xx_hal_uart.o ABSOLUTE
    ../Drivers/STM32F1xx_HAL_Driver/Src/stm32f1xx_ll_usb.c 0x00000000   Number         0  stm32f1xx_ll_usb.o ABSOLUTE
    ../Middlewares/Third_Party/FreeRTOS/Source/CMSIS_RTOS_V2/cmsis_os2.c 0x00000000   Number         0  cmsis_os2.o ABSOLUTE
    ../Middlewares/Third_Party/FreeRTOS/Source/croutine.c 0x00000000   Number         0  croutine.o ABSOLUTE
    ../Middlewares/Third_Party/FreeRTOS/Source/event_groups.c 0x00000000   Number         0  event_groups.o ABSOLUTE
    ../Middlewares/Third_Party/FreeRTOS/Source/list.c 0x00000000   Number         0  list.o ABSOLUTE
    ../Middlewares/Third_Party/FreeRTOS/Source/portable/MemMang/heap_4.c 0x00000000   Number         0  heap_4.o ABSOLUTE
    ../Middlewares/Third_Party/FreeRTOS/Source/portable/RVDS/ARM_CM3/port.c 0x00000000   Number         0  port.o ABSOLUTE
    ../Middlewares/Third_Party/FreeRTOS/Source/queue.c 0x00000000   Number         0  queue.o ABSOLUTE
    ../Middlewares/Third_Party/FreeRTOS/Source/stream_buffer.c 0x00000000   Number         0  stream_buffer.o ABSOLUTE
    ../Middlewares/Third_Party/FreeRTOS/Source/tasks.c 0x00000000   Number         0  tasks.o ABSOLUTE
    ../Middlewares/Third_Party/FreeRTOS/Source/timers.c 0x00000000   Number         0  timers.o ABSOLUTE
    ../clib/microlib/division.c              0x00000000   Number         0  uidiv.o ABSOLUTE
    ../clib/microlib/division.c              0x00000000   Number         0  uldiv.o ABSOLUTE
    ../clib/microlib/init/entry.s            0x00000000   Number         0  entry7b.o ABSOLUTE
    ../clib/microlib/init/entry.s            0x00000000   Number         0  entry7a.o ABSOLUTE
    ../clib/microlib/init/entry.s            0x00000000   Number         0  entry5.o ABSOLUTE
    ../clib/microlib/init/entry.s            0x00000000   Number         0  entry2.o ABSOLUTE
    ../clib/microlib/init/entry.s            0x00000000   Number         0  entry10a.o ABSOLUTE
    ../clib/microlib/init/entry.s            0x00000000   Number         0  entry8a.o ABSOLUTE
    ../clib/microlib/init/entry.s            0x00000000   Number         0  entry.o ABSOLUTE
    ../clib/microlib/init/entry.s            0x00000000   Number         0  entry11b.o ABSOLUTE
    ../clib/microlib/init/entry.s            0x00000000   Number         0  entry11a.o ABSOLUTE
    ../clib/microlib/init/entry.s            0x00000000   Number         0  entry10b.o ABSOLUTE
    ../clib/microlib/init/entry.s            0x00000000   Number         0  entry9b.o ABSOLUTE
    ../clib/microlib/init/entry.s            0x00000000   Number         0  entry9a.o ABSOLUTE
    ../clib/microlib/init/entry.s            0x00000000   Number         0  entry8b.o ABSOLUTE
    ../clib/microlib/longlong.c              0x00000000   Number         0  llsshr.o ABSOLUTE
    ../clib/microlib/longlong.c              0x00000000   Number         0  llshl.o ABSOLUTE
    ../clib/microlib/longlong.c              0x00000000   Number         0  llushr.o ABSOLUTE
    ../clib/microlib/malloc/malloc.c         0x00000000   Number         0  mallocra.o ABSOLUTE
    ../clib/microlib/malloc/malloc.c         0x00000000   Number         0  malloca.o ABSOLUTE
    ../clib/microlib/malloc/malloc.c         0x00000000   Number         0  mallocr.o ABSOLUTE
    ../clib/microlib/malloc/malloc.c         0x00000000   Number         0  malloc.o ABSOLUTE
    ../clib/microlib/malloc/mvars.c          0x00000000   Number         0  mvars.o ABSOLUTE
    ../clib/microlib/printf/printf.c         0x00000000   Number         0  printf6.o ABSOLUTE
    ../clib/microlib/printf/printf.c         0x00000000   Number         0  printf2.o ABSOLUTE
    ../clib/microlib/printf/printf.c         0x00000000   Number         0  printf4.o ABSOLUTE
    ../clib/microlib/printf/printf.c         0x00000000   Number         0  printf5.o ABSOLUTE
    ../clib/microlib/printf/printf.c         0x00000000   Number         0  printfa.o ABSOLUTE
    ../clib/microlib/printf/printf.c         0x00000000   Number         0  printf8.o ABSOLUTE
    ../clib/microlib/printf/printf.c         0x00000000   Number         0  printf7.o ABSOLUTE
    ../clib/microlib/printf/printf.c         0x00000000   Number         0  printf3.o ABSOLUTE
    ../clib/microlib/printf/printf.c         0x00000000   Number         0  printf1.o ABSOLUTE
    ../clib/microlib/printf/printf.c         0x00000000   Number         0  printf0.o ABSOLUTE
    ../clib/microlib/printf/printf.c         0x00000000   Number         0  printfb.o ABSOLUTE
    ../clib/microlib/printf/stubs.s          0x00000000   Number         0  stubs.o ABSOLUTE
    ../clib/microlib/stdio/streams.c         0x00000000   Number         0  stdout.o ABSOLUTE
    ../clib/microlib/stdlib/rand.c           0x00000000   Number         0  rand.o ABSOLUTE
    ../clib/microlib/string/memcpy.c         0x00000000   Number         0  memcpyb.o ABSOLUTE
    ../clib/microlib/string/memcpy.c         0x00000000   Number         0  memcpya.o ABSOLUTE
    ../clib/microlib/string/memset.c         0x00000000   Number         0  memset.o ABSOLUTE
    ../clib/microlib/string/memset.c         0x00000000   Number         0  memseta.o ABSOLUTE
    ../clib/microlib/string/strcpy.c         0x00000000   Number         0  strcpy.o ABSOLUTE
    ../clib/microlib/string/strlen.c         0x00000000   Number         0  strlen.o ABSOLUTE
    ../clib/microlib/stubs.s                 0x00000000   Number         0  iusefp.o ABSOLUTE
    ../fplib/microlib/fpadd.c                0x00000000   Number         0  fadd.o ABSOLUTE
    ../fplib/microlib/fpadd.c                0x00000000   Number         0  dadd.o ABSOLUTE
    ../fplib/microlib/fpdiv.c                0x00000000   Number         0  ddiv.o ABSOLUTE
    ../fplib/microlib/fpepilogue.c           0x00000000   Number         0  fepilogue.o ABSOLUTE
    ../fplib/microlib/fpepilogue.c           0x00000000   Number         0  depilogue.o ABSOLUTE
    ../fplib/microlib/fpfix.c                0x00000000   Number         0  dfixi.o ABSOLUTE
    ../fplib/microlib/fpfix.c                0x00000000   Number         0  dfixul.o ABSOLUTE
    ../fplib/microlib/fpfix.c                0x00000000   Number         0  ffixui.o ABSOLUTE
    ../fplib/microlib/fpflt.c                0x00000000   Number         0  fflti.o ABSOLUTE
    ../fplib/microlib/fpflt.c                0x00000000   Number         0  ffltui.o ABSOLUTE
    ../fplib/microlib/fpflt.c                0x00000000   Number         0  dflti.o ABSOLUTE
    ../fplib/microlib/fpmul.c                0x00000000   Number         0  dmul.o ABSOLUTE
    ../fplib/microlib/fpscalb.c              0x00000000   Number         0  fscalb.o ABSOLUTE
    ..\Core\Src\adc.c                        0x00000000   Number         0  adc.o ABSOLUTE
    ..\Core\Src\freertos.c                   0x00000000   Number         0  freertos.o ABSOLUTE
    ..\Core\Src\gpio.c                       0x00000000   Number         0  gpio.o ABSOLUTE
    ..\Core\Src\i2c.c                        0x00000000   Number         0  i2c.o ABSOLUTE
    ..\Core\Src\main.c                       0x00000000   Number         0  main.o ABSOLUTE
    ..\Core\Src\music.c                      0x00000000   Number         0  music.o ABSOLUTE
    ..\Core\Src\spi.c                        0x00000000   Number         0  spi.o ABSOLUTE
    ..\Core\Src\stm32f1xx_hal_msp.c          0x00000000   Number         0  stm32f1xx_hal_msp.o ABSOLUTE
    ..\Core\Src\stm32f1xx_hal_timebase_tim.c 0x00000000   Number         0  stm32f1xx_hal_timebase_tim.o ABSOLUTE
    ..\Core\Src\stm32f1xx_it.c               0x00000000   Number         0  stm32f1xx_it.o ABSOLUTE
    ..\Core\Src\system_stm32f1xx.c           0x00000000   Number         0  system_stm32f1xx.o ABSOLUTE
    ..\Core\Src\tim.c                        0x00000000   Number         0  tim.o ABSOLUTE
    ..\Core\Src\usart.c                      0x00000000   Number         0  usart.o ABSOLUTE
    ..\Core\Src\usb.c                        0x00000000   Number         0  usb.o ABSOLUTE
    ..\Drivers\DshanMCU-F103\driver_active_buzzer.c 0x00000000   Number         0  driver_active_buzzer.o ABSOLUTE
    ..\Drivers\DshanMCU-F103\driver_color_led.c 0x00000000   Number         0  driver_color_led.o ABSOLUTE
    ..\Drivers\DshanMCU-F103\driver_dht11.c  0x00000000   Number         0  driver_dht11.o ABSOLUTE
    ..\Drivers\DshanMCU-F103\driver_ds18b20.c 0x00000000   Number         0  driver_ds18b20.o ABSOLUTE
    ..\Drivers\DshanMCU-F103\driver_ir_obstacle.c 0x00000000   Number         0  driver_ir_obstacle.o ABSOLUTE
    ..\Drivers\DshanMCU-F103\driver_ir_receiver.c 0x00000000   Number         0  driver_ir_receiver.o ABSOLUTE
    ..\Drivers\DshanMCU-F103\driver_ir_sender.c 0x00000000   Number         0  driver_ir_sender.o ABSOLUTE
    ..\Drivers\DshanMCU-F103\driver_irq.c    0x00000000   Number         0  driver_irq.o ABSOLUTE
    ..\Drivers\DshanMCU-F103\driver_key.c    0x00000000   Number         0  driver_key.o ABSOLUTE
    ..\Drivers\DshanMCU-F103\driver_lcd.c    0x00000000   Number         0  driver_lcd.o ABSOLUTE
    ..\Drivers\DshanMCU-F103\driver_led.c    0x00000000   Number         0  driver_led.o ABSOLUTE
    ..\Drivers\DshanMCU-F103\driver_light_sensor.c 0x00000000   Number         0  driver_light_sensor.o ABSOLUTE
    ..\Drivers\DshanMCU-F103\driver_motor.c  0x00000000   Number         0  driver_motor.o ABSOLUTE
    ..\Drivers\DshanMCU-F103\driver_mpu6050.c 0x00000000   Number         0  driver_mpu6050.o ABSOLUTE
    ..\Drivers\DshanMCU-F103\driver_oled.c   0x00000000   Number         0  driver_oled.o ABSOLUTE
    ..\Drivers\DshanMCU-F103\driver_passive_buzzer.c 0x00000000   Number         0  driver_passive_buzzer.o ABSOLUTE
    ..\Drivers\DshanMCU-F103\driver_rotary_encoder.c 0x00000000   Number         0  driver_rotary_encoder.o ABSOLUTE
    ..\Drivers\DshanMCU-F103\driver_spiflash_w25q64.c 0x00000000   Number         0  driver_spiflash_w25q64.o ABSOLUTE
    ..\Drivers\DshanMCU-F103\driver_timer.c  0x00000000   Number         0  driver_timer.o ABSOLUTE
    ..\Drivers\DshanMCU-F103\driver_uart.c   0x00000000   Number         0  driver_uart.o ABSOLUTE
    ..\Drivers\DshanMCU-F103\driver_ultrasonic_sr04.c 0x00000000   Number         0  driver_ultrasonic_sr04.o ABSOLUTE
    ..\Drivers\STM32F1xx_HAL_Driver\Src\stm32f1xx_hal.c 0x00000000   Number         0  stm32f1xx_hal.o ABSOLUTE
    ..\Drivers\STM32F1xx_HAL_Driver\Src\stm32f1xx_hal_adc.c 0x00000000   Number         0  stm32f1xx_hal_adc.o ABSOLUTE
    ..\Drivers\STM32F1xx_HAL_Driver\Src\stm32f1xx_hal_adc_ex.c 0x00000000   Number         0  stm32f1xx_hal_adc_ex.o ABSOLUTE
    ..\Drivers\STM32F1xx_HAL_Driver\Src\stm32f1xx_hal_cortex.c 0x00000000   Number         0  stm32f1xx_hal_cortex.o ABSOLUTE
    ..\Drivers\STM32F1xx_HAL_Driver\Src\stm32f1xx_hal_dma.c 0x00000000   Number         0  stm32f1xx_hal_dma.o ABSOLUTE
    ..\Drivers\STM32F1xx_HAL_Driver\Src\stm32f1xx_hal_exti.c 0x00000000   Number         0  stm32f1xx_hal_exti.o ABSOLUTE
    ..\Drivers\STM32F1xx_HAL_Driver\Src\stm32f1xx_hal_flash.c 0x00000000   Number         0  stm32f1xx_hal_flash.o ABSOLUTE
    ..\Drivers\STM32F1xx_HAL_Driver\Src\stm32f1xx_hal_flash_ex.c 0x00000000   Number         0  stm32f1xx_hal_flash_ex.o ABSOLUTE
    ..\Drivers\STM32F1xx_HAL_Driver\Src\stm32f1xx_hal_gpio.c 0x00000000   Number         0  stm32f1xx_hal_gpio.o ABSOLUTE
    ..\Drivers\STM32F1xx_HAL_Driver\Src\stm32f1xx_hal_gpio_ex.c 0x00000000   Number         0  stm32f1xx_hal_gpio_ex.o ABSOLUTE
    ..\Drivers\STM32F1xx_HAL_Driver\Src\stm32f1xx_hal_i2c.c 0x00000000   Number         0  stm32f1xx_hal_i2c.o ABSOLUTE
    ..\Drivers\STM32F1xx_HAL_Driver\Src\stm32f1xx_hal_pcd.c 0x00000000   Number         0  stm32f1xx_hal_pcd.o ABSOLUTE
    ..\Drivers\STM32F1xx_HAL_Driver\Src\stm32f1xx_hal_pcd_ex.c 0x00000000   Number         0  stm32f1xx_hal_pcd_ex.o ABSOLUTE
    ..\Drivers\STM32F1xx_HAL_Driver\Src\stm32f1xx_hal_pwr.c 0x00000000   Number         0  stm32f1xx_hal_pwr.o ABSOLUTE
    ..\Drivers\STM32F1xx_HAL_Driver\Src\stm32f1xx_hal_rcc.c 0x00000000   Number         0  stm32f1xx_hal_rcc.o ABSOLUTE
    ..\Drivers\STM32F1xx_HAL_Driver\Src\stm32f1xx_hal_rcc_ex.c 0x00000000   Number         0  stm32f1xx_hal_rcc_ex.o ABSOLUTE
    ..\Drivers\STM32F1xx_HAL_Driver\Src\stm32f1xx_hal_spi.c 0x00000000   Number         0  stm32f1xx_hal_spi.o ABSOLUTE
    ..\Drivers\STM32F1xx_HAL_Driver\Src\stm32f1xx_hal_tim.c 0x00000000   Number         0  stm32f1xx_hal_tim.o ABSOLUTE
    ..\Drivers\STM32F1xx_HAL_Driver\Src\stm32f1xx_hal_tim_ex.c 0x00000000   Number         0  stm32f1xx_hal_tim_ex.o ABSOLUTE
    ..\Drivers\STM32F1xx_HAL_Driver\Src\stm32f1xx_hal_uart.c 0x00000000   Number         0  stm32f1xx_hal_uart.o ABSOLUTE
    ..\Drivers\STM32F1xx_HAL_Driver\Src\stm32f1xx_ll_usb.c 0x00000000   Number         0  stm32f1xx_ll_usb.o ABSOLUTE
    ..\Middlewares\Third_Party\FreeRTOS\Source\CMSIS_RTOS_V2\cmsis_os2.c 0x00000000   Number         0  cmsis_os2.o ABSOLUTE
    ..\Middlewares\Third_Party\FreeRTOS\Source\portable\RVDS\ARM_CM3\port.c 0x00000000   Number         0  port.o ABSOLUTE
    ..\\Drivers\\DshanMCU-F103\\driver_active_buzzer.c 0x00000000   Number         0  driver_active_buzzer.o ABSOLUTE
    ..\\Drivers\\DshanMCU-F103\\driver_color_led.c 0x00000000   Number         0  driver_color_led.o ABSOLUTE
    ..\\Drivers\\DshanMCU-F103\\driver_dht11.c 0x00000000   Number         0  driver_dht11.o ABSOLUTE
    ..\\Drivers\\DshanMCU-F103\\driver_ds18b20.c 0x00000000   Number         0  driver_ds18b20.o ABSOLUTE
    ..\\Drivers\\DshanMCU-F103\\driver_ir_obstacle.c 0x00000000   Number         0  driver_ir_obstacle.o ABSOLUTE
    ..\\Drivers\\DshanMCU-F103\\driver_ir_receiver.c 0x00000000   Number         0  driver_ir_receiver.o ABSOLUTE
    ..\\Drivers\\DshanMCU-F103\\driver_ir_sender.c 0x00000000   Number         0  driver_ir_sender.o ABSOLUTE
    ..\\Drivers\\DshanMCU-F103\\driver_irq.c 0x00000000   Number         0  driver_irq.o ABSOLUTE
    ..\\Drivers\\DshanMCU-F103\\driver_key.c 0x00000000   Number         0  driver_key.o ABSOLUTE
    ..\\Drivers\\DshanMCU-F103\\driver_led.c 0x00000000   Number         0  driver_led.o ABSOLUTE
    ..\\Drivers\\DshanMCU-F103\\driver_light_sensor.c 0x00000000   Number         0  driver_light_sensor.o ABSOLUTE
    ..\\Drivers\\DshanMCU-F103\\driver_motor.c 0x00000000   Number         0  driver_motor.o ABSOLUTE
    ..\\Drivers\\DshanMCU-F103\\driver_mpu6050.c 0x00000000   Number         0  driver_mpu6050.o ABSOLUTE
    ..\\Drivers\\DshanMCU-F103\\driver_oled.c 0x00000000   Number         0  driver_oled.o ABSOLUTE
    ..\\Drivers\\DshanMCU-F103\\driver_passive_buzzer.c 0x00000000   Number         0  driver_passive_buzzer.o ABSOLUTE
    ..\\Drivers\\DshanMCU-F103\\driver_rotary_encoder.c 0x00000000   Number         0  driver_rotary_encoder.o ABSOLUTE
    ..\\Drivers\\DshanMCU-F103\\driver_spiflash_w25q64.c 0x00000000   Number         0  driver_spiflash_w25q64.o ABSOLUTE
    ..\\Drivers\\DshanMCU-F103\\driver_timer.c 0x00000000   Number         0  driver_timer.o ABSOLUTE
    ..\\Drivers\\DshanMCU-F103\\driver_uart.c 0x00000000   Number         0  driver_uart.o ABSOLUTE
    ..\\Drivers\\DshanMCU-F103\\driver_ultrasonic_sr04.c 0x00000000   Number         0  driver_ultrasonic_sr04.o ABSOLUTE
    ..\nwatch\draw.c                         0x00000000   Number         0  draw.o ABSOLUTE
    ..\nwatch\game1.c                        0x00000000   Number         0  game1.o ABSOLUTE
    ..\nwatch\game2.c                        0x00000000   Number         0  game2.o ABSOLUTE
    ..\nwatch\resources.c                    0x00000000   Number         0  resources.o ABSOLUTE
    cdrcmple.s                               0x00000000   Number         0  cdrcmple.o ABSOLUTE
    cfcmple.s                                0x00000000   Number         0  cfcmple.o ABSOLUTE
    cfrcmple.s                               0x00000000   Number         0  cfrcmple.o ABSOLUTE
    dc.s                                     0x00000000   Number         0  dc.o ABSOLUTE
    handlers.s                               0x00000000   Number         0  handlers.o ABSOLUTE
    init.s                                   0x00000000   Number         0  init.o ABSOLUTE
    startup_stm32f103xb.s                    0x00000000   Number         0  startup_stm32f103xb.o ABSOLUTE
    RESET                                    0x08000000   Section      236  startup_stm32f103xb.o(RESET)
    .ARM.Collect$$$$00000000                 0x080000ec   Section        0  entry.o(.ARM.Collect$$$$00000000)
    .ARM.Collect$$$$00000001                 0x080000ec   Section        4  entry2.o(.ARM.Collect$$$$00000001)
    .ARM.Collect$$$$00000004                 0x080000f0   Section        4  entry5.o(.ARM.Collect$$$$00000004)
    .ARM.Collect$$$$00000008                 0x080000f4   Section        0  entry7b.o(.ARM.Collect$$$$00000008)
    .ARM.Collect$$$$0000000A                 0x080000f4   Section        0  entry8b.o(.ARM.Collect$$$$0000000A)
    .ARM.Collect$$$$0000000B                 0x080000f4   Section        8  entry9a.o(.ARM.Collect$$$$0000000B)
    .ARM.Collect$$$$0000000D                 0x080000fc   Section        0  entry10a.o(.ARM.Collect$$$$0000000D)
    .ARM.Collect$$$$0000000F                 0x080000fc   Section        0  entry11a.o(.ARM.Collect$$$$0000000F)
    .ARM.Collect$$$$00002712                 0x080000fc   Section        4  entry2.o(.ARM.Collect$$$$00002712)
    __lit__00000000                          0x080000fc   Data           4  entry2.o(.ARM.Collect$$$$00002712)
    .emb_text                                0x08000100   Section      150  port.o(.emb_text)
    .text                                    0x08000198   Section       36  startup_stm32f103xb.o(.text)
    .text                                    0x080001bc   Section        0  uldiv.o(.text)
    .text                                    0x0800021e   Section        0  llushr.o(.text)
    .text                                    0x0800023e   Section        0  memcpya.o(.text)
    .text                                    0x08000262   Section        0  memseta.o(.text)
    .text                                    0x08000286   Section        0  llshl.o(.text)
    .text                                    0x080002a4   Section       36  init.o(.text)
    i.ADC_ConversionStop_Disable             0x080002c8   Section        0  stm32f1xx_hal_adc.o(i.ADC_ConversionStop_Disable)
    i.BusFault_Handler                       0x0800031e   Section        0  stm32f1xx_it.o(i.BusFault_Handler)
    i.CarTask                                0x08000320   Section        0  game2.o(i.CarTask)
    CarTask                                  0x08000321   Thumb Code   158  game2.o(i.CarTask)
    i.DebugMon_Handler                       0x080003c8   Section        0  stm32f1xx_it.o(i.DebugMon_Handler)
    i.DispatchKey                            0x080003cc   Section        0  driver_ir_receiver.o(i.DispatchKey)
    i.EXTI15_10_IRQHandler                   0x08000400   Section        0  stm32f1xx_it.o(i.EXTI15_10_IRQHandler)
    i.Error_Handler                          0x0800041e   Section        0  main.o(i.Error_Handler)
    i.HAL_ADC_ConfigChannel                  0x08000424   Section        0  stm32f1xx_hal_adc.o(i.HAL_ADC_ConfigChannel)
    i.HAL_ADC_Init                           0x08000520   Section        0  stm32f1xx_hal_adc.o(i.HAL_ADC_Init)
    i.HAL_ADC_MspInit                        0x0800063c   Section        0  adc.o(i.HAL_ADC_MspInit)
    i.HAL_GPIO_EXTI_Callback                 0x08000694   Section        0  driver_irq.o(i.HAL_GPIO_EXTI_Callback)
    i.HAL_GPIO_EXTI_IRQHandler               0x080006ac   Section        0  stm32f1xx_hal_gpio.o(i.HAL_GPIO_EXTI_IRQHandler)
    i.HAL_GPIO_Init                          0x080006c4   Section        0  stm32f1xx_hal_gpio.o(i.HAL_GPIO_Init)
    i.HAL_GPIO_ReadPin                       0x080008a4   Section        0  stm32f1xx_hal_gpio.o(i.HAL_GPIO_ReadPin)
    i.HAL_GPIO_WritePin                      0x080008ae   Section        0  stm32f1xx_hal_gpio.o(i.HAL_GPIO_WritePin)
    i.HAL_GetTick                            0x080008b8   Section        0  stm32f1xx_hal.o(i.HAL_GetTick)
    i.HAL_I2C_Init                           0x080008c4   Section        0  stm32f1xx_hal_i2c.o(i.HAL_I2C_Init)
    i.HAL_I2C_Master_Transmit                0x08000a4c   Section        0  stm32f1xx_hal_i2c.o(i.HAL_I2C_Master_Transmit)
    i.HAL_I2C_Mem_Write                      0x08000b78   Section        0  stm32f1xx_hal_i2c.o(i.HAL_I2C_Mem_Write)
    i.HAL_I2C_MspInit                        0x08000ca8   Section        0  i2c.o(i.HAL_I2C_MspInit)
    i.HAL_IncTick                            0x08000d04   Section        0  stm32f1xx_hal.o(i.HAL_IncTick)
    i.HAL_Init                               0x08000d14   Section        0  stm32f1xx_hal.o(i.HAL_Init)
    i.HAL_InitTick                           0x08000d38   Section        0  stm32f1xx_hal_timebase_tim.o(i.HAL_InitTick)
    i.HAL_MspInit                            0x08000dd0   Section        0  stm32f1xx_hal_msp.o(i.HAL_MspInit)
    i.HAL_NVIC_EnableIRQ                     0x08000e18   Section        0  stm32f1xx_hal_cortex.o(i.HAL_NVIC_EnableIRQ)
    i.HAL_NVIC_SetPriority                   0x08000e34   Section        0  stm32f1xx_hal_cortex.o(i.HAL_NVIC_SetPriority)
    i.HAL_NVIC_SetPriorityGrouping           0x08000e74   Section        0  stm32f1xx_hal_cortex.o(i.HAL_NVIC_SetPriorityGrouping)
    i.HAL_PCD_Init                           0x08000e98   Section        0  stm32f1xx_hal_pcd.o(i.HAL_PCD_Init)
    i.HAL_PCD_MspInit                        0x08000f74   Section        0  usb.o(i.HAL_PCD_MspInit)
    i.HAL_RCCEx_PeriphCLKConfig              0x08000f9c   Section        0  stm32f1xx_hal_rcc_ex.o(i.HAL_RCCEx_PeriphCLKConfig)
    i.HAL_RCC_ClockConfig                    0x08001088   Section        0  stm32f1xx_hal_rcc.o(i.HAL_RCC_ClockConfig)
    i.HAL_RCC_GetClockConfig                 0x080011b4   Section        0  stm32f1xx_hal_rcc.o(i.HAL_RCC_GetClockConfig)
    i.HAL_RCC_GetPCLK1Freq                   0x080011f4   Section        0  stm32f1xx_hal_rcc.o(i.HAL_RCC_GetPCLK1Freq)
    i.HAL_RCC_GetPCLK2Freq                   0x08001214   Section        0  stm32f1xx_hal_rcc.o(i.HAL_RCC_GetPCLK2Freq)
    i.HAL_RCC_GetSysClockFreq                0x08001234   Section        0  stm32f1xx_hal_rcc.o(i.HAL_RCC_GetSysClockFreq)
    i.HAL_RCC_OscConfig                      0x08001280   Section        0  stm32f1xx_hal_rcc.o(i.HAL_RCC_OscConfig)
    i.HAL_SPI_Init                           0x080015a0   Section        0  stm32f1xx_hal_spi.o(i.HAL_SPI_Init)
    i.HAL_SPI_MspInit                        0x08001654   Section        0  spi.o(i.HAL_SPI_MspInit)
    i.HAL_TIMEx_BreakCallback                0x080016c4   Section        0  stm32f1xx_hal_tim_ex.o(i.HAL_TIMEx_BreakCallback)
    i.HAL_TIMEx_CommutCallback               0x080016c6   Section        0  stm32f1xx_hal_tim_ex.o(i.HAL_TIMEx_CommutCallback)
    i.HAL_TIMEx_ConfigBreakDeadTime          0x080016c8   Section        0  stm32f1xx_hal_tim_ex.o(i.HAL_TIMEx_ConfigBreakDeadTime)
    i.HAL_TIMEx_MasterConfigSynchronization  0x0800171c   Section        0  stm32f1xx_hal_tim_ex.o(i.HAL_TIMEx_MasterConfigSynchronization)
    i.HAL_TIM_Base_Init                      0x08001784   Section        0  stm32f1xx_hal_tim.o(i.HAL_TIM_Base_Init)
    i.HAL_TIM_Base_MspInit                   0x080017e0   Section        0  tim.o(i.HAL_TIM_Base_MspInit)
    i.HAL_TIM_Base_Start_IT                  0x0800181c   Section        0  stm32f1xx_hal_tim.o(i.HAL_TIM_Base_Start_IT)
    i.HAL_TIM_ConfigClockSource              0x08001874   Section        0  stm32f1xx_hal_tim.o(i.HAL_TIM_ConfigClockSource)
    i.HAL_TIM_IC_CaptureCallback             0x08001950   Section        0  stm32f1xx_hal_tim.o(i.HAL_TIM_IC_CaptureCallback)
    i.HAL_TIM_IRQHandler                     0x08001952   Section        0  stm32f1xx_hal_tim.o(i.HAL_TIM_IRQHandler)
    i.HAL_TIM_MspPostInit                    0x08001ab8   Section        0  tim.o(i.HAL_TIM_MspPostInit)
    i.HAL_TIM_OC_DelayElapsedCallback        0x08001ba4   Section        0  stm32f1xx_hal_tim.o(i.HAL_TIM_OC_DelayElapsedCallback)
    i.HAL_TIM_PWM_ConfigChannel              0x08001ba6   Section        0  stm32f1xx_hal_tim.o(i.HAL_TIM_PWM_ConfigChannel)
    i.HAL_TIM_PWM_Init                       0x08001c72   Section        0  stm32f1xx_hal_tim.o(i.HAL_TIM_PWM_Init)
    i.HAL_TIM_PWM_MspInit                    0x08001ccc   Section        0  tim.o(i.HAL_TIM_PWM_MspInit)
    i.HAL_TIM_PWM_PulseFinishedCallback      0x08001cf4   Section        0  stm32f1xx_hal_tim.o(i.HAL_TIM_PWM_PulseFinishedCallback)
    i.HAL_TIM_PeriodElapsedCallback          0x08001cf8   Section        0  main.o(i.HAL_TIM_PeriodElapsedCallback)
    i.HAL_TIM_TriggerCallback                0x08001d0c   Section        0  stm32f1xx_hal_tim.o(i.HAL_TIM_TriggerCallback)
    i.HAL_UART_Init                          0x08001d0e   Section        0  stm32f1xx_hal_uart.o(i.HAL_UART_Init)
    i.HAL_UART_MspInit                       0x08001d74   Section        0  usart.o(i.HAL_UART_MspInit)
    i.HardFault_Handler                      0x08001de4   Section        0  stm32f1xx_it.o(i.HardFault_Handler)
    i.I2C_IsAcknowledgeFailed                0x08001de6   Section        0  stm32f1xx_hal_i2c.o(i.I2C_IsAcknowledgeFailed)
    I2C_IsAcknowledgeFailed                  0x08001de7   Thumb Code    46  stm32f1xx_hal_i2c.o(i.I2C_IsAcknowledgeFailed)
    i.I2C_MasterRequestWrite                 0x08001e14   Section        0  stm32f1xx_hal_i2c.o(i.I2C_MasterRequestWrite)
    I2C_MasterRequestWrite                   0x08001e15   Thumb Code   150  stm32f1xx_hal_i2c.o(i.I2C_MasterRequestWrite)
    i.I2C_RequestMemoryWrite                 0x08001eb0   Section        0  stm32f1xx_hal_i2c.o(i.I2C_RequestMemoryWrite)
    I2C_RequestMemoryWrite                   0x08001eb1   Thumb Code   162  stm32f1xx_hal_i2c.o(i.I2C_RequestMemoryWrite)
    i.I2C_WaitOnBTFFlagUntilTimeout          0x08001f58   Section        0  stm32f1xx_hal_i2c.o(i.I2C_WaitOnBTFFlagUntilTimeout)
    I2C_WaitOnBTFFlagUntilTimeout            0x08001f59   Thumb Code    86  stm32f1xx_hal_i2c.o(i.I2C_WaitOnBTFFlagUntilTimeout)
    i.I2C_WaitOnFlagUntilTimeout             0x08001fb0   Section        0  stm32f1xx_hal_i2c.o(i.I2C_WaitOnFlagUntilTimeout)
    I2C_WaitOnFlagUntilTimeout               0x08001fb1   Thumb Code   144  stm32f1xx_hal_i2c.o(i.I2C_WaitOnFlagUntilTimeout)
    i.I2C_WaitOnMasterAddressFlagUntilTimeout 0x08002040   Section        0  stm32f1xx_hal_i2c.o(i.I2C_WaitOnMasterAddressFlagUntilTimeout)
    I2C_WaitOnMasterAddressFlagUntilTimeout  0x08002041   Thumb Code   188  stm32f1xx_hal_i2c.o(i.I2C_WaitOnMasterAddressFlagUntilTimeout)
    i.I2C_WaitOnTXEFlagUntilTimeout          0x080020fc   Section        0  stm32f1xx_hal_i2c.o(i.I2C_WaitOnTXEFlagUntilTimeout)
    I2C_WaitOnTXEFlagUntilTimeout            0x080020fd   Thumb Code    86  stm32f1xx_hal_i2c.o(i.I2C_WaitOnTXEFlagUntilTimeout)
    i.IRReceiver_IRQTimes_Parse              0x08002154   Section        0  driver_ir_receiver.o(i.IRReceiver_IRQTimes_Parse)
    IRReceiver_IRQTimes_Parse                0x08002155   Thumb Code   256  driver_ir_receiver.o(i.IRReceiver_IRQTimes_Parse)
    i.IRReceiver_IRQ_Callback                0x08002270   Section        0  driver_ir_receiver.o(i.IRReceiver_IRQ_Callback)
    i.IRReceiver_Init                        0x08002324   Section        0  driver_ir_receiver.o(i.IRReceiver_Init)
    i.LCD_Clear                              0x08002340   Section        0  driver_lcd.o(i.LCD_Clear)
    i.LCD_Flush                              0x08002344   Section        0  driver_lcd.o(i.LCD_Flush)
    i.LCD_FlushRegion                        0x08002348   Section        0  driver_lcd.o(i.LCD_FlushRegion)
    i.LCD_GetFrameBuffer                     0x0800234c   Section        0  driver_lcd.o(i.LCD_GetFrameBuffer)
    i.LCD_Init                               0x08002350   Section        0  driver_lcd.o(i.LCD_Init)
    i.LCD_PrintString                        0x08002354   Section        0  driver_lcd.o(i.LCD_PrintString)
    i.MPU6050_Init                           0x08002358   Section        0  driver_mpu6050.o(i.MPU6050_Init)
    i.MPU6050_WriteRegister                  0x080023a0   Section        0  driver_mpu6050.o(i.MPU6050_WriteRegister)
    MPU6050_WriteRegister                    0x080023a1   Thumb Code    32  driver_mpu6050.o(i.MPU6050_WriteRegister)
    i.MX_ADC1_Init                           0x080023c4   Section        0  adc.o(i.MX_ADC1_Init)
    i.MX_FREERTOS_Init                       0x08002414   Section        0  freertos.o(i.MX_FREERTOS_Init)
    i.MX_GPIO_Init                           0x08002448   Section        0  gpio.o(i.MX_GPIO_Init)
    i.MX_I2C1_Init                           0x08002598   Section        0  i2c.o(i.MX_I2C1_Init)
    i.MX_SPI1_Init                           0x080025d8   Section        0  spi.o(i.MX_SPI1_Init)
    i.MX_TIM1_Init                           0x08002620   Section        0  tim.o(i.MX_TIM1_Init)
    i.MX_TIM2_Init                           0x080026f0   Section        0  tim.o(i.MX_TIM2_Init)
    i.MX_TIM3_Init                           0x080027ac   Section        0  tim.o(i.MX_TIM3_Init)
    i.MX_USART1_UART_Init                    0x08002824   Section        0  usart.o(i.MX_USART1_UART_Init)
    i.MX_USB_PCD_Init                        0x0800285c   Section        0  usb.o(i.MX_USB_PCD_Init)
    i.MemManage_Handler                      0x08002890   Section        0  stm32f1xx_it.o(i.MemManage_Handler)
    i.NMI_Handler                            0x08002892   Section        0  stm32f1xx_it.o(i.NMI_Handler)
    i.OLED_Clear                             0x08002894   Section        0  driver_oled.o(i.OLED_Clear)
    i.OLED_Flush                             0x080028c0   Section        0  driver_oled.o(i.OLED_Flush)
    i.OLED_FlushRegion                       0x080028f8   Section        0  driver_oled.o(i.OLED_FlushRegion)
    i.OLED_GetFrameBuffer                    0x08002958   Section        0  driver_oled.o(i.OLED_GetFrameBuffer)
    i.OLED_Init                              0x0800296c   Section        0  driver_oled.o(i.OLED_Init)
    i.OLED_PrintString                       0x08002a00   Section        0  driver_oled.o(i.OLED_PrintString)
    i.OLED_PutChar                           0x08002a34   Section        0  driver_oled.o(i.OLED_PutChar)
    i.OLED_SetComConfig                      0x08002a7c   Section        0  driver_oled.o(i.OLED_SetComConfig)
    OLED_SetComConfig                        0x08002a7d   Thumb Code    44  driver_oled.o(i.OLED_SetComConfig)
    i.OLED_SetPosition                       0x08002aa8   Section        0  driver_oled.o(i.OLED_SetPosition)
    i.OLED_WriteCmd                          0x08002ae8   Section        0  driver_oled.o(i.OLED_WriteCmd)
    OLED_WriteCmd                            0x08002ae9   Thumb Code    34  driver_oled.o(i.OLED_WriteCmd)
    i.OLED_WriteNBytes                       0x08002b10   Section        0  driver_oled.o(i.OLED_WriteNBytes)
    OLED_WriteNBytes                         0x08002b11   Thumb Code    26  driver_oled.o(i.OLED_WriteNBytes)
    i.RegisterQueueHandle                    0x08002b30   Section        0  driver_ir_receiver.o(i.RegisterQueueHandle)
    i.RotaryEncoder_IRQ_Callback             0x08002b4c   Section        0  driver_rotary_encoder.o(i.RotaryEncoder_IRQ_Callback)
    i.RotaryEncoder_Init                     0x08002bcc   Section        0  driver_rotary_encoder.o(i.RotaryEncoder_Init)
    i.SysTick_Handler                        0x08002bf0   Section        0  port.o(i.SysTick_Handler)
    i.SystemClock_Config                     0x08002c1c   Section        0  main.o(i.SystemClock_Config)
    i.SystemInit                             0x08002c98   Section        0  system_stm32f1xx.o(i.SystemInit)
    i.TIM4_IRQHandler                        0x08002c9c   Section        0  stm32f1xx_it.o(i.TIM4_IRQHandler)
    i.TIM_Base_SetConfig                     0x08002ca8   Section        0  stm32f1xx_hal_tim.o(i.TIM_Base_SetConfig)
    i.TIM_ETR_SetConfig                      0x08002d14   Section        0  stm32f1xx_hal_tim.o(i.TIM_ETR_SetConfig)
    i.TIM_ITRx_SetConfig                     0x08002d28   Section        0  stm32f1xx_hal_tim.o(i.TIM_ITRx_SetConfig)
    TIM_ITRx_SetConfig                       0x08002d29   Thumb Code    16  stm32f1xx_hal_tim.o(i.TIM_ITRx_SetConfig)
    i.TIM_OC1_SetConfig                      0x08002d38   Section        0  stm32f1xx_hal_tim.o(i.TIM_OC1_SetConfig)
    TIM_OC1_SetConfig                        0x08002d39   Thumb Code    74  stm32f1xx_hal_tim.o(i.TIM_OC1_SetConfig)
    i.TIM_OC2_SetConfig                      0x08002d88   Section        0  stm32f1xx_hal_tim.o(i.TIM_OC2_SetConfig)
    i.TIM_OC3_SetConfig                      0x08002de0   Section        0  stm32f1xx_hal_tim.o(i.TIM_OC3_SetConfig)
    TIM_OC3_SetConfig                        0x08002de1   Thumb Code    82  stm32f1xx_hal_tim.o(i.TIM_OC3_SetConfig)
    i.TIM_OC4_SetConfig                      0x08002e38   Section        0  stm32f1xx_hal_tim.o(i.TIM_OC4_SetConfig)
    TIM_OC4_SetConfig                        0x08002e39   Thumb Code    64  stm32f1xx_hal_tim.o(i.TIM_OC4_SetConfig)
    i.TIM_TI1_ConfigInputStage               0x08002e7c   Section        0  stm32f1xx_hal_tim.o(i.TIM_TI1_ConfigInputStage)
    TIM_TI1_ConfigInputStage                 0x08002e7d   Thumb Code    34  stm32f1xx_hal_tim.o(i.TIM_TI1_ConfigInputStage)
    i.TIM_TI2_ConfigInputStage               0x08002e9e   Section        0  stm32f1xx_hal_tim.o(i.TIM_TI2_ConfigInputStage)
    TIM_TI2_ConfigInputStage                 0x08002e9f   Thumb Code    36  stm32f1xx_hal_tim.o(i.TIM_TI2_ConfigInputStage)
    i.UART_SetConfig                         0x08002ec4   Section        0  stm32f1xx_hal_uart.o(i.UART_SetConfig)
    UART_SetConfig                           0x08002ec5   Thumb Code   178  stm32f1xx_hal_uart.o(i.UART_SetConfig)
    i.USB_CoreInit                           0x08002f7c   Section        0  stm32f1xx_ll_usb.o(i.USB_CoreInit)
    i.USB_DevDisconnect                      0x08002f80   Section        0  stm32f1xx_ll_usb.o(i.USB_DevDisconnect)
    i.USB_DevInit                            0x08002f84   Section        0  stm32f1xx_ll_usb.o(i.USB_DevInit)
    i.USB_DisableGlobalInt                   0x08002f96   Section        0  stm32f1xx_ll_usb.o(i.USB_DisableGlobalInt)
    i.USB_SetCurrentMode                     0x08002fa4   Section        0  stm32f1xx_ll_usb.o(i.USB_SetCurrentMode)
    i.UsageFault_Handler                     0x08002fa8   Section        0  stm32f1xx_it.o(i.UsageFault_Handler)
    i.__NVIC_SetPriority                     0x08002faa   Section        0  stm32f1xx_hal_cortex.o(i.__NVIC_SetPriority)
    __NVIC_SetPriority                       0x08002fab   Thumb Code    32  stm32f1xx_hal_cortex.o(i.__NVIC_SetPriority)
    i.__scatterload_copy                     0x08002fca   Section       14  handlers.o(i.__scatterload_copy)
    i.__scatterload_null                     0x08002fd8   Section        2  handlers.o(i.__scatterload_null)
    i.__scatterload_zeroinit                 0x08002fda   Section       14  handlers.o(i.__scatterload_zeroinit)
    i.car_game2                              0x08002fe8   Section        0  game2.o(i.car_game2)
    i.draw_bitmap                            0x080030f0   Section        0  draw.o(i.draw_bitmap)
    i.draw_end                               0x080032c0   Section        0  draw.o(i.draw_end)
    i.draw_flushArea                         0x080032c4   Section        0  draw.o(i.draw_flushArea)
    i.draw_init                              0x080032e0   Section        0  draw.o(i.draw_init)
    i.main                                   0x080032f8   Section        0  main.o(i.main)
    i.mdelay                                 0x08003332   Section        0  driver_timer.o(i.mdelay)
    i.osKernelInitialize                     0x0800334c   Section        0  cmsis_os2.o(i.osKernelInitialize)
    i.osKernelStart                          0x08003384   Section        0  cmsis_os2.o(i.osKernelStart)
    i.prvAddCurrentTaskToDelayedList         0x080033c4   Section        0  tasks.o(i.prvAddCurrentTaskToDelayedList)
    prvAddCurrentTaskToDelayedList           0x080033c5   Thumb Code    84  tasks.o(i.prvAddCurrentTaskToDelayedList)
    i.prvAddNewTaskToReadyList               0x08003420   Section        0  tasks.o(i.prvAddNewTaskToReadyList)
    prvAddNewTaskToReadyList                 0x08003421   Thumb Code   190  tasks.o(i.prvAddNewTaskToReadyList)
    i.prvCheckForValidListAndQueue           0x080034f0   Section        0  timers.o(i.prvCheckForValidListAndQueue)
    prvCheckForValidListAndQueue             0x080034f1   Thumb Code    72  timers.o(i.prvCheckForValidListAndQueue)
    i.prvCopyDataFromQueue                   0x08003548   Section        0  queue.o(i.prvCopyDataFromQueue)
    prvCopyDataFromQueue                     0x08003549   Thumb Code    38  queue.o(i.prvCopyDataFromQueue)
    i.prvCopyDataToQueue                     0x0800356e   Section        0  queue.o(i.prvCopyDataToQueue)
    prvCopyDataToQueue                       0x0800356f   Thumb Code   108  queue.o(i.prvCopyDataToQueue)
    i.prvDeleteTCB                           0x080035da   Section        0  tasks.o(i.prvDeleteTCB)
    prvDeleteTCB                             0x080035db   Thumb Code    52  tasks.o(i.prvDeleteTCB)
    i.prvHeapInit                            0x08003610   Section        0  heap_4.o(i.prvHeapInit)
    prvHeapInit                              0x08003611   Thumb Code    66  heap_4.o(i.prvHeapInit)
    i.prvIdleTask                            0x0800365c   Section        0  tasks.o(i.prvIdleTask)
    prvIdleTask                              0x0800365d   Thumb Code    82  tasks.o(i.prvIdleTask)
    i.prvInitialiseNewQueue                  0x080036bc   Section        0  queue.o(i.prvInitialiseNewQueue)
    prvInitialiseNewQueue                    0x080036bd   Thumb Code    38  queue.o(i.prvInitialiseNewQueue)
    i.prvInitialiseNewTask                   0x080036e2   Section        0  tasks.o(i.prvInitialiseNewTask)
    prvInitialiseNewTask                     0x080036e3   Thumb Code   156  tasks.o(i.prvInitialiseNewTask)
    i.prvInsertBlockIntoFreeList             0x08003780   Section        0  heap_4.o(i.prvInsertBlockIntoFreeList)
    prvInsertBlockIntoFreeList               0x08003781   Thumb Code    72  heap_4.o(i.prvInsertBlockIntoFreeList)
    i.prvInsertTimerInActiveList             0x080037cc   Section        0  timers.o(i.prvInsertTimerInActiveList)
    prvInsertTimerInActiveList               0x080037cd   Thumb Code    52  timers.o(i.prvInsertTimerInActiveList)
    i.prvIsQueueEmpty                        0x08003804   Section        0  queue.o(i.prvIsQueueEmpty)
    prvIsQueueEmpty                          0x08003805   Thumb Code    28  queue.o(i.prvIsQueueEmpty)
    i.prvNotifyQueueSetContainer             0x08003820   Section        0  queue.o(i.prvNotifyQueueSetContainer)
    prvNotifyQueueSetContainer               0x08003821   Thumb Code   108  queue.o(i.prvNotifyQueueSetContainer)
    i.prvProcessReceivedCommands             0x0800388c   Section        0  timers.o(i.prvProcessReceivedCommands)
    prvProcessReceivedCommands               0x0800388d   Thumb Code   198  timers.o(i.prvProcessReceivedCommands)
    i.prvProcessTimerOrBlockTask             0x08003958   Section        0  timers.o(i.prvProcessTimerOrBlockTask)
    prvProcessTimerOrBlockTask               0x08003959   Thumb Code   172  timers.o(i.prvProcessTimerOrBlockTask)
    i.prvResetNextTaskUnblockTime            0x08003a0c   Section        0  tasks.o(i.prvResetNextTaskUnblockTime)
    prvResetNextTaskUnblockTime              0x08003a0d   Thumb Code    26  tasks.o(i.prvResetNextTaskUnblockTime)
    i.prvSampleTimeNow                       0x08003a2c   Section        0  timers.o(i.prvSampleTimeNow)
    prvSampleTimeNow                         0x08003a2d   Thumb Code    36  timers.o(i.prvSampleTimeNow)
    i.prvSwitchTimerLists                    0x08003a54   Section        0  timers.o(i.prvSwitchTimerLists)
    prvSwitchTimerLists                      0x08003a55   Thumb Code   102  timers.o(i.prvSwitchTimerLists)
    i.prvTaskExitError                       0x08003ac0   Section        0  port.o(i.prvTaskExitError)
    prvTaskExitError                         0x08003ac1   Thumb Code    36  port.o(i.prvTaskExitError)
    i.prvTimerTask                           0x08003ae8   Section        0  timers.o(i.prvTimerTask)
    prvTimerTask                             0x08003ae9   Thumb Code    32  timers.o(i.prvTimerTask)
    i.prvUnlockQueue                         0x08003b0c   Section        0  queue.o(i.prvUnlockQueue)
    prvUnlockQueue                           0x08003b0d   Thumb Code   120  queue.o(i.prvUnlockQueue)
    i.pvPortMalloc                           0x08003b84   Section        0  heap_4.o(i.pvPortMalloc)
    i.pvTaskIncrementMutexHeldCount          0x08003c5c   Section        0  tasks.o(i.pvTaskIncrementMutexHeldCount)
    i.pxPortInitialiseStack                  0x08003c74   Section        0  port.o(i.pxPortInitialiseStack)
    i.readPixels                             0x08003c98   Section        0  draw.o(i.readPixels)
    readPixels                               0x08003c99   Thumb Code    12  draw.o(i.readPixels)
    i.set_bits                               0x08003ca4   Section        0  draw.o(i.set_bits)
    set_bits                                 0x08003ca5   Thumb Code    22  draw.o(i.set_bits)
    i.system_get_ns                          0x08003cbc   Section        0  driver_timer.o(i.system_get_ns)
    i.udelay                                 0x08003d00   Section        0  driver_timer.o(i.udelay)
    i.uxListRemove                           0x08003d38   Section        0  list.o(i.uxListRemove)
    i.vApplicationGetIdleTaskMemory          0x08003d60   Section        0  cmsis_os2.o(i.vApplicationGetIdleTaskMemory)
    i.vApplicationGetTimerTaskMemory         0x08003d74   Section        0  cmsis_os2.o(i.vApplicationGetTimerTaskMemory)
    i.vListInitialise                        0x08003d8c   Section        0  list.o(i.vListInitialise)
    i.vListInitialiseItem                    0x08003da2   Section        0  list.o(i.vListInitialiseItem)
    i.vListInsert                            0x08003da8   Section        0  list.o(i.vListInsert)
    i.vListInsertEnd                         0x08003dd8   Section        0  list.o(i.vListInsertEnd)
    i.vPortEnterCritical                     0x08003df0   Section        0  port.o(i.vPortEnterCritical)
    i.vPortExitCritical                      0x08003e30   Section        0  port.o(i.vPortExitCritical)
    i.vPortFree                              0x08003e58   Section        0  heap_4.o(i.vPortFree)
    i.vPortSetupTimerInterrupt               0x08003eb4   Section        0  port.o(i.vPortSetupTimerInterrupt)
    i.vPortValidateInterruptPriority         0x08003ed8   Section        0  port.o(i.vPortValidateInterruptPriority)
    i.vQueueAddToRegistry                    0x08003f2c   Section        0  queue.o(i.vQueueAddToRegistry)
    i.vQueueWaitForMessageRestricted         0x08003f54   Section        0  queue.o(i.vQueueWaitForMessageRestricted)
    i.vTaskDelay                             0x08003f98   Section        0  tasks.o(i.vTaskDelay)
    i.vTaskDelete                            0x08003fe4   Section        0  tasks.o(i.vTaskDelete)
    i.vTaskInternalSetTimeOutState           0x08004074   Section        0  tasks.o(i.vTaskInternalSetTimeOutState)
    i.vTaskMissedYield                       0x08004084   Section        0  tasks.o(i.vTaskMissedYield)
    i.vTaskPlaceOnEventList                  0x08004090   Section        0  tasks.o(i.vTaskPlaceOnEventList)
    i.vTaskPlaceOnEventListRestricted        0x080040c0   Section        0  tasks.o(i.vTaskPlaceOnEventListRestricted)
    i.vTaskPriorityDisinheritAfterTimeout    0x080040f8   Section        0  tasks.o(i.vTaskPriorityDisinheritAfterTimeout)
    i.vTaskStartScheduler                    0x08004188   Section        0  tasks.o(i.vTaskStartScheduler)
    i.vTaskSuspendAll                        0x08004210   Section        0  tasks.o(i.vTaskSuspendAll)
    i.vTaskSwitchContext                     0x08004220   Section        0  tasks.o(i.vTaskSwitchContext)
    i.xPortStartScheduler                    0x08004284   Section        0  port.o(i.xPortStartScheduler)
    i.xQueueCreateCountingSemaphore          0x0800432c   Section        0  queue.o(i.xQueueCreateCountingSemaphore)
    i.xQueueGenericCreate                    0x08004366   Section        0  queue.o(i.xQueueGenericCreate)
    i.xQueueGenericCreateStatic              0x080043ae   Section        0  queue.o(i.xQueueGenericCreateStatic)
    i.xQueueGenericReset                     0x08004414   Section        0  queue.o(i.xQueueGenericReset)
    i.xQueueGenericSend                      0x0800449c   Section        0  queue.o(i.xQueueGenericSend)
    i.xQueueGenericSendFromISR               0x08004608   Section        0  queue.o(i.xQueueGenericSendFromISR)
    i.xQueueReceive                          0x080046d4   Section        0  queue.o(i.xQueueReceive)
    i.xQueueSemaphoreTake                    0x0800480c   Section        0  queue.o(i.xQueueSemaphoreTake)
    i.xTaskCheckForTimeOut                   0x08004984   Section        0  tasks.o(i.xTaskCheckForTimeOut)
    i.xTaskCreate                            0x080049f8   Section        0  tasks.o(i.xTaskCreate)
    i.xTaskCreateStatic                      0x08004a52   Section        0  tasks.o(i.xTaskCreateStatic)
    i.xTaskGetSchedulerState                 0x08004aa8   Section        0  tasks.o(i.xTaskGetSchedulerState)
    i.xTaskGetTickCount                      0x08004ac4   Section        0  tasks.o(i.xTaskGetTickCount)
    i.xTaskIncrementTick                     0x08004ad0   Section        0  tasks.o(i.xTaskIncrementTick)
    i.xTaskPriorityDisinherit                0x08004b98   Section        0  tasks.o(i.xTaskPriorityDisinherit)
    i.xTaskPriorityInherit                   0x08004c18   Section        0  tasks.o(i.xTaskPriorityInherit)
    i.xTaskRemoveFromEventList               0x08004c90   Section        0  tasks.o(i.xTaskRemoveFromEventList)
    i.xTaskResumeAll                         0x08004d00   Section        0  tasks.o(i.xTaskResumeAll)
    i.xTimerCreateTimerTask                  0x08004dc4   Section        0  timers.o(i.xTimerCreateTimerTask)
    i.xTimerGenericCommand                   0x08004e24   Section        0  timers.o(i.xTimerGenericCommand)
    .constdata                               0x08004e8c   Section       18  stm32f1xx_hal_rcc.o(.constdata)
    aPredivFactorTable                       0x08004e8c   Data           2  stm32f1xx_hal_rcc.o(.constdata)
    aPLLMULFactorTable                       0x08004e8e   Data          16  stm32f1xx_hal_rcc.o(.constdata)
    .constdata                               0x08004e9e   Section       16  system_stm32f1xx.o(.constdata)
    .constdata                               0x08004eae   Section        8  system_stm32f1xx.o(.constdata)
    .constdata                               0x08004eb6   Section     2048  driver_oled.o(.constdata)
    .constdata                               0x080056b6   Section       68  game2.o(.constdata)
    roadMarking                              0x080056b6   Data           8  game2.o(.constdata)
    carImg                                   0x080056be   Data          30  game2.o(.constdata)
    clearImg                                 0x080056dc   Data          30  game2.o(.constdata)
    .data                                    0x20000000   Section       12  stm32f1xx_hal.o(.data)
    .data                                    0x2000000c   Section        4  system_stm32f1xx.o(.data)
    .data                                    0x20000010   Section       60  tasks.o(.data)
    pxDelayedTaskList                        0x20000014   Data           4  tasks.o(.data)
    pxOverflowDelayedTaskList                0x20000018   Data           4  tasks.o(.data)
    uxDeletedTasksWaitingCleanUp             0x2000001c   Data           4  tasks.o(.data)
    uxCurrentNumberOfTasks                   0x20000020   Data           4  tasks.o(.data)
    xTickCount                               0x20000024   Data           4  tasks.o(.data)
    uxTopReadyPriority                       0x20000028   Data           4  tasks.o(.data)
    xSchedulerRunning                        0x2000002c   Data           4  tasks.o(.data)
    uxPendedTicks                            0x20000030   Data           4  tasks.o(.data)
    xYieldPending                            0x20000034   Data           4  tasks.o(.data)
    xNumOfOverflows                          0x20000038   Data           4  tasks.o(.data)
    uxTaskNumber                             0x2000003c   Data           4  tasks.o(.data)
    xNextTaskUnblockTime                     0x20000040   Data           4  tasks.o(.data)
    xIdleTaskHandle                          0x20000044   Data           4  tasks.o(.data)
    uxSchedulerSuspended                     0x20000048   Data           4  tasks.o(.data)
    .data                                    0x2000004c   Section       20  timers.o(.data)
    pxCurrentTimerList                       0x2000004c   Data           4  timers.o(.data)
    pxOverflowTimerList                      0x20000050   Data           4  timers.o(.data)
    xTimerQueue                              0x20000054   Data           4  timers.o(.data)
    xTimerTaskHandle                         0x20000058   Data           4  timers.o(.data)
    xLastTime                                0x2000005c   Data           4  timers.o(.data)
    .data                                    0x20000060   Section        4  cmsis_os2.o(.data)
    KernelState                              0x20000060   Data           4  cmsis_os2.o(.data)
    .data                                    0x20000064   Section       24  heap_4.o(.data)
    pxEnd                                    0x20000064   Data           4  heap_4.o(.data)
    xFreeBytesRemaining                      0x20000068   Data           4  heap_4.o(.data)
    xMinimumEverFreeBytesRemaining           0x2000006c   Data           4  heap_4.o(.data)
    xBlockAllocatedBit                       0x20000070   Data           4  heap_4.o(.data)
    xStart                                   0x20000074   Data           8  heap_4.o(.data)
    .data                                    0x2000007c   Section       12  port.o(.data)
    ucMaxSysCallPriority                     0x2000007c   Data           1  port.o(.data)
    uxCriticalNesting                        0x20000080   Data           4  port.o(.data)
    ulMaxPRIGROUPValue                       0x20000084   Data           4  port.o(.data)
    .data                                    0x20000088   Section        8  driver_oled.o(.data)
    mem_mode                                 0x20000088   Data           1  driver_oled.o(.data)
    g_pHI2COLED                              0x2000008c   Data           4  driver_oled.o(.data)
    .data                                    0x20000090   Section        8  driver_mpu6050.o(.data)
    g_pHI2C_MPU6050                          0x20000090   Data           4  driver_mpu6050.o(.data)
    g_xQueueMPU6050                          0x20000094   Data           4  driver_mpu6050.o(.data)
    .data                                    0x20000098   Section       32  driver_ir_receiver.o(.data)
    g_IRReceiverIRQ_Cnt                      0x20000098   Data           4  driver_ir_receiver.o(.data)
    g_queue_cnt                              0x2000009c   Data           4  driver_ir_receiver.o(.data)
    g_KeysBuf_R                              0x200000a0   Data           4  driver_ir_receiver.o(.data)
    g_KeysBuf_W                              0x200000a4   Data           4  driver_ir_receiver.o(.data)
    g_xQueueIR                               0x200000a8   Data           4  driver_ir_receiver.o(.data)
    pre_time                                 0x200000b0   Data           8  driver_ir_receiver.o(.data)
    .data                                    0x200000b8   Section       24  driver_rotary_encoder.o(.data)
    g_count                                  0x200000b8   Data           4  driver_rotary_encoder.o(.data)
    g_speed                                  0x200000bc   Data           4  driver_rotary_encoder.o(.data)
    pre_count                                0x200000c0   Data           4  driver_rotary_encoder.o(.data)
    g_xQueueRotary                           0x200000c4   Data           4  driver_rotary_encoder.o(.data)
    pre_time                                 0x200000c8   Data           8  driver_rotary_encoder.o(.data)
    .data                                    0x200000d0   Section       20  draw.o(.data)
    oledBuffer                               0x200000d4   Data           4  draw.o(.data)
    g_xres                                   0x200000d8   Data           4  draw.o(.data)
    g_yres                                   0x200000dc   Data           4  draw.o(.data)
    g_bpp                                    0x200000e0   Data           4  draw.o(.data)
    .data                                    0x200000e4   Section       56  game2.o(.data)
    g_xres                                   0x200000e4   Data           4  game2.o(.data)
    g_yres                                   0x200000e8   Data           4  game2.o(.data)
    g_bpp                                    0x200000ec   Data           4  game2.o(.data)
    g_framebuffer                            0x200000f0   Data           4  game2.o(.data)
    g_xSemTicks                              0x200000f4   Data           4  game2.o(.data)
    .bss                                     0x2000011c   Section       48  adc.o(.bss)
    .bss                                     0x2000014c   Section       84  i2c.o(.bss)
    .bss                                     0x200001a0   Section       88  spi.o(.bss)
    .bss                                     0x200001f8   Section      216  tim.o(.bss)
    .bss                                     0x200002d0   Section       72  usart.o(.bss)
    .bss                                     0x20000318   Section      752  usb.o(.bss)
    .bss                                     0x20000608   Section       72  stm32f1xx_hal_timebase_tim.o(.bss)
    .bss                                     0x20000650   Section       64  queue.o(.bss)
    .bss                                     0x20000690   Section     1220  tasks.o(.bss)
    pxReadyTasksLists                        0x20000690   Data        1120  tasks.o(.bss)
    xDelayedTaskList1                        0x20000af0   Data          20  tasks.o(.bss)
    xDelayedTaskList2                        0x20000b04   Data          20  tasks.o(.bss)
    xPendingReadyList                        0x20000b18   Data          20  tasks.o(.bss)
    xTasksWaitingTermination                 0x20000b2c   Data          20  tasks.o(.bss)
    xSuspendedTaskList                       0x20000b40   Data          20  tasks.o(.bss)
    .bss                                     0x20000b54   Section      284  timers.o(.bss)
    xActiveTimerList1                        0x20000b54   Data          20  timers.o(.bss)
    xActiveTimerList2                        0x20000b68   Data          20  timers.o(.bss)
    xStaticTimerQueue                        0x20000b7c   Data          84  timers.o(.bss)
    ucStaticTimerQueueStorage                0x20000bd0   Data         160  timers.o(.bss)
    .bss                                     0x20000c70   Section     1720  cmsis_os2.o(.bss)
    Idle_TCB                                 0x20000c70   Data          92  cmsis_os2.o(.bss)
    Idle_Stack                               0x20000ccc   Data         512  cmsis_os2.o(.bss)
    Timer_TCB                                0x20000ecc   Data          92  cmsis_os2.o(.bss)
    Timer_Stack                              0x20000f28   Data        1024  cmsis_os2.o(.bss)
    .bss                                     0x20001328   Section     8000  heap_4.o(.bss)
    ucHeap                                   0x20001328   Data        8000  heap_4.o(.bss)
    .bss                                     0x20003268   Section     1024  driver_oled.o(.bss)
    oledBuffer                               0x20003268   Data        1024  driver_oled.o(.bss)
    .bss                                     0x20003668   Section      712  driver_ir_receiver.o(.bss)
    g_KeysBuf                                0x20003668   Data         128  driver_ir_receiver.o(.bss)
    g_IRReceiverIRQ_Timers                   0x200036e8   Data         544  driver_ir_receiver.o(.bss)
    g_xQueues                                0x20003908   Data          40  driver_ir_receiver.o(.bss)
    .bss                                     0x20003930   Section      164  driver_rotary_encoder.o(.bss)
    g_ucQueueRotaryBuf                       0x20003930   Data          80  driver_rotary_encoder.o(.bss)
    g_xQueueRotaryStaticStruct               0x20003980   Data          84  driver_rotary_encoder.o(.bss)
    STACK                                    0x200039d8   Section     1024  startup_stm32f103xb.o(STACK)

    Global Symbols

    Symbol Name                              Value     Ov Type        Size  Object(Section)

    BuildAttributes$$THM_ISAv4$P$D$K$B$S$PE$A:L22UL41UL21$X:L11$S22US41US21$IEEE1$IW$USESV6$~STKCKD$USESV7$~SHL$OTIME$ROPI$EBA8$MICROLIB$REQ8$PRES8$EABIv2 0x00000000   Number         0  anon$$obj.o ABSOLUTE
    __ARM_use_no_argv                        0x00000000   Number         0  main.o ABSOLUTE
    _printf_a                                0x00000000   Number         0  stubs.o ABSOLUTE
    _printf_c                                0x00000000   Number         0  stubs.o ABSOLUTE
    _printf_charcount                        0x00000000   Number         0  stubs.o ABSOLUTE
    _printf_d                                0x00000000   Number         0  stubs.o ABSOLUTE
    _printf_e                                0x00000000   Number         0  stubs.o ABSOLUTE
    _printf_f                                0x00000000   Number         0  stubs.o ABSOLUTE
    _printf_flags                            0x00000000   Number         0  stubs.o ABSOLUTE
    _printf_fp_dec                           0x00000000   Number         0  stubs.o ABSOLUTE
    _printf_fp_hex                           0x00000000   Number         0  stubs.o ABSOLUTE
    _printf_g                                0x00000000   Number         0  stubs.o ABSOLUTE
    _printf_i                                0x00000000   Number         0  stubs.o ABSOLUTE
    _printf_int_dec                          0x00000000   Number         0  stubs.o ABSOLUTE
    _printf_l                                0x00000000   Number         0  stubs.o ABSOLUTE
    _printf_lc                               0x00000000   Number         0  stubs.o ABSOLUTE
    _printf_ll                               0x00000000   Number         0  stubs.o ABSOLUTE
    _printf_lld                              0x00000000   Number         0  stubs.o ABSOLUTE
    _printf_lli                              0x00000000   Number         0  stubs.o ABSOLUTE
    _printf_llo                              0x00000000   Number         0  stubs.o ABSOLUTE
    _printf_llu                              0x00000000   Number         0  stubs.o ABSOLUTE
    _printf_llx                              0x00000000   Number         0  stubs.o ABSOLUTE
    _printf_longlong_dec                     0x00000000   Number         0  stubs.o ABSOLUTE
    _printf_longlong_hex                     0x00000000   Number         0  stubs.o ABSOLUTE
    _printf_longlong_oct                     0x00000000   Number         0  stubs.o ABSOLUTE
    _printf_ls                               0x00000000   Number         0  stubs.o ABSOLUTE
    _printf_mbtowc                           0x00000000   Number         0  stubs.o ABSOLUTE
    _printf_n                                0x00000000   Number         0  stubs.o ABSOLUTE
    _printf_o                                0x00000000   Number         0  stubs.o ABSOLUTE
    _printf_p                                0x00000000   Number         0  stubs.o ABSOLUTE
    _printf_percent                          0x00000000   Number         0  stubs.o ABSOLUTE
    _printf_pre_padding                      0x00000000   Number         0  stubs.o ABSOLUTE
    _printf_return_value                     0x00000000   Number         0  stubs.o ABSOLUTE
    _printf_s                                0x00000000   Number         0  stubs.o ABSOLUTE
    _printf_sizespec                         0x00000000   Number         0  stubs.o ABSOLUTE
    _printf_str                              0x00000000   Number         0  stubs.o ABSOLUTE
    _printf_truncate_signed                  0x00000000   Number         0  stubs.o ABSOLUTE
    _printf_truncate_unsigned                0x00000000   Number         0  stubs.o ABSOLUTE
    _printf_u                                0x00000000   Number         0  stubs.o ABSOLUTE
    _printf_wc                               0x00000000   Number         0  stubs.o ABSOLUTE
    _printf_wctomb                           0x00000000   Number         0  stubs.o ABSOLUTE
    _printf_widthprec                        0x00000000   Number         0  stubs.o ABSOLUTE
    _printf_x                                0x00000000   Number         0  stubs.o ABSOLUTE
    __cpp_initialize__aeabi_                  - Undefined Weak Reference
    __cxa_finalize                            - Undefined Weak Reference
    __decompress                              - Undefined Weak Reference
    _clock_init                               - Undefined Weak Reference
    _microlib_exit                            - Undefined Weak Reference
    __Vectors_Size                           0x000000ec   Number         0  startup_stm32f103xb.o ABSOLUTE
    __Vectors                                0x08000000   Data           4  startup_stm32f103xb.o(RESET)
    __Vectors_End                            0x080000ec   Data           0  startup_stm32f103xb.o(RESET)
    __main                                   0x080000ed   Thumb Code     0  entry.o(.ARM.Collect$$$$00000000)
    _main_stk                                0x080000ed   Thumb Code     0  entry2.o(.ARM.Collect$$$$00000001)
    _main_scatterload                        0x080000f1   Thumb Code     0  entry5.o(.ARM.Collect$$$$00000004)
    __main_after_scatterload                 0x080000f5   Thumb Code     0  entry5.o(.ARM.Collect$$$$00000004)
    _main_clock                              0x080000f5   Thumb Code     0  entry7b.o(.ARM.Collect$$$$00000008)
    _main_cpp_init                           0x080000f5   Thumb Code     0  entry8b.o(.ARM.Collect$$$$0000000A)
    _main_init                               0x080000f5   Thumb Code     0  entry9a.o(.ARM.Collect$$$$0000000B)
    __rt_final_cpp                           0x080000fd   Thumb Code     0  entry10a.o(.ARM.Collect$$$$0000000D)
    __rt_final_exit                          0x080000fd   Thumb Code     0  entry11a.o(.ARM.Collect$$$$0000000F)
    SVC_Handler                              0x08000101   Thumb Code    32  port.o(.emb_text)
    __asm___6_port_c_39a90d8d__prvStartFirstTask 0x08000125   Thumb Code    28  port.o(.emb_text)
    PendSV_Handler                           0x08000145   Thumb Code    72  port.o(.emb_text)
    vPortGetIPSR                             0x08000191   Thumb Code     6  port.o(.emb_text)
    Reset_Handler                            0x08000199   Thumb Code     8  startup_stm32f103xb.o(.text)
    ADC1_2_IRQHandler                        0x080001b3   Thumb Code     0  startup_stm32f103xb.o(.text)
    CAN1_RX1_IRQHandler                      0x080001b3   Thumb Code     0  startup_stm32f103xb.o(.text)
    CAN1_SCE_IRQHandler                      0x080001b3   Thumb Code     0  startup_stm32f103xb.o(.text)
    DMA1_Channel1_IRQHandler                 0x080001b3   Thumb Code     0  startup_stm32f103xb.o(.text)
    DMA1_Channel2_IRQHandler                 0x080001b3   Thumb Code     0  startup_stm32f103xb.o(.text)
    DMA1_Channel3_IRQHandler                 0x080001b3   Thumb Code     0  startup_stm32f103xb.o(.text)
    DMA1_Channel4_IRQHandler                 0x080001b3   Thumb Code     0  startup_stm32f103xb.o(.text)
    DMA1_Channel5_IRQHandler                 0x080001b3   Thumb Code     0  startup_stm32f103xb.o(.text)
    DMA1_Channel6_IRQHandler                 0x080001b3   Thumb Code     0  startup_stm32f103xb.o(.text)
    DMA1_Channel7_IRQHandler                 0x080001b3   Thumb Code     0  startup_stm32f103xb.o(.text)
    EXTI0_IRQHandler                         0x080001b3   Thumb Code     0  startup_stm32f103xb.o(.text)
    EXTI1_IRQHandler                         0x080001b3   Thumb Code     0  startup_stm32f103xb.o(.text)
    EXTI2_IRQHandler                         0x080001b3   Thumb Code     0  startup_stm32f103xb.o(.text)
    EXTI3_IRQHandler                         0x080001b3   Thumb Code     0  startup_stm32f103xb.o(.text)
    EXTI4_IRQHandler                         0x080001b3   Thumb Code     0  startup_stm32f103xb.o(.text)
    EXTI9_5_IRQHandler                       0x080001b3   Thumb Code     0  startup_stm32f103xb.o(.text)
    FLASH_IRQHandler                         0x080001b3   Thumb Code     0  startup_stm32f103xb.o(.text)
    I2C1_ER_IRQHandler                       0x080001b3   Thumb Code     0  startup_stm32f103xb.o(.text)
    I2C1_EV_IRQHandler                       0x080001b3   Thumb Code     0  startup_stm32f103xb.o(.text)
    I2C2_ER_IRQHandler                       0x080001b3   Thumb Code     0  startup_stm32f103xb.o(.text)
    I2C2_EV_IRQHandler                       0x080001b3   Thumb Code     0  startup_stm32f103xb.o(.text)
    PVD_IRQHandler                           0x080001b3   Thumb Code     0  startup_stm32f103xb.o(.text)
    RCC_IRQHandler                           0x080001b3   Thumb Code     0  startup_stm32f103xb.o(.text)
    RTC_Alarm_IRQHandler                     0x080001b3   Thumb Code     0  startup_stm32f103xb.o(.text)
    RTC_IRQHandler                           0x080001b3   Thumb Code     0  startup_stm32f103xb.o(.text)
    SPI1_IRQHandler                          0x080001b3   Thumb Code     0  startup_stm32f103xb.o(.text)
    SPI2_IRQHandler                          0x080001b3   Thumb Code     0  startup_stm32f103xb.o(.text)
    TAMPER_IRQHandler                        0x080001b3   Thumb Code     0  startup_stm32f103xb.o(.text)
    TIM1_BRK_IRQHandler                      0x080001b3   Thumb Code     0  startup_stm32f103xb.o(.text)
    TIM1_CC_IRQHandler                       0x080001b3   Thumb Code     0  startup_stm32f103xb.o(.text)
    TIM1_TRG_COM_IRQHandler                  0x080001b3   Thumb Code     0  startup_stm32f103xb.o(.text)
    TIM1_UP_IRQHandler                       0x080001b3   Thumb Code     0  startup_stm32f103xb.o(.text)
    TIM2_IRQHandler                          0x080001b3   Thumb Code     0  startup_stm32f103xb.o(.text)
    TIM3_IRQHandler                          0x080001b3   Thumb Code     0  startup_stm32f103xb.o(.text)
    USART1_IRQHandler                        0x080001b3   Thumb Code     0  startup_stm32f103xb.o(.text)
    USART2_IRQHandler                        0x080001b3   Thumb Code     0  startup_stm32f103xb.o(.text)
    USART3_IRQHandler                        0x080001b3   Thumb Code     0  startup_stm32f103xb.o(.text)
    USBWakeUp_IRQHandler                     0x080001b3   Thumb Code     0  startup_stm32f103xb.o(.text)
    USB_HP_CAN1_TX_IRQHandler                0x080001b3   Thumb Code     0  startup_stm32f103xb.o(.text)
    USB_LP_CAN1_RX0_IRQHandler               0x080001b3   Thumb Code     0  startup_stm32f103xb.o(.text)
    WWDG_IRQHandler                          0x080001b3   Thumb Code     0  startup_stm32f103xb.o(.text)
    __aeabi_uldivmod                         0x080001bd   Thumb Code    98  uldiv.o(.text)
    __aeabi_llsr                             0x0800021f   Thumb Code    32  llushr.o(.text)
    _ll_ushift_r                             0x0800021f   Thumb Code     0  llushr.o(.text)
    __aeabi_memcpy                           0x0800023f   Thumb Code    36  memcpya.o(.text)
    __aeabi_memcpy4                          0x0800023f   Thumb Code     0  memcpya.o(.text)
    __aeabi_memcpy8                          0x0800023f   Thumb Code     0  memcpya.o(.text)
    __aeabi_memset                           0x08000263   Thumb Code    14  memseta.o(.text)
    __aeabi_memset4                          0x08000263   Thumb Code     0  memseta.o(.text)
    __aeabi_memset8                          0x08000263   Thumb Code     0  memseta.o(.text)
    __aeabi_memclr                           0x08000271   Thumb Code     4  memseta.o(.text)
    __aeabi_memclr4                          0x08000271   Thumb Code     0  memseta.o(.text)
    __aeabi_memclr8                          0x08000271   Thumb Code     0  memseta.o(.text)
    memset                                   0x08000275   Thumb Code    18  memseta.o(.text)
    __aeabi_llsl                             0x08000287   Thumb Code    30  llshl.o(.text)
    _ll_shift_l                              0x08000287   Thumb Code     0  llshl.o(.text)
    __scatterload                            0x080002a5   Thumb Code    28  init.o(.text)
    __scatterload_rt2                        0x080002a5   Thumb Code     0  init.o(.text)
    ADC_ConversionStop_Disable               0x080002c9   Thumb Code    86  stm32f1xx_hal_adc.o(i.ADC_ConversionStop_Disable)
    BusFault_Handler                         0x0800031f   Thumb Code     2  stm32f1xx_it.o(i.BusFault_Handler)
    DebugMon_Handler                         0x080003c9   Thumb Code     2  stm32f1xx_it.o(i.DebugMon_Handler)
    DispatchKey                              0x080003cd   Thumb Code    42  driver_ir_receiver.o(i.DispatchKey)
    EXTI15_10_IRQHandler                     0x08000401   Thumb Code    30  stm32f1xx_it.o(i.EXTI15_10_IRQHandler)
    Error_Handler                            0x0800041f   Thumb Code     4  main.o(i.Error_Handler)
    HAL_ADC_ConfigChannel                    0x08000425   Thumb Code   240  stm32f1xx_hal_adc.o(i.HAL_ADC_ConfigChannel)
    HAL_ADC_Init                             0x08000521   Thumb Code   272  stm32f1xx_hal_adc.o(i.HAL_ADC_Init)
    HAL_ADC_MspInit                          0x0800063d   Thumb Code    76  adc.o(i.HAL_ADC_MspInit)
    HAL_GPIO_EXTI_Callback                   0x08000695   Thumb Code    22  driver_irq.o(i.HAL_GPIO_EXTI_Callback)
    HAL_GPIO_EXTI_IRQHandler                 0x080006ad   Thumb Code    18  stm32f1xx_hal_gpio.o(i.HAL_GPIO_EXTI_IRQHandler)
    HAL_GPIO_Init                            0x080006c5   Thumb Code   446  stm32f1xx_hal_gpio.o(i.HAL_GPIO_Init)
    HAL_GPIO_ReadPin                         0x080008a5   Thumb Code    10  stm32f1xx_hal_gpio.o(i.HAL_GPIO_ReadPin)
    HAL_GPIO_WritePin                        0x080008af   Thumb Code    10  stm32f1xx_hal_gpio.o(i.HAL_GPIO_WritePin)
    HAL_GetTick                              0x080008b9   Thumb Code     6  stm32f1xx_hal.o(i.HAL_GetTick)
    HAL_I2C_Init                             0x080008c5   Thumb Code   376  stm32f1xx_hal_i2c.o(i.HAL_I2C_Init)
    HAL_I2C_Master_Transmit                  0x08000a4d   Thumb Code   290  stm32f1xx_hal_i2c.o(i.HAL_I2C_Master_Transmit)
    HAL_I2C_Mem_Write                        0x08000b79   Thumb Code   294  stm32f1xx_hal_i2c.o(i.HAL_I2C_Mem_Write)
    HAL_I2C_MspInit                          0x08000ca9   Thumb Code    80  i2c.o(i.HAL_I2C_MspInit)
    HAL_IncTick                              0x08000d05   Thumb Code    12  stm32f1xx_hal.o(i.HAL_IncTick)
    HAL_Init                                 0x08000d15   Thumb Code    32  stm32f1xx_hal.o(i.HAL_Init)
    HAL_InitTick                             0x08000d39   Thumb Code   132  stm32f1xx_hal_timebase_tim.o(i.HAL_InitTick)
    HAL_MspInit                              0x08000dd1   Thumb Code    62  stm32f1xx_hal_msp.o(i.HAL_MspInit)
    HAL_NVIC_EnableIRQ                       0x08000e19   Thumb Code    26  stm32f1xx_hal_cortex.o(i.HAL_NVIC_EnableIRQ)
    HAL_NVIC_SetPriority                     0x08000e35   Thumb Code    60  stm32f1xx_hal_cortex.o(i.HAL_NVIC_SetPriority)
    HAL_NVIC_SetPriorityGrouping             0x08000e75   Thumb Code    26  stm32f1xx_hal_cortex.o(i.HAL_NVIC_SetPriorityGrouping)
    HAL_PCD_Init                             0x08000e99   Thumb Code   218  stm32f1xx_hal_pcd.o(i.HAL_PCD_Init)
    HAL_PCD_MspInit                          0x08000f75   Thumb Code    30  usb.o(i.HAL_PCD_MspInit)
    HAL_RCCEx_PeriphCLKConfig                0x08000f9d   Thumb Code   224  stm32f1xx_hal_rcc_ex.o(i.HAL_RCCEx_PeriphCLKConfig)
    HAL_RCC_ClockConfig                      0x08001089   Thumb Code   280  stm32f1xx_hal_rcc.o(i.HAL_RCC_ClockConfig)
    HAL_RCC_GetClockConfig                   0x080011b5   Thumb Code    54  stm32f1xx_hal_rcc.o(i.HAL_RCC_GetClockConfig)
    HAL_RCC_GetPCLK1Freq                     0x080011f5   Thumb Code    20  stm32f1xx_hal_rcc.o(i.HAL_RCC_GetPCLK1Freq)
    HAL_RCC_GetPCLK2Freq                     0x08001215   Thumb Code    20  stm32f1xx_hal_rcc.o(i.HAL_RCC_GetPCLK2Freq)
    HAL_RCC_GetSysClockFreq                  0x08001235   Thumb Code    58  stm32f1xx_hal_rcc.o(i.HAL_RCC_GetSysClockFreq)
    HAL_RCC_OscConfig                        0x08001281   Thumb Code   778  stm32f1xx_hal_rcc.o(i.HAL_RCC_OscConfig)
    HAL_SPI_Init                             0x080015a1   Thumb Code   178  stm32f1xx_hal_spi.o(i.HAL_SPI_Init)
    HAL_SPI_MspInit                          0x08001655   Thumb Code    98  spi.o(i.HAL_SPI_MspInit)
    HAL_TIMEx_BreakCallback                  0x080016c5   Thumb Code     2  stm32f1xx_hal_tim_ex.o(i.HAL_TIMEx_BreakCallback)
    HAL_TIMEx_CommutCallback                 0x080016c7   Thumb Code     2  stm32f1xx_hal_tim_ex.o(i.HAL_TIMEx_CommutCallback)
    HAL_TIMEx_ConfigBreakDeadTime            0x080016c9   Thumb Code    84  stm32f1xx_hal_tim_ex.o(i.HAL_TIMEx_ConfigBreakDeadTime)
    HAL_TIMEx_MasterConfigSynchronization    0x0800171d   Thumb Code    92  stm32f1xx_hal_tim_ex.o(i.HAL_TIMEx_MasterConfigSynchronization)
    HAL_TIM_Base_Init                        0x08001785   Thumb Code    90  stm32f1xx_hal_tim.o(i.HAL_TIM_Base_Init)
    HAL_TIM_Base_MspInit                     0x080017e1   Thumb Code    52  tim.o(i.HAL_TIM_Base_MspInit)
    HAL_TIM_Base_Start_IT                    0x0800181d   Thumb Code    76  stm32f1xx_hal_tim.o(i.HAL_TIM_Base_Start_IT)
    HAL_TIM_ConfigClockSource                0x08001875   Thumb Code   220  stm32f1xx_hal_tim.o(i.HAL_TIM_ConfigClockSource)
    HAL_TIM_IC_CaptureCallback               0x08001951   Thumb Code     2  stm32f1xx_hal_tim.o(i.HAL_TIM_IC_CaptureCallback)
    HAL_TIM_IRQHandler                       0x08001953   Thumb Code   358  stm32f1xx_hal_tim.o(i.HAL_TIM_IRQHandler)
    HAL_TIM_MspPostInit                      0x08001ab9   Thumb Code   212  tim.o(i.HAL_TIM_MspPostInit)
    HAL_TIM_OC_DelayElapsedCallback          0x08001ba5   Thumb Code     2  stm32f1xx_hal_tim.o(i.HAL_TIM_OC_DelayElapsedCallback)
    HAL_TIM_PWM_ConfigChannel                0x08001ba7   Thumb Code   204  stm32f1xx_hal_tim.o(i.HAL_TIM_PWM_ConfigChannel)
    HAL_TIM_PWM_Init                         0x08001c73   Thumb Code    90  stm32f1xx_hal_tim.o(i.HAL_TIM_PWM_Init)
    HAL_TIM_PWM_MspInit                      0x08001ccd   Thumb Code    30  tim.o(i.HAL_TIM_PWM_MspInit)
    HAL_TIM_PWM_PulseFinishedCallback        0x08001cf5   Thumb Code     2  stm32f1xx_hal_tim.o(i.HAL_TIM_PWM_PulseFinishedCallback)
    HAL_TIM_PeriodElapsedCallback            0x08001cf9   Thumb Code    14  main.o(i.HAL_TIM_PeriodElapsedCallback)
    HAL_TIM_TriggerCallback                  0x08001d0d   Thumb Code     2  stm32f1xx_hal_tim.o(i.HAL_TIM_TriggerCallback)
    HAL_UART_Init                            0x08001d0f   Thumb Code   100  stm32f1xx_hal_uart.o(i.HAL_UART_Init)
    HAL_UART_MspInit                         0x08001d75   Thumb Code   100  usart.o(i.HAL_UART_MspInit)
    HardFault_Handler                        0x08001de5   Thumb Code     2  stm32f1xx_it.o(i.HardFault_Handler)
    IRReceiver_IRQ_Callback                  0x08002271   Thumb Code   156  driver_ir_receiver.o(i.IRReceiver_IRQ_Callback)
    IRReceiver_Init                          0x08002325   Thumb Code    24  driver_ir_receiver.o(i.IRReceiver_Init)
    LCD_Clear                                0x08002341   Thumb Code     4  driver_lcd.o(i.LCD_Clear)
    LCD_Flush                                0x08002345   Thumb Code     4  driver_lcd.o(i.LCD_Flush)
    LCD_FlushRegion                          0x08002349   Thumb Code     4  driver_lcd.o(i.LCD_FlushRegion)
    LCD_GetFrameBuffer                       0x0800234d   Thumb Code     4  driver_lcd.o(i.LCD_GetFrameBuffer)
    LCD_Init                                 0x08002351   Thumb Code     4  driver_lcd.o(i.LCD_Init)
    LCD_PrintString                          0x08002355   Thumb Code     4  driver_lcd.o(i.LCD_PrintString)
    MPU6050_Init                             0x08002359   Thumb Code    68  driver_mpu6050.o(i.MPU6050_Init)
    MX_ADC1_Init                             0x080023c5   Thumb Code    70  adc.o(i.MX_ADC1_Init)
    MX_FREERTOS_Init                         0x08002415   Thumb Code    40  freertos.o(i.MX_FREERTOS_Init)
    MX_GPIO_Init                             0x08002449   Thumb Code   310  gpio.o(i.MX_GPIO_Init)
    MX_I2C1_Init                             0x08002599   Thumb Code    50  i2c.o(i.MX_I2C1_Init)
    MX_SPI1_Init                             0x080025d9   Thumb Code    62  spi.o(i.MX_SPI1_Init)
    MX_TIM1_Init                             0x08002621   Thumb Code   198  tim.o(i.MX_TIM1_Init)
    MX_TIM2_Init                             0x080026f1   Thumb Code   182  tim.o(i.MX_TIM2_Init)
    MX_TIM3_Init                             0x080027ad   Thumb Code   110  tim.o(i.MX_TIM3_Init)
    MX_USART1_UART_Init                      0x08002825   Thumb Code    48  usart.o(i.MX_USART1_UART_Init)
    MX_USB_PCD_Init                          0x0800285d   Thumb Code    42  usb.o(i.MX_USB_PCD_Init)
    MemManage_Handler                        0x08002891   Thumb Code     2  stm32f1xx_it.o(i.MemManage_Handler)
    NMI_Handler                              0x08002893   Thumb Code     2  stm32f1xx_it.o(i.NMI_Handler)
    OLED_Clear                               0x08002895   Thumb Code    42  driver_oled.o(i.OLED_Clear)
    OLED_Flush                               0x080028c1   Thumb Code    50  driver_oled.o(i.OLED_Flush)
    OLED_FlushRegion                         0x080028f9   Thumb Code    90  driver_oled.o(i.OLED_FlushRegion)
    OLED_GetFrameBuffer                      0x08002959   Thumb Code    16  driver_oled.o(i.OLED_GetFrameBuffer)
    OLED_Init                                0x0800296d   Thumb Code   142  driver_oled.o(i.OLED_Init)
    OLED_PrintString                         0x08002a01   Thumb Code    50  driver_oled.o(i.OLED_PrintString)
    OLED_PutChar                             0x08002a35   Thumb Code    66  driver_oled.o(i.OLED_PutChar)
    OLED_SetPosition                         0x08002aa9   Thumb Code    58  driver_oled.o(i.OLED_SetPosition)
    RegisterQueueHandle                      0x08002b31   Thumb Code    20  driver_ir_receiver.o(i.RegisterQueueHandle)
    RotaryEncoder_IRQ_Callback               0x08002b4d   Thumb Code   116  driver_rotary_encoder.o(i.RotaryEncoder_IRQ_Callback)
    RotaryEncoder_Init                       0x08002bcd   Thumb Code    26  driver_rotary_encoder.o(i.RotaryEncoder_Init)
    SysTick_Handler                          0x08002bf1   Thumb Code    38  port.o(i.SysTick_Handler)
    SystemClock_Config                       0x08002c1d   Thumb Code   124  main.o(i.SystemClock_Config)
    SystemInit                               0x08002c99   Thumb Code     2  system_stm32f1xx.o(i.SystemInit)
    TIM4_IRQHandler                          0x08002c9d   Thumb Code     6  stm32f1xx_it.o(i.TIM4_IRQHandler)
    TIM_Base_SetConfig                       0x08002ca9   Thumb Code    94  stm32f1xx_hal_tim.o(i.TIM_Base_SetConfig)
    TIM_ETR_SetConfig                        0x08002d15   Thumb Code    20  stm32f1xx_hal_tim.o(i.TIM_ETR_SetConfig)
    TIM_OC2_SetConfig                        0x08002d89   Thumb Code    84  stm32f1xx_hal_tim.o(i.TIM_OC2_SetConfig)
    USB_CoreInit                             0x08002f7d   Thumb Code     4  stm32f1xx_ll_usb.o(i.USB_CoreInit)
    USB_DevDisconnect                        0x08002f81   Thumb Code     4  stm32f1xx_ll_usb.o(i.USB_DevDisconnect)
    USB_DevInit                              0x08002f85   Thumb Code    18  stm32f1xx_ll_usb.o(i.USB_DevInit)
    USB_DisableGlobalInt                     0x08002f97   Thumb Code    14  stm32f1xx_ll_usb.o(i.USB_DisableGlobalInt)
    USB_SetCurrentMode                       0x08002fa5   Thumb Code     4  stm32f1xx_ll_usb.o(i.USB_SetCurrentMode)
    UsageFault_Handler                       0x08002fa9   Thumb Code     2  stm32f1xx_it.o(i.UsageFault_Handler)
    __scatterload_copy                       0x08002fcb   Thumb Code    14  handlers.o(i.__scatterload_copy)
    __scatterload_null                       0x08002fd9   Thumb Code     2  handlers.o(i.__scatterload_null)
    __scatterload_zeroinit                   0x08002fdb   Thumb Code    14  handlers.o(i.__scatterload_zeroinit)
    car_game2                                0x08002fe9   Thumb Code   226  game2.o(i.car_game2)
    draw_bitmap                              0x080030f1   Thumb Code   458  draw.o(i.draw_bitmap)
    draw_end                                 0x080032c1   Thumb Code     4  draw.o(i.draw_end)
    draw_flushArea                           0x080032c5   Thumb Code    24  draw.o(i.draw_flushArea)
    draw_init                                0x080032e1   Thumb Code    20  draw.o(i.draw_init)
    main                                     0x080032f9   Thumb Code    58  main.o(i.main)
    mdelay                                   0x08003333   Thumb Code    26  driver_timer.o(i.mdelay)
    osKernelInitialize                       0x0800334d   Thumb Code    50  cmsis_os2.o(i.osKernelInitialize)
    osKernelStart                            0x08003385   Thumb Code    58  cmsis_os2.o(i.osKernelStart)
    pvPortMalloc                             0x08003b85   Thumb Code   210  heap_4.o(i.pvPortMalloc)
    pvTaskIncrementMutexHeldCount            0x08003c5d   Thumb Code    18  tasks.o(i.pvTaskIncrementMutexHeldCount)
    pxPortInitialiseStack                    0x08003c75   Thumb Code    32  port.o(i.pxPortInitialiseStack)
    system_get_ns                            0x08003cbd   Thumb Code    58  driver_timer.o(i.system_get_ns)
    udelay                                   0x08003d01   Thumb Code    52  driver_timer.o(i.udelay)
    uxListRemove                             0x08003d39   Thumb Code    38  list.o(i.uxListRemove)
    vApplicationGetIdleTaskMemory            0x08003d61   Thumb Code    16  cmsis_os2.o(i.vApplicationGetIdleTaskMemory)
    vApplicationGetTimerTaskMemory           0x08003d75   Thumb Code    18  cmsis_os2.o(i.vApplicationGetTimerTaskMemory)
    vListInitialise                          0x08003d8d   Thumb Code    22  list.o(i.vListInitialise)
    vListInitialiseItem                      0x08003da3   Thumb Code     6  list.o(i.vListInitialiseItem)
    vListInsert                              0x08003da9   Thumb Code    48  list.o(i.vListInsert)
    vListInsertEnd                           0x08003dd9   Thumb Code    24  list.o(i.vListInsertEnd)
    vPortEnterCritical                       0x08003df1   Thumb Code    54  port.o(i.vPortEnterCritical)
    vPortExitCritical                        0x08003e31   Thumb Code    34  port.o(i.vPortExitCritical)
    vPortFree                                0x08003e59   Thumb Code    88  heap_4.o(i.vPortFree)
    vPortSetupTimerInterrupt                 0x08003eb5   Thumb Code    32  port.o(i.vPortSetupTimerInterrupt)
    vPortValidateInterruptPriority           0x08003ed9   Thumb Code    74  port.o(i.vPortValidateInterruptPriority)
    vQueueAddToRegistry                      0x08003f2d   Thumb Code    34  queue.o(i.vQueueAddToRegistry)
    vQueueWaitForMessageRestricted           0x08003f55   Thumb Code    68  queue.o(i.vQueueWaitForMessageRestricted)
    vTaskDelay                               0x08003f99   Thumb Code    66  tasks.o(i.vTaskDelay)
    vTaskDelete                              0x08003fe5   Thumb Code   130  tasks.o(i.vTaskDelete)
    vTaskInternalSetTimeOutState             0x08004075   Thumb Code    12  tasks.o(i.vTaskInternalSetTimeOutState)
    vTaskMissedYield                         0x08004085   Thumb Code     8  tasks.o(i.vTaskMissedYield)
    vTaskPlaceOnEventList                    0x08004091   Thumb Code    44  tasks.o(i.vTaskPlaceOnEventList)
    vTaskPlaceOnEventListRestricted          0x080040c1   Thumb Code    52  tasks.o(i.vTaskPlaceOnEventListRestricted)
    vTaskPriorityDisinheritAfterTimeout      0x080040f9   Thumb Code   134  tasks.o(i.vTaskPriorityDisinheritAfterTimeout)
    vTaskStartScheduler                      0x08004189   Thumb Code   118  tasks.o(i.vTaskStartScheduler)
    vTaskSuspendAll                          0x08004211   Thumb Code    10  tasks.o(i.vTaskSuspendAll)
    vTaskSwitchContext                       0x08004221   Thumb Code    90  tasks.o(i.vTaskSwitchContext)
    xPortStartScheduler                      0x08004285   Thumb Code   154  port.o(i.xPortStartScheduler)
    xQueueCreateCountingSemaphore            0x0800432d   Thumb Code    58  queue.o(i.xQueueCreateCountingSemaphore)
    xQueueGenericCreate                      0x08004367   Thumb Code    72  queue.o(i.xQueueGenericCreate)
    xQueueGenericCreateStatic                0x080043af   Thumb Code   102  queue.o(i.xQueueGenericCreateStatic)
    xQueueGenericReset                       0x08004415   Thumb Code   132  queue.o(i.xQueueGenericReset)
    xQueueGenericSend                        0x0800449d   Thumb Code   360  queue.o(i.xQueueGenericSend)
    xQueueGenericSendFromISR                 0x08004609   Thumb Code   202  queue.o(i.xQueueGenericSendFromISR)
    xQueueReceive                            0x080046d5   Thumb Code   308  queue.o(i.xQueueReceive)
    xQueueSemaphoreTake                      0x0800480d   Thumb Code   372  queue.o(i.xQueueSemaphoreTake)
    xTaskCheckForTimeOut                     0x08004985   Thumb Code   112  tasks.o(i.xTaskCheckForTimeOut)
    xTaskCreate                              0x080049f9   Thumb Code    90  tasks.o(i.xTaskCreate)
    xTaskCreateStatic                        0x08004a53   Thumb Code    86  tasks.o(i.xTaskCreateStatic)
    xTaskGetSchedulerState                   0x08004aa9   Thumb Code    22  tasks.o(i.xTaskGetSchedulerState)
    xTaskGetTickCount                        0x08004ac5   Thumb Code     6  tasks.o(i.xTaskGetTickCount)
    xTaskIncrementTick                       0x08004ad1   Thumb Code   190  tasks.o(i.xTaskIncrementTick)
    xTaskPriorityDisinherit                  0x08004b99   Thumb Code   118  tasks.o(i.xTaskPriorityDisinherit)
    xTaskPriorityInherit                     0x08004c19   Thumb Code   112  tasks.o(i.xTaskPriorityInherit)
    xTaskRemoveFromEventList                 0x08004c91   Thumb Code    98  tasks.o(i.xTaskRemoveFromEventList)
    xTaskResumeAll                           0x08004d01   Thumb Code   182  tasks.o(i.xTaskResumeAll)
    xTimerCreateTimerTask                    0x08004dc5   Thumb Code    78  timers.o(i.xTimerCreateTimerTask)
    xTimerGenericCommand                     0x08004e25   Thumb Code    98  timers.o(i.xTimerGenericCommand)
    AHBPrescTable                            0x08004e9e   Data          16  system_stm32f1xx.o(.constdata)
    APBPrescTable                            0x08004eae   Data           8  system_stm32f1xx.o(.constdata)
    ascii_font                               0x08004eb6   Data        2048  driver_oled.o(.constdata)
    Region$$Table$$Base                      0x080056fc   Number         0  anon$$obj.o(Region$$Table)
    Region$$Table$$Limit                     0x0800571c   Number         0  anon$$obj.o(Region$$Table)
    uwTickFreq                               0x20000000   Data           1  stm32f1xx_hal.o(.data)
    uwTickPrio                               0x20000004   Data           4  stm32f1xx_hal.o(.data)
    uwTick                                   0x20000008   Data           4  stm32f1xx_hal.o(.data)
    SystemCoreClock                          0x2000000c   Data           4  system_stm32f1xx.o(.data)
    pxCurrentTCB                             0x20000010   Data           4  tasks.o(.data)
    bInUsed                                  0x200000d0   Data           4  draw.o(.data)
    g_cars                                   0x200000f8   Data          36  game2.o(.data)
    hadc1                                    0x2000011c   Data          48  adc.o(.bss)
    hi2c1                                    0x2000014c   Data          84  i2c.o(.bss)
    hspi1                                    0x200001a0   Data          88  spi.o(.bss)
    htim1                                    0x200001f8   Data          72  tim.o(.bss)
    htim2                                    0x20000240   Data          72  tim.o(.bss)
    htim3                                    0x20000288   Data          72  tim.o(.bss)
    huart1                                   0x200002d0   Data          72  usart.o(.bss)
    hpcd_USB_FS                              0x20000318   Data         752  usb.o(.bss)
    htim4                                    0x20000608   Data          72  stm32f1xx_hal_timebase_tim.o(.bss)
    xQueueRegistry                           0x20000650   Data          64  queue.o(.bss)
    __initial_sp                             0x20003dd8   Data           0  startup_stm32f103xb.o(STACK)



==============================================================================

Memory Map of the image

  Image Entry point : 0x080000ed

  Load Region LR_IROM1 (Base: 0x08000000, Size: 0x00005838, Max: 0x00010000, ABSOLUTE)

    Execution Region ER_IROM1 (Exec base: 0x08000000, Load base: 0x08000000, Size: 0x0000571c, Max: 0x00010000, ABSOLUTE)

    Exec Addr    Load Addr    Size         Type   Attr      Idx    E Section Name        Object

    0x08000000   0x08000000   0x000000ec   Data   RO            3    RESET               startup_stm32f103xb.o
    0x080000ec   0x080000ec   0x00000000   Code   RO         8208  * .ARM.Collect$$$$00000000  mc_w.l(entry.o)
    0x080000ec   0x080000ec   0x00000004   Code   RO         8541    .ARM.Collect$$$$00000001  mc_w.l(entry2.o)
    0x080000f0   0x080000f0   0x00000004   Code   RO         8544    .ARM.Collect$$$$00000004  mc_w.l(entry5.o)
    0x080000f4   0x080000f4   0x00000000   Code   RO         8546    .ARM.Collect$$$$00000008  mc_w.l(entry7b.o)
    0x080000f4   0x080000f4   0x00000000   Code   RO         8548    .ARM.Collect$$$$0000000A  mc_w.l(entry8b.o)
    0x080000f4   0x080000f4   0x00000008   Code   RO         8549    .ARM.Collect$$$$0000000B  mc_w.l(entry9a.o)
    0x080000fc   0x080000fc   0x00000000   Code   RO         8551    .ARM.Collect$$$$0000000D  mc_w.l(entry10a.o)
    0x080000fc   0x080000fc   0x00000000   Code   RO         8553    .ARM.Collect$$$$0000000F  mc_w.l(entry11a.o)
    0x080000fc   0x080000fc   0x00000004   Code   RO         8542    .ARM.Collect$$$$00002712  mc_w.l(entry2.o)
    0x08000100   0x08000100   0x00000096   Code   RO         6491    .emb_text           port.o
    0x08000196   0x08000196   0x00000002   PAD
    0x08000198   0x08000198   0x00000024   Code   RO            4    .text               startup_stm32f103xb.o
    0x080001bc   0x080001bc   0x00000062   Code   RO         8211    .text               mc_w.l(uldiv.o)
    0x0800021e   0x0800021e   0x00000020   Code   RO         8213    .text               mc_w.l(llushr.o)
    0x0800023e   0x0800023e   0x00000024   Code   RO         8218    .text               mc_w.l(memcpya.o)
    0x08000262   0x08000262   0x00000024   Code   RO         8222    .text               mc_w.l(memseta.o)
    0x08000286   0x08000286   0x0000001e   Code   RO         8558    .text               mc_w.l(llshl.o)
    0x080002a4   0x080002a4   0x00000024   Code   RO         8575    .text               mc_w.l(init.o)
    0x080002c8   0x080002c8   0x00000056   Code   RO         1066    i.ADC_ConversionStop_Disable  stm32f1xx_hal_adc.o
    0x0800031e   0x0800031e   0x00000002   Code   RO          897    i.BusFault_Handler  stm32f1xx_it.o
    0x08000320   0x08000320   0x000000a8   Code   RO         8116    i.CarTask           game2.o
    0x080003c8   0x080003c8   0x00000002   Code   RO          898    i.DebugMon_Handler  stm32f1xx_it.o
    0x080003ca   0x080003ca   0x00000002   PAD
    0x080003cc   0x080003cc   0x00000034   Code   RO         7320    i.DispatchKey       driver_ir_receiver.o
    0x08000400   0x08000400   0x0000001e   Code   RO          899    i.EXTI15_10_IRQHandler  stm32f1xx_it.o
    0x0800041e   0x0800041e   0x00000004   Code   RO           75    i.Error_Handler     main.o
    0x08000422   0x08000422   0x00000002   PAD
    0x08000424   0x08000424   0x000000fc   Code   RO         1072    i.HAL_ADC_ConfigChannel  stm32f1xx_hal_adc.o
    0x08000520   0x08000520   0x0000011c   Code   RO         1081    i.HAL_ADC_Init      stm32f1xx_hal_adc.o
    0x0800063c   0x0800063c   0x00000058   Code   RO          616    i.HAL_ADC_MspInit   adc.o
    0x08000694   0x08000694   0x00000016   Code   RO         7718    i.HAL_GPIO_EXTI_Callback  driver_irq.o
    0x080006aa   0x080006aa   0x00000002   PAD
    0x080006ac   0x080006ac   0x00000018   Code   RO         1658    i.HAL_GPIO_EXTI_IRQHandler  stm32f1xx_hal_gpio.o
    0x080006c4   0x080006c4   0x000001e0   Code   RO         1659    i.HAL_GPIO_Init     stm32f1xx_hal_gpio.o
    0x080008a4   0x080008a4   0x0000000a   Code   RO         1661    i.HAL_GPIO_ReadPin  stm32f1xx_hal_gpio.o
    0x080008ae   0x080008ae   0x0000000a   Code   RO         1663    i.HAL_GPIO_WritePin  stm32f1xx_hal_gpio.o
    0x080008b8   0x080008b8   0x0000000c   Code   RO         1353    i.HAL_GetTick       stm32f1xx_hal.o
    0x080008c4   0x080008c4   0x00000188   Code   RO         2330    i.HAL_I2C_Init      stm32f1xx_hal_i2c.o
    0x08000a4c   0x08000a4c   0x0000012c   Code   RO         2343    i.HAL_I2C_Master_Transmit  stm32f1xx_hal_i2c.o
    0x08000b78   0x08000b78   0x00000130   Code   RO         2351    i.HAL_I2C_Mem_Write  stm32f1xx_hal_i2c.o
    0x08000ca8   0x08000ca8   0x0000005c   Code   RO          658    i.HAL_I2C_MspInit   i2c.o
    0x08000d04   0x08000d04   0x00000010   Code   RO         1359    i.HAL_IncTick       stm32f1xx_hal.o
    0x08000d14   0x08000d14   0x00000024   Code   RO         1360    i.HAL_Init          stm32f1xx_hal.o
    0x08000d38   0x08000d38   0x00000098   Code   RO          991    i.HAL_InitTick      stm32f1xx_hal_timebase_tim.o
    0x08000dd0   0x08000dd0   0x00000048   Code   RO          967    i.HAL_MspInit       stm32f1xx_hal_msp.o
    0x08000e18   0x08000e18   0x0000001a   Code   RO         1819    i.HAL_NVIC_EnableIRQ  stm32f1xx_hal_cortex.o
    0x08000e32   0x08000e32   0x00000002   PAD
    0x08000e34   0x08000e34   0x00000040   Code   RO         1825    i.HAL_NVIC_SetPriority  stm32f1xx_hal_cortex.o
    0x08000e74   0x08000e74   0x00000024   Code   RO         1826    i.HAL_NVIC_SetPriorityGrouping  stm32f1xx_hal_cortex.o
    0x08000e98   0x08000e98   0x000000da   Code   RO         4438    i.HAL_PCD_Init      stm32f1xx_hal_pcd.o
    0x08000f72   0x08000f72   0x00000002   PAD
    0x08000f74   0x08000f74   0x00000028   Code   RO          856    i.HAL_PCD_MspInit   usb.o
    0x08000f9c   0x08000f9c   0x000000ec   Code   RO         1621    i.HAL_RCCEx_PeriphCLKConfig  stm32f1xx_hal_rcc_ex.o
    0x08001088   0x08001088   0x0000012c   Code   RO         1517    i.HAL_RCC_ClockConfig  stm32f1xx_hal_rcc.o
    0x080011b4   0x080011b4   0x00000040   Code   RO         1521    i.HAL_RCC_GetClockConfig  stm32f1xx_hal_rcc.o
    0x080011f4   0x080011f4   0x00000020   Code   RO         1524    i.HAL_RCC_GetPCLK1Freq  stm32f1xx_hal_rcc.o
    0x08001214   0x08001214   0x00000020   Code   RO         1525    i.HAL_RCC_GetPCLK2Freq  stm32f1xx_hal_rcc.o
    0x08001234   0x08001234   0x0000004c   Code   RO         1526    i.HAL_RCC_GetSysClockFreq  stm32f1xx_hal_rcc.o
    0x08001280   0x08001280   0x00000320   Code   RO         1529    i.HAL_RCC_OscConfig  stm32f1xx_hal_rcc.o
    0x080015a0   0x080015a0   0x000000b2   Code   RO         2767    i.HAL_SPI_Init      stm32f1xx_hal_spi.o
    0x08001652   0x08001652   0x00000002   PAD
    0x08001654   0x08001654   0x00000070   Code   RO          700    i.HAL_SPI_MspInit   spi.o
    0x080016c4   0x080016c4   0x00000002   Code   RO         3784    i.HAL_TIMEx_BreakCallback  stm32f1xx_hal_tim_ex.o
    0x080016c6   0x080016c6   0x00000002   Code   RO         3785    i.HAL_TIMEx_CommutCallback  stm32f1xx_hal_tim_ex.o
    0x080016c8   0x080016c8   0x00000054   Code   RO         3787    i.HAL_TIMEx_ConfigBreakDeadTime  stm32f1xx_hal_tim_ex.o
    0x0800171c   0x0800171c   0x00000068   Code   RO         3803    i.HAL_TIMEx_MasterConfigSynchronization  stm32f1xx_hal_tim_ex.o
    0x08001784   0x08001784   0x0000005a   Code   RO         3080    i.HAL_TIM_Base_Init  stm32f1xx_hal_tim.o
    0x080017de   0x080017de   0x00000002   PAD
    0x080017e0   0x080017e0   0x0000003c   Code   RO          742    i.HAL_TIM_Base_MspInit  tim.o
    0x0800181c   0x0800181c   0x00000058   Code   RO         3085    i.HAL_TIM_Base_Start_IT  stm32f1xx_hal_tim.o
    0x08001874   0x08001874   0x000000dc   Code   RO         3089    i.HAL_TIM_ConfigClockSource  stm32f1xx_hal_tim.o
    0x08001950   0x08001950   0x00000002   Code   RO         3114    i.HAL_TIM_IC_CaptureCallback  stm32f1xx_hal_tim.o
    0x08001952   0x08001952   0x00000166   Code   RO         3128    i.HAL_TIM_IRQHandler  stm32f1xx_hal_tim.o
    0x08001ab8   0x08001ab8   0x000000ec   Code   RO          743    i.HAL_TIM_MspPostInit  tim.o
    0x08001ba4   0x08001ba4   0x00000002   Code   RO         3131    i.HAL_TIM_OC_DelayElapsedCallback  stm32f1xx_hal_tim.o
    0x08001ba6   0x08001ba6   0x000000cc   Code   RO         3152    i.HAL_TIM_PWM_ConfigChannel  stm32f1xx_hal_tim.o
    0x08001c72   0x08001c72   0x0000005a   Code   RO         3155    i.HAL_TIM_PWM_Init  stm32f1xx_hal_tim.o
    0x08001ccc   0x08001ccc   0x00000028   Code   RO          745    i.HAL_TIM_PWM_MspInit  tim.o
    0x08001cf4   0x08001cf4   0x00000002   Code   RO         3158    i.HAL_TIM_PWM_PulseFinishedCallback  stm32f1xx_hal_tim.o
    0x08001cf6   0x08001cf6   0x00000002   PAD
    0x08001cf8   0x08001cf8   0x00000014   Code   RO           76    i.HAL_TIM_PeriodElapsedCallback  main.o
    0x08001d0c   0x08001d0c   0x00000002   Code   RO         3171    i.HAL_TIM_TriggerCallback  stm32f1xx_hal_tim.o
    0x08001d0e   0x08001d0e   0x00000064   Code   RO         4081    i.HAL_UART_Init     stm32f1xx_hal_uart.o
    0x08001d72   0x08001d72   0x00000002   PAD
    0x08001d74   0x08001d74   0x00000070   Code   RO          814    i.HAL_UART_MspInit  usart.o
    0x08001de4   0x08001de4   0x00000002   Code   RO          900    i.HardFault_Handler  stm32f1xx_it.o
    0x08001de6   0x08001de6   0x0000002e   Code   RO         2373    i.I2C_IsAcknowledgeFailed  stm32f1xx_hal_i2c.o
    0x08001e14   0x08001e14   0x0000009c   Code   RO         2377    i.I2C_MasterRequestWrite  stm32f1xx_hal_i2c.o
    0x08001eb0   0x08001eb0   0x000000a8   Code   RO         2384    i.I2C_RequestMemoryWrite  stm32f1xx_hal_i2c.o
    0x08001f58   0x08001f58   0x00000056   Code   RO         2388    i.I2C_WaitOnBTFFlagUntilTimeout  stm32f1xx_hal_i2c.o
    0x08001fae   0x08001fae   0x00000002   PAD
    0x08001fb0   0x08001fb0   0x00000090   Code   RO         2389    i.I2C_WaitOnFlagUntilTimeout  stm32f1xx_hal_i2c.o
    0x08002040   0x08002040   0x000000bc   Code   RO         2390    i.I2C_WaitOnMasterAddressFlagUntilTimeout  stm32f1xx_hal_i2c.o
    0x080020fc   0x080020fc   0x00000056   Code   RO         2392    i.I2C_WaitOnTXEFlagUntilTimeout  stm32f1xx_hal_i2c.o
    0x08002152   0x08002152   0x00000002   PAD
    0x08002154   0x08002154   0x0000011c   Code   RO         7324    i.IRReceiver_IRQTimes_Parse  driver_ir_receiver.o
    0x08002270   0x08002270   0x000000b4   Code   RO         7325    i.IRReceiver_IRQ_Callback  driver_ir_receiver.o
    0x08002324   0x08002324   0x0000001c   Code   RO         7326    i.IRReceiver_Init   driver_ir_receiver.o
    0x08002340   0x08002340   0x00000004   Code   RO         7050    i.LCD_Clear         driver_lcd.o
    0x08002344   0x08002344   0x00000004   Code   RO         7053    i.LCD_Flush         driver_lcd.o
    0x08002348   0x08002348   0x00000004   Code   RO         7054    i.LCD_FlushRegion   driver_lcd.o
    0x0800234c   0x0800234c   0x00000004   Code   RO         7055    i.LCD_GetFrameBuffer  driver_lcd.o
    0x08002350   0x08002350   0x00000004   Code   RO         7056    i.LCD_Init          driver_lcd.o
    0x08002354   0x08002354   0x00000004   Code   RO         7059    i.LCD_PrintString   driver_lcd.o
    0x08002358   0x08002358   0x00000048   Code   RO         6737    i.MPU6050_Init      driver_mpu6050.o
    0x080023a0   0x080023a0   0x00000024   Code   RO         6741    i.MPU6050_WriteRegister  driver_mpu6050.o
    0x080023c4   0x080023c4   0x00000050   Code   RO          617    i.MX_ADC1_Init      adc.o
    0x08002414   0x08002414   0x00000034   Code   RO          384    i.MX_FREERTOS_Init  freertos.o
    0x08002448   0x08002448   0x00000150   Code   RO          255    i.MX_GPIO_Init      gpio.o
    0x08002598   0x08002598   0x00000040   Code   RO          659    i.MX_I2C1_Init      i2c.o
    0x080025d8   0x080025d8   0x00000048   Code   RO          701    i.MX_SPI1_Init      spi.o
    0x08002620   0x08002620   0x000000d0   Code   RO          746    i.MX_TIM1_Init      tim.o
    0x080026f0   0x080026f0   0x000000bc   Code   RO          747    i.MX_TIM2_Init      tim.o
    0x080027ac   0x080027ac   0x00000078   Code   RO          748    i.MX_TIM3_Init      tim.o
    0x08002824   0x08002824   0x00000038   Code   RO          815    i.MX_USART1_UART_Init  usart.o
    0x0800285c   0x0800285c   0x00000034   Code   RO          857    i.MX_USB_PCD_Init   usb.o
    0x08002890   0x08002890   0x00000002   Code   RO          901    i.MemManage_Handler  stm32f1xx_it.o
    0x08002892   0x08002892   0x00000002   Code   RO          902    i.NMI_Handler       stm32f1xx_it.o
    0x08002894   0x08002894   0x0000002a   Code   RO         6613    i.OLED_Clear        driver_oled.o
    0x080028be   0x080028be   0x00000002   PAD
    0x080028c0   0x080028c0   0x00000038   Code   RO         6616    i.OLED_Flush        driver_oled.o
    0x080028f8   0x080028f8   0x00000060   Code   RO         6617    i.OLED_FlushRegion  driver_oled.o
    0x08002958   0x08002958   0x00000014   Code   RO         6618    i.OLED_GetFrameBuffer  driver_oled.o
    0x0800296c   0x0800296c   0x00000094   Code   RO         6619    i.OLED_Init         driver_oled.o
    0x08002a00   0x08002a00   0x00000032   Code   RO         6622    i.OLED_PrintString  driver_oled.o
    0x08002a32   0x08002a32   0x00000002   PAD
    0x08002a34   0x08002a34   0x00000048   Code   RO         6623    i.OLED_PutChar      driver_oled.o
    0x08002a7c   0x08002a7c   0x0000002c   Code   RO         6624    i.OLED_SetComConfig  driver_oled.o
    0x08002aa8   0x08002aa8   0x00000040   Code   RO         6625    i.OLED_SetPosition  driver_oled.o
    0x08002ae8   0x08002ae8   0x00000028   Code   RO         6627    i.OLED_WriteCmd     driver_oled.o
    0x08002b10   0x08002b10   0x00000020   Code   RO         6628    i.OLED_WriteNBytes  driver_oled.o
    0x08002b30   0x08002b30   0x0000001c   Code   RO         7329    i.RegisterQueueHandle  driver_ir_receiver.o
    0x08002b4c   0x08002b4c   0x00000080   Code   RO         7655    i.RotaryEncoder_IRQ_Callback  driver_rotary_encoder.o
    0x08002bcc   0x08002bcc   0x00000024   Code   RO         7656    i.RotaryEncoder_Init  driver_rotary_encoder.o
    0x08002bf0   0x08002bf0   0x0000002c   Code   RO         6492    i.SysTick_Handler   port.o
    0x08002c1c   0x08002c1c   0x0000007c   Code   RO           77    i.SystemClock_Config  main.o
    0x08002c98   0x08002c98   0x00000002   Code   RO         4880    i.SystemInit        system_stm32f1xx.o
    0x08002c9a   0x08002c9a   0x00000002   PAD
    0x08002c9c   0x08002c9c   0x0000000c   Code   RO          903    i.TIM4_IRQHandler   stm32f1xx_it.o
    0x08002ca8   0x08002ca8   0x0000006c   Code   RO         3173    i.TIM_Base_SetConfig  stm32f1xx_hal_tim.o
    0x08002d14   0x08002d14   0x00000014   Code   RO         3184    i.TIM_ETR_SetConfig  stm32f1xx_hal_tim.o
    0x08002d28   0x08002d28   0x00000010   Code   RO         3185    i.TIM_ITRx_SetConfig  stm32f1xx_hal_tim.o
    0x08002d38   0x08002d38   0x00000050   Code   RO         3186    i.TIM_OC1_SetConfig  stm32f1xx_hal_tim.o
    0x08002d88   0x08002d88   0x00000058   Code   RO         3187    i.TIM_OC2_SetConfig  stm32f1xx_hal_tim.o
    0x08002de0   0x08002de0   0x00000058   Code   RO         3188    i.TIM_OC3_SetConfig  stm32f1xx_hal_tim.o
    0x08002e38   0x08002e38   0x00000044   Code   RO         3189    i.TIM_OC4_SetConfig  stm32f1xx_hal_tim.o
    0x08002e7c   0x08002e7c   0x00000022   Code   RO         3191    i.TIM_TI1_ConfigInputStage  stm32f1xx_hal_tim.o
    0x08002e9e   0x08002e9e   0x00000024   Code   RO         3193    i.TIM_TI2_ConfigInputStage  stm32f1xx_hal_tim.o
    0x08002ec2   0x08002ec2   0x00000002   PAD
    0x08002ec4   0x08002ec4   0x000000b8   Code   RO         4107    i.UART_SetConfig    stm32f1xx_hal_uart.o
    0x08002f7c   0x08002f7c   0x00000004   Code   RO         4696    i.USB_CoreInit      stm32f1xx_ll_usb.o
    0x08002f80   0x08002f80   0x00000004   Code   RO         4700    i.USB_DevDisconnect  stm32f1xx_ll_usb.o
    0x08002f84   0x08002f84   0x00000012   Code   RO         4701    i.USB_DevInit       stm32f1xx_ll_usb.o
    0x08002f96   0x08002f96   0x0000000e   Code   RO         4702    i.USB_DisableGlobalInt  stm32f1xx_ll_usb.o
    0x08002fa4   0x08002fa4   0x00000004   Code   RO         4717    i.USB_SetCurrentMode  stm32f1xx_ll_usb.o
    0x08002fa8   0x08002fa8   0x00000002   Code   RO          904    i.UsageFault_Handler  stm32f1xx_it.o
    0x08002faa   0x08002faa   0x00000020   Code   RO         1832    i.__NVIC_SetPriority  stm32f1xx_hal_cortex.o
    0x08002fca   0x08002fca   0x0000000e   Code   RO         8579    i.__scatterload_copy  mc_w.l(handlers.o)
    0x08002fd8   0x08002fd8   0x00000002   Code   RO         8580    i.__scatterload_null  mc_w.l(handlers.o)
    0x08002fda   0x08002fda   0x0000000e   Code   RO         8581    i.__scatterload_zeroinit  mc_w.l(handlers.o)
    0x08002fe8   0x08002fe8   0x00000108   Code   RO         8117    i.car_game2         game2.o
    0x080030f0   0x080030f0   0x000001d0   Code   RO         7878    i.draw_bitmap       draw.o
    0x080032c0   0x080032c0   0x00000004   Code   RO         7880    i.draw_end          draw.o
    0x080032c4   0x080032c4   0x0000001c   Code   RO         7881    i.draw_flushArea    draw.o
    0x080032e0   0x080032e0   0x00000018   Code   RO         7882    i.draw_init         draw.o
    0x080032f8   0x080032f8   0x0000003a   Code   RO           78    i.main              main.o
    0x08003332   0x08003332   0x0000001a   Code   RO         6933    i.mdelay            driver_timer.o
    0x0800334c   0x0800334c   0x00000038   Code   RO         6035    i.osKernelInitialize  cmsis_os2.o
    0x08003384   0x08003384   0x00000040   Code   RO         6038    i.osKernelStart     cmsis_os2.o
    0x080033c4   0x080033c4   0x0000005c   Code   RO         5517    i.prvAddCurrentTaskToDelayedList  tasks.o
    0x08003420   0x08003420   0x000000d0   Code   RO         5518    i.prvAddNewTaskToReadyList  tasks.o
    0x080034f0   0x080034f0   0x00000058   Code   RO         5867    i.prvCheckForValidListAndQueue  timers.o
    0x08003548   0x08003548   0x00000026   Code   RO         5085    i.prvCopyDataFromQueue  queue.o
    0x0800356e   0x0800356e   0x0000006c   Code   RO         5086    i.prvCopyDataToQueue  queue.o
    0x080035da   0x080035da   0x00000034   Code   RO         5519    i.prvDeleteTCB      tasks.o
    0x0800360e   0x0800360e   0x00000002   PAD
    0x08003610   0x08003610   0x0000004c   Code   RO         6442    i.prvHeapInit       heap_4.o
    0x0800365c   0x0800365c   0x00000060   Code   RO         5520    i.prvIdleTask       tasks.o
    0x080036bc   0x080036bc   0x00000026   Code   RO         5088    i.prvInitialiseNewQueue  queue.o
    0x080036e2   0x080036e2   0x0000009c   Code   RO         5521    i.prvInitialiseNewTask  tasks.o
    0x0800377e   0x0800377e   0x00000002   PAD
    0x08003780   0x08003780   0x0000004c   Code   RO         6443    i.prvInsertBlockIntoFreeList  heap_4.o
    0x080037cc   0x080037cc   0x00000038   Code   RO         5869    i.prvInsertTimerInActiveList  timers.o
    0x08003804   0x08003804   0x0000001c   Code   RO         5089    i.prvIsQueueEmpty   queue.o
    0x08003820   0x08003820   0x0000006c   Code   RO         5090    i.prvNotifyQueueSetContainer  queue.o
    0x0800388c   0x0800388c   0x000000cc   Code   RO         5870    i.prvProcessReceivedCommands  timers.o
    0x08003958   0x08003958   0x000000b4   Code   RO         5871    i.prvProcessTimerOrBlockTask  timers.o
    0x08003a0c   0x08003a0c   0x00000020   Code   RO         5523    i.prvResetNextTaskUnblockTime  tasks.o
    0x08003a2c   0x08003a2c   0x00000028   Code   RO         5872    i.prvSampleTimeNow  timers.o
    0x08003a54   0x08003a54   0x0000006c   Code   RO         5873    i.prvSwitchTimerLists  timers.o
    0x08003ac0   0x08003ac0   0x00000028   Code   RO         6493    i.prvTaskExitError  port.o
    0x08003ae8   0x08003ae8   0x00000024   Code   RO         5874    i.prvTimerTask      timers.o
    0x08003b0c   0x08003b0c   0x00000078   Code   RO         5091    i.prvUnlockQueue    queue.o
    0x08003b84   0x08003b84   0x000000d8   Code   RO         6444    i.pvPortMalloc      heap_4.o
    0x08003c5c   0x08003c5c   0x00000018   Code   RO         5526    i.pvTaskIncrementMutexHeldCount  tasks.o
    0x08003c74   0x08003c74   0x00000024   Code   RO         6494    i.pxPortInitialiseStack  port.o
    0x08003c98   0x08003c98   0x0000000c   Code   RO         7885    i.readPixels        draw.o
    0x08003ca4   0x08003ca4   0x00000016   Code   RO         7887    i.set_bits          draw.o
    0x08003cba   0x08003cba   0x00000002   PAD
    0x08003cbc   0x08003cbc   0x00000044   Code   RO         6934    i.system_get_ns     driver_timer.o
    0x08003d00   0x08003d00   0x00000038   Code   RO         6935    i.udelay            driver_timer.o
    0x08003d38   0x08003d38   0x00000026   Code   RO         5045    i.uxListRemove      list.o
    0x08003d5e   0x08003d5e   0x00000002   PAD
    0x08003d60   0x08003d60   0x00000014   Code   RO         6084    i.vApplicationGetIdleTaskMemory  cmsis_os2.o
    0x08003d74   0x08003d74   0x00000018   Code   RO         6085    i.vApplicationGetTimerTaskMemory  cmsis_os2.o
    0x08003d8c   0x08003d8c   0x00000016   Code   RO         5046    i.vListInitialise   list.o
    0x08003da2   0x08003da2   0x00000006   Code   RO         5047    i.vListInitialiseItem  list.o
    0x08003da8   0x08003da8   0x00000030   Code   RO         5048    i.vListInsert       list.o
    0x08003dd8   0x08003dd8   0x00000018   Code   RO         5049    i.vListInsertEnd    list.o
    0x08003df0   0x08003df0   0x00000040   Code   RO         6496    i.vPortEnterCritical  port.o
    0x08003e30   0x08003e30   0x00000028   Code   RO         6497    i.vPortExitCritical  port.o
    0x08003e58   0x08003e58   0x0000005c   Code   RO         6445    i.vPortFree         heap_4.o
    0x08003eb4   0x08003eb4   0x00000024   Code   RO         6498    i.vPortSetupTimerInterrupt  port.o
    0x08003ed8   0x08003ed8   0x00000054   Code   RO         6499    i.vPortValidateInterruptPriority  port.o
    0x08003f2c   0x08003f2c   0x00000028   Code   RO         5097    i.vQueueAddToRegistry  queue.o
    0x08003f54   0x08003f54   0x00000044   Code   RO         5101    i.vQueueWaitForMessageRestricted  queue.o
    0x08003f98   0x08003f98   0x0000004c   Code   RO         5535    i.vTaskDelay        tasks.o
    0x08003fe4   0x08003fe4   0x00000090   Code   RO         5537    i.vTaskDelete       tasks.o
    0x08004074   0x08004074   0x00000010   Code   RO         5540    i.vTaskInternalSetTimeOutState  tasks.o
    0x08004084   0x08004084   0x0000000c   Code   RO         5541    i.vTaskMissedYield  tasks.o
    0x08004090   0x08004090   0x00000030   Code   RO         5543    i.vTaskPlaceOnEventList  tasks.o
    0x080040c0   0x080040c0   0x00000038   Code   RO         5544    i.vTaskPlaceOnEventListRestricted  tasks.o
    0x080040f8   0x080040f8   0x00000090   Code   RO         5546    i.vTaskPriorityDisinheritAfterTimeout  tasks.o
    0x08004188   0x08004188   0x00000088   Code   RO         5552    i.vTaskStartScheduler  tasks.o
    0x08004210   0x08004210   0x00000010   Code   RO         5554    i.vTaskSuspendAll   tasks.o
    0x08004220   0x08004220   0x00000064   Code   RO         5555    i.vTaskSwitchContext  tasks.o
    0x08004284   0x08004284   0x000000a8   Code   RO         6500    i.xPortStartScheduler  port.o
    0x0800432c   0x0800432c   0x0000003a   Code   RO         5103    i.xQueueCreateCountingSemaphore  queue.o
    0x08004366   0x08004366   0x00000048   Code   RO         5108    i.xQueueGenericCreate  queue.o
    0x080043ae   0x080043ae   0x00000066   Code   RO         5109    i.xQueueGenericCreateStatic  queue.o
    0x08004414   0x08004414   0x00000088   Code   RO         5110    i.xQueueGenericReset  queue.o
    0x0800449c   0x0800449c   0x0000016c   Code   RO         5111    i.xQueueGenericSend  queue.o
    0x08004608   0x08004608   0x000000ca   Code   RO         5112    i.xQueueGenericSendFromISR  queue.o
    0x080046d2   0x080046d2   0x00000002   PAD
    0x080046d4   0x080046d4   0x00000138   Code   RO         5121    i.xQueueReceive     queue.o
    0x0800480c   0x0800480c   0x00000178   Code   RO         5126    i.xQueueSemaphoreTake  queue.o
    0x08004984   0x08004984   0x00000074   Code   RO         5556    i.xTaskCheckForTimeOut  tasks.o
    0x080049f8   0x080049f8   0x0000005a   Code   RO         5557    i.xTaskCreate       tasks.o
    0x08004a52   0x08004a52   0x00000056   Code   RO         5558    i.xTaskCreateStatic  tasks.o
    0x08004aa8   0x08004aa8   0x0000001c   Code   RO         5562    i.xTaskGetSchedulerState  tasks.o
    0x08004ac4   0x08004ac4   0x0000000c   Code   RO         5563    i.xTaskGetTickCount  tasks.o
    0x08004ad0   0x08004ad0   0x000000c8   Code   RO         5565    i.xTaskIncrementTick  tasks.o
    0x08004b98   0x08004b98   0x00000080   Code   RO         5568    i.xTaskPriorityDisinherit  tasks.o
    0x08004c18   0x08004c18   0x00000078   Code   RO         5569    i.xTaskPriorityInherit  tasks.o
    0x08004c90   0x08004c90   0x00000070   Code   RO         5570    i.xTaskRemoveFromEventList  tasks.o
    0x08004d00   0x08004d00   0x000000c4   Code   RO         5571    i.xTaskResumeAll    tasks.o
    0x08004dc4   0x08004dc4   0x00000060   Code   RO         5881    i.xTimerCreateTimerTask  timers.o
    0x08004e24   0x08004e24   0x00000068   Code   RO         5882    i.xTimerGenericCommand  timers.o
    0x08004e8c   0x08004e8c   0x00000012   Data   RO         1530    .constdata          stm32f1xx_hal_rcc.o
    0x08004e9e   0x08004e9e   0x00000010   Data   RO         4881    .constdata          system_stm32f1xx.o
    0x08004eae   0x08004eae   0x00000008   Data   RO         4882    .constdata          system_stm32f1xx.o
    0x08004eb6   0x08004eb6   0x00000800   Data   RO         6630    .constdata          driver_oled.o
    0x080056b6   0x080056b6   0x00000044   Data   RO         8118    .constdata          game2.o
    0x080056fa   0x080056fa   0x00000002   PAD
    0x080056fc   0x080056fc   0x00000020   Data   RO         8577    Region$$Table       anon$$obj.o


    Execution Region RW_IRAM1 (Exec base: 0x20000000, Load base: 0x0800571c, Size: 0x00003dd8, Max: 0x00005000, ABSOLUTE)

    Exec Addr    Load Addr    Size         Type   Attr      Idx    E Section Name        Object

    0x20000000   0x0800571c   0x0000000c   Data   RW         1367    .data               stm32f1xx_hal.o
    0x2000000c   0x08005728   0x00000004   Data   RW         4883    .data               system_stm32f1xx.o
    0x20000010   0x0800572c   0x0000003c   Data   RW         5574    .data               tasks.o
    0x2000004c   0x08005768   0x00000014   Data   RW         5890    .data               timers.o
    0x20000060   0x0800577c   0x00000004   Data   RW         6087    .data               cmsis_os2.o
    0x20000064   0x08005780   0x00000018   Data   RW         6450    .data               heap_4.o
    0x2000007c   0x08005798   0x0000000c   Data   RW         6501    .data               port.o
    0x20000088   0x080057a4   0x00000008   Data   RW         6631    .data               driver_oled.o
    0x20000090   0x080057ac   0x00000008   Data   RW         6743    .data               driver_mpu6050.o
    0x20000098   0x080057b4   0x00000020   Data   RW         7333    .data               driver_ir_receiver.o
    0x200000b8   0x080057d4   0x00000018   Data   RW         7660    .data               driver_rotary_encoder.o
    0x200000d0   0x080057ec   0x00000014   Data   RW         7888    .data               draw.o
    0x200000e4   0x08005800   0x00000038   Data   RW         8119    .data               game2.o
    0x2000011c        -       0x00000030   Zero   RW          618    .bss                adc.o
    0x2000014c        -       0x00000054   Zero   RW          660    .bss                i2c.o
    0x200001a0        -       0x00000058   Zero   RW          702    .bss                spi.o
    0x200001f8        -       0x000000d8   Zero   RW          749    .bss                tim.o
    0x200002d0        -       0x00000048   Zero   RW          816    .bss                usart.o
    0x20000318        -       0x000002f0   Zero   RW          858    .bss                usb.o
    0x20000608        -       0x00000048   Zero   RW          994    .bss                stm32f1xx_hal_timebase_tim.o
    0x20000650        -       0x00000040   Zero   RW         5128    .bss                queue.o
    0x20000690        -       0x000004c4   Zero   RW         5573    .bss                tasks.o
    0x20000b54        -       0x0000011c   Zero   RW         5889    .bss                timers.o
    0x20000c70        -       0x000006b8   Zero   RW         6086    .bss                cmsis_os2.o
    0x20001328        -       0x00001f40   Zero   RW         6449    .bss                heap_4.o
    0x20003268        -       0x00000400   Zero   RW         6629    .bss                driver_oled.o
    0x20003668        -       0x000002c8   Zero   RW         7330    .bss                driver_ir_receiver.o
    0x20003930        -       0x000000a4   Zero   RW         7659    .bss                driver_rotary_encoder.o
    0x200039d4   0x08005838   0x00000004   PAD
    0x200039d8        -       0x00000400   Zero   RW            1    STACK               startup_stm32f103xb.o


==============================================================================

Image component sizes


      Code (inc. data)   RO Data    RW Data    ZI Data      Debug   Object Name

       168         22          0          0         48       1621   adc.o
       164         22          0          4       1720      12274   cmsis_os2.o
       554         14          0         20          0       7110   draw.o
       572         74          0         32        712       5532   driver_ir_receiver.o
        22          0          0          0          0        529   driver_irq.o
        24          0          0          0          0       3420   driver_lcd.o
       108          8          0          8          0     356218   driver_mpu6050.o
       664         46       2048          8       1024      10163   driver_oled.o
       164         22          0         24        164       3691   driver_rotary_encoder.o
       150         14          0          0          0       2378   driver_timer.o
         0          0          0          0          0      20172   event_groups.o
        52         12          0          0          0       2967   freertos.o
       432         48         68         56          0       9313   game2.o
       336         26          0          0          0     465243   gpio.o
       460         24          0         24       8000       4683   heap_4.o
       156         26          0          0         84       1609   i2c.o
       138          0          0          0          0       3410   list.o
       206          6          0          0          0     409056   main.o
         0          0          0          0          0      20604   music.o
       662         70          0         12          0      10845   port.o
      2170         22          0          0         64      21752   queue.o
       184         24          0          0         88       1633   spi.o
        36          8        236          0       1024        796   startup_stm32f103xb.o
        64         14          0         12          0       4606   stm32f1xx_hal.o
       622         24          0          0          0       3280   stm32f1xx_hal_adc.o
       158         14          0          0          0      28158   stm32f1xx_hal_cortex.o
       524         40          0          0          0       4082   stm32f1xx_hal_gpio.o
      1870         48          0          0          0      11301   stm32f1xx_hal_i2c.o
        72         10          0          0          0        858   stm32f1xx_hal_msp.o
       218          0          0          0          0       1496   stm32f1xx_hal_pcd.o
      1304         94         18          0          0       5709   stm32f1xx_hal_rcc.o
       236         12          0          0          0       1372   stm32f1xx_hal_rcc_ex.o
       178          0          0          0          0       1219   stm32f1xx_hal_spi.o
      1596         46          0          0          0      14016   stm32f1xx_hal_tim.o
       192         12          0          0          0       3169   stm32f1xx_hal_tim_ex.o
       152         20          0          0         72       1463   stm32f1xx_hal_timebase_tim.o
       284          6          0          0          0       1916   stm32f1xx_hal_uart.o
        54          6          0          0          0       3470   stm32f1xx_it.o
        44          0          0          0          0       3304   stm32f1xx_ll_usb.o
         0          0          0          0          0       8880   stream_buffer.o
         2          0         24          4          0       1103   system_stm32f1xx.o
      2496        208          0         60       1220      26623   tasks.o
       852         68          0          0        216       4500   tim.o
       912         82          0         20        284      26023   timers.o
       168         20          0          0         72       1662   usart.o
        92         20          0          0        752       1502   usb.o

    ----------------------------------------------------------------------
     19554       1232       2428        284      15548    1534731   Object Totals
         0          0         32          0          0          0   (incl. Generated)
        42          0          2          0          4          0   (incl. Padding)

    ----------------------------------------------------------------------

      Code (inc. data)   RO Data    RW Data    ZI Data      Debug   Library Member Name

         0          0          0          0          0          0   entry.o
         0          0          0          0          0          0   entry10a.o
         0          0          0          0          0          0   entry11a.o
         8          4          0          0          0          0   entry2.o
         4          0          0          0          0          0   entry5.o
         0          0          0          0          0          0   entry7b.o
         0          0          0          0          0          0   entry8b.o
         8          4          0          0          0          0   entry9a.o
        30          0          0          0          0          0   handlers.o
        36          8          0          0          0         68   init.o
        30          0          0          0          0         68   llshl.o
        32          0          0          0          0         68   llushr.o
        36          0          0          0          0         68   memcpya.o
        36          0          0          0          0        108   memseta.o
        98          0          0          0          0         92   uldiv.o

    ----------------------------------------------------------------------
       318         16          0          0          0        472   Library Totals
         0          0          0          0          0          0   (incl. Padding)

    ----------------------------------------------------------------------

      Code (inc. data)   RO Data    RW Data    ZI Data      Debug   Library Name

       318         16          0          0          0        472   mc_w.l

    ----------------------------------------------------------------------
       318         16          0          0          0        472   Library Totals

    ----------------------------------------------------------------------

==============================================================================


      Code (inc. data)   RO Data    RW Data    ZI Data      Debug   

     19872       1248       2428        284      15548    1524643   Grand Totals
     19872       1248       2428        284      15548    1524643   ELF Image Totals
     19872       1248       2428        284          0          0   ROM Totals

==============================================================================

    Total RO  Size (Code + RO Data)                22300 (  21.78kB)
    Total RW  Size (RW Data + ZI Data)             15832 (  15.46kB)
    Total ROM Size (Code + RO Data + RW Data)      22584 (  22.05kB)

==============================================================================

