:020000040800F2
:100000007022002021020008931000082F0F000822
:10001000911000086B04000899110008000000000E
:10002000000000000000000000000000890100083E
:100030006D04000800000000CD01000895100008C4
:100040003B0200083B0200083B0200083B0200089C
:100050003B0200083B0200083B0200083B0200088C
:100060003B0200083B0200083B0200083B0200087C
:100070003B0200083B0200083B0200083B0200086C
:100080003B0200083B0200083B0200083B0200085C
:100090003B0200083B0200083B0200083B0200084C
:1000A0003B0200083B0200083B0200083B0200083C
:1000B0003B0200083B020008211100083B02000837
:1000C0003B0200083B0200083B0200083B0200081C
:1000D0003B0200083B0200083B0200083B0200080C
:1000E0003B0200083B0200083B02000800F002F857
:1000F00000F03AF80AA090E8000C82448344AAF188
:100100000107DA4501D100F02FF8AFF2090EBAE885
:100110000F0013F0010F18BFFB1A43F0010318473B
:100120006827000088270000103A24BF78C878C1EB
:10013000FAD8520724BF30C830C144BF04680C60ED
:10014000704700000023002400250026103A28BF35
:1001500078C1FBD8520728BF30C148BF0B60704739
:100160001FB51FBD10B510BD00F045F91146FFF7D2
:10017000F7FF01F023F800F063F903B4FFF7F2FF93
:1001800003BC00F06BF90000224B19680868B0E866
:10019000F00F80F30988BFF36F8F4FF0000080F3FA
:1001A00011884EF00D0E70470000000006480068F0
:1001B000006880F3088862B661B6BFF34F8FBFF363
:1001C0006F8F00DF00BF00BF08ED00E0EFF3098094
:1001D000BFF36F8F0F4B1A6820E9F00F106008B55E
:1001E0004FF0500080F31188BFF34F8FBFF36F8F34
:1001F00001F044FE4FF0000080F31188BDE8084094
:1002000019680868B0E8F00F80F30988BFF36F8FB2
:10021000704700BF1C000020EFF30580704700000E
:100220000948804709480047FEE7FEE7FEE7FEE78A
:10023000FEE7FEE7FEE7FEE7FEE7FEE704480549C6
:10024000054A064B704700001F110008ED0000082A
:10025000701C002070220020701E0020701E0020E4
:10026000032A40F2308010F0030C00F0158011F8E2
:10027000013BBCF1020F624498BF11F801CB00F8BA
:10028000013B38BF11F8013BA2F1040298BF00F80E
:1002900001CB38BF00F8013B11F0030300F0578099
:1002A000083AC0F0088051F8043B083A51F804CBF2
:1002B000A0E80810F5E7121D5CBF51F8043B40F8B8
:1002C000043BAFF30080D20724BF11F8013B11F8C3
:1002D00001CB48BF11F8012B24BF00F8013B00F807
:1002E00001CB48BF00F8012B704702F0FF0343EA3F
:1002F000032242EA024200F05EB84FF0000200B56D
:10030000134694469646203922BFA0E80C50A0E838
:100310000C50B1F12001BFF4F7AF090728BFA0E8E6
:100320000C5048BF0CC05DF804EB890028BF40F8B2
:10033000042B08BF704748BF20F8022B11F0804FF4
:1003400018BF00F8012B704770477047704710B511
:10035000203AC0F00B80B1E81850203AA0E81850BD
:10036000B1E81850A0E81850BFF4F5AF5FEA027C7E
:1003700024BFB1E81850A0E8185044BF18C918C0ED
:10038000BDE810405FEA827C24BF51F8043B40F88E
:10039000043B08BF7047D20728BF31F8023B48BF73
:1003A00011F8012B28BF20F8023B48BF00F8012BB1
:1003B00070474FF000020429C0F0128010F0030CC7
:1003C0003FF49DAFCCF1040CBCF1020F18BF00F854
:1003D000012BA8BF20F8022BA1EB0C01FFF78FBF68
:1003E0005FEAC17C24BF00F8012B00F8012B48BF55
:1003F00000F8012B7047754600F02CF8AE4605005A
:100400006946534620F00700854618B020B5FFF72F
:1004100015FFBDE820404FF000064FF000074FF0F9
:1004200000084FF0000B21F00701AC46ACE8C00912
:10043000ACE8C009ACE8C009ACE8C0098D4670471B
:1004400010B50446AFF300802046BDE81040FFF72A
:1004500094BE0000004870470C1C00200149182081
:10046000ABBEFEE7260002007047FEE770470000C3
:100470002DE9F84FDFF8B8910024A9F1040B2346C9
:100480000F2709F1040AABF1040EC9E00125A540CC
:100490002A40AA427DD1674ED1F804C0ACEB0608D1
:1004A000B44532D014DCBCF1030F3AD009DCBCF106
:1004B000000F2AD0BCF1010F1CD0BCF1020F31D1CA
:1004C0001DE0BCF1110F17D0BCF1120F2AD119E0B9
:1004D000B8F5881F19D006DCB8F5803F15D0B8F5FF
:1004E000801F1FD111E0B8F5001F0ED0B8F5041F12
:1004F00018D10AE0CB6815E0CB681B1D12E0CB6871
:1005000008330FE0CB680C330CE08B682BB1012B68
:100510004FF0080303D0456104E0042302E00561C5
:1005200000E00023FF2A01D8064601E000F104069E
:100530004FEA840501D9A5F12005D6F8008007FA15
:1005400005FC28EA0C0803FA05F548EA0508C6F890
:1005500000804D68ED0062D5374DAE6946F001066A
:10056000AE61AD6924F0030605F001050095334D39
:1005700006EB050CDCF80850A607360F07FA06F85C
:1005800025EA0805DFF8B880404503D14FF00008A0
:1005900017E044E0DFF8AC80404502D14FF001089D
:1005A0000FE0DFF8A480404502D14FF0020808E0D8
:1005B000DFF89880404502D14FF0030801E04FF08A
:1005C000040808FA06F848EA0508CCF808804D68DF
:1005D000D9F80060ED024D4601D5164300E0964380
:1005E0002E604D68DAF80060AD02554601D516431D
:1005F00000E096432E604D68DBF80060AD035D4679
:1006000001D5164300E096432E604D68DEF8006089
:10061000ED03754601D5164300E096432E60641C39
:100620000D682A46E5407FF431AFBDE8F88F000041
:1006300008040140000011100010024000000140B9
:1006400000080140000C014000100140001401406E
:100650000AB1016170470904FBE7000001488068A6
:10066000704700000C0000200248816802781144A5
:10067000816070470C000020074810B5016841F008
:1006800010010160032000F0A7F80F2000F006F829
:1006900000F050F8002010BD0020024030B50546A3
:1006A0001F4887B0C16941F00401C161C06906A952
:1006B00000F00400009001A800F036F90498B0B1F1
:1006C00000F052F940001749174AB0FBF1F1174802
:1006D000491E0260416040F2E7320021C0E9032177
:1006E0008160816100F008FB040003D015E000F098
:1006F0003BF9E8E70D4800F02DFB04000DD11E206A
:1007000000F03CF8102D07D2002229461E2000F0F0
:1007100043F80748056000E0012407B0204630BDDB
:100720000010024040420F0000080040F00200208C
:10073000100000200F4808B5816941F00101816176
:10074000816901F001010091C16941F08051C161ED
:10075000C069002200F0805000900F21901E00F030
:100760001BF80548416821F0E06141F000714160EB
:1007700008BD00000010024000000140002809DB15
:1007800000F01F02012191404009800000F1E020AB
:10079000C0F8001170470000F0B40E4B1B680C4607
:1007A000C3F30223C3F10705042D00D90425191D45
:1007B000072901D2002300E0DB1E012606FA05F11D
:1007C000491E214099409E40761E16403143F0BCA0
:1007D00000F0E3BC0CED00E0064900F007020868F9
:1007E0004FF6FF03184040EA0220034A1043086016
:1007F000704700000CED00E00000FA052DE9F0471D
:100800000F46050061D0434E306800F00700B84243
:1008100009D2306820F0070038433060306800F0BB
:100820000700B84251D128683B4C810712D54007D8
:1008300003D5606840F4E06060602878000703D565
:10084000606840F4605060606068A96820F0F00063
:10085000084360602878C00728D06868012810D055
:100860002168022810D0890700292EDA616821F05A
:10087000030101436160FFF7F1FE804641F28839D0
:100880000DE021688903EFE78901EDE7FFF7E6FE58
:10089000A0EB0801494502D90320BDE8F087606854
:1008A000696800F00C00B0EB810FEFD1306800F008
:1008B0000700B8420BD9306820F007003843306099
:1008C000306800F00700B84201D00120E5E7287841
:1008D000400705D56068E96820F4E060084360607F
:1008E0002878000706D56068296920F4605040EA3E
:1008F000C100606000F048F86168084AC1F3031164
:10090000515CC8400649086006480068FFF7C6FE0B
:100910000020C2E700200240001002406E280008BC
:1009200018000020100000200F2202600C4A5368BB
:1009300003F003034360536803F0F00383605368DC
:1009400003F4E063C36052684FF4E06303EAD20249
:1009500002610448006800F007000860704700006A
:100960000010024000200240044805490068496820
:10097000044AC1F30221515CC840704718000020AE
:10098000001002407E2800080E4A51680E4801F00F
:100990000C03042B11D0082B0FD10C48C1F3834357
:1009A000C903C05C0AD55168084AC1F34041921E90
:1009B000515C054A5043B0FBF1F07047044948438D
:1009C000704700000010024000127A005E28000804
:1009D00000093D002DE9F84F040070D02078C04D8B
:1009E000C00749D06868C0F38100012807D0686853
:1009F000C0F38100022809D16868C00306D52868C1
:100A0000800339D560680028E7D035E06068B0F52C
:100A1000803F0BD010B1B0F5A02F11D0286820F482
:100A200080302860286820F4802002E0286840F4A4
:100A300080302860606890B1FFF710FE06460AE03B
:100A4000286840F480202860F0E700BFFFF706FE2A
:100A5000801B642873D828688003F7D50CE0FFF763
:100A6000FDFD064605E000BFFFF7F8FD801B64288A
:100A7000F0D828688003F7D420789A4E80074FF08A
:100A800001094FF0000839D5686810F00C0F07D045
:100A90006868C0F38100022809D16868C00306D4E1
:100AA0002868800714D52069012808D110E0206942
:100AB000B0B1C6F80090FFF7D1FD074605E00AE1A6
:100AC000FFF7CCFDC01B0228C4D828688007F7D5E3
:100AD0002868616920F0F80040EAC10028600DE054
:100AE000C6F80080FFF7BAFD074604E0FFF7B6FD41
:100AF000C01B022823D828688007F7D42078000775
:100B00002CD57948A169D9B1C0F80090FFF7A6FDAE
:100B1000074604E0FFF7A2FDC01B02280FD8686A51
:100B20008007F7D571484FF4FA510068B0FBF1F037
:100B3000009000BF0098411E0091FAD20EE080E0C4
:100B4000C0F80080FFF78AFD074604E0FFF786FD46
:100B5000C01B022875D8686A8007F7D42078400740
:100B600060D5E8690027C00008D4E86940F08050EB
:100B7000E861E869012700F0805000905C48016856
:100B8000C90513D40168834641F480710160FFF701
:100B900065FD824606E000BFFFF760FDA0EB0A009E
:100BA00064284ED8DBF80000C005F5D5E0680128C0
:100BB0000AD008B1052813D0286A20F00100286265
:100BC000286A20F0040002E0286A40F00100286250
:100BD000E06841F2883B98B1FFF740FD82460BE0A8
:100BE000286A40F004002862EEE700BFFFF736FDF8
:100BF000A0EB0A0159455AD8286A8007F6D50CE0BF
:100C0000FFF72CFD824605E0FFF728FDA0EB0A0167
:100C100059454CD8286A8007F6D41FB1E86920F0FE
:100C20008050E861E06988B36968C1F381010229F5
:100C300044D00228C6F8608004D0FFF70FFD0446B8
:100C400038E034E0FFF70AFD074604E0FFF706FD51
:100C5000C01B02282BD828688001F7D4206AB0F581
:100C6000803F05D16868A16820F4003008436860BF
:100C7000D4E908010843696821F4741108436860E5
:100C8000C6F86090FFF7EAFC044606E025E000BFE6
:100C9000FFF7E4FC001B022809D828688001F7D57B
:100CA0001BE000BFFFF7DAFC001B022802D903207B
:100CB000BDE8F88F28688001F4D40EE00128F7D051
:100CC0006868226A00F48031914204D1616A00F4BC
:100CD0007010884201D00120EAE70020E8E7000018
:100CE00000100240000042428004424218000020EE
:100CF000007000407047704710B5040003D094F8AE
:100D00003D0010B107E0012010BD002084F83C0038
:100D1000204600F01EF8022084F83D00211D2068C6
:100D200000F004FA012084F8460084F83E0084F8BC
:100D30003F0084F8400084F8410084F8420084F8C1
:100D4000430084F8440084F8450084F83D00002006
:100D500010BD704790F83D10012901D00120704767
:100D6000022180F83D100168CA6842F00102CA60A1
:100D700000680B49884208D0B0F1804F05D009497E
:100D8000884202D00849884204D1816801F00701F5
:100D9000062903D0016841F001010160002070477D
:100DA000002C01400004004000080040704770B56E
:100DB0000446006801694FF00005C943890715D44E
:100DC000C168C943890711D4E91E01610120207758
:100DD000206880698007204602D0FFF7E7FF04E023
:100DE00000F098F8204600F096F825772068016911
:100DF000C943490717D4C168C943490713D46FF0E1
:100E000004010161022020772068806910F4407F8E
:100E1000204602D0FFF7CAFF04E000F07BF820462E
:100E200000F079F8257720680169C943090716D4CD
:100E3000C168C943090712D46FF008010161042099
:100E400020772068C0698007204602D0FFF7AEFFF8
:100E500004E000F05FF8204600F05DF82577206898
:100E60000169C943C90617D4C168C943C90613D467
:100E70006FF010010161082020772068C06910F42C
:100E8000407F204602D0FFF791FF04E000F042F8D7
:100E9000204600F040F8257720680169C943C9075A
:100EA00008D1C168C943C90704D1891E0161204620
:100EB00000F032F820680169C943090609D4C16805
:100EC000C943090605D46FF0800101612046FFF790
:100ED00011FF20680169C943490609D4C168C943A3
:100EE000490605D46FF040010161204600F01EF86C
:100EF00020680169C94389060BD4C168C9438906C2
:100F000007D46FF0200101612046BDE87040FFF773
:100F1000F2BE70BD7047704700680349884201D136
:100F2000FFF7A2BB70470000000800407047FEE7D3
:100F3000094D4FF47A74012202212846FFF788FBFD
:100F4000204600F0E7FE002202212846FFF780FB42
:100F5000204600F0DFFEEEE700080140094D4FF4A7
:100F6000FA74012204212846FFF772FB204600F0A4
:100F7000D1FE002204212846FFF76AFB204600F03C
:100F8000C9FEEEE700080140084C0122102120466E
:100F9000FFF75EFBFA2000F0BDFE00221021204684
:100FA000FFF756FBFA2000F0B5FEEEE7000801401F
:100FB0003EB5114A1A20A2F500718DE80700002302
:100FC00080220EA1104801F068FA104C0023802204
:100FD000206061681920CDE900010DA10F4801F0E2
:100FE0002FFAA1681820CDE90001002380220CA16E
:100FF0000E4801F025FA3EBD940200204C454431D4
:101000007461736B00000000310F000800000020C5
:101010004C4544327461736B000000005D0F0008A2
:101020004C4544337461736B00000000890F000865
:1010300030B585B0002414480094019402940394C0
:10104000816941F020018161816901F020010491F1
:10105000816941F00401816180690C4D00F0040058
:10106000049000221E212846FFF7F2FA1E2000906D
:101070000120CDE901040220039069462846FFF7CC
:10108000F7F905B030BD0000001002400008014033
:10109000FEE7FEE710B5502080F31188BFF34F8FB5
:1010A000BFF36F8F01F038FA18B104494FF0805048
:1010B0000860002080F3118810BD000004ED00E0FE
:1010C00030B58FB028216846FFF717F914210AA818
:1010D000FFF713F901210804CDE900100024029460
:1010E00002250491CDE907504FF4E01009906846BD
:1010F000FFF770FC08B172B6FEE70F20CDE90A05D4
:101100004FF48060CDE90C4002210AA80E94FFF74D
:1011100075FB002801D072B6FEE70FB030BD7047F6
:101120000148FFF744BE0000F0020020F0B502685D
:10113000164B174C174D4FF08047984205D0B842D8
:1011400003D0A04201D0A84203D122F070064A6821
:101150003243984205D0B84203D0A04201D0A84201
:1011600003D122F44074CA6822434C6922F0800201
:10117000224302608A68C2620A688262984201D190
:101180000969016301214161F0BD0000002C0140AB
:101190000004004000080040FEE70907090E00288F
:1011A00004DB00F1E02080F80014704700F00F002D
:1011B00000F1E02080F8141D70470000FFF75CFA92
:1011C000FFF77EFFFFF734FF00F018F80A4C01220A
:1011D00002212046FFF73CFA012204212046FFF7B6
:1011E00037FA012210212046FFF732FAFFF7E0FE1E
:1011F00000F020F8FEE7000000080140EFF3058052
:1012000058B9EFF3108040B909490868022801D0A5
:1012100030B109E0EFF3118030B16FF00500704795
:1012200001200860002070474FF0FF307047000039
:101230006C00002010B5EFF3058060B9EFF310806B
:1012400048B90B490868022802D0012806D00BE0F3
:10125000EFF3118040B16FF0050010BD022008606F
:1012600000F0C0FD002010BD4FF0FF3010BD0000A9
:101270006C0000202DE9F041134C0F4605466669CD
:101280002068001D00F016FC681C07D137B12168EA
:10129000BDE8F0410D48091D00F05CBC20683544F4
:1012A000B5424560216805D2A068BDE8F041091D3E
:1012B00000F038BC6068091D00F034FC206B8542EA
:1012C00000D22563BDE8F0811C0000202808002022
:1012D0002DE9F041054600F049FC2D4C2069401CE9
:1012E000206120682B4F10B1E06930B32BE02560FE
:1012F0002069012827D1002606EB860007EB800035
:1013000000F002FC761C382EF6D3234800F0FCFBDC
:101310002148143000F0F8FB1F48283000F0F4FB9F
:101320001D483C3000F0F0FB1B48503000F0ECFB57
:10133000194860601430A06005E02068E96AC06A5E
:10134000884200D82560E06A401CE0626864E86A70
:10135000A169884200D9A06100EB800007EB800002
:10136000291D00F0F7FB00F021FCE06900280CD0FB
:101370002068E96AC06A884207D208494FF0805065
:101380000860BFF34F8FBFF36F8FBDE8F08100009F
:101390001C00002078030020D807002004ED00E0A6
:1013A00038B500F0E3FB104CA068C8B90F4800F056
:1013B000ABFB0E48143000F0A7FB0C482060143043
:1013C00060600A4B00202833009003F15002102186
:1013D0000A2000F0D9FDA06010B105A100F064FC66
:1013E000BDE8384000F0E2BB580000203C08002077
:1013F000546D72510000000030B4026C0B46002A9C
:101400000BD0C1681144C1604468A14201D3016896
:10141000C16030BC1846FEF723BF30BC70472DE9D1
:10142000F041856B174604460026026C82B1C7B1B5
:10143000E068FEF715FFE168206C091AE160226898
:10144000914202D26168081AE060022F16D017E0BC
:101450002068A8B9606801F0C3F806460020606003
:101460000EE0A068FEF7FCFE216CA0680844A060B6
:101470006168884204D32068A06001E005B16D1E58
:101480006D1CA5633046BDE8F08110B5044690F8A8
:10149000590058B101280CD002280FD0502080F3F9
:1014A0001188BFF34F8FBFF36F8FFEE7206B00F003
:1014B00091FB2046BDE8104000F08CBB10BD000041
:1014C00010484FF44061420706D0C01D0D4920F07E
:1014D0000700411AC1F540610B4A00230144C2E9EB
:1014E00000030839103A21F0070111604B600B60CE
:1014F0000B1AC0E9001393604FF000405360D060B6
:10150000704700000C10002080000020144E154C85
:10151000A6F29C474FF08058DFF84C9012E000BFD5
:1015200000F024FBF068C568281D00F0C3FA2069AC
:10153000401E2061E068401EE06000F037FB284656
:10154000FFF7A3FFE0680028EAD138680128F9D93D
:10155000C9F80080BFF34F8FBFF36F8FF2E7000031
:10156000140800201C00002004ED00E070B51D46AA
:10157000049C51B1C4F80020C4E90F0101212046A8
:1015800000F036FD84F84C5070BD2460F4E72DE97E
:10159000F0470E46DDE909841746824691009946D8
:1015A000089DA522206BFEF7A0FE6FF00301206BC3
:1015B00001EB8701084420F00707780707D0502087
:1015C00080F31188BFF34F8FBFF36F8FFEE72218B0
:1015D000315C82F83410315C11B1401C1028F6D314
:1015E000002684F84360382D00D33725E562C4E92E
:1015F0001356201D00F093FA04F1180000F08FFA42
:101600002461C5F138006462A061666584F85860A1
:101610004A465146384600F03BFA2060B8F1000FC8
:1016200001D0C8F80040BDE8F087000030B511498E
:1016300000E011460A688242FBD34B685C18844282
:1016400003D1406818444860084643681C18944217
:1016500009D1084C103C2468A24209D052681A44AF
:1016600042600A6812680260814200D0086030BDA2
:101670000460F9E78000002070B5002441600B4D44
:101680000061914206D8D11A8269914206D2011DA9
:10169000686807E09A4203D2994201D3012403E02B
:1016A000011D286800F03EFA204670BD5800002059
:1016B00010B5044600F05AFAA06B28B15FF00004A0
:1016C00000F074FA204610BD0124F9E730B589B066
:1016D000304D55E00498002806DADDE90601059A48
:1016E0009047049800284BDB069C606910B1201DD0
:1016F00000F0E0F902A800F0B9F8024604980A28C0
:101700003ED2DFE800F00505053D263705053D26FC
:101710000598A169034601442046FFF7ADFF00B3D9
:10172000616A20468847E069012829D1002000909D
:101730000598A169002342181946204601F05AF87D
:1017400078B9502080F31188BFF34F8FBFF36F8FAC
:10175000FEE70598A06128B1811813462046FFF7DF
:101760008BFF0DE0502080F31188BFF34F8FBFF344
:101770006F8FFEE794F82C0010B9204600F02AFA8B
:10178000002204A9A86800F085FD0028A2D109B0B4
:1017900030BD0000580000202DE9FC410F460546F1
:1017A00000F064FB01A800F061F80446019818B14C
:1017B00000F08EFFBDE8FC81224EAFB1706800687A
:1017C000A8B30027291B3A46B06800F081FA00F060
:1017D0007FFF0028EED11C494FF080500860BFF316
:1017E0004F8FBFF36F8FE5E7A542EBD800F070FF96
:1017F00030682746C068C468201D00F05BF9E069C6
:10180000012810D1A0692B4641193A462046FFF71E
:1018100033FF40B100200346014600902A4620468F
:1018200000F0E8FF20B1616A20468847C2E707E080
:10183000502080F31188BFF34F8FBFF36F8FFEE707
:101840000127BFE75800002004ED00E0064841688A
:10185000096829B14168C968C96849680163704766
:101860004FF0FF31FAE700001C00002070B505467C
:1018700000F04CFE064E04463069844203D200F06C
:1018800009F8012000E0002028602046346170BD86
:1018900058000020F8B5194D1FE0C068C4680668FC
:1018A000201D00F007F9616A20468847E069012899
:1018B00013D1A0693044B04206D924616060211D73
:1018C000286800F02FF908E0002003460146009048
:1018D0003246204600F08EFF38B1286801680029A2
:1018E000DBD16968C5E90010F8BD502080F311888C
:1018F000BFF34F8FBFF36F8FFEE70000580000204B
:1019000008484068401C4FF0500080F3118804D014
:10191000BFF34F8FBFF36F8FFEE7BFF34F8FBFF360
:101920006F8FFEE788000020074C2068016841B1F6
:10193000C0680021D0F80000FFF72EFFFFF7C6FEB9
:10194000F3E701210020F7E7580000202DE9F041DE
:10195000044600F00BF994F9455004F1240609E01F
:10196000606A48B1304600F07BFE08B100F000FA32
:101970006D1E6DB2002DF3DC4FF0FF3684F845602C
:1019800000F014F900F0F2F894F9445004F1100753
:1019900009E0206948B1384600F062FE08B100F065
:1019A000E7F96D1E6DB2002DF3DC84F84460BDE8EC
:1019B000F04100F0FBB800002DE9F041054600279A
:1019C00000F054FA314E306808B9FFF779FDF0683D
:1019D00005424BD1C5B3083568070ED005F00700A6
:1019E000C0F108000544680707D0502080F3118833
:1019F000BFF34F8FBFF36F8FFEE72DB37068854243
:101A000034D82248103001460C6801E020460C46CC
:101A10006168A94202D221680029F7D131688C425D
:101A200024D007682168016060680837411B1029CD
:101A30000FD96019420708D0502080F31188BFF3F6
:101A40004F8FBFF36F8FFEE710E041606560FFF7D7
:101A5000EDFD61687068401A7060B268904200D213
:101A6000B060F06801430020C4E9000100F030FEDE
:101A7000780707D0502080F31188BFF34F8FBFF352
:101A80006F8FFEE73846BDE8F0810000700000204F
:101A900010B5031F4FF080741C601B1F21F0010163
:101AA0001960191F024B0B60143940380A6010BDD1
:101AB00001190008D0E9013201699A60D0E90123D7
:101AC0005A604A68824201D182684A6000220261FB
:101AD0000868401E0860086870470000034B0360F8
:101AE00003F15C00086080201060704754090020FA
:101AF000044B036003F15C0008604FF480701060D9
:101B000070470000B00B002000F108014FF0FF32D9
:101B1000C0E90112C160016100210160704700212C
:101B20000161704730B50B685A1C02D000F1080201
:101B300002E0026904E02246546825689D42FAD911
:101B400053684B6099608A60516008610168491C64
:101B5000016030BD42684A6093688B609368596049
:101B6000916008610168491C01607047502080F352
:101B70001188BFF34F8FBFF36F8F0A494868401C2D
:101B8000486001280CD10848006810F0FF0F07D00A
:101B9000502080F31188BFF34F8FBFF36F8FFEE7A4
:101BA000704700008800002004ED00E00849486804
:101BB00028B1401E486001D180F311887047502041
:101BC00080F31188BFF34F8FBFF36F8FFEE70000E4
:101BD0008800002070B5002827D0144DA0F108041B
:101BE0006168E868014207D1502080F31188BFF393
:101BF0004F8FBFF36F8FFEE722683AB1502080F31A
:101C00001188BFF34F8FBFF36F8FFEE78143616091
:101C100000F02CF960686968084468602046FFF7A6
:101C200005FDBDE8704000F053BD70BD70000020A0
:101C30004FF0E02000210161816105494FF47A7283
:101C40000968B1FBF2F1491E41610721016170474A
:101C50001800002010B5FEF7DFFA114910280ED346
:101C600000F1E02090F8F0030A78904207D250206B
:101C700080F31188BFF34F8FBFF36F8FFEE70948E2
:101C80000068896800F4E060884207D9502080F33A
:101C90001188BFF34F8FBFF36F8FFEE710BD0000B9
:101CA000880000200CED00E010B5084B002200BFBA
:101CB00053F832401CB1521C082AF9D310BD43F826
:101CC000321003EBC201486010BD00003803002051
:101CD00070B515460E460446FFF748FF94F94410C8
:101CE0000020491C01D184F8440094F94510491C96
:101CF00001D184F84500FFF759FFA06B28B92A46A7
:101D0000314604F1240000F051F82046BDE870404F
:101D1000FFF71CBE10B5020014D00F48806B38B11D
:101D2000502080F31188BFF34F8FBFF36F8FFEE712
:101D300000F09CF800211046FFF79CFA00F0C8FC68
:101D4000002807D105494FF080500860BFF34F8F3E
:101D5000BFF36F8F10BD00001C00002004ED00E0F9
:101D600002498A6A02604969416070471C0000208C
:101D700001490120486270471C00002010B50C4644
:101D800050B1094909681831FFF7CCFE2046BDE87B
:101D900010400121FFF76EBA502080F31188BFF385
:101DA0004F8FBFF36F8FFEE71C00002070B5144605
:101DB0000D4668B10A4909681831FFF7CBFE0CB12E
:101DC0004FF0FF3521462846BDE87040FFF752BA74
:101DD000502080F31188BFF34F8FBFF36F8FFEE762
:101DE0001C00002030B587B00024039405AA04A984
:101DF00003A80494FFF772FEDDE903010094CDE926
:101E00000110002315A11748059A00F046FB164D56
:101E1000002868631FD000F0BDFC012809D0401CD9
:101E200019D1502080F31188BFF34F8FBFF36F8F0C
:101E3000FEE7502080F31188BFF34F8FBFF36F8F01
:101E40004FF0FF3028630120E8616C6107B0BDE806
:101E5000304000F045B807B030BD000049444C4563
:101E6000000000000D1500081C0000200248816BD6
:101E7000491C8163704700001C000020164810B503
:101E8000816B11B10121416210BD00214162816964
:101E9000124A01E0B9B1491E01EB810352F8233027
:101EA000002BF7D001EB810302EB830202F108045F
:101EB00053685B685360A34201D15B685360DA6882
:101EC0000260816110BD502080F31188BFF34F8FF5
:101ED000BFF36F8FFEE700001C0000207803002096
:101EE0001CB5264908780190FF20087008788DF805
:101EF00000009DF800009DF8002000F0F0009042E6
:101F000007D0502080F31188BFF34F8FBFF36F8F3E
:101F1000FEE79DF800001A4B00F0500018700720F3
:101F2000986005E09DF8002052008DF80020401ECA
:101F30009DF800201206F5D49860032807D05020A1
:101F400080F31188BFF34F8FBFF36F8FFEE74FF41D
:101F500040709860019808700A48016841F4700167
:101F60000160016841F070410160FFF761FE0020EF
:101F70005860FEF71BF900201CBD000000E400E0E3
:101F80008800002020ED00E038B5049D18B153B161
:101F9000CAB181B120E0502080F31188BFF34F8F88
:101FA000BFF36F8FFEE7502080F31188BFF34F8F90
:101FB000BFF36F8FFEE7502080F31188BFF34F8F80
:101FC000BFF36F8FFEE739B1502080F31188BFF364
:101FD0004F8FBFF36F8FFEE750241C46012384F818
:101FE00046302B460094FFF7C1FA204638BD00006A
:101FF00070B50D46040025D0FFF7B8FDD4E90F20D9
:10200000216802FB001161600021A1632168A160C9
:102010000A46D4E90F01401E00FB0121E160214680
:102020004FF0FF3001F8440F487004F110008DB1FB
:10203000FFF76AFD04F12400FFF766FDFFF7B6FD28
:10204000012070BD502080F31188BFF34F8FBFF384
:102050006F8FFEE721690029F0D000F001FB002816
:10206000ECD004494FF080500860BFF34F8FBFF3AE
:102070006F8FE3E704ED00E02DE9FF4782B01D46D6
:102080008A464FF00008040003D0BAF1000F08D0D0
:1020900011E0502080F31188BFF34F8FBFF36F8F93
:1020A000FEE7206C38B1502080F31188BFF34F8FCA
:1020B000BFF36F8FFEE7022D0AD1E06B012807D036
:1020C000502080F31188BFF34F8FBFF36F8FFEE76F
:1020D00000F00EFA3F4F4FF000094FF0805648B91C
:1020E000049838B1502080F31188BFF34F8FBFF3AD
:1020F0006F8FFEE7FFF73AFDA06BE16B884207D3D5
:10210000022D05D00498D0B1B8F1000F1AD01EE00E
:102110002A4651462046FFF782F9616A19B104F157
:10212000240000F09DFA20B13E60BFF34F8FBFF353
:102130006F8FFFF73BFD012006B0BDE8F087FFF78A
:1021400035FD22E06846FFF70BFE4FF00108FFF770
:102150002DFDFFF78BFEFFF709FD94F94400401CAD
:1021600001D184F8449094F94500401C01D184F8D1
:102170004590FFF71BFD04A9684600F027F930B130
:102180002046FFF7E3FB00F0A3FA0020D4E7FFF7B7
:10219000EDFCA06BE16B884213D1FFF707FD04F162
:1021A00010000499FFF7EAFD2046FFF7CFFB00F08F
:1021B0008FFA00289ED13E60BFF34F8FBFF36F8F21
:1021C00098E7FFF7F3FC2046FFF7C0FB00F080FA2A
:1021D00090E7000004ED00E02DE9F0471F4690462F
:1021E0008946040003D0B9F1000F08D011E0502057
:1021F00080F31188BFF34F8FBFF36F8FFEE7206C22
:1022000038B1502080F31188BFF34F8FBFF36F8F29
:10221000FEE7022F0AD1E06B012807D0502080F39F
:102220001188BFF34F8FBFF36F8FFEE7FFF712FDEB
:102230005020EFF3118680F31188BFF34F8FBFF367
:102240006F8FA06BE16B884206D3022F04D0002071
:1022500086F31188BDE8F08794F945503A4649461F
:102260002046FFF7DCF8681C04D06D1C84F845504C
:102270000120EDE7606A0028FAD004F1240000F0A4
:10228000EFF90028F4D0B8F1000FF1D00121C8F81F
:102290000010EDE72DE9F747002683B08A460400D9
:1022A00003D0BAF1000F08D011E0502080F311885C
:1022B000BFF34F8FBFF36F8FFEE7206C38B1502014
:1022C00080F31188BFF34F8FBFF36F8FFEE700F0ED
:1022D0000FF9DFF8F4804FF000094FF0805748B94C
:1022E000059838B1502080F31188BFF34F8FBFF3AA
:1022F0006F8FFEE7FFF73AFCA56BC5B1514620464C
:10230000FFF77AF86D1EA563206950B104F1100043
:1023100000F0A6F928B1C8F80070BFF34F8FBFF3E3
:102320006F8FFFF743FC012006B0BDE8F0870598EA
:1023300008B11EB106E0FFF739FC27E06846FFF759
:102340000FFD0126FFF732FCFFF790FDFFF70EFCB3
:1023500094F94400401C01D184F8449094F945005C
:10236000401C01D184F84590FFF720FC05A9684680
:1023700000F02CF8002820460AD0FFF7E7FA00F01A
:10238000A7F92046FFF794F90028B3D00020CBE747
:10239000FFF78EF990B104F124000599FFF7EEFCE8
:1023A0002046FFF7D3FA00F093F90028A2D1C8F82D
:1023B0000070BFF34F8FBFF36F8F9BE72046FFF78F
:1023C000C5FA00F085F995E704ED00E02DE9F0414C
:1023D0000C46050011D0C4B1FFF7C8FB174B5A6972
:1023E0006E682068911B471C17D02F689B6A9F421C
:1023F00019D0964217D8012410E0502080F311889C
:10240000BFF34F8FBFF36F8FFEE7502080F311882B
:10241000BFF34F8FBFF36F8FFEE70024FFF7C6FBBC
:102420002046BDE8F081884205D9401A2060284640
:10243000FFF796FCF1E700202060DCE71C0000209D
:102440002DE9FF5F8346DDE90E87994616468A46E9
:102450009000FFF7B1FA05001CD05C20FFF7ACFA42
:10246000040014D00020256384F85900CDE902400F
:10247000CDE900874B46324651465846FFF787F86C
:102480002046FEF725FF012004B0BDE8F09F284656
:10249000FFF7A0FB4FF0FF30F6E7F0B585B0DDE9C0
:1024A0000B640A9DA6B1DCB15C2700972663022667
:1024B00084F85960002604AFCDE90246CDE9005703
:1024C000FFF765F82046FEF703FF049805B0F0BD5E
:1024D000502080F31188BFF34F8FBFF36F8FFEE75B
:1024E000502080F31188BFF34F8FBFF36F8FFEE74B
:1024F0000548C16919B1806B18B1002070470120EF
:1025000070470220704700001C000020014840690D
:10251000704700001C0000202DE9F0412E4C0027E0
:10252000A06B40B1206A401C2062606A00B10127A4
:102530003846BDE8F0816669761C666113D1606833
:10254000006838B1502080F31188BFF34F8FBFF37C
:102550006F8FFEE76068A1686160A060A06A401CA0
:10256000A062FFF773F9206BDFF87080864209D311
:102570006068006880B16068C068C5686868864245
:102580000DD220632068C06A00EB800158F821005A
:102590000128CAD90127C8E74FF0FF30F1E7281D0D
:1025A000FFF788FAA86A18B105F11800FFF782FA58
:1025B000E86AA169884200D9A06100EB800108EBBC
:1025C0008100291DFFF7C6FAE86A2168C96A8842B6
:1025D000CED30127CCE700001C00002078030020A8
:1025E00070B504004FF0000133D01B4D28688442C1
:1025F00007D0502080F31188BFF34F8FBFF36F8F48
:10260000FEE7206D38B1401E2065E36CE26A9A4215
:102610001FD040B11DE0502080F31188BFF34F8FD1
:10262000BFF36F8FFEE7201DFFF744FAE06CE06216
:10263000C0F13800A061E06AA969884200D9A861A8
:10264000064900EB800001EB8000211DFFF782FAB4
:102650000121084670BD00001C0000207803002006
:1026600070B5C068C46854B104F118000646FFF79D
:1026700021FA144DA86B50B13146134815E0502093
:1026800080F31188BFF34F8FBFF36F8FFEE7201DDC
:10269000FFF710FAE06AA969884200D9A8610B49DE
:1026A00000EB800001EB8000211DFFF753FAE06A88
:1026B0002968C96A884202D90120686270BD002079
:1026C00070BD00001C0000200008002078030020DE
:1026D0002DE9F0472C4D00242746A86B38B1FFF7B1
:1026E00045FAA86B401EA863A86B40B146E0502095
:1026F00080F31188BFF34F8FBFF36F8FFEE7296917
:10270000224E0120D1B3A6F5916980463068E0B130
:10271000F068C46804F11800FFF7CCF9201DFFF73A
:10272000C9F9E06AA969884200D9A86100EB800173
:1027300009EB8100211DFFF70DFAE06A2968C96ADB
:102740008842E3D3C5F82480E0E70CB1FFF77EF8B8
:102750002C6A4CB14FEA0806FFF7DEFE00B16E624C
:10276000641EF9D100202862686A38B1084901273F
:1027700038070860BFF34F8FBFF36F8FFFF716FA6C
:102780003846BDE8F08700001C000020000800204B
:1027900004ED00E010B586B0FEF702FE114CA06813
:1027A000B8B100200390049005AA04A903A8FFF77C
:1027B0009FF9DDE9032102208DE8070000230AA12B
:1027C0000B48059AFFF769FEE06010B106B00120E2
:1027D00010BD502080F31188BFF34F8FBFF36F8F70
:1027E000FEE7000058000020546D7220537663000D
:1027F000291900082DE9FF411E46134602000A9DD3
:102800004FF0000016D0144CA768002F0FD0CDE970
:1028100000130292062917DAFFF76AFE02284FF02A
:1028200000030FD000226946A068FFF725FC04B022
:10283000BDE8F081502080F31188BFF34F8FBFF3C4
:102840006F8FFEE72A46EEE7002332466946384698
:10285000FFF7C2FCEBE70000580000200102020372
:102860000405060708090A0B0C0D0E0F10100000D6
:102870000000000000000102030406070809000030
:102880000000010203040000A82800080000002046
:1028900094000000280100083C2900089400002052
:1028A000DC210000440100080000000000000000DE
:1028B0000000000001000000100000000000000007
:1028C0000024F400000000000000000000000000F0
:1028D00000000000000000000000000000000000F8
:1028E00000000000000000000000000000000000E8
:1028F00000000000000000000000000000000000D8
:1029000000000000000000000000000000000000C7
:1029100000000000000000000000000000000000B7
:1029200000000000000000000000000000000000A7
:0C29300000000000AAAAAAAA00000000F3
:04000005080000ED02
:00000001FF
