Component: ARM Compiler 5.06 update 5 (build 528) Tool: armlink [4d35e2]

==============================================================================

Section Cross References

    startup_stm32f103xb.o(RESET) refers to startup_stm32f103xb.o(STACK) for __initial_sp
    startup_stm32f103xb.o(RESET) refers to startup_stm32f103xb.o(.text) for Reset_Handler
    startup_stm32f103xb.o(RESET) refers to stm32f1xx_it.o(i.NMI_Handler) for NMI_Handler
    startup_stm32f103xb.o(RESET) refers to stm32f1xx_it.o(i.HardFault_Handler) for HardFault_Handler
    startup_stm32f103xb.o(RESET) refers to stm32f1xx_it.o(i.MemManage_Handler) for MemManage_Handler
    startup_stm32f103xb.o(RESET) refers to stm32f1xx_it.o(i.BusFault_Handler) for BusFault_Handler
    startup_stm32f103xb.o(RESET) refers to stm32f1xx_it.o(i.UsageFault_Handler) for UsageFault_Handler
    startup_stm32f103xb.o(RESET) refers to port.o(.emb_text) for SVC_Handler
    startup_stm32f103xb.o(RESET) refers to stm32f1xx_it.o(i.DebugMon_Handler) for DebugMon_Handler
    startup_stm32f103xb.o(RESET) refers to port.o(i.SysTick_Handler) for SysTick_Handler
    startup_stm32f103xb.o(RESET) refers to stm32f1xx_it.o(i.TIM4_IRQHandler) for TIM4_IRQHandler
    startup_stm32f103xb.o(RESET) refers to stm32f1xx_it.o(i.EXTI15_10_IRQHandler) for EXTI15_10_IRQHandler
    startup_stm32f103xb.o(.text) refers to system_stm32f1xx.o(i.SystemInit) for SystemInit
    startup_stm32f103xb.o(.text) refers to entry.o(.ARM.Collect$$$$00000000) for __main
    music.o(i.MUSIC_Analysis) refers to driver_passive_buzzer.o(i.PassiveBuzzer_Set_Freq_Duty) for PassiveBuzzer_Set_Freq_Duty
    music.o(i.MUSIC_Analysis) refers to tasks.o(i.vTaskDelay) for vTaskDelay
    music.o(i.MUSIC_Analysis) refers to music.o(.data) for .data
    music.o(i.PlayMusic) refers to driver_passive_buzzer.o(i.PassiveBuzzer_Init) for PassiveBuzzer_Init
==============================================================================

Removing Unused input sections from the image.

    Removing startup_stm32f103xb.o(HEAP), (512 bytes).
    Removing music.o(i.MUSIC_Analysis), (80 bytes).
    Removing music.o(i.PlayMusic), (10 bytes).
    Removing music.o(.data), (3990 bytes).
    Removing main.o(.rev16_text), (4 bytes).
    Removing main.o(.revsh_text), (4 bytes).
    Removing main.o(.rrx_text), (6 bytes).
    Removing gpio.o(.rev16_text), (4 bytes).
    Removing gpio.o(.revsh_text), (4 bytes).
    Removing gpio.o(.rrx_text), (6 bytes).
    Removing freertos.o(.rev16_text), (4 bytes).
    Removing freertos.o(.revsh_text), (4 bytes).
    Removing freertos.o(.rrx_text), (6 bytes).
    Removing freertos.o(i.StartDefaultTask), (14 bytes).
    Removing freertos.o(.constdata), (36 bytes).
    Removing freertos.o(.conststring), (12 bytes).
    Removing freertos.o(.data), (4 bytes).
    Removing adc.o(.rev16_text), (4 bytes).
==============================================================================

Image Symbol Table

    Local Symbols

    Symbol Name                              Value     Ov Type        Size  Object(Section)

    ../Core/Src/adc.c                        0x00000000   Number         0  adc.o ABSOLUTE
    ../Core/Src/freertos.c                   0x00000000   Number         0  freertos.o ABSOLUTE
    ../Core/Src/gpio.c                       0x00000000   Number         0  gpio.o ABSOLUTE
    ../Core/Src/i2c.c                        0x00000000   Number         0  i2c.o ABSOLUTE
    ../Core/Src/main.c                       0x00000000   Number         0  main.o ABSOLUTE
    ../Core/Src/spi.c                        0x00000000   Number         0  spi.o ABSOLUTE
    ../Core/Src/stm32f1xx_hal_msp.c          0x00000000   Number         0  stm32f1xx_hal_msp.o ABSOLUTE
    ../Core/Src/stm32f1xx_hal_timebase_tim.c 0x00000000   Number         0  stm32f1xx_hal_timebase_tim.o ABSOLUTE
    ../Core/Src/stm32f1xx_it.c               0x00000000   Number         0  stm32f1xx_it.o ABSOLUTE
    ../Core/Src/system_stm32f1xx.c           0x00000000   Number         0  system_stm32f1xx.o ABSOLUTE
    ../Core/Src/tim.c                        0x00000000   Number         0  tim.o ABSOLUTE
    ../Core/Src/usart.c                      0x00000000   Number         0  usart.o ABSOLUTE
    ../Core/Src/usb.c                        0x00000000   Number         0  usb.o ABSOLUTE
    ../Drivers/STM32F1xx_HAL_Driver/Src/stm32f1xx_hal.c 0x00000000   Number         0  stm32f1xx_hal.o ABSOLUTE
    ../Drivers/STM32F1xx_HAL_Driver/Src/stm32f1xx_hal_adc.c 0x00000000   Number         0  stm32f1xx_hal_adc.o ABSOLUTE
    ../Drivers/STM32F1xx_HAL_Driver/Src/stm32f1xx_hal_adc_ex.c 0x00000000   Number         0  stm32f1xx_hal_adc_ex.o ABSOLUTE
    ../Drivers/STM32F1xx_HAL_Driver/Src/stm32f1xx_hal_cortex.c 0x00000000   Number         0  stm32f1xx_hal_cortex.o ABSOLUTE
    ../Drivers/STM32F1xx_HAL_Driver/Src/stm32f1xx_hal_dma.c 0x00000000   Number         0  stm32f1xx_hal_dma.o ABSOLUTE
    ../Drivers/STM32F1xx_HAL_Driver/Src/stm32f1xx_hal_exti.c 0x00000000   Number         0  stm32f1xx_hal_exti.o ABSOLUTE
    ../Drivers/STM32F1xx_HAL_Driver/Src/stm32f1xx_hal_flash.c 0x00000000   Number         0  stm32f1xx_hal_flash.o ABSOLUTE
    ../Drivers/STM32F1xx_HAL_Driver/Src/stm32f1xx_hal_flash_ex.c 0x00000000   Number         0  stm32f1xx_hal_flash_ex.o ABSOLUTE
    ../Drivers/STM32F1xx_HAL_Driver/Src/stm32f1xx_hal_gpio.c 0x00000000   Number         0  stm32f1xx_hal_gpio.o ABSOLUTE
    ../Drivers/STM32F1xx_HAL_Driver/Src/stm32f1xx_hal_gpio_ex.c 0x00000000   Number         0  stm32f1xx_hal_gpio_ex.o ABSOLUTE
    ../Drivers/STM32F1xx_HAL_Driver/Src/stm32f1xx_hal_i2c.c 0x00000000   Number         0  stm32f1xx_hal_i2c.o ABSOLUTE
    ../Drivers/STM32F1xx_HAL_Driver/Src/stm32f1xx_hal_pcd.c 0x00000000   Number         0  stm32f1xx_hal_pcd.o ABSOLUTE
    ../Drivers/STM32F1xx_HAL_Driver/Src/stm32f1xx_hal_pcd_ex.c 0x00000000   Number         0  stm32f1xx_hal_pcd_ex.o ABSOLUTE
    ../Drivers/STM32F1xx_HAL_Driver/Src/stm32f1xx_hal_pwr.c 0x00000000   Number         0  stm32f1xx_hal_pwr.o ABSOLUTE
    ../Drivers/STM32F1xx_HAL_Driver/Src/stm32f1xx_hal_rcc.c 0x00000000   Number         0  stm32f1xx_hal_rcc.o ABSOLUTE
    ../Drivers/STM32F1xx_HAL_Driver/Src/stm32f1xx_hal_rcc_ex.c 0x00000000   Number         0  stm32f1xx_hal_rcc_ex.o ABSOLUTE
    ../Drivers/STM32F1xx_HAL_Driver/Src/stm32f1xx_hal_spi.c 0x00000000   Number         0  stm32f1xx_hal_spi.o ABSOLUTE
    ../Drivers/STM32F1xx_HAL_Driver/Src/stm32f1xx_hal_tim.c 0x00000000   Number         0  stm32f1xx_hal_tim.o ABSOLUTE
    ../Drivers/STM32F1xx_HAL_Driver/Src/stm32f1xx_hal_tim_ex.c 0x00000000   Number         0  stm32f1xx_hal_tim_ex.o ABSOLUTE
    ../Drivers/STM32F1xx_HAL_Driver/Src/stm32f1xx_hal_uart.c 0x00000000   Number         0  stm32f1xx_hal_uart.o ABSOLUTE
    ../Drivers/STM32F1xx_HAL_Driver/Src/stm32f1xx_ll_usb.c 0x00000000   Number         0  stm32f1xx_ll_usb.o ABSOLUTE
    ../Middlewares/Third_Party/FreeRTOS/Source/CMSIS_RTOS_V2/cmsis_os2.c 0x00000000   Number         0  cmsis_os2.o ABSOLUTE
    ../Middlewares/Third_Party/FreeRTOS/Source/croutine.c 0x00000000   Number         0  croutine.o ABSOLUTE
    ../Middlewares/Third_Party/FreeRTOS/Source/event_groups.c 0x00000000   Number         0  event_groups.o ABSOLUTE
    ../Middlewares/Third_Party/FreeRTOS/Source/list.c 0x00000000   Number         0  list.o ABSOLUTE
    ../Middlewares/Third_Party/FreeRTOS/Source/portable/MemMang/heap_4.c 0x00000000   Number         0  heap_4.o ABSOLUTE
    ../Middlewares/Third_Party/FreeRTOS/Source/portable/RVDS/ARM_CM3/port.c 0x00000000   Number         0  port.o ABSOLUTE
    ../Middlewares/Third_Party/FreeRTOS/Source/queue.c 0x00000000   Number         0  queue.o ABSOLUTE
    ../Middlewares/Third_Party/FreeRTOS/Source/stream_buffer.c 0x00000000   Number         0  stream_buffer.o ABSOLUTE
    ../Middlewares/Third_Party/FreeRTOS/Source/tasks.c 0x00000000   Number         0  tasks.o ABSOLUTE
    ../Middlewares/Third_Party/FreeRTOS/Source/timers.c 0x00000000   Number         0  timers.o ABSOLUTE
    ../clib/microlib/division.c              0x00000000   Number         0  uldiv.o ABSOLUTE
    ../clib/microlib/division.c              0x00000000   Number         0  uidiv.o ABSOLUTE
    ../clib/microlib/init/entry.s            0x00000000   Number         0  entry5.o ABSOLUTE
    ../clib/microlib/init/entry.s            0x00000000   Number         0  entry11b.o ABSOLUTE
    ../clib/microlib/init/entry.s            0x00000000   Number         0  entry.o ABSOLUTE
    ../clib/microlib/init/entry.s            0x00000000   Number         0  entry11a.o ABSOLUTE
    ../clib/microlib/init/entry.s            0x00000000   Number         0  entry10b.o ABSOLUTE
    ../clib/microlib/init/entry.s            0x00000000   Number         0  entry10a.o ABSOLUTE
    ../clib/microlib/init/entry.s            0x00000000   Number         0  entry9b.o ABSOLUTE
    ../clib/microlib/init/entry.s            0x00000000   Number         0  entry7a.o ABSOLUTE
    ../clib/microlib/init/entry.s            0x00000000   Number         0  entry2.o ABSOLUTE
    ../clib/microlib/init/entry.s            0x00000000   Number         0  entry9a.o ABSOLUTE
    ../clib/microlib/init/entry.s            0x00000000   Number         0  entry8b.o ABSOLUTE
    ../clib/microlib/init/entry.s            0x00000000   Number         0  entry8a.o ABSOLUTE
    ../clib/microlib/init/entry.s            0x00000000   Number         0  entry7b.o ABSOLUTE
    ../clib/microlib/longlong.c              0x00000000   Number         0  llushr.o ABSOLUTE
    ../clib/microlib/longlong.c              0x00000000   Number         0  llsshr.o ABSOLUTE
    ../clib/microlib/longlong.c              0x00000000   Number         0  llshl.o ABSOLUTE
    ../clib/microlib/malloc/malloc.c         0x00000000   Number         0  malloca.o ABSOLUTE
    ../clib/microlib/malloc/malloc.c         0x00000000   Number         0  mallocra.o ABSOLUTE
    ../clib/microlib/malloc/malloc.c         0x00000000   Number         0  malloc.o ABSOLUTE
    ../clib/microlib/malloc/malloc.c         0x00000000   Number         0  mallocr.o ABSOLUTE
    ../clib/microlib/malloc/mvars.c          0x00000000   Number         0  mvars.o ABSOLUTE
    ../clib/microlib/printf/printf.c         0x00000000   Number         0  printf1.o ABSOLUTE
    ../clib/microlib/printf/printf.c         0x00000000   Number         0  printf0.o ABSOLUTE
    ../clib/microlib/printf/printf.c         0x00000000   Number         0  printf2.o ABSOLUTE
    ../clib/microlib/printf/printf.c         0x00000000   Number         0  printf3.o ABSOLUTE
    ../clib/microlib/printf/printf.c         0x00000000   Number         0  printf4.o ABSOLUTE
    ../clib/microlib/printf/printf.c         0x00000000   Number         0  printf5.o ABSOLUTE
    ../clib/microlib/printf/printf.c         0x00000000   Number         0  printf6.o ABSOLUTE
    ../clib/microlib/printf/printf.c         0x00000000   Number         0  printf7.o ABSOLUTE
    ../clib/microlib/printf/printf.c         0x00000000   Number         0  printf8.o ABSOLUTE
    ../clib/microlib/printf/printf.c         0x00000000   Number         0  printfa.o ABSOLUTE
    ../clib/microlib/printf/printf.c         0x00000000   Number         0  printfb.o ABSOLUTE
    ../clib/microlib/printf/stubs.s          0x00000000   Number         0  stubs.o ABSOLUTE
    ../clib/microlib/stdio/streams.c         0x00000000   Number         0  stdout.o ABSOLUTE
    ../clib/microlib/stdlib/rand.c           0x00000000   Number         0  rand.o ABSOLUTE
    ../clib/microlib/string/memcpy.c         0x00000000   Number         0  memcpya.o ABSOLUTE
    ../clib/microlib/string/memcpy.c         0x00000000   Number         0  memcpyb.o ABSOLUTE
    ../clib/microlib/string/memset.c         0x00000000   Number         0  memset.o ABSOLUTE
    ../clib/microlib/string/memset.c         0x00000000   Number         0  memseta.o ABSOLUTE
    ../clib/microlib/string/strcpy.c         0x00000000   Number         0  strcpy.o ABSOLUTE
    ../clib/microlib/string/strlen.c         0x00000000   Number         0  strlen.o ABSOLUTE
    ../clib/microlib/stubs.s                 0x00000000   Number         0  iusefp.o ABSOLUTE
    ../fplib/microlib/fpadd.c                0x00000000   Number         0  dadd.o ABSOLUTE
    ../fplib/microlib/fpadd.c                0x00000000   Number         0  fadd.o ABSOLUTE
    ../fplib/microlib/fpdiv.c                0x00000000   Number         0  ddiv.o ABSOLUTE
    ../fplib/microlib/fpepilogue.c           0x00000000   Number         0  depilogue.o ABSOLUTE
    ../fplib/microlib/fpepilogue.c           0x00000000   Number         0  fepilogue.o ABSOLUTE
    ../fplib/microlib/fpfix.c                0x00000000   Number         0  dfixul.o ABSOLUTE
    ../fplib/microlib/fpfix.c                0x00000000   Number         0  dfixi.o ABSOLUTE
    ../fplib/microlib/fpfix.c                0x00000000   Number         0  ffixui.o ABSOLUTE
    ../fplib/microlib/fpflt.c                0x00000000   Number         0  fflti.o ABSOLUTE
    ../fplib/microlib/fpflt.c                0x00000000   Number         0  ffltui.o ABSOLUTE
    ../fplib/microlib/fpflt.c                0x00000000   Number         0  dflti.o ABSOLUTE
    ../fplib/microlib/fpmul.c                0x00000000   Number         0  dmul.o ABSOLUTE
    ../fplib/microlib/fpscalb.c              0x00000000   Number         0  fscalb.o ABSOLUTE
    ..\Core\Src\adc.c                        0x00000000   Number         0  adc.o ABSOLUTE
    ..\Core\Src\freertos.c                   0x00000000   Number         0  freertos.o ABSOLUTE
    ..\Core\Src\gpio.c                       0x00000000   Number         0  gpio.o ABSOLUTE
    ..\Core\Src\i2c.c                        0x00000000   Number         0  i2c.o ABSOLUTE
    ..\Core\Src\main.c                       0x00000000   Number         0  main.o ABSOLUTE
    ..\Core\Src\music.c                      0x00000000   Number         0  music.o ABSOLUTE
    ..\Core\Src\spi.c                        0x00000000   Number         0  spi.o ABSOLUTE
    ..\Core\Src\stm32f1xx_hal_msp.c          0x00000000   Number         0  stm32f1xx_hal_msp.o ABSOLUTE
    ..\Core\Src\stm32f1xx_hal_timebase_tim.c 0x00000000   Number         0  stm32f1xx_hal_timebase_tim.o ABSOLUTE
    ..\Core\Src\stm32f1xx_it.c               0x00000000   Number         0  stm32f1xx_it.o ABSOLUTE
    ..\Core\Src\system_stm32f1xx.c           0x00000000   Number         0  system_stm32f1xx.o ABSOLUTE
    ..\Core\Src\tim.c                        0x00000000   Number         0  tim.o ABSOLUTE
    ..\Core\Src\usart.c                      0x00000000   Number         0  usart.o ABSOLUTE
    ..\Core\Src\usb.c                        0x00000000   Number         0  usb.o ABSOLUTE
    ..\Drivers\DshanMCU-F103\driver_active_buzzer.c 0x00000000   Number         0  driver_active_buzzer.o ABSOLUTE
    ..\Drivers\DshanMCU-F103\driver_color_led.c 0x00000000   Number         0  driver_color_led.o ABSOLUTE
    ..\Drivers\DshanMCU-F103\driver_dht11.c  0x00000000   Number         0  driver_dht11.o ABSOLUTE
    ..\Drivers\DshanMCU-F103\driver_ds18b20.c 0x00000000   Number         0  driver_ds18b20.o ABSOLUTE
    ..\Drivers\DshanMCU-F103\driver_ir_obstacle.c 0x00000000   Number         0  driver_ir_obstacle.o ABSOLUTE
    ..\Drivers\DshanMCU-F103\driver_ir_receiver.c 0x00000000   Number         0  driver_ir_receiver.o ABSOLUTE
    ..\Drivers\DshanMCU-F103\driver_ir_sender.c 0x00000000   Number         0  driver_ir_sender.o ABSOLUTE
    ..\Drivers\DshanMCU-F103\driver_irq.c    0x00000000   Number         0  driver_irq.o ABSOLUTE
    ..\Drivers\DshanMCU-F103\driver_key.c    0x00000000   Number         0  driver_key.o ABSOLUTE
    ..\Drivers\DshanMCU-F103\driver_lcd.c    0x00000000   Number         0  driver_lcd.o ABSOLUTE
    ..\Drivers\DshanMCU-F103\driver_led.c    0x00000000   Number         0  driver_led.o ABSOLUTE
    ..\Drivers\DshanMCU-F103\driver_light_sensor.c 0x00000000   Number         0  driver_light_sensor.o ABSOLUTE
    ..\Drivers\DshanMCU-F103\driver_motor.c  0x00000000   Number         0  driver_motor.o ABSOLUTE
    ..\Drivers\DshanMCU-F103\driver_mpu6050.c 0x00000000   Number         0  driver_mpu6050.o ABSOLUTE
    ..\Drivers\DshanMCU-F103\driver_oled.c   0x00000000   Number         0  driver_oled.o ABSOLUTE
    ..\Drivers\DshanMCU-F103\driver_passive_buzzer.c 0x00000000   Number         0  driver_passive_buzzer.o ABSOLUTE
    ..\Drivers\DshanMCU-F103\driver_rotary_encoder.c 0x00000000   Number         0  driver_rotary_encoder.o ABSOLUTE
    ..\Drivers\DshanMCU-F103\driver_spiflash_w25q64.c 0x00000000   Number         0  driver_spiflash_w25q64.o ABSOLUTE
    ..\Drivers\DshanMCU-F103\driver_timer.c  0x00000000   Number         0  driver_timer.o ABSOLUTE
    ..\Drivers\DshanMCU-F103\driver_uart.c   0x00000000   Number         0  driver_uart.o ABSOLUTE
    ..\Drivers\DshanMCU-F103\driver_ultrasonic_sr04.c 0x00000000   Number         0  driver_ultrasonic_sr04.o ABSOLUTE
    ..\Drivers\STM32F1xx_HAL_Driver\Src\stm32f1xx_hal.c 0x00000000   Number         0  stm32f1xx_hal.o ABSOLUTE
    ..\Drivers\STM32F1xx_HAL_Driver\Src\stm32f1xx_hal_adc.c 0x00000000   Number         0  stm32f1xx_hal_adc.o ABSOLUTE
    ..\Drivers\STM32F1xx_HAL_Driver\Src\stm32f1xx_hal_adc_ex.c 0x00000000   Number         0  stm32f1xx_hal_adc_ex.o ABSOLUTE
    ..\Drivers\STM32F1xx_HAL_Driver\Src\stm32f1xx_hal_cortex.c 0x00000000   Number         0  stm32f1xx_hal_cortex.o ABSOLUTE
    ..\Drivers\STM32F1xx_HAL_Driver\Src\stm32f1xx_hal_dma.c 0x00000000   Number         0  stm32f1xx_hal_dma.o ABSOLUTE
    ..\Drivers\STM32F1xx_HAL_Driver\Src\stm32f1xx_hal_exti.c 0x00000000   Number         0  stm32f1xx_hal_exti.o ABSOLUTE
    ..\Drivers\STM32F1xx_HAL_Driver\Src\stm32f1xx_hal_flash.c 0x00000000   Number         0  stm32f1xx_hal_flash.o ABSOLUTE
    ..\Drivers\STM32F1xx_HAL_Driver\Src\stm32f1xx_hal_flash_ex.c 0x00000000   Number         0  stm32f1xx_hal_flash_ex.o ABSOLUTE
    ..\Drivers\STM32F1xx_HAL_Driver\Src\stm32f1xx_hal_gpio.c 0x00000000   Number         0  stm32f1xx_hal_gpio.o ABSOLUTE
    ..\Drivers\STM32F1xx_HAL_Driver\Src\stm32f1xx_hal_gpio_ex.c 0x00000000   Number         0  stm32f1xx_hal_gpio_ex.o ABSOLUTE
    ..\Drivers\STM32F1xx_HAL_Driver\Src\stm32f1xx_hal_i2c.c 0x00000000   Number         0  stm32f1xx_hal_i2c.o ABSOLUTE
    ..\Drivers\STM32F1xx_HAL_Driver\Src\stm32f1xx_hal_pcd.c 0x00000000   Number         0  stm32f1xx_hal_pcd.o ABSOLUTE
    ..\Drivers\STM32F1xx_HAL_Driver\Src\stm32f1xx_hal_pcd_ex.c 0x00000000   Number         0  stm32f1xx_hal_pcd_ex.o ABSOLUTE
    ..\Drivers\STM32F1xx_HAL_Driver\Src\stm32f1xx_hal_pwr.c 0x00000000   Number         0  stm32f1xx_hal_pwr.o ABSOLUTE
    ..\Drivers\STM32F1xx_HAL_Driver\Src\stm32f1xx_hal_rcc.c 0x00000000   Number         0  stm32f1xx_hal_rcc.o ABSOLUTE
    ..\Drivers\STM32F1xx_HAL_Driver\Src\stm32f1xx_hal_rcc_ex.c 0x00000000   Number         0  stm32f1xx_hal_rcc_ex.o ABSOLUTE
    ..\Drivers\STM32F1xx_HAL_Driver\Src\stm32f1xx_hal_spi.c 0x00000000   Number         0  stm32f1xx_hal_spi.o ABSOLUTE
    ..\Drivers\STM32F1xx_HAL_Driver\Src\stm32f1xx_hal_tim.c 0x00000000   Number         0  stm32f1xx_hal_tim.o ABSOLUTE
    ..\Drivers\STM32F1xx_HAL_Driver\Src\stm32f1xx_hal_tim_ex.c 0x00000000   Number         0  stm32f1xx_hal_tim_ex.o ABSOLUTE
    ..\Drivers\STM32F1xx_HAL_Driver\Src\stm32f1xx_hal_uart.c 0x00000000   Number         0  stm32f1xx_hal_uart.o ABSOLUTE
    ..\Drivers\STM32F1xx_HAL_Driver\Src\stm32f1xx_ll_usb.c 0x00000000   Number         0  stm32f1xx_ll_usb.o ABSOLUTE
    ..\Middlewares\Third_Party\FreeRTOS\Source\CMSIS_RTOS_V2\cmsis_os2.c 0x00000000   Number         0  cmsis_os2.o ABSOLUTE
    ..\Middlewares\Third_Party\FreeRTOS\Source\portable\RVDS\ARM_CM3\port.c 0x00000000   Number         0  port.o ABSOLUTE
    ..\\Drivers\\DshanMCU-F103\\driver_active_buzzer.c 0x00000000   Number         0  driver_active_buzzer.o ABSOLUTE
    ..\\Drivers\\DshanMCU-F103\\driver_color_led.c 0x00000000   Number         0  driver_color_led.o ABSOLUTE
    ..\\Drivers\\DshanMCU-F103\\driver_dht11.c 0x00000000   Number         0  driver_dht11.o ABSOLUTE
    ..\\Drivers\\DshanMCU-F103\\driver_ds18b20.c 0x00000000   Number         0  driver_ds18b20.o ABSOLUTE
    ..\\Drivers\\DshanMCU-F103\\driver_ir_obstacle.c 0x00000000   Number         0  driver_ir_obstacle.o ABSOLUTE
    ..\\Drivers\\DshanMCU-F103\\driver_ir_receiver.c 0x00000000   Number         0  driver_ir_receiver.o ABSOLUTE
    ..\\Drivers\\DshanMCU-F103\\driver_ir_sender.c 0x00000000   Number         0  driver_ir_sender.o ABSOLUTE
    ..\\Drivers\\DshanMCU-F103\\driver_irq.c 0x00000000   Number         0  driver_irq.o ABSOLUTE
    ..\\Drivers\\DshanMCU-F103\\driver_key.c 0x00000000   Number         0  driver_key.o ABSOLUTE
    ..\\Drivers\\DshanMCU-F103\\driver_led.c 0x00000000   Number         0  driver_led.o ABSOLUTE
    ..\\Drivers\\DshanMCU-F103\\driver_light_sensor.c 0x00000000   Number         0  driver_light_sensor.o ABSOLUTE
    ..\\Drivers\\DshanMCU-F103\\driver_motor.c 0x00000000   Number         0  driver_motor.o ABSOLUTE
    ..\\Drivers\\DshanMCU-F103\\driver_mpu6050.c 0x00000000   Number         0  driver_mpu6050.o ABSOLUTE
    ..\\Drivers\\DshanMCU-F103\\driver_oled.c 0x00000000   Number         0  driver_oled.o ABSOLUTE
    ..\\Drivers\\DshanMCU-F103\\driver_passive_buzzer.c 0x00000000   Number         0  driver_passive_buzzer.o ABSOLUTE
    ..\\Drivers\\DshanMCU-F103\\driver_rotary_encoder.c 0x00000000   Number         0  driver_rotary_encoder.o ABSOLUTE
    ..\\Drivers\\DshanMCU-F103\\driver_spiflash_w25q64.c 0x00000000   Number         0  driver_spiflash_w25q64.o ABSOLUTE
    ..\\Drivers\\DshanMCU-F103\\driver_timer.c 0x00000000   Number         0  driver_timer.o ABSOLUTE
    ..\\Drivers\\DshanMCU-F103\\driver_uart.c 0x00000000   Number         0  driver_uart.o ABSOLUTE
    ..\\Drivers\\DshanMCU-F103\\driver_ultrasonic_sr04.c 0x00000000   Number         0  driver_ultrasonic_sr04.o ABSOLUTE
    ..\nwatch\draw.c                         0x00000000   Number         0  draw.o ABSOLUTE
    ..\nwatch\game1.c                        0x00000000   Number         0  game1.o ABSOLUTE
    ..\nwatch\game2.c                        0x00000000   Number         0  game2.o ABSOLUTE
    ..\nwatch\resources.c                    0x00000000   Number         0  resources.o ABSOLUTE
    cdrcmple.s                               0x00000000   Number         0  cdrcmple.o ABSOLUTE
    cfcmple.s                                0x00000000   Number         0  cfcmple.o ABSOLUTE
    cfrcmple.s                               0x00000000   Number         0  cfrcmple.o ABSOLUTE
    dc.s                                     0x00000000   Number         0  dc.o ABSOLUTE
    handlers.s                               0x00000000   Number         0  handlers.o ABSOLUTE
    init.s                                   0x00000000   Number         0  init.o ABSOLUTE
    startup_stm32f103xb.s                    0x00000000   Number         0  startup_stm32f103xb.o ABSOLUTE
    RESET                                    0x08000000   Section      236  startup_stm32f103xb.o(RESET)
    .ARM.Collect$$$$00000000                 0x080000ec   Section        0  entry.o(.ARM.Collect$$$$00000000)
    .ARM.Collect$$$$00000001                 0x080000ec   Section        4  entry2.o(.ARM.Collect$$$$00000001)
    .ARM.Collect$$$$00000004                 0x080000f0   Section        4  entry5.o(.ARM.Collect$$$$00000004)
    .ARM.Collect$$$$00000008                 0x080000f4   Section        0  entry7b.o(.ARM.Collect$$$$00000008)
    .ARM.Collect$$$$0000000A                 0x080000f4   Section        0  entry8b.o(.ARM.Collect$$$$0000000A)
    .ARM.Collect$$$$0000000B                 0x080000f4   Section        8  entry9a.o(.ARM.Collect$$$$0000000B)
    .ARM.Collect$$$$0000000D                 0x080000fc   Section        0  entry10a.o(.ARM.Collect$$$$0000000D)
    .ARM.Collect$$$$0000000F                 0x080000fc   Section        0  entry11a.o(.ARM.Collect$$$$0000000F)
    .ARM.Collect$$$$00002712                 0x080000fc   Section        4  entry2.o(.ARM.Collect$$$$00002712)
    __lit__00000000                          0x080000fc   Data           4  entry2.o(.ARM.Collect$$$$00002712)
    .emb_text                                0x08000100   Section      150  port.o(.emb_text)
    .text                                    0x08000198   Section       36  startup_stm32f103xb.o(.text)
    .text                                    0x080001bc   Section        0  uldiv.o(.text)
    .text                                    0x0800021e   Section        0  llushr.o(.text)
    .text                                    0x0800023e   Section        0  memcpya.o(.text)
    .text                                    0x08000262   Section        0  memseta.o(.text)
    .text                                    0x08000286   Section        0  llshl.o(.text)
    .text                                    0x080002a4   Section       36  init.o(.text)
    i.ADC_ConversionStop_Disable             0x080002c8   Section        0  stm32f1xx_hal_adc.o(i.ADC_ConversionStop_Disable)
    i.BusFault_Handler                       0x0800031e   Section        0  stm32f1xx_it.o(i.BusFault_Handler)
    i.Car1Task                               0x08000320   Section        0  game2.o(i.Car1Task)
    Car1Task                                 0x08000321   Thumb Code    88  game2.o(i.Car1Task)
    i.Car2Task                               0x0800037c   Section        0  game2.o(i.Car2Task)
    Car2Task                                 0x0800037d   Thumb Code   100  game2.o(i.Car2Task)
    i.Car3Task                               0x080003e4   Section        0  game2.o(i.Car3Task)
    Car3Task                                 0x080003e5   Thumb Code   100  game2.o(i.Car3Task)
    i.DebugMon_Handler                       0x0800044c   Section        0  stm32f1xx_it.o(i.DebugMon_Handler)
    i.DispatchKey                            0x08000450   Section        0  driver_ir_receiver.o(i.DispatchKey)
    i.EXTI15_10_IRQHandler                   0x08000484   Section        0  stm32f1xx_it.o(i.EXTI15_10_IRQHandler)
    i.Error_Handler                          0x080004a2   Section        0  main.o(i.Error_Handler)
    i.GetI2C                                 0x080004a8   Section        0  freertos.o(i.GetI2C)
    i.HAL_ADC_ConfigChannel                  0x080004b8   Section        0  stm32f1xx_hal_adc.o(i.HAL_ADC_ConfigChannel)
    i.HAL_ADC_Init                           0x080005b4   Section        0  stm32f1xx_hal_adc.o(i.HAL_ADC_Init)
    i.HAL_ADC_MspInit                        0x080006d0   Section        0  adc.o(i.HAL_ADC_MspInit)
    i.HAL_GPIO_EXTI_Callback                 0x08000728   Section        0  driver_irq.o(i.HAL_GPIO_EXTI_Callback)
    i.HAL_GPIO_EXTI_IRQHandler               0x08000740   Section        0  stm32f1xx_hal_gpio.o(i.HAL_GPIO_EXTI_IRQHandler)
    i.HAL_GPIO_Init                          0x08000758   Section        0  stm32f1xx_hal_gpio.o(i.HAL_GPIO_Init)
    i.HAL_GPIO_ReadPin                       0x08000938   Section        0  stm32f1xx_hal_gpio.o(i.HAL_GPIO_ReadPin)
    i.HAL_GPIO_WritePin                      0x08000942   Section        0  stm32f1xx_hal_gpio.o(i.HAL_GPIO_WritePin)
    i.HAL_GetTick                            0x0800094c   Section        0  stm32f1xx_hal.o(i.HAL_GetTick)
    i.HAL_I2C_Init                           0x08000958   Section        0  stm32f1xx_hal_i2c.o(i.HAL_I2C_Init)
    i.HAL_I2C_Master_Transmit                0x08000ae0   Section        0  stm32f1xx_hal_i2c.o(i.HAL_I2C_Master_Transmit)
    i.HAL_I2C_Mem_Write                      0x08000c0c   Section        0  stm32f1xx_hal_i2c.o(i.HAL_I2C_Mem_Write)
    i.HAL_I2C_MspInit                        0x08000d3c   Section        0  i2c.o(i.HAL_I2C_MspInit)
    i.HAL_IncTick                            0x08000d98   Section        0  stm32f1xx_hal.o(i.HAL_IncTick)
    i.HAL_Init                               0x08000da8   Section        0  stm32f1xx_hal.o(i.HAL_Init)
    i.HAL_InitTick                           0x08000dcc   Section        0  stm32f1xx_hal_timebase_tim.o(i.HAL_InitTick)
    i.HAL_MspInit                            0x08000e64   Section        0  stm32f1xx_hal_msp.o(i.HAL_MspInit)
    i.HAL_NVIC_EnableIRQ                     0x08000eac   Section        0  stm32f1xx_hal_cortex.o(i.HAL_NVIC_EnableIRQ)
    i.HAL_NVIC_SetPriority                   0x08000ec8   Section        0  stm32f1xx_hal_cortex.o(i.HAL_NVIC_SetPriority)
    i.HAL_NVIC_SetPriorityGrouping           0x08000f08   Section        0  stm32f1xx_hal_cortex.o(i.HAL_NVIC_SetPriorityGrouping)
    i.HAL_PCD_Init                           0x08000f2c   Section        0  stm32f1xx_hal_pcd.o(i.HAL_PCD_Init)
    i.HAL_PCD_MspInit                        0x08001008   Section        0  usb.o(i.HAL_PCD_MspInit)
    i.HAL_RCCEx_PeriphCLKConfig              0x08001030   Section        0  stm32f1xx_hal_rcc_ex.o(i.HAL_RCCEx_PeriphCLKConfig)
    i.HAL_RCC_ClockConfig                    0x0800111c   Section        0  stm32f1xx_hal_rcc.o(i.HAL_RCC_ClockConfig)
    i.HAL_RCC_GetClockConfig                 0x08001248   Section        0  stm32f1xx_hal_rcc.o(i.HAL_RCC_GetClockConfig)
    i.HAL_RCC_GetPCLK1Freq                   0x08001288   Section        0  stm32f1xx_hal_rcc.o(i.HAL_RCC_GetPCLK1Freq)
    i.HAL_RCC_GetPCLK2Freq                   0x080012a8   Section        0  stm32f1xx_hal_rcc.o(i.HAL_RCC_GetPCLK2Freq)
    i.HAL_RCC_GetSysClockFreq                0x080012c8   Section        0  stm32f1xx_hal_rcc.o(i.HAL_RCC_GetSysClockFreq)
    i.HAL_RCC_OscConfig                      0x08001314   Section        0  stm32f1xx_hal_rcc.o(i.HAL_RCC_OscConfig)
    i.HAL_SPI_Init                           0x08001634   Section        0  stm32f1xx_hal_spi.o(i.HAL_SPI_Init)
    i.HAL_SPI_MspInit                        0x080016e8   Section        0  spi.o(i.HAL_SPI_MspInit)
    i.HAL_TIMEx_BreakCallback                0x08001758   Section        0  stm32f1xx_hal_tim_ex.o(i.HAL_TIMEx_BreakCallback)
    i.HAL_TIMEx_CommutCallback               0x0800175a   Section        0  stm32f1xx_hal_tim_ex.o(i.HAL_TIMEx_CommutCallback)
    i.HAL_TIMEx_ConfigBreakDeadTime          0x0800175c   Section        0  stm32f1xx_hal_tim_ex.o(i.HAL_TIMEx_ConfigBreakDeadTime)
    i.HAL_TIMEx_MasterConfigSynchronization  0x080017b0   Section        0  stm32f1xx_hal_tim_ex.o(i.HAL_TIMEx_MasterConfigSynchronization)
    i.HAL_TIM_Base_Init                      0x08001818   Section        0  stm32f1xx_hal_tim.o(i.HAL_TIM_Base_Init)
    i.HAL_TIM_Base_MspInit                   0x08001874   Section        0  tim.o(i.HAL_TIM_Base_MspInit)
    i.HAL_TIM_Base_Start_IT                  0x080018b0   Section        0  stm32f1xx_hal_tim.o(i.HAL_TIM_Base_Start_IT)
    i.HAL_TIM_ConfigClockSource              0x08001908   Section        0  stm32f1xx_hal_tim.o(i.HAL_TIM_ConfigClockSource)
    i.HAL_TIM_IC_CaptureCallback             0x080019e4   Section        0  stm32f1xx_hal_tim.o(i.HAL_TIM_IC_CaptureCallback)
    i.HAL_TIM_IRQHandler                     0x080019e6   Section        0  stm32f1xx_hal_tim.o(i.HAL_TIM_IRQHandler)
    i.HAL_TIM_MspPostInit                    0x08001b4c   Section        0  tim.o(i.HAL_TIM_MspPostInit)
    i.HAL_TIM_OC_DelayElapsedCallback        0x08001c38   Section        0  stm32f1xx_hal_tim.o(i.HAL_TIM_OC_DelayElapsedCallback)
    i.HAL_TIM_PWM_ConfigChannel              0x08001c3a   Section        0  stm32f1xx_hal_tim.o(i.HAL_TIM_PWM_ConfigChannel)
    i.HAL_TIM_PWM_Init                       0x08001d06   Section        0  stm32f1xx_hal_tim.o(i.HAL_TIM_PWM_Init)
    i.HAL_TIM_PWM_MspInit                    0x08001d60   Section        0  tim.o(i.HAL_TIM_PWM_MspInit)
    i.HAL_TIM_PWM_PulseFinishedCallback      0x08001d88   Section        0  stm32f1xx_hal_tim.o(i.HAL_TIM_PWM_PulseFinishedCallback)
    i.HAL_TIM_PeriodElapsedCallback          0x08001d8c   Section        0  main.o(i.HAL_TIM_PeriodElapsedCallback)
    i.HAL_TIM_TriggerCallback                0x08001da0   Section        0  stm32f1xx_hal_tim.o(i.HAL_TIM_TriggerCallback)
    i.HAL_UART_Init                          0x08001da2   Section        0  stm32f1xx_hal_uart.o(i.HAL_UART_Init)
    i.HAL_UART_MspInit                       0x08001e08   Section        0  usart.o(i.HAL_UART_MspInit)
    i.HardFault_Handler                      0x08001e78   Section        0  stm32f1xx_it.o(i.HardFault_Handler)
    i.HideCar                                0x08001e7c   Section        0  game2.o(i.HideCar)
    HideCar                                  0x08001e7d   Thumb Code    44  game2.o(i.HideCar)
    i.I2C_IsAcknowledgeFailed                0x08001eac   Section        0  stm32f1xx_hal_i2c.o(i.I2C_IsAcknowledgeFailed)
    I2C_IsAcknowledgeFailed                  0x08001ead   Thumb Code    46  stm32f1xx_hal_i2c.o(i.I2C_IsAcknowledgeFailed)
    i.I2C_MasterRequestWrite                 0x08001edc   Section        0  stm32f1xx_hal_i2c.o(i.I2C_MasterRequestWrite)
    I2C_MasterRequestWrite                   0x08001edd   Thumb Code   150  stm32f1xx_hal_i2c.o(i.I2C_MasterRequestWrite)
    i.I2C_RequestMemoryWrite                 0x08001f78   Section        0  stm32f1xx_hal_i2c.o(i.I2C_RequestMemoryWrite)
    I2C_RequestMemoryWrite                   0x08001f79   Thumb Code   162  stm32f1xx_hal_i2c.o(i.I2C_RequestMemoryWrite)
    i.I2C_WaitOnBTFFlagUntilTimeout          0x08002020   Section        0  stm32f1xx_hal_i2c.o(i.I2C_WaitOnBTFFlagUntilTimeout)
    I2C_WaitOnBTFFlagUntilTimeout            0x08002021   Thumb Code    86  stm32f1xx_hal_i2c.o(i.I2C_WaitOnBTFFlagUntilTimeout)
    i.I2C_WaitOnFlagUntilTimeout             0x08002078   Section        0  stm32f1xx_hal_i2c.o(i.I2C_WaitOnFlagUntilTimeout)
    I2C_WaitOnFlagUntilTimeout               0x08002079   Thumb Code   144  stm32f1xx_hal_i2c.o(i.I2C_WaitOnFlagUntilTimeout)
    i.I2C_WaitOnMasterAddressFlagUntilTimeout 0x08002108   Section        0  stm32f1xx_hal_i2c.o(i.I2C_WaitOnMasterAddressFlagUntilTimeout)
    I2C_WaitOnMasterAddressFlagUntilTimeout  0x08002109   Thumb Code   188  stm32f1xx_hal_i2c.o(i.I2C_WaitOnMasterAddressFlagUntilTimeout)
    i.I2C_WaitOnTXEFlagUntilTimeout          0x080021c4   Section        0  stm32f1xx_hal_i2c.o(i.I2C_WaitOnTXEFlagUntilTimeout)
    I2C_WaitOnTXEFlagUntilTimeout            0x080021c5   Thumb Code    86  stm32f1xx_hal_i2c.o(i.I2C_WaitOnTXEFlagUntilTimeout)
    i.IRReceiver_IRQTimes_Parse              0x0800221c   Section        0  driver_ir_receiver.o(i.IRReceiver_IRQTimes_Parse)
    IRReceiver_IRQTimes_Parse                0x0800221d   Thumb Code   256  driver_ir_receiver.o(i.IRReceiver_IRQTimes_Parse)
    i.IRReceiver_IRQ_Callback                0x08002338   Section        0  driver_ir_receiver.o(i.IRReceiver_IRQ_Callback)
    i.IRReceiver_Init                        0x080023ec   Section        0  driver_ir_receiver.o(i.IRReceiver_Init)
    i.LCD_Clear                              0x08002408   Section        0  driver_lcd.o(i.LCD_Clear)
    i.LCD_Flush                              0x0800240c   Section        0  driver_lcd.o(i.LCD_Flush)
    i.LCD_FlushRegion                        0x08002410   Section        0  driver_lcd.o(i.LCD_FlushRegion)
    i.LCD_GetFrameBuffer                     0x08002414   Section        0  driver_lcd.o(i.LCD_GetFrameBuffer)
    i.LCD_Init                               0x08002418   Section        0  driver_lcd.o(i.LCD_Init)
    i.LCD_PrintString                        0x0800241c   Section        0  driver_lcd.o(i.LCD_PrintString)
    i.MPU6050_Init                           0x08002420   Section        0  driver_mpu6050.o(i.MPU6050_Init)
    i.MPU6050_WriteRegister                  0x08002468   Section        0  driver_mpu6050.o(i.MPU6050_WriteRegister)
    MPU6050_WriteRegister                    0x08002469   Thumb Code    32  driver_mpu6050.o(i.MPU6050_WriteRegister)
    i.MX_ADC1_Init                           0x0800248c   Section        0  adc.o(i.MX_ADC1_Init)
    i.MX_FREERTOS_Init                       0x080024dc   Section        0  freertos.o(i.MX_FREERTOS_Init)
    i.MX_GPIO_Init                           0x08002520   Section        0  gpio.o(i.MX_GPIO_Init)
    i.MX_I2C1_Init                           0x08002670   Section        0  i2c.o(i.MX_I2C1_Init)
    i.MX_SPI1_Init                           0x080026b0   Section        0  spi.o(i.MX_SPI1_Init)
    i.MX_TIM1_Init                           0x080026f8   Section        0  tim.o(i.MX_TIM1_Init)
    i.MX_TIM2_Init                           0x080027c8   Section        0  tim.o(i.MX_TIM2_Init)
    i.MX_TIM3_Init                           0x08002884   Section        0  tim.o(i.MX_TIM3_Init)
    i.MX_USART1_UART_Init                    0x080028fc   Section        0  usart.o(i.MX_USART1_UART_Init)
    i.MX_USB_PCD_Init                        0x08002934   Section        0  usb.o(i.MX_USB_PCD_Init)
    i.MemManage_Handler                      0x08002968   Section        0  stm32f1xx_it.o(i.MemManage_Handler)
    i.NMI_Handler                            0x0800296a   Section        0  stm32f1xx_it.o(i.NMI_Handler)
    i.OLED_Clear                             0x0800296c   Section        0  driver_oled.o(i.OLED_Clear)
    i.OLED_Flush                             0x08002998   Section        0  driver_oled.o(i.OLED_Flush)
    i.OLED_FlushRegion                       0x080029d0   Section        0  driver_oled.o(i.OLED_FlushRegion)
    i.OLED_GetFrameBuffer                    0x08002a30   Section        0  driver_oled.o(i.OLED_GetFrameBuffer)
    i.OLED_Init                              0x08002a44   Section        0  driver_oled.o(i.OLED_Init)
    i.OLED_PrintString                       0x08002ad8   Section        0  driver_oled.o(i.OLED_PrintString)
    i.OLED_PutChar                           0x08002b0c   Section        0  driver_oled.o(i.OLED_PutChar)
    i.OLED_SetComConfig                      0x08002b54   Section        0  driver_oled.o(i.OLED_SetComConfig)
    OLED_SetComConfig                        0x08002b55   Thumb Code    44  driver_oled.o(i.OLED_SetComConfig)
    i.OLED_SetPosition                       0x08002b80   Section        0  driver_oled.o(i.OLED_SetPosition)
    i.OLED_WriteCmd                          0x08002bc0   Section        0  driver_oled.o(i.OLED_WriteCmd)
    OLED_WriteCmd                            0x08002bc1   Thumb Code    34  driver_oled.o(i.OLED_WriteCmd)
    i.OLED_WriteNBytes                       0x08002be8   Section        0  driver_oled.o(i.OLED_WriteNBytes)
    OLED_WriteNBytes                         0x08002be9   Thumb Code    26  driver_oled.o(i.OLED_WriteNBytes)
    i.PutI2C                                 0x08002c08   Section        0  freertos.o(i.PutI2C)
    i.RegisterQueueHandle                    0x08002c1c   Section        0  driver_ir_receiver.o(i.RegisterQueueHandle)
    i.RotaryEncoder_IRQ_Callback             0x08002c38   Section        0  driver_rotary_encoder.o(i.RotaryEncoder_IRQ_Callback)
    i.RotaryEncoder_Init                     0x08002cb8   Section        0  driver_rotary_encoder.o(i.RotaryEncoder_Init)
    i.ShowCar                                0x08002cdc   Section        0  game2.o(i.ShowCar)
    ShowCar                                  0x08002cdd   Thumb Code    44  game2.o(i.ShowCar)
    i.SysTick_Handler                        0x08002d0c   Section        0  port.o(i.SysTick_Handler)
    i.SystemClock_Config                     0x08002d38   Section        0  main.o(i.SystemClock_Config)
    i.SystemInit                             0x08002db4   Section        0  system_stm32f1xx.o(i.SystemInit)
    i.TIM4_IRQHandler                        0x08002db8   Section        0  stm32f1xx_it.o(i.TIM4_IRQHandler)
    i.TIM_Base_SetConfig                     0x08002dc4   Section        0  stm32f1xx_hal_tim.o(i.TIM_Base_SetConfig)
    i.TIM_ETR_SetConfig                      0x08002e30   Section        0  stm32f1xx_hal_tim.o(i.TIM_ETR_SetConfig)
    i.TIM_ITRx_SetConfig                     0x08002e44   Section        0  stm32f1xx_hal_tim.o(i.TIM_ITRx_SetConfig)
    TIM_ITRx_SetConfig                       0x08002e45   Thumb Code    16  stm32f1xx_hal_tim.o(i.TIM_ITRx_SetConfig)
    i.TIM_OC1_SetConfig                      0x08002e54   Section        0  stm32f1xx_hal_tim.o(i.TIM_OC1_SetConfig)
    TIM_OC1_SetConfig                        0x08002e55   Thumb Code    74  stm32f1xx_hal_tim.o(i.TIM_OC1_SetConfig)
    i.TIM_OC2_SetConfig                      0x08002ea4   Section        0  stm32f1xx_hal_tim.o(i.TIM_OC2_SetConfig)
    i.TIM_OC3_SetConfig                      0x08002efc   Section        0  stm32f1xx_hal_tim.o(i.TIM_OC3_SetConfig)
    TIM_OC3_SetConfig                        0x08002efd   Thumb Code    82  stm32f1xx_hal_tim.o(i.TIM_OC3_SetConfig)
    i.TIM_OC4_SetConfig                      0x08002f54   Section        0  stm32f1xx_hal_tim.o(i.TIM_OC4_SetConfig)
    TIM_OC4_SetConfig                        0x08002f55   Thumb Code    64  stm32f1xx_hal_tim.o(i.TIM_OC4_SetConfig)
    i.TIM_TI1_ConfigInputStage               0x08002f98   Section        0  stm32f1xx_hal_tim.o(i.TIM_TI1_ConfigInputStage)
    TIM_TI1_ConfigInputStage                 0x08002f99   Thumb Code    34  stm32f1xx_hal_tim.o(i.TIM_TI1_ConfigInputStage)
    i.TIM_TI2_ConfigInputStage               0x08002fba   Section        0  stm32f1xx_hal_tim.o(i.TIM_TI2_ConfigInputStage)
    TIM_TI2_ConfigInputStage                 0x08002fbb   Thumb Code    36  stm32f1xx_hal_tim.o(i.TIM_TI2_ConfigInputStage)
    i.UART_SetConfig                         0x08002fe0   Section        0  stm32f1xx_hal_uart.o(i.UART_SetConfig)
    UART_SetConfig                           0x08002fe1   Thumb Code   178  stm32f1xx_hal_uart.o(i.UART_SetConfig)
    i.USB_CoreInit                           0x08003098   Section        0  stm32f1xx_ll_usb.o(i.USB_CoreInit)
    i.USB_DevDisconnect                      0x0800309c   Section        0  stm32f1xx_ll_usb.o(i.USB_DevDisconnect)
    i.USB_DevInit                            0x080030a0   Section        0  stm32f1xx_ll_usb.o(i.USB_DevInit)
    i.USB_DisableGlobalInt                   0x080030b2   Section        0  stm32f1xx_ll_usb.o(i.USB_DisableGlobalInt)
    i.USB_SetCurrentMode                     0x080030c0   Section        0  stm32f1xx_ll_usb.o(i.USB_SetCurrentMode)
    i.UsageFault_Handler                     0x080030c4   Section        0  stm32f1xx_it.o(i.UsageFault_Handler)
    i.__NVIC_SetPriority                     0x080030c6   Section        0  stm32f1xx_hal_cortex.o(i.__NVIC_SetPriority)
    __NVIC_SetPriority                       0x080030c7   Thumb Code    32  stm32f1xx_hal_cortex.o(i.__NVIC_SetPriority)
    i.__scatterload_copy                     0x080030e6   Section       14  handlers.o(i.__scatterload_copy)
    i.__scatterload_null                     0x080030f4   Section        2  handlers.o(i.__scatterload_null)
    i.__scatterload_zeroinit                 0x080030f6   Section       14  handlers.o(i.__scatterload_zeroinit)
    i.car_game2                              0x08003104   Section        0  game2.o(i.car_game2)
    i.draw_bitmap                            0x08003210   Section        0  draw.o(i.draw_bitmap)
    i.draw_end                               0x080033e0   Section        0  draw.o(i.draw_end)
    i.draw_flushArea                         0x080033e4   Section        0  draw.o(i.draw_flushArea)
    i.draw_init                              0x08003408   Section        0  draw.o(i.draw_init)
    i.main                                   0x08003420   Section        0  main.o(i.main)
    i.mdelay                                 0x0800345a   Section        0  driver_timer.o(i.mdelay)
    i.osKernelInitialize                     0x08003474   Section        0  cmsis_os2.o(i.osKernelInitialize)
    i.osKernelStart                          0x080034ac   Section        0  cmsis_os2.o(i.osKernelStart)
    i.prvAddCurrentTaskToDelayedList         0x080034ec   Section        0  tasks.o(i.prvAddCurrentTaskToDelayedList)
    prvAddCurrentTaskToDelayedList           0x080034ed   Thumb Code    84  tasks.o(i.prvAddCurrentTaskToDelayedList)
    i.prvAddNewTaskToReadyList               0x08003548   Section        0  tasks.o(i.prvAddNewTaskToReadyList)
    prvAddNewTaskToReadyList                 0x08003549   Thumb Code   190  tasks.o(i.prvAddNewTaskToReadyList)
    i.prvCheckForValidListAndQueue           0x08003618   Section        0  timers.o(i.prvCheckForValidListAndQueue)
    prvCheckForValidListAndQueue             0x08003619   Thumb Code    72  timers.o(i.prvCheckForValidListAndQueue)
    i.prvCopyDataFromQueue                   0x08003670   Section        0  queue.o(i.prvCopyDataFromQueue)
    prvCopyDataFromQueue                     0x08003671   Thumb Code    38  queue.o(i.prvCopyDataFromQueue)
    i.prvCopyDataToQueue                     0x08003696   Section        0  queue.o(i.prvCopyDataToQueue)
    prvCopyDataToQueue                       0x08003697   Thumb Code   108  queue.o(i.prvCopyDataToQueue)
    i.prvDeleteTCB                           0x08003702   Section        0  tasks.o(i.prvDeleteTCB)
    prvDeleteTCB                             0x08003703   Thumb Code    52  tasks.o(i.prvDeleteTCB)
    i.prvHeapInit                            0x08003738   Section        0  heap_4.o(i.prvHeapInit)
    prvHeapInit                              0x08003739   Thumb Code    66  heap_4.o(i.prvHeapInit)
    i.prvIdleTask                            0x08003784   Section        0  tasks.o(i.prvIdleTask)
    prvIdleTask                              0x08003785   Thumb Code    82  tasks.o(i.prvIdleTask)
    i.prvInitialiseMutex                     0x080037e4   Section        0  queue.o(i.prvInitialiseMutex)
    prvInitialiseMutex                       0x080037e5   Thumb Code    22  queue.o(i.prvInitialiseMutex)
    i.prvInitialiseNewQueue                  0x080037fc   Section        0  queue.o(i.prvInitialiseNewQueue)
    prvInitialiseNewQueue                    0x080037fd   Thumb Code    38  queue.o(i.prvInitialiseNewQueue)
    i.prvInitialiseNewTask                   0x08003822   Section        0  tasks.o(i.prvInitialiseNewTask)
    prvInitialiseNewTask                     0x08003823   Thumb Code   156  tasks.o(i.prvInitialiseNewTask)
    i.prvInsertBlockIntoFreeList             0x080038c0   Section        0  heap_4.o(i.prvInsertBlockIntoFreeList)
    prvInsertBlockIntoFreeList               0x080038c1   Thumb Code    72  heap_4.o(i.prvInsertBlockIntoFreeList)
    i.prvInsertTimerInActiveList             0x0800390c   Section        0  timers.o(i.prvInsertTimerInActiveList)
    prvInsertTimerInActiveList               0x0800390d   Thumb Code    52  timers.o(i.prvInsertTimerInActiveList)
    i.prvIsQueueEmpty                        0x08003944   Section        0  queue.o(i.prvIsQueueEmpty)
    prvIsQueueEmpty                          0x08003945   Thumb Code    28  queue.o(i.prvIsQueueEmpty)
    i.prvNotifyQueueSetContainer             0x08003960   Section        0  queue.o(i.prvNotifyQueueSetContainer)
    prvNotifyQueueSetContainer               0x08003961   Thumb Code   108  queue.o(i.prvNotifyQueueSetContainer)
    i.prvProcessReceivedCommands             0x080039cc   Section        0  timers.o(i.prvProcessReceivedCommands)
    prvProcessReceivedCommands               0x080039cd   Thumb Code   198  timers.o(i.prvProcessReceivedCommands)
    i.prvProcessTimerOrBlockTask             0x08003a98   Section        0  timers.o(i.prvProcessTimerOrBlockTask)
    prvProcessTimerOrBlockTask               0x08003a99   Thumb Code   172  timers.o(i.prvProcessTimerOrBlockTask)
    i.prvResetNextTaskUnblockTime            0x08003b4c   Section        0  tasks.o(i.prvResetNextTaskUnblockTime)
    prvResetNextTaskUnblockTime              0x08003b4d   Thumb Code    26  tasks.o(i.prvResetNextTaskUnblockTime)
    i.prvSampleTimeNow                       0x08003b6c   Section        0  timers.o(i.prvSampleTimeNow)
    prvSampleTimeNow                         0x08003b6d   Thumb Code    36  timers.o(i.prvSampleTimeNow)
    i.prvSwitchTimerLists                    0x08003b94   Section        0  timers.o(i.prvSwitchTimerLists)
    prvSwitchTimerLists                      0x08003b95   Thumb Code   102  timers.o(i.prvSwitchTimerLists)
    i.prvTaskExitError                       0x08003c00   Section        0  port.o(i.prvTaskExitError)
    prvTaskExitError                         0x08003c01   Thumb Code    36  port.o(i.prvTaskExitError)
    i.prvTestWaitCondition                   0x08003c28   Section        0  event_groups.o(i.prvTestWaitCondition)
    prvTestWaitCondition                     0x08003c29   Thumb Code    20  event_groups.o(i.prvTestWaitCondition)
    i.prvTimerTask                           0x08003c3c   Section        0  timers.o(i.prvTimerTask)
    prvTimerTask                             0x08003c3d   Thumb Code    32  timers.o(i.prvTimerTask)
    i.prvUnlockQueue                         0x08003c60   Section        0  queue.o(i.prvUnlockQueue)
    prvUnlockQueue                           0x08003c61   Thumb Code   120  queue.o(i.prvUnlockQueue)
    i.pvPortMalloc                           0x08003cd8   Section        0  heap_4.o(i.pvPortMalloc)
    i.pvTaskIncrementMutexHeldCount          0x08003db0   Section        0  tasks.o(i.pvTaskIncrementMutexHeldCount)
    i.pxPortInitialiseStack                  0x08003dc8   Section        0  port.o(i.pxPortInitialiseStack)
    i.readPixels                             0x08003dec   Section        0  draw.o(i.readPixels)
    readPixels                               0x08003ded   Thumb Code    12  draw.o(i.readPixels)
    i.set_bits                               0x08003df8   Section        0  draw.o(i.set_bits)
    set_bits                                 0x08003df9   Thumb Code    22  draw.o(i.set_bits)
    i.system_get_ns                          0x08003e10   Section        0  driver_timer.o(i.system_get_ns)
    i.udelay                                 0x08003e54   Section        0  driver_timer.o(i.udelay)
    i.uxListRemove                           0x08003e8c   Section        0  list.o(i.uxListRemove)
    i.uxTaskResetEventItemValue              0x08003eb4   Section        0  tasks.o(i.uxTaskResetEventItemValue)
    i.vApplicationGetIdleTaskMemory          0x08003ecc   Section        0  cmsis_os2.o(i.vApplicationGetIdleTaskMemory)
    i.vApplicationGetTimerTaskMemory         0x08003ee0   Section        0  cmsis_os2.o(i.vApplicationGetTimerTaskMemory)
    i.vListInitialise                        0x08003ef8   Section        0  list.o(i.vListInitialise)
    i.vListInitialiseItem                    0x08003f0e   Section        0  list.o(i.vListInitialiseItem)
    i.vListInsert                            0x08003f14   Section        0  list.o(i.vListInsert)
    i.vListInsertEnd                         0x08003f44   Section        0  list.o(i.vListInsertEnd)
    i.vPortEnterCritical                     0x08003f5c   Section        0  port.o(i.vPortEnterCritical)
    i.vPortExitCritical                      0x08003f9c   Section        0  port.o(i.vPortExitCritical)
    i.vPortFree                              0x08003fc4   Section        0  heap_4.o(i.vPortFree)
    i.vPortSetupTimerInterrupt               0x08004020   Section        0  port.o(i.vPortSetupTimerInterrupt)
    i.vPortValidateInterruptPriority         0x08004044   Section        0  port.o(i.vPortValidateInterruptPriority)
    i.vQueueAddToRegistry                    0x08004098   Section        0  queue.o(i.vQueueAddToRegistry)
    i.vQueueWaitForMessageRestricted         0x080040c0   Section        0  queue.o(i.vQueueWaitForMessageRestricted)
    i.vTaskDelay                             0x08004104   Section        0  tasks.o(i.vTaskDelay)
    i.vTaskDelete                            0x08004150   Section        0  tasks.o(i.vTaskDelete)
    i.vTaskInternalSetTimeOutState           0x080041e0   Section        0  tasks.o(i.vTaskInternalSetTimeOutState)
    i.vTaskMissedYield                       0x080041f0   Section        0  tasks.o(i.vTaskMissedYield)
    i.vTaskPlaceOnEventList                  0x080041fc   Section        0  tasks.o(i.vTaskPlaceOnEventList)
    i.vTaskPlaceOnEventListRestricted        0x0800422c   Section        0  tasks.o(i.vTaskPlaceOnEventListRestricted)
    i.vTaskPlaceOnUnorderedEventList         0x08004264   Section        0  tasks.o(i.vTaskPlaceOnUnorderedEventList)
    i.vTaskPriorityDisinheritAfterTimeout    0x080042b4   Section        0  tasks.o(i.vTaskPriorityDisinheritAfterTimeout)
    i.vTaskRemoveFromUnorderedEventList      0x08004344   Section        0  tasks.o(i.vTaskRemoveFromUnorderedEventList)
    i.vTaskStartScheduler                    0x080043b4   Section        0  tasks.o(i.vTaskStartScheduler)
    i.vTaskSuspendAll                        0x0800443c   Section        0  tasks.o(i.vTaskSuspendAll)
    i.vTaskSwitchContext                     0x0800444c   Section        0  tasks.o(i.vTaskSwitchContext)
    i.xEventGroupCreate                      0x080044b0   Section        0  event_groups.o(i.xEventGroupCreate)
    i.xEventGroupSetBits                     0x080044cc   Section        0  event_groups.o(i.xEventGroupSetBits)
    i.xEventGroupWaitBits                    0x08004558   Section        0  event_groups.o(i.xEventGroupWaitBits)
    i.xPortStartScheduler                    0x08004660   Section        0  port.o(i.xPortStartScheduler)
    i.xQueueCreateMutex                      0x08004708   Section        0  queue.o(i.xQueueCreateMutex)
    i.xQueueGenericCreate                    0x0800471e   Section        0  queue.o(i.xQueueGenericCreate)
    i.xQueueGenericCreateStatic              0x08004766   Section        0  queue.o(i.xQueueGenericCreateStatic)
    i.xQueueGenericReset                     0x080047cc   Section        0  queue.o(i.xQueueGenericReset)
    i.xQueueGenericSend                      0x08004854   Section        0  queue.o(i.xQueueGenericSend)
    i.xQueueGenericSendFromISR               0x080049c0   Section        0  queue.o(i.xQueueGenericSendFromISR)
    i.xQueueReceive                          0x08004a8c   Section        0  queue.o(i.xQueueReceive)
    i.xQueueSemaphoreTake                    0x08004bc4   Section        0  queue.o(i.xQueueSemaphoreTake)
    i.xTaskCheckForTimeOut                   0x08004d3c   Section        0  tasks.o(i.xTaskCheckForTimeOut)
    i.xTaskCreate                            0x08004db0   Section        0  tasks.o(i.xTaskCreate)
    i.xTaskCreateStatic                      0x08004e0a   Section        0  tasks.o(i.xTaskCreateStatic)
    i.xTaskGetSchedulerState                 0x08004e60   Section        0  tasks.o(i.xTaskGetSchedulerState)
    i.xTaskGetTickCount                      0x08004e7c   Section        0  tasks.o(i.xTaskGetTickCount)
    i.xTaskIncrementTick                     0x08004e88   Section        0  tasks.o(i.xTaskIncrementTick)
    i.xTaskPriorityDisinherit                0x08004f50   Section        0  tasks.o(i.xTaskPriorityDisinherit)
    i.xTaskPriorityInherit                   0x08004fd0   Section        0  tasks.o(i.xTaskPriorityInherit)
    i.xTaskRemoveFromEventList               0x08005048   Section        0  tasks.o(i.xTaskRemoveFromEventList)
    i.xTaskResumeAll                         0x080050b8   Section        0  tasks.o(i.xTaskResumeAll)
    i.xTimerCreateTimerTask                  0x0800517c   Section        0  timers.o(i.xTimerCreateTimerTask)
    i.xTimerGenericCommand                   0x080051dc   Section        0  timers.o(i.xTimerGenericCommand)
    .constdata                               0x08005244   Section       18  stm32f1xx_hal_rcc.o(.constdata)
    aPredivFactorTable                       0x08005244   Data           2  stm32f1xx_hal_rcc.o(.constdata)
    aPLLMULFactorTable                       0x08005246   Data          16  stm32f1xx_hal_rcc.o(.constdata)
    .constdata                               0x08005256   Section       16  system_stm32f1xx.o(.constdata)
    .constdata                               0x08005266   Section        8  system_stm32f1xx.o(.constdata)
    .constdata                               0x0800526e   Section     2048  driver_oled.o(.constdata)
    .constdata                               0x08005a6e   Section       68  game2.o(.constdata)
    roadMarking                              0x08005a6e   Data           8  game2.o(.constdata)
    carImg                                   0x08005a76   Data          30  game2.o(.constdata)
    clearImg                                 0x08005a94   Data          30  game2.o(.constdata)
    .data                                    0x20000000   Section        4  freertos.o(.data)
    g_xI2CMutex                              0x20000000   Data           4  freertos.o(.data)
    .data                                    0x20000004   Section       12  stm32f1xx_hal.o(.data)
    .data                                    0x20000010   Section        4  system_stm32f1xx.o(.data)
    .data                                    0x20000014   Section       60  tasks.o(.data)
    pxDelayedTaskList                        0x20000018   Data           4  tasks.o(.data)
    pxOverflowDelayedTaskList                0x2000001c   Data           4  tasks.o(.data)
    uxDeletedTasksWaitingCleanUp             0x20000020   Data           4  tasks.o(.data)
    uxCurrentNumberOfTasks                   0x20000024   Data           4  tasks.o(.data)
    xTickCount                               0x20000028   Data           4  tasks.o(.data)
    uxTopReadyPriority                       0x2000002c   Data           4  tasks.o(.data)
    xSchedulerRunning                        0x20000030   Data           4  tasks.o(.data)
    uxPendedTicks                            0x20000034   Data           4  tasks.o(.data)
    xYieldPending                            0x20000038   Data           4  tasks.o(.data)
    xNumOfOverflows                          0x2000003c   Data           4  tasks.o(.data)
    uxTaskNumber                             0x20000040   Data           4  tasks.o(.data)
    xNextTaskUnblockTime                     0x20000044   Data           4  tasks.o(.data)
    xIdleTaskHandle                          0x20000048   Data           4  tasks.o(.data)
    uxSchedulerSuspended                     0x2000004c   Data           4  tasks.o(.data)
    .data                                    0x20000050   Section       20  timers.o(.data)
    pxCurrentTimerList                       0x20000050   Data           4  timers.o(.data)
    pxOverflowTimerList                      0x20000054   Data           4  timers.o(.data)
    xTimerQueue                              0x20000058   Data           4  timers.o(.data)
    xTimerTaskHandle                         0x2000005c   Data           4  timers.o(.data)
    xLastTime                                0x20000060   Data           4  timers.o(.data)
    .data                                    0x20000064   Section        4  cmsis_os2.o(.data)
    KernelState                              0x20000064   Data           4  cmsis_os2.o(.data)
    .data                                    0x20000068   Section       24  heap_4.o(.data)
    pxEnd                                    0x20000068   Data           4  heap_4.o(.data)
    xFreeBytesRemaining                      0x2000006c   Data           4  heap_4.o(.data)
    xMinimumEverFreeBytesRemaining           0x20000070   Data           4  heap_4.o(.data)
    xBlockAllocatedBit                       0x20000074   Data           4  heap_4.o(.data)
    xStart                                   0x20000078   Data           8  heap_4.o(.data)
    .data                                    0x20000080   Section       12  port.o(.data)
    ucMaxSysCallPriority                     0x20000080   Data           1  port.o(.data)
    uxCriticalNesting                        0x20000084   Data           4  port.o(.data)
    ulMaxPRIGROUPValue                       0x20000088   Data           4  port.o(.data)
    .data                                    0x2000008c   Section        8  driver_oled.o(.data)
    mem_mode                                 0x2000008c   Data           1  driver_oled.o(.data)
    g_pHI2COLED                              0x20000090   Data           4  driver_oled.o(.data)
    .data                                    0x20000094   Section        8  driver_mpu6050.o(.data)
    g_pHI2C_MPU6050                          0x20000094   Data           4  driver_mpu6050.o(.data)
    g_xQueueMPU6050                          0x20000098   Data           4  driver_mpu6050.o(.data)
    .data                                    0x200000a0   Section       32  driver_ir_receiver.o(.data)
    g_IRReceiverIRQ_Cnt                      0x200000a0   Data           4  driver_ir_receiver.o(.data)
    g_queue_cnt                              0x200000a4   Data           4  driver_ir_receiver.o(.data)
    g_KeysBuf_R                              0x200000a8   Data           4  driver_ir_receiver.o(.data)
    g_KeysBuf_W                              0x200000ac   Data           4  driver_ir_receiver.o(.data)
    g_xQueueIR                               0x200000b0   Data           4  driver_ir_receiver.o(.data)
    pre_time                                 0x200000b8   Data           8  driver_ir_receiver.o(.data)
    .data                                    0x200000c0   Section       24  driver_rotary_encoder.o(.data)
    g_count                                  0x200000c0   Data           4  driver_rotary_encoder.o(.data)
    g_speed                                  0x200000c4   Data           4  driver_rotary_encoder.o(.data)
    pre_count                                0x200000c8   Data           4  driver_rotary_encoder.o(.data)
    g_xQueueRotary                           0x200000cc   Data           4  driver_rotary_encoder.o(.data)
    pre_time                                 0x200000d0   Data           8  driver_rotary_encoder.o(.data)
    .data                                    0x200000d8   Section       16  draw.o(.data)
    oledBuffer                               0x200000d8   Data           4  draw.o(.data)
    g_xres                                   0x200000dc   Data           4  draw.o(.data)
    g_yres                                   0x200000e0   Data           4  draw.o(.data)
    g_bpp                                    0x200000e4   Data           4  draw.o(.data)
    .data                                    0x200000e8   Section       56  game2.o(.data)
    g_xres                                   0x200000e8   Data           4  game2.o(.data)
    g_yres                                   0x200000ec   Data           4  game2.o(.data)
    g_bpp                                    0x200000f0   Data           4  game2.o(.data)
    g_framebuffer                            0x200000f4   Data           4  game2.o(.data)
    g_xEventCar                              0x200000f8   Data           4  game2.o(.data)
    .bss                                     0x20000120   Section       48  adc.o(.bss)
    .bss                                     0x20000150   Section       84  i2c.o(.bss)
    .bss                                     0x200001a4   Section       88  spi.o(.bss)
    .bss                                     0x200001fc   Section      216  tim.o(.bss)
    .bss                                     0x200002d4   Section       72  usart.o(.bss)
    .bss                                     0x2000031c   Section      752  usb.o(.bss)
    .bss                                     0x2000060c   Section       72  stm32f1xx_hal_timebase_tim.o(.bss)
    .bss                                     0x20000654   Section       64  queue.o(.bss)
    .bss                                     0x20000694   Section     1220  tasks.o(.bss)
    pxReadyTasksLists                        0x20000694   Data        1120  tasks.o(.bss)
    xDelayedTaskList1                        0x20000af4   Data          20  tasks.o(.bss)
    xDelayedTaskList2                        0x20000b08   Data          20  tasks.o(.bss)
    xPendingReadyList                        0x20000b1c   Data          20  tasks.o(.bss)
    xTasksWaitingTermination                 0x20000b30   Data          20  tasks.o(.bss)
    xSuspendedTaskList                       0x20000b44   Data          20  tasks.o(.bss)
    .bss                                     0x20000b58   Section      284  timers.o(.bss)
    xActiveTimerList1                        0x20000b58   Data          20  timers.o(.bss)
    xActiveTimerList2                        0x20000b6c   Data          20  timers.o(.bss)
    xStaticTimerQueue                        0x20000b80   Data          84  timers.o(.bss)
    ucStaticTimerQueueStorage                0x20000bd4   Data         160  timers.o(.bss)
    .bss                                     0x20000c74   Section     1720  cmsis_os2.o(.bss)
    Idle_TCB                                 0x20000c74   Data          92  cmsis_os2.o(.bss)
    Idle_Stack                               0x20000cd0   Data         512  cmsis_os2.o(.bss)
    Timer_TCB                                0x20000ed0   Data          92  cmsis_os2.o(.bss)
    Timer_Stack                              0x20000f2c   Data        1024  cmsis_os2.o(.bss)
    .bss                                     0x2000132c   Section     8000  heap_4.o(.bss)
    ucHeap                                   0x2000132c   Data        8000  heap_4.o(.bss)
    .bss                                     0x2000326c   Section     1024  driver_oled.o(.bss)
    oledBuffer                               0x2000326c   Data        1024  driver_oled.o(.bss)
    .bss                                     0x20003670   Section      712  driver_ir_receiver.o(.bss)
    g_KeysBuf                                0x20003670   Data         128  driver_ir_receiver.o(.bss)
    g_IRReceiverIRQ_Timers                   0x200036f0   Data         544  driver_ir_receiver.o(.bss)
    g_xQueues                                0x20003910   Data          40  driver_ir_receiver.o(.bss)
    .bss                                     0x20003938   Section      164  driver_rotary_encoder.o(.bss)
    g_ucQueueRotaryBuf                       0x20003938   Data          80  driver_rotary_encoder.o(.bss)
    g_xQueueRotaryStaticStruct               0x20003988   Data          84  driver_rotary_encoder.o(.bss)
    STACK                                    0x200039e0   Section     1024  startup_stm32f103xb.o(STACK)

    Global Symbols

    Symbol Name                              Value     Ov Type        Size  Object(Section)

    BuildAttributes$$THM_ISAv4$P$D$K$B$S$PE$A:L22UL41UL21$X:L11$S22US41US21$IEEE1$IW$USESV6$~STKCKD$USESV7$~SHL$OTIME$ROPI$EBA8$MICROLIB$REQ8$PRES8$EABIv2 0x00000000   Number         0  anon$$obj.o ABSOLUTE
    __ARM_use_no_argv                        0x00000000   Number         0  main.o ABSOLUTE
    _printf_a                                0x00000000   Number         0  stubs.o ABSOLUTE
    _printf_c                                0x00000000   Number         0  stubs.o ABSOLUTE
    _printf_charcount                        0x00000000   Number         0  stubs.o ABSOLUTE
    _printf_d                                0x00000000   Number         0  stubs.o ABSOLUTE
    _printf_e                                0x00000000   Number         0  stubs.o ABSOLUTE
    _printf_f                                0x00000000   Number         0  stubs.o ABSOLUTE
    _printf_flags                            0x00000000   Number         0  stubs.o ABSOLUTE
    _printf_fp_dec                           0x00000000   Number         0  stubs.o ABSOLUTE
    _printf_fp_hex                           0x00000000   Number         0  stubs.o ABSOLUTE
    _printf_g                                0x00000000   Number         0  stubs.o ABSOLUTE
    _printf_i                                0x00000000   Number         0  stubs.o ABSOLUTE
    _printf_int_dec                          0x00000000   Number         0  stubs.o ABSOLUTE
    _printf_l                                0x00000000   Number         0  stubs.o ABSOLUTE
    _printf_lc                               0x00000000   Number         0  stubs.o ABSOLUTE
    _printf_ll                               0x00000000   Number         0  stubs.o ABSOLUTE
    _printf_lld                              0x00000000   Number         0  stubs.o ABSOLUTE
    _printf_lli                              0x00000000   Number         0  stubs.o ABSOLUTE
    _printf_llo                              0x00000000   Number         0  stubs.o ABSOLUTE
    _printf_llu                              0x00000000   Number         0  stubs.o ABSOLUTE
    _printf_llx                              0x00000000   Number         0  stubs.o ABSOLUTE
    _printf_longlong_dec                     0x00000000   Number         0  stubs.o ABSOLUTE
    _printf_longlong_hex                     0x00000000   Number         0  stubs.o ABSOLUTE
    _printf_longlong_oct                     0x00000000   Number         0  stubs.o ABSOLUTE
    _printf_ls                               0x00000000   Number         0  stubs.o ABSOLUTE
    _printf_mbtowc                           0x00000000   Number         0  stubs.o ABSOLUTE
    _printf_n                                0x00000000   Number         0  stubs.o ABSOLUTE
    _printf_o                                0x00000000   Number         0  stubs.o ABSOLUTE
    _printf_p                                0x00000000   Number         0  stubs.o ABSOLUTE
    _printf_percent                          0x00000000   Number         0  stubs.o ABSOLUTE
    _printf_pre_padding                      0x00000000   Number         0  stubs.o ABSOLUTE
    _printf_return_value                     0x00000000   Number         0  stubs.o ABSOLUTE
    _printf_s                                0x00000000   Number         0  stubs.o ABSOLUTE
    _printf_sizespec                         0x00000000   Number         0  stubs.o ABSOLUTE
    _printf_str                              0x00000000   Number         0  stubs.o ABSOLUTE
    _printf_truncate_signed                  0x00000000   Number         0  stubs.o ABSOLUTE
    _printf_truncate_unsigned                0x00000000   Number         0  stubs.o ABSOLUTE
    _printf_u                                0x00000000   Number         0  stubs.o ABSOLUTE
    _printf_wc                               0x00000000   Number         0  stubs.o ABSOLUTE
    _printf_wctomb                           0x00000000   Number         0  stubs.o ABSOLUTE
    _printf_widthprec                        0x00000000   Number         0  stubs.o ABSOLUTE
    _printf_x                                0x00000000   Number         0  stubs.o ABSOLUTE
    __cpp_initialize__aeabi_                  - Undefined Weak Reference
    __cxa_finalize                            - Undefined Weak Reference
    __decompress                              - Undefined Weak Reference
    _clock_init                               - Undefined Weak Reference
    _microlib_exit                            - Undefined Weak Reference
    __Vectors_Size                           0x000000ec   Number         0  startup_stm32f103xb.o ABSOLUTE
    __Vectors                                0x08000000   Data           4  startup_stm32f103xb.o(RESET)
    __Vectors_End                            0x080000ec   Data           0  startup_stm32f103xb.o(RESET)
    __main                                   0x080000ed   Thumb Code     0  entry.o(.ARM.Collect$$$$00000000)
    _main_stk                                0x080000ed   Thumb Code     0  entry2.o(.ARM.Collect$$$$00000001)
    _main_scatterload                        0x080000f1   Thumb Code     0  entry5.o(.ARM.Collect$$$$00000004)
    __main_after_scatterload                 0x080000f5   Thumb Code     0  entry5.o(.ARM.Collect$$$$00000004)
    _main_clock                              0x080000f5   Thumb Code     0  entry7b.o(.ARM.Collect$$$$00000008)
    _main_cpp_init                           0x080000f5   Thumb Code     0  entry8b.o(.ARM.Collect$$$$0000000A)
    _main_init                               0x080000f5   Thumb Code     0  entry9a.o(.ARM.Collect$$$$0000000B)
    __rt_final_cpp                           0x080000fd   Thumb Code     0  entry10a.o(.ARM.Collect$$$$0000000D)
    __rt_final_exit                          0x080000fd   Thumb Code     0  entry11a.o(.ARM.Collect$$$$0000000F)
    SVC_Handler                              0x08000101   Thumb Code    32  port.o(.emb_text)
    __asm___6_port_c_39a90d8d__prvStartFirstTask 0x08000125   Thumb Code    28  port.o(.emb_text)
    PendSV_Handler                           0x08000145   Thumb Code    72  port.o(.emb_text)
    vPortGetIPSR                             0x08000191   Thumb Code     6  port.o(.emb_text)
    Reset_Handler                            0x08000199   Thumb Code     8  startup_stm32f103xb.o(.text)
    ADC1_2_IRQHandler                        0x080001b3   Thumb Code     0  startup_stm32f103xb.o(.text)
    CAN1_RX1_IRQHandler                      0x080001b3   Thumb Code     0  startup_stm32f103xb.o(.text)
    CAN1_SCE_IRQHandler                      0x080001b3   Thumb Code     0  startup_stm32f103xb.o(.text)
    DMA1_Channel1_IRQHandler                 0x080001b3   Thumb Code     0  startup_stm32f103xb.o(.text)
    DMA1_Channel2_IRQHandler                 0x080001b3   Thumb Code     0  startup_stm32f103xb.o(.text)
    DMA1_Channel3_IRQHandler                 0x080001b3   Thumb Code     0  startup_stm32f103xb.o(.text)
    DMA1_Channel4_IRQHandler                 0x080001b3   Thumb Code     0  startup_stm32f103xb.o(.text)
    DMA1_Channel5_IRQHandler                 0x080001b3   Thumb Code     0  startup_stm32f103xb.o(.text)
    DMA1_Channel6_IRQHandler                 0x080001b3   Thumb Code     0  startup_stm32f103xb.o(.text)
    DMA1_Channel7_IRQHandler                 0x080001b3   Thumb Code     0  startup_stm32f103xb.o(.text)
    EXTI0_IRQHandler                         0x080001b3   Thumb Code     0  startup_stm32f103xb.o(.text)
    EXTI1_IRQHandler                         0x080001b3   Thumb Code     0  startup_stm32f103xb.o(.text)
    EXTI2_IRQHandler                         0x080001b3   Thumb Code     0  startup_stm32f103xb.o(.text)
    EXTI3_IRQHandler                         0x080001b3   Thumb Code     0  startup_stm32f103xb.o(.text)
    EXTI4_IRQHandler                         0x080001b3   Thumb Code     0  startup_stm32f103xb.o(.text)
    EXTI9_5_IRQHandler                       0x080001b3   Thumb Code     0  startup_stm32f103xb.o(.text)
    FLASH_IRQHandler                         0x080001b3   Thumb Code     0  startup_stm32f103xb.o(.text)
    I2C1_ER_IRQHandler                       0x080001b3   Thumb Code     0  startup_stm32f103xb.o(.text)
    I2C1_EV_IRQHandler                       0x080001b3   Thumb Code     0  startup_stm32f103xb.o(.text)
    I2C2_ER_IRQHandler                       0x080001b3   Thumb Code     0  startup_stm32f103xb.o(.text)
    I2C2_EV_IRQHandler                       0x080001b3   Thumb Code     0  startup_stm32f103xb.o(.text)
    PVD_IRQHandler                           0x080001b3   Thumb Code     0  startup_stm32f103xb.o(.text)
    RCC_IRQHandler                           0x080001b3   Thumb Code     0  startup_stm32f103xb.o(.text)
    RTC_Alarm_IRQHandler                     0x080001b3   Thumb Code     0  startup_stm32f103xb.o(.text)
    RTC_IRQHandler                           0x080001b3   Thumb Code     0  startup_stm32f103xb.o(.text)
    SPI1_IRQHandler                          0x080001b3   Thumb Code     0  startup_stm32f103xb.o(.text)
    SPI2_IRQHandler                          0x080001b3   Thumb Code     0  startup_stm32f103xb.o(.text)
    TAMPER_IRQHandler                        0x080001b3   Thumb Code     0  startup_stm32f103xb.o(.text)
    TIM1_BRK_IRQHandler                      0x080001b3   Thumb Code     0  startup_stm32f103xb.o(.text)
    TIM1_CC_IRQHandler                       0x080001b3   Thumb Code     0  startup_stm32f103xb.o(.text)
    TIM1_TRG_COM_IRQHandler                  0x080001b3   Thumb Code     0  startup_stm32f103xb.o(.text)
    TIM1_UP_IRQHandler                       0x080001b3   Thumb Code     0  startup_stm32f103xb.o(.text)
    TIM2_IRQHandler                          0x080001b3   Thumb Code     0  startup_stm32f103xb.o(.text)
    TIM3_IRQHandler                          0x080001b3   Thumb Code     0  startup_stm32f103xb.o(.text)
    USART1_IRQHandler                        0x080001b3   Thumb Code     0  startup_stm32f103xb.o(.text)
    USART2_IRQHandler                        0x080001b3   Thumb Code     0  startup_stm32f103xb.o(.text)
    USART3_IRQHandler                        0x080001b3   Thumb Code     0  startup_stm32f103xb.o(.text)
    USBWakeUp_IRQHandler                     0x080001b3   Thumb Code     0  startup_stm32f103xb.o(.text)
    USB_HP_CAN1_TX_IRQHandler                0x080001b3   Thumb Code     0  startup_stm32f103xb.o(.text)
    USB_LP_CAN1_RX0_IRQHandler               0x080001b3   Thumb Code     0  startup_stm32f103xb.o(.text)
    WWDG_IRQHandler                          0x080001b3   Thumb Code     0  startup_stm32f103xb.o(.text)
    __aeabi_uldivmod                         0x080001bd   Thumb Code    98  uldiv.o(.text)
    __aeabi_llsr                             0x0800021f   Thumb Code    32  llushr.o(.text)
    _ll_ushift_r                             0x0800021f   Thumb Code     0  llushr.o(.text)
    __aeabi_memcpy                           0x0800023f   Thumb Code    36  memcpya.o(.text)
    __aeabi_memcpy4                          0x0800023f   Thumb Code     0  memcpya.o(.text)
    __aeabi_memcpy8                          0x0800023f   Thumb Code     0  memcpya.o(.text)
    __aeabi_memset                           0x08000263   Thumb Code    14  memseta.o(.text)
    __aeabi_memset4                          0x08000263   Thumb Code     0  memseta.o(.text)
    __aeabi_memset8                          0x08000263   Thumb Code     0  memseta.o(.text)
    __aeabi_memclr                           0x08000271   Thumb Code     4  memseta.o(.text)
    __aeabi_memclr4                          0x08000271   Thumb Code     0  memseta.o(.text)
    __aeabi_memclr8                          0x08000271   Thumb Code     0  memseta.o(.text)
    memset                                   0x08000275   Thumb Code    18  memseta.o(.text)
    __aeabi_llsl                             0x08000287   Thumb Code    30  llshl.o(.text)
    _ll_shift_l                              0x08000287   Thumb Code     0  llshl.o(.text)
    __scatterload                            0x080002a5   Thumb Code    28  init.o(.text)
    __scatterload_rt2                        0x080002a5   Thumb Code     0  init.o(.text)
    ADC_ConversionStop_Disable               0x080002c9   Thumb Code    86  stm32f1xx_hal_adc.o(i.ADC_ConversionStop_Disable)
    BusFault_Handler                         0x0800031f   Thumb Code     2  stm32f1xx_it.o(i.BusFault_Handler)
    DebugMon_Handler                         0x0800044d   Thumb Code     2  stm32f1xx_it.o(i.DebugMon_Handler)
    DispatchKey                              0x08000451   Thumb Code    42  driver_ir_receiver.o(i.DispatchKey)
    EXTI15_10_IRQHandler                     0x08000485   Thumb Code    30  stm32f1xx_it.o(i.EXTI15_10_IRQHandler)
    Error_Handler                            0x080004a3   Thumb Code     4  main.o(i.Error_Handler)
    GetI2C                                   0x080004a9   Thumb Code    12  freertos.o(i.GetI2C)
    HAL_ADC_ConfigChannel                    0x080004b9   Thumb Code   240  stm32f1xx_hal_adc.o(i.HAL_ADC_ConfigChannel)
    HAL_ADC_Init                             0x080005b5   Thumb Code   272  stm32f1xx_hal_adc.o(i.HAL_ADC_Init)
    HAL_ADC_MspInit                          0x080006d1   Thumb Code    76  adc.o(i.HAL_ADC_MspInit)
    HAL_GPIO_EXTI_Callback                   0x08000729   Thumb Code    22  driver_irq.o(i.HAL_GPIO_EXTI_Callback)
    HAL_GPIO_EXTI_IRQHandler                 0x08000741   Thumb Code    18  stm32f1xx_hal_gpio.o(i.HAL_GPIO_EXTI_IRQHandler)
    HAL_GPIO_Init                            0x08000759   Thumb Code   446  stm32f1xx_hal_gpio.o(i.HAL_GPIO_Init)
    HAL_GPIO_ReadPin                         0x08000939   Thumb Code    10  stm32f1xx_hal_gpio.o(i.HAL_GPIO_ReadPin)
    HAL_GPIO_WritePin                        0x08000943   Thumb Code    10  stm32f1xx_hal_gpio.o(i.HAL_GPIO_WritePin)
    HAL_GetTick                              0x0800094d   Thumb Code     6  stm32f1xx_hal.o(i.HAL_GetTick)
    HAL_I2C_Init                             0x08000959   Thumb Code   376  stm32f1xx_hal_i2c.o(i.HAL_I2C_Init)
    HAL_I2C_Master_Transmit                  0x08000ae1   Thumb Code   290  stm32f1xx_hal_i2c.o(i.HAL_I2C_Master_Transmit)
    HAL_I2C_Mem_Write                        0x08000c0d   Thumb Code   294  stm32f1xx_hal_i2c.o(i.HAL_I2C_Mem_Write)
    HAL_I2C_MspInit                          0x08000d3d   Thumb Code    80  i2c.o(i.HAL_I2C_MspInit)
    HAL_IncTick                              0x08000d99   Thumb Code    12  stm32f1xx_hal.o(i.HAL_IncTick)
    HAL_Init                                 0x08000da9   Thumb Code    32  stm32f1xx_hal.o(i.HAL_Init)
    HAL_InitTick                             0x08000dcd   Thumb Code   132  stm32f1xx_hal_timebase_tim.o(i.HAL_InitTick)
    HAL_MspInit                              0x08000e65   Thumb Code    62  stm32f1xx_hal_msp.o(i.HAL_MspInit)
    HAL_NVIC_EnableIRQ                       0x08000ead   Thumb Code    26  stm32f1xx_hal_cortex.o(i.HAL_NVIC_EnableIRQ)
    HAL_NVIC_SetPriority                     0x08000ec9   Thumb Code    60  stm32f1xx_hal_cortex.o(i.HAL_NVIC_SetPriority)
    HAL_NVIC_SetPriorityGrouping             0x08000f09   Thumb Code    26  stm32f1xx_hal_cortex.o(i.HAL_NVIC_SetPriorityGrouping)
    HAL_PCD_Init                             0x08000f2d   Thumb Code   218  stm32f1xx_hal_pcd.o(i.HAL_PCD_Init)
    HAL_PCD_MspInit                          0x08001009   Thumb Code    30  usb.o(i.HAL_PCD_MspInit)
    HAL_RCCEx_PeriphCLKConfig                0x08001031   Thumb Code   224  stm32f1xx_hal_rcc_ex.o(i.HAL_RCCEx_PeriphCLKConfig)
    HAL_RCC_ClockConfig                      0x0800111d   Thumb Code   280  stm32f1xx_hal_rcc.o(i.HAL_RCC_ClockConfig)
    HAL_RCC_GetClockConfig                   0x08001249   Thumb Code    54  stm32f1xx_hal_rcc.o(i.HAL_RCC_GetClockConfig)
    HAL_RCC_GetPCLK1Freq                     0x08001289   Thumb Code    20  stm32f1xx_hal_rcc.o(i.HAL_RCC_GetPCLK1Freq)
    HAL_RCC_GetPCLK2Freq                     0x080012a9   Thumb Code    20  stm32f1xx_hal_rcc.o(i.HAL_RCC_GetPCLK2Freq)
    HAL_RCC_GetSysClockFreq                  0x080012c9   Thumb Code    58  stm32f1xx_hal_rcc.o(i.HAL_RCC_GetSysClockFreq)
    HAL_RCC_OscConfig                        0x08001315   Thumb Code   778  stm32f1xx_hal_rcc.o(i.HAL_RCC_OscConfig)
    HAL_SPI_Init                             0x08001635   Thumb Code   178  stm32f1xx_hal_spi.o(i.HAL_SPI_Init)
    HAL_SPI_MspInit                          0x080016e9   Thumb Code    98  spi.o(i.HAL_SPI_MspInit)
    HAL_TIMEx_BreakCallback                  0x08001759   Thumb Code     2  stm32f1xx_hal_tim_ex.o(i.HAL_TIMEx_BreakCallback)
    HAL_TIMEx_CommutCallback                 0x0800175b   Thumb Code     2  stm32f1xx_hal_tim_ex.o(i.HAL_TIMEx_CommutCallback)
    HAL_TIMEx_ConfigBreakDeadTime            0x0800175d   Thumb Code    84  stm32f1xx_hal_tim_ex.o(i.HAL_TIMEx_ConfigBreakDeadTime)
    HAL_TIMEx_MasterConfigSynchronization    0x080017b1   Thumb Code    92  stm32f1xx_hal_tim_ex.o(i.HAL_TIMEx_MasterConfigSynchronization)
    HAL_TIM_Base_Init                        0x08001819   Thumb Code    90  stm32f1xx_hal_tim.o(i.HAL_TIM_Base_Init)
    HAL_TIM_Base_MspInit                     0x08001875   Thumb Code    52  tim.o(i.HAL_TIM_Base_MspInit)
    HAL_TIM_Base_Start_IT                    0x080018b1   Thumb Code    76  stm32f1xx_hal_tim.o(i.HAL_TIM_Base_Start_IT)
    HAL_TIM_ConfigClockSource                0x08001909   Thumb Code   220  stm32f1xx_hal_tim.o(i.HAL_TIM_ConfigClockSource)
    HAL_TIM_IC_CaptureCallback               0x080019e5   Thumb Code     2  stm32f1xx_hal_tim.o(i.HAL_TIM_IC_CaptureCallback)
    HAL_TIM_IRQHandler                       0x080019e7   Thumb Code   358  stm32f1xx_hal_tim.o(i.HAL_TIM_IRQHandler)
    HAL_TIM_MspPostInit                      0x08001b4d   Thumb Code   212  tim.o(i.HAL_TIM_MspPostInit)
    HAL_TIM_OC_DelayElapsedCallback          0x08001c39   Thumb Code     2  stm32f1xx_hal_tim.o(i.HAL_TIM_OC_DelayElapsedCallback)
    HAL_TIM_PWM_ConfigChannel                0x08001c3b   Thumb Code   204  stm32f1xx_hal_tim.o(i.HAL_TIM_PWM_ConfigChannel)
    HAL_TIM_PWM_Init                         0x08001d07   Thumb Code    90  stm32f1xx_hal_tim.o(i.HAL_TIM_PWM_Init)
    HAL_TIM_PWM_MspInit                      0x08001d61   Thumb Code    30  tim.o(i.HAL_TIM_PWM_MspInit)
    HAL_TIM_PWM_PulseFinishedCallback        0x08001d89   Thumb Code     2  stm32f1xx_hal_tim.o(i.HAL_TIM_PWM_PulseFinishedCallback)
    HAL_TIM_PeriodElapsedCallback            0x08001d8d   Thumb Code    14  main.o(i.HAL_TIM_PeriodElapsedCallback)
    HAL_TIM_TriggerCallback                  0x08001da1   Thumb Code     2  stm32f1xx_hal_tim.o(i.HAL_TIM_TriggerCallback)
    HAL_UART_Init                            0x08001da3   Thumb Code   100  stm32f1xx_hal_uart.o(i.HAL_UART_Init)
    HAL_UART_MspInit                         0x08001e09   Thumb Code   100  usart.o(i.HAL_UART_MspInit)
    HardFault_Handler                        0x08001e79   Thumb Code     2  stm32f1xx_it.o(i.HardFault_Handler)
    IRReceiver_IRQ_Callback                  0x08002339   Thumb Code   156  driver_ir_receiver.o(i.IRReceiver_IRQ_Callback)
    IRReceiver_Init                          0x080023ed   Thumb Code    24  driver_ir_receiver.o(i.IRReceiver_Init)
    LCD_Clear                                0x08002409   Thumb Code     4  driver_lcd.o(i.LCD_Clear)
    LCD_Flush                                0x0800240d   Thumb Code     4  driver_lcd.o(i.LCD_Flush)
    LCD_FlushRegion                          0x08002411   Thumb Code     4  driver_lcd.o(i.LCD_FlushRegion)
    LCD_GetFrameBuffer                       0x08002415   Thumb Code     4  driver_lcd.o(i.LCD_GetFrameBuffer)
    LCD_Init                                 0x08002419   Thumb Code     4  driver_lcd.o(i.LCD_Init)
    LCD_PrintString                          0x0800241d   Thumb Code     4  driver_lcd.o(i.LCD_PrintString)
    MPU6050_Init                             0x08002421   Thumb Code    68  driver_mpu6050.o(i.MPU6050_Init)
    MX_ADC1_Init                             0x0800248d   Thumb Code    70  adc.o(i.MX_ADC1_Init)
    MX_FREERTOS_Init                         0x080024dd   Thumb Code    50  freertos.o(i.MX_FREERTOS_Init)
    MX_GPIO_Init                             0x08002521   Thumb Code   310  gpio.o(i.MX_GPIO_Init)
    MX_I2C1_Init                             0x08002671   Thumb Code    50  i2c.o(i.MX_I2C1_Init)
    MX_SPI1_Init                             0x080026b1   Thumb Code    62  spi.o(i.MX_SPI1_Init)
    MX_TIM1_Init                             0x080026f9   Thumb Code   198  tim.o(i.MX_TIM1_Init)
    MX_TIM2_Init                             0x080027c9   Thumb Code   182  tim.o(i.MX_TIM2_Init)
    MX_TIM3_Init                             0x08002885   Thumb Code   110  tim.o(i.MX_TIM3_Init)
    MX_USART1_UART_Init                      0x080028fd   Thumb Code    48  usart.o(i.MX_USART1_UART_Init)
    MX_USB_PCD_Init                          0x08002935   Thumb Code    42  usb.o(i.MX_USB_PCD_Init)
    MemManage_Handler                        0x08002969   Thumb Code     2  stm32f1xx_it.o(i.MemManage_Handler)
    NMI_Handler                              0x0800296b   Thumb Code     2  stm32f1xx_it.o(i.NMI_Handler)
    OLED_Clear                               0x0800296d   Thumb Code    42  driver_oled.o(i.OLED_Clear)
    OLED_Flush                               0x08002999   Thumb Code    50  driver_oled.o(i.OLED_Flush)
    OLED_FlushRegion                         0x080029d1   Thumb Code    90  driver_oled.o(i.OLED_FlushRegion)
    OLED_GetFrameBuffer                      0x08002a31   Thumb Code    16  driver_oled.o(i.OLED_GetFrameBuffer)
    OLED_Init                                0x08002a45   Thumb Code   142  driver_oled.o(i.OLED_Init)
    OLED_PrintString                         0x08002ad9   Thumb Code    50  driver_oled.o(i.OLED_PrintString)
    OLED_PutChar                             0x08002b0d   Thumb Code    66  driver_oled.o(i.OLED_PutChar)
    OLED_SetPosition                         0x08002b81   Thumb Code    58  driver_oled.o(i.OLED_SetPosition)
    PutI2C                                   0x08002c09   Thumb Code    14  freertos.o(i.PutI2C)
    RegisterQueueHandle                      0x08002c1d   Thumb Code    20  driver_ir_receiver.o(i.RegisterQueueHandle)
    RotaryEncoder_IRQ_Callback               0x08002c39   Thumb Code   116  driver_rotary_encoder.o(i.RotaryEncoder_IRQ_Callback)
    RotaryEncoder_Init                       0x08002cb9   Thumb Code    26  driver_rotary_encoder.o(i.RotaryEncoder_Init)
    SysTick_Handler                          0x08002d0d   Thumb Code    38  port.o(i.SysTick_Handler)
    SystemClock_Config                       0x08002d39   Thumb Code   124  main.o(i.SystemClock_Config)
    SystemInit                               0x08002db5   Thumb Code     2  system_stm32f1xx.o(i.SystemInit)
    TIM4_IRQHandler                          0x08002db9   Thumb Code     6  stm32f1xx_it.o(i.TIM4_IRQHandler)
    TIM_Base_SetConfig                       0x08002dc5   Thumb Code    94  stm32f1xx_hal_tim.o(i.TIM_Base_SetConfig)
    TIM_ETR_SetConfig                        0x08002e31   Thumb Code    20  stm32f1xx_hal_tim.o(i.TIM_ETR_SetConfig)
    TIM_OC2_SetConfig                        0x08002ea5   Thumb Code    84  stm32f1xx_hal_tim.o(i.TIM_OC2_SetConfig)
    USB_CoreInit                             0x08003099   Thumb Code     4  stm32f1xx_ll_usb.o(i.USB_CoreInit)
    USB_DevDisconnect                        0x0800309d   Thumb Code     4  stm32f1xx_ll_usb.o(i.USB_DevDisconnect)
    USB_DevInit                              0x080030a1   Thumb Code    18  stm32f1xx_ll_usb.o(i.USB_DevInit)
    USB_DisableGlobalInt                     0x080030b3   Thumb Code    14  stm32f1xx_ll_usb.o(i.USB_DisableGlobalInt)
    USB_SetCurrentMode                       0x080030c1   Thumb Code     4  stm32f1xx_ll_usb.o(i.USB_SetCurrentMode)
    UsageFault_Handler                       0x080030c5   Thumb Code     2  stm32f1xx_it.o(i.UsageFault_Handler)
    __scatterload_copy                       0x080030e7   Thumb Code    14  handlers.o(i.__scatterload_copy)
    __scatterload_null                       0x080030f5   Thumb Code     2  handlers.o(i.__scatterload_null)
    __scatterload_zeroinit                   0x080030f7   Thumb Code    14  handlers.o(i.__scatterload_zeroinit)
    car_game2                                0x08003105   Thumb Code   224  game2.o(i.car_game2)
    draw_bitmap                              0x08003211   Thumb Code   458  draw.o(i.draw_bitmap)
    draw_end                                 0x080033e1   Thumb Code     4  draw.o(i.draw_end)
    draw_flushArea                           0x080033e5   Thumb Code    36  draw.o(i.draw_flushArea)
    draw_init                                0x08003409   Thumb Code    20  draw.o(i.draw_init)
    main                                     0x08003421   Thumb Code    58  main.o(i.main)
    mdelay                                   0x0800345b   Thumb Code    26  driver_timer.o(i.mdelay)
    osKernelInitialize                       0x08003475   Thumb Code    50  cmsis_os2.o(i.osKernelInitialize)
    osKernelStart                            0x080034ad   Thumb Code    58  cmsis_os2.o(i.osKernelStart)
    pvPortMalloc                             0x08003cd9   Thumb Code   210  heap_4.o(i.pvPortMalloc)
    pvTaskIncrementMutexHeldCount            0x08003db1   Thumb Code    18  tasks.o(i.pvTaskIncrementMutexHeldCount)
    pxPortInitialiseStack                    0x08003dc9   Thumb Code    32  port.o(i.pxPortInitialiseStack)
    system_get_ns                            0x08003e11   Thumb Code    58  driver_timer.o(i.system_get_ns)
    udelay                                   0x08003e55   Thumb Code    52  driver_timer.o(i.udelay)
    uxListRemove                             0x08003e8d   Thumb Code    38  list.o(i.uxListRemove)
    uxTaskResetEventItemValue                0x08003eb5   Thumb Code    20  tasks.o(i.uxTaskResetEventItemValue)
    vApplicationGetIdleTaskMemory            0x08003ecd   Thumb Code    16  cmsis_os2.o(i.vApplicationGetIdleTaskMemory)
    vApplicationGetTimerTaskMemory           0x08003ee1   Thumb Code    18  cmsis_os2.o(i.vApplicationGetTimerTaskMemory)
    vListInitialise                          0x08003ef9   Thumb Code    22  list.o(i.vListInitialise)
    vListInitialiseItem                      0x08003f0f   Thumb Code     6  list.o(i.vListInitialiseItem)
    vListInsert                              0x08003f15   Thumb Code    48  list.o(i.vListInsert)
    vListInsertEnd                           0x08003f45   Thumb Code    24  list.o(i.vListInsertEnd)
    vPortEnterCritical                       0x08003f5d   Thumb Code    54  port.o(i.vPortEnterCritical)
    vPortExitCritical                        0x08003f9d   Thumb Code    34  port.o(i.vPortExitCritical)
    vPortFree                                0x08003fc5   Thumb Code    88  heap_4.o(i.vPortFree)
    vPortSetupTimerInterrupt                 0x08004021   Thumb Code    32  port.o(i.vPortSetupTimerInterrupt)
    vPortValidateInterruptPriority           0x08004045   Thumb Code    74  port.o(i.vPortValidateInterruptPriority)
    vQueueAddToRegistry                      0x08004099   Thumb Code    34  queue.o(i.vQueueAddToRegistry)
    vQueueWaitForMessageRestricted           0x080040c1   Thumb Code    68  queue.o(i.vQueueWaitForMessageRestricted)
    vTaskDelay                               0x08004105   Thumb Code    66  tasks.o(i.vTaskDelay)
    vTaskDelete                              0x08004151   Thumb Code   130  tasks.o(i.vTaskDelete)
    vTaskInternalSetTimeOutState             0x080041e1   Thumb Code    12  tasks.o(i.vTaskInternalSetTimeOutState)
    vTaskMissedYield                         0x080041f1   Thumb Code     8  tasks.o(i.vTaskMissedYield)
    vTaskPlaceOnEventList                    0x080041fd   Thumb Code    44  tasks.o(i.vTaskPlaceOnEventList)
    vTaskPlaceOnEventListRestricted          0x0800422d   Thumb Code    52  tasks.o(i.vTaskPlaceOnEventListRestricted)
    vTaskPlaceOnUnorderedEventList           0x08004265   Thumb Code    76  tasks.o(i.vTaskPlaceOnUnorderedEventList)
    vTaskPriorityDisinheritAfterTimeout      0x080042b5   Thumb Code   134  tasks.o(i.vTaskPriorityDisinheritAfterTimeout)
    vTaskRemoveFromUnorderedEventList        0x08004345   Thumb Code   102  tasks.o(i.vTaskRemoveFromUnorderedEventList)
    vTaskStartScheduler                      0x080043b5   Thumb Code   118  tasks.o(i.vTaskStartScheduler)
    vTaskSuspendAll                          0x0800443d   Thumb Code    10  tasks.o(i.vTaskSuspendAll)
    vTaskSwitchContext                       0x0800444d   Thumb Code    90  tasks.o(i.vTaskSwitchContext)
    xEventGroupCreate                        0x080044b1   Thumb Code    28  event_groups.o(i.xEventGroupCreate)
    xEventGroupSetBits                       0x080044cd   Thumb Code   140  event_groups.o(i.xEventGroupSetBits)
    xEventGroupWaitBits                      0x08004559   Thumb Code   260  event_groups.o(i.xEventGroupWaitBits)
    xPortStartScheduler                      0x08004661   Thumb Code   154  port.o(i.xPortStartScheduler)
    xQueueCreateMutex                        0x08004709   Thumb Code    22  queue.o(i.xQueueCreateMutex)
    xQueueGenericCreate                      0x0800471f   Thumb Code    72  queue.o(i.xQueueGenericCreate)
    xQueueGenericCreateStatic                0x08004767   Thumb Code   102  queue.o(i.xQueueGenericCreateStatic)
    xQueueGenericReset                       0x080047cd   Thumb Code   132  queue.o(i.xQueueGenericReset)
    xQueueGenericSend                        0x08004855   Thumb Code   360  queue.o(i.xQueueGenericSend)
    xQueueGenericSendFromISR                 0x080049c1   Thumb Code   202  queue.o(i.xQueueGenericSendFromISR)
    xQueueReceive                            0x08004a8d   Thumb Code   308  queue.o(i.xQueueReceive)
    xQueueSemaphoreTake                      0x08004bc5   Thumb Code   372  queue.o(i.xQueueSemaphoreTake)
    xTaskCheckForTimeOut                     0x08004d3d   Thumb Code   112  tasks.o(i.xTaskCheckForTimeOut)
    xTaskCreate                              0x08004db1   Thumb Code    90  tasks.o(i.xTaskCreate)
    xTaskCreateStatic                        0x08004e0b   Thumb Code    86  tasks.o(i.xTaskCreateStatic)
    xTaskGetSchedulerState                   0x08004e61   Thumb Code    22  tasks.o(i.xTaskGetSchedulerState)
    xTaskGetTickCount                        0x08004e7d   Thumb Code     6  tasks.o(i.xTaskGetTickCount)
    xTaskIncrementTick                       0x08004e89   Thumb Code   190  tasks.o(i.xTaskIncrementTick)
    xTaskPriorityDisinherit                  0x08004f51   Thumb Code   118  tasks.o(i.xTaskPriorityDisinherit)
    xTaskPriorityInherit                     0x08004fd1   Thumb Code   112  tasks.o(i.xTaskPriorityInherit)
    xTaskRemoveFromEventList                 0x08005049   Thumb Code    98  tasks.o(i.xTaskRemoveFromEventList)
    xTaskResumeAll                           0x080050b9   Thumb Code   182  tasks.o(i.xTaskResumeAll)
    xTimerCreateTimerTask                    0x0800517d   Thumb Code    78  timers.o(i.xTimerCreateTimerTask)
    xTimerGenericCommand                     0x080051dd   Thumb Code    98  timers.o(i.xTimerGenericCommand)
    AHBPrescTable                            0x08005256   Data          16  system_stm32f1xx.o(.constdata)
    APBPrescTable                            0x08005266   Data           8  system_stm32f1xx.o(.constdata)
    ascii_font                               0x0800526e   Data        2048  driver_oled.o(.constdata)
    Region$$Table$$Base                      0x08005ab4   Number         0  anon$$obj.o(Region$$Table)
    Region$$Table$$Limit                     0x08005ad4   Number         0  anon$$obj.o(Region$$Table)
    uwTickFreq                               0x20000004   Data           1  stm32f1xx_hal.o(.data)
    uwTickPrio                               0x20000008   Data           4  stm32f1xx_hal.o(.data)
    uwTick                                   0x2000000c   Data           4  stm32f1xx_hal.o(.data)
    SystemCoreClock                          0x20000010   Data           4  system_stm32f1xx.o(.data)
    pxCurrentTCB                             0x20000014   Data           4  tasks.o(.data)
    g_cars                                   0x200000fc   Data          36  game2.o(.data)
    hadc1                                    0x20000120   Data          48  adc.o(.bss)
    hi2c1                                    0x20000150   Data          84  i2c.o(.bss)
    hspi1                                    0x200001a4   Data          88  spi.o(.bss)
    htim1                                    0x200001fc   Data          72  tim.o(.bss)
    htim2                                    0x20000244   Data          72  tim.o(.bss)
    htim3                                    0x2000028c   Data          72  tim.o(.bss)
    huart1                                   0x200002d4   Data          72  usart.o(.bss)
    hpcd_USB_FS                              0x2000031c   Data         752  usb.o(.bss)
    htim4                                    0x2000060c   Data          72  stm32f1xx_hal_timebase_tim.o(.bss)
    xQueueRegistry                           0x20000654   Data          64  queue.o(.bss)
    __initial_sp                             0x20003de0   Data           0  startup_stm32f103xb.o(STACK)



==============================================================================

Memory Map of the image

  Image Entry point : 0x080000ed

  Load Region LR_IROM1 (Base: 0x08000000, Size: 0x00005bf4, Max: 0x00010000, ABSOLUTE)

    Execution Region ER_IROM1 (Exec base: 0x08000000, Load base: 0x08000000, Size: 0x00005ad4, Max: 0x00010000, ABSOLUTE)

    Exec Addr    Load Addr    Size         Type   Attr      Idx    E Section Name        Object

    0x08000000   0x08000000   0x000000ec   Data   RO            3    RESET               startup_stm32f103xb.o
    0x080000ec   0x080000ec   0x00000000   Code   RO         7783  * .ARM.Collect$$$$00000000  mc_w.l(entry.o)
    0x080000ec   0x080000ec   0x00000004   Code   RO         8116    .ARM.Collect$$$$00000001  mc_w.l(entry2.o)
    0x080000f0   0x080000f0   0x00000004   Code   RO         8119    .ARM.Collect$$$$00000004  mc_w.l(entry5.o)
    0x080000f4   0x080000f4   0x00000000   Code   RO         8121    .ARM.Collect$$$$00000008  mc_w.l(entry7b.o)
    0x080000f4   0x080000f4   0x00000000   Code   RO         8123    .ARM.Collect$$$$0000000A  mc_w.l(entry8b.o)
    0x080000f4   0x080000f4   0x00000008   Code   RO         8124    .ARM.Collect$$$$0000000B  mc_w.l(entry9a.o)
    0x080000fc   0x080000fc   0x00000000   Code   RO         8126    .ARM.Collect$$$$0000000D  mc_w.l(entry10a.o)
    0x080000fc   0x080000fc   0x00000000   Code   RO         8128    .ARM.Collect$$$$0000000F  mc_w.l(entry11a.o)
    0x080000fc   0x080000fc   0x00000004   Code   RO         8117    .ARM.Collect$$$$00002712  mc_w.l(entry2.o)
    0x08000100   0x08000100   0x00000096   Code   RO         6261    .emb_text           port.o
    0x08000196   0x08000196   0x00000002   PAD
    0x08000198   0x08000198   0x00000024   Code   RO            4    .text               startup_stm32f103xb.o
    0x080001bc   0x080001bc   0x00000062   Code   RO         7786    .text               mc_w.l(uldiv.o)
    0x0800021e   0x0800021e   0x00000020   Code   RO         7788    .text               mc_w.l(llushr.o)
    0x0800023e   0x0800023e   0x00000024   Code   RO         7793    .text               mc_w.l(memcpya.o)
    0x08000262   0x08000262   0x00000024   Code   RO         7797    .text               mc_w.l(memseta.o)
    0x08000286   0x08000286   0x0000001e   Code   RO         8133    .text               mc_w.l(llshl.o)
    0x080002a4   0x080002a4   0x00000024   Code   RO         8150    .text               mc_w.l(init.o)
    0x080002c8   0x080002c8   0x00000056   Code   RO          845    i.ADC_ConversionStop_Disable  stm32f1xx_hal_adc.o
    0x0800031e   0x0800031e   0x00000002   Code   RO          676    i.BusFault_Handler  stm32f1xx_it.o
    0x08000320   0x08000320   0x0000005c   Code   RO         7671    i.Car1Task          game2.o
    0x0800037c   0x0800037c   0x00000068   Code   RO         7672    i.Car2Task          game2.o
    0x080003e4   0x080003e4   0x00000068   Code   RO         7673    i.Car3Task          game2.o
    0x0800044c   0x0800044c   0x00000002   Code   RO          677    i.DebugMon_Handler  stm32f1xx_it.o
    0x0800044e   0x0800044e   0x00000002   PAD
    0x08000450   0x08000450   0x00000034   Code   RO         6957    i.DispatchKey       driver_ir_receiver.o
    0x08000484   0x08000484   0x0000001e   Code   RO          678    i.EXTI15_10_IRQHandler  stm32f1xx_it.o
    0x080004a2   0x080004a2   0x00000004   Code   RO           75    i.Error_Handler     main.o
    0x080004a6   0x080004a6   0x00000002   PAD
    0x080004a8   0x080004a8   0x00000010   Code   RO          279    i.GetI2C            freertos.o
    0x080004b8   0x080004b8   0x000000fc   Code   RO          851    i.HAL_ADC_ConfigChannel  stm32f1xx_hal_adc.o
    0x080005b4   0x080005b4   0x0000011c   Code   RO          860    i.HAL_ADC_Init      stm32f1xx_hal_adc.o
    0x080006d0   0x080006d0   0x00000058   Code   RO          395    i.HAL_ADC_MspInit   adc.o
    0x08000728   0x08000728   0x00000016   Code   RO         7331    i.HAL_GPIO_EXTI_Callback  driver_irq.o
    0x0800073e   0x0800073e   0x00000002   PAD
    0x08000740   0x08000740   0x00000018   Code   RO         1437    i.HAL_GPIO_EXTI_IRQHandler  stm32f1xx_hal_gpio.o
    0x08000758   0x08000758   0x000001e0   Code   RO         1438    i.HAL_GPIO_Init     stm32f1xx_hal_gpio.o
    0x08000938   0x08000938   0x0000000a   Code   RO         1440    i.HAL_GPIO_ReadPin  stm32f1xx_hal_gpio.o
    0x08000942   0x08000942   0x0000000a   Code   RO         1442    i.HAL_GPIO_WritePin  stm32f1xx_hal_gpio.o
    0x0800094c   0x0800094c   0x0000000c   Code   RO         1132    i.HAL_GetTick       stm32f1xx_hal.o
    0x08000958   0x08000958   0x00000188   Code   RO         2109    i.HAL_I2C_Init      stm32f1xx_hal_i2c.o
    0x08000ae0   0x08000ae0   0x0000012c   Code   RO         2122    i.HAL_I2C_Master_Transmit  stm32f1xx_hal_i2c.o
    0x08000c0c   0x08000c0c   0x00000130   Code   RO         2130    i.HAL_I2C_Mem_Write  stm32f1xx_hal_i2c.o
    0x08000d3c   0x08000d3c   0x0000005c   Code   RO          437    i.HAL_I2C_MspInit   i2c.o
    0x08000d98   0x08000d98   0x00000010   Code   RO         1138    i.HAL_IncTick       stm32f1xx_hal.o
    0x08000da8   0x08000da8   0x00000024   Code   RO         1139    i.HAL_Init          stm32f1xx_hal.o
    0x08000dcc   0x08000dcc   0x00000098   Code   RO          770    i.HAL_InitTick      stm32f1xx_hal_timebase_tim.o
    0x08000e64   0x08000e64   0x00000048   Code   RO          746    i.HAL_MspInit       stm32f1xx_hal_msp.o
    0x08000eac   0x08000eac   0x0000001a   Code   RO         1598    i.HAL_NVIC_EnableIRQ  stm32f1xx_hal_cortex.o
    0x08000ec6   0x08000ec6   0x00000002   PAD
    0x08000ec8   0x08000ec8   0x00000040   Code   RO         1604    i.HAL_NVIC_SetPriority  stm32f1xx_hal_cortex.o
    0x08000f08   0x08000f08   0x00000024   Code   RO         1605    i.HAL_NVIC_SetPriorityGrouping  stm32f1xx_hal_cortex.o
    0x08000f2c   0x08000f2c   0x000000da   Code   RO         4217    i.HAL_PCD_Init      stm32f1xx_hal_pcd.o
    0x08001006   0x08001006   0x00000002   PAD
    0x08001008   0x08001008   0x00000028   Code   RO          635    i.HAL_PCD_MspInit   usb.o
    0x08001030   0x08001030   0x000000ec   Code   RO         1400    i.HAL_RCCEx_PeriphCLKConfig  stm32f1xx_hal_rcc_ex.o
    0x0800111c   0x0800111c   0x0000012c   Code   RO         1296    i.HAL_RCC_ClockConfig  stm32f1xx_hal_rcc.o
    0x08001248   0x08001248   0x00000040   Code   RO         1300    i.HAL_RCC_GetClockConfig  stm32f1xx_hal_rcc.o
    0x08001288   0x08001288   0x00000020   Code   RO         1303    i.HAL_RCC_GetPCLK1Freq  stm32f1xx_hal_rcc.o
    0x080012a8   0x080012a8   0x00000020   Code   RO         1304    i.HAL_RCC_GetPCLK2Freq  stm32f1xx_hal_rcc.o
    0x080012c8   0x080012c8   0x0000004c   Code   RO         1305    i.HAL_RCC_GetSysClockFreq  stm32f1xx_hal_rcc.o
    0x08001314   0x08001314   0x00000320   Code   RO         1308    i.HAL_RCC_OscConfig  stm32f1xx_hal_rcc.o
    0x08001634   0x08001634   0x000000b2   Code   RO         2546    i.HAL_SPI_Init      stm32f1xx_hal_spi.o
    0x080016e6   0x080016e6   0x00000002   PAD
    0x080016e8   0x080016e8   0x00000070   Code   RO          479    i.HAL_SPI_MspInit   spi.o
    0x08001758   0x08001758   0x00000002   Code   RO         3563    i.HAL_TIMEx_BreakCallback  stm32f1xx_hal_tim_ex.o
    0x0800175a   0x0800175a   0x00000002   Code   RO         3564    i.HAL_TIMEx_CommutCallback  stm32f1xx_hal_tim_ex.o
    0x0800175c   0x0800175c   0x00000054   Code   RO         3566    i.HAL_TIMEx_ConfigBreakDeadTime  stm32f1xx_hal_tim_ex.o
    0x080017b0   0x080017b0   0x00000068   Code   RO         3582    i.HAL_TIMEx_MasterConfigSynchronization  stm32f1xx_hal_tim_ex.o
    0x08001818   0x08001818   0x0000005a   Code   RO         2859    i.HAL_TIM_Base_Init  stm32f1xx_hal_tim.o
    0x08001872   0x08001872   0x00000002   PAD
    0x08001874   0x08001874   0x0000003c   Code   RO          521    i.HAL_TIM_Base_MspInit  tim.o
    0x080018b0   0x080018b0   0x00000058   Code   RO         2864    i.HAL_TIM_Base_Start_IT  stm32f1xx_hal_tim.o
    0x08001908   0x08001908   0x000000dc   Code   RO         2868    i.HAL_TIM_ConfigClockSource  stm32f1xx_hal_tim.o
    0x080019e4   0x080019e4   0x00000002   Code   RO         2893    i.HAL_TIM_IC_CaptureCallback  stm32f1xx_hal_tim.o
    0x080019e6   0x080019e6   0x00000166   Code   RO         2907    i.HAL_TIM_IRQHandler  stm32f1xx_hal_tim.o
    0x08001b4c   0x08001b4c   0x000000ec   Code   RO          522    i.HAL_TIM_MspPostInit  tim.o
    0x08001c38   0x08001c38   0x00000002   Code   RO         2910    i.HAL_TIM_OC_DelayElapsedCallback  stm32f1xx_hal_tim.o
    0x08001c3a   0x08001c3a   0x000000cc   Code   RO         2931    i.HAL_TIM_PWM_ConfigChannel  stm32f1xx_hal_tim.o
    0x08001d06   0x08001d06   0x0000005a   Code   RO         2934    i.HAL_TIM_PWM_Init  stm32f1xx_hal_tim.o
    0x08001d60   0x08001d60   0x00000028   Code   RO          524    i.HAL_TIM_PWM_MspInit  tim.o
    0x08001d88   0x08001d88   0x00000002   Code   RO         2937    i.HAL_TIM_PWM_PulseFinishedCallback  stm32f1xx_hal_tim.o
    0x08001d8a   0x08001d8a   0x00000002   PAD
    0x08001d8c   0x08001d8c   0x00000014   Code   RO           76    i.HAL_TIM_PeriodElapsedCallback  main.o
    0x08001da0   0x08001da0   0x00000002   Code   RO         2950    i.HAL_TIM_TriggerCallback  stm32f1xx_hal_tim.o
    0x08001da2   0x08001da2   0x00000064   Code   RO         3860    i.HAL_UART_Init     stm32f1xx_hal_uart.o
    0x08001e06   0x08001e06   0x00000002   PAD
    0x08001e08   0x08001e08   0x00000070   Code   RO          593    i.HAL_UART_MspInit  usart.o
    0x08001e78   0x08001e78   0x00000002   Code   RO          679    i.HardFault_Handler  stm32f1xx_it.o
    0x08001e7a   0x08001e7a   0x00000002   PAD
    0x08001e7c   0x08001e7c   0x00000030   Code   RO         7674    i.HideCar           game2.o
    0x08001eac   0x08001eac   0x0000002e   Code   RO         2152    i.I2C_IsAcknowledgeFailed  stm32f1xx_hal_i2c.o
    0x08001eda   0x08001eda   0x00000002   PAD
    0x08001edc   0x08001edc   0x0000009c   Code   RO         2156    i.I2C_MasterRequestWrite  stm32f1xx_hal_i2c.o
    0x08001f78   0x08001f78   0x000000a8   Code   RO         2163    i.I2C_RequestMemoryWrite  stm32f1xx_hal_i2c.o
    0x08002020   0x08002020   0x00000056   Code   RO         2167    i.I2C_WaitOnBTFFlagUntilTimeout  stm32f1xx_hal_i2c.o
    0x08002076   0x08002076   0x00000002   PAD
    0x08002078   0x08002078   0x00000090   Code   RO         2168    i.I2C_WaitOnFlagUntilTimeout  stm32f1xx_hal_i2c.o
    0x08002108   0x08002108   0x000000bc   Code   RO         2169    i.I2C_WaitOnMasterAddressFlagUntilTimeout  stm32f1xx_hal_i2c.o
    0x080021c4   0x080021c4   0x00000056   Code   RO         2171    i.I2C_WaitOnTXEFlagUntilTimeout  stm32f1xx_hal_i2c.o
    0x0800221a   0x0800221a   0x00000002   PAD
    0x0800221c   0x0800221c   0x0000011c   Code   RO         6961    i.IRReceiver_IRQTimes_Parse  driver_ir_receiver.o
    0x08002338   0x08002338   0x000000b4   Code   RO         6962    i.IRReceiver_IRQ_Callback  driver_ir_receiver.o
    0x080023ec   0x080023ec   0x0000001c   Code   RO         6963    i.IRReceiver_Init   driver_ir_receiver.o
    0x08002408   0x08002408   0x00000004   Code   RO         6691    i.LCD_Clear         driver_lcd.o
    0x0800240c   0x0800240c   0x00000004   Code   RO         6694    i.LCD_Flush         driver_lcd.o
    0x08002410   0x08002410   0x00000004   Code   RO         6695    i.LCD_FlushRegion   driver_lcd.o
    0x08002414   0x08002414   0x00000004   Code   RO         6696    i.LCD_GetFrameBuffer  driver_lcd.o
    0x08002418   0x08002418   0x00000004   Code   RO         6697    i.LCD_Init          driver_lcd.o
    0x0800241c   0x0800241c   0x00000004   Code   RO         6700    i.LCD_PrintString   driver_lcd.o
    0x08002420   0x08002420   0x00000048   Code   RO         6507    i.MPU6050_Init      driver_mpu6050.o
    0x08002468   0x08002468   0x00000024   Code   RO         6511    i.MPU6050_WriteRegister  driver_mpu6050.o
    0x0800248c   0x0800248c   0x00000050   Code   RO          396    i.MX_ADC1_Init      adc.o
    0x080024dc   0x080024dc   0x00000044   Code   RO          280    i.MX_FREERTOS_Init  freertos.o
    0x08002520   0x08002520   0x00000150   Code   RO          255    i.MX_GPIO_Init      gpio.o
    0x08002670   0x08002670   0x00000040   Code   RO          438    i.MX_I2C1_Init      i2c.o
    0x080026b0   0x080026b0   0x00000048   Code   RO          480    i.MX_SPI1_Init      spi.o
    0x080026f8   0x080026f8   0x000000d0   Code   RO          525    i.MX_TIM1_Init      tim.o
    0x080027c8   0x080027c8   0x000000bc   Code   RO          526    i.MX_TIM2_Init      tim.o
    0x08002884   0x08002884   0x00000078   Code   RO          527    i.MX_TIM3_Init      tim.o
    0x080028fc   0x080028fc   0x00000038   Code   RO          594    i.MX_USART1_UART_Init  usart.o
    0x08002934   0x08002934   0x00000034   Code   RO          636    i.MX_USB_PCD_Init   usb.o
    0x08002968   0x08002968   0x00000002   Code   RO          680    i.MemManage_Handler  stm32f1xx_it.o
    0x0800296a   0x0800296a   0x00000002   Code   RO          681    i.NMI_Handler       stm32f1xx_it.o
    0x0800296c   0x0800296c   0x0000002a   Code   RO         6383    i.OLED_Clear        driver_oled.o
    0x08002996   0x08002996   0x00000002   PAD
    0x08002998   0x08002998   0x00000038   Code   RO         6386    i.OLED_Flush        driver_oled.o
    0x080029d0   0x080029d0   0x00000060   Code   RO         6387    i.OLED_FlushRegion  driver_oled.o
    0x08002a30   0x08002a30   0x00000014   Code   RO         6388    i.OLED_GetFrameBuffer  driver_oled.o
    0x08002a44   0x08002a44   0x00000094   Code   RO         6389    i.OLED_Init         driver_oled.o
    0x08002ad8   0x08002ad8   0x00000032   Code   RO         6392    i.OLED_PrintString  driver_oled.o
    0x08002b0a   0x08002b0a   0x00000002   PAD
    0x08002b0c   0x08002b0c   0x00000048   Code   RO         6393    i.OLED_PutChar      driver_oled.o
    0x08002b54   0x08002b54   0x0000002c   Code   RO         6394    i.OLED_SetComConfig  driver_oled.o
    0x08002b80   0x08002b80   0x00000040   Code   RO         6395    i.OLED_SetPosition  driver_oled.o
    0x08002bc0   0x08002bc0   0x00000028   Code   RO         6397    i.OLED_WriteCmd     driver_oled.o
    0x08002be8   0x08002be8   0x00000020   Code   RO         6398    i.OLED_WriteNBytes  driver_oled.o
    0x08002c08   0x08002c08   0x00000014   Code   RO          281    i.PutI2C            freertos.o
    0x08002c1c   0x08002c1c   0x0000001c   Code   RO         6966    i.RegisterQueueHandle  driver_ir_receiver.o
    0x08002c38   0x08002c38   0x00000080   Code   RO         7278    i.RotaryEncoder_IRQ_Callback  driver_rotary_encoder.o
    0x08002cb8   0x08002cb8   0x00000024   Code   RO         7279    i.RotaryEncoder_Init  driver_rotary_encoder.o
    0x08002cdc   0x08002cdc   0x00000030   Code   RO         7675    i.ShowCar           game2.o
    0x08002d0c   0x08002d0c   0x0000002c   Code   RO         6262    i.SysTick_Handler   port.o
    0x08002d38   0x08002d38   0x0000007c   Code   RO           77    i.SystemClock_Config  main.o
    0x08002db4   0x08002db4   0x00000002   Code   RO         4659    i.SystemInit        system_stm32f1xx.o
    0x08002db6   0x08002db6   0x00000002   PAD
    0x08002db8   0x08002db8   0x0000000c   Code   RO          682    i.TIM4_IRQHandler   stm32f1xx_it.o
    0x08002dc4   0x08002dc4   0x0000006c   Code   RO         2952    i.TIM_Base_SetConfig  stm32f1xx_hal_tim.o
    0x08002e30   0x08002e30   0x00000014   Code   RO         2963    i.TIM_ETR_SetConfig  stm32f1xx_hal_tim.o
    0x08002e44   0x08002e44   0x00000010   Code   RO         2964    i.TIM_ITRx_SetConfig  stm32f1xx_hal_tim.o
    0x08002e54   0x08002e54   0x00000050   Code   RO         2965    i.TIM_OC1_SetConfig  stm32f1xx_hal_tim.o
    0x08002ea4   0x08002ea4   0x00000058   Code   RO         2966    i.TIM_OC2_SetConfig  stm32f1xx_hal_tim.o
    0x08002efc   0x08002efc   0x00000058   Code   RO         2967    i.TIM_OC3_SetConfig  stm32f1xx_hal_tim.o
    0x08002f54   0x08002f54   0x00000044   Code   RO         2968    i.TIM_OC4_SetConfig  stm32f1xx_hal_tim.o
    0x08002f98   0x08002f98   0x00000022   Code   RO         2970    i.TIM_TI1_ConfigInputStage  stm32f1xx_hal_tim.o
    0x08002fba   0x08002fba   0x00000024   Code   RO         2972    i.TIM_TI2_ConfigInputStage  stm32f1xx_hal_tim.o
    0x08002fde   0x08002fde   0x00000002   PAD
    0x08002fe0   0x08002fe0   0x000000b8   Code   RO         3886    i.UART_SetConfig    stm32f1xx_hal_uart.o
    0x08003098   0x08003098   0x00000004   Code   RO         4475    i.USB_CoreInit      stm32f1xx_ll_usb.o
    0x0800309c   0x0800309c   0x00000004   Code   RO         4479    i.USB_DevDisconnect  stm32f1xx_ll_usb.o
    0x080030a0   0x080030a0   0x00000012   Code   RO         4480    i.USB_DevInit       stm32f1xx_ll_usb.o
    0x080030b2   0x080030b2   0x0000000e   Code   RO         4481    i.USB_DisableGlobalInt  stm32f1xx_ll_usb.o
    0x080030c0   0x080030c0   0x00000004   Code   RO         4496    i.USB_SetCurrentMode  stm32f1xx_ll_usb.o
    0x080030c4   0x080030c4   0x00000002   Code   RO          683    i.UsageFault_Handler  stm32f1xx_it.o
    0x080030c6   0x080030c6   0x00000020   Code   RO         1611    i.__NVIC_SetPriority  stm32f1xx_hal_cortex.o
    0x080030e6   0x080030e6   0x0000000e   Code   RO         8154    i.__scatterload_copy  mc_w.l(handlers.o)
    0x080030f4   0x080030f4   0x00000002   Code   RO         8155    i.__scatterload_null  mc_w.l(handlers.o)
    0x080030f6   0x080030f6   0x0000000e   Code   RO         8156    i.__scatterload_zeroinit  mc_w.l(handlers.o)
    0x08003104   0x08003104   0x0000010c   Code   RO         7676    i.car_game2         game2.o
    0x08003210   0x08003210   0x000001d0   Code   RO         7487    i.draw_bitmap       draw.o
    0x080033e0   0x080033e0   0x00000004   Code   RO         7489    i.draw_end          draw.o
    0x080033e4   0x080033e4   0x00000024   Code   RO         7490    i.draw_flushArea    draw.o
    0x08003408   0x08003408   0x00000018   Code   RO         7491    i.draw_init         draw.o
    0x08003420   0x08003420   0x0000003a   Code   RO           78    i.main              main.o
    0x0800345a   0x0800345a   0x0000001a   Code   RO         6577    i.mdelay            driver_timer.o
    0x08003474   0x08003474   0x00000038   Code   RO         5808    i.osKernelInitialize  cmsis_os2.o
    0x080034ac   0x080034ac   0x00000040   Code   RO         5811    i.osKernelStart     cmsis_os2.o
    0x080034ec   0x080034ec   0x0000005c   Code   RO         5290    i.prvAddCurrentTaskToDelayedList  tasks.o
    0x08003548   0x08003548   0x000000d0   Code   RO         5291    i.prvAddNewTaskToReadyList  tasks.o
    0x08003618   0x08003618   0x00000058   Code   RO         5640    i.prvCheckForValidListAndQueue  timers.o
    0x08003670   0x08003670   0x00000026   Code   RO         4861    i.prvCopyDataFromQueue  queue.o
    0x08003696   0x08003696   0x0000006c   Code   RO         4862    i.prvCopyDataToQueue  queue.o
    0x08003702   0x08003702   0x00000034   Code   RO         5292    i.prvDeleteTCB      tasks.o
    0x08003736   0x08003736   0x00000002   PAD
    0x08003738   0x08003738   0x0000004c   Code   RO         6212    i.prvHeapInit       heap_4.o
    0x08003784   0x08003784   0x00000060   Code   RO         5293    i.prvIdleTask       tasks.o
    0x080037e4   0x080037e4   0x00000016   Code   RO         4863    i.prvInitialiseMutex  queue.o
    0x080037fa   0x080037fa   0x00000002   PAD
    0x080037fc   0x080037fc   0x00000026   Code   RO         4864    i.prvInitialiseNewQueue  queue.o
    0x08003822   0x08003822   0x0000009c   Code   RO         5294    i.prvInitialiseNewTask  tasks.o
    0x080038be   0x080038be   0x00000002   PAD
    0x080038c0   0x080038c0   0x0000004c   Code   RO         6213    i.prvInsertBlockIntoFreeList  heap_4.o
    0x0800390c   0x0800390c   0x00000038   Code   RO         5642    i.prvInsertTimerInActiveList  timers.o
    0x08003944   0x08003944   0x0000001c   Code   RO         4865    i.prvIsQueueEmpty   queue.o
    0x08003960   0x08003960   0x0000006c   Code   RO         4866    i.prvNotifyQueueSetContainer  queue.o
    0x080039cc   0x080039cc   0x000000cc   Code   RO         5643    i.prvProcessReceivedCommands  timers.o
    0x08003a98   0x08003a98   0x000000b4   Code   RO         5644    i.prvProcessTimerOrBlockTask  timers.o
    0x08003b4c   0x08003b4c   0x00000020   Code   RO         5296    i.prvResetNextTaskUnblockTime  tasks.o
    0x08003b6c   0x08003b6c   0x00000028   Code   RO         5645    i.prvSampleTimeNow  timers.o
    0x08003b94   0x08003b94   0x0000006c   Code   RO         5646    i.prvSwitchTimerLists  timers.o
    0x08003c00   0x08003c00   0x00000028   Code   RO         6263    i.prvTaskExitError  port.o
    0x08003c28   0x08003c28   0x00000014   Code   RO         4702    i.prvTestWaitCondition  event_groups.o
    0x08003c3c   0x08003c3c   0x00000024   Code   RO         5647    i.prvTimerTask      timers.o
    0x08003c60   0x08003c60   0x00000078   Code   RO         4867    i.prvUnlockQueue    queue.o
    0x08003cd8   0x08003cd8   0x000000d8   Code   RO         6214    i.pvPortMalloc      heap_4.o
    0x08003db0   0x08003db0   0x00000018   Code   RO         5299    i.pvTaskIncrementMutexHeldCount  tasks.o
    0x08003dc8   0x08003dc8   0x00000024   Code   RO         6264    i.pxPortInitialiseStack  port.o
    0x08003dec   0x08003dec   0x0000000c   Code   RO         7494    i.readPixels        draw.o
    0x08003df8   0x08003df8   0x00000016   Code   RO         7496    i.set_bits          draw.o
    0x08003e0e   0x08003e0e   0x00000002   PAD
    0x08003e10   0x08003e10   0x00000044   Code   RO         6578    i.system_get_ns     driver_timer.o
    0x08003e54   0x08003e54   0x00000038   Code   RO         6579    i.udelay            driver_timer.o
    0x08003e8c   0x08003e8c   0x00000026   Code   RO         4821    i.uxListRemove      list.o
    0x08003eb2   0x08003eb2   0x00000002   PAD
    0x08003eb4   0x08003eb4   0x00000018   Code   RO         5307    i.uxTaskResetEventItemValue  tasks.o
    0x08003ecc   0x08003ecc   0x00000014   Code   RO         5857    i.vApplicationGetIdleTaskMemory  cmsis_os2.o
    0x08003ee0   0x08003ee0   0x00000018   Code   RO         5858    i.vApplicationGetTimerTaskMemory  cmsis_os2.o
    0x08003ef8   0x08003ef8   0x00000016   Code   RO         4822    i.vListInitialise   list.o
    0x08003f0e   0x08003f0e   0x00000006   Code   RO         4823    i.vListInitialiseItem  list.o
    0x08003f14   0x08003f14   0x00000030   Code   RO         4824    i.vListInsert       list.o
    0x08003f44   0x08003f44   0x00000018   Code   RO         4825    i.vListInsertEnd    list.o
    0x08003f5c   0x08003f5c   0x00000040   Code   RO         6266    i.vPortEnterCritical  port.o
    0x08003f9c   0x08003f9c   0x00000028   Code   RO         6267    i.vPortExitCritical  port.o
    0x08003fc4   0x08003fc4   0x0000005c   Code   RO         6215    i.vPortFree         heap_4.o
    0x08004020   0x08004020   0x00000024   Code   RO         6268    i.vPortSetupTimerInterrupt  port.o
    0x08004044   0x08004044   0x00000054   Code   RO         6269    i.vPortValidateInterruptPriority  port.o
    0x08004098   0x08004098   0x00000028   Code   RO         4873    i.vQueueAddToRegistry  queue.o
    0x080040c0   0x080040c0   0x00000044   Code   RO         4877    i.vQueueWaitForMessageRestricted  queue.o
    0x08004104   0x08004104   0x0000004c   Code   RO         5308    i.vTaskDelay        tasks.o
    0x08004150   0x08004150   0x00000090   Code   RO         5310    i.vTaskDelete       tasks.o
    0x080041e0   0x080041e0   0x00000010   Code   RO         5313    i.vTaskInternalSetTimeOutState  tasks.o
    0x080041f0   0x080041f0   0x0000000c   Code   RO         5314    i.vTaskMissedYield  tasks.o
    0x080041fc   0x080041fc   0x00000030   Code   RO         5316    i.vTaskPlaceOnEventList  tasks.o
    0x0800422c   0x0800422c   0x00000038   Code   RO         5317    i.vTaskPlaceOnEventListRestricted  tasks.o
    0x08004264   0x08004264   0x00000050   Code   RO         5318    i.vTaskPlaceOnUnorderedEventList  tasks.o
    0x080042b4   0x080042b4   0x00000090   Code   RO         5319    i.vTaskPriorityDisinheritAfterTimeout  tasks.o
    0x08004344   0x08004344   0x00000070   Code   RO         5321    i.vTaskRemoveFromUnorderedEventList  tasks.o
    0x080043b4   0x080043b4   0x00000088   Code   RO         5325    i.vTaskStartScheduler  tasks.o
    0x0800443c   0x0800443c   0x00000010   Code   RO         5327    i.vTaskSuspendAll   tasks.o
    0x0800444c   0x0800444c   0x00000064   Code   RO         5328    i.vTaskSwitchContext  tasks.o
    0x080044b0   0x080044b0   0x0000001c   Code   RO         4710    i.xEventGroupCreate  event_groups.o
    0x080044cc   0x080044cc   0x0000008c   Code   RO         4713    i.xEventGroupSetBits  event_groups.o
    0x08004558   0x08004558   0x00000108   Code   RO         4716    i.xEventGroupWaitBits  event_groups.o
    0x08004660   0x08004660   0x000000a8   Code   RO         6270    i.xPortStartScheduler  port.o
    0x08004708   0x08004708   0x00000016   Code   RO         4881    i.xQueueCreateMutex  queue.o
    0x0800471e   0x0800471e   0x00000048   Code   RO         4884    i.xQueueGenericCreate  queue.o
    0x08004766   0x08004766   0x00000066   Code   RO         4885    i.xQueueGenericCreateStatic  queue.o
    0x080047cc   0x080047cc   0x00000088   Code   RO         4886    i.xQueueGenericReset  queue.o
    0x08004854   0x08004854   0x0000016c   Code   RO         4887    i.xQueueGenericSend  queue.o
    0x080049c0   0x080049c0   0x000000ca   Code   RO         4888    i.xQueueGenericSendFromISR  queue.o
    0x08004a8a   0x08004a8a   0x00000002   PAD
    0x08004a8c   0x08004a8c   0x00000138   Code   RO         4897    i.xQueueReceive     queue.o
    0x08004bc4   0x08004bc4   0x00000178   Code   RO         4902    i.xQueueSemaphoreTake  queue.o
    0x08004d3c   0x08004d3c   0x00000074   Code   RO         5329    i.xTaskCheckForTimeOut  tasks.o
    0x08004db0   0x08004db0   0x0000005a   Code   RO         5330    i.xTaskCreate       tasks.o
    0x08004e0a   0x08004e0a   0x00000056   Code   RO         5331    i.xTaskCreateStatic  tasks.o
    0x08004e60   0x08004e60   0x0000001c   Code   RO         5335    i.xTaskGetSchedulerState  tasks.o
    0x08004e7c   0x08004e7c   0x0000000c   Code   RO         5336    i.xTaskGetTickCount  tasks.o
    0x08004e88   0x08004e88   0x000000c8   Code   RO         5338    i.xTaskIncrementTick  tasks.o
    0x08004f50   0x08004f50   0x00000080   Code   RO         5341    i.xTaskPriorityDisinherit  tasks.o
    0x08004fd0   0x08004fd0   0x00000078   Code   RO         5342    i.xTaskPriorityInherit  tasks.o
    0x08005048   0x08005048   0x00000070   Code   RO         5343    i.xTaskRemoveFromEventList  tasks.o
    0x080050b8   0x080050b8   0x000000c4   Code   RO         5344    i.xTaskResumeAll    tasks.o
    0x0800517c   0x0800517c   0x00000060   Code   RO         5654    i.xTimerCreateTimerTask  timers.o
    0x080051dc   0x080051dc   0x00000068   Code   RO         5655    i.xTimerGenericCommand  timers.o
    0x08005244   0x08005244   0x00000012   Data   RO         1309    .constdata          stm32f1xx_hal_rcc.o
    0x08005256   0x08005256   0x00000010   Data   RO         4660    .constdata          system_stm32f1xx.o
    0x08005266   0x08005266   0x00000008   Data   RO         4661    .constdata          system_stm32f1xx.o
    0x0800526e   0x0800526e   0x00000800   Data   RO         6400    .constdata          driver_oled.o
    0x08005a6e   0x08005a6e   0x00000044   Data   RO         7677    .constdata          game2.o
    0x08005ab2   0x08005ab2   0x00000002   PAD
    0x08005ab4   0x08005ab4   0x00000020   Data   RO         8152    Region$$Table       anon$$obj.o


    Execution Region RW_IRAM1 (Exec base: 0x20000000, Load base: 0x08005ad4, Size: 0x00003de0, Max: 0x00005000, ABSOLUTE)

    Exec Addr    Load Addr    Size         Type   Attr      Idx    E Section Name        Object

    0x20000000   0x08005ad4   0x00000004   Data   RW          285    .data               freertos.o
    0x20000004   0x08005ad8   0x0000000c   Data   RW         1146    .data               stm32f1xx_hal.o
    0x20000010   0x08005ae4   0x00000004   Data   RW         4662    .data               system_stm32f1xx.o
    0x20000014   0x08005ae8   0x0000003c   Data   RW         5347    .data               tasks.o
    0x20000050   0x08005b24   0x00000014   Data   RW         5663    .data               timers.o
    0x20000064   0x08005b38   0x00000004   Data   RW         5860    .data               cmsis_os2.o
    0x20000068   0x08005b3c   0x00000018   Data   RW         6220    .data               heap_4.o
    0x20000080   0x08005b54   0x0000000c   Data   RW         6271    .data               port.o
    0x2000008c   0x08005b60   0x00000008   Data   RW         6401    .data               driver_oled.o
    0x20000094   0x08005b68   0x00000008   Data   RW         6513    .data               driver_mpu6050.o
    0x2000009c   0x08005b70   0x00000004   PAD
    0x200000a0   0x08005b74   0x00000020   Data   RW         6970    .data               driver_ir_receiver.o
    0x200000c0   0x08005b94   0x00000018   Data   RW         7283    .data               driver_rotary_encoder.o
    0x200000d8   0x08005bac   0x00000010   Data   RW         7497    .data               draw.o
    0x200000e8   0x08005bbc   0x00000038   Data   RW         7678    .data               game2.o
    0x20000120        -       0x00000030   Zero   RW          397    .bss                adc.o
    0x20000150        -       0x00000054   Zero   RW          439    .bss                i2c.o
    0x200001a4        -       0x00000058   Zero   RW          481    .bss                spi.o
    0x200001fc        -       0x000000d8   Zero   RW          528    .bss                tim.o
    0x200002d4        -       0x00000048   Zero   RW          595    .bss                usart.o
    0x2000031c        -       0x000002f0   Zero   RW          637    .bss                usb.o
    0x2000060c        -       0x00000048   Zero   RW          773    .bss                stm32f1xx_hal_timebase_tim.o
    0x20000654        -       0x00000040   Zero   RW         4904    .bss                queue.o
    0x20000694        -       0x000004c4   Zero   RW         5346    .bss                tasks.o
    0x20000b58        -       0x0000011c   Zero   RW         5662    .bss                timers.o
    0x20000c74        -       0x000006b8   Zero   RW         5859    .bss                cmsis_os2.o
    0x2000132c        -       0x00001f40   Zero   RW         6219    .bss                heap_4.o
    0x2000326c        -       0x00000400   Zero   RW         6399    .bss                driver_oled.o
    0x2000366c   0x08005bf4   0x00000004   PAD
    0x20003670        -       0x000002c8   Zero   RW         6967    .bss                driver_ir_receiver.o
    0x20003938        -       0x000000a4   Zero   RW         7282    .bss                driver_rotary_encoder.o
    0x200039dc   0x08005bf4   0x00000004   PAD
    0x200039e0        -       0x00000400   Zero   RW            1    STACK               startup_stm32f103xb.o


==============================================================================

Image component sizes


      Code (inc. data)   RO Data    RW Data    ZI Data      Debug   Object Name

       168         22          0          0         48       1661   adc.o
       164         22          0          4       1720      12286   cmsis_os2.o
       562         10          0         16          0       7148   draw.o
       572         74          0         32        712       5580   driver_ir_receiver.o
        22          0          0          0          0        537   driver_irq.o
        24          0          0          0          0       3492   driver_lcd.o
       108          8          0          8          0       2742   driver_mpu6050.o
       664         46       2048          8       1024      10311   driver_oled.o
       164         22          0         24        164       3703   driver_rotary_encoder.o
       150         14          0          0          0       2418   driver_timer.o
       452          4          0          0          0      23495   event_groups.o
       104         28          0          4          0      10660   freertos.o
       664         64         68         56          0      14037   game2.o
       336         26          0          0          0       1059   gpio.o
       460         24          0         24       8000       4695   heap_4.o
       156         26          0          0         84       1649   i2c.o
       138          0          0          0          0       3422   list.o
       206          6          0          0          0     470660   main.o
         0          0          0          0          0      23488   music.o
       662         70          0         12          0      10861   port.o
      2156         22          0          0         64      19492   queue.o
       184         24          0          0         88       1673   spi.o
        36          8        236          0       1024        808   startup_stm32f103xb.o
        64         14          0         12          0       4670   stm32f1xx_hal.o
       622         24          0          0          0       3316   stm32f1xx_hal_adc.o
       158         14          0          0          0      28210   stm32f1xx_hal_cortex.o
       524         40          0          0          0       4134   stm32f1xx_hal_gpio.o
      1870         48          0          0          0      11425   stm32f1xx_hal_i2c.o
        72         10          0          0          0        882   stm32f1xx_hal_msp.o
       218          0          0          0          0       1516   stm32f1xx_hal_pcd.o
      1304         94         18          0          0       5769   stm32f1xx_hal_rcc.o
       236         12          0          0          0       1396   stm32f1xx_hal_rcc_ex.o
       178          0          0          0          0       1243   stm32f1xx_hal_spi.o
      1596         46          0          0          0      14192   stm32f1xx_hal_tim.o
       192         12          0          0          0       3213   stm32f1xx_hal_tim_ex.o
       152         20          0          0         72       1491   stm32f1xx_hal_timebase_tim.o
       284          6          0          0          0       1948   stm32f1xx_hal_uart.o
        54          6          0          0          0       3550   stm32f1xx_it.o
        44          0          0          0          0       3372   stm32f1xx_ll_usb.o
         0          0          0          0          0       8884   stream_buffer.o
         2          0         24          4          0       1131   system_stm32f1xx.o
      2712        226          0         60       1220      29132   tasks.o
       852         68          0          0        216       4584   tim.o
       912         82          0         20        284      26043   timers.o
       168         20          0          0         72       1694   usart.o
        92         20          0          0        752       1546   usb.o

    ----------------------------------------------------------------------
     20506       1282       2428        288      15552     799218   Object Totals
         0          0         32          0          0          0   (incl. Generated)
        48          0          2          4          8          0   (incl. Padding)

    ----------------------------------------------------------------------

      Code (inc. data)   RO Data    RW Data    ZI Data      Debug   Library Member Name

         0          0          0          0          0          0   entry.o
         0          0          0          0          0          0   entry10a.o
         0          0          0          0          0          0   entry11a.o
         8          4          0          0          0          0   entry2.o
         4          0          0          0          0          0   entry5.o
         0          0          0          0          0          0   entry7b.o
         0          0          0          0          0          0   entry8b.o
         8          4          0          0          0          0   entry9a.o
        30          0          0          0          0          0   handlers.o
        36          8          0          0          0         68   init.o
        30          0          0          0          0         68   llshl.o
        32          0          0          0          0         68   llushr.o
        36          0          0          0          0         68   memcpya.o
        36          0          0          0          0        108   memseta.o
        98          0          0          0          0         92   uldiv.o

    ----------------------------------------------------------------------
       318         16          0          0          0        472   Library Totals
         0          0          0          0          0          0   (incl. Padding)

    ----------------------------------------------------------------------

      Code (inc. data)   RO Data    RW Data    ZI Data      Debug   Library Name

       318         16          0          0          0        472   mc_w.l

    ----------------------------------------------------------------------
       318         16          0          0          0        472   Library Totals

    ----------------------------------------------------------------------

==============================================================================


      Code (inc. data)   RO Data    RW Data    ZI Data      Debug   

     20824       1298       2428        288      15552     788402   Grand Totals
     20824       1298       2428        288      15552     788402   ELF Image Totals
     20824       1298       2428        288          0          0   ROM Totals

==============================================================================

    Total RO  Size (Code + RO Data)                23252 (  22.71kB)
    Total RW  Size (RW Data + ZI Data)             15840 (  15.47kB)
    Total ROM Size (Code + RO Data + RW Data)      23540 (  22.99kB)

==============================================================================

