:020000040800F2
:1000000008450020990100085B370008D726000842
:10001000593700088B050008054200080000000061
:1000200000000000000000000000000001010008C6
:10003000DF0700080000000045010008B93D000886
:10004000B3010008B3010008B3010008B3010008C0
:10005000B3010008B3010008B3010008B3010008B0
:10006000B3010008B3010008B3010008B3010008A0
:10007000B3010008B3010008B3010008B301000890
:10008000B3010008B3010008B3010008B301000880
:10009000B3010008B3010008B30100084B080008D1
:1000A000B3010008B3010008B3010008B301000860
:1000B000B3010008B3010008653E0008B301000861
:1000C000B3010008B3010008B3010008B301000840
:1000D000B3010008B3010008B3010008B301000830
:1000E0002D080008B3010008B3010008DFF80CD0A8
:1000F00000F0E2F900480047A34D00080845002041
:10010000224B19680868B0E8F00F80F30988BFF344
:100110006F8F4FF0000080F311884EF00D0E704786
:100120000000000006480068006880F3088862B696
:1001300061B6BFF34F8FBFF36F8F00DF00BF00BF0B
:1001400008ED00E0EFF30980BFF36F8F0F4B1A68E3
:1001500020E9F00F106008B54FF0500080F31188CF
:10016000BFF34F8FBFF36F8F06F096F84FF000008C
:1001700080F31188BDE8084019680868B0E8F00FFE
:1001800080F30988BFF36F8F704700BF2000002005
:10019000EFF3058070470000064880470648004797
:1001A000FEE7FEE7FEE7FEE7FEE7FEE7FEE7FEE727
:1001B000FEE7FEE7613E0008ED0000082DE9F05F74
:1001C0000546002092469B468846064681464024C6
:1001D0001BE0284641464746224600F020F8534699
:1001E0005A46C01A914110D311461846224600F0D3
:1001F0001DF92D1A67EB01084F4622460120002108
:1002000000F014F917EB00094E41201EA4F101047F
:10021000DFDC484631462A464346BDE8F09F202AA7
:1002200004DB203A21FA02F00021704721FA02F3A0
:10023000D040C2F1200291400843194670470000A7
:100240000649074A0868504343F2390210440860DF
:100250004008704701490860704700005C010020B9
:100260006D4EC64140EA01039B0703D009E008C96F
:10027000121F08C0042AFAD203E011F8013B00F86B
:10028000013B521EF9D27047D2B201E000F8012BB7
:10029000491EFBD270470022F6E710B513460A4606
:1002A00004461946FFF7F0FF204610BD421C10F827
:1002B000011B0029FBD1801A7047034611F8012B5E
:1002C00000F8012B002AF9D118467047F0B480EAF3
:1002D0000102D40F4200B2EB410F02D2024608469F
:1002E00011464A0042D0C30DDDB2C1F3C752AD1A68
:1002F000202D35DAC1F3160141F4000204B1524257
:10030000C5F1200602FA06F12A411044B3EBD05F92
:1003100023D0C4B1012DA0EBC35009DCF0BC4FF0D9
:10032000004202EAC352DBB200F5000000F096B8CA
:10033000400000F1807000EBC350A0F1807040EAF3
:10034000D170490009E0490841EAC071A0EBC350EF
:1003500000F50000400800EBC350F0BC00F075B899
:100360006142012202EB4101001BF6E7F0BC70473D
:1003700081F00041AAE780F00040A7E7420005D0E5
:10038000C0F3C7525242914201DC0020704700EB9B
:10039000C1507047C10F80EAE0700844CA07962335
:1003A000002100F05BB896230022114600F056B8F9
:1003B00020F00040C10DC0F3160040F400007F297A
:1003C00001DA00207047962903DCC1F19601C8408C
:1003D0007047963988407047002801DBC0F1004023
:1003E000002901DBC1F1004181427047002801DB97
:1003F000C0F10040002901DBC1F100418842704793
:1004000030B50B46014600202022012409E021FAE4
:1004100002F59D4205D303FA02F5491B04FA02F5E1
:100420002844151EA2F10102F1DC30BD202A04DBB4
:10043000203A00FA02F1002070479140C2F12003F7
:1004400020FA03F31943904070470029A8BF704772
:10045000401C490008BF20F00100704710B4B0FAFA
:1004600080FC00FA0CF050EA010404BF10BC704795
:1004700049B1CCF1200421FA04F411FA0CF118BFAF
:10048000012121430843A3EB0C01CB1D4FEA00617E
:100490004FEA102042BF002010BC704700EBC35051
:1004A00010440029A4BF10BC7047401C490008BF7D
:1004B00020F0010010BC7047064C074D06E0E068D4
:1004C00040F0010394E8070098471034AC42F6D39B
:1004D000FFF710FEB87B0008D87B000870B58C18B9
:1004E00010F8015B15F0070301D110F8013B2A1148
:1004F00006D110F8012B03E010F8016B01F8016B35
:100500005B1EF9D12B0705D40023521E0DD401F830
:10051000013BFAE710F8013BCB1A921C03E013F8F9
:10052000015B01F8015B521EF9D5A142D8D300202E
:1005300070BD000070B5044600688168C943C907F2
:1005400017D1816821F00101816000F0EFFB0546C1
:100550000AE000BF00F0EAFB401B022804D9206833
:100560008068C043C00706D020688068C043C007C9
:10057000F0D0002070BDA06A40F01000A062E06AD8
:1005800040F00100E062012070BDFEE770B5C0F3ED
:1005900007414FF4FA656943FF2591FBF5F198B0E7
:1005A000C0F30722C6B26020CDE902014FF4FA6120
:1005B0004A4392FBF5F1022300240AAA049306940D
:1005C0000BC211904FF4FA60464396FBF5F00E947F
:1005D0001594164C139312900821206801F080FFA7
:1005E0000021206801F07CFF0421206801F078FFE1
:1005F000082202A9206801F07CFE00220AA92068D6
:1006000001F077FE042211A9206801F072FE082192
:10061000206801F017FF0021206801F013FF04217A
:10062000206801F00FFF18B070BD0000B800002076
:10063000002402F0C1FF064D4FF47A762046FFF702
:10064000A5FF601920F07F44304605F0E9FBF5E78F
:10065000400D030010B586B005F016FE01A96846EE
:1006600000F040F8044606F081FC3CB1002328224B
:10067000194608A004F022F806B010BDDDE90032EA
:1006800007A102A803F0D0FD00232822194602A8E2
:10069000F0E700006572722020202020202000005A
:1006A0002564432C2564252500000000012000F06E
:1006B0000DB8000010B50221034800F02DFB012801
:1006C00000D0002010BD000000080140044B08B11C
:1006D000012200E000220221184600F022BB0000A7
:1006E000000801402DE9F05F82468B460020FFF7AD
:1006F000EDFF142004F0A8FB012202211C4800F0A9
:1007000010FB3C2005F0CCF9FFF7D4FF4FF0FF3988
:1007100058BB4FF47A742146012000F04EF820BBFC
:100720002146002000F049F8F8B900F023F8C5B2DE
:1007300000F020F800F0FF0800F01CF8C4B200F050
:1007400019F8C7B200F016F8C6B20120FFF7BEFFD5
:1007500005EB080020443844B04206D1CAF80050E6
:100760000020CBF80040BDE8F09F4846FBE70000C2
:10077000000801402DE9F04100242546671E4FF492
:100780007A763146012000F018F870B9282005F07B
:1007900087F96400FFF78EFF012801D144F00104BE
:1007A0003146002000F009F810B13846BDE8F0816C
:1007B0006D1C082DE5DB2046F8E770B50C460546B4
:1007C00008E0FFF777FFA84201D1002070BD0120AB
:1007D00005F066F9641EF4D24FF0FF3070BD70472B
:1007E000F8B50746002004460D4E0E4D009007E078
:1007F00056F8240000236A46394606F031F8641C96
:1008000068688442F4DB0098002807D006494FF05E
:1008100080500860BFF34F8FBFF36F8FF8BD0000AB
:10082000283E0020C000002004ED00E010B54FF489
:10083000806000F075F94FF4006000F071F9BDE8D8
:1008400010404FF4805000F06BB9202000F068B9E0
:1008500072B6FEE7002003F04FB9000002484FF0E7
:10086000FF31806806F008B90000002001480069E7
:1008700070470000C00000200148806870470000F9
:10088000A80000200148C06870470000E000002078
:10089000F8B50024009490F824202546012A12D0AF
:1008A000012280F824204A681F23072A0DD20668F7
:1008B000776B521E02EB820293409F430B6893407A
:1008C0001F43776319E00220F8BD06680D2A0AD29B
:1008D000376BD21F02EB820293409F430B68934019
:1008E0001F43376309E0F76A0D3A02EB8202934037
:1008F0009F430B6893401F43F7620A68072306680B
:100900000A2A0AD3F7680A3A02EB420293409F434D
:100910008B6893401F43F76008E0376902EB42029F
:1009200093409F438B6893401F4337610A68102AA6
:1009300001D0112A20D1124B02689A4217D1936834
:100940001B0219D4936843F40003936009681029CB
:1009500012D10C490C4A0968B1FBF2F101EB81019B
:10096000490000E0491E00910029FBD104E0816AA2
:1009700041F020018162012480F824502046F8BD16
:10098000002401401C00002040420F002DE9F041EE
:100990004FF0000704003D467ED0A06A002628B92B
:1009A000E66284F82460204600F07EF82046FFF7D7
:1009B000C1FDA16AC90600D420B1A06A40F01000B0
:1009C000A06269E0A16A21F4885141F00201A162AC
:1009D0006268E169237B0A4347EA43010A43A1684D
:1009E0004FF48077B94209D0012907D05FF00001A8
:1009F00094F814C0BCF1010F02D00AE03946F7E7C1
:100A0000F3B1A36A43F02003A362E36A43F0010356
:100A1000E3622368D3F804C02CF4694C4CEA010C5F
:100A2000C3F804C021688B68DFF870C003EA0C03C8
:100A300013438B60A168B9420BD0012909D00CE0A7
:100A4000DFF85CC0A3690CEB43330B4343F4006154
:100A5000DFE7218A0D05A5F580152168CB6A23F40F
:100A600070032B43CB62216889680E4B1940914279
:100A700008D1E662A16A21F0020141F00101A16200
:100A8000BDE8F081A06A20F0020040F01000A062F2
:100A9000E06A40F00100E0620120F1E7FDF7E1FFCC
:100AA00000E0FFFFFE0E1FFF00B585B000210091A2
:100AB00001910291039100680E49884218D10E48B5
:100AC000816941F400718161816901F400710491CF
:100AD000816941F0040181618069694600F0040088
:100AE00004900820009003200190044800F024F8AE
:100AF00005B000BD00240140001002400008014084
:100B0000202807D0B0F5806F06D0B0F5805F05D102
:100B100003F0E8B802F0DEB902F0DAB8704700007E
:100B2000044910B50A68024202D00860FFF7E8FFE6
:100B300010BD0000140401402DE9F84FDFF8B89112
:100B40000024A9F1040B23460F2709F1040AABF195
:100B5000040EC9E00125A5402A40AA427DD1674E76
:100B6000D1F804C0ACEB0608B44532D014DCBCF1BB
:100B7000030F3AD009DCBCF1000F2AD0BCF1010F01
:100B80001CD0BCF1020F31D11DE0BCF1110F17D008
:100B9000BCF1120F2AD119E0B8F5881F19D006DC74
:100BA000B8F5803F15D0B8F5801F1FD111E0B8F51A
:100BB000001F0ED0B8F5041F18D10AE0CB6815E06D
:100BC000CB681B1D12E0CB6808330FE0CB680C33F9
:100BD0000CE08B682BB1012B4FF0080303D045616B
:100BE00004E0042302E0056100E00023FF2A01D8AD
:100BF000064601E000F104064FEA840501D9A5F19B
:100C00002005D6F8008007FA05FC28EA0C0803FA4C
:100C100005F548EA0508C6F800804D68ED0062D584
:100C2000374DAE6946F00106AE61AD6924F00306AA
:100C300005F001050095334D06EB050CDCF8085076
:100C4000A607360F07FA06F825EA0805DFF8B88088
:100C5000404503D14FF0000817E044E0DFF8AC80D6
:100C6000404502D14FF001080FE0DFF8A480404575
:100C700002D14FF0020808E0DFF89880404502D129
:100C80004FF0030801E04FF0040808FA06F848EABC
:100C90000508CCF808804D68D9F80060ED024D4693
:100CA00001D5164300E096432E604D68DAF80060E7
:100CB000AD02554601D5164300E096432E604D68BF
:100CC000DBF80060AD035D4601D5164300E09643B6
:100CD0002E604D68DEF80060ED03754601D51643C1
:100CE00000E096432E60641C0D682A46E5407FF4C0
:100CF00031AFBDE8F88F000008040140000011107A
:100D0000001002400000014000080140000C0140BA
:100D100000100140001401408068084000D001200C
:100D200070470AB1016170470904FBE70148806818
:100D3000704700001000002070B5040025D094F822
:100D40003D00002520B984F83C50204600F00EFB01
:100D5000242084F83D002068016821F00101016031
:100D60002068016841F4004101602068016821F4B5
:100D70000041016000F0A0FD4D4A6168914201D838
:100D80004C4900E04C49884201D2012070BD4B49DA
:100D90002368B0FBF1F15E6826F03F060E435E600B
:100DA0006368934206D94FF4967359434FF47A73AC
:100DB000B1FBF3F12368491C1E6A26F03F0631435C
:100DC00019626168914210D84900401EB0FBF1F2EF
:100DD000521CC2F30B02042A01D2042022E0B0FB11
:100DE000F1F0401CC0F30B001CE0A268F2B301EB71
:100DF000C10303EB0116431EB3FBF6F35B1C43F484
:100E000080431B0549D092B301EBC10202EB0111F3
:100E1000401EB0FBF1F0401CC0F30B0040F48040DA
:100E200040F400402168CA694CF6FF739A431043AE
:100E3000C861D4E9071001432068026822F0C002AB
:100E400011430160D4E9030101432068826848F23C
:100E5000FF339A4311438160D4E9050108432168B7
:100E6000CA6822F0FF021043C86001E00EE016E0FD
:100E70002068016841F0010101602564202084F8A8
:100E80003D00256384F83E50002070BD01EB410613
:100E9000431EB3FBF6F35B1CB3E70120C2E701EB93
:100EA0004101401EB0FBF1F0401CC0F30B00B7E75E
:100EB000A086010080841E0000093D0040420F0012
:100EC0002DE9F84F1F4690468A460446DDF82890E3
:100ED000FFF72CFF054694F83D0020287FD1192309
:100EE000012240492046009501F05AFD002876D1A4
:100EF00094F83C00012872D0012084F83C0020685E
:100F00000168C90703D1016841F00101016020684F
:100F1000016821F400610160212084F83D00102067
:100F200084F83E0000262664C4F824806785608D1E
:100F300020852D48E0622B464A465146204601F066
:100F4000E3FB90B9206841698069009036E02A4649
:100F50004946204601F002FE50B1206C042804D11D
:100F60002068016841F4007101600120BDE8F88F3C
:100F7000606A216800780861606A401C6062618D67
:100F8000491E6185218D491E89B2218522685369D8
:100F9000DB435B070BD451B100781061606A401CE1
:100FA0006062608D401E6085208D401E20852A462F
:100FB0004946204601F0C8FC0028CED1208D0028EB
:100FC000C5D154F83D0B016841F400710160202047
:100FD00004F81E09E67766770020C7E7FFE70220DE
:100FE000C4E70000020010000000FFFF2DE9FF4FE2
:100FF00083B00025DDE910799A4693460446DDF872
:1010000048800095FFF792FE064694F83D002028A0
:101010007CD11923012285492046009601F0C0FCAD
:101020000028F5D194F83C0001286FD0012084F805
:101030003C0020680168C90703D1016841F0010143
:1010400001602068016821F400610160222084F8B9
:101050003D00402084F83E0025646762A4F82A9091
:10106000608D20857248E062CDE9008653465A467D
:101070002046049901F096FB00287DD1208DDFF8F1
:10108000B491202768B1012814D002282068016893
:101090001ED041F480610160206841698069009040
:1010A000B6E02068416981690091016841F40071EE
:1010B0000160ADE02068016821F48061016072B6D2
:1010C0002068416981690091016841F400710AE07A
:1010D00041F40061016072B6206841698169009144
:1010E000016821F48061016062B691E0032868D84C
:1010F00001280CD0022843464FF000024946204602
:1011000000960FD001F04CFCB0BB10E08BE03246F3
:101110004146204601F0EAFC70BB20680069616A24
:1011200008706CE001F03CFC30BB72B634E0206823
:10113000016821F48061016072B620680069616A0B
:101140000870606A401C6062208D401E2085608DA2
:10115000401E6085384846F2A8110068B0FBF1F0E7
:10116000C0EBC00000EB80000090401E009008D053
:1011700020684069C04300E029E040070CD5009892
:10118000F3E744F8305F6773A573206940F02000EF
:10119000206162B625731AE02068016841F400718D
:1011A000016020680069616A0870606A401C6062C2
:1011B000218D491E2185618D491E618562B6216898
:1011C0001BE032464146204601F090FC18B1012058
:1011D00007B0BDE8F08F20680069616A0870606A36
:1011E000401C6062218D491E2185618D491E6185EB
:1011F00021684A69D24352070AD409690170606ABA
:10120000401C6062208D401E2085608D401E6085E0
:10121000208D00287FF46AAF84F83D7084F83E503A
:1012200084F83C50D4E70220D2E70000020010000E
:101230000000FFFF040001001C0000202DE9FF4F0B
:1012400083B09A46DDE9119793460446DDF8408065
:10125000FFF76CFD054694F83D0020287FD1192347
:10126000012240492046009501F09AFB002876D1E2
:1012700094F83C00012872D0012084F83C002068DA
:101280000168C90703D1016841F0010101602068CC
:10129000016821F400610160212084F83D004020B4
:1012A00084F83E0000262664C4F82480A4F82A901E
:1012B000608D20852C48E062CDE9007553465A4682
:1012C0002046049901F0ECFA70B930E02A4639461C
:1012D000204601F043FC58B1206C042804D120685A
:1012E000016841F400710160012007B0BDE8F08F92
:1012F000606A216800780861606A401C6062218D24
:10130000491E89B22185628D521E62852268536909
:10131000DB435B070BD469B100781061606A401C45
:101320006062208D401E2085608D401E6085208D6E
:101330000028CBD12A463946204601F005FB00287B
:10134000CAD154F83D0B016841F4007101602020BE
:1013500004F81E09E67766770020C6E7FFE702205B
:10136000C3E70000020010000000FFFF10B586B0C8
:101370000021009101910291039100680F49884278
:101380001AD10F4CA06940F00800A061A06969461D
:1013900000F008000490C02000901220019003206B
:1013A00003900848FFF7C8FBE06940F40010E061D3
:1013B000E06900F40010049006B010BD0054004035
:1013C00000100240000C014002488168027811447C
:1013D0008160704710000020074810B5016841F097
:1013E00010010160032000F0A7F80F2000F006F8BC
:1013F00000F050F8002010BD0020024030B5054636
:101400001F4887B0C16941F00401C161C06906A9E4
:1014100000F00400009001A800F02EFA0498B0B18A
:1014200000F04AFA40001749174AB0FBF1F117489B
:10143000491E0260416040F2E7320021C0E9032109
:101440008160816100F02EFD040003D015E000F002
:1014500033FAE8E70D4800F087FD04000DD11E20A7
:1014600000F03CF8102D07D2002229461E2000F083
:1014700043F80748056000E0012407B0204630BD6E
:101480000010024040420F0000080040200B0020E6
:10149000140000200F4808B5816941F00101816105
:1014A000816901F001010091C16941F08051C16180
:1014B000C069002200F0805000900F21901E00F0C3
:1014C0001BF80548416821F0E06141F0007141607E
:1014D00008BD00000010024000000140002809DBA8
:1014E00000F01F02012191404009800000F1E0203E
:1014F000C0F8001170470000F0B40E4B1B680C469A
:10150000C3F30223C3F10705042D00D90425191DD7
:10151000072901D2002300E0DB1E012606FA05F1AF
:10152000491E214099409E40761E16403143F0BC32
:1015300002F08EBE0CED00E0064900F007020868DC
:101540004FF6FF03184040EA0220034A10430860A8
:10155000704700000CED00E00000FA052DE9F041B5
:1015600086B0040004D094F8A902002520B108E058
:10157000012006B0BDE8F08184F8A852204600F0B2
:101580005BF8032084F8A902206802F032FE04F11F
:101590001001142288466846FEF764FE94E80F00A6
:1015A00002F01AFE0227D0BB0021206802F028FEBC
:1015B000002001260EE000BF00EB800104EBC1011A
:1015C00081F8296001F8280F401CCD700D614D6134
:1015D000C0B28D6161688142EED8002012E000BF88
:1015E00000EB800104EBC10181F8695181F86801C9
:1015F00081F86B51C1F87851C1F87C51401CC0B2E0
:10160000C1F8805161688142EAD814224146684697
:10161000FEF728FE94E80F0002F0E2FD10B184F816
:10162000A972A5E784F8245084F8A962206802F022
:10163000D5FD00209DE7000008B5006806498842F6
:1016400008D10648C16941F40001C161C06900F4D4
:101650000000009008BD0000005C00400010024047
:101660002DE9F84305460078354CC00754D0E069B1
:101670000026C00008D4E06940F08050E061E069D5
:10168000012600F0805000902E480168C90512D450
:101690000168804641F480710160FFF747FB07460F
:1016A00005E000BFFFF742FBC01B642823D8D8F831
:1016B0000000C005F6D5206A10F4407021D0A9883A
:1016C00001F4407181421CD0206A1F49012220F49C
:1016D00040700A6000220A602062C00711D0FFF744
:1016E00025FB074641F2883808E000BFFFF71EFBE4
:1016F000C11B414502D90320BDE8F883206A800759
:10170000F4D5206A696820F44070084320621EB155
:10171000E06920F08050E0612878800705D5606896
:10172000A96820F44040084360602878C00605D5C9
:101730006068E96820F48000084360600020DBE70F
:101740000010024000700040400442422DE9F04782
:101750000F46050061D0434E306800F00700B842E4
:1017600009D2306820F0070038433060306800F05C
:101770000700B84251D128683B4C810712D5400779
:1017800003D5606840F4E06060602878000703D506
:10179000606840F4605060606068A96820F0F00004
:1017A000084360602878C00728D06868012810D0F6
:1017B0002168022810D0890700292EDA616821F0FB
:1017C000030101436160FFF7B1FA804641F28839B5
:1017D0000DE021688903EFE78901EDE7FFF7A6FA3D
:1017E000A0EB0801494502D90320BDE8F0876068F5
:1017F000696800F00C00B0EB810FEFD1306800F0A9
:101800000700B8420BD9306820F007003843306039
:10181000306800F00700B84201D00120E5E72878E1
:10182000400705D56068E96820F4E060084360601F
:101830002878000706D56068296920F4605040EADE
:10184000C100606000F058F86168084AC1F30311F4
:10185000515CC8400649086006480068FFF7CEFDA5
:101860000020C2E700200240001002408A710008F8
:101870001C000020140000200F2202600C4A536854
:1018800003F003034360536803F0F003836053687D
:1018900003F4E063C36052684FF4E06303EAD202EA
:1018A00002610448006800F007000860704700000B
:1018B00000100240002002400448054900684968C1
:1018C000044AC1F30221515CC84070471C0000204B
:1018D000001002409A7100080448054900684968F0
:1018E000044AC1F3C221515CC84070471C0000206B
:1018F000001002409A7100080E4A51680E4801F02B
:101900000C03042B11D0082B0FD10C48C1F38343D7
:10191000C903C05C0AD55168084AC1F34041921E10
:10192000515C054A5043B0FBF1F07047044948430D
:10193000704700000010024000127A007A7100081F
:1019400000093D002DE9F84F040070D02078C04D0B
:10195000C00749D06868C0F38100012807D06868D3
:10196000C0F38100022809D16868C00306D5286841
:10197000800339D560680028E7D035E06068B0F5AD
:10198000803F0BD010B1B0F5A02F11D0286820F403
:1019900080302860286820F4802002E0286840F425
:1019A00080302860606890B1FFF7C0F906460AE011
:1019B000286840F480202860F0E700BFFFF7B6F900
:1019C000801B642873D828688003F7D50CE0FFF7E4
:1019D000ADF9064605E000BFFFF7A8F9801B6428B3
:1019E000F0D828688003F7D420789A4E80074FF00B
:1019F00001094FF0000839D5686810F00C0F07D0C6
:101A00006868C0F38100022809D16868C00306D461
:101A10002868800714D52069012808D110E02069C2
:101A2000B0B1C6F80090FFF781F9074605E00AE17A
:101A3000FFF77CF9C01B0228C4D828688007F7D5B7
:101A40002868616920F0F80040EAC10028600DE0D4
:101A5000C6F80080FFF76AF9074604E0FFF766F969
:101A6000C01B022823D828688007F7D420780007F5
:101A70002CD57948A169D9B1C0F80090FFF756F983
:101A8000074604E0FFF752F9C01B02280FD8686A26
:101A90008007F7D571484FF4FA510068B0FBF1F0B8
:101AA000009000BF0098411E0091FAD20EE080E045
:101AB000C0F80080FFF73AF9074604E0FFF736F96F
:101AC000C01B022875D8686A8007F7D420784007C1
:101AD00060D5E8690027C00008D4E86940F080506C
:101AE000E861E869012700F0805000905C480168D7
:101AF000C90513D40168834641F480710160FFF782
:101B000015F9824606E000BFFFF710F9A0EB0A00C6
:101B100064284ED8DBF80000C005F5D5E068012840
:101B20000AD008B1052813D0286A20F001002862E5
:101B3000286A20F0040002E0286A40F001002862D0
:101B4000E06841F2883B98B1FFF7F0F882460BE07D
:101B5000286A40F004002862EEE700BFFFF7E6F8CD
:101B6000A0EB0A0159455AD8286A8007F6D50CE03F
:101B7000FFF7DCF8824605E0FFF7D8F8A0EB0A0192
:101B800059454CD8286A8007F6D41FB1E86920F07F
:101B90008050E861E06988B36968C1F38101022976
:101BA00044D00228C6F8608004D0FFF7BFF804468E
:101BB00038E034E0FFF7BAF8074604E0FFF7B6F87C
:101BC000C01B02282BD828688001F7D4206AB0F502
:101BD000803F05D16868A16820F400300843686040
:101BE000D4E908010843696821F474110843686066
:101BF000C6F86090FFF79AF8044606E025E000BFBB
:101C0000FFF794F8001B022809D828688001F7D54F
:101C10001BE000BFFFF78AF8001B022802D903204F
:101C2000BDE8F88F28688001F4D40EE00128F7D0D1
:101C30006868226A00F48031914204D1616A00F43C
:101C40007010884201D00120EAE70020E8E7000098
:101C50000010024000004242800442421C0000206A
:101C60000070004070B5040009D0606A002540B1E2
:101C700025616561A56294F8510040B10CE0012036
:101C800070BD6068B0F5827FF4D0E561F2E784F85A
:101C90005050204600F040F8022084F8510020689F
:101CA000016821F040010160A088218900F4827060
:101CB00001F404410843A18901F400610843217C37
:101CC00001F002010843217D01F001010843218B4D
:101CD00001F400710843217F01F03801084394F8B2
:101CE000201001F080010843218D01F400510843C8
:101CF00021680860A069042101EA10402168486059
:101D00002068C16921F40061C1616565012084F822
:101D10005100002070BD000030B585B00024009453
:101D200001940294039400681449884223D1144812
:101D3000816941F480518161816901F4805104918C
:101D4000816941F00401816180690E4D00F0040059
:101D50000490A02000900220019003200390694687
:101D60002846FEF7E9FE4020CDE9000469462846F2
:101D70000294FEF7E1FE05B030BD000000300140E6
:101D800000100240000801407047704710B590F8FD
:101D90003C20012A22D0012280F83C20CA688C68AD
:101DA00022F4407222434C6822F4806222430C6881
:101DB00022F4006222430C6922F4805222434C69CF
:101DC00022F400522243C969002322F480420A43CC
:101DD00001684A6480F83C30002010BD022010BD2C
:101DE00070B590F83C20012A26D0012480F83C40B0
:101DF000022280F83D2003685A689D6822F0700630
:101E00000A6832435A600D4B02689A4208D0B2F118
:101E1000804F05D00A4B9A4202D00A4B9A4204D115
:101E2000496825F080031943916080F83D40002106
:101E300080F83C10084670BD022070BD002C0140A7
:101E4000000400400008004010B50446022084F859
:101E50003D002068016A41F21112114207D1016A66
:101E60009210114203D1016821F001010160204666
:101E700000F046F8002084F8460084F83E0084F81C
:101E80003F0084F8400084F8410084F8420084F860
:101E9000430084F8440084F8450084F83D0084F849
:101EA0003C0010BD10B5040003D094F83D0010B103
:101EB00007E0012010BD002084F83C00204600F01F
:101EC00035F8022084F83D00211D206801F0D0FF84
:101ED000012084F8460084F83E0084F83F0084F82E
:101EE000400084F8410084F8420084F8430084F8FC
:101EF000440084F8450084F83D00002010BD000037
:101F0000084A01680848914204D1816921F40061BE
:101F100081617047B1F1804FFBD1C16921F00101AE
:101F2000C1617047002C01400010024008B50C4A06
:101F300001680C48914207D1816941F400618161D7
:101F4000806900F4006009E0B1F1804F07D1C169F8
:101F500041F00101C161C06900F00100009008BDBD
:101F6000002C01400010024090F83D10012901D0E2
:101F700001207047022180F83D100168CA6842F0D4
:101F80000102CA6000680B49884208D0B0F1804F56
:101F900005D00949884202D00849884204D18168A5
:101FA00001F00701062903D0016841F00101016039
:101FB00000207047002C0140000400400008004051
:101FC00070B5044690F83C000025012817D0012682
:101FD00084F83C60022084F83D002068826822F08A
:101FE000770222F47F4282600868502838D00DDCE6
:101FF00020284FD005DC90B3102811D14AE00220F0
:1020000070BD302846D040280AD13BE060282FD050
:1020100070280DD0B0F5805F03D0B0F5005F12D00E
:10202000012584F83D60002084F83C00284670BDFE
:10203000CB68D1E90121206801F05DFF206881684B
:1020400041F0770109E0CB68D1E90121206801F076
:1020500052FF2068816841F480418160E1E719E026
:10206000CA684968206801F0FBFF5021206806E03B
:10207000CA684968206802F004F86021206801F00D
:1020800044FFCEE7CA684968206801F0E9FF4021B3
:102090002068F4E7226801461046F0E7704770B503
:1020A0000446006801694FF00005C943890715D44B
:1020B000C168C943890711D4E91E01610120207755
:1020C000206880698007204602D0FFF7E7FF04E020
:1020D00000F00EF9204600F0B3F925772068016979
:1020E000C943490717D4C168C943490713D46FF0DE
:1020F00004010161022020772068806910F4407F8C
:10210000204602D0FFF7CAFF04E000F0F1F82046B5
:1021100000F096F9257720680169C943090716D4AC
:10212000C168C943090712D46FF008010161042096
:1021300020772068C0698007204602D0FFF7AEFFF5
:1021400004E000F0D5F8204600F07AF92577206801
:102150000169C943C90617D4C168C943C90613D464
:102160006FF010010161082020772068C06910F429
:10217000407F204602D0FFF791FF04E000F0B8F85E
:10218000204600F05DF9257720680169C943C90739
:1021900008D1C168C943C90704D1891E016120461D
:1021A00000F0D6F920680169C943090609D4C1685D
:1021B000C943090605D46FF0800101612046FFF78D
:1021C000E3FD20680169C943490609D4C168C943D0
:1021D000490605D46FF040010161204600F0C2F9C4
:1021E00020680169C94389060BD4C168C9438906BF
:1021F00007D46FF0200101612046BDE87040FFF771
:10220000C4BD70BD70B586B00021009101910291EE
:1022100003910068304B31490224314A984211D170
:10222000886940F0040088618869039400F0040024
:1022300004908815CDE9000469461046FEF77CFC41
:1022400006B070BD274E284DB0F1804F1BD0274AF5
:102250009042F5D1886940F0080088618869694634
:1022600000F0080004901020CDE9000430460394EB
:10227000FEF762FC686820F4406040F0E06040F4E3
:1022800000606860DCE7886940F004008861886964
:1022900000F004000490886940F0080088618869B3
:1022A000694600F00800049048F20400CDE90004FB
:1022B00010460394FEF740FC0820CDE9000469466F
:1022C00030460394FEF738FC686820F4407040F014
:1022D000E06040F48070D4E7002C01400010024020
:1022E00000080140000C01400000014000040040D3
:1022F000704770B5044690F83C0000260D46012852
:102300000FD0012084F83C006AB1042A1DD0082AAD
:102310002FD00C2A3FD00126002084F83C00304604
:1023200070BD022070BD206801F0F8FD2068816951
:1023300041F0080181612068816921F00401816117
:10234000206881692A69114311E0206801F00EFEBE
:102350002068816941F4006181612068816921F40C
:1023600080618161206881692A6941EA0221816175
:10237000D2E7206801F026FE2068C16941F008011B
:10238000C1612068C16921F00401C1612068C1698F
:102390002A69114311E0206801F040FE2068C169FC
:1023A00041F40061C1612068C16921F48061C161AB
:1023B0002068C1692A6941EA0221C161ACE710B510
:1023C000040003D094F83D0010B107E0012010BDD7
:1023D000002084F83C00204600F01EF8022084F81B
:1023E0003D00211D206801F043FD012084F84600D6
:1023F00084F83E0084F83F0084F8400084F84100EF
:1024000084F8420084F8430084F8440084F84500CE
:1024100084F83D00002010BD08B5006806498842D8
:1024200008D10648C16941F00201C161C06900F0EC
:102430000200009008BD00000004004000100240AF
:102440007047000010B50446022249B104290ED09D
:10245000082913D094F84100012816D0012010BD9E
:1024600094F83E000128F9D184F83E200FE094F85A
:102470003F000128F2D184F83F2008E094F84000A2
:102480000128EBD184F8402001E084F841200122AA
:10249000206801F023FD0F492068884203D1426C77
:1024A00042F4004242642068884208D0B0F1804F74
:1024B00005D00949884202D00849884204D1816880
:1024C00001F00701062903D0016841F00101016014
:1024D000002010BD002C0140000400400008004016
:1024E00030B504460D460068002201F0F7FC174B9A
:1024F00041F2111120688A10984209D1036A0B42F7
:1025000006D1036A134203D1436C23F400434364AE
:102510002068036A0B4206D1016A114203D10168A7
:1025200021F00101016001203DB1042D08D0082DEA
:1025300009D084F84100002030BD84F83E00FAE75D
:1025400084F83F00F7E784F84000F4E7002C0140EE
:1025500000680349884201D1FEF736BF704700008A
:1025600000080040704770B5040004D094F84100A2
:10257000002510B106E0012070BD84F840502046CF
:1025800000F024F8242084F841002068C16821F478
:102590000051C160204601F087FD2068016921F4E7
:1025A000904101612068416921F02A014161206860
:1025B000C16841F40051C1606564202084F8410085
:1025C00084F842006563002070BD000030B585B01E
:1025D00000240094019402940394006814498842F2
:1025E00024D11448816941F480418161816901F4F9
:1025F00080410491816941F00401816180690E4D3F
:1026000000F0040004904FF400700090022001904C
:102610000320039069462846FEF78EFA2815CDE977
:102620000004694628460294FEF786FA05B030BDDC
:102630000038014000100240000801402DE9F84335
:10264000044690F841001F4616460D46202802D049
:102650000220BDE8F8837DB176B1002060642120BE
:1026600084F84100FEF762FBA6848046E684A068F9
:10267000B0F5805F02D003E00120EAE7206910B1E5
:102680002E4600250EE000260CE08021204601F0B9
:1026900067FDA0B9AEB116F8010B21684860E08C67
:1026A000401EE084E08C43464FF000020097002873
:1026B000EBD14FF04001204601F052FD30B1032034
:1026C000C7E735F8020BC0F30800E6E7202084F8DE
:1026D00041000020BDE7FEE701684A69D243520588
:1026E0000FD46FF480624A61002140F8301F20222D
:1026F00042738173026942F0040202610173012096
:102700007047002070470000F8B50446C06A1E46B6
:102710000D461746082807D0012805D010F5803F40
:1027200002D0206B122804D12068016841F4807126
:102730000160134600224FF001112046009600F080
:102740002FF940B120680068C00502D54FF4007031
:1027500020640320F8BD2069B0F5804F0ED006201C
:10276000216800EAD51040F0F000086133463A468F
:102770000B49204600F05CF978B902E005F0FE0054
:1027800000E0E8B221680861054933463A46891FEE
:10279000204600F04DF90028DCD00120F8BD0000F3
:1027A000080001002DE9F84F0446006889460B9D9A
:1027B00001689846174641F480610160206801680D
:1027C00041F48071016000954FF0011B00225946D1
:1027D00020460A9B00F0E4F84FF4007A40B12068EC
:1027E0000068C00501D5C4F840A00320BDE8F88FFB
:1027F000216809F0FE0008612B46284920460A9A04
:1028000000F016F9F0BB20684169806900902A4603
:1028100020460A9900F0A2F940B1206C04283AD170
:102820002068016841F40071016034E0FEB2B8F143
:10283000010F09D02168380A08612A4620460A9902
:1028400000F08CF90028E8D1206806612A4620466D
:102850000A9900F083F90028DFD12068016841F46B
:102860008071016000950022594620460A9B00F0C5
:1028700097F80028B3D1216809F0FF0040F001006B
:10288000086100E007E02B46044920460A9A00F060
:10289000CFF80028AAD00120A8E70000020001001C
:1028A0002DE9F843044600680D46DDE90897016804
:1028B0009846164641F4807101604B4600224FF065
:1028C00001112046009700F06BF848B120680068BD
:1028D000C00502D54FF4007020640320BDE8F883E2
:1028E000216805F0FE0008613B464A46154920462E
:1028F00000F09EF888B920684169806900903A46E6
:102900004946204600F02AF948B1206C042804D139
:102910002068016841F4007101600120DEE7F5B232
:10292000B8F1010F09D02168300A08613A464946DA
:10293000204600F013F90028E7D120680561002047
:10294000CCE700000200010070B516460D460446B3
:102950001EE02046FFF7C0FE08B1012070BD681CD4
:1029600016D0FEF7E3F9801BA84200D885B920688D
:102970004069C04340070BD5002044F8300F2021A8
:102980006173A073216941F0200121612073E4E7A4
:1029900020684069C0434007DBD4002070BD0000C0
:1029A0002DE9F047984617460D460446C1F3074601
:1029B000DDF820902AE000BFB8F1FF3F26D0FEF7F7
:1029C000B5F9A0EB0901414502D8B8F1000F1DD1BE
:1029D0002068012E16D0806925EA00000004000C52
:1029E00012D00020B84211D1002044F8300F20212D
:1029F0006173A073216941F02001216120730120DE
:102A0000BDE8F0874069E7E70120EBE72068012E89
:102A10000AD0806925EA00000004000C06D00020DE
:102A2000B842C9D00020EBE74069F3E70120F7E79F
:102A30002DE9F047984616460D4604464FF000092A
:102A40004FF0200AC1F3074723E020684069C043E4
:102A5000400515D42068016841F4007101602168C7
:102A60006FF480604861C4F8309084F83DA084F829
:102A70003E90216C41F00401216484F83C9021E0F7
:102A8000701C06D0FEF752F9A0EB0800B04203D844
:102A900016B1012F1FD021E02068012F15D08069C9
:102AA00025EA00000004000C18D000BF44F8309F55
:102AB00084F80DA084F80E90216941F02001216175
:102AC00084F80C900120BDE8F087406925EA0000F9
:102AD0000004000CEAD12068406901E020688069A8
:102AE00025EA00000004000CAFD1ECE72DE9F0412D
:102AF000002590460E460446202728E04069C04342
:102B0000C0060CD454F8301B6FF01000486144F834
:102B100010596777A577206A2062257714E0FEF7C1
:102B200005F9A0EB0800B04200D886B920684069DA
:102B3000C04340060BD544F8305F6773A573206926
:102B400040F02000206125730120BDE8F08120685D
:102B50004169C9434906D1D40020F6E770B516464D
:102B60000D4604461EE02046FFF7B6FD08B10120E1
:102B700070BD681C16D0FEF7D9F8801BA84200D89B
:102B800085B920684069C04300060BD5002044F891
:102B9000300F20216173A073216941F02001216170
:102BA0002073E4E720684069C0430006DBD40020BE
:102BB00070BD00002DE9FE4FDFF8F8900022484676
:102BC000DFF8F4C0D0E90261D9E900400B46341BBC
:102BD00061EB0001501EB4EB0C0C1546174671F169
:102BE000000C5ED3DFF8D4804FF0000CB8EB040487
:102BF0007CEB010C55D34C46D4E904C1BCEB060672
:102C000061EB03012E4BF31A71F1000349D3DFF896
:102C1000B4C00023BCEB06068B4142D300234FF027
:102C20000309EA4609EB430808F1010C04EBCC0167
:102C300004EBC80CD1E90061DCE9008CB6EB0806B6
:102C400061EB0C015206DFF88080120E6D1C4FF014
:102C5000000CB8EB06067CEB010C01D242F001023D
:102C6000082D04D10AF80720002215467F1C5B1CA2
:102C7000202BD7DB9DF80110C943CBB28DF8013072
:102C80009DF80310C943CAB28DF803209DF80010C7
:102C9000994203D19DF80230934204D00B4A00219F
:102CA0001160BDE8FE8FCDE9011301A8FDF798FD85
:102CB0000020F6E7083C002000127A008096980079
:102CC000E0673500C03B470340420F00C0000020D2
:102CD0002DE9FC4102F0C2FE244C254ED4E9062326
:102CE000871A61EB030200231D46F61B934100D2B5
:102CF0002560C4E906011F4A236802EBC3065B1C7A
:102D0000C6E900012360042B06D0442B02D1FFF753
:102D100051FF2560BDE8FC81D2E90260D2E90037AD
:102D20000146F31A60EB0700134FDF1B70F1000739
:102D3000F0D3DFF848C00027BCEB03038741E9D399
:102D4000D2E90402801B62EB01020D49411A72F1C3
:102D50000001DFD34FEAAC030021181A9141D9D307
:102D6000009568460195FDF73BFDD2E7C0000020C5
:102D700000E1F505083C002000127A0080969800DA
:102D800080841E0010B5002208210A2003F016FCE2
:102D900002490861BDE8104000F096BFC000002065
:102DA0001C4C08B54FF0FF37022604F144053946A4
:102DB000E06903F057FE0028F9D0616A884202D129
:102DC00000F01EFFF3E7A16A884202D100F03EFF47
:102DD000EDE7E36A9842EAD100226946184603F01B
:102DE000A5FDBDF90000002801DA6E6008E0A0F240
:102DF000E930B0F5F97F01D8012000E000206860DB
:102E0000044900232E601A464431206A03F072FC04
:102E1000CDE700000C01002000F0A0BC00F0B4BC25
:102E200000F0CEBC00F0FCBC00F004BD00F04CBDD6
:102E300000F08CBD00F0C9BD10B506484FF400533A
:102E400009B1002200E001221946FDF76AFF0020C7
:102E500010BD00000010014070B586B0002411487C
:102E60000094019402940394816941F010018161FE
:102E700080690D4E00F010004FF40055049022467A
:102E800029463046FDF74DFF01200095CDE90104AC
:102E90000220039069463046FDF74EFE06B0002042
:102EA00070BD00000010024000100140FFF7D4FF89
:102EB0004FF4FA7401210846FFF7BEFF204602F0E6
:102EC000AFFF00210120FFF7B7FF204602F0A8FF67
:102ED000F0E7000008B50020009009486A4601218B
:102EE000406803F06BFA0098002807D005494FF0BE
:102EF00080500860BFF34F8FBFF36F8F08BD000095
:102F0000A800002004ED00E008B56946752000F037
:102F1000BDF810B14FF0FF3008BD9DF8000008BDAE
:102F200010B500216B2000F023F900216C2000F087
:102F30001FF90921192000F01BF906211A2000F0C1
:102F400017F918211B2000F013F918211C2000F09C
:102F50000FF9002202210A2003F030FB074CA06089
:102F600003F0D8F960600021372000F001F9FF215B
:102F7000382000F0FDF8002010BD0000A80000205F
:102F80002DE9FC5F0E46DDE90CAB07461D46914678
:102F900001A93B2000F07AF8804669463C2000F009
:102FA00075F840EA080437B19DF800009DF8041058
:102FB00040EA0120388001A93D2000F067F840EA8E
:102FC000040769463E2000F061F840EA070436B184
:102FD0009DF800009DF8041040EA0120308001A90E
:102FE0003F2000F053F804436946402000F04EF8BB
:102FF0000443B9F1000F07D09DF800009DF80410BC
:1030000040EA0120A9F8000001A9432000F03EF8A1
:1030100040EA04066946442000F038F840EA060415
:1030200035B19DF800009DF8041040EA0120288089
:1030300001A9452000F02AF804436946462000F023
:1030400025F80443BAF1000F07D09DF800009DF861
:10305000041040EA0120AAF8000001A9472000F06E
:1030600015F840EA04056946482000F00FF82843A7
:10307000BBF1000F07D09DF800109DF8042041EA35
:103080000221ABF80010BDE8FC9F00000EB54FF424
:10309000FA7201230292CDE9001302460248D021C0
:1030A0000068FDF7A3FF0EBDA800002088B0FFF761
:1030B00037FFFFF729FF0446002127A20846FFF744
:1030C000B9FE0123224602210020FFF7AFFE4FF494
:1030D0007A7001F0B9FEFFF79FFE03AD02AC07ABBB
:1030E00006AA05A904A8CDE90045FFF749FF00217C
:1030F0001CA20846FFF79EFEBDF910200021032008
:10310000FFF796FEBDF91C2000210C20FFF790FE72
:1031100015A202210020FFF78DFEBDF91420022127
:103120000320FFF785FEBDF9082002210C20FFF7E0
:103130007FFE0EA204210020FFF77CFEBDF91820BF
:1031400004210320FFF774FEBDF90C2004210C209C
:10315000FFF76EFEC3E700004D5055363035302086
:1031600049443A00583A2000593A20005A3A20007F
:103170001CB502238DF804004FF4FA700090044847
:103180008DF8051001AAD0210068FDF799FE1CBD3D
:10319000A80000200EB50026104D771E01230097D1
:1031A0001A461946686803F011F9FDF757FB00232A
:1031B00000961A46194602A80196FFF7E1FE04465A
:1031C00000F078FD2CB900231A4602A9A86803F084
:1031D00091FA142002F024FEE0E70000A80000208D
:1031E0003EB5002411480094019402940E49846075
:1031F000016004730475012505614FF4602144608A
:10320000C161FDF7C3FB08B1FDF722FB0320CDE947
:103210000005694602940548FDF73AFB002801D0F5
:10322000FDF716FB3EBD00000024014034060020DF
:103230003EB5FFF7F9FDFFF7EFFDFFF7A3FD00F047
:103240009DFDFFF76DFE012003F0A9F9184C002148
:1032500018A2A0600846FFF7EDFD194A00211948A1
:1032600001F03CFEE06000201825CDE90050034647
:10327000802215A1174803F0F5FC17480095A0F52A
:10328000A071CDE901100023502214A1164803F0CB
:1032900016FD206015480095A0F50071CDE90110DC
:1032A0000023802212A1154803F009FD60603EBD95
:1032B000000000205374617274696E6700000000A2
:1032C00054710008A13D000847616D655461736B3E
:1032D00000000000354C0008AC0200204C69676813
:1032E000745461736B000000AD2E00080C050020C3
:1032F000436F6C6F725461736B00000031060008FD
:103300002DE9F04786B000244F48009401940294C0
:103310000394816941F010018161816901F010011C
:103320000491816941F020018161816901F02001EE
:103330000491816941F004018161816901F0040116
:103340000491816941F00801816180693F4F00F07B
:1033500008004FF400550490002229463846FDF736
:10336000E0FCDFF8EC90002213214846FDF7D9FC81
:10337000DFF8E0A04FF40248002241465046FDF736
:10338000D0FC0095022601250396CDE9015469463B
:103390003846FDF7D1FB112700970396CDE901547C
:1033A00069464846FDF7C8FBCDE90256CDE90067FE
:1033B00069464846FDF7C0FB03208DE831006946A9
:1033C0005046FDF7B9FBA80200902348CDE901055E
:1033D00069465046FDF7B0FB204FE802CDE90007F3
:1033E000694602955046FDF7A7FB4FF48150CDE9A1
:1033F0000007694602945046FDF79EFB4FF4824059
:10340000CDE90004694650460294FDF795FBCDF8DE
:1034100000800396CDE9015469465046FDF78CFBC8
:10342000002205211720FEF767F81720FEF756F84F
:10343000002205212820FEF75FF82820FEF74EF82D
:1034400006B0BDE8F0870000001002400010014007
:1034500000080140000C0140000031100000111074
:103460000D4810B50B4901600C49416000214FF433
:1034700080428160C0E9031241618161C1610162E2
:10348000FDF75AFC002803D0BDE81040FDF7E0B975
:1034900010BD00000054004064060020A08601001A
:1034A000104810B50E4901604FF48271416000214F
:1034B0008160C1604FF400720161C0E90512082209
:1034C000C0E90721416281620A21C162FEF7CAFB9D
:1034D000002803D0BDE81040FDF7BAB910BD0000C8
:1034E00000300140B806002010B596B000240F94BB
:1034F00010941194129413941C2108A81494FCF7AE
:10350000CAFE20216846FCF7C6FE2A482849016009
:103510004721C0E9011440F2E731C0E903148021DA
:10352000C0E90541FEF7BEFC08B1FDF791F94FF483
:1035300080500F900FA91F48FEF742FD08B1FDF71C
:1035400087F91C48FEF73BFF08B1FDF781F913949A
:1035500013A918481494FEF743FC08B1FDF778F955
:103560006020089040F2F310CDE909040B940C940C
:103570000D94002208A90F480E94FEF7BAFE08B178
:10358000FDF766F900944FF40050CDE90440029431
:1035900001940394694607480794FEF7F7FB08B1C6
:1035A000FDF756F90348FEF72DFE16B010BD0000DA
:1035B000002C01401007002010B58EB000240794A5
:1035C000089409940A940B941C2168460C94FCF707
:1035D00062FE27484FF08041016040F26711C0E968
:1035E000011440F2CF71C0E9031480218161FEF71C
:1035F00059FC08B1FDF72CF94FF48050079007A94A
:103600001B48FEF7DDFC08B1FDF722F91848FEF76C
:10361000D6FE08B1FDF71CF90B940BA914480C94C5
:10362000FEF7DEFB08B1FDF713F96020CDE90004D9
:103630000294002269460E480494FEF75AFE08B12F
:10364000FDF706F9042269460948FEF752FE08B163
:10365000FDF7FEF8082269460548FEF74AFE08B164
:10366000FDF7F6F80248FEF7CDFD0EB010BD0000E4
:103670005807002010B58AB0002407941C21684622
:103680000894FCF708FE1848164901600721C0E9B4
:10369000011440F2E731C0E9031480218161FEF793
:1036A0008EFE08B1FDF7D4F8079407A90E480894D8
:1036B000FEF796FB08B1FDF7CBF8602000904FF4C1
:1036C0006170CDE901040022694607480494FEF7C1
:1036D00010FE08B1FDF7BCF80348FEF793FD0AB0F1
:1036E00010BD000000040040A00700200C4810B5E9
:1036F0000A4901604FF4E1314160002181600C22F0
:10370000C160C0E904128161C161FEF72CFF00288D
:1037100003D0BDE81040FDF79BB810BD0038014054
:10372000E80700200B4810B50949016008214160F5
:103730000221816000218161C1610162FDF70EFFFC
:10374000002803D0BDE81040FDF782B810BD00008E
:10375000005C004030080020FEE7FEE710B5A0B096
:10376000002480216846FCF796FD0021204600F0E9
:103770007FF98021684600F0AFF9641CE4B2082CA0
:10378000F3D320B010BD000070B50C4D002400BF75
:1037900004F1B000C0B200F08BF9002000F088F90D
:1037A000102000F085F905EBC410802100F094F999
:1037B000641CE4B2082CEBD370BD000088370020F5
:1037C0002DE9F0478146C81701EB5070C0F3C705DB
:1037D00020F00700081A1844C01DC11700EB5170F3
:1037E0009246C0F3C7070024DFF8308011E02E199D
:1037F000082E0CD209F0FF01F0B200F039F909EB04
:10380000C6121FFA8AF102EB080000F065F9641C89
:10381000E4B2BC42EBD3BDE8F0870000883700205B
:10382000802303604020086001201060004870473A
:103830008837002010B50224202000F039F92046F6
:1038400000F036F91F4804703F24A82000F030F93A
:10385000204600F02DF90024D32000F029F920465D
:1038600000F026F9402000F023F9A12000F020F913
:10387000C82000F01DF90021084600F0E3F87F247D
:10388000812000F015F9204600F012F9A42000F084
:103890000FF9A62000F00CF9D52000F009F98020DE
:1038A00000F006F98D2000F003F9142000F000F973
:1038B0000021012000F0C6F8BDE81040AF2000F064
:1038C000F7B80000A0000020F0B51CA6154607467A
:1038D00055CE87B00DF10C0C8CE8550030208DF8DA
:1038E0000000782000268DF8010002248DF80A607F
:1038F00007206A464FEA800E25FA0EFE0EF00F0EE4
:10390000022C1CF80EE002F804E004D19DF802E05D
:10391000BEF1300F00D0641C401EEBD5022C00D14C
:1039200003243846165523B100F04FF8204607B05F
:10393000F0BD921C00F049F8A01EF8E73031323398
:10394000343536373839616263646566F0B589B0FD
:103950000024074620466D4604AE002A08DA4FF0E0
:103960002D038DF800304FF00104C2F1000214E085
:1039700006D14FF030008DF800004FF001041AE03E
:103980004FF00A0C92FBFCF30CFB132392FBFCF2AE
:1039900003F13003335400F10100002AF0D108E0B4
:1039A00006EB0002A0F1010012F8012C2A5504F1E7
:1039B00001040028F4D14FF0000028552A4638466B
:1039C00000F003F809B02046F0BD2DE9F04117469C
:1039D0000E46044600250BE03146204600F00EF866
:1039E000641CE4B20F2C02D90024B61CF6B26D1C84
:1039F0007A5D002AF0D12846BDE8F08170B5164600
:103A0000C206150E0C46072918D80F2816D82946C5
:103A1000204600F02DF80A48082100EB0610064663
:103A200000F05AF8641CE0B2294600F021F806F1D3
:103A30000800BDE87040082100F04EB870BD0000DD
:103A4000A271000870B50C46050001D0012D0ED101
:103A50000CB1012C0BD1DA2000F02AF8280100EB80
:103A60004410BDE87040801CC0B200F021B870BDA9
:103A700070B50E4D0C462978022905D1072803D8C8
:103A8000B030C0B200F014F8287802280CD17F2C96
:103A90000AD804F00F0000F00BF8102000EB14100F
:103AA000BDE8704000F004B870BD0000A000002028
:103AB0001CB500218DF804108DF805004FF4FA7044
:103AC00000900448022301AA78214068FDF7F8F924
:103AD0001CBD0000A00000200EB54FF4FA728DE866
:103AE000070004480123402278214068FDF7A6FB27
:103AF0000EBD0000A0000020010004484FF00001AE
:103B0000006801D0FEF79EBCFEF7EABCB4000020BE
:103B100070B58CB01C216846FCF7BDFB4FF480707B
:103B20000225CDE90705002407A91048CDE909457C
:103B3000FDF702F80F4E0E484722316815C140F2DA
:103B4000E732E1E80224802261E8044200F090F9C3
:103B500060200090049440F2F310CDE901050022AA
:103B600069463068FEF7C5FB0CB070BD0008014027
:103B7000002C0140B40000202DE9F04188B08846B7
:103B800006461C216846FCF786FB1A4C002120687B
:103B9000FEF7A6FC2068FEF757F9206816490025B5
:103BA00001604721C0E90115144F97FBF6F1491E4A
:103BB000C0E903158021C0E90551FEF773F96020C3
:103BC00000900220029097FBF6F0401E00FB08F0E8
:103BD000642190FBF1F00495019000226946206871
:103BE000FEF787FB00212068FEF72CFC08B0BDE83B
:103BF000F0810000B4000020002C014040420F0082
:103C00001CB5114C00226946606A02F08FFE0199D2
:103C100004F13400E0290ED0902910D019B1009998
:103C2000016000214160084900231A463431206AAE
:103C300002F060FD1CBD009901600221F2E70099CD
:103C400001600121EEE700000C0100207CB5184E58
:103C500000226946B06A02F069FE019A012106F16C
:103C60003C00002A05DAC2F1000201924FF0020284
:103C700004E001DD416002E04FF000024260019A81
:103C8000642A01DD042404E0322A01DD022400E07C
:103C900001240025016007E0054900231A463C3154
:103CA000306A02F027FD6D1CA542F5DB7CBD0000EB
:103CB0000C010020034800231A461946806802F0D0
:103CC00019BD000000000020044A51680A2904DAE6
:103CD000034B43F82100491C51607047C00000208D
:103CE000283E0020FEB50020009001F0B7FE0646F9
:103CF0000D46022001F0A8F81C4F4FF480513846C1
:103D0000FDF70AF800282AD0194CD4E90401321A28
:103D100065EB010317480021FCF750FA60600121B0
:103D20003846FCF7F9FF0028206819D0401C2060B5
:103D3000C4E90465206801906068029000236A4627
:103D400001A9E06802F08CFD0098002807D00A491C
:103D50004FF080500860BFF34F8FBFF36F8FFEBDF1
:103D6000401E2060606840426060E1E7000C014056
:103D7000E000002000CA9A3B04ED00E008B50020F6
:103D8000054B0090A3F1500208210A2002F03AFCF2
:103D90000249C86008BD0000A03E0020E0000020ED
:103DA000002002F063F8FFF73FF8FFF735F800BF97
:103DB000FFF77CF9FCE7000010B5502080F3118874
:103DC000BFF34F8FBFF36F8F02F0B8FF18B10449F4
:103DD0004FF080500860002080F3118810BD000073
:103DE00004ED00E030B593B028216846FCF753FAA3
:103DF00014210AA8FCF74FFA002401200F94109414
:103E00001194010412948DE8130004904FF4E01013
:103E1000CDE90810022507956846FDF793FD08B126
:103E200072B6FEE70F20CDE90A054FF48060CDE9B8
:103E30000C4002210AA80E94FDF788FC08B172B666
:103E4000FEE712200F904FF40040CDE911040FA8B7
:103E5000FDF706FC002801D072B6FEE713B030BDB6
:103E6000704700000148FEF71AB90000200B00203F
:103E7000F0B50268164B174C174D4FF0804798422B
:103E800005D0B84203D0A04201D0A84203D122F00D
:103E900070064A683243984205D0B84203D0A04227
:103EA00001D0A84203D122F44074CA6822434C696D
:103EB00022F08002224302608A68C2620A6882623B
:103EC000984201D10969016301214161F0BD0000FF
:103ED000002C0140000400400008004010B501F033
:103EE0001F030121046A99408C430462016A9A40CD
:103EF0001143016210BD10B5846842EA032224F424
:103F00007F440A432243826010BD826822F070021F
:103F10000A4342F0070181607047000030B5036A30
:103F2000026A22F0010202624268846924F0730589
:103F30000C682C4323F002058B682B430A4DA842E2
:103F40000BD123F00805CB6822F440722B434D6956
:103F500023F0040315438A692A4342608461496857
:103F60004163036230BD0000002C014030B5026A9D
:103F7000036A23F010030362436884690D6824F424
:103F8000E64444EA05248D6822F0200242EA051244
:103F90000B4DA8420ED1CD6822F0800242EA0512F4
:103FA0004D6923F4406343EA85038D6922F04002A2
:103FB00043EA85034360846149688163026230BDDE
:103FC000002C014030B5036A026A22F4807202625A
:103FD0004268C46923F4007324F073050C682C4311
:103FE0008D6843EA05230C4DA8420ED1CD6823F419
:103FF000006343EA05234D6922F4405242EA051268
:104000008D6923F4806342EA05124260C461496805
:10401000C163036230BD0000002C014030B5046A6A
:10402000026A22F4805202624268C3690D6823F476
:10403000E64343EA05238D6824F4005444EA05343A
:10404000064DA84204D14D6922F4804242EA85120D
:104050004260C36149680164046230BD002C0140C4
:1040600010B5036A046A24F001040462846924F030
:10407000F00444EA021423F00A020A438461026253
:1040800010BD10B5036A046A24F010040462846948
:1040900023F0A00324F4704444EA023243EA0111FD
:1040A0008261016210BD000070B5044600680169BC
:1040B000E26821F44051114301612169A06808437D
:1040C000616908432168CA6841F20C639A4302435C
:1040D000CA6020684169A26921F4407111434161BD
:1040E0001E492068884202D1FDF7F6FB01E0FDF78A
:1040F000E3FB00EBC00101EB00126068642180006B
:10410000B2FBF0F3B3FBF1F36FF018067343B2FBAD
:10411000F0F5B2FBF0F605EB8305322303EB051552
:10412000B5FBF1F5B6FBF1F605F0F00505EB06156C
:10413000B2FBF0F6B2FBF0F0B0FBF1F06FF018025A
:10414000504306EB800003EB0010B0FBF1F0216858
:1041500000F00F002844886070BD00000038014066
:104160002DE9F041984617460E460446069D27E085
:10417000681C25D02DB1FCF7D9FDA0EB0800A842A2
:104180001ED920680C3050E8001F21F4D07140E89F
:104190000012002AF5D12068143050E8001F21F0E9
:1041A000010140E80012002AF5D1202084F84100E6
:1041B00084F84200002084F840000320BDE8F0812C
:1041C0002068006836EA000004D00020B842CFD052
:1041D0000020F3E70120F9E7002070470020704736
:1041E000012120F8401F00210180818001820846C2
:1041F000704730F8401F21F43F4101800020704794
:1042000000207047FEE700000FB4054B10B503A96E
:10421000044A029800F03CF810BC5DF814FB000062
:104220000D480008600100200FB4084B10B504A928
:1042300002AA039800F02CF8044602A9002000F01E
:1042400003F9204610BC5DF814FB00004944000847
:104250000907090E002804DB00F1E02080F80014B3
:10426000704700F00F0000F1E02080F8141D704747
:1042700002E008C8121F08C1002AFAD1704770472F
:10428000002001E001C1121F002AFBD1704700008D
:104290002DE9FF4F8BB09A460F460546002606E0F3
:1042A00025280BD052460D9990476D1C761C287816
:1042B0000028F5D10FB03046BDE8F08F0024A046AD
:1042C0000122604900E0044315F8013F203B02FA57
:1042D00003F00842F7D128782E2817D115F8010FDE
:1042E00044F004042A280ED06FF02F022878A0F1A1
:1042F000300109290AD808EB880102EB410100EBE3
:1043000001086D1CF2E757F8048B6D1C28786928AA
:104310003ED006DC0028CDD063280BD0642804D121
:1043200036E0732810D075284BD052460D9990472F
:10433000761C85E017F8040B8DF8000000208DF83E
:104340000100E946012003E057F8049B4FF0FF30DD
:1043500061074FF0000401D40AE0641C44450DDA03
:104360008442FADB19F804100029F6D106E0641C37
:104370008442FCDB19F804100029F8D1264404E03B
:1043800019F8010B52460D999047641EF8D257E078
:1043900001CF4FF00A0B002802DA40422D2102E043
:1043A000210504D52B218DF82410012103E0E1071C
:1043B00005D02021F7E70DF1200908910CE000213C
:1043C000F9E701CF4FF00A0BF9E75946FCF718F867
:1043D00001F1300209F8012D0028F6D1ADEB0900FA
:1043E00000F1200B600701D44FF00108D84502DD31
:1043F000A8EB0B0000E000208046002406E009A89E
:104400005246005D0D999047641C761C08988442C2
:10441000F5DB04E0302052460D999047761CB8F148
:104420000001A8F10108F5DC05E019F8010B52467E
:104430000D999047761CBBF10001ABF1010BF4DC48
:104440006D1C34E7092801000A68531C0B601070CA
:104450007047000038B50C463221FFF78DFB002075
:1044600003460090034822460421006802F02AFE19
:1044700038BD00005801002008B5FFF749FB05488A
:10448000002300901A46C82103A002F0D1FD05497F
:10449000086008BD5508000847616D65536F756E6B
:1044A0006400000058010020704700002DE9FF4F14
:1044B00093B01F4622991498DDF88080401AC0B24C
:1044C0000C9008F10700C00809900C98002600F035
:1044D00007000B9014984044C0B20590C4E00C98BB
:1044E00000EBC60000F0FF0A0AF10800C0B20A9013
:1044F0002298A8B114990A98884256D35E498968CF
:10450000884252D805998A45FBD8FF20119014980B
:10451000824508D2A0EB0A01FF208840C0B200E02B
:10452000FF20119007E005990A98884203D9411AA3
:10453000FF20C840F5E750484FEADA0241684A4395
:104540000792159A06FB072206920B9A72BB8368A4
:1045500081469A452AD24FF0080AB8F1080F00D2D6
:10456000C24600241BE013982044C5B2D9F80400C9
:10457000854212D206982199204401F051FA1199EE
:1045800053460140079800220544D9F80000405DD9
:1045900001F058FAD9F800104855641CE4B2BC4246
:1045A000E1D3A8EB0A0000F0FF085BE00A9A44465A
:1045B000D2084A430025109251E00B984446C0F1BE
:1045C000080081460F90A04200D9C14613982844A4
:1045D00000F0FF0B2848406883453ED20698219999
:1045E000284401F01DFA1199084023490390896875
:1045F0008A4511D2079920485944129100684B46C8
:104600000B9A405C039901F01DFA1B4A129912683B
:104610005054A4EB0900C4B2FCB117480A9982684F
:1046200091421AD2C9F1080101F0FF09A14500D950
:10463000A1460F9A03991048D140109A00689344FC
:104640004B4610F80B00002201F0FCF90A490968FA
:1046500001F80B00A4EB0900C4B26D1CEDB2BD4221
:10466000ABD3A046761CF6B209988642FFF437AF6A
:1046700017B0BDE8F08F0000FC000020FEF7CEBBB5
:104680002DE9F0411C4615460E460746FCF7E6F8B4
:1046900023462A4631463846FEF7C2FBBDE8F041C4
:1046A000FFF708BB044A10B5111F081FFEF7BAFB3D
:1046B00001490C39086010BD080100202DE9FE4FAA
:1046C0009B4691460F4606460025DFF8988043E05A
:1046D000C5EBC50202EB0901CCB208220021009211
:1046E000CDE901712038C0B21F4900EB80004218AB
:1046F000052359462046FFF7D9FE082305225946CF
:104700002046FFF7BDFF27B384B1A4F1010A0AF0E8
:10471000FF01FF235A46D8F8000001F087F90AF09C
:10472000FF00082301225946FFF7AAFFD8F804101A
:10473000491F8C420DD2641DE1B2FF235A46D8F8BE
:10474000000001F073F9E0B2082301225946FFF797
:1047500097FF6D1CEDB2761C30780028B8D1BDE80B
:10476000FE8F0000FC000020C67900082DE9F04112
:104770001D46164688460446FBF798FDC0B2401C0D
:1047800000F02CFB07462146FBF797FD2B463246EF
:1047900041463846FFF792FF3846BDE8F04100F049
:1047A00043B8000070B5040005D0164E306884424E
:1047B00009D1002070BD502080F31188BFF34F8FC6
:1047C000BFF36F8FFEE701F057FA656901F074FAE5
:1047D0007068854202D0B068854201D1022070BD68
:1047E0000948854204D1A06A0028F7D1032070BD92
:1047F00005481438854202D00DB1012070BD042057
:1048000070BD0000200000205810002013B505489E
:104810004FF4FA73012269460068FDF70FFF009814
:104820001CBD0000F800002010B5002821D0114B5D
:104830000022001F196803E0814203D80A46496834
:104840000029F9D152B11368841A9C4204D100683E
:1048500018441060104602E0506000E0186039B162
:1048600002680B1A934203D10B681A44026049682C
:10487000416010BD640100202DE9F04FE2488FB087
:10488000C188A0292BD28178FF2928D00021DF4CB4
:1048900081468A466068FBF78BFDC5B22068FBF74E
:1048A00087FD4FF0000B0221CDE9001B0B46C0B283
:1048B000D74A2946CDF808B0FFF7F8FD6068FBF746
:1048C00077FDC5B22068FBF773FDC0B20823022252
:1048D0002946FFF7D5FEBAF1000F02D00BE0012107
:1048E000D5E7A1682068FBF7F1FC2060E16860680B
:1048F000FBF7ECFC60600020029021680391A04669
:104900006068FBF755FD0027C5B23E465FF0000426
:10491000D9F80800C05DE0BBB0000590FBF743FD8F
:104920000399FBF759FD3AD8042000EB8600FBF70A
:104930003AFD0399FBF75AFD31D2082000EB8400C1
:104940000E90A8422BD80C2000EB8400A84226D958
:1049500064214FF4FA60FFF77DFDD9F808000121CA
:104960000323C1550821CDE9001B0E98CDF808B0EE
:10497000C1B20598A64AC0B2FFF798FD0E98082369
:10498000C1B205980322C0B2FFF77AFE012002905F
:1049900000E004E0B9F80600401CA9F806007F1CFE
:1049A000641CE4B2FFB2052CB2D3761CF6B2202E02
:1049B000ACD3D9F80C004C46801EFBF7F4FC0399ED
:1049C000FBF70AFD12D293490398884202DDC8F82A
:1049D00000B005E0E068801EFBF7E5FCC8F80000C9
:1049E000D8F8081081F00041C8F80810039810F1B9
:1049F000FF4F07D3C8F800B0D8F8081081F0004185
:104A0000C8F808100027BAF1000F37D12069801FBD
:104A1000854233D3F02D31D226462079FBF7C3FCF3
:104A20000399FBF7D9FC29D830790C30FBF7BBFC94
:104A30000399FBF7DBFC21D80127C82141F288301C
:104A4000FFF708FD3069801FFBF7ADFCC8F80400D4
:104A5000D8F80C004646B0F5000F02DB80F00040AD
:104A6000F060FBF7EDFBFBF795FC6FF01D01FBF72A
:104A700085FC4FF07E51FBF77BFCB0605AEA0700E3
:104A800026D12069801E854201D8029800B3F02DFE
:104A900007D9C82140F6C410FFF7DCFCC8F804B001
:104AA00010E0029870B9C8214FF4FA60FFF7D2FC09
:104AB00020692646401EFBF776FCC8F80400B07853
:104AC000401EB070D8F80C1081F00041C8F80C10EE
:104AD0004546D8F80400FBF76BFCC6B22868FBF724
:104AE00067FC0221CDE9001B494A0B46C0B2113ACE
:104AF0003146CDF808B0FFF7D9FC6868FBF758FCE1
:104B0000C6B22868FBF754FCC0B208230222314623
:104B1000FFF7B6FD207858B3002784F800B03E4672
:104B20000025A068C05DC8B90821CDE9001B384A3E
:104B300001EB85084FEA860908F0FF0109F0FF0044
:104B400003230F3ACDF808B0FFF7B0FC08F0FF01DF
:104B500009F0FF0008230322FFF792FD7F1C6D1C64
:104B6000EDB2FFB2052DDCD3761CF6B2202ED7D3E2
:104B7000E28829A109A8FFF757FB00231A46194626
:104B800009A8FFF79BFDA078FF2827D0002522E089
:104B9000A0784FF00801CDE9001B8542CDF808B0A0
:104BA000207B4FF0070300EBC500A0F11800C0B256
:104BB00001D21A4A00E0164A0121FFF777FC207B58
:104BC000082300EBC5001838C0B207220121FFF707
:104BD00057FD6D1CEDB2E0788542D9D3E088A0285E
:104BE00005D32023322200210DA0FFF7BFFDA078BE
:104BF000FF2805D12023222200210BA0FFF7B6FDBC
:104C00000FB0BDE8F08F00000C010020F43E002042
:104C1000B37900080000704325750000BF790008D3
:104C200057494E210000000047414D454F5645521F
:104C3000210000001CB5424A111F081FFEF7F2F8C0
:104C40003F4C143CA061FFF72DFDFFF717FDFBF76C
:104C50002DFD3C480090002301224FF4FA613AA058
:104C600002F0E6F9206302F063F802464FF0FF30ED
:104C7000009000230121206B02F024FAFFF7FCFBD7
:104C8000002208210A2001F099FC20621E2001F078
:104C900091FCE061FBF7EAFD6062FBF7F3FDA062C7
:104CA000FBF7EAFDE062E169606A01F067FCE16937
:104CB000A06A01F063FCE169E06A01F05FFC002595
:104CC0001827CDE900752B46802222A1244801F047
:104CD000C9FFCDE900750023802222A1244801F0FC
:104CE000C1FF6570E0684008FBF75DFB214E306056
:104CF00020690A38FBF757FB70604FF03F40B06007
:104D00001D48F060A02000F001FEA021A060FBF78C
:104D1000C2FA0320E070A070E580A089FA2101EBBF
:104D200050002071CDE900750023802213A117489F
:104D300001F098FFFFF7A0FD322001F071F8F9E7CC
:104D4000200100205506000844485431315F746941
:104D50006D657200496E7075745461736B0000006C
:104D6000A12D00084D5055363035305461736B001D
:104D700095310008F43E00209A9919BF706C617457
:104D8000666F726D5F7461736B000000814F000885
:104D900010B500F063FE4FF47A720023FBF70EFAB1
:104DA00010BDFCF719FBFFF71DF8FEF7A9FAFEF797
:104DB00057FBFEF715FAFEF773FBFEF7B3FCFEF7A1
:104DC00093FBFEF7F9FBFEF755FCFEF78FFC00F0B6
:104DD00049F8FEF72DFA00F061F8FEE7F0B50B3068
:104DE000154D20F007010024144A0FE003688B42A0
:104DF0000BD38B4205D95E1A43184768C3E9006795
:104E000000E04368136002C004E0021D106800283F
:104E1000ECD12046002802D1286808B10020F0BD5E
:104E2000064A07481060074A121A22F00702C0E932
:104E3000002401202860D7E76801002064010020D9
:104E40000C3F00200841002070B5054600244FF4B7
:104E50007A7603E0304600F023FE641CAC42F9DBB6
:104E600070BD0000EFF3058058B9EFF3108040B932
:104E700009490868022801D030B109E0EFF3118038
:104E800030B16FF0050070470120086000207047C6
:104E90004FF0FF30704700007800002010B5EFF3AE
:104EA000058060B9EFF3108048B90B490868022803
:104EB00002D0012806D00BE0EFF3118040B16FF073
:104EC000050010BD0220086001F098F9002010BD17
:104ED0004FF0FF3010BD000078000020F0B585B025
:104EE0004FEA01034FF00004EFF305810394A1BBE7
:104EF000EFF3108189BB21490968022902D1EFF340
:104F0000118151BB48B3802618218DF8104004ADA3
:104F100042B3176807B13D4697691FB139467F1EF6
:104F2000382F02D21779FF0702D0002005B0F0BD5C
:104F3000576907B1BE08D2F808C0BCF1000F0DD008
:104F4000D468602C18D312693AB137B18DE80610D5
:104F50003246294601F0B3FE03900DE0D7685FB9F1
:104F600012694AB903AACDE90012B2B2294601F08A
:104F700079FE012800D003940398D7E77800002039
:104F80002F4C86B0002625790827CDE900760296B9
:104F9000207C0C230838C1B22A4A2846FFF786FA3B
:104FA000207C08230838C1B20C222846FFF768FB92
:104FB0004FF0FF38424603A9206A01F0B7FC0128F0
:104FC000F8D104986070CDE900760296207C1D4AE5
:104FD0000838C1B20C230C322846FFF767FA207C50
:104FE00008230838C1B20C222846FFF749FB607835
:104FF000012802D0022802D003E0ED1C00E0ED1EE3
:10500000EDB26670FA2D01D9002504E0E0680C3895
:10501000854200D9C5B2CDE900760296207C0C23EA
:105020000838C1B2074A2846FFF740FA207C082317
:105030000838C1B20C222846FFF722FB2571B9E7D8
:105040000C010020A77900082DE9F041134C0F4610
:10505000054666692068001D00F03EFD681C07D10A
:1050600037B12168BDE8F0410D48091D00F0F8BDD9
:1050700020683544B5424560216805D2A068BDE886
:10508000F041091D00F0D4BD6068091D00F0D0FD9D
:10509000206B854200D22563BDE8F081200000200E
:1050A000581000202DE9F041054600F0E5FD2D4C9B
:1050B0002069401C206120682B4F10B1E06930B39B
:1050C0002BE025602069012827D1002606EB860009
:1050D00007EB800000F09EFD761C382EF6D32348A7
:1050E00000F098FD2148143000F094FD1F4828304E
:1050F00000F090FD1D483C3000F08CFD1B48503006
:1051000000F088FD194860601430A06005E0206858
:10511000E96AC06A884200D82560E06A401CE06203
:105120006864E86AA169884200D9A06100EB800048
:1051300007EB8000291D00F093FD00F0BDFDE06944
:1051400000280CD02068E96AC06A884207D2084962
:105150004FF080500860BFF34F8FBFF36F8FBDE8F3
:10516000F081000020000020A80B00200810002083
:1051700004ED00E038B500F07FFD104CA068C8B920
:105180000F4800F047FD0E48143000F043FD0C4876
:105190002060143060600A4B00202833009003F137
:1051A000540210210A2001F02DFAA06010B105A1CF
:1051B00000F000FEBDE8384000F07EBD6400002035
:1051C0006C100020546D72510000000030B4026C6D
:1051D0000B46002A0BD0C1681144C1604468A1424B
:1051E00001D30168C16030BC1846FBF73BB830BC46
:1051F00070472DE9F041856B174604460026026C86
:1052000082B1C7B1E068FBF72DF8E168206C091A9C
:10521000E1602268914202D26168081AE060022FC0
:1052200016D017E02068A8B9606801F0EBFD0646CB
:10523000002060600EE0A068FBF714F8216CA06805
:105240000844A0606168884204D32068A06001E03F
:1052500005B16D1E6D1CA5633046BDE8F08110B52B
:10526000044690F85D0058B101280CD002280FD0F8
:10527000502080F31188BFF34F8FBFF36F8FFEE78D
:10528000206B00F02DFD2046BDE8104000F028BD49
:1052900010BD000010484FF4FA51420706D0C01D5F
:1052A0000D4920F00700411AC1F5FA510B4A0023BD
:1052B0000144C2E900030839103A21F007011160E6
:1052C0004B600B600B1AC0E9001393604FF0004075
:1052D0005360D06070470000481800208C00002008
:1052E000154E164CA6F29C474FF08058DFF85090B0
:1052F00012E000BF00F0C0FCF068C568281D00F097
:10530000EBFB2069401E2061E068401EE06000F079
:10531000D3FC2846FFF7A3FFE0680028EAD13868ED
:10532000012805D9C9F80080BFF34F8FBFF36F8FF5
:1053300000F05EFCF0E70000441000202000002098
:1053400004ED00E0002807D00021416001600B4619
:105350000A46C16001F0CEB97047000070B51D4625
:10536000049C61B1C4F80020C4E90F01012120466A
:1053700001F07CF984F850500020A06470BD2460D6
:10538000F2E72DE9F0470E46DDE90984174682462B
:1053900091009946089DA522206BFAF775FF6FF0E2
:1053A0000301206B01EB8701084420F00707780711
:1053B00007D0502080F31188BFF34F8FBFF36F8F5A
:1053C000FEE72218315C82F83410315C11B1401CC8
:1053D0001028F6D3002684F84360382D00D33725F3
:1053E000E562C4E91356201D00F01FFC04F118000B
:1053F00000F01BFC2461C5F138006462A0616665A1
:10540000A66584F85C604A465146384600F0F6FAD4
:105410002060B8F1000F01D0C8F80040BDE8F08767
:105420002DE9F0471E46DDE9089417460D00804639
:105430000ED0002C14D0FFF79DFEC4F80080C4E904
:105440000657C4E90869201DBDE8F04700F0EDBB30
:10545000502080F31188BFF34F8FBFF36F8FFEE7AB
:10546000BDE8F08730B5114900E011460A68824274
:10547000FBD34B685C18844203D1406818444860F1
:10548000084643681C18944209D1084C103C246813
:10549000A24209D052681A4442600A681268026047
:1054A000814200D0086030BD0460F9E78C00002024
:1054B00070B5002441600B4D0061914206D8D11AAD
:1054C0008269914206D2011D686807E09A4203D2C0
:1054D000994201D3012403E0011D286800F0A8FBD4
:1054E000204670BD6400002010B5044600F0C4FBE7
:1054F000A06B28B15FF0000400F0DEFB204610BD79
:105500000124F9E72DE9F0478146086892460C46E8
:10551000002600B3606804F1080540686060A84296
:1055200001D1416861606068D0F80C8060684068B3
:105530006060A84201D141686160606806EBC60105
:1055400009EB8101C76853460122384600F0D6FCBA
:10555000761C4745EAD13046BDE8F08773B5002692
:105560000098846C5CB1A26BE06B82420FD3502038
:1055700080F31188BFF34F8FBFF36F8FFEE750208A
:1055800080F31188BFF34F8FBFF36F8FFEE7A26BDD
:1055900082420CD294F945500A4669462046FFF7EC
:1055A00028FE0646681C04D06D1C84F84550304621
:1055B0007CBD606A0028FAD004F1240001F09EFC52
:1055C0000028F4D00126F2E730B589B0304D55E01F
:1055D0000498002806DADDE90601059A9047049848
:1055E00000284BDB069C606910B1201D00F074FAA6
:1055F00002A800F0B9F8024604980A283ED2DFE873
:1056000000F00505053D263705053D260598A169ED
:10561000034601442046FFF74BFF00B3616A204672
:105620008847E069012829D1002000900598A169E8
:10563000002342181946204601F044FD78B9502055
:1056400080F31188BFF34F8FBFF36F8FFEE705988C
:10565000A06128B1811813462046FFF729FF0DE00D
:10566000502080F31188BFF34F8FBFF36F8FFEE799
:1056700094F82C0010B9204600F032FB002204A957
:10568000A86801F053F90028A2D109B030BD00008C
:10569000640000202DE9FC410F46054600F0F4FDB2
:1056A00001A800F061F80446019818B101F05EFC11
:1056B000BDE8FC81224EAFB170680068A8B3002736
:1056C000291B3A46B06800F089FB01F04FFC002826
:1056D000EED11C494FF080500860BFF34F8FBFF3ED
:1056E0006F8FE5E7A542EBD801F040FC3068274614
:1056F000C068C468201D00F0EFF9E069012810D1EE
:10570000A0692B4641193A462046FFF7D1FE40B129
:1057100000200346014600902A46204601F0D2FCB4
:1057200020B1616A20468847C2E707E0502080F335
:105730001188BFF34F8FBFF36F8FFEE70127BFE7DD
:105740006400002004ED00E006484168096829B1C2
:105750004168C968C9684968016370474FF0FF3103
:10576000FAE700002000002070B5054601F0E0FADD
:10577000064E04463069844203D200F009F8012045
:1057800000E0002028602046346170BD64000020E5
:10579000F8B5194D1FE0C068C4680668201D00F008
:1057A0009BF9616A20468847E069012813D1A06906
:1057B0003044B04206D924616060211D286800F0A1
:1057C00037FA08E0002003460146009032462046A2
:1057D00001F078FC38B1286801680029DBD16968DC
:1057E000C5E90010F8BD502080F31188BFF34F8F3A
:1057F000BFF36F8FFEE7000064000020002101E08E
:10580000401C491C0278A52AFAD0C1F38F007047CA
:1058100008484068401C4FF0500080F3118804D0C5
:10582000BFF34F8FBFF36F8FFEE7BFF34F8FBFF311
:105830006F8FFEE7940000200346002012B19943C9
:1058400002D070470B42FCD001207047074C206803
:10585000016841B1C0680021D0F80000FFF71AFFCD
:10586000FFF7B2FEF3E701210020F7E76400002014
:105870002DE9F041044600F0FFF994F9455004F198
:10588000240610E0A06C20B100212046FFF766FE40
:1058900004E0606A48B1304601F030FB08B100F026
:1058A000CBFB6D1E6DB2002DECDC4FF0FF3684F8A3
:1058B000456000F001FA00F0DFF994F9445004F17A
:1058C000100709E0206948B1384601F017FB08B11C
:1058D00000F0B2FB6D1E6DB2002DF3DC84F8446065
:1058E000BDE8F04100F0E8B910B50446FAF7E5FC70
:1058F0002046FAF7DBFC202101E02154401C0F2850
:10590000FBD300212154204410BD00002DE9F041BB
:105910000546002700F0B8FC314E306808B9FFF7A3
:10592000B9FCF06805424BD1C5B3083568070ED005
:1059300005F00700C0F108000544680707D05020B3
:1059400080F31188BFF34F8FBFF36F8FFEE72DB346
:105950007068854234D82248103001460C6801E056
:1059600020460C466168A94202D221680029F7D17D
:1059700031688C4224D0076821680160606808376C
:10598000411B10290FD96019420708D0502080F31D
:105990001188BFF34F8FBFF36F8FFEE710E04160B8
:1059A0006560FFF75FFD61687068401A7060B268FB
:1059B000904200D2B060F06801430020C4E90001C9
:1059C00001F0D4FA780707D0502080F31188BFF394
:1059D0004F8FBFF36F8FFEE73846BDE8F0810000C0
:1059E0007C0000200449086818B10868026D521C48
:1059F00002650868704700002000002010B5031FF2
:105A00004FF080741C601B1F21F001011960191FE9
:105A1000024B0B60143940380A6010BD1158000861
:105A20000078002901D0C043C0B2704710B5044CC3
:105A3000D208646802FB0411425C1A43425410BD50
:105A4000FC00002010B501249C40641E21409440BD
:105A5000A04391400143C8B210BD00002DE9F041C0
:105A60000D4CFBF763F922680023516AD26A0B4D93
:105A7000A0FB054703FB057500FB0355074FA1FB82
:105A8000070C03FB07C701FB0371FAF797FB00192B
:105A90006941BDE8F0810000200B002040420F006A
:105AA00030B50C4A00211368DC6A4FF47A72604307
:105AB000B0FBF2F55A6A586A9042FCD002D9A0EBCA
:105AC000020202E0A4EB0202024411440246A9428F
:105AD000F1D330BD200B0020D0E9013201699A607A
:105AE000D0E901235A604A68824201D182684A6043
:105AF000002202610868401E0860086870470000C4
:105B00002DE9F04717460A4605460024382600F0DE
:105B1000BBFBDFF88C80D8F8100082423BD3DFF863
:105B20008490761E06EB860104EBC40009EB81012C
:105B300005EB80000122FFF7E5FC0444002EF0D1C4
:105B400004EBC40005EB800002224646D8F804109E
:105B5000FFF7D8FC044404EBC40005EB80000222EC
:105B6000B168FFF7CFFC044404EBC40005EB8000F0
:105B700004220D49FFF7C6FC04440B4904EBC400A2
:105B800005EB800003221431FFF7BCFC044417B17D
:105B9000FFF7FEF8386001F0E9F92046BDE8F0872C
:105BA00020000020A80B00204410002004490868B1
:105BB0000A688069D26A0968C2F138028A6170474E
:105BC00020000020034B036003F160000860802088
:105BD0001060704788110020044B036003F16000DF
:105BE00008604FF48070106070470000E8130020D8
:105BF00010B5044800F0BEF9BDE81040014902A00C
:105C0000FEF702BB6C05002025730A0D00000000A2
:105C100000F08EBB00F108014FF0FF32C0E9011225
:105C2000C16001610021016070470021016170477E
:105C300030B50B685A1C02D000F1080202E002697C
:105C400004E02246546825689D42FAD953684B60A7
:105C500099608A60516008610168491C016030BD2B
:105C600042684A6093688B609368596091600861EC
:105C70000168491C01607047502080F31188BFF310
:105C80004F8FBFF36F8F0A494868401C4860012856
:105C90000CD10848006810F0FF0F07D0502080F3A7
:105CA0001188BFF34F8FBFF36F8FFEE7704700007F
:105CB0009400002004ED00E00849486828B1401E27
:105CC000486001D180F311887047502080F311881B
:105CD000BFF34F8FBFF36F8FFEE7000094000020EB
:105CE00070B5002827D0144DA0F108046168E86859
:105CF000014207D1502080F31188BFF34F8FBFF3CB
:105D00006F8FFEE722683AB1502080F31188BFF30D
:105D10004F8FBFF36F8FFEE78143616000F0B4FAED
:105D200060686968084468602046FFF79BFBBDE82F
:105D3000704001F01BB970BD7C0000204FF0E020E6
:105D400000210161816105494FF47A720968B1FB54
:105D5000F2F1491E41610721016170471C000020DA
:105D600010B5FAF715FA114910280ED300F1E0200A
:105D700090F8F0030A78904207D2502080F31188FF
:105D8000BFF34F8FBFF36F8FFEE709480068896844
:105D900000F4E060884207D9502080F31188BFF3F7
:105DA0004F8FBFF36F8FFEE710BD000094000020FF
:105DB0000CED00E010B5084B002200BF53F8324054
:105DC0001CB1521C082AF9D310BD43F8321003EB62
:105DD000C201486010BD0000680B002070B5154678
:105DE0000E460446FFF748FF94F944100020491C72
:105DF00001D184F8440094F94510491C01D184F87C
:105E00004500FFF759FFA06B28B92A46314604F137
:105E1000240000F02FF92046BDE87040FFF728BDB0
:105E200010B5020014D00F48806B38B1502080F3B9
:105E30001188BFF34F8FBFF36F8FFEE700F024FA96
:105E400000211046FFF700F901F090F8002807D173
:105E500005494FF080500860BFF34F8FBFF36F8F3D
:105E600010BD00002000002004ED00E070B50546E4
:105E7000FFF702FF1E4C05B92568281DFFF72CFE11
:105E8000A86A18B105F11800FFF726FEE06A401C69
:105E9000E0622068854207D1291D1648FFF7E0FE21
:105EA000E068401CE06007E02069401E2061284651
:105EB000FFF7D5F9FFF748FCFFF7FEFEE069002881
:105EC00014D02068854211D1A06B38B1502080F3E6
:105ED0001188BFF34F8FBFF36F8FFEE706494FF076
:105EE00080500860BFF34F8FBFF36F8F70BD00000D
:105EF000200000204410002004ED00E02DE9F041D6
:105F00000C461B491646B8B14FEA000505F13400AE
:105F1000C4E90050E86A2061286BE061686CA06009
:105F2000E86C6061686D0027A061052B12D00868DD
:105F3000854203D1277311E00D68E7E72373032B34
:105F40000CD100F0A1F9A86A08B10220207301F079
:105F50000DF803E02846FEF725FC20732EB1286BD0
:105F6000FFF74CFC2084BDE8F0812784FBE70000AC
:105F70002000002070B586B0002506460570234835
:105F800001690091006900EBC0008000FFF7BEFCD2
:105F9000040038D003AA0099FFF7B2FD00900398DF
:105FA0006421B0FBF1F0039050B32846019524E042
:105FB00000EBC00004EB8000039A8169B1FBF2F5AD
:105FC00041683046FFF790FC0646019800EBC000A0
:105FD00004EB800082692DB12B460DA13046FEF7FF
:105FE00023F903E00DA13046FEF71EF93046FAF71B
:105FF0005DF906440198401C019000998842D7D36E
:106000002046FFF76DFE06B070BD000020000020A6
:106010000925750909257525250D0A000925750924
:10602000093C3125250D0A0002498A6A0260496946
:1060300041607047200000200149012048627047FC
:106040002000002010B50C4650B1094909681831EC
:10605000FFF7EEFD2046BDE810400121FEF7F4BF3A
:10606000502080F31188BFF34F8FBFF36F8FFEE78F
:106070002000002070B514460D4668B10A49096831
:106080001831FFF7EDFD0CB14FF0FF3521462846E2
:10609000BDE87040FEF7D8BF502080F31188BFF3F1
:1060A0004F8FBFF36F8FFEE72000002010B514461E
:1060B000030011D01048826BB2B1026841F0004178
:1060C0009161016818461831FFF7CAFD2046BDE806
:1060D00010400121FEF7B8BF502080F31188BFF3B4
:1060E0004F8FBFF36F8FFEE7502080F31188BFF30F
:1060F0004F8FBFF36F8FFEE72000002070B50400C4
:106100003ED0226DA2B1E06C884200D30146E06A25
:10611000884235D0012A33D11A4D2A6894420FD1D2
:10612000502080F31188BFF34F8FBFF36F8FFEE7CE
:10613000502080F31188BFF34F8FBFF36F8FFEE7BE
:10614000E162A269002A02DBC1F13801A1610E4EB1
:1061500000EB8000616906EB8000814210D1201DB8
:10616000FFF7BAFCE06AA969884200D9A86100EB90
:10617000800006EB8000211DBDE87040FFF770BD78
:1061800070BD000020000020A80B002070B5194D44
:10619000AA6BF2B141F000410160C4680CB3FFF793
:1061A0009BFC201DFFF798FCE06AA969884200D992
:1061B000A861114900EB800001EB8000211DFFF771
:1061C0004FFDE06A2968C96A884201D901206862E6
:1061D00070BD502080F31188BFF34F8FBFF36F8FD6
:1061E000FEE7502080F31188BFF34F8FBFF36F8F0E
:1061F000FEE7000020000020A80B002030B587B08B
:106200000024039405AA04A903A80494FFF7DAFC68
:10621000DDE903010094CDE90110002316A118481F
:10622000059A00F04CFD174D0028686321D000F05E
:1062300019FF012809D0401C1BD1502080F3118880
:10624000BFF34F8FBFF36F8FFEE7502080F31188AD
:10625000BFF34F8FBFF36F8F4FF0FF3028630120E4
:10626000E8616C61FEF720F907B0BDE8304000F04E
:1062700031B907B030BD000049444C450000000072
:10628000E1520008200000200248816B491C816314
:10629000704700002000002010B51C4CA06B10B10E
:1062A0000120606210BD00206062FEF771FD206475
:1062B000E26B904204D92168821A4B6D1A444A65F8
:1062C000E063A069124901E0B8B1401E00EB800212
:1062D00051F82220002AF7D000EB800201EB820166
:1062E00001F108034A6852684A609A4201D1526833
:1062F0004A60D1682160A06110BD502080F31188F0
:10630000BFF34F8FBFF36F8FFEE700002000002028
:10631000A80B002070B52020FFF7F8FA040005D084
:106320000025201D2560FFF775FC2577204670BDF0
:106330002DE9F0410027884604000AD05FEA186082
:106340000FD0502080F31188BFF34F8FBFF36F8FB2
:10635000FEE7502080F31188BFF34F8FBFF36F8F9C
:10636000FEE7261D04F10C05FFF78EFF2168F0689B
:1063700041EA0801216017E0D0E9001601F07F42F0
:106380005301236821F07F4102D40B4203D10AE07C
:1063900031EA030307D1D20100D50F43216841F050
:1063A0000071FFF7F3FE3046A842E5D12068B843FC
:1063B000206000F0DBFD2068BDE8F08113460A464E
:1063C0000146014800F0B2BE115C00082DE9F0471B
:1063D0009A46DDF8209090460D4604004FF00007E5
:1063E00009D0280E0FD0502080F31188BFF34F8FB3
:1063F000BFF36F8FFEE7502080F31188BFF34F8FFC
:10640000BFF36F8FFEE71DB100F084FC40B112E0D6
:10641000502080F31188BFF34F8FBFF36F8FFEE7DB
:10642000B9F1000F07D0502080F31188BFF34F8FD0
:10643000BFF36F8FFEE7FFF727FF26685246294616
:106440003046FFF7F9F930B1B8F1000F1AD02068E3
:10645000A843206016E0B9F1000F13D0B8F1000F87
:1064600001D04FF08077BAF1000F01D047F080677C
:1064700045EA07014A46201DFFF718FE00F076FDA9
:1064800018B10AE000F072FD1FE011494FF0805092
:106490000860BFF34F8FBFF36F8FFFF787FB064690
:1064A000800110D4FFF7E8FB2668524629463046A3
:1064B000FFF7C2F928B1B8F1000F02D02068A84355
:1064C0002060FFF7F9FB26F07F463046BDE8F087F5
:1064D00004ED00E01CB5264908780190FF20087003
:1064E00008788DF800009DF800009DF8002000F06D
:1064F000F000904207D0502080F31188BFF34F8FF7
:10650000BFF36F8FFEE79DF800001A4B00F05000BC
:1065100018700720986005E09DF8002052008DF863
:106520000020401E9DF800201206F5D49860032834
:1065300007D0502080F31188BFF34F8FBFF36F8FC8
:10654000FEE74FF440709860019808700A480168AF
:1065500041F470010160016841F070410160FFF792
:10656000EDFB00205860F9F7DDFD00201CBD0000A8
:1065700000E400E09400002020ED00E070B50D463E
:106580000446FFF779FBA06C08B9A06B08B10024A2
:1065900001E0A5640124FFF78FFB204670BD10B514
:1065A00002460021012000F009F80446FEF7CAFE69
:1065B000204610BD00220421AFF30080F8B5174635
:1065C0000E46050014D0DEB105FB06F05430FFF78F
:1065D0009DF904000AD0002084F8460004F154021A
:1065E0003B46314628460094FEF7B8FE2046F8BDEB
:1065F000502080F31188BFF34F8FBFF36F8FFEE7FA
:106600000020E3E738B5049D18B153B1CAB181B198
:1066100020E0502080F31188BFF34F8FBFF36F8FBE
:10662000FEE7502080F31188BFF34F8FBFF36F8FC9
:10663000FEE7502080F31188BFF34F8FBFF36F8FB9
:10664000FEE739B1502080F31188BFF34F8FBFF3BD
:106650006F8FFEE754241C46012384F846302B46F6
:106660000094FEF77BFE204638BD000070B50D4655
:10667000040025D0FFF700FBD4E90F20216802FBBE
:10668000001161600021A1632168A1600A46D4E97C
:106690000F01401E00FB0121E16021464FF0FF3059
:1066A00001F8440F487004F110008DB1FFF7B2FA01
:1066B00004F12400FFF7AEFAFFF7FEFA012070BDE7
:1066C000502080F31188BFF34F8FBFF36F8FFEE729
:1066D00021690029F0D000F011FC0028ECD0044919
:1066E0004FF080500860BFF34F8FBFF36F8FE3E729
:1066F00004ED00E02DE9FF4782B01D468A464FF0C9
:106700000008040003D0BAF1000F08D011E05020B7
:1067100080F31188BFF34F8FBFF36F8FFEE7206CBC
:1067200038B1502080F31188BFF34F8FBFF36F8FC4
:10673000FEE7022D0AD1E06B012807D0502080F33C
:106740001188BFF34F8FBFF36F8FFEE700F0E2FABF
:10675000424F4FF000094FF0805648B9049838B1C5
:10676000502080F31188BFF34F8FBFF36F8FFEE788
:10677000FFF782FAA06BE16B884207D3022D05D0A8
:10678000049808B3B8F1000F21D025E02A465146FD
:106790002046FEF72EFDA16C21B129462046FEF7CA
:1067A000DDFE05E0616A19B104F1240000F0A6FBEA
:1067B00020B13E60BFF34F8FBFF36F8FFFF77CFABE
:1067C000012006B0BDE8F087FFF776FA22E06846C0
:1067D000FFF72AFC4FF00108FFF76EFAFFF754FDB0
:1067E000FFF74AFA94F94400401C01D184F8449020
:1067F00094F94500401C01D184F84590FFF75CFAFC
:1068000004A9684600F0F4F930B12046FFF730F8EB
:1068100000F0ACFB0020D4E7FFF72EFAA06BE16B91
:10682000884213D1FFF748FA04F110000499FFF7EA
:1068300009FC2046FFF71CF800F098FB002897D1D0
:106840003E60BFF34F8FBFF36F8F91E7FFF734FACE
:106850002046FFF70DF800F089FB89E704ED00E022
:106860002DE9F047984617468946040003D0B9F150
:10687000000F08D011E0502080F31188BFF34F8F34
:10688000BFF36F8FFEE7206C38B1502080F3118882
:10689000BFF34F8FBFF36F8FFEE7B8F1020F0AD13E
:1068A000E06B012807D0502080F31188BFF34F8F91
:1068B000BFF36F8FFEE7FFF753FA5020EFF3118617
:1068C00080F31188BFF34F8FBFF36F8FA06BE16B25
:1068D000884207D3B8F1020F04D0002086F3118854
:1068E000BDE8F08794F94550424649462046FEF7F8
:1068F00080FC681C04D06D1C84F845500120EDE735
:10690000A06C012520B141462046FEF727FE06E097
:10691000606A0028F2D004F1240000F0EFFA0028A9
:10692000ECD0002FEAD03D60E8E700002DE9F74702
:10693000002683B08A46040003D0BAF1000F08D0C5
:1069400011E0502080F31188BFF34F8FBFF36F8F9A
:10695000FEE7206C38B1502080F31188BFF34F8FD1
:10696000BFF36F8FFEE700F0D5F9DFF8F4804FF04A
:1069700000094FF0805748B9059838B1502080F38E
:106980001188BFF34F8FBFF36F8FFEE7FFF774F9E6
:10699000A56BC5B151462046FEF718FC6D1EA563D8
:1069A000206950B104F1100000F0A8FA28B1C8F82D
:1069B0000070BFF34F8FBFF36F8FFFF77DF901209A
:1069C00006B0BDE8F087059808B11EB106E0FFF7F4
:1069D00073F927E06846FFF727FB0126FFF76CF9FC
:1069E000FFF752FCFFF748F994F94400401C01D12D
:1069F00084F8449094F94500401C01D184F84590F6
:106A0000FFF75AF905A9684600F0F2F80028204679
:106A10000AD0FEF72DFF00F0A9FA2046FEF764FD2C
:106A20000028B3D00020CBE7FEF75EFD90B104F163
:106A300024000599FFF706FB2046FEF719FF00F03A
:106A400095FA0028A2D1C8F80070BFF34F8FBFF3AA
:106A50006F8F9BE72046FEF70BFF00F087FA95E764
:106A600004ED00E008B5002200920A466946FFF7EF
:106A70005DFF009808BD00002DE9F343002683B0B8
:106A80000400354609D0206C78B1502080F311887D
:106A9000BFF34F8FBFF36F8FFEE7502080F3118855
:106AA000BFF34F8FBFF36F8FFEE700F033F9DFF8CE
:106AB0003C814FF000094FF0805748B9049838B135
:106AC000502080F31188BFF34F8FBFF36F8FFEE725
:106AD000FFF7D2F8A06BC8B1401EA063206810B9C0
:106AE000FEF780FF6060206950B104F1100000F0F3
:106AF00005FA28B1C8F80070BFF34F8FBFF36F8F4E
:106B0000FFF7DAF8012005B0BDE8F083049808B17A
:106B100066B10FE03DB1502080F31188BFF34F8F75
:106B2000BFF36F8FFEE7FFF7C7F85DE06846FFF73A
:106B30007BFA0126FFF7C0F8FFF7A6FBFFF79CF8EA
:106B400094F94400401C01D184F8449094F9450024
:106B5000401C01D184F84590FFF7AEF804A96846BF
:106B600000F046F80028204612D0FEF781FE00F023
:106B7000FDF92046FEF7B8FC0028A9D09DB3FFF729
:106B80007BF8606A50B3206B0068C0F1380126E0E2
:106B9000FEF7AAFCE0B1206838B9FFF76DF860682D
:106BA00000F070F90546FFF787F804F12400049916
:106BB000FFF748FA2046FEF75BFE00F0D7F9002801
:106BC00086D1C8F80070BFF34F8FBFF36F8F7FE798
:106BD0002046FEF74DFE00F0C9F979E70021606814
:106BE000FFF78CFA9FE7FFE700208CE704ED00E059
:106BF0002DE9F0410C46050011D0C4B1FFF73CF877
:106C0000174B5A696E682068911B471C17D02F6874
:106C10009B6A9F4219D0964217D8012410E0502059
:106C200080F31188BFF34F8FBFF36F8FFEE75020C3
:106C300080F31188BFF34F8FBFF36F8FFEE70024FF
:106C4000FFF73AF82046BDE8F081884205D9401A9E
:106C500020602846FFF7E8F9F1E700202060DCE734
:106C6000200000202DE9FF5F8346DDE90E8799466D
:106C700016468A469000FEF749FE05001CD06020AB
:106C8000FEF744FE040014D00020256384F85D0064
:106C9000CDE90240CDE900874B4632465146584681
:106CA000FEF76FFB2046FEF7FDF9012004B0BDE8BA
:106CB000F09F2846FFF714F84FF0FF30F6E7F0B5E5
:106CC00085B0DDE90B640A9DA6B1DCB160270097B1
:106CD0002663022684F85D60002604AFCDE90246F3
:106CE000CDE90057FEF74DFB2046FEF7DBF904988F
:106CF00005B0F0BD502080F31188BFF34F8FBFF374
:106D00006F8FFEE7502080F31188BFF34F8FBFF3E2
:106D10006F8FFEE70548C16919B1806B18B100207B
:106D200070470120704702207047000020000020BB
:106D30000148406970470000200000202DE9F04123
:106D40002E4C0027A06B40B1206A401C2062606A74
:106D500000B101273846BDE8F0816669761C66619E
:106D600013D16068006838B1502080F31188BFF3F8
:106D70004F8FBFF36F8FFEE76068A1686160A0600E
:106D8000A06A401CA062FEF7DFFC206BDFF8708079
:106D9000864209D36068006880B16068C068C568D1
:106DA000686886420DD220632068C06A00EB8001CB
:106DB00058F821000128CAD90127C8E74FF0FF3051
:106DC000F1E7281DFEF788FEA86A18B105F1180042
:106DD000FEF782FEE86AA169884200D9A06100EB53
:106DE000800108EB8100291DFEF73AFFE86A21685F
:106DF000C96A8842CED30127CCE7000020000020DA
:106E0000A80B002070B504004FF0000133D01B4DDB
:106E10002868844207D0502080F31188BFF34F8F39
:106E2000BFF36F8FFEE7206D38B1401E2065E36C25
:106E3000E26A9A421FD040B11DE0502080F31188D1
:106E4000BFF34F8FBFF36F8FFEE7201DFEF744FEA9
:106E5000E06CE062C0F13800A061E06AA969884294
:106E600000D9A861064900EB800001EB8000211DDC
:106E7000FEF7F6FE0121084670BD0000200000204C
:106E8000A80B002070B504004FF000002BD0194D66
:106E9000E16A2A68D26A914226D2A069002804DBFE
:106EA0002868C06AC0F13800A061134E01EB81016F
:106EB000606906EB8101884211D1201DFEF70CFEAE
:106EC0002868C06AE062A969884200D9A86100EB1D
:106ED000800006EB8000211DFEF7C2FE02E028685C
:106EE000C06AE062012070BDE16C2A68D26A9142FA
:106EF000F8D370BD20000020A80B002070B5C0683A
:106F0000C46854B104F118000646FEF7E5FD144DBF
:106F1000A86B50B13146134815E0502080F311881A
:106F2000BFF34F8FBFF36F8FFEE7201DFEF7D4FD39
:106F3000E06AA969884200D9A8610B4900EB80008A
:106F400001EB8000211DFEF78BFEE06A2968C96A0B
:106F5000884202D90120686270BD002070BD000027
:106F60002000002030100020A80B00202DE9F04761
:106F70002C4D00242746A86B38B1FEF77DFEA86B88
:106F8000401EA863A86B40B146E0502080F31188F2
:106F9000BFF34F8FBFF36F8FFEE72969224E0120A9
:106FA000D1B3A6F5916980463068E0B1F068C46855
:106FB00004F11800FEF790FD201DFEF78DFDE06A3C
:106FC000A969884200D9A86100EB800109EB810022
:106FD000211DFEF745FEE06A2968C96A8842E3D3AD
:106FE000C5F82480E0E70CB1FEF7AEFB2C6A4CB18B
:106FF0004FEA0806FFF7A2FE00B16E62641EF9D1E7
:1070000000202862686A38B10849012738070860FB
:10701000BFF34F8FBFF36F8FFEF74EFE3846BDE8CC
:10702000F0870000200000203010002004ED00E078
:107030002DE9FC4781461E461746884630200A9DAA
:10704000FEF764FC04000AD0CDE9005433463A460A
:1070500041464846FEF7E4F9002084F82C0020461B
:10706000BDE8FC8710B586B0FEF784F8114CA06827
:10707000B8B100200390049005AA04A903A8FEF764
:10708000ABFDDDE9032102208DE8070000230AA102
:107090000B48059AFFF713FEE06010B106B001201F
:1070A00010BD502080F31188BFF34F8FBFF36F8F57
:1070B000FEE7000064000020546D722053766300E8
:1070C0004D5800082DE9FF411E46134602000A9D57
:1070D0004FF0000016D0144CA768002F0FD0CDE958
:1070E00000130292062917DAFFF714FE02284FF068
:1070F00000030FD000226946A068FFF7FBFA04B036
:10710000BDE8F081502080F31188BFF34F8FBFF3AB
:107110006F8FFEE72A46EEE700233246694638467F
:10712000FFF79EFBEBE70000640000201FB51C4644
:107130006FF00103CDE90030CDE9021204480023CD
:10714000224669468068FFF78BFB04B010BD000043
:1071500064000020AC7B000800000000000000007C
:107160000000000000000000000200001800000005
:1071700000000000000000000102020304050607F1
:1071800008090A0B0C0D0E0F101000000000000083
:1071900000000102030406070809000000000102C4
:1071A00003040000000000000000000000000000D8
:1071B000000000FE020202020202003F2020202006
:1071C000202000000000000000000000000000007F
:1071D000000000FE020202020202003F20202020E6
:1071E000202000FE020202020202003F2020202096
:1071F000202000FE020202020202003F2020202086
:10720000202000FE020202020202003F2020202075
:10721000202000FE020202020202003F2020202065
:10722000202000FE020202020202003F2020202055
:10723000202000000000000000000000000000000E
:10724000000000000000000000000000000000003E
:10725000000000000000000000000000000000002E
:10726000000000FE020202020202003F2020202055
:10727000202000FE020202020202003F2020202005
:10728000202000FE020202020202003F20202020F5
:10729000202000FE020202020202003F20202020E5
:1072A000202000FE020202020202003F20202020D5
:1072B000202000FE020202020202003F20202020C5
:1072C000202000FE020202020202003F20202020B5
:1072D000202000FE020202020202003F20202020A5
:1072E000202000FE020202020202003F2020202095
:1072F000202000FE020202020202003F2020202085
:10730000202000FE020202020202003F2020202074
:10731000202000FE020202020202003F2020202064
:10732000202000FE020202020202003F2020202054
:10733000202000FE020202020202003F2020202044
:10734000202000FE020202020202003F2020202034
:10735000202000FE020202020202003F2020202024
:1073600020200000000000000000000000000000DD
:10737000000000000000000000000000000000000D
:1073800000000000000000000000000000000000FD
:1073900000000000000000000000000000000000ED
:1073A00000000000000000000000000000000000DD
:1073B0000000000000F800000000000000330000A2
:1073C000000000100C02100C020000000000000081
:1073D00000000040C07840C0780000043F04043F33
:1073E000040000708888FC08300000182020FF216D
:1073F0001E00F008F0806018000000310C031E2110
:107400001E0000F00888700000001E21232C1927A0
:10741000211000120E00000000000000000000001B
:107420000000000000E0180402000000000718201F
:10743000400000020418E00000000040201807008F
:107440000000404080F0804040000202010F010235
:10745000020000000000E0000000000101010F0137
:10746000010100000000000000000090700000001A
:107470000000000000000000000000010101010107
:10748000010000000000000000000030300000009B
:10749000000000000000C038040000601807000071
:1074A000000000E010080810E000000F102020107D
:1074B0000F0000001010F8000000000020203F2006
:1074C0002000007008080808F0000030282422215D
:1074D00030000030080808887000001820212122A0
:1074E0001C000000804030F8000000060524243F06
:1074F000242400F88888880808000019202020111A
:107500000E0000E0108888900000000F112020205D
:107510001F0000180808886818000000003E0100DD
:1075200000000070880808887000001C22212122B9
:107530001C0000F008080810E000000112222211CF
:107540000F00000000C0C00000000000003030004C
:1075500000000000008000000000000000E00000CB
:107560000000000080402010080000010204081004
:107570002000004040404040400000020202020261
:1075800002000008102040800000002010080402C3
:1075900001000070480808887000000000303700C3
:1075A0000000C030C828E810E000071827282F285E
:1075B00017000000C038E0000000203C2302022732
:1075C000382008F8888888700000203F202020118B
:1075D0000E00C030080808083800071820202010C6
:1075E000080008F808080810E000203F20202010BC
:1075F0000F0008F88888E8081000203F202023208A
:10760000180008F88888E8081000203F20000300D0
:107610000000C03008080838000007182020221E8B
:10762000020008F808000008F808203F21010121A5
:107630003F20000808F8080800000020203F202014
:10764000000000000808F8080800C08080807F0063
:10765000000008F888C028180800203F20012638BC
:10766000200008F8080000000000203F2020202013
:10767000300008F8F800F8F80800203F013E013F0C
:10768000200008F830C00008F808203F2000071844
:107690003F00E01008080810E0000F102020201024
:1076A0000F0008F808080808F000203F2101010138
:1076B0000000E01008080810E0000F1028283050E3
:1076C0004F0008F8888888887000203F2000030C4D
:1076D0003020007088080808380000382021212256
:1076E0001C00180808F8080818000000203F2000B7
:1076F000000008F808000008F808001F20202020DB
:107700001F000878880000C83808000007380E01FC
:10771000000008F800F800F8080000033E013E03EE
:107720000000081868808068180820302C03032C9B
:1077300030200838C800C83808000000203F20006A
:10774000000010080808C83808002038262120202A
:107750001800000000FE020202000000007F40400E
:107760004000000438C0000000000000000106389E
:10777000C00000020202FE000000004040407F0006
:1077800000000000040202040000000000000000ED
:1077900000000000000000000000808080808080E9
:1077A00080800002020400000000000000000000D1
:1077B0000000000080808000000000192424123F97
:1077C000200010F0008080000000003F11202011F8
:1077D0000E000000008080800000000E112020209C
:1077E0001100000080808090F000001F20202010F9
:1077F0003F200000808080800000001F242424247B
:107800001700008080E0909020000020203F202082
:1078100000000000808080808000006B949494932E
:10782000600010F0008080800000203F21000020D8
:107830003F2000809898000000000020203F20207A
:107840000000000000809898000000C08080807FC9
:10785000000010F0000080808000203F24062930C6
:107860002000001010F8000000000020203F202021
:1078700000008080808080808000203F20003F20AA
:10788000003F8080008080800000203F2100002099
:107890003F200000808080800000001F20202020EA
:1078A0001F00808000808000000080FF9120201158
:1078B0000E000000008080008000000E112020914A
:1078C000FF80808080008080800020203F21200079
:1078D0000100000080808080800000332424242464
:1078E0001900008080E0808000000000001F202040
:1078F00010008080000000808000001F20202010E9
:107900003F20808080008080800000030C300C03CA
:1079100000008080008080008080010E300C0738DD
:10792000060100808080008080000020310E2E3112
:10793000200080808000008080800081867818068A
:10794000010000808080808080000021302C222176
:1079500030000000000000FC020200000000013EB8
:10796000404000000000FF00000000000000FF0099
:1079700000000202FC000000000040403E01000048
:1079800000000002010202040200000000000000EA
:1079900000000000000000000000000000000000E7
:1079A000000003030707076070501030F0F030103C
:1079B00050706000000000000000000000000006A1
:1079C0000F1F3E1F0F060000000000005F000000B8
:1079D0000007000700147F147F14242A7F2A122333
:1079E00013086462364955225000050300001C222A
:1079F00041000041221C0000082A1C2A0808083EF9
:107A00000808A0600000000808080808606000007E
:107A10000020100804023E5149453E00427F4000CC
:107A2000625149494622414949361814127F1027AC
:107A3000454545393C4A49493001710905033649F4
:107A4000494936064949291E003636000000AC6C0B
:107A500000000814224100141414141441221408C4
:107A6000000201510906324979413E7E0909097E29
:107A70007F494949363E414141227F4141221C7F95
:107A8000494949417F090909013E414151727F0835
:107A900008087F417F4100002040413F017F0814DA
:107AA00022417F404040407F020C027F7F0408104B
:107AB0007F3E4141413E7F090909063E4151215E19
:107AC0007F09192946264949493201017F01013FB1
:107AD0004040403F1F2040201F3F4038403F63143C
:107AE000081463030478040361514945437F41410D
:107AF0000000020408102041417F0000040201023E
:107B00000480808080800102040000205454547856
:107B10007F484444383844442800384444487F3837
:107B200054545418087E09020018A4A4A47C7F08A9
:107B3000040478007D00000080847D00007F102810
:107B40004400417F4000007C041804787C08047CD9
:107B5000003844443800FC24241800182424FC0075
:107B6000007C0804004854542400047F4400003C76
:107B700040407C001C2040201C3C4030403C4428BD
:107B80001028441CA0A07C004464544C4408364196
:107B90000000007F000000413608000002010102E1
:107BA00001020505020060C0F0381C0064656661D2
:107BB000756C745461736B00D87B00080000002062
:107BC0006C010000DC040008007C00086C0100204F
:107BD0009C430000804200080110320182100379AA
:107BE00024F41AAA014132021364062A20048113E4
:107BF00010071B205804013C0A11E84029FC015CD5
:04000005080000ED02
:00000001FF
