Component: ARM Compiler 5.06 update 5 (build 528) Tool: armlink [4d35e2]

==============================================================================

Section Cross References

    startup_stm32f103xb.o(RESET) refers to startup_stm32f103xb.o(STACK) for __initial_sp
    startup_stm32f103xb.o(RESET) refers to startup_stm32f103xb.o(.text) for Reset_Handler
    startup_stm32f103xb.o(RESET) refers to stm32f1xx_it.o(i.NMI_Handler) for NMI_Handler
    startup_stm32f103xb.o(RESET) refers to stm32f1xx_it.o(i.HardFault_Handler) for HardFault_Handler
    startup_stm32f103xb.o(RESET) refers to stm32f1xx_it.o(i.MemManage_Handler) for MemManage_Handler
    startup_stm32f103xb.o(RESET) refers to stm32f1xx_it.o(i.BusFault_Handler) for BusFault_Handler
    startup_stm32f103xb.o(RESET) refers to stm32f1xx_it.o(i.UsageFault_Handler) for UsageFault_Handler
    startup_stm32f103xb.o(RESET) refers to port.o(.emb_text) for SVC_Handler
    startup_stm32f103xb.o(RESET) refers to stm32f1xx_it.o(i.DebugMon_Handler) for DebugMon_Handler
    startup_stm32f103xb.o(RESET) refers to port.o(i.SysTick_Handler) for SysTick_Handler
    startup_stm32f103xb.o(RESET) refers to stm32f1xx_it.o(i.EXTI9_5_IRQHandler) for EXTI9_5_IRQHandler
    startup_stm32f103xb.o(RESET) refers to stm32f1xx_it.o(i.TIM4_IRQHandler) for TIM4_IRQHandler
    startup_stm32f103xb.o(RESET) refers to stm32f1xx_it.o(i.EXTI15_10_IRQHandler) for EXTI15_10_IRQHandler
    startup_stm32f103xb.o(.text) refers to system_stm32f1xx.o(i.SystemInit) for SystemInit
    startup_stm32f103xb.o(.text) refers to entry.o(.ARM.Collect$$$$00000000) for __main
    music.o(i.MUSIC_Analysis) refers to driver_passive_buzzer.o(i.PassiveBuzzer_Set_Freq_Duty) for PassiveBuzzer_Set_Freq_Duty
    music.o(i.MUSIC_Analysis) refers to tasks.o(i.vTaskDelay) for vTaskDelay
    music.o(i.MUSIC_Analysis) refers to music.o(.data) for .data
==============================================================================

Removing Unused input sections from the image.

    Removing music.o(i.MUSIC_Analysis), (80 bytes).
    Removing music.o(i.PlayMusic), (10 bytes).
    Removing music.o(.data), (3990 bytes).
    Removing main.o(.rev16_text), (4 bytes).
    Removing main.o(.revsh_text), (4 bytes).
    Removing main.o(.rrx_text), (6 bytes).
    Removing gpio.o(.rev16_text), (4 bytes).
    Removing gpio.o(.revsh_text), (4 bytes).
    Removing gpio.o(.rrx_text), (6 bytes).
    Removing freertos.o(.rev16_text), (4 bytes).
    Removing freertos.o(.revsh_text), (4 bytes).
    Removing freertos.o(.rrx_text), (6 bytes).
    Removing adc.o(.rev16_text), (4 bytes).
    Removing adc.o(.revsh_text), (4 bytes).
    Removing adc.o(.rrx_text), (6 bytes).
    Removing adc.o(i.HAL_ADC_MspDeInit), (40 bytes).
    Removing i2c.o(.rev16_text), (4 bytes).
    Removing i2c.o(.revsh_text), (4 bytes).
==============================================================================

Image Symbol Table

    Local Symbols

    Symbol Name                              Value     Ov Type        Size  Object(Section)

    ../Core/Src/adc.c                        0x00000000   Number         0  adc.o ABSOLUTE
    ../Core/Src/freertos.c                   0x00000000   Number         0  freertos.o ABSOLUTE
    ../Core/Src/gpio.c                       0x00000000   Number         0  gpio.o ABSOLUTE
    ../Core/Src/i2c.c                        0x00000000   Number         0  i2c.o ABSOLUTE
    ../Core/Src/main.c                       0x00000000   Number         0  main.o ABSOLUTE
    ../Core/Src/spi.c                        0x00000000   Number         0  spi.o ABSOLUTE
    ../Core/Src/stm32f1xx_hal_msp.c          0x00000000   Number         0  stm32f1xx_hal_msp.o ABSOLUTE
    ../Core/Src/stm32f1xx_hal_timebase_tim.c 0x00000000   Number         0  stm32f1xx_hal_timebase_tim.o ABSOLUTE
    ../Core/Src/stm32f1xx_it.c               0x00000000   Number         0  stm32f1xx_it.o ABSOLUTE
    ../Core/Src/system_stm32f1xx.c           0x00000000   Number         0  system_stm32f1xx.o ABSOLUTE
    ../Core/Src/tim.c                        0x00000000   Number         0  tim.o ABSOLUTE
    ../Core/Src/usart.c                      0x00000000   Number         0  usart.o ABSOLUTE
    ../Core/Src/usb.c                        0x00000000   Number         0  usb.o ABSOLUTE
    ../Drivers/STM32F1xx_HAL_Driver/Src/stm32f1xx_hal.c 0x00000000   Number         0  stm32f1xx_hal.o ABSOLUTE
    ../Drivers/STM32F1xx_HAL_Driver/Src/stm32f1xx_hal_adc.c 0x00000000   Number         0  stm32f1xx_hal_adc.o ABSOLUTE
    ../Drivers/STM32F1xx_HAL_Driver/Src/stm32f1xx_hal_adc_ex.c 0x00000000   Number         0  stm32f1xx_hal_adc_ex.o ABSOLUTE
    ../Drivers/STM32F1xx_HAL_Driver/Src/stm32f1xx_hal_cortex.c 0x00000000   Number         0  stm32f1xx_hal_cortex.o ABSOLUTE
    ../Drivers/STM32F1xx_HAL_Driver/Src/stm32f1xx_hal_dma.c 0x00000000   Number         0  stm32f1xx_hal_dma.o ABSOLUTE
    ../Drivers/STM32F1xx_HAL_Driver/Src/stm32f1xx_hal_exti.c 0x00000000   Number         0  stm32f1xx_hal_exti.o ABSOLUTE
    ../Drivers/STM32F1xx_HAL_Driver/Src/stm32f1xx_hal_flash.c 0x00000000   Number         0  stm32f1xx_hal_flash.o ABSOLUTE
    ../Drivers/STM32F1xx_HAL_Driver/Src/stm32f1xx_hal_flash_ex.c 0x00000000   Number         0  stm32f1xx_hal_flash_ex.o ABSOLUTE
    ../Drivers/STM32F1xx_HAL_Driver/Src/stm32f1xx_hal_gpio.c 0x00000000   Number         0  stm32f1xx_hal_gpio.o ABSOLUTE
    ../Drivers/STM32F1xx_HAL_Driver/Src/stm32f1xx_hal_gpio_ex.c 0x00000000   Number         0  stm32f1xx_hal_gpio_ex.o ABSOLUTE
    ../Drivers/STM32F1xx_HAL_Driver/Src/stm32f1xx_hal_i2c.c 0x00000000   Number         0  stm32f1xx_hal_i2c.o ABSOLUTE
    ../Drivers/STM32F1xx_HAL_Driver/Src/stm32f1xx_hal_pcd.c 0x00000000   Number         0  stm32f1xx_hal_pcd.o ABSOLUTE
    ../Drivers/STM32F1xx_HAL_Driver/Src/stm32f1xx_hal_pcd_ex.c 0x00000000   Number         0  stm32f1xx_hal_pcd_ex.o ABSOLUTE
    ../Drivers/STM32F1xx_HAL_Driver/Src/stm32f1xx_hal_pwr.c 0x00000000   Number         0  stm32f1xx_hal_pwr.o ABSOLUTE
    ../Drivers/STM32F1xx_HAL_Driver/Src/stm32f1xx_hal_rcc.c 0x00000000   Number         0  stm32f1xx_hal_rcc.o ABSOLUTE
    ../Drivers/STM32F1xx_HAL_Driver/Src/stm32f1xx_hal_rcc_ex.c 0x00000000   Number         0  stm32f1xx_hal_rcc_ex.o ABSOLUTE
    ../Drivers/STM32F1xx_HAL_Driver/Src/stm32f1xx_hal_spi.c 0x00000000   Number         0  stm32f1xx_hal_spi.o ABSOLUTE
    ../Drivers/STM32F1xx_HAL_Driver/Src/stm32f1xx_hal_tim.c 0x00000000   Number         0  stm32f1xx_hal_tim.o ABSOLUTE
    ../Drivers/STM32F1xx_HAL_Driver/Src/stm32f1xx_hal_tim_ex.c 0x00000000   Number         0  stm32f1xx_hal_tim_ex.o ABSOLUTE
    ../Drivers/STM32F1xx_HAL_Driver/Src/stm32f1xx_hal_uart.c 0x00000000   Number         0  stm32f1xx_hal_uart.o ABSOLUTE
    ../Drivers/STM32F1xx_HAL_Driver/Src/stm32f1xx_ll_usb.c 0x00000000   Number         0  stm32f1xx_ll_usb.o ABSOLUTE
    ../Middlewares/Third_Party/FreeRTOS/Source/CMSIS_RTOS_V2/cmsis_os2.c 0x00000000   Number         0  cmsis_os2.o ABSOLUTE
    ../Middlewares/Third_Party/FreeRTOS/Source/croutine.c 0x00000000   Number         0  croutine.o ABSOLUTE
    ../Middlewares/Third_Party/FreeRTOS/Source/event_groups.c 0x00000000   Number         0  event_groups.o ABSOLUTE
    ../Middlewares/Third_Party/FreeRTOS/Source/list.c 0x00000000   Number         0  list.o ABSOLUTE
    ../Middlewares/Third_Party/FreeRTOS/Source/portable/MemMang/heap_4.c 0x00000000   Number         0  heap_4.o ABSOLUTE
    ../Middlewares/Third_Party/FreeRTOS/Source/portable/RVDS/ARM_CM3/port.c 0x00000000   Number         0  port.o ABSOLUTE
    ../Middlewares/Third_Party/FreeRTOS/Source/queue.c 0x00000000   Number         0  queue.o ABSOLUTE
    ../Middlewares/Third_Party/FreeRTOS/Source/stream_buffer.c 0x00000000   Number         0  stream_buffer.o ABSOLUTE
    ../Middlewares/Third_Party/FreeRTOS/Source/tasks.c 0x00000000   Number         0  tasks.o ABSOLUTE
    ../Middlewares/Third_Party/FreeRTOS/Source/timers.c 0x00000000   Number         0  timers.o ABSOLUTE
    ../clib/../cmprslib/zerorunl2.c          0x00000000   Number         0  __dczerorl2.o ABSOLUTE
    ../clib/microlib/division.c              0x00000000   Number         0  uldiv.o ABSOLUTE
    ../clib/microlib/division.c              0x00000000   Number         0  uidiv.o ABSOLUTE
    ../clib/microlib/init/entry.s            0x00000000   Number         0  entry7a.o ABSOLUTE
    ../clib/microlib/init/entry.s            0x00000000   Number         0  entry5.o ABSOLUTE
    ../clib/microlib/init/entry.s            0x00000000   Number         0  entry2.o ABSOLUTE
    ../clib/microlib/init/entry.s            0x00000000   Number         0  entry.o ABSOLUTE
    ../clib/microlib/init/entry.s            0x00000000   Number         0  entry11b.o ABSOLUTE
    ../clib/microlib/init/entry.s            0x00000000   Number         0  entry11a.o ABSOLUTE
    ../clib/microlib/init/entry.s            0x00000000   Number         0  entry10b.o ABSOLUTE
    ../clib/microlib/init/entry.s            0x00000000   Number         0  entry10a.o ABSOLUTE
    ../clib/microlib/init/entry.s            0x00000000   Number         0  entry9b.o ABSOLUTE
    ../clib/microlib/init/entry.s            0x00000000   Number         0  entry9a.o ABSOLUTE
    ../clib/microlib/init/entry.s            0x00000000   Number         0  entry8b.o ABSOLUTE
    ../clib/microlib/init/entry.s            0x00000000   Number         0  entry8a.o ABSOLUTE
    ../clib/microlib/init/entry.s            0x00000000   Number         0  entry7b.o ABSOLUTE
    ../clib/microlib/longlong.c              0x00000000   Number         0  llshl.o ABSOLUTE
    ../clib/microlib/longlong.c              0x00000000   Number         0  llsshr.o ABSOLUTE
    ../clib/microlib/longlong.c              0x00000000   Number         0  llushr.o ABSOLUTE
    ../clib/microlib/malloc/malloc.c         0x00000000   Number         0  malloc.o ABSOLUTE
    ../clib/microlib/malloc/malloc.c         0x00000000   Number         0  mallocr.o ABSOLUTE
    ../clib/microlib/malloc/malloc.c         0x00000000   Number         0  malloca.o ABSOLUTE
    ../clib/microlib/malloc/malloc.c         0x00000000   Number         0  mallocra.o ABSOLUTE
    ../clib/microlib/malloc/mvars.c          0x00000000   Number         0  mvars.o ABSOLUTE
    ../clib/microlib/printf/printf.c         0x00000000   Number         0  printf8.o ABSOLUTE
    ../clib/microlib/printf/printf.c         0x00000000   Number         0  printf2.o ABSOLUTE
    ../clib/microlib/printf/printf.c         0x00000000   Number         0  printfa.o ABSOLUTE
    ../clib/microlib/printf/printf.c         0x00000000   Number         0  printfb.o ABSOLUTE
    ../clib/microlib/printf/printf.c         0x00000000   Number         0  printf5.o ABSOLUTE
    ../clib/microlib/printf/printf.c         0x00000000   Number         0  printf6.o ABSOLUTE
    ../clib/microlib/printf/printf.c         0x00000000   Number         0  printf1.o ABSOLUTE
    ../clib/microlib/printf/printf.c         0x00000000   Number         0  printf0.o ABSOLUTE
    ../clib/microlib/printf/printf.c         0x00000000   Number         0  printf7.o ABSOLUTE
    ../clib/microlib/printf/printf.c         0x00000000   Number         0  printf3.o ABSOLUTE
    ../clib/microlib/printf/printf.c         0x00000000   Number         0  printf4.o ABSOLUTE
    ../clib/microlib/printf/stubs.s          0x00000000   Number         0  stubs.o ABSOLUTE
    ../clib/microlib/stdio/streams.c         0x00000000   Number         0  stdout.o ABSOLUTE
    ../clib/microlib/stdlib/rand.c           0x00000000   Number         0  rand.o ABSOLUTE
    ../clib/microlib/string/memcpy.c         0x00000000   Number         0  memcpyb.o ABSOLUTE
    ../clib/microlib/string/memcpy.c         0x00000000   Number         0  memcpya.o ABSOLUTE
    ../clib/microlib/string/memset.c         0x00000000   Number         0  memset.o ABSOLUTE
    ../clib/microlib/string/memset.c         0x00000000   Number         0  memseta.o ABSOLUTE
    ../clib/microlib/string/strcpy.c         0x00000000   Number         0  strcpy.o ABSOLUTE
    ../clib/microlib/string/strlen.c         0x00000000   Number         0  strlen.o ABSOLUTE
    ../clib/microlib/stubs.s                 0x00000000   Number         0  iusefp.o ABSOLUTE
    ../fplib/microlib/fpadd.c                0x00000000   Number         0  dadd.o ABSOLUTE
    ../fplib/microlib/fpadd.c                0x00000000   Number         0  fadd.o ABSOLUTE
    ../fplib/microlib/fpdiv.c                0x00000000   Number         0  ddiv.o ABSOLUTE
    ../fplib/microlib/fpepilogue.c           0x00000000   Number         0  depilogue.o ABSOLUTE
    ../fplib/microlib/fpepilogue.c           0x00000000   Number         0  fepilogue.o ABSOLUTE
    ../fplib/microlib/fpfix.c                0x00000000   Number         0  dfixi.o ABSOLUTE
    ../fplib/microlib/fpfix.c                0x00000000   Number         0  dfixul.o ABSOLUTE
    ../fplib/microlib/fpfix.c                0x00000000   Number         0  ffixui.o ABSOLUTE
    ../fplib/microlib/fpflt.c                0x00000000   Number         0  dflti.o ABSOLUTE
    ../fplib/microlib/fpflt.c                0x00000000   Number         0  fflti.o ABSOLUTE
    ../fplib/microlib/fpflt.c                0x00000000   Number         0  ffltui.o ABSOLUTE
    ../fplib/microlib/fpmul.c                0x00000000   Number         0  dmul.o ABSOLUTE
    ../fplib/microlib/fpscalb.c              0x00000000   Number         0  fscalb.o ABSOLUTE
    ..\Core\Src\adc.c                        0x00000000   Number         0  adc.o ABSOLUTE
    ..\Core\Src\freertos.c                   0x00000000   Number         0  freertos.o ABSOLUTE
    ..\Core\Src\gpio.c                       0x00000000   Number         0  gpio.o ABSOLUTE
    ..\Core\Src\i2c.c                        0x00000000   Number         0  i2c.o ABSOLUTE
    ..\Core\Src\main.c                       0x00000000   Number         0  main.o ABSOLUTE
    ..\Core\Src\music.c                      0x00000000   Number         0  music.o ABSOLUTE
    ..\Core\Src\spi.c                        0x00000000   Number         0  spi.o ABSOLUTE
    ..\Core\Src\stm32f1xx_hal_msp.c          0x00000000   Number         0  stm32f1xx_hal_msp.o ABSOLUTE
    ..\Core\Src\stm32f1xx_hal_timebase_tim.c 0x00000000   Number         0  stm32f1xx_hal_timebase_tim.o ABSOLUTE
    ..\Core\Src\stm32f1xx_it.c               0x00000000   Number         0  stm32f1xx_it.o ABSOLUTE
    ..\Core\Src\system_stm32f1xx.c           0x00000000   Number         0  system_stm32f1xx.o ABSOLUTE
    ..\Core\Src\tim.c                        0x00000000   Number         0  tim.o ABSOLUTE
    ..\Core\Src\usart.c                      0x00000000   Number         0  usart.o ABSOLUTE
    ..\Core\Src\usb.c                        0x00000000   Number         0  usb.o ABSOLUTE
    ..\Drivers\DshanMCU-F103\driver_active_buzzer.c 0x00000000   Number         0  driver_active_buzzer.o ABSOLUTE
    ..\Drivers\DshanMCU-F103\driver_color_led.c 0x00000000   Number         0  driver_color_led.o ABSOLUTE
    ..\Drivers\DshanMCU-F103\driver_dht11.c  0x00000000   Number         0  driver_dht11.o ABSOLUTE
    ..\Drivers\DshanMCU-F103\driver_ds18b20.c 0x00000000   Number         0  driver_ds18b20.o ABSOLUTE
    ..\Drivers\DshanMCU-F103\driver_ir_obstacle.c 0x00000000   Number         0  driver_ir_obstacle.o ABSOLUTE
    ..\Drivers\DshanMCU-F103\driver_ir_receiver.c 0x00000000   Number         0  driver_ir_receiver.o ABSOLUTE
    ..\Drivers\DshanMCU-F103\driver_ir_sender.c 0x00000000   Number         0  driver_ir_sender.o ABSOLUTE
    ..\Drivers\DshanMCU-F103\driver_irq.c    0x00000000   Number         0  driver_irq.o ABSOLUTE
    ..\Drivers\DshanMCU-F103\driver_key.c    0x00000000   Number         0  driver_key.o ABSOLUTE
    ..\Drivers\DshanMCU-F103\driver_lcd.c    0x00000000   Number         0  driver_lcd.o ABSOLUTE
    ..\Drivers\DshanMCU-F103\driver_led.c    0x00000000   Number         0  driver_led.o ABSOLUTE
    ..\Drivers\DshanMCU-F103\driver_light_sensor.c 0x00000000   Number         0  driver_light_sensor.o ABSOLUTE
    ..\Drivers\DshanMCU-F103\driver_motor.c  0x00000000   Number         0  driver_motor.o ABSOLUTE
    ..\Drivers\DshanMCU-F103\driver_mpu6050.c 0x00000000   Number         0  driver_mpu6050.o ABSOLUTE
    ..\Drivers\DshanMCU-F103\driver_oled.c   0x00000000   Number         0  driver_oled.o ABSOLUTE
    ..\Drivers\DshanMCU-F103\driver_passive_buzzer.c 0x00000000   Number         0  driver_passive_buzzer.o ABSOLUTE
    ..\Drivers\DshanMCU-F103\driver_rotary_encoder.c 0x00000000   Number         0  driver_rotary_encoder.o ABSOLUTE
    ..\Drivers\DshanMCU-F103\driver_spiflash_w25q64.c 0x00000000   Number         0  driver_spiflash_w25q64.o ABSOLUTE
    ..\Drivers\DshanMCU-F103\driver_timer.c  0x00000000   Number         0  driver_timer.o ABSOLUTE
    ..\Drivers\DshanMCU-F103\driver_uart.c   0x00000000   Number         0  driver_uart.o ABSOLUTE
    ..\Drivers\DshanMCU-F103\driver_ultrasonic_sr04.c 0x00000000   Number         0  driver_ultrasonic_sr04.o ABSOLUTE
    ..\Drivers\STM32F1xx_HAL_Driver\Src\stm32f1xx_hal.c 0x00000000   Number         0  stm32f1xx_hal.o ABSOLUTE
    ..\Drivers\STM32F1xx_HAL_Driver\Src\stm32f1xx_hal_adc.c 0x00000000   Number         0  stm32f1xx_hal_adc.o ABSOLUTE
    ..\Drivers\STM32F1xx_HAL_Driver\Src\stm32f1xx_hal_adc_ex.c 0x00000000   Number         0  stm32f1xx_hal_adc_ex.o ABSOLUTE
    ..\Drivers\STM32F1xx_HAL_Driver\Src\stm32f1xx_hal_cortex.c 0x00000000   Number         0  stm32f1xx_hal_cortex.o ABSOLUTE
    ..\Drivers\STM32F1xx_HAL_Driver\Src\stm32f1xx_hal_dma.c 0x00000000   Number         0  stm32f1xx_hal_dma.o ABSOLUTE
    ..\Drivers\STM32F1xx_HAL_Driver\Src\stm32f1xx_hal_exti.c 0x00000000   Number         0  stm32f1xx_hal_exti.o ABSOLUTE
    ..\Drivers\STM32F1xx_HAL_Driver\Src\stm32f1xx_hal_flash.c 0x00000000   Number         0  stm32f1xx_hal_flash.o ABSOLUTE
    ..\Drivers\STM32F1xx_HAL_Driver\Src\stm32f1xx_hal_flash_ex.c 0x00000000   Number         0  stm32f1xx_hal_flash_ex.o ABSOLUTE
    ..\Drivers\STM32F1xx_HAL_Driver\Src\stm32f1xx_hal_gpio.c 0x00000000   Number         0  stm32f1xx_hal_gpio.o ABSOLUTE
    ..\Drivers\STM32F1xx_HAL_Driver\Src\stm32f1xx_hal_gpio_ex.c 0x00000000   Number         0  stm32f1xx_hal_gpio_ex.o ABSOLUTE
    ..\Drivers\STM32F1xx_HAL_Driver\Src\stm32f1xx_hal_i2c.c 0x00000000   Number         0  stm32f1xx_hal_i2c.o ABSOLUTE
    ..\Drivers\STM32F1xx_HAL_Driver\Src\stm32f1xx_hal_pcd.c 0x00000000   Number         0  stm32f1xx_hal_pcd.o ABSOLUTE
    ..\Drivers\STM32F1xx_HAL_Driver\Src\stm32f1xx_hal_pcd_ex.c 0x00000000   Number         0  stm32f1xx_hal_pcd_ex.o ABSOLUTE
    ..\Drivers\STM32F1xx_HAL_Driver\Src\stm32f1xx_hal_pwr.c 0x00000000   Number         0  stm32f1xx_hal_pwr.o ABSOLUTE
    ..\Drivers\STM32F1xx_HAL_Driver\Src\stm32f1xx_hal_rcc.c 0x00000000   Number         0  stm32f1xx_hal_rcc.o ABSOLUTE
    ..\Drivers\STM32F1xx_HAL_Driver\Src\stm32f1xx_hal_rcc_ex.c 0x00000000   Number         0  stm32f1xx_hal_rcc_ex.o ABSOLUTE
    ..\Drivers\STM32F1xx_HAL_Driver\Src\stm32f1xx_hal_spi.c 0x00000000   Number         0  stm32f1xx_hal_spi.o ABSOLUTE
    ..\Drivers\STM32F1xx_HAL_Driver\Src\stm32f1xx_hal_tim.c 0x00000000   Number         0  stm32f1xx_hal_tim.o ABSOLUTE
    ..\Drivers\STM32F1xx_HAL_Driver\Src\stm32f1xx_hal_tim_ex.c 0x00000000   Number         0  stm32f1xx_hal_tim_ex.o ABSOLUTE
    ..\Drivers\STM32F1xx_HAL_Driver\Src\stm32f1xx_hal_uart.c 0x00000000   Number         0  stm32f1xx_hal_uart.o ABSOLUTE
    ..\Drivers\STM32F1xx_HAL_Driver\Src\stm32f1xx_ll_usb.c 0x00000000   Number         0  stm32f1xx_ll_usb.o ABSOLUTE
    ..\Middlewares\Third_Party\FreeRTOS\Source\CMSIS_RTOS_V2\cmsis_os2.c 0x00000000   Number         0  cmsis_os2.o ABSOLUTE
    ..\Middlewares\Third_Party\FreeRTOS\Source\portable\RVDS\ARM_CM3\port.c 0x00000000   Number         0  port.o ABSOLUTE
    ..\\Drivers\\DshanMCU-F103\\driver_active_buzzer.c 0x00000000   Number         0  driver_active_buzzer.o ABSOLUTE
    ..\\Drivers\\DshanMCU-F103\\driver_color_led.c 0x00000000   Number         0  driver_color_led.o ABSOLUTE
    ..\\Drivers\\DshanMCU-F103\\driver_dht11.c 0x00000000   Number         0  driver_dht11.o ABSOLUTE
    ..\\Drivers\\DshanMCU-F103\\driver_ds18b20.c 0x00000000   Number         0  driver_ds18b20.o ABSOLUTE
    ..\\Drivers\\DshanMCU-F103\\driver_ir_obstacle.c 0x00000000   Number         0  driver_ir_obstacle.o ABSOLUTE
    ..\\Drivers\\DshanMCU-F103\\driver_ir_receiver.c 0x00000000   Number         0  driver_ir_receiver.o ABSOLUTE
    ..\\Drivers\\DshanMCU-F103\\driver_ir_sender.c 0x00000000   Number         0  driver_ir_sender.o ABSOLUTE
    ..\\Drivers\\DshanMCU-F103\\driver_irq.c 0x00000000   Number         0  driver_irq.o ABSOLUTE
    ..\\Drivers\\DshanMCU-F103\\driver_key.c 0x00000000   Number         0  driver_key.o ABSOLUTE
    ..\\Drivers\\DshanMCU-F103\\driver_led.c 0x00000000   Number         0  driver_led.o ABSOLUTE
    ..\\Drivers\\DshanMCU-F103\\driver_light_sensor.c 0x00000000   Number         0  driver_light_sensor.o ABSOLUTE
    ..\\Drivers\\DshanMCU-F103\\driver_motor.c 0x00000000   Number         0  driver_motor.o ABSOLUTE
    ..\\Drivers\\DshanMCU-F103\\driver_mpu6050.c 0x00000000   Number         0  driver_mpu6050.o ABSOLUTE
    ..\\Drivers\\DshanMCU-F103\\driver_oled.c 0x00000000   Number         0  driver_oled.o ABSOLUTE
    ..\\Drivers\\DshanMCU-F103\\driver_passive_buzzer.c 0x00000000   Number         0  driver_passive_buzzer.o ABSOLUTE
    ..\\Drivers\\DshanMCU-F103\\driver_rotary_encoder.c 0x00000000   Number         0  driver_rotary_encoder.o ABSOLUTE
    ..\\Drivers\\DshanMCU-F103\\driver_spiflash_w25q64.c 0x00000000   Number         0  driver_spiflash_w25q64.o ABSOLUTE
    ..\\Drivers\\DshanMCU-F103\\driver_timer.c 0x00000000   Number         0  driver_timer.o ABSOLUTE
    ..\\Drivers\\DshanMCU-F103\\driver_uart.c 0x00000000   Number         0  driver_uart.o ABSOLUTE
    ..\\Drivers\\DshanMCU-F103\\driver_ultrasonic_sr04.c 0x00000000   Number         0  driver_ultrasonic_sr04.o ABSOLUTE
    ..\nwatch\beep.c                         0x00000000   Number         0  beep.o ABSOLUTE
    ..\nwatch\draw.c                         0x00000000   Number         0  draw.o ABSOLUTE
    ..\nwatch\game1.c                        0x00000000   Number         0  game1.o ABSOLUTE
    ..\nwatch\game2.c                        0x00000000   Number         0  game2.o ABSOLUTE
    ..\nwatch\resources.c                    0x00000000   Number         0  resources.o ABSOLUTE
    cdrcmple.s                               0x00000000   Number         0  cdrcmple.o ABSOLUTE
    cfcmple.s                                0x00000000   Number         0  cfcmple.o ABSOLUTE
    cfrcmple.s                               0x00000000   Number         0  cfrcmple.o ABSOLUTE
    dc.s                                     0x00000000   Number         0  dc.o ABSOLUTE
    handlers.s                               0x00000000   Number         0  handlers.o ABSOLUTE
    init.s                                   0x00000000   Number         0  init.o ABSOLUTE
    startup_stm32f103xb.s                    0x00000000   Number         0  startup_stm32f103xb.o ABSOLUTE
    RESET                                    0x08000000   Section      236  startup_stm32f103xb.o(RESET)
    .ARM.Collect$$$$00000000                 0x080000ec   Section        0  entry.o(.ARM.Collect$$$$00000000)
    .ARM.Collect$$$$00000001                 0x080000ec   Section        4  entry2.o(.ARM.Collect$$$$00000001)
    .ARM.Collect$$$$00000004                 0x080000f0   Section        4  entry5.o(.ARM.Collect$$$$00000004)
    .ARM.Collect$$$$00000008                 0x080000f4   Section        0  entry7b.o(.ARM.Collect$$$$00000008)
    .ARM.Collect$$$$0000000A                 0x080000f4   Section        0  entry8b.o(.ARM.Collect$$$$0000000A)
    .ARM.Collect$$$$0000000B                 0x080000f4   Section        8  entry9a.o(.ARM.Collect$$$$0000000B)
    .ARM.Collect$$$$0000000D                 0x080000fc   Section        0  entry10a.o(.ARM.Collect$$$$0000000D)
    .ARM.Collect$$$$0000000F                 0x080000fc   Section        0  entry11a.o(.ARM.Collect$$$$0000000F)
    .ARM.Collect$$$$00002712                 0x080000fc   Section        4  entry2.o(.ARM.Collect$$$$00002712)
    __lit__00000000                          0x080000fc   Data           4  entry2.o(.ARM.Collect$$$$00002712)
    .emb_text                                0x08000100   Section      150  port.o(.emb_text)
    .text                                    0x08000198   Section       36  startup_stm32f103xb.o(.text)
    .text                                    0x080001bc   Section        0  uldiv.o(.text)
    .text                                    0x0800021e   Section        0  llushr.o(.text)
    .text                                    0x08000240   Section        0  rand.o(.text)
    .text                                    0x08000264   Section        0  memcpya.o(.text)
    .text                                    0x08000288   Section        0  memseta.o(.text)
    .text                                    0x080002ac   Section        0  strlen.o(.text)
    .text                                    0x080002ba   Section        0  strcpy.o(.text)
    .text                                    0x080002cc   Section        0  fadd.o(.text)
    .text                                    0x0800037c   Section        0  fscalb.o(.text)
    .text                                    0x08000394   Section        0  fflti.o(.text)
    .text                                    0x080003a6   Section        0  ffltui.o(.text)
    .text                                    0x080003b0   Section        0  ffixui.o(.text)
    .text                                    0x080003d8   Section       20  cfcmple.o(.text)
    .text                                    0x080003ec   Section       20  cfrcmple.o(.text)
    .text                                    0x08000400   Section        0  uidiv.o(.text)
    .text                                    0x0800042c   Section        0  llshl.o(.text)
    .text                                    0x0800044a   Section        0  fepilogue.o(.text)
    .text                                    0x0800044a   Section        0  iusefp.o(.text)
    .text                                    0x080004b8   Section       36  init.o(.text)
    .text                                    0x080004dc   Section        0  __dczerorl2.o(.text)
    i.ADC_ConversionStop_Disable             0x08000534   Section        0  stm32f1xx_hal_adc.o(i.ADC_ConversionStop_Disable)
    i.BusFault_Handler                       0x0800058a   Section        0  stm32f1xx_it.o(i.BusFault_Handler)
    i.ColorLED_Set                           0x0800058c   Section        0  driver_color_led.o(i.ColorLED_Set)
    i.ColorLED_Test                          0x08000630   Section        0  driver_color_led.o(i.ColorLED_Test)
    i.DHT11Timer_func                        0x08000654   Section        0  game1.o(i.DHT11Timer_func)
    DHT11Timer_func                          0x08000655   Thumb Code    62  game1.o(i.DHT11Timer_func)
    i.DHT11_Init                             0x080006ac   Section        0  driver_dht11.o(i.DHT11_Init)
    i.DHT11_PinRead                          0x080006b4   Section        0  driver_dht11.o(i.DHT11_PinRead)
    DHT11_PinRead                            0x080006b5   Thumb Code    18  driver_dht11.o(i.DHT11_PinRead)
    i.DHT11_PinSet                           0x080006cc   Section        0  driver_dht11.o(i.DHT11_PinSet)
    DHT11_PinSet                             0x080006cd   Thumb Code    18  driver_dht11.o(i.DHT11_PinSet)
    i.DHT11_Read                             0x080006e4   Section        0  driver_dht11.o(i.DHT11_Read)
    i.DHT11_ReadByte                         0x08000774   Section        0  driver_dht11.o(i.DHT11_ReadByte)
    DHT11_ReadByte                           0x08000775   Thumb Code    70  driver_dht11.o(i.DHT11_ReadByte)
    i.DHT11_WaitFor_Val                      0x080007ba   Section        0  driver_dht11.o(i.DHT11_WaitFor_Val)
    DHT11_WaitFor_Val                        0x080007bb   Thumb Code    36  driver_dht11.o(i.DHT11_WaitFor_Val)
    i.DebugMon_Handler                       0x080007de   Section        0  stm32f1xx_it.o(i.DebugMon_Handler)
    i.DispatchKey                            0x080007e0   Section        0  driver_ir_receiver.o(i.DispatchKey)
    i.EXTI15_10_IRQHandler                   0x0800082c   Section        0  stm32f1xx_it.o(i.EXTI15_10_IRQHandler)
    i.EXTI9_5_IRQHandler                     0x0800084a   Section        0  stm32f1xx_it.o(i.EXTI9_5_IRQHandler)
    i.Error_Handler                          0x08000850   Section        0  main.o(i.Error_Handler)
    i.GameSoundTimer_func                    0x08000854   Section        0  beep.o(i.GameSoundTimer_func)
    i.GetI2C                                 0x0800085c   Section        0  freertos.o(i.GetI2C)
    i.GetQueueIR                             0x0800086c   Section        0  driver_ir_receiver.o(i.GetQueueIR)
    i.GetQueueMPU6050                        0x08000878   Section        0  driver_mpu6050.o(i.GetQueueMPU6050)
    i.GetQueueRotary                         0x08000884   Section        0  driver_rotary_encoder.o(i.GetQueueRotary)
    i.HAL_ADC_ConfigChannel                  0x08000890   Section        0  stm32f1xx_hal_adc.o(i.HAL_ADC_ConfigChannel)
    i.HAL_ADC_Init                           0x0800098c   Section        0  stm32f1xx_hal_adc.o(i.HAL_ADC_Init)
    i.HAL_ADC_MspInit                        0x08000aa8   Section        0  adc.o(i.HAL_ADC_MspInit)
    i.HAL_GPIO_EXTI_Callback                 0x08000b00   Section        0  driver_irq.o(i.HAL_GPIO_EXTI_Callback)
    i.HAL_GPIO_EXTI_IRQHandler               0x08000b20   Section        0  stm32f1xx_hal_gpio.o(i.HAL_GPIO_EXTI_IRQHandler)
    i.HAL_GPIO_Init                          0x08000b38   Section        0  stm32f1xx_hal_gpio.o(i.HAL_GPIO_Init)
    i.HAL_GPIO_ReadPin                       0x08000d18   Section        0  stm32f1xx_hal_gpio.o(i.HAL_GPIO_ReadPin)
    i.HAL_GPIO_WritePin                      0x08000d22   Section        0  stm32f1xx_hal_gpio.o(i.HAL_GPIO_WritePin)
    i.HAL_GetTick                            0x08000d2c   Section        0  stm32f1xx_hal.o(i.HAL_GetTick)
    i.HAL_I2C_Init                           0x08000d38   Section        0  stm32f1xx_hal_i2c.o(i.HAL_I2C_Init)
    i.HAL_I2C_Master_Transmit                0x08000ec0   Section        0  stm32f1xx_hal_i2c.o(i.HAL_I2C_Master_Transmit)
    i.HAL_I2C_Mem_Read                       0x08000fec   Section        0  stm32f1xx_hal_i2c.o(i.HAL_I2C_Mem_Read)
    i.HAL_I2C_Mem_Write                      0x0800123c   Section        0  stm32f1xx_hal_i2c.o(i.HAL_I2C_Mem_Write)
    i.HAL_I2C_MspInit                        0x0800136c   Section        0  i2c.o(i.HAL_I2C_MspInit)
    i.HAL_IncTick                            0x080013c8   Section        0  stm32f1xx_hal.o(i.HAL_IncTick)
    i.HAL_Init                               0x080013d8   Section        0  stm32f1xx_hal.o(i.HAL_Init)
    i.HAL_InitTick                           0x080013fc   Section        0  stm32f1xx_hal_timebase_tim.o(i.HAL_InitTick)
    i.HAL_MspInit                            0x08001494   Section        0  stm32f1xx_hal_msp.o(i.HAL_MspInit)
    i.HAL_NVIC_EnableIRQ                     0x080014dc   Section        0  stm32f1xx_hal_cortex.o(i.HAL_NVIC_EnableIRQ)
    i.HAL_NVIC_SetPriority                   0x080014f8   Section        0  stm32f1xx_hal_cortex.o(i.HAL_NVIC_SetPriority)
    i.HAL_NVIC_SetPriorityGrouping           0x08001538   Section        0  stm32f1xx_hal_cortex.o(i.HAL_NVIC_SetPriorityGrouping)
    i.HAL_PCD_Init                           0x0800155c   Section        0  stm32f1xx_hal_pcd.o(i.HAL_PCD_Init)
    i.HAL_PCD_MspInit                        0x08001638   Section        0  usb.o(i.HAL_PCD_MspInit)
    i.HAL_RCCEx_PeriphCLKConfig              0x08001660   Section        0  stm32f1xx_hal_rcc_ex.o(i.HAL_RCCEx_PeriphCLKConfig)
    i.HAL_RCC_ClockConfig                    0x0800174c   Section        0  stm32f1xx_hal_rcc.o(i.HAL_RCC_ClockConfig)
    i.HAL_RCC_GetClockConfig                 0x08001878   Section        0  stm32f1xx_hal_rcc.o(i.HAL_RCC_GetClockConfig)
    i.HAL_RCC_GetPCLK1Freq                   0x080018b8   Section        0  stm32f1xx_hal_rcc.o(i.HAL_RCC_GetPCLK1Freq)
    i.HAL_RCC_GetPCLK2Freq                   0x080018d8   Section        0  stm32f1xx_hal_rcc.o(i.HAL_RCC_GetPCLK2Freq)
    i.HAL_RCC_GetSysClockFreq                0x080018f8   Section        0  stm32f1xx_hal_rcc.o(i.HAL_RCC_GetSysClockFreq)
    i.HAL_RCC_OscConfig                      0x08001944   Section        0  stm32f1xx_hal_rcc.o(i.HAL_RCC_OscConfig)
    i.HAL_SPI_Init                           0x08001c64   Section        0  stm32f1xx_hal_spi.o(i.HAL_SPI_Init)
    i.HAL_SPI_MspInit                        0x08001d18   Section        0  spi.o(i.HAL_SPI_MspInit)
    i.HAL_TIMEx_BreakCallback                0x08001d88   Section        0  stm32f1xx_hal_tim_ex.o(i.HAL_TIMEx_BreakCallback)
    i.HAL_TIMEx_CommutCallback               0x08001d8a   Section        0  stm32f1xx_hal_tim_ex.o(i.HAL_TIMEx_CommutCallback)
    i.HAL_TIMEx_ConfigBreakDeadTime          0x08001d8c   Section        0  stm32f1xx_hal_tim_ex.o(i.HAL_TIMEx_ConfigBreakDeadTime)
    i.HAL_TIMEx_MasterConfigSynchronization  0x08001de0   Section        0  stm32f1xx_hal_tim_ex.o(i.HAL_TIMEx_MasterConfigSynchronization)
    i.HAL_TIM_Base_DeInit                    0x08001e48   Section        0  stm32f1xx_hal_tim.o(i.HAL_TIM_Base_DeInit)
    i.HAL_TIM_Base_Init                      0x08001ea4   Section        0  stm32f1xx_hal_tim.o(i.HAL_TIM_Base_Init)
    i.HAL_TIM_Base_MspDeInit                 0x08001f00   Section        0  tim.o(i.HAL_TIM_Base_MspDeInit)
    i.HAL_TIM_Base_MspInit                   0x08001f2c   Section        0  tim.o(i.HAL_TIM_Base_MspInit)
    i.HAL_TIM_Base_Start_IT                  0x08001f68   Section        0  stm32f1xx_hal_tim.o(i.HAL_TIM_Base_Start_IT)
    i.HAL_TIM_ConfigClockSource              0x08001fc0   Section        0  stm32f1xx_hal_tim.o(i.HAL_TIM_ConfigClockSource)
    i.HAL_TIM_IC_CaptureCallback             0x0800209c   Section        0  stm32f1xx_hal_tim.o(i.HAL_TIM_IC_CaptureCallback)
    i.HAL_TIM_IRQHandler                     0x0800209e   Section        0  stm32f1xx_hal_tim.o(i.HAL_TIM_IRQHandler)
    i.HAL_TIM_MspPostInit                    0x08002204   Section        0  tim.o(i.HAL_TIM_MspPostInit)
    i.HAL_TIM_OC_DelayElapsedCallback        0x080022f0   Section        0  stm32f1xx_hal_tim.o(i.HAL_TIM_OC_DelayElapsedCallback)
    i.HAL_TIM_PWM_ConfigChannel              0x080022f2   Section        0  stm32f1xx_hal_tim.o(i.HAL_TIM_PWM_ConfigChannel)
    i.HAL_TIM_PWM_Init                       0x080023be   Section        0  stm32f1xx_hal_tim.o(i.HAL_TIM_PWM_Init)
    i.HAL_TIM_PWM_MspInit                    0x08002418   Section        0  tim.o(i.HAL_TIM_PWM_MspInit)
    i.HAL_TIM_PWM_PulseFinishedCallback      0x08002440   Section        0  stm32f1xx_hal_tim.o(i.HAL_TIM_PWM_PulseFinishedCallback)
    i.HAL_TIM_PWM_Start                      0x08002444   Section        0  stm32f1xx_hal_tim.o(i.HAL_TIM_PWM_Start)
    i.HAL_TIM_PWM_Stop                       0x080024e0   Section        0  stm32f1xx_hal_tim.o(i.HAL_TIM_PWM_Stop)
    i.HAL_TIM_PeriodElapsedCallback          0x08002550   Section        0  main.o(i.HAL_TIM_PeriodElapsedCallback)
    i.HAL_TIM_TriggerCallback                0x08002564   Section        0  stm32f1xx_hal_tim.o(i.HAL_TIM_TriggerCallback)
    i.HAL_UART_Init                          0x08002566   Section        0  stm32f1xx_hal_uart.o(i.HAL_UART_Init)
    i.HAL_UART_MspInit                       0x080025cc   Section        0  usart.o(i.HAL_UART_MspInit)
    i.HAL_UART_Transmit                      0x0800263c   Section        0  stm32f1xx_hal_uart.o(i.HAL_UART_Transmit)
    i.HardFault_Handler                      0x080026d6   Section        0  stm32f1xx_it.o(i.HardFault_Handler)
    i.I2C_IsAcknowledgeFailed                0x080026d8   Section        0  stm32f1xx_hal_i2c.o(i.I2C_IsAcknowledgeFailed)
    I2C_IsAcknowledgeFailed                  0x080026d9   Thumb Code    46  stm32f1xx_hal_i2c.o(i.I2C_IsAcknowledgeFailed)
    i.I2C_MasterRequestWrite                 0x08002708   Section        0  stm32f1xx_hal_i2c.o(i.I2C_MasterRequestWrite)
    I2C_MasterRequestWrite                   0x08002709   Thumb Code   150  stm32f1xx_hal_i2c.o(i.I2C_MasterRequestWrite)
    i.I2C_RequestMemoryRead                  0x080027a4   Section        0  stm32f1xx_hal_i2c.o(i.I2C_RequestMemoryRead)
    I2C_RequestMemoryRead                    0x080027a5   Thumb Code   246  stm32f1xx_hal_i2c.o(i.I2C_RequestMemoryRead)
    i.I2C_RequestMemoryWrite                 0x080028a0   Section        0  stm32f1xx_hal_i2c.o(i.I2C_RequestMemoryWrite)
    I2C_RequestMemoryWrite                   0x080028a1   Thumb Code   162  stm32f1xx_hal_i2c.o(i.I2C_RequestMemoryWrite)
    i.I2C_WaitOnBTFFlagUntilTimeout          0x08002948   Section        0  stm32f1xx_hal_i2c.o(i.I2C_WaitOnBTFFlagUntilTimeout)
    I2C_WaitOnBTFFlagUntilTimeout            0x08002949   Thumb Code    86  stm32f1xx_hal_i2c.o(i.I2C_WaitOnBTFFlagUntilTimeout)
    i.I2C_WaitOnFlagUntilTimeout             0x080029a0   Section        0  stm32f1xx_hal_i2c.o(i.I2C_WaitOnFlagUntilTimeout)
    I2C_WaitOnFlagUntilTimeout               0x080029a1   Thumb Code   144  stm32f1xx_hal_i2c.o(i.I2C_WaitOnFlagUntilTimeout)
    i.I2C_WaitOnMasterAddressFlagUntilTimeout 0x08002a30   Section        0  stm32f1xx_hal_i2c.o(i.I2C_WaitOnMasterAddressFlagUntilTimeout)
    I2C_WaitOnMasterAddressFlagUntilTimeout  0x08002a31   Thumb Code   188  stm32f1xx_hal_i2c.o(i.I2C_WaitOnMasterAddressFlagUntilTimeout)
    i.I2C_WaitOnRXNEFlagUntilTimeout         0x08002aec   Section        0  stm32f1xx_hal_i2c.o(i.I2C_WaitOnRXNEFlagUntilTimeout)
    I2C_WaitOnRXNEFlagUntilTimeout           0x08002aed   Thumb Code   112  stm32f1xx_hal_i2c.o(i.I2C_WaitOnRXNEFlagUntilTimeout)
    i.I2C_WaitOnTXEFlagUntilTimeout          0x08002b5c   Section        0  stm32f1xx_hal_i2c.o(i.I2C_WaitOnTXEFlagUntilTimeout)
    I2C_WaitOnTXEFlagUntilTimeout            0x08002b5d   Thumb Code    86  stm32f1xx_hal_i2c.o(i.I2C_WaitOnTXEFlagUntilTimeout)
    i.IRReceiver_IRQTimes_Parse              0x08002bb4   Section        0  driver_ir_receiver.o(i.IRReceiver_IRQTimes_Parse)
    IRReceiver_IRQTimes_Parse                0x08002bb5   Thumb Code   256  driver_ir_receiver.o(i.IRReceiver_IRQTimes_Parse)
    i.IRReceiver_IRQ_Callback                0x08002cd0   Section        0  driver_ir_receiver.o(i.IRReceiver_IRQ_Callback)
    i.IRReceiver_Init                        0x08002d84   Section        0  driver_ir_receiver.o(i.IRReceiver_Init)
    i.InputTask                              0x08002da0   Section        0  game1.o(i.InputTask)
    i.LCD_Clear                              0x08002e18   Section        0  driver_lcd.o(i.LCD_Clear)
    i.LCD_Flush                              0x08002e1c   Section        0  driver_lcd.o(i.LCD_Flush)
    i.LCD_FlushRegion                        0x08002e20   Section        0  driver_lcd.o(i.LCD_FlushRegion)
    i.LCD_GetFrameBuffer                     0x08002e24   Section        0  driver_lcd.o(i.LCD_GetFrameBuffer)
    i.LCD_Init                               0x08002e28   Section        0  driver_lcd.o(i.LCD_Init)
    i.LCD_PrintHex                           0x08002e2c   Section        0  driver_lcd.o(i.LCD_PrintHex)
    i.LCD_PrintSignedVal                     0x08002e30   Section        0  driver_lcd.o(i.LCD_PrintSignedVal)
    i.LCD_PrintString                        0x08002e34   Section        0  driver_lcd.o(i.LCD_PrintString)
    i.Led_Control                            0x08002e38   Section        0  driver_led.o(i.Led_Control)
    i.Led_Init                               0x08002e58   Section        0  driver_led.o(i.Led_Init)
    i.Led_Test                               0x08002eac   Section        0  driver_led.o(i.Led_Test)
    i.MPU6050_Callback                       0x08002ed4   Section        0  driver_mpu6050.o(i.MPU6050_Callback)
    i.MPU6050_GetID                          0x08002f08   Section        0  driver_mpu6050.o(i.MPU6050_GetID)
    i.MPU6050_Init                           0x08002f20   Section        0  driver_mpu6050.o(i.MPU6050_Init)
    i.MPU6050_ReadData                       0x08002f80   Section        0  driver_mpu6050.o(i.MPU6050_ReadData)
    i.MPU6050_ReadRegister                   0x0800308c   Section        0  driver_mpu6050.o(i.MPU6050_ReadRegister)
    i.MPU6050_Test                           0x080030ac   Section        0  driver_mpu6050.o(i.MPU6050_Test)
    i.MPU6050_WriteRegister                  0x08003170   Section        0  driver_mpu6050.o(i.MPU6050_WriteRegister)
    MPU6050_WriteRegister                    0x08003171   Thumb Code    32  driver_mpu6050.o(i.MPU6050_WriteRegister)
    i.MPU_6050_Task                          0x08003194   Section        0  driver_mpu6050.o(i.MPU_6050_Task)
    i.MX_ADC1_Init                           0x080031e0   Section        0  adc.o(i.MX_ADC1_Init)
    i.MX_FREERTOS_Init                       0x08003230   Section        0  freertos.o(i.MX_FREERTOS_Init)
    i.MX_GPIO_Init                           0x08003300   Section        0  gpio.o(i.MX_GPIO_Init)
    i.MX_I2C1_Init                           0x08003460   Section        0  i2c.o(i.MX_I2C1_Init)
    i.MX_SPI1_Init                           0x080034a0   Section        0  spi.o(i.MX_SPI1_Init)
    i.MX_TIM1_Init                           0x080034e8   Section        0  tim.o(i.MX_TIM1_Init)
    i.MX_TIM2_Init                           0x080035b8   Section        0  tim.o(i.MX_TIM2_Init)
    i.MX_TIM3_Init                           0x08003674   Section        0  tim.o(i.MX_TIM3_Init)
    i.MX_USART1_UART_Init                    0x080036ec   Section        0  usart.o(i.MX_USART1_UART_Init)
    i.MX_USB_PCD_Init                        0x08003724   Section        0  usb.o(i.MX_USB_PCD_Init)
    i.MemManage_Handler                      0x08003758   Section        0  stm32f1xx_it.o(i.MemManage_Handler)
    i.NMI_Handler                            0x0800375a   Section        0  stm32f1xx_it.o(i.NMI_Handler)
    i.OLED_Clear                             0x0800375c   Section        0  driver_oled.o(i.OLED_Clear)
    i.OLED_Flush                             0x08003788   Section        0  driver_oled.o(i.OLED_Flush)
    i.OLED_FlushRegion                       0x080037c0   Section        0  driver_oled.o(i.OLED_FlushRegion)
    i.OLED_GetFrameBuffer                    0x08003820   Section        0  driver_oled.o(i.OLED_GetFrameBuffer)
    i.OLED_Init                              0x08003834   Section        0  driver_oled.o(i.OLED_Init)
    i.OLED_PrintHex                          0x080038c8   Section        0  driver_oled.o(i.OLED_PrintHex)
    i.OLED_PrintSignedVal                    0x0800394c   Section        0  driver_oled.o(i.OLED_PrintSignedVal)
    i.OLED_PrintString                       0x080039ca   Section        0  driver_oled.o(i.OLED_PrintString)
    i.OLED_PutChar                           0x080039fc   Section        0  driver_oled.o(i.OLED_PutChar)
    i.OLED_SetComConfig                      0x08003a44   Section        0  driver_oled.o(i.OLED_SetComConfig)
    OLED_SetComConfig                        0x08003a45   Thumb Code    44  driver_oled.o(i.OLED_SetComConfig)
    i.OLED_SetPosition                       0x08003a70   Section        0  driver_oled.o(i.OLED_SetPosition)
    i.OLED_WriteCmd                          0x08003ab0   Section        0  driver_oled.o(i.OLED_WriteCmd)
    OLED_WriteCmd                            0x08003ab1   Thumb Code    34  driver_oled.o(i.OLED_WriteCmd)
    i.OLED_WriteNBytes                       0x08003ad8   Section        0  driver_oled.o(i.OLED_WriteNBytes)
    OLED_WriteNBytes                         0x08003ad9   Thumb Code    26  driver_oled.o(i.OLED_WriteNBytes)
    i.PassiveBuzzer_Control                  0x08003af8   Section        0  driver_passive_buzzer.o(i.PassiveBuzzer_Control)
    i.PassiveBuzzer_Init                     0x08003b10   Section        0  driver_passive_buzzer.o(i.PassiveBuzzer_Init)
    i.PassiveBuzzer_Set_Freq_Duty            0x08003b78   Section        0  driver_passive_buzzer.o(i.PassiveBuzzer_Set_Freq_Duty)
    i.ProcessIRData                          0x08003c00   Section        0  game1.o(i.ProcessIRData)
    ProcessIRData                            0x08003c01   Thumb Code    70  game1.o(i.ProcessIRData)
    i.ProcessRotaryData                      0x08003c4c   Section        0  game1.o(i.ProcessRotaryData)
    ProcessRotaryData                        0x08003c4d   Thumb Code    98  game1.o(i.ProcessRotaryData)
    i.PutI2C                                 0x08003cb4   Section        0  freertos.o(i.PutI2C)
    i.RegisterQueueHandle                    0x08003cc8   Section        0  driver_ir_receiver.o(i.RegisterQueueHandle)
    i.RotaryEncoder_IRQ_Callback             0x08003ce4   Section        0  driver_rotary_encoder.o(i.RotaryEncoder_IRQ_Callback)
    i.RotaryEncoder_Init                     0x08003d7c   Section        0  driver_rotary_encoder.o(i.RotaryEncoder_Init)
    i.StartDefaultTask                       0x08003da0   Section        0  freertos.o(i.StartDefaultTask)
    i.SysTick_Handler                        0x08003db8   Section        0  port.o(i.SysTick_Handler)
    i.SystemClock_Config                     0x08003de4   Section        0  main.o(i.SystemClock_Config)
    i.SystemInit                             0x08003e60   Section        0  system_stm32f1xx.o(i.SystemInit)
    i.TIM4_IRQHandler                        0x08003e64   Section        0  stm32f1xx_it.o(i.TIM4_IRQHandler)
    i.TIM_Base_SetConfig                     0x08003e70   Section        0  stm32f1xx_hal_tim.o(i.TIM_Base_SetConfig)
    i.TIM_CCxChannelCmd                      0x08003edc   Section        0  stm32f1xx_hal_tim.o(i.TIM_CCxChannelCmd)
    i.TIM_ETR_SetConfig                      0x08003ef6   Section        0  stm32f1xx_hal_tim.o(i.TIM_ETR_SetConfig)
    i.TIM_ITRx_SetConfig                     0x08003f0a   Section        0  stm32f1xx_hal_tim.o(i.TIM_ITRx_SetConfig)
    TIM_ITRx_SetConfig                       0x08003f0b   Thumb Code    16  stm32f1xx_hal_tim.o(i.TIM_ITRx_SetConfig)
    i.TIM_OC1_SetConfig                      0x08003f1c   Section        0  stm32f1xx_hal_tim.o(i.TIM_OC1_SetConfig)
    TIM_OC1_SetConfig                        0x08003f1d   Thumb Code    74  stm32f1xx_hal_tim.o(i.TIM_OC1_SetConfig)
    i.TIM_OC2_SetConfig                      0x08003f6c   Section        0  stm32f1xx_hal_tim.o(i.TIM_OC2_SetConfig)
    i.TIM_OC3_SetConfig                      0x08003fc4   Section        0  stm32f1xx_hal_tim.o(i.TIM_OC3_SetConfig)
    TIM_OC3_SetConfig                        0x08003fc5   Thumb Code    82  stm32f1xx_hal_tim.o(i.TIM_OC3_SetConfig)
    i.TIM_OC4_SetConfig                      0x0800401c   Section        0  stm32f1xx_hal_tim.o(i.TIM_OC4_SetConfig)
    TIM_OC4_SetConfig                        0x0800401d   Thumb Code    64  stm32f1xx_hal_tim.o(i.TIM_OC4_SetConfig)
    i.TIM_TI1_ConfigInputStage               0x08004060   Section        0  stm32f1xx_hal_tim.o(i.TIM_TI1_ConfigInputStage)
    TIM_TI1_ConfigInputStage                 0x08004061   Thumb Code    34  stm32f1xx_hal_tim.o(i.TIM_TI1_ConfigInputStage)
    i.TIM_TI2_ConfigInputStage               0x08004082   Section        0  stm32f1xx_hal_tim.o(i.TIM_TI2_ConfigInputStage)
    TIM_TI2_ConfigInputStage                 0x08004083   Thumb Code    36  stm32f1xx_hal_tim.o(i.TIM_TI2_ConfigInputStage)
    i.UART_SetConfig                         0x080040a8   Section        0  stm32f1xx_hal_uart.o(i.UART_SetConfig)
    UART_SetConfig                           0x080040a9   Thumb Code   178  stm32f1xx_hal_uart.o(i.UART_SetConfig)
    i.UART_WaitOnFlagUntilTimeout            0x08004160   Section        0  stm32f1xx_hal_uart.o(i.UART_WaitOnFlagUntilTimeout)
    UART_WaitOnFlagUntilTimeout              0x08004161   Thumb Code   120  stm32f1xx_hal_uart.o(i.UART_WaitOnFlagUntilTimeout)
    i.USB_CoreInit                           0x080041d8   Section        0  stm32f1xx_ll_usb.o(i.USB_CoreInit)
    i.USB_DevDisconnect                      0x080041dc   Section        0  stm32f1xx_ll_usb.o(i.USB_DevDisconnect)
    i.USB_DevInit                            0x080041e0   Section        0  stm32f1xx_ll_usb.o(i.USB_DevInit)
    i.USB_DisableGlobalInt                   0x080041f2   Section        0  stm32f1xx_ll_usb.o(i.USB_DisableGlobalInt)
    i.USB_SetCurrentMode                     0x08004200   Section        0  stm32f1xx_ll_usb.o(i.USB_SetCurrentMode)
    i.UsageFault_Handler                     0x08004204   Section        0  stm32f1xx_it.o(i.UsageFault_Handler)
    i.__0printf$3                            0x08004208   Section        0  printf3.o(i.__0printf$3)
    i.__0sprintf$3                           0x08004228   Section        0  printf3.o(i.__0sprintf$3)
    i.__NVIC_SetPriority                     0x08004250   Section        0  stm32f1xx_hal_cortex.o(i.__NVIC_SetPriority)
    __NVIC_SetPriority                       0x08004251   Thumb Code    32  stm32f1xx_hal_cortex.o(i.__NVIC_SetPriority)
    i.__scatterload_copy                     0x08004270   Section       14  handlers.o(i.__scatterload_copy)
    i.__scatterload_null                     0x0800427e   Section        2  handlers.o(i.__scatterload_null)
    i.__scatterload_zeroinit                 0x08004280   Section       14  handlers.o(i.__scatterload_zeroinit)
    i._printf_core                           0x08004290   Section        0  printf3.o(i._printf_core)
    _printf_core                             0x08004291   Thumb Code   436  printf3.o(i._printf_core)
    i._sputc                                 0x08004448   Section        0  printf3.o(i._sputc)
    _sputc                                   0x08004449   Thumb Code    10  printf3.o(i._sputc)
    i.buzzer_buzz                            0x08004454   Section        0  beep.o(i.buzzer_buzz)
    i.buzzer_init                            0x08004478   Section        0  beep.o(i.buzzer_init)
    i.configureTimerForRunTimeStats          0x080044a8   Section        0  freertos.o(i.configureTimerForRunTimeStats)
    i.draw_bitmap                            0x080044ac   Section        0  draw.o(i.draw_bitmap)
    i.draw_end                               0x0800467c   Section        0  draw.o(i.draw_end)
    i.draw_flushArea                         0x08004680   Section        0  draw.o(i.draw_flushArea)
    i.draw_init                              0x080046a4   Section        0  draw.o(i.draw_init)
    i.draw_string                            0x080046bc   Section        0  draw.o(i.draw_string)
    i.draw_string_P                          0x0800476c   Section        0  draw.o(i.draw_string_P)
    i.eTaskGetState                          0x080047a4   Section        0  tasks.o(i.eTaskGetState)
    i.fputc                                  0x0800480c   Section        0  driver_uart.o(i.fputc)
    i.free                                   0x08004828   Section        0  malloc.o(i.free)
    i.game1_draw                             0x08004878   Section        0  game1.o(i.game1_draw)
    i.game1_task                             0x08004c34   Section        0  game1.o(i.game1_task)
    i.getRunTimeCounterValue                 0x08004d90   Section        0  freertos.o(i.getRunTimeCounterValue)
    i.main                                   0x08004da2   Section        0  main.o(i.main)
    i.malloc                                 0x08004ddc   Section        0  malloc.o(i.malloc)
    i.mdelay                                 0x08004e48   Section        0  driver_timer.o(i.mdelay)
    i.osKernelInitialize                     0x08004e64   Section        0  cmsis_os2.o(i.osKernelInitialize)
    i.osKernelStart                          0x08004e9c   Section        0  cmsis_os2.o(i.osKernelStart)
    i.osThreadNew                            0x08004edc   Section        0  cmsis_os2.o(i.osThreadNew)
    i.platform_task                          0x08004f80   Section        0  game1.o(i.platform_task)
    platform_task                            0x08004f81   Thumb Code   192  game1.o(i.platform_task)
    i.prvAddCurrentTaskToDelayedList         0x08005048   Section        0  tasks.o(i.prvAddCurrentTaskToDelayedList)
    prvAddCurrentTaskToDelayedList           0x08005049   Thumb Code    84  tasks.o(i.prvAddCurrentTaskToDelayedList)
    i.prvAddNewTaskToReadyList               0x080050a4   Section        0  tasks.o(i.prvAddNewTaskToReadyList)
    prvAddNewTaskToReadyList                 0x080050a5   Thumb Code   190  tasks.o(i.prvAddNewTaskToReadyList)
    i.prvCheckForValidListAndQueue           0x08005174   Section        0  timers.o(i.prvCheckForValidListAndQueue)
    prvCheckForValidListAndQueue             0x08005175   Thumb Code    72  timers.o(i.prvCheckForValidListAndQueue)
    i.prvCopyDataFromQueue                   0x080051cc   Section        0  queue.o(i.prvCopyDataFromQueue)
    prvCopyDataFromQueue                     0x080051cd   Thumb Code    38  queue.o(i.prvCopyDataFromQueue)
    i.prvCopyDataToQueue                     0x080051f2   Section        0  queue.o(i.prvCopyDataToQueue)
    prvCopyDataToQueue                       0x080051f3   Thumb Code   108  queue.o(i.prvCopyDataToQueue)
    i.prvDeleteTCB                           0x0800525e   Section        0  tasks.o(i.prvDeleteTCB)
    prvDeleteTCB                             0x0800525f   Thumb Code    52  tasks.o(i.prvDeleteTCB)
    i.prvHeapInit                            0x08005294   Section        0  heap_4.o(i.prvHeapInit)
    prvHeapInit                              0x08005295   Thumb Code    66  heap_4.o(i.prvHeapInit)
    i.prvIdleTask                            0x080052e0   Section        0  tasks.o(i.prvIdleTask)
    prvIdleTask                              0x080052e1   Thumb Code    86  tasks.o(i.prvIdleTask)
    i.prvInitialiseMutex                     0x08005344   Section        0  queue.o(i.prvInitialiseMutex)
    prvInitialiseMutex                       0x08005345   Thumb Code    22  queue.o(i.prvInitialiseMutex)
    i.prvInitialiseNewQueue                  0x0800535c   Section        0  queue.o(i.prvInitialiseNewQueue)
    prvInitialiseNewQueue                    0x0800535d   Thumb Code    38  queue.o(i.prvInitialiseNewQueue)
    i.prvInitialiseNewTask                   0x08005382   Section        0  tasks.o(i.prvInitialiseNewTask)
    prvInitialiseNewTask                     0x08005383   Thumb Code   158  tasks.o(i.prvInitialiseNewTask)
    i.prvInitialiseNewTimer                  0x08005420   Section        0  timers.o(i.prvInitialiseNewTimer)
    prvInitialiseNewTimer                    0x08005421   Thumb Code    68  timers.o(i.prvInitialiseNewTimer)
    i.prvInsertBlockIntoFreeList             0x08005464   Section        0  heap_4.o(i.prvInsertBlockIntoFreeList)
    prvInsertBlockIntoFreeList               0x08005465   Thumb Code    72  heap_4.o(i.prvInsertBlockIntoFreeList)
    i.prvInsertTimerInActiveList             0x080054b0   Section        0  timers.o(i.prvInsertTimerInActiveList)
    prvInsertTimerInActiveList               0x080054b1   Thumb Code    52  timers.o(i.prvInsertTimerInActiveList)
    i.prvIsQueueEmpty                        0x080054e8   Section        0  queue.o(i.prvIsQueueEmpty)
    prvIsQueueEmpty                          0x080054e9   Thumb Code    28  queue.o(i.prvIsQueueEmpty)
    i.prvListTasksWithinSingleList           0x08005504   Section        0  tasks.o(i.prvListTasksWithinSingleList)
    prvListTasksWithinSingleList             0x08005505   Thumb Code    88  tasks.o(i.prvListTasksWithinSingleList)
    i.prvNotifyQueueSetContainer             0x0800555c   Section        0  queue.o(i.prvNotifyQueueSetContainer)
    prvNotifyQueueSetContainer               0x0800555d   Thumb Code   108  queue.o(i.prvNotifyQueueSetContainer)
    i.prvProcessReceivedCommands             0x080055c8   Section        0  timers.o(i.prvProcessReceivedCommands)
    prvProcessReceivedCommands               0x080055c9   Thumb Code   198  timers.o(i.prvProcessReceivedCommands)
    i.prvProcessTimerOrBlockTask             0x08005694   Section        0  timers.o(i.prvProcessTimerOrBlockTask)
    prvProcessTimerOrBlockTask               0x08005695   Thumb Code   172  timers.o(i.prvProcessTimerOrBlockTask)
    i.prvResetNextTaskUnblockTime            0x08005748   Section        0  tasks.o(i.prvResetNextTaskUnblockTime)
    prvResetNextTaskUnblockTime              0x08005749   Thumb Code    26  tasks.o(i.prvResetNextTaskUnblockTime)
    i.prvSampleTimeNow                       0x08005768   Section        0  timers.o(i.prvSampleTimeNow)
    prvSampleTimeNow                         0x08005769   Thumb Code    36  timers.o(i.prvSampleTimeNow)
    i.prvSwitchTimerLists                    0x08005790   Section        0  timers.o(i.prvSwitchTimerLists)
    prvSwitchTimerLists                      0x08005791   Thumb Code   102  timers.o(i.prvSwitchTimerLists)
    i.prvTaskCheckFreeStackSpace             0x080057fc   Section        0  tasks.o(i.prvTaskCheckFreeStackSpace)
    prvTaskCheckFreeStackSpace               0x080057fd   Thumb Code    20  tasks.o(i.prvTaskCheckFreeStackSpace)
    i.prvTaskExitError                       0x08005810   Section        0  port.o(i.prvTaskExitError)
    prvTaskExitError                         0x08005811   Thumb Code    36  port.o(i.prvTaskExitError)
    i.prvTestWaitCondition                   0x08005838   Section        0  event_groups.o(i.prvTestWaitCondition)
    prvTestWaitCondition                     0x08005839   Thumb Code    20  event_groups.o(i.prvTestWaitCondition)
    i.prvTimerTask                           0x0800584c   Section        0  timers.o(i.prvTimerTask)
    prvTimerTask                             0x0800584d   Thumb Code    32  timers.o(i.prvTimerTask)
    i.prvUnlockQueue                         0x08005870   Section        0  queue.o(i.prvUnlockQueue)
    prvUnlockQueue                           0x08005871   Thumb Code   120  queue.o(i.prvUnlockQueue)
    i.prvWriteNameToBuffer                   0x080058e8   Section        0  tasks.o(i.prvWriteNameToBuffer)
    prvWriteNameToBuffer                     0x080058e9   Thumb Code    34  tasks.o(i.prvWriteNameToBuffer)
    i.pvPortMalloc                           0x0800590c   Section        0  heap_4.o(i.pvPortMalloc)
    i.pvTaskIncrementMutexHeldCount          0x080059e4   Section        0  tasks.o(i.pvTaskIncrementMutexHeldCount)
    i.pxPortInitialiseStack                  0x080059fc   Section        0  port.o(i.pxPortInitialiseStack)
    i.readPixels                             0x08005a20   Section        0  draw.o(i.readPixels)
    readPixels                               0x08005a21   Thumb Code    12  draw.o(i.readPixels)
    i.setBuffByte                            0x08005a2c   Section        0  draw.o(i.setBuffByte)
    setBuffByte                              0x08005a2d   Thumb Code    20  draw.o(i.setBuffByte)
    i.set_bits                               0x08005a44   Section        0  draw.o(i.set_bits)
    set_bits                                 0x08005a45   Thumb Code    22  draw.o(i.set_bits)
    i.system_get_ns                          0x08005a5c   Section        0  driver_timer.o(i.system_get_ns)
    i.udelay                                 0x08005aa0   Section        0  driver_timer.o(i.udelay)
    i.uxListRemove                           0x08005ad8   Section        0  list.o(i.uxListRemove)
    i.uxTaskGetSystemState                   0x08005b00   Section        0  tasks.o(i.uxTaskGetSystemState)
    i.uxTaskResetEventItemValue              0x08005bac   Section        0  tasks.o(i.uxTaskResetEventItemValue)
    i.vApplicationGetIdleTaskMemory          0x08005bc4   Section        0  cmsis_os2.o(i.vApplicationGetIdleTaskMemory)
    i.vApplicationGetTimerTaskMemory         0x08005bd8   Section        0  cmsis_os2.o(i.vApplicationGetTimerTaskMemory)
    i.vApplicationIdleHook                   0x08005bf0   Section        0  freertos.o(i.vApplicationIdleHook)
    i.vEventGroupSetBitsCallback             0x08005c10   Section        0  event_groups.o(i.vEventGroupSetBitsCallback)
    i.vListInitialise                        0x08005c14   Section        0  list.o(i.vListInitialise)
    i.vListInitialiseItem                    0x08005c2a   Section        0  list.o(i.vListInitialiseItem)
    i.vListInsert                            0x08005c30   Section        0  list.o(i.vListInsert)
    i.vListInsertEnd                         0x08005c60   Section        0  list.o(i.vListInsertEnd)
    i.vPortEnterCritical                     0x08005c78   Section        0  port.o(i.vPortEnterCritical)
    i.vPortExitCritical                      0x08005cb8   Section        0  port.o(i.vPortExitCritical)
    i.vPortFree                              0x08005ce0   Section        0  heap_4.o(i.vPortFree)
    i.vPortSetupTimerInterrupt               0x08005d3c   Section        0  port.o(i.vPortSetupTimerInterrupt)
    i.vPortValidateInterruptPriority         0x08005d60   Section        0  port.o(i.vPortValidateInterruptPriority)
    i.vQueueAddToRegistry                    0x08005db4   Section        0  queue.o(i.vQueueAddToRegistry)
    i.vQueueWaitForMessageRestricted         0x08005ddc   Section        0  queue.o(i.vQueueWaitForMessageRestricted)
    i.vTaskDelay                             0x08005e20   Section        0  tasks.o(i.vTaskDelay)
    i.vTaskDelete                            0x08005e6c   Section        0  tasks.o(i.vTaskDelete)
    i.vTaskGetInfo                           0x08005efc   Section        0  tasks.o(i.vTaskGetInfo)
    i.vTaskGetRunTimeStats                   0x08005f74   Section        0  tasks.o(i.vTaskGetRunTimeStats)
    i.vTaskInternalSetTimeOutState           0x08006028   Section        0  tasks.o(i.vTaskInternalSetTimeOutState)
    i.vTaskMissedYield                       0x08006038   Section        0  tasks.o(i.vTaskMissedYield)
    i.vTaskPlaceOnEventList                  0x08006044   Section        0  tasks.o(i.vTaskPlaceOnEventList)
    i.vTaskPlaceOnEventListRestricted        0x08006074   Section        0  tasks.o(i.vTaskPlaceOnEventListRestricted)
    i.vTaskPlaceOnUnorderedEventList         0x080060ac   Section        0  tasks.o(i.vTaskPlaceOnUnorderedEventList)
    i.vTaskPriorityDisinheritAfterTimeout    0x080060fc   Section        0  tasks.o(i.vTaskPriorityDisinheritAfterTimeout)
    i.vTaskRemoveFromUnorderedEventList      0x0800618c   Section        0  tasks.o(i.vTaskRemoveFromUnorderedEventList)
    i.vTaskStartScheduler                    0x080061fc   Section        0  tasks.o(i.vTaskStartScheduler)
    i.vTaskSuspendAll                        0x08006288   Section        0  tasks.o(i.vTaskSuspendAll)
    i.vTaskSwitchContext                     0x08006298   Section        0  tasks.o(i.vTaskSwitchContext)
    i.xEventGroupCreate                      0x08006314   Section        0  event_groups.o(i.xEventGroupCreate)
    i.xEventGroupSetBits                     0x08006330   Section        0  event_groups.o(i.xEventGroupSetBits)
    i.xEventGroupSetBitsFromISR              0x080063bc   Section        0  event_groups.o(i.xEventGroupSetBitsFromISR)
    i.xEventGroupWaitBits                    0x080063cc   Section        0  event_groups.o(i.xEventGroupWaitBits)
    i.xPortStartScheduler                    0x080064d4   Section        0  port.o(i.xPortStartScheduler)
    i.xQueueAddToSet                         0x0800657c   Section        0  queue.o(i.xQueueAddToSet)
    i.xQueueCreateMutex                      0x0800659e   Section        0  queue.o(i.xQueueCreateMutex)
    i.xQueueCreateSet                        0x080065b4   Section        0  queue.o(i.xQueueCreateSet)
    i.xQueueGenericCreate                    0x080065bc   Section        0  queue.o(i.xQueueGenericCreate)
    i.xQueueGenericCreateStatic              0x08006604   Section        0  queue.o(i.xQueueGenericCreateStatic)
    i.xQueueGenericReset                     0x0800666c   Section        0  queue.o(i.xQueueGenericReset)
    i.xQueueGenericSend                      0x080066f4   Section        0  queue.o(i.xQueueGenericSend)
    i.xQueueGenericSendFromISR               0x08006860   Section        0  queue.o(i.xQueueGenericSendFromISR)
    i.xQueueReceive                          0x0800692c   Section        0  queue.o(i.xQueueReceive)
    i.xQueueSelectFromSet                    0x08006a64   Section        0  queue.o(i.xQueueSelectFromSet)
    i.xQueueSemaphoreTake                    0x08006a78   Section        0  queue.o(i.xQueueSemaphoreTake)
    i.xTaskCheckForTimeOut                   0x08006bf0   Section        0  tasks.o(i.xTaskCheckForTimeOut)
    i.xTaskCreate                            0x08006c64   Section        0  tasks.o(i.xTaskCreate)
    i.xTaskCreateStatic                      0x08006cbe   Section        0  tasks.o(i.xTaskCreateStatic)
    i.xTaskGetSchedulerState                 0x08006d14   Section        0  tasks.o(i.xTaskGetSchedulerState)
    i.xTaskGetTickCount                      0x08006d30   Section        0  tasks.o(i.xTaskGetTickCount)
    i.xTaskIncrementTick                     0x08006d3c   Section        0  tasks.o(i.xTaskIncrementTick)
    i.xTaskPriorityDisinherit                0x08006e04   Section        0  tasks.o(i.xTaskPriorityDisinherit)
    i.xTaskPriorityInherit                   0x08006e84   Section        0  tasks.o(i.xTaskPriorityInherit)
    i.xTaskRemoveFromEventList               0x08006efc   Section        0  tasks.o(i.xTaskRemoveFromEventList)
    i.xTaskResumeAll                         0x08006f6c   Section        0  tasks.o(i.xTaskResumeAll)
    i.xTimerCreate                           0x08007030   Section        0  timers.o(i.xTimerCreate)
    i.xTimerCreateTimerTask                  0x08007064   Section        0  timers.o(i.xTimerCreateTimerTask)
    i.xTimerGenericCommand                   0x080070c4   Section        0  timers.o(i.xTimerGenericCommand)
    i.xTimerPendFunctionCallFromISR          0x0800712c   Section        0  timers.o(i.xTimerPendFunctionCallFromISR)
    .constdata                               0x08007154   Section       36  freertos.o(.constdata)
    .constdata                               0x08007178   Section       18  stm32f1xx_hal_rcc.o(.constdata)
    aPredivFactorTable                       0x08007178   Data           2  stm32f1xx_hal_rcc.o(.constdata)
    aPLLMULFactorTable                       0x0800717a   Data          16  stm32f1xx_hal_rcc.o(.constdata)
    .constdata                               0x0800718a   Section       16  system_stm32f1xx.o(.constdata)
    .constdata                               0x0800719a   Section        8  system_stm32f1xx.o(.constdata)
    .constdata                               0x080071a2   Section     2048  driver_oled.o(.constdata)
    .constdata                               0x080079a2   Section       29  game1.o(.constdata)
    ballImg                                  0x080079a2   Data           2  game1.o(.constdata)
    block                                    0x080079a4   Data           3  game1.o(.constdata)
    platform                                 0x080079a7   Data          12  game1.o(.constdata)
    clearImg                                 0x080079b3   Data          12  game1.o(.constdata)
    .constdata                               0x080079bf   Section        7  resources.o(.constdata)
    .constdata                               0x080079c6   Section      485  resources.o(.constdata)
    .conststring                             0x08007bac   Section       12  freertos.o(.conststring)
    .data                                    0x20000000   Section       16  freertos.o(.data)
    xLightTaskHandle                         0x20000000   Data           4  freertos.o(.data)
    xColorTaskHandle                         0x20000004   Data           4  freertos.o(.data)
    g_xI2CMutex                              0x20000008   Data           4  freertos.o(.data)
    .data                                    0x20000010   Section       12  stm32f1xx_hal.o(.data)
    .data                                    0x2000001c   Section        4  system_stm32f1xx.o(.data)
    .data                                    0x20000020   Section       68  tasks.o(.data)
    pxDelayedTaskList                        0x20000024   Data           4  tasks.o(.data)
    pxOverflowDelayedTaskList                0x20000028   Data           4  tasks.o(.data)
    uxDeletedTasksWaitingCleanUp             0x2000002c   Data           4  tasks.o(.data)
    uxCurrentNumberOfTasks                   0x20000030   Data           4  tasks.o(.data)
    xTickCount                               0x20000034   Data           4  tasks.o(.data)
    uxTopReadyPriority                       0x20000038   Data           4  tasks.o(.data)
    xSchedulerRunning                        0x2000003c   Data           4  tasks.o(.data)
    uxPendedTicks                            0x20000040   Data           4  tasks.o(.data)
    xYieldPending                            0x20000044   Data           4  tasks.o(.data)
    xNumOfOverflows                          0x20000048   Data           4  tasks.o(.data)
    uxTaskNumber                             0x2000004c   Data           4  tasks.o(.data)
    xNextTaskUnblockTime                     0x20000050   Data           4  tasks.o(.data)
    xIdleTaskHandle                          0x20000054   Data           4  tasks.o(.data)
    uxSchedulerSuspended                     0x20000058   Data           4  tasks.o(.data)
    ulTaskSwitchedInTime                     0x2000005c   Data           4  tasks.o(.data)
    ulTotalRunTime                           0x20000060   Data           4  tasks.o(.data)
    .data                                    0x20000064   Section       20  timers.o(.data)
    pxCurrentTimerList                       0x20000064   Data           4  timers.o(.data)
    pxOverflowTimerList                      0x20000068   Data           4  timers.o(.data)
    xTimerQueue                              0x2000006c   Data           4  timers.o(.data)
    xTimerTaskHandle                         0x20000070   Data           4  timers.o(.data)
    xLastTime                                0x20000074   Data           4  timers.o(.data)
    .data                                    0x20000078   Section        4  cmsis_os2.o(.data)
    KernelState                              0x20000078   Data           4  cmsis_os2.o(.data)
    .data                                    0x2000007c   Section       24  heap_4.o(.data)
    pxEnd                                    0x2000007c   Data           4  heap_4.o(.data)
    xFreeBytesRemaining                      0x20000080   Data           4  heap_4.o(.data)
    xMinimumEverFreeBytesRemaining           0x20000084   Data           4  heap_4.o(.data)
    xBlockAllocatedBit                       0x20000088   Data           4  heap_4.o(.data)
    xStart                                   0x2000008c   Data           8  heap_4.o(.data)
    .data                                    0x20000094   Section       12  port.o(.data)
    ucMaxSysCallPriority                     0x20000094   Data           1  port.o(.data)
    uxCriticalNesting                        0x20000098   Data           4  port.o(.data)
    ulMaxPRIGROUPValue                       0x2000009c   Data           4  port.o(.data)
    .data                                    0x200000a0   Section        8  driver_oled.o(.data)
    mem_mode                                 0x200000a0   Data           1  driver_oled.o(.data)
    g_pHI2COLED                              0x200000a4   Data           4  driver_oled.o(.data)
    .data                                    0x200000a8   Section       12  driver_mpu6050.o(.data)
    g_pHI2C_MPU6050                          0x200000a8   Data           4  driver_mpu6050.o(.data)
    g_xEventMPU6050                          0x200000ac   Data           4  driver_mpu6050.o(.data)
    g_xQueueMPU6050                          0x200000b0   Data           4  driver_mpu6050.o(.data)
    .data                                    0x200000b4   Section        4  driver_passive_buzzer.o(.data)
    g_HPWM_PassiveBuzzer                     0x200000b4   Data           4  driver_passive_buzzer.o(.data)
    .data                                    0x200000b8   Section        4  driver_color_led.o(.data)
    g_HPWM_ColorLED                          0x200000b8   Data           4  driver_color_led.o(.data)
    .data                                    0x200000c0   Section       32  driver_ir_receiver.o(.data)
    g_IRReceiverIRQ_Cnt                      0x200000c0   Data           4  driver_ir_receiver.o(.data)
    g_queue_cnt                              0x200000c4   Data           4  driver_ir_receiver.o(.data)
    g_KeysBuf_R                              0x200000c8   Data           4  driver_ir_receiver.o(.data)
    g_KeysBuf_W                              0x200000cc   Data           4  driver_ir_receiver.o(.data)
    g_xQueueIR                               0x200000d0   Data           4  driver_ir_receiver.o(.data)
    pre_time                                 0x200000d8   Data           8  driver_ir_receiver.o(.data)
    .data                                    0x200000e0   Section       24  driver_rotary_encoder.o(.data)
    g_count                                  0x200000e0   Data           4  driver_rotary_encoder.o(.data)
    g_speed                                  0x200000e4   Data           4  driver_rotary_encoder.o(.data)
    pre_count                                0x200000e8   Data           4  driver_rotary_encoder.o(.data)
    g_xQueueRotary                           0x200000ec   Data           4  driver_rotary_encoder.o(.data)
    pre_time                                 0x200000f0   Data           8  driver_rotary_encoder.o(.data)
    .data                                    0x200000f8   Section        4  driver_uart.o(.data)
    g_HDebugUART                             0x200000f8   Data           4  driver_uart.o(.data)
    .data                                    0x200000fc   Section       16  draw.o(.data)
    oledBuffer                               0x200000fc   Data           4  draw.o(.data)
    g_xres                                   0x20000100   Data           4  draw.o(.data)
    g_yres                                   0x20000104   Data           4  draw.o(.data)
    g_bpp                                    0x20000108   Data           4  draw.o(.data)
    .data                                    0x2000010c   Section       76  game1.o(.data)
    first                                    0x2000010c   Data           1  game1.o(.data)
    uptMove                                  0x2000010d   Data           1  game1.o(.data)
    lives                                    0x2000010e   Data           1  game1.o(.data)
    lives_origin                             0x2000010f   Data           1  game1.o(.data)
    platformX                                0x20000110   Data           1  game1.o(.data)
    score                                    0x20000112   Data           2  game1.o(.data)
    blocks                                   0x20000114   Data           4  game1.o(.data)
    g_xres                                   0x20000118   Data           4  game1.o(.data)
    g_yres                                   0x2000011c   Data           4  game1.o(.data)
    g_bpp                                    0x20000120   Data           4  game1.o(.data)
    g_framebuffer                            0x20000124   Data           4  game1.o(.data)
    g_xQueueSetInput                         0x20000128   Data           4  game1.o(.data)
    g_xQueuePlatform                         0x2000012c   Data           4  game1.o(.data)
    g_xQueueIR                               0x20000130   Data           4  game1.o(.data)
    g_xQueueRotary                           0x20000134   Data           4  game1.o(.data)
    g_xQueueMPU6050                          0x20000138   Data           4  game1.o(.data)
    g_TimerDHT11                             0x2000013c   Data           4  game1.o(.data)
    inputdata                                0x20000140   Data           8  game1.o(.data)
    idata                                    0x20000148   Data           8  game1.o(.data)
    idata                                    0x20000150   Data           8  game1.o(.data)
    .data                                    0x20000158   Section        4  beep.o(.data)
    g_TimerSound                             0x20000158   Data           4  beep.o(.data)
    .data                                    0x2000015c   Section        4  rand.o(.data)
    _rand_state                              0x2000015c   Data           4  rand.o(.data)
    .data                                    0x20000160   Section        4  stdout.o(.data)
    .data                                    0x20000164   Section        4  mvars.o(.data)
    .data                                    0x20000168   Section        4  mvars.o(.data)
    .bss                                     0x2000016c   Section     1224  freertos.o(.bss)
    g_pucStackOfLightTask                    0x2000016c   Data         320  freertos.o(.bss)
    g_TCBofLightTask                         0x200002ac   Data          96  freertos.o(.bss)
    g_pucStackOfColorTask                    0x2000030c   Data         512  freertos.o(.bss)
    g_TCBofColorTask                         0x2000050c   Data          96  freertos.o(.bss)
    pcWriteBuffer                            0x2000056c   Data         200  freertos.o(.bss)
    .bss                                     0x20000634   Section       48  adc.o(.bss)
    .bss                                     0x20000664   Section       84  i2c.o(.bss)
    .bss                                     0x200006b8   Section       88  spi.o(.bss)
    .bss                                     0x20000710   Section      216  tim.o(.bss)
    .bss                                     0x200007e8   Section       72  usart.o(.bss)
    .bss                                     0x20000830   Section      752  usb.o(.bss)
    .bss                                     0x20000b20   Section       72  stm32f1xx_hal_timebase_tim.o(.bss)
    .bss                                     0x20000b68   Section       64  queue.o(.bss)
    .bss                                     0x20000ba8   Section     1220  tasks.o(.bss)
    pxReadyTasksLists                        0x20000ba8   Data        1120  tasks.o(.bss)
    xDelayedTaskList1                        0x20001008   Data          20  tasks.o(.bss)
    xDelayedTaskList2                        0x2000101c   Data          20  tasks.o(.bss)
    xPendingReadyList                        0x20001030   Data          20  tasks.o(.bss)
    xTasksWaitingTermination                 0x20001044   Data          20  tasks.o(.bss)
    xSuspendedTaskList                       0x20001058   Data          20  tasks.o(.bss)
    .bss                                     0x2000106c   Section      284  timers.o(.bss)
    xActiveTimerList1                        0x2000106c   Data          20  timers.o(.bss)
    xActiveTimerList2                        0x20001080   Data          20  timers.o(.bss)
    xStaticTimerQueue                        0x20001094   Data          84  timers.o(.bss)
    ucStaticTimerQueueStorage                0x200010e8   Data         160  timers.o(.bss)
    .bss                                     0x20001188   Section     1728  cmsis_os2.o(.bss)
    Idle_TCB                                 0x20001188   Data          96  cmsis_os2.o(.bss)
    Idle_Stack                               0x200011e8   Data         512  cmsis_os2.o(.bss)
    Timer_TCB                                0x200013e8   Data          96  cmsis_os2.o(.bss)
    Timer_Stack                              0x20001448   Data        1024  cmsis_os2.o(.bss)
    .bss                                     0x20001848   Section     8000  heap_4.o(.bss)
    ucHeap                                   0x20001848   Data        8000  heap_4.o(.bss)
    .bss                                     0x20003788   Section     1024  driver_oled.o(.bss)
    oledBuffer                               0x20003788   Data        1024  driver_oled.o(.bss)
    .bss                                     0x20003b88   Section      712  driver_ir_receiver.o(.bss)
    g_KeysBuf                                0x20003b88   Data         128  driver_ir_receiver.o(.bss)
    g_IRReceiverIRQ_Timers                   0x20003c08   Data         544  driver_ir_receiver.o(.bss)
    g_xQueues                                0x20003e28   Data          40  driver_ir_receiver.o(.bss)
    .bss                                     0x20003e50   Section      164  driver_rotary_encoder.o(.bss)
    g_ucQueueRotaryBuf                       0x20003e50   Data          80  driver_rotary_encoder.o(.bss)
    g_xQueueRotaryStaticStruct               0x20003ea0   Data          84  driver_rotary_encoder.o(.bss)
    .bss                                     0x20003ef4   Section       16  game1.o(.bss)
    ball                                     0x20003ef4   Data          16  game1.o(.bss)
    HEAP                                     0x20003f08   Section      512  startup_stm32f103xb.o(HEAP)
    STACK                                    0x20004108   Section     1024  startup_stm32f103xb.o(STACK)

    Global Symbols

    Symbol Name                              Value     Ov Type        Size  Object(Section)

    BuildAttributes$$THM_ISAv4$P$D$K$B$S$PE$A:L22UL41UL21$X:L11$S22US41US21$IEEE1$IW$USESV6$~STKCKD$USESV7$~SHL$OTIME$ROPI$EBA8$MICROLIB$REQ8$PRES8$EABIv2 0x00000000   Number         0  anon$$obj.o ABSOLUTE
    __ARM_use_no_argv                        0x00000000   Number         0  main.o ABSOLUTE
    _printf_a                                0x00000000   Number         0  stubs.o ABSOLUTE
    _printf_c                                0x00000000   Number         0  stubs.o ABSOLUTE
    _printf_charcount                        0x00000000   Number         0  stubs.o ABSOLUTE
    _printf_d                                0x00000000   Number         0  stubs.o ABSOLUTE
    _printf_e                                0x00000000   Number         0  stubs.o ABSOLUTE
    _printf_f                                0x00000000   Number         0  stubs.o ABSOLUTE
    _printf_flags                            0x00000000   Number         0  stubs.o ABSOLUTE
    _printf_fp_dec                           0x00000000   Number         0  stubs.o ABSOLUTE
    _printf_fp_hex                           0x00000000   Number         0  stubs.o ABSOLUTE
    _printf_g                                0x00000000   Number         0  stubs.o ABSOLUTE
    _printf_i                                0x00000000   Number         0  stubs.o ABSOLUTE
    _printf_int_dec                          0x00000000   Number         0  stubs.o ABSOLUTE
    _printf_l                                0x00000000   Number         0  stubs.o ABSOLUTE
    _printf_lc                               0x00000000   Number         0  stubs.o ABSOLUTE
    _printf_ll                               0x00000000   Number         0  stubs.o ABSOLUTE
    _printf_lld                              0x00000000   Number         0  stubs.o ABSOLUTE
    _printf_lli                              0x00000000   Number         0  stubs.o ABSOLUTE
    _printf_llo                              0x00000000   Number         0  stubs.o ABSOLUTE
    _printf_llu                              0x00000000   Number         0  stubs.o ABSOLUTE
    _printf_llx                              0x00000000   Number         0  stubs.o ABSOLUTE
    _printf_longlong_dec                     0x00000000   Number         0  stubs.o ABSOLUTE
    _printf_longlong_hex                     0x00000000   Number         0  stubs.o ABSOLUTE
    _printf_longlong_oct                     0x00000000   Number         0  stubs.o ABSOLUTE
    _printf_ls                               0x00000000   Number         0  stubs.o ABSOLUTE
    _printf_mbtowc                           0x00000000   Number         0  stubs.o ABSOLUTE
    _printf_n                                0x00000000   Number         0  stubs.o ABSOLUTE
    _printf_o                                0x00000000   Number         0  stubs.o ABSOLUTE
    _printf_p                                0x00000000   Number         0  stubs.o ABSOLUTE
    _printf_percent                          0x00000000   Number         0  stubs.o ABSOLUTE
    _printf_pre_padding                      0x00000000   Number         0  stubs.o ABSOLUTE
    _printf_return_value                     0x00000000   Number         0  stubs.o ABSOLUTE
    _printf_s                                0x00000000   Number         0  stubs.o ABSOLUTE
    _printf_sizespec                         0x00000000   Number         0  stubs.o ABSOLUTE
    _printf_str                              0x00000000   Number         0  stubs.o ABSOLUTE
    _printf_truncate_signed                  0x00000000   Number         0  stubs.o ABSOLUTE
    _printf_truncate_unsigned                0x00000000   Number         0  stubs.o ABSOLUTE
    _printf_u                                0x00000000   Number         0  stubs.o ABSOLUTE
    _printf_wc                               0x00000000   Number         0  stubs.o ABSOLUTE
    _printf_wctomb                           0x00000000   Number         0  stubs.o ABSOLUTE
    _printf_widthprec                        0x00000000   Number         0  stubs.o ABSOLUTE
    _printf_x                                0x00000000   Number         0  stubs.o ABSOLUTE
    __cpp_initialize__aeabi_                  - Undefined Weak Reference
    __cxa_finalize                            - Undefined Weak Reference
    _clock_init                               - Undefined Weak Reference
    _microlib_exit                            - Undefined Weak Reference
    __Vectors_Size                           0x000000ec   Number         0  startup_stm32f103xb.o ABSOLUTE
    __Vectors                                0x08000000   Data           4  startup_stm32f103xb.o(RESET)
    __Vectors_End                            0x080000ec   Data           0  startup_stm32f103xb.o(RESET)
    __main                                   0x080000ed   Thumb Code     0  entry.o(.ARM.Collect$$$$00000000)
    _main_stk                                0x080000ed   Thumb Code     0  entry2.o(.ARM.Collect$$$$00000001)
    _main_scatterload                        0x080000f1   Thumb Code     0  entry5.o(.ARM.Collect$$$$00000004)
    __main_after_scatterload                 0x080000f5   Thumb Code     0  entry5.o(.ARM.Collect$$$$00000004)
    _main_clock                              0x080000f5   Thumb Code     0  entry7b.o(.ARM.Collect$$$$00000008)
    _main_cpp_init                           0x080000f5   Thumb Code     0  entry8b.o(.ARM.Collect$$$$0000000A)
    _main_init                               0x080000f5   Thumb Code     0  entry9a.o(.ARM.Collect$$$$0000000B)
    __rt_final_cpp                           0x080000fd   Thumb Code     0  entry10a.o(.ARM.Collect$$$$0000000D)
    __rt_final_exit                          0x080000fd   Thumb Code     0  entry11a.o(.ARM.Collect$$$$0000000F)
    SVC_Handler                              0x08000101   Thumb Code    32  port.o(.emb_text)
    __asm___6_port_c_39a90d8d__prvStartFirstTask 0x08000125   Thumb Code    28  port.o(.emb_text)
    PendSV_Handler                           0x08000145   Thumb Code    72  port.o(.emb_text)
    vPortGetIPSR                             0x08000191   Thumb Code     6  port.o(.emb_text)
    Reset_Handler                            0x08000199   Thumb Code     8  startup_stm32f103xb.o(.text)
    ADC1_2_IRQHandler                        0x080001b3   Thumb Code     0  startup_stm32f103xb.o(.text)
    CAN1_RX1_IRQHandler                      0x080001b3   Thumb Code     0  startup_stm32f103xb.o(.text)
    CAN1_SCE_IRQHandler                      0x080001b3   Thumb Code     0  startup_stm32f103xb.o(.text)
    DMA1_Channel1_IRQHandler                 0x080001b3   Thumb Code     0  startup_stm32f103xb.o(.text)
    DMA1_Channel2_IRQHandler                 0x080001b3   Thumb Code     0  startup_stm32f103xb.o(.text)
    DMA1_Channel3_IRQHandler                 0x080001b3   Thumb Code     0  startup_stm32f103xb.o(.text)
    DMA1_Channel4_IRQHandler                 0x080001b3   Thumb Code     0  startup_stm32f103xb.o(.text)
    DMA1_Channel5_IRQHandler                 0x080001b3   Thumb Code     0  startup_stm32f103xb.o(.text)
    DMA1_Channel6_IRQHandler                 0x080001b3   Thumb Code     0  startup_stm32f103xb.o(.text)
    DMA1_Channel7_IRQHandler                 0x080001b3   Thumb Code     0  startup_stm32f103xb.o(.text)
    EXTI0_IRQHandler                         0x080001b3   Thumb Code     0  startup_stm32f103xb.o(.text)
    EXTI1_IRQHandler                         0x080001b3   Thumb Code     0  startup_stm32f103xb.o(.text)
    EXTI2_IRQHandler                         0x080001b3   Thumb Code     0  startup_stm32f103xb.o(.text)
    EXTI3_IRQHandler                         0x080001b3   Thumb Code     0  startup_stm32f103xb.o(.text)
    EXTI4_IRQHandler                         0x080001b3   Thumb Code     0  startup_stm32f103xb.o(.text)
    FLASH_IRQHandler                         0x080001b3   Thumb Code     0  startup_stm32f103xb.o(.text)
    I2C1_ER_IRQHandler                       0x080001b3   Thumb Code     0  startup_stm32f103xb.o(.text)
    I2C1_EV_IRQHandler                       0x080001b3   Thumb Code     0  startup_stm32f103xb.o(.text)
    I2C2_ER_IRQHandler                       0x080001b3   Thumb Code     0  startup_stm32f103xb.o(.text)
    I2C2_EV_IRQHandler                       0x080001b3   Thumb Code     0  startup_stm32f103xb.o(.text)
    PVD_IRQHandler                           0x080001b3   Thumb Code     0  startup_stm32f103xb.o(.text)
    RCC_IRQHandler                           0x080001b3   Thumb Code     0  startup_stm32f103xb.o(.text)
    RTC_Alarm_IRQHandler                     0x080001b3   Thumb Code     0  startup_stm32f103xb.o(.text)
    RTC_IRQHandler                           0x080001b3   Thumb Code     0  startup_stm32f103xb.o(.text)
    SPI1_IRQHandler                          0x080001b3   Thumb Code     0  startup_stm32f103xb.o(.text)
    SPI2_IRQHandler                          0x080001b3   Thumb Code     0  startup_stm32f103xb.o(.text)
    TAMPER_IRQHandler                        0x080001b3   Thumb Code     0  startup_stm32f103xb.o(.text)
    TIM1_BRK_IRQHandler                      0x080001b3   Thumb Code     0  startup_stm32f103xb.o(.text)
    TIM1_CC_IRQHandler                       0x080001b3   Thumb Code     0  startup_stm32f103xb.o(.text)
    TIM1_TRG_COM_IRQHandler                  0x080001b3   Thumb Code     0  startup_stm32f103xb.o(.text)
    TIM1_UP_IRQHandler                       0x080001b3   Thumb Code     0  startup_stm32f103xb.o(.text)
    TIM2_IRQHandler                          0x080001b3   Thumb Code     0  startup_stm32f103xb.o(.text)
    TIM3_IRQHandler                          0x080001b3   Thumb Code     0  startup_stm32f103xb.o(.text)
    USART1_IRQHandler                        0x080001b3   Thumb Code     0  startup_stm32f103xb.o(.text)
    USART2_IRQHandler                        0x080001b3   Thumb Code     0  startup_stm32f103xb.o(.text)
    USART3_IRQHandler                        0x080001b3   Thumb Code     0  startup_stm32f103xb.o(.text)
    USBWakeUp_IRQHandler                     0x080001b3   Thumb Code     0  startup_stm32f103xb.o(.text)
    USB_HP_CAN1_TX_IRQHandler                0x080001b3   Thumb Code     0  startup_stm32f103xb.o(.text)
    USB_LP_CAN1_RX0_IRQHandler               0x080001b3   Thumb Code     0  startup_stm32f103xb.o(.text)
    WWDG_IRQHandler                          0x080001b3   Thumb Code     0  startup_stm32f103xb.o(.text)
    __aeabi_uldivmod                         0x080001bd   Thumb Code    98  uldiv.o(.text)
    __aeabi_llsr                             0x0800021f   Thumb Code    32  llushr.o(.text)
    _ll_ushift_r                             0x0800021f   Thumb Code     0  llushr.o(.text)
    rand                                     0x08000241   Thumb Code    20  rand.o(.text)
    srand                                    0x08000255   Thumb Code     6  rand.o(.text)
    __aeabi_memcpy                           0x08000265   Thumb Code    36  memcpya.o(.text)
    __aeabi_memcpy4                          0x08000265   Thumb Code     0  memcpya.o(.text)
    __aeabi_memcpy8                          0x08000265   Thumb Code     0  memcpya.o(.text)
    __aeabi_memset                           0x08000289   Thumb Code    14  memseta.o(.text)
    __aeabi_memset4                          0x08000289   Thumb Code     0  memseta.o(.text)
    __aeabi_memset8                          0x08000289   Thumb Code     0  memseta.o(.text)
    __aeabi_memclr                           0x08000297   Thumb Code     4  memseta.o(.text)
    __aeabi_memclr4                          0x08000297   Thumb Code     0  memseta.o(.text)
    __aeabi_memclr8                          0x08000297   Thumb Code     0  memseta.o(.text)
    memset                                   0x0800029b   Thumb Code    18  memseta.o(.text)
    strlen                                   0x080002ad   Thumb Code    14  strlen.o(.text)
    strcpy                                   0x080002bb   Thumb Code    18  strcpy.o(.text)
    __aeabi_fadd                             0x080002cd   Thumb Code   164  fadd.o(.text)
    __aeabi_fsub                             0x08000371   Thumb Code     6  fadd.o(.text)
    __aeabi_frsub                            0x08000377   Thumb Code     6  fadd.o(.text)
    __ARM_scalbnf                            0x0800037d   Thumb Code    24  fscalb.o(.text)
    scalbnf                                  0x0800037d   Thumb Code     0  fscalb.o(.text)
    __aeabi_i2f                              0x08000395   Thumb Code    18  fflti.o(.text)
    __aeabi_ui2f                             0x080003a7   Thumb Code    10  ffltui.o(.text)
    __aeabi_f2uiz                            0x080003b1   Thumb Code    40  ffixui.o(.text)
    __aeabi_cfcmpeq                          0x080003d9   Thumb Code     0  cfcmple.o(.text)
    __aeabi_cfcmple                          0x080003d9   Thumb Code    20  cfcmple.o(.text)
    __aeabi_cfrcmple                         0x080003ed   Thumb Code    20  cfrcmple.o(.text)
    __aeabi_uidiv                            0x08000401   Thumb Code     0  uidiv.o(.text)
    __aeabi_uidivmod                         0x08000401   Thumb Code    44  uidiv.o(.text)
    __aeabi_llsl                             0x0800042d   Thumb Code    30  llshl.o(.text)
    _ll_shift_l                              0x0800042d   Thumb Code     0  llshl.o(.text)
    __I$use$fp                               0x0800044b   Thumb Code     0  iusefp.o(.text)
    _float_round                             0x0800044b   Thumb Code    18  fepilogue.o(.text)
    _float_epilogue                          0x0800045d   Thumb Code    92  fepilogue.o(.text)
    __scatterload                            0x080004b9   Thumb Code    28  init.o(.text)
    __scatterload_rt2                        0x080004b9   Thumb Code     0  init.o(.text)
    __decompress                             0x080004dd   Thumb Code     0  __dczerorl2.o(.text)
    __decompress1                            0x080004dd   Thumb Code    86  __dczerorl2.o(.text)
    ADC_ConversionStop_Disable               0x08000535   Thumb Code    86  stm32f1xx_hal_adc.o(i.ADC_ConversionStop_Disable)
    BusFault_Handler                         0x0800058b   Thumb Code     2  stm32f1xx_it.o(i.BusFault_Handler)
    ColorLED_Set                             0x0800058d   Thumb Code   158  driver_color_led.o(i.ColorLED_Set)
    ColorLED_Test                            0x08000631   Thumb Code    32  driver_color_led.o(i.ColorLED_Test)
    DHT11_Init                               0x080006ad   Thumb Code     6  driver_dht11.o(i.DHT11_Init)
    DHT11_Read                               0x080006e5   Thumb Code   138  driver_dht11.o(i.DHT11_Read)
    DebugMon_Handler                         0x080007df   Thumb Code     2  stm32f1xx_it.o(i.DebugMon_Handler)
    DispatchKey                              0x080007e1   Thumb Code    62  driver_ir_receiver.o(i.DispatchKey)
    EXTI15_10_IRQHandler                     0x0800082d   Thumb Code    30  stm32f1xx_it.o(i.EXTI15_10_IRQHandler)
    EXTI9_5_IRQHandler                       0x0800084b   Thumb Code     6  stm32f1xx_it.o(i.EXTI9_5_IRQHandler)
    Error_Handler                            0x08000851   Thumb Code     4  main.o(i.Error_Handler)
    GameSoundTimer_func                      0x08000855   Thumb Code     6  beep.o(i.GameSoundTimer_func)
    GetI2C                                   0x0800085d   Thumb Code    12  freertos.o(i.GetI2C)
    GetQueueIR                               0x0800086d   Thumb Code     6  driver_ir_receiver.o(i.GetQueueIR)
    GetQueueMPU6050                          0x08000879   Thumb Code     6  driver_mpu6050.o(i.GetQueueMPU6050)
    GetQueueRotary                           0x08000885   Thumb Code     6  driver_rotary_encoder.o(i.GetQueueRotary)
    HAL_ADC_ConfigChannel                    0x08000891   Thumb Code   240  stm32f1xx_hal_adc.o(i.HAL_ADC_ConfigChannel)
    HAL_ADC_Init                             0x0800098d   Thumb Code   272  stm32f1xx_hal_adc.o(i.HAL_ADC_Init)
    HAL_ADC_MspInit                          0x08000aa9   Thumb Code    76  adc.o(i.HAL_ADC_MspInit)
    HAL_GPIO_EXTI_Callback                   0x08000b01   Thumb Code    30  driver_irq.o(i.HAL_GPIO_EXTI_Callback)
    HAL_GPIO_EXTI_IRQHandler                 0x08000b21   Thumb Code    18  stm32f1xx_hal_gpio.o(i.HAL_GPIO_EXTI_IRQHandler)
    HAL_GPIO_Init                            0x08000b39   Thumb Code   446  stm32f1xx_hal_gpio.o(i.HAL_GPIO_Init)
    HAL_GPIO_ReadPin                         0x08000d19   Thumb Code    10  stm32f1xx_hal_gpio.o(i.HAL_GPIO_ReadPin)
    HAL_GPIO_WritePin                        0x08000d23   Thumb Code    10  stm32f1xx_hal_gpio.o(i.HAL_GPIO_WritePin)
    HAL_GetTick                              0x08000d2d   Thumb Code     6  stm32f1xx_hal.o(i.HAL_GetTick)
    HAL_I2C_Init                             0x08000d39   Thumb Code   376  stm32f1xx_hal_i2c.o(i.HAL_I2C_Init)
    HAL_I2C_Master_Transmit                  0x08000ec1   Thumb Code   290  stm32f1xx_hal_i2c.o(i.HAL_I2C_Master_Transmit)
    HAL_I2C_Mem_Read                         0x08000fed   Thumb Code   574  stm32f1xx_hal_i2c.o(i.HAL_I2C_Mem_Read)
    HAL_I2C_Mem_Write                        0x0800123d   Thumb Code   294  stm32f1xx_hal_i2c.o(i.HAL_I2C_Mem_Write)
    HAL_I2C_MspInit                          0x0800136d   Thumb Code    80  i2c.o(i.HAL_I2C_MspInit)
    HAL_IncTick                              0x080013c9   Thumb Code    12  stm32f1xx_hal.o(i.HAL_IncTick)
    HAL_Init                                 0x080013d9   Thumb Code    32  stm32f1xx_hal.o(i.HAL_Init)
    HAL_InitTick                             0x080013fd   Thumb Code   132  stm32f1xx_hal_timebase_tim.o(i.HAL_InitTick)
    HAL_MspInit                              0x08001495   Thumb Code    62  stm32f1xx_hal_msp.o(i.HAL_MspInit)
    HAL_NVIC_EnableIRQ                       0x080014dd   Thumb Code    26  stm32f1xx_hal_cortex.o(i.HAL_NVIC_EnableIRQ)
    HAL_NVIC_SetPriority                     0x080014f9   Thumb Code    60  stm32f1xx_hal_cortex.o(i.HAL_NVIC_SetPriority)
    HAL_NVIC_SetPriorityGrouping             0x08001539   Thumb Code    26  stm32f1xx_hal_cortex.o(i.HAL_NVIC_SetPriorityGrouping)
    HAL_PCD_Init                             0x0800155d   Thumb Code   218  stm32f1xx_hal_pcd.o(i.HAL_PCD_Init)
    HAL_PCD_MspInit                          0x08001639   Thumb Code    30  usb.o(i.HAL_PCD_MspInit)
    HAL_RCCEx_PeriphCLKConfig                0x08001661   Thumb Code   224  stm32f1xx_hal_rcc_ex.o(i.HAL_RCCEx_PeriphCLKConfig)
    HAL_RCC_ClockConfig                      0x0800174d   Thumb Code   280  stm32f1xx_hal_rcc.o(i.HAL_RCC_ClockConfig)
    HAL_RCC_GetClockConfig                   0x08001879   Thumb Code    54  stm32f1xx_hal_rcc.o(i.HAL_RCC_GetClockConfig)
    HAL_RCC_GetPCLK1Freq                     0x080018b9   Thumb Code    20  stm32f1xx_hal_rcc.o(i.HAL_RCC_GetPCLK1Freq)
    HAL_RCC_GetPCLK2Freq                     0x080018d9   Thumb Code    20  stm32f1xx_hal_rcc.o(i.HAL_RCC_GetPCLK2Freq)
    HAL_RCC_GetSysClockFreq                  0x080018f9   Thumb Code    58  stm32f1xx_hal_rcc.o(i.HAL_RCC_GetSysClockFreq)
    HAL_RCC_OscConfig                        0x08001945   Thumb Code   778  stm32f1xx_hal_rcc.o(i.HAL_RCC_OscConfig)
    HAL_SPI_Init                             0x08001c65   Thumb Code   178  stm32f1xx_hal_spi.o(i.HAL_SPI_Init)
    HAL_SPI_MspInit                          0x08001d19   Thumb Code    98  spi.o(i.HAL_SPI_MspInit)
    HAL_TIMEx_BreakCallback                  0x08001d89   Thumb Code     2  stm32f1xx_hal_tim_ex.o(i.HAL_TIMEx_BreakCallback)
    HAL_TIMEx_CommutCallback                 0x08001d8b   Thumb Code     2  stm32f1xx_hal_tim_ex.o(i.HAL_TIMEx_CommutCallback)
    HAL_TIMEx_ConfigBreakDeadTime            0x08001d8d   Thumb Code    84  stm32f1xx_hal_tim_ex.o(i.HAL_TIMEx_ConfigBreakDeadTime)
    HAL_TIMEx_MasterConfigSynchronization    0x08001de1   Thumb Code    92  stm32f1xx_hal_tim_ex.o(i.HAL_TIMEx_MasterConfigSynchronization)
    HAL_TIM_Base_DeInit                      0x08001e49   Thumb Code    92  stm32f1xx_hal_tim.o(i.HAL_TIM_Base_DeInit)
    HAL_TIM_Base_Init                        0x08001ea5   Thumb Code    90  stm32f1xx_hal_tim.o(i.HAL_TIM_Base_Init)
    HAL_TIM_Base_MspDeInit                   0x08001f01   Thumb Code    36  tim.o(i.HAL_TIM_Base_MspDeInit)
    HAL_TIM_Base_MspInit                     0x08001f2d   Thumb Code    52  tim.o(i.HAL_TIM_Base_MspInit)
    HAL_TIM_Base_Start_IT                    0x08001f69   Thumb Code    76  stm32f1xx_hal_tim.o(i.HAL_TIM_Base_Start_IT)
    HAL_TIM_ConfigClockSource                0x08001fc1   Thumb Code   220  stm32f1xx_hal_tim.o(i.HAL_TIM_ConfigClockSource)
    HAL_TIM_IC_CaptureCallback               0x0800209d   Thumb Code     2  stm32f1xx_hal_tim.o(i.HAL_TIM_IC_CaptureCallback)
    HAL_TIM_IRQHandler                       0x0800209f   Thumb Code   358  stm32f1xx_hal_tim.o(i.HAL_TIM_IRQHandler)
    HAL_TIM_MspPostInit                      0x08002205   Thumb Code   212  tim.o(i.HAL_TIM_MspPostInit)
    HAL_TIM_OC_DelayElapsedCallback          0x080022f1   Thumb Code     2  stm32f1xx_hal_tim.o(i.HAL_TIM_OC_DelayElapsedCallback)
    HAL_TIM_PWM_ConfigChannel                0x080022f3   Thumb Code   204  stm32f1xx_hal_tim.o(i.HAL_TIM_PWM_ConfigChannel)
    HAL_TIM_PWM_Init                         0x080023bf   Thumb Code    90  stm32f1xx_hal_tim.o(i.HAL_TIM_PWM_Init)
    HAL_TIM_PWM_MspInit                      0x08002419   Thumb Code    30  tim.o(i.HAL_TIM_PWM_MspInit)
    HAL_TIM_PWM_PulseFinishedCallback        0x08002441   Thumb Code     2  stm32f1xx_hal_tim.o(i.HAL_TIM_PWM_PulseFinishedCallback)
    HAL_TIM_PWM_Start                        0x08002445   Thumb Code   144  stm32f1xx_hal_tim.o(i.HAL_TIM_PWM_Start)
    HAL_TIM_PWM_Stop                         0x080024e1   Thumb Code   108  stm32f1xx_hal_tim.o(i.HAL_TIM_PWM_Stop)
    HAL_TIM_PeriodElapsedCallback            0x08002551   Thumb Code    14  main.o(i.HAL_TIM_PeriodElapsedCallback)
    HAL_TIM_TriggerCallback                  0x08002565   Thumb Code     2  stm32f1xx_hal_tim.o(i.HAL_TIM_TriggerCallback)
    HAL_UART_Init                            0x08002567   Thumb Code   100  stm32f1xx_hal_uart.o(i.HAL_UART_Init)
    HAL_UART_MspInit                         0x080025cd   Thumb Code   100  usart.o(i.HAL_UART_MspInit)
    HAL_UART_Transmit                        0x0800263d   Thumb Code   154  stm32f1xx_hal_uart.o(i.HAL_UART_Transmit)
    HardFault_Handler                        0x080026d7   Thumb Code     2  stm32f1xx_it.o(i.HardFault_Handler)
    IRReceiver_IRQ_Callback                  0x08002cd1   Thumb Code   156  driver_ir_receiver.o(i.IRReceiver_IRQ_Callback)
    IRReceiver_Init                          0x08002d85   Thumb Code    24  driver_ir_receiver.o(i.IRReceiver_Init)
    InputTask                                0x08002da1   Thumb Code   114  game1.o(i.InputTask)
    LCD_Clear                                0x08002e19   Thumb Code     4  driver_lcd.o(i.LCD_Clear)
    LCD_Flush                                0x08002e1d   Thumb Code     4  driver_lcd.o(i.LCD_Flush)
    LCD_FlushRegion                          0x08002e21   Thumb Code     4  driver_lcd.o(i.LCD_FlushRegion)
    LCD_GetFrameBuffer                       0x08002e25   Thumb Code     4  driver_lcd.o(i.LCD_GetFrameBuffer)
    LCD_Init                                 0x08002e29   Thumb Code     4  driver_lcd.o(i.LCD_Init)
    LCD_PrintHex                             0x08002e2d   Thumb Code     4  driver_lcd.o(i.LCD_PrintHex)
    LCD_PrintSignedVal                       0x08002e31   Thumb Code     4  driver_lcd.o(i.LCD_PrintSignedVal)
    LCD_PrintString                          0x08002e35   Thumb Code     4  driver_lcd.o(i.LCD_PrintString)
    Led_Control                              0x08002e39   Thumb Code    26  driver_led.o(i.Led_Control)
    Led_Init                                 0x08002e59   Thumb Code    74  driver_led.o(i.Led_Init)
    Led_Test                                 0x08002ead   Thumb Code    38  driver_led.o(i.Led_Test)
    MPU6050_Callback                         0x08002ed5   Thumb Code    42  driver_mpu6050.o(i.MPU6050_Callback)
    MPU6050_GetID                            0x08002f09   Thumb Code    24  driver_mpu6050.o(i.MPU6050_GetID)
    MPU6050_Init                             0x08002f21   Thumb Code    90  driver_mpu6050.o(i.MPU6050_Init)
    MPU6050_ReadData                         0x08002f81   Thumb Code   266  driver_mpu6050.o(i.MPU6050_ReadData)
    MPU6050_ReadRegister                     0x0800308d   Thumb Code    28  driver_mpu6050.o(i.MPU6050_ReadRegister)
    MPU6050_Test                             0x080030ad   Thumb Code   170  driver_mpu6050.o(i.MPU6050_Test)
    MPU_6050_Task                            0x08003195   Thumb Code    70  driver_mpu6050.o(i.MPU_6050_Task)
    MX_ADC1_Init                             0x080031e1   Thumb Code    70  adc.o(i.MX_ADC1_Init)
    MX_FREERTOS_Init                         0x08003231   Thumb Code   128  freertos.o(i.MX_FREERTOS_Init)
    MX_GPIO_Init                             0x08003301   Thumb Code   326  gpio.o(i.MX_GPIO_Init)
    MX_I2C1_Init                             0x08003461   Thumb Code    50  i2c.o(i.MX_I2C1_Init)
    MX_SPI1_Init                             0x080034a1   Thumb Code    62  spi.o(i.MX_SPI1_Init)
    MX_TIM1_Init                             0x080034e9   Thumb Code   198  tim.o(i.MX_TIM1_Init)
    MX_TIM2_Init                             0x080035b9   Thumb Code   182  tim.o(i.MX_TIM2_Init)
    MX_TIM3_Init                             0x08003675   Thumb Code   110  tim.o(i.MX_TIM3_Init)
    MX_USART1_UART_Init                      0x080036ed   Thumb Code    48  usart.o(i.MX_USART1_UART_Init)
    MX_USB_PCD_Init                          0x08003725   Thumb Code    42  usb.o(i.MX_USB_PCD_Init)
    MemManage_Handler                        0x08003759   Thumb Code     2  stm32f1xx_it.o(i.MemManage_Handler)
    NMI_Handler                              0x0800375b   Thumb Code     2  stm32f1xx_it.o(i.NMI_Handler)
    OLED_Clear                               0x0800375d   Thumb Code    42  driver_oled.o(i.OLED_Clear)
    OLED_Flush                               0x08003789   Thumb Code    50  driver_oled.o(i.OLED_Flush)
    OLED_FlushRegion                         0x080037c1   Thumb Code    90  driver_oled.o(i.OLED_FlushRegion)
    OLED_GetFrameBuffer                      0x08003821   Thumb Code    16  driver_oled.o(i.OLED_GetFrameBuffer)
    OLED_Init                                0x08003835   Thumb Code   142  driver_oled.o(i.OLED_Init)
    OLED_PrintHex                            0x080038c9   Thumb Code   116  driver_oled.o(i.OLED_PrintHex)
    OLED_PrintSignedVal                      0x0800394d   Thumb Code   126  driver_oled.o(i.OLED_PrintSignedVal)
    OLED_PrintString                         0x080039cb   Thumb Code    50  driver_oled.o(i.OLED_PrintString)
    OLED_PutChar                             0x080039fd   Thumb Code    66  driver_oled.o(i.OLED_PutChar)
    OLED_SetPosition                         0x08003a71   Thumb Code    58  driver_oled.o(i.OLED_SetPosition)
    PassiveBuzzer_Control                    0x08003af9   Thumb Code    20  driver_passive_buzzer.o(i.PassiveBuzzer_Control)
    PassiveBuzzer_Init                       0x08003b11   Thumb Code    92  driver_passive_buzzer.o(i.PassiveBuzzer_Init)
    PassiveBuzzer_Set_Freq_Duty              0x08003b79   Thumb Code   122  driver_passive_buzzer.o(i.PassiveBuzzer_Set_Freq_Duty)
    PutI2C                                   0x08003cb5   Thumb Code    14  freertos.o(i.PutI2C)
    RegisterQueueHandle                      0x08003cc9   Thumb Code    20  driver_ir_receiver.o(i.RegisterQueueHandle)
    RotaryEncoder_IRQ_Callback               0x08003ce5   Thumb Code   136  driver_rotary_encoder.o(i.RotaryEncoder_IRQ_Callback)
    RotaryEncoder_Init                       0x08003d7d   Thumb Code    26  driver_rotary_encoder.o(i.RotaryEncoder_Init)
    StartDefaultTask                         0x08003da1   Thumb Code    22  freertos.o(i.StartDefaultTask)
    SysTick_Handler                          0x08003db9   Thumb Code    38  port.o(i.SysTick_Handler)
    SystemClock_Config                       0x08003de5   Thumb Code   124  main.o(i.SystemClock_Config)
    SystemInit                               0x08003e61   Thumb Code     2  system_stm32f1xx.o(i.SystemInit)
    TIM4_IRQHandler                          0x08003e65   Thumb Code     6  stm32f1xx_it.o(i.TIM4_IRQHandler)
    TIM_Base_SetConfig                       0x08003e71   Thumb Code    94  stm32f1xx_hal_tim.o(i.TIM_Base_SetConfig)
    TIM_CCxChannelCmd                        0x08003edd   Thumb Code    26  stm32f1xx_hal_tim.o(i.TIM_CCxChannelCmd)
    TIM_ETR_SetConfig                        0x08003ef7   Thumb Code    20  stm32f1xx_hal_tim.o(i.TIM_ETR_SetConfig)
    TIM_OC2_SetConfig                        0x08003f6d   Thumb Code    84  stm32f1xx_hal_tim.o(i.TIM_OC2_SetConfig)
    USB_CoreInit                             0x080041d9   Thumb Code     4  stm32f1xx_ll_usb.o(i.USB_CoreInit)
    USB_DevDisconnect                        0x080041dd   Thumb Code     4  stm32f1xx_ll_usb.o(i.USB_DevDisconnect)
    USB_DevInit                              0x080041e1   Thumb Code    18  stm32f1xx_ll_usb.o(i.USB_DevInit)
    USB_DisableGlobalInt                     0x080041f3   Thumb Code    14  stm32f1xx_ll_usb.o(i.USB_DisableGlobalInt)
    USB_SetCurrentMode                       0x08004201   Thumb Code     4  stm32f1xx_ll_usb.o(i.USB_SetCurrentMode)
    UsageFault_Handler                       0x08004205   Thumb Code     2  stm32f1xx_it.o(i.UsageFault_Handler)
    __0printf$3                              0x08004209   Thumb Code    22  printf3.o(i.__0printf$3)
    __1printf$3                              0x08004209   Thumb Code     0  printf3.o(i.__0printf$3)
    __2printf                                0x08004209   Thumb Code     0  printf3.o(i.__0printf$3)
    __0sprintf$3                             0x08004229   Thumb Code    34  printf3.o(i.__0sprintf$3)
    __1sprintf$3                             0x08004229   Thumb Code     0  printf3.o(i.__0sprintf$3)
    __2sprintf                               0x08004229   Thumb Code     0  printf3.o(i.__0sprintf$3)
    __scatterload_copy                       0x08004271   Thumb Code    14  handlers.o(i.__scatterload_copy)
    __scatterload_null                       0x0800427f   Thumb Code     2  handlers.o(i.__scatterload_null)
    __scatterload_zeroinit                   0x08004281   Thumb Code    14  handlers.o(i.__scatterload_zeroinit)
    buzzer_buzz                              0x08004455   Thumb Code    30  beep.o(i.buzzer_buzz)
    buzzer_init                              0x08004479   Thumb Code    28  beep.o(i.buzzer_init)
    configureTimerForRunTimeStats            0x080044a9   Thumb Code     2  freertos.o(i.configureTimerForRunTimeStats)
    draw_bitmap                              0x080044ad   Thumb Code   458  draw.o(i.draw_bitmap)
    draw_end                                 0x0800467d   Thumb Code     4  draw.o(i.draw_end)
    draw_flushArea                           0x08004681   Thumb Code    36  draw.o(i.draw_flushArea)
    draw_init                                0x080046a5   Thumb Code    20  draw.o(i.draw_init)
    draw_string                              0x080046bd   Thumb Code   166  draw.o(i.draw_string)
    draw_string_P                            0x0800476d   Thumb Code    54  draw.o(i.draw_string_P)
    eTaskGetState                            0x080047a5   Thumb Code    94  tasks.o(i.eTaskGetState)
    fputc                                    0x0800480d   Thumb Code    22  driver_uart.o(i.fputc)
    free                                     0x08004829   Thumb Code    76  malloc.o(i.free)
    game1_draw                               0x08004879   Thumb Code   910  game1.o(i.game1_draw)
    game1_task                               0x08004c35   Thumb Code   268  game1.o(i.game1_task)
    getRunTimeCounterValue                   0x08004d91   Thumb Code    18  freertos.o(i.getRunTimeCounterValue)
    main                                     0x08004da3   Thumb Code    58  main.o(i.main)
    malloc                                   0x08004ddd   Thumb Code    92  malloc.o(i.malloc)
    mdelay                                   0x08004e49   Thumb Code    26  driver_timer.o(i.mdelay)
    osKernelInitialize                       0x08004e65   Thumb Code    50  cmsis_os2.o(i.osKernelInitialize)
    osKernelStart                            0x08004e9d   Thumb Code    58  cmsis_os2.o(i.osKernelStart)
    osThreadNew                              0x08004edd   Thumb Code   160  cmsis_os2.o(i.osThreadNew)
    pvPortMalloc                             0x0800590d   Thumb Code   210  heap_4.o(i.pvPortMalloc)
    pvTaskIncrementMutexHeldCount            0x080059e5   Thumb Code    18  tasks.o(i.pvTaskIncrementMutexHeldCount)
    pxPortInitialiseStack                    0x080059fd   Thumb Code    32  port.o(i.pxPortInitialiseStack)
    system_get_ns                            0x08005a5d   Thumb Code    58  driver_timer.o(i.system_get_ns)
    udelay                                   0x08005aa1   Thumb Code    52  driver_timer.o(i.udelay)
    uxListRemove                             0x08005ad9   Thumb Code    38  list.o(i.uxListRemove)
    uxTaskGetSystemState                     0x08005b01   Thumb Code   160  tasks.o(i.uxTaskGetSystemState)
    uxTaskResetEventItemValue                0x08005bad   Thumb Code    20  tasks.o(i.uxTaskResetEventItemValue)
    vApplicationGetIdleTaskMemory            0x08005bc5   Thumb Code    16  cmsis_os2.o(i.vApplicationGetIdleTaskMemory)
    vApplicationGetTimerTaskMemory           0x08005bd9   Thumb Code    18  cmsis_os2.o(i.vApplicationGetTimerTaskMemory)
    vApplicationIdleHook                     0x08005bf1   Thumb Code    20  freertos.o(i.vApplicationIdleHook)
    vEventGroupSetBitsCallback               0x08005c11   Thumb Code     4  event_groups.o(i.vEventGroupSetBitsCallback)
    vListInitialise                          0x08005c15   Thumb Code    22  list.o(i.vListInitialise)
    vListInitialiseItem                      0x08005c2b   Thumb Code     6  list.o(i.vListInitialiseItem)
    vListInsert                              0x08005c31   Thumb Code    48  list.o(i.vListInsert)
    vListInsertEnd                           0x08005c61   Thumb Code    24  list.o(i.vListInsertEnd)
    vPortEnterCritical                       0x08005c79   Thumb Code    54  port.o(i.vPortEnterCritical)
    vPortExitCritical                        0x08005cb9   Thumb Code    34  port.o(i.vPortExitCritical)
    vPortFree                                0x08005ce1   Thumb Code    88  heap_4.o(i.vPortFree)
    vPortSetupTimerInterrupt                 0x08005d3d   Thumb Code    32  port.o(i.vPortSetupTimerInterrupt)
    vPortValidateInterruptPriority           0x08005d61   Thumb Code    74  port.o(i.vPortValidateInterruptPriority)
    vQueueAddToRegistry                      0x08005db5   Thumb Code    34  queue.o(i.vQueueAddToRegistry)
    vQueueWaitForMessageRestricted           0x08005ddd   Thumb Code    68  queue.o(i.vQueueWaitForMessageRestricted)
    vTaskDelay                               0x08005e21   Thumb Code    66  tasks.o(i.vTaskDelay)
    vTaskDelete                              0x08005e6d   Thumb Code   130  tasks.o(i.vTaskDelete)
    vTaskGetInfo                             0x08005efd   Thumb Code   114  tasks.o(i.vTaskGetInfo)
    vTaskGetRunTimeStats                     0x08005f75   Thumb Code   150  tasks.o(i.vTaskGetRunTimeStats)
    vTaskInternalSetTimeOutState             0x08006029   Thumb Code    12  tasks.o(i.vTaskInternalSetTimeOutState)
    vTaskMissedYield                         0x08006039   Thumb Code     8  tasks.o(i.vTaskMissedYield)
    vTaskPlaceOnEventList                    0x08006045   Thumb Code    44  tasks.o(i.vTaskPlaceOnEventList)
    vTaskPlaceOnEventListRestricted          0x08006075   Thumb Code    52  tasks.o(i.vTaskPlaceOnEventListRestricted)
    vTaskPlaceOnUnorderedEventList           0x080060ad   Thumb Code    76  tasks.o(i.vTaskPlaceOnUnorderedEventList)
    vTaskPriorityDisinheritAfterTimeout      0x080060fd   Thumb Code   134  tasks.o(i.vTaskPriorityDisinheritAfterTimeout)
    vTaskRemoveFromUnorderedEventList        0x0800618d   Thumb Code   102  tasks.o(i.vTaskRemoveFromUnorderedEventList)
    vTaskStartScheduler                      0x080061fd   Thumb Code   122  tasks.o(i.vTaskStartScheduler)
    vTaskSuspendAll                          0x08006289   Thumb Code    10  tasks.o(i.vTaskSuspendAll)
    vTaskSwitchContext                       0x08006299   Thumb Code   114  tasks.o(i.vTaskSwitchContext)
    xEventGroupCreate                        0x08006315   Thumb Code    28  event_groups.o(i.xEventGroupCreate)
    xEventGroupSetBits                       0x08006331   Thumb Code   140  event_groups.o(i.xEventGroupSetBits)
    xEventGroupSetBitsFromISR                0x080063bd   Thumb Code    12  event_groups.o(i.xEventGroupSetBitsFromISR)
    xEventGroupWaitBits                      0x080063cd   Thumb Code   260  event_groups.o(i.xEventGroupWaitBits)
    xPortStartScheduler                      0x080064d5   Thumb Code   154  port.o(i.xPortStartScheduler)
    xQueueAddToSet                           0x0800657d   Thumb Code    34  queue.o(i.xQueueAddToSet)
    xQueueCreateMutex                        0x0800659f   Thumb Code    22  queue.o(i.xQueueCreateMutex)
    xQueueCreateSet                          0x080065b5   Thumb Code     8  queue.o(i.xQueueCreateSet)
    xQueueGenericCreate                      0x080065bd   Thumb Code    72  queue.o(i.xQueueGenericCreate)
    xQueueGenericCreateStatic                0x08006605   Thumb Code   102  queue.o(i.xQueueGenericCreateStatic)
    xQueueGenericReset                       0x0800666d   Thumb Code   132  queue.o(i.xQueueGenericReset)
    xQueueGenericSend                        0x080066f5   Thumb Code   360  queue.o(i.xQueueGenericSend)
    xQueueGenericSendFromISR                 0x08006861   Thumb Code   202  queue.o(i.xQueueGenericSendFromISR)
    xQueueReceive                            0x0800692d   Thumb Code   308  queue.o(i.xQueueReceive)
    xQueueSelectFromSet                      0x08006a65   Thumb Code    18  queue.o(i.xQueueSelectFromSet)
    xQueueSemaphoreTake                      0x08006a79   Thumb Code   372  queue.o(i.xQueueSemaphoreTake)
    xTaskCheckForTimeOut                     0x08006bf1   Thumb Code   112  tasks.o(i.xTaskCheckForTimeOut)
    xTaskCreate                              0x08006c65   Thumb Code    90  tasks.o(i.xTaskCreate)
    xTaskCreateStatic                        0x08006cbf   Thumb Code    86  tasks.o(i.xTaskCreateStatic)
    xTaskGetSchedulerState                   0x08006d15   Thumb Code    22  tasks.o(i.xTaskGetSchedulerState)
    xTaskGetTickCount                        0x08006d31   Thumb Code     6  tasks.o(i.xTaskGetTickCount)
    xTaskIncrementTick                       0x08006d3d   Thumb Code   190  tasks.o(i.xTaskIncrementTick)
    xTaskPriorityDisinherit                  0x08006e05   Thumb Code   118  tasks.o(i.xTaskPriorityDisinherit)
    xTaskPriorityInherit                     0x08006e85   Thumb Code   112  tasks.o(i.xTaskPriorityInherit)
    xTaskRemoveFromEventList                 0x08006efd   Thumb Code    98  tasks.o(i.xTaskRemoveFromEventList)
    xTaskResumeAll                           0x08006f6d   Thumb Code   182  tasks.o(i.xTaskResumeAll)
    xTimerCreate                             0x08007031   Thumb Code    52  timers.o(i.xTimerCreate)
    xTimerCreateTimerTask                    0x08007065   Thumb Code    78  timers.o(i.xTimerCreateTimerTask)
    xTimerGenericCommand                     0x080070c5   Thumb Code    98  timers.o(i.xTimerGenericCommand)
    xTimerPendFunctionCallFromISR            0x0800712d   Thumb Code    34  timers.o(i.xTimerPendFunctionCallFromISR)
    defaultTask_attributes                   0x08007154   Data          36  freertos.o(.constdata)
    AHBPrescTable                            0x0800718a   Data          16  system_stm32f1xx.o(.constdata)
    APBPrescTable                            0x0800719a   Data           8  system_stm32f1xx.o(.constdata)
    ascii_font                               0x080071a2   Data        2048  driver_oled.o(.constdata)
    livesImg                                 0x080079bf   Data           7  resources.o(.constdata)
    smallFont                                0x080079c6   Data         485  resources.o(.constdata)
    Region$$Table$$Base                      0x08007bb8   Number         0  anon$$obj.o(Region$$Table)
    Region$$Table$$Limit                     0x08007bd8   Number         0  anon$$obj.o(Region$$Table)
    defaultTaskHandle                        0x2000000c   Data           4  freertos.o(.data)
    uwTickFreq                               0x20000010   Data           1  stm32f1xx_hal.o(.data)
    uwTickPrio                               0x20000014   Data           4  stm32f1xx_hal.o(.data)
    uwTick                                   0x20000018   Data           4  stm32f1xx_hal.o(.data)
    SystemCoreClock                          0x2000001c   Data           4  system_stm32f1xx.o(.data)
    pxCurrentTCB                             0x20000020   Data           4  tasks.o(.data)
    __stdout                                 0x20000160   Data           4  stdout.o(.data)
    __microlib_freelist                      0x20000164   Data           4  mvars.o(.data)
    __microlib_freelist_initialised          0x20000168   Data           4  mvars.o(.data)
    hadc1                                    0x20000634   Data          48  adc.o(.bss)
    hi2c1                                    0x20000664   Data          84  i2c.o(.bss)
    hspi1                                    0x200006b8   Data          88  spi.o(.bss)
    htim1                                    0x20000710   Data          72  tim.o(.bss)
    htim2                                    0x20000758   Data          72  tim.o(.bss)
    htim3                                    0x200007a0   Data          72  tim.o(.bss)
    huart1                                   0x200007e8   Data          72  usart.o(.bss)
    hpcd_USB_FS                              0x20000830   Data         752  usb.o(.bss)
    htim4                                    0x20000b20   Data          72  stm32f1xx_hal_timebase_tim.o(.bss)
    xQueueRegistry                           0x20000b68   Data          64  queue.o(.bss)
    __heap_base                              0x20003f08   Data           0  startup_stm32f103xb.o(HEAP)
    __heap_limit                             0x20004108   Data           0  startup_stm32f103xb.o(HEAP)
    __initial_sp                             0x20004508   Data           0  startup_stm32f103xb.o(STACK)



==============================================================================

Memory Map of the image

  Image Entry point : 0x080000ed

  Load Region LR_IROM1 (Base: 0x08000000, Size: 0x00007d44, Max: 0x00010000, ABSOLUTE, COMPRESSED[0x00007c00])

    Execution Region ER_IROM1 (Exec base: 0x08000000, Load base: 0x08000000, Size: 0x00007bd8, Max: 0x00010000, ABSOLUTE)

    Exec Addr    Load Addr    Size         Type   Attr      Idx    E Section Name        Object

    0x08000000   0x08000000   0x000000ec   Data   RO            3    RESET               startup_stm32f103xb.o
    0x080000ec   0x080000ec   0x00000000   Code   RO         8044  * .ARM.Collect$$$$00000000  mc_w.l(entry.o)
    0x080000ec   0x080000ec   0x00000004   Code   RO         8377    .ARM.Collect$$$$00000001  mc_w.l(entry2.o)
    0x080000f0   0x080000f0   0x00000004   Code   RO         8380    .ARM.Collect$$$$00000004  mc_w.l(entry5.o)
    0x080000f4   0x080000f4   0x00000000   Code   RO         8382    .ARM.Collect$$$$00000008  mc_w.l(entry7b.o)
    0x080000f4   0x080000f4   0x00000000   Code   RO         8384    .ARM.Collect$$$$0000000A  mc_w.l(entry8b.o)
    0x080000f4   0x080000f4   0x00000008   Code   RO         8385    .ARM.Collect$$$$0000000B  mc_w.l(entry9a.o)
    0x080000fc   0x080000fc   0x00000000   Code   RO         8387    .ARM.Collect$$$$0000000D  mc_w.l(entry10a.o)
    0x080000fc   0x080000fc   0x00000000   Code   RO         8389    .ARM.Collect$$$$0000000F  mc_w.l(entry11a.o)
    0x080000fc   0x080000fc   0x00000004   Code   RO         8378    .ARM.Collect$$$$00002712  mc_w.l(entry2.o)
    0x08000100   0x08000100   0x00000096   Code   RO         6417    .emb_text           port.o
    0x08000196   0x08000196   0x00000002   PAD
    0x08000198   0x08000198   0x00000024   Code   RO            4    .text               startup_stm32f103xb.o
    0x080001bc   0x080001bc   0x00000062   Code   RO         8047    .text               mc_w.l(uldiv.o)
    0x0800021e   0x0800021e   0x00000020   Code   RO         8049    .text               mc_w.l(llushr.o)
    0x0800023e   0x0800023e   0x00000002   PAD
    0x08000240   0x08000240   0x00000024   Code   RO         8051    .text               mc_w.l(rand.o)
    0x08000264   0x08000264   0x00000024   Code   RO         8054    .text               mc_w.l(memcpya.o)
    0x08000288   0x08000288   0x00000024   Code   RO         8058    .text               mc_w.l(memseta.o)
    0x080002ac   0x080002ac   0x0000000e   Code   RO         8060    .text               mc_w.l(strlen.o)
    0x080002ba   0x080002ba   0x00000012   Code   RO         8062    .text               mc_w.l(strcpy.o)
    0x080002cc   0x080002cc   0x000000b0   Code   RO         8355    .text               mf_w.l(fadd.o)
    0x0800037c   0x0800037c   0x00000018   Code   RO         8357    .text               mf_w.l(fscalb.o)
    0x08000394   0x08000394   0x00000012   Code   RO         8363    .text               mf_w.l(fflti.o)
    0x080003a6   0x080003a6   0x0000000a   Code   RO         8365    .text               mf_w.l(ffltui.o)
    0x080003b0   0x080003b0   0x00000028   Code   RO         8369    .text               mf_w.l(ffixui.o)
    0x080003d8   0x080003d8   0x00000014   Code   RO         8373    .text               mf_w.l(cfcmple.o)
    0x080003ec   0x080003ec   0x00000014   Code   RO         8375    .text               mf_w.l(cfrcmple.o)
    0x08000400   0x08000400   0x0000002c   Code   RO         8392    .text               mc_w.l(uidiv.o)
    0x0800042c   0x0800042c   0x0000001e   Code   RO         8394    .text               mc_w.l(llshl.o)
    0x0800044a   0x0800044a   0x00000000   Code   RO         8400    .text               mc_w.l(iusefp.o)
    0x0800044a   0x0800044a   0x0000006e   Code   RO         8401    .text               mf_w.l(fepilogue.o)
    0x080004b8   0x080004b8   0x00000024   Code   RO         8411    .text               mc_w.l(init.o)
    0x080004dc   0x080004dc   0x00000056   Code   RO         8421    .text               mc_w.l(__dczerorl2.o)
    0x08000532   0x08000532   0x00000002   PAD
    0x08000534   0x08000534   0x00000056   Code   RO          974    i.ADC_ConversionStop_Disable  stm32f1xx_hal_adc.o
    0x0800058a   0x0800058a   0x00000002   Code   RO          799    i.BusFault_Handler  stm32f1xx_it.o
    0x0800058c   0x0800058c   0x000000a4   Code   RO         7089    i.ColorLED_Set      driver_color_led.o
    0x08000630   0x08000630   0x00000024   Code   RO         7090    i.ColorLED_Test     driver_color_led.o
    0x08000654   0x08000654   0x00000058   Code   RO         7867    i.DHT11Timer_func   game1.o
    0x080006ac   0x080006ac   0x00000006   Code   RO         6940    i.DHT11_Init        driver_dht11.o
    0x080006b2   0x080006b2   0x00000002   PAD
    0x080006b4   0x080006b4   0x00000018   Code   RO         6941    i.DHT11_PinRead     driver_dht11.o
    0x080006cc   0x080006cc   0x00000018   Code   RO         6942    i.DHT11_PinSet      driver_dht11.o
    0x080006e4   0x080006e4   0x00000090   Code   RO         6943    i.DHT11_Read        driver_dht11.o
    0x08000774   0x08000774   0x00000046   Code   RO         6944    i.DHT11_ReadByte    driver_dht11.o
    0x080007ba   0x080007ba   0x00000024   Code   RO         6946    i.DHT11_WaitFor_Val  driver_dht11.o
    0x080007de   0x080007de   0x00000002   Code   RO          800    i.DebugMon_Handler  stm32f1xx_it.o
    0x080007e0   0x080007e0   0x0000004c   Code   RO         7241    i.DispatchKey       driver_ir_receiver.o
    0x0800082c   0x0800082c   0x0000001e   Code   RO          801    i.EXTI15_10_IRQHandler  stm32f1xx_it.o
    0x0800084a   0x0800084a   0x00000006   Code   RO          802    i.EXTI9_5_IRQHandler  stm32f1xx_it.o
    0x08000850   0x08000850   0x00000004   Code   RO           75    i.Error_Handler     main.o
    0x08000854   0x08000854   0x00000006   Code   RO         8018    i.GameSoundTimer_func  beep.o
    0x0800085a   0x0800085a   0x00000002   PAD
    0x0800085c   0x0800085c   0x00000010   Code   RO          384    i.GetI2C            freertos.o
    0x0800086c   0x0800086c   0x0000000c   Code   RO         7243    i.GetQueueIR        driver_ir_receiver.o
    0x08000878   0x08000878   0x0000000c   Code   RO         6661    i.GetQueueMPU6050   driver_mpu6050.o
    0x08000884   0x08000884   0x0000000c   Code   RO         7566    i.GetQueueRotary    driver_rotary_encoder.o
    0x08000890   0x08000890   0x000000fc   Code   RO          980    i.HAL_ADC_ConfigChannel  stm32f1xx_hal_adc.o
    0x0800098c   0x0800098c   0x0000011c   Code   RO          989    i.HAL_ADC_Init      stm32f1xx_hal_adc.o
    0x08000aa8   0x08000aa8   0x00000058   Code   RO          518    i.HAL_ADC_MspInit   adc.o
    0x08000b00   0x08000b00   0x0000001e   Code   RO         7620    i.HAL_GPIO_EXTI_Callback  driver_irq.o
    0x08000b1e   0x08000b1e   0x00000002   PAD
    0x08000b20   0x08000b20   0x00000018   Code   RO         1566    i.HAL_GPIO_EXTI_IRQHandler  stm32f1xx_hal_gpio.o
    0x08000b38   0x08000b38   0x000001e0   Code   RO         1567    i.HAL_GPIO_Init     stm32f1xx_hal_gpio.o
    0x08000d18   0x08000d18   0x0000000a   Code   RO         1569    i.HAL_GPIO_ReadPin  stm32f1xx_hal_gpio.o
    0x08000d22   0x08000d22   0x0000000a   Code   RO         1571    i.HAL_GPIO_WritePin  stm32f1xx_hal_gpio.o
    0x08000d2c   0x08000d2c   0x0000000c   Code   RO         1261    i.HAL_GetTick       stm32f1xx_hal.o
    0x08000d38   0x08000d38   0x00000188   Code   RO         2238    i.HAL_I2C_Init      stm32f1xx_hal_i2c.o
    0x08000ec0   0x08000ec0   0x0000012c   Code   RO         2251    i.HAL_I2C_Master_Transmit  stm32f1xx_hal_i2c.o
    0x08000fec   0x08000fec   0x00000250   Code   RO         2256    i.HAL_I2C_Mem_Read  stm32f1xx_hal_i2c.o
    0x0800123c   0x0800123c   0x00000130   Code   RO         2259    i.HAL_I2C_Mem_Write  stm32f1xx_hal_i2c.o
    0x0800136c   0x0800136c   0x0000005c   Code   RO          560    i.HAL_I2C_MspInit   i2c.o
    0x080013c8   0x080013c8   0x00000010   Code   RO         1267    i.HAL_IncTick       stm32f1xx_hal.o
    0x080013d8   0x080013d8   0x00000024   Code   RO         1268    i.HAL_Init          stm32f1xx_hal.o
    0x080013fc   0x080013fc   0x00000098   Code   RO          899    i.HAL_InitTick      stm32f1xx_hal_timebase_tim.o
    0x08001494   0x08001494   0x00000048   Code   RO          875    i.HAL_MspInit       stm32f1xx_hal_msp.o
    0x080014dc   0x080014dc   0x0000001a   Code   RO         1727    i.HAL_NVIC_EnableIRQ  stm32f1xx_hal_cortex.o
    0x080014f6   0x080014f6   0x00000002   PAD
    0x080014f8   0x080014f8   0x00000040   Code   RO         1733    i.HAL_NVIC_SetPriority  stm32f1xx_hal_cortex.o
    0x08001538   0x08001538   0x00000024   Code   RO         1734    i.HAL_NVIC_SetPriorityGrouping  stm32f1xx_hal_cortex.o
    0x0800155c   0x0800155c   0x000000da   Code   RO         4346    i.HAL_PCD_Init      stm32f1xx_hal_pcd.o
    0x08001636   0x08001636   0x00000002   PAD
    0x08001638   0x08001638   0x00000028   Code   RO          758    i.HAL_PCD_MspInit   usb.o
    0x08001660   0x08001660   0x000000ec   Code   RO         1529    i.HAL_RCCEx_PeriphCLKConfig  stm32f1xx_hal_rcc_ex.o
    0x0800174c   0x0800174c   0x0000012c   Code   RO         1425    i.HAL_RCC_ClockConfig  stm32f1xx_hal_rcc.o
    0x08001878   0x08001878   0x00000040   Code   RO         1429    i.HAL_RCC_GetClockConfig  stm32f1xx_hal_rcc.o
    0x080018b8   0x080018b8   0x00000020   Code   RO         1432    i.HAL_RCC_GetPCLK1Freq  stm32f1xx_hal_rcc.o
    0x080018d8   0x080018d8   0x00000020   Code   RO         1433    i.HAL_RCC_GetPCLK2Freq  stm32f1xx_hal_rcc.o
    0x080018f8   0x080018f8   0x0000004c   Code   RO         1434    i.HAL_RCC_GetSysClockFreq  stm32f1xx_hal_rcc.o
    0x08001944   0x08001944   0x00000320   Code   RO         1437    i.HAL_RCC_OscConfig  stm32f1xx_hal_rcc.o
    0x08001c64   0x08001c64   0x000000b2   Code   RO         2675    i.HAL_SPI_Init      stm32f1xx_hal_spi.o
    0x08001d16   0x08001d16   0x00000002   PAD
    0x08001d18   0x08001d18   0x00000070   Code   RO          602    i.HAL_SPI_MspInit   spi.o
    0x08001d88   0x08001d88   0x00000002   Code   RO         3692    i.HAL_TIMEx_BreakCallback  stm32f1xx_hal_tim_ex.o
    0x08001d8a   0x08001d8a   0x00000002   Code   RO         3693    i.HAL_TIMEx_CommutCallback  stm32f1xx_hal_tim_ex.o
    0x08001d8c   0x08001d8c   0x00000054   Code   RO         3695    i.HAL_TIMEx_ConfigBreakDeadTime  stm32f1xx_hal_tim_ex.o
    0x08001de0   0x08001de0   0x00000068   Code   RO         3711    i.HAL_TIMEx_MasterConfigSynchronization  stm32f1xx_hal_tim_ex.o
    0x08001e48   0x08001e48   0x0000005c   Code   RO         2986    i.HAL_TIM_Base_DeInit  stm32f1xx_hal_tim.o
    0x08001ea4   0x08001ea4   0x0000005a   Code   RO         2988    i.HAL_TIM_Base_Init  stm32f1xx_hal_tim.o
    0x08001efe   0x08001efe   0x00000002   PAD
    0x08001f00   0x08001f00   0x0000002c   Code   RO          643    i.HAL_TIM_Base_MspDeInit  tim.o
    0x08001f2c   0x08001f2c   0x0000003c   Code   RO          644    i.HAL_TIM_Base_MspInit  tim.o
    0x08001f68   0x08001f68   0x00000058   Code   RO         2993    i.HAL_TIM_Base_Start_IT  stm32f1xx_hal_tim.o
    0x08001fc0   0x08001fc0   0x000000dc   Code   RO         2997    i.HAL_TIM_ConfigClockSource  stm32f1xx_hal_tim.o
    0x0800209c   0x0800209c   0x00000002   Code   RO         3022    i.HAL_TIM_IC_CaptureCallback  stm32f1xx_hal_tim.o
    0x0800209e   0x0800209e   0x00000166   Code   RO         3036    i.HAL_TIM_IRQHandler  stm32f1xx_hal_tim.o
    0x08002204   0x08002204   0x000000ec   Code   RO          645    i.HAL_TIM_MspPostInit  tim.o
    0x080022f0   0x080022f0   0x00000002   Code   RO         3039    i.HAL_TIM_OC_DelayElapsedCallback  stm32f1xx_hal_tim.o
    0x080022f2   0x080022f2   0x000000cc   Code   RO         3060    i.HAL_TIM_PWM_ConfigChannel  stm32f1xx_hal_tim.o
    0x080023be   0x080023be   0x0000005a   Code   RO         3063    i.HAL_TIM_PWM_Init  stm32f1xx_hal_tim.o
    0x08002418   0x08002418   0x00000028   Code   RO          647    i.HAL_TIM_PWM_MspInit  tim.o
    0x08002440   0x08002440   0x00000002   Code   RO         3066    i.HAL_TIM_PWM_PulseFinishedCallback  stm32f1xx_hal_tim.o
    0x08002442   0x08002442   0x00000002   PAD
    0x08002444   0x08002444   0x0000009c   Code   RO         3068    i.HAL_TIM_PWM_Start  stm32f1xx_hal_tim.o
    0x080024e0   0x080024e0   0x00000070   Code   RO         3071    i.HAL_TIM_PWM_Stop  stm32f1xx_hal_tim.o
    0x08002550   0x08002550   0x00000014   Code   RO           76    i.HAL_TIM_PeriodElapsedCallback  main.o
    0x08002564   0x08002564   0x00000002   Code   RO         3079    i.HAL_TIM_TriggerCallback  stm32f1xx_hal_tim.o
    0x08002566   0x08002566   0x00000064   Code   RO         3989    i.HAL_UART_Init     stm32f1xx_hal_uart.o
    0x080025ca   0x080025ca   0x00000002   PAD
    0x080025cc   0x080025cc   0x00000070   Code   RO          716    i.HAL_UART_MspInit  usart.o
    0x0800263c   0x0800263c   0x0000009a   Code   RO         3997    i.HAL_UART_Transmit  stm32f1xx_hal_uart.o
    0x080026d6   0x080026d6   0x00000002   Code   RO          803    i.HardFault_Handler  stm32f1xx_it.o
    0x080026d8   0x080026d8   0x0000002e   Code   RO         2281    i.I2C_IsAcknowledgeFailed  stm32f1xx_hal_i2c.o
    0x08002706   0x08002706   0x00000002   PAD
    0x08002708   0x08002708   0x0000009c   Code   RO         2285    i.I2C_MasterRequestWrite  stm32f1xx_hal_i2c.o
    0x080027a4   0x080027a4   0x000000fc   Code   RO         2291    i.I2C_RequestMemoryRead  stm32f1xx_hal_i2c.o
    0x080028a0   0x080028a0   0x000000a8   Code   RO         2292    i.I2C_RequestMemoryWrite  stm32f1xx_hal_i2c.o
    0x08002948   0x08002948   0x00000056   Code   RO         2296    i.I2C_WaitOnBTFFlagUntilTimeout  stm32f1xx_hal_i2c.o
    0x0800299e   0x0800299e   0x00000002   PAD
    0x080029a0   0x080029a0   0x00000090   Code   RO         2297    i.I2C_WaitOnFlagUntilTimeout  stm32f1xx_hal_i2c.o
    0x08002a30   0x08002a30   0x000000bc   Code   RO         2298    i.I2C_WaitOnMasterAddressFlagUntilTimeout  stm32f1xx_hal_i2c.o
    0x08002aec   0x08002aec   0x00000070   Code   RO         2299    i.I2C_WaitOnRXNEFlagUntilTimeout  stm32f1xx_hal_i2c.o
    0x08002b5c   0x08002b5c   0x00000056   Code   RO         2300    i.I2C_WaitOnTXEFlagUntilTimeout  stm32f1xx_hal_i2c.o
    0x08002bb2   0x08002bb2   0x00000002   PAD
    0x08002bb4   0x08002bb4   0x0000011c   Code   RO         7245    i.IRReceiver_IRQTimes_Parse  driver_ir_receiver.o
    0x08002cd0   0x08002cd0   0x000000b4   Code   RO         7246    i.IRReceiver_IRQ_Callback  driver_ir_receiver.o
    0x08002d84   0x08002d84   0x0000001c   Code   RO         7247    i.IRReceiver_Init   driver_ir_receiver.o
    0x08002da0   0x08002da0   0x00000078   Code   RO         7868    i.InputTask         game1.o
    0x08002e18   0x08002e18   0x00000004   Code   RO         6859    i.LCD_Clear         driver_lcd.o
    0x08002e1c   0x08002e1c   0x00000004   Code   RO         6862    i.LCD_Flush         driver_lcd.o
    0x08002e20   0x08002e20   0x00000004   Code   RO         6863    i.LCD_FlushRegion   driver_lcd.o
    0x08002e24   0x08002e24   0x00000004   Code   RO         6864    i.LCD_GetFrameBuffer  driver_lcd.o
    0x08002e28   0x08002e28   0x00000004   Code   RO         6865    i.LCD_Init          driver_lcd.o
    0x08002e2c   0x08002e2c   0x00000004   Code   RO         6866    i.LCD_PrintHex      driver_lcd.o
    0x08002e30   0x08002e30   0x00000004   Code   RO         6867    i.LCD_PrintSignedVal  driver_lcd.o
    0x08002e34   0x08002e34   0x00000004   Code   RO         6868    i.LCD_PrintString   driver_lcd.o
    0x08002e38   0x08002e38   0x00000020   Code   RO         6497    i.Led_Control       driver_led.o
    0x08002e58   0x08002e58   0x00000054   Code   RO         6498    i.Led_Init          driver_led.o
    0x08002eac   0x08002eac   0x00000026   Code   RO         6499    i.Led_Test          driver_led.o
    0x08002ed2   0x08002ed2   0x00000002   PAD
    0x08002ed4   0x08002ed4   0x00000034   Code   RO         6662    i.MPU6050_Callback  driver_mpu6050.o
    0x08002f08   0x08002f08   0x00000018   Code   RO         6663    i.MPU6050_GetID     driver_mpu6050.o
    0x08002f20   0x08002f20   0x00000060   Code   RO         6664    i.MPU6050_Init      driver_mpu6050.o
    0x08002f80   0x08002f80   0x0000010a   Code   RO         6665    i.MPU6050_ReadData  driver_mpu6050.o
    0x0800308a   0x0800308a   0x00000002   PAD
    0x0800308c   0x0800308c   0x00000020   Code   RO         6666    i.MPU6050_ReadRegister  driver_mpu6050.o
    0x080030ac   0x080030ac   0x000000c4   Code   RO         6667    i.MPU6050_Test      driver_mpu6050.o
    0x08003170   0x08003170   0x00000024   Code   RO         6668    i.MPU6050_WriteRegister  driver_mpu6050.o
    0x08003194   0x08003194   0x0000004c   Code   RO         6669    i.MPU_6050_Task     driver_mpu6050.o
    0x080031e0   0x080031e0   0x00000050   Code   RO          519    i.MX_ADC1_Init      adc.o
    0x08003230   0x08003230   0x000000d0   Code   RO          385    i.MX_FREERTOS_Init  freertos.o
    0x08003300   0x08003300   0x00000160   Code   RO          255    i.MX_GPIO_Init      gpio.o
    0x08003460   0x08003460   0x00000040   Code   RO          561    i.MX_I2C1_Init      i2c.o
    0x080034a0   0x080034a0   0x00000048   Code   RO          603    i.MX_SPI1_Init      spi.o
    0x080034e8   0x080034e8   0x000000d0   Code   RO          648    i.MX_TIM1_Init      tim.o
    0x080035b8   0x080035b8   0x000000bc   Code   RO          649    i.MX_TIM2_Init      tim.o
    0x08003674   0x08003674   0x00000078   Code   RO          650    i.MX_TIM3_Init      tim.o
    0x080036ec   0x080036ec   0x00000038   Code   RO          717    i.MX_USART1_UART_Init  usart.o
    0x08003724   0x08003724   0x00000034   Code   RO          759    i.MX_USB_PCD_Init   usb.o
    0x08003758   0x08003758   0x00000002   Code   RO          804    i.MemManage_Handler  stm32f1xx_it.o
    0x0800375a   0x0800375a   0x00000002   Code   RO          805    i.NMI_Handler       stm32f1xx_it.o
    0x0800375c   0x0800375c   0x0000002a   Code   RO         6539    i.OLED_Clear        driver_oled.o
    0x08003786   0x08003786   0x00000002   PAD
    0x08003788   0x08003788   0x00000038   Code   RO         6542    i.OLED_Flush        driver_oled.o
    0x080037c0   0x080037c0   0x00000060   Code   RO         6543    i.OLED_FlushRegion  driver_oled.o
    0x08003820   0x08003820   0x00000014   Code   RO         6544    i.OLED_GetFrameBuffer  driver_oled.o
    0x08003834   0x08003834   0x00000094   Code   RO         6545    i.OLED_Init         driver_oled.o
    0x080038c8   0x080038c8   0x00000084   Code   RO         6546    i.OLED_PrintHex     driver_oled.o
    0x0800394c   0x0800394c   0x0000007e   Code   RO         6547    i.OLED_PrintSignedVal  driver_oled.o
    0x080039ca   0x080039ca   0x00000032   Code   RO         6548    i.OLED_PrintString  driver_oled.o
    0x080039fc   0x080039fc   0x00000048   Code   RO         6549    i.OLED_PutChar      driver_oled.o
    0x08003a44   0x08003a44   0x0000002c   Code   RO         6550    i.OLED_SetComConfig  driver_oled.o
    0x08003a70   0x08003a70   0x00000040   Code   RO         6551    i.OLED_SetPosition  driver_oled.o
    0x08003ab0   0x08003ab0   0x00000028   Code   RO         6553    i.OLED_WriteCmd     driver_oled.o
    0x08003ad8   0x08003ad8   0x00000020   Code   RO         6554    i.OLED_WriteNBytes  driver_oled.o
    0x08003af8   0x08003af8   0x00000018   Code   RO         7037    i.PassiveBuzzer_Control  driver_passive_buzzer.o
    0x08003b10   0x08003b10   0x00000068   Code   RO         7038    i.PassiveBuzzer_Init  driver_passive_buzzer.o
    0x08003b78   0x08003b78   0x00000088   Code   RO         7039    i.PassiveBuzzer_Set_Freq_Duty  driver_passive_buzzer.o
    0x08003c00   0x08003c00   0x0000004c   Code   RO         7869    i.ProcessIRData     game1.o
    0x08003c4c   0x08003c4c   0x00000068   Code   RO         7870    i.ProcessRotaryData  game1.o
    0x08003cb4   0x08003cb4   0x00000014   Code   RO          386    i.PutI2C            freertos.o
    0x08003cc8   0x08003cc8   0x0000001c   Code   RO         7250    i.RegisterQueueHandle  driver_ir_receiver.o
    0x08003ce4   0x08003ce4   0x00000098   Code   RO         7567    i.RotaryEncoder_IRQ_Callback  driver_rotary_encoder.o
    0x08003d7c   0x08003d7c   0x00000024   Code   RO         7568    i.RotaryEncoder_Init  driver_rotary_encoder.o
    0x08003da0   0x08003da0   0x00000016   Code   RO          387    i.StartDefaultTask  freertos.o
    0x08003db6   0x08003db6   0x00000002   PAD
    0x08003db8   0x08003db8   0x0000002c   Code   RO         6418    i.SysTick_Handler   port.o
    0x08003de4   0x08003de4   0x0000007c   Code   RO           77    i.SystemClock_Config  main.o
    0x08003e60   0x08003e60   0x00000002   Code   RO         4788    i.SystemInit        system_stm32f1xx.o
    0x08003e62   0x08003e62   0x00000002   PAD
    0x08003e64   0x08003e64   0x0000000c   Code   RO          806    i.TIM4_IRQHandler   stm32f1xx_it.o
    0x08003e70   0x08003e70   0x0000006c   Code   RO         3081    i.TIM_Base_SetConfig  stm32f1xx_hal_tim.o
    0x08003edc   0x08003edc   0x0000001a   Code   RO         3082    i.TIM_CCxChannelCmd  stm32f1xx_hal_tim.o
    0x08003ef6   0x08003ef6   0x00000014   Code   RO         3092    i.TIM_ETR_SetConfig  stm32f1xx_hal_tim.o
    0x08003f0a   0x08003f0a   0x00000010   Code   RO         3093    i.TIM_ITRx_SetConfig  stm32f1xx_hal_tim.o
    0x08003f1a   0x08003f1a   0x00000002   PAD
    0x08003f1c   0x08003f1c   0x00000050   Code   RO         3094    i.TIM_OC1_SetConfig  stm32f1xx_hal_tim.o
    0x08003f6c   0x08003f6c   0x00000058   Code   RO         3095    i.TIM_OC2_SetConfig  stm32f1xx_hal_tim.o
    0x08003fc4   0x08003fc4   0x00000058   Code   RO         3096    i.TIM_OC3_SetConfig  stm32f1xx_hal_tim.o
    0x0800401c   0x0800401c   0x00000044   Code   RO         3097    i.TIM_OC4_SetConfig  stm32f1xx_hal_tim.o
    0x08004060   0x08004060   0x00000022   Code   RO         3099    i.TIM_TI1_ConfigInputStage  stm32f1xx_hal_tim.o
    0x08004082   0x08004082   0x00000024   Code   RO         3101    i.TIM_TI2_ConfigInputStage  stm32f1xx_hal_tim.o
    0x080040a6   0x080040a6   0x00000002   PAD
    0x080040a8   0x080040a8   0x000000b8   Code   RO         4015    i.UART_SetConfig    stm32f1xx_hal_uart.o
    0x08004160   0x08004160   0x00000078   Code   RO         4018    i.UART_WaitOnFlagUntilTimeout  stm32f1xx_hal_uart.o
    0x080041d8   0x080041d8   0x00000004   Code   RO         4604    i.USB_CoreInit      stm32f1xx_ll_usb.o
    0x080041dc   0x080041dc   0x00000004   Code   RO         4608    i.USB_DevDisconnect  stm32f1xx_ll_usb.o
    0x080041e0   0x080041e0   0x00000012   Code   RO         4609    i.USB_DevInit       stm32f1xx_ll_usb.o
    0x080041f2   0x080041f2   0x0000000e   Code   RO         4610    i.USB_DisableGlobalInt  stm32f1xx_ll_usb.o
    0x08004200   0x08004200   0x00000004   Code   RO         4625    i.USB_SetCurrentMode  stm32f1xx_ll_usb.o
    0x08004204   0x08004204   0x00000002   Code   RO          807    i.UsageFault_Handler  stm32f1xx_it.o
    0x08004206   0x08004206   0x00000002   PAD
    0x08004208   0x08004208   0x00000020   Code   RO         8155    i.__0printf$3       mc_w.l(printf3.o)
    0x08004228   0x08004228   0x00000028   Code   RO         8157    i.__0sprintf$3      mc_w.l(printf3.o)
    0x08004250   0x08004250   0x00000020   Code   RO         1740    i.__NVIC_SetPriority  stm32f1xx_hal_cortex.o
    0x08004270   0x08004270   0x0000000e   Code   RO         8415    i.__scatterload_copy  mc_w.l(handlers.o)
    0x0800427e   0x0800427e   0x00000002   Code   RO         8416    i.__scatterload_null  mc_w.l(handlers.o)
    0x08004280   0x08004280   0x0000000e   Code   RO         8417    i.__scatterload_zeroinit  mc_w.l(handlers.o)
    0x0800428e   0x0800428e   0x00000002   PAD
    0x08004290   0x08004290   0x000001b8   Code   RO         8162    i._printf_core      mc_w.l(printf3.o)
    0x08004448   0x08004448   0x0000000a   Code   RO         8164    i._sputc            mc_w.l(printf3.o)
    0x08004452   0x08004452   0x00000002   PAD
    0x08004454   0x08004454   0x00000024   Code   RO         8019    i.buzzer_buzz       beep.o
    0x08004478   0x08004478   0x00000030   Code   RO         8020    i.buzzer_init       beep.o
    0x080044a8   0x080044a8   0x00000002   Code   RO          388    i.configureTimerForRunTimeStats  freertos.o
    0x080044aa   0x080044aa   0x00000002   PAD
    0x080044ac   0x080044ac   0x000001d0   Code   RO         7783    i.draw_bitmap       draw.o
    0x0800467c   0x0800467c   0x00000004   Code   RO         7785    i.draw_end          draw.o
    0x08004680   0x08004680   0x00000024   Code   RO         7786    i.draw_flushArea    draw.o
    0x080046a4   0x080046a4   0x00000018   Code   RO         7787    i.draw_init         draw.o
    0x080046bc   0x080046bc   0x000000b0   Code   RO         7788    i.draw_string       draw.o
    0x0800476c   0x0800476c   0x00000036   Code   RO         7789    i.draw_string_P     draw.o
    0x080047a2   0x080047a2   0x00000002   PAD
    0x080047a4   0x080047a4   0x00000068   Code   RO         5417    i.eTaskGetState     tasks.o
    0x0800480c   0x0800480c   0x0000001c   Code   RO         7734    i.fputc             driver_uart.o
    0x08004828   0x08004828   0x00000050   Code   RO         8327    i.free              mc_w.l(malloc.o)
    0x08004878   0x08004878   0x000003bc   Code   RO         7871    i.game1_draw        game1.o
    0x08004c34   0x08004c34   0x0000015c   Code   RO         7872    i.game1_task        game1.o
    0x08004d90   0x08004d90   0x00000012   Code   RO          389    i.getRunTimeCounterValue  freertos.o
    0x08004da2   0x08004da2   0x0000003a   Code   RO           78    i.main              main.o
    0x08004ddc   0x08004ddc   0x0000006c   Code   RO         8328    i.malloc            mc_w.l(malloc.o)
    0x08004e48   0x08004e48   0x0000001a   Code   RO         6739    i.mdelay            driver_timer.o
    0x08004e62   0x08004e62   0x00000002   PAD
    0x08004e64   0x08004e64   0x00000038   Code   RO         5958    i.osKernelInitialize  cmsis_os2.o
    0x08004e9c   0x08004e9c   0x00000040   Code   RO         5961    i.osKernelStart     cmsis_os2.o
    0x08004edc   0x08004edc   0x000000a4   Code   RO         5995    i.osThreadNew       cmsis_os2.o
    0x08004f80   0x08004f80   0x000000c8   Code   RO         7873    i.platform_task     game1.o
    0x08005048   0x08005048   0x0000005c   Code   RO         5419    i.prvAddCurrentTaskToDelayedList  tasks.o
    0x080050a4   0x080050a4   0x000000d0   Code   RO         5420    i.prvAddNewTaskToReadyList  tasks.o
    0x08005174   0x08005174   0x00000058   Code   RO         5790    i.prvCheckForValidListAndQueue  timers.o
    0x080051cc   0x080051cc   0x00000026   Code   RO         4990    i.prvCopyDataFromQueue  queue.o
    0x080051f2   0x080051f2   0x0000006c   Code   RO         4991    i.prvCopyDataToQueue  queue.o
    0x0800525e   0x0800525e   0x00000034   Code   RO         5421    i.prvDeleteTCB      tasks.o
    0x08005292   0x08005292   0x00000002   PAD
    0x08005294   0x08005294   0x0000004c   Code   RO         6368    i.prvHeapInit       heap_4.o
    0x080052e0   0x080052e0   0x00000064   Code   RO         5422    i.prvIdleTask       tasks.o
    0x08005344   0x08005344   0x00000016   Code   RO         4992    i.prvInitialiseMutex  queue.o
    0x0800535a   0x0800535a   0x00000002   PAD
    0x0800535c   0x0800535c   0x00000026   Code   RO         4993    i.prvInitialiseNewQueue  queue.o
    0x08005382   0x08005382   0x0000009e   Code   RO         5423    i.prvInitialiseNewTask  tasks.o
    0x08005420   0x08005420   0x00000044   Code   RO         5791    i.prvInitialiseNewTimer  timers.o
    0x08005464   0x08005464   0x0000004c   Code   RO         6369    i.prvInsertBlockIntoFreeList  heap_4.o
    0x080054b0   0x080054b0   0x00000038   Code   RO         5792    i.prvInsertTimerInActiveList  timers.o
    0x080054e8   0x080054e8   0x0000001c   Code   RO         4994    i.prvIsQueueEmpty   queue.o
    0x08005504   0x08005504   0x00000058   Code   RO         5424    i.prvListTasksWithinSingleList  tasks.o
    0x0800555c   0x0800555c   0x0000006c   Code   RO         4995    i.prvNotifyQueueSetContainer  queue.o
    0x080055c8   0x080055c8   0x000000cc   Code   RO         5793    i.prvProcessReceivedCommands  timers.o
    0x08005694   0x08005694   0x000000b4   Code   RO         5794    i.prvProcessTimerOrBlockTask  timers.o
    0x08005748   0x08005748   0x00000020   Code   RO         5425    i.prvResetNextTaskUnblockTime  tasks.o
    0x08005768   0x08005768   0x00000028   Code   RO         5795    i.prvSampleTimeNow  timers.o
    0x08005790   0x08005790   0x0000006c   Code   RO         5796    i.prvSwitchTimerLists  timers.o
    0x080057fc   0x080057fc   0x00000014   Code   RO         5426    i.prvTaskCheckFreeStackSpace  tasks.o
    0x08005810   0x08005810   0x00000028   Code   RO         6419    i.prvTaskExitError  port.o
    0x08005838   0x08005838   0x00000014   Code   RO         4831    i.prvTestWaitCondition  event_groups.o
    0x0800584c   0x0800584c   0x00000024   Code   RO         5797    i.prvTimerTask      timers.o
    0x08005870   0x08005870   0x00000078   Code   RO         4996    i.prvUnlockQueue    queue.o
    0x080058e8   0x080058e8   0x00000022   Code   RO         5428    i.prvWriteNameToBuffer  tasks.o
    0x0800590a   0x0800590a   0x00000002   PAD
    0x0800590c   0x0800590c   0x000000d8   Code   RO         6370    i.pvPortMalloc      heap_4.o
    0x080059e4   0x080059e4   0x00000018   Code   RO         5429    i.pvTaskIncrementMutexHeldCount  tasks.o
    0x080059fc   0x080059fc   0x00000024   Code   RO         6420    i.pxPortInitialiseStack  port.o
    0x08005a20   0x08005a20   0x0000000c   Code   RO         7790    i.readPixels        draw.o
    0x08005a2c   0x08005a2c   0x00000018   Code   RO         7791    i.setBuffByte       draw.o
    0x08005a44   0x08005a44   0x00000016   Code   RO         7792    i.set_bits          draw.o
    0x08005a5a   0x08005a5a   0x00000002   PAD
    0x08005a5c   0x08005a5c   0x00000044   Code   RO         6740    i.system_get_ns     driver_timer.o
    0x08005aa0   0x08005aa0   0x00000038   Code   RO         6741    i.udelay            driver_timer.o
    0x08005ad8   0x08005ad8   0x00000026   Code   RO         4950    i.uxListRemove      list.o
    0x08005afe   0x08005afe   0x00000002   PAD
    0x08005b00   0x08005b00   0x000000ac   Code   RO         5433    i.uxTaskGetSystemState  tasks.o
    0x08005bac   0x08005bac   0x00000018   Code   RO         5437    i.uxTaskResetEventItemValue  tasks.o
    0x08005bc4   0x08005bc4   0x00000014   Code   RO         6007    i.vApplicationGetIdleTaskMemory  cmsis_os2.o
    0x08005bd8   0x08005bd8   0x00000018   Code   RO         6008    i.vApplicationGetTimerTaskMemory  cmsis_os2.o
    0x08005bf0   0x08005bf0   0x00000020   Code   RO          390    i.vApplicationIdleHook  freertos.o
    0x08005c10   0x08005c10   0x00000004   Code   RO         4835    i.vEventGroupSetBitsCallback  event_groups.o
    0x08005c14   0x08005c14   0x00000016   Code   RO         4951    i.vListInitialise   list.o
    0x08005c2a   0x08005c2a   0x00000006   Code   RO         4952    i.vListInitialiseItem  list.o
    0x08005c30   0x08005c30   0x00000030   Code   RO         4953    i.vListInsert       list.o
    0x08005c60   0x08005c60   0x00000018   Code   RO         4954    i.vListInsertEnd    list.o
    0x08005c78   0x08005c78   0x00000040   Code   RO         6422    i.vPortEnterCritical  port.o
    0x08005cb8   0x08005cb8   0x00000028   Code   RO         6423    i.vPortExitCritical  port.o
    0x08005ce0   0x08005ce0   0x0000005c   Code   RO         6371    i.vPortFree         heap_4.o
    0x08005d3c   0x08005d3c   0x00000024   Code   RO         6424    i.vPortSetupTimerInterrupt  port.o
    0x08005d60   0x08005d60   0x00000054   Code   RO         6425    i.vPortValidateInterruptPriority  port.o
    0x08005db4   0x08005db4   0x00000028   Code   RO         5002    i.vQueueAddToRegistry  queue.o
    0x08005ddc   0x08005ddc   0x00000044   Code   RO         5006    i.vQueueWaitForMessageRestricted  queue.o
    0x08005e20   0x08005e20   0x0000004c   Code   RO         5438    i.vTaskDelay        tasks.o
    0x08005e6c   0x08005e6c   0x00000090   Code   RO         5440    i.vTaskDelete       tasks.o
    0x08005efc   0x08005efc   0x00000078   Code   RO         5442    i.vTaskGetInfo      tasks.o
    0x08005f74   0x08005f74   0x000000b4   Code   RO         5443    i.vTaskGetRunTimeStats  tasks.o
    0x08006028   0x08006028   0x00000010   Code   RO         5444    i.vTaskInternalSetTimeOutState  tasks.o
    0x08006038   0x08006038   0x0000000c   Code   RO         5446    i.vTaskMissedYield  tasks.o
    0x08006044   0x08006044   0x00000030   Code   RO         5448    i.vTaskPlaceOnEventList  tasks.o
    0x08006074   0x08006074   0x00000038   Code   RO         5449    i.vTaskPlaceOnEventListRestricted  tasks.o
    0x080060ac   0x080060ac   0x00000050   Code   RO         5450    i.vTaskPlaceOnUnorderedEventList  tasks.o
    0x080060fc   0x080060fc   0x00000090   Code   RO         5451    i.vTaskPriorityDisinheritAfterTimeout  tasks.o
    0x0800618c   0x0800618c   0x00000070   Code   RO         5453    i.vTaskRemoveFromUnorderedEventList  tasks.o
    0x080061fc   0x080061fc   0x0000008c   Code   RO         5457    i.vTaskStartScheduler  tasks.o
    0x08006288   0x08006288   0x00000010   Code   RO         5459    i.vTaskSuspendAll   tasks.o
    0x08006298   0x08006298   0x0000007c   Code   RO         5460    i.vTaskSwitchContext  tasks.o
    0x08006314   0x08006314   0x0000001c   Code   RO         4839    i.xEventGroupCreate  event_groups.o
    0x08006330   0x08006330   0x0000008c   Code   RO         4842    i.xEventGroupSetBits  event_groups.o
    0x080063bc   0x080063bc   0x00000010   Code   RO         4843    i.xEventGroupSetBitsFromISR  event_groups.o
    0x080063cc   0x080063cc   0x00000108   Code   RO         4845    i.xEventGroupWaitBits  event_groups.o
    0x080064d4   0x080064d4   0x000000a8   Code   RO         6426    i.xPortStartScheduler  port.o
    0x0800657c   0x0800657c   0x00000022   Code   RO         5007    i.xQueueAddToSet    queue.o
    0x0800659e   0x0800659e   0x00000016   Code   RO         5010    i.xQueueCreateMutex  queue.o
    0x080065b4   0x080065b4   0x00000008   Code   RO         5012    i.xQueueCreateSet   queue.o
    0x080065bc   0x080065bc   0x00000048   Code   RO         5013    i.xQueueGenericCreate  queue.o
    0x08006604   0x08006604   0x00000066   Code   RO         5014    i.xQueueGenericCreateStatic  queue.o
    0x0800666a   0x0800666a   0x00000002   PAD
    0x0800666c   0x0800666c   0x00000088   Code   RO         5015    i.xQueueGenericReset  queue.o
    0x080066f4   0x080066f4   0x0000016c   Code   RO         5016    i.xQueueGenericSend  queue.o
    0x08006860   0x08006860   0x000000ca   Code   RO         5017    i.xQueueGenericSendFromISR  queue.o
    0x0800692a   0x0800692a   0x00000002   PAD
    0x0800692c   0x0800692c   0x00000138   Code   RO         5026    i.xQueueReceive     queue.o
    0x08006a64   0x08006a64   0x00000012   Code   RO         5029    i.xQueueSelectFromSet  queue.o
    0x08006a76   0x08006a76   0x00000002   PAD
    0x08006a78   0x08006a78   0x00000178   Code   RO         5031    i.xQueueSemaphoreTake  queue.o
    0x08006bf0   0x08006bf0   0x00000074   Code   RO         5461    i.xTaskCheckForTimeOut  tasks.o
    0x08006c64   0x08006c64   0x0000005a   Code   RO         5462    i.xTaskCreate       tasks.o
    0x08006cbe   0x08006cbe   0x00000056   Code   RO         5463    i.xTaskCreateStatic  tasks.o
    0x08006d14   0x08006d14   0x0000001c   Code   RO         5467    i.xTaskGetSchedulerState  tasks.o
    0x08006d30   0x08006d30   0x0000000c   Code   RO         5468    i.xTaskGetTickCount  tasks.o
    0x08006d3c   0x08006d3c   0x000000c8   Code   RO         5470    i.xTaskIncrementTick  tasks.o
    0x08006e04   0x08006e04   0x00000080   Code   RO         5473    i.xTaskPriorityDisinherit  tasks.o
    0x08006e84   0x08006e84   0x00000078   Code   RO         5474    i.xTaskPriorityInherit  tasks.o
    0x08006efc   0x08006efc   0x00000070   Code   RO         5475    i.xTaskRemoveFromEventList  tasks.o
    0x08006f6c   0x08006f6c   0x000000c4   Code   RO         5476    i.xTaskResumeAll    tasks.o
    0x08007030   0x08007030   0x00000034   Code   RO         5802    i.xTimerCreate      timers.o
    0x08007064   0x08007064   0x00000060   Code   RO         5804    i.xTimerCreateTimerTask  timers.o
    0x080070c4   0x080070c4   0x00000068   Code   RO         5805    i.xTimerGenericCommand  timers.o
    0x0800712c   0x0800712c   0x00000028   Code   RO         5811    i.xTimerPendFunctionCallFromISR  timers.o
    0x08007154   0x08007154   0x00000024   Data   RO          392    .constdata          freertos.o
    0x08007178   0x08007178   0x00000012   Data   RO         1438    .constdata          stm32f1xx_hal_rcc.o
    0x0800718a   0x0800718a   0x00000010   Data   RO         4789    .constdata          system_stm32f1xx.o
    0x0800719a   0x0800719a   0x00000008   Data   RO         4790    .constdata          system_stm32f1xx.o
    0x080071a2   0x080071a2   0x00000800   Data   RO         6556    .constdata          driver_oled.o
    0x080079a2   0x080079a2   0x0000001d   Data   RO         7875    .constdata          game1.o
    0x080079bf   0x080079bf   0x00000007   Data   RO         7924    .constdata          resources.o
    0x080079c6   0x080079c6   0x000001e5   Data   RO         7946    .constdata          resources.o
    0x08007bab   0x08007bab   0x00000001   PAD
    0x08007bac   0x08007bac   0x0000000c   Data   RO          393    .conststring        freertos.o
    0x08007bb8   0x08007bb8   0x00000020   Data   RO         8413    Region$$Table       anon$$obj.o


    Execution Region RW_IRAM1 (Exec base: 0x20000000, Load base: 0x08007bd8, Size: 0x00004508, Max: 0x00005000, ABSOLUTE, COMPRESSED[0x00000028])

    Exec Addr    Load Addr    Size         Type   Attr      Idx    E Section Name        Object

    0x20000000   COMPRESSED   0x00000010   Data   RW          394    .data               freertos.o
    0x20000010   COMPRESSED   0x0000000c   Data   RW         1275    .data               stm32f1xx_hal.o
    0x2000001c   COMPRESSED   0x00000004   Data   RW         4791    .data               system_stm32f1xx.o
    0x20000020   COMPRESSED   0x00000044   Data   RW         5479    .data               tasks.o
    0x20000064   COMPRESSED   0x00000014   Data   RW         5813    .data               timers.o
    0x20000078   COMPRESSED   0x00000004   Data   RW         6011    .data               cmsis_os2.o
    0x2000007c   COMPRESSED   0x00000018   Data   RW         6376    .data               heap_4.o
    0x20000094   COMPRESSED   0x0000000c   Data   RW         6427    .data               port.o
    0x200000a0   COMPRESSED   0x00000008   Data   RW         6557    .data               driver_oled.o
    0x200000a8   COMPRESSED   0x0000000c   Data   RW         6670    .data               driver_mpu6050.o
    0x200000b4   COMPRESSED   0x00000004   Data   RW         7041    .data               driver_passive_buzzer.o
    0x200000b8   COMPRESSED   0x00000004   Data   RW         7091    .data               driver_color_led.o
    0x200000bc   COMPRESSED   0x00000004   PAD
    0x200000c0   COMPRESSED   0x00000020   Data   RW         7254    .data               driver_ir_receiver.o
    0x200000e0   COMPRESSED   0x00000018   Data   RW         7572    .data               driver_rotary_encoder.o
    0x200000f8   COMPRESSED   0x00000004   Data   RW         7735    .data               driver_uart.o
    0x200000fc   COMPRESSED   0x00000010   Data   RW         7793    .data               draw.o
    0x2000010c   COMPRESSED   0x0000004c   Data   RW         7876    .data               game1.o
    0x20000158   COMPRESSED   0x00000004   Data   RW         8021    .data               beep.o
    0x2000015c   COMPRESSED   0x00000004   Data   RW         8052    .data               mc_w.l(rand.o)
    0x20000160   COMPRESSED   0x00000004   Data   RW         8391    .data               mc_w.l(stdout.o)
    0x20000164   COMPRESSED   0x00000004   Data   RW         8398    .data               mc_w.l(mvars.o)
    0x20000168   COMPRESSED   0x00000004   Data   RW         8399    .data               mc_w.l(mvars.o)
    0x2000016c        -       0x000004c8   Zero   RW          391    .bss                freertos.o
    0x20000634        -       0x00000030   Zero   RW          520    .bss                adc.o
    0x20000664        -       0x00000054   Zero   RW          562    .bss                i2c.o
    0x200006b8        -       0x00000058   Zero   RW          604    .bss                spi.o
    0x20000710        -       0x000000d8   Zero   RW          651    .bss                tim.o
    0x200007e8        -       0x00000048   Zero   RW          718    .bss                usart.o
    0x20000830        -       0x000002f0   Zero   RW          760    .bss                usb.o
    0x20000b20        -       0x00000048   Zero   RW          902    .bss                stm32f1xx_hal_timebase_tim.o
    0x20000b68        -       0x00000040   Zero   RW         5033    .bss                queue.o
    0x20000ba8        -       0x000004c4   Zero   RW         5478    .bss                tasks.o
    0x2000106c        -       0x0000011c   Zero   RW         5812    .bss                timers.o
    0x20001188        -       0x000006c0   Zero   RW         6010    .bss                cmsis_os2.o
    0x20001848        -       0x00001f40   Zero   RW         6375    .bss                heap_4.o
    0x20003788        -       0x00000400   Zero   RW         6555    .bss                driver_oled.o
    0x20003b88        -       0x000002c8   Zero   RW         7251    .bss                driver_ir_receiver.o
    0x20003e50        -       0x000000a4   Zero   RW         7571    .bss                driver_rotary_encoder.o
    0x20003ef4        -       0x00000010   Zero   RW         7874    .bss                game1.o
    0x20003f04   COMPRESSED   0x00000004   PAD
    0x20003f08        -       0x00000200   Zero   RW            2    HEAP                startup_stm32f103xb.o
    0x20004108        -       0x00000400   Zero   RW            1    STACK               startup_stm32f103xb.o


==============================================================================

Image component sizes


      Code (inc. data)   RO Data    RW Data    ZI Data      Debug   Object Name

       168         22          0          0         48       1641   adc.o
        90         26          0          4          0       1578   beep.o
       328         26          0          4       1728      13436   cmsis_os2.o
       816         24          0         16          0       9154   draw.o
       200         10          0          4          0     376871   driver_color_led.o
       304         18          0          0          0       4310   driver_dht11.o
       608         84          0         32        712       6027   driver_ir_receiver.o
        30          0          0          0          0        537   driver_irq.o
        32          0          0          0          0       4632   driver_lcd.o
       154         16          0          0          0       2160   driver_led.o
       790         62          0         12          0       7001   driver_mpu6050.o
       922         62       2048          8       1024      12121   driver_oled.o
       264         30          0          4          0       2695   driver_passive_buzzer.o
       200         32          0         24        164       4164   driver_rotary_encoder.o
       150         14          0          0          0       2362   driver_timer.o
        28          6          0          4          0       2524   driver_uart.o
       472          8          0          0          0      24528   event_groups.o
       318        102         48         16       1224      14507   freertos.o
      1892        178         29         76         16       7090   game1.o
       352         26          0          0          0     465335   gpio.o
       460         24          0         24       8000       4611   heap_4.o
       156         26          0          0         84       1629   i2c.o
       138          0          0          0          0       3338   list.o
       206          6          0          0          0     423596   main.o
         0          0          0          0          0      23308   music.o
       662         70          0         12          0      10701   port.o
      2216         22          0          0         64      21113   queue.o
         0          0        492          0          0       2981   resources.o
       184         24          0          0         88       1653   spi.o
        36          8        236          0       1536        792   startup_stm32f103xb.o
        64         14          0         12          0       4638   stm32f1xx_hal.o
       622         24          0          0          0       3300   stm32f1xx_hal_adc.o
       158         14          0          0          0      28178   stm32f1xx_hal_cortex.o
       524         40          0          0          0       4114   stm32f1xx_hal_gpio.o
      2826         72          0          0          0      14952   stm32f1xx_hal_i2c.o
        72         10          0          0          0        870   stm32f1xx_hal_msp.o
       218          0          0          0          0       1508   stm32f1xx_hal_pcd.o
      1304         94         18          0          0       5737   stm32f1xx_hal_rcc.o
       236         12          0          0          0       1380   stm32f1xx_hal_rcc_ex.o
       178          0          0          0          0       1231   stm32f1xx_hal_spi.o
      1982         62          0          0          0      16901   stm32f1xx_hal_tim.o
       192         12          0          0          0       3189   stm32f1xx_hal_tim_ex.o
       152         20          0          0         72       1475   stm32f1xx_hal_timebase_tim.o
       558          6          0          0          0       3972   stm32f1xx_hal_uart.o
        60          6          0          0          0       3939   stm32f1xx_it.o
        44          0          0          0          0       3328   stm32f1xx_ll_usb.o
         0          0          0          0          0       8764   stream_buffer.o
         2          0         24          4          0       1119   system_stm32f1xx.o
      3464        284          0         68       1220      34501   tasks.o
       896         76          0          0        216       5065   tim.o
      1072         88          0         20        284      28386   timers.o
       168         20          0          0         72       1678   usart.o
        92         20          0          0        752       1530   usb.o

    ----------------------------------------------------------------------
     27124       1800       2928        348      17308    1636150   Object Totals
         0          0         32          0          0          0   (incl. Generated)
        64          0          1          4          4          0   (incl. Padding)

    ----------------------------------------------------------------------

      Code (inc. data)   RO Data    RW Data    ZI Data      Debug   Library Member Name

        86          0          0          0          0          0   __dczerorl2.o
         0          0          0          0          0          0   entry.o
         0          0          0          0          0          0   entry10a.o
         0          0          0          0          0          0   entry11a.o
         8          4          0          0          0          0   entry2.o
         4          0          0          0          0          0   entry5.o
         0          0          0          0          0          0   entry7b.o
         0          0          0          0          0          0   entry8b.o
         8          4          0          0          0          0   entry9a.o
        30          0          0          0          0          0   handlers.o
        36          8          0          0          0         68   init.o
         0          0          0          0          0          0   iusefp.o
        30          0          0          0          0         68   llshl.o
        32          0          0          0          0         68   llushr.o
       188         20          0          0          0        160   malloc.o
        36          0          0          0          0         68   memcpya.o
        36          0          0          0          0        108   memseta.o
         0          0          0          8          0          0   mvars.o
       522         20          0          0          0        336   printf3.o
        36         10          0          4          0        136   rand.o
         0          0          0          4          0          0   stdout.o
        18          0          0          0          0         68   strcpy.o
        14          0          0          0          0         68   strlen.o
        44          0          0          0          0         80   uidiv.o
        98          0          0          0          0         92   uldiv.o
        20          0          0          0          0         68   cfcmple.o
        20          0          0          0          0         68   cfrcmple.o
       176          0          0          0          0        140   fadd.o
       110          0          0          0          0        168   fepilogue.o
        40          0          0          0          0         68   ffixui.o
        18          0          0          0          0         68   fflti.o
        10          0          0          0          0         68   ffltui.o
        24          0          0          0          0         68   fscalb.o

    ----------------------------------------------------------------------
      1652         66          0         16          0       2036   Library Totals
         8          0          0          0          0          0   (incl. Padding)

    ----------------------------------------------------------------------

      Code (inc. data)   RO Data    RW Data    ZI Data      Debug   Library Name

      1226         66          0         16          0       1320   mc_w.l
       418          0          0          0          0        716   mf_w.l

    ----------------------------------------------------------------------
      1652         66          0         16          0       2036   Library Totals

    ----------------------------------------------------------------------

==============================================================================


      Code (inc. data)   RO Data    RW Data    ZI Data      Debug   

     28776       1866       2928        364      17308    1622506   Grand Totals
     28776       1866       2928         40      17308    1622506   ELF Image Totals (compressed)
     28776       1866       2928         40          0          0   ROM Totals

==============================================================================

    Total RO  Size (Code + RO Data)                31704 (  30.96kB)
    Total RW  Size (RW Data + ZI Data)             17672 (  17.26kB)
    Total ROM Size (Code + RO Data + RW Data)      31744 (  31.00kB)

==============================================================================

