Component: ARM Compiler 5.06 update 5 (build 528) Tool: armlink [4d35e2]

==============================================================================

Section Cross References

    startup_stm32f103xb.o(RESET) refers to startup_stm32f103xb.o(STACK) for __initial_sp
    startup_stm32f103xb.o(RESET) refers to startup_stm32f103xb.o(.text) for Reset_Handler
    startup_stm32f103xb.o(RESET) refers to stm32f1xx_it.o(i.NMI_Handler) for NMI_Handler
    startup_stm32f103xb.o(RESET) refers to stm32f1xx_it.o(i.HardFault_Handler) for HardFault_Handler
    startup_stm32f103xb.o(RESET) refers to stm32f1xx_it.o(i.MemManage_Handler) for MemManage_Handler
    startup_stm32f103xb.o(RESET) refers to stm32f1xx_it.o(i.BusFault_Handler) for BusFault_Handler
    startup_stm32f103xb.o(RESET) refers to stm32f1xx_it.o(i.UsageFault_Handler) for UsageFault_Handler
    startup_stm32f103xb.o(RESET) refers to port.o(.emb_text) for SVC_Handler
    startup_stm32f103xb.o(RESET) refers to stm32f1xx_it.o(i.DebugMon_Handler) for DebugMon_Handler
    startup_stm32f103xb.o(RESET) refers to port.o(i.SysTick_Handler) for SysTick_Handler
    startup_stm32f103xb.o(RESET) refers to stm32f1xx_it.o(i.EXTI9_5_IRQHandler) for EXTI9_5_IRQHandler
    startup_stm32f103xb.o(RESET) refers to stm32f1xx_it.o(i.TIM4_IRQHandler) for TIM4_IRQHandler
    startup_stm32f103xb.o(RESET) refers to stm32f1xx_it.o(i.EXTI15_10_IRQHandler) for EXTI15_10_IRQHandler
    startup_stm32f103xb.o(.text) refers to system_stm32f1xx.o(i.SystemInit) for SystemInit
    startup_stm32f103xb.o(.text) refers to entry.o(.ARM.Collect$$$$00000000) for __main
    music.o(i.MUSIC_Analysis) refers to driver_passive_buzzer.o(i.PassiveBuzzer_Set_Freq_Duty) for PassiveBuzzer_Set_Freq_Duty
    music.o(i.MUSIC_Analysis) refers to tasks.o(i.vTaskDelay) for vTaskDelay
    music.o(i.MUSIC_Analysis) refers to music.o(.data) for .data
==============================================================================

Removing Unused input sections from the image.

    Removing music.o(i.MUSIC_Analysis), (80 bytes).
    Removing music.o(i.PlayMusic), (10 bytes).
    Removing music.o(.data), (3990 bytes).
    Removing main.o(.rev16_text), (4 bytes).
    Removing main.o(.revsh_text), (4 bytes).
    Removing main.o(.rrx_text), (6 bytes).
    Removing gpio.o(.rev16_text), (4 bytes).
    Removing gpio.o(.revsh_text), (4 bytes).
    Removing gpio.o(.rrx_text), (6 bytes).
    Removing freertos.o(.rev16_text), (4 bytes).
    Removing freertos.o(.revsh_text), (4 bytes).
    Removing freertos.o(.rrx_text), (6 bytes).
    Removing freertos.o(i.StartDefaultTask), (14 bytes).
    Removing freertos.o(.constdata), (36 bytes).
    Removing freertos.o(.conststring), (12 bytes).
    Removing freertos.o(.data), (4 bytes).
    Removing adc.o(.rev16_text), (4 bytes).
    Removing adc.o(.revsh_text), (4 bytes).
==============================================================================

Image Symbol Table

    Local Symbols

    Symbol Name                              Value     Ov Type        Size  Object(Section)

    ../Core/Src/adc.c                        0x00000000   Number         0  adc.o ABSOLUTE
    ../Core/Src/freertos.c                   0x00000000   Number         0  freertos.o ABSOLUTE
    ../Core/Src/gpio.c                       0x00000000   Number         0  gpio.o ABSOLUTE
    ../Core/Src/i2c.c                        0x00000000   Number         0  i2c.o ABSOLUTE
    ../Core/Src/main.c                       0x00000000   Number         0  main.o ABSOLUTE
    ../Core/Src/spi.c                        0x00000000   Number         0  spi.o ABSOLUTE
    ../Core/Src/stm32f1xx_hal_msp.c          0x00000000   Number         0  stm32f1xx_hal_msp.o ABSOLUTE
    ../Core/Src/stm32f1xx_hal_timebase_tim.c 0x00000000   Number         0  stm32f1xx_hal_timebase_tim.o ABSOLUTE
    ../Core/Src/stm32f1xx_it.c               0x00000000   Number         0  stm32f1xx_it.o ABSOLUTE
    ../Core/Src/system_stm32f1xx.c           0x00000000   Number         0  system_stm32f1xx.o ABSOLUTE
    ../Core/Src/tim.c                        0x00000000   Number         0  tim.o ABSOLUTE
    ../Core/Src/usart.c                      0x00000000   Number         0  usart.o ABSOLUTE
    ../Core/Src/usb.c                        0x00000000   Number         0  usb.o ABSOLUTE
    ../Drivers/STM32F1xx_HAL_Driver/Src/stm32f1xx_hal.c 0x00000000   Number         0  stm32f1xx_hal.o ABSOLUTE
    ../Drivers/STM32F1xx_HAL_Driver/Src/stm32f1xx_hal_adc.c 0x00000000   Number         0  stm32f1xx_hal_adc.o ABSOLUTE
    ../Drivers/STM32F1xx_HAL_Driver/Src/stm32f1xx_hal_adc_ex.c 0x00000000   Number         0  stm32f1xx_hal_adc_ex.o ABSOLUTE
    ../Drivers/STM32F1xx_HAL_Driver/Src/stm32f1xx_hal_cortex.c 0x00000000   Number         0  stm32f1xx_hal_cortex.o ABSOLUTE
    ../Drivers/STM32F1xx_HAL_Driver/Src/stm32f1xx_hal_dma.c 0x00000000   Number         0  stm32f1xx_hal_dma.o ABSOLUTE
    ../Drivers/STM32F1xx_HAL_Driver/Src/stm32f1xx_hal_exti.c 0x00000000   Number         0  stm32f1xx_hal_exti.o ABSOLUTE
    ../Drivers/STM32F1xx_HAL_Driver/Src/stm32f1xx_hal_flash.c 0x00000000   Number         0  stm32f1xx_hal_flash.o ABSOLUTE
    ../Drivers/STM32F1xx_HAL_Driver/Src/stm32f1xx_hal_flash_ex.c 0x00000000   Number         0  stm32f1xx_hal_flash_ex.o ABSOLUTE
    ../Drivers/STM32F1xx_HAL_Driver/Src/stm32f1xx_hal_gpio.c 0x00000000   Number         0  stm32f1xx_hal_gpio.o ABSOLUTE
    ../Drivers/STM32F1xx_HAL_Driver/Src/stm32f1xx_hal_gpio_ex.c 0x00000000   Number         0  stm32f1xx_hal_gpio_ex.o ABSOLUTE
    ../Drivers/STM32F1xx_HAL_Driver/Src/stm32f1xx_hal_i2c.c 0x00000000   Number         0  stm32f1xx_hal_i2c.o ABSOLUTE
    ../Drivers/STM32F1xx_HAL_Driver/Src/stm32f1xx_hal_pcd.c 0x00000000   Number         0  stm32f1xx_hal_pcd.o ABSOLUTE
    ../Drivers/STM32F1xx_HAL_Driver/Src/stm32f1xx_hal_pcd_ex.c 0x00000000   Number         0  stm32f1xx_hal_pcd_ex.o ABSOLUTE
    ../Drivers/STM32F1xx_HAL_Driver/Src/stm32f1xx_hal_pwr.c 0x00000000   Number         0  stm32f1xx_hal_pwr.o ABSOLUTE
    ../Drivers/STM32F1xx_HAL_Driver/Src/stm32f1xx_hal_rcc.c 0x00000000   Number         0  stm32f1xx_hal_rcc.o ABSOLUTE
    ../Drivers/STM32F1xx_HAL_Driver/Src/stm32f1xx_hal_rcc_ex.c 0x00000000   Number         0  stm32f1xx_hal_rcc_ex.o ABSOLUTE
    ../Drivers/STM32F1xx_HAL_Driver/Src/stm32f1xx_hal_spi.c 0x00000000   Number         0  stm32f1xx_hal_spi.o ABSOLUTE
    ../Drivers/STM32F1xx_HAL_Driver/Src/stm32f1xx_hal_tim.c 0x00000000   Number         0  stm32f1xx_hal_tim.o ABSOLUTE
    ../Drivers/STM32F1xx_HAL_Driver/Src/stm32f1xx_hal_tim_ex.c 0x00000000   Number         0  stm32f1xx_hal_tim_ex.o ABSOLUTE
    ../Drivers/STM32F1xx_HAL_Driver/Src/stm32f1xx_hal_uart.c 0x00000000   Number         0  stm32f1xx_hal_uart.o ABSOLUTE
    ../Drivers/STM32F1xx_HAL_Driver/Src/stm32f1xx_ll_usb.c 0x00000000   Number         0  stm32f1xx_ll_usb.o ABSOLUTE
    ../Middlewares/Third_Party/FreeRTOS/Source/CMSIS_RTOS_V2/cmsis_os2.c 0x00000000   Number         0  cmsis_os2.o ABSOLUTE
    ../Middlewares/Third_Party/FreeRTOS/Source/croutine.c 0x00000000   Number         0  croutine.o ABSOLUTE
    ../Middlewares/Third_Party/FreeRTOS/Source/event_groups.c 0x00000000   Number         0  event_groups.o ABSOLUTE
    ../Middlewares/Third_Party/FreeRTOS/Source/list.c 0x00000000   Number         0  list.o ABSOLUTE
    ../Middlewares/Third_Party/FreeRTOS/Source/portable/MemMang/heap_4.c 0x00000000   Number         0  heap_4.o ABSOLUTE
    ../Middlewares/Third_Party/FreeRTOS/Source/portable/RVDS/ARM_CM3/port.c 0x00000000   Number         0  port.o ABSOLUTE
    ../Middlewares/Third_Party/FreeRTOS/Source/queue.c 0x00000000   Number         0  queue.o ABSOLUTE
    ../Middlewares/Third_Party/FreeRTOS/Source/stream_buffer.c 0x00000000   Number         0  stream_buffer.o ABSOLUTE
    ../Middlewares/Third_Party/FreeRTOS/Source/tasks.c 0x00000000   Number         0  tasks.o ABSOLUTE
    ../Middlewares/Third_Party/FreeRTOS/Source/timers.c 0x00000000   Number         0  timers.o ABSOLUTE
    ../clib/../cmprslib/zerorunl2.c          0x00000000   Number         0  __dczerorl2.o ABSOLUTE
    ../clib/microlib/division.c              0x00000000   Number         0  uidiv.o ABSOLUTE
    ../clib/microlib/division.c              0x00000000   Number         0  uldiv.o ABSOLUTE
    ../clib/microlib/init/entry.s            0x00000000   Number         0  entry11b.o ABSOLUTE
    ../clib/microlib/init/entry.s            0x00000000   Number         0  entry7b.o ABSOLUTE
    ../clib/microlib/init/entry.s            0x00000000   Number         0  entry8b.o ABSOLUTE
    ../clib/microlib/init/entry.s            0x00000000   Number         0  entry2.o ABSOLUTE
    ../clib/microlib/init/entry.s            0x00000000   Number         0  entry9a.o ABSOLUTE
    ../clib/microlib/init/entry.s            0x00000000   Number         0  entry5.o ABSOLUTE
    ../clib/microlib/init/entry.s            0x00000000   Number         0  entry.o ABSOLUTE
    ../clib/microlib/init/entry.s            0x00000000   Number         0  entry9b.o ABSOLUTE
    ../clib/microlib/init/entry.s            0x00000000   Number         0  entry8a.o ABSOLUTE
    ../clib/microlib/init/entry.s            0x00000000   Number         0  entry7a.o ABSOLUTE
    ../clib/microlib/init/entry.s            0x00000000   Number         0  entry10a.o ABSOLUTE
    ../clib/microlib/init/entry.s            0x00000000   Number         0  entry10b.o ABSOLUTE
    ../clib/microlib/init/entry.s            0x00000000   Number         0  entry11a.o ABSOLUTE
    ../clib/microlib/longlong.c              0x00000000   Number         0  llshl.o ABSOLUTE
    ../clib/microlib/longlong.c              0x00000000   Number         0  llsshr.o ABSOLUTE
    ../clib/microlib/longlong.c              0x00000000   Number         0  llushr.o ABSOLUTE
    ../clib/microlib/malloc/malloc.c         0x00000000   Number         0  malloc.o ABSOLUTE
    ../clib/microlib/malloc/malloc.c         0x00000000   Number         0  malloca.o ABSOLUTE
    ../clib/microlib/malloc/malloc.c         0x00000000   Number         0  mallocra.o ABSOLUTE
    ../clib/microlib/malloc/malloc.c         0x00000000   Number         0  mallocr.o ABSOLUTE
    ../clib/microlib/malloc/mvars.c          0x00000000   Number         0  mvars.o ABSOLUTE
    ../clib/microlib/printf/printf.c         0x00000000   Number         0  printf0.o ABSOLUTE
    ../clib/microlib/printf/printf.c         0x00000000   Number         0  printfb.o ABSOLUTE
    ../clib/microlib/printf/printf.c         0x00000000   Number         0  printfa.o ABSOLUTE
    ../clib/microlib/printf/printf.c         0x00000000   Number         0  printf8.o ABSOLUTE
    ../clib/microlib/printf/printf.c         0x00000000   Number         0  printf7.o ABSOLUTE
    ../clib/microlib/printf/printf.c         0x00000000   Number         0  printf6.o ABSOLUTE
    ../clib/microlib/printf/printf.c         0x00000000   Number         0  printf5.o ABSOLUTE
    ../clib/microlib/printf/printf.c         0x00000000   Number         0  printf4.o ABSOLUTE
    ../clib/microlib/printf/printf.c         0x00000000   Number         0  printf3.o ABSOLUTE
    ../clib/microlib/printf/printf.c         0x00000000   Number         0  printf2.o ABSOLUTE
    ../clib/microlib/printf/printf.c         0x00000000   Number         0  printf1.o ABSOLUTE
    ../clib/microlib/printf/stubs.s          0x00000000   Number         0  stubs.o ABSOLUTE
    ../clib/microlib/stdio/streams.c         0x00000000   Number         0  stdout.o ABSOLUTE
    ../clib/microlib/stdlib/rand.c           0x00000000   Number         0  rand.o ABSOLUTE
    ../clib/microlib/string/memcpy.c         0x00000000   Number         0  memcpya.o ABSOLUTE
    ../clib/microlib/string/memcpy.c         0x00000000   Number         0  memcpyb.o ABSOLUTE
    ../clib/microlib/string/memset.c         0x00000000   Number         0  memseta.o ABSOLUTE
    ../clib/microlib/string/memset.c         0x00000000   Number         0  memset.o ABSOLUTE
    ../clib/microlib/string/strcpy.c         0x00000000   Number         0  strcpy.o ABSOLUTE
    ../clib/microlib/string/strlen.c         0x00000000   Number         0  strlen.o ABSOLUTE
    ../clib/microlib/stubs.s                 0x00000000   Number         0  iusefp.o ABSOLUTE
    ../fplib/microlib/fpadd.c                0x00000000   Number         0  dadd.o ABSOLUTE
    ../fplib/microlib/fpadd.c                0x00000000   Number         0  fadd.o ABSOLUTE
    ../fplib/microlib/fpdiv.c                0x00000000   Number         0  ddiv.o ABSOLUTE
    ../fplib/microlib/fpepilogue.c           0x00000000   Number         0  depilogue.o ABSOLUTE
    ../fplib/microlib/fpepilogue.c           0x00000000   Number         0  fepilogue.o ABSOLUTE
    ../fplib/microlib/fpfix.c                0x00000000   Number         0  dfixi.o ABSOLUTE
    ../fplib/microlib/fpfix.c                0x00000000   Number         0  dfixul.o ABSOLUTE
    ../fplib/microlib/fpfix.c                0x00000000   Number         0  ffixui.o ABSOLUTE
    ../fplib/microlib/fpflt.c                0x00000000   Number         0  dflti.o ABSOLUTE
    ../fplib/microlib/fpflt.c                0x00000000   Number         0  fflti.o ABSOLUTE
    ../fplib/microlib/fpflt.c                0x00000000   Number         0  ffltui.o ABSOLUTE
    ../fplib/microlib/fpmul.c                0x00000000   Number         0  dmul.o ABSOLUTE
    ../fplib/microlib/fpscalb.c              0x00000000   Number         0  fscalb.o ABSOLUTE
    ..\Core\Src\adc.c                        0x00000000   Number         0  adc.o ABSOLUTE
    ..\Core\Src\freertos.c                   0x00000000   Number         0  freertos.o ABSOLUTE
    ..\Core\Src\gpio.c                       0x00000000   Number         0  gpio.o ABSOLUTE
    ..\Core\Src\i2c.c                        0x00000000   Number         0  i2c.o ABSOLUTE
    ..\Core\Src\main.c                       0x00000000   Number         0  main.o ABSOLUTE
    ..\Core\Src\music.c                      0x00000000   Number         0  music.o ABSOLUTE
    ..\Core\Src\spi.c                        0x00000000   Number         0  spi.o ABSOLUTE
    ..\Core\Src\stm32f1xx_hal_msp.c          0x00000000   Number         0  stm32f1xx_hal_msp.o ABSOLUTE
    ..\Core\Src\stm32f1xx_hal_timebase_tim.c 0x00000000   Number         0  stm32f1xx_hal_timebase_tim.o ABSOLUTE
    ..\Core\Src\stm32f1xx_it.c               0x00000000   Number         0  stm32f1xx_it.o ABSOLUTE
    ..\Core\Src\system_stm32f1xx.c           0x00000000   Number         0  system_stm32f1xx.o ABSOLUTE
    ..\Core\Src\tim.c                        0x00000000   Number         0  tim.o ABSOLUTE
    ..\Core\Src\usart.c                      0x00000000   Number         0  usart.o ABSOLUTE
    ..\Core\Src\usb.c                        0x00000000   Number         0  usb.o ABSOLUTE
    ..\Drivers\DshanMCU-F103\driver_active_buzzer.c 0x00000000   Number         0  driver_active_buzzer.o ABSOLUTE
    ..\Drivers\DshanMCU-F103\driver_color_led.c 0x00000000   Number         0  driver_color_led.o ABSOLUTE
    ..\Drivers\DshanMCU-F103\driver_dht11.c  0x00000000   Number         0  driver_dht11.o ABSOLUTE
    ..\Drivers\DshanMCU-F103\driver_ds18b20.c 0x00000000   Number         0  driver_ds18b20.o ABSOLUTE
    ..\Drivers\DshanMCU-F103\driver_ir_obstacle.c 0x00000000   Number         0  driver_ir_obstacle.o ABSOLUTE
    ..\Drivers\DshanMCU-F103\driver_ir_receiver.c 0x00000000   Number         0  driver_ir_receiver.o ABSOLUTE
    ..\Drivers\DshanMCU-F103\driver_ir_sender.c 0x00000000   Number         0  driver_ir_sender.o ABSOLUTE
    ..\Drivers\DshanMCU-F103\driver_irq.c    0x00000000   Number         0  driver_irq.o ABSOLUTE
    ..\Drivers\DshanMCU-F103\driver_key.c    0x00000000   Number         0  driver_key.o ABSOLUTE
    ..\Drivers\DshanMCU-F103\driver_lcd.c    0x00000000   Number         0  driver_lcd.o ABSOLUTE
    ..\Drivers\DshanMCU-F103\driver_led.c    0x00000000   Number         0  driver_led.o ABSOLUTE
    ..\Drivers\DshanMCU-F103\driver_light_sensor.c 0x00000000   Number         0  driver_light_sensor.o ABSOLUTE
    ..\Drivers\DshanMCU-F103\driver_motor.c  0x00000000   Number         0  driver_motor.o ABSOLUTE
    ..\Drivers\DshanMCU-F103\driver_mpu6050.c 0x00000000   Number         0  driver_mpu6050.o ABSOLUTE
    ..\Drivers\DshanMCU-F103\driver_oled.c   0x00000000   Number         0  driver_oled.o ABSOLUTE
    ..\Drivers\DshanMCU-F103\driver_passive_buzzer.c 0x00000000   Number         0  driver_passive_buzzer.o ABSOLUTE
    ..\Drivers\DshanMCU-F103\driver_rotary_encoder.c 0x00000000   Number         0  driver_rotary_encoder.o ABSOLUTE
    ..\Drivers\DshanMCU-F103\driver_spiflash_w25q64.c 0x00000000   Number         0  driver_spiflash_w25q64.o ABSOLUTE
    ..\Drivers\DshanMCU-F103\driver_timer.c  0x00000000   Number         0  driver_timer.o ABSOLUTE
    ..\Drivers\DshanMCU-F103\driver_uart.c   0x00000000   Number         0  driver_uart.o ABSOLUTE
    ..\Drivers\DshanMCU-F103\driver_ultrasonic_sr04.c 0x00000000   Number         0  driver_ultrasonic_sr04.o ABSOLUTE
    ..\Drivers\STM32F1xx_HAL_Driver\Src\stm32f1xx_hal.c 0x00000000   Number         0  stm32f1xx_hal.o ABSOLUTE
    ..\Drivers\STM32F1xx_HAL_Driver\Src\stm32f1xx_hal_adc.c 0x00000000   Number         0  stm32f1xx_hal_adc.o ABSOLUTE
    ..\Drivers\STM32F1xx_HAL_Driver\Src\stm32f1xx_hal_adc_ex.c 0x00000000   Number         0  stm32f1xx_hal_adc_ex.o ABSOLUTE
    ..\Drivers\STM32F1xx_HAL_Driver\Src\stm32f1xx_hal_cortex.c 0x00000000   Number         0  stm32f1xx_hal_cortex.o ABSOLUTE
    ..\Drivers\STM32F1xx_HAL_Driver\Src\stm32f1xx_hal_dma.c 0x00000000   Number         0  stm32f1xx_hal_dma.o ABSOLUTE
    ..\Drivers\STM32F1xx_HAL_Driver\Src\stm32f1xx_hal_exti.c 0x00000000   Number         0  stm32f1xx_hal_exti.o ABSOLUTE
    ..\Drivers\STM32F1xx_HAL_Driver\Src\stm32f1xx_hal_flash.c 0x00000000   Number         0  stm32f1xx_hal_flash.o ABSOLUTE
    ..\Drivers\STM32F1xx_HAL_Driver\Src\stm32f1xx_hal_flash_ex.c 0x00000000   Number         0  stm32f1xx_hal_flash_ex.o ABSOLUTE
    ..\Drivers\STM32F1xx_HAL_Driver\Src\stm32f1xx_hal_gpio.c 0x00000000   Number         0  stm32f1xx_hal_gpio.o ABSOLUTE
    ..\Drivers\STM32F1xx_HAL_Driver\Src\stm32f1xx_hal_gpio_ex.c 0x00000000   Number         0  stm32f1xx_hal_gpio_ex.o ABSOLUTE
    ..\Drivers\STM32F1xx_HAL_Driver\Src\stm32f1xx_hal_i2c.c 0x00000000   Number         0  stm32f1xx_hal_i2c.o ABSOLUTE
    ..\Drivers\STM32F1xx_HAL_Driver\Src\stm32f1xx_hal_pcd.c 0x00000000   Number         0  stm32f1xx_hal_pcd.o ABSOLUTE
    ..\Drivers\STM32F1xx_HAL_Driver\Src\stm32f1xx_hal_pcd_ex.c 0x00000000   Number         0  stm32f1xx_hal_pcd_ex.o ABSOLUTE
    ..\Drivers\STM32F1xx_HAL_Driver\Src\stm32f1xx_hal_pwr.c 0x00000000   Number         0  stm32f1xx_hal_pwr.o ABSOLUTE
    ..\Drivers\STM32F1xx_HAL_Driver\Src\stm32f1xx_hal_rcc.c 0x00000000   Number         0  stm32f1xx_hal_rcc.o ABSOLUTE
    ..\Drivers\STM32F1xx_HAL_Driver\Src\stm32f1xx_hal_rcc_ex.c 0x00000000   Number         0  stm32f1xx_hal_rcc_ex.o ABSOLUTE
    ..\Drivers\STM32F1xx_HAL_Driver\Src\stm32f1xx_hal_spi.c 0x00000000   Number         0  stm32f1xx_hal_spi.o ABSOLUTE
    ..\Drivers\STM32F1xx_HAL_Driver\Src\stm32f1xx_hal_tim.c 0x00000000   Number         0  stm32f1xx_hal_tim.o ABSOLUTE
    ..\Drivers\STM32F1xx_HAL_Driver\Src\stm32f1xx_hal_tim_ex.c 0x00000000   Number         0  stm32f1xx_hal_tim_ex.o ABSOLUTE
    ..\Drivers\STM32F1xx_HAL_Driver\Src\stm32f1xx_hal_uart.c 0x00000000   Number         0  stm32f1xx_hal_uart.o ABSOLUTE
    ..\Drivers\STM32F1xx_HAL_Driver\Src\stm32f1xx_ll_usb.c 0x00000000   Number         0  stm32f1xx_ll_usb.o ABSOLUTE
    ..\Middlewares\Third_Party\FreeRTOS\Source\CMSIS_RTOS_V2\cmsis_os2.c 0x00000000   Number         0  cmsis_os2.o ABSOLUTE
    ..\Middlewares\Third_Party\FreeRTOS\Source\portable\RVDS\ARM_CM3\port.c 0x00000000   Number         0  port.o ABSOLUTE
    ..\\Drivers\\DshanMCU-F103\\driver_active_buzzer.c 0x00000000   Number         0  driver_active_buzzer.o ABSOLUTE
    ..\\Drivers\\DshanMCU-F103\\driver_color_led.c 0x00000000   Number         0  driver_color_led.o ABSOLUTE
    ..\\Drivers\\DshanMCU-F103\\driver_dht11.c 0x00000000   Number         0  driver_dht11.o ABSOLUTE
    ..\\Drivers\\DshanMCU-F103\\driver_ds18b20.c 0x00000000   Number         0  driver_ds18b20.o ABSOLUTE
    ..\\Drivers\\DshanMCU-F103\\driver_ir_obstacle.c 0x00000000   Number         0  driver_ir_obstacle.o ABSOLUTE
    ..\\Drivers\\DshanMCU-F103\\driver_ir_receiver.c 0x00000000   Number         0  driver_ir_receiver.o ABSOLUTE
    ..\\Drivers\\DshanMCU-F103\\driver_ir_sender.c 0x00000000   Number         0  driver_ir_sender.o ABSOLUTE
    ..\\Drivers\\DshanMCU-F103\\driver_irq.c 0x00000000   Number         0  driver_irq.o ABSOLUTE
    ..\\Drivers\\DshanMCU-F103\\driver_key.c 0x00000000   Number         0  driver_key.o ABSOLUTE
    ..\\Drivers\\DshanMCU-F103\\driver_led.c 0x00000000   Number         0  driver_led.o ABSOLUTE
    ..\\Drivers\\DshanMCU-F103\\driver_light_sensor.c 0x00000000   Number         0  driver_light_sensor.o ABSOLUTE
    ..\\Drivers\\DshanMCU-F103\\driver_motor.c 0x00000000   Number         0  driver_motor.o ABSOLUTE
    ..\\Drivers\\DshanMCU-F103\\driver_mpu6050.c 0x00000000   Number         0  driver_mpu6050.o ABSOLUTE
    ..\\Drivers\\DshanMCU-F103\\driver_oled.c 0x00000000   Number         0  driver_oled.o ABSOLUTE
    ..\\Drivers\\DshanMCU-F103\\driver_passive_buzzer.c 0x00000000   Number         0  driver_passive_buzzer.o ABSOLUTE
    ..\\Drivers\\DshanMCU-F103\\driver_rotary_encoder.c 0x00000000   Number         0  driver_rotary_encoder.o ABSOLUTE
    ..\\Drivers\\DshanMCU-F103\\driver_spiflash_w25q64.c 0x00000000   Number         0  driver_spiflash_w25q64.o ABSOLUTE
    ..\\Drivers\\DshanMCU-F103\\driver_timer.c 0x00000000   Number         0  driver_timer.o ABSOLUTE
    ..\\Drivers\\DshanMCU-F103\\driver_uart.c 0x00000000   Number         0  driver_uart.o ABSOLUTE
    ..\\Drivers\\DshanMCU-F103\\driver_ultrasonic_sr04.c 0x00000000   Number         0  driver_ultrasonic_sr04.o ABSOLUTE
    ..\nwatch\beep.c                         0x00000000   Number         0  beep.o ABSOLUTE
    ..\nwatch\draw.c                         0x00000000   Number         0  draw.o ABSOLUTE
    ..\nwatch\game1.c                        0x00000000   Number         0  game1.o ABSOLUTE
    ..\nwatch\game2.c                        0x00000000   Number         0  game2.o ABSOLUTE
    ..\nwatch\resources.c                    0x00000000   Number         0  resources.o ABSOLUTE
    cdrcmple.s                               0x00000000   Number         0  cdrcmple.o ABSOLUTE
    cfcmple.s                                0x00000000   Number         0  cfcmple.o ABSOLUTE
    cfrcmple.s                               0x00000000   Number         0  cfrcmple.o ABSOLUTE
    dc.s                                     0x00000000   Number         0  dc.o ABSOLUTE
    handlers.s                               0x00000000   Number         0  handlers.o ABSOLUTE
    init.s                                   0x00000000   Number         0  init.o ABSOLUTE
    startup_stm32f103xb.s                    0x00000000   Number         0  startup_stm32f103xb.o ABSOLUTE
    RESET                                    0x08000000   Section      236  startup_stm32f103xb.o(RESET)
    .ARM.Collect$$$$00000000                 0x080000ec   Section        0  entry.o(.ARM.Collect$$$$00000000)
    .ARM.Collect$$$$00000001                 0x080000ec   Section        4  entry2.o(.ARM.Collect$$$$00000001)
    .ARM.Collect$$$$00000004                 0x080000f0   Section        4  entry5.o(.ARM.Collect$$$$00000004)
    .ARM.Collect$$$$00000008                 0x080000f4   Section        0  entry7b.o(.ARM.Collect$$$$00000008)
    .ARM.Collect$$$$0000000A                 0x080000f4   Section        0  entry8b.o(.ARM.Collect$$$$0000000A)
    .ARM.Collect$$$$0000000B                 0x080000f4   Section        8  entry9a.o(.ARM.Collect$$$$0000000B)
    .ARM.Collect$$$$0000000D                 0x080000fc   Section        0  entry10a.o(.ARM.Collect$$$$0000000D)
    .ARM.Collect$$$$0000000F                 0x080000fc   Section        0  entry11a.o(.ARM.Collect$$$$0000000F)
    .ARM.Collect$$$$00002712                 0x080000fc   Section        4  entry2.o(.ARM.Collect$$$$00002712)
    __lit__00000000                          0x080000fc   Data           4  entry2.o(.ARM.Collect$$$$00002712)
    .emb_text                                0x08000100   Section      150  port.o(.emb_text)
    .text                                    0x08000198   Section       36  startup_stm32f103xb.o(.text)
    .text                                    0x080001bc   Section        0  uldiv.o(.text)
    .text                                    0x0800021e   Section        0  llushr.o(.text)
    .text                                    0x08000240   Section        0  rand.o(.text)
    .text                                    0x08000264   Section        0  memcpya.o(.text)
    .text                                    0x08000288   Section        0  memseta.o(.text)
    .text                                    0x080002ac   Section        0  strlen.o(.text)
    .text                                    0x080002ba   Section        0  strcpy.o(.text)
    .text                                    0x080002cc   Section        0  fadd.o(.text)
    .text                                    0x0800037c   Section        0  fscalb.o(.text)
    .text                                    0x08000394   Section        0  fflti.o(.text)
    .text                                    0x080003a6   Section        0  ffltui.o(.text)
    .text                                    0x080003b0   Section        0  ffixui.o(.text)
    .text                                    0x080003d8   Section       20  cfcmple.o(.text)
    .text                                    0x080003ec   Section       20  cfrcmple.o(.text)
    .text                                    0x08000400   Section        0  uidiv.o(.text)
    .text                                    0x0800042c   Section        0  llshl.o(.text)
    .text                                    0x0800044a   Section        0  fepilogue.o(.text)
    .text                                    0x0800044a   Section        0  iusefp.o(.text)
    .text                                    0x080004b8   Section       36  init.o(.text)
    .text                                    0x080004dc   Section        0  __dczerorl2.o(.text)
    i.ADC_ConversionStop_Disable             0x08000534   Section        0  stm32f1xx_hal_adc.o(i.ADC_ConversionStop_Disable)
    i.BusFault_Handler                       0x0800058a   Section        0  stm32f1xx_it.o(i.BusFault_Handler)
    i.ColorLED_Set                           0x0800058c   Section        0  driver_color_led.o(i.ColorLED_Set)
    i.ColorLED_Test                          0x08000630   Section        0  driver_color_led.o(i.ColorLED_Test)
    i.DHT11Timer_func                        0x08000654   Section        0  game1.o(i.DHT11Timer_func)
    DHT11Timer_func                          0x08000655   Thumb Code    62  game1.o(i.DHT11Timer_func)
    i.DHT11_Init                             0x080006ac   Section        0  driver_dht11.o(i.DHT11_Init)
    i.DHT11_PinRead                          0x080006b4   Section        0  driver_dht11.o(i.DHT11_PinRead)
    DHT11_PinRead                            0x080006b5   Thumb Code    18  driver_dht11.o(i.DHT11_PinRead)
    i.DHT11_PinSet                           0x080006cc   Section        0  driver_dht11.o(i.DHT11_PinSet)
    DHT11_PinSet                             0x080006cd   Thumb Code    18  driver_dht11.o(i.DHT11_PinSet)
    i.DHT11_Read                             0x080006e4   Section        0  driver_dht11.o(i.DHT11_Read)
    i.DHT11_ReadByte                         0x08000774   Section        0  driver_dht11.o(i.DHT11_ReadByte)
    DHT11_ReadByte                           0x08000775   Thumb Code    70  driver_dht11.o(i.DHT11_ReadByte)
    i.DHT11_WaitFor_Val                      0x080007ba   Section        0  driver_dht11.o(i.DHT11_WaitFor_Val)
    DHT11_WaitFor_Val                        0x080007bb   Thumb Code    36  driver_dht11.o(i.DHT11_WaitFor_Val)
    i.DebugMon_Handler                       0x080007de   Section        0  stm32f1xx_it.o(i.DebugMon_Handler)
    i.DispatchKey                            0x080007e0   Section        0  driver_ir_receiver.o(i.DispatchKey)
    i.EXTI15_10_IRQHandler                   0x0800082c   Section        0  stm32f1xx_it.o(i.EXTI15_10_IRQHandler)
    i.EXTI9_5_IRQHandler                     0x0800084a   Section        0  stm32f1xx_it.o(i.EXTI9_5_IRQHandler)
    i.Error_Handler                          0x08000850   Section        0  main.o(i.Error_Handler)
    i.GameSoundTimer_func                    0x08000854   Section        0  beep.o(i.GameSoundTimer_func)
    i.GetI2C                                 0x0800085c   Section        0  freertos.o(i.GetI2C)
    i.GetQueueIR                             0x0800086c   Section        0  driver_ir_receiver.o(i.GetQueueIR)
    i.GetQueueMPU6050                        0x08000878   Section        0  driver_mpu6050.o(i.GetQueueMPU6050)
    i.GetQueueRotary                         0x08000884   Section        0  driver_rotary_encoder.o(i.GetQueueRotary)
    i.HAL_ADC_ConfigChannel                  0x08000890   Section        0  stm32f1xx_hal_adc.o(i.HAL_ADC_ConfigChannel)
    i.HAL_ADC_Init                           0x0800098c   Section        0  stm32f1xx_hal_adc.o(i.HAL_ADC_Init)
    i.HAL_ADC_MspInit                        0x08000aa8   Section        0  adc.o(i.HAL_ADC_MspInit)
    i.HAL_GPIO_EXTI_Callback                 0x08000b00   Section        0  driver_irq.o(i.HAL_GPIO_EXTI_Callback)
    i.HAL_GPIO_EXTI_IRQHandler               0x08000b20   Section        0  stm32f1xx_hal_gpio.o(i.HAL_GPIO_EXTI_IRQHandler)
    i.HAL_GPIO_Init                          0x08000b38   Section        0  stm32f1xx_hal_gpio.o(i.HAL_GPIO_Init)
    i.HAL_GPIO_ReadPin                       0x08000d18   Section        0  stm32f1xx_hal_gpio.o(i.HAL_GPIO_ReadPin)
    i.HAL_GPIO_WritePin                      0x08000d22   Section        0  stm32f1xx_hal_gpio.o(i.HAL_GPIO_WritePin)
    i.HAL_GetTick                            0x08000d2c   Section        0  stm32f1xx_hal.o(i.HAL_GetTick)
    i.HAL_I2C_Init                           0x08000d38   Section        0  stm32f1xx_hal_i2c.o(i.HAL_I2C_Init)
    i.HAL_I2C_Master_Transmit                0x08000ec0   Section        0  stm32f1xx_hal_i2c.o(i.HAL_I2C_Master_Transmit)
    i.HAL_I2C_Mem_Read                       0x08000fec   Section        0  stm32f1xx_hal_i2c.o(i.HAL_I2C_Mem_Read)
    i.HAL_I2C_Mem_Write                      0x0800123c   Section        0  stm32f1xx_hal_i2c.o(i.HAL_I2C_Mem_Write)
    i.HAL_I2C_MspInit                        0x0800136c   Section        0  i2c.o(i.HAL_I2C_MspInit)
    i.HAL_IncTick                            0x080013c8   Section        0  stm32f1xx_hal.o(i.HAL_IncTick)
    i.HAL_Init                               0x080013d8   Section        0  stm32f1xx_hal.o(i.HAL_Init)
    i.HAL_InitTick                           0x080013fc   Section        0  stm32f1xx_hal_timebase_tim.o(i.HAL_InitTick)
    i.HAL_MspInit                            0x08001494   Section        0  stm32f1xx_hal_msp.o(i.HAL_MspInit)
    i.HAL_NVIC_EnableIRQ                     0x080014dc   Section        0  stm32f1xx_hal_cortex.o(i.HAL_NVIC_EnableIRQ)
    i.HAL_NVIC_SetPriority                   0x080014f8   Section        0  stm32f1xx_hal_cortex.o(i.HAL_NVIC_SetPriority)
    i.HAL_NVIC_SetPriorityGrouping           0x08001538   Section        0  stm32f1xx_hal_cortex.o(i.HAL_NVIC_SetPriorityGrouping)
    i.HAL_PCD_Init                           0x0800155c   Section        0  stm32f1xx_hal_pcd.o(i.HAL_PCD_Init)
    i.HAL_PCD_MspInit                        0x08001638   Section        0  usb.o(i.HAL_PCD_MspInit)
    i.HAL_RCCEx_PeriphCLKConfig              0x08001660   Section        0  stm32f1xx_hal_rcc_ex.o(i.HAL_RCCEx_PeriphCLKConfig)
    i.HAL_RCC_ClockConfig                    0x0800174c   Section        0  stm32f1xx_hal_rcc.o(i.HAL_RCC_ClockConfig)
    i.HAL_RCC_GetClockConfig                 0x08001878   Section        0  stm32f1xx_hal_rcc.o(i.HAL_RCC_GetClockConfig)
    i.HAL_RCC_GetPCLK1Freq                   0x080018b8   Section        0  stm32f1xx_hal_rcc.o(i.HAL_RCC_GetPCLK1Freq)
    i.HAL_RCC_GetPCLK2Freq                   0x080018d8   Section        0  stm32f1xx_hal_rcc.o(i.HAL_RCC_GetPCLK2Freq)
    i.HAL_RCC_GetSysClockFreq                0x080018f8   Section        0  stm32f1xx_hal_rcc.o(i.HAL_RCC_GetSysClockFreq)
    i.HAL_RCC_OscConfig                      0x08001944   Section        0  stm32f1xx_hal_rcc.o(i.HAL_RCC_OscConfig)
    i.HAL_SPI_Init                           0x08001c64   Section        0  stm32f1xx_hal_spi.o(i.HAL_SPI_Init)
    i.HAL_SPI_MspInit                        0x08001d18   Section        0  spi.o(i.HAL_SPI_MspInit)
    i.HAL_TIMEx_BreakCallback                0x08001d88   Section        0  stm32f1xx_hal_tim_ex.o(i.HAL_TIMEx_BreakCallback)
    i.HAL_TIMEx_CommutCallback               0x08001d8a   Section        0  stm32f1xx_hal_tim_ex.o(i.HAL_TIMEx_CommutCallback)
    i.HAL_TIMEx_ConfigBreakDeadTime          0x08001d8c   Section        0  stm32f1xx_hal_tim_ex.o(i.HAL_TIMEx_ConfigBreakDeadTime)
    i.HAL_TIMEx_MasterConfigSynchronization  0x08001de0   Section        0  stm32f1xx_hal_tim_ex.o(i.HAL_TIMEx_MasterConfigSynchronization)
    i.HAL_TIM_Base_DeInit                    0x08001e48   Section        0  stm32f1xx_hal_tim.o(i.HAL_TIM_Base_DeInit)
    i.HAL_TIM_Base_Init                      0x08001ea4   Section        0  stm32f1xx_hal_tim.o(i.HAL_TIM_Base_Init)
    i.HAL_TIM_Base_MspDeInit                 0x08001f00   Section        0  tim.o(i.HAL_TIM_Base_MspDeInit)
    i.HAL_TIM_Base_MspInit                   0x08001f2c   Section        0  tim.o(i.HAL_TIM_Base_MspInit)
    i.HAL_TIM_Base_Start_IT                  0x08001f68   Section        0  stm32f1xx_hal_tim.o(i.HAL_TIM_Base_Start_IT)
    i.HAL_TIM_ConfigClockSource              0x08001fc0   Section        0  stm32f1xx_hal_tim.o(i.HAL_TIM_ConfigClockSource)
    i.HAL_TIM_IC_CaptureCallback             0x0800209c   Section        0  stm32f1xx_hal_tim.o(i.HAL_TIM_IC_CaptureCallback)
    i.HAL_TIM_IRQHandler                     0x0800209e   Section        0  stm32f1xx_hal_tim.o(i.HAL_TIM_IRQHandler)
    i.HAL_TIM_MspPostInit                    0x08002204   Section        0  tim.o(i.HAL_TIM_MspPostInit)
    i.HAL_TIM_OC_DelayElapsedCallback        0x080022f0   Section        0  stm32f1xx_hal_tim.o(i.HAL_TIM_OC_DelayElapsedCallback)
    i.HAL_TIM_PWM_ConfigChannel              0x080022f2   Section        0  stm32f1xx_hal_tim.o(i.HAL_TIM_PWM_ConfigChannel)
    i.HAL_TIM_PWM_Init                       0x080023be   Section        0  stm32f1xx_hal_tim.o(i.HAL_TIM_PWM_Init)
    i.HAL_TIM_PWM_MspInit                    0x08002418   Section        0  tim.o(i.HAL_TIM_PWM_MspInit)
    i.HAL_TIM_PWM_PulseFinishedCallback      0x08002440   Section        0  stm32f1xx_hal_tim.o(i.HAL_TIM_PWM_PulseFinishedCallback)
    i.HAL_TIM_PWM_Start                      0x08002444   Section        0  stm32f1xx_hal_tim.o(i.HAL_TIM_PWM_Start)
    i.HAL_TIM_PWM_Stop                       0x080024e0   Section        0  stm32f1xx_hal_tim.o(i.HAL_TIM_PWM_Stop)
    i.HAL_TIM_PeriodElapsedCallback          0x08002550   Section        0  main.o(i.HAL_TIM_PeriodElapsedCallback)
    i.HAL_TIM_TriggerCallback                0x08002564   Section        0  stm32f1xx_hal_tim.o(i.HAL_TIM_TriggerCallback)
    i.HAL_UART_Init                          0x08002566   Section        0  stm32f1xx_hal_uart.o(i.HAL_UART_Init)
    i.HAL_UART_MspInit                       0x080025cc   Section        0  usart.o(i.HAL_UART_MspInit)
    i.HAL_UART_Transmit                      0x0800263c   Section        0  stm32f1xx_hal_uart.o(i.HAL_UART_Transmit)
    i.HardFault_Handler                      0x080026d6   Section        0  stm32f1xx_it.o(i.HardFault_Handler)
    i.I2C_IsAcknowledgeFailed                0x080026d8   Section        0  stm32f1xx_hal_i2c.o(i.I2C_IsAcknowledgeFailed)
    I2C_IsAcknowledgeFailed                  0x080026d9   Thumb Code    46  stm32f1xx_hal_i2c.o(i.I2C_IsAcknowledgeFailed)
    i.I2C_MasterRequestWrite                 0x08002708   Section        0  stm32f1xx_hal_i2c.o(i.I2C_MasterRequestWrite)
    I2C_MasterRequestWrite                   0x08002709   Thumb Code   150  stm32f1xx_hal_i2c.o(i.I2C_MasterRequestWrite)
    i.I2C_RequestMemoryRead                  0x080027a4   Section        0  stm32f1xx_hal_i2c.o(i.I2C_RequestMemoryRead)
    I2C_RequestMemoryRead                    0x080027a5   Thumb Code   246  stm32f1xx_hal_i2c.o(i.I2C_RequestMemoryRead)
    i.I2C_RequestMemoryWrite                 0x080028a0   Section        0  stm32f1xx_hal_i2c.o(i.I2C_RequestMemoryWrite)
    I2C_RequestMemoryWrite                   0x080028a1   Thumb Code   162  stm32f1xx_hal_i2c.o(i.I2C_RequestMemoryWrite)
    i.I2C_WaitOnBTFFlagUntilTimeout          0x08002948   Section        0  stm32f1xx_hal_i2c.o(i.I2C_WaitOnBTFFlagUntilTimeout)
    I2C_WaitOnBTFFlagUntilTimeout            0x08002949   Thumb Code    86  stm32f1xx_hal_i2c.o(i.I2C_WaitOnBTFFlagUntilTimeout)
    i.I2C_WaitOnFlagUntilTimeout             0x080029a0   Section        0  stm32f1xx_hal_i2c.o(i.I2C_WaitOnFlagUntilTimeout)
    I2C_WaitOnFlagUntilTimeout               0x080029a1   Thumb Code   144  stm32f1xx_hal_i2c.o(i.I2C_WaitOnFlagUntilTimeout)
    i.I2C_WaitOnMasterAddressFlagUntilTimeout 0x08002a30   Section        0  stm32f1xx_hal_i2c.o(i.I2C_WaitOnMasterAddressFlagUntilTimeout)
    I2C_WaitOnMasterAddressFlagUntilTimeout  0x08002a31   Thumb Code   188  stm32f1xx_hal_i2c.o(i.I2C_WaitOnMasterAddressFlagUntilTimeout)
    i.I2C_WaitOnRXNEFlagUntilTimeout         0x08002aec   Section        0  stm32f1xx_hal_i2c.o(i.I2C_WaitOnRXNEFlagUntilTimeout)
    I2C_WaitOnRXNEFlagUntilTimeout           0x08002aed   Thumb Code   112  stm32f1xx_hal_i2c.o(i.I2C_WaitOnRXNEFlagUntilTimeout)
    i.I2C_WaitOnTXEFlagUntilTimeout          0x08002b5c   Section        0  stm32f1xx_hal_i2c.o(i.I2C_WaitOnTXEFlagUntilTimeout)
    I2C_WaitOnTXEFlagUntilTimeout            0x08002b5d   Thumb Code    86  stm32f1xx_hal_i2c.o(i.I2C_WaitOnTXEFlagUntilTimeout)
    i.IRReceiver_IRQTimes_Parse              0x08002bb4   Section        0  driver_ir_receiver.o(i.IRReceiver_IRQTimes_Parse)
    IRReceiver_IRQTimes_Parse                0x08002bb5   Thumb Code   256  driver_ir_receiver.o(i.IRReceiver_IRQTimes_Parse)
    i.IRReceiver_IRQ_Callback                0x08002cd0   Section        0  driver_ir_receiver.o(i.IRReceiver_IRQ_Callback)
    i.IRReceiver_Init                        0x08002d84   Section        0  driver_ir_receiver.o(i.IRReceiver_Init)
    i.InputTask                              0x08002da0   Section        0  game1.o(i.InputTask)
    i.LCD_Clear                              0x08002e18   Section        0  driver_lcd.o(i.LCD_Clear)
    i.LCD_Flush                              0x08002e1c   Section        0  driver_lcd.o(i.LCD_Flush)
    i.LCD_FlushRegion                        0x08002e20   Section        0  driver_lcd.o(i.LCD_FlushRegion)
    i.LCD_GetFrameBuffer                     0x08002e24   Section        0  driver_lcd.o(i.LCD_GetFrameBuffer)
    i.LCD_Init                               0x08002e28   Section        0  driver_lcd.o(i.LCD_Init)
    i.LCD_PrintString                        0x08002e2c   Section        0  driver_lcd.o(i.LCD_PrintString)
    i.Led_Control                            0x08002e30   Section        0  driver_led.o(i.Led_Control)
    i.Led_Init                               0x08002e50   Section        0  driver_led.o(i.Led_Init)
    i.Led_Test                               0x08002ea4   Section        0  driver_led.o(i.Led_Test)
    i.MPU6050_Callback                       0x08002f04   Section        0  driver_mpu6050.o(i.MPU6050_Callback)
    i.MPU6050_Init                           0x08002f38   Section        0  driver_mpu6050.o(i.MPU6050_Init)
    i.MPU6050_ReadData                       0x08002f98   Section        0  driver_mpu6050.o(i.MPU6050_ReadData)
    i.MPU6050_ReadRegister                   0x080030a4   Section        0  driver_mpu6050.o(i.MPU6050_ReadRegister)
    i.MPU6050_WriteRegister                  0x080030c4   Section        0  driver_mpu6050.o(i.MPU6050_WriteRegister)
    MPU6050_WriteRegister                    0x080030c5   Thumb Code    32  driver_mpu6050.o(i.MPU6050_WriteRegister)
    i.MPU_6050_Task                          0x080030e8   Section        0  driver_mpu6050.o(i.MPU_6050_Task)
    i.MX_ADC1_Init                           0x08003134   Section        0  adc.o(i.MX_ADC1_Init)
    i.MX_FREERTOS_Init                       0x08003184   Section        0  freertos.o(i.MX_FREERTOS_Init)
    i.MX_GPIO_Init                           0x08003240   Section        0  gpio.o(i.MX_GPIO_Init)
    i.MX_I2C1_Init                           0x080033a0   Section        0  i2c.o(i.MX_I2C1_Init)
    i.MX_SPI1_Init                           0x080033e0   Section        0  spi.o(i.MX_SPI1_Init)
    i.MX_TIM1_Init                           0x08003428   Section        0  tim.o(i.MX_TIM1_Init)
    i.MX_TIM2_Init                           0x080034f8   Section        0  tim.o(i.MX_TIM2_Init)
    i.MX_TIM3_Init                           0x080035b4   Section        0  tim.o(i.MX_TIM3_Init)
    i.MX_USART1_UART_Init                    0x0800362c   Section        0  usart.o(i.MX_USART1_UART_Init)
    i.MX_USB_PCD_Init                        0x08003664   Section        0  usb.o(i.MX_USB_PCD_Init)
    i.MemManage_Handler                      0x08003698   Section        0  stm32f1xx_it.o(i.MemManage_Handler)
    i.NMI_Handler                            0x0800369a   Section        0  stm32f1xx_it.o(i.NMI_Handler)
    i.OLED_Clear                             0x0800369c   Section        0  driver_oled.o(i.OLED_Clear)
    i.OLED_Flush                             0x080036c8   Section        0  driver_oled.o(i.OLED_Flush)
    i.OLED_FlushRegion                       0x08003700   Section        0  driver_oled.o(i.OLED_FlushRegion)
    i.OLED_GetFrameBuffer                    0x08003760   Section        0  driver_oled.o(i.OLED_GetFrameBuffer)
    i.OLED_Init                              0x08003774   Section        0  driver_oled.o(i.OLED_Init)
    i.OLED_PrintString                       0x08003808   Section        0  driver_oled.o(i.OLED_PrintString)
    i.OLED_PutChar                           0x0800383c   Section        0  driver_oled.o(i.OLED_PutChar)
    i.OLED_SetComConfig                      0x08003884   Section        0  driver_oled.o(i.OLED_SetComConfig)
    OLED_SetComConfig                        0x08003885   Thumb Code    44  driver_oled.o(i.OLED_SetComConfig)
    i.OLED_SetPosition                       0x080038b0   Section        0  driver_oled.o(i.OLED_SetPosition)
    i.OLED_WriteCmd                          0x080038f0   Section        0  driver_oled.o(i.OLED_WriteCmd)
    OLED_WriteCmd                            0x080038f1   Thumb Code    34  driver_oled.o(i.OLED_WriteCmd)
    i.OLED_WriteNBytes                       0x08003918   Section        0  driver_oled.o(i.OLED_WriteNBytes)
    OLED_WriteNBytes                         0x08003919   Thumb Code    26  driver_oled.o(i.OLED_WriteNBytes)
    i.PassiveBuzzer_Control                  0x08003938   Section        0  driver_passive_buzzer.o(i.PassiveBuzzer_Control)
    i.PassiveBuzzer_Init                     0x08003950   Section        0  driver_passive_buzzer.o(i.PassiveBuzzer_Init)
    i.PassiveBuzzer_Set_Freq_Duty            0x080039b8   Section        0  driver_passive_buzzer.o(i.PassiveBuzzer_Set_Freq_Duty)
    i.ProcessIRData                          0x08003a40   Section        0  game1.o(i.ProcessIRData)
    ProcessIRData                            0x08003a41   Thumb Code    70  game1.o(i.ProcessIRData)
    i.ProcessRotaryData                      0x08003a8c   Section        0  game1.o(i.ProcessRotaryData)
    ProcessRotaryData                        0x08003a8d   Thumb Code    98  game1.o(i.ProcessRotaryData)
    i.PutI2C                                 0x08003af4   Section        0  freertos.o(i.PutI2C)
    i.RegisterQueueHandle                    0x08003b08   Section        0  driver_ir_receiver.o(i.RegisterQueueHandle)
    i.RotaryEncoder_IRQ_Callback             0x08003b24   Section        0  driver_rotary_encoder.o(i.RotaryEncoder_IRQ_Callback)
    i.RotaryEncoder_Init                     0x08003bbc   Section        0  driver_rotary_encoder.o(i.RotaryEncoder_Init)
    i.SysTick_Handler                        0x08003be0   Section        0  port.o(i.SysTick_Handler)
    i.SystemClock_Config                     0x08003c0c   Section        0  main.o(i.SystemClock_Config)
    i.SystemInit                             0x08003c88   Section        0  system_stm32f1xx.o(i.SystemInit)
    i.TIM4_IRQHandler                        0x08003c8c   Section        0  stm32f1xx_it.o(i.TIM4_IRQHandler)
    i.TIM_Base_SetConfig                     0x08003c98   Section        0  stm32f1xx_hal_tim.o(i.TIM_Base_SetConfig)
    i.TIM_CCxChannelCmd                      0x08003d04   Section        0  stm32f1xx_hal_tim.o(i.TIM_CCxChannelCmd)
    i.TIM_ETR_SetConfig                      0x08003d1e   Section        0  stm32f1xx_hal_tim.o(i.TIM_ETR_SetConfig)
    i.TIM_ITRx_SetConfig                     0x08003d32   Section        0  stm32f1xx_hal_tim.o(i.TIM_ITRx_SetConfig)
    TIM_ITRx_SetConfig                       0x08003d33   Thumb Code    16  stm32f1xx_hal_tim.o(i.TIM_ITRx_SetConfig)
    i.TIM_OC1_SetConfig                      0x08003d44   Section        0  stm32f1xx_hal_tim.o(i.TIM_OC1_SetConfig)
    TIM_OC1_SetConfig                        0x08003d45   Thumb Code    74  stm32f1xx_hal_tim.o(i.TIM_OC1_SetConfig)
    i.TIM_OC2_SetConfig                      0x08003d94   Section        0  stm32f1xx_hal_tim.o(i.TIM_OC2_SetConfig)
    i.TIM_OC3_SetConfig                      0x08003dec   Section        0  stm32f1xx_hal_tim.o(i.TIM_OC3_SetConfig)
    TIM_OC3_SetConfig                        0x08003ded   Thumb Code    82  stm32f1xx_hal_tim.o(i.TIM_OC3_SetConfig)
    i.TIM_OC4_SetConfig                      0x08003e44   Section        0  stm32f1xx_hal_tim.o(i.TIM_OC4_SetConfig)
    TIM_OC4_SetConfig                        0x08003e45   Thumb Code    64  stm32f1xx_hal_tim.o(i.TIM_OC4_SetConfig)
    i.TIM_TI1_ConfigInputStage               0x08003e88   Section        0  stm32f1xx_hal_tim.o(i.TIM_TI1_ConfigInputStage)
    TIM_TI1_ConfigInputStage                 0x08003e89   Thumb Code    34  stm32f1xx_hal_tim.o(i.TIM_TI1_ConfigInputStage)
    i.TIM_TI2_ConfigInputStage               0x08003eaa   Section        0  stm32f1xx_hal_tim.o(i.TIM_TI2_ConfigInputStage)
    TIM_TI2_ConfigInputStage                 0x08003eab   Thumb Code    36  stm32f1xx_hal_tim.o(i.TIM_TI2_ConfigInputStage)
    i.UART_SetConfig                         0x08003ed0   Section        0  stm32f1xx_hal_uart.o(i.UART_SetConfig)
    UART_SetConfig                           0x08003ed1   Thumb Code   178  stm32f1xx_hal_uart.o(i.UART_SetConfig)
    i.UART_WaitOnFlagUntilTimeout            0x08003f88   Section        0  stm32f1xx_hal_uart.o(i.UART_WaitOnFlagUntilTimeout)
    UART_WaitOnFlagUntilTimeout              0x08003f89   Thumb Code   120  stm32f1xx_hal_uart.o(i.UART_WaitOnFlagUntilTimeout)
    i.USB_CoreInit                           0x08004000   Section        0  stm32f1xx_ll_usb.o(i.USB_CoreInit)
    i.USB_DevDisconnect                      0x08004004   Section        0  stm32f1xx_ll_usb.o(i.USB_DevDisconnect)
    i.USB_DevInit                            0x08004008   Section        0  stm32f1xx_ll_usb.o(i.USB_DevInit)
    i.USB_DisableGlobalInt                   0x0800401a   Section        0  stm32f1xx_ll_usb.o(i.USB_DisableGlobalInt)
    i.USB_SetCurrentMode                     0x08004028   Section        0  stm32f1xx_ll_usb.o(i.USB_SetCurrentMode)
    i.UsageFault_Handler                     0x0800402c   Section        0  stm32f1xx_it.o(i.UsageFault_Handler)
    i.__0printf$3                            0x08004030   Section        0  printf3.o(i.__0printf$3)
    i.__0sprintf$3                           0x08004050   Section        0  printf3.o(i.__0sprintf$3)
    i.__NVIC_SetPriority                     0x08004078   Section        0  stm32f1xx_hal_cortex.o(i.__NVIC_SetPriority)
    __NVIC_SetPriority                       0x08004079   Thumb Code    32  stm32f1xx_hal_cortex.o(i.__NVIC_SetPriority)
    i.__scatterload_copy                     0x08004098   Section       14  handlers.o(i.__scatterload_copy)
    i.__scatterload_null                     0x080040a6   Section        2  handlers.o(i.__scatterload_null)
    i.__scatterload_zeroinit                 0x080040a8   Section       14  handlers.o(i.__scatterload_zeroinit)
    i._printf_core                           0x080040b8   Section        0  printf3.o(i._printf_core)
    _printf_core                             0x080040b9   Thumb Code   436  printf3.o(i._printf_core)
    i._sputc                                 0x08004270   Section        0  printf3.o(i._sputc)
    _sputc                                   0x08004271   Thumb Code    10  printf3.o(i._sputc)
    i.buzzer_buzz                            0x0800427c   Section        0  beep.o(i.buzzer_buzz)
    i.buzzer_init                            0x080042a0   Section        0  beep.o(i.buzzer_init)
    i.draw_bitmap                            0x080042d0   Section        0  draw.o(i.draw_bitmap)
    i.draw_end                               0x080044a0   Section        0  draw.o(i.draw_end)
    i.draw_flushArea                         0x080044a4   Section        0  draw.o(i.draw_flushArea)
    i.draw_init                              0x080044c8   Section        0  draw.o(i.draw_init)
    i.draw_string                            0x080044e0   Section        0  draw.o(i.draw_string)
    i.draw_string_P                          0x08004590   Section        0  draw.o(i.draw_string_P)
    i.fputc                                  0x080045c8   Section        0  driver_uart.o(i.fputc)
    i.free                                   0x080045e4   Section        0  malloc.o(i.free)
    i.game1_draw                             0x08004634   Section        0  game1.o(i.game1_draw)
    i.game1_task                             0x080049f0   Section        0  game1.o(i.game1_task)
    i.main                                   0x08004b4c   Section        0  main.o(i.main)
    i.malloc                                 0x08004b88   Section        0  malloc.o(i.malloc)
    i.mdelay                                 0x08004bf4   Section        0  driver_timer.o(i.mdelay)
    i.osKernelInitialize                     0x08004c10   Section        0  cmsis_os2.o(i.osKernelInitialize)
    i.osKernelStart                          0x08004c48   Section        0  cmsis_os2.o(i.osKernelStart)
    i.pcTaskGetName                          0x08004c88   Section        0  tasks.o(i.pcTaskGetName)
    i.platform_task                          0x08004ca8   Section        0  game1.o(i.platform_task)
    platform_task                            0x08004ca9   Thumb Code   192  game1.o(i.platform_task)
    i.prvAddCurrentTaskToDelayedList         0x08004d70   Section        0  tasks.o(i.prvAddCurrentTaskToDelayedList)
    prvAddCurrentTaskToDelayedList           0x08004d71   Thumb Code    84  tasks.o(i.prvAddCurrentTaskToDelayedList)
    i.prvAddNewTaskToReadyList               0x08004dcc   Section        0  tasks.o(i.prvAddNewTaskToReadyList)
    prvAddNewTaskToReadyList                 0x08004dcd   Thumb Code   190  tasks.o(i.prvAddNewTaskToReadyList)
    i.prvCheckForValidListAndQueue           0x08004e9c   Section        0  timers.o(i.prvCheckForValidListAndQueue)
    prvCheckForValidListAndQueue             0x08004e9d   Thumb Code    72  timers.o(i.prvCheckForValidListAndQueue)
    i.prvCopyDataFromQueue                   0x08004ef4   Section        0  queue.o(i.prvCopyDataFromQueue)
    prvCopyDataFromQueue                     0x08004ef5   Thumb Code    38  queue.o(i.prvCopyDataFromQueue)
    i.prvCopyDataToQueue                     0x08004f1a   Section        0  queue.o(i.prvCopyDataToQueue)
    prvCopyDataToQueue                       0x08004f1b   Thumb Code   108  queue.o(i.prvCopyDataToQueue)
    i.prvDeleteTCB                           0x08004f86   Section        0  tasks.o(i.prvDeleteTCB)
    prvDeleteTCB                             0x08004f87   Thumb Code    52  tasks.o(i.prvDeleteTCB)
    i.prvHeapInit                            0x08004fbc   Section        0  heap_4.o(i.prvHeapInit)
    prvHeapInit                              0x08004fbd   Thumb Code    66  heap_4.o(i.prvHeapInit)
    i.prvIdleTask                            0x08005008   Section        0  tasks.o(i.prvIdleTask)
    prvIdleTask                              0x08005009   Thumb Code    82  tasks.o(i.prvIdleTask)
    i.prvInitialiseMutex                     0x08005068   Section        0  queue.o(i.prvInitialiseMutex)
    prvInitialiseMutex                       0x08005069   Thumb Code    22  queue.o(i.prvInitialiseMutex)
    i.prvInitialiseNewQueue                  0x08005080   Section        0  queue.o(i.prvInitialiseNewQueue)
    prvInitialiseNewQueue                    0x08005081   Thumb Code    38  queue.o(i.prvInitialiseNewQueue)
    i.prvInitialiseNewTask                   0x080050a6   Section        0  tasks.o(i.prvInitialiseNewTask)
    prvInitialiseNewTask                     0x080050a7   Thumb Code   156  tasks.o(i.prvInitialiseNewTask)
    i.prvInitialiseNewTimer                  0x08005142   Section        0  timers.o(i.prvInitialiseNewTimer)
    prvInitialiseNewTimer                    0x08005143   Thumb Code    68  timers.o(i.prvInitialiseNewTimer)
    i.prvInsertBlockIntoFreeList             0x08005188   Section        0  heap_4.o(i.prvInsertBlockIntoFreeList)
    prvInsertBlockIntoFreeList               0x08005189   Thumb Code    72  heap_4.o(i.prvInsertBlockIntoFreeList)
    i.prvInsertTimerInActiveList             0x080051d4   Section        0  timers.o(i.prvInsertTimerInActiveList)
    prvInsertTimerInActiveList               0x080051d5   Thumb Code    52  timers.o(i.prvInsertTimerInActiveList)
    i.prvIsQueueEmpty                        0x0800520c   Section        0  queue.o(i.prvIsQueueEmpty)
    prvIsQueueEmpty                          0x0800520d   Thumb Code    28  queue.o(i.prvIsQueueEmpty)
    i.prvNotifyQueueSetContainer             0x08005228   Section        0  queue.o(i.prvNotifyQueueSetContainer)
    prvNotifyQueueSetContainer               0x08005229   Thumb Code   108  queue.o(i.prvNotifyQueueSetContainer)
    i.prvProcessReceivedCommands             0x08005294   Section        0  timers.o(i.prvProcessReceivedCommands)
    prvProcessReceivedCommands               0x08005295   Thumb Code   198  timers.o(i.prvProcessReceivedCommands)
    i.prvProcessTimerOrBlockTask             0x08005360   Section        0  timers.o(i.prvProcessTimerOrBlockTask)
    prvProcessTimerOrBlockTask               0x08005361   Thumb Code   172  timers.o(i.prvProcessTimerOrBlockTask)
    i.prvResetNextTaskUnblockTime            0x08005414   Section        0  tasks.o(i.prvResetNextTaskUnblockTime)
    prvResetNextTaskUnblockTime              0x08005415   Thumb Code    26  tasks.o(i.prvResetNextTaskUnblockTime)
    i.prvSampleTimeNow                       0x08005434   Section        0  timers.o(i.prvSampleTimeNow)
    prvSampleTimeNow                         0x08005435   Thumb Code    36  timers.o(i.prvSampleTimeNow)
    i.prvSwitchTimerLists                    0x0800545c   Section        0  timers.o(i.prvSwitchTimerLists)
    prvSwitchTimerLists                      0x0800545d   Thumb Code   102  timers.o(i.prvSwitchTimerLists)
    i.prvTaskCheckFreeStackSpace             0x080054c8   Section        0  tasks.o(i.prvTaskCheckFreeStackSpace)
    prvTaskCheckFreeStackSpace               0x080054c9   Thumb Code    20  tasks.o(i.prvTaskCheckFreeStackSpace)
    i.prvTaskExitError                       0x080054dc   Section        0  port.o(i.prvTaskExitError)
    prvTaskExitError                         0x080054dd   Thumb Code    36  port.o(i.prvTaskExitError)
    i.prvTestWaitCondition                   0x08005504   Section        0  event_groups.o(i.prvTestWaitCondition)
    prvTestWaitCondition                     0x08005505   Thumb Code    20  event_groups.o(i.prvTestWaitCondition)
    i.prvTimerTask                           0x08005518   Section        0  timers.o(i.prvTimerTask)
    prvTimerTask                             0x08005519   Thumb Code    32  timers.o(i.prvTimerTask)
    i.prvUnlockQueue                         0x0800553c   Section        0  queue.o(i.prvUnlockQueue)
    prvUnlockQueue                           0x0800553d   Thumb Code   120  queue.o(i.prvUnlockQueue)
    i.pvPortMalloc                           0x080055b4   Section        0  heap_4.o(i.pvPortMalloc)
    i.pvTaskIncrementMutexHeldCount          0x0800568c   Section        0  tasks.o(i.pvTaskIncrementMutexHeldCount)
    i.pxPortInitialiseStack                  0x080056a4   Section        0  port.o(i.pxPortInitialiseStack)
    i.readPixels                             0x080056c8   Section        0  draw.o(i.readPixels)
    readPixels                               0x080056c9   Thumb Code    12  draw.o(i.readPixels)
    i.setBuffByte                            0x080056d4   Section        0  draw.o(i.setBuffByte)
    setBuffByte                              0x080056d5   Thumb Code    20  draw.o(i.setBuffByte)
    i.set_bits                               0x080056ec   Section        0  draw.o(i.set_bits)
    set_bits                                 0x080056ed   Thumb Code    22  draw.o(i.set_bits)
    i.system_get_ns                          0x08005704   Section        0  driver_timer.o(i.system_get_ns)
    i.udelay                                 0x08005748   Section        0  driver_timer.o(i.udelay)
    i.uxListRemove                           0x08005780   Section        0  list.o(i.uxListRemove)
    i.uxTaskGetStackHighWaterMark            0x080057a8   Section        0  tasks.o(i.uxTaskGetStackHighWaterMark)
    i.uxTaskResetEventItemValue              0x080057b8   Section        0  tasks.o(i.uxTaskResetEventItemValue)
    i.vApplicationGetIdleTaskMemory          0x080057d0   Section        0  cmsis_os2.o(i.vApplicationGetIdleTaskMemory)
    i.vApplicationGetTimerTaskMemory         0x080057e4   Section        0  cmsis_os2.o(i.vApplicationGetTimerTaskMemory)
    i.vEventGroupSetBitsCallback             0x080057fc   Section        0  event_groups.o(i.vEventGroupSetBitsCallback)
    i.vListInitialise                        0x08005800   Section        0  list.o(i.vListInitialise)
    i.vListInitialiseItem                    0x08005816   Section        0  list.o(i.vListInitialiseItem)
    i.vListInsert                            0x0800581c   Section        0  list.o(i.vListInsert)
    i.vListInsertEnd                         0x0800584c   Section        0  list.o(i.vListInsertEnd)
    i.vPortEnterCritical                     0x08005864   Section        0  port.o(i.vPortEnterCritical)
    i.vPortExitCritical                      0x080058a4   Section        0  port.o(i.vPortExitCritical)
    i.vPortFree                              0x080058cc   Section        0  heap_4.o(i.vPortFree)
    i.vPortSetupTimerInterrupt               0x08005928   Section        0  port.o(i.vPortSetupTimerInterrupt)
    i.vPortValidateInterruptPriority         0x0800594c   Section        0  port.o(i.vPortValidateInterruptPriority)
    i.vQueueAddToRegistry                    0x080059a0   Section        0  queue.o(i.vQueueAddToRegistry)
    i.vQueueWaitForMessageRestricted         0x080059c8   Section        0  queue.o(i.vQueueWaitForMessageRestricted)
    i.vTaskDelay                             0x08005a0c   Section        0  tasks.o(i.vTaskDelay)
    i.vTaskInternalSetTimeOutState           0x08005a58   Section        0  tasks.o(i.vTaskInternalSetTimeOutState)
    i.vTaskMissedYield                       0x08005a68   Section        0  tasks.o(i.vTaskMissedYield)
    i.vTaskPlaceOnEventList                  0x08005a74   Section        0  tasks.o(i.vTaskPlaceOnEventList)
    i.vTaskPlaceOnEventListRestricted        0x08005aa4   Section        0  tasks.o(i.vTaskPlaceOnEventListRestricted)
    i.vTaskPlaceOnUnorderedEventList         0x08005adc   Section        0  tasks.o(i.vTaskPlaceOnUnorderedEventList)
    i.vTaskPriorityDisinheritAfterTimeout    0x08005b2c   Section        0  tasks.o(i.vTaskPriorityDisinheritAfterTimeout)
    i.vTaskRemoveFromUnorderedEventList      0x08005bbc   Section        0  tasks.o(i.vTaskRemoveFromUnorderedEventList)
    i.vTaskStartScheduler                    0x08005c2c   Section        0  tasks.o(i.vTaskStartScheduler)
    i.vTaskSuspendAll                        0x08005cb4   Section        0  tasks.o(i.vTaskSuspendAll)
    i.vTaskSwitchContext                     0x08005cc4   Section        0  tasks.o(i.vTaskSwitchContext)
    i.xEventGroupCreate                      0x08005d28   Section        0  event_groups.o(i.xEventGroupCreate)
    i.xEventGroupSetBits                     0x08005d44   Section        0  event_groups.o(i.xEventGroupSetBits)
    i.xEventGroupSetBitsFromISR              0x08005dd0   Section        0  event_groups.o(i.xEventGroupSetBitsFromISR)
    i.xEventGroupWaitBits                    0x08005de0   Section        0  event_groups.o(i.xEventGroupWaitBits)
    i.xPortStartScheduler                    0x08005ee8   Section        0  port.o(i.xPortStartScheduler)
    i.xQueueAddToSet                         0x08005f90   Section        0  queue.o(i.xQueueAddToSet)
    i.xQueueCreateMutex                      0x08005fb2   Section        0  queue.o(i.xQueueCreateMutex)
    i.xQueueCreateSet                        0x08005fc8   Section        0  queue.o(i.xQueueCreateSet)
    i.xQueueGenericCreate                    0x08005fd0   Section        0  queue.o(i.xQueueGenericCreate)
    i.xQueueGenericCreateStatic              0x08006018   Section        0  queue.o(i.xQueueGenericCreateStatic)
    i.xQueueGenericReset                     0x08006080   Section        0  queue.o(i.xQueueGenericReset)
    i.xQueueGenericSend                      0x08006108   Section        0  queue.o(i.xQueueGenericSend)
    i.xQueueGenericSendFromISR               0x08006274   Section        0  queue.o(i.xQueueGenericSendFromISR)
    i.xQueueReceive                          0x08006340   Section        0  queue.o(i.xQueueReceive)
    i.xQueueSelectFromSet                    0x08006478   Section        0  queue.o(i.xQueueSelectFromSet)
    i.xQueueSemaphoreTake                    0x0800648c   Section        0  queue.o(i.xQueueSemaphoreTake)
    i.xTaskCheckForTimeOut                   0x08006604   Section        0  tasks.o(i.xTaskCheckForTimeOut)
    i.xTaskCreate                            0x08006678   Section        0  tasks.o(i.xTaskCreate)
    i.xTaskCreateStatic                      0x080066d2   Section        0  tasks.o(i.xTaskCreateStatic)
    i.xTaskGetCurrentTaskHandle              0x08006728   Section        0  tasks.o(i.xTaskGetCurrentTaskHandle)
    i.xTaskGetSchedulerState                 0x08006734   Section        0  tasks.o(i.xTaskGetSchedulerState)
    i.xTaskGetTickCount                      0x08006750   Section        0  tasks.o(i.xTaskGetTickCount)
    i.xTaskIncrementTick                     0x0800675c   Section        0  tasks.o(i.xTaskIncrementTick)
    i.xTaskPriorityDisinherit                0x08006824   Section        0  tasks.o(i.xTaskPriorityDisinherit)
    i.xTaskPriorityInherit                   0x080068a4   Section        0  tasks.o(i.xTaskPriorityInherit)
    i.xTaskRemoveFromEventList               0x0800691c   Section        0  tasks.o(i.xTaskRemoveFromEventList)
    i.xTaskResumeAll                         0x0800698c   Section        0  tasks.o(i.xTaskResumeAll)
    i.xTimerCreate                           0x08006a50   Section        0  timers.o(i.xTimerCreate)
    i.xTimerCreateTimerTask                  0x08006a84   Section        0  timers.o(i.xTimerCreateTimerTask)
    i.xTimerGenericCommand                   0x08006ae4   Section        0  timers.o(i.xTimerGenericCommand)
    i.xTimerPendFunctionCallFromISR          0x08006b4c   Section        0  timers.o(i.xTimerPendFunctionCallFromISR)
    .constdata                               0x08006b74   Section       18  stm32f1xx_hal_rcc.o(.constdata)
    aPredivFactorTable                       0x08006b74   Data           2  stm32f1xx_hal_rcc.o(.constdata)
    aPLLMULFactorTable                       0x08006b76   Data          16  stm32f1xx_hal_rcc.o(.constdata)
    .constdata                               0x08006b86   Section       16  system_stm32f1xx.o(.constdata)
    .constdata                               0x08006b96   Section        8  system_stm32f1xx.o(.constdata)
    .constdata                               0x08006b9e   Section     2048  driver_oled.o(.constdata)
    .constdata                               0x0800739e   Section       29  game1.o(.constdata)
    ballImg                                  0x0800739e   Data           2  game1.o(.constdata)
    block                                    0x080073a0   Data           3  game1.o(.constdata)
    platform                                 0x080073a3   Data          12  game1.o(.constdata)
    clearImg                                 0x080073af   Data          12  game1.o(.constdata)
    .constdata                               0x080073bb   Section        7  resources.o(.constdata)
    .constdata                               0x080073c2   Section      485  resources.o(.constdata)
    .data                                    0x20000000   Section       12  freertos.o(.data)
    xLightTaskHandle                         0x20000000   Data           4  freertos.o(.data)
    xColorTaskHandle                         0x20000004   Data           4  freertos.o(.data)
    g_xI2CMutex                              0x20000008   Data           4  freertos.o(.data)
    .data                                    0x2000000c   Section       12  stm32f1xx_hal.o(.data)
    .data                                    0x20000018   Section        4  system_stm32f1xx.o(.data)
    .data                                    0x2000001c   Section       60  tasks.o(.data)
    pxDelayedTaskList                        0x20000020   Data           4  tasks.o(.data)
    pxOverflowDelayedTaskList                0x20000024   Data           4  tasks.o(.data)
    uxDeletedTasksWaitingCleanUp             0x20000028   Data           4  tasks.o(.data)
    uxCurrentNumberOfTasks                   0x2000002c   Data           4  tasks.o(.data)
    xTickCount                               0x20000030   Data           4  tasks.o(.data)
    uxTopReadyPriority                       0x20000034   Data           4  tasks.o(.data)
    xSchedulerRunning                        0x20000038   Data           4  tasks.o(.data)
    uxPendedTicks                            0x2000003c   Data           4  tasks.o(.data)
    xYieldPending                            0x20000040   Data           4  tasks.o(.data)
    xNumOfOverflows                          0x20000044   Data           4  tasks.o(.data)
    uxTaskNumber                             0x20000048   Data           4  tasks.o(.data)
    xNextTaskUnblockTime                     0x2000004c   Data           4  tasks.o(.data)
    xIdleTaskHandle                          0x20000050   Data           4  tasks.o(.data)
    uxSchedulerSuspended                     0x20000054   Data           4  tasks.o(.data)
    .data                                    0x20000058   Section       20  timers.o(.data)
    pxCurrentTimerList                       0x20000058   Data           4  timers.o(.data)
    pxOverflowTimerList                      0x2000005c   Data           4  timers.o(.data)
    xTimerQueue                              0x20000060   Data           4  timers.o(.data)
    xTimerTaskHandle                         0x20000064   Data           4  timers.o(.data)
    xLastTime                                0x20000068   Data           4  timers.o(.data)
    .data                                    0x2000006c   Section        4  cmsis_os2.o(.data)
    KernelState                              0x2000006c   Data           4  cmsis_os2.o(.data)
    .data                                    0x20000070   Section       24  heap_4.o(.data)
    pxEnd                                    0x20000070   Data           4  heap_4.o(.data)
    xFreeBytesRemaining                      0x20000074   Data           4  heap_4.o(.data)
    xMinimumEverFreeBytesRemaining           0x20000078   Data           4  heap_4.o(.data)
    xBlockAllocatedBit                       0x2000007c   Data           4  heap_4.o(.data)
    xStart                                   0x20000080   Data           8  heap_4.o(.data)
    .data                                    0x20000088   Section       12  port.o(.data)
    ucMaxSysCallPriority                     0x20000088   Data           1  port.o(.data)
    uxCriticalNesting                        0x2000008c   Data           4  port.o(.data)
    ulMaxPRIGROUPValue                       0x20000090   Data           4  port.o(.data)
    .data                                    0x20000094   Section        8  driver_oled.o(.data)
    mem_mode                                 0x20000094   Data           1  driver_oled.o(.data)
    g_pHI2COLED                              0x20000098   Data           4  driver_oled.o(.data)
    .data                                    0x2000009c   Section       12  driver_mpu6050.o(.data)
    g_pHI2C_MPU6050                          0x2000009c   Data           4  driver_mpu6050.o(.data)
    g_xEventMPU6050                          0x200000a0   Data           4  driver_mpu6050.o(.data)
    g_xQueueMPU6050                          0x200000a4   Data           4  driver_mpu6050.o(.data)
    .data                                    0x200000a8   Section        4  driver_passive_buzzer.o(.data)
    g_HPWM_PassiveBuzzer                     0x200000a8   Data           4  driver_passive_buzzer.o(.data)
    .data                                    0x200000ac   Section        4  driver_color_led.o(.data)
    g_HPWM_ColorLED                          0x200000ac   Data           4  driver_color_led.o(.data)
    .data                                    0x200000b0   Section       32  driver_ir_receiver.o(.data)
    g_IRReceiverIRQ_Cnt                      0x200000b0   Data           4  driver_ir_receiver.o(.data)
    g_queue_cnt                              0x200000b4   Data           4  driver_ir_receiver.o(.data)
    g_KeysBuf_R                              0x200000b8   Data           4  driver_ir_receiver.o(.data)
    g_KeysBuf_W                              0x200000bc   Data           4  driver_ir_receiver.o(.data)
    g_xQueueIR                               0x200000c0   Data           4  driver_ir_receiver.o(.data)
    pre_time                                 0x200000c8   Data           8  driver_ir_receiver.o(.data)
    .data                                    0x200000d0   Section       24  driver_rotary_encoder.o(.data)
    g_count                                  0x200000d0   Data           4  driver_rotary_encoder.o(.data)
    g_speed                                  0x200000d4   Data           4  driver_rotary_encoder.o(.data)
    pre_count                                0x200000d8   Data           4  driver_rotary_encoder.o(.data)
    g_xQueueRotary                           0x200000dc   Data           4  driver_rotary_encoder.o(.data)
    pre_time                                 0x200000e0   Data           8  driver_rotary_encoder.o(.data)
    .data                                    0x200000e8   Section        4  driver_uart.o(.data)
    g_HDebugUART                             0x200000e8   Data           4  driver_uart.o(.data)
    .data                                    0x200000ec   Section       16  draw.o(.data)
    oledBuffer                               0x200000ec   Data           4  draw.o(.data)
    g_xres                                   0x200000f0   Data           4  draw.o(.data)
    g_yres                                   0x200000f4   Data           4  draw.o(.data)
    g_bpp                                    0x200000f8   Data           4  draw.o(.data)
    .data                                    0x200000fc   Section       76  game1.o(.data)
    first                                    0x200000fc   Data           1  game1.o(.data)
    uptMove                                  0x200000fd   Data           1  game1.o(.data)
    lives                                    0x200000fe   Data           1  game1.o(.data)
    lives_origin                             0x200000ff   Data           1  game1.o(.data)
    platformX                                0x20000100   Data           1  game1.o(.data)
    score                                    0x20000102   Data           2  game1.o(.data)
    blocks                                   0x20000104   Data           4  game1.o(.data)
    g_xres                                   0x20000108   Data           4  game1.o(.data)
    g_yres                                   0x2000010c   Data           4  game1.o(.data)
    g_bpp                                    0x20000110   Data           4  game1.o(.data)
    g_framebuffer                            0x20000114   Data           4  game1.o(.data)
    g_xQueueSetInput                         0x20000118   Data           4  game1.o(.data)
    g_xQueuePlatform                         0x2000011c   Data           4  game1.o(.data)
    g_xQueueIR                               0x20000120   Data           4  game1.o(.data)
    g_xQueueRotary                           0x20000124   Data           4  game1.o(.data)
    g_xQueueMPU6050                          0x20000128   Data           4  game1.o(.data)
    g_TimerDHT11                             0x2000012c   Data           4  game1.o(.data)
    inputdata                                0x20000130   Data           8  game1.o(.data)
    idata                                    0x20000138   Data           8  game1.o(.data)
    idata                                    0x20000140   Data           8  game1.o(.data)
    .data                                    0x20000148   Section        4  beep.o(.data)
    g_TimerSound                             0x20000148   Data           4  beep.o(.data)
    .data                                    0x2000014c   Section        4  rand.o(.data)
    _rand_state                              0x2000014c   Data           4  rand.o(.data)
    .data                                    0x20000150   Section        4  stdout.o(.data)
    .data                                    0x20000154   Section        4  mvars.o(.data)
    .data                                    0x20000158   Section        4  mvars.o(.data)
    .bss                                     0x2000015c   Section     1016  freertos.o(.bss)
    g_pucStackOfLightTask                    0x2000015c   Data         320  freertos.o(.bss)
    g_TCBofLightTask                         0x2000029c   Data          92  freertos.o(.bss)
    g_pucStackOfColorTask                    0x200002f8   Data         512  freertos.o(.bss)
    g_TCBofColorTask                         0x200004f8   Data          92  freertos.o(.bss)
    .bss                                     0x20000554   Section       48  adc.o(.bss)
    .bss                                     0x20000584   Section       84  i2c.o(.bss)
    .bss                                     0x200005d8   Section       88  spi.o(.bss)
    .bss                                     0x20000630   Section      216  tim.o(.bss)
    .bss                                     0x20000708   Section       72  usart.o(.bss)
    .bss                                     0x20000750   Section      752  usb.o(.bss)
    .bss                                     0x20000a40   Section       72  stm32f1xx_hal_timebase_tim.o(.bss)
    .bss                                     0x20000a88   Section       64  queue.o(.bss)
    .bss                                     0x20000ac8   Section     1220  tasks.o(.bss)
    pxReadyTasksLists                        0x20000ac8   Data        1120  tasks.o(.bss)
    xDelayedTaskList1                        0x20000f28   Data          20  tasks.o(.bss)
    xDelayedTaskList2                        0x20000f3c   Data          20  tasks.o(.bss)
    xPendingReadyList                        0x20000f50   Data          20  tasks.o(.bss)
    xTasksWaitingTermination                 0x20000f64   Data          20  tasks.o(.bss)
    xSuspendedTaskList                       0x20000f78   Data          20  tasks.o(.bss)
    .bss                                     0x20000f8c   Section      284  timers.o(.bss)
    xActiveTimerList1                        0x20000f8c   Data          20  timers.o(.bss)
    xActiveTimerList2                        0x20000fa0   Data          20  timers.o(.bss)
    xStaticTimerQueue                        0x20000fb4   Data          84  timers.o(.bss)
    ucStaticTimerQueueStorage                0x20001008   Data         160  timers.o(.bss)
    .bss                                     0x200010a8   Section     1720  cmsis_os2.o(.bss)
    Idle_TCB                                 0x200010a8   Data          92  cmsis_os2.o(.bss)
    Idle_Stack                               0x20001104   Data         512  cmsis_os2.o(.bss)
    Timer_TCB                                0x20001304   Data          92  cmsis_os2.o(.bss)
    Timer_Stack                              0x20001360   Data        1024  cmsis_os2.o(.bss)
    .bss                                     0x20001760   Section     8000  heap_4.o(.bss)
    ucHeap                                   0x20001760   Data        8000  heap_4.o(.bss)
    .bss                                     0x200036a0   Section     1024  driver_oled.o(.bss)
    oledBuffer                               0x200036a0   Data        1024  driver_oled.o(.bss)
    .bss                                     0x20003aa0   Section      712  driver_ir_receiver.o(.bss)
    g_KeysBuf                                0x20003aa0   Data         128  driver_ir_receiver.o(.bss)
    g_IRReceiverIRQ_Timers                   0x20003b20   Data         544  driver_ir_receiver.o(.bss)
    g_xQueues                                0x20003d40   Data          40  driver_ir_receiver.o(.bss)
    .bss                                     0x20003d68   Section      164  driver_rotary_encoder.o(.bss)
    g_ucQueueRotaryBuf                       0x20003d68   Data          80  driver_rotary_encoder.o(.bss)
    g_xQueueRotaryStaticStruct               0x20003db8   Data          84  driver_rotary_encoder.o(.bss)
    .bss                                     0x20003e0c   Section       16  game1.o(.bss)
    ball                                     0x20003e0c   Data          16  game1.o(.bss)
    HEAP                                     0x20003e20   Section      512  startup_stm32f103xb.o(HEAP)
    STACK                                    0x20004020   Section     1024  startup_stm32f103xb.o(STACK)

    Global Symbols

    Symbol Name                              Value     Ov Type        Size  Object(Section)

    BuildAttributes$$THM_ISAv4$P$D$K$B$S$PE$A:L22UL41UL21$X:L11$S22US41US21$IEEE1$IW$USESV6$~STKCKD$USESV7$~SHL$OTIME$ROPI$EBA8$MICROLIB$REQ8$PRES8$EABIv2 0x00000000   Number         0  anon$$obj.o ABSOLUTE
    __ARM_use_no_argv                        0x00000000   Number         0  main.o ABSOLUTE
    _printf_a                                0x00000000   Number         0  stubs.o ABSOLUTE
    _printf_c                                0x00000000   Number         0  stubs.o ABSOLUTE
    _printf_charcount                        0x00000000   Number         0  stubs.o ABSOLUTE
    _printf_d                                0x00000000   Number         0  stubs.o ABSOLUTE
    _printf_e                                0x00000000   Number         0  stubs.o ABSOLUTE
    _printf_f                                0x00000000   Number         0  stubs.o ABSOLUTE
    _printf_flags                            0x00000000   Number         0  stubs.o ABSOLUTE
    _printf_fp_dec                           0x00000000   Number         0  stubs.o ABSOLUTE
    _printf_fp_hex                           0x00000000   Number         0  stubs.o ABSOLUTE
    _printf_g                                0x00000000   Number         0  stubs.o ABSOLUTE
    _printf_i                                0x00000000   Number         0  stubs.o ABSOLUTE
    _printf_int_dec                          0x00000000   Number         0  stubs.o ABSOLUTE
    _printf_l                                0x00000000   Number         0  stubs.o ABSOLUTE
    _printf_lc                               0x00000000   Number         0  stubs.o ABSOLUTE
    _printf_ll                               0x00000000   Number         0  stubs.o ABSOLUTE
    _printf_lld                              0x00000000   Number         0  stubs.o ABSOLUTE
    _printf_lli                              0x00000000   Number         0  stubs.o ABSOLUTE
    _printf_llo                              0x00000000   Number         0  stubs.o ABSOLUTE
    _printf_llu                              0x00000000   Number         0  stubs.o ABSOLUTE
    _printf_llx                              0x00000000   Number         0  stubs.o ABSOLUTE
    _printf_longlong_dec                     0x00000000   Number         0  stubs.o ABSOLUTE
    _printf_longlong_hex                     0x00000000   Number         0  stubs.o ABSOLUTE
    _printf_longlong_oct                     0x00000000   Number         0  stubs.o ABSOLUTE
    _printf_ls                               0x00000000   Number         0  stubs.o ABSOLUTE
    _printf_mbtowc                           0x00000000   Number         0  stubs.o ABSOLUTE
    _printf_n                                0x00000000   Number         0  stubs.o ABSOLUTE
    _printf_o                                0x00000000   Number         0  stubs.o ABSOLUTE
    _printf_p                                0x00000000   Number         0  stubs.o ABSOLUTE
    _printf_percent                          0x00000000   Number         0  stubs.o ABSOLUTE
    _printf_pre_padding                      0x00000000   Number         0  stubs.o ABSOLUTE
    _printf_return_value                     0x00000000   Number         0  stubs.o ABSOLUTE
    _printf_s                                0x00000000   Number         0  stubs.o ABSOLUTE
    _printf_sizespec                         0x00000000   Number         0  stubs.o ABSOLUTE
    _printf_str                              0x00000000   Number         0  stubs.o ABSOLUTE
    _printf_truncate_signed                  0x00000000   Number         0  stubs.o ABSOLUTE
    _printf_truncate_unsigned                0x00000000   Number         0  stubs.o ABSOLUTE
    _printf_u                                0x00000000   Number         0  stubs.o ABSOLUTE
    _printf_wc                               0x00000000   Number         0  stubs.o ABSOLUTE
    _printf_wctomb                           0x00000000   Number         0  stubs.o ABSOLUTE
    _printf_widthprec                        0x00000000   Number         0  stubs.o ABSOLUTE
    _printf_x                                0x00000000   Number         0  stubs.o ABSOLUTE
    __cpp_initialize__aeabi_                  - Undefined Weak Reference
    __cxa_finalize                            - Undefined Weak Reference
    _clock_init                               - Undefined Weak Reference
    _microlib_exit                            - Undefined Weak Reference
    __Vectors_Size                           0x000000ec   Number         0  startup_stm32f103xb.o ABSOLUTE
    __Vectors                                0x08000000   Data           4  startup_stm32f103xb.o(RESET)
    __Vectors_End                            0x080000ec   Data           0  startup_stm32f103xb.o(RESET)
    __main                                   0x080000ed   Thumb Code     0  entry.o(.ARM.Collect$$$$00000000)
    _main_stk                                0x080000ed   Thumb Code     0  entry2.o(.ARM.Collect$$$$00000001)
    _main_scatterload                        0x080000f1   Thumb Code     0  entry5.o(.ARM.Collect$$$$00000004)
    __main_after_scatterload                 0x080000f5   Thumb Code     0  entry5.o(.ARM.Collect$$$$00000004)
    _main_clock                              0x080000f5   Thumb Code     0  entry7b.o(.ARM.Collect$$$$00000008)
    _main_cpp_init                           0x080000f5   Thumb Code     0  entry8b.o(.ARM.Collect$$$$0000000A)
    _main_init                               0x080000f5   Thumb Code     0  entry9a.o(.ARM.Collect$$$$0000000B)
    __rt_final_cpp                           0x080000fd   Thumb Code     0  entry10a.o(.ARM.Collect$$$$0000000D)
    __rt_final_exit                          0x080000fd   Thumb Code     0  entry11a.o(.ARM.Collect$$$$0000000F)
    SVC_Handler                              0x08000101   Thumb Code    32  port.o(.emb_text)
    __asm___6_port_c_39a90d8d__prvStartFirstTask 0x08000125   Thumb Code    28  port.o(.emb_text)
    PendSV_Handler                           0x08000145   Thumb Code    72  port.o(.emb_text)
    vPortGetIPSR                             0x08000191   Thumb Code     6  port.o(.emb_text)
    Reset_Handler                            0x08000199   Thumb Code     8  startup_stm32f103xb.o(.text)
    ADC1_2_IRQHandler                        0x080001b3   Thumb Code     0  startup_stm32f103xb.o(.text)
    CAN1_RX1_IRQHandler                      0x080001b3   Thumb Code     0  startup_stm32f103xb.o(.text)
    CAN1_SCE_IRQHandler                      0x080001b3   Thumb Code     0  startup_stm32f103xb.o(.text)
    DMA1_Channel1_IRQHandler                 0x080001b3   Thumb Code     0  startup_stm32f103xb.o(.text)
    DMA1_Channel2_IRQHandler                 0x080001b3   Thumb Code     0  startup_stm32f103xb.o(.text)
    DMA1_Channel3_IRQHandler                 0x080001b3   Thumb Code     0  startup_stm32f103xb.o(.text)
    DMA1_Channel4_IRQHandler                 0x080001b3   Thumb Code     0  startup_stm32f103xb.o(.text)
    DMA1_Channel5_IRQHandler                 0x080001b3   Thumb Code     0  startup_stm32f103xb.o(.text)
    DMA1_Channel6_IRQHandler                 0x080001b3   Thumb Code     0  startup_stm32f103xb.o(.text)
    DMA1_Channel7_IRQHandler                 0x080001b3   Thumb Code     0  startup_stm32f103xb.o(.text)
    EXTI0_IRQHandler                         0x080001b3   Thumb Code     0  startup_stm32f103xb.o(.text)
    EXTI1_IRQHandler                         0x080001b3   Thumb Code     0  startup_stm32f103xb.o(.text)
    EXTI2_IRQHandler                         0x080001b3   Thumb Code     0  startup_stm32f103xb.o(.text)
    EXTI3_IRQHandler                         0x080001b3   Thumb Code     0  startup_stm32f103xb.o(.text)
    EXTI4_IRQHandler                         0x080001b3   Thumb Code     0  startup_stm32f103xb.o(.text)
    FLASH_IRQHandler                         0x080001b3   Thumb Code     0  startup_stm32f103xb.o(.text)
    I2C1_ER_IRQHandler                       0x080001b3   Thumb Code     0  startup_stm32f103xb.o(.text)
    I2C1_EV_IRQHandler                       0x080001b3   Thumb Code     0  startup_stm32f103xb.o(.text)
    I2C2_ER_IRQHandler                       0x080001b3   Thumb Code     0  startup_stm32f103xb.o(.text)
    I2C2_EV_IRQHandler                       0x080001b3   Thumb Code     0  startup_stm32f103xb.o(.text)
    PVD_IRQHandler                           0x080001b3   Thumb Code     0  startup_stm32f103xb.o(.text)
    RCC_IRQHandler                           0x080001b3   Thumb Code     0  startup_stm32f103xb.o(.text)
    RTC_Alarm_IRQHandler                     0x080001b3   Thumb Code     0  startup_stm32f103xb.o(.text)
    RTC_IRQHandler                           0x080001b3   Thumb Code     0  startup_stm32f103xb.o(.text)
    SPI1_IRQHandler                          0x080001b3   Thumb Code     0  startup_stm32f103xb.o(.text)
    SPI2_IRQHandler                          0x080001b3   Thumb Code     0  startup_stm32f103xb.o(.text)
    TAMPER_IRQHandler                        0x080001b3   Thumb Code     0  startup_stm32f103xb.o(.text)
    TIM1_BRK_IRQHandler                      0x080001b3   Thumb Code     0  startup_stm32f103xb.o(.text)
    TIM1_CC_IRQHandler                       0x080001b3   Thumb Code     0  startup_stm32f103xb.o(.text)
    TIM1_TRG_COM_IRQHandler                  0x080001b3   Thumb Code     0  startup_stm32f103xb.o(.text)
    TIM1_UP_IRQHandler                       0x080001b3   Thumb Code     0  startup_stm32f103xb.o(.text)
    TIM2_IRQHandler                          0x080001b3   Thumb Code     0  startup_stm32f103xb.o(.text)
    TIM3_IRQHandler                          0x080001b3   Thumb Code     0  startup_stm32f103xb.o(.text)
    USART1_IRQHandler                        0x080001b3   Thumb Code     0  startup_stm32f103xb.o(.text)
    USART2_IRQHandler                        0x080001b3   Thumb Code     0  startup_stm32f103xb.o(.text)
    USART3_IRQHandler                        0x080001b3   Thumb Code     0  startup_stm32f103xb.o(.text)
    USBWakeUp_IRQHandler                     0x080001b3   Thumb Code     0  startup_stm32f103xb.o(.text)
    USB_HP_CAN1_TX_IRQHandler                0x080001b3   Thumb Code     0  startup_stm32f103xb.o(.text)
    USB_LP_CAN1_RX0_IRQHandler               0x080001b3   Thumb Code     0  startup_stm32f103xb.o(.text)
    WWDG_IRQHandler                          0x080001b3   Thumb Code     0  startup_stm32f103xb.o(.text)
    __aeabi_uldivmod                         0x080001bd   Thumb Code    98  uldiv.o(.text)
    __aeabi_llsr                             0x0800021f   Thumb Code    32  llushr.o(.text)
    _ll_ushift_r                             0x0800021f   Thumb Code     0  llushr.o(.text)
    rand                                     0x08000241   Thumb Code    20  rand.o(.text)
    srand                                    0x08000255   Thumb Code     6  rand.o(.text)
    __aeabi_memcpy                           0x08000265   Thumb Code    36  memcpya.o(.text)
    __aeabi_memcpy4                          0x08000265   Thumb Code     0  memcpya.o(.text)
    __aeabi_memcpy8                          0x08000265   Thumb Code     0  memcpya.o(.text)
    __aeabi_memset                           0x08000289   Thumb Code    14  memseta.o(.text)
    __aeabi_memset4                          0x08000289   Thumb Code     0  memseta.o(.text)
    __aeabi_memset8                          0x08000289   Thumb Code     0  memseta.o(.text)
    __aeabi_memclr                           0x08000297   Thumb Code     4  memseta.o(.text)
    __aeabi_memclr4                          0x08000297   Thumb Code     0  memseta.o(.text)
    __aeabi_memclr8                          0x08000297   Thumb Code     0  memseta.o(.text)
    memset                                   0x0800029b   Thumb Code    18  memseta.o(.text)
    strlen                                   0x080002ad   Thumb Code    14  strlen.o(.text)
    strcpy                                   0x080002bb   Thumb Code    18  strcpy.o(.text)
    __aeabi_fadd                             0x080002cd   Thumb Code   164  fadd.o(.text)
    __aeabi_fsub                             0x08000371   Thumb Code     6  fadd.o(.text)
    __aeabi_frsub                            0x08000377   Thumb Code     6  fadd.o(.text)
    __ARM_scalbnf                            0x0800037d   Thumb Code    24  fscalb.o(.text)
    scalbnf                                  0x0800037d   Thumb Code     0  fscalb.o(.text)
    __aeabi_i2f                              0x08000395   Thumb Code    18  fflti.o(.text)
    __aeabi_ui2f                             0x080003a7   Thumb Code    10  ffltui.o(.text)
    __aeabi_f2uiz                            0x080003b1   Thumb Code    40  ffixui.o(.text)
    __aeabi_cfcmpeq                          0x080003d9   Thumb Code     0  cfcmple.o(.text)
    __aeabi_cfcmple                          0x080003d9   Thumb Code    20  cfcmple.o(.text)
    __aeabi_cfrcmple                         0x080003ed   Thumb Code    20  cfrcmple.o(.text)
    __aeabi_uidiv                            0x08000401   Thumb Code     0  uidiv.o(.text)
    __aeabi_uidivmod                         0x08000401   Thumb Code    44  uidiv.o(.text)
    __aeabi_llsl                             0x0800042d   Thumb Code    30  llshl.o(.text)
    _ll_shift_l                              0x0800042d   Thumb Code     0  llshl.o(.text)
    __I$use$fp                               0x0800044b   Thumb Code     0  iusefp.o(.text)
    _float_round                             0x0800044b   Thumb Code    18  fepilogue.o(.text)
    _float_epilogue                          0x0800045d   Thumb Code    92  fepilogue.o(.text)
    __scatterload                            0x080004b9   Thumb Code    28  init.o(.text)
    __scatterload_rt2                        0x080004b9   Thumb Code     0  init.o(.text)
    __decompress                             0x080004dd   Thumb Code     0  __dczerorl2.o(.text)
    __decompress1                            0x080004dd   Thumb Code    86  __dczerorl2.o(.text)
    ADC_ConversionStop_Disable               0x08000535   Thumb Code    86  stm32f1xx_hal_adc.o(i.ADC_ConversionStop_Disable)
    BusFault_Handler                         0x0800058b   Thumb Code     2  stm32f1xx_it.o(i.BusFault_Handler)
    ColorLED_Set                             0x0800058d   Thumb Code   158  driver_color_led.o(i.ColorLED_Set)
    ColorLED_Test                            0x08000631   Thumb Code    32  driver_color_led.o(i.ColorLED_Test)
    DHT11_Init                               0x080006ad   Thumb Code     6  driver_dht11.o(i.DHT11_Init)
    DHT11_Read                               0x080006e5   Thumb Code   138  driver_dht11.o(i.DHT11_Read)
    DebugMon_Handler                         0x080007df   Thumb Code     2  stm32f1xx_it.o(i.DebugMon_Handler)
    DispatchKey                              0x080007e1   Thumb Code    62  driver_ir_receiver.o(i.DispatchKey)
    EXTI15_10_IRQHandler                     0x0800082d   Thumb Code    30  stm32f1xx_it.o(i.EXTI15_10_IRQHandler)
    EXTI9_5_IRQHandler                       0x0800084b   Thumb Code     6  stm32f1xx_it.o(i.EXTI9_5_IRQHandler)
    Error_Handler                            0x08000851   Thumb Code     4  main.o(i.Error_Handler)
    GameSoundTimer_func                      0x08000855   Thumb Code     6  beep.o(i.GameSoundTimer_func)
    GetI2C                                   0x0800085d   Thumb Code    12  freertos.o(i.GetI2C)
    GetQueueIR                               0x0800086d   Thumb Code     6  driver_ir_receiver.o(i.GetQueueIR)
    GetQueueMPU6050                          0x08000879   Thumb Code     6  driver_mpu6050.o(i.GetQueueMPU6050)
    GetQueueRotary                           0x08000885   Thumb Code     6  driver_rotary_encoder.o(i.GetQueueRotary)
    HAL_ADC_ConfigChannel                    0x08000891   Thumb Code   240  stm32f1xx_hal_adc.o(i.HAL_ADC_ConfigChannel)
    HAL_ADC_Init                             0x0800098d   Thumb Code   272  stm32f1xx_hal_adc.o(i.HAL_ADC_Init)
    HAL_ADC_MspInit                          0x08000aa9   Thumb Code    76  adc.o(i.HAL_ADC_MspInit)
    HAL_GPIO_EXTI_Callback                   0x08000b01   Thumb Code    30  driver_irq.o(i.HAL_GPIO_EXTI_Callback)
    HAL_GPIO_EXTI_IRQHandler                 0x08000b21   Thumb Code    18  stm32f1xx_hal_gpio.o(i.HAL_GPIO_EXTI_IRQHandler)
    HAL_GPIO_Init                            0x08000b39   Thumb Code   446  stm32f1xx_hal_gpio.o(i.HAL_GPIO_Init)
    HAL_GPIO_ReadPin                         0x08000d19   Thumb Code    10  stm32f1xx_hal_gpio.o(i.HAL_GPIO_ReadPin)
    HAL_GPIO_WritePin                        0x08000d23   Thumb Code    10  stm32f1xx_hal_gpio.o(i.HAL_GPIO_WritePin)
    HAL_GetTick                              0x08000d2d   Thumb Code     6  stm32f1xx_hal.o(i.HAL_GetTick)
    HAL_I2C_Init                             0x08000d39   Thumb Code   376  stm32f1xx_hal_i2c.o(i.HAL_I2C_Init)
    HAL_I2C_Master_Transmit                  0x08000ec1   Thumb Code   290  stm32f1xx_hal_i2c.o(i.HAL_I2C_Master_Transmit)
    HAL_I2C_Mem_Read                         0x08000fed   Thumb Code   574  stm32f1xx_hal_i2c.o(i.HAL_I2C_Mem_Read)
    HAL_I2C_Mem_Write                        0x0800123d   Thumb Code   294  stm32f1xx_hal_i2c.o(i.HAL_I2C_Mem_Write)
    HAL_I2C_MspInit                          0x0800136d   Thumb Code    80  i2c.o(i.HAL_I2C_MspInit)
    HAL_IncTick                              0x080013c9   Thumb Code    12  stm32f1xx_hal.o(i.HAL_IncTick)
    HAL_Init                                 0x080013d9   Thumb Code    32  stm32f1xx_hal.o(i.HAL_Init)
    HAL_InitTick                             0x080013fd   Thumb Code   132  stm32f1xx_hal_timebase_tim.o(i.HAL_InitTick)
    HAL_MspInit                              0x08001495   Thumb Code    62  stm32f1xx_hal_msp.o(i.HAL_MspInit)
    HAL_NVIC_EnableIRQ                       0x080014dd   Thumb Code    26  stm32f1xx_hal_cortex.o(i.HAL_NVIC_EnableIRQ)
    HAL_NVIC_SetPriority                     0x080014f9   Thumb Code    60  stm32f1xx_hal_cortex.o(i.HAL_NVIC_SetPriority)
    HAL_NVIC_SetPriorityGrouping             0x08001539   Thumb Code    26  stm32f1xx_hal_cortex.o(i.HAL_NVIC_SetPriorityGrouping)
    HAL_PCD_Init                             0x0800155d   Thumb Code   218  stm32f1xx_hal_pcd.o(i.HAL_PCD_Init)
    HAL_PCD_MspInit                          0x08001639   Thumb Code    30  usb.o(i.HAL_PCD_MspInit)
    HAL_RCCEx_PeriphCLKConfig                0x08001661   Thumb Code   224  stm32f1xx_hal_rcc_ex.o(i.HAL_RCCEx_PeriphCLKConfig)
    HAL_RCC_ClockConfig                      0x0800174d   Thumb Code   280  stm32f1xx_hal_rcc.o(i.HAL_RCC_ClockConfig)
    HAL_RCC_GetClockConfig                   0x08001879   Thumb Code    54  stm32f1xx_hal_rcc.o(i.HAL_RCC_GetClockConfig)
    HAL_RCC_GetPCLK1Freq                     0x080018b9   Thumb Code    20  stm32f1xx_hal_rcc.o(i.HAL_RCC_GetPCLK1Freq)
    HAL_RCC_GetPCLK2Freq                     0x080018d9   Thumb Code    20  stm32f1xx_hal_rcc.o(i.HAL_RCC_GetPCLK2Freq)
    HAL_RCC_GetSysClockFreq                  0x080018f9   Thumb Code    58  stm32f1xx_hal_rcc.o(i.HAL_RCC_GetSysClockFreq)
    HAL_RCC_OscConfig                        0x08001945   Thumb Code   778  stm32f1xx_hal_rcc.o(i.HAL_RCC_OscConfig)
    HAL_SPI_Init                             0x08001c65   Thumb Code   178  stm32f1xx_hal_spi.o(i.HAL_SPI_Init)
    HAL_SPI_MspInit                          0x08001d19   Thumb Code    98  spi.o(i.HAL_SPI_MspInit)
    HAL_TIMEx_BreakCallback                  0x08001d89   Thumb Code     2  stm32f1xx_hal_tim_ex.o(i.HAL_TIMEx_BreakCallback)
    HAL_TIMEx_CommutCallback                 0x08001d8b   Thumb Code     2  stm32f1xx_hal_tim_ex.o(i.HAL_TIMEx_CommutCallback)
    HAL_TIMEx_ConfigBreakDeadTime            0x08001d8d   Thumb Code    84  stm32f1xx_hal_tim_ex.o(i.HAL_TIMEx_ConfigBreakDeadTime)
    HAL_TIMEx_MasterConfigSynchronization    0x08001de1   Thumb Code    92  stm32f1xx_hal_tim_ex.o(i.HAL_TIMEx_MasterConfigSynchronization)
    HAL_TIM_Base_DeInit                      0x08001e49   Thumb Code    92  stm32f1xx_hal_tim.o(i.HAL_TIM_Base_DeInit)
    HAL_TIM_Base_Init                        0x08001ea5   Thumb Code    90  stm32f1xx_hal_tim.o(i.HAL_TIM_Base_Init)
    HAL_TIM_Base_MspDeInit                   0x08001f01   Thumb Code    36  tim.o(i.HAL_TIM_Base_MspDeInit)
    HAL_TIM_Base_MspInit                     0x08001f2d   Thumb Code    52  tim.o(i.HAL_TIM_Base_MspInit)
    HAL_TIM_Base_Start_IT                    0x08001f69   Thumb Code    76  stm32f1xx_hal_tim.o(i.HAL_TIM_Base_Start_IT)
    HAL_TIM_ConfigClockSource                0x08001fc1   Thumb Code   220  stm32f1xx_hal_tim.o(i.HAL_TIM_ConfigClockSource)
    HAL_TIM_IC_CaptureCallback               0x0800209d   Thumb Code     2  stm32f1xx_hal_tim.o(i.HAL_TIM_IC_CaptureCallback)
    HAL_TIM_IRQHandler                       0x0800209f   Thumb Code   358  stm32f1xx_hal_tim.o(i.HAL_TIM_IRQHandler)
    HAL_TIM_MspPostInit                      0x08002205   Thumb Code   212  tim.o(i.HAL_TIM_MspPostInit)
    HAL_TIM_OC_DelayElapsedCallback          0x080022f1   Thumb Code     2  stm32f1xx_hal_tim.o(i.HAL_TIM_OC_DelayElapsedCallback)
    HAL_TIM_PWM_ConfigChannel                0x080022f3   Thumb Code   204  stm32f1xx_hal_tim.o(i.HAL_TIM_PWM_ConfigChannel)
    HAL_TIM_PWM_Init                         0x080023bf   Thumb Code    90  stm32f1xx_hal_tim.o(i.HAL_TIM_PWM_Init)
    HAL_TIM_PWM_MspInit                      0x08002419   Thumb Code    30  tim.o(i.HAL_TIM_PWM_MspInit)
    HAL_TIM_PWM_PulseFinishedCallback        0x08002441   Thumb Code     2  stm32f1xx_hal_tim.o(i.HAL_TIM_PWM_PulseFinishedCallback)
    HAL_TIM_PWM_Start                        0x08002445   Thumb Code   144  stm32f1xx_hal_tim.o(i.HAL_TIM_PWM_Start)
    HAL_TIM_PWM_Stop                         0x080024e1   Thumb Code   108  stm32f1xx_hal_tim.o(i.HAL_TIM_PWM_Stop)
    HAL_TIM_PeriodElapsedCallback            0x08002551   Thumb Code    14  main.o(i.HAL_TIM_PeriodElapsedCallback)
    HAL_TIM_TriggerCallback                  0x08002565   Thumb Code     2  stm32f1xx_hal_tim.o(i.HAL_TIM_TriggerCallback)
    HAL_UART_Init                            0x08002567   Thumb Code   100  stm32f1xx_hal_uart.o(i.HAL_UART_Init)
    HAL_UART_MspInit                         0x080025cd   Thumb Code   100  usart.o(i.HAL_UART_MspInit)
    HAL_UART_Transmit                        0x0800263d   Thumb Code   154  stm32f1xx_hal_uart.o(i.HAL_UART_Transmit)
    HardFault_Handler                        0x080026d7   Thumb Code     2  stm32f1xx_it.o(i.HardFault_Handler)
    IRReceiver_IRQ_Callback                  0x08002cd1   Thumb Code   156  driver_ir_receiver.o(i.IRReceiver_IRQ_Callback)
    IRReceiver_Init                          0x08002d85   Thumb Code    24  driver_ir_receiver.o(i.IRReceiver_Init)
    InputTask                                0x08002da1   Thumb Code   114  game1.o(i.InputTask)
    LCD_Clear                                0x08002e19   Thumb Code     4  driver_lcd.o(i.LCD_Clear)
    LCD_Flush                                0x08002e1d   Thumb Code     4  driver_lcd.o(i.LCD_Flush)
    LCD_FlushRegion                          0x08002e21   Thumb Code     4  driver_lcd.o(i.LCD_FlushRegion)
    LCD_GetFrameBuffer                       0x08002e25   Thumb Code     4  driver_lcd.o(i.LCD_GetFrameBuffer)
    LCD_Init                                 0x08002e29   Thumb Code     4  driver_lcd.o(i.LCD_Init)
    LCD_PrintString                          0x08002e2d   Thumb Code     4  driver_lcd.o(i.LCD_PrintString)
    Led_Control                              0x08002e31   Thumb Code    26  driver_led.o(i.Led_Control)
    Led_Init                                 0x08002e51   Thumb Code    74  driver_led.o(i.Led_Init)
    Led_Test                                 0x08002ea5   Thumb Code    68  driver_led.o(i.Led_Test)
    MPU6050_Callback                         0x08002f05   Thumb Code    42  driver_mpu6050.o(i.MPU6050_Callback)
    MPU6050_Init                             0x08002f39   Thumb Code    90  driver_mpu6050.o(i.MPU6050_Init)
    MPU6050_ReadData                         0x08002f99   Thumb Code   266  driver_mpu6050.o(i.MPU6050_ReadData)
    MPU6050_ReadRegister                     0x080030a5   Thumb Code    28  driver_mpu6050.o(i.MPU6050_ReadRegister)
    MPU_6050_Task                            0x080030e9   Thumb Code    70  driver_mpu6050.o(i.MPU_6050_Task)
    MX_ADC1_Init                             0x08003135   Thumb Code    70  adc.o(i.MX_ADC1_Init)
    MX_FREERTOS_Init                         0x08003185   Thumb Code   116  freertos.o(i.MX_FREERTOS_Init)
    MX_GPIO_Init                             0x08003241   Thumb Code   326  gpio.o(i.MX_GPIO_Init)
    MX_I2C1_Init                             0x080033a1   Thumb Code    50  i2c.o(i.MX_I2C1_Init)
    MX_SPI1_Init                             0x080033e1   Thumb Code    62  spi.o(i.MX_SPI1_Init)
    MX_TIM1_Init                             0x08003429   Thumb Code   198  tim.o(i.MX_TIM1_Init)
    MX_TIM2_Init                             0x080034f9   Thumb Code   182  tim.o(i.MX_TIM2_Init)
    MX_TIM3_Init                             0x080035b5   Thumb Code   110  tim.o(i.MX_TIM3_Init)
    MX_USART1_UART_Init                      0x0800362d   Thumb Code    48  usart.o(i.MX_USART1_UART_Init)
    MX_USB_PCD_Init                          0x08003665   Thumb Code    42  usb.o(i.MX_USB_PCD_Init)
    MemManage_Handler                        0x08003699   Thumb Code     2  stm32f1xx_it.o(i.MemManage_Handler)
    NMI_Handler                              0x0800369b   Thumb Code     2  stm32f1xx_it.o(i.NMI_Handler)
    OLED_Clear                               0x0800369d   Thumb Code    42  driver_oled.o(i.OLED_Clear)
    OLED_Flush                               0x080036c9   Thumb Code    50  driver_oled.o(i.OLED_Flush)
    OLED_FlushRegion                         0x08003701   Thumb Code    90  driver_oled.o(i.OLED_FlushRegion)
    OLED_GetFrameBuffer                      0x08003761   Thumb Code    16  driver_oled.o(i.OLED_GetFrameBuffer)
    OLED_Init                                0x08003775   Thumb Code   142  driver_oled.o(i.OLED_Init)
    OLED_PrintString                         0x08003809   Thumb Code    50  driver_oled.o(i.OLED_PrintString)
    OLED_PutChar                             0x0800383d   Thumb Code    66  driver_oled.o(i.OLED_PutChar)
    OLED_SetPosition                         0x080038b1   Thumb Code    58  driver_oled.o(i.OLED_SetPosition)
    PassiveBuzzer_Control                    0x08003939   Thumb Code    20  driver_passive_buzzer.o(i.PassiveBuzzer_Control)
    PassiveBuzzer_Init                       0x08003951   Thumb Code    92  driver_passive_buzzer.o(i.PassiveBuzzer_Init)
    PassiveBuzzer_Set_Freq_Duty              0x080039b9   Thumb Code   122  driver_passive_buzzer.o(i.PassiveBuzzer_Set_Freq_Duty)
    PutI2C                                   0x08003af5   Thumb Code    14  freertos.o(i.PutI2C)
    RegisterQueueHandle                      0x08003b09   Thumb Code    20  driver_ir_receiver.o(i.RegisterQueueHandle)
    RotaryEncoder_IRQ_Callback               0x08003b25   Thumb Code   136  driver_rotary_encoder.o(i.RotaryEncoder_IRQ_Callback)
    RotaryEncoder_Init                       0x08003bbd   Thumb Code    26  driver_rotary_encoder.o(i.RotaryEncoder_Init)
    SysTick_Handler                          0x08003be1   Thumb Code    38  port.o(i.SysTick_Handler)
    SystemClock_Config                       0x08003c0d   Thumb Code   124  main.o(i.SystemClock_Config)
    SystemInit                               0x08003c89   Thumb Code     2  system_stm32f1xx.o(i.SystemInit)
    TIM4_IRQHandler                          0x08003c8d   Thumb Code     6  stm32f1xx_it.o(i.TIM4_IRQHandler)
    TIM_Base_SetConfig                       0x08003c99   Thumb Code    94  stm32f1xx_hal_tim.o(i.TIM_Base_SetConfig)
    TIM_CCxChannelCmd                        0x08003d05   Thumb Code    26  stm32f1xx_hal_tim.o(i.TIM_CCxChannelCmd)
    TIM_ETR_SetConfig                        0x08003d1f   Thumb Code    20  stm32f1xx_hal_tim.o(i.TIM_ETR_SetConfig)
    TIM_OC2_SetConfig                        0x08003d95   Thumb Code    84  stm32f1xx_hal_tim.o(i.TIM_OC2_SetConfig)
    USB_CoreInit                             0x08004001   Thumb Code     4  stm32f1xx_ll_usb.o(i.USB_CoreInit)
    USB_DevDisconnect                        0x08004005   Thumb Code     4  stm32f1xx_ll_usb.o(i.USB_DevDisconnect)
    USB_DevInit                              0x08004009   Thumb Code    18  stm32f1xx_ll_usb.o(i.USB_DevInit)
    USB_DisableGlobalInt                     0x0800401b   Thumb Code    14  stm32f1xx_ll_usb.o(i.USB_DisableGlobalInt)
    USB_SetCurrentMode                       0x08004029   Thumb Code     4  stm32f1xx_ll_usb.o(i.USB_SetCurrentMode)
    UsageFault_Handler                       0x0800402d   Thumb Code     2  stm32f1xx_it.o(i.UsageFault_Handler)
    __0printf$3                              0x08004031   Thumb Code    22  printf3.o(i.__0printf$3)
    __1printf$3                              0x08004031   Thumb Code     0  printf3.o(i.__0printf$3)
    __2printf                                0x08004031   Thumb Code     0  printf3.o(i.__0printf$3)
    __0sprintf$3                             0x08004051   Thumb Code    34  printf3.o(i.__0sprintf$3)
    __1sprintf$3                             0x08004051   Thumb Code     0  printf3.o(i.__0sprintf$3)
    __2sprintf                               0x08004051   Thumb Code     0  printf3.o(i.__0sprintf$3)
    __scatterload_copy                       0x08004099   Thumb Code    14  handlers.o(i.__scatterload_copy)
    __scatterload_null                       0x080040a7   Thumb Code     2  handlers.o(i.__scatterload_null)
    __scatterload_zeroinit                   0x080040a9   Thumb Code    14  handlers.o(i.__scatterload_zeroinit)
    buzzer_buzz                              0x0800427d   Thumb Code    30  beep.o(i.buzzer_buzz)
    buzzer_init                              0x080042a1   Thumb Code    28  beep.o(i.buzzer_init)
    draw_bitmap                              0x080042d1   Thumb Code   458  draw.o(i.draw_bitmap)
    draw_end                                 0x080044a1   Thumb Code     4  draw.o(i.draw_end)
    draw_flushArea                           0x080044a5   Thumb Code    36  draw.o(i.draw_flushArea)
    draw_init                                0x080044c9   Thumb Code    20  draw.o(i.draw_init)
    draw_string                              0x080044e1   Thumb Code   166  draw.o(i.draw_string)
    draw_string_P                            0x08004591   Thumb Code    54  draw.o(i.draw_string_P)
    fputc                                    0x080045c9   Thumb Code    22  driver_uart.o(i.fputc)
    free                                     0x080045e5   Thumb Code    76  malloc.o(i.free)
    game1_draw                               0x08004635   Thumb Code   910  game1.o(i.game1_draw)
    game1_task                               0x080049f1   Thumb Code   268  game1.o(i.game1_task)
    main                                     0x08004b4d   Thumb Code    58  main.o(i.main)
    malloc                                   0x08004b89   Thumb Code    92  malloc.o(i.malloc)
    mdelay                                   0x08004bf5   Thumb Code    26  driver_timer.o(i.mdelay)
    osKernelInitialize                       0x08004c11   Thumb Code    50  cmsis_os2.o(i.osKernelInitialize)
    osKernelStart                            0x08004c49   Thumb Code    58  cmsis_os2.o(i.osKernelStart)
    pcTaskGetName                            0x08004c89   Thumb Code    28  tasks.o(i.pcTaskGetName)
    pvPortMalloc                             0x080055b5   Thumb Code   210  heap_4.o(i.pvPortMalloc)
    pvTaskIncrementMutexHeldCount            0x0800568d   Thumb Code    18  tasks.o(i.pvTaskIncrementMutexHeldCount)
    pxPortInitialiseStack                    0x080056a5   Thumb Code    32  port.o(i.pxPortInitialiseStack)
    system_get_ns                            0x08005705   Thumb Code    58  driver_timer.o(i.system_get_ns)
    udelay                                   0x08005749   Thumb Code    52  driver_timer.o(i.udelay)
    uxListRemove                             0x08005781   Thumb Code    38  list.o(i.uxListRemove)
    uxTaskGetStackHighWaterMark              0x080057a9   Thumb Code    12  tasks.o(i.uxTaskGetStackHighWaterMark)
    uxTaskResetEventItemValue                0x080057b9   Thumb Code    20  tasks.o(i.uxTaskResetEventItemValue)
    vApplicationGetIdleTaskMemory            0x080057d1   Thumb Code    16  cmsis_os2.o(i.vApplicationGetIdleTaskMemory)
    vApplicationGetTimerTaskMemory           0x080057e5   Thumb Code    18  cmsis_os2.o(i.vApplicationGetTimerTaskMemory)
    vEventGroupSetBitsCallback               0x080057fd   Thumb Code     4  event_groups.o(i.vEventGroupSetBitsCallback)
    vListInitialise                          0x08005801   Thumb Code    22  list.o(i.vListInitialise)
    vListInitialiseItem                      0x08005817   Thumb Code     6  list.o(i.vListInitialiseItem)
    vListInsert                              0x0800581d   Thumb Code    48  list.o(i.vListInsert)
    vListInsertEnd                           0x0800584d   Thumb Code    24  list.o(i.vListInsertEnd)
    vPortEnterCritical                       0x08005865   Thumb Code    54  port.o(i.vPortEnterCritical)
    vPortExitCritical                        0x080058a5   Thumb Code    34  port.o(i.vPortExitCritical)
    vPortFree                                0x080058cd   Thumb Code    88  heap_4.o(i.vPortFree)
    vPortSetupTimerInterrupt                 0x08005929   Thumb Code    32  port.o(i.vPortSetupTimerInterrupt)
    vPortValidateInterruptPriority           0x0800594d   Thumb Code    74  port.o(i.vPortValidateInterruptPriority)
    vQueueAddToRegistry                      0x080059a1   Thumb Code    34  queue.o(i.vQueueAddToRegistry)
    vQueueWaitForMessageRestricted           0x080059c9   Thumb Code    68  queue.o(i.vQueueWaitForMessageRestricted)
    vTaskDelay                               0x08005a0d   Thumb Code    66  tasks.o(i.vTaskDelay)
    vTaskInternalSetTimeOutState             0x08005a59   Thumb Code    12  tasks.o(i.vTaskInternalSetTimeOutState)
    vTaskMissedYield                         0x08005a69   Thumb Code     8  tasks.o(i.vTaskMissedYield)
    vTaskPlaceOnEventList                    0x08005a75   Thumb Code    44  tasks.o(i.vTaskPlaceOnEventList)
    vTaskPlaceOnEventListRestricted          0x08005aa5   Thumb Code    52  tasks.o(i.vTaskPlaceOnEventListRestricted)
    vTaskPlaceOnUnorderedEventList           0x08005add   Thumb Code    76  tasks.o(i.vTaskPlaceOnUnorderedEventList)
    vTaskPriorityDisinheritAfterTimeout      0x08005b2d   Thumb Code   134  tasks.o(i.vTaskPriorityDisinheritAfterTimeout)
    vTaskRemoveFromUnorderedEventList        0x08005bbd   Thumb Code   102  tasks.o(i.vTaskRemoveFromUnorderedEventList)
    vTaskStartScheduler                      0x08005c2d   Thumb Code   118  tasks.o(i.vTaskStartScheduler)
    vTaskSuspendAll                          0x08005cb5   Thumb Code    10  tasks.o(i.vTaskSuspendAll)
    vTaskSwitchContext                       0x08005cc5   Thumb Code    90  tasks.o(i.vTaskSwitchContext)
    xEventGroupCreate                        0x08005d29   Thumb Code    28  event_groups.o(i.xEventGroupCreate)
    xEventGroupSetBits                       0x08005d45   Thumb Code   140  event_groups.o(i.xEventGroupSetBits)
    xEventGroupSetBitsFromISR                0x08005dd1   Thumb Code    12  event_groups.o(i.xEventGroupSetBitsFromISR)
    xEventGroupWaitBits                      0x08005de1   Thumb Code   260  event_groups.o(i.xEventGroupWaitBits)
    xPortStartScheduler                      0x08005ee9   Thumb Code   154  port.o(i.xPortStartScheduler)
    xQueueAddToSet                           0x08005f91   Thumb Code    34  queue.o(i.xQueueAddToSet)
    xQueueCreateMutex                        0x08005fb3   Thumb Code    22  queue.o(i.xQueueCreateMutex)
    xQueueCreateSet                          0x08005fc9   Thumb Code     8  queue.o(i.xQueueCreateSet)
    xQueueGenericCreate                      0x08005fd1   Thumb Code    72  queue.o(i.xQueueGenericCreate)
    xQueueGenericCreateStatic                0x08006019   Thumb Code   102  queue.o(i.xQueueGenericCreateStatic)
    xQueueGenericReset                       0x08006081   Thumb Code   132  queue.o(i.xQueueGenericReset)
    xQueueGenericSend                        0x08006109   Thumb Code   360  queue.o(i.xQueueGenericSend)
    xQueueGenericSendFromISR                 0x08006275   Thumb Code   202  queue.o(i.xQueueGenericSendFromISR)
    xQueueReceive                            0x08006341   Thumb Code   308  queue.o(i.xQueueReceive)
    xQueueSelectFromSet                      0x08006479   Thumb Code    18  queue.o(i.xQueueSelectFromSet)
    xQueueSemaphoreTake                      0x0800648d   Thumb Code   372  queue.o(i.xQueueSemaphoreTake)
    xTaskCheckForTimeOut                     0x08006605   Thumb Code   112  tasks.o(i.xTaskCheckForTimeOut)
    xTaskCreate                              0x08006679   Thumb Code    90  tasks.o(i.xTaskCreate)
    xTaskCreateStatic                        0x080066d3   Thumb Code    86  tasks.o(i.xTaskCreateStatic)
    xTaskGetCurrentTaskHandle                0x08006729   Thumb Code     6  tasks.o(i.xTaskGetCurrentTaskHandle)
    xTaskGetSchedulerState                   0x08006735   Thumb Code    22  tasks.o(i.xTaskGetSchedulerState)
    xTaskGetTickCount                        0x08006751   Thumb Code     6  tasks.o(i.xTaskGetTickCount)
    xTaskIncrementTick                       0x0800675d   Thumb Code   190  tasks.o(i.xTaskIncrementTick)
    xTaskPriorityDisinherit                  0x08006825   Thumb Code   118  tasks.o(i.xTaskPriorityDisinherit)
    xTaskPriorityInherit                     0x080068a5   Thumb Code   112  tasks.o(i.xTaskPriorityInherit)
    xTaskRemoveFromEventList                 0x0800691d   Thumb Code    98  tasks.o(i.xTaskRemoveFromEventList)
    xTaskResumeAll                           0x0800698d   Thumb Code   182  tasks.o(i.xTaskResumeAll)
    xTimerCreate                             0x08006a51   Thumb Code    52  timers.o(i.xTimerCreate)
    xTimerCreateTimerTask                    0x08006a85   Thumb Code    78  timers.o(i.xTimerCreateTimerTask)
    xTimerGenericCommand                     0x08006ae5   Thumb Code    98  timers.o(i.xTimerGenericCommand)
    xTimerPendFunctionCallFromISR            0x08006b4d   Thumb Code    34  timers.o(i.xTimerPendFunctionCallFromISR)
    AHBPrescTable                            0x08006b86   Data          16  system_stm32f1xx.o(.constdata)
    APBPrescTable                            0x08006b96   Data           8  system_stm32f1xx.o(.constdata)
    ascii_font                               0x08006b9e   Data        2048  driver_oled.o(.constdata)
    livesImg                                 0x080073bb   Data           7  resources.o(.constdata)
    smallFont                                0x080073c2   Data         485  resources.o(.constdata)
    Region$$Table$$Base                      0x080075a8   Number         0  anon$$obj.o(Region$$Table)
    Region$$Table$$Limit                     0x080075c8   Number         0  anon$$obj.o(Region$$Table)
    uwTickFreq                               0x2000000c   Data           1  stm32f1xx_hal.o(.data)
    uwTickPrio                               0x20000010   Data           4  stm32f1xx_hal.o(.data)
    uwTick                                   0x20000014   Data           4  stm32f1xx_hal.o(.data)
    SystemCoreClock                          0x20000018   Data           4  system_stm32f1xx.o(.data)
    pxCurrentTCB                             0x2000001c   Data           4  tasks.o(.data)
    __stdout                                 0x20000150   Data           4  stdout.o(.data)
    __microlib_freelist                      0x20000154   Data           4  mvars.o(.data)
    __microlib_freelist_initialised          0x20000158   Data           4  mvars.o(.data)
    hadc1                                    0x20000554   Data          48  adc.o(.bss)
    hi2c1                                    0x20000584   Data          84  i2c.o(.bss)
    hspi1                                    0x200005d8   Data          88  spi.o(.bss)
    htim1                                    0x20000630   Data          72  tim.o(.bss)
    htim2                                    0x20000678   Data          72  tim.o(.bss)
    htim3                                    0x200006c0   Data          72  tim.o(.bss)
    huart1                                   0x20000708   Data          72  usart.o(.bss)
    hpcd_USB_FS                              0x20000750   Data         752  usb.o(.bss)
    htim4                                    0x20000a40   Data          72  stm32f1xx_hal_timebase_tim.o(.bss)
    xQueueRegistry                           0x20000a88   Data          64  queue.o(.bss)
    __heap_base                              0x20003e20   Data           0  startup_stm32f103xb.o(HEAP)
    __heap_limit                             0x20004020   Data           0  startup_stm32f103xb.o(HEAP)
    __initial_sp                             0x20004420   Data           0  startup_stm32f103xb.o(STACK)



==============================================================================

Memory Map of the image

  Image Entry point : 0x080000ed

  Load Region LR_IROM1 (Base: 0x08000000, Size: 0x00007724, Max: 0x00010000, ABSOLUTE, COMPRESSED[0x000075f0])

    Execution Region ER_IROM1 (Exec base: 0x08000000, Load base: 0x08000000, Size: 0x000075c8, Max: 0x00010000, ABSOLUTE)

    Exec Addr    Load Addr    Size         Type   Attr      Idx    E Section Name        Object

    0x08000000   0x08000000   0x000000ec   Data   RO            3    RESET               startup_stm32f103xb.o
    0x080000ec   0x080000ec   0x00000000   Code   RO         7892  * .ARM.Collect$$$$00000000  mc_w.l(entry.o)
    0x080000ec   0x080000ec   0x00000004   Code   RO         8225    .ARM.Collect$$$$00000001  mc_w.l(entry2.o)
    0x080000f0   0x080000f0   0x00000004   Code   RO         8228    .ARM.Collect$$$$00000004  mc_w.l(entry5.o)
    0x080000f4   0x080000f4   0x00000000   Code   RO         8230    .ARM.Collect$$$$00000008  mc_w.l(entry7b.o)
    0x080000f4   0x080000f4   0x00000000   Code   RO         8232    .ARM.Collect$$$$0000000A  mc_w.l(entry8b.o)
    0x080000f4   0x080000f4   0x00000008   Code   RO         8233    .ARM.Collect$$$$0000000B  mc_w.l(entry9a.o)
    0x080000fc   0x080000fc   0x00000000   Code   RO         8235    .ARM.Collect$$$$0000000D  mc_w.l(entry10a.o)
    0x080000fc   0x080000fc   0x00000000   Code   RO         8237    .ARM.Collect$$$$0000000F  mc_w.l(entry11a.o)
    0x080000fc   0x080000fc   0x00000004   Code   RO         8226    .ARM.Collect$$$$00002712  mc_w.l(entry2.o)
    0x08000100   0x08000100   0x00000096   Code   RO         6373    .emb_text           port.o
    0x08000196   0x08000196   0x00000002   PAD
    0x08000198   0x08000198   0x00000024   Code   RO            4    .text               startup_stm32f103xb.o
    0x080001bc   0x080001bc   0x00000062   Code   RO         7895    .text               mc_w.l(uldiv.o)
    0x0800021e   0x0800021e   0x00000020   Code   RO         7897    .text               mc_w.l(llushr.o)
    0x0800023e   0x0800023e   0x00000002   PAD
    0x08000240   0x08000240   0x00000024   Code   RO         7899    .text               mc_w.l(rand.o)
    0x08000264   0x08000264   0x00000024   Code   RO         7902    .text               mc_w.l(memcpya.o)
    0x08000288   0x08000288   0x00000024   Code   RO         7906    .text               mc_w.l(memseta.o)
    0x080002ac   0x080002ac   0x0000000e   Code   RO         7908    .text               mc_w.l(strlen.o)
    0x080002ba   0x080002ba   0x00000012   Code   RO         7910    .text               mc_w.l(strcpy.o)
    0x080002cc   0x080002cc   0x000000b0   Code   RO         8203    .text               mf_w.l(fadd.o)
    0x0800037c   0x0800037c   0x00000018   Code   RO         8205    .text               mf_w.l(fscalb.o)
    0x08000394   0x08000394   0x00000012   Code   RO         8211    .text               mf_w.l(fflti.o)
    0x080003a6   0x080003a6   0x0000000a   Code   RO         8213    .text               mf_w.l(ffltui.o)
    0x080003b0   0x080003b0   0x00000028   Code   RO         8217    .text               mf_w.l(ffixui.o)
    0x080003d8   0x080003d8   0x00000014   Code   RO         8221    .text               mf_w.l(cfcmple.o)
    0x080003ec   0x080003ec   0x00000014   Code   RO         8223    .text               mf_w.l(cfrcmple.o)
    0x08000400   0x08000400   0x0000002c   Code   RO         8240    .text               mc_w.l(uidiv.o)
    0x0800042c   0x0800042c   0x0000001e   Code   RO         8242    .text               mc_w.l(llshl.o)
    0x0800044a   0x0800044a   0x00000000   Code   RO         8248    .text               mc_w.l(iusefp.o)
    0x0800044a   0x0800044a   0x0000006e   Code   RO         8249    .text               mf_w.l(fepilogue.o)
    0x080004b8   0x080004b8   0x00000024   Code   RO         8259    .text               mc_w.l(init.o)
    0x080004dc   0x080004dc   0x00000056   Code   RO         8269    .text               mc_w.l(__dczerorl2.o)
    0x08000532   0x08000532   0x00000002   PAD
    0x08000534   0x08000534   0x00000056   Code   RO          957    i.ADC_ConversionStop_Disable  stm32f1xx_hal_adc.o
    0x0800058a   0x0800058a   0x00000002   Code   RO          782    i.BusFault_Handler  stm32f1xx_it.o
    0x0800058c   0x0800058c   0x000000a4   Code   RO         7045    i.ColorLED_Set      driver_color_led.o
    0x08000630   0x08000630   0x00000024   Code   RO         7046    i.ColorLED_Test     driver_color_led.o
    0x08000654   0x08000654   0x00000058   Code   RO         7711    i.DHT11Timer_func   game1.o
    0x080006ac   0x080006ac   0x00000006   Code   RO         6896    i.DHT11_Init        driver_dht11.o
    0x080006b2   0x080006b2   0x00000002   PAD
    0x080006b4   0x080006b4   0x00000018   Code   RO         6897    i.DHT11_PinRead     driver_dht11.o
    0x080006cc   0x080006cc   0x00000018   Code   RO         6898    i.DHT11_PinSet      driver_dht11.o
    0x080006e4   0x080006e4   0x00000090   Code   RO         6899    i.DHT11_Read        driver_dht11.o
    0x08000774   0x08000774   0x00000046   Code   RO         6900    i.DHT11_ReadByte    driver_dht11.o
    0x080007ba   0x080007ba   0x00000024   Code   RO         6902    i.DHT11_WaitFor_Val  driver_dht11.o
    0x080007de   0x080007de   0x00000002   Code   RO          783    i.DebugMon_Handler  stm32f1xx_it.o
    0x080007e0   0x080007e0   0x0000004c   Code   RO         7085    i.DispatchKey       driver_ir_receiver.o
    0x0800082c   0x0800082c   0x0000001e   Code   RO          784    i.EXTI15_10_IRQHandler  stm32f1xx_it.o
    0x0800084a   0x0800084a   0x00000006   Code   RO          785    i.EXTI9_5_IRQHandler  stm32f1xx_it.o
    0x08000850   0x08000850   0x00000004   Code   RO           75    i.Error_Handler     main.o
    0x08000854   0x08000854   0x00000006   Code   RO         7866    i.GameSoundTimer_func  beep.o
    0x0800085a   0x0800085a   0x00000002   PAD
    0x0800085c   0x0800085c   0x00000010   Code   RO          384    i.GetI2C            freertos.o
    0x0800086c   0x0800086c   0x0000000c   Code   RO         7087    i.GetQueueIR        driver_ir_receiver.o
    0x08000878   0x08000878   0x0000000c   Code   RO         6617    i.GetQueueMPU6050   driver_mpu6050.o
    0x08000884   0x08000884   0x0000000c   Code   RO         7410    i.GetQueueRotary    driver_rotary_encoder.o
    0x08000890   0x08000890   0x000000fc   Code   RO          963    i.HAL_ADC_ConfigChannel  stm32f1xx_hal_adc.o
    0x0800098c   0x0800098c   0x0000011c   Code   RO          972    i.HAL_ADC_Init      stm32f1xx_hal_adc.o
    0x08000aa8   0x08000aa8   0x00000058   Code   RO          501    i.HAL_ADC_MspInit   adc.o
    0x08000b00   0x08000b00   0x0000001e   Code   RO         7464    i.HAL_GPIO_EXTI_Callback  driver_irq.o
    0x08000b1e   0x08000b1e   0x00000002   PAD
    0x08000b20   0x08000b20   0x00000018   Code   RO         1549    i.HAL_GPIO_EXTI_IRQHandler  stm32f1xx_hal_gpio.o
    0x08000b38   0x08000b38   0x000001e0   Code   RO         1550    i.HAL_GPIO_Init     stm32f1xx_hal_gpio.o
    0x08000d18   0x08000d18   0x0000000a   Code   RO         1552    i.HAL_GPIO_ReadPin  stm32f1xx_hal_gpio.o
    0x08000d22   0x08000d22   0x0000000a   Code   RO         1554    i.HAL_GPIO_WritePin  stm32f1xx_hal_gpio.o
    0x08000d2c   0x08000d2c   0x0000000c   Code   RO         1244    i.HAL_GetTick       stm32f1xx_hal.o
    0x08000d38   0x08000d38   0x00000188   Code   RO         2221    i.HAL_I2C_Init      stm32f1xx_hal_i2c.o
    0x08000ec0   0x08000ec0   0x0000012c   Code   RO         2234    i.HAL_I2C_Master_Transmit  stm32f1xx_hal_i2c.o
    0x08000fec   0x08000fec   0x00000250   Code   RO         2239    i.HAL_I2C_Mem_Read  stm32f1xx_hal_i2c.o
    0x0800123c   0x0800123c   0x00000130   Code   RO         2242    i.HAL_I2C_Mem_Write  stm32f1xx_hal_i2c.o
    0x0800136c   0x0800136c   0x0000005c   Code   RO          543    i.HAL_I2C_MspInit   i2c.o
    0x080013c8   0x080013c8   0x00000010   Code   RO         1250    i.HAL_IncTick       stm32f1xx_hal.o
    0x080013d8   0x080013d8   0x00000024   Code   RO         1251    i.HAL_Init          stm32f1xx_hal.o
    0x080013fc   0x080013fc   0x00000098   Code   RO          882    i.HAL_InitTick      stm32f1xx_hal_timebase_tim.o
    0x08001494   0x08001494   0x00000048   Code   RO          858    i.HAL_MspInit       stm32f1xx_hal_msp.o
    0x080014dc   0x080014dc   0x0000001a   Code   RO         1710    i.HAL_NVIC_EnableIRQ  stm32f1xx_hal_cortex.o
    0x080014f6   0x080014f6   0x00000002   PAD
    0x080014f8   0x080014f8   0x00000040   Code   RO         1716    i.HAL_NVIC_SetPriority  stm32f1xx_hal_cortex.o
    0x08001538   0x08001538   0x00000024   Code   RO         1717    i.HAL_NVIC_SetPriorityGrouping  stm32f1xx_hal_cortex.o
    0x0800155c   0x0800155c   0x000000da   Code   RO         4329    i.HAL_PCD_Init      stm32f1xx_hal_pcd.o
    0x08001636   0x08001636   0x00000002   PAD
    0x08001638   0x08001638   0x00000028   Code   RO          741    i.HAL_PCD_MspInit   usb.o
    0x08001660   0x08001660   0x000000ec   Code   RO         1512    i.HAL_RCCEx_PeriphCLKConfig  stm32f1xx_hal_rcc_ex.o
    0x0800174c   0x0800174c   0x0000012c   Code   RO         1408    i.HAL_RCC_ClockConfig  stm32f1xx_hal_rcc.o
    0x08001878   0x08001878   0x00000040   Code   RO         1412    i.HAL_RCC_GetClockConfig  stm32f1xx_hal_rcc.o
    0x080018b8   0x080018b8   0x00000020   Code   RO         1415    i.HAL_RCC_GetPCLK1Freq  stm32f1xx_hal_rcc.o
    0x080018d8   0x080018d8   0x00000020   Code   RO         1416    i.HAL_RCC_GetPCLK2Freq  stm32f1xx_hal_rcc.o
    0x080018f8   0x080018f8   0x0000004c   Code   RO         1417    i.HAL_RCC_GetSysClockFreq  stm32f1xx_hal_rcc.o
    0x08001944   0x08001944   0x00000320   Code   RO         1420    i.HAL_RCC_OscConfig  stm32f1xx_hal_rcc.o
    0x08001c64   0x08001c64   0x000000b2   Code   RO         2658    i.HAL_SPI_Init      stm32f1xx_hal_spi.o
    0x08001d16   0x08001d16   0x00000002   PAD
    0x08001d18   0x08001d18   0x00000070   Code   RO          585    i.HAL_SPI_MspInit   spi.o
    0x08001d88   0x08001d88   0x00000002   Code   RO         3675    i.HAL_TIMEx_BreakCallback  stm32f1xx_hal_tim_ex.o
    0x08001d8a   0x08001d8a   0x00000002   Code   RO         3676    i.HAL_TIMEx_CommutCallback  stm32f1xx_hal_tim_ex.o
    0x08001d8c   0x08001d8c   0x00000054   Code   RO         3678    i.HAL_TIMEx_ConfigBreakDeadTime  stm32f1xx_hal_tim_ex.o
    0x08001de0   0x08001de0   0x00000068   Code   RO         3694    i.HAL_TIMEx_MasterConfigSynchronization  stm32f1xx_hal_tim_ex.o
    0x08001e48   0x08001e48   0x0000005c   Code   RO         2969    i.HAL_TIM_Base_DeInit  stm32f1xx_hal_tim.o
    0x08001ea4   0x08001ea4   0x0000005a   Code   RO         2971    i.HAL_TIM_Base_Init  stm32f1xx_hal_tim.o
    0x08001efe   0x08001efe   0x00000002   PAD
    0x08001f00   0x08001f00   0x0000002c   Code   RO          626    i.HAL_TIM_Base_MspDeInit  tim.o
    0x08001f2c   0x08001f2c   0x0000003c   Code   RO          627    i.HAL_TIM_Base_MspInit  tim.o
    0x08001f68   0x08001f68   0x00000058   Code   RO         2976    i.HAL_TIM_Base_Start_IT  stm32f1xx_hal_tim.o
    0x08001fc0   0x08001fc0   0x000000dc   Code   RO         2980    i.HAL_TIM_ConfigClockSource  stm32f1xx_hal_tim.o
    0x0800209c   0x0800209c   0x00000002   Code   RO         3005    i.HAL_TIM_IC_CaptureCallback  stm32f1xx_hal_tim.o
    0x0800209e   0x0800209e   0x00000166   Code   RO         3019    i.HAL_TIM_IRQHandler  stm32f1xx_hal_tim.o
    0x08002204   0x08002204   0x000000ec   Code   RO          628    i.HAL_TIM_MspPostInit  tim.o
    0x080022f0   0x080022f0   0x00000002   Code   RO         3022    i.HAL_TIM_OC_DelayElapsedCallback  stm32f1xx_hal_tim.o
    0x080022f2   0x080022f2   0x000000cc   Code   RO         3043    i.HAL_TIM_PWM_ConfigChannel  stm32f1xx_hal_tim.o
    0x080023be   0x080023be   0x0000005a   Code   RO         3046    i.HAL_TIM_PWM_Init  stm32f1xx_hal_tim.o
    0x08002418   0x08002418   0x00000028   Code   RO          630    i.HAL_TIM_PWM_MspInit  tim.o
    0x08002440   0x08002440   0x00000002   Code   RO         3049    i.HAL_TIM_PWM_PulseFinishedCallback  stm32f1xx_hal_tim.o
    0x08002442   0x08002442   0x00000002   PAD
    0x08002444   0x08002444   0x0000009c   Code   RO         3051    i.HAL_TIM_PWM_Start  stm32f1xx_hal_tim.o
    0x080024e0   0x080024e0   0x00000070   Code   RO         3054    i.HAL_TIM_PWM_Stop  stm32f1xx_hal_tim.o
    0x08002550   0x08002550   0x00000014   Code   RO           76    i.HAL_TIM_PeriodElapsedCallback  main.o
    0x08002564   0x08002564   0x00000002   Code   RO         3062    i.HAL_TIM_TriggerCallback  stm32f1xx_hal_tim.o
    0x08002566   0x08002566   0x00000064   Code   RO         3972    i.HAL_UART_Init     stm32f1xx_hal_uart.o
    0x080025ca   0x080025ca   0x00000002   PAD
    0x080025cc   0x080025cc   0x00000070   Code   RO          699    i.HAL_UART_MspInit  usart.o
    0x0800263c   0x0800263c   0x0000009a   Code   RO         3980    i.HAL_UART_Transmit  stm32f1xx_hal_uart.o
    0x080026d6   0x080026d6   0x00000002   Code   RO          786    i.HardFault_Handler  stm32f1xx_it.o
    0x080026d8   0x080026d8   0x0000002e   Code   RO         2264    i.I2C_IsAcknowledgeFailed  stm32f1xx_hal_i2c.o
    0x08002706   0x08002706   0x00000002   PAD
    0x08002708   0x08002708   0x0000009c   Code   RO         2268    i.I2C_MasterRequestWrite  stm32f1xx_hal_i2c.o
    0x080027a4   0x080027a4   0x000000fc   Code   RO         2274    i.I2C_RequestMemoryRead  stm32f1xx_hal_i2c.o
    0x080028a0   0x080028a0   0x000000a8   Code   RO         2275    i.I2C_RequestMemoryWrite  stm32f1xx_hal_i2c.o
    0x08002948   0x08002948   0x00000056   Code   RO         2279    i.I2C_WaitOnBTFFlagUntilTimeout  stm32f1xx_hal_i2c.o
    0x0800299e   0x0800299e   0x00000002   PAD
    0x080029a0   0x080029a0   0x00000090   Code   RO         2280    i.I2C_WaitOnFlagUntilTimeout  stm32f1xx_hal_i2c.o
    0x08002a30   0x08002a30   0x000000bc   Code   RO         2281    i.I2C_WaitOnMasterAddressFlagUntilTimeout  stm32f1xx_hal_i2c.o
    0x08002aec   0x08002aec   0x00000070   Code   RO         2282    i.I2C_WaitOnRXNEFlagUntilTimeout  stm32f1xx_hal_i2c.o
    0x08002b5c   0x08002b5c   0x00000056   Code   RO         2283    i.I2C_WaitOnTXEFlagUntilTimeout  stm32f1xx_hal_i2c.o
    0x08002bb2   0x08002bb2   0x00000002   PAD
    0x08002bb4   0x08002bb4   0x0000011c   Code   RO         7089    i.IRReceiver_IRQTimes_Parse  driver_ir_receiver.o
    0x08002cd0   0x08002cd0   0x000000b4   Code   RO         7090    i.IRReceiver_IRQ_Callback  driver_ir_receiver.o
    0x08002d84   0x08002d84   0x0000001c   Code   RO         7091    i.IRReceiver_Init   driver_ir_receiver.o
    0x08002da0   0x08002da0   0x00000078   Code   RO         7712    i.InputTask         game1.o
    0x08002e18   0x08002e18   0x00000004   Code   RO         6815    i.LCD_Clear         driver_lcd.o
    0x08002e1c   0x08002e1c   0x00000004   Code   RO         6818    i.LCD_Flush         driver_lcd.o
    0x08002e20   0x08002e20   0x00000004   Code   RO         6819    i.LCD_FlushRegion   driver_lcd.o
    0x08002e24   0x08002e24   0x00000004   Code   RO         6820    i.LCD_GetFrameBuffer  driver_lcd.o
    0x08002e28   0x08002e28   0x00000004   Code   RO         6821    i.LCD_Init          driver_lcd.o
    0x08002e2c   0x08002e2c   0x00000004   Code   RO         6824    i.LCD_PrintString   driver_lcd.o
    0x08002e30   0x08002e30   0x00000020   Code   RO         6453    i.Led_Control       driver_led.o
    0x08002e50   0x08002e50   0x00000054   Code   RO         6454    i.Led_Init          driver_led.o
    0x08002ea4   0x08002ea4   0x00000060   Code   RO         6455    i.Led_Test          driver_led.o
    0x08002f04   0x08002f04   0x00000034   Code   RO         6618    i.MPU6050_Callback  driver_mpu6050.o
    0x08002f38   0x08002f38   0x00000060   Code   RO         6620    i.MPU6050_Init      driver_mpu6050.o
    0x08002f98   0x08002f98   0x0000010a   Code   RO         6621    i.MPU6050_ReadData  driver_mpu6050.o
    0x080030a2   0x080030a2   0x00000002   PAD
    0x080030a4   0x080030a4   0x00000020   Code   RO         6622    i.MPU6050_ReadRegister  driver_mpu6050.o
    0x080030c4   0x080030c4   0x00000024   Code   RO         6624    i.MPU6050_WriteRegister  driver_mpu6050.o
    0x080030e8   0x080030e8   0x0000004c   Code   RO         6625    i.MPU_6050_Task     driver_mpu6050.o
    0x08003134   0x08003134   0x00000050   Code   RO          502    i.MX_ADC1_Init      adc.o
    0x08003184   0x08003184   0x000000bc   Code   RO          385    i.MX_FREERTOS_Init  freertos.o
    0x08003240   0x08003240   0x00000160   Code   RO          255    i.MX_GPIO_Init      gpio.o
    0x080033a0   0x080033a0   0x00000040   Code   RO          544    i.MX_I2C1_Init      i2c.o
    0x080033e0   0x080033e0   0x00000048   Code   RO          586    i.MX_SPI1_Init      spi.o
    0x08003428   0x08003428   0x000000d0   Code   RO          631    i.MX_TIM1_Init      tim.o
    0x080034f8   0x080034f8   0x000000bc   Code   RO          632    i.MX_TIM2_Init      tim.o
    0x080035b4   0x080035b4   0x00000078   Code   RO          633    i.MX_TIM3_Init      tim.o
    0x0800362c   0x0800362c   0x00000038   Code   RO          700    i.MX_USART1_UART_Init  usart.o
    0x08003664   0x08003664   0x00000034   Code   RO          742    i.MX_USB_PCD_Init   usb.o
    0x08003698   0x08003698   0x00000002   Code   RO          787    i.MemManage_Handler  stm32f1xx_it.o
    0x0800369a   0x0800369a   0x00000002   Code   RO          788    i.NMI_Handler       stm32f1xx_it.o
    0x0800369c   0x0800369c   0x0000002a   Code   RO         6495    i.OLED_Clear        driver_oled.o
    0x080036c6   0x080036c6   0x00000002   PAD
    0x080036c8   0x080036c8   0x00000038   Code   RO         6498    i.OLED_Flush        driver_oled.o
    0x08003700   0x08003700   0x00000060   Code   RO         6499    i.OLED_FlushRegion  driver_oled.o
    0x08003760   0x08003760   0x00000014   Code   RO         6500    i.OLED_GetFrameBuffer  driver_oled.o
    0x08003774   0x08003774   0x00000094   Code   RO         6501    i.OLED_Init         driver_oled.o
    0x08003808   0x08003808   0x00000032   Code   RO         6504    i.OLED_PrintString  driver_oled.o
    0x0800383a   0x0800383a   0x00000002   PAD
    0x0800383c   0x0800383c   0x00000048   Code   RO         6505    i.OLED_PutChar      driver_oled.o
    0x08003884   0x08003884   0x0000002c   Code   RO         6506    i.OLED_SetComConfig  driver_oled.o
    0x080038b0   0x080038b0   0x00000040   Code   RO         6507    i.OLED_SetPosition  driver_oled.o
    0x080038f0   0x080038f0   0x00000028   Code   RO         6509    i.OLED_WriteCmd     driver_oled.o
    0x08003918   0x08003918   0x00000020   Code   RO         6510    i.OLED_WriteNBytes  driver_oled.o
    0x08003938   0x08003938   0x00000018   Code   RO         6993    i.PassiveBuzzer_Control  driver_passive_buzzer.o
    0x08003950   0x08003950   0x00000068   Code   RO         6994    i.PassiveBuzzer_Init  driver_passive_buzzer.o
    0x080039b8   0x080039b8   0x00000088   Code   RO         6995    i.PassiveBuzzer_Set_Freq_Duty  driver_passive_buzzer.o
    0x08003a40   0x08003a40   0x0000004c   Code   RO         7713    i.ProcessIRData     game1.o
    0x08003a8c   0x08003a8c   0x00000068   Code   RO         7714    i.ProcessRotaryData  game1.o
    0x08003af4   0x08003af4   0x00000014   Code   RO          386    i.PutI2C            freertos.o
    0x08003b08   0x08003b08   0x0000001c   Code   RO         7094    i.RegisterQueueHandle  driver_ir_receiver.o
    0x08003b24   0x08003b24   0x00000098   Code   RO         7411    i.RotaryEncoder_IRQ_Callback  driver_rotary_encoder.o
    0x08003bbc   0x08003bbc   0x00000024   Code   RO         7412    i.RotaryEncoder_Init  driver_rotary_encoder.o
    0x08003be0   0x08003be0   0x0000002c   Code   RO         6374    i.SysTick_Handler   port.o
    0x08003c0c   0x08003c0c   0x0000007c   Code   RO           77    i.SystemClock_Config  main.o
    0x08003c88   0x08003c88   0x00000002   Code   RO         4771    i.SystemInit        system_stm32f1xx.o
    0x08003c8a   0x08003c8a   0x00000002   PAD
    0x08003c8c   0x08003c8c   0x0000000c   Code   RO          789    i.TIM4_IRQHandler   stm32f1xx_it.o
    0x08003c98   0x08003c98   0x0000006c   Code   RO         3064    i.TIM_Base_SetConfig  stm32f1xx_hal_tim.o
    0x08003d04   0x08003d04   0x0000001a   Code   RO         3065    i.TIM_CCxChannelCmd  stm32f1xx_hal_tim.o
    0x08003d1e   0x08003d1e   0x00000014   Code   RO         3075    i.TIM_ETR_SetConfig  stm32f1xx_hal_tim.o
    0x08003d32   0x08003d32   0x00000010   Code   RO         3076    i.TIM_ITRx_SetConfig  stm32f1xx_hal_tim.o
    0x08003d42   0x08003d42   0x00000002   PAD
    0x08003d44   0x08003d44   0x00000050   Code   RO         3077    i.TIM_OC1_SetConfig  stm32f1xx_hal_tim.o
    0x08003d94   0x08003d94   0x00000058   Code   RO         3078    i.TIM_OC2_SetConfig  stm32f1xx_hal_tim.o
    0x08003dec   0x08003dec   0x00000058   Code   RO         3079    i.TIM_OC3_SetConfig  stm32f1xx_hal_tim.o
    0x08003e44   0x08003e44   0x00000044   Code   RO         3080    i.TIM_OC4_SetConfig  stm32f1xx_hal_tim.o
    0x08003e88   0x08003e88   0x00000022   Code   RO         3082    i.TIM_TI1_ConfigInputStage  stm32f1xx_hal_tim.o
    0x08003eaa   0x08003eaa   0x00000024   Code   RO         3084    i.TIM_TI2_ConfigInputStage  stm32f1xx_hal_tim.o
    0x08003ece   0x08003ece   0x00000002   PAD
    0x08003ed0   0x08003ed0   0x000000b8   Code   RO         3998    i.UART_SetConfig    stm32f1xx_hal_uart.o
    0x08003f88   0x08003f88   0x00000078   Code   RO         4001    i.UART_WaitOnFlagUntilTimeout  stm32f1xx_hal_uart.o
    0x08004000   0x08004000   0x00000004   Code   RO         4587    i.USB_CoreInit      stm32f1xx_ll_usb.o
    0x08004004   0x08004004   0x00000004   Code   RO         4591    i.USB_DevDisconnect  stm32f1xx_ll_usb.o
    0x08004008   0x08004008   0x00000012   Code   RO         4592    i.USB_DevInit       stm32f1xx_ll_usb.o
    0x0800401a   0x0800401a   0x0000000e   Code   RO         4593    i.USB_DisableGlobalInt  stm32f1xx_ll_usb.o
    0x08004028   0x08004028   0x00000004   Code   RO         4608    i.USB_SetCurrentMode  stm32f1xx_ll_usb.o
    0x0800402c   0x0800402c   0x00000002   Code   RO          790    i.UsageFault_Handler  stm32f1xx_it.o
    0x0800402e   0x0800402e   0x00000002   PAD
    0x08004030   0x08004030   0x00000020   Code   RO         8003    i.__0printf$3       mc_w.l(printf3.o)
    0x08004050   0x08004050   0x00000028   Code   RO         8005    i.__0sprintf$3      mc_w.l(printf3.o)
    0x08004078   0x08004078   0x00000020   Code   RO         1723    i.__NVIC_SetPriority  stm32f1xx_hal_cortex.o
    0x08004098   0x08004098   0x0000000e   Code   RO         8263    i.__scatterload_copy  mc_w.l(handlers.o)
    0x080040a6   0x080040a6   0x00000002   Code   RO         8264    i.__scatterload_null  mc_w.l(handlers.o)
    0x080040a8   0x080040a8   0x0000000e   Code   RO         8265    i.__scatterload_zeroinit  mc_w.l(handlers.o)
    0x080040b6   0x080040b6   0x00000002   PAD
    0x080040b8   0x080040b8   0x000001b8   Code   RO         8010    i._printf_core      mc_w.l(printf3.o)
    0x08004270   0x08004270   0x0000000a   Code   RO         8012    i._sputc            mc_w.l(printf3.o)
    0x0800427a   0x0800427a   0x00000002   PAD
    0x0800427c   0x0800427c   0x00000024   Code   RO         7867    i.buzzer_buzz       beep.o
    0x080042a0   0x080042a0   0x00000030   Code   RO         7868    i.buzzer_init       beep.o
    0x080042d0   0x080042d0   0x000001d0   Code   RO         7627    i.draw_bitmap       draw.o
    0x080044a0   0x080044a0   0x00000004   Code   RO         7629    i.draw_end          draw.o
    0x080044a4   0x080044a4   0x00000024   Code   RO         7630    i.draw_flushArea    draw.o
    0x080044c8   0x080044c8   0x00000018   Code   RO         7631    i.draw_init         draw.o
    0x080044e0   0x080044e0   0x000000b0   Code   RO         7632    i.draw_string       draw.o
    0x08004590   0x08004590   0x00000036   Code   RO         7633    i.draw_string_P     draw.o
    0x080045c6   0x080045c6   0x00000002   PAD
    0x080045c8   0x080045c8   0x0000001c   Code   RO         7578    i.fputc             driver_uart.o
    0x080045e4   0x080045e4   0x00000050   Code   RO         8175    i.free              mc_w.l(malloc.o)
    0x08004634   0x08004634   0x000003bc   Code   RO         7715    i.game1_draw        game1.o
    0x080049f0   0x080049f0   0x0000015c   Code   RO         7716    i.game1_task        game1.o
    0x08004b4c   0x08004b4c   0x0000003a   Code   RO           78    i.main              main.o
    0x08004b86   0x08004b86   0x00000002   PAD
    0x08004b88   0x08004b88   0x0000006c   Code   RO         8176    i.malloc            mc_w.l(malloc.o)
    0x08004bf4   0x08004bf4   0x0000001a   Code   RO         6695    i.mdelay            driver_timer.o
    0x08004c0e   0x08004c0e   0x00000002   PAD
    0x08004c10   0x08004c10   0x00000038   Code   RO         5920    i.osKernelInitialize  cmsis_os2.o
    0x08004c48   0x08004c48   0x00000040   Code   RO         5923    i.osKernelStart     cmsis_os2.o
    0x08004c88   0x08004c88   0x00000020   Code   RO         5401    i.pcTaskGetName     tasks.o
    0x08004ca8   0x08004ca8   0x000000c8   Code   RO         7717    i.platform_task     game1.o
    0x08004d70   0x08004d70   0x0000005c   Code   RO         5402    i.prvAddCurrentTaskToDelayedList  tasks.o
    0x08004dcc   0x08004dcc   0x000000d0   Code   RO         5403    i.prvAddNewTaskToReadyList  tasks.o
    0x08004e9c   0x08004e9c   0x00000058   Code   RO         5752    i.prvCheckForValidListAndQueue  timers.o
    0x08004ef4   0x08004ef4   0x00000026   Code   RO         4973    i.prvCopyDataFromQueue  queue.o
    0x08004f1a   0x08004f1a   0x0000006c   Code   RO         4974    i.prvCopyDataToQueue  queue.o
    0x08004f86   0x08004f86   0x00000034   Code   RO         5404    i.prvDeleteTCB      tasks.o
    0x08004fba   0x08004fba   0x00000002   PAD
    0x08004fbc   0x08004fbc   0x0000004c   Code   RO         6324    i.prvHeapInit       heap_4.o
    0x08005008   0x08005008   0x00000060   Code   RO         5405    i.prvIdleTask       tasks.o
    0x08005068   0x08005068   0x00000016   Code   RO         4975    i.prvInitialiseMutex  queue.o
    0x0800507e   0x0800507e   0x00000002   PAD
    0x08005080   0x08005080   0x00000026   Code   RO         4976    i.prvInitialiseNewQueue  queue.o
    0x080050a6   0x080050a6   0x0000009c   Code   RO         5406    i.prvInitialiseNewTask  tasks.o
    0x08005142   0x08005142   0x00000044   Code   RO         5753    i.prvInitialiseNewTimer  timers.o
    0x08005186   0x08005186   0x00000002   PAD
    0x08005188   0x08005188   0x0000004c   Code   RO         6325    i.prvInsertBlockIntoFreeList  heap_4.o
    0x080051d4   0x080051d4   0x00000038   Code   RO         5754    i.prvInsertTimerInActiveList  timers.o
    0x0800520c   0x0800520c   0x0000001c   Code   RO         4977    i.prvIsQueueEmpty   queue.o
    0x08005228   0x08005228   0x0000006c   Code   RO         4978    i.prvNotifyQueueSetContainer  queue.o
    0x08005294   0x08005294   0x000000cc   Code   RO         5755    i.prvProcessReceivedCommands  timers.o
    0x08005360   0x08005360   0x000000b4   Code   RO         5756    i.prvProcessTimerOrBlockTask  timers.o
    0x08005414   0x08005414   0x00000020   Code   RO         5408    i.prvResetNextTaskUnblockTime  tasks.o
    0x08005434   0x08005434   0x00000028   Code   RO         5757    i.prvSampleTimeNow  timers.o
    0x0800545c   0x0800545c   0x0000006c   Code   RO         5758    i.prvSwitchTimerLists  timers.o
    0x080054c8   0x080054c8   0x00000014   Code   RO         5409    i.prvTaskCheckFreeStackSpace  tasks.o
    0x080054dc   0x080054dc   0x00000028   Code   RO         6375    i.prvTaskExitError  port.o
    0x08005504   0x08005504   0x00000014   Code   RO         4814    i.prvTestWaitCondition  event_groups.o
    0x08005518   0x08005518   0x00000024   Code   RO         5759    i.prvTimerTask      timers.o
    0x0800553c   0x0800553c   0x00000078   Code   RO         4979    i.prvUnlockQueue    queue.o
    0x080055b4   0x080055b4   0x000000d8   Code   RO         6326    i.pvPortMalloc      heap_4.o
    0x0800568c   0x0800568c   0x00000018   Code   RO         5411    i.pvTaskIncrementMutexHeldCount  tasks.o
    0x080056a4   0x080056a4   0x00000024   Code   RO         6376    i.pxPortInitialiseStack  port.o
    0x080056c8   0x080056c8   0x0000000c   Code   RO         7634    i.readPixels        draw.o
    0x080056d4   0x080056d4   0x00000018   Code   RO         7635    i.setBuffByte       draw.o
    0x080056ec   0x080056ec   0x00000016   Code   RO         7636    i.set_bits          draw.o
    0x08005702   0x08005702   0x00000002   PAD
    0x08005704   0x08005704   0x00000044   Code   RO         6696    i.system_get_ns     driver_timer.o
    0x08005748   0x08005748   0x00000038   Code   RO         6697    i.udelay            driver_timer.o
    0x08005780   0x08005780   0x00000026   Code   RO         4933    i.uxListRemove      list.o
    0x080057a6   0x080057a6   0x00000002   PAD
    0x080057a8   0x080057a8   0x00000010   Code   RO         5414    i.uxTaskGetStackHighWaterMark  tasks.o
    0x080057b8   0x080057b8   0x00000018   Code   RO         5419    i.uxTaskResetEventItemValue  tasks.o
    0x080057d0   0x080057d0   0x00000014   Code   RO         5969    i.vApplicationGetIdleTaskMemory  cmsis_os2.o
    0x080057e4   0x080057e4   0x00000018   Code   RO         5970    i.vApplicationGetTimerTaskMemory  cmsis_os2.o
    0x080057fc   0x080057fc   0x00000004   Code   RO         4818    i.vEventGroupSetBitsCallback  event_groups.o
    0x08005800   0x08005800   0x00000016   Code   RO         4934    i.vListInitialise   list.o
    0x08005816   0x08005816   0x00000006   Code   RO         4935    i.vListInitialiseItem  list.o
    0x0800581c   0x0800581c   0x00000030   Code   RO         4936    i.vListInsert       list.o
    0x0800584c   0x0800584c   0x00000018   Code   RO         4937    i.vListInsertEnd    list.o
    0x08005864   0x08005864   0x00000040   Code   RO         6378    i.vPortEnterCritical  port.o
    0x080058a4   0x080058a4   0x00000028   Code   RO         6379    i.vPortExitCritical  port.o
    0x080058cc   0x080058cc   0x0000005c   Code   RO         6327    i.vPortFree         heap_4.o
    0x08005928   0x08005928   0x00000024   Code   RO         6380    i.vPortSetupTimerInterrupt  port.o
    0x0800594c   0x0800594c   0x00000054   Code   RO         6381    i.vPortValidateInterruptPriority  port.o
    0x080059a0   0x080059a0   0x00000028   Code   RO         4985    i.vQueueAddToRegistry  queue.o
    0x080059c8   0x080059c8   0x00000044   Code   RO         4989    i.vQueueWaitForMessageRestricted  queue.o
    0x08005a0c   0x08005a0c   0x0000004c   Code   RO         5420    i.vTaskDelay        tasks.o
    0x08005a58   0x08005a58   0x00000010   Code   RO         5425    i.vTaskInternalSetTimeOutState  tasks.o
    0x08005a68   0x08005a68   0x0000000c   Code   RO         5426    i.vTaskMissedYield  tasks.o
    0x08005a74   0x08005a74   0x00000030   Code   RO         5428    i.vTaskPlaceOnEventList  tasks.o
    0x08005aa4   0x08005aa4   0x00000038   Code   RO         5429    i.vTaskPlaceOnEventListRestricted  tasks.o
    0x08005adc   0x08005adc   0x00000050   Code   RO         5430    i.vTaskPlaceOnUnorderedEventList  tasks.o
    0x08005b2c   0x08005b2c   0x00000090   Code   RO         5431    i.vTaskPriorityDisinheritAfterTimeout  tasks.o
    0x08005bbc   0x08005bbc   0x00000070   Code   RO         5433    i.vTaskRemoveFromUnorderedEventList  tasks.o
    0x08005c2c   0x08005c2c   0x00000088   Code   RO         5437    i.vTaskStartScheduler  tasks.o
    0x08005cb4   0x08005cb4   0x00000010   Code   RO         5439    i.vTaskSuspendAll   tasks.o
    0x08005cc4   0x08005cc4   0x00000064   Code   RO         5440    i.vTaskSwitchContext  tasks.o
    0x08005d28   0x08005d28   0x0000001c   Code   RO         4822    i.xEventGroupCreate  event_groups.o
    0x08005d44   0x08005d44   0x0000008c   Code   RO         4825    i.xEventGroupSetBits  event_groups.o
    0x08005dd0   0x08005dd0   0x00000010   Code   RO         4826    i.xEventGroupSetBitsFromISR  event_groups.o
    0x08005de0   0x08005de0   0x00000108   Code   RO         4828    i.xEventGroupWaitBits  event_groups.o
    0x08005ee8   0x08005ee8   0x000000a8   Code   RO         6382    i.xPortStartScheduler  port.o
    0x08005f90   0x08005f90   0x00000022   Code   RO         4990    i.xQueueAddToSet    queue.o
    0x08005fb2   0x08005fb2   0x00000016   Code   RO         4993    i.xQueueCreateMutex  queue.o
    0x08005fc8   0x08005fc8   0x00000008   Code   RO         4995    i.xQueueCreateSet   queue.o
    0x08005fd0   0x08005fd0   0x00000048   Code   RO         4996    i.xQueueGenericCreate  queue.o
    0x08006018   0x08006018   0x00000066   Code   RO         4997    i.xQueueGenericCreateStatic  queue.o
    0x0800607e   0x0800607e   0x00000002   PAD
    0x08006080   0x08006080   0x00000088   Code   RO         4998    i.xQueueGenericReset  queue.o
    0x08006108   0x08006108   0x0000016c   Code   RO         4999    i.xQueueGenericSend  queue.o
    0x08006274   0x08006274   0x000000ca   Code   RO         5000    i.xQueueGenericSendFromISR  queue.o
    0x0800633e   0x0800633e   0x00000002   PAD
    0x08006340   0x08006340   0x00000138   Code   RO         5009    i.xQueueReceive     queue.o
    0x08006478   0x08006478   0x00000012   Code   RO         5012    i.xQueueSelectFromSet  queue.o
    0x0800648a   0x0800648a   0x00000002   PAD
    0x0800648c   0x0800648c   0x00000178   Code   RO         5014    i.xQueueSemaphoreTake  queue.o
    0x08006604   0x08006604   0x00000074   Code   RO         5441    i.xTaskCheckForTimeOut  tasks.o
    0x08006678   0x08006678   0x0000005a   Code   RO         5442    i.xTaskCreate       tasks.o
    0x080066d2   0x080066d2   0x00000056   Code   RO         5443    i.xTaskCreateStatic  tasks.o
    0x08006728   0x08006728   0x0000000c   Code   RO         5446    i.xTaskGetCurrentTaskHandle  tasks.o
    0x08006734   0x08006734   0x0000001c   Code   RO         5447    i.xTaskGetSchedulerState  tasks.o
    0x08006750   0x08006750   0x0000000c   Code   RO         5448    i.xTaskGetTickCount  tasks.o
    0x0800675c   0x0800675c   0x000000c8   Code   RO         5450    i.xTaskIncrementTick  tasks.o
    0x08006824   0x08006824   0x00000080   Code   RO         5453    i.xTaskPriorityDisinherit  tasks.o
    0x080068a4   0x080068a4   0x00000078   Code   RO         5454    i.xTaskPriorityInherit  tasks.o
    0x0800691c   0x0800691c   0x00000070   Code   RO         5455    i.xTaskRemoveFromEventList  tasks.o
    0x0800698c   0x0800698c   0x000000c4   Code   RO         5456    i.xTaskResumeAll    tasks.o
    0x08006a50   0x08006a50   0x00000034   Code   RO         5764    i.xTimerCreate      timers.o
    0x08006a84   0x08006a84   0x00000060   Code   RO         5766    i.xTimerCreateTimerTask  timers.o
    0x08006ae4   0x08006ae4   0x00000068   Code   RO         5767    i.xTimerGenericCommand  timers.o
    0x08006b4c   0x08006b4c   0x00000028   Code   RO         5773    i.xTimerPendFunctionCallFromISR  timers.o
    0x08006b74   0x08006b74   0x00000012   Data   RO         1421    .constdata          stm32f1xx_hal_rcc.o
    0x08006b86   0x08006b86   0x00000010   Data   RO         4772    .constdata          system_stm32f1xx.o
    0x08006b96   0x08006b96   0x00000008   Data   RO         4773    .constdata          system_stm32f1xx.o
    0x08006b9e   0x08006b9e   0x00000800   Data   RO         6512    .constdata          driver_oled.o
    0x0800739e   0x0800739e   0x0000001d   Data   RO         7719    .constdata          game1.o
    0x080073bb   0x080073bb   0x00000007   Data   RO         7772    .constdata          resources.o
    0x080073c2   0x080073c2   0x000001e5   Data   RO         7794    .constdata          resources.o
    0x080075a7   0x080075a7   0x00000001   PAD
    0x080075a8   0x080075a8   0x00000020   Data   RO         8261    Region$$Table       anon$$obj.o


    Execution Region RW_IRAM1 (Exec base: 0x20000000, Load base: 0x080075c8, Size: 0x00004420, Max: 0x00005000, ABSOLUTE, COMPRESSED[0x00000028])

    Exec Addr    Load Addr    Size         Type   Attr      Idx    E Section Name        Object

    0x20000000   COMPRESSED   0x0000000c   Data   RW          391    .data               freertos.o
    0x2000000c   COMPRESSED   0x0000000c   Data   RW         1258    .data               stm32f1xx_hal.o
    0x20000018   COMPRESSED   0x00000004   Data   RW         4774    .data               system_stm32f1xx.o
    0x2000001c   COMPRESSED   0x0000003c   Data   RW         5459    .data               tasks.o
    0x20000058   COMPRESSED   0x00000014   Data   RW         5775    .data               timers.o
    0x2000006c   COMPRESSED   0x00000004   Data   RW         5972    .data               cmsis_os2.o
    0x20000070   COMPRESSED   0x00000018   Data   RW         6332    .data               heap_4.o
    0x20000088   COMPRESSED   0x0000000c   Data   RW         6383    .data               port.o
    0x20000094   COMPRESSED   0x00000008   Data   RW         6513    .data               driver_oled.o
    0x2000009c   COMPRESSED   0x0000000c   Data   RW         6626    .data               driver_mpu6050.o
    0x200000a8   COMPRESSED   0x00000004   Data   RW         6997    .data               driver_passive_buzzer.o
    0x200000ac   COMPRESSED   0x00000004   Data   RW         7047    .data               driver_color_led.o
    0x200000b0   COMPRESSED   0x00000020   Data   RW         7098    .data               driver_ir_receiver.o
    0x200000d0   COMPRESSED   0x00000018   Data   RW         7416    .data               driver_rotary_encoder.o
    0x200000e8   COMPRESSED   0x00000004   Data   RW         7579    .data               driver_uart.o
    0x200000ec   COMPRESSED   0x00000010   Data   RW         7637    .data               draw.o
    0x200000fc   COMPRESSED   0x0000004c   Data   RW         7720    .data               game1.o
    0x20000148   COMPRESSED   0x00000004   Data   RW         7869    .data               beep.o
    0x2000014c   COMPRESSED   0x00000004   Data   RW         7900    .data               mc_w.l(rand.o)
    0x20000150   COMPRESSED   0x00000004   Data   RW         8239    .data               mc_w.l(stdout.o)
    0x20000154   COMPRESSED   0x00000004   Data   RW         8246    .data               mc_w.l(mvars.o)
    0x20000158   COMPRESSED   0x00000004   Data   RW         8247    .data               mc_w.l(mvars.o)
    0x2000015c        -       0x000003f8   Zero   RW          388    .bss                freertos.o
    0x20000554        -       0x00000030   Zero   RW          503    .bss                adc.o
    0x20000584        -       0x00000054   Zero   RW          545    .bss                i2c.o
    0x200005d8        -       0x00000058   Zero   RW          587    .bss                spi.o
    0x20000630        -       0x000000d8   Zero   RW          634    .bss                tim.o
    0x20000708        -       0x00000048   Zero   RW          701    .bss                usart.o
    0x20000750        -       0x000002f0   Zero   RW          743    .bss                usb.o
    0x20000a40        -       0x00000048   Zero   RW          885    .bss                stm32f1xx_hal_timebase_tim.o
    0x20000a88        -       0x00000040   Zero   RW         5016    .bss                queue.o
    0x20000ac8        -       0x000004c4   Zero   RW         5458    .bss                tasks.o
    0x20000f8c        -       0x0000011c   Zero   RW         5774    .bss                timers.o
    0x200010a8        -       0x000006b8   Zero   RW         5971    .bss                cmsis_os2.o
    0x20001760        -       0x00001f40   Zero   RW         6331    .bss                heap_4.o
    0x200036a0        -       0x00000400   Zero   RW         6511    .bss                driver_oled.o
    0x20003aa0        -       0x000002c8   Zero   RW         7095    .bss                driver_ir_receiver.o
    0x20003d68        -       0x000000a4   Zero   RW         7415    .bss                driver_rotary_encoder.o
    0x20003e0c        -       0x00000010   Zero   RW         7718    .bss                game1.o
    0x20003e1c   COMPRESSED   0x00000004   PAD
    0x20003e20        -       0x00000200   Zero   RW            2    HEAP                startup_stm32f103xb.o
    0x20004020        -       0x00000400   Zero   RW            1    STACK               startup_stm32f103xb.o


==============================================================================

Image component sizes


      Code (inc. data)   RO Data    RW Data    ZI Data      Debug   Object Name

       168         22          0          0         48       1641   adc.o
        90         26          0          4          0       1590   beep.o
       164         22          0          4       1720      12190   cmsis_os2.o
       816         24          0         16          0       9174   draw.o
       200         10          0          4          0       2111   driver_color_led.o
       304         18          0          0          0       4310   driver_dht11.o
       608         84          0         32        712       6055   driver_ir_receiver.o
        30          0          0          0          0        537   driver_irq.o
        24          0          0          0          0       3452   driver_lcd.o
       212         44          0          0          0       2184   driver_led.o
       570         36          0         12          0       5866   driver_mpu6050.o
       664         46       2048          8       1024      10231   driver_oled.o
       264         30          0          4          0       2695   driver_passive_buzzer.o
       200         32          0         24        164       4176   driver_rotary_encoder.o
       150         14          0          0          0       2398   driver_timer.o
        28          6          0          4          0       2524   driver_uart.o
       472          8          0          0          0      24660   event_groups.o
       224         82          0         12       1016      12500   freertos.o
      1892        178         29         76         16       7106   game1.o
       352         26          0          0          0     465335   gpio.o
       460         24          0         24       8000       4623   heap_4.o
       156         26          0          0         84       1629   i2c.o
       138          0          0          0          0       3350   list.o
       206          6          0          0          0     423628   main.o
         0          0          0          0          0      23428   music.o
       662         70          0         12          0      10717   port.o
      2216         22          0          0         64      21137   queue.o
         0          0        492          0          0       2981   resources.o
       184         24          0          0         88       1653   spi.o
        36          8        236          0       1536        804   startup_stm32f103xb.o
        64         14          0         12          0       4638   stm32f1xx_hal.o
       622         24          0          0          0       3300   stm32f1xx_hal_adc.o
       158         14          0          0          0      28178   stm32f1xx_hal_cortex.o
       524         40          0          0          0       4114   stm32f1xx_hal_gpio.o
      2826         72          0          0          0      14952   stm32f1xx_hal_i2c.o
        72         10          0          0          0        870   stm32f1xx_hal_msp.o
       218          0          0          0          0       1508   stm32f1xx_hal_pcd.o
      1304         94         18          0          0       5737   stm32f1xx_hal_rcc.o
       236         12          0          0          0       1380   stm32f1xx_hal_rcc_ex.o
       178          0          0          0          0       1231   stm32f1xx_hal_spi.o
      1982         62          0          0          0      16901   stm32f1xx_hal_tim.o
       192         12          0          0          0       3189   stm32f1xx_hal_tim_ex.o
       152         20          0          0         72       1475   stm32f1xx_hal_timebase_tim.o
       558          6          0          0          0       3972   stm32f1xx_hal_uart.o
        60          6          0          0          0       3939   stm32f1xx_it.o
        44          0          0          0          0       3328   stm32f1xx_ll_usb.o
         0          0          0          0          0       8872   stream_buffer.o
         2          0         24          4          0       1119   system_stm32f1xx.o
      2648        226          0         60       1220      30312   tasks.o
       896         76          0          0        216       5065   tim.o
      1072         88          0         20        284      28514   timers.o
       168         20          0          0         72       1678   usart.o
        92         20          0          0        752       1530   usb.o

    ----------------------------------------------------------------------
     25620       1704       2880        332      17092    1250487   Object Totals
         0          0         32          0          0          0   (incl. Generated)
        62          0          1          0          4          0   (incl. Padding)

    ----------------------------------------------------------------------

      Code (inc. data)   RO Data    RW Data    ZI Data      Debug   Library Member Name

        86          0          0          0          0          0   __dczerorl2.o
         0          0          0          0          0          0   entry.o
         0          0          0          0          0          0   entry10a.o
         0          0          0          0          0          0   entry11a.o
         8          4          0          0          0          0   entry2.o
         4          0          0          0          0          0   entry5.o
         0          0          0          0          0          0   entry7b.o
         0          0          0          0          0          0   entry8b.o
         8          4          0          0          0          0   entry9a.o
        30          0          0          0          0          0   handlers.o
        36          8          0          0          0         68   init.o
         0          0          0          0          0          0   iusefp.o
        30          0          0          0          0         68   llshl.o
        32          0          0          0          0         68   llushr.o
       188         20          0          0          0        160   malloc.o
        36          0          0          0          0         68   memcpya.o
        36          0          0          0          0        108   memseta.o
         0          0          0          8          0          0   mvars.o
       522         20          0          0          0        336   printf3.o
        36         10          0          4          0        136   rand.o
         0          0          0          4          0          0   stdout.o
        18          0          0          0          0         68   strcpy.o
        14          0          0          0          0         68   strlen.o
        44          0          0          0          0         80   uidiv.o
        98          0          0          0          0         92   uldiv.o
        20          0          0          0          0         68   cfcmple.o
        20          0          0          0          0         68   cfrcmple.o
       176          0          0          0          0        140   fadd.o
       110          0          0          0          0        168   fepilogue.o
        40          0          0          0          0         68   ffixui.o
        18          0          0          0          0         68   fflti.o
        10          0          0          0          0         68   ffltui.o
        24          0          0          0          0         68   fscalb.o

    ----------------------------------------------------------------------
      1652         66          0         16          0       2036   Library Totals
         8          0          0          0          0          0   (incl. Padding)

    ----------------------------------------------------------------------

      Code (inc. data)   RO Data    RW Data    ZI Data      Debug   Library Name

      1226         66          0         16          0       1320   mc_w.l
       418          0          0          0          0        716   mf_w.l

    ----------------------------------------------------------------------
      1652         66          0         16          0       2036   Library Totals

    ----------------------------------------------------------------------

==============================================================================


      Code (inc. data)   RO Data    RW Data    ZI Data      Debug   

     27272       1770       2880        348      17092    1237623   Grand Totals
     27272       1770       2880         40      17092    1237623   ELF Image Totals (compressed)
     27272       1770       2880         40          0          0   ROM Totals

==============================================================================

    Total RO  Size (Code + RO Data)                30152 (  29.45kB)
    Total RW  Size (RW Data + ZI Data)             17440 (  17.03kB)
    Total ROM Size (Code + RO Data + RW Data)      30192 (  29.48kB)

==============================================================================

