Component: ARM Compiler 5.06 update 5 (build 528) Tool: armlink [4d35e2]

==============================================================================

Section Cross References

    startup_stm32f103xb.o(RESET) refers to startup_stm32f103xb.o(STACK) for __initial_sp
    startup_stm32f103xb.o(RESET) refers to startup_stm32f103xb.o(.text) for Reset_Handler
    startup_stm32f103xb.o(RESET) refers to stm32f1xx_it.o(i.NMI_Handler) for NMI_Handler
    startup_stm32f103xb.o(RESET) refers to stm32f1xx_it.o(i.HardFault_Handler) for HardFault_Handler
    startup_stm32f103xb.o(RESET) refers to stm32f1xx_it.o(i.MemManage_Handler) for MemManage_Handler
    startup_stm32f103xb.o(RESET) refers to stm32f1xx_it.o(i.BusFault_Handler) for BusFault_Handler
    startup_stm32f103xb.o(RESET) refers to stm32f1xx_it.o(i.UsageFault_Handler) for UsageFault_Handler
    startup_stm32f103xb.o(RESET) refers to port.o(.emb_text) for SVC_Handler
    startup_stm32f103xb.o(RESET) refers to stm32f1xx_it.o(i.DebugMon_Handler) for DebugMon_Handler
    startup_stm32f103xb.o(RESET) refers to port.o(i.SysTick_Handler) for SysTick_Handler
    startup_stm32f103xb.o(RESET) refers to stm32f1xx_it.o(i.EXTI9_5_IRQHandler) for EXTI9_5_IRQHandler
    startup_stm32f103xb.o(RESET) refers to stm32f1xx_it.o(i.TIM4_IRQHandler) for TIM4_IRQHandler
    startup_stm32f103xb.o(RESET) refers to stm32f1xx_it.o(i.EXTI15_10_IRQHandler) for EXTI15_10_IRQHandler
    startup_stm32f103xb.o(.text) refers to system_stm32f1xx.o(i.SystemInit) for SystemInit
    startup_stm32f103xb.o(.text) refers to entry.o(.ARM.Collect$$$$00000000) for __main
    music.o(i.MUSIC_Analysis) refers to driver_passive_buzzer.o(i.PassiveBuzzer_Set_Freq_Duty) for PassiveBuzzer_Set_Freq_Duty
    music.o(i.MUSIC_Analysis) refers to tasks.o(i.vTaskDelay) for vTaskDelay
    music.o(i.MUSIC_Analysis) refers to music.o(.data) for .data
==============================================================================

Removing Unused input sections from the image.

    Removing music.o(i.MUSIC_Analysis), (80 bytes).
    Removing music.o(i.PlayMusic), (10 bytes).
    Removing music.o(.data), (3990 bytes).
    Removing main.o(.rev16_text), (4 bytes).
    Removing main.o(.revsh_text), (4 bytes).
    Removing main.o(.rrx_text), (6 bytes).
    Removing gpio.o(.rev16_text), (4 bytes).
    Removing gpio.o(.revsh_text), (4 bytes).
    Removing gpio.o(.rrx_text), (6 bytes).
    Removing freertos.o(.rev16_text), (4 bytes).
    Removing freertos.o(.revsh_text), (4 bytes).
    Removing freertos.o(.rrx_text), (6 bytes).
    Removing freertos.o(i.StartDefaultTask), (14 bytes).
    Removing freertos.o(.constdata), (36 bytes).
    Removing freertos.o(.conststring), (12 bytes).
    Removing freertos.o(.data), (4 bytes).
    Removing adc.o(.rev16_text), (4 bytes).
    Removing adc.o(.revsh_text), (4 bytes).
==============================================================================

Image Symbol Table

    Local Symbols

    Symbol Name                              Value     Ov Type        Size  Object(Section)

    ../Core/Src/adc.c                        0x00000000   Number         0  adc.o ABSOLUTE
    ../Core/Src/freertos.c                   0x00000000   Number         0  freertos.o ABSOLUTE
    ../Core/Src/gpio.c                       0x00000000   Number         0  gpio.o ABSOLUTE
    ../Core/Src/i2c.c                        0x00000000   Number         0  i2c.o ABSOLUTE
    ../Core/Src/main.c                       0x00000000   Number         0  main.o ABSOLUTE
    ../Core/Src/spi.c                        0x00000000   Number         0  spi.o ABSOLUTE
    ../Core/Src/stm32f1xx_hal_msp.c          0x00000000   Number         0  stm32f1xx_hal_msp.o ABSOLUTE
    ../Core/Src/stm32f1xx_hal_timebase_tim.c 0x00000000   Number         0  stm32f1xx_hal_timebase_tim.o ABSOLUTE
    ../Core/Src/stm32f1xx_it.c               0x00000000   Number         0  stm32f1xx_it.o ABSOLUTE
    ../Core/Src/system_stm32f1xx.c           0x00000000   Number         0  system_stm32f1xx.o ABSOLUTE
    ../Core/Src/tim.c                        0x00000000   Number         0  tim.o ABSOLUTE
    ../Core/Src/usart.c                      0x00000000   Number         0  usart.o ABSOLUTE
    ../Core/Src/usb.c                        0x00000000   Number         0  usb.o ABSOLUTE
    ../Drivers/STM32F1xx_HAL_Driver/Src/stm32f1xx_hal.c 0x00000000   Number         0  stm32f1xx_hal.o ABSOLUTE
    ../Drivers/STM32F1xx_HAL_Driver/Src/stm32f1xx_hal_adc.c 0x00000000   Number         0  stm32f1xx_hal_adc.o ABSOLUTE
    ../Drivers/STM32F1xx_HAL_Driver/Src/stm32f1xx_hal_adc_ex.c 0x00000000   Number         0  stm32f1xx_hal_adc_ex.o ABSOLUTE
    ../Drivers/STM32F1xx_HAL_Driver/Src/stm32f1xx_hal_cortex.c 0x00000000   Number         0  stm32f1xx_hal_cortex.o ABSOLUTE
    ../Drivers/STM32F1xx_HAL_Driver/Src/stm32f1xx_hal_dma.c 0x00000000   Number         0  stm32f1xx_hal_dma.o ABSOLUTE
    ../Drivers/STM32F1xx_HAL_Driver/Src/stm32f1xx_hal_exti.c 0x00000000   Number         0  stm32f1xx_hal_exti.o ABSOLUTE
    ../Drivers/STM32F1xx_HAL_Driver/Src/stm32f1xx_hal_flash.c 0x00000000   Number         0  stm32f1xx_hal_flash.o ABSOLUTE
    ../Drivers/STM32F1xx_HAL_Driver/Src/stm32f1xx_hal_flash_ex.c 0x00000000   Number         0  stm32f1xx_hal_flash_ex.o ABSOLUTE
    ../Drivers/STM32F1xx_HAL_Driver/Src/stm32f1xx_hal_gpio.c 0x00000000   Number         0  stm32f1xx_hal_gpio.o ABSOLUTE
    ../Drivers/STM32F1xx_HAL_Driver/Src/stm32f1xx_hal_gpio_ex.c 0x00000000   Number         0  stm32f1xx_hal_gpio_ex.o ABSOLUTE
    ../Drivers/STM32F1xx_HAL_Driver/Src/stm32f1xx_hal_i2c.c 0x00000000   Number         0  stm32f1xx_hal_i2c.o ABSOLUTE
    ../Drivers/STM32F1xx_HAL_Driver/Src/stm32f1xx_hal_pcd.c 0x00000000   Number         0  stm32f1xx_hal_pcd.o ABSOLUTE
    ../Drivers/STM32F1xx_HAL_Driver/Src/stm32f1xx_hal_pcd_ex.c 0x00000000   Number         0  stm32f1xx_hal_pcd_ex.o ABSOLUTE
    ../Drivers/STM32F1xx_HAL_Driver/Src/stm32f1xx_hal_pwr.c 0x00000000   Number         0  stm32f1xx_hal_pwr.o ABSOLUTE
    ../Drivers/STM32F1xx_HAL_Driver/Src/stm32f1xx_hal_rcc.c 0x00000000   Number         0  stm32f1xx_hal_rcc.o ABSOLUTE
    ../Drivers/STM32F1xx_HAL_Driver/Src/stm32f1xx_hal_rcc_ex.c 0x00000000   Number         0  stm32f1xx_hal_rcc_ex.o ABSOLUTE
    ../Drivers/STM32F1xx_HAL_Driver/Src/stm32f1xx_hal_spi.c 0x00000000   Number         0  stm32f1xx_hal_spi.o ABSOLUTE
    ../Drivers/STM32F1xx_HAL_Driver/Src/stm32f1xx_hal_tim.c 0x00000000   Number         0  stm32f1xx_hal_tim.o ABSOLUTE
    ../Drivers/STM32F1xx_HAL_Driver/Src/stm32f1xx_hal_tim_ex.c 0x00000000   Number         0  stm32f1xx_hal_tim_ex.o ABSOLUTE
    ../Drivers/STM32F1xx_HAL_Driver/Src/stm32f1xx_hal_uart.c 0x00000000   Number         0  stm32f1xx_hal_uart.o ABSOLUTE
    ../Drivers/STM32F1xx_HAL_Driver/Src/stm32f1xx_ll_usb.c 0x00000000   Number         0  stm32f1xx_ll_usb.o ABSOLUTE
    ../Middlewares/Third_Party/FreeRTOS/Source/CMSIS_RTOS_V2/cmsis_os2.c 0x00000000   Number         0  cmsis_os2.o ABSOLUTE
    ../Middlewares/Third_Party/FreeRTOS/Source/croutine.c 0x00000000   Number         0  croutine.o ABSOLUTE
    ../Middlewares/Third_Party/FreeRTOS/Source/event_groups.c 0x00000000   Number         0  event_groups.o ABSOLUTE
    ../Middlewares/Third_Party/FreeRTOS/Source/list.c 0x00000000   Number         0  list.o ABSOLUTE
    ../Middlewares/Third_Party/FreeRTOS/Source/portable/MemMang/heap_4.c 0x00000000   Number         0  heap_4.o ABSOLUTE
    ../Middlewares/Third_Party/FreeRTOS/Source/portable/RVDS/ARM_CM3/port.c 0x00000000   Number         0  port.o ABSOLUTE
    ../Middlewares/Third_Party/FreeRTOS/Source/queue.c 0x00000000   Number         0  queue.o ABSOLUTE
    ../Middlewares/Third_Party/FreeRTOS/Source/stream_buffer.c 0x00000000   Number         0  stream_buffer.o ABSOLUTE
    ../Middlewares/Third_Party/FreeRTOS/Source/tasks.c 0x00000000   Number         0  tasks.o ABSOLUTE
    ../Middlewares/Third_Party/FreeRTOS/Source/timers.c 0x00000000   Number         0  timers.o ABSOLUTE
    ../clib/../cmprslib/zerorunl2.c          0x00000000   Number         0  __dczerorl2.o ABSOLUTE
    ../clib/microlib/division.c              0x00000000   Number         0  uidiv.o ABSOLUTE
    ../clib/microlib/division.c              0x00000000   Number         0  uldiv.o ABSOLUTE
    ../clib/microlib/init/entry.s            0x00000000   Number         0  entry11b.o ABSOLUTE
    ../clib/microlib/init/entry.s            0x00000000   Number         0  entry9a.o ABSOLUTE
    ../clib/microlib/init/entry.s            0x00000000   Number         0  entry8b.o ABSOLUTE
    ../clib/microlib/init/entry.s            0x00000000   Number         0  entry2.o ABSOLUTE
    ../clib/microlib/init/entry.s            0x00000000   Number         0  entry8a.o ABSOLUTE
    ../clib/microlib/init/entry.s            0x00000000   Number         0  entry5.o ABSOLUTE
    ../clib/microlib/init/entry.s            0x00000000   Number         0  entry7a.o ABSOLUTE
    ../clib/microlib/init/entry.s            0x00000000   Number         0  entry.o ABSOLUTE
    ../clib/microlib/init/entry.s            0x00000000   Number         0  entry7b.o ABSOLUTE
    ../clib/microlib/init/entry.s            0x00000000   Number         0  entry10b.o ABSOLUTE
    ../clib/microlib/init/entry.s            0x00000000   Number         0  entry11a.o ABSOLUTE
    ../clib/microlib/init/entry.s            0x00000000   Number         0  entry10a.o ABSOLUTE
    ../clib/microlib/init/entry.s            0x00000000   Number         0  entry9b.o ABSOLUTE
    ../clib/microlib/longlong.c              0x00000000   Number         0  llushr.o ABSOLUTE
    ../clib/microlib/longlong.c              0x00000000   Number         0  llsshr.o ABSOLUTE
    ../clib/microlib/longlong.c              0x00000000   Number         0  llshl.o ABSOLUTE
    ../clib/microlib/malloc/malloc.c         0x00000000   Number         0  malloca.o ABSOLUTE
    ../clib/microlib/malloc/malloc.c         0x00000000   Number         0  mallocr.o ABSOLUTE
    ../clib/microlib/malloc/malloc.c         0x00000000   Number         0  malloc.o ABSOLUTE
    ../clib/microlib/malloc/malloc.c         0x00000000   Number         0  mallocra.o ABSOLUTE
    ../clib/microlib/malloc/mvars.c          0x00000000   Number         0  mvars.o ABSOLUTE
    ../clib/microlib/printf/printf.c         0x00000000   Number         0  printfa.o ABSOLUTE
    ../clib/microlib/printf/printf.c         0x00000000   Number         0  printfb.o ABSOLUTE
    ../clib/microlib/printf/printf.c         0x00000000   Number         0  printf0.o ABSOLUTE
    ../clib/microlib/printf/printf.c         0x00000000   Number         0  printf1.o ABSOLUTE
    ../clib/microlib/printf/printf.c         0x00000000   Number         0  printf3.o ABSOLUTE
    ../clib/microlib/printf/printf.c         0x00000000   Number         0  printf4.o ABSOLUTE
    ../clib/microlib/printf/printf.c         0x00000000   Number         0  printf5.o ABSOLUTE
    ../clib/microlib/printf/printf.c         0x00000000   Number         0  printf2.o ABSOLUTE
    ../clib/microlib/printf/printf.c         0x00000000   Number         0  printf6.o ABSOLUTE
    ../clib/microlib/printf/printf.c         0x00000000   Number         0  printf7.o ABSOLUTE
    ../clib/microlib/printf/printf.c         0x00000000   Number         0  printf8.o ABSOLUTE
    ../clib/microlib/printf/stubs.s          0x00000000   Number         0  stubs.o ABSOLUTE
    ../clib/microlib/stdio/streams.c         0x00000000   Number         0  stdout.o ABSOLUTE
    ../clib/microlib/stdlib/rand.c           0x00000000   Number         0  rand.o ABSOLUTE
    ../clib/microlib/string/memcpy.c         0x00000000   Number         0  memcpyb.o ABSOLUTE
    ../clib/microlib/string/memcpy.c         0x00000000   Number         0  memcpya.o ABSOLUTE
    ../clib/microlib/string/memset.c         0x00000000   Number         0  memset.o ABSOLUTE
    ../clib/microlib/string/memset.c         0x00000000   Number         0  memseta.o ABSOLUTE
    ../clib/microlib/string/strcpy.c         0x00000000   Number         0  strcpy.o ABSOLUTE
    ../clib/microlib/string/strlen.c         0x00000000   Number         0  strlen.o ABSOLUTE
    ../clib/microlib/stubs.s                 0x00000000   Number         0  iusefp.o ABSOLUTE
    ../fplib/microlib/fpadd.c                0x00000000   Number         0  dadd.o ABSOLUTE
    ../fplib/microlib/fpadd.c                0x00000000   Number         0  fadd.o ABSOLUTE
    ../fplib/microlib/fpdiv.c                0x00000000   Number         0  ddiv.o ABSOLUTE
    ../fplib/microlib/fpepilogue.c           0x00000000   Number         0  fepilogue.o ABSOLUTE
    ../fplib/microlib/fpepilogue.c           0x00000000   Number         0  depilogue.o ABSOLUTE
    ../fplib/microlib/fpfix.c                0x00000000   Number         0  dfixi.o ABSOLUTE
    ../fplib/microlib/fpfix.c                0x00000000   Number         0  ffixui.o ABSOLUTE
    ../fplib/microlib/fpfix.c                0x00000000   Number         0  dfixul.o ABSOLUTE
    ../fplib/microlib/fpflt.c                0x00000000   Number         0  ffltui.o ABSOLUTE
    ../fplib/microlib/fpflt.c                0x00000000   Number         0  fflti.o ABSOLUTE
    ../fplib/microlib/fpflt.c                0x00000000   Number         0  dflti.o ABSOLUTE
    ../fplib/microlib/fpmul.c                0x00000000   Number         0  dmul.o ABSOLUTE
    ../fplib/microlib/fpscalb.c              0x00000000   Number         0  fscalb.o ABSOLUTE
    ..\Core\Src\adc.c                        0x00000000   Number         0  adc.o ABSOLUTE
    ..\Core\Src\freertos.c                   0x00000000   Number         0  freertos.o ABSOLUTE
    ..\Core\Src\gpio.c                       0x00000000   Number         0  gpio.o ABSOLUTE
    ..\Core\Src\i2c.c                        0x00000000   Number         0  i2c.o ABSOLUTE
    ..\Core\Src\main.c                       0x00000000   Number         0  main.o ABSOLUTE
    ..\Core\Src\music.c                      0x00000000   Number         0  music.o ABSOLUTE
    ..\Core\Src\spi.c                        0x00000000   Number         0  spi.o ABSOLUTE
    ..\Core\Src\stm32f1xx_hal_msp.c          0x00000000   Number         0  stm32f1xx_hal_msp.o ABSOLUTE
    ..\Core\Src\stm32f1xx_hal_timebase_tim.c 0x00000000   Number         0  stm32f1xx_hal_timebase_tim.o ABSOLUTE
    ..\Core\Src\stm32f1xx_it.c               0x00000000   Number         0  stm32f1xx_it.o ABSOLUTE
    ..\Core\Src\system_stm32f1xx.c           0x00000000   Number         0  system_stm32f1xx.o ABSOLUTE
    ..\Core\Src\tim.c                        0x00000000   Number         0  tim.o ABSOLUTE
    ..\Core\Src\usart.c                      0x00000000   Number         0  usart.o ABSOLUTE
    ..\Core\Src\usb.c                        0x00000000   Number         0  usb.o ABSOLUTE
    ..\Drivers\DshanMCU-F103\driver_active_buzzer.c 0x00000000   Number         0  driver_active_buzzer.o ABSOLUTE
    ..\Drivers\DshanMCU-F103\driver_color_led.c 0x00000000   Number         0  driver_color_led.o ABSOLUTE
    ..\Drivers\DshanMCU-F103\driver_dht11.c  0x00000000   Number         0  driver_dht11.o ABSOLUTE
    ..\Drivers\DshanMCU-F103\driver_ds18b20.c 0x00000000   Number         0  driver_ds18b20.o ABSOLUTE
    ..\Drivers\DshanMCU-F103\driver_ir_obstacle.c 0x00000000   Number         0  driver_ir_obstacle.o ABSOLUTE
    ..\Drivers\DshanMCU-F103\driver_ir_receiver.c 0x00000000   Number         0  driver_ir_receiver.o ABSOLUTE
    ..\Drivers\DshanMCU-F103\driver_ir_sender.c 0x00000000   Number         0  driver_ir_sender.o ABSOLUTE
    ..\Drivers\DshanMCU-F103\driver_irq.c    0x00000000   Number         0  driver_irq.o ABSOLUTE
    ..\Drivers\DshanMCU-F103\driver_key.c    0x00000000   Number         0  driver_key.o ABSOLUTE
    ..\Drivers\DshanMCU-F103\driver_lcd.c    0x00000000   Number         0  driver_lcd.o ABSOLUTE
    ..\Drivers\DshanMCU-F103\driver_led.c    0x00000000   Number         0  driver_led.o ABSOLUTE
    ..\Drivers\DshanMCU-F103\driver_light_sensor.c 0x00000000   Number         0  driver_light_sensor.o ABSOLUTE
    ..\Drivers\DshanMCU-F103\driver_motor.c  0x00000000   Number         0  driver_motor.o ABSOLUTE
    ..\Drivers\DshanMCU-F103\driver_mpu6050.c 0x00000000   Number         0  driver_mpu6050.o ABSOLUTE
    ..\Drivers\DshanMCU-F103\driver_oled.c   0x00000000   Number         0  driver_oled.o ABSOLUTE
    ..\Drivers\DshanMCU-F103\driver_passive_buzzer.c 0x00000000   Number         0  driver_passive_buzzer.o ABSOLUTE
    ..\Drivers\DshanMCU-F103\driver_rotary_encoder.c 0x00000000   Number         0  driver_rotary_encoder.o ABSOLUTE
    ..\Drivers\DshanMCU-F103\driver_spiflash_w25q64.c 0x00000000   Number         0  driver_spiflash_w25q64.o ABSOLUTE
    ..\Drivers\DshanMCU-F103\driver_timer.c  0x00000000   Number         0  driver_timer.o ABSOLUTE
    ..\Drivers\DshanMCU-F103\driver_uart.c   0x00000000   Number         0  driver_uart.o ABSOLUTE
    ..\Drivers\DshanMCU-F103\driver_ultrasonic_sr04.c 0x00000000   Number         0  driver_ultrasonic_sr04.o ABSOLUTE
    ..\Drivers\STM32F1xx_HAL_Driver\Src\stm32f1xx_hal.c 0x00000000   Number         0  stm32f1xx_hal.o ABSOLUTE
    ..\Drivers\STM32F1xx_HAL_Driver\Src\stm32f1xx_hal_adc.c 0x00000000   Number         0  stm32f1xx_hal_adc.o ABSOLUTE
    ..\Drivers\STM32F1xx_HAL_Driver\Src\stm32f1xx_hal_adc_ex.c 0x00000000   Number         0  stm32f1xx_hal_adc_ex.o ABSOLUTE
    ..\Drivers\STM32F1xx_HAL_Driver\Src\stm32f1xx_hal_cortex.c 0x00000000   Number         0  stm32f1xx_hal_cortex.o ABSOLUTE
    ..\Drivers\STM32F1xx_HAL_Driver\Src\stm32f1xx_hal_dma.c 0x00000000   Number         0  stm32f1xx_hal_dma.o ABSOLUTE
    ..\Drivers\STM32F1xx_HAL_Driver\Src\stm32f1xx_hal_exti.c 0x00000000   Number         0  stm32f1xx_hal_exti.o ABSOLUTE
    ..\Drivers\STM32F1xx_HAL_Driver\Src\stm32f1xx_hal_flash.c 0x00000000   Number         0  stm32f1xx_hal_flash.o ABSOLUTE
    ..\Drivers\STM32F1xx_HAL_Driver\Src\stm32f1xx_hal_flash_ex.c 0x00000000   Number         0  stm32f1xx_hal_flash_ex.o ABSOLUTE
    ..\Drivers\STM32F1xx_HAL_Driver\Src\stm32f1xx_hal_gpio.c 0x00000000   Number         0  stm32f1xx_hal_gpio.o ABSOLUTE
    ..\Drivers\STM32F1xx_HAL_Driver\Src\stm32f1xx_hal_gpio_ex.c 0x00000000   Number         0  stm32f1xx_hal_gpio_ex.o ABSOLUTE
    ..\Drivers\STM32F1xx_HAL_Driver\Src\stm32f1xx_hal_i2c.c 0x00000000   Number         0  stm32f1xx_hal_i2c.o ABSOLUTE
    ..\Drivers\STM32F1xx_HAL_Driver\Src\stm32f1xx_hal_pcd.c 0x00000000   Number         0  stm32f1xx_hal_pcd.o ABSOLUTE
    ..\Drivers\STM32F1xx_HAL_Driver\Src\stm32f1xx_hal_pcd_ex.c 0x00000000   Number         0  stm32f1xx_hal_pcd_ex.o ABSOLUTE
    ..\Drivers\STM32F1xx_HAL_Driver\Src\stm32f1xx_hal_pwr.c 0x00000000   Number         0  stm32f1xx_hal_pwr.o ABSOLUTE
    ..\Drivers\STM32F1xx_HAL_Driver\Src\stm32f1xx_hal_rcc.c 0x00000000   Number         0  stm32f1xx_hal_rcc.o ABSOLUTE
    ..\Drivers\STM32F1xx_HAL_Driver\Src\stm32f1xx_hal_rcc_ex.c 0x00000000   Number         0  stm32f1xx_hal_rcc_ex.o ABSOLUTE
    ..\Drivers\STM32F1xx_HAL_Driver\Src\stm32f1xx_hal_spi.c 0x00000000   Number         0  stm32f1xx_hal_spi.o ABSOLUTE
    ..\Drivers\STM32F1xx_HAL_Driver\Src\stm32f1xx_hal_tim.c 0x00000000   Number         0  stm32f1xx_hal_tim.o ABSOLUTE
    ..\Drivers\STM32F1xx_HAL_Driver\Src\stm32f1xx_hal_tim_ex.c 0x00000000   Number         0  stm32f1xx_hal_tim_ex.o ABSOLUTE
    ..\Drivers\STM32F1xx_HAL_Driver\Src\stm32f1xx_hal_uart.c 0x00000000   Number         0  stm32f1xx_hal_uart.o ABSOLUTE
    ..\Drivers\STM32F1xx_HAL_Driver\Src\stm32f1xx_ll_usb.c 0x00000000   Number         0  stm32f1xx_ll_usb.o ABSOLUTE
    ..\Middlewares\Third_Party\FreeRTOS\Source\CMSIS_RTOS_V2\cmsis_os2.c 0x00000000   Number         0  cmsis_os2.o ABSOLUTE
    ..\Middlewares\Third_Party\FreeRTOS\Source\portable\RVDS\ARM_CM3\port.c 0x00000000   Number         0  port.o ABSOLUTE
    ..\\Drivers\\DshanMCU-F103\\driver_active_buzzer.c 0x00000000   Number         0  driver_active_buzzer.o ABSOLUTE
    ..\\Drivers\\DshanMCU-F103\\driver_color_led.c 0x00000000   Number         0  driver_color_led.o ABSOLUTE
    ..\\Drivers\\DshanMCU-F103\\driver_dht11.c 0x00000000   Number         0  driver_dht11.o ABSOLUTE
    ..\\Drivers\\DshanMCU-F103\\driver_ds18b20.c 0x00000000   Number         0  driver_ds18b20.o ABSOLUTE
    ..\\Drivers\\DshanMCU-F103\\driver_ir_obstacle.c 0x00000000   Number         0  driver_ir_obstacle.o ABSOLUTE
    ..\\Drivers\\DshanMCU-F103\\driver_ir_receiver.c 0x00000000   Number         0  driver_ir_receiver.o ABSOLUTE
    ..\\Drivers\\DshanMCU-F103\\driver_ir_sender.c 0x00000000   Number         0  driver_ir_sender.o ABSOLUTE
    ..\\Drivers\\DshanMCU-F103\\driver_irq.c 0x00000000   Number         0  driver_irq.o ABSOLUTE
    ..\\Drivers\\DshanMCU-F103\\driver_key.c 0x00000000   Number         0  driver_key.o ABSOLUTE
    ..\\Drivers\\DshanMCU-F103\\driver_led.c 0x00000000   Number         0  driver_led.o ABSOLUTE
    ..\\Drivers\\DshanMCU-F103\\driver_light_sensor.c 0x00000000   Number         0  driver_light_sensor.o ABSOLUTE
    ..\\Drivers\\DshanMCU-F103\\driver_motor.c 0x00000000   Number         0  driver_motor.o ABSOLUTE
    ..\\Drivers\\DshanMCU-F103\\driver_mpu6050.c 0x00000000   Number         0  driver_mpu6050.o ABSOLUTE
    ..\\Drivers\\DshanMCU-F103\\driver_oled.c 0x00000000   Number         0  driver_oled.o ABSOLUTE
    ..\\Drivers\\DshanMCU-F103\\driver_passive_buzzer.c 0x00000000   Number         0  driver_passive_buzzer.o ABSOLUTE
    ..\\Drivers\\DshanMCU-F103\\driver_rotary_encoder.c 0x00000000   Number         0  driver_rotary_encoder.o ABSOLUTE
    ..\\Drivers\\DshanMCU-F103\\driver_spiflash_w25q64.c 0x00000000   Number         0  driver_spiflash_w25q64.o ABSOLUTE
    ..\\Drivers\\DshanMCU-F103\\driver_timer.c 0x00000000   Number         0  driver_timer.o ABSOLUTE
    ..\\Drivers\\DshanMCU-F103\\driver_uart.c 0x00000000   Number         0  driver_uart.o ABSOLUTE
    ..\\Drivers\\DshanMCU-F103\\driver_ultrasonic_sr04.c 0x00000000   Number         0  driver_ultrasonic_sr04.o ABSOLUTE
    ..\nwatch\beep.c                         0x00000000   Number         0  beep.o ABSOLUTE
    ..\nwatch\draw.c                         0x00000000   Number         0  draw.o ABSOLUTE
    ..\nwatch\game1.c                        0x00000000   Number         0  game1.o ABSOLUTE
    ..\nwatch\game2.c                        0x00000000   Number         0  game2.o ABSOLUTE
    ..\nwatch\resources.c                    0x00000000   Number         0  resources.o ABSOLUTE
    cdrcmple.s                               0x00000000   Number         0  cdrcmple.o ABSOLUTE
    cfcmple.s                                0x00000000   Number         0  cfcmple.o ABSOLUTE
    cfrcmple.s                               0x00000000   Number         0  cfrcmple.o ABSOLUTE
    dc.s                                     0x00000000   Number         0  dc.o ABSOLUTE
    handlers.s                               0x00000000   Number         0  handlers.o ABSOLUTE
    init.s                                   0x00000000   Number         0  init.o ABSOLUTE
    startup_stm32f103xb.s                    0x00000000   Number         0  startup_stm32f103xb.o ABSOLUTE
    RESET                                    0x08000000   Section      236  startup_stm32f103xb.o(RESET)
    .ARM.Collect$$$$00000000                 0x080000ec   Section        0  entry.o(.ARM.Collect$$$$00000000)
    .ARM.Collect$$$$00000001                 0x080000ec   Section        4  entry2.o(.ARM.Collect$$$$00000001)
    .ARM.Collect$$$$00000004                 0x080000f0   Section        4  entry5.o(.ARM.Collect$$$$00000004)
    .ARM.Collect$$$$00000008                 0x080000f4   Section        0  entry7b.o(.ARM.Collect$$$$00000008)
    .ARM.Collect$$$$0000000A                 0x080000f4   Section        0  entry8b.o(.ARM.Collect$$$$0000000A)
    .ARM.Collect$$$$0000000B                 0x080000f4   Section        8  entry9a.o(.ARM.Collect$$$$0000000B)
    .ARM.Collect$$$$0000000D                 0x080000fc   Section        0  entry10a.o(.ARM.Collect$$$$0000000D)
    .ARM.Collect$$$$0000000F                 0x080000fc   Section        0  entry11a.o(.ARM.Collect$$$$0000000F)
    .ARM.Collect$$$$00002712                 0x080000fc   Section        4  entry2.o(.ARM.Collect$$$$00002712)
    __lit__00000000                          0x080000fc   Data           4  entry2.o(.ARM.Collect$$$$00002712)
    .emb_text                                0x08000100   Section      150  port.o(.emb_text)
    .text                                    0x08000198   Section       36  startup_stm32f103xb.o(.text)
    .text                                    0x080001bc   Section        0  uldiv.o(.text)
    .text                                    0x0800021e   Section        0  llushr.o(.text)
    .text                                    0x08000240   Section        0  rand.o(.text)
    .text                                    0x08000264   Section        0  memcpya.o(.text)
    .text                                    0x08000288   Section        0  memseta.o(.text)
    .text                                    0x080002ac   Section        0  strlen.o(.text)
    .text                                    0x080002ba   Section        0  strcpy.o(.text)
    .text                                    0x080002cc   Section        0  fadd.o(.text)
    .text                                    0x0800037c   Section        0  fscalb.o(.text)
    .text                                    0x08000394   Section        0  fflti.o(.text)
    .text                                    0x080003a6   Section        0  ffltui.o(.text)
    .text                                    0x080003b0   Section        0  ffixui.o(.text)
    .text                                    0x080003d8   Section       20  cfcmple.o(.text)
    .text                                    0x080003ec   Section       20  cfrcmple.o(.text)
    .text                                    0x08000400   Section        0  uidiv.o(.text)
    .text                                    0x0800042c   Section        0  llshl.o(.text)
    .text                                    0x0800044a   Section        0  iusefp.o(.text)
    .text                                    0x0800044a   Section        0  fepilogue.o(.text)
    .text                                    0x080004b8   Section       36  init.o(.text)
    .text                                    0x080004dc   Section        0  __dczerorl2.o(.text)
    i.ADC_ConversionStop_Disable             0x08000534   Section        0  stm32f1xx_hal_adc.o(i.ADC_ConversionStop_Disable)
    i.BusFault_Handler                       0x0800058a   Section        0  stm32f1xx_it.o(i.BusFault_Handler)
    i.DebugMon_Handler                       0x0800058c   Section        0  stm32f1xx_it.o(i.DebugMon_Handler)
    i.DispatchKey                            0x08000590   Section        0  driver_ir_receiver.o(i.DispatchKey)
    i.EXTI15_10_IRQHandler                   0x080005dc   Section        0  stm32f1xx_it.o(i.EXTI15_10_IRQHandler)
    i.EXTI9_5_IRQHandler                     0x080005fa   Section        0  stm32f1xx_it.o(i.EXTI9_5_IRQHandler)
    i.Error_Handler                          0x08000600   Section        0  main.o(i.Error_Handler)
    i.GameSoundTimer_func                    0x08000604   Section        0  beep.o(i.GameSoundTimer_func)
    i.GetI2C                                 0x0800060c   Section        0  freertos.o(i.GetI2C)
    i.GetQueueIR                             0x0800061c   Section        0  driver_ir_receiver.o(i.GetQueueIR)
    i.GetQueueMPU6050                        0x08000628   Section        0  driver_mpu6050.o(i.GetQueueMPU6050)
    i.GetQueueRotary                         0x08000634   Section        0  driver_rotary_encoder.o(i.GetQueueRotary)
    i.HAL_ADC_ConfigChannel                  0x08000640   Section        0  stm32f1xx_hal_adc.o(i.HAL_ADC_ConfigChannel)
    i.HAL_ADC_Init                           0x0800073c   Section        0  stm32f1xx_hal_adc.o(i.HAL_ADC_Init)
    i.HAL_ADC_MspInit                        0x08000858   Section        0  adc.o(i.HAL_ADC_MspInit)
    i.HAL_GPIO_EXTI_Callback                 0x080008b0   Section        0  driver_irq.o(i.HAL_GPIO_EXTI_Callback)
    i.HAL_GPIO_EXTI_IRQHandler               0x080008d0   Section        0  stm32f1xx_hal_gpio.o(i.HAL_GPIO_EXTI_IRQHandler)
    i.HAL_GPIO_Init                          0x080008e8   Section        0  stm32f1xx_hal_gpio.o(i.HAL_GPIO_Init)
    i.HAL_GPIO_ReadPin                       0x08000ac8   Section        0  stm32f1xx_hal_gpio.o(i.HAL_GPIO_ReadPin)
    i.HAL_GPIO_WritePin                      0x08000ad2   Section        0  stm32f1xx_hal_gpio.o(i.HAL_GPIO_WritePin)
    i.HAL_GetTick                            0x08000adc   Section        0  stm32f1xx_hal.o(i.HAL_GetTick)
    i.HAL_I2C_Init                           0x08000ae8   Section        0  stm32f1xx_hal_i2c.o(i.HAL_I2C_Init)
    i.HAL_I2C_Master_Transmit                0x08000c70   Section        0  stm32f1xx_hal_i2c.o(i.HAL_I2C_Master_Transmit)
    i.HAL_I2C_Mem_Read                       0x08000d9c   Section        0  stm32f1xx_hal_i2c.o(i.HAL_I2C_Mem_Read)
    i.HAL_I2C_Mem_Write                      0x08000fec   Section        0  stm32f1xx_hal_i2c.o(i.HAL_I2C_Mem_Write)
    i.HAL_I2C_MspInit                        0x0800111c   Section        0  i2c.o(i.HAL_I2C_MspInit)
    i.HAL_IncTick                            0x08001178   Section        0  stm32f1xx_hal.o(i.HAL_IncTick)
    i.HAL_Init                               0x08001188   Section        0  stm32f1xx_hal.o(i.HAL_Init)
    i.HAL_InitTick                           0x080011ac   Section        0  stm32f1xx_hal_timebase_tim.o(i.HAL_InitTick)
    i.HAL_MspInit                            0x08001244   Section        0  stm32f1xx_hal_msp.o(i.HAL_MspInit)
    i.HAL_NVIC_EnableIRQ                     0x0800128c   Section        0  stm32f1xx_hal_cortex.o(i.HAL_NVIC_EnableIRQ)
    i.HAL_NVIC_SetPriority                   0x080012a8   Section        0  stm32f1xx_hal_cortex.o(i.HAL_NVIC_SetPriority)
    i.HAL_NVIC_SetPriorityGrouping           0x080012e8   Section        0  stm32f1xx_hal_cortex.o(i.HAL_NVIC_SetPriorityGrouping)
    i.HAL_PCD_Init                           0x0800130c   Section        0  stm32f1xx_hal_pcd.o(i.HAL_PCD_Init)
    i.HAL_PCD_MspInit                        0x080013e8   Section        0  usb.o(i.HAL_PCD_MspInit)
    i.HAL_RCCEx_PeriphCLKConfig              0x08001410   Section        0  stm32f1xx_hal_rcc_ex.o(i.HAL_RCCEx_PeriphCLKConfig)
    i.HAL_RCC_ClockConfig                    0x080014fc   Section        0  stm32f1xx_hal_rcc.o(i.HAL_RCC_ClockConfig)
    i.HAL_RCC_GetClockConfig                 0x08001628   Section        0  stm32f1xx_hal_rcc.o(i.HAL_RCC_GetClockConfig)
    i.HAL_RCC_GetPCLK1Freq                   0x08001668   Section        0  stm32f1xx_hal_rcc.o(i.HAL_RCC_GetPCLK1Freq)
    i.HAL_RCC_GetPCLK2Freq                   0x08001688   Section        0  stm32f1xx_hal_rcc.o(i.HAL_RCC_GetPCLK2Freq)
    i.HAL_RCC_GetSysClockFreq                0x080016a8   Section        0  stm32f1xx_hal_rcc.o(i.HAL_RCC_GetSysClockFreq)
    i.HAL_RCC_OscConfig                      0x080016f4   Section        0  stm32f1xx_hal_rcc.o(i.HAL_RCC_OscConfig)
    i.HAL_SPI_Init                           0x08001a14   Section        0  stm32f1xx_hal_spi.o(i.HAL_SPI_Init)
    i.HAL_SPI_MspInit                        0x08001ac8   Section        0  spi.o(i.HAL_SPI_MspInit)
    i.HAL_TIMEx_BreakCallback                0x08001b38   Section        0  stm32f1xx_hal_tim_ex.o(i.HAL_TIMEx_BreakCallback)
    i.HAL_TIMEx_CommutCallback               0x08001b3a   Section        0  stm32f1xx_hal_tim_ex.o(i.HAL_TIMEx_CommutCallback)
    i.HAL_TIMEx_ConfigBreakDeadTime          0x08001b3c   Section        0  stm32f1xx_hal_tim_ex.o(i.HAL_TIMEx_ConfigBreakDeadTime)
    i.HAL_TIMEx_MasterConfigSynchronization  0x08001b90   Section        0  stm32f1xx_hal_tim_ex.o(i.HAL_TIMEx_MasterConfigSynchronization)
    i.HAL_TIM_Base_DeInit                    0x08001bf8   Section        0  stm32f1xx_hal_tim.o(i.HAL_TIM_Base_DeInit)
    i.HAL_TIM_Base_Init                      0x08001c54   Section        0  stm32f1xx_hal_tim.o(i.HAL_TIM_Base_Init)
    i.HAL_TIM_Base_MspDeInit                 0x08001cb0   Section        0  tim.o(i.HAL_TIM_Base_MspDeInit)
    i.HAL_TIM_Base_MspInit                   0x08001cdc   Section        0  tim.o(i.HAL_TIM_Base_MspInit)
    i.HAL_TIM_Base_Start_IT                  0x08001d18   Section        0  stm32f1xx_hal_tim.o(i.HAL_TIM_Base_Start_IT)
    i.HAL_TIM_ConfigClockSource              0x08001d70   Section        0  stm32f1xx_hal_tim.o(i.HAL_TIM_ConfigClockSource)
    i.HAL_TIM_IC_CaptureCallback             0x08001e4c   Section        0  stm32f1xx_hal_tim.o(i.HAL_TIM_IC_CaptureCallback)
    i.HAL_TIM_IRQHandler                     0x08001e4e   Section        0  stm32f1xx_hal_tim.o(i.HAL_TIM_IRQHandler)
    i.HAL_TIM_MspPostInit                    0x08001fb4   Section        0  tim.o(i.HAL_TIM_MspPostInit)
    i.HAL_TIM_OC_DelayElapsedCallback        0x080020a0   Section        0  stm32f1xx_hal_tim.o(i.HAL_TIM_OC_DelayElapsedCallback)
    i.HAL_TIM_PWM_ConfigChannel              0x080020a2   Section        0  stm32f1xx_hal_tim.o(i.HAL_TIM_PWM_ConfigChannel)
    i.HAL_TIM_PWM_Init                       0x0800216e   Section        0  stm32f1xx_hal_tim.o(i.HAL_TIM_PWM_Init)
    i.HAL_TIM_PWM_MspInit                    0x080021c8   Section        0  tim.o(i.HAL_TIM_PWM_MspInit)
    i.HAL_TIM_PWM_PulseFinishedCallback      0x080021f0   Section        0  stm32f1xx_hal_tim.o(i.HAL_TIM_PWM_PulseFinishedCallback)
    i.HAL_TIM_PWM_Start                      0x080021f4   Section        0  stm32f1xx_hal_tim.o(i.HAL_TIM_PWM_Start)
    i.HAL_TIM_PWM_Stop                       0x08002290   Section        0  stm32f1xx_hal_tim.o(i.HAL_TIM_PWM_Stop)
    i.HAL_TIM_PeriodElapsedCallback          0x08002300   Section        0  main.o(i.HAL_TIM_PeriodElapsedCallback)
    i.HAL_TIM_TriggerCallback                0x08002314   Section        0  stm32f1xx_hal_tim.o(i.HAL_TIM_TriggerCallback)
    i.HAL_UART_Init                          0x08002316   Section        0  stm32f1xx_hal_uart.o(i.HAL_UART_Init)
    i.HAL_UART_MspInit                       0x0800237c   Section        0  usart.o(i.HAL_UART_MspInit)
    i.HardFault_Handler                      0x080023ec   Section        0  stm32f1xx_it.o(i.HardFault_Handler)
    i.I2C_IsAcknowledgeFailed                0x080023ee   Section        0  stm32f1xx_hal_i2c.o(i.I2C_IsAcknowledgeFailed)
    I2C_IsAcknowledgeFailed                  0x080023ef   Thumb Code    46  stm32f1xx_hal_i2c.o(i.I2C_IsAcknowledgeFailed)
    i.I2C_MasterRequestWrite                 0x0800241c   Section        0  stm32f1xx_hal_i2c.o(i.I2C_MasterRequestWrite)
    I2C_MasterRequestWrite                   0x0800241d   Thumb Code   150  stm32f1xx_hal_i2c.o(i.I2C_MasterRequestWrite)
    i.I2C_RequestMemoryRead                  0x080024b8   Section        0  stm32f1xx_hal_i2c.o(i.I2C_RequestMemoryRead)
    I2C_RequestMemoryRead                    0x080024b9   Thumb Code   246  stm32f1xx_hal_i2c.o(i.I2C_RequestMemoryRead)
    i.I2C_RequestMemoryWrite                 0x080025b4   Section        0  stm32f1xx_hal_i2c.o(i.I2C_RequestMemoryWrite)
    I2C_RequestMemoryWrite                   0x080025b5   Thumb Code   162  stm32f1xx_hal_i2c.o(i.I2C_RequestMemoryWrite)
    i.I2C_WaitOnBTFFlagUntilTimeout          0x0800265c   Section        0  stm32f1xx_hal_i2c.o(i.I2C_WaitOnBTFFlagUntilTimeout)
    I2C_WaitOnBTFFlagUntilTimeout            0x0800265d   Thumb Code    86  stm32f1xx_hal_i2c.o(i.I2C_WaitOnBTFFlagUntilTimeout)
    i.I2C_WaitOnFlagUntilTimeout             0x080026b4   Section        0  stm32f1xx_hal_i2c.o(i.I2C_WaitOnFlagUntilTimeout)
    I2C_WaitOnFlagUntilTimeout               0x080026b5   Thumb Code   144  stm32f1xx_hal_i2c.o(i.I2C_WaitOnFlagUntilTimeout)
    i.I2C_WaitOnMasterAddressFlagUntilTimeout 0x08002744   Section        0  stm32f1xx_hal_i2c.o(i.I2C_WaitOnMasterAddressFlagUntilTimeout)
    I2C_WaitOnMasterAddressFlagUntilTimeout  0x08002745   Thumb Code   188  stm32f1xx_hal_i2c.o(i.I2C_WaitOnMasterAddressFlagUntilTimeout)
    i.I2C_WaitOnRXNEFlagUntilTimeout         0x08002800   Section        0  stm32f1xx_hal_i2c.o(i.I2C_WaitOnRXNEFlagUntilTimeout)
    I2C_WaitOnRXNEFlagUntilTimeout           0x08002801   Thumb Code   112  stm32f1xx_hal_i2c.o(i.I2C_WaitOnRXNEFlagUntilTimeout)
    i.I2C_WaitOnTXEFlagUntilTimeout          0x08002870   Section        0  stm32f1xx_hal_i2c.o(i.I2C_WaitOnTXEFlagUntilTimeout)
    I2C_WaitOnTXEFlagUntilTimeout            0x08002871   Thumb Code    86  stm32f1xx_hal_i2c.o(i.I2C_WaitOnTXEFlagUntilTimeout)
    i.IRReceiver_IRQTimes_Parse              0x080028c8   Section        0  driver_ir_receiver.o(i.IRReceiver_IRQTimes_Parse)
    IRReceiver_IRQTimes_Parse                0x080028c9   Thumb Code   256  driver_ir_receiver.o(i.IRReceiver_IRQTimes_Parse)
    i.IRReceiver_IRQ_Callback                0x080029e4   Section        0  driver_ir_receiver.o(i.IRReceiver_IRQ_Callback)
    i.IRReceiver_Init                        0x08002a98   Section        0  driver_ir_receiver.o(i.IRReceiver_Init)
    i.InputTask                              0x08002ab4   Section        0  game1.o(i.InputTask)
    i.LCD_Clear                              0x08002b2c   Section        0  driver_lcd.o(i.LCD_Clear)
    i.LCD_Flush                              0x08002b30   Section        0  driver_lcd.o(i.LCD_Flush)
    i.LCD_FlushRegion                        0x08002b34   Section        0  driver_lcd.o(i.LCD_FlushRegion)
    i.LCD_GetFrameBuffer                     0x08002b38   Section        0  driver_lcd.o(i.LCD_GetFrameBuffer)
    i.LCD_Init                               0x08002b3c   Section        0  driver_lcd.o(i.LCD_Init)
    i.LCD_PrintString                        0x08002b40   Section        0  driver_lcd.o(i.LCD_PrintString)
    i.MPU6050_Callback                       0x08002b44   Section        0  driver_mpu6050.o(i.MPU6050_Callback)
    i.MPU6050_Init                           0x08002b78   Section        0  driver_mpu6050.o(i.MPU6050_Init)
    i.MPU6050_ReadData                       0x08002bd8   Section        0  driver_mpu6050.o(i.MPU6050_ReadData)
    i.MPU6050_ReadRegister                   0x08002ce4   Section        0  driver_mpu6050.o(i.MPU6050_ReadRegister)
    i.MPU6050_WriteRegister                  0x08002d04   Section        0  driver_mpu6050.o(i.MPU6050_WriteRegister)
    MPU6050_WriteRegister                    0x08002d05   Thumb Code    32  driver_mpu6050.o(i.MPU6050_WriteRegister)
    i.MPU_6050_Task                          0x08002d28   Section        0  driver_mpu6050.o(i.MPU_6050_Task)
    i.MX_ADC1_Init                           0x08002d74   Section        0  adc.o(i.MX_ADC1_Init)
    i.MX_FREERTOS_Init                       0x08002dc4   Section        0  freertos.o(i.MX_FREERTOS_Init)
    i.MX_GPIO_Init                           0x08002e24   Section        0  gpio.o(i.MX_GPIO_Init)
    i.MX_I2C1_Init                           0x08002f84   Section        0  i2c.o(i.MX_I2C1_Init)
    i.MX_SPI1_Init                           0x08002fc4   Section        0  spi.o(i.MX_SPI1_Init)
    i.MX_TIM1_Init                           0x0800300c   Section        0  tim.o(i.MX_TIM1_Init)
    i.MX_TIM2_Init                           0x080030dc   Section        0  tim.o(i.MX_TIM2_Init)
    i.MX_TIM3_Init                           0x08003198   Section        0  tim.o(i.MX_TIM3_Init)
    i.MX_USART1_UART_Init                    0x08003210   Section        0  usart.o(i.MX_USART1_UART_Init)
    i.MX_USB_PCD_Init                        0x08003248   Section        0  usb.o(i.MX_USB_PCD_Init)
    i.MemManage_Handler                      0x0800327c   Section        0  stm32f1xx_it.o(i.MemManage_Handler)
    i.NMI_Handler                            0x0800327e   Section        0  stm32f1xx_it.o(i.NMI_Handler)
    i.OLED_Clear                             0x08003280   Section        0  driver_oled.o(i.OLED_Clear)
    i.OLED_Flush                             0x080032ac   Section        0  driver_oled.o(i.OLED_Flush)
    i.OLED_FlushRegion                       0x080032e4   Section        0  driver_oled.o(i.OLED_FlushRegion)
    i.OLED_GetFrameBuffer                    0x08003344   Section        0  driver_oled.o(i.OLED_GetFrameBuffer)
    i.OLED_Init                              0x08003358   Section        0  driver_oled.o(i.OLED_Init)
    i.OLED_PrintString                       0x080033ec   Section        0  driver_oled.o(i.OLED_PrintString)
    i.OLED_PutChar                           0x08003420   Section        0  driver_oled.o(i.OLED_PutChar)
    i.OLED_SetComConfig                      0x08003468   Section        0  driver_oled.o(i.OLED_SetComConfig)
    OLED_SetComConfig                        0x08003469   Thumb Code    44  driver_oled.o(i.OLED_SetComConfig)
    i.OLED_SetPosition                       0x08003494   Section        0  driver_oled.o(i.OLED_SetPosition)
    i.OLED_WriteCmd                          0x080034d4   Section        0  driver_oled.o(i.OLED_WriteCmd)
    OLED_WriteCmd                            0x080034d5   Thumb Code    34  driver_oled.o(i.OLED_WriteCmd)
    i.OLED_WriteNBytes                       0x080034fc   Section        0  driver_oled.o(i.OLED_WriteNBytes)
    OLED_WriteNBytes                         0x080034fd   Thumb Code    26  driver_oled.o(i.OLED_WriteNBytes)
    i.PassiveBuzzer_Control                  0x0800351c   Section        0  driver_passive_buzzer.o(i.PassiveBuzzer_Control)
    i.PassiveBuzzer_Init                     0x08003534   Section        0  driver_passive_buzzer.o(i.PassiveBuzzer_Init)
    i.PassiveBuzzer_Set_Freq_Duty            0x0800359c   Section        0  driver_passive_buzzer.o(i.PassiveBuzzer_Set_Freq_Duty)
    i.ProcessIRData                          0x08003624   Section        0  game1.o(i.ProcessIRData)
    ProcessIRData                            0x08003625   Thumb Code    70  game1.o(i.ProcessIRData)
    i.ProcessRotaryData                      0x08003670   Section        0  game1.o(i.ProcessRotaryData)
    ProcessRotaryData                        0x08003671   Thumb Code    98  game1.o(i.ProcessRotaryData)
    i.PutI2C                                 0x080036d8   Section        0  freertos.o(i.PutI2C)
    i.RegisterQueueHandle                    0x080036ec   Section        0  driver_ir_receiver.o(i.RegisterQueueHandle)
    i.RotaryEncoder_IRQ_Callback             0x08003708   Section        0  driver_rotary_encoder.o(i.RotaryEncoder_IRQ_Callback)
    i.RotaryEncoder_Init                     0x080037a0   Section        0  driver_rotary_encoder.o(i.RotaryEncoder_Init)
    i.SysTick_Handler                        0x080037c4   Section        0  port.o(i.SysTick_Handler)
    i.SystemClock_Config                     0x080037f0   Section        0  main.o(i.SystemClock_Config)
    i.SystemInit                             0x0800386c   Section        0  system_stm32f1xx.o(i.SystemInit)
    i.TIM4_IRQHandler                        0x08003870   Section        0  stm32f1xx_it.o(i.TIM4_IRQHandler)
    i.TIM_Base_SetConfig                     0x0800387c   Section        0  stm32f1xx_hal_tim.o(i.TIM_Base_SetConfig)
    i.TIM_CCxChannelCmd                      0x080038e8   Section        0  stm32f1xx_hal_tim.o(i.TIM_CCxChannelCmd)
    i.TIM_ETR_SetConfig                      0x08003902   Section        0  stm32f1xx_hal_tim.o(i.TIM_ETR_SetConfig)
    i.TIM_ITRx_SetConfig                     0x08003916   Section        0  stm32f1xx_hal_tim.o(i.TIM_ITRx_SetConfig)
    TIM_ITRx_SetConfig                       0x08003917   Thumb Code    16  stm32f1xx_hal_tim.o(i.TIM_ITRx_SetConfig)
    i.TIM_OC1_SetConfig                      0x08003928   Section        0  stm32f1xx_hal_tim.o(i.TIM_OC1_SetConfig)
    TIM_OC1_SetConfig                        0x08003929   Thumb Code    74  stm32f1xx_hal_tim.o(i.TIM_OC1_SetConfig)
    i.TIM_OC2_SetConfig                      0x08003978   Section        0  stm32f1xx_hal_tim.o(i.TIM_OC2_SetConfig)
    i.TIM_OC3_SetConfig                      0x080039d0   Section        0  stm32f1xx_hal_tim.o(i.TIM_OC3_SetConfig)
    TIM_OC3_SetConfig                        0x080039d1   Thumb Code    82  stm32f1xx_hal_tim.o(i.TIM_OC3_SetConfig)
    i.TIM_OC4_SetConfig                      0x08003a28   Section        0  stm32f1xx_hal_tim.o(i.TIM_OC4_SetConfig)
    TIM_OC4_SetConfig                        0x08003a29   Thumb Code    64  stm32f1xx_hal_tim.o(i.TIM_OC4_SetConfig)
    i.TIM_TI1_ConfigInputStage               0x08003a6c   Section        0  stm32f1xx_hal_tim.o(i.TIM_TI1_ConfigInputStage)
    TIM_TI1_ConfigInputStage                 0x08003a6d   Thumb Code    34  stm32f1xx_hal_tim.o(i.TIM_TI1_ConfigInputStage)
    i.TIM_TI2_ConfigInputStage               0x08003a8e   Section        0  stm32f1xx_hal_tim.o(i.TIM_TI2_ConfigInputStage)
    TIM_TI2_ConfigInputStage                 0x08003a8f   Thumb Code    36  stm32f1xx_hal_tim.o(i.TIM_TI2_ConfigInputStage)
    i.UART_SetConfig                         0x08003ab4   Section        0  stm32f1xx_hal_uart.o(i.UART_SetConfig)
    UART_SetConfig                           0x08003ab5   Thumb Code   178  stm32f1xx_hal_uart.o(i.UART_SetConfig)
    i.USB_CoreInit                           0x08003b6c   Section        0  stm32f1xx_ll_usb.o(i.USB_CoreInit)
    i.USB_DevDisconnect                      0x08003b70   Section        0  stm32f1xx_ll_usb.o(i.USB_DevDisconnect)
    i.USB_DevInit                            0x08003b74   Section        0  stm32f1xx_ll_usb.o(i.USB_DevInit)
    i.USB_DisableGlobalInt                   0x08003b86   Section        0  stm32f1xx_ll_usb.o(i.USB_DisableGlobalInt)
    i.USB_SetCurrentMode                     0x08003b94   Section        0  stm32f1xx_ll_usb.o(i.USB_SetCurrentMode)
    i.UsageFault_Handler                     0x08003b98   Section        0  stm32f1xx_it.o(i.UsageFault_Handler)
    i.__0sprintf$3                           0x08003b9c   Section        0  printf3.o(i.__0sprintf$3)
    i.__NVIC_SetPriority                     0x08003bc4   Section        0  stm32f1xx_hal_cortex.o(i.__NVIC_SetPriority)
    __NVIC_SetPriority                       0x08003bc5   Thumb Code    32  stm32f1xx_hal_cortex.o(i.__NVIC_SetPriority)
    i.__scatterload_copy                     0x08003be4   Section       14  handlers.o(i.__scatterload_copy)
    i.__scatterload_null                     0x08003bf2   Section        2  handlers.o(i.__scatterload_null)
    i.__scatterload_zeroinit                 0x08003bf4   Section       14  handlers.o(i.__scatterload_zeroinit)
    i._printf_core                           0x08003c04   Section        0  printf3.o(i._printf_core)
    _printf_core                             0x08003c05   Thumb Code   436  printf3.o(i._printf_core)
    i._sputc                                 0x08003dbc   Section        0  printf3.o(i._sputc)
    _sputc                                   0x08003dbd   Thumb Code    10  printf3.o(i._sputc)
    i.buzzer_buzz                            0x08003dc8   Section        0  beep.o(i.buzzer_buzz)
    i.buzzer_init                            0x08003dec   Section        0  beep.o(i.buzzer_init)
    i.draw_bitmap                            0x08003e1c   Section        0  draw.o(i.draw_bitmap)
    i.draw_end                               0x08003fec   Section        0  draw.o(i.draw_end)
    i.draw_flushArea                         0x08003ff0   Section        0  draw.o(i.draw_flushArea)
    i.draw_init                              0x08004014   Section        0  draw.o(i.draw_init)
    i.draw_string                            0x0800402c   Section        0  draw.o(i.draw_string)
    i.draw_string_P                          0x080040dc   Section        0  draw.o(i.draw_string_P)
    i.free                                   0x08004114   Section        0  malloc.o(i.free)
    i.game1_draw                             0x08004164   Section        0  game1.o(i.game1_draw)
    i.game1_task                             0x08004520   Section        0  game1.o(i.game1_task)
    i.main                                   0x08004640   Section        0  main.o(i.main)
    i.malloc                                 0x0800467c   Section        0  malloc.o(i.malloc)
    i.mdelay                                 0x080046e8   Section        0  driver_timer.o(i.mdelay)
    i.osKernelInitialize                     0x08004704   Section        0  cmsis_os2.o(i.osKernelInitialize)
    i.osKernelStart                          0x0800473c   Section        0  cmsis_os2.o(i.osKernelStart)
    i.platform_task                          0x0800477c   Section        0  game1.o(i.platform_task)
    platform_task                            0x0800477d   Thumb Code   192  game1.o(i.platform_task)
    i.prvAddCurrentTaskToDelayedList         0x08004844   Section        0  tasks.o(i.prvAddCurrentTaskToDelayedList)
    prvAddCurrentTaskToDelayedList           0x08004845   Thumb Code    84  tasks.o(i.prvAddCurrentTaskToDelayedList)
    i.prvAddNewTaskToReadyList               0x080048a0   Section        0  tasks.o(i.prvAddNewTaskToReadyList)
    prvAddNewTaskToReadyList                 0x080048a1   Thumb Code   190  tasks.o(i.prvAddNewTaskToReadyList)
    i.prvCheckForValidListAndQueue           0x08004970   Section        0  timers.o(i.prvCheckForValidListAndQueue)
    prvCheckForValidListAndQueue             0x08004971   Thumb Code    72  timers.o(i.prvCheckForValidListAndQueue)
    i.prvCopyDataFromQueue                   0x080049c8   Section        0  queue.o(i.prvCopyDataFromQueue)
    prvCopyDataFromQueue                     0x080049c9   Thumb Code    38  queue.o(i.prvCopyDataFromQueue)
    i.prvCopyDataToQueue                     0x080049ee   Section        0  queue.o(i.prvCopyDataToQueue)
    prvCopyDataToQueue                       0x080049ef   Thumb Code   108  queue.o(i.prvCopyDataToQueue)
    i.prvDeleteTCB                           0x08004a5a   Section        0  tasks.o(i.prvDeleteTCB)
    prvDeleteTCB                             0x08004a5b   Thumb Code    52  tasks.o(i.prvDeleteTCB)
    i.prvHeapInit                            0x08004a90   Section        0  heap_4.o(i.prvHeapInit)
    prvHeapInit                              0x08004a91   Thumb Code    66  heap_4.o(i.prvHeapInit)
    i.prvIdleTask                            0x08004adc   Section        0  tasks.o(i.prvIdleTask)
    prvIdleTask                              0x08004add   Thumb Code    82  tasks.o(i.prvIdleTask)
    i.prvInitialiseMutex                     0x08004b3c   Section        0  queue.o(i.prvInitialiseMutex)
    prvInitialiseMutex                       0x08004b3d   Thumb Code    22  queue.o(i.prvInitialiseMutex)
    i.prvInitialiseNewQueue                  0x08004b54   Section        0  queue.o(i.prvInitialiseNewQueue)
    prvInitialiseNewQueue                    0x08004b55   Thumb Code    38  queue.o(i.prvInitialiseNewQueue)
    i.prvInitialiseNewTask                   0x08004b7a   Section        0  tasks.o(i.prvInitialiseNewTask)
    prvInitialiseNewTask                     0x08004b7b   Thumb Code   156  tasks.o(i.prvInitialiseNewTask)
    i.prvInitialiseNewTimer                  0x08004c16   Section        0  timers.o(i.prvInitialiseNewTimer)
    prvInitialiseNewTimer                    0x08004c17   Thumb Code    68  timers.o(i.prvInitialiseNewTimer)
    i.prvInsertBlockIntoFreeList             0x08004c5c   Section        0  heap_4.o(i.prvInsertBlockIntoFreeList)
    prvInsertBlockIntoFreeList               0x08004c5d   Thumb Code    72  heap_4.o(i.prvInsertBlockIntoFreeList)
    i.prvInsertTimerInActiveList             0x08004ca8   Section        0  timers.o(i.prvInsertTimerInActiveList)
    prvInsertTimerInActiveList               0x08004ca9   Thumb Code    52  timers.o(i.prvInsertTimerInActiveList)
    i.prvIsQueueEmpty                        0x08004ce0   Section        0  queue.o(i.prvIsQueueEmpty)
    prvIsQueueEmpty                          0x08004ce1   Thumb Code    28  queue.o(i.prvIsQueueEmpty)
    i.prvNotifyQueueSetContainer             0x08004cfc   Section        0  queue.o(i.prvNotifyQueueSetContainer)
    prvNotifyQueueSetContainer               0x08004cfd   Thumb Code   108  queue.o(i.prvNotifyQueueSetContainer)
    i.prvProcessReceivedCommands             0x08004d68   Section        0  timers.o(i.prvProcessReceivedCommands)
    prvProcessReceivedCommands               0x08004d69   Thumb Code   198  timers.o(i.prvProcessReceivedCommands)
    i.prvProcessTimerOrBlockTask             0x08004e34   Section        0  timers.o(i.prvProcessTimerOrBlockTask)
    prvProcessTimerOrBlockTask               0x08004e35   Thumb Code   172  timers.o(i.prvProcessTimerOrBlockTask)
    i.prvResetNextTaskUnblockTime            0x08004ee8   Section        0  tasks.o(i.prvResetNextTaskUnblockTime)
    prvResetNextTaskUnblockTime              0x08004ee9   Thumb Code    26  tasks.o(i.prvResetNextTaskUnblockTime)
    i.prvSampleTimeNow                       0x08004f08   Section        0  timers.o(i.prvSampleTimeNow)
    prvSampleTimeNow                         0x08004f09   Thumb Code    36  timers.o(i.prvSampleTimeNow)
    i.prvSwitchTimerLists                    0x08004f30   Section        0  timers.o(i.prvSwitchTimerLists)
    prvSwitchTimerLists                      0x08004f31   Thumb Code   102  timers.o(i.prvSwitchTimerLists)
    i.prvTaskExitError                       0x08004f9c   Section        0  port.o(i.prvTaskExitError)
    prvTaskExitError                         0x08004f9d   Thumb Code    36  port.o(i.prvTaskExitError)
    i.prvTestWaitCondition                   0x08004fc4   Section        0  event_groups.o(i.prvTestWaitCondition)
    prvTestWaitCondition                     0x08004fc5   Thumb Code    20  event_groups.o(i.prvTestWaitCondition)
    i.prvTimerTask                           0x08004fd8   Section        0  timers.o(i.prvTimerTask)
    prvTimerTask                             0x08004fd9   Thumb Code    32  timers.o(i.prvTimerTask)
    i.prvUnlockQueue                         0x08004ffc   Section        0  queue.o(i.prvUnlockQueue)
    prvUnlockQueue                           0x08004ffd   Thumb Code   120  queue.o(i.prvUnlockQueue)
    i.pvPortMalloc                           0x08005074   Section        0  heap_4.o(i.pvPortMalloc)
    i.pvTaskIncrementMutexHeldCount          0x0800514c   Section        0  tasks.o(i.pvTaskIncrementMutexHeldCount)
    i.pxPortInitialiseStack                  0x08005164   Section        0  port.o(i.pxPortInitialiseStack)
    i.readPixels                             0x08005188   Section        0  draw.o(i.readPixels)
    readPixels                               0x08005189   Thumb Code    12  draw.o(i.readPixels)
    i.setBuffByte                            0x08005194   Section        0  draw.o(i.setBuffByte)
    setBuffByte                              0x08005195   Thumb Code    20  draw.o(i.setBuffByte)
    i.set_bits                               0x080051ac   Section        0  draw.o(i.set_bits)
    set_bits                                 0x080051ad   Thumb Code    22  draw.o(i.set_bits)
    i.system_get_ns                          0x080051c4   Section        0  driver_timer.o(i.system_get_ns)
    i.udelay                                 0x08005208   Section        0  driver_timer.o(i.udelay)
    i.uxListRemove                           0x08005240   Section        0  list.o(i.uxListRemove)
    i.uxTaskResetEventItemValue              0x08005268   Section        0  tasks.o(i.uxTaskResetEventItemValue)
    i.vApplicationGetIdleTaskMemory          0x08005280   Section        0  cmsis_os2.o(i.vApplicationGetIdleTaskMemory)
    i.vApplicationGetTimerTaskMemory         0x08005294   Section        0  cmsis_os2.o(i.vApplicationGetTimerTaskMemory)
    i.vEventGroupSetBitsCallback             0x080052ac   Section        0  event_groups.o(i.vEventGroupSetBitsCallback)
    i.vListInitialise                        0x080052b0   Section        0  list.o(i.vListInitialise)
    i.vListInitialiseItem                    0x080052c6   Section        0  list.o(i.vListInitialiseItem)
    i.vListInsert                            0x080052cc   Section        0  list.o(i.vListInsert)
    i.vListInsertEnd                         0x080052fc   Section        0  list.o(i.vListInsertEnd)
    i.vPortEnterCritical                     0x08005314   Section        0  port.o(i.vPortEnterCritical)
    i.vPortExitCritical                      0x08005354   Section        0  port.o(i.vPortExitCritical)
    i.vPortFree                              0x0800537c   Section        0  heap_4.o(i.vPortFree)
    i.vPortSetupTimerInterrupt               0x080053d8   Section        0  port.o(i.vPortSetupTimerInterrupt)
    i.vPortValidateInterruptPriority         0x080053fc   Section        0  port.o(i.vPortValidateInterruptPriority)
    i.vQueueAddToRegistry                    0x08005450   Section        0  queue.o(i.vQueueAddToRegistry)
    i.vQueueWaitForMessageRestricted         0x08005478   Section        0  queue.o(i.vQueueWaitForMessageRestricted)
    i.vTaskDelay                             0x080054bc   Section        0  tasks.o(i.vTaskDelay)
    i.vTaskInternalSetTimeOutState           0x08005508   Section        0  tasks.o(i.vTaskInternalSetTimeOutState)
    i.vTaskMissedYield                       0x08005518   Section        0  tasks.o(i.vTaskMissedYield)
    i.vTaskPlaceOnEventList                  0x08005524   Section        0  tasks.o(i.vTaskPlaceOnEventList)
    i.vTaskPlaceOnEventListRestricted        0x08005554   Section        0  tasks.o(i.vTaskPlaceOnEventListRestricted)
    i.vTaskPlaceOnUnorderedEventList         0x0800558c   Section        0  tasks.o(i.vTaskPlaceOnUnorderedEventList)
    i.vTaskPriorityDisinheritAfterTimeout    0x080055dc   Section        0  tasks.o(i.vTaskPriorityDisinheritAfterTimeout)
    i.vTaskRemoveFromUnorderedEventList      0x0800566c   Section        0  tasks.o(i.vTaskRemoveFromUnorderedEventList)
    i.vTaskStartScheduler                    0x080056dc   Section        0  tasks.o(i.vTaskStartScheduler)
    i.vTaskSuspendAll                        0x08005764   Section        0  tasks.o(i.vTaskSuspendAll)
    i.vTaskSwitchContext                     0x08005774   Section        0  tasks.o(i.vTaskSwitchContext)
    i.xEventGroupCreate                      0x080057d8   Section        0  event_groups.o(i.xEventGroupCreate)
    i.xEventGroupSetBits                     0x080057f4   Section        0  event_groups.o(i.xEventGroupSetBits)
    i.xEventGroupSetBitsFromISR              0x08005880   Section        0  event_groups.o(i.xEventGroupSetBitsFromISR)
    i.xEventGroupWaitBits                    0x08005890   Section        0  event_groups.o(i.xEventGroupWaitBits)
    i.xPortStartScheduler                    0x08005998   Section        0  port.o(i.xPortStartScheduler)
    i.xQueueAddToSet                         0x08005a40   Section        0  queue.o(i.xQueueAddToSet)
    i.xQueueCreateMutex                      0x08005a62   Section        0  queue.o(i.xQueueCreateMutex)
    i.xQueueCreateSet                        0x08005a78   Section        0  queue.o(i.xQueueCreateSet)
    i.xQueueGenericCreate                    0x08005a80   Section        0  queue.o(i.xQueueGenericCreate)
    i.xQueueGenericCreateStatic              0x08005ac8   Section        0  queue.o(i.xQueueGenericCreateStatic)
    i.xQueueGenericReset                     0x08005b30   Section        0  queue.o(i.xQueueGenericReset)
    i.xQueueGenericSend                      0x08005bb8   Section        0  queue.o(i.xQueueGenericSend)
    i.xQueueGenericSendFromISR               0x08005d24   Section        0  queue.o(i.xQueueGenericSendFromISR)
    i.xQueueReceive                          0x08005df0   Section        0  queue.o(i.xQueueReceive)
    i.xQueueSelectFromSet                    0x08005f28   Section        0  queue.o(i.xQueueSelectFromSet)
    i.xQueueSemaphoreTake                    0x08005f3c   Section        0  queue.o(i.xQueueSemaphoreTake)
    i.xTaskCheckForTimeOut                   0x080060b4   Section        0  tasks.o(i.xTaskCheckForTimeOut)
    i.xTaskCreate                            0x08006128   Section        0  tasks.o(i.xTaskCreate)
    i.xTaskCreateStatic                      0x08006182   Section        0  tasks.o(i.xTaskCreateStatic)
    i.xTaskGetSchedulerState                 0x080061d8   Section        0  tasks.o(i.xTaskGetSchedulerState)
    i.xTaskGetTickCount                      0x080061f4   Section        0  tasks.o(i.xTaskGetTickCount)
    i.xTaskIncrementTick                     0x08006200   Section        0  tasks.o(i.xTaskIncrementTick)
    i.xTaskPriorityDisinherit                0x080062c8   Section        0  tasks.o(i.xTaskPriorityDisinherit)
    i.xTaskPriorityInherit                   0x08006348   Section        0  tasks.o(i.xTaskPriorityInherit)
    i.xTaskRemoveFromEventList               0x080063c0   Section        0  tasks.o(i.xTaskRemoveFromEventList)
    i.xTaskResumeAll                         0x08006430   Section        0  tasks.o(i.xTaskResumeAll)
    i.xTimerCreate                           0x080064f4   Section        0  timers.o(i.xTimerCreate)
    i.xTimerCreateTimerTask                  0x08006528   Section        0  timers.o(i.xTimerCreateTimerTask)
    i.xTimerGenericCommand                   0x08006588   Section        0  timers.o(i.xTimerGenericCommand)
    i.xTimerPendFunctionCallFromISR          0x080065f0   Section        0  timers.o(i.xTimerPendFunctionCallFromISR)
    .constdata                               0x08006618   Section       18  stm32f1xx_hal_rcc.o(.constdata)
    aPredivFactorTable                       0x08006618   Data           2  stm32f1xx_hal_rcc.o(.constdata)
    aPLLMULFactorTable                       0x0800661a   Data          16  stm32f1xx_hal_rcc.o(.constdata)
    .constdata                               0x0800662a   Section       16  system_stm32f1xx.o(.constdata)
    .constdata                               0x0800663a   Section        8  system_stm32f1xx.o(.constdata)
    .constdata                               0x08006642   Section     2048  driver_oled.o(.constdata)
    .constdata                               0x08006e42   Section       29  game1.o(.constdata)
    ballImg                                  0x08006e42   Data           2  game1.o(.constdata)
    block                                    0x08006e44   Data           3  game1.o(.constdata)
    platform                                 0x08006e47   Data          12  game1.o(.constdata)
    clearImg                                 0x08006e53   Data          12  game1.o(.constdata)
    .constdata                               0x08006e5f   Section        7  resources.o(.constdata)
    .constdata                               0x08006e66   Section      485  resources.o(.constdata)
    .data                                    0x20000000   Section        4  freertos.o(.data)
    g_xI2CMutex                              0x20000000   Data           4  freertos.o(.data)
    .data                                    0x20000004   Section       12  stm32f1xx_hal.o(.data)
    .data                                    0x20000010   Section        4  system_stm32f1xx.o(.data)
    .data                                    0x20000014   Section       60  tasks.o(.data)
    pxDelayedTaskList                        0x20000018   Data           4  tasks.o(.data)
    pxOverflowDelayedTaskList                0x2000001c   Data           4  tasks.o(.data)
    uxDeletedTasksWaitingCleanUp             0x20000020   Data           4  tasks.o(.data)
    uxCurrentNumberOfTasks                   0x20000024   Data           4  tasks.o(.data)
    xTickCount                               0x20000028   Data           4  tasks.o(.data)
    uxTopReadyPriority                       0x2000002c   Data           4  tasks.o(.data)
    xSchedulerRunning                        0x20000030   Data           4  tasks.o(.data)
    uxPendedTicks                            0x20000034   Data           4  tasks.o(.data)
    xYieldPending                            0x20000038   Data           4  tasks.o(.data)
    xNumOfOverflows                          0x2000003c   Data           4  tasks.o(.data)
    uxTaskNumber                             0x20000040   Data           4  tasks.o(.data)
    xNextTaskUnblockTime                     0x20000044   Data           4  tasks.o(.data)
    xIdleTaskHandle                          0x20000048   Data           4  tasks.o(.data)
    uxSchedulerSuspended                     0x2000004c   Data           4  tasks.o(.data)
    .data                                    0x20000050   Section       20  timers.o(.data)
    pxCurrentTimerList                       0x20000050   Data           4  timers.o(.data)
    pxOverflowTimerList                      0x20000054   Data           4  timers.o(.data)
    xTimerQueue                              0x20000058   Data           4  timers.o(.data)
    xTimerTaskHandle                         0x2000005c   Data           4  timers.o(.data)
    xLastTime                                0x20000060   Data           4  timers.o(.data)
    .data                                    0x20000064   Section        4  cmsis_os2.o(.data)
    KernelState                              0x20000064   Data           4  cmsis_os2.o(.data)
    .data                                    0x20000068   Section       24  heap_4.o(.data)
    pxEnd                                    0x20000068   Data           4  heap_4.o(.data)
    xFreeBytesRemaining                      0x2000006c   Data           4  heap_4.o(.data)
    xMinimumEverFreeBytesRemaining           0x20000070   Data           4  heap_4.o(.data)
    xBlockAllocatedBit                       0x20000074   Data           4  heap_4.o(.data)
    xStart                                   0x20000078   Data           8  heap_4.o(.data)
    .data                                    0x20000080   Section       12  port.o(.data)
    ucMaxSysCallPriority                     0x20000080   Data           1  port.o(.data)
    uxCriticalNesting                        0x20000084   Data           4  port.o(.data)
    ulMaxPRIGROUPValue                       0x20000088   Data           4  port.o(.data)
    .data                                    0x2000008c   Section        8  driver_oled.o(.data)
    mem_mode                                 0x2000008c   Data           1  driver_oled.o(.data)
    g_pHI2COLED                              0x20000090   Data           4  driver_oled.o(.data)
    .data                                    0x20000094   Section       12  driver_mpu6050.o(.data)
    g_pHI2C_MPU6050                          0x20000094   Data           4  driver_mpu6050.o(.data)
    g_xEventMPU6050                          0x20000098   Data           4  driver_mpu6050.o(.data)
    g_xQueueMPU6050                          0x2000009c   Data           4  driver_mpu6050.o(.data)
    .data                                    0x200000a0   Section        4  driver_passive_buzzer.o(.data)
    g_HPWM_PassiveBuzzer                     0x200000a0   Data           4  driver_passive_buzzer.o(.data)
    .data                                    0x200000a8   Section       32  driver_ir_receiver.o(.data)
    g_IRReceiverIRQ_Cnt                      0x200000a8   Data           4  driver_ir_receiver.o(.data)
    g_queue_cnt                              0x200000ac   Data           4  driver_ir_receiver.o(.data)
    g_KeysBuf_R                              0x200000b0   Data           4  driver_ir_receiver.o(.data)
    g_KeysBuf_W                              0x200000b4   Data           4  driver_ir_receiver.o(.data)
    g_xQueueIR                               0x200000b8   Data           4  driver_ir_receiver.o(.data)
    pre_time                                 0x200000c0   Data           8  driver_ir_receiver.o(.data)
    .data                                    0x200000c8   Section       24  driver_rotary_encoder.o(.data)
    g_count                                  0x200000c8   Data           4  driver_rotary_encoder.o(.data)
    g_speed                                  0x200000cc   Data           4  driver_rotary_encoder.o(.data)
    pre_count                                0x200000d0   Data           4  driver_rotary_encoder.o(.data)
    g_xQueueRotary                           0x200000d4   Data           4  driver_rotary_encoder.o(.data)
    pre_time                                 0x200000d8   Data           8  driver_rotary_encoder.o(.data)
    .data                                    0x200000e0   Section       16  draw.o(.data)
    oledBuffer                               0x200000e0   Data           4  draw.o(.data)
    g_xres                                   0x200000e4   Data           4  draw.o(.data)
    g_yres                                   0x200000e8   Data           4  draw.o(.data)
    g_bpp                                    0x200000ec   Data           4  draw.o(.data)
    .data                                    0x200000f0   Section       72  game1.o(.data)
    first                                    0x200000f0   Data           1  game1.o(.data)
    uptMove                                  0x200000f1   Data           1  game1.o(.data)
    lives                                    0x200000f2   Data           1  game1.o(.data)
    lives_origin                             0x200000f3   Data           1  game1.o(.data)
    platformX                                0x200000f4   Data           1  game1.o(.data)
    score                                    0x200000f6   Data           2  game1.o(.data)
    blocks                                   0x200000f8   Data           4  game1.o(.data)
    g_xres                                   0x200000fc   Data           4  game1.o(.data)
    g_yres                                   0x20000100   Data           4  game1.o(.data)
    g_bpp                                    0x20000104   Data           4  game1.o(.data)
    g_framebuffer                            0x20000108   Data           4  game1.o(.data)
    g_xQueueSetInput                         0x2000010c   Data           4  game1.o(.data)
    g_xQueuePlatform                         0x20000110   Data           4  game1.o(.data)
    g_xQueueIR                               0x20000114   Data           4  game1.o(.data)
    g_xQueueRotary                           0x20000118   Data           4  game1.o(.data)
    g_xQueueMPU6050                          0x2000011c   Data           4  game1.o(.data)
    inputdata                                0x20000120   Data           8  game1.o(.data)
    idata                                    0x20000128   Data           8  game1.o(.data)
    idata                                    0x20000130   Data           8  game1.o(.data)
    .data                                    0x20000138   Section        4  beep.o(.data)
    g_TimerSound                             0x20000138   Data           4  beep.o(.data)
    .data                                    0x2000013c   Section        4  rand.o(.data)
    _rand_state                              0x2000013c   Data           4  rand.o(.data)
    .data                                    0x20000140   Section        4  mvars.o(.data)
    .data                                    0x20000144   Section        4  mvars.o(.data)
    .bss                                     0x20000148   Section       48  adc.o(.bss)
    .bss                                     0x20000178   Section       84  i2c.o(.bss)
    .bss                                     0x200001cc   Section       88  spi.o(.bss)
    .bss                                     0x20000224   Section      216  tim.o(.bss)
    .bss                                     0x200002fc   Section       72  usart.o(.bss)
    .bss                                     0x20000344   Section      752  usb.o(.bss)
    .bss                                     0x20000634   Section       72  stm32f1xx_hal_timebase_tim.o(.bss)
    .bss                                     0x2000067c   Section       64  queue.o(.bss)
    .bss                                     0x200006bc   Section     1220  tasks.o(.bss)
    pxReadyTasksLists                        0x200006bc   Data        1120  tasks.o(.bss)
    xDelayedTaskList1                        0x20000b1c   Data          20  tasks.o(.bss)
    xDelayedTaskList2                        0x20000b30   Data          20  tasks.o(.bss)
    xPendingReadyList                        0x20000b44   Data          20  tasks.o(.bss)
    xTasksWaitingTermination                 0x20000b58   Data          20  tasks.o(.bss)
    xSuspendedTaskList                       0x20000b6c   Data          20  tasks.o(.bss)
    .bss                                     0x20000b80   Section      284  timers.o(.bss)
    xActiveTimerList1                        0x20000b80   Data          20  timers.o(.bss)
    xActiveTimerList2                        0x20000b94   Data          20  timers.o(.bss)
    xStaticTimerQueue                        0x20000ba8   Data          84  timers.o(.bss)
    ucStaticTimerQueueStorage                0x20000bfc   Data         160  timers.o(.bss)
    .bss                                     0x20000c9c   Section     1720  cmsis_os2.o(.bss)
    Idle_TCB                                 0x20000c9c   Data          92  cmsis_os2.o(.bss)
    Idle_Stack                               0x20000cf8   Data         512  cmsis_os2.o(.bss)
    Timer_TCB                                0x20000ef8   Data          92  cmsis_os2.o(.bss)
    Timer_Stack                              0x20000f54   Data        1024  cmsis_os2.o(.bss)
    .bss                                     0x20001354   Section     8000  heap_4.o(.bss)
    ucHeap                                   0x20001354   Data        8000  heap_4.o(.bss)
    .bss                                     0x20003294   Section     1024  driver_oled.o(.bss)
    oledBuffer                               0x20003294   Data        1024  driver_oled.o(.bss)
    .bss                                     0x20003698   Section      712  driver_ir_receiver.o(.bss)
    g_KeysBuf                                0x20003698   Data         128  driver_ir_receiver.o(.bss)
    g_IRReceiverIRQ_Timers                   0x20003718   Data         544  driver_ir_receiver.o(.bss)
    g_xQueues                                0x20003938   Data          40  driver_ir_receiver.o(.bss)
    .bss                                     0x20003960   Section      164  driver_rotary_encoder.o(.bss)
    g_ucQueueRotaryBuf                       0x20003960   Data          80  driver_rotary_encoder.o(.bss)
    g_xQueueRotaryStaticStruct               0x200039b0   Data          84  driver_rotary_encoder.o(.bss)
    .bss                                     0x20003a04   Section       16  game1.o(.bss)
    ball                                     0x20003a04   Data          16  game1.o(.bss)
    HEAP                                     0x20003a18   Section      512  startup_stm32f103xb.o(HEAP)
    STACK                                    0x20003c18   Section     1024  startup_stm32f103xb.o(STACK)

    Global Symbols

    Symbol Name                              Value     Ov Type        Size  Object(Section)

    BuildAttributes$$THM_ISAv4$P$D$K$B$S$PE$A:L22UL41UL21$X:L11$S22US41US21$IEEE1$IW$USESV6$~STKCKD$USESV7$~SHL$OTIME$ROPI$EBA8$MICROLIB$REQ8$PRES8$EABIv2 0x00000000   Number         0  anon$$obj.o ABSOLUTE
    __ARM_use_no_argv                        0x00000000   Number         0  main.o ABSOLUTE
    _printf_a                                0x00000000   Number         0  stubs.o ABSOLUTE
    _printf_c                                0x00000000   Number         0  stubs.o ABSOLUTE
    _printf_charcount                        0x00000000   Number         0  stubs.o ABSOLUTE
    _printf_d                                0x00000000   Number         0  stubs.o ABSOLUTE
    _printf_e                                0x00000000   Number         0  stubs.o ABSOLUTE
    _printf_f                                0x00000000   Number         0  stubs.o ABSOLUTE
    _printf_flags                            0x00000000   Number         0  stubs.o ABSOLUTE
    _printf_fp_dec                           0x00000000   Number         0  stubs.o ABSOLUTE
    _printf_fp_hex                           0x00000000   Number         0  stubs.o ABSOLUTE
    _printf_g                                0x00000000   Number         0  stubs.o ABSOLUTE
    _printf_i                                0x00000000   Number         0  stubs.o ABSOLUTE
    _printf_int_dec                          0x00000000   Number         0  stubs.o ABSOLUTE
    _printf_l                                0x00000000   Number         0  stubs.o ABSOLUTE
    _printf_lc                               0x00000000   Number         0  stubs.o ABSOLUTE
    _printf_ll                               0x00000000   Number         0  stubs.o ABSOLUTE
    _printf_lld                              0x00000000   Number         0  stubs.o ABSOLUTE
    _printf_lli                              0x00000000   Number         0  stubs.o ABSOLUTE
    _printf_llo                              0x00000000   Number         0  stubs.o ABSOLUTE
    _printf_llu                              0x00000000   Number         0  stubs.o ABSOLUTE
    _printf_llx                              0x00000000   Number         0  stubs.o ABSOLUTE
    _printf_longlong_dec                     0x00000000   Number         0  stubs.o ABSOLUTE
    _printf_longlong_hex                     0x00000000   Number         0  stubs.o ABSOLUTE
    _printf_longlong_oct                     0x00000000   Number         0  stubs.o ABSOLUTE
    _printf_ls                               0x00000000   Number         0  stubs.o ABSOLUTE
    _printf_mbtowc                           0x00000000   Number         0  stubs.o ABSOLUTE
    _printf_n                                0x00000000   Number         0  stubs.o ABSOLUTE
    _printf_o                                0x00000000   Number         0  stubs.o ABSOLUTE
    _printf_p                                0x00000000   Number         0  stubs.o ABSOLUTE
    _printf_percent                          0x00000000   Number         0  stubs.o ABSOLUTE
    _printf_pre_padding                      0x00000000   Number         0  stubs.o ABSOLUTE
    _printf_return_value                     0x00000000   Number         0  stubs.o ABSOLUTE
    _printf_s                                0x00000000   Number         0  stubs.o ABSOLUTE
    _printf_sizespec                         0x00000000   Number         0  stubs.o ABSOLUTE
    _printf_str                              0x00000000   Number         0  stubs.o ABSOLUTE
    _printf_truncate_signed                  0x00000000   Number         0  stubs.o ABSOLUTE
    _printf_truncate_unsigned                0x00000000   Number         0  stubs.o ABSOLUTE
    _printf_u                                0x00000000   Number         0  stubs.o ABSOLUTE
    _printf_wc                               0x00000000   Number         0  stubs.o ABSOLUTE
    _printf_wctomb                           0x00000000   Number         0  stubs.o ABSOLUTE
    _printf_widthprec                        0x00000000   Number         0  stubs.o ABSOLUTE
    _printf_x                                0x00000000   Number         0  stubs.o ABSOLUTE
    __cpp_initialize__aeabi_                  - Undefined Weak Reference
    __cxa_finalize                            - Undefined Weak Reference
    _clock_init                               - Undefined Weak Reference
    _microlib_exit                            - Undefined Weak Reference
    __Vectors_Size                           0x000000ec   Number         0  startup_stm32f103xb.o ABSOLUTE
    __Vectors                                0x08000000   Data           4  startup_stm32f103xb.o(RESET)
    __Vectors_End                            0x080000ec   Data           0  startup_stm32f103xb.o(RESET)
    __main                                   0x080000ed   Thumb Code     0  entry.o(.ARM.Collect$$$$00000000)
    _main_stk                                0x080000ed   Thumb Code     0  entry2.o(.ARM.Collect$$$$00000001)
    _main_scatterload                        0x080000f1   Thumb Code     0  entry5.o(.ARM.Collect$$$$00000004)
    __main_after_scatterload                 0x080000f5   Thumb Code     0  entry5.o(.ARM.Collect$$$$00000004)
    _main_clock                              0x080000f5   Thumb Code     0  entry7b.o(.ARM.Collect$$$$00000008)
    _main_cpp_init                           0x080000f5   Thumb Code     0  entry8b.o(.ARM.Collect$$$$0000000A)
    _main_init                               0x080000f5   Thumb Code     0  entry9a.o(.ARM.Collect$$$$0000000B)
    __rt_final_cpp                           0x080000fd   Thumb Code     0  entry10a.o(.ARM.Collect$$$$0000000D)
    __rt_final_exit                          0x080000fd   Thumb Code     0  entry11a.o(.ARM.Collect$$$$0000000F)
    SVC_Handler                              0x08000101   Thumb Code    32  port.o(.emb_text)
    __asm___6_port_c_39a90d8d__prvStartFirstTask 0x08000125   Thumb Code    28  port.o(.emb_text)
    PendSV_Handler                           0x08000145   Thumb Code    72  port.o(.emb_text)
    vPortGetIPSR                             0x08000191   Thumb Code     6  port.o(.emb_text)
    Reset_Handler                            0x08000199   Thumb Code     8  startup_stm32f103xb.o(.text)
    ADC1_2_IRQHandler                        0x080001b3   Thumb Code     0  startup_stm32f103xb.o(.text)
    CAN1_RX1_IRQHandler                      0x080001b3   Thumb Code     0  startup_stm32f103xb.o(.text)
    CAN1_SCE_IRQHandler                      0x080001b3   Thumb Code     0  startup_stm32f103xb.o(.text)
    DMA1_Channel1_IRQHandler                 0x080001b3   Thumb Code     0  startup_stm32f103xb.o(.text)
    DMA1_Channel2_IRQHandler                 0x080001b3   Thumb Code     0  startup_stm32f103xb.o(.text)
    DMA1_Channel3_IRQHandler                 0x080001b3   Thumb Code     0  startup_stm32f103xb.o(.text)
    DMA1_Channel4_IRQHandler                 0x080001b3   Thumb Code     0  startup_stm32f103xb.o(.text)
    DMA1_Channel5_IRQHandler                 0x080001b3   Thumb Code     0  startup_stm32f103xb.o(.text)
    DMA1_Channel6_IRQHandler                 0x080001b3   Thumb Code     0  startup_stm32f103xb.o(.text)
    DMA1_Channel7_IRQHandler                 0x080001b3   Thumb Code     0  startup_stm32f103xb.o(.text)
    EXTI0_IRQHandler                         0x080001b3   Thumb Code     0  startup_stm32f103xb.o(.text)
    EXTI1_IRQHandler                         0x080001b3   Thumb Code     0  startup_stm32f103xb.o(.text)
    EXTI2_IRQHandler                         0x080001b3   Thumb Code     0  startup_stm32f103xb.o(.text)
    EXTI3_IRQHandler                         0x080001b3   Thumb Code     0  startup_stm32f103xb.o(.text)
    EXTI4_IRQHandler                         0x080001b3   Thumb Code     0  startup_stm32f103xb.o(.text)
    FLASH_IRQHandler                         0x080001b3   Thumb Code     0  startup_stm32f103xb.o(.text)
    I2C1_ER_IRQHandler                       0x080001b3   Thumb Code     0  startup_stm32f103xb.o(.text)
    I2C1_EV_IRQHandler                       0x080001b3   Thumb Code     0  startup_stm32f103xb.o(.text)
    I2C2_ER_IRQHandler                       0x080001b3   Thumb Code     0  startup_stm32f103xb.o(.text)
    I2C2_EV_IRQHandler                       0x080001b3   Thumb Code     0  startup_stm32f103xb.o(.text)
    PVD_IRQHandler                           0x080001b3   Thumb Code     0  startup_stm32f103xb.o(.text)
    RCC_IRQHandler                           0x080001b3   Thumb Code     0  startup_stm32f103xb.o(.text)
    RTC_Alarm_IRQHandler                     0x080001b3   Thumb Code     0  startup_stm32f103xb.o(.text)
    RTC_IRQHandler                           0x080001b3   Thumb Code     0  startup_stm32f103xb.o(.text)
    SPI1_IRQHandler                          0x080001b3   Thumb Code     0  startup_stm32f103xb.o(.text)
    SPI2_IRQHandler                          0x080001b3   Thumb Code     0  startup_stm32f103xb.o(.text)
    TAMPER_IRQHandler                        0x080001b3   Thumb Code     0  startup_stm32f103xb.o(.text)
    TIM1_BRK_IRQHandler                      0x080001b3   Thumb Code     0  startup_stm32f103xb.o(.text)
    TIM1_CC_IRQHandler                       0x080001b3   Thumb Code     0  startup_stm32f103xb.o(.text)
    TIM1_TRG_COM_IRQHandler                  0x080001b3   Thumb Code     0  startup_stm32f103xb.o(.text)
    TIM1_UP_IRQHandler                       0x080001b3   Thumb Code     0  startup_stm32f103xb.o(.text)
    TIM2_IRQHandler                          0x080001b3   Thumb Code     0  startup_stm32f103xb.o(.text)
    TIM3_IRQHandler                          0x080001b3   Thumb Code     0  startup_stm32f103xb.o(.text)
    USART1_IRQHandler                        0x080001b3   Thumb Code     0  startup_stm32f103xb.o(.text)
    USART2_IRQHandler                        0x080001b3   Thumb Code     0  startup_stm32f103xb.o(.text)
    USART3_IRQHandler                        0x080001b3   Thumb Code     0  startup_stm32f103xb.o(.text)
    USBWakeUp_IRQHandler                     0x080001b3   Thumb Code     0  startup_stm32f103xb.o(.text)
    USB_HP_CAN1_TX_IRQHandler                0x080001b3   Thumb Code     0  startup_stm32f103xb.o(.text)
    USB_LP_CAN1_RX0_IRQHandler               0x080001b3   Thumb Code     0  startup_stm32f103xb.o(.text)
    WWDG_IRQHandler                          0x080001b3   Thumb Code     0  startup_stm32f103xb.o(.text)
    __aeabi_uldivmod                         0x080001bd   Thumb Code    98  uldiv.o(.text)
    __aeabi_llsr                             0x0800021f   Thumb Code    32  llushr.o(.text)
    _ll_ushift_r                             0x0800021f   Thumb Code     0  llushr.o(.text)
    rand                                     0x08000241   Thumb Code    20  rand.o(.text)
    srand                                    0x08000255   Thumb Code     6  rand.o(.text)
    __aeabi_memcpy                           0x08000265   Thumb Code    36  memcpya.o(.text)
    __aeabi_memcpy4                          0x08000265   Thumb Code     0  memcpya.o(.text)
    __aeabi_memcpy8                          0x08000265   Thumb Code     0  memcpya.o(.text)
    __aeabi_memset                           0x08000289   Thumb Code    14  memseta.o(.text)
    __aeabi_memset4                          0x08000289   Thumb Code     0  memseta.o(.text)
    __aeabi_memset8                          0x08000289   Thumb Code     0  memseta.o(.text)
    __aeabi_memclr                           0x08000297   Thumb Code     4  memseta.o(.text)
    __aeabi_memclr4                          0x08000297   Thumb Code     0  memseta.o(.text)
    __aeabi_memclr8                          0x08000297   Thumb Code     0  memseta.o(.text)
    memset                                   0x0800029b   Thumb Code    18  memseta.o(.text)
    strlen                                   0x080002ad   Thumb Code    14  strlen.o(.text)
    strcpy                                   0x080002bb   Thumb Code    18  strcpy.o(.text)
    __aeabi_fadd                             0x080002cd   Thumb Code   164  fadd.o(.text)
    __aeabi_fsub                             0x08000371   Thumb Code     6  fadd.o(.text)
    __aeabi_frsub                            0x08000377   Thumb Code     6  fadd.o(.text)
    __ARM_scalbnf                            0x0800037d   Thumb Code    24  fscalb.o(.text)
    scalbnf                                  0x0800037d   Thumb Code     0  fscalb.o(.text)
    __aeabi_i2f                              0x08000395   Thumb Code    18  fflti.o(.text)
    __aeabi_ui2f                             0x080003a7   Thumb Code    10  ffltui.o(.text)
    __aeabi_f2uiz                            0x080003b1   Thumb Code    40  ffixui.o(.text)
    __aeabi_cfcmpeq                          0x080003d9   Thumb Code     0  cfcmple.o(.text)
    __aeabi_cfcmple                          0x080003d9   Thumb Code    20  cfcmple.o(.text)
    __aeabi_cfrcmple                         0x080003ed   Thumb Code    20  cfrcmple.o(.text)
    __aeabi_uidiv                            0x08000401   Thumb Code     0  uidiv.o(.text)
    __aeabi_uidivmod                         0x08000401   Thumb Code    44  uidiv.o(.text)
    __aeabi_llsl                             0x0800042d   Thumb Code    30  llshl.o(.text)
    _ll_shift_l                              0x0800042d   Thumb Code     0  llshl.o(.text)
    __I$use$fp                               0x0800044b   Thumb Code     0  iusefp.o(.text)
    _float_round                             0x0800044b   Thumb Code    18  fepilogue.o(.text)
    _float_epilogue                          0x0800045d   Thumb Code    92  fepilogue.o(.text)
    __scatterload                            0x080004b9   Thumb Code    28  init.o(.text)
    __scatterload_rt2                        0x080004b9   Thumb Code     0  init.o(.text)
    __decompress                             0x080004dd   Thumb Code     0  __dczerorl2.o(.text)
    __decompress1                            0x080004dd   Thumb Code    86  __dczerorl2.o(.text)
    ADC_ConversionStop_Disable               0x08000535   Thumb Code    86  stm32f1xx_hal_adc.o(i.ADC_ConversionStop_Disable)
    BusFault_Handler                         0x0800058b   Thumb Code     2  stm32f1xx_it.o(i.BusFault_Handler)
    DebugMon_Handler                         0x0800058d   Thumb Code     2  stm32f1xx_it.o(i.DebugMon_Handler)
    DispatchKey                              0x08000591   Thumb Code    62  driver_ir_receiver.o(i.DispatchKey)
    EXTI15_10_IRQHandler                     0x080005dd   Thumb Code    30  stm32f1xx_it.o(i.EXTI15_10_IRQHandler)
    EXTI9_5_IRQHandler                       0x080005fb   Thumb Code     6  stm32f1xx_it.o(i.EXTI9_5_IRQHandler)
    Error_Handler                            0x08000601   Thumb Code     4  main.o(i.Error_Handler)
    GameSoundTimer_func                      0x08000605   Thumb Code     6  beep.o(i.GameSoundTimer_func)
    GetI2C                                   0x0800060d   Thumb Code    12  freertos.o(i.GetI2C)
    GetQueueIR                               0x0800061d   Thumb Code     6  driver_ir_receiver.o(i.GetQueueIR)
    GetQueueMPU6050                          0x08000629   Thumb Code     6  driver_mpu6050.o(i.GetQueueMPU6050)
    GetQueueRotary                           0x08000635   Thumb Code     6  driver_rotary_encoder.o(i.GetQueueRotary)
    HAL_ADC_ConfigChannel                    0x08000641   Thumb Code   240  stm32f1xx_hal_adc.o(i.HAL_ADC_ConfigChannel)
    HAL_ADC_Init                             0x0800073d   Thumb Code   272  stm32f1xx_hal_adc.o(i.HAL_ADC_Init)
    HAL_ADC_MspInit                          0x08000859   Thumb Code    76  adc.o(i.HAL_ADC_MspInit)
    HAL_GPIO_EXTI_Callback                   0x080008b1   Thumb Code    30  driver_irq.o(i.HAL_GPIO_EXTI_Callback)
    HAL_GPIO_EXTI_IRQHandler                 0x080008d1   Thumb Code    18  stm32f1xx_hal_gpio.o(i.HAL_GPIO_EXTI_IRQHandler)
    HAL_GPIO_Init                            0x080008e9   Thumb Code   446  stm32f1xx_hal_gpio.o(i.HAL_GPIO_Init)
    HAL_GPIO_ReadPin                         0x08000ac9   Thumb Code    10  stm32f1xx_hal_gpio.o(i.HAL_GPIO_ReadPin)
    HAL_GPIO_WritePin                        0x08000ad3   Thumb Code    10  stm32f1xx_hal_gpio.o(i.HAL_GPIO_WritePin)
    HAL_GetTick                              0x08000add   Thumb Code     6  stm32f1xx_hal.o(i.HAL_GetTick)
    HAL_I2C_Init                             0x08000ae9   Thumb Code   376  stm32f1xx_hal_i2c.o(i.HAL_I2C_Init)
    HAL_I2C_Master_Transmit                  0x08000c71   Thumb Code   290  stm32f1xx_hal_i2c.o(i.HAL_I2C_Master_Transmit)
    HAL_I2C_Mem_Read                         0x08000d9d   Thumb Code   574  stm32f1xx_hal_i2c.o(i.HAL_I2C_Mem_Read)
    HAL_I2C_Mem_Write                        0x08000fed   Thumb Code   294  stm32f1xx_hal_i2c.o(i.HAL_I2C_Mem_Write)
    HAL_I2C_MspInit                          0x0800111d   Thumb Code    80  i2c.o(i.HAL_I2C_MspInit)
    HAL_IncTick                              0x08001179   Thumb Code    12  stm32f1xx_hal.o(i.HAL_IncTick)
    HAL_Init                                 0x08001189   Thumb Code    32  stm32f1xx_hal.o(i.HAL_Init)
    HAL_InitTick                             0x080011ad   Thumb Code   132  stm32f1xx_hal_timebase_tim.o(i.HAL_InitTick)
    HAL_MspInit                              0x08001245   Thumb Code    62  stm32f1xx_hal_msp.o(i.HAL_MspInit)
    HAL_NVIC_EnableIRQ                       0x0800128d   Thumb Code    26  stm32f1xx_hal_cortex.o(i.HAL_NVIC_EnableIRQ)
    HAL_NVIC_SetPriority                     0x080012a9   Thumb Code    60  stm32f1xx_hal_cortex.o(i.HAL_NVIC_SetPriority)
    HAL_NVIC_SetPriorityGrouping             0x080012e9   Thumb Code    26  stm32f1xx_hal_cortex.o(i.HAL_NVIC_SetPriorityGrouping)
    HAL_PCD_Init                             0x0800130d   Thumb Code   218  stm32f1xx_hal_pcd.o(i.HAL_PCD_Init)
    HAL_PCD_MspInit                          0x080013e9   Thumb Code    30  usb.o(i.HAL_PCD_MspInit)
    HAL_RCCEx_PeriphCLKConfig                0x08001411   Thumb Code   224  stm32f1xx_hal_rcc_ex.o(i.HAL_RCCEx_PeriphCLKConfig)
    HAL_RCC_ClockConfig                      0x080014fd   Thumb Code   280  stm32f1xx_hal_rcc.o(i.HAL_RCC_ClockConfig)
    HAL_RCC_GetClockConfig                   0x08001629   Thumb Code    54  stm32f1xx_hal_rcc.o(i.HAL_RCC_GetClockConfig)
    HAL_RCC_GetPCLK1Freq                     0x08001669   Thumb Code    20  stm32f1xx_hal_rcc.o(i.HAL_RCC_GetPCLK1Freq)
    HAL_RCC_GetPCLK2Freq                     0x08001689   Thumb Code    20  stm32f1xx_hal_rcc.o(i.HAL_RCC_GetPCLK2Freq)
    HAL_RCC_GetSysClockFreq                  0x080016a9   Thumb Code    58  stm32f1xx_hal_rcc.o(i.HAL_RCC_GetSysClockFreq)
    HAL_RCC_OscConfig                        0x080016f5   Thumb Code   778  stm32f1xx_hal_rcc.o(i.HAL_RCC_OscConfig)
    HAL_SPI_Init                             0x08001a15   Thumb Code   178  stm32f1xx_hal_spi.o(i.HAL_SPI_Init)
    HAL_SPI_MspInit                          0x08001ac9   Thumb Code    98  spi.o(i.HAL_SPI_MspInit)
    HAL_TIMEx_BreakCallback                  0x08001b39   Thumb Code     2  stm32f1xx_hal_tim_ex.o(i.HAL_TIMEx_BreakCallback)
    HAL_TIMEx_CommutCallback                 0x08001b3b   Thumb Code     2  stm32f1xx_hal_tim_ex.o(i.HAL_TIMEx_CommutCallback)
    HAL_TIMEx_ConfigBreakDeadTime            0x08001b3d   Thumb Code    84  stm32f1xx_hal_tim_ex.o(i.HAL_TIMEx_ConfigBreakDeadTime)
    HAL_TIMEx_MasterConfigSynchronization    0x08001b91   Thumb Code    92  stm32f1xx_hal_tim_ex.o(i.HAL_TIMEx_MasterConfigSynchronization)
    HAL_TIM_Base_DeInit                      0x08001bf9   Thumb Code    92  stm32f1xx_hal_tim.o(i.HAL_TIM_Base_DeInit)
    HAL_TIM_Base_Init                        0x08001c55   Thumb Code    90  stm32f1xx_hal_tim.o(i.HAL_TIM_Base_Init)
    HAL_TIM_Base_MspDeInit                   0x08001cb1   Thumb Code    36  tim.o(i.HAL_TIM_Base_MspDeInit)
    HAL_TIM_Base_MspInit                     0x08001cdd   Thumb Code    52  tim.o(i.HAL_TIM_Base_MspInit)
    HAL_TIM_Base_Start_IT                    0x08001d19   Thumb Code    76  stm32f1xx_hal_tim.o(i.HAL_TIM_Base_Start_IT)
    HAL_TIM_ConfigClockSource                0x08001d71   Thumb Code   220  stm32f1xx_hal_tim.o(i.HAL_TIM_ConfigClockSource)
    HAL_TIM_IC_CaptureCallback               0x08001e4d   Thumb Code     2  stm32f1xx_hal_tim.o(i.HAL_TIM_IC_CaptureCallback)
    HAL_TIM_IRQHandler                       0x08001e4f   Thumb Code   358  stm32f1xx_hal_tim.o(i.HAL_TIM_IRQHandler)
    HAL_TIM_MspPostInit                      0x08001fb5   Thumb Code   212  tim.o(i.HAL_TIM_MspPostInit)
    HAL_TIM_OC_DelayElapsedCallback          0x080020a1   Thumb Code     2  stm32f1xx_hal_tim.o(i.HAL_TIM_OC_DelayElapsedCallback)
    HAL_TIM_PWM_ConfigChannel                0x080020a3   Thumb Code   204  stm32f1xx_hal_tim.o(i.HAL_TIM_PWM_ConfigChannel)
    HAL_TIM_PWM_Init                         0x0800216f   Thumb Code    90  stm32f1xx_hal_tim.o(i.HAL_TIM_PWM_Init)
    HAL_TIM_PWM_MspInit                      0x080021c9   Thumb Code    30  tim.o(i.HAL_TIM_PWM_MspInit)
    HAL_TIM_PWM_PulseFinishedCallback        0x080021f1   Thumb Code     2  stm32f1xx_hal_tim.o(i.HAL_TIM_PWM_PulseFinishedCallback)
    HAL_TIM_PWM_Start                        0x080021f5   Thumb Code   144  stm32f1xx_hal_tim.o(i.HAL_TIM_PWM_Start)
    HAL_TIM_PWM_Stop                         0x08002291   Thumb Code   108  stm32f1xx_hal_tim.o(i.HAL_TIM_PWM_Stop)
    HAL_TIM_PeriodElapsedCallback            0x08002301   Thumb Code    14  main.o(i.HAL_TIM_PeriodElapsedCallback)
    HAL_TIM_TriggerCallback                  0x08002315   Thumb Code     2  stm32f1xx_hal_tim.o(i.HAL_TIM_TriggerCallback)
    HAL_UART_Init                            0x08002317   Thumb Code   100  stm32f1xx_hal_uart.o(i.HAL_UART_Init)
    HAL_UART_MspInit                         0x0800237d   Thumb Code   100  usart.o(i.HAL_UART_MspInit)
    HardFault_Handler                        0x080023ed   Thumb Code     2  stm32f1xx_it.o(i.HardFault_Handler)
    IRReceiver_IRQ_Callback                  0x080029e5   Thumb Code   156  driver_ir_receiver.o(i.IRReceiver_IRQ_Callback)
    IRReceiver_Init                          0x08002a99   Thumb Code    24  driver_ir_receiver.o(i.IRReceiver_Init)
    InputTask                                0x08002ab5   Thumb Code   114  game1.o(i.InputTask)
    LCD_Clear                                0x08002b2d   Thumb Code     4  driver_lcd.o(i.LCD_Clear)
    LCD_Flush                                0x08002b31   Thumb Code     4  driver_lcd.o(i.LCD_Flush)
    LCD_FlushRegion                          0x08002b35   Thumb Code     4  driver_lcd.o(i.LCD_FlushRegion)
    LCD_GetFrameBuffer                       0x08002b39   Thumb Code     4  driver_lcd.o(i.LCD_GetFrameBuffer)
    LCD_Init                                 0x08002b3d   Thumb Code     4  driver_lcd.o(i.LCD_Init)
    LCD_PrintString                          0x08002b41   Thumb Code     4  driver_lcd.o(i.LCD_PrintString)
    MPU6050_Callback                         0x08002b45   Thumb Code    42  driver_mpu6050.o(i.MPU6050_Callback)
    MPU6050_Init                             0x08002b79   Thumb Code    90  driver_mpu6050.o(i.MPU6050_Init)
    MPU6050_ReadData                         0x08002bd9   Thumb Code   266  driver_mpu6050.o(i.MPU6050_ReadData)
    MPU6050_ReadRegister                     0x08002ce5   Thumb Code    28  driver_mpu6050.o(i.MPU6050_ReadRegister)
    MPU_6050_Task                            0x08002d29   Thumb Code    70  driver_mpu6050.o(i.MPU_6050_Task)
    MX_ADC1_Init                             0x08002d75   Thumb Code    70  adc.o(i.MX_ADC1_Init)
    MX_FREERTOS_Init                         0x08002dc5   Thumb Code    64  freertos.o(i.MX_FREERTOS_Init)
    MX_GPIO_Init                             0x08002e25   Thumb Code   326  gpio.o(i.MX_GPIO_Init)
    MX_I2C1_Init                             0x08002f85   Thumb Code    50  i2c.o(i.MX_I2C1_Init)
    MX_SPI1_Init                             0x08002fc5   Thumb Code    62  spi.o(i.MX_SPI1_Init)
    MX_TIM1_Init                             0x0800300d   Thumb Code   198  tim.o(i.MX_TIM1_Init)
    MX_TIM2_Init                             0x080030dd   Thumb Code   182  tim.o(i.MX_TIM2_Init)
    MX_TIM3_Init                             0x08003199   Thumb Code   110  tim.o(i.MX_TIM3_Init)
    MX_USART1_UART_Init                      0x08003211   Thumb Code    48  usart.o(i.MX_USART1_UART_Init)
    MX_USB_PCD_Init                          0x08003249   Thumb Code    42  usb.o(i.MX_USB_PCD_Init)
    MemManage_Handler                        0x0800327d   Thumb Code     2  stm32f1xx_it.o(i.MemManage_Handler)
    NMI_Handler                              0x0800327f   Thumb Code     2  stm32f1xx_it.o(i.NMI_Handler)
    OLED_Clear                               0x08003281   Thumb Code    42  driver_oled.o(i.OLED_Clear)
    OLED_Flush                               0x080032ad   Thumb Code    50  driver_oled.o(i.OLED_Flush)
    OLED_FlushRegion                         0x080032e5   Thumb Code    90  driver_oled.o(i.OLED_FlushRegion)
    OLED_GetFrameBuffer                      0x08003345   Thumb Code    16  driver_oled.o(i.OLED_GetFrameBuffer)
    OLED_Init                                0x08003359   Thumb Code   142  driver_oled.o(i.OLED_Init)
    OLED_PrintString                         0x080033ed   Thumb Code    50  driver_oled.o(i.OLED_PrintString)
    OLED_PutChar                             0x08003421   Thumb Code    66  driver_oled.o(i.OLED_PutChar)
    OLED_SetPosition                         0x08003495   Thumb Code    58  driver_oled.o(i.OLED_SetPosition)
    PassiveBuzzer_Control                    0x0800351d   Thumb Code    20  driver_passive_buzzer.o(i.PassiveBuzzer_Control)
    PassiveBuzzer_Init                       0x08003535   Thumb Code    92  driver_passive_buzzer.o(i.PassiveBuzzer_Init)
    PassiveBuzzer_Set_Freq_Duty              0x0800359d   Thumb Code   122  driver_passive_buzzer.o(i.PassiveBuzzer_Set_Freq_Duty)
    PutI2C                                   0x080036d9   Thumb Code    14  freertos.o(i.PutI2C)
    RegisterQueueHandle                      0x080036ed   Thumb Code    20  driver_ir_receiver.o(i.RegisterQueueHandle)
    RotaryEncoder_IRQ_Callback               0x08003709   Thumb Code   136  driver_rotary_encoder.o(i.RotaryEncoder_IRQ_Callback)
    RotaryEncoder_Init                       0x080037a1   Thumb Code    26  driver_rotary_encoder.o(i.RotaryEncoder_Init)
    SysTick_Handler                          0x080037c5   Thumb Code    38  port.o(i.SysTick_Handler)
    SystemClock_Config                       0x080037f1   Thumb Code   124  main.o(i.SystemClock_Config)
    SystemInit                               0x0800386d   Thumb Code     2  system_stm32f1xx.o(i.SystemInit)
    TIM4_IRQHandler                          0x08003871   Thumb Code     6  stm32f1xx_it.o(i.TIM4_IRQHandler)
    TIM_Base_SetConfig                       0x0800387d   Thumb Code    94  stm32f1xx_hal_tim.o(i.TIM_Base_SetConfig)
    TIM_CCxChannelCmd                        0x080038e9   Thumb Code    26  stm32f1xx_hal_tim.o(i.TIM_CCxChannelCmd)
    TIM_ETR_SetConfig                        0x08003903   Thumb Code    20  stm32f1xx_hal_tim.o(i.TIM_ETR_SetConfig)
    TIM_OC2_SetConfig                        0x08003979   Thumb Code    84  stm32f1xx_hal_tim.o(i.TIM_OC2_SetConfig)
    USB_CoreInit                             0x08003b6d   Thumb Code     4  stm32f1xx_ll_usb.o(i.USB_CoreInit)
    USB_DevDisconnect                        0x08003b71   Thumb Code     4  stm32f1xx_ll_usb.o(i.USB_DevDisconnect)
    USB_DevInit                              0x08003b75   Thumb Code    18  stm32f1xx_ll_usb.o(i.USB_DevInit)
    USB_DisableGlobalInt                     0x08003b87   Thumb Code    14  stm32f1xx_ll_usb.o(i.USB_DisableGlobalInt)
    USB_SetCurrentMode                       0x08003b95   Thumb Code     4  stm32f1xx_ll_usb.o(i.USB_SetCurrentMode)
    UsageFault_Handler                       0x08003b99   Thumb Code     2  stm32f1xx_it.o(i.UsageFault_Handler)
    __0sprintf$3                             0x08003b9d   Thumb Code    34  printf3.o(i.__0sprintf$3)
    __1sprintf$3                             0x08003b9d   Thumb Code     0  printf3.o(i.__0sprintf$3)
    __2sprintf                               0x08003b9d   Thumb Code     0  printf3.o(i.__0sprintf$3)
    __scatterload_copy                       0x08003be5   Thumb Code    14  handlers.o(i.__scatterload_copy)
    __scatterload_null                       0x08003bf3   Thumb Code     2  handlers.o(i.__scatterload_null)
    __scatterload_zeroinit                   0x08003bf5   Thumb Code    14  handlers.o(i.__scatterload_zeroinit)
    buzzer_buzz                              0x08003dc9   Thumb Code    30  beep.o(i.buzzer_buzz)
    buzzer_init                              0x08003ded   Thumb Code    28  beep.o(i.buzzer_init)
    draw_bitmap                              0x08003e1d   Thumb Code   458  draw.o(i.draw_bitmap)
    draw_end                                 0x08003fed   Thumb Code     4  draw.o(i.draw_end)
    draw_flushArea                           0x08003ff1   Thumb Code    36  draw.o(i.draw_flushArea)
    draw_init                                0x08004015   Thumb Code    20  draw.o(i.draw_init)
    draw_string                              0x0800402d   Thumb Code   166  draw.o(i.draw_string)
    draw_string_P                            0x080040dd   Thumb Code    54  draw.o(i.draw_string_P)
    free                                     0x08004115   Thumb Code    76  malloc.o(i.free)
    game1_draw                               0x08004165   Thumb Code   910  game1.o(i.game1_draw)
    game1_task                               0x08004521   Thumb Code   224  game1.o(i.game1_task)
    main                                     0x08004641   Thumb Code    58  main.o(i.main)
    malloc                                   0x0800467d   Thumb Code    92  malloc.o(i.malloc)
    mdelay                                   0x080046e9   Thumb Code    26  driver_timer.o(i.mdelay)
    osKernelInitialize                       0x08004705   Thumb Code    50  cmsis_os2.o(i.osKernelInitialize)
    osKernelStart                            0x0800473d   Thumb Code    58  cmsis_os2.o(i.osKernelStart)
    pvPortMalloc                             0x08005075   Thumb Code   210  heap_4.o(i.pvPortMalloc)
    pvTaskIncrementMutexHeldCount            0x0800514d   Thumb Code    18  tasks.o(i.pvTaskIncrementMutexHeldCount)
    pxPortInitialiseStack                    0x08005165   Thumb Code    32  port.o(i.pxPortInitialiseStack)
    system_get_ns                            0x080051c5   Thumb Code    58  driver_timer.o(i.system_get_ns)
    udelay                                   0x08005209   Thumb Code    52  driver_timer.o(i.udelay)
    uxListRemove                             0x08005241   Thumb Code    38  list.o(i.uxListRemove)
    uxTaskResetEventItemValue                0x08005269   Thumb Code    20  tasks.o(i.uxTaskResetEventItemValue)
    vApplicationGetIdleTaskMemory            0x08005281   Thumb Code    16  cmsis_os2.o(i.vApplicationGetIdleTaskMemory)
    vApplicationGetTimerTaskMemory           0x08005295   Thumb Code    18  cmsis_os2.o(i.vApplicationGetTimerTaskMemory)
    vEventGroupSetBitsCallback               0x080052ad   Thumb Code     4  event_groups.o(i.vEventGroupSetBitsCallback)
    vListInitialise                          0x080052b1   Thumb Code    22  list.o(i.vListInitialise)
    vListInitialiseItem                      0x080052c7   Thumb Code     6  list.o(i.vListInitialiseItem)
    vListInsert                              0x080052cd   Thumb Code    48  list.o(i.vListInsert)
    vListInsertEnd                           0x080052fd   Thumb Code    24  list.o(i.vListInsertEnd)
    vPortEnterCritical                       0x08005315   Thumb Code    54  port.o(i.vPortEnterCritical)
    vPortExitCritical                        0x08005355   Thumb Code    34  port.o(i.vPortExitCritical)
    vPortFree                                0x0800537d   Thumb Code    88  heap_4.o(i.vPortFree)
    vPortSetupTimerInterrupt                 0x080053d9   Thumb Code    32  port.o(i.vPortSetupTimerInterrupt)
    vPortValidateInterruptPriority           0x080053fd   Thumb Code    74  port.o(i.vPortValidateInterruptPriority)
    vQueueAddToRegistry                      0x08005451   Thumb Code    34  queue.o(i.vQueueAddToRegistry)
    vQueueWaitForMessageRestricted           0x08005479   Thumb Code    68  queue.o(i.vQueueWaitForMessageRestricted)
    vTaskDelay                               0x080054bd   Thumb Code    66  tasks.o(i.vTaskDelay)
    vTaskInternalSetTimeOutState             0x08005509   Thumb Code    12  tasks.o(i.vTaskInternalSetTimeOutState)
    vTaskMissedYield                         0x08005519   Thumb Code     8  tasks.o(i.vTaskMissedYield)
    vTaskPlaceOnEventList                    0x08005525   Thumb Code    44  tasks.o(i.vTaskPlaceOnEventList)
    vTaskPlaceOnEventListRestricted          0x08005555   Thumb Code    52  tasks.o(i.vTaskPlaceOnEventListRestricted)
    vTaskPlaceOnUnorderedEventList           0x0800558d   Thumb Code    76  tasks.o(i.vTaskPlaceOnUnorderedEventList)
    vTaskPriorityDisinheritAfterTimeout      0x080055dd   Thumb Code   134  tasks.o(i.vTaskPriorityDisinheritAfterTimeout)
    vTaskRemoveFromUnorderedEventList        0x0800566d   Thumb Code   102  tasks.o(i.vTaskRemoveFromUnorderedEventList)
    vTaskStartScheduler                      0x080056dd   Thumb Code   118  tasks.o(i.vTaskStartScheduler)
    vTaskSuspendAll                          0x08005765   Thumb Code    10  tasks.o(i.vTaskSuspendAll)
    vTaskSwitchContext                       0x08005775   Thumb Code    90  tasks.o(i.vTaskSwitchContext)
    xEventGroupCreate                        0x080057d9   Thumb Code    28  event_groups.o(i.xEventGroupCreate)
    xEventGroupSetBits                       0x080057f5   Thumb Code   140  event_groups.o(i.xEventGroupSetBits)
    xEventGroupSetBitsFromISR                0x08005881   Thumb Code    12  event_groups.o(i.xEventGroupSetBitsFromISR)
    xEventGroupWaitBits                      0x08005891   Thumb Code   260  event_groups.o(i.xEventGroupWaitBits)
    xPortStartScheduler                      0x08005999   Thumb Code   154  port.o(i.xPortStartScheduler)
    xQueueAddToSet                           0x08005a41   Thumb Code    34  queue.o(i.xQueueAddToSet)
    xQueueCreateMutex                        0x08005a63   Thumb Code    22  queue.o(i.xQueueCreateMutex)
    xQueueCreateSet                          0x08005a79   Thumb Code     8  queue.o(i.xQueueCreateSet)
    xQueueGenericCreate                      0x08005a81   Thumb Code    72  queue.o(i.xQueueGenericCreate)
    xQueueGenericCreateStatic                0x08005ac9   Thumb Code   102  queue.o(i.xQueueGenericCreateStatic)
    xQueueGenericReset                       0x08005b31   Thumb Code   132  queue.o(i.xQueueGenericReset)
    xQueueGenericSend                        0x08005bb9   Thumb Code   360  queue.o(i.xQueueGenericSend)
    xQueueGenericSendFromISR                 0x08005d25   Thumb Code   202  queue.o(i.xQueueGenericSendFromISR)
    xQueueReceive                            0x08005df1   Thumb Code   308  queue.o(i.xQueueReceive)
    xQueueSelectFromSet                      0x08005f29   Thumb Code    18  queue.o(i.xQueueSelectFromSet)
    xQueueSemaphoreTake                      0x08005f3d   Thumb Code   372  queue.o(i.xQueueSemaphoreTake)
    xTaskCheckForTimeOut                     0x080060b5   Thumb Code   112  tasks.o(i.xTaskCheckForTimeOut)
    xTaskCreate                              0x08006129   Thumb Code    90  tasks.o(i.xTaskCreate)
    xTaskCreateStatic                        0x08006183   Thumb Code    86  tasks.o(i.xTaskCreateStatic)
    xTaskGetSchedulerState                   0x080061d9   Thumb Code    22  tasks.o(i.xTaskGetSchedulerState)
    xTaskGetTickCount                        0x080061f5   Thumb Code     6  tasks.o(i.xTaskGetTickCount)
    xTaskIncrementTick                       0x08006201   Thumb Code   190  tasks.o(i.xTaskIncrementTick)
    xTaskPriorityDisinherit                  0x080062c9   Thumb Code   118  tasks.o(i.xTaskPriorityDisinherit)
    xTaskPriorityInherit                     0x08006349   Thumb Code   112  tasks.o(i.xTaskPriorityInherit)
    xTaskRemoveFromEventList                 0x080063c1   Thumb Code    98  tasks.o(i.xTaskRemoveFromEventList)
    xTaskResumeAll                           0x08006431   Thumb Code   182  tasks.o(i.xTaskResumeAll)
    xTimerCreate                             0x080064f5   Thumb Code    52  timers.o(i.xTimerCreate)
    xTimerCreateTimerTask                    0x08006529   Thumb Code    78  timers.o(i.xTimerCreateTimerTask)
    xTimerGenericCommand                     0x08006589   Thumb Code    98  timers.o(i.xTimerGenericCommand)
    xTimerPendFunctionCallFromISR            0x080065f1   Thumb Code    34  timers.o(i.xTimerPendFunctionCallFromISR)
    AHBPrescTable                            0x0800662a   Data          16  system_stm32f1xx.o(.constdata)
    APBPrescTable                            0x0800663a   Data           8  system_stm32f1xx.o(.constdata)
    ascii_font                               0x08006642   Data        2048  driver_oled.o(.constdata)
    livesImg                                 0x08006e5f   Data           7  resources.o(.constdata)
    smallFont                                0x08006e66   Data         485  resources.o(.constdata)
    Region$$Table$$Base                      0x0800704c   Number         0  anon$$obj.o(Region$$Table)
    Region$$Table$$Limit                     0x0800706c   Number         0  anon$$obj.o(Region$$Table)
    uwTickFreq                               0x20000004   Data           1  stm32f1xx_hal.o(.data)
    uwTickPrio                               0x20000008   Data           4  stm32f1xx_hal.o(.data)
    uwTick                                   0x2000000c   Data           4  stm32f1xx_hal.o(.data)
    SystemCoreClock                          0x20000010   Data           4  system_stm32f1xx.o(.data)
    pxCurrentTCB                             0x20000014   Data           4  tasks.o(.data)
    __microlib_freelist                      0x20000140   Data           4  mvars.o(.data)
    __microlib_freelist_initialised          0x20000144   Data           4  mvars.o(.data)
    hadc1                                    0x20000148   Data          48  adc.o(.bss)
    hi2c1                                    0x20000178   Data          84  i2c.o(.bss)
    hspi1                                    0x200001cc   Data          88  spi.o(.bss)
    htim1                                    0x20000224   Data          72  tim.o(.bss)
    htim2                                    0x2000026c   Data          72  tim.o(.bss)
    htim3                                    0x200002b4   Data          72  tim.o(.bss)
    huart1                                   0x200002fc   Data          72  usart.o(.bss)
    hpcd_USB_FS                              0x20000344   Data         752  usb.o(.bss)
    htim4                                    0x20000634   Data          72  stm32f1xx_hal_timebase_tim.o(.bss)
    xQueueRegistry                           0x2000067c   Data          64  queue.o(.bss)
    __heap_base                              0x20003a18   Data           0  startup_stm32f103xb.o(HEAP)
    __heap_limit                             0x20003c18   Data           0  startup_stm32f103xb.o(HEAP)
    __initial_sp                             0x20004018   Data           0  startup_stm32f103xb.o(STACK)



==============================================================================

Memory Map of the image

  Image Entry point : 0x080000ed

  Load Region LR_IROM1 (Base: 0x08000000, Size: 0x000071b4, Max: 0x00010000, ABSOLUTE, COMPRESSED[0x0000708c])

    Execution Region ER_IROM1 (Exec base: 0x08000000, Load base: 0x08000000, Size: 0x0000706c, Max: 0x00010000, ABSOLUTE)

    Exec Addr    Load Addr    Size         Type   Attr      Idx    E Section Name        Object

    0x08000000   0x08000000   0x000000ec   Data   RO            3    RESET               startup_stm32f103xb.o
    0x080000ec   0x080000ec   0x00000000   Code   RO         8100  * .ARM.Collect$$$$00000000  mc_w.l(entry.o)
    0x080000ec   0x080000ec   0x00000004   Code   RO         8433    .ARM.Collect$$$$00000001  mc_w.l(entry2.o)
    0x080000f0   0x080000f0   0x00000004   Code   RO         8436    .ARM.Collect$$$$00000004  mc_w.l(entry5.o)
    0x080000f4   0x080000f4   0x00000000   Code   RO         8438    .ARM.Collect$$$$00000008  mc_w.l(entry7b.o)
    0x080000f4   0x080000f4   0x00000000   Code   RO         8440    .ARM.Collect$$$$0000000A  mc_w.l(entry8b.o)
    0x080000f4   0x080000f4   0x00000008   Code   RO         8441    .ARM.Collect$$$$0000000B  mc_w.l(entry9a.o)
    0x080000fc   0x080000fc   0x00000000   Code   RO         8443    .ARM.Collect$$$$0000000D  mc_w.l(entry10a.o)
    0x080000fc   0x080000fc   0x00000000   Code   RO         8445    .ARM.Collect$$$$0000000F  mc_w.l(entry11a.o)
    0x080000fc   0x080000fc   0x00000004   Code   RO         8434    .ARM.Collect$$$$00002712  mc_w.l(entry2.o)
    0x08000100   0x08000100   0x00000096   Code   RO         6414    .emb_text           port.o
    0x08000196   0x08000196   0x00000002   PAD
    0x08000198   0x08000198   0x00000024   Code   RO            4    .text               startup_stm32f103xb.o
    0x080001bc   0x080001bc   0x00000062   Code   RO         8103    .text               mc_w.l(uldiv.o)
    0x0800021e   0x0800021e   0x00000020   Code   RO         8105    .text               mc_w.l(llushr.o)
    0x0800023e   0x0800023e   0x00000002   PAD
    0x08000240   0x08000240   0x00000024   Code   RO         8107    .text               mc_w.l(rand.o)
    0x08000264   0x08000264   0x00000024   Code   RO         8110    .text               mc_w.l(memcpya.o)
    0x08000288   0x08000288   0x00000024   Code   RO         8114    .text               mc_w.l(memseta.o)
    0x080002ac   0x080002ac   0x0000000e   Code   RO         8116    .text               mc_w.l(strlen.o)
    0x080002ba   0x080002ba   0x00000012   Code   RO         8118    .text               mc_w.l(strcpy.o)
    0x080002cc   0x080002cc   0x000000b0   Code   RO         8411    .text               mf_w.l(fadd.o)
    0x0800037c   0x0800037c   0x00000018   Code   RO         8413    .text               mf_w.l(fscalb.o)
    0x08000394   0x08000394   0x00000012   Code   RO         8419    .text               mf_w.l(fflti.o)
    0x080003a6   0x080003a6   0x0000000a   Code   RO         8421    .text               mf_w.l(ffltui.o)
    0x080003b0   0x080003b0   0x00000028   Code   RO         8425    .text               mf_w.l(ffixui.o)
    0x080003d8   0x080003d8   0x00000014   Code   RO         8429    .text               mf_w.l(cfcmple.o)
    0x080003ec   0x080003ec   0x00000014   Code   RO         8431    .text               mf_w.l(cfrcmple.o)
    0x08000400   0x08000400   0x0000002c   Code   RO         8448    .text               mc_w.l(uidiv.o)
    0x0800042c   0x0800042c   0x0000001e   Code   RO         8450    .text               mc_w.l(llshl.o)
    0x0800044a   0x0800044a   0x00000000   Code   RO         8456    .text               mc_w.l(iusefp.o)
    0x0800044a   0x0800044a   0x0000006e   Code   RO         8457    .text               mf_w.l(fepilogue.o)
    0x080004b8   0x080004b8   0x00000024   Code   RO         8467    .text               mc_w.l(init.o)
    0x080004dc   0x080004dc   0x00000056   Code   RO         8477    .text               mc_w.l(__dczerorl2.o)
    0x08000532   0x08000532   0x00000002   PAD
    0x08000534   0x08000534   0x00000056   Code   RO          989    i.ADC_ConversionStop_Disable  stm32f1xx_hal_adc.o
    0x0800058a   0x0800058a   0x00000002   Code   RO          814    i.BusFault_Handler  stm32f1xx_it.o
    0x0800058c   0x0800058c   0x00000002   Code   RO          815    i.DebugMon_Handler  stm32f1xx_it.o
    0x0800058e   0x0800058e   0x00000002   PAD
    0x08000590   0x08000590   0x0000004c   Code   RO         7257    i.DispatchKey       driver_ir_receiver.o
    0x080005dc   0x080005dc   0x0000001e   Code   RO          816    i.EXTI15_10_IRQHandler  stm32f1xx_it.o
    0x080005fa   0x080005fa   0x00000006   Code   RO          817    i.EXTI9_5_IRQHandler  stm32f1xx_it.o
    0x08000600   0x08000600   0x00000004   Code   RO           75    i.Error_Handler     main.o
    0x08000604   0x08000604   0x00000006   Code   RO         8056    i.GameSoundTimer_func  beep.o
    0x0800060a   0x0800060a   0x00000002   PAD
    0x0800060c   0x0800060c   0x00000010   Code   RO          279    i.GetI2C            freertos.o
    0x0800061c   0x0800061c   0x0000000c   Code   RO         7259    i.GetQueueIR        driver_ir_receiver.o
    0x08000628   0x08000628   0x0000000c   Code   RO         6658    i.GetQueueMPU6050   driver_mpu6050.o
    0x08000634   0x08000634   0x0000000c   Code   RO         7593    i.GetQueueRotary    driver_rotary_encoder.o
    0x08000640   0x08000640   0x000000fc   Code   RO          995    i.HAL_ADC_ConfigChannel  stm32f1xx_hal_adc.o
    0x0800073c   0x0800073c   0x0000011c   Code   RO         1004    i.HAL_ADC_Init      stm32f1xx_hal_adc.o
    0x08000858   0x08000858   0x00000058   Code   RO          533    i.HAL_ADC_MspInit   adc.o
    0x080008b0   0x080008b0   0x0000001e   Code   RO         7647    i.HAL_GPIO_EXTI_Callback  driver_irq.o
    0x080008ce   0x080008ce   0x00000002   PAD
    0x080008d0   0x080008d0   0x00000018   Code   RO         1581    i.HAL_GPIO_EXTI_IRQHandler  stm32f1xx_hal_gpio.o
    0x080008e8   0x080008e8   0x000001e0   Code   RO         1582    i.HAL_GPIO_Init     stm32f1xx_hal_gpio.o
    0x08000ac8   0x08000ac8   0x0000000a   Code   RO         1584    i.HAL_GPIO_ReadPin  stm32f1xx_hal_gpio.o
    0x08000ad2   0x08000ad2   0x0000000a   Code   RO         1586    i.HAL_GPIO_WritePin  stm32f1xx_hal_gpio.o
    0x08000adc   0x08000adc   0x0000000c   Code   RO         1276    i.HAL_GetTick       stm32f1xx_hal.o
    0x08000ae8   0x08000ae8   0x00000188   Code   RO         2253    i.HAL_I2C_Init      stm32f1xx_hal_i2c.o
    0x08000c70   0x08000c70   0x0000012c   Code   RO         2266    i.HAL_I2C_Master_Transmit  stm32f1xx_hal_i2c.o
    0x08000d9c   0x08000d9c   0x00000250   Code   RO         2271    i.HAL_I2C_Mem_Read  stm32f1xx_hal_i2c.o
    0x08000fec   0x08000fec   0x00000130   Code   RO         2274    i.HAL_I2C_Mem_Write  stm32f1xx_hal_i2c.o
    0x0800111c   0x0800111c   0x0000005c   Code   RO          575    i.HAL_I2C_MspInit   i2c.o
    0x08001178   0x08001178   0x00000010   Code   RO         1282    i.HAL_IncTick       stm32f1xx_hal.o
    0x08001188   0x08001188   0x00000024   Code   RO         1283    i.HAL_Init          stm32f1xx_hal.o
    0x080011ac   0x080011ac   0x00000098   Code   RO          914    i.HAL_InitTick      stm32f1xx_hal_timebase_tim.o
    0x08001244   0x08001244   0x00000048   Code   RO          890    i.HAL_MspInit       stm32f1xx_hal_msp.o
    0x0800128c   0x0800128c   0x0000001a   Code   RO         1742    i.HAL_NVIC_EnableIRQ  stm32f1xx_hal_cortex.o
    0x080012a6   0x080012a6   0x00000002   PAD
    0x080012a8   0x080012a8   0x00000040   Code   RO         1748    i.HAL_NVIC_SetPriority  stm32f1xx_hal_cortex.o
    0x080012e8   0x080012e8   0x00000024   Code   RO         1749    i.HAL_NVIC_SetPriorityGrouping  stm32f1xx_hal_cortex.o
    0x0800130c   0x0800130c   0x000000da   Code   RO         4361    i.HAL_PCD_Init      stm32f1xx_hal_pcd.o
    0x080013e6   0x080013e6   0x00000002   PAD
    0x080013e8   0x080013e8   0x00000028   Code   RO          773    i.HAL_PCD_MspInit   usb.o
    0x08001410   0x08001410   0x000000ec   Code   RO         1544    i.HAL_RCCEx_PeriphCLKConfig  stm32f1xx_hal_rcc_ex.o
    0x080014fc   0x080014fc   0x0000012c   Code   RO         1440    i.HAL_RCC_ClockConfig  stm32f1xx_hal_rcc.o
    0x08001628   0x08001628   0x00000040   Code   RO         1444    i.HAL_RCC_GetClockConfig  stm32f1xx_hal_rcc.o
    0x08001668   0x08001668   0x00000020   Code   RO         1447    i.HAL_RCC_GetPCLK1Freq  stm32f1xx_hal_rcc.o
    0x08001688   0x08001688   0x00000020   Code   RO         1448    i.HAL_RCC_GetPCLK2Freq  stm32f1xx_hal_rcc.o
    0x080016a8   0x080016a8   0x0000004c   Code   RO         1449    i.HAL_RCC_GetSysClockFreq  stm32f1xx_hal_rcc.o
    0x080016f4   0x080016f4   0x00000320   Code   RO         1452    i.HAL_RCC_OscConfig  stm32f1xx_hal_rcc.o
    0x08001a14   0x08001a14   0x000000b2   Code   RO         2690    i.HAL_SPI_Init      stm32f1xx_hal_spi.o
    0x08001ac6   0x08001ac6   0x00000002   PAD
    0x08001ac8   0x08001ac8   0x00000070   Code   RO          617    i.HAL_SPI_MspInit   spi.o
    0x08001b38   0x08001b38   0x00000002   Code   RO         3707    i.HAL_TIMEx_BreakCallback  stm32f1xx_hal_tim_ex.o
    0x08001b3a   0x08001b3a   0x00000002   Code   RO         3708    i.HAL_TIMEx_CommutCallback  stm32f1xx_hal_tim_ex.o
    0x08001b3c   0x08001b3c   0x00000054   Code   RO         3710    i.HAL_TIMEx_ConfigBreakDeadTime  stm32f1xx_hal_tim_ex.o
    0x08001b90   0x08001b90   0x00000068   Code   RO         3726    i.HAL_TIMEx_MasterConfigSynchronization  stm32f1xx_hal_tim_ex.o
    0x08001bf8   0x08001bf8   0x0000005c   Code   RO         3001    i.HAL_TIM_Base_DeInit  stm32f1xx_hal_tim.o
    0x08001c54   0x08001c54   0x0000005a   Code   RO         3003    i.HAL_TIM_Base_Init  stm32f1xx_hal_tim.o
    0x08001cae   0x08001cae   0x00000002   PAD
    0x08001cb0   0x08001cb0   0x0000002c   Code   RO          658    i.HAL_TIM_Base_MspDeInit  tim.o
    0x08001cdc   0x08001cdc   0x0000003c   Code   RO          659    i.HAL_TIM_Base_MspInit  tim.o
    0x08001d18   0x08001d18   0x00000058   Code   RO         3008    i.HAL_TIM_Base_Start_IT  stm32f1xx_hal_tim.o
    0x08001d70   0x08001d70   0x000000dc   Code   RO         3012    i.HAL_TIM_ConfigClockSource  stm32f1xx_hal_tim.o
    0x08001e4c   0x08001e4c   0x00000002   Code   RO         3037    i.HAL_TIM_IC_CaptureCallback  stm32f1xx_hal_tim.o
    0x08001e4e   0x08001e4e   0x00000166   Code   RO         3051    i.HAL_TIM_IRQHandler  stm32f1xx_hal_tim.o
    0x08001fb4   0x08001fb4   0x000000ec   Code   RO          660    i.HAL_TIM_MspPostInit  tim.o
    0x080020a0   0x080020a0   0x00000002   Code   RO         3054    i.HAL_TIM_OC_DelayElapsedCallback  stm32f1xx_hal_tim.o
    0x080020a2   0x080020a2   0x000000cc   Code   RO         3075    i.HAL_TIM_PWM_ConfigChannel  stm32f1xx_hal_tim.o
    0x0800216e   0x0800216e   0x0000005a   Code   RO         3078    i.HAL_TIM_PWM_Init  stm32f1xx_hal_tim.o
    0x080021c8   0x080021c8   0x00000028   Code   RO          662    i.HAL_TIM_PWM_MspInit  tim.o
    0x080021f0   0x080021f0   0x00000002   Code   RO         3081    i.HAL_TIM_PWM_PulseFinishedCallback  stm32f1xx_hal_tim.o
    0x080021f2   0x080021f2   0x00000002   PAD
    0x080021f4   0x080021f4   0x0000009c   Code   RO         3083    i.HAL_TIM_PWM_Start  stm32f1xx_hal_tim.o
    0x08002290   0x08002290   0x00000070   Code   RO         3086    i.HAL_TIM_PWM_Stop  stm32f1xx_hal_tim.o
    0x08002300   0x08002300   0x00000014   Code   RO           76    i.HAL_TIM_PeriodElapsedCallback  main.o
    0x08002314   0x08002314   0x00000002   Code   RO         3094    i.HAL_TIM_TriggerCallback  stm32f1xx_hal_tim.o
    0x08002316   0x08002316   0x00000064   Code   RO         4004    i.HAL_UART_Init     stm32f1xx_hal_uart.o
    0x0800237a   0x0800237a   0x00000002   PAD
    0x0800237c   0x0800237c   0x00000070   Code   RO          731    i.HAL_UART_MspInit  usart.o
    0x080023ec   0x080023ec   0x00000002   Code   RO          818    i.HardFault_Handler  stm32f1xx_it.o
    0x080023ee   0x080023ee   0x0000002e   Code   RO         2296    i.I2C_IsAcknowledgeFailed  stm32f1xx_hal_i2c.o
    0x0800241c   0x0800241c   0x0000009c   Code   RO         2300    i.I2C_MasterRequestWrite  stm32f1xx_hal_i2c.o
    0x080024b8   0x080024b8   0x000000fc   Code   RO         2306    i.I2C_RequestMemoryRead  stm32f1xx_hal_i2c.o
    0x080025b4   0x080025b4   0x000000a8   Code   RO         2307    i.I2C_RequestMemoryWrite  stm32f1xx_hal_i2c.o
    0x0800265c   0x0800265c   0x00000056   Code   RO         2311    i.I2C_WaitOnBTFFlagUntilTimeout  stm32f1xx_hal_i2c.o
    0x080026b2   0x080026b2   0x00000002   PAD
    0x080026b4   0x080026b4   0x00000090   Code   RO         2312    i.I2C_WaitOnFlagUntilTimeout  stm32f1xx_hal_i2c.o
    0x08002744   0x08002744   0x000000bc   Code   RO         2313    i.I2C_WaitOnMasterAddressFlagUntilTimeout  stm32f1xx_hal_i2c.o
    0x08002800   0x08002800   0x00000070   Code   RO         2314    i.I2C_WaitOnRXNEFlagUntilTimeout  stm32f1xx_hal_i2c.o
    0x08002870   0x08002870   0x00000056   Code   RO         2315    i.I2C_WaitOnTXEFlagUntilTimeout  stm32f1xx_hal_i2c.o
    0x080028c6   0x080028c6   0x00000002   PAD
    0x080028c8   0x080028c8   0x0000011c   Code   RO         7261    i.IRReceiver_IRQTimes_Parse  driver_ir_receiver.o
    0x080029e4   0x080029e4   0x000000b4   Code   RO         7262    i.IRReceiver_IRQ_Callback  driver_ir_receiver.o
    0x08002a98   0x08002a98   0x0000001c   Code   RO         7263    i.IRReceiver_Init   driver_ir_receiver.o
    0x08002ab4   0x08002ab4   0x00000078   Code   RO         7890    i.InputTask         game1.o
    0x08002b2c   0x08002b2c   0x00000004   Code   RO         6991    i.LCD_Clear         driver_lcd.o
    0x08002b30   0x08002b30   0x00000004   Code   RO         6994    i.LCD_Flush         driver_lcd.o
    0x08002b34   0x08002b34   0x00000004   Code   RO         6995    i.LCD_FlushRegion   driver_lcd.o
    0x08002b38   0x08002b38   0x00000004   Code   RO         6996    i.LCD_GetFrameBuffer  driver_lcd.o
    0x08002b3c   0x08002b3c   0x00000004   Code   RO         6997    i.LCD_Init          driver_lcd.o
    0x08002b40   0x08002b40   0x00000004   Code   RO         7000    i.LCD_PrintString   driver_lcd.o
    0x08002b44   0x08002b44   0x00000034   Code   RO         6659    i.MPU6050_Callback  driver_mpu6050.o
    0x08002b78   0x08002b78   0x00000060   Code   RO         6661    i.MPU6050_Init      driver_mpu6050.o
    0x08002bd8   0x08002bd8   0x0000010a   Code   RO         6662    i.MPU6050_ReadData  driver_mpu6050.o
    0x08002ce2   0x08002ce2   0x00000002   PAD
    0x08002ce4   0x08002ce4   0x00000020   Code   RO         6663    i.MPU6050_ReadRegister  driver_mpu6050.o
    0x08002d04   0x08002d04   0x00000024   Code   RO         6665    i.MPU6050_WriteRegister  driver_mpu6050.o
    0x08002d28   0x08002d28   0x0000004c   Code   RO         6666    i.MPU_6050_Task     driver_mpu6050.o
    0x08002d74   0x08002d74   0x00000050   Code   RO          534    i.MX_ADC1_Init      adc.o
    0x08002dc4   0x08002dc4   0x00000060   Code   RO          280    i.MX_FREERTOS_Init  freertos.o
    0x08002e24   0x08002e24   0x00000160   Code   RO          255    i.MX_GPIO_Init      gpio.o
    0x08002f84   0x08002f84   0x00000040   Code   RO          576    i.MX_I2C1_Init      i2c.o
    0x08002fc4   0x08002fc4   0x00000048   Code   RO          618    i.MX_SPI1_Init      spi.o
    0x0800300c   0x0800300c   0x000000d0   Code   RO          663    i.MX_TIM1_Init      tim.o
    0x080030dc   0x080030dc   0x000000bc   Code   RO          664    i.MX_TIM2_Init      tim.o
    0x08003198   0x08003198   0x00000078   Code   RO          665    i.MX_TIM3_Init      tim.o
    0x08003210   0x08003210   0x00000038   Code   RO          732    i.MX_USART1_UART_Init  usart.o
    0x08003248   0x08003248   0x00000034   Code   RO          774    i.MX_USB_PCD_Init   usb.o
    0x0800327c   0x0800327c   0x00000002   Code   RO          819    i.MemManage_Handler  stm32f1xx_it.o
    0x0800327e   0x0800327e   0x00000002   Code   RO          820    i.NMI_Handler       stm32f1xx_it.o
    0x08003280   0x08003280   0x0000002a   Code   RO         6536    i.OLED_Clear        driver_oled.o
    0x080032aa   0x080032aa   0x00000002   PAD
    0x080032ac   0x080032ac   0x00000038   Code   RO         6539    i.OLED_Flush        driver_oled.o
    0x080032e4   0x080032e4   0x00000060   Code   RO         6540    i.OLED_FlushRegion  driver_oled.o
    0x08003344   0x08003344   0x00000014   Code   RO         6541    i.OLED_GetFrameBuffer  driver_oled.o
    0x08003358   0x08003358   0x00000094   Code   RO         6542    i.OLED_Init         driver_oled.o
    0x080033ec   0x080033ec   0x00000032   Code   RO         6545    i.OLED_PrintString  driver_oled.o
    0x0800341e   0x0800341e   0x00000002   PAD
    0x08003420   0x08003420   0x00000048   Code   RO         6546    i.OLED_PutChar      driver_oled.o
    0x08003468   0x08003468   0x0000002c   Code   RO         6547    i.OLED_SetComConfig  driver_oled.o
    0x08003494   0x08003494   0x00000040   Code   RO         6548    i.OLED_SetPosition  driver_oled.o
    0x080034d4   0x080034d4   0x00000028   Code   RO         6550    i.OLED_WriteCmd     driver_oled.o
    0x080034fc   0x080034fc   0x00000020   Code   RO         6551    i.OLED_WriteNBytes  driver_oled.o
    0x0800351c   0x0800351c   0x00000018   Code   RO         7169    i.PassiveBuzzer_Control  driver_passive_buzzer.o
    0x08003534   0x08003534   0x00000068   Code   RO         7170    i.PassiveBuzzer_Init  driver_passive_buzzer.o
    0x0800359c   0x0800359c   0x00000088   Code   RO         7171    i.PassiveBuzzer_Set_Freq_Duty  driver_passive_buzzer.o
    0x08003624   0x08003624   0x0000004c   Code   RO         7891    i.ProcessIRData     game1.o
    0x08003670   0x08003670   0x00000068   Code   RO         7892    i.ProcessRotaryData  game1.o
    0x080036d8   0x080036d8   0x00000014   Code   RO          281    i.PutI2C            freertos.o
    0x080036ec   0x080036ec   0x0000001c   Code   RO         7266    i.RegisterQueueHandle  driver_ir_receiver.o
    0x08003708   0x08003708   0x00000098   Code   RO         7594    i.RotaryEncoder_IRQ_Callback  driver_rotary_encoder.o
    0x080037a0   0x080037a0   0x00000024   Code   RO         7595    i.RotaryEncoder_Init  driver_rotary_encoder.o
    0x080037c4   0x080037c4   0x0000002c   Code   RO         6415    i.SysTick_Handler   port.o
    0x080037f0   0x080037f0   0x0000007c   Code   RO           77    i.SystemClock_Config  main.o
    0x0800386c   0x0800386c   0x00000002   Code   RO         4803    i.SystemInit        system_stm32f1xx.o
    0x0800386e   0x0800386e   0x00000002   PAD
    0x08003870   0x08003870   0x0000000c   Code   RO          821    i.TIM4_IRQHandler   stm32f1xx_it.o
    0x0800387c   0x0800387c   0x0000006c   Code   RO         3096    i.TIM_Base_SetConfig  stm32f1xx_hal_tim.o
    0x080038e8   0x080038e8   0x0000001a   Code   RO         3097    i.TIM_CCxChannelCmd  stm32f1xx_hal_tim.o
    0x08003902   0x08003902   0x00000014   Code   RO         3107    i.TIM_ETR_SetConfig  stm32f1xx_hal_tim.o
    0x08003916   0x08003916   0x00000010   Code   RO         3108    i.TIM_ITRx_SetConfig  stm32f1xx_hal_tim.o
    0x08003926   0x08003926   0x00000002   PAD
    0x08003928   0x08003928   0x00000050   Code   RO         3109    i.TIM_OC1_SetConfig  stm32f1xx_hal_tim.o
    0x08003978   0x08003978   0x00000058   Code   RO         3110    i.TIM_OC2_SetConfig  stm32f1xx_hal_tim.o
    0x080039d0   0x080039d0   0x00000058   Code   RO         3111    i.TIM_OC3_SetConfig  stm32f1xx_hal_tim.o
    0x08003a28   0x08003a28   0x00000044   Code   RO         3112    i.TIM_OC4_SetConfig  stm32f1xx_hal_tim.o
    0x08003a6c   0x08003a6c   0x00000022   Code   RO         3114    i.TIM_TI1_ConfigInputStage  stm32f1xx_hal_tim.o
    0x08003a8e   0x08003a8e   0x00000024   Code   RO         3116    i.TIM_TI2_ConfigInputStage  stm32f1xx_hal_tim.o
    0x08003ab2   0x08003ab2   0x00000002   PAD
    0x08003ab4   0x08003ab4   0x000000b8   Code   RO         4030    i.UART_SetConfig    stm32f1xx_hal_uart.o
    0x08003b6c   0x08003b6c   0x00000004   Code   RO         4619    i.USB_CoreInit      stm32f1xx_ll_usb.o
    0x08003b70   0x08003b70   0x00000004   Code   RO         4623    i.USB_DevDisconnect  stm32f1xx_ll_usb.o
    0x08003b74   0x08003b74   0x00000012   Code   RO         4624    i.USB_DevInit       stm32f1xx_ll_usb.o
    0x08003b86   0x08003b86   0x0000000e   Code   RO         4625    i.USB_DisableGlobalInt  stm32f1xx_ll_usb.o
    0x08003b94   0x08003b94   0x00000004   Code   RO         4640    i.USB_SetCurrentMode  stm32f1xx_ll_usb.o
    0x08003b98   0x08003b98   0x00000002   Code   RO          822    i.UsageFault_Handler  stm32f1xx_it.o
    0x08003b9a   0x08003b9a   0x00000002   PAD
    0x08003b9c   0x08003b9c   0x00000028   Code   RO         8213    i.__0sprintf$3      mc_w.l(printf3.o)
    0x08003bc4   0x08003bc4   0x00000020   Code   RO         1755    i.__NVIC_SetPriority  stm32f1xx_hal_cortex.o
    0x08003be4   0x08003be4   0x0000000e   Code   RO         8471    i.__scatterload_copy  mc_w.l(handlers.o)
    0x08003bf2   0x08003bf2   0x00000002   Code   RO         8472    i.__scatterload_null  mc_w.l(handlers.o)
    0x08003bf4   0x08003bf4   0x0000000e   Code   RO         8473    i.__scatterload_zeroinit  mc_w.l(handlers.o)
    0x08003c02   0x08003c02   0x00000002   PAD
    0x08003c04   0x08003c04   0x000001b8   Code   RO         8218    i._printf_core      mc_w.l(printf3.o)
    0x08003dbc   0x08003dbc   0x0000000a   Code   RO         8220    i._sputc            mc_w.l(printf3.o)
    0x08003dc6   0x08003dc6   0x00000002   PAD
    0x08003dc8   0x08003dc8   0x00000024   Code   RO         8057    i.buzzer_buzz       beep.o
    0x08003dec   0x08003dec   0x00000030   Code   RO         8058    i.buzzer_init       beep.o
    0x08003e1c   0x08003e1c   0x000001d0   Code   RO         7803    i.draw_bitmap       draw.o
    0x08003fec   0x08003fec   0x00000004   Code   RO         7805    i.draw_end          draw.o
    0x08003ff0   0x08003ff0   0x00000024   Code   RO         7806    i.draw_flushArea    draw.o
    0x08004014   0x08004014   0x00000018   Code   RO         7807    i.draw_init         draw.o
    0x0800402c   0x0800402c   0x000000b0   Code   RO         7808    i.draw_string       draw.o
    0x080040dc   0x080040dc   0x00000036   Code   RO         7809    i.draw_string_P     draw.o
    0x08004112   0x08004112   0x00000002   PAD
    0x08004114   0x08004114   0x00000050   Code   RO         8383    i.free              mc_w.l(malloc.o)
    0x08004164   0x08004164   0x000003bc   Code   RO         7893    i.game1_draw        game1.o
    0x08004520   0x08004520   0x00000120   Code   RO         7894    i.game1_task        game1.o
    0x08004640   0x08004640   0x0000003a   Code   RO           78    i.main              main.o
    0x0800467a   0x0800467a   0x00000002   PAD
    0x0800467c   0x0800467c   0x0000006c   Code   RO         8384    i.malloc            mc_w.l(malloc.o)
    0x080046e8   0x080046e8   0x0000001a   Code   RO         6874    i.mdelay            driver_timer.o
    0x08004702   0x08004702   0x00000002   PAD
    0x08004704   0x08004704   0x00000038   Code   RO         5958    i.osKernelInitialize  cmsis_os2.o
    0x0800473c   0x0800473c   0x00000040   Code   RO         5961    i.osKernelStart     cmsis_os2.o
    0x0800477c   0x0800477c   0x000000c8   Code   RO         7895    i.platform_task     game1.o
    0x08004844   0x08004844   0x0000005c   Code   RO         5440    i.prvAddCurrentTaskToDelayedList  tasks.o
    0x080048a0   0x080048a0   0x000000d0   Code   RO         5441    i.prvAddNewTaskToReadyList  tasks.o
    0x08004970   0x08004970   0x00000058   Code   RO         5790    i.prvCheckForValidListAndQueue  timers.o
    0x080049c8   0x080049c8   0x00000026   Code   RO         5008    i.prvCopyDataFromQueue  queue.o
    0x080049ee   0x080049ee   0x0000006c   Code   RO         5009    i.prvCopyDataToQueue  queue.o
    0x08004a5a   0x08004a5a   0x00000034   Code   RO         5442    i.prvDeleteTCB      tasks.o
    0x08004a8e   0x08004a8e   0x00000002   PAD
    0x08004a90   0x08004a90   0x0000004c   Code   RO         6365    i.prvHeapInit       heap_4.o
    0x08004adc   0x08004adc   0x00000060   Code   RO         5443    i.prvIdleTask       tasks.o
    0x08004b3c   0x08004b3c   0x00000016   Code   RO         5010    i.prvInitialiseMutex  queue.o
    0x08004b52   0x08004b52   0x00000002   PAD
    0x08004b54   0x08004b54   0x00000026   Code   RO         5011    i.prvInitialiseNewQueue  queue.o
    0x08004b7a   0x08004b7a   0x0000009c   Code   RO         5444    i.prvInitialiseNewTask  tasks.o
    0x08004c16   0x08004c16   0x00000044   Code   RO         5791    i.prvInitialiseNewTimer  timers.o
    0x08004c5a   0x08004c5a   0x00000002   PAD
    0x08004c5c   0x08004c5c   0x0000004c   Code   RO         6366    i.prvInsertBlockIntoFreeList  heap_4.o
    0x08004ca8   0x08004ca8   0x00000038   Code   RO         5792    i.prvInsertTimerInActiveList  timers.o
    0x08004ce0   0x08004ce0   0x0000001c   Code   RO         5012    i.prvIsQueueEmpty   queue.o
    0x08004cfc   0x08004cfc   0x0000006c   Code   RO         5013    i.prvNotifyQueueSetContainer  queue.o
    0x08004d68   0x08004d68   0x000000cc   Code   RO         5793    i.prvProcessReceivedCommands  timers.o
    0x08004e34   0x08004e34   0x000000b4   Code   RO         5794    i.prvProcessTimerOrBlockTask  timers.o
    0x08004ee8   0x08004ee8   0x00000020   Code   RO         5446    i.prvResetNextTaskUnblockTime  tasks.o
    0x08004f08   0x08004f08   0x00000028   Code   RO         5795    i.prvSampleTimeNow  timers.o
    0x08004f30   0x08004f30   0x0000006c   Code   RO         5796    i.prvSwitchTimerLists  timers.o
    0x08004f9c   0x08004f9c   0x00000028   Code   RO         6416    i.prvTaskExitError  port.o
    0x08004fc4   0x08004fc4   0x00000014   Code   RO         4846    i.prvTestWaitCondition  event_groups.o
    0x08004fd8   0x08004fd8   0x00000024   Code   RO         5797    i.prvTimerTask      timers.o
    0x08004ffc   0x08004ffc   0x00000078   Code   RO         5014    i.prvUnlockQueue    queue.o
    0x08005074   0x08005074   0x000000d8   Code   RO         6367    i.pvPortMalloc      heap_4.o
    0x0800514c   0x0800514c   0x00000018   Code   RO         5449    i.pvTaskIncrementMutexHeldCount  tasks.o
    0x08005164   0x08005164   0x00000024   Code   RO         6417    i.pxPortInitialiseStack  port.o
    0x08005188   0x08005188   0x0000000c   Code   RO         7810    i.readPixels        draw.o
    0x08005194   0x08005194   0x00000018   Code   RO         7811    i.setBuffByte       draw.o
    0x080051ac   0x080051ac   0x00000016   Code   RO         7812    i.set_bits          draw.o
    0x080051c2   0x080051c2   0x00000002   PAD
    0x080051c4   0x080051c4   0x00000044   Code   RO         6875    i.system_get_ns     driver_timer.o
    0x08005208   0x08005208   0x00000038   Code   RO         6876    i.udelay            driver_timer.o
    0x08005240   0x08005240   0x00000026   Code   RO         4968    i.uxListRemove      list.o
    0x08005266   0x08005266   0x00000002   PAD
    0x08005268   0x08005268   0x00000018   Code   RO         5457    i.uxTaskResetEventItemValue  tasks.o
    0x08005280   0x08005280   0x00000014   Code   RO         6007    i.vApplicationGetIdleTaskMemory  cmsis_os2.o
    0x08005294   0x08005294   0x00000018   Code   RO         6008    i.vApplicationGetTimerTaskMemory  cmsis_os2.o
    0x080052ac   0x080052ac   0x00000004   Code   RO         4850    i.vEventGroupSetBitsCallback  event_groups.o
    0x080052b0   0x080052b0   0x00000016   Code   RO         4969    i.vListInitialise   list.o
    0x080052c6   0x080052c6   0x00000006   Code   RO         4970    i.vListInitialiseItem  list.o
    0x080052cc   0x080052cc   0x00000030   Code   RO         4971    i.vListInsert       list.o
    0x080052fc   0x080052fc   0x00000018   Code   RO         4972    i.vListInsertEnd    list.o
    0x08005314   0x08005314   0x00000040   Code   RO         6419    i.vPortEnterCritical  port.o
    0x08005354   0x08005354   0x00000028   Code   RO         6420    i.vPortExitCritical  port.o
    0x0800537c   0x0800537c   0x0000005c   Code   RO         6368    i.vPortFree         heap_4.o
    0x080053d8   0x080053d8   0x00000024   Code   RO         6421    i.vPortSetupTimerInterrupt  port.o
    0x080053fc   0x080053fc   0x00000054   Code   RO         6422    i.vPortValidateInterruptPriority  port.o
    0x08005450   0x08005450   0x00000028   Code   RO         5020    i.vQueueAddToRegistry  queue.o
    0x08005478   0x08005478   0x00000044   Code   RO         5024    i.vQueueWaitForMessageRestricted  queue.o
    0x080054bc   0x080054bc   0x0000004c   Code   RO         5458    i.vTaskDelay        tasks.o
    0x08005508   0x08005508   0x00000010   Code   RO         5463    i.vTaskInternalSetTimeOutState  tasks.o
    0x08005518   0x08005518   0x0000000c   Code   RO         5464    i.vTaskMissedYield  tasks.o
    0x08005524   0x08005524   0x00000030   Code   RO         5466    i.vTaskPlaceOnEventList  tasks.o
    0x08005554   0x08005554   0x00000038   Code   RO         5467    i.vTaskPlaceOnEventListRestricted  tasks.o
    0x0800558c   0x0800558c   0x00000050   Code   RO         5468    i.vTaskPlaceOnUnorderedEventList  tasks.o
    0x080055dc   0x080055dc   0x00000090   Code   RO         5469    i.vTaskPriorityDisinheritAfterTimeout  tasks.o
    0x0800566c   0x0800566c   0x00000070   Code   RO         5471    i.vTaskRemoveFromUnorderedEventList  tasks.o
    0x080056dc   0x080056dc   0x00000088   Code   RO         5475    i.vTaskStartScheduler  tasks.o
    0x08005764   0x08005764   0x00000010   Code   RO         5477    i.vTaskSuspendAll   tasks.o
    0x08005774   0x08005774   0x00000064   Code   RO         5478    i.vTaskSwitchContext  tasks.o
    0x080057d8   0x080057d8   0x0000001c   Code   RO         4854    i.xEventGroupCreate  event_groups.o
    0x080057f4   0x080057f4   0x0000008c   Code   RO         4857    i.xEventGroupSetBits  event_groups.o
    0x08005880   0x08005880   0x00000010   Code   RO         4858    i.xEventGroupSetBitsFromISR  event_groups.o
    0x08005890   0x08005890   0x00000108   Code   RO         4860    i.xEventGroupWaitBits  event_groups.o
    0x08005998   0x08005998   0x000000a8   Code   RO         6423    i.xPortStartScheduler  port.o
    0x08005a40   0x08005a40   0x00000022   Code   RO         5025    i.xQueueAddToSet    queue.o
    0x08005a62   0x08005a62   0x00000016   Code   RO         5028    i.xQueueCreateMutex  queue.o
    0x08005a78   0x08005a78   0x00000008   Code   RO         5030    i.xQueueCreateSet   queue.o
    0x08005a80   0x08005a80   0x00000048   Code   RO         5031    i.xQueueGenericCreate  queue.o
    0x08005ac8   0x08005ac8   0x00000066   Code   RO         5032    i.xQueueGenericCreateStatic  queue.o
    0x08005b2e   0x08005b2e   0x00000002   PAD
    0x08005b30   0x08005b30   0x00000088   Code   RO         5033    i.xQueueGenericReset  queue.o
    0x08005bb8   0x08005bb8   0x0000016c   Code   RO         5034    i.xQueueGenericSend  queue.o
    0x08005d24   0x08005d24   0x000000ca   Code   RO         5035    i.xQueueGenericSendFromISR  queue.o
    0x08005dee   0x08005dee   0x00000002   PAD
    0x08005df0   0x08005df0   0x00000138   Code   RO         5044    i.xQueueReceive     queue.o
    0x08005f28   0x08005f28   0x00000012   Code   RO         5047    i.xQueueSelectFromSet  queue.o
    0x08005f3a   0x08005f3a   0x00000002   PAD
    0x08005f3c   0x08005f3c   0x00000178   Code   RO         5049    i.xQueueSemaphoreTake  queue.o
    0x080060b4   0x080060b4   0x00000074   Code   RO         5479    i.xTaskCheckForTimeOut  tasks.o
    0x08006128   0x08006128   0x0000005a   Code   RO         5480    i.xTaskCreate       tasks.o
    0x08006182   0x08006182   0x00000056   Code   RO         5481    i.xTaskCreateStatic  tasks.o
    0x080061d8   0x080061d8   0x0000001c   Code   RO         5485    i.xTaskGetSchedulerState  tasks.o
    0x080061f4   0x080061f4   0x0000000c   Code   RO         5486    i.xTaskGetTickCount  tasks.o
    0x08006200   0x08006200   0x000000c8   Code   RO         5488    i.xTaskIncrementTick  tasks.o
    0x080062c8   0x080062c8   0x00000080   Code   RO         5491    i.xTaskPriorityDisinherit  tasks.o
    0x08006348   0x08006348   0x00000078   Code   RO         5492    i.xTaskPriorityInherit  tasks.o
    0x080063c0   0x080063c0   0x00000070   Code   RO         5493    i.xTaskRemoveFromEventList  tasks.o
    0x08006430   0x08006430   0x000000c4   Code   RO         5494    i.xTaskResumeAll    tasks.o
    0x080064f4   0x080064f4   0x00000034   Code   RO         5802    i.xTimerCreate      timers.o
    0x08006528   0x08006528   0x00000060   Code   RO         5804    i.xTimerCreateTimerTask  timers.o
    0x08006588   0x08006588   0x00000068   Code   RO         5805    i.xTimerGenericCommand  timers.o
    0x080065f0   0x080065f0   0x00000028   Code   RO         5811    i.xTimerPendFunctionCallFromISR  timers.o
    0x08006618   0x08006618   0x00000012   Data   RO         1453    .constdata          stm32f1xx_hal_rcc.o
    0x0800662a   0x0800662a   0x00000010   Data   RO         4804    .constdata          system_stm32f1xx.o
    0x0800663a   0x0800663a   0x00000008   Data   RO         4805    .constdata          system_stm32f1xx.o
    0x08006642   0x08006642   0x00000800   Data   RO         6553    .constdata          driver_oled.o
    0x08006e42   0x08006e42   0x0000001d   Data   RO         7897    .constdata          game1.o
    0x08006e5f   0x08006e5f   0x00000007   Data   RO         7968    .constdata          resources.o
    0x08006e66   0x08006e66   0x000001e5   Data   RO         7990    .constdata          resources.o
    0x0800704b   0x0800704b   0x00000001   PAD
    0x0800704c   0x0800704c   0x00000020   Data   RO         8469    Region$$Table       anon$$obj.o


    Execution Region RW_IRAM1 (Exec base: 0x20000000, Load base: 0x0800706c, Size: 0x00004018, Max: 0x00005000, ABSOLUTE, COMPRESSED[0x00000020])

    Exec Addr    Load Addr    Size         Type   Attr      Idx    E Section Name        Object

    0x20000000   COMPRESSED   0x00000004   Data   RW          285    .data               freertos.o
    0x20000004   COMPRESSED   0x0000000c   Data   RW         1290    .data               stm32f1xx_hal.o
    0x20000010   COMPRESSED   0x00000004   Data   RW         4806    .data               system_stm32f1xx.o
    0x20000014   COMPRESSED   0x0000003c   Data   RW         5497    .data               tasks.o
    0x20000050   COMPRESSED   0x00000014   Data   RW         5813    .data               timers.o
    0x20000064   COMPRESSED   0x00000004   Data   RW         6010    .data               cmsis_os2.o
    0x20000068   COMPRESSED   0x00000018   Data   RW         6373    .data               heap_4.o
    0x20000080   COMPRESSED   0x0000000c   Data   RW         6424    .data               port.o
    0x2000008c   COMPRESSED   0x00000008   Data   RW         6554    .data               driver_oled.o
    0x20000094   COMPRESSED   0x0000000c   Data   RW         6667    .data               driver_mpu6050.o
    0x200000a0   COMPRESSED   0x00000004   Data   RW         7173    .data               driver_passive_buzzer.o
    0x200000a4   COMPRESSED   0x00000004   PAD
    0x200000a8   COMPRESSED   0x00000020   Data   RW         7270    .data               driver_ir_receiver.o
    0x200000c8   COMPRESSED   0x00000018   Data   RW         7599    .data               driver_rotary_encoder.o
    0x200000e0   COMPRESSED   0x00000010   Data   RW         7813    .data               draw.o
    0x200000f0   COMPRESSED   0x00000048   Data   RW         7898    .data               game1.o
    0x20000138   COMPRESSED   0x00000004   Data   RW         8059    .data               beep.o
    0x2000013c   COMPRESSED   0x00000004   Data   RW         8108    .data               mc_w.l(rand.o)
    0x20000140   COMPRESSED   0x00000004   Data   RW         8454    .data               mc_w.l(mvars.o)
    0x20000144   COMPRESSED   0x00000004   Data   RW         8455    .data               mc_w.l(mvars.o)
    0x20000148        -       0x00000030   Zero   RW          535    .bss                adc.o
    0x20000178        -       0x00000054   Zero   RW          577    .bss                i2c.o
    0x200001cc        -       0x00000058   Zero   RW          619    .bss                spi.o
    0x20000224        -       0x000000d8   Zero   RW          666    .bss                tim.o
    0x200002fc        -       0x00000048   Zero   RW          733    .bss                usart.o
    0x20000344        -       0x000002f0   Zero   RW          775    .bss                usb.o
    0x20000634        -       0x00000048   Zero   RW          917    .bss                stm32f1xx_hal_timebase_tim.o
    0x2000067c        -       0x00000040   Zero   RW         5051    .bss                queue.o
    0x200006bc        -       0x000004c4   Zero   RW         5496    .bss                tasks.o
    0x20000b80        -       0x0000011c   Zero   RW         5812    .bss                timers.o
    0x20000c9c        -       0x000006b8   Zero   RW         6009    .bss                cmsis_os2.o
    0x20001354        -       0x00001f40   Zero   RW         6372    .bss                heap_4.o
    0x20003294        -       0x00000400   Zero   RW         6552    .bss                driver_oled.o
    0x20003694   COMPRESSED   0x00000004   PAD
    0x20003698        -       0x000002c8   Zero   RW         7267    .bss                driver_ir_receiver.o
    0x20003960        -       0x000000a4   Zero   RW         7598    .bss                driver_rotary_encoder.o
    0x20003a04        -       0x00000010   Zero   RW         7896    .bss                game1.o
    0x20003a14   COMPRESSED   0x00000004   PAD
    0x20003a18        -       0x00000200   Zero   RW            2    HEAP                startup_stm32f103xb.o
    0x20003c18        -       0x00000400   Zero   RW            1    STACK               startup_stm32f103xb.o


==============================================================================

Image component sizes


      Code (inc. data)   RO Data    RW Data    ZI Data      Debug   Object Name

       168         22          0          0         48       1641   adc.o
        90         26          0          4          0       1594   beep.o
       164         22          0          4       1720      12250   cmsis_os2.o
       816         24          0         16          0       9254   draw.o
       608         84          0         32        712       6055   driver_ir_receiver.o
        30          0          0          0          0        537   driver_irq.o
        24          0          0          0          0       3452   driver_lcd.o
       570         36          0         12          0     372966   driver_mpu6050.o
       664         46       2048          8       1024      10231   driver_oled.o
       264         30          0          4          0       2695   driver_passive_buzzer.o
       200         32          0         24        164       4184   driver_rotary_encoder.o
       150         14          0          0          0       2398   driver_timer.o
       472          8          0          0          0      27212   event_groups.o
       132         42          0          4          0      29028   freertos.o
      1744        136         29         72         16       6994   game1.o
       352         26          0          0          0       1051   gpio.o
       460         24          0         24       8000       4663   heap_4.o
       156         26          0          0         84       1629   i2c.o
       138          0          0          0          0       3386   list.o
       206          6          0          0          0     466848   main.o
         0          0          0          0          0      12104   music.o
       662         70          0         12          0      10809   port.o
      2216         22          0          0         64      23789   queue.o
         0          0        492          0          0       2453   resources.o
       184         24          0          0         88       1653   spi.o
        36          8        236          0       1536        804   startup_stm32f103xb.o
        64         14          0         12          0       4638   stm32f1xx_hal.o
       622         24          0          0          0       3300   stm32f1xx_hal_adc.o
       158         14          0          0          0      28178   stm32f1xx_hal_cortex.o
       524         40          0          0          0       4114   stm32f1xx_hal_gpio.o
      2826         72          0          0          0      14952   stm32f1xx_hal_i2c.o
        72         10          0          0          0        870   stm32f1xx_hal_msp.o
       218          0          0          0          0       1508   stm32f1xx_hal_pcd.o
      1304         94         18          0          0       5737   stm32f1xx_hal_rcc.o
       236         12          0          0          0       1380   stm32f1xx_hal_rcc_ex.o
       178          0          0          0          0       1231   stm32f1xx_hal_spi.o
      1982         62          0          0          0      16901   stm32f1xx_hal_tim.o
       192         12          0          0          0       3189   stm32f1xx_hal_tim_ex.o
       152         20          0          0         72       1475   stm32f1xx_hal_timebase_tim.o
       284          6          0          0          0       1928   stm32f1xx_hal_uart.o
        60          6          0          0          0       3939   stm32f1xx_it.o
        44          0          0          0          0       3328   stm32f1xx_ll_usb.o
         0          0          0          0          0       8876   stream_buffer.o
         2          0         24          4          0       1119   system_stm32f1xx.o
      2568        212          0         60       1220      28142   tasks.o
       896         76          0          0        216       5065   tim.o
      1072         88          0         20        284      28646   timers.o
       168         20          0          0         72       1678   usart.o
        92         20          0          0        752       1530   usb.o

    ----------------------------------------------------------------------
     24280       1530       2880        316      16080    1191404   Object Totals
         0          0         32          0          0          0   (incl. Generated)
        60          0          1          4          8          0   (incl. Padding)

    ----------------------------------------------------------------------

      Code (inc. data)   RO Data    RW Data    ZI Data      Debug   Library Member Name

        86          0          0          0          0          0   __dczerorl2.o
         0          0          0          0          0          0   entry.o
         0          0          0          0          0          0   entry10a.o
         0          0          0          0          0          0   entry11a.o
         8          4          0          0          0          0   entry2.o
         4          0          0          0          0          0   entry5.o
         0          0          0          0          0          0   entry7b.o
         0          0          0          0          0          0   entry8b.o
         8          4          0          0          0          0   entry9a.o
        30          0          0          0          0          0   handlers.o
        36          8          0          0          0         68   init.o
         0          0          0          0          0          0   iusefp.o
        30          0          0          0          0         68   llshl.o
        32          0          0          0          0         68   llushr.o
       188         20          0          0          0        160   malloc.o
        36          0          0          0          0         68   memcpya.o
        36          0          0          0          0        108   memseta.o
         0          0          0          8          0          0   mvars.o
       490         10          0          0          0        252   printf3.o
        36         10          0          4          0        136   rand.o
        18          0          0          0          0         68   strcpy.o
        14          0          0          0          0         68   strlen.o
        44          0          0          0          0         80   uidiv.o
        98          0          0          0          0         92   uldiv.o
        20          0          0          0          0         68   cfcmple.o
        20          0          0          0          0         68   cfrcmple.o
       176          0          0          0          0        140   fadd.o
       110          0          0          0          0        168   fepilogue.o
        40          0          0          0          0         68   ffixui.o
        18          0          0          0          0         68   fflti.o
        10          0          0          0          0         68   ffltui.o
        24          0          0          0          0         68   fscalb.o

    ----------------------------------------------------------------------
      1620         56          0         12          0       1952   Library Totals
         8          0          0          0          0          0   (incl. Padding)

    ----------------------------------------------------------------------

      Code (inc. data)   RO Data    RW Data    ZI Data      Debug   Library Name

      1194         56          0         12          0       1236   mc_w.l
       418          0          0          0          0        716   mf_w.l

    ----------------------------------------------------------------------
      1620         56          0         12          0       1952   Library Totals

    ----------------------------------------------------------------------

==============================================================================


      Code (inc. data)   RO Data    RW Data    ZI Data      Debug   

     25900       1586       2880        328      16080    1179496   Grand Totals
     25900       1586       2880         32      16080    1179496   ELF Image Totals (compressed)
     25900       1586       2880         32          0          0   ROM Totals

==============================================================================

    Total RO  Size (Code + RO Data)                28780 (  28.11kB)
    Total RW  Size (RW Data + ZI Data)             16408 (  16.02kB)
    Total ROM Size (Code + RO Data + RW Data)      28812 (  28.14kB)

==============================================================================

